{
	"contracts/AlvaraDao.sol": {
		"AlvaraDao": {
			"abi": [
				{
					"inputs": [],
					"stateMutability": "nonpayable",
					"type": "constructor"
				},
				{
					"anonymous": false,
					"inputs": [
						{
							"indexed": false,
							"internalType": "address",
							"name": "previousAdmin",
							"type": "address"
						},
						{
							"indexed": false,
							"internalType": "address",
							"name": "newAdmin",
							"type": "address"
						}
					],
					"name": "AdminChanged",
					"type": "event"
				},
				{
					"anonymous": false,
					"inputs": [
						{
							"indexed": true,
							"internalType": "address",
							"name": "beacon",
							"type": "address"
						}
					],
					"name": "BeaconUpgraded",
					"type": "event"
				},
				{
					"anonymous": false,
					"inputs": [
						{
							"indexed": false,
							"internalType": "address",
							"name": "_user",
							"type": "address"
						},
						{
							"indexed": false,
							"internalType": "bool",
							"name": "_status",
							"type": "bool"
						}
					],
					"name": "BlackListUser",
					"type": "event"
				},
				{
					"anonymous": false,
					"inputs": [
						{
							"indexed": false,
							"internalType": "uint8",
							"name": "version",
							"type": "uint8"
						}
					],
					"name": "Initialized",
					"type": "event"
				},
				{
					"anonymous": false,
					"inputs": [
						{
							"indexed": true,
							"internalType": "address",
							"name": "previousOwner",
							"type": "address"
						},
						{
							"indexed": true,
							"internalType": "address",
							"name": "newOwner",
							"type": "address"
						}
					],
					"name": "OwnershipTransferred",
					"type": "event"
				},
				{
					"anonymous": false,
					"inputs": [
						{
							"indexed": true,
							"internalType": "address",
							"name": "staker",
							"type": "address"
						},
						{
							"indexed": false,
							"internalType": "uint256",
							"name": "xALVAReceived",
							"type": "uint256"
						}
					],
					"name": "Stake",
					"type": "event"
				},
				{
					"anonymous": false,
					"inputs": [
						{
							"indexed": true,
							"internalType": "address",
							"name": "unstaker",
							"type": "address"
						},
						{
							"indexed": false,
							"internalType": "uint256",
							"name": "alvaReceived",
							"type": "uint256"
						}
					],
					"name": "Unstake",
					"type": "event"
				},
				{
					"anonymous": false,
					"inputs": [
						{
							"indexed": false,
							"internalType": "uint256",
							"name": "lockedPeriod",
							"type": "uint256"
						},
						{
							"indexed": false,
							"internalType": "uint256",
							"name": "_lockedPeriod",
							"type": "uint256"
						}
					],
					"name": "UpdateLockPeriod",
					"type": "event"
				},
				{
					"anonymous": false,
					"inputs": [
						{
							"indexed": true,
							"internalType": "address",
							"name": "implementation",
							"type": "address"
						}
					],
					"name": "Upgraded",
					"type": "event"
				},
				{
					"inputs": [],
					"name": "ALVA",
					"outputs": [
						{
							"internalType": "contract IERC20",
							"name": "",
							"type": "address"
						}
					],
					"stateMutability": "view",
					"type": "function"
				},
				{
					"inputs": [
						{
							"internalType": "address",
							"name": "",
							"type": "address"
						}
					],
					"name": "blackListAddress",
					"outputs": [
						{
							"internalType": "bool",
							"name": "",
							"type": "bool"
						}
					],
					"stateMutability": "view",
					"type": "function"
				},
				{
					"inputs": [
						{
							"internalType": "address",
							"name": "_user",
							"type": "address"
						},
						{
							"internalType": "bool",
							"name": "_status",
							"type": "bool"
						}
					],
					"name": "blackListUser",
					"outputs": [],
					"stateMutability": "nonpayable",
					"type": "function"
				},
				{
					"inputs": [
						{
							"internalType": "uint256",
							"name": "_amount",
							"type": "uint256"
						}
					],
					"name": "enter",
					"outputs": [],
					"stateMutability": "nonpayable",
					"type": "function"
				},
				{
					"inputs": [
						{
							"internalType": "address",
							"name": "_alva",
							"type": "address"
						},
						{
							"internalType": "address",
							"name": "_xalva",
							"type": "address"
						},
						{
							"internalType": "uint256",
							"name": "_lockedPeriod",
							"type": "uint256"
						}
					],
					"name": "initialize",
					"outputs": [],
					"stateMutability": "nonpayable",
					"type": "function"
				},
				{
					"inputs": [
						{
							"internalType": "uint256",
							"name": "_share",
							"type": "uint256"
						}
					],
					"name": "leave",
					"outputs": [],
					"stateMutability": "nonpayable",
					"type": "function"
				},
				{
					"inputs": [],
					"name": "lockedPeriod",
					"outputs": [
						{
							"internalType": "uint256",
							"name": "",
							"type": "uint256"
						}
					],
					"stateMutability": "view",
					"type": "function"
				},
				{
					"inputs": [],
					"name": "owner",
					"outputs": [
						{
							"internalType": "address",
							"name": "",
							"type": "address"
						}
					],
					"stateMutability": "view",
					"type": "function"
				},
				{
					"inputs": [],
					"name": "proxiableUUID",
					"outputs": [
						{
							"internalType": "bytes32",
							"name": "",
							"type": "bytes32"
						}
					],
					"stateMutability": "view",
					"type": "function"
				},
				{
					"inputs": [],
					"name": "renounceOwnership",
					"outputs": [],
					"stateMutability": "nonpayable",
					"type": "function"
				},
				{
					"inputs": [
						{
							"internalType": "address",
							"name": "newOwner",
							"type": "address"
						}
					],
					"name": "transferOwnership",
					"outputs": [],
					"stateMutability": "nonpayable",
					"type": "function"
				},
				{
					"inputs": [
						{
							"internalType": "uint256",
							"name": "_lockedPeriod",
							"type": "uint256"
						}
					],
					"name": "updateLockPeriod",
					"outputs": [],
					"stateMutability": "nonpayable",
					"type": "function"
				},
				{
					"inputs": [
						{
							"internalType": "address",
							"name": "newImplementation",
							"type": "address"
						}
					],
					"name": "upgradeTo",
					"outputs": [],
					"stateMutability": "nonpayable",
					"type": "function"
				},
				{
					"inputs": [
						{
							"internalType": "address",
							"name": "newImplementation",
							"type": "address"
						},
						{
							"internalType": "bytes",
							"name": "data",
							"type": "bytes"
						}
					],
					"name": "upgradeToAndCall",
					"outputs": [],
					"stateMutability": "payable",
					"type": "function"
				},
				{
					"inputs": [
						{
							"internalType": "address",
							"name": "",
							"type": "address"
						}
					],
					"name": "userLockPeriod",
					"outputs": [
						{
							"internalType": "uint256",
							"name": "",
							"type": "uint256"
						}
					],
					"stateMutability": "view",
					"type": "function"
				},
				{
					"inputs": [],
					"name": "xALVA",
					"outputs": [
						{
							"internalType": "contract IERC20",
							"name": "",
							"type": "address"
						}
					],
					"stateMutability": "view",
					"type": "function"
				}
			],
			"devdoc": {
				"events": {
					"AdminChanged(address,address)": {
						"details": "Emitted when the admin account has changed."
					},
					"BeaconUpgraded(address)": {
						"details": "Emitted when the beacon is changed."
					},
					"Initialized(uint8)": {
						"details": "Triggered when the contract has been initialized or reinitialized."
					},
					"Upgraded(address)": {
						"details": "Emitted when the implementation is upgraded."
					}
				},
				"kind": "dev",
				"methods": {
					"blackListUser(address,bool)": {
						"details": "Used only by admin or owner, used to blacklist any user in any emergency case",
						"params": {
							"_status": "status of user",
							"_user": "address of blacklistef user"
						}
					},
					"constructor": {
						"custom:oz-upgrades-unsafe-allow": "constructor"
					},
					"owner()": {
						"details": "Returns the address of the current owner."
					},
					"proxiableUUID()": {
						"details": "Implementation of the ERC1822 {proxiableUUID} function. This returns the storage slot used by the implementation. It is used to validate the implementation's compatibility when performing an upgrade. IMPORTANT: A proxy pointing at a proxiable contract should not be considered proxiable itself, because this risks bricking a proxy that upgrades to it, by delegating to itself until out of gas. Thus it is critical that this function revert if invoked through a proxy. This is guaranteed by the `notDelegated` modifier."
					},
					"renounceOwnership()": {
						"details": "Leaves the contract without owner. It will not be possible to call `onlyOwner` functions. Can only be called by the current owner. NOTE: Renouncing ownership will leave the contract without an owner, thereby disabling any functionality that is only available to the owner."
					},
					"transferOwnership(address)": {
						"details": "Transfers ownership of the contract to a new account (`newOwner`). Can only be called by the current owner."
					},
					"upgradeTo(address)": {
						"custom:oz-upgrades-unsafe-allow-reachable": "delegatecall",
						"details": "Upgrade the implementation of the proxy to `newImplementation`. Calls {_authorizeUpgrade}. Emits an {Upgraded} event."
					},
					"upgradeToAndCall(address,bytes)": {
						"custom:oz-upgrades-unsafe-allow-reachable": "delegatecall",
						"details": "Upgrade the implementation of the proxy to `newImplementation`, and subsequently execute the function call encoded in `data`. Calls {_authorizeUpgrade}. Emits an {Upgraded} event."
					}
				},
				"version": 1
			},
			"evm": {
				"assembly": "    /* \"contracts/AlvaraDao.sol\":323:3512  contract AlvaraDao is Initializable, OwnableUpgradeable, UUPSUpgradeable {... */\n  mstore(0x40, 0xa0)\n    /* \"@openzeppelin/contracts-upgradeable/proxy/utils/UUPSUpgradeable.sol\":1198:1202  this */\n  address\n    /* \"@openzeppelin/contracts-upgradeable/proxy/utils/UUPSUpgradeable.sol\":1155:1203  address private immutable __self = address(this) */\n  0x80\n  mstore\n    /* \"contracts/AlvaraDao.sol\":902:955  constructor() {... */\n  callvalue\n  dup1\n  iszero\n  tag_1\n  jumpi\n  revert(0x00, 0x00)\ntag_1:\n  pop\n    /* \"contracts/AlvaraDao.sol\":926:948  _disableInitializers() */\n  tag_4\n    /* \"contracts/AlvaraDao.sol\":926:946  _disableInitializers */\n  tag_5\n    /* \"contracts/AlvaraDao.sol\":926:948  _disableInitializers() */\n  jump\t// in\ntag_4:\n    /* \"contracts/AlvaraDao.sol\":323:3512  contract AlvaraDao is Initializable, OwnableUpgradeable, UUPSUpgradeable {... */\n  jump(tag_14)\n    /* \"@openzeppelin/contracts-upgradeable/proxy/utils/Initializable.sol\":5939:6219  function _disableInitializers() internal virtual {... */\ntag_5:\n    /* \"@openzeppelin/contracts-upgradeable/proxy/utils/Initializable.sol\":6007:6020  _initializing */\n  sload(0x00)\n  0x0100\n  swap1\n  div\n  0xff\n  and\n    /* \"@openzeppelin/contracts-upgradeable/proxy/utils/Initializable.sol\":6006:6020  !_initializing */\n  iszero\n    /* \"@openzeppelin/contracts-upgradeable/proxy/utils/Initializable.sol\":5998:6064  require(!_initializing, \"Initializable: contract is initializing\") */\n  tag_8\n  jumpi\n  mload(0x40)\n  shl(0xe5, 0x461bcd)\n  dup2\n  mstore\n    /* \"#utility.yul\":216:218   */\n  0x20\n    /* \"@openzeppelin/contracts-upgradeable/proxy/utils/Initializable.sol\":5998:6064  require(!_initializing, \"Initializable: contract is initializing\") */\n  0x04\n  dup3\n  add\n    /* \"#utility.yul\":198:219   */\n  mstore\n    /* \"#utility.yul\":255:257   */\n  0x27\n    /* \"#utility.yul\":235:253   */\n  0x24\n  dup3\n  add\n    /* \"#utility.yul\":228:258   */\n  mstore\n    /* \"#utility.yul\":294:328   */\n  0x496e697469616c697a61626c653a20636f6e747261637420697320696e697469\n    /* \"#utility.yul\":274:292   */\n  0x44\n  dup3\n  add\n    /* \"#utility.yul\":267:329   */\n  mstore\n  shl(0xc8, 0x616c697a696e67)\n    /* \"#utility.yul\":345:363   */\n  0x64\n  dup3\n  add\n    /* \"#utility.yul\":338:375   */\n  mstore\n    /* \"#utility.yul\":392:411   */\n  0x84\n  add\n    /* \"@openzeppelin/contracts-upgradeable/proxy/utils/Initializable.sol\":5998:6064  require(!_initializing, \"Initializable: contract is initializing\") */\n  mload(0x40)\n  dup1\n  swap2\n  sub\n  swap1\n  revert\ntag_8:\n    /* \"@openzeppelin/contracts-upgradeable/proxy/utils/Initializable.sol\":6078:6090  _initialized */\n  sload(0x00)\n    /* \"@openzeppelin/contracts-upgradeable/proxy/utils/Initializable.sol\":6094:6109  type(uint8).max */\n  0xff\n    /* \"@openzeppelin/contracts-upgradeable/proxy/utils/Initializable.sol\":6078:6090  _initialized */\n  swap1\n  dup2\n  and\n    /* \"@openzeppelin/contracts-upgradeable/proxy/utils/Initializable.sol\":6078:6109  _initialized != type(uint8).max */\n  eq\n    /* \"@openzeppelin/contracts-upgradeable/proxy/utils/Initializable.sol\":6074:6213  if (_initialized != type(uint8).max) {... */\n  tag_11\n  jumpi\n    /* \"@openzeppelin/contracts-upgradeable/proxy/utils/Initializable.sol\":6125:6137  _initialized */\n  0x00\n    /* \"@openzeppelin/contracts-upgradeable/proxy/utils/Initializable.sol\":6125:6155  _initialized = type(uint8).max */\n  dup1\n  sload\n  not(0xff)\n  and\n    /* \"@openzeppelin/contracts-upgradeable/proxy/utils/Initializable.sol\":6140:6155  type(uint8).max */\n  0xff\n    /* \"@openzeppelin/contracts-upgradeable/proxy/utils/Initializable.sol\":6125:6155  _initialized = type(uint8).max */\n  swap1\n  dup2\n  or\n  swap1\n  swap2\n  sstore\n    /* \"@openzeppelin/contracts-upgradeable/proxy/utils/Initializable.sol\":6174:6202  Initialized(type(uint8).max) */\n  mload(0x40)\n    /* \"#utility.yul\":564:600   */\n  swap1\n  dup2\n  mstore\n    /* \"@openzeppelin/contracts-upgradeable/proxy/utils/Initializable.sol\":6174:6202  Initialized(type(uint8).max) */\n  0x7f26b83ff96e1f2b6a682f133852f6798a09c465da95921460cefb3847402498\n  swap1\n    /* \"#utility.yul\":552:554   */\n  0x20\n    /* \"#utility.yul\":537:555   */\n  add\n    /* \"@openzeppelin/contracts-upgradeable/proxy/utils/Initializable.sol\":6174:6202  Initialized(type(uint8).max) */\n  mload(0x40)\n  dup1\n  swap2\n  sub\n  swap1\n  log1\n    /* \"@openzeppelin/contracts-upgradeable/proxy/utils/Initializable.sol\":6074:6213  if (_initialized != type(uint8).max) {... */\ntag_11:\n    /* \"@openzeppelin/contracts-upgradeable/proxy/utils/Initializable.sol\":5939:6219  function _disableInitializers() internal virtual {... */\n  jump\t// out\n    /* \"#utility.yul\":422:606   */\ntag_14:\n    /* \"contracts/AlvaraDao.sol\":323:3512  contract AlvaraDao is Initializable, OwnableUpgradeable, UUPSUpgradeable {... */\n  mload(0x80)\n  codecopy(0x00, dataOffset(sub_0), dataSize(sub_0))\n  0x00\n  assignImmutable(\"0x048f12d6654ff468c94a5fe76c9b74c1d8afe7efe30c47ac2460af02a58cdb97\")\n  return(0x00, dataSize(sub_0))\nstop\n\nsub_0: assembly {\n        /* \"contracts/AlvaraDao.sol\":323:3512  contract AlvaraDao is Initializable, OwnableUpgradeable, UUPSUpgradeable {... */\n      mstore(0x40, 0x80)\n      jumpi(tag_1, lt(calldatasize, 0x04))\n      shr(0xe0, calldataload(0x00))\n      dup1\n      0x6ac10901\n      gt\n      tag_18\n      jumpi\n      dup1\n      0xa59f3e0c\n      gt\n      tag_19\n      jumpi\n      dup1\n      0xa59f3e0c\n      eq\n      tag_14\n      jumpi\n      dup1\n      0xb3d6e119\n      eq\n      tag_15\n      jumpi\n      dup1\n      0xe0cef1b0\n      eq\n      tag_16\n      jumpi\n      dup1\n      0xf2fde38b\n      eq\n      tag_17\n      jumpi\n      revert(0x00, 0x00)\n    tag_19:\n      dup1\n      0x6ac10901\n      eq\n      tag_10\n      jumpi\n      dup1\n      0x715018a6\n      eq\n      tag_11\n      jumpi\n      dup1\n      0x8da5cb5b\n      eq\n      tag_12\n      jumpi\n      dup1\n      0x91db7b0d\n      eq\n      tag_13\n      jumpi\n      revert(0x00, 0x00)\n    tag_18:\n      dup1\n      0x3b0e0133\n      gt\n      tag_20\n      jumpi\n      dup1\n      0x3b0e0133\n      eq\n      tag_6\n      jumpi\n      dup1\n      0x4f1ef286\n      eq\n      tag_7\n      jumpi\n      dup1\n      0x52d1902d\n      eq\n      tag_8\n      jumpi\n      dup1\n      0x67dfd4c9\n      eq\n      tag_9\n      jumpi\n      revert(0x00, 0x00)\n    tag_20:\n      dup1\n      0x0c8e32d2\n      eq\n      tag_2\n      jumpi\n      dup1\n      0x1794bb3c\n      eq\n      tag_3\n      jumpi\n      dup1\n      0x323bf9f0\n      eq\n      tag_4\n      jumpi\n      dup1\n      0x3659cfe6\n      eq\n      tag_5\n      jumpi\n    tag_1:\n      revert(0x00, 0x00)\n        /* \"contracts/AlvaraDao.sol\":452:501  mapping(address => uint256) public userLockPeriod */\n    tag_2:\n      callvalue\n      dup1\n      iszero\n      tag_21\n      jumpi\n      revert(0x00, 0x00)\n    tag_21:\n      pop\n      tag_22\n      tag_23\n      calldatasize\n      0x04\n      tag_24\n      jump\t// in\n    tag_23:\n      mstore(0x20, 0xcb)\n      0x00\n      swap1\n      dup2\n      mstore\n      0x40\n      swap1\n      keccak256\n      sload\n      dup2\n      jump\n    tag_22:\n      mload(0x40)\n        /* \"#utility.yul\":529:554   */\n      swap1\n      dup2\n      mstore\n        /* \"#utility.yul\":517:519   */\n      0x20\n        /* \"#utility.yul\":502:520   */\n      add\n        /* \"contracts/AlvaraDao.sol\":452:501  mapping(address => uint256) public userLockPeriod */\n    tag_26:\n      mload(0x40)\n      dup1\n      swap2\n      sub\n      swap1\n      return\n        /* \"contracts/AlvaraDao.sol\":961:1379  function initialize(... */\n    tag_3:\n      callvalue\n      dup1\n      iszero\n      tag_28\n      jumpi\n      revert(0x00, 0x00)\n    tag_28:\n      pop\n      tag_29\n      tag_30\n      calldatasize\n      0x04\n      tag_31\n      jump\t// in\n    tag_30:\n      tag_32\n      jump\t// in\n    tag_29:\n      stop\n        /* \"contracts/AlvaraDao.sol\":402:420  IERC20 public ALVA */\n    tag_4:\n      callvalue\n      dup1\n      iszero\n      tag_33\n      jumpi\n      revert(0x00, 0x00)\n    tag_33:\n      pop\n      sload(0xc9)\n      tag_34\n      swap1\n      sub(shl(0xa0, 0x01), 0x01)\n      and\n      dup2\n      jump\n    tag_34:\n      mload(0x40)\n      sub(shl(0xa0, 0x01), 0x01)\n        /* \"#utility.yul\":1123:1155   */\n      swap1\n      swap2\n      and\n        /* \"#utility.yul\":1105:1156   */\n      dup2\n      mstore\n        /* \"#utility.yul\":1093:1095   */\n      0x20\n        /* \"#utility.yul\":1078:1096   */\n      add\n        /* \"contracts/AlvaraDao.sol\":402:420  IERC20 public ALVA */\n      tag_26\n        /* \"#utility.yul\":944:1162   */\n      jump\n        /* \"@openzeppelin/contracts-upgradeable/proxy/utils/UUPSUpgradeable.sol\":3408:3603  function upgradeTo(address newImplementation) public virtual onlyProxy {... */\n    tag_5:\n      callvalue\n      dup1\n      iszero\n      tag_38\n      jumpi\n      revert(0x00, 0x00)\n    tag_38:\n      pop\n      tag_29\n      tag_40\n      calldatasize\n      0x04\n      tag_24\n      jump\t// in\n    tag_40:\n      tag_41\n      jump\t// in\n        /* \"contracts/AlvaraDao.sol\":507:555  mapping(address => bool) public blackListAddress */\n    tag_6:\n      callvalue\n      dup1\n      iszero\n      tag_42\n      jumpi\n      revert(0x00, 0x00)\n    tag_42:\n      pop\n      tag_43\n      tag_44\n      calldatasize\n      0x04\n      tag_24\n      jump\t// in\n    tag_44:\n      mstore(0x20, 0xcc)\n      0x00\n      swap1\n      dup2\n      mstore\n      0x40\n      swap1\n      keccak256\n      sload\n      0xff\n      and\n      dup2\n      jump\n    tag_43:\n      mload(0x40)\n        /* \"#utility.yul\":1332:1346   */\n      swap1\n      iszero\n        /* \"#utility.yul\":1325:1347   */\n      iszero\n        /* \"#utility.yul\":1307:1348   */\n      dup2\n      mstore\n        /* \"#utility.yul\":1295:1297   */\n      0x20\n        /* \"#utility.yul\":1280:1298   */\n      add\n        /* \"contracts/AlvaraDao.sol\":507:555  mapping(address => bool) public blackListAddress */\n      tag_26\n        /* \"#utility.yul\":1167:1354   */\n      jump\n        /* \"@openzeppelin/contracts-upgradeable/proxy/utils/UUPSUpgradeable.sol\":3922:4142  function upgradeToAndCall(address newImplementation, bytes memory data) public payable virtual onlyProxy {... */\n    tag_7:\n      tag_29\n      tag_49\n      calldatasize\n      0x04\n      tag_50\n      jump\t// in\n    tag_49:\n      tag_51\n      jump\t// in\n        /* \"@openzeppelin/contracts-upgradeable/proxy/utils/UUPSUpgradeable.sol\":3027:3158  function proxiableUUID() external view virtual override notDelegated returns (bytes32) {... */\n    tag_8:\n      callvalue\n      dup1\n      iszero\n      tag_52\n      jumpi\n      revert(0x00, 0x00)\n    tag_52:\n      pop\n      tag_22\n      tag_54\n      jump\t// in\n        /* \"contracts/AlvaraDao.sol\":2191:2737  function leave(uint256 _share) public {... */\n    tag_9:\n      callvalue\n      dup1\n      iszero\n      tag_57\n      jumpi\n      revert(0x00, 0x00)\n    tag_57:\n      pop\n      tag_29\n      tag_59\n      calldatasize\n      0x04\n      tag_60\n      jump\t// in\n    tag_59:\n      tag_61\n      jump\t// in\n        /* \"contracts/AlvaraDao.sol\":426:445  IERC20 public xALVA */\n    tag_10:\n      callvalue\n      dup1\n      iszero\n      tag_62\n      jumpi\n      revert(0x00, 0x00)\n    tag_62:\n      pop\n      sload(0xca)\n      tag_34\n      swap1\n      sub(shl(0xa0, 0x01), 0x01)\n      and\n      dup2\n      jump\n        /* \"@openzeppelin/contracts-upgradeable/access/OwnableUpgradeable.sol\":2085:2186  function renounceOwnership() public virtual onlyOwner {... */\n    tag_11:\n      callvalue\n      dup1\n      iszero\n      tag_66\n      jumpi\n      revert(0x00, 0x00)\n    tag_66:\n      pop\n      tag_29\n      tag_68\n      jump\t// in\n        /* \"@openzeppelin/contracts-upgradeable/access/OwnableUpgradeable.sol\":1462:1547  function owner() public view virtual returns (address) {... */\n    tag_12:\n      callvalue\n      dup1\n      iszero\n      tag_69\n      jumpi\n      revert(0x00, 0x00)\n    tag_69:\n      pop\n        /* \"@openzeppelin/contracts-upgradeable/access/OwnableUpgradeable.sol\":1534:1540  _owner */\n      and(sub(shl(0xa0, 0x01), 0x01), sload(0x33))\n        /* \"@openzeppelin/contracts-upgradeable/access/OwnableUpgradeable.sol\":1462:1547  function owner() public view virtual returns (address) {... */\n      jump(tag_34)\n        /* \"contracts/AlvaraDao.sol\":3218:3392  function updateLockPeriod(uint256 _lockedPeriod) external onlyOwner {... */\n    tag_13:\n      callvalue\n      dup1\n      iszero\n      tag_74\n      jumpi\n      revert(0x00, 0x00)\n    tag_74:\n      pop\n      tag_29\n      tag_76\n      calldatasize\n      0x04\n      tag_60\n      jump\t// in\n    tag_76:\n      tag_77\n      jump\t// in\n        /* \"contracts/AlvaraDao.sol\":1445:2136  function enter(uint256 _amount) public {... */\n    tag_14:\n      callvalue\n      dup1\n      iszero\n      tag_78\n      jumpi\n      revert(0x00, 0x00)\n    tag_78:\n      pop\n      tag_29\n      tag_80\n      calldatasize\n      0x04\n      tag_60\n      jump\t// in\n    tag_80:\n      tag_81\n      jump\t// in\n        /* \"contracts/AlvaraDao.sol\":562:589  uint256 public lockedPeriod */\n    tag_15:\n      callvalue\n      dup1\n      iszero\n      tag_82\n      jumpi\n      revert(0x00, 0x00)\n    tag_82:\n      pop\n      tag_22\n      sload(0xcd)\n      dup2\n      jump\n        /* \"contracts/AlvaraDao.sol\":2941:3186  function blackListUser(address _user, bool _status) external onlyOwner {... */\n    tag_16:\n      callvalue\n      dup1\n      iszero\n      tag_86\n      jumpi\n      revert(0x00, 0x00)\n    tag_86:\n      pop\n      tag_29\n      tag_88\n      calldatasize\n      0x04\n      tag_89\n      jump\t// in\n    tag_88:\n      tag_90\n      jump\t// in\n        /* \"@openzeppelin/contracts-upgradeable/access/OwnableUpgradeable.sol\":2335:2533  function transferOwnership(address newOwner) public virtual onlyOwner {... */\n    tag_17:\n      callvalue\n      dup1\n      iszero\n      tag_91\n      jumpi\n      revert(0x00, 0x00)\n    tag_91:\n      pop\n      tag_29\n      tag_93\n      calldatasize\n      0x04\n      tag_24\n      jump\t// in\n    tag_93:\n      tag_94\n      jump\t// in\n        /* \"contracts/AlvaraDao.sol\":961:1379  function initialize(... */\n    tag_32:\n        /* \"@openzeppelin/contracts-upgradeable/proxy/utils/Initializable.sol\":3279:3298  bool isTopLevelCall */\n      0x00\n        /* \"@openzeppelin/contracts-upgradeable/proxy/utils/Initializable.sol\":3302:3315  _initializing */\n      sload\n      0x0100\n      swap1\n      div\n      0xff\n      and\n        /* \"@openzeppelin/contracts-upgradeable/proxy/utils/Initializable.sol\":3301:3315  !_initializing */\n      iszero\n      dup1\n        /* \"@openzeppelin/contracts-upgradeable/proxy/utils/Initializable.sol\":3347:3381  isTopLevelCall && _initialized < 1 */\n      dup1\n      iszero\n      tag_96\n      jumpi\n      pop\n        /* \"@openzeppelin/contracts-upgradeable/proxy/utils/Initializable.sol\":3365:3377  _initialized */\n      sload(0x00)\n        /* \"@openzeppelin/contracts-upgradeable/proxy/utils/Initializable.sol\":3380:3381  1 */\n      0x01\n        /* \"@openzeppelin/contracts-upgradeable/proxy/utils/Initializable.sol\":3365:3377  _initialized */\n      0xff\n      swap1\n      swap2\n      and\n        /* \"@openzeppelin/contracts-upgradeable/proxy/utils/Initializable.sol\":3365:3381  _initialized < 1 */\n      lt\n        /* \"@openzeppelin/contracts-upgradeable/proxy/utils/Initializable.sol\":3347:3381  isTopLevelCall && _initialized < 1 */\n    tag_96:\n        /* \"@openzeppelin/contracts-upgradeable/proxy/utils/Initializable.sol\":3346:3454  (isTopLevelCall && _initialized < 1) || (!AddressUpgradeable.isContract(address(this)) && _initialized == 1) */\n      dup1\n      tag_100\n      jumpi\n      pop\n        /* \"@openzeppelin/contracts-upgradeable/proxy/utils/Initializable.sol\":3426:3430  this */\n      address\n        /* \"@openzeppelin/contracts-upgradeable/utils/AddressUpgradeable.sol\":1713:1732  account.code.length */\n      extcodesize\n        /* \"@openzeppelin/contracts-upgradeable/utils/AddressUpgradeable.sol\":1713:1736  account.code.length > 0 */\n      iszero\n      dup1\n      iszero\n        /* \"@openzeppelin/contracts-upgradeable/proxy/utils/Initializable.sol\":3387:3453  !AddressUpgradeable.isContract(address(this)) && _initialized == 1 */\n      tag_100\n      jumpi\n      pop\n        /* \"@openzeppelin/contracts-upgradeable/proxy/utils/Initializable.sol\":3436:3448  _initialized */\n      and(0xff, sload(0x00))\n      0x01\n        /* \"@openzeppelin/contracts-upgradeable/proxy/utils/Initializable.sol\":3436:3453  _initialized == 1 */\n      eq\n        /* \"@openzeppelin/contracts-upgradeable/proxy/utils/Initializable.sol\":3387:3453  !AddressUpgradeable.isContract(address(this)) && _initialized == 1 */\n    tag_100:\n        /* \"@openzeppelin/contracts-upgradeable/proxy/utils/Initializable.sol\":3325:3526  require(... */\n      tag_101\n      jumpi\n      mload(0x40)\n      shl(0xe5, 0x461bcd)\n      dup2\n      mstore\n        /* \"#utility.yul\":3780:3782   */\n      0x20\n        /* \"@openzeppelin/contracts-upgradeable/proxy/utils/Initializable.sol\":3325:3526  require(... */\n      0x04\n      dup3\n      add\n        /* \"#utility.yul\":3762:3783   */\n      mstore\n        /* \"#utility.yul\":3819:3821   */\n      0x2e\n        /* \"#utility.yul\":3799:3817   */\n      0x24\n      dup3\n      add\n        /* \"#utility.yul\":3792:3822   */\n      mstore\n        /* \"#utility.yul\":3858:3892   */\n      0x496e697469616c697a61626c653a20636f6e747261637420697320616c726561\n        /* \"#utility.yul\":3838:3856   */\n      0x44\n      dup3\n      add\n        /* \"#utility.yul\":3831:3893   */\n      mstore\n      shl(0x92, 0x191e481a5b9a5d1a585b1a5e9959)\n        /* \"#utility.yul\":3909:3927   */\n      0x64\n      dup3\n      add\n        /* \"#utility.yul\":3902:3946   */\n      mstore\n        /* \"#utility.yul\":3963:3982   */\n      0x84\n      add\n        /* \"@openzeppelin/contracts-upgradeable/proxy/utils/Initializable.sol\":3325:3526  require(... */\n    tag_102:\n      mload(0x40)\n      dup1\n      swap2\n      sub\n      swap1\n      revert\n    tag_101:\n        /* \"@openzeppelin/contracts-upgradeable/proxy/utils/Initializable.sol\":3536:3548  _initialized */\n      0x00\n        /* \"@openzeppelin/contracts-upgradeable/proxy/utils/Initializable.sol\":3536:3552  _initialized = 1 */\n      dup1\n      sload\n      not(0xff)\n      and\n        /* \"@openzeppelin/contracts-upgradeable/proxy/utils/Initializable.sol\":3551:3552  1 */\n      0x01\n        /* \"@openzeppelin/contracts-upgradeable/proxy/utils/Initializable.sol\":3536:3552  _initialized = 1 */\n      or\n      swap1\n      sstore\n        /* \"@openzeppelin/contracts-upgradeable/proxy/utils/Initializable.sol\":3562:3627  if (isTopLevelCall) {... */\n      dup1\n      iszero\n      tag_104\n      jumpi\n        /* \"@openzeppelin/contracts-upgradeable/proxy/utils/Initializable.sol\":3596:3609  _initializing */\n      0x00\n        /* \"@openzeppelin/contracts-upgradeable/proxy/utils/Initializable.sol\":3596:3616  _initializing = true */\n      dup1\n      sload\n      not(0xff00)\n      and\n      0x0100\n      or\n      swap1\n      sstore\n        /* \"@openzeppelin/contracts-upgradeable/proxy/utils/Initializable.sol\":3562:3627  if (isTopLevelCall) {... */\n    tag_104:\n        /* \"contracts/AlvaraDao.sol\":1094:1110  __Ownable_init() */\n      tag_106\n        /* \"contracts/AlvaraDao.sol\":1094:1108  __Ownable_init */\n      tag_107\n        /* \"contracts/AlvaraDao.sol\":1094:1110  __Ownable_init() */\n      jump\t// in\n    tag_106:\n        /* \"contracts/AlvaraDao.sol\":1120:1144  __UUPSUpgradeable_init() */\n      tag_108\n        /* \"contracts/AlvaraDao.sol\":1120:1142  __UUPSUpgradeable_init */\n      tag_109\n        /* \"contracts/AlvaraDao.sol\":1120:1144  __UUPSUpgradeable_init() */\n      jump\t// in\n    tag_108:\n      sub(shl(0xa0, 0x01), 0x01)\n        /* \"contracts/AlvaraDao.sol\":1163:1182  _alva != address(0) */\n      dup5\n      and\n        /* \"contracts/AlvaraDao.sol\":1155:1207  require(_alva != address(0), \"Invalid alva address\") */\n      tag_110\n      jumpi\n      mload(0x40)\n      shl(0xe5, 0x461bcd)\n      dup2\n      mstore\n        /* \"#utility.yul\":4195:4197   */\n      0x20\n        /* \"contracts/AlvaraDao.sol\":1155:1207  require(_alva != address(0), \"Invalid alva address\") */\n      0x04\n      dup3\n      add\n        /* \"#utility.yul\":4177:4198   */\n      mstore\n        /* \"#utility.yul\":4234:4236   */\n      0x14\n        /* \"#utility.yul\":4214:4232   */\n      0x24\n      dup3\n      add\n        /* \"#utility.yul\":4207:4237   */\n      mstore\n      shl(0x60, 0x496e76616c696420616c76612061646472657373)\n        /* \"#utility.yul\":4253:4271   */\n      0x44\n      dup3\n      add\n        /* \"#utility.yul\":4246:4296   */\n      mstore\n        /* \"#utility.yul\":4313:4331   */\n      0x64\n      add\n        /* \"contracts/AlvaraDao.sol\":1155:1207  require(_alva != address(0), \"Invalid alva address\") */\n      tag_102\n        /* \"#utility.yul\":3993:4337   */\n      jump\n        /* \"contracts/AlvaraDao.sol\":1155:1207  require(_alva != address(0), \"Invalid alva address\") */\n    tag_110:\n      sub(shl(0xa0, 0x01), 0x01)\n        /* \"contracts/AlvaraDao.sol\":1225:1245  _xalva != address(0) */\n      dup4\n      and\n        /* \"contracts/AlvaraDao.sol\":1217:1271  require(_xalva != address(0), \"Invalid xALVA address\") */\n      tag_113\n      jumpi\n      mload(0x40)\n      shl(0xe5, 0x461bcd)\n      dup2\n      mstore\n        /* \"#utility.yul\":4544:4546   */\n      0x20\n        /* \"contracts/AlvaraDao.sol\":1217:1271  require(_xalva != address(0), \"Invalid xALVA address\") */\n      0x04\n      dup3\n      add\n        /* \"#utility.yul\":4526:4547   */\n      mstore\n        /* \"#utility.yul\":4583:4585   */\n      0x15\n        /* \"#utility.yul\":4563:4581   */\n      0x24\n      dup3\n      add\n        /* \"#utility.yul\":4556:4586   */\n      mstore\n      shl(0x58, 0x496e76616c69642078414c56412061646472657373)\n        /* \"#utility.yul\":4602:4620   */\n      0x44\n      dup3\n      add\n        /* \"#utility.yul\":4595:4646   */\n      mstore\n        /* \"#utility.yul\":4663:4681   */\n      0x64\n      add\n        /* \"contracts/AlvaraDao.sol\":1217:1271  require(_xalva != address(0), \"Invalid xALVA address\") */\n      tag_102\n        /* \"#utility.yul\":4342:4687   */\n      jump\n        /* \"contracts/AlvaraDao.sol\":1217:1271  require(_xalva != address(0), \"Invalid xALVA address\") */\n    tag_113:\n        /* \"contracts/AlvaraDao.sol\":1282:1286  ALVA */\n      0xc9\n        /* \"contracts/AlvaraDao.sol\":1282:1302  ALVA = IERC20(_alva) */\n      dup1\n      sload\n      sub(shl(0xa0, 0x01), 0x01)\n      dup1\n      dup8\n      and\n      not(sub(shl(0xa0, 0x01), 0x01))\n      swap3\n      dup4\n      and\n      or\n      swap1\n      swap3\n      sstore\n        /* \"contracts/AlvaraDao.sol\":1312:1317  xALVA */\n      0xca\n        /* \"contracts/AlvaraDao.sol\":1312:1334  xALVA = IERC20(_xalva) */\n      dup1\n      sload\n      swap3\n      dup7\n      and\n      swap3\n      swap1\n      swap2\n      and\n      swap2\n      swap1\n      swap2\n      or\n      swap1\n      sstore\n        /* \"contracts/AlvaraDao.sol\":1344:1356  lockedPeriod */\n      0xcd\n        /* \"contracts/AlvaraDao.sol\":1344:1372  lockedPeriod = _lockedPeriod */\n      dup3\n      swap1\n      sstore\n        /* \"@openzeppelin/contracts-upgradeable/proxy/utils/Initializable.sol\":3647:3746  if (isTopLevelCall) {... */\n      dup1\n      iszero\n      tag_116\n      jumpi\n        /* \"@openzeppelin/contracts-upgradeable/proxy/utils/Initializable.sol\":3697:3702  false */\n      0x00\n        /* \"@openzeppelin/contracts-upgradeable/proxy/utils/Initializable.sol\":3681:3702  _initializing = false */\n      dup1\n      sload\n      not(0xff00)\n      and\n      swap1\n      sstore\n        /* \"@openzeppelin/contracts-upgradeable/proxy/utils/Initializable.sol\":3721:3735  Initialized(1) */\n      mload(0x40)\n      0x01\n        /* \"#utility.yul\":4844:4880   */\n      dup2\n      mstore\n        /* \"@openzeppelin/contracts-upgradeable/proxy/utils/Initializable.sol\":3721:3735  Initialized(1) */\n      0x7f26b83ff96e1f2b6a682f133852f6798a09c465da95921460cefb3847402498\n      swap1\n        /* \"#utility.yul\":4832:4834   */\n      0x20\n        /* \"#utility.yul\":4817:4835   */\n      add\n        /* \"@openzeppelin/contracts-upgradeable/proxy/utils/Initializable.sol\":3721:3735  Initialized(1) */\n      mload(0x40)\n      dup1\n      swap2\n      sub\n      swap1\n      log1\n        /* \"@openzeppelin/contracts-upgradeable/proxy/utils/Initializable.sol\":3647:3746  if (isTopLevelCall) {... */\n    tag_116:\n        /* \"@openzeppelin/contracts-upgradeable/proxy/utils/Initializable.sol\":3269:3752  {... */\n      pop\n        /* \"contracts/AlvaraDao.sol\":961:1379  function initialize(... */\n      pop\n      pop\n      pop\n      jump\t// out\n        /* \"@openzeppelin/contracts-upgradeable/proxy/utils/UUPSUpgradeable.sol\":3408:3603  function upgradeTo(address newImplementation) public virtual onlyProxy {... */\n    tag_41:\n      sub(shl(0xa0, 0x01), 0x01)\n        /* \"@openzeppelin/contracts-upgradeable/proxy/utils/UUPSUpgradeable.sol\":1764:1770  __self */\n      immutable(\"0x048f12d6654ff468c94a5fe76c9b74c1d8afe7efe30c47ac2460af02a58cdb97\")\n        /* \"@openzeppelin/contracts-upgradeable/proxy/utils/UUPSUpgradeable.sol\":1747:1770  address(this) != __self */\n      and\n        /* \"@openzeppelin/contracts-upgradeable/proxy/utils/UUPSUpgradeable.sol\":1755:1759  this */\n      address\n        /* \"@openzeppelin/contracts-upgradeable/proxy/utils/UUPSUpgradeable.sol\":1747:1770  address(this) != __self */\n      sub\n        /* \"@openzeppelin/contracts-upgradeable/proxy/utils/UUPSUpgradeable.sol\":1739:1819  require(address(this) != __self, \"Function must be called through delegatecall\") */\n      tag_120\n      jumpi\n      mload(0x40)\n      shl(0xe5, 0x461bcd)\n      dup2\n      mstore\n      0x04\n      add\n      tag_102\n      swap1\n      tag_122\n      jump\t// in\n    tag_120:\n        /* \"@openzeppelin/contracts-upgradeable/proxy/utils/UUPSUpgradeable.sol\":1861:1867  __self */\n      immutable(\"0x048f12d6654ff468c94a5fe76c9b74c1d8afe7efe30c47ac2460af02a58cdb97\")\n      sub(shl(0xa0, 0x01), 0x01)\n        /* \"@openzeppelin/contracts-upgradeable/proxy/utils/UUPSUpgradeable.sol\":1837:1867  _getImplementation() == __self */\n      and\n        /* \"@openzeppelin/contracts-upgradeable/proxy/utils/UUPSUpgradeable.sol\":1837:1857  _getImplementation() */\n      tag_123\n      mload(0x00)\n      codecopy(0x00, data_75b20eef8615de99c108b05f0dbda081c91897128caa336d75dffb97c4132b4d, 0x20)\n      mload(0x00)\n      swap1\n      0x00\n      mstore\n        /* \"@openzeppelin/contracts-upgradeable/proxy/ERC1967/ERC1967UpgradeUpgradeable.sol\":1557:1622  StorageSlotUpgradeable.getAddressSlot(_IMPLEMENTATION_SLOT).value */\n      sload\n      sub(shl(0xa0, 0x01), 0x01)\n      and\n      swap1\n        /* \"@openzeppelin/contracts-upgradeable/proxy/ERC1967/ERC1967UpgradeUpgradeable.sol\":1478:1629  function _getImplementation() internal view returns (address) {... */\n      jump\n        /* \"@openzeppelin/contracts-upgradeable/proxy/utils/UUPSUpgradeable.sol\":1837:1857  _getImplementation() */\n    tag_123:\n      sub(shl(0xa0, 0x01), 0x01)\n        /* \"@openzeppelin/contracts-upgradeable/proxy/utils/UUPSUpgradeable.sol\":1837:1867  _getImplementation() == __self */\n      and\n      eq\n        /* \"@openzeppelin/contracts-upgradeable/proxy/utils/UUPSUpgradeable.sol\":1829:1916  require(_getImplementation() == __self, \"Function must be called through active proxy\") */\n      tag_125\n      jumpi\n      mload(0x40)\n      shl(0xe5, 0x461bcd)\n      dup2\n      mstore\n      0x04\n      add\n      tag_102\n      swap1\n      tag_127\n      jump\t// in\n    tag_125:\n        /* \"@openzeppelin/contracts-upgradeable/proxy/utils/UUPSUpgradeable.sol\":3489:3525  _authorizeUpgrade(newImplementation) */\n      tag_129\n        /* \"@openzeppelin/contracts-upgradeable/proxy/utils/UUPSUpgradeable.sol\":3507:3524  newImplementation */\n      dup2\n        /* \"@openzeppelin/contracts-upgradeable/proxy/utils/UUPSUpgradeable.sol\":3489:3506  _authorizeUpgrade */\n      tag_130\n        /* \"@openzeppelin/contracts-upgradeable/proxy/utils/UUPSUpgradeable.sol\":3489:3525  _authorizeUpgrade(newImplementation) */\n      jump\t// in\n    tag_129:\n        /* \"@openzeppelin/contracts-upgradeable/proxy/utils/UUPSUpgradeable.sol\":3576:3588  new bytes(0) */\n      0x40\n      dup1\n      mload\n        /* \"@openzeppelin/contracts-upgradeable/proxy/utils/UUPSUpgradeable.sol\":3586:3587  0 */\n      0x00\n        /* \"@openzeppelin/contracts-upgradeable/proxy/utils/UUPSUpgradeable.sol\":3576:3588  new bytes(0) */\n      dup1\n      dup3\n      mstore\n      0x20\n      dup3\n      add\n      swap1\n      swap3\n      mstore\n        /* \"@openzeppelin/contracts-upgradeable/proxy/utils/UUPSUpgradeable.sol\":3535:3596  _upgradeToAndCallUUPS(newImplementation, new bytes(0), false) */\n      tag_131\n      swap2\n        /* \"@openzeppelin/contracts-upgradeable/proxy/utils/UUPSUpgradeable.sol\":3557:3574  newImplementation */\n      dup4\n      swap2\n        /* \"@openzeppelin/contracts-upgradeable/proxy/utils/UUPSUpgradeable.sol\":3576:3588  new bytes(0) */\n      swap1\n        /* \"@openzeppelin/contracts-upgradeable/proxy/utils/UUPSUpgradeable.sol\":3535:3556  _upgradeToAndCallUUPS */\n      tag_136\n        /* \"@openzeppelin/contracts-upgradeable/proxy/utils/UUPSUpgradeable.sol\":3535:3596  _upgradeToAndCallUUPS(newImplementation, new bytes(0), false) */\n      jump\t// in\n    tag_131:\n        /* \"@openzeppelin/contracts-upgradeable/proxy/utils/UUPSUpgradeable.sol\":3408:3603  function upgradeTo(address newImplementation) public virtual onlyProxy {... */\n      pop\n      jump\t// out\n        /* \"@openzeppelin/contracts-upgradeable/proxy/utils/UUPSUpgradeable.sol\":3922:4142  function upgradeToAndCall(address newImplementation, bytes memory data) public payable virtual onlyProxy {... */\n    tag_51:\n      sub(shl(0xa0, 0x01), 0x01)\n        /* \"@openzeppelin/contracts-upgradeable/proxy/utils/UUPSUpgradeable.sol\":1764:1770  __self */\n      immutable(\"0x048f12d6654ff468c94a5fe76c9b74c1d8afe7efe30c47ac2460af02a58cdb97\")\n        /* \"@openzeppelin/contracts-upgradeable/proxy/utils/UUPSUpgradeable.sol\":1747:1770  address(this) != __self */\n      and\n        /* \"@openzeppelin/contracts-upgradeable/proxy/utils/UUPSUpgradeable.sol\":1755:1759  this */\n      address\n        /* \"@openzeppelin/contracts-upgradeable/proxy/utils/UUPSUpgradeable.sol\":1747:1770  address(this) != __self */\n      sub\n        /* \"@openzeppelin/contracts-upgradeable/proxy/utils/UUPSUpgradeable.sol\":1739:1819  require(address(this) != __self, \"Function must be called through delegatecall\") */\n      tag_138\n      jumpi\n      mload(0x40)\n      shl(0xe5, 0x461bcd)\n      dup2\n      mstore\n      0x04\n      add\n      tag_102\n      swap1\n      tag_122\n      jump\t// in\n    tag_138:\n        /* \"@openzeppelin/contracts-upgradeable/proxy/utils/UUPSUpgradeable.sol\":1861:1867  __self */\n      immutable(\"0x048f12d6654ff468c94a5fe76c9b74c1d8afe7efe30c47ac2460af02a58cdb97\")\n      sub(shl(0xa0, 0x01), 0x01)\n        /* \"@openzeppelin/contracts-upgradeable/proxy/utils/UUPSUpgradeable.sol\":1837:1867  _getImplementation() == __self */\n      and\n        /* \"@openzeppelin/contracts-upgradeable/proxy/utils/UUPSUpgradeable.sol\":1837:1857  _getImplementation() */\n      tag_140\n      mload(0x00)\n      codecopy(0x00, data_75b20eef8615de99c108b05f0dbda081c91897128caa336d75dffb97c4132b4d, 0x20)\n      mload(0x00)\n      swap1\n      0x00\n      mstore\n        /* \"@openzeppelin/contracts-upgradeable/proxy/ERC1967/ERC1967UpgradeUpgradeable.sol\":1557:1622  StorageSlotUpgradeable.getAddressSlot(_IMPLEMENTATION_SLOT).value */\n      sload\n      sub(shl(0xa0, 0x01), 0x01)\n      and\n      swap1\n        /* \"@openzeppelin/contracts-upgradeable/proxy/ERC1967/ERC1967UpgradeUpgradeable.sol\":1478:1629  function _getImplementation() internal view returns (address) {... */\n      jump\n        /* \"@openzeppelin/contracts-upgradeable/proxy/utils/UUPSUpgradeable.sol\":1837:1857  _getImplementation() */\n    tag_140:\n      sub(shl(0xa0, 0x01), 0x01)\n        /* \"@openzeppelin/contracts-upgradeable/proxy/utils/UUPSUpgradeable.sol\":1837:1867  _getImplementation() == __self */\n      and\n      eq\n        /* \"@openzeppelin/contracts-upgradeable/proxy/utils/UUPSUpgradeable.sol\":1829:1916  require(_getImplementation() == __self, \"Function must be called through active proxy\") */\n      tag_141\n      jumpi\n      mload(0x40)\n      shl(0xe5, 0x461bcd)\n      dup2\n      mstore\n      0x04\n      add\n      tag_102\n      swap1\n      tag_127\n      jump\t// in\n    tag_141:\n        /* \"@openzeppelin/contracts-upgradeable/proxy/utils/UUPSUpgradeable.sol\":4037:4073  _authorizeUpgrade(newImplementation) */\n      tag_144\n        /* \"@openzeppelin/contracts-upgradeable/proxy/utils/UUPSUpgradeable.sol\":4055:4072  newImplementation */\n      dup3\n        /* \"@openzeppelin/contracts-upgradeable/proxy/utils/UUPSUpgradeable.sol\":4037:4054  _authorizeUpgrade */\n      tag_130\n        /* \"@openzeppelin/contracts-upgradeable/proxy/utils/UUPSUpgradeable.sol\":4037:4073  _authorizeUpgrade(newImplementation) */\n      jump\t// in\n    tag_144:\n        /* \"@openzeppelin/contracts-upgradeable/proxy/utils/UUPSUpgradeable.sol\":4083:4135  _upgradeToAndCallUUPS(newImplementation, data, true) */\n      tag_145\n        /* \"@openzeppelin/contracts-upgradeable/proxy/utils/UUPSUpgradeable.sol\":4105:4122  newImplementation */\n      dup3\n        /* \"@openzeppelin/contracts-upgradeable/proxy/utils/UUPSUpgradeable.sol\":4124:4128  data */\n      dup3\n        /* \"@openzeppelin/contracts-upgradeable/proxy/utils/UUPSUpgradeable.sol\":4130:4134  true */\n      0x01\n        /* \"@openzeppelin/contracts-upgradeable/proxy/utils/UUPSUpgradeable.sol\":4083:4104  _upgradeToAndCallUUPS */\n      tag_136\n        /* \"@openzeppelin/contracts-upgradeable/proxy/utils/UUPSUpgradeable.sol\":4083:4135  _upgradeToAndCallUUPS(newImplementation, data, true) */\n      jump\t// in\n    tag_145:\n        /* \"@openzeppelin/contracts-upgradeable/proxy/utils/UUPSUpgradeable.sol\":3922:4142  function upgradeToAndCall(address newImplementation, bytes memory data) public payable virtual onlyProxy {... */\n      pop\n      pop\n      jump\t// out\n        /* \"@openzeppelin/contracts-upgradeable/proxy/utils/UUPSUpgradeable.sol\":3027:3158  function proxiableUUID() external view virtual override notDelegated returns (bytes32) {... */\n    tag_54:\n        /* \"@openzeppelin/contracts-upgradeable/proxy/utils/UUPSUpgradeable.sol\":3105:3112  bytes32 */\n      0x00\n        /* \"@openzeppelin/contracts-upgradeable/proxy/utils/UUPSUpgradeable.sol\":2190:2194  this */\n      address\n      sub(shl(0xa0, 0x01), 0x01)\n        /* \"@openzeppelin/contracts-upgradeable/proxy/utils/UUPSUpgradeable.sol\":2199:2205  __self */\n      immutable(\"0x048f12d6654ff468c94a5fe76c9b74c1d8afe7efe30c47ac2460af02a58cdb97\")\n        /* \"@openzeppelin/contracts-upgradeable/proxy/utils/UUPSUpgradeable.sol\":2182:2205  address(this) == __self */\n      and\n      eq\n        /* \"@openzeppelin/contracts-upgradeable/proxy/utils/UUPSUpgradeable.sol\":2174:2266  require(address(this) == __self, \"UUPSUpgradeable: must not be called through delegatecall\") */\n      tag_147\n      jumpi\n      mload(0x40)\n      shl(0xe5, 0x461bcd)\n      dup2\n      mstore\n        /* \"#utility.yul\":5919:5921   */\n      0x20\n        /* \"@openzeppelin/contracts-upgradeable/proxy/utils/UUPSUpgradeable.sol\":2174:2266  require(address(this) == __self, \"UUPSUpgradeable: must not be called through delegatecall\") */\n      0x04\n      dup3\n      add\n        /* \"#utility.yul\":5901:5922   */\n      mstore\n        /* \"#utility.yul\":5958:5960   */\n      0x38\n        /* \"#utility.yul\":5938:5956   */\n      0x24\n      dup3\n      add\n        /* \"#utility.yul\":5931:5961   */\n      mstore\n        /* \"#utility.yul\":5997:6031   */\n      0x555550535570677261646561626c653a206d757374206e6f742062652063616c\n        /* \"#utility.yul\":5977:5995   */\n      0x44\n      dup3\n      add\n        /* \"#utility.yul\":5970:6032   */\n      mstore\n        /* \"#utility.yul\":6068:6094   */\n      0x6c6564207468726f7567682064656c656761746563616c6c0000000000000000\n        /* \"#utility.yul\":6048:6066   */\n      0x64\n      dup3\n      add\n        /* \"#utility.yul\":6041:6095   */\n      mstore\n        /* \"#utility.yul\":6112:6131   */\n      0x84\n      add\n        /* \"@openzeppelin/contracts-upgradeable/proxy/utils/UUPSUpgradeable.sol\":2174:2266  require(address(this) == __self, \"UUPSUpgradeable: must not be called through delegatecall\") */\n      tag_102\n        /* \"#utility.yul\":5717:6137   */\n      jump\n        /* \"@openzeppelin/contracts-upgradeable/proxy/utils/UUPSUpgradeable.sol\":2174:2266  require(address(this) == __self, \"UUPSUpgradeable: must not be called through delegatecall\") */\n    tag_147:\n      pop\n      mload(0x00)\n      codecopy(0x00, data_75b20eef8615de99c108b05f0dbda081c91897128caa336d75dffb97c4132b4d, 0x20)\n      mload(0x00)\n      swap1\n      0x00\n      mstore\n        /* \"@openzeppelin/contracts-upgradeable/proxy/utils/UUPSUpgradeable.sol\":3027:3158  function proxiableUUID() external view virtual override notDelegated returns (bytes32) {... */\n      swap1\n      jump\t// out\n        /* \"contracts/AlvaraDao.sol\":2191:2737  function leave(uint256 _share) public {... */\n    tag_61:\n        /* \"contracts/AlvaraDao.sol\":2264:2274  msg.sender */\n      caller\n        /* \"contracts/AlvaraDao.sol\":2247:2275  blackListAddress[msg.sender] */\n      0x00\n      swap1\n      dup2\n      mstore\n        /* \"contracts/AlvaraDao.sol\":2247:2263  blackListAddress */\n      0xcc\n        /* \"contracts/AlvaraDao.sol\":2247:2275  blackListAddress[msg.sender] */\n      0x20\n      mstore\n      0x40\n      swap1\n      keccak256\n      sload\n      0xff\n      and\n        /* \"contracts/AlvaraDao.sol\":2247:2283  blackListAddress[msg.sender] != true */\n      iszero\n      iszero\n        /* \"contracts/AlvaraDao.sol\":2247:2275  blackListAddress[msg.sender] */\n      0x01\n        /* \"contracts/AlvaraDao.sol\":2247:2283  blackListAddress[msg.sender] != true */\n      sub\n        /* \"contracts/AlvaraDao.sol\":2239:2304  require(blackListAddress[msg.sender] != true, \"BlackListed User\") */\n      tag_152\n      jumpi\n      mload(0x40)\n      shl(0xe5, 0x461bcd)\n      dup2\n      mstore\n        /* \"#utility.yul\":6344:6346   */\n      0x20\n        /* \"contracts/AlvaraDao.sol\":2239:2304  require(blackListAddress[msg.sender] != true, \"BlackListed User\") */\n      0x04\n      dup3\n      add\n        /* \"#utility.yul\":6326:6347   */\n      mstore\n        /* \"#utility.yul\":6383:6385   */\n      0x10\n        /* \"#utility.yul\":6363:6381   */\n      0x24\n      dup3\n      add\n        /* \"#utility.yul\":6356:6386   */\n      mstore\n      shl(0x81, 0x213630b1b5a634b9ba32b2102ab9b2b9)\n        /* \"#utility.yul\":6402:6420   */\n      0x44\n      dup3\n      add\n        /* \"#utility.yul\":6395:6441   */\n      mstore\n        /* \"#utility.yul\":6458:6476   */\n      0x64\n      add\n        /* \"contracts/AlvaraDao.sol\":2239:2304  require(blackListAddress[msg.sender] != true, \"BlackListed User\") */\n      tag_102\n        /* \"#utility.yul\":6142:6482   */\n      jump\n        /* \"contracts/AlvaraDao.sol\":2239:2304  require(blackListAddress[msg.sender] != true, \"BlackListed User\") */\n    tag_152:\n        /* \"contracts/AlvaraDao.sol\":2384:2396  lockedPeriod */\n      sload(0xcd)\n        /* \"contracts/AlvaraDao.sol\":2370:2380  msg.sender */\n      caller\n        /* \"contracts/AlvaraDao.sol\":2355:2381  userLockPeriod[msg.sender] */\n      0x00\n      swap1\n      dup2\n      mstore\n        /* \"contracts/AlvaraDao.sol\":2355:2369  userLockPeriod */\n      0xcb\n        /* \"contracts/AlvaraDao.sol\":2355:2381  userLockPeriod[msg.sender] */\n      0x20\n      mstore\n      0x40\n      swap1\n      keccak256\n      sload\n        /* \"contracts/AlvaraDao.sol\":2355:2396  userLockPeriod[msg.sender] + lockedPeriod */\n      tag_155\n      swap2\n        /* \"contracts/AlvaraDao.sol\":2384:2396  lockedPeriod */\n      swap1\n        /* \"contracts/AlvaraDao.sol\":2355:2396  userLockPeriod[msg.sender] + lockedPeriod */\n      tag_156\n      jump\t// in\n    tag_155:\n        /* \"contracts/AlvaraDao.sol\":2335:2350  block.timestamp */\n      timestamp\n        /* \"contracts/AlvaraDao.sol\":2335:2397  block.timestamp >= (userLockPeriod[msg.sender] + lockedPeriod) */\n      lt\n      iszero\n        /* \"contracts/AlvaraDao.sol\":2314:2438  require(... */\n      tag_157\n      jumpi\n      mload(0x40)\n      shl(0xe5, 0x461bcd)\n      dup2\n      mstore\n        /* \"#utility.yul\":6951:6953   */\n      0x20\n        /* \"contracts/AlvaraDao.sol\":2314:2438  require(... */\n      0x04\n      dup3\n      add\n        /* \"#utility.yul\":6933:6954   */\n      mstore\n        /* \"#utility.yul\":6990:6992   */\n      0x0f\n        /* \"#utility.yul\":6970:6988   */\n      0x24\n      dup3\n      add\n        /* \"#utility.yul\":6963:6993   */\n      mstore\n      shl(0x88, 0x43616e206e6f7420756e5374616b65)\n        /* \"#utility.yul\":7009:7027   */\n      0x44\n      dup3\n      add\n        /* \"#utility.yul\":7002:7047   */\n      mstore\n        /* \"#utility.yul\":7064:7082   */\n      0x64\n      add\n        /* \"contracts/AlvaraDao.sol\":2314:2438  require(... */\n      tag_102\n        /* \"#utility.yul\":6749:7088   */\n      jump\n        /* \"contracts/AlvaraDao.sol\":2314:2438  require(... */\n    tag_157:\n        /* \"contracts/AlvaraDao.sol\":2470:2475  xALVA */\n      sload(0xca)\n        /* \"contracts/AlvaraDao.sol\":2470:2489  xALVA.totalSupply() */\n      0x40\n      dup1\n      mload\n      shl(0xe0, 0x18160ddd)\n      dup2\n      mstore\n      swap1\n      mload\n        /* \"contracts/AlvaraDao.sol\":2448:2467  uint256 totalShares */\n      0x00\n      swap3\n      sub(shl(0xa0, 0x01), 0x01)\n        /* \"contracts/AlvaraDao.sol\":2470:2475  xALVA */\n      and\n      swap2\n        /* \"contracts/AlvaraDao.sol\":2470:2487  xALVA.totalSupply */\n      0x18160ddd\n      swap2\n        /* \"contracts/AlvaraDao.sol\":2470:2489  xALVA.totalSupply() */\n      0x04\n      dup1\n      dup4\n      add\n      swap3\n      0x20\n      swap3\n      swap2\n      swap1\n      dup3\n      swap1\n      sub\n      add\n      dup2\n        /* \"contracts/AlvaraDao.sol\":2470:2475  xALVA */\n      dup7\n        /* \"contracts/AlvaraDao.sol\":2470:2489  xALVA.totalSupply() */\n      gas\n      staticcall\n      iszero\n      dup1\n      iszero\n      tag_161\n      jumpi\n      returndatacopy(0x00, 0x00, returndatasize)\n      revert(0x00, returndatasize)\n    tag_161:\n      pop\n      pop\n      pop\n      pop\n      mload(0x40)\n      returndatasize\n      not(0x1f)\n      0x1f\n      dup3\n      add\n      and\n      dup3\n      add\n      dup1\n      0x40\n      mstore\n      pop\n      dup2\n      add\n      swap1\n      tag_162\n      swap2\n      swap1\n      tag_163\n      jump\t// in\n    tag_162:\n        /* \"contracts/AlvaraDao.sol\":2530:2534  ALVA */\n      sload(0xc9)\n        /* \"contracts/AlvaraDao.sol\":2530:2559  ALVA.balanceOf(address(this)) */\n      mload(0x40)\n      shl(0xe0, 0x70a08231)\n      dup2\n      mstore\n        /* \"contracts/AlvaraDao.sol\":2553:2557  this */\n      address\n        /* \"contracts/AlvaraDao.sol\":2530:2559  ALVA.balanceOf(address(this)) */\n      0x04\n      dup3\n      add\n        /* \"#utility.yul\":1105:1156   */\n      mstore\n        /* \"contracts/AlvaraDao.sol\":2448:2489  uint256 totalShares = xALVA.totalSupply() */\n      swap2\n      swap3\n      pop\n        /* \"contracts/AlvaraDao.sol\":2499:2517  uint256 _userShare */\n      0x00\n      swap2\n        /* \"contracts/AlvaraDao.sol\":2448:2489  uint256 totalShares = xALVA.totalSupply() */\n      dup4\n      swap2\n      sub(shl(0xa0, 0x01), 0x01)\n        /* \"contracts/AlvaraDao.sol\":2530:2534  ALVA */\n      and\n      swap1\n        /* \"contracts/AlvaraDao.sol\":2530:2544  ALVA.balanceOf */\n      0x70a08231\n      swap1\n        /* \"#utility.yul\":1078:1096   */\n      0x24\n      add\n        /* \"contracts/AlvaraDao.sol\":2530:2559  ALVA.balanceOf(address(this)) */\n      0x20\n      mload(0x40)\n      dup1\n      dup4\n      sub\n      dup2\n      dup7\n      gas\n      staticcall\n      iszero\n      dup1\n      iszero\n      tag_166\n      jumpi\n      returndatacopy(0x00, 0x00, returndatasize)\n      revert(0x00, returndatasize)\n    tag_166:\n      pop\n      pop\n      pop\n      pop\n      mload(0x40)\n      returndatasize\n      not(0x1f)\n      0x1f\n      dup3\n      add\n      and\n      dup3\n      add\n      dup1\n      0x40\n      mstore\n      pop\n      dup2\n      add\n      swap1\n      tag_167\n      swap2\n      swap1\n      tag_163\n      jump\t// in\n    tag_167:\n        /* \"contracts/AlvaraDao.sol\":2521:2559  _share * ALVA.balanceOf(address(this)) */\n      tag_168\n      swap1\n        /* \"contracts/AlvaraDao.sol\":2521:2527  _share */\n      dup6\n        /* \"contracts/AlvaraDao.sol\":2521:2559  _share * ALVA.balanceOf(address(this)) */\n      tag_169\n      jump\t// in\n    tag_168:\n        /* \"contracts/AlvaraDao.sol\":2520:2586  (_share * ALVA.balanceOf(address(this))) /... */\n      tag_170\n      swap2\n      swap1\n      tag_171\n      jump\t// in\n    tag_170:\n        /* \"contracts/AlvaraDao.sol\":2596:2601  xALVA */\n      sload(0xca)\n        /* \"contracts/AlvaraDao.sol\":2499:2586  uint256 _userShare = (_share * ALVA.balanceOf(address(this))) /... */\n      swap1\n      swap2\n      pop\n      sub(shl(0xa0, 0x01), 0x01)\n        /* \"contracts/AlvaraDao.sol\":2596:2601  xALVA */\n      and\n        /* \"contracts/AlvaraDao.sol\":2596:2610  xALVA.burnFrom */\n      0x79cc6790\n        /* \"@openzeppelin/contracts-upgradeable/utils/ContextUpgradeable.sol\":965:975  msg.sender */\n      caller\n        /* \"contracts/AlvaraDao.sol\":2596:2632  xALVA.burnFrom(_msgSender(), _share) */\n      mload(0x40)\n      not(sub(shl(0xe0, 0x01), 0x01))\n      0xe0\n      dup5\n      swap1\n      shl\n      and\n      dup2\n      mstore\n      sub(shl(0xa0, 0x01), 0x01)\n        /* \"#utility.yul\":7869:7901   */\n      swap1\n      swap2\n      and\n        /* \"contracts/AlvaraDao.sol\":2596:2632  xALVA.burnFrom(_msgSender(), _share) */\n      0x04\n      dup3\n      add\n        /* \"#utility.yul\":7851:7902   */\n      mstore\n        /* \"#utility.yul\":7918:7936   */\n      0x24\n      dup2\n      add\n        /* \"#utility.yul\":7911:7945   */\n      dup7\n      swap1\n      mstore\n        /* \"#utility.yul\":7824:7842   */\n      0x44\n      add\n        /* \"contracts/AlvaraDao.sol\":2596:2632  xALVA.burnFrom(_msgSender(), _share) */\n      0x00\n      mload(0x40)\n      dup1\n      dup4\n      sub\n      dup2\n      0x00\n      dup8\n      dup1\n      extcodesize\n      iszero\n      dup1\n      iszero\n      tag_176\n      jumpi\n      revert(0x00, 0x00)\n    tag_176:\n      pop\n      gas\n      call\n      iszero\n      dup1\n      iszero\n      tag_178\n      jumpi\n      returndatacopy(0x00, 0x00, returndatasize)\n      revert(0x00, returndatasize)\n    tag_178:\n      pop\n      pop\n        /* \"contracts/AlvaraDao.sol\":2642:2646  ALVA */\n      and(sub(shl(0xa0, 0x01), 0x01), sload(0xc9))\n      swap2\n      pop\n        /* \"contracts/AlvaraDao.sol\":2642:2655  ALVA.transfer */\n      0xa9059cbb\n      swap1\n      pop\n        /* \"@openzeppelin/contracts-upgradeable/utils/ContextUpgradeable.sol\":965:975  msg.sender */\n      caller\n        /* \"contracts/AlvaraDao.sol\":2642:2681  ALVA.transfer(_msgSender(), _userShare) */\n      mload(0x40)\n      not(sub(shl(0xe0, 0x01), 0x01))\n      0xe0\n      dup5\n      swap1\n      shl\n      and\n      dup2\n      mstore\n      sub(shl(0xa0, 0x01), 0x01)\n        /* \"#utility.yul\":7869:7901   */\n      swap1\n      swap2\n      and\n        /* \"contracts/AlvaraDao.sol\":2642:2681  ALVA.transfer(_msgSender(), _userShare) */\n      0x04\n      dup3\n      add\n        /* \"#utility.yul\":7851:7902   */\n      mstore\n        /* \"#utility.yul\":7918:7936   */\n      0x24\n      dup2\n      add\n        /* \"#utility.yul\":7911:7945   */\n      dup5\n      swap1\n      mstore\n        /* \"#utility.yul\":7824:7842   */\n      0x44\n      add\n        /* \"contracts/AlvaraDao.sol\":2642:2681  ALVA.transfer(_msgSender(), _userShare) */\n      0x20\n      mload(0x40)\n      dup1\n      dup4\n      sub\n      dup2\n      0x00\n      dup8\n      gas\n      call\n      iszero\n      dup1\n      iszero\n      tag_182\n      jumpi\n      returndatacopy(0x00, 0x00, returndatasize)\n      revert(0x00, returndatasize)\n    tag_182:\n      pop\n      pop\n      pop\n      pop\n      mload(0x40)\n      returndatasize\n      not(0x1f)\n      0x1f\n      dup3\n      add\n      and\n      dup3\n      add\n      dup1\n      0x40\n      mstore\n      pop\n      dup2\n      add\n      swap1\n      tag_183\n      swap2\n      swap1\n      tag_184\n      jump\t// in\n    tag_183:\n      pop\n        /* \"contracts/AlvaraDao.sol\":2697:2730  Unstake(_msgSender(), _userShare) */\n      mload(0x40)\n        /* \"#utility.yul\":529:554   */\n      dup2\n      dup2\n      mstore\n        /* \"@openzeppelin/contracts-upgradeable/utils/ContextUpgradeable.sol\":965:975  msg.sender */\n      caller\n      swap1\n        /* \"contracts/AlvaraDao.sol\":2697:2730  Unstake(_msgSender(), _userShare) */\n      0x85082129d87b2fe11527cb1b3b7a520aeb5aa6913f88a3d8757fe40d1db02fdd\n      swap1\n        /* \"#utility.yul\":517:519   */\n      0x20\n        /* \"#utility.yul\":502:520   */\n      add\n        /* \"contracts/AlvaraDao.sol\":2697:2730  Unstake(_msgSender(), _userShare) */\n      mload(0x40)\n      dup1\n      swap2\n      sub\n      swap1\n      log2\n        /* \"contracts/AlvaraDao.sol\":2229:2737  {... */\n      pop\n      pop\n        /* \"contracts/AlvaraDao.sol\":2191:2737  function leave(uint256 _share) public {... */\n      pop\n      jump\t// out\n        /* \"@openzeppelin/contracts-upgradeable/access/OwnableUpgradeable.sol\":2085:2186  function renounceOwnership() public virtual onlyOwner {... */\n    tag_68:\n        /* \"@openzeppelin/contracts-upgradeable/access/OwnableUpgradeable.sol\":1355:1368  _checkOwner() */\n      tag_188\n        /* \"@openzeppelin/contracts-upgradeable/access/OwnableUpgradeable.sol\":1355:1366  _checkOwner */\n      tag_189\n        /* \"@openzeppelin/contracts-upgradeable/access/OwnableUpgradeable.sol\":1355:1368  _checkOwner() */\n      jump\t// in\n    tag_188:\n        /* \"@openzeppelin/contracts-upgradeable/access/OwnableUpgradeable.sol\":2149:2179  _transferOwnership(address(0)) */\n      tag_191\n        /* \"@openzeppelin/contracts-upgradeable/access/OwnableUpgradeable.sol\":2176:2177  0 */\n      0x00\n        /* \"@openzeppelin/contracts-upgradeable/access/OwnableUpgradeable.sol\":2149:2167  _transferOwnership */\n      tag_192\n        /* \"@openzeppelin/contracts-upgradeable/access/OwnableUpgradeable.sol\":2149:2179  _transferOwnership(address(0)) */\n      jump\t// in\n    tag_191:\n        /* \"@openzeppelin/contracts-upgradeable/access/OwnableUpgradeable.sol\":2085:2186  function renounceOwnership() public virtual onlyOwner {... */\n      jump\t// out\n        /* \"contracts/AlvaraDao.sol\":3218:3392  function updateLockPeriod(uint256 _lockedPeriod) external onlyOwner {... */\n    tag_77:\n        /* \"@openzeppelin/contracts-upgradeable/access/OwnableUpgradeable.sol\":1355:1368  _checkOwner() */\n      tag_195\n        /* \"@openzeppelin/contracts-upgradeable/access/OwnableUpgradeable.sol\":1355:1366  _checkOwner */\n      tag_189\n        /* \"@openzeppelin/contracts-upgradeable/access/OwnableUpgradeable.sol\":1355:1368  _checkOwner() */\n      jump\t// in\n    tag_195:\n        /* \"contracts/AlvaraDao.sol\":3318:3330  lockedPeriod */\n      sload(0xcd)\n        /* \"contracts/AlvaraDao.sol\":3301:3346  UpdateLockPeriod(lockedPeriod, _lockedPeriod) */\n      0x40\n      dup1\n      mload\n        /* \"#utility.yul\":8380:8405   */\n      swap2\n      dup3\n      mstore\n        /* \"#utility.yul\":8436:8438   */\n      0x20\n        /* \"#utility.yul\":8421:8439   */\n      dup3\n      add\n        /* \"#utility.yul\":8414:8448   */\n      dup4\n      swap1\n      mstore\n        /* \"contracts/AlvaraDao.sol\":3301:3346  UpdateLockPeriod(lockedPeriod, _lockedPeriod) */\n      0xf814eafa160e3546fc1ea6b8939a578ef5f64d31e04888bcd82e8cd9f9ec2909\n      swap2\n        /* \"#utility.yul\":8353:8371   */\n      add\n        /* \"contracts/AlvaraDao.sol\":3301:3346  UpdateLockPeriod(lockedPeriod, _lockedPeriod) */\n      mload(0x40)\n      dup1\n      swap2\n      sub\n      swap1\n      log1\n        /* \"contracts/AlvaraDao.sol\":3357:3369  lockedPeriod */\n      0xcd\n        /* \"contracts/AlvaraDao.sol\":3357:3385  lockedPeriod = _lockedPeriod */\n      sstore\n        /* \"contracts/AlvaraDao.sol\":3218:3392  function updateLockPeriod(uint256 _lockedPeriod) external onlyOwner {... */\n      jump\t// out\n        /* \"contracts/AlvaraDao.sol\":1445:2136  function enter(uint256 _amount) public {... */\n    tag_81:\n        /* \"contracts/AlvaraDao.sol\":1519:1529  msg.sender */\n      caller\n        /* \"contracts/AlvaraDao.sol\":1502:1530  blackListAddress[msg.sender] */\n      0x00\n      swap1\n      dup2\n      mstore\n        /* \"contracts/AlvaraDao.sol\":1502:1518  blackListAddress */\n      0xcc\n        /* \"contracts/AlvaraDao.sol\":1502:1530  blackListAddress[msg.sender] */\n      0x20\n      mstore\n      0x40\n      swap1\n      keccak256\n      sload\n      0xff\n      and\n        /* \"contracts/AlvaraDao.sol\":1502:1538  blackListAddress[msg.sender] != true */\n      iszero\n      iszero\n        /* \"contracts/AlvaraDao.sol\":1502:1530  blackListAddress[msg.sender] */\n      0x01\n        /* \"contracts/AlvaraDao.sol\":1502:1538  blackListAddress[msg.sender] != true */\n      sub\n        /* \"contracts/AlvaraDao.sol\":1494:1559  require(blackListAddress[msg.sender] != true, \"BlackListed User\") */\n      tag_200\n      jumpi\n      mload(0x40)\n      shl(0xe5, 0x461bcd)\n      dup2\n      mstore\n        /* \"#utility.yul\":6344:6346   */\n      0x20\n        /* \"contracts/AlvaraDao.sol\":1494:1559  require(blackListAddress[msg.sender] != true, \"BlackListed User\") */\n      0x04\n      dup3\n      add\n        /* \"#utility.yul\":6326:6347   */\n      mstore\n        /* \"#utility.yul\":6383:6385   */\n      0x10\n        /* \"#utility.yul\":6363:6381   */\n      0x24\n      dup3\n      add\n        /* \"#utility.yul\":6356:6386   */\n      mstore\n      shl(0x81, 0x213630b1b5a634b9ba32b2102ab9b2b9)\n        /* \"#utility.yul\":6402:6420   */\n      0x44\n      dup3\n      add\n        /* \"#utility.yul\":6395:6441   */\n      mstore\n        /* \"#utility.yul\":6458:6476   */\n      0x64\n      add\n        /* \"contracts/AlvaraDao.sol\":1494:1559  require(blackListAddress[msg.sender] != true, \"BlackListed User\") */\n      tag_102\n        /* \"#utility.yul\":6142:6482   */\n      jump\n        /* \"contracts/AlvaraDao.sol\":1494:1559  require(blackListAddress[msg.sender] != true, \"BlackListed User\") */\n    tag_200:\n        /* \"contracts/AlvaraDao.sol\":1589:1593  ALVA */\n      sload(0xc9)\n        /* \"contracts/AlvaraDao.sol\":1589:1618  ALVA.balanceOf(address(this)) */\n      mload(0x40)\n      shl(0xe0, 0x70a08231)\n      dup2\n      mstore\n        /* \"contracts/AlvaraDao.sol\":1612:1616  this */\n      address\n        /* \"contracts/AlvaraDao.sol\":1589:1618  ALVA.balanceOf(address(this)) */\n      0x04\n      dup3\n      add\n        /* \"#utility.yul\":1105:1156   */\n      mstore\n        /* \"contracts/AlvaraDao.sol\":1569:1586  uint256 totalAlva */\n      0x00\n      swap2\n      sub(shl(0xa0, 0x01), 0x01)\n        /* \"contracts/AlvaraDao.sol\":1589:1593  ALVA */\n      and\n      swap1\n        /* \"contracts/AlvaraDao.sol\":1589:1603  ALVA.balanceOf */\n      0x70a08231\n      swap1\n        /* \"#utility.yul\":1078:1096   */\n      0x24\n      add\n        /* \"contracts/AlvaraDao.sol\":1589:1618  ALVA.balanceOf(address(this)) */\n      0x20\n      mload(0x40)\n      dup1\n      dup4\n      sub\n      dup2\n      dup7\n      gas\n      staticcall\n      iszero\n      dup1\n      iszero\n      tag_204\n      jumpi\n      returndatacopy(0x00, 0x00, returndatasize)\n      revert(0x00, returndatasize)\n    tag_204:\n      pop\n      pop\n      pop\n      pop\n      mload(0x40)\n      returndatasize\n      not(0x1f)\n      0x1f\n      dup3\n      add\n      and\n      dup3\n      add\n      dup1\n      0x40\n      mstore\n      pop\n      dup2\n      add\n      swap1\n      tag_205\n      swap2\n      swap1\n      tag_163\n      jump\t// in\n    tag_205:\n        /* \"contracts/AlvaraDao.sol\":1569:1618  uint256 totalAlva = ALVA.balanceOf(address(this)) */\n      swap1\n      pop\n        /* \"contracts/AlvaraDao.sol\":1628:1647  uint256 totalShares */\n      0x00\n        /* \"contracts/AlvaraDao.sol\":1650:1655  xALVA */\n      0xca\n      0x00\n      swap1\n      sload\n      swap1\n      0x0100\n      exp\n      swap1\n      div\n      sub(shl(0xa0, 0x01), 0x01)\n      and\n      sub(shl(0xa0, 0x01), 0x01)\n        /* \"contracts/AlvaraDao.sol\":1650:1667  xALVA.totalSupply */\n      and\n      0x18160ddd\n        /* \"contracts/AlvaraDao.sol\":1650:1669  xALVA.totalSupply() */\n      mload(0x40)\n      dup2\n      0xffffffff\n      and\n      0xe0\n      shl\n      dup2\n      mstore\n      0x04\n      add\n      0x20\n      mload(0x40)\n      dup1\n      dup4\n      sub\n      dup2\n      dup7\n      gas\n      staticcall\n      iszero\n      dup1\n      iszero\n      tag_207\n      jumpi\n      returndatacopy(0x00, 0x00, returndatasize)\n      revert(0x00, returndatasize)\n    tag_207:\n      pop\n      pop\n      pop\n      pop\n      mload(0x40)\n      returndatasize\n      not(0x1f)\n      0x1f\n      dup3\n      add\n      and\n      dup3\n      add\n      dup1\n      0x40\n      mstore\n      pop\n      dup2\n      add\n      swap1\n      tag_208\n      swap2\n      swap1\n      tag_163\n      jump\t// in\n    tag_208:\n        /* \"contracts/AlvaraDao.sol\":1628:1669  uint256 totalShares = xALVA.totalSupply() */\n      swap1\n      pop\n        /* \"contracts/AlvaraDao.sol\":1683:1699  totalShares == 0 */\n      dup1\n      iszero\n      dup1\n        /* \"contracts/AlvaraDao.sol\":1683:1717  totalShares == 0 || totalAlva == 0 */\n      tag_209\n      jumpi\n      pop\n        /* \"contracts/AlvaraDao.sol\":1703:1717  totalAlva == 0 */\n      dup2\n      iszero\n        /* \"contracts/AlvaraDao.sol\":1683:1717  totalShares == 0 || totalAlva == 0 */\n    tag_209:\n        /* \"contracts/AlvaraDao.sol\":1679:2011  if (totalShares == 0 || totalAlva == 0) {... */\n      iszero\n      tag_210\n      jumpi\n        /* \"contracts/AlvaraDao.sol\":1733:1738  xALVA */\n      and(sub(shl(0xa0, 0x01), 0x01), sload(0xca))\n        /* \"contracts/AlvaraDao.sol\":1733:1743  xALVA.mint */\n      0x40c10f19\n        /* \"@openzeppelin/contracts-upgradeable/utils/ContextUpgradeable.sol\":965:975  msg.sender */\n      caller\n        /* \"contracts/AlvaraDao.sol\":1733:1766  xALVA.mint(_msgSender(), _amount) */\n      mload(0x40)\n      not(sub(shl(0xe0, 0x01), 0x01))\n      0xe0\n      dup5\n      swap1\n      shl\n      and\n      dup2\n      mstore\n      sub(shl(0xa0, 0x01), 0x01)\n        /* \"#utility.yul\":7869:7901   */\n      swap1\n      swap2\n      and\n        /* \"contracts/AlvaraDao.sol\":1733:1766  xALVA.mint(_msgSender(), _amount) */\n      0x04\n      dup3\n      add\n        /* \"#utility.yul\":7851:7902   */\n      mstore\n        /* \"#utility.yul\":7918:7936   */\n      0x24\n      dup2\n      add\n        /* \"#utility.yul\":7911:7945   */\n      dup7\n      swap1\n      mstore\n        /* \"#utility.yul\":7824:7842   */\n      0x44\n      add\n        /* \"contracts/AlvaraDao.sol\":1733:1766  xALVA.mint(_msgSender(), _amount) */\n      0x00\n      mload(0x40)\n      dup1\n      dup4\n      sub\n      dup2\n      0x00\n      dup8\n      dup1\n      extcodesize\n      iszero\n      dup1\n      iszero\n      tag_213\n      jumpi\n      revert(0x00, 0x00)\n    tag_213:\n      pop\n      gas\n      call\n      iszero\n      dup1\n      iszero\n      tag_215\n      jumpi\n      returndatacopy(0x00, 0x00, returndatasize)\n      revert(0x00, returndatasize)\n    tag_215:\n      pop\n      pop\n      pop\n      pop\n        /* \"contracts/AlvaraDao.sol\":1791:1803  _msgSender() */\n      tag_216\n        /* \"@openzeppelin/contracts-upgradeable/utils/ContextUpgradeable.sol\":965:975  msg.sender */\n      caller\n      swap1\n        /* \"@openzeppelin/contracts-upgradeable/utils/ContextUpgradeable.sol\":886:982  function _msgSender() internal view virtual returns (address) {... */\n      jump\n        /* \"contracts/AlvaraDao.sol\":1791:1803  _msgSender() */\n    tag_216:\n      sub(shl(0xa0, 0x01), 0x01)\n        /* \"contracts/AlvaraDao.sol\":1785:1813  Stake(_msgSender(), _amount) */\n      and\n      0xebedb8b3c678666e7f36970bc8f57abf6d8fa2e828c0da91ea5b75bf68ed101a\n        /* \"contracts/AlvaraDao.sol\":1805:1812  _amount */\n      dup5\n        /* \"contracts/AlvaraDao.sol\":1785:1813  Stake(_msgSender(), _amount) */\n      mload(0x40)\n      tag_217\n      swap2\n        /* \"#utility.yul\":529:554   */\n      dup2\n      mstore\n        /* \"#utility.yul\":517:519   */\n      0x20\n        /* \"#utility.yul\":502:520   */\n      add\n      swap1\n        /* \"#utility.yul\":383:560   */\n      jump\n        /* \"contracts/AlvaraDao.sol\":1785:1813  Stake(_msgSender(), _amount) */\n    tag_217:\n      mload(0x40)\n      dup1\n      swap2\n      sub\n      swap1\n      log2\n        /* \"contracts/AlvaraDao.sol\":1679:2011  if (totalShares == 0 || totalAlva == 0) {... */\n      jump(tag_218)\n    tag_210:\n        /* \"contracts/AlvaraDao.sol\":1844:1862  uint256 _userShare */\n      0x00\n        /* \"contracts/AlvaraDao.sol\":1891:1900  totalAlva */\n      dup3\n        /* \"contracts/AlvaraDao.sol\":1866:1887  _amount * totalShares */\n      tag_219\n        /* \"contracts/AlvaraDao.sol\":1876:1887  totalShares */\n      dup4\n        /* \"contracts/AlvaraDao.sol\":1866:1873  _amount */\n      dup7\n        /* \"contracts/AlvaraDao.sol\":1866:1887  _amount * totalShares */\n      tag_169\n      jump\t// in\n    tag_219:\n        /* \"contracts/AlvaraDao.sol\":1865:1900  (_amount * totalShares) / totalAlva */\n      tag_220\n      swap2\n      swap1\n      tag_171\n      jump\t// in\n    tag_220:\n        /* \"contracts/AlvaraDao.sol\":1914:1919  xALVA */\n      sload(0xca)\n        /* \"contracts/AlvaraDao.sol\":1844:1900  uint256 _userShare = (_amount * totalShares) / totalAlva */\n      swap1\n      swap2\n      pop\n      sub(shl(0xa0, 0x01), 0x01)\n        /* \"contracts/AlvaraDao.sol\":1914:1919  xALVA */\n      and\n        /* \"contracts/AlvaraDao.sol\":1914:1924  xALVA.mint */\n      0x40c10f19\n        /* \"@openzeppelin/contracts-upgradeable/utils/ContextUpgradeable.sol\":965:975  msg.sender */\n      caller\n        /* \"contracts/AlvaraDao.sol\":1914:1950  xALVA.mint(_msgSender(), _userShare) */\n      mload(0x40)\n      not(sub(shl(0xe0, 0x01), 0x01))\n      0xe0\n      dup5\n      swap1\n      shl\n      and\n      dup2\n      mstore\n      sub(shl(0xa0, 0x01), 0x01)\n        /* \"#utility.yul\":7869:7901   */\n      swap1\n      swap2\n      and\n        /* \"contracts/AlvaraDao.sol\":1914:1950  xALVA.mint(_msgSender(), _userShare) */\n      0x04\n      dup3\n      add\n        /* \"#utility.yul\":7851:7902   */\n      mstore\n        /* \"#utility.yul\":7918:7936   */\n      0x24\n      dup2\n      add\n        /* \"#utility.yul\":7911:7945   */\n      dup5\n      swap1\n      mstore\n        /* \"#utility.yul\":7824:7842   */\n      0x44\n      add\n        /* \"contracts/AlvaraDao.sol\":1914:1950  xALVA.mint(_msgSender(), _userShare) */\n      0x00\n      mload(0x40)\n      dup1\n      dup4\n      sub\n      dup2\n      0x00\n      dup8\n      dup1\n      extcodesize\n      iszero\n      dup1\n      iszero\n      tag_223\n      jumpi\n      revert(0x00, 0x00)\n    tag_223:\n      pop\n      gas\n      call\n      iszero\n      dup1\n      iszero\n      tag_225\n      jumpi\n      returndatacopy(0x00, 0x00, returndatasize)\n      revert(0x00, returndatasize)\n    tag_225:\n      pop\n      pop\n      pop\n      pop\n        /* \"contracts/AlvaraDao.sol\":1975:1987  _msgSender() */\n      tag_226\n        /* \"@openzeppelin/contracts-upgradeable/utils/ContextUpgradeable.sol\":965:975  msg.sender */\n      caller\n      swap1\n        /* \"@openzeppelin/contracts-upgradeable/utils/ContextUpgradeable.sol\":886:982  function _msgSender() internal view virtual returns (address) {... */\n      jump\n        /* \"contracts/AlvaraDao.sol\":1975:1987  _msgSender() */\n    tag_226:\n      sub(shl(0xa0, 0x01), 0x01)\n        /* \"contracts/AlvaraDao.sol\":1969:2000  Stake(_msgSender(), _userShare) */\n      and\n      0xebedb8b3c678666e7f36970bc8f57abf6d8fa2e828c0da91ea5b75bf68ed101a\n        /* \"contracts/AlvaraDao.sol\":1989:1999  _userShare */\n      dup3\n        /* \"contracts/AlvaraDao.sol\":1969:2000  Stake(_msgSender(), _userShare) */\n      mload(0x40)\n      tag_227\n      swap2\n        /* \"#utility.yul\":529:554   */\n      dup2\n      mstore\n        /* \"#utility.yul\":517:519   */\n      0x20\n        /* \"#utility.yul\":502:520   */\n      add\n      swap1\n        /* \"#utility.yul\":383:560   */\n      jump\n        /* \"contracts/AlvaraDao.sol\":1969:2000  Stake(_msgSender(), _userShare) */\n    tag_227:\n      mload(0x40)\n      dup1\n      swap2\n      sub\n      swap1\n      log2\n        /* \"contracts/AlvaraDao.sol\":1830:2011  {... */\n      pop\n        /* \"contracts/AlvaraDao.sol\":1679:2011  if (totalShares == 0 || totalAlva == 0) {... */\n    tag_218:\n        /* \"contracts/AlvaraDao.sol\":2035:2045  msg.sender */\n      caller\n        /* \"contracts/AlvaraDao.sol\":2020:2046  userLockPeriod[msg.sender] */\n      0x00\n      swap1\n      dup2\n      mstore\n        /* \"contracts/AlvaraDao.sol\":2020:2034  userLockPeriod */\n      0xcb\n        /* \"contracts/AlvaraDao.sol\":2020:2046  userLockPeriod[msg.sender] */\n      0x20\n      mstore\n      0x40\n      swap1\n      keccak256\n        /* \"contracts/AlvaraDao.sol\":2049:2064  block.timestamp */\n      timestamp\n        /* \"contracts/AlvaraDao.sol\":2020:2064  userLockPeriod[msg.sender] = block.timestamp */\n      swap1\n      sstore\n        /* \"contracts/AlvaraDao.sol\":2074:2078  ALVA */\n      and(sub(shl(0xa0, 0x01), 0x01), sload(0xc9))\n        /* \"contracts/AlvaraDao.sol\":2074:2091  ALVA.transferFrom */\n      0x23b872dd\n        /* \"contracts/AlvaraDao.sol\":2092:2104  _msgSender() */\n      tag_228\n        /* \"@openzeppelin/contracts-upgradeable/utils/ContextUpgradeable.sol\":965:975  msg.sender */\n      caller\n      swap1\n        /* \"@openzeppelin/contracts-upgradeable/utils/ContextUpgradeable.sol\":886:982  function _msgSender() internal view virtual returns (address) {... */\n      jump\n        /* \"contracts/AlvaraDao.sol\":2092:2104  _msgSender() */\n    tag_228:\n        /* \"contracts/AlvaraDao.sol\":2074:2129  ALVA.transferFrom(_msgSender(), address(this), _amount) */\n      mload(0x40)\n      not(sub(shl(0xe0, 0x01), 0x01))\n      0xe0\n      dup5\n      swap1\n      shl\n      and\n      dup2\n      mstore\n      sub(shl(0xa0, 0x01), 0x01)\n        /* \"#utility.yul\":8679:8711   */\n      swap1\n      swap2\n      and\n        /* \"contracts/AlvaraDao.sol\":2074:2129  ALVA.transferFrom(_msgSender(), address(this), _amount) */\n      0x04\n      dup3\n      add\n        /* \"#utility.yul\":8661:8712   */\n      mstore\n        /* \"contracts/AlvaraDao.sol\":2114:2118  this */\n      address\n        /* \"#utility.yul\":8728:8746   */\n      0x24\n      dup3\n      add\n        /* \"#utility.yul\":8721:8781   */\n      mstore\n        /* \"#utility.yul\":8797:8815   */\n      0x44\n      dup2\n      add\n        /* \"#utility.yul\":8790:8824   */\n      dup7\n      swap1\n      mstore\n        /* \"#utility.yul\":8634:8652   */\n      0x64\n      add\n        /* \"contracts/AlvaraDao.sol\":2074:2129  ALVA.transferFrom(_msgSender(), address(this), _amount) */\n      0x20\n      mload(0x40)\n      dup1\n      dup4\n      sub\n      dup2\n      0x00\n      dup8\n      gas\n      call\n      iszero\n      dup1\n      iszero\n      tag_232\n      jumpi\n      returndatacopy(0x00, 0x00, returndatasize)\n      revert(0x00, returndatasize)\n    tag_232:\n      pop\n      pop\n      pop\n      pop\n      mload(0x40)\n      returndatasize\n      not(0x1f)\n      0x1f\n      dup3\n      add\n      and\n      dup3\n      add\n      dup1\n      0x40\n      mstore\n      pop\n      dup2\n      add\n      swap1\n      tag_116\n      swap2\n      swap1\n      tag_184\n      jump\t// in\n        /* \"contracts/AlvaraDao.sol\":2941:3186  function blackListUser(address _user, bool _status) external onlyOwner {... */\n    tag_90:\n        /* \"@openzeppelin/contracts-upgradeable/access/OwnableUpgradeable.sol\":1355:1368  _checkOwner() */\n      tag_235\n        /* \"@openzeppelin/contracts-upgradeable/access/OwnableUpgradeable.sol\":1355:1366  _checkOwner */\n      tag_189\n        /* \"@openzeppelin/contracts-upgradeable/access/OwnableUpgradeable.sol\":1355:1368  _checkOwner() */\n      jump\t// in\n    tag_235:\n      sub(shl(0xa0, 0x01), 0x01)\n        /* \"contracts/AlvaraDao.sol\":3030:3053  blackListAddress[_user] */\n      dup3\n      and\n      0x00\n      swap1\n      dup2\n      mstore\n        /* \"contracts/AlvaraDao.sol\":3030:3046  blackListAddress */\n      0xcc\n        /* \"contracts/AlvaraDao.sol\":3030:3053  blackListAddress[_user] */\n      0x20\n      mstore\n      0x40\n      swap1\n      keccak256\n      sload\n        /* \"contracts/AlvaraDao.sol\":3030:3064  blackListAddress[_user] != _status */\n      dup2\n      iszero\n      iszero\n        /* \"contracts/AlvaraDao.sol\":3030:3053  blackListAddress[_user] */\n      0xff\n      swap1\n      swap2\n      and\n        /* \"contracts/AlvaraDao.sol\":3030:3064  blackListAddress[_user] != _status */\n      iszero\n      iszero\n      sub\n        /* \"contracts/AlvaraDao.sol\":3022:3091  require(blackListAddress[_user] != _status, \"Already in same status\") */\n      tag_237\n      jumpi\n      mload(0x40)\n      shl(0xe5, 0x461bcd)\n      dup2\n      mstore\n        /* \"#utility.yul\":9037:9039   */\n      0x20\n        /* \"contracts/AlvaraDao.sol\":3022:3091  require(blackListAddress[_user] != _status, \"Already in same status\") */\n      0x04\n      dup3\n      add\n        /* \"#utility.yul\":9019:9040   */\n      mstore\n        /* \"#utility.yul\":9076:9078   */\n      0x16\n        /* \"#utility.yul\":9056:9074   */\n      0x24\n      dup3\n      add\n        /* \"#utility.yul\":9049:9079   */\n      mstore\n      shl(0x50, 0x416c726561647920696e2073616d6520737461747573)\n        /* \"#utility.yul\":9095:9113   */\n      0x44\n      dup3\n      add\n        /* \"#utility.yul\":9088:9140   */\n      mstore\n        /* \"#utility.yul\":9157:9175   */\n      0x64\n      add\n        /* \"contracts/AlvaraDao.sol\":3022:3091  require(blackListAddress[_user] != _status, \"Already in same status\") */\n      tag_102\n        /* \"#utility.yul\":8835:9181   */\n      jump\n        /* \"contracts/AlvaraDao.sol\":3022:3091  require(blackListAddress[_user] != _status, \"Already in same status\") */\n    tag_237:\n      sub(shl(0xa0, 0x01), 0x01)\n        /* \"contracts/AlvaraDao.sol\":3101:3124  blackListAddress[_user] */\n      dup3\n      and\n      0x00\n      dup2\n      dup2\n      mstore\n        /* \"contracts/AlvaraDao.sol\":3101:3117  blackListAddress */\n      0xcc\n        /* \"contracts/AlvaraDao.sol\":3101:3124  blackListAddress[_user] */\n      0x20\n      swap1\n      dup2\n      mstore\n      0x40\n      swap2\n      dup3\n      swap1\n      keccak256\n        /* \"contracts/AlvaraDao.sol\":3101:3134  blackListAddress[_user] = _status */\n      dup1\n      sload\n      not(0xff)\n      and\n      dup6\n      iszero\n      iszero\n      swap1\n      dup2\n      or\n      swap1\n      swap2\n      sstore\n        /* \"contracts/AlvaraDao.sol\":3150:3179  BlackListUser(_user, _status) */\n      dup3\n      mload\n        /* \"#utility.yul\":9354:9405   */\n      swap4\n      dup5\n      mstore\n        /* \"#utility.yul\":9421:9439   */\n      swap1\n      dup4\n      add\n        /* \"#utility.yul\":9414:9464   */\n      mstore\n        /* \"contracts/AlvaraDao.sol\":3150:3179  BlackListUser(_user, _status) */\n      0x2f2ea19e5340217456e8ecb94895965ba2afa084e4a94f9fc7c315b1478243b7\n      swap2\n        /* \"#utility.yul\":9327:9345   */\n      add\n        /* \"contracts/AlvaraDao.sol\":3150:3179  BlackListUser(_user, _status) */\n      mload(0x40)\n      dup1\n      swap2\n      sub\n      swap1\n      log1\n        /* \"contracts/AlvaraDao.sol\":2941:3186  function blackListUser(address _user, bool _status) external onlyOwner {... */\n      pop\n      pop\n      jump\t// out\n        /* \"@openzeppelin/contracts-upgradeable/access/OwnableUpgradeable.sol\":2335:2533  function transferOwnership(address newOwner) public virtual onlyOwner {... */\n    tag_94:\n        /* \"@openzeppelin/contracts-upgradeable/access/OwnableUpgradeable.sol\":1355:1368  _checkOwner() */\n      tag_243\n        /* \"@openzeppelin/contracts-upgradeable/access/OwnableUpgradeable.sol\":1355:1366  _checkOwner */\n      tag_189\n        /* \"@openzeppelin/contracts-upgradeable/access/OwnableUpgradeable.sol\":1355:1368  _checkOwner() */\n      jump\t// in\n    tag_243:\n      sub(shl(0xa0, 0x01), 0x01)\n        /* \"@openzeppelin/contracts-upgradeable/access/OwnableUpgradeable.sol\":2423:2445  newOwner != address(0) */\n      dup2\n      and\n        /* \"@openzeppelin/contracts-upgradeable/access/OwnableUpgradeable.sol\":2415:2488  require(newOwner != address(0), \"Ownable: new owner is the zero address\") */\n      tag_245\n      jumpi\n      mload(0x40)\n      shl(0xe5, 0x461bcd)\n      dup2\n      mstore\n        /* \"#utility.yul\":9677:9679   */\n      0x20\n        /* \"@openzeppelin/contracts-upgradeable/access/OwnableUpgradeable.sol\":2415:2488  require(newOwner != address(0), \"Ownable: new owner is the zero address\") */\n      0x04\n      dup3\n      add\n        /* \"#utility.yul\":9659:9680   */\n      mstore\n        /* \"#utility.yul\":9716:9718   */\n      0x26\n        /* \"#utility.yul\":9696:9714   */\n      0x24\n      dup3\n      add\n        /* \"#utility.yul\":9689:9719   */\n      mstore\n        /* \"#utility.yul\":9755:9789   */\n      0x4f776e61626c653a206e6577206f776e657220697320746865207a65726f2061\n        /* \"#utility.yul\":9735:9753   */\n      0x44\n      dup3\n      add\n        /* \"#utility.yul\":9728:9790   */\n      mstore\n      shl(0xd0, 0x646472657373)\n        /* \"#utility.yul\":9806:9824   */\n      0x64\n      dup3\n      add\n        /* \"#utility.yul\":9799:9835   */\n      mstore\n        /* \"#utility.yul\":9852:9871   */\n      0x84\n      add\n        /* \"@openzeppelin/contracts-upgradeable/access/OwnableUpgradeable.sol\":2415:2488  require(newOwner != address(0), \"Ownable: new owner is the zero address\") */\n      tag_102\n        /* \"#utility.yul\":9475:9877   */\n      jump\n        /* \"@openzeppelin/contracts-upgradeable/access/OwnableUpgradeable.sol\":2415:2488  require(newOwner != address(0), \"Ownable: new owner is the zero address\") */\n    tag_245:\n        /* \"@openzeppelin/contracts-upgradeable/access/OwnableUpgradeable.sol\":2498:2526  _transferOwnership(newOwner) */\n      tag_131\n        /* \"@openzeppelin/contracts-upgradeable/access/OwnableUpgradeable.sol\":2517:2525  newOwner */\n      dup2\n        /* \"@openzeppelin/contracts-upgradeable/access/OwnableUpgradeable.sol\":2498:2516  _transferOwnership */\n      tag_192\n        /* \"@openzeppelin/contracts-upgradeable/access/OwnableUpgradeable.sol\":2498:2526  _transferOwnership(newOwner) */\n      jump\t// in\n        /* \"@openzeppelin/contracts-upgradeable/access/OwnableUpgradeable.sol\":1024:1119  function __Ownable_init() internal onlyInitializing {... */\n    tag_107:\n        /* \"@openzeppelin/contracts-upgradeable/proxy/utils/Initializable.sol\":5374:5387  _initializing */\n      sload(0x00)\n      0x0100\n      swap1\n      div\n      0xff\n      and\n        /* \"@openzeppelin/contracts-upgradeable/proxy/utils/Initializable.sol\":5366:5435  require(_initializing, \"Initializable: contract is not initializing\") */\n      tag_251\n      jumpi\n      mload(0x40)\n      shl(0xe5, 0x461bcd)\n      dup2\n      mstore\n      0x04\n      add\n      tag_102\n      swap1\n      tag_253\n      jump\t// in\n    tag_251:\n        /* \"@openzeppelin/contracts-upgradeable/access/OwnableUpgradeable.sol\":1086:1112  __Ownable_init_unchained() */\n      tag_191\n        /* \"@openzeppelin/contracts-upgradeable/access/OwnableUpgradeable.sol\":1086:1110  __Ownable_init_unchained */\n      tag_256\n        /* \"@openzeppelin/contracts-upgradeable/access/OwnableUpgradeable.sol\":1086:1112  __Ownable_init_unchained() */\n      jump\t// in\n        /* \"@openzeppelin/contracts-upgradeable/proxy/utils/UUPSUpgradeable.sol\":2290:2357  function __UUPSUpgradeable_init() internal onlyInitializing {... */\n    tag_109:\n        /* \"@openzeppelin/contracts-upgradeable/proxy/utils/Initializable.sol\":5374:5387  _initializing */\n      sload(0x00)\n      0x0100\n      swap1\n      div\n      0xff\n      and\n        /* \"@openzeppelin/contracts-upgradeable/proxy/utils/Initializable.sol\":5366:5435  require(_initializing, \"Initializable: contract is not initializing\") */\n      tag_191\n      jumpi\n      mload(0x40)\n      shl(0xe5, 0x461bcd)\n      dup2\n      mstore\n      0x04\n      add\n      tag_102\n      swap1\n      tag_253\n      jump\t// in\n        /* \"contracts/AlvaraDao.sol\":3398:3510  function _authorizeUpgrade(address newImplementation)... */\n    tag_130:\n        /* \"@openzeppelin/contracts-upgradeable/access/OwnableUpgradeable.sol\":1355:1368  _checkOwner() */\n      tag_131\n        /* \"@openzeppelin/contracts-upgradeable/access/OwnableUpgradeable.sol\":1355:1366  _checkOwner */\n      tag_189\n        /* \"@openzeppelin/contracts-upgradeable/access/OwnableUpgradeable.sol\":1355:1368  _checkOwner() */\n      jump\t// in\n        /* \"@openzeppelin/contracts-upgradeable/proxy/ERC1967/ERC1967UpgradeUpgradeable.sol\":2841:3785  function _upgradeToAndCallUUPS(address newImplementation, bytes memory data, bool forceCall) internal {... */\n    tag_136:\n        /* \"@openzeppelin/contracts-upgradeable/proxy/ERC1967/ERC1967UpgradeUpgradeable.sol\":839:905  0x4910fdfa16fed3260ed0e7147f7cc6da11a60208b5b9406d12a635614ffd9143 */\n      0x4910fdfa16fed3260ed0e7147f7cc6da11a60208b5b9406d12a635614ffd9143\n        /* \"@openzeppelin/contracts-upgradeable/proxy/ERC1967/ERC1967UpgradeUpgradeable.sol\":3257:3316  StorageSlotUpgradeable.getBooleanSlot(_ROLLBACK_SLOT).value */\n      sload\n      0xff\n      and\n        /* \"@openzeppelin/contracts-upgradeable/proxy/ERC1967/ERC1967UpgradeUpgradeable.sol\":3253:3779  if (StorageSlotUpgradeable.getBooleanSlot(_ROLLBACK_SLOT).value) {... */\n      iszero\n      tag_270\n      jumpi\n        /* \"@openzeppelin/contracts-upgradeable/proxy/ERC1967/ERC1967UpgradeUpgradeable.sol\":3332:3369  _setImplementation(newImplementation) */\n      tag_271\n        /* \"@openzeppelin/contracts-upgradeable/proxy/ERC1967/ERC1967UpgradeUpgradeable.sol\":3351:3368  newImplementation */\n      dup4\n        /* \"@openzeppelin/contracts-upgradeable/proxy/ERC1967/ERC1967UpgradeUpgradeable.sol\":3332:3350  _setImplementation */\n      tag_272\n        /* \"@openzeppelin/contracts-upgradeable/proxy/ERC1967/ERC1967UpgradeUpgradeable.sol\":3332:3369  _setImplementation(newImplementation) */\n      jump\t// in\n    tag_271:\n        /* \"@openzeppelin/contracts-upgradeable/proxy/ERC1967/ERC1967UpgradeUpgradeable.sol\":2841:3785  function _upgradeToAndCallUUPS(address newImplementation, bytes memory data, bool forceCall) internal {... */\n      pop\n      pop\n      pop\n      jump\t// out\n        /* \"@openzeppelin/contracts-upgradeable/proxy/ERC1967/ERC1967UpgradeUpgradeable.sol\":3253:3779  if (StorageSlotUpgradeable.getBooleanSlot(_ROLLBACK_SLOT).value) {... */\n    tag_270:\n        /* \"@openzeppelin/contracts-upgradeable/proxy/ERC1967/ERC1967UpgradeUpgradeable.sol\":3433:3450  newImplementation */\n      dup3\n      sub(shl(0xa0, 0x01), 0x01)\n        /* \"@openzeppelin/contracts-upgradeable/proxy/ERC1967/ERC1967UpgradeUpgradeable.sol\":3404:3465  IERC1822ProxiableUpgradeable(newImplementation).proxiableUUID */\n      and\n      0x52d1902d\n        /* \"@openzeppelin/contracts-upgradeable/proxy/ERC1967/ERC1967UpgradeUpgradeable.sol\":3404:3467  IERC1822ProxiableUpgradeable(newImplementation).proxiableUUID() */\n      mload(0x40)\n      dup2\n      0xffffffff\n      and\n      0xe0\n      shl\n      dup2\n      mstore\n      0x04\n      add\n      0x20\n      mload(0x40)\n      dup1\n      dup4\n      sub\n      dup2\n      dup7\n      gas\n      staticcall\n      swap3\n      pop\n      pop\n      pop\n      dup1\n      iszero\n      tag_274\n      jumpi\n      pop\n      0x40\n      dup1\n      mload\n      0x1f\n      returndatasize\n      swap1\n      dup2\n      add\n      not(0x1f)\n      and\n      dup3\n      add\n      swap1\n      swap3\n      mstore\n      tag_275\n      swap2\n      dup2\n      add\n      swap1\n      tag_163\n      jump\t// in\n    tag_275:\n      0x01\n    tag_274:\n        /* \"@openzeppelin/contracts-upgradeable/proxy/ERC1967/ERC1967UpgradeUpgradeable.sol\":3400:3702  try IERC1822ProxiableUpgradeable(newImplementation).proxiableUUID() returns (bytes32 slot) {... */\n      tag_277\n      jumpi\n        /* \"@openzeppelin/contracts-upgradeable/proxy/ERC1967/ERC1967UpgradeUpgradeable.sol\":3631:3687  revert(\"ERC1967Upgrade: new implementation is not UUPS\") */\n      mload(0x40)\n      shl(0xe5, 0x461bcd)\n      dup2\n      mstore\n        /* \"#utility.yul\":10685:10687   */\n      0x20\n        /* \"@openzeppelin/contracts-upgradeable/proxy/ERC1967/ERC1967UpgradeUpgradeable.sol\":3631:3687  revert(\"ERC1967Upgrade: new implementation is not UUPS\") */\n      0x04\n      dup3\n      add\n        /* \"#utility.yul\":10667:10688   */\n      mstore\n        /* \"#utility.yul\":10724:10726   */\n      0x2e\n        /* \"#utility.yul\":10704:10722   */\n      0x24\n      dup3\n      add\n        /* \"#utility.yul\":10697:10727   */\n      mstore\n        /* \"#utility.yul\":10763:10797   */\n      0x45524331393637557067726164653a206e657720696d706c656d656e74617469\n        /* \"#utility.yul\":10743:10761   */\n      0x44\n      dup3\n      add\n        /* \"#utility.yul\":10736:10798   */\n      mstore\n      shl(0x90, 0x6f6e206973206e6f742055555053)\n        /* \"#utility.yul\":10814:10832   */\n      0x64\n      dup3\n      add\n        /* \"#utility.yul\":10807:10851   */\n      mstore\n        /* \"#utility.yul\":10868:10887   */\n      0x84\n      add\n        /* \"@openzeppelin/contracts-upgradeable/proxy/ERC1967/ERC1967UpgradeUpgradeable.sol\":3631:3687  revert(\"ERC1967Upgrade: new implementation is not UUPS\") */\n      tag_102\n        /* \"#utility.yul\":10483:10893   */\n      jump\n        /* \"@openzeppelin/contracts-upgradeable/proxy/ERC1967/ERC1967UpgradeUpgradeable.sol\":3400:3702  try IERC1822ProxiableUpgradeable(newImplementation).proxiableUUID() returns (bytes32 slot) {... */\n    tag_277:\n      mload(0x00)\n      codecopy(0x00, data_75b20eef8615de99c108b05f0dbda081c91897128caa336d75dffb97c4132b4d, 0x20)\n      mload(0x00)\n      swap1\n      0x00\n      mstore\n        /* \"@openzeppelin/contracts-upgradeable/proxy/ERC1967/ERC1967UpgradeUpgradeable.sol\":3517:3545  slot == _IMPLEMENTATION_SLOT */\n      dup2\n      eq\n        /* \"@openzeppelin/contracts-upgradeable/proxy/ERC1967/ERC1967UpgradeUpgradeable.sol\":3509:3591  require(slot == _IMPLEMENTATION_SLOT, \"ERC1967Upgrade: unsupported proxiableUUID\") */\n      tag_284\n      jumpi\n      mload(0x40)\n      shl(0xe5, 0x461bcd)\n      dup2\n      mstore\n        /* \"#utility.yul\":11100:11102   */\n      0x20\n        /* \"@openzeppelin/contracts-upgradeable/proxy/ERC1967/ERC1967UpgradeUpgradeable.sol\":3509:3591  require(slot == _IMPLEMENTATION_SLOT, \"ERC1967Upgrade: unsupported proxiableUUID\") */\n      0x04\n      dup3\n      add\n        /* \"#utility.yul\":11082:11103   */\n      mstore\n        /* \"#utility.yul\":11139:11141   */\n      0x29\n        /* \"#utility.yul\":11119:11137   */\n      0x24\n      dup3\n      add\n        /* \"#utility.yul\":11112:11142   */\n      mstore\n        /* \"#utility.yul\":11178:11212   */\n      0x45524331393637557067726164653a20756e737570706f727465642070726f78\n        /* \"#utility.yul\":11158:11176   */\n      0x44\n      dup3\n      add\n        /* \"#utility.yul\":11151:11213   */\n      mstore\n      shl(0xba, 0x1a58589b1955555251)\n        /* \"#utility.yul\":11229:11247   */\n      0x64\n      dup3\n      add\n        /* \"#utility.yul\":11222:11261   */\n      mstore\n        /* \"#utility.yul\":11278:11297   */\n      0x84\n      add\n        /* \"@openzeppelin/contracts-upgradeable/proxy/ERC1967/ERC1967UpgradeUpgradeable.sol\":3509:3591  require(slot == _IMPLEMENTATION_SLOT, \"ERC1967Upgrade: unsupported proxiableUUID\") */\n      tag_102\n        /* \"#utility.yul\":10898:11303   */\n      jump\n        /* \"@openzeppelin/contracts-upgradeable/proxy/ERC1967/ERC1967UpgradeUpgradeable.sol\":3509:3591  require(slot == _IMPLEMENTATION_SLOT, \"ERC1967Upgrade: unsupported proxiableUUID\") */\n    tag_284:\n        /* \"@openzeppelin/contracts-upgradeable/proxy/ERC1967/ERC1967UpgradeUpgradeable.sol\":3468:3606  returns (bytes32 slot) {... */\n      pop\n        /* \"@openzeppelin/contracts-upgradeable/proxy/ERC1967/ERC1967UpgradeUpgradeable.sol\":3715:3768  _upgradeToAndCall(newImplementation, data, forceCall) */\n      tag_271\n        /* \"@openzeppelin/contracts-upgradeable/proxy/ERC1967/ERC1967UpgradeUpgradeable.sol\":3733:3750  newImplementation */\n      dup4\n        /* \"@openzeppelin/contracts-upgradeable/proxy/ERC1967/ERC1967UpgradeUpgradeable.sol\":3752:3756  data */\n      dup4\n        /* \"@openzeppelin/contracts-upgradeable/proxy/ERC1967/ERC1967UpgradeUpgradeable.sol\":3758:3767  forceCall */\n      dup4\n        /* \"@openzeppelin/contracts-upgradeable/proxy/ERC1967/ERC1967UpgradeUpgradeable.sol\":3715:3732  _upgradeToAndCall */\n      tag_288\n        /* \"@openzeppelin/contracts-upgradeable/proxy/ERC1967/ERC1967UpgradeUpgradeable.sol\":3715:3768  _upgradeToAndCall(newImplementation, data, forceCall) */\n      jump\t// in\n        /* \"@openzeppelin/contracts-upgradeable/access/OwnableUpgradeable.sol\":1620:1750  function _checkOwner() internal view virtual {... */\n    tag_189:\n        /* \"@openzeppelin/contracts-upgradeable/access/OwnableUpgradeable.sol\":1534:1540  _owner */\n      and(sub(shl(0xa0, 0x01), 0x01), sload(0x33))\n        /* \"@openzeppelin/contracts-upgradeable/utils/ContextUpgradeable.sol\":965:975  msg.sender */\n      caller\n        /* \"@openzeppelin/contracts-upgradeable/access/OwnableUpgradeable.sol\":1683:1706  owner() == _msgSender() */\n      eq\n        /* \"@openzeppelin/contracts-upgradeable/access/OwnableUpgradeable.sol\":1675:1743  require(owner() == _msgSender(), \"Ownable: caller is not the owner\") */\n      tag_191\n      jumpi\n      mload(0x40)\n      shl(0xe5, 0x461bcd)\n      dup2\n      mstore\n        /* \"#utility.yul\":11510:11512   */\n      0x20\n        /* \"@openzeppelin/contracts-upgradeable/access/OwnableUpgradeable.sol\":1675:1743  require(owner() == _msgSender(), \"Ownable: caller is not the owner\") */\n      0x04\n      dup3\n      add\n        /* \"#utility.yul\":11492:11513   */\n      dup2\n      swap1\n      mstore\n        /* \"#utility.yul\":11529:11547   */\n      0x24\n      dup3\n      add\n        /* \"#utility.yul\":11522:11552   */\n      mstore\n        /* \"#utility.yul\":11588:11622   */\n      0x4f776e61626c653a2063616c6c6572206973206e6f7420746865206f776e6572\n        /* \"#utility.yul\":11568:11586   */\n      0x44\n      dup3\n      add\n        /* \"#utility.yul\":11561:11623   */\n      mstore\n        /* \"#utility.yul\":11640:11658   */\n      0x64\n      add\n        /* \"@openzeppelin/contracts-upgradeable/access/OwnableUpgradeable.sol\":1675:1743  require(owner() == _msgSender(), \"Ownable: caller is not the owner\") */\n      tag_102\n        /* \"#utility.yul\":11308:11664   */\n      jump\n        /* \"@openzeppelin/contracts-upgradeable/access/OwnableUpgradeable.sol\":2687:2874  function _transferOwnership(address newOwner) internal virtual {... */\n    tag_192:\n        /* \"@openzeppelin/contracts-upgradeable/access/OwnableUpgradeable.sol\":2779:2785  _owner */\n      0x33\n      dup1\n      sload\n      sub(shl(0xa0, 0x01), 0x01)\n        /* \"@openzeppelin/contracts-upgradeable/access/OwnableUpgradeable.sol\":2795:2812  _owner = newOwner */\n      dup4\n      dup2\n      and\n      not(sub(shl(0xa0, 0x01), 0x01))\n      dup4\n      and\n      dup2\n      or\n      swap1\n      swap4\n      sstore\n        /* \"@openzeppelin/contracts-upgradeable/access/OwnableUpgradeable.sol\":2827:2867  OwnershipTransferred(oldOwner, newOwner) */\n      mload(0x40)\n        /* \"@openzeppelin/contracts-upgradeable/access/OwnableUpgradeable.sol\":2779:2785  _owner */\n      swap2\n      and\n      swap2\n        /* \"@openzeppelin/contracts-upgradeable/access/OwnableUpgradeable.sol\":2795:2812  _owner = newOwner */\n      swap1\n        /* \"@openzeppelin/contracts-upgradeable/access/OwnableUpgradeable.sol\":2779:2785  _owner */\n      dup3\n      swap1\n        /* \"@openzeppelin/contracts-upgradeable/access/OwnableUpgradeable.sol\":2827:2867  OwnershipTransferred(oldOwner, newOwner) */\n      0x8be0079c531659141344cd1fd0a4f28419497f9722a3daafe3b4186f6b6457e0\n      swap1\n        /* \"@openzeppelin/contracts-upgradeable/access/OwnableUpgradeable.sol\":2760:2776  address oldOwner */\n      0x00\n      swap1\n        /* \"@openzeppelin/contracts-upgradeable/access/OwnableUpgradeable.sol\":2827:2867  OwnershipTransferred(oldOwner, newOwner) */\n      log3\n        /* \"@openzeppelin/contracts-upgradeable/access/OwnableUpgradeable.sol\":2750:2874  {... */\n      pop\n        /* \"@openzeppelin/contracts-upgradeable/access/OwnableUpgradeable.sol\":2687:2874  function _transferOwnership(address newOwner) internal virtual {... */\n      pop\n      jump\t// out\n        /* \"@openzeppelin/contracts-upgradeable/access/OwnableUpgradeable.sol\":1125:1236  function __Ownable_init_unchained() internal onlyInitializing {... */\n    tag_256:\n        /* \"@openzeppelin/contracts-upgradeable/proxy/utils/Initializable.sol\":5374:5387  _initializing */\n      sload(0x00)\n      0x0100\n      swap1\n      div\n      0xff\n      and\n        /* \"@openzeppelin/contracts-upgradeable/proxy/utils/Initializable.sol\":5366:5435  require(_initializing, \"Initializable: contract is not initializing\") */\n      tag_298\n      jumpi\n      mload(0x40)\n      shl(0xe5, 0x461bcd)\n      dup2\n      mstore\n      0x04\n      add\n      tag_102\n      swap1\n      tag_253\n      jump\t// in\n    tag_298:\n        /* \"@openzeppelin/contracts-upgradeable/access/OwnableUpgradeable.sol\":1197:1229  _transferOwnership(_msgSender()) */\n      tag_191\n        /* \"@openzeppelin/contracts-upgradeable/utils/ContextUpgradeable.sol\":965:975  msg.sender */\n      caller\n        /* \"@openzeppelin/contracts-upgradeable/access/OwnableUpgradeable.sol\":1197:1215  _transferOwnership */\n      tag_192\n        /* \"@openzeppelin/contracts-upgradeable/access/OwnableUpgradeable.sol\":1197:1229  _transferOwnership(_msgSender()) */\n      jump\t// in\n        /* \"@openzeppelin/contracts-upgradeable/proxy/ERC1967/ERC1967UpgradeUpgradeable.sol\":1720:2001  function _setImplementation(address newImplementation) private {... */\n    tag_272:\n      sub(shl(0xa0, 0x01), 0x01)\n        /* \"@openzeppelin/contracts-upgradeable/utils/AddressUpgradeable.sol\":1713:1732  account.code.length */\n      dup2\n      and\n      extcodesize\n        /* \"@openzeppelin/contracts-upgradeable/proxy/ERC1967/ERC1967UpgradeUpgradeable.sol\":1793:1899  require(AddressUpgradeable.isContract(newImplementation), \"ERC1967: new implementation is not a contract\") */\n      tag_307\n      jumpi\n      mload(0x40)\n      shl(0xe5, 0x461bcd)\n      dup2\n      mstore\n        /* \"#utility.yul\":11871:11873   */\n      0x20\n        /* \"@openzeppelin/contracts-upgradeable/proxy/ERC1967/ERC1967UpgradeUpgradeable.sol\":1793:1899  require(AddressUpgradeable.isContract(newImplementation), \"ERC1967: new implementation is not a contract\") */\n      0x04\n      dup3\n      add\n        /* \"#utility.yul\":11853:11874   */\n      mstore\n        /* \"#utility.yul\":11910:11912   */\n      0x2d\n        /* \"#utility.yul\":11890:11908   */\n      0x24\n      dup3\n      add\n        /* \"#utility.yul\":11883:11913   */\n      mstore\n        /* \"#utility.yul\":11949:11983   */\n      0x455243313936373a206e657720696d706c656d656e746174696f6e206973206e\n        /* \"#utility.yul\":11929:11947   */\n      0x44\n      dup3\n      add\n        /* \"#utility.yul\":11922:11984   */\n      mstore\n      shl(0x9a, 0x1bdd08184818dbdb9d1c9858dd)\n        /* \"#utility.yul\":12000:12018   */\n      0x64\n      dup3\n      add\n        /* \"#utility.yul\":11993:12036   */\n      mstore\n        /* \"#utility.yul\":12053:12072   */\n      0x84\n      add\n        /* \"@openzeppelin/contracts-upgradeable/proxy/ERC1967/ERC1967UpgradeUpgradeable.sol\":1793:1899  require(AddressUpgradeable.isContract(newImplementation), \"ERC1967: new implementation is not a contract\") */\n      tag_102\n        /* \"#utility.yul\":11669:12078   */\n      jump\n        /* \"@openzeppelin/contracts-upgradeable/proxy/ERC1967/ERC1967UpgradeUpgradeable.sol\":1793:1899  require(AddressUpgradeable.isContract(newImplementation), \"ERC1967: new implementation is not a contract\") */\n    tag_307:\n      mload(0x00)\n      codecopy(0x00, data_75b20eef8615de99c108b05f0dbda081c91897128caa336d75dffb97c4132b4d, 0x20)\n      mload(0x00)\n      swap1\n      0x00\n      mstore\n        /* \"@openzeppelin/contracts-upgradeable/proxy/ERC1967/ERC1967UpgradeUpgradeable.sol\":1909:1994  StorageSlotUpgradeable.getAddressSlot(_IMPLEMENTATION_SLOT).value = newImplementation */\n      dup1\n      sload\n      not(sub(shl(0xa0, 0x01), 0x01))\n      and\n      sub(shl(0xa0, 0x01), 0x01)\n      swap3\n      swap1\n      swap3\n      and\n      swap2\n      swap1\n      swap2\n      or\n      swap1\n      sstore\n        /* \"@openzeppelin/contracts-upgradeable/proxy/ERC1967/ERC1967UpgradeUpgradeable.sol\":1720:2001  function _setImplementation(address newImplementation) private {... */\n      jump\t// out\n        /* \"@openzeppelin/contracts-upgradeable/proxy/ERC1967/ERC1967UpgradeUpgradeable.sol\":2393:2669  function _upgradeToAndCall(address newImplementation, bytes memory data, bool forceCall) internal {... */\n    tag_288:\n        /* \"@openzeppelin/contracts-upgradeable/proxy/ERC1967/ERC1967UpgradeUpgradeable.sol\":2501:2530  _upgradeTo(newImplementation) */\n      tag_312\n        /* \"@openzeppelin/contracts-upgradeable/proxy/ERC1967/ERC1967UpgradeUpgradeable.sol\":2512:2529  newImplementation */\n      dup4\n        /* \"@openzeppelin/contracts-upgradeable/proxy/ERC1967/ERC1967UpgradeUpgradeable.sol\":2501:2511  _upgradeTo */\n      tag_313\n        /* \"@openzeppelin/contracts-upgradeable/proxy/ERC1967/ERC1967UpgradeUpgradeable.sol\":2501:2530  _upgradeTo(newImplementation) */\n      jump\t// in\n    tag_312:\n        /* \"@openzeppelin/contracts-upgradeable/proxy/ERC1967/ERC1967UpgradeUpgradeable.sol\":2558:2559  0 */\n      0x00\n        /* \"@openzeppelin/contracts-upgradeable/proxy/ERC1967/ERC1967UpgradeUpgradeable.sol\":2544:2548  data */\n      dup3\n        /* \"@openzeppelin/contracts-upgradeable/proxy/ERC1967/ERC1967UpgradeUpgradeable.sol\":2544:2555  data.length */\n      mload\n        /* \"@openzeppelin/contracts-upgradeable/proxy/ERC1967/ERC1967UpgradeUpgradeable.sol\":2544:2559  data.length > 0 */\n      gt\n        /* \"@openzeppelin/contracts-upgradeable/proxy/ERC1967/ERC1967UpgradeUpgradeable.sol\":2544:2572  data.length > 0 || forceCall */\n      dup1\n      tag_314\n      jumpi\n      pop\n        /* \"@openzeppelin/contracts-upgradeable/proxy/ERC1967/ERC1967UpgradeUpgradeable.sol\":2563:2572  forceCall */\n      dup1\n        /* \"@openzeppelin/contracts-upgradeable/proxy/ERC1967/ERC1967UpgradeUpgradeable.sol\":2544:2572  data.length > 0 || forceCall */\n    tag_314:\n        /* \"@openzeppelin/contracts-upgradeable/proxy/ERC1967/ERC1967UpgradeUpgradeable.sol\":2540:2663  if (data.length > 0 || forceCall) {... */\n      iszero\n      tag_271\n      jumpi\n        /* \"@openzeppelin/contracts-upgradeable/proxy/ERC1967/ERC1967UpgradeUpgradeable.sol\":2588:2652  AddressUpgradeable.functionDelegateCall(newImplementation, data) */\n      tag_116\n        /* \"@openzeppelin/contracts-upgradeable/proxy/ERC1967/ERC1967UpgradeUpgradeable.sol\":2628:2645  newImplementation */\n      dup4\n        /* \"@openzeppelin/contracts-upgradeable/proxy/ERC1967/ERC1967UpgradeUpgradeable.sol\":2647:2651  data */\n      dup4\n        /* \"@openzeppelin/contracts-upgradeable/proxy/ERC1967/ERC1967UpgradeUpgradeable.sol\":2588:2627  AddressUpgradeable.functionDelegateCall */\n      tag_317\n        /* \"@openzeppelin/contracts-upgradeable/proxy/ERC1967/ERC1967UpgradeUpgradeable.sol\":2588:2652  AddressUpgradeable.functionDelegateCall(newImplementation, data) */\n      jump\t// in\n        /* \"@openzeppelin/contracts-upgradeable/proxy/ERC1967/ERC1967UpgradeUpgradeable.sol\":2107:2259  function _upgradeTo(address newImplementation) internal {... */\n    tag_313:\n        /* \"@openzeppelin/contracts-upgradeable/proxy/ERC1967/ERC1967UpgradeUpgradeable.sol\":2173:2210  _setImplementation(newImplementation) */\n      tag_319\n        /* \"@openzeppelin/contracts-upgradeable/proxy/ERC1967/ERC1967UpgradeUpgradeable.sol\":2192:2209  newImplementation */\n      dup2\n        /* \"@openzeppelin/contracts-upgradeable/proxy/ERC1967/ERC1967UpgradeUpgradeable.sol\":2173:2191  _setImplementation */\n      tag_272\n        /* \"@openzeppelin/contracts-upgradeable/proxy/ERC1967/ERC1967UpgradeUpgradeable.sol\":2173:2210  _setImplementation(newImplementation) */\n      jump\t// in\n    tag_319:\n        /* \"@openzeppelin/contracts-upgradeable/proxy/ERC1967/ERC1967UpgradeUpgradeable.sol\":2225:2252  Upgraded(newImplementation) */\n      mload(0x40)\n      sub(shl(0xa0, 0x01), 0x01)\n      dup3\n      and\n      swap1\n      0xbc7cd75a20ee27fd9adebab32041f755214dbc6bffa90cc0225b39da2e5c2d3b\n      swap1\n      0x00\n      swap1\n      log2\n        /* \"@openzeppelin/contracts-upgradeable/proxy/ERC1967/ERC1967UpgradeUpgradeable.sol\":2107:2259  function _upgradeTo(address newImplementation) internal {... */\n      pop\n      jump\t// out\n        /* \"@openzeppelin/contracts-upgradeable/utils/AddressUpgradeable.sol\":6685:6883  function functionDelegateCall(address target, bytes memory data) internal returns (bytes memory) {... */\n    tag_317:\n        /* \"@openzeppelin/contracts-upgradeable/utils/AddressUpgradeable.sol\":6768:6780  bytes memory */\n      0x60\n        /* \"@openzeppelin/contracts-upgradeable/utils/AddressUpgradeable.sol\":6799:6876  functionDelegateCall(target, data, \"Address: low-level delegate call failed\") */\n      tag_321\n        /* \"@openzeppelin/contracts-upgradeable/utils/AddressUpgradeable.sol\":6820:6826  target */\n      dup4\n        /* \"@openzeppelin/contracts-upgradeable/utils/AddressUpgradeable.sol\":6828:6832  data */\n      dup4\n        /* \"@openzeppelin/contracts-upgradeable/utils/AddressUpgradeable.sol\":6799:6876  functionDelegateCall(target, data, \"Address: low-level delegate call failed\") */\n      mload(0x40)\n      dup1\n      0x60\n      add\n      0x40\n      mstore\n      dup1\n      0x27\n      dup2\n      mstore\n      0x20\n      add\n      data_9fdcd12e4b726339b32a442b0a448365d5d85c96b2d2cff917b4f66c63110398\n      0x27\n      swap2\n      codecopy\n        /* \"@openzeppelin/contracts-upgradeable/utils/AddressUpgradeable.sol\":6799:6819  functionDelegateCall */\n      tag_322\n        /* \"@openzeppelin/contracts-upgradeable/utils/AddressUpgradeable.sol\":6799:6876  functionDelegateCall(target, data, \"Address: low-level delegate call failed\") */\n      jump\t// in\n    tag_321:\n        /* \"@openzeppelin/contracts-upgradeable/utils/AddressUpgradeable.sol\":6792:6876  return functionDelegateCall(target, data, \"Address: low-level delegate call failed\") */\n      swap1\n      pop\n        /* \"@openzeppelin/contracts-upgradeable/utils/AddressUpgradeable.sol\":6685:6883  function functionDelegateCall(address target, bytes memory data) internal returns (bytes memory) {... */\n    tag_320:\n      swap3\n      swap2\n      pop\n      pop\n      jump\t// out\n        /* \"@openzeppelin/contracts-upgradeable/utils/AddressUpgradeable.sol\":7069:7394  function functionDelegateCall(... */\n    tag_322:\n        /* \"@openzeppelin/contracts-upgradeable/utils/AddressUpgradeable.sol\":7210:7222  bytes memory */\n      0x60\n        /* \"@openzeppelin/contracts-upgradeable/utils/AddressUpgradeable.sol\":7235:7247  bool success */\n      0x00\n        /* \"@openzeppelin/contracts-upgradeable/utils/AddressUpgradeable.sol\":7249:7272  bytes memory returndata */\n      0x00\n        /* \"@openzeppelin/contracts-upgradeable/utils/AddressUpgradeable.sol\":7276:7282  target */\n      dup6\n      sub(shl(0xa0, 0x01), 0x01)\n        /* \"@openzeppelin/contracts-upgradeable/utils/AddressUpgradeable.sol\":7276:7295  target.delegatecall */\n      and\n        /* \"@openzeppelin/contracts-upgradeable/utils/AddressUpgradeable.sol\":7296:7300  data */\n      dup6\n        /* \"@openzeppelin/contracts-upgradeable/utils/AddressUpgradeable.sol\":7276:7301  target.delegatecall(data) */\n      mload(0x40)\n      tag_324\n      swap2\n      swap1\n      tag_325\n      jump\t// in\n    tag_324:\n      0x00\n      mload(0x40)\n      dup1\n      dup4\n      sub\n      dup2\n      dup6\n      gas\n      delegatecall\n      swap2\n      pop\n      pop\n      returndatasize\n      dup1\n      0x00\n      dup2\n      eq\n      tag_328\n      jumpi\n      mload(0x40)\n      swap2\n      pop\n      and(add(returndatasize, 0x3f), not(0x1f))\n      dup3\n      add\n      0x40\n      mstore\n      returndatasize\n      dup3\n      mstore\n      returndatasize\n      0x00\n      0x20\n      dup5\n      add\n      returndatacopy\n      jump(tag_327)\n    tag_328:\n      0x60\n      swap2\n      pop\n    tag_327:\n      pop\n        /* \"@openzeppelin/contracts-upgradeable/utils/AddressUpgradeable.sol\":7234:7301  (bool success, bytes memory returndata) = target.delegatecall(data) */\n      swap2\n      pop\n      swap2\n      pop\n        /* \"@openzeppelin/contracts-upgradeable/utils/AddressUpgradeable.sol\":7318:7387  verifyCallResultFromTarget(target, success, returndata, errorMessage) */\n      tag_329\n        /* \"@openzeppelin/contracts-upgradeable/utils/AddressUpgradeable.sol\":7345:7351  target */\n      dup7\n        /* \"@openzeppelin/contracts-upgradeable/utils/AddressUpgradeable.sol\":7353:7360  success */\n      dup4\n        /* \"@openzeppelin/contracts-upgradeable/utils/AddressUpgradeable.sol\":7362:7372  returndata */\n      dup4\n        /* \"@openzeppelin/contracts-upgradeable/utils/AddressUpgradeable.sol\":7374:7386  errorMessage */\n      dup8\n        /* \"@openzeppelin/contracts-upgradeable/utils/AddressUpgradeable.sol\":7318:7344  verifyCallResultFromTarget */\n      tag_330\n        /* \"@openzeppelin/contracts-upgradeable/utils/AddressUpgradeable.sol\":7318:7387  verifyCallResultFromTarget(target, success, returndata, errorMessage) */\n      jump\t// in\n    tag_329:\n        /* \"@openzeppelin/contracts-upgradeable/utils/AddressUpgradeable.sol\":7311:7387  return verifyCallResultFromTarget(target, success, returndata, errorMessage) */\n      swap7\n        /* \"@openzeppelin/contracts-upgradeable/utils/AddressUpgradeable.sol\":7069:7394  function functionDelegateCall(... */\n      swap6\n      pop\n      pop\n      pop\n      pop\n      pop\n      pop\n      jump\t// out\n        /* \"@openzeppelin/contracts-upgradeable/utils/AddressUpgradeable.sol\":7682:8310  function verifyCallResultFromTarget(... */\n    tag_330:\n        /* \"@openzeppelin/contracts-upgradeable/utils/AddressUpgradeable.sol\":7862:7874  bytes memory */\n      0x60\n        /* \"@openzeppelin/contracts-upgradeable/utils/AddressUpgradeable.sol\":7890:7897  success */\n      dup4\n        /* \"@openzeppelin/contracts-upgradeable/utils/AddressUpgradeable.sol\":7886:8304  if (success) {... */\n      iszero\n      tag_332\n      jumpi\n        /* \"@openzeppelin/contracts-upgradeable/utils/AddressUpgradeable.sol\":7917:7927  returndata */\n      dup3\n        /* \"@openzeppelin/contracts-upgradeable/utils/AddressUpgradeable.sol\":7917:7934  returndata.length */\n      mload\n        /* \"@openzeppelin/contracts-upgradeable/utils/AddressUpgradeable.sol\":7938:7939  0 */\n      0x00\n        /* \"@openzeppelin/contracts-upgradeable/utils/AddressUpgradeable.sol\":7917:7939  returndata.length == 0 */\n      sub\n        /* \"@openzeppelin/contracts-upgradeable/utils/AddressUpgradeable.sol\":7913:8199  if (returndata.length == 0) {... */\n      tag_335\n      jumpi\n      sub(shl(0xa0, 0x01), 0x01)\n        /* \"@openzeppelin/contracts-upgradeable/utils/AddressUpgradeable.sol\":1713:1732  account.code.length */\n      dup6\n      and\n      extcodesize\n        /* \"@openzeppelin/contracts-upgradeable/utils/AddressUpgradeable.sol\":8124:8184  require(isContract(target), \"Address: call to non-contract\") */\n      tag_335\n      jumpi\n      mload(0x40)\n      shl(0xe5, 0x461bcd)\n      dup2\n      mstore\n        /* \"#utility.yul\":12591:12593   */\n      0x20\n        /* \"@openzeppelin/contracts-upgradeable/utils/AddressUpgradeable.sol\":8124:8184  require(isContract(target), \"Address: call to non-contract\") */\n      0x04\n      dup3\n      add\n        /* \"#utility.yul\":12573:12594   */\n      mstore\n        /* \"#utility.yul\":12630:12632   */\n      0x1d\n        /* \"#utility.yul\":12610:12628   */\n      0x24\n      dup3\n      add\n        /* \"#utility.yul\":12603:12633   */\n      mstore\n        /* \"#utility.yul\":12669:12700   */\n      0x416464726573733a2063616c6c20746f206e6f6e2d636f6e7472616374000000\n        /* \"#utility.yul\":12649:12667   */\n      0x44\n      dup3\n      add\n        /* \"#utility.yul\":12642:12701   */\n      mstore\n        /* \"#utility.yul\":12718:12736   */\n      0x64\n      add\n        /* \"@openzeppelin/contracts-upgradeable/utils/AddressUpgradeable.sol\":8124:8184  require(isContract(target), \"Address: call to non-contract\") */\n      tag_102\n        /* \"#utility.yul\":12389:12742   */\n      jump\n        /* \"@openzeppelin/contracts-upgradeable/utils/AddressUpgradeable.sol\":8124:8184  require(isContract(target), \"Address: call to non-contract\") */\n    tag_335:\n      pop\n        /* \"@openzeppelin/contracts-upgradeable/utils/AddressUpgradeable.sol\":8219:8229  returndata */\n      dup2\n        /* \"@openzeppelin/contracts-upgradeable/utils/AddressUpgradeable.sol\":8212:8229  return returndata */\n      jump(tag_339)\n        /* \"@openzeppelin/contracts-upgradeable/utils/AddressUpgradeable.sol\":7886:8304  if (success) {... */\n    tag_332:\n        /* \"@openzeppelin/contracts-upgradeable/utils/AddressUpgradeable.sol\":8260:8293  _revert(returndata, errorMessage) */\n      tag_339\n        /* \"@openzeppelin/contracts-upgradeable/utils/AddressUpgradeable.sol\":8268:8278  returndata */\n      dup4\n        /* \"@openzeppelin/contracts-upgradeable/utils/AddressUpgradeable.sol\":8280:8292  errorMessage */\n      dup4\n        /* \"@openzeppelin/contracts-upgradeable/utils/AddressUpgradeable.sol\":8260:8267  _revert */\n      tag_340\n        /* \"@openzeppelin/contracts-upgradeable/utils/AddressUpgradeable.sol\":8260:8293  _revert(returndata, errorMessage) */\n      jump\t// in\n    tag_339:\n        /* \"@openzeppelin/contracts-upgradeable/utils/AddressUpgradeable.sol\":7682:8310  function verifyCallResultFromTarget(... */\n      swap5\n      swap4\n      pop\n      pop\n      pop\n      pop\n      jump\t// out\n        /* \"@openzeppelin/contracts-upgradeable/utils/AddressUpgradeable.sol\":8832:9372  function _revert(bytes memory returndata, string memory errorMessage) private pure {... */\n    tag_340:\n        /* \"@openzeppelin/contracts-upgradeable/utils/AddressUpgradeable.sol\":8991:9008  returndata.length */\n      dup2\n      mload\n        /* \"@openzeppelin/contracts-upgradeable/utils/AddressUpgradeable.sol\":8991:9012  returndata.length > 0 */\n      iszero\n        /* \"@openzeppelin/contracts-upgradeable/utils/AddressUpgradeable.sol\":8987:9366  if (returndata.length > 0) {... */\n      tag_342\n      jumpi\n        /* \"@openzeppelin/contracts-upgradeable/utils/AddressUpgradeable.sol\":9219:9229  returndata */\n      dup2\n        /* \"@openzeppelin/contracts-upgradeable/utils/AddressUpgradeable.sol\":9213:9230  mload(returndata) */\n      mload\n        /* \"@openzeppelin/contracts-upgradeable/utils/AddressUpgradeable.sol\":9275:9290  returndata_size */\n      dup1\n        /* \"@openzeppelin/contracts-upgradeable/utils/AddressUpgradeable.sol\":9262:9272  returndata */\n      dup4\n        /* \"@openzeppelin/contracts-upgradeable/utils/AddressUpgradeable.sol\":9258:9260  32 */\n      0x20\n        /* \"@openzeppelin/contracts-upgradeable/utils/AddressUpgradeable.sol\":9254:9273  add(32, returndata) */\n      add\n        /* \"@openzeppelin/contracts-upgradeable/utils/AddressUpgradeable.sol\":9247:9291  revert(add(32, returndata), returndata_size) */\n      revert\n        /* \"@openzeppelin/contracts-upgradeable/utils/AddressUpgradeable.sol\":8987:9366  if (returndata.length > 0) {... */\n    tag_342:\n        /* \"@openzeppelin/contracts-upgradeable/utils/AddressUpgradeable.sol\":9342:9354  errorMessage */\n      dup1\n        /* \"@openzeppelin/contracts-upgradeable/utils/AddressUpgradeable.sol\":9335:9355  revert(errorMessage) */\n      mload(0x40)\n      shl(0xe5, 0x461bcd)\n      dup2\n      mstore\n      0x04\n      add\n      tag_102\n      swap2\n      swap1\n      tag_345\n      jump\t// in\n        /* \"#utility.yul\":14:187   */\n    tag_346:\n        /* \"#utility.yul\":82:102   */\n      dup1\n      calldataload\n      sub(shl(0xa0, 0x01), 0x01)\n        /* \"#utility.yul\":131:162   */\n      dup2\n      and\n        /* \"#utility.yul\":121:163   */\n      dup2\n      eq\n        /* \"#utility.yul\":111:181   */\n      tag_351\n      jumpi\n        /* \"#utility.yul\":177:178   */\n      0x00\n        /* \"#utility.yul\":174:175   */\n      0x00\n        /* \"#utility.yul\":167:179   */\n      revert\n        /* \"#utility.yul\":111:181   */\n    tag_351:\n        /* \"#utility.yul\":14:187   */\n      swap2\n      swap1\n      pop\n      jump\t// out\n        /* \"#utility.yul\":192:378   */\n    tag_24:\n        /* \"#utility.yul\":251:257   */\n      0x00\n        /* \"#utility.yul\":304:306   */\n      0x20\n        /* \"#utility.yul\":292:301   */\n      dup3\n        /* \"#utility.yul\":283:290   */\n      dup5\n        /* \"#utility.yul\":279:302   */\n      sub\n        /* \"#utility.yul\":275:307   */\n      slt\n        /* \"#utility.yul\":272:324   */\n      iszero\n      tag_353\n      jumpi\n        /* \"#utility.yul\":320:321   */\n      0x00\n        /* \"#utility.yul\":317:318   */\n      0x00\n        /* \"#utility.yul\":310:322   */\n      revert\n        /* \"#utility.yul\":272:324   */\n    tag_353:\n        /* \"#utility.yul\":343:372   */\n      tag_321\n        /* \"#utility.yul\":362:371   */\n      dup3\n        /* \"#utility.yul\":343:372   */\n      tag_346\n      jump\t// in\n        /* \"#utility.yul\":565:939   */\n    tag_31:\n        /* \"#utility.yul\":642:648   */\n      0x00\n        /* \"#utility.yul\":650:656   */\n      0x00\n        /* \"#utility.yul\":658:664   */\n      0x00\n        /* \"#utility.yul\":711:713   */\n      0x60\n        /* \"#utility.yul\":699:708   */\n      dup5\n        /* \"#utility.yul\":690:697   */\n      dup7\n        /* \"#utility.yul\":686:709   */\n      sub\n        /* \"#utility.yul\":682:714   */\n      slt\n        /* \"#utility.yul\":679:731   */\n      iszero\n      tag_357\n      jumpi\n        /* \"#utility.yul\":727:728   */\n      0x00\n        /* \"#utility.yul\":724:725   */\n      0x00\n        /* \"#utility.yul\":717:729   */\n      revert\n        /* \"#utility.yul\":679:731   */\n    tag_357:\n        /* \"#utility.yul\":750:779   */\n      tag_358\n        /* \"#utility.yul\":769:778   */\n      dup5\n        /* \"#utility.yul\":750:779   */\n      tag_346\n      jump\t// in\n    tag_358:\n        /* \"#utility.yul\":740:779   */\n      swap3\n      pop\n        /* \"#utility.yul\":798:836   */\n      tag_359\n        /* \"#utility.yul\":832:834   */\n      0x20\n        /* \"#utility.yul\":821:830   */\n      dup6\n        /* \"#utility.yul\":817:835   */\n      add\n        /* \"#utility.yul\":798:836   */\n      tag_346\n      jump\t// in\n    tag_359:\n        /* \"#utility.yul\":565:939   */\n      swap3\n      swap6\n        /* \"#utility.yul\":788:836   */\n      swap3\n      swap5\n      pop\n      pop\n      pop\n        /* \"#utility.yul\":905:907   */\n      0x40\n        /* \"#utility.yul\":890:908   */\n      swap2\n      swap1\n      swap2\n      add\n        /* \"#utility.yul\":877:909   */\n      calldataload\n      swap1\n        /* \"#utility.yul\":565:939   */\n      jump\t// out\n        /* \"#utility.yul\":1359:1486   */\n    tag_134:\n        /* \"#utility.yul\":1420:1430   */\n      0x4e487b71\n        /* \"#utility.yul\":1415:1418   */\n      0xe0\n        /* \"#utility.yul\":1411:1431   */\n      shl\n        /* \"#utility.yul\":1408:1409   */\n      0x00\n        /* \"#utility.yul\":1401:1432   */\n      mstore\n        /* \"#utility.yul\":1451:1455   */\n      0x41\n        /* \"#utility.yul\":1448:1449   */\n      0x04\n        /* \"#utility.yul\":1441:1456   */\n      mstore\n        /* \"#utility.yul\":1475:1479   */\n      0x24\n        /* \"#utility.yul\":1472:1473   */\n      0x00\n        /* \"#utility.yul\":1465:1480   */\n      revert\n        /* \"#utility.yul\":1491:2509   */\n    tag_50:\n        /* \"#utility.yul\":1568:1574   */\n      0x00\n        /* \"#utility.yul\":1576:1582   */\n      0x00\n        /* \"#utility.yul\":1629:1631   */\n      0x40\n        /* \"#utility.yul\":1617:1626   */\n      dup4\n        /* \"#utility.yul\":1608:1615   */\n      dup6\n        /* \"#utility.yul\":1604:1627   */\n      sub\n        /* \"#utility.yul\":1600:1632   */\n      slt\n        /* \"#utility.yul\":1597:1649   */\n      iszero\n      tag_364\n      jumpi\n        /* \"#utility.yul\":1645:1646   */\n      0x00\n        /* \"#utility.yul\":1642:1643   */\n      0x00\n        /* \"#utility.yul\":1635:1647   */\n      revert\n        /* \"#utility.yul\":1597:1649   */\n    tag_364:\n        /* \"#utility.yul\":1668:1697   */\n      tag_365\n        /* \"#utility.yul\":1687:1696   */\n      dup4\n        /* \"#utility.yul\":1668:1697   */\n      tag_346\n      jump\t// in\n    tag_365:\n        /* \"#utility.yul\":1658:1697   */\n      swap2\n      pop\n        /* \"#utility.yul\":1748:1750   */\n      0x20\n        /* \"#utility.yul\":1737:1746   */\n      dup4\n        /* \"#utility.yul\":1733:1751   */\n      add\n        /* \"#utility.yul\":1720:1752   */\n      calldataload\n        /* \"#utility.yul\":1775:1793   */\n      0xffffffffffffffff\n        /* \"#utility.yul\":1767:1773   */\n      dup2\n        /* \"#utility.yul\":1764:1794   */\n      gt\n        /* \"#utility.yul\":1761:1811   */\n      iszero\n      tag_366\n      jumpi\n        /* \"#utility.yul\":1807:1808   */\n      0x00\n        /* \"#utility.yul\":1804:1805   */\n      0x00\n        /* \"#utility.yul\":1797:1809   */\n      revert\n        /* \"#utility.yul\":1761:1811   */\n    tag_366:\n        /* \"#utility.yul\":1830:1852   */\n      dup4\n      add\n        /* \"#utility.yul\":1883:1887   */\n      0x1f\n        /* \"#utility.yul\":1875:1888   */\n      dup2\n      add\n        /* \"#utility.yul\":1871:1898   */\n      dup6\n      sgt\n        /* \"#utility.yul\":1861:1916   */\n      tag_367\n      jumpi\n        /* \"#utility.yul\":1912:1913   */\n      0x00\n        /* \"#utility.yul\":1909:1910   */\n      0x00\n        /* \"#utility.yul\":1902:1914   */\n      revert\n        /* \"#utility.yul\":1861:1916   */\n    tag_367:\n        /* \"#utility.yul\":1952:1954   */\n      dup1\n        /* \"#utility.yul\":1939:1955   */\n      calldataload\n        /* \"#utility.yul\":1978:1996   */\n      0xffffffffffffffff\n        /* \"#utility.yul\":1970:1976   */\n      dup2\n        /* \"#utility.yul\":1967:1997   */\n      gt\n        /* \"#utility.yul\":1964:2020   */\n      iszero\n      tag_369\n      jumpi\n        /* \"#utility.yul\":2000:2018   */\n      tag_369\n      tag_134\n      jump\t// in\n    tag_369:\n        /* \"#utility.yul\":2049:2051   */\n      0x40\n        /* \"#utility.yul\":2043:2052   */\n      mload\n        /* \"#utility.yul\":2141:2143   */\n      0x1f\n        /* \"#utility.yul\":2103:2120   */\n      dup3\n      add\n      not(0x1f)\n        /* \"#utility.yul\":2099:2130   */\n      swap1\n      dup2\n      and\n        /* \"#utility.yul\":2132:2134   */\n      0x3f\n        /* \"#utility.yul\":2095:2135   */\n      add\n        /* \"#utility.yul\":2091:2145   */\n      and\n        /* \"#utility.yul\":2079:2146   */\n      dup2\n      add\n        /* \"#utility.yul\":2176:2194   */\n      0xffffffffffffffff\n        /* \"#utility.yul\":2161:2195   */\n      dup2\n      gt\n        /* \"#utility.yul\":2197:2219   */\n      dup3\n      dup3\n      lt\n        /* \"#utility.yul\":2158:2220   */\n      or\n        /* \"#utility.yul\":2155:2243   */\n      iszero\n      tag_371\n      jumpi\n        /* \"#utility.yul\":2223:2241   */\n      tag_371\n      tag_134\n      jump\t// in\n    tag_371:\n        /* \"#utility.yul\":2259:2261   */\n      0x40\n        /* \"#utility.yul\":2252:2274   */\n      mstore\n        /* \"#utility.yul\":2283:2305   */\n      dup2\n      dup2\n      mstore\n        /* \"#utility.yul\":2324:2339   */\n      dup3\n      dup3\n      add\n        /* \"#utility.yul\":2341:2343   */\n      0x20\n        /* \"#utility.yul\":2320:2344   */\n      add\n        /* \"#utility.yul\":2317:2354   */\n      dup8\n      lt\n        /* \"#utility.yul\":2314:2371   */\n      iszero\n      tag_372\n      jumpi\n        /* \"#utility.yul\":2367:2368   */\n      0x00\n        /* \"#utility.yul\":2364:2365   */\n      0x00\n        /* \"#utility.yul\":2357:2369   */\n      revert\n        /* \"#utility.yul\":2314:2371   */\n    tag_372:\n        /* \"#utility.yul\":2423:2429   */\n      dup2\n        /* \"#utility.yul\":2418:2420   */\n      0x20\n        /* \"#utility.yul\":2414:2416   */\n      dup5\n        /* \"#utility.yul\":2410:2421   */\n      add\n        /* \"#utility.yul\":2405:2407   */\n      0x20\n        /* \"#utility.yul\":2397:2403   */\n      dup4\n        /* \"#utility.yul\":2393:2408   */\n      add\n        /* \"#utility.yul\":2380:2430   */\n      calldatacopy\n        /* \"#utility.yul\":2476:2477   */\n      0x00\n        /* \"#utility.yul\":2471:2473   */\n      0x20\n        /* \"#utility.yul\":2462:2468   */\n      dup4\n        /* \"#utility.yul\":2454:2460   */\n      dup4\n        /* \"#utility.yul\":2450:2469   */\n      add\n        /* \"#utility.yul\":2446:2474   */\n      add\n        /* \"#utility.yul\":2439:2478   */\n      mstore\n        /* \"#utility.yul\":2497:2503   */\n      dup1\n        /* \"#utility.yul\":2487:2503   */\n      swap4\n      pop\n      pop\n      pop\n      pop\n        /* \"#utility.yul\":1491:2509   */\n      swap3\n      pop\n      swap3\n      swap1\n      pop\n      jump\t// out\n        /* \"#utility.yul\":2696:2922   */\n    tag_60:\n        /* \"#utility.yul\":2755:2761   */\n      0x00\n        /* \"#utility.yul\":2808:2810   */\n      0x20\n        /* \"#utility.yul\":2796:2805   */\n      dup3\n        /* \"#utility.yul\":2787:2794   */\n      dup5\n        /* \"#utility.yul\":2783:2806   */\n      sub\n        /* \"#utility.yul\":2779:2811   */\n      slt\n        /* \"#utility.yul\":2776:2828   */\n      iszero\n      tag_375\n      jumpi\n        /* \"#utility.yul\":2824:2825   */\n      0x00\n        /* \"#utility.yul\":2821:2822   */\n      0x00\n        /* \"#utility.yul\":2814:2826   */\n      revert\n        /* \"#utility.yul\":2776:2828   */\n    tag_375:\n      pop\n        /* \"#utility.yul\":2869:2892   */\n      calldataload\n      swap2\n        /* \"#utility.yul\":2696:2922   */\n      swap1\n      pop\n      jump\t// out\n        /* \"#utility.yul\":3135:3253   */\n    tag_347:\n        /* \"#utility.yul\":3221:3226   */\n      dup1\n        /* \"#utility.yul\":3214:3227   */\n      iszero\n        /* \"#utility.yul\":3207:3228   */\n      iszero\n        /* \"#utility.yul\":3200:3205   */\n      dup2\n        /* \"#utility.yul\":3197:3229   */\n      eq\n        /* \"#utility.yul\":3187:3247   */\n      tag_131\n      jumpi\n        /* \"#utility.yul\":3243:3244   */\n      0x00\n        /* \"#utility.yul\":3240:3241   */\n      0x00\n        /* \"#utility.yul\":3233:3245   */\n      revert\n        /* \"#utility.yul\":3258:3573   */\n    tag_89:\n        /* \"#utility.yul\":3323:3329   */\n      0x00\n        /* \"#utility.yul\":3331:3337   */\n      0x00\n        /* \"#utility.yul\":3384:3386   */\n      0x40\n        /* \"#utility.yul\":3372:3381   */\n      dup4\n        /* \"#utility.yul\":3363:3370   */\n      dup6\n        /* \"#utility.yul\":3359:3382   */\n      sub\n        /* \"#utility.yul\":3355:3387   */\n      slt\n        /* \"#utility.yul\":3352:3404   */\n      iszero\n      tag_380\n      jumpi\n        /* \"#utility.yul\":3400:3401   */\n      0x00\n        /* \"#utility.yul\":3397:3398   */\n      0x00\n        /* \"#utility.yul\":3390:3402   */\n      revert\n        /* \"#utility.yul\":3352:3404   */\n    tag_380:\n        /* \"#utility.yul\":3423:3452   */\n      tag_381\n        /* \"#utility.yul\":3442:3451   */\n      dup4\n        /* \"#utility.yul\":3423:3452   */\n      tag_346\n      jump\t// in\n    tag_381:\n        /* \"#utility.yul\":3413:3452   */\n      swap2\n      pop\n        /* \"#utility.yul\":3502:3504   */\n      0x20\n        /* \"#utility.yul\":3491:3500   */\n      dup4\n        /* \"#utility.yul\":3487:3505   */\n      add\n        /* \"#utility.yul\":3474:3506   */\n      calldataload\n        /* \"#utility.yul\":3515:3543   */\n      tag_382\n        /* \"#utility.yul\":3537:3542   */\n      dup2\n        /* \"#utility.yul\":3515:3543   */\n      tag_347\n      jump\t// in\n    tag_382:\n        /* \"#utility.yul\":3562:3567   */\n      dup1\n        /* \"#utility.yul\":3552:3567   */\n      swap2\n      pop\n      pop\n        /* \"#utility.yul\":3258:3573   */\n      swap3\n      pop\n      swap3\n      swap1\n      pop\n      jump\t// out\n        /* \"#utility.yul\":4891:5299   */\n    tag_122:\n        /* \"#utility.yul\":5093:5095   */\n      0x20\n        /* \"#utility.yul\":5075:5096   */\n      dup1\n      dup3\n      mstore\n        /* \"#utility.yul\":5132:5134   */\n      0x2c\n        /* \"#utility.yul\":5112:5130   */\n      swap1\n      dup3\n      add\n        /* \"#utility.yul\":5105:5135   */\n      mstore\n        /* \"#utility.yul\":5171:5205   */\n      0x46756e6374696f6e206d7573742062652063616c6c6564207468726f75676820\n        /* \"#utility.yul\":5166:5168   */\n      0x40\n        /* \"#utility.yul\":5151:5169   */\n      dup3\n      add\n        /* \"#utility.yul\":5144:5206   */\n      mstore\n      shl(0xa2, 0x19195b1959d85d1958d85b1b)\n        /* \"#utility.yul\":5237:5239   */\n      0x60\n        /* \"#utility.yul\":5222:5240   */\n      dup3\n      add\n        /* \"#utility.yul\":5215:5257   */\n      mstore\n        /* \"#utility.yul\":5289:5292   */\n      0x80\n        /* \"#utility.yul\":5274:5293   */\n      add\n      swap1\n        /* \"#utility.yul\":4891:5299   */\n      jump\t// out\n        /* \"#utility.yul\":5304:5712   */\n    tag_127:\n        /* \"#utility.yul\":5506:5508   */\n      0x20\n        /* \"#utility.yul\":5488:5509   */\n      dup1\n      dup3\n      mstore\n        /* \"#utility.yul\":5545:5547   */\n      0x2c\n        /* \"#utility.yul\":5525:5543   */\n      swap1\n      dup3\n      add\n        /* \"#utility.yul\":5518:5548   */\n      mstore\n        /* \"#utility.yul\":5584:5618   */\n      0x46756e6374696f6e206d7573742062652063616c6c6564207468726f75676820\n        /* \"#utility.yul\":5579:5581   */\n      0x40\n        /* \"#utility.yul\":5564:5582   */\n      dup3\n      add\n        /* \"#utility.yul\":5557:5619   */\n      mstore\n      shl(0xa0, 0x6163746976652070726f7879)\n        /* \"#utility.yul\":5650:5652   */\n      0x60\n        /* \"#utility.yul\":5635:5653   */\n      dup3\n      add\n        /* \"#utility.yul\":5628:5670   */\n      mstore\n        /* \"#utility.yul\":5702:5705   */\n      0x80\n        /* \"#utility.yul\":5687:5706   */\n      add\n      swap1\n        /* \"#utility.yul\":5304:5712   */\n      jump\t// out\n        /* \"#utility.yul\":6487:6614   */\n    tag_348:\n        /* \"#utility.yul\":6548:6558   */\n      0x4e487b71\n        /* \"#utility.yul\":6543:6546   */\n      0xe0\n        /* \"#utility.yul\":6539:6559   */\n      shl\n        /* \"#utility.yul\":6536:6537   */\n      0x00\n        /* \"#utility.yul\":6529:6560   */\n      mstore\n        /* \"#utility.yul\":6579:6583   */\n      0x11\n        /* \"#utility.yul\":6576:6577   */\n      0x04\n        /* \"#utility.yul\":6569:6584   */\n      mstore\n        /* \"#utility.yul\":6603:6607   */\n      0x24\n        /* \"#utility.yul\":6600:6601   */\n      0x00\n        /* \"#utility.yul\":6593:6608   */\n      revert\n        /* \"#utility.yul\":6619:6744   */\n    tag_156:\n        /* \"#utility.yul\":6684:6693   */\n      dup1\n      dup3\n      add\n        /* \"#utility.yul\":6705:6715   */\n      dup1\n      dup3\n      gt\n        /* \"#utility.yul\":6702:6738   */\n      iszero\n      tag_320\n      jumpi\n        /* \"#utility.yul\":6718:6736   */\n      tag_320\n      tag_348\n      jump\t// in\n        /* \"#utility.yul\":7093:7277   */\n    tag_163:\n        /* \"#utility.yul\":7163:7169   */\n      0x00\n        /* \"#utility.yul\":7216:7218   */\n      0x20\n        /* \"#utility.yul\":7204:7213   */\n      dup3\n        /* \"#utility.yul\":7195:7202   */\n      dup5\n        /* \"#utility.yul\":7191:7214   */\n      sub\n        /* \"#utility.yul\":7187:7219   */\n      slt\n        /* \"#utility.yul\":7184:7236   */\n      iszero\n      tag_397\n      jumpi\n        /* \"#utility.yul\":7232:7233   */\n      0x00\n        /* \"#utility.yul\":7229:7230   */\n      0x00\n        /* \"#utility.yul\":7222:7234   */\n      revert\n        /* \"#utility.yul\":7184:7236   */\n    tag_397:\n      pop\n        /* \"#utility.yul\":7255:7271   */\n      mload\n      swap2\n        /* \"#utility.yul\":7093:7277   */\n      swap1\n      pop\n      jump\t// out\n        /* \"#utility.yul\":7282:7450   */\n    tag_169:\n        /* \"#utility.yul\":7355:7364   */\n      dup1\n      dup3\n      mul\n        /* \"#utility.yul\":7386:7395   */\n      dup2\n      iszero\n        /* \"#utility.yul\":7403:7418   */\n      dup3\n      dup3\n      div\n        /* \"#utility.yul\":7397:7419   */\n      dup5\n      eq\n        /* \"#utility.yul\":7383:7420   */\n      or\n        /* \"#utility.yul\":7373:7444   */\n      tag_320\n      jumpi\n        /* \"#utility.yul\":7424:7442   */\n      tag_320\n      tag_348\n      jump\t// in\n        /* \"#utility.yul\":7455:7672   */\n    tag_171:\n        /* \"#utility.yul\":7495:7496   */\n      0x00\n        /* \"#utility.yul\":7521:7522   */\n      dup3\n        /* \"#utility.yul\":7511:7643   */\n      tag_402\n      jumpi\n        /* \"#utility.yul\":7565:7575   */\n      0x4e487b71\n        /* \"#utility.yul\":7560:7563   */\n      0xe0\n        /* \"#utility.yul\":7556:7576   */\n      shl\n        /* \"#utility.yul\":7553:7554   */\n      0x00\n        /* \"#utility.yul\":7546:7577   */\n      mstore\n        /* \"#utility.yul\":7600:7604   */\n      0x12\n        /* \"#utility.yul\":7597:7598   */\n      0x04\n        /* \"#utility.yul\":7590:7605   */\n      mstore\n        /* \"#utility.yul\":7628:7632   */\n      0x24\n        /* \"#utility.yul\":7625:7626   */\n      0x00\n        /* \"#utility.yul\":7618:7633   */\n      revert\n        /* \"#utility.yul\":7511:7643   */\n    tag_402:\n      pop\n        /* \"#utility.yul\":7657:7666   */\n      div\n      swap1\n        /* \"#utility.yul\":7455:7672   */\n      jump\t// out\n        /* \"#utility.yul\":7956:8201   */\n    tag_184:\n        /* \"#utility.yul\":8023:8029   */\n      0x00\n        /* \"#utility.yul\":8076:8078   */\n      0x20\n        /* \"#utility.yul\":8064:8073   */\n      dup3\n        /* \"#utility.yul\":8055:8062   */\n      dup5\n        /* \"#utility.yul\":8051:8074   */\n      sub\n        /* \"#utility.yul\":8047:8079   */\n      slt\n        /* \"#utility.yul\":8044:8096   */\n      iszero\n      tag_405\n      jumpi\n        /* \"#utility.yul\":8092:8093   */\n      0x00\n        /* \"#utility.yul\":8089:8090   */\n      0x00\n        /* \"#utility.yul\":8082:8094   */\n      revert\n        /* \"#utility.yul\":8044:8096   */\n    tag_405:\n        /* \"#utility.yul\":8124:8133   */\n      dup2\n        /* \"#utility.yul\":8118:8134   */\n      mload\n        /* \"#utility.yul\":8143:8171   */\n      tag_406\n        /* \"#utility.yul\":8165:8170   */\n      dup2\n        /* \"#utility.yul\":8143:8171   */\n      tag_347\n      jump\t// in\n    tag_406:\n        /* \"#utility.yul\":8190:8195   */\n      swap4\n        /* \"#utility.yul\":7956:8201   */\n      swap3\n      pop\n      pop\n      pop\n      jump\t// out\n        /* \"#utility.yul\":9882:10289   */\n    tag_253:\n        /* \"#utility.yul\":10084:10086   */\n      0x20\n        /* \"#utility.yul\":10066:10087   */\n      dup1\n      dup3\n      mstore\n        /* \"#utility.yul\":10123:10125   */\n      0x2b\n        /* \"#utility.yul\":10103:10121   */\n      swap1\n      dup3\n      add\n        /* \"#utility.yul\":10096:10126   */\n      mstore\n        /* \"#utility.yul\":10162:10196   */\n      0x496e697469616c697a61626c653a20636f6e7472616374206973206e6f742069\n        /* \"#utility.yul\":10157:10159   */\n      0x40\n        /* \"#utility.yul\":10142:10160   */\n      dup3\n      add\n        /* \"#utility.yul\":10135:10197   */\n      mstore\n      shl(0xa8, 0x6e697469616c697a696e67)\n        /* \"#utility.yul\":10228:10230   */\n      0x60\n        /* \"#utility.yul\":10213:10231   */\n      dup3\n      add\n        /* \"#utility.yul\":10206:10247   */\n      mstore\n        /* \"#utility.yul\":10279:10282   */\n      0x80\n        /* \"#utility.yul\":10264:10283   */\n      add\n      swap1\n        /* \"#utility.yul\":9882:10289   */\n      jump\t// out\n        /* \"#utility.yul\":12083:12384   */\n    tag_325:\n        /* \"#utility.yul\":12212:12215   */\n      0x00\n        /* \"#utility.yul\":12250:12256   */\n      dup3\n        /* \"#utility.yul\":12244:12257   */\n      mload\n        /* \"#utility.yul\":12296:12302   */\n      dup1\n        /* \"#utility.yul\":12289:12293   */\n      0x20\n        /* \"#utility.yul\":12281:12287   */\n      dup6\n        /* \"#utility.yul\":12277:12294   */\n      add\n        /* \"#utility.yul\":12272:12275   */\n      dup5\n        /* \"#utility.yul\":12266:12303   */\n      mcopy\n        /* \"#utility.yul\":12358:12359   */\n      0x00\n        /* \"#utility.yul\":12322:12338   */\n      swap3\n      add\n        /* \"#utility.yul\":12347:12360   */\n      swap2\n      dup3\n      mstore\n      pop\n        /* \"#utility.yul\":12322:12338   */\n      swap2\n        /* \"#utility.yul\":12083:12384   */\n      swap1\n      pop\n      jump\t// out\n        /* \"#utility.yul\":12747:13165   */\n    tag_345:\n        /* \"#utility.yul\":12896:12898   */\n      0x20\n        /* \"#utility.yul\":12885:12894   */\n      dup2\n        /* \"#utility.yul\":12878:12899   */\n      mstore\n        /* \"#utility.yul\":12859:12863   */\n      0x00\n        /* \"#utility.yul\":12928:12934   */\n      dup3\n        /* \"#utility.yul\":12922:12935   */\n      mload\n        /* \"#utility.yul\":12971:12977   */\n      dup1\n        /* \"#utility.yul\":12966:12968   */\n      0x20\n        /* \"#utility.yul\":12955:12964   */\n      dup5\n        /* \"#utility.yul\":12951:12969   */\n      add\n        /* \"#utility.yul\":12944:12978   */\n      mstore\n        /* \"#utility.yul\":13030:13036   */\n      dup1\n        /* \"#utility.yul\":13025:13027   */\n      0x20\n        /* \"#utility.yul\":13017:13023   */\n      dup6\n        /* \"#utility.yul\":13013:13028   */\n      add\n        /* \"#utility.yul\":13008:13010   */\n      0x40\n        /* \"#utility.yul\":12997:13006   */\n      dup6\n        /* \"#utility.yul\":12993:13011   */\n      add\n        /* \"#utility.yul\":12987:13037   */\n      mcopy\n        /* \"#utility.yul\":13086:13087   */\n      0x00\n        /* \"#utility.yul\":13081:13083   */\n      0x40\n        /* \"#utility.yul\":13072:13078   */\n      dup3\n        /* \"#utility.yul\":13061:13070   */\n      dup6\n        /* \"#utility.yul\":13057:13079   */\n      add\n        /* \"#utility.yul\":13053:13084   */\n      add\n        /* \"#utility.yul\":13046:13088   */\n      mstore\n        /* \"#utility.yul\":13156:13158   */\n      0x40\n        /* \"#utility.yul\":13149:13151   */\n      0x1f\n        /* \"#utility.yul\":13145:13152   */\n      not\n        /* \"#utility.yul\":13140:13142   */\n      0x1f\n        /* \"#utility.yul\":13132:13138   */\n      dup4\n        /* \"#utility.yul\":13128:13143   */\n      add\n        /* \"#utility.yul\":13124:13153   */\n      and\n        /* \"#utility.yul\":13113:13122   */\n      dup5\n        /* \"#utility.yul\":13109:13154   */\n      add\n        /* \"#utility.yul\":13105:13159   */\n      add\n        /* \"#utility.yul\":13097:13159   */\n      swap2\n      pop\n      pop\n        /* \"#utility.yul\":12747:13165   */\n      swap3\n      swap2\n      pop\n      pop\n      jump\t// out\n    stop\n    data_75b20eef8615de99c108b05f0dbda081c91897128caa336d75dffb97c4132b4d 360894a13ba1a3210667c828492db98dca3e2076cc3735a920a3ca505d382bbc\n    data_9fdcd12e4b726339b32a442b0a448365d5d85c96b2d2cff917b4f66c63110398 416464726573733a206c6f772d6c6576656c2064656c65676174652063616c6c206661696c6564\n\n    auxdata: 0xa264697066735822122014154bc1a730c437002c3b27c2a6e7d1e28017e979535df8f7e551e48ff2820c64736f6c634300081e0033\n}\n",
				"bytecode": {
					"linkReferences": {},
					"object": "60a060405230608052348015610013575f5ffd5b5061001c610021565b6100dd565b5f54610100900460ff161561008c5760405162461bcd60e51b815260206004820152602760248201527f496e697469616c697a61626c653a20636f6e747261637420697320696e697469604482015266616c697a696e6760c81b606482015260840160405180910390fd5b5f5460ff908116146100db575f805460ff191660ff9081179091556040519081527f7f26b83ff96e1f2b6a682f133852f6798a09c465da95921460cefb38474024989060200160405180910390a15b565b6080516118086101115f395f818161050201528181610542015281816105df0152818161061f01526106b001526118085ff3fe6080604052600436106100ef575f3560e01c80636ac1090111610087578063a59f3e0c11610057578063a59f3e0c1461029b578063b3d6e119146102ba578063e0cef1b0146102cf578063f2fde38b146102ee575f5ffd5b80636ac109011461022c578063715018a61461024b5780638da5cb5b1461025f57806391db7b0d1461027c575f5ffd5b80633b0e0133116100c25780633b0e0133146101a85780634f1ef286146101e657806352d1902d146101f957806367dfd4c91461020d575f5ffd5b80630c8e32d2146100f35780631794bb3c14610131578063323bf9f0146101525780633659cfe614610189575b5f5ffd5b3480156100fe575f5ffd5b5061011e61010d366004611443565b60cb6020525f908152604090205481565b6040519081526020015b60405180910390f35b34801561013c575f5ffd5b5061015061014b36600461145c565b61030d565b005b34801561015d575f5ffd5b5060c954610171906001600160a01b031681565b6040516001600160a01b039091168152602001610128565b348015610194575f5ffd5b506101506101a3366004611443565b6104f8565b3480156101b3575f5ffd5b506101d66101c2366004611443565b60cc6020525f908152604090205460ff1681565b6040519015158152602001610128565b6101506101f43660046114aa565b6105d5565b348015610204575f5ffd5b5061011e6106a4565b348015610218575f5ffd5b5061015061022736600461156e565b610755565b348015610237575f5ffd5b5060ca54610171906001600160a01b031681565b348015610256575f5ffd5b50610150610a23565b34801561026a575f5ffd5b506033546001600160a01b0316610171565b348015610287575f5ffd5b5061015061029636600461156e565b610a36565b3480156102a6575f5ffd5b506101506102b536600461156e565b610a7f565b3480156102c5575f5ffd5b5061011e60cd5481565b3480156102da575f5ffd5b506101506102e9366004611592565b610df1565b3480156102f9575f5ffd5b50610150610308366004611443565b610ec3565b5f54610100900460ff161580801561032b57505f54600160ff909116105b806103445750303b15801561034457505f5460ff166001145b6103ac5760405162461bcd60e51b815260206004820152602e60248201527f496e697469616c697a61626c653a20636f6e747261637420697320616c72656160448201526d191e481a5b9a5d1a585b1a5e995960921b60648201526084015b60405180910390fd5b5f805460ff1916600117905580156103cd575f805461ff0019166101001790555b6103d5610f39565b6103dd610f67565b6001600160a01b03841661042a5760405162461bcd60e51b8152602060048201526014602482015273496e76616c696420616c7661206164647265737360601b60448201526064016103a3565b6001600160a01b0383166104785760405162461bcd60e51b8152602060048201526015602482015274496e76616c69642078414c5641206164647265737360581b60448201526064016103a3565b60c980546001600160a01b038087166001600160a01b03199283161790925560ca80549286169290911691909117905560cd82905580156104f2575f805461ff0019169055604051600181527f7f26b83ff96e1f2b6a682f133852f6798a09c465da95921460cefb38474024989060200160405180910390a15b50505050565b6001600160a01b037f00000000000000000000000000000000000000000000000000000000000000001630036105405760405162461bcd60e51b81526004016103a3906115c7565b7f00000000000000000000000000000000000000000000000000000000000000006001600160a01b03166105885f51602061178c5f395f51905f52546001600160a01b031690565b6001600160a01b0316146105ae5760405162461bcd60e51b81526004016103a390611613565b6105b781610f8d565b604080515f808252602082019092526105d291839190610f95565b50565b6001600160a01b037f000000000000000000000000000000000000000000000000000000000000000016300361061d5760405162461bcd60e51b81526004016103a3906115c7565b7f00000000000000000000000000000000000000000000000000000000000000006001600160a01b03166106655f51602061178c5f395f51905f52546001600160a01b031690565b6001600160a01b03161461068b5760405162461bcd60e51b81526004016103a390611613565b61069482610f8d565b6106a082826001610f95565b5050565b5f306001600160a01b037f000000000000000000000000000000000000000000000000000000000000000016146107435760405162461bcd60e51b815260206004820152603860248201527f555550535570677261646561626c653a206d757374206e6f742062652063616c60448201527f6c6564207468726f7567682064656c656761746563616c6c000000000000000060648201526084016103a3565b505f51602061178c5f395f51905f5290565b335f90815260cc602052604090205460ff1615156001036107ab5760405162461bcd60e51b815260206004820152601060248201526f213630b1b5a634b9ba32b2102ab9b2b960811b60448201526064016103a3565b60cd54335f90815260cb60205260409020546107c79190611673565b4210156108085760405162461bcd60e51b815260206004820152600f60248201526e43616e206e6f7420756e5374616b6560881b60448201526064016103a3565b60ca54604080516318160ddd60e01b815290515f926001600160a01b0316916318160ddd9160048083019260209291908290030181865afa15801561084f573d5f5f3e3d5ffd5b505050506040513d601f19601f820116820180604052508101906108739190611686565b60c9546040516370a0823160e01b81523060048201529192505f9183916001600160a01b0316906370a0823190602401602060405180830381865afa1580156108be573d5f5f3e3d5ffd5b505050506040513d601f19601f820116820180604052508101906108e29190611686565b6108ec908561169d565b6108f691906116b4565b60ca549091506001600160a01b03166379cc6790336040516001600160e01b031960e084901b1681526001600160a01b039091166004820152602481018690526044015f604051808303815f87803b158015610950575f5ffd5b505af1158015610962573d5f5f3e3d5ffd5b505060c9546001600160a01b0316915063a9059cbb9050336040516001600160e01b031960e084901b1681526001600160a01b039091166004820152602481018490526044016020604051808303815f875af11580156109c4573d5f5f3e3d5ffd5b505050506040513d601f19601f820116820180604052508101906109e891906116d3565b5060405181815233907f85082129d87b2fe11527cb1b3b7a520aeb5aa6913f88a3d8757fe40d1db02fdd9060200160405180910390a2505050565b610a2b611104565b610a345f61115e565b565b610a3e611104565b60cd5460408051918252602082018390527ff814eafa160e3546fc1ea6b8939a578ef5f64d31e04888bcd82e8cd9f9ec2909910160405180910390a160cd55565b335f90815260cc602052604090205460ff161515600103610ad55760405162461bcd60e51b815260206004820152601060248201526f213630b1b5a634b9ba32b2102ab9b2b960811b60448201526064016103a3565b60c9546040516370a0823160e01b81523060048201525f916001600160a01b0316906370a0823190602401602060405180830381865afa158015610b1b573d5f5f3e3d5ffd5b505050506040513d601f19601f82011682018060405250810190610b3f9190611686565b90505f60ca5f9054906101000a90046001600160a01b03166001600160a01b03166318160ddd6040518163ffffffff1660e01b8152600401602060405180830381865afa158015610b92573d5f5f3e3d5ffd5b505050506040513d601f19601f82011682018060405250810190610bb69190611686565b9050801580610bc3575081155b15610c835760ca546001600160a01b03166340c10f19336040516001600160e01b031960e084901b1681526001600160a01b039091166004820152602481018690526044015f604051808303815f87803b158015610c1f575f5ffd5b505af1158015610c31573d5f5f3e3d5ffd5b50505050610c3c3390565b6001600160a01b03167febedb8b3c678666e7f36970bc8f57abf6d8fa2e828c0da91ea5b75bf68ed101a84604051610c7691815260200190565b60405180910390a2610d54565b5f82610c8f838661169d565b610c9991906116b4565b60ca549091506001600160a01b03166340c10f19336040516001600160e01b031960e084901b1681526001600160a01b039091166004820152602481018490526044015f604051808303815f87803b158015610cf3575f5ffd5b505af1158015610d05573d5f5f3e3d5ffd5b50505050610d103390565b6001600160a01b03167febedb8b3c678666e7f36970bc8f57abf6d8fa2e828c0da91ea5b75bf68ed101a82604051610d4a91815260200190565b60405180910390a2505b335f90815260cb6020526040902042905560c9546001600160a01b03166323b872dd610d7d3390565b6040516001600160e01b031960e084901b1681526001600160a01b039091166004820152306024820152604481018690526064016020604051808303815f875af1158015610dcd573d5f5f3e3d5ffd5b505050506040513d601f19601f820116820180604052508101906104f291906116d3565b610df9611104565b6001600160a01b0382165f90815260cc602052604090205481151560ff909116151503610e615760405162461bcd60e51b8152602060048201526016602482015275416c726561647920696e2073616d652073746174757360501b60448201526064016103a3565b6001600160a01b0382165f81815260cc6020908152604091829020805460ff19168515159081179091558251938452908301527f2f2ea19e5340217456e8ecb94895965ba2afa084e4a94f9fc7c315b1478243b7910160405180910390a15050565b610ecb611104565b6001600160a01b038116610f305760405162461bcd60e51b815260206004820152602660248201527f4f776e61626c653a206e6577206f776e657220697320746865207a65726f206160448201526564647265737360d01b60648201526084016103a3565b6105d28161115e565b5f54610100900460ff16610f5f5760405162461bcd60e51b81526004016103a3906116f5565b610a346111af565b5f54610100900460ff16610a345760405162461bcd60e51b81526004016103a3906116f5565b6105d2611104565b7f4910fdfa16fed3260ed0e7147f7cc6da11a60208b5b9406d12a635614ffd91435460ff1615610fcd57610fc8836111de565b505050565b826001600160a01b03166352d1902d6040518163ffffffff1660e01b8152600401602060405180830381865afa925050508015611027575060408051601f3d908101601f1916820190925261102491810190611686565b60015b61108a5760405162461bcd60e51b815260206004820152602e60248201527f45524331393637557067726164653a206e657720696d706c656d656e7461746960448201526d6f6e206973206e6f74205555505360901b60648201526084016103a3565b5f51602061178c5f395f51905f5281146110f85760405162461bcd60e51b815260206004820152602960248201527f45524331393637557067726164653a20756e737570706f727465642070726f786044820152681a58589b195555525160ba1b60648201526084016103a3565b50610fc8838383611279565b6033546001600160a01b03163314610a345760405162461bcd60e51b815260206004820181905260248201527f4f776e61626c653a2063616c6c6572206973206e6f7420746865206f776e657260448201526064016103a3565b603380546001600160a01b038381166001600160a01b0319831681179093556040519116919082907f8be0079c531659141344cd1fd0a4f28419497f9722a3daafe3b4186f6b6457e0905f90a35050565b5f54610100900460ff166111d55760405162461bcd60e51b81526004016103a3906116f5565b610a343361115e565b6001600160a01b0381163b61124b5760405162461bcd60e51b815260206004820152602d60248201527f455243313936373a206e657720696d706c656d656e746174696f6e206973206e60448201526c1bdd08184818dbdb9d1c9858dd609a1b60648201526084016103a3565b5f51602061178c5f395f51905f5280546001600160a01b0319166001600160a01b0392909216919091179055565b6112828361129d565b5f8251118061128e5750805b15610fc8576104f283836112dc565b6112a6816111de565b6040516001600160a01b038216907fbc7cd75a20ee27fd9adebab32041f755214dbc6bffa90cc0225b39da2e5c2d3b905f90a250565b606061130183836040518060600160405280602781526020016117ac6027913961130a565b90505b92915050565b60605f5f856001600160a01b0316856040516113269190611740565b5f60405180830381855af49150503d805f811461135e576040519150601f19603f3d011682016040523d82523d5f602084013e611363565b606091505b50915091506113748683838761137e565b9695505050505050565b606083156113ec5782515f036113e5576001600160a01b0385163b6113e55760405162461bcd60e51b815260206004820152601d60248201527f416464726573733a2063616c6c20746f206e6f6e2d636f6e747261637400000060448201526064016103a3565b50816113f6565b6113f683836113fe565b949350505050565b81511561140e5781518083602001fd5b8060405162461bcd60e51b81526004016103a39190611756565b80356001600160a01b038116811461143e575f5ffd5b919050565b5f60208284031215611453575f5ffd5b61130182611428565b5f5f5f6060848603121561146e575f5ffd5b61147784611428565b925061148560208501611428565b929592945050506040919091013590565b634e487b7160e01b5f52604160045260245ffd5b5f5f604083850312156114bb575f5ffd5b6114c483611428565b9150602083013567ffffffffffffffff8111156114df575f5ffd5b8301601f810185136114ef575f5ffd5b803567ffffffffffffffff81111561150957611509611496565b604051601f8201601f19908116603f0116810167ffffffffffffffff8111828210171561153857611538611496565b60405281815282820160200187101561154f575f5ffd5b816020840160208301375f602083830101528093505050509250929050565b5f6020828403121561157e575f5ffd5b5035919050565b80151581146105d2575f5ffd5b5f5f604083850312156115a3575f5ffd5b6115ac83611428565b915060208301356115bc81611585565b809150509250929050565b6020808252602c908201527f46756e6374696f6e206d7573742062652063616c6c6564207468726f7567682060408201526b19195b1959d85d1958d85b1b60a21b606082015260800190565b6020808252602c908201527f46756e6374696f6e206d7573742062652063616c6c6564207468726f7567682060408201526b6163746976652070726f787960a01b606082015260800190565b634e487b7160e01b5f52601160045260245ffd5b808201808211156113045761130461165f565b5f60208284031215611696575f5ffd5b5051919050565b80820281158282048414176113045761130461165f565b5f826116ce57634e487b7160e01b5f52601260045260245ffd5b500490565b5f602082840312156116e3575f5ffd5b81516116ee81611585565b9392505050565b6020808252602b908201527f496e697469616c697a61626c653a20636f6e7472616374206973206e6f74206960408201526a6e697469616c697a696e6760a81b606082015260800190565b5f82518060208501845e5f920191825250919050565b602081525f82518060208401528060208501604085015e5f604082850101526040601f19601f8301168401019150509291505056fe360894a13ba1a3210667c828492db98dca3e2076cc3735a920a3ca505d382bbc416464726573733a206c6f772d6c6576656c2064656c65676174652063616c6c206661696c6564a264697066735822122014154bc1a730c437002c3b27c2a6e7d1e28017e979535df8f7e551e48ff2820c64736f6c634300081e0033",
					"opcodes": "PUSH1 0xA0 PUSH1 0x40 MSTORE ADDRESS PUSH1 0x80 MSTORE CALLVALUE DUP1 ISZERO PUSH2 0x13 JUMPI PUSH0 PUSH0 REVERT JUMPDEST POP PUSH2 0x1C PUSH2 0x21 JUMP JUMPDEST PUSH2 0xDD JUMP JUMPDEST PUSH0 SLOAD PUSH2 0x100 SWAP1 DIV PUSH1 0xFF AND ISZERO PUSH2 0x8C JUMPI PUSH1 0x40 MLOAD PUSH3 0x461BCD PUSH1 0xE5 SHL DUP2 MSTORE PUSH1 0x20 PUSH1 0x4 DUP3 ADD MSTORE PUSH1 0x27 PUSH1 0x24 DUP3 ADD MSTORE PUSH32 0x496E697469616C697A61626C653A20636F6E747261637420697320696E697469 PUSH1 0x44 DUP3 ADD MSTORE PUSH7 0x616C697A696E67 PUSH1 0xC8 SHL PUSH1 0x64 DUP3 ADD MSTORE PUSH1 0x84 ADD PUSH1 0x40 MLOAD DUP1 SWAP2 SUB SWAP1 REVERT JUMPDEST PUSH0 SLOAD PUSH1 0xFF SWAP1 DUP2 AND EQ PUSH2 0xDB JUMPI PUSH0 DUP1 SLOAD PUSH1 0xFF NOT AND PUSH1 0xFF SWAP1 DUP2 OR SWAP1 SWAP2 SSTORE PUSH1 0x40 MLOAD SWAP1 DUP2 MSTORE PUSH32 0x7F26B83FF96E1F2B6A682F133852F6798A09C465DA95921460CEFB3847402498 SWAP1 PUSH1 0x20 ADD PUSH1 0x40 MLOAD DUP1 SWAP2 SUB SWAP1 LOG1 JUMPDEST JUMP JUMPDEST PUSH1 0x80 MLOAD PUSH2 0x1808 PUSH2 0x111 PUSH0 CODECOPY PUSH0 DUP2 DUP2 PUSH2 0x502 ADD MSTORE DUP2 DUP2 PUSH2 0x542 ADD MSTORE DUP2 DUP2 PUSH2 0x5DF ADD MSTORE DUP2 DUP2 PUSH2 0x61F ADD MSTORE PUSH2 0x6B0 ADD MSTORE PUSH2 0x1808 PUSH0 RETURN INVALID PUSH1 0x80 PUSH1 0x40 MSTORE PUSH1 0x4 CALLDATASIZE LT PUSH2 0xEF JUMPI PUSH0 CALLDATALOAD PUSH1 0xE0 SHR DUP1 PUSH4 0x6AC10901 GT PUSH2 0x87 JUMPI DUP1 PUSH4 0xA59F3E0C GT PUSH2 0x57 JUMPI DUP1 PUSH4 0xA59F3E0C EQ PUSH2 0x29B JUMPI DUP1 PUSH4 0xB3D6E119 EQ PUSH2 0x2BA JUMPI DUP1 PUSH4 0xE0CEF1B0 EQ PUSH2 0x2CF JUMPI DUP1 PUSH4 0xF2FDE38B EQ PUSH2 0x2EE JUMPI PUSH0 PUSH0 REVERT JUMPDEST DUP1 PUSH4 0x6AC10901 EQ PUSH2 0x22C JUMPI DUP1 PUSH4 0x715018A6 EQ PUSH2 0x24B JUMPI DUP1 PUSH4 0x8DA5CB5B EQ PUSH2 0x25F JUMPI DUP1 PUSH4 0x91DB7B0D EQ PUSH2 0x27C JUMPI PUSH0 PUSH0 REVERT JUMPDEST DUP1 PUSH4 0x3B0E0133 GT PUSH2 0xC2 JUMPI DUP1 PUSH4 0x3B0E0133 EQ PUSH2 0x1A8 JUMPI DUP1 PUSH4 0x4F1EF286 EQ PUSH2 0x1E6 JUMPI DUP1 PUSH4 0x52D1902D EQ PUSH2 0x1F9 JUMPI DUP1 PUSH4 0x67DFD4C9 EQ PUSH2 0x20D JUMPI PUSH0 PUSH0 REVERT JUMPDEST DUP1 PUSH4 0xC8E32D2 EQ PUSH2 0xF3 JUMPI DUP1 PUSH4 0x1794BB3C EQ PUSH2 0x131 JUMPI DUP1 PUSH4 0x323BF9F0 EQ PUSH2 0x152 JUMPI DUP1 PUSH4 0x3659CFE6 EQ PUSH2 0x189 JUMPI JUMPDEST PUSH0 PUSH0 REVERT JUMPDEST CALLVALUE DUP1 ISZERO PUSH2 0xFE JUMPI PUSH0 PUSH0 REVERT JUMPDEST POP PUSH2 0x11E PUSH2 0x10D CALLDATASIZE PUSH1 0x4 PUSH2 0x1443 JUMP JUMPDEST PUSH1 0xCB PUSH1 0x20 MSTORE PUSH0 SWAP1 DUP2 MSTORE PUSH1 0x40 SWAP1 KECCAK256 SLOAD DUP2 JUMP JUMPDEST PUSH1 0x40 MLOAD SWAP1 DUP2 MSTORE PUSH1 0x20 ADD JUMPDEST PUSH1 0x40 MLOAD DUP1 SWAP2 SUB SWAP1 RETURN JUMPDEST CALLVALUE DUP1 ISZERO PUSH2 0x13C JUMPI PUSH0 PUSH0 REVERT JUMPDEST POP PUSH2 0x150 PUSH2 0x14B CALLDATASIZE PUSH1 0x4 PUSH2 0x145C JUMP JUMPDEST PUSH2 0x30D JUMP JUMPDEST STOP JUMPDEST CALLVALUE DUP1 ISZERO PUSH2 0x15D JUMPI PUSH0 PUSH0 REVERT JUMPDEST POP PUSH1 0xC9 SLOAD PUSH2 0x171 SWAP1 PUSH1 0x1 PUSH1 0x1 PUSH1 0xA0 SHL SUB AND DUP2 JUMP JUMPDEST PUSH1 0x40 MLOAD PUSH1 0x1 PUSH1 0x1 PUSH1 0xA0 SHL SUB SWAP1 SWAP2 AND DUP2 MSTORE PUSH1 0x20 ADD PUSH2 0x128 JUMP JUMPDEST CALLVALUE DUP1 ISZERO PUSH2 0x194 JUMPI PUSH0 PUSH0 REVERT JUMPDEST POP PUSH2 0x150 PUSH2 0x1A3 CALLDATASIZE PUSH1 0x4 PUSH2 0x1443 JUMP JUMPDEST PUSH2 0x4F8 JUMP JUMPDEST CALLVALUE DUP1 ISZERO PUSH2 0x1B3 JUMPI PUSH0 PUSH0 REVERT JUMPDEST POP PUSH2 0x1D6 PUSH2 0x1C2 CALLDATASIZE PUSH1 0x4 PUSH2 0x1443 JUMP JUMPDEST PUSH1 0xCC PUSH1 0x20 MSTORE PUSH0 SWAP1 DUP2 MSTORE PUSH1 0x40 SWAP1 KECCAK256 SLOAD PUSH1 0xFF AND DUP2 JUMP JUMPDEST PUSH1 0x40 MLOAD SWAP1 ISZERO ISZERO DUP2 MSTORE PUSH1 0x20 ADD PUSH2 0x128 JUMP JUMPDEST PUSH2 0x150 PUSH2 0x1F4 CALLDATASIZE PUSH1 0x4 PUSH2 0x14AA JUMP JUMPDEST PUSH2 0x5D5 JUMP JUMPDEST CALLVALUE DUP1 ISZERO PUSH2 0x204 JUMPI PUSH0 PUSH0 REVERT JUMPDEST POP PUSH2 0x11E PUSH2 0x6A4 JUMP JUMPDEST CALLVALUE DUP1 ISZERO PUSH2 0x218 JUMPI PUSH0 PUSH0 REVERT JUMPDEST POP PUSH2 0x150 PUSH2 0x227 CALLDATASIZE PUSH1 0x4 PUSH2 0x156E JUMP JUMPDEST PUSH2 0x755 JUMP JUMPDEST CALLVALUE DUP1 ISZERO PUSH2 0x237 JUMPI PUSH0 PUSH0 REVERT JUMPDEST POP PUSH1 0xCA SLOAD PUSH2 0x171 SWAP1 PUSH1 0x1 PUSH1 0x1 PUSH1 0xA0 SHL SUB AND DUP2 JUMP JUMPDEST CALLVALUE DUP1 ISZERO PUSH2 0x256 JUMPI PUSH0 PUSH0 REVERT JUMPDEST POP PUSH2 0x150 PUSH2 0xA23 JUMP JUMPDEST CALLVALUE DUP1 ISZERO PUSH2 0x26A JUMPI PUSH0 PUSH0 REVERT JUMPDEST POP PUSH1 0x33 SLOAD PUSH1 0x1 PUSH1 0x1 PUSH1 0xA0 SHL SUB AND PUSH2 0x171 JUMP JUMPDEST CALLVALUE DUP1 ISZERO PUSH2 0x287 JUMPI PUSH0 PUSH0 REVERT JUMPDEST POP PUSH2 0x150 PUSH2 0x296 CALLDATASIZE PUSH1 0x4 PUSH2 0x156E JUMP JUMPDEST PUSH2 0xA36 JUMP JUMPDEST CALLVALUE DUP1 ISZERO PUSH2 0x2A6 JUMPI PUSH0 PUSH0 REVERT JUMPDEST POP PUSH2 0x150 PUSH2 0x2B5 CALLDATASIZE PUSH1 0x4 PUSH2 0x156E JUMP JUMPDEST PUSH2 0xA7F JUMP JUMPDEST CALLVALUE DUP1 ISZERO PUSH2 0x2C5 JUMPI PUSH0 PUSH0 REVERT JUMPDEST POP PUSH2 0x11E PUSH1 0xCD SLOAD DUP2 JUMP JUMPDEST CALLVALUE DUP1 ISZERO PUSH2 0x2DA JUMPI PUSH0 PUSH0 REVERT JUMPDEST POP PUSH2 0x150 PUSH2 0x2E9 CALLDATASIZE PUSH1 0x4 PUSH2 0x1592 JUMP JUMPDEST PUSH2 0xDF1 JUMP JUMPDEST CALLVALUE DUP1 ISZERO PUSH2 0x2F9 JUMPI PUSH0 PUSH0 REVERT JUMPDEST POP PUSH2 0x150 PUSH2 0x308 CALLDATASIZE PUSH1 0x4 PUSH2 0x1443 JUMP JUMPDEST PUSH2 0xEC3 JUMP JUMPDEST PUSH0 SLOAD PUSH2 0x100 SWAP1 DIV PUSH1 0xFF AND ISZERO DUP1 DUP1 ISZERO PUSH2 0x32B JUMPI POP PUSH0 SLOAD PUSH1 0x1 PUSH1 0xFF SWAP1 SWAP2 AND LT JUMPDEST DUP1 PUSH2 0x344 JUMPI POP ADDRESS EXTCODESIZE ISZERO DUP1 ISZERO PUSH2 0x344 JUMPI POP PUSH0 SLOAD PUSH1 0xFF AND PUSH1 0x1 EQ JUMPDEST PUSH2 0x3AC JUMPI PUSH1 0x40 MLOAD PUSH3 0x461BCD PUSH1 0xE5 SHL DUP2 MSTORE PUSH1 0x20 PUSH1 0x4 DUP3 ADD MSTORE PUSH1 0x2E PUSH1 0x24 DUP3 ADD MSTORE PUSH32 0x496E697469616C697A61626C653A20636F6E747261637420697320616C726561 PUSH1 0x44 DUP3 ADD MSTORE PUSH14 0x191E481A5B9A5D1A585B1A5E9959 PUSH1 0x92 SHL PUSH1 0x64 DUP3 ADD MSTORE PUSH1 0x84 ADD JUMPDEST PUSH1 0x40 MLOAD DUP1 SWAP2 SUB SWAP1 REVERT JUMPDEST PUSH0 DUP1 SLOAD PUSH1 0xFF NOT AND PUSH1 0x1 OR SWAP1 SSTORE DUP1 ISZERO PUSH2 0x3CD JUMPI PUSH0 DUP1 SLOAD PUSH2 0xFF00 NOT AND PUSH2 0x100 OR SWAP1 SSTORE JUMPDEST PUSH2 0x3D5 PUSH2 0xF39 JUMP JUMPDEST PUSH2 0x3DD PUSH2 0xF67 JUMP JUMPDEST PUSH1 0x1 PUSH1 0x1 PUSH1 0xA0 SHL SUB DUP5 AND PUSH2 0x42A JUMPI PUSH1 0x40 MLOAD PUSH3 0x461BCD PUSH1 0xE5 SHL DUP2 MSTORE PUSH1 0x20 PUSH1 0x4 DUP3 ADD MSTORE PUSH1 0x14 PUSH1 0x24 DUP3 ADD MSTORE PUSH20 0x496E76616C696420616C76612061646472657373 PUSH1 0x60 SHL PUSH1 0x44 DUP3 ADD MSTORE PUSH1 0x64 ADD PUSH2 0x3A3 JUMP JUMPDEST PUSH1 0x1 PUSH1 0x1 PUSH1 0xA0 SHL SUB DUP4 AND PUSH2 0x478 JUMPI PUSH1 0x40 MLOAD PUSH3 0x461BCD PUSH1 0xE5 SHL DUP2 MSTORE PUSH1 0x20 PUSH1 0x4 DUP3 ADD MSTORE PUSH1 0x15 PUSH1 0x24 DUP3 ADD MSTORE PUSH21 0x496E76616C69642078414C56412061646472657373 PUSH1 0x58 SHL PUSH1 0x44 DUP3 ADD MSTORE PUSH1 0x64 ADD PUSH2 0x3A3 JUMP JUMPDEST PUSH1 0xC9 DUP1 SLOAD PUSH1 0x1 PUSH1 0x1 PUSH1 0xA0 SHL SUB DUP1 DUP8 AND PUSH1 0x1 PUSH1 0x1 PUSH1 0xA0 SHL SUB NOT SWAP3 DUP4 AND OR SWAP1 SWAP3 SSTORE PUSH1 0xCA DUP1 SLOAD SWAP3 DUP7 AND SWAP3 SWAP1 SWAP2 AND SWAP2 SWAP1 SWAP2 OR SWAP1 SSTORE PUSH1 0xCD DUP3 SWAP1 SSTORE DUP1 ISZERO PUSH2 0x4F2 JUMPI PUSH0 DUP1 SLOAD PUSH2 0xFF00 NOT AND SWAP1 SSTORE PUSH1 0x40 MLOAD PUSH1 0x1 DUP2 MSTORE PUSH32 0x7F26B83FF96E1F2B6A682F133852F6798A09C465DA95921460CEFB3847402498 SWAP1 PUSH1 0x20 ADD PUSH1 0x40 MLOAD DUP1 SWAP2 SUB SWAP1 LOG1 JUMPDEST POP POP POP POP JUMP JUMPDEST PUSH1 0x1 PUSH1 0x1 PUSH1 0xA0 SHL SUB PUSH32 0x0 AND ADDRESS SUB PUSH2 0x540 JUMPI PUSH1 0x40 MLOAD PUSH3 0x461BCD PUSH1 0xE5 SHL DUP2 MSTORE PUSH1 0x4 ADD PUSH2 0x3A3 SWAP1 PUSH2 0x15C7 JUMP JUMPDEST PUSH32 0x0 PUSH1 0x1 PUSH1 0x1 PUSH1 0xA0 SHL SUB AND PUSH2 0x588 PUSH0 MLOAD PUSH1 0x20 PUSH2 0x178C PUSH0 CODECOPY PUSH0 MLOAD SWAP1 PUSH0 MSTORE SLOAD PUSH1 0x1 PUSH1 0x1 PUSH1 0xA0 SHL SUB AND SWAP1 JUMP JUMPDEST PUSH1 0x1 PUSH1 0x1 PUSH1 0xA0 SHL SUB AND EQ PUSH2 0x5AE JUMPI PUSH1 0x40 MLOAD PUSH3 0x461BCD PUSH1 0xE5 SHL DUP2 MSTORE PUSH1 0x4 ADD PUSH2 0x3A3 SWAP1 PUSH2 0x1613 JUMP JUMPDEST PUSH2 0x5B7 DUP2 PUSH2 0xF8D JUMP JUMPDEST PUSH1 0x40 DUP1 MLOAD PUSH0 DUP1 DUP3 MSTORE PUSH1 0x20 DUP3 ADD SWAP1 SWAP3 MSTORE PUSH2 0x5D2 SWAP2 DUP4 SWAP2 SWAP1 PUSH2 0xF95 JUMP JUMPDEST POP JUMP JUMPDEST PUSH1 0x1 PUSH1 0x1 PUSH1 0xA0 SHL SUB PUSH32 0x0 AND ADDRESS SUB PUSH2 0x61D JUMPI PUSH1 0x40 MLOAD PUSH3 0x461BCD PUSH1 0xE5 SHL DUP2 MSTORE PUSH1 0x4 ADD PUSH2 0x3A3 SWAP1 PUSH2 0x15C7 JUMP JUMPDEST PUSH32 0x0 PUSH1 0x1 PUSH1 0x1 PUSH1 0xA0 SHL SUB AND PUSH2 0x665 PUSH0 MLOAD PUSH1 0x20 PUSH2 0x178C PUSH0 CODECOPY PUSH0 MLOAD SWAP1 PUSH0 MSTORE SLOAD PUSH1 0x1 PUSH1 0x1 PUSH1 0xA0 SHL SUB AND SWAP1 JUMP JUMPDEST PUSH1 0x1 PUSH1 0x1 PUSH1 0xA0 SHL SUB AND EQ PUSH2 0x68B JUMPI PUSH1 0x40 MLOAD PUSH3 0x461BCD PUSH1 0xE5 SHL DUP2 MSTORE PUSH1 0x4 ADD PUSH2 0x3A3 SWAP1 PUSH2 0x1613 JUMP JUMPDEST PUSH2 0x694 DUP3 PUSH2 0xF8D JUMP JUMPDEST PUSH2 0x6A0 DUP3 DUP3 PUSH1 0x1 PUSH2 0xF95 JUMP JUMPDEST POP POP JUMP JUMPDEST PUSH0 ADDRESS PUSH1 0x1 PUSH1 0x1 PUSH1 0xA0 SHL SUB PUSH32 0x0 AND EQ PUSH2 0x743 JUMPI PUSH1 0x40 MLOAD PUSH3 0x461BCD PUSH1 0xE5 SHL DUP2 MSTORE PUSH1 0x20 PUSH1 0x4 DUP3 ADD MSTORE PUSH1 0x38 PUSH1 0x24 DUP3 ADD MSTORE PUSH32 0x555550535570677261646561626C653A206D757374206E6F742062652063616C PUSH1 0x44 DUP3 ADD MSTORE PUSH32 0x6C6564207468726F7567682064656C656761746563616C6C0000000000000000 PUSH1 0x64 DUP3 ADD MSTORE PUSH1 0x84 ADD PUSH2 0x3A3 JUMP JUMPDEST POP PUSH0 MLOAD PUSH1 0x20 PUSH2 0x178C PUSH0 CODECOPY PUSH0 MLOAD SWAP1 PUSH0 MSTORE SWAP1 JUMP JUMPDEST CALLER PUSH0 SWAP1 DUP2 MSTORE PUSH1 0xCC PUSH1 0x20 MSTORE PUSH1 0x40 SWAP1 KECCAK256 SLOAD PUSH1 0xFF AND ISZERO ISZERO PUSH1 0x1 SUB PUSH2 0x7AB JUMPI PUSH1 0x40 MLOAD PUSH3 0x461BCD PUSH1 0xE5 SHL DUP2 MSTORE PUSH1 0x20 PUSH1 0x4 DUP3 ADD MSTORE PUSH1 0x10 PUSH1 0x24 DUP3 ADD MSTORE PUSH16 0x213630B1B5A634B9BA32B2102AB9B2B9 PUSH1 0x81 SHL PUSH1 0x44 DUP3 ADD MSTORE PUSH1 0x64 ADD PUSH2 0x3A3 JUMP JUMPDEST PUSH1 0xCD SLOAD CALLER PUSH0 SWAP1 DUP2 MSTORE PUSH1 0xCB PUSH1 0x20 MSTORE PUSH1 0x40 SWAP1 KECCAK256 SLOAD PUSH2 0x7C7 SWAP2 SWAP1 PUSH2 0x1673 JUMP JUMPDEST TIMESTAMP LT ISZERO PUSH2 0x808 JUMPI PUSH1 0x40 MLOAD PUSH3 0x461BCD PUSH1 0xE5 SHL DUP2 MSTORE PUSH1 0x20 PUSH1 0x4 DUP3 ADD MSTORE PUSH1 0xF PUSH1 0x24 DUP3 ADD MSTORE PUSH15 0x43616E206E6F7420756E5374616B65 PUSH1 0x88 SHL PUSH1 0x44 DUP3 ADD MSTORE PUSH1 0x64 ADD PUSH2 0x3A3 JUMP JUMPDEST PUSH1 0xCA SLOAD PUSH1 0x40 DUP1 MLOAD PUSH4 0x18160DDD PUSH1 0xE0 SHL DUP2 MSTORE SWAP1 MLOAD PUSH0 SWAP3 PUSH1 0x1 PUSH1 0x1 PUSH1 0xA0 SHL SUB AND SWAP2 PUSH4 0x18160DDD SWAP2 PUSH1 0x4 DUP1 DUP4 ADD SWAP3 PUSH1 0x20 SWAP3 SWAP2 SWAP1 DUP3 SWAP1 SUB ADD DUP2 DUP7 GAS STATICCALL ISZERO DUP1 ISZERO PUSH2 0x84F JUMPI RETURNDATASIZE PUSH0 PUSH0 RETURNDATACOPY RETURNDATASIZE PUSH0 REVERT JUMPDEST POP POP POP POP PUSH1 0x40 MLOAD RETURNDATASIZE PUSH1 0x1F NOT PUSH1 0x1F DUP3 ADD AND DUP3 ADD DUP1 PUSH1 0x40 MSTORE POP DUP2 ADD SWAP1 PUSH2 0x873 SWAP2 SWAP1 PUSH2 0x1686 JUMP JUMPDEST PUSH1 0xC9 SLOAD PUSH1 0x40 MLOAD PUSH4 0x70A08231 PUSH1 0xE0 SHL DUP2 MSTORE ADDRESS PUSH1 0x4 DUP3 ADD MSTORE SWAP2 SWAP3 POP PUSH0 SWAP2 DUP4 SWAP2 PUSH1 0x1 PUSH1 0x1 PUSH1 0xA0 SHL SUB AND SWAP1 PUSH4 0x70A08231 SWAP1 PUSH1 0x24 ADD PUSH1 0x20 PUSH1 0x40 MLOAD DUP1 DUP4 SUB DUP2 DUP7 GAS STATICCALL ISZERO DUP1 ISZERO PUSH2 0x8BE JUMPI RETURNDATASIZE PUSH0 PUSH0 RETURNDATACOPY RETURNDATASIZE PUSH0 REVERT JUMPDEST POP POP POP POP PUSH1 0x40 MLOAD RETURNDATASIZE PUSH1 0x1F NOT PUSH1 0x1F DUP3 ADD AND DUP3 ADD DUP1 PUSH1 0x40 MSTORE POP DUP2 ADD SWAP1 PUSH2 0x8E2 SWAP2 SWAP1 PUSH2 0x1686 JUMP JUMPDEST PUSH2 0x8EC SWAP1 DUP6 PUSH2 0x169D JUMP JUMPDEST PUSH2 0x8F6 SWAP2 SWAP1 PUSH2 0x16B4 JUMP JUMPDEST PUSH1 0xCA SLOAD SWAP1 SWAP2 POP PUSH1 0x1 PUSH1 0x1 PUSH1 0xA0 SHL SUB AND PUSH4 0x79CC6790 CALLER PUSH1 0x40 MLOAD PUSH1 0x1 PUSH1 0x1 PUSH1 0xE0 SHL SUB NOT PUSH1 0xE0 DUP5 SWAP1 SHL AND DUP2 MSTORE PUSH1 0x1 PUSH1 0x1 PUSH1 0xA0 SHL SUB SWAP1 SWAP2 AND PUSH1 0x4 DUP3 ADD MSTORE PUSH1 0x24 DUP2 ADD DUP7 SWAP1 MSTORE PUSH1 0x44 ADD PUSH0 PUSH1 0x40 MLOAD DUP1 DUP4 SUB DUP2 PUSH0 DUP8 DUP1 EXTCODESIZE ISZERO DUP1 ISZERO PUSH2 0x950 JUMPI PUSH0 PUSH0 REVERT JUMPDEST POP GAS CALL ISZERO DUP1 ISZERO PUSH2 0x962 JUMPI RETURNDATASIZE PUSH0 PUSH0 RETURNDATACOPY RETURNDATASIZE PUSH0 REVERT JUMPDEST POP POP PUSH1 0xC9 SLOAD PUSH1 0x1 PUSH1 0x1 PUSH1 0xA0 SHL SUB AND SWAP2 POP PUSH4 0xA9059CBB SWAP1 POP CALLER PUSH1 0x40 MLOAD PUSH1 0x1 PUSH1 0x1 PUSH1 0xE0 SHL SUB NOT PUSH1 0xE0 DUP5 SWAP1 SHL AND DUP2 MSTORE PUSH1 0x1 PUSH1 0x1 PUSH1 0xA0 SHL SUB SWAP1 SWAP2 AND PUSH1 0x4 DUP3 ADD MSTORE PUSH1 0x24 DUP2 ADD DUP5 SWAP1 MSTORE PUSH1 0x44 ADD PUSH1 0x20 PUSH1 0x40 MLOAD DUP1 DUP4 SUB DUP2 PUSH0 DUP8 GAS CALL ISZERO DUP1 ISZERO PUSH2 0x9C4 JUMPI RETURNDATASIZE PUSH0 PUSH0 RETURNDATACOPY RETURNDATASIZE PUSH0 REVERT JUMPDEST POP POP POP POP PUSH1 0x40 MLOAD RETURNDATASIZE PUSH1 0x1F NOT PUSH1 0x1F DUP3 ADD AND DUP3 ADD DUP1 PUSH1 0x40 MSTORE POP DUP2 ADD SWAP1 PUSH2 0x9E8 SWAP2 SWAP1 PUSH2 0x16D3 JUMP JUMPDEST POP PUSH1 0x40 MLOAD DUP2 DUP2 MSTORE CALLER SWAP1 PUSH32 0x85082129D87B2FE11527CB1B3B7A520AEB5AA6913F88A3D8757FE40D1DB02FDD SWAP1 PUSH1 0x20 ADD PUSH1 0x40 MLOAD DUP1 SWAP2 SUB SWAP1 LOG2 POP POP POP JUMP JUMPDEST PUSH2 0xA2B PUSH2 0x1104 JUMP JUMPDEST PUSH2 0xA34 PUSH0 PUSH2 0x115E JUMP JUMPDEST JUMP JUMPDEST PUSH2 0xA3E PUSH2 0x1104 JUMP JUMPDEST PUSH1 0xCD SLOAD PUSH1 0x40 DUP1 MLOAD SWAP2 DUP3 MSTORE PUSH1 0x20 DUP3 ADD DUP4 SWAP1 MSTORE PUSH32 0xF814EAFA160E3546FC1EA6B8939A578EF5F64D31E04888BCD82E8CD9F9EC2909 SWAP2 ADD PUSH1 0x40 MLOAD DUP1 SWAP2 SUB SWAP1 LOG1 PUSH1 0xCD SSTORE JUMP JUMPDEST CALLER PUSH0 SWAP1 DUP2 MSTORE PUSH1 0xCC PUSH1 0x20 MSTORE PUSH1 0x40 SWAP1 KECCAK256 SLOAD PUSH1 0xFF AND ISZERO ISZERO PUSH1 0x1 SUB PUSH2 0xAD5 JUMPI PUSH1 0x40 MLOAD PUSH3 0x461BCD PUSH1 0xE5 SHL DUP2 MSTORE PUSH1 0x20 PUSH1 0x4 DUP3 ADD MSTORE PUSH1 0x10 PUSH1 0x24 DUP3 ADD MSTORE PUSH16 0x213630B1B5A634B9BA32B2102AB9B2B9 PUSH1 0x81 SHL PUSH1 0x44 DUP3 ADD MSTORE PUSH1 0x64 ADD PUSH2 0x3A3 JUMP JUMPDEST PUSH1 0xC9 SLOAD PUSH1 0x40 MLOAD PUSH4 0x70A08231 PUSH1 0xE0 SHL DUP2 MSTORE ADDRESS PUSH1 0x4 DUP3 ADD MSTORE PUSH0 SWAP2 PUSH1 0x1 PUSH1 0x1 PUSH1 0xA0 SHL SUB AND SWAP1 PUSH4 0x70A08231 SWAP1 PUSH1 0x24 ADD PUSH1 0x20 PUSH1 0x40 MLOAD DUP1 DUP4 SUB DUP2 DUP7 GAS STATICCALL ISZERO DUP1 ISZERO PUSH2 0xB1B JUMPI RETURNDATASIZE PUSH0 PUSH0 RETURNDATACOPY RETURNDATASIZE PUSH0 REVERT JUMPDEST POP POP POP POP PUSH1 0x40 MLOAD RETURNDATASIZE PUSH1 0x1F NOT PUSH1 0x1F DUP3 ADD AND DUP3 ADD DUP1 PUSH1 0x40 MSTORE POP DUP2 ADD SWAP1 PUSH2 0xB3F SWAP2 SWAP1 PUSH2 0x1686 JUMP JUMPDEST SWAP1 POP PUSH0 PUSH1 0xCA PUSH0 SWAP1 SLOAD SWAP1 PUSH2 0x100 EXP SWAP1 DIV PUSH1 0x1 PUSH1 0x1 PUSH1 0xA0 SHL SUB AND PUSH1 0x1 PUSH1 0x1 PUSH1 0xA0 SHL SUB AND PUSH4 0x18160DDD PUSH1 0x40 MLOAD DUP2 PUSH4 0xFFFFFFFF AND PUSH1 0xE0 SHL DUP2 MSTORE PUSH1 0x4 ADD PUSH1 0x20 PUSH1 0x40 MLOAD DUP1 DUP4 SUB DUP2 DUP7 GAS STATICCALL ISZERO DUP1 ISZERO PUSH2 0xB92 JUMPI RETURNDATASIZE PUSH0 PUSH0 RETURNDATACOPY RETURNDATASIZE PUSH0 REVERT JUMPDEST POP POP POP POP PUSH1 0x40 MLOAD RETURNDATASIZE PUSH1 0x1F NOT PUSH1 0x1F DUP3 ADD AND DUP3 ADD DUP1 PUSH1 0x40 MSTORE POP DUP2 ADD SWAP1 PUSH2 0xBB6 SWAP2 SWAP1 PUSH2 0x1686 JUMP JUMPDEST SWAP1 POP DUP1 ISZERO DUP1 PUSH2 0xBC3 JUMPI POP DUP2 ISZERO JUMPDEST ISZERO PUSH2 0xC83 JUMPI PUSH1 0xCA SLOAD PUSH1 0x1 PUSH1 0x1 PUSH1 0xA0 SHL SUB AND PUSH4 0x40C10F19 CALLER PUSH1 0x40 MLOAD PUSH1 0x1 PUSH1 0x1 PUSH1 0xE0 SHL SUB NOT PUSH1 0xE0 DUP5 SWAP1 SHL AND DUP2 MSTORE PUSH1 0x1 PUSH1 0x1 PUSH1 0xA0 SHL SUB SWAP1 SWAP2 AND PUSH1 0x4 DUP3 ADD MSTORE PUSH1 0x24 DUP2 ADD DUP7 SWAP1 MSTORE PUSH1 0x44 ADD PUSH0 PUSH1 0x40 MLOAD DUP1 DUP4 SUB DUP2 PUSH0 DUP8 DUP1 EXTCODESIZE ISZERO DUP1 ISZERO PUSH2 0xC1F JUMPI PUSH0 PUSH0 REVERT JUMPDEST POP GAS CALL ISZERO DUP1 ISZERO PUSH2 0xC31 JUMPI RETURNDATASIZE PUSH0 PUSH0 RETURNDATACOPY RETURNDATASIZE PUSH0 REVERT JUMPDEST POP POP POP POP PUSH2 0xC3C CALLER SWAP1 JUMP JUMPDEST PUSH1 0x1 PUSH1 0x1 PUSH1 0xA0 SHL SUB AND PUSH32 0xEBEDB8B3C678666E7F36970BC8F57ABF6D8FA2E828C0DA91EA5B75BF68ED101A DUP5 PUSH1 0x40 MLOAD PUSH2 0xC76 SWAP2 DUP2 MSTORE PUSH1 0x20 ADD SWAP1 JUMP JUMPDEST PUSH1 0x40 MLOAD DUP1 SWAP2 SUB SWAP1 LOG2 PUSH2 0xD54 JUMP JUMPDEST PUSH0 DUP3 PUSH2 0xC8F DUP4 DUP7 PUSH2 0x169D JUMP JUMPDEST PUSH2 0xC99 SWAP2 SWAP1 PUSH2 0x16B4 JUMP JUMPDEST PUSH1 0xCA SLOAD SWAP1 SWAP2 POP PUSH1 0x1 PUSH1 0x1 PUSH1 0xA0 SHL SUB AND PUSH4 0x40C10F19 CALLER PUSH1 0x40 MLOAD PUSH1 0x1 PUSH1 0x1 PUSH1 0xE0 SHL SUB NOT PUSH1 0xE0 DUP5 SWAP1 SHL AND DUP2 MSTORE PUSH1 0x1 PUSH1 0x1 PUSH1 0xA0 SHL SUB SWAP1 SWAP2 AND PUSH1 0x4 DUP3 ADD MSTORE PUSH1 0x24 DUP2 ADD DUP5 SWAP1 MSTORE PUSH1 0x44 ADD PUSH0 PUSH1 0x40 MLOAD DUP1 DUP4 SUB DUP2 PUSH0 DUP8 DUP1 EXTCODESIZE ISZERO DUP1 ISZERO PUSH2 0xCF3 JUMPI PUSH0 PUSH0 REVERT JUMPDEST POP GAS CALL ISZERO DUP1 ISZERO PUSH2 0xD05 JUMPI RETURNDATASIZE PUSH0 PUSH0 RETURNDATACOPY RETURNDATASIZE PUSH0 REVERT JUMPDEST POP POP POP POP PUSH2 0xD10 CALLER SWAP1 JUMP JUMPDEST PUSH1 0x1 PUSH1 0x1 PUSH1 0xA0 SHL SUB AND PUSH32 0xEBEDB8B3C678666E7F36970BC8F57ABF6D8FA2E828C0DA91EA5B75BF68ED101A DUP3 PUSH1 0x40 MLOAD PUSH2 0xD4A SWAP2 DUP2 MSTORE PUSH1 0x20 ADD SWAP1 JUMP JUMPDEST PUSH1 0x40 MLOAD DUP1 SWAP2 SUB SWAP1 LOG2 POP JUMPDEST CALLER PUSH0 SWAP1 DUP2 MSTORE PUSH1 0xCB PUSH1 0x20 MSTORE PUSH1 0x40 SWAP1 KECCAK256 TIMESTAMP SWAP1 SSTORE PUSH1 0xC9 SLOAD PUSH1 0x1 PUSH1 0x1 PUSH1 0xA0 SHL SUB AND PUSH4 0x23B872DD PUSH2 0xD7D CALLER SWAP1 JUMP JUMPDEST PUSH1 0x40 MLOAD PUSH1 0x1 PUSH1 0x1 PUSH1 0xE0 SHL SUB NOT PUSH1 0xE0 DUP5 SWAP1 SHL AND DUP2 MSTORE PUSH1 0x1 PUSH1 0x1 PUSH1 0xA0 SHL SUB SWAP1 SWAP2 AND PUSH1 0x4 DUP3 ADD MSTORE ADDRESS PUSH1 0x24 DUP3 ADD MSTORE PUSH1 0x44 DUP2 ADD DUP7 SWAP1 MSTORE PUSH1 0x64 ADD PUSH1 0x20 PUSH1 0x40 MLOAD DUP1 DUP4 SUB DUP2 PUSH0 DUP8 GAS CALL ISZERO DUP1 ISZERO PUSH2 0xDCD JUMPI RETURNDATASIZE PUSH0 PUSH0 RETURNDATACOPY RETURNDATASIZE PUSH0 REVERT JUMPDEST POP POP POP POP PUSH1 0x40 MLOAD RETURNDATASIZE PUSH1 0x1F NOT PUSH1 0x1F DUP3 ADD AND DUP3 ADD DUP1 PUSH1 0x40 MSTORE POP DUP2 ADD SWAP1 PUSH2 0x4F2 SWAP2 SWAP1 PUSH2 0x16D3 JUMP JUMPDEST PUSH2 0xDF9 PUSH2 0x1104 JUMP JUMPDEST PUSH1 0x1 PUSH1 0x1 PUSH1 0xA0 SHL SUB DUP3 AND PUSH0 SWAP1 DUP2 MSTORE PUSH1 0xCC PUSH1 0x20 MSTORE PUSH1 0x40 SWAP1 KECCAK256 SLOAD DUP2 ISZERO ISZERO PUSH1 0xFF SWAP1 SWAP2 AND ISZERO ISZERO SUB PUSH2 0xE61 JUMPI PUSH1 0x40 MLOAD PUSH3 0x461BCD PUSH1 0xE5 SHL DUP2 MSTORE PUSH1 0x20 PUSH1 0x4 DUP3 ADD MSTORE PUSH1 0x16 PUSH1 0x24 DUP3 ADD MSTORE PUSH22 0x416C726561647920696E2073616D6520737461747573 PUSH1 0x50 SHL PUSH1 0x44 DUP3 ADD MSTORE PUSH1 0x64 ADD PUSH2 0x3A3 JUMP JUMPDEST PUSH1 0x1 PUSH1 0x1 PUSH1 0xA0 SHL SUB DUP3 AND PUSH0 DUP2 DUP2 MSTORE PUSH1 0xCC PUSH1 0x20 SWAP1 DUP2 MSTORE PUSH1 0x40 SWAP2 DUP3 SWAP1 KECCAK256 DUP1 SLOAD PUSH1 0xFF NOT AND DUP6 ISZERO ISZERO SWAP1 DUP2 OR SWAP1 SWAP2 SSTORE DUP3 MLOAD SWAP4 DUP5 MSTORE SWAP1 DUP4 ADD MSTORE PUSH32 0x2F2EA19E5340217456E8ECB94895965BA2AFA084E4A94F9FC7C315B1478243B7 SWAP2 ADD PUSH1 0x40 MLOAD DUP1 SWAP2 SUB SWAP1 LOG1 POP POP JUMP JUMPDEST PUSH2 0xECB PUSH2 0x1104 JUMP JUMPDEST PUSH1 0x1 PUSH1 0x1 PUSH1 0xA0 SHL SUB DUP2 AND PUSH2 0xF30 JUMPI PUSH1 0x40 MLOAD PUSH3 0x461BCD PUSH1 0xE5 SHL DUP2 MSTORE PUSH1 0x20 PUSH1 0x4 DUP3 ADD MSTORE PUSH1 0x26 PUSH1 0x24 DUP3 ADD MSTORE PUSH32 0x4F776E61626C653A206E6577206F776E657220697320746865207A65726F2061 PUSH1 0x44 DUP3 ADD MSTORE PUSH6 0x646472657373 PUSH1 0xD0 SHL PUSH1 0x64 DUP3 ADD MSTORE PUSH1 0x84 ADD PUSH2 0x3A3 JUMP JUMPDEST PUSH2 0x5D2 DUP2 PUSH2 0x115E JUMP JUMPDEST PUSH0 SLOAD PUSH2 0x100 SWAP1 DIV PUSH1 0xFF AND PUSH2 0xF5F JUMPI PUSH1 0x40 MLOAD PUSH3 0x461BCD PUSH1 0xE5 SHL DUP2 MSTORE PUSH1 0x4 ADD PUSH2 0x3A3 SWAP1 PUSH2 0x16F5 JUMP JUMPDEST PUSH2 0xA34 PUSH2 0x11AF JUMP JUMPDEST PUSH0 SLOAD PUSH2 0x100 SWAP1 DIV PUSH1 0xFF AND PUSH2 0xA34 JUMPI PUSH1 0x40 MLOAD PUSH3 0x461BCD PUSH1 0xE5 SHL DUP2 MSTORE PUSH1 0x4 ADD PUSH2 0x3A3 SWAP1 PUSH2 0x16F5 JUMP JUMPDEST PUSH2 0x5D2 PUSH2 0x1104 JUMP JUMPDEST PUSH32 0x4910FDFA16FED3260ED0E7147F7CC6DA11A60208B5B9406D12A635614FFD9143 SLOAD PUSH1 0xFF AND ISZERO PUSH2 0xFCD JUMPI PUSH2 0xFC8 DUP4 PUSH2 0x11DE JUMP JUMPDEST POP POP POP JUMP JUMPDEST DUP3 PUSH1 0x1 PUSH1 0x1 PUSH1 0xA0 SHL SUB AND PUSH4 0x52D1902D PUSH1 0x40 MLOAD DUP2 PUSH4 0xFFFFFFFF AND PUSH1 0xE0 SHL DUP2 MSTORE PUSH1 0x4 ADD PUSH1 0x20 PUSH1 0x40 MLOAD DUP1 DUP4 SUB DUP2 DUP7 GAS STATICCALL SWAP3 POP POP POP DUP1 ISZERO PUSH2 0x1027 JUMPI POP PUSH1 0x40 DUP1 MLOAD PUSH1 0x1F RETURNDATASIZE SWAP1 DUP2 ADD PUSH1 0x1F NOT AND DUP3 ADD SWAP1 SWAP3 MSTORE PUSH2 0x1024 SWAP2 DUP2 ADD SWAP1 PUSH2 0x1686 JUMP JUMPDEST PUSH1 0x1 JUMPDEST PUSH2 0x108A JUMPI PUSH1 0x40 MLOAD PUSH3 0x461BCD PUSH1 0xE5 SHL DUP2 MSTORE PUSH1 0x20 PUSH1 0x4 DUP3 ADD MSTORE PUSH1 0x2E PUSH1 0x24 DUP3 ADD MSTORE PUSH32 0x45524331393637557067726164653A206E657720696D706C656D656E74617469 PUSH1 0x44 DUP3 ADD MSTORE PUSH14 0x6F6E206973206E6F742055555053 PUSH1 0x90 SHL PUSH1 0x64 DUP3 ADD MSTORE PUSH1 0x84 ADD PUSH2 0x3A3 JUMP JUMPDEST PUSH0 MLOAD PUSH1 0x20 PUSH2 0x178C PUSH0 CODECOPY PUSH0 MLOAD SWAP1 PUSH0 MSTORE DUP2 EQ PUSH2 0x10F8 JUMPI PUSH1 0x40 MLOAD PUSH3 0x461BCD PUSH1 0xE5 SHL DUP2 MSTORE PUSH1 0x20 PUSH1 0x4 DUP3 ADD MSTORE PUSH1 0x29 PUSH1 0x24 DUP3 ADD MSTORE PUSH32 0x45524331393637557067726164653A20756E737570706F727465642070726F78 PUSH1 0x44 DUP3 ADD MSTORE PUSH9 0x1A58589B1955555251 PUSH1 0xBA SHL PUSH1 0x64 DUP3 ADD MSTORE PUSH1 0x84 ADD PUSH2 0x3A3 JUMP JUMPDEST POP PUSH2 0xFC8 DUP4 DUP4 DUP4 PUSH2 0x1279 JUMP JUMPDEST PUSH1 0x33 SLOAD PUSH1 0x1 PUSH1 0x1 PUSH1 0xA0 SHL SUB AND CALLER EQ PUSH2 0xA34 JUMPI PUSH1 0x40 MLOAD PUSH3 0x461BCD PUSH1 0xE5 SHL DUP2 MSTORE PUSH1 0x20 PUSH1 0x4 DUP3 ADD DUP2 SWAP1 MSTORE PUSH1 0x24 DUP3 ADD MSTORE PUSH32 0x4F776E61626C653A2063616C6C6572206973206E6F7420746865206F776E6572 PUSH1 0x44 DUP3 ADD MSTORE PUSH1 0x64 ADD PUSH2 0x3A3 JUMP JUMPDEST PUSH1 0x33 DUP1 SLOAD PUSH1 0x1 PUSH1 0x1 PUSH1 0xA0 SHL SUB DUP4 DUP2 AND PUSH1 0x1 PUSH1 0x1 PUSH1 0xA0 SHL SUB NOT DUP4 AND DUP2 OR SWAP1 SWAP4 SSTORE PUSH1 0x40 MLOAD SWAP2 AND SWAP2 SWAP1 DUP3 SWAP1 PUSH32 0x8BE0079C531659141344CD1FD0A4F28419497F9722A3DAAFE3B4186F6B6457E0 SWAP1 PUSH0 SWAP1 LOG3 POP POP JUMP JUMPDEST PUSH0 SLOAD PUSH2 0x100 SWAP1 DIV PUSH1 0xFF AND PUSH2 0x11D5 JUMPI PUSH1 0x40 MLOAD PUSH3 0x461BCD PUSH1 0xE5 SHL DUP2 MSTORE PUSH1 0x4 ADD PUSH2 0x3A3 SWAP1 PUSH2 0x16F5 JUMP JUMPDEST PUSH2 0xA34 CALLER PUSH2 0x115E JUMP JUMPDEST PUSH1 0x1 PUSH1 0x1 PUSH1 0xA0 SHL SUB DUP2 AND EXTCODESIZE PUSH2 0x124B JUMPI PUSH1 0x40 MLOAD PUSH3 0x461BCD PUSH1 0xE5 SHL DUP2 MSTORE PUSH1 0x20 PUSH1 0x4 DUP3 ADD MSTORE PUSH1 0x2D PUSH1 0x24 DUP3 ADD MSTORE PUSH32 0x455243313936373A206E657720696D706C656D656E746174696F6E206973206E PUSH1 0x44 DUP3 ADD MSTORE PUSH13 0x1BDD08184818DBDB9D1C9858DD PUSH1 0x9A SHL PUSH1 0x64 DUP3 ADD MSTORE PUSH1 0x84 ADD PUSH2 0x3A3 JUMP JUMPDEST PUSH0 MLOAD PUSH1 0x20 PUSH2 0x178C PUSH0 CODECOPY PUSH0 MLOAD SWAP1 PUSH0 MSTORE DUP1 SLOAD PUSH1 0x1 PUSH1 0x1 PUSH1 0xA0 SHL SUB NOT AND PUSH1 0x1 PUSH1 0x1 PUSH1 0xA0 SHL SUB SWAP3 SWAP1 SWAP3 AND SWAP2 SWAP1 SWAP2 OR SWAP1 SSTORE JUMP JUMPDEST PUSH2 0x1282 DUP4 PUSH2 0x129D JUMP JUMPDEST PUSH0 DUP3 MLOAD GT DUP1 PUSH2 0x128E JUMPI POP DUP1 JUMPDEST ISZERO PUSH2 0xFC8 JUMPI PUSH2 0x4F2 DUP4 DUP4 PUSH2 0x12DC JUMP JUMPDEST PUSH2 0x12A6 DUP2 PUSH2 0x11DE JUMP JUMPDEST PUSH1 0x40 MLOAD PUSH1 0x1 PUSH1 0x1 PUSH1 0xA0 SHL SUB DUP3 AND SWAP1 PUSH32 0xBC7CD75A20EE27FD9ADEBAB32041F755214DBC6BFFA90CC0225B39DA2E5C2D3B SWAP1 PUSH0 SWAP1 LOG2 POP JUMP JUMPDEST PUSH1 0x60 PUSH2 0x1301 DUP4 DUP4 PUSH1 0x40 MLOAD DUP1 PUSH1 0x60 ADD PUSH1 0x40 MSTORE DUP1 PUSH1 0x27 DUP2 MSTORE PUSH1 0x20 ADD PUSH2 0x17AC PUSH1 0x27 SWAP2 CODECOPY PUSH2 0x130A JUMP JUMPDEST SWAP1 POP JUMPDEST SWAP3 SWAP2 POP POP JUMP JUMPDEST PUSH1 0x60 PUSH0 PUSH0 DUP6 PUSH1 0x1 PUSH1 0x1 PUSH1 0xA0 SHL SUB AND DUP6 PUSH1 0x40 MLOAD PUSH2 0x1326 SWAP2 SWAP1 PUSH2 0x1740 JUMP JUMPDEST PUSH0 PUSH1 0x40 MLOAD DUP1 DUP4 SUB DUP2 DUP6 GAS DELEGATECALL SWAP2 POP POP RETURNDATASIZE DUP1 PUSH0 DUP2 EQ PUSH2 0x135E JUMPI PUSH1 0x40 MLOAD SWAP2 POP PUSH1 0x1F NOT PUSH1 0x3F RETURNDATASIZE ADD AND DUP3 ADD PUSH1 0x40 MSTORE RETURNDATASIZE DUP3 MSTORE RETURNDATASIZE PUSH0 PUSH1 0x20 DUP5 ADD RETURNDATACOPY PUSH2 0x1363 JUMP JUMPDEST PUSH1 0x60 SWAP2 POP JUMPDEST POP SWAP2 POP SWAP2 POP PUSH2 0x1374 DUP7 DUP4 DUP4 DUP8 PUSH2 0x137E JUMP JUMPDEST SWAP7 SWAP6 POP POP POP POP POP POP JUMP JUMPDEST PUSH1 0x60 DUP4 ISZERO PUSH2 0x13EC JUMPI DUP3 MLOAD PUSH0 SUB PUSH2 0x13E5 JUMPI PUSH1 0x1 PUSH1 0x1 PUSH1 0xA0 SHL SUB DUP6 AND EXTCODESIZE PUSH2 0x13E5 JUMPI PUSH1 0x40 MLOAD PUSH3 0x461BCD PUSH1 0xE5 SHL DUP2 MSTORE PUSH1 0x20 PUSH1 0x4 DUP3 ADD MSTORE PUSH1 0x1D PUSH1 0x24 DUP3 ADD MSTORE PUSH32 0x416464726573733A2063616C6C20746F206E6F6E2D636F6E7472616374000000 PUSH1 0x44 DUP3 ADD MSTORE PUSH1 0x64 ADD PUSH2 0x3A3 JUMP JUMPDEST POP DUP2 PUSH2 0x13F6 JUMP JUMPDEST PUSH2 0x13F6 DUP4 DUP4 PUSH2 0x13FE JUMP JUMPDEST SWAP5 SWAP4 POP POP POP POP JUMP JUMPDEST DUP2 MLOAD ISZERO PUSH2 0x140E JUMPI DUP2 MLOAD DUP1 DUP4 PUSH1 0x20 ADD REVERT JUMPDEST DUP1 PUSH1 0x40 MLOAD PUSH3 0x461BCD PUSH1 0xE5 SHL DUP2 MSTORE PUSH1 0x4 ADD PUSH2 0x3A3 SWAP2 SWAP1 PUSH2 0x1756 JUMP JUMPDEST DUP1 CALLDATALOAD PUSH1 0x1 PUSH1 0x1 PUSH1 0xA0 SHL SUB DUP2 AND DUP2 EQ PUSH2 0x143E JUMPI PUSH0 PUSH0 REVERT JUMPDEST SWAP2 SWAP1 POP JUMP JUMPDEST PUSH0 PUSH1 0x20 DUP3 DUP5 SUB SLT ISZERO PUSH2 0x1453 JUMPI PUSH0 PUSH0 REVERT JUMPDEST PUSH2 0x1301 DUP3 PUSH2 0x1428 JUMP JUMPDEST PUSH0 PUSH0 PUSH0 PUSH1 0x60 DUP5 DUP7 SUB SLT ISZERO PUSH2 0x146E JUMPI PUSH0 PUSH0 REVERT JUMPDEST PUSH2 0x1477 DUP5 PUSH2 0x1428 JUMP JUMPDEST SWAP3 POP PUSH2 0x1485 PUSH1 0x20 DUP6 ADD PUSH2 0x1428 JUMP JUMPDEST SWAP3 SWAP6 SWAP3 SWAP5 POP POP POP PUSH1 0x40 SWAP2 SWAP1 SWAP2 ADD CALLDATALOAD SWAP1 JUMP JUMPDEST PUSH4 0x4E487B71 PUSH1 0xE0 SHL PUSH0 MSTORE PUSH1 0x41 PUSH1 0x4 MSTORE PUSH1 0x24 PUSH0 REVERT JUMPDEST PUSH0 PUSH0 PUSH1 0x40 DUP4 DUP6 SUB SLT ISZERO PUSH2 0x14BB JUMPI PUSH0 PUSH0 REVERT JUMPDEST PUSH2 0x14C4 DUP4 PUSH2 0x1428 JUMP JUMPDEST SWAP2 POP PUSH1 0x20 DUP4 ADD CALLDATALOAD PUSH8 0xFFFFFFFFFFFFFFFF DUP2 GT ISZERO PUSH2 0x14DF JUMPI PUSH0 PUSH0 REVERT JUMPDEST DUP4 ADD PUSH1 0x1F DUP2 ADD DUP6 SGT PUSH2 0x14EF JUMPI PUSH0 PUSH0 REVERT JUMPDEST DUP1 CALLDATALOAD PUSH8 0xFFFFFFFFFFFFFFFF DUP2 GT ISZERO PUSH2 0x1509 JUMPI PUSH2 0x1509 PUSH2 0x1496 JUMP JUMPDEST PUSH1 0x40 MLOAD PUSH1 0x1F DUP3 ADD PUSH1 0x1F NOT SWAP1 DUP2 AND PUSH1 0x3F ADD AND DUP2 ADD PUSH8 0xFFFFFFFFFFFFFFFF DUP2 GT DUP3 DUP3 LT OR ISZERO PUSH2 0x1538 JUMPI PUSH2 0x1538 PUSH2 0x1496 JUMP JUMPDEST PUSH1 0x40 MSTORE DUP2 DUP2 MSTORE DUP3 DUP3 ADD PUSH1 0x20 ADD DUP8 LT ISZERO PUSH2 0x154F JUMPI PUSH0 PUSH0 REVERT JUMPDEST DUP2 PUSH1 0x20 DUP5 ADD PUSH1 0x20 DUP4 ADD CALLDATACOPY PUSH0 PUSH1 0x20 DUP4 DUP4 ADD ADD MSTORE DUP1 SWAP4 POP POP POP POP SWAP3 POP SWAP3 SWAP1 POP JUMP JUMPDEST PUSH0 PUSH1 0x20 DUP3 DUP5 SUB SLT ISZERO PUSH2 0x157E JUMPI PUSH0 PUSH0 REVERT JUMPDEST POP CALLDATALOAD SWAP2 SWAP1 POP JUMP JUMPDEST DUP1 ISZERO ISZERO DUP2 EQ PUSH2 0x5D2 JUMPI PUSH0 PUSH0 REVERT JUMPDEST PUSH0 PUSH0 PUSH1 0x40 DUP4 DUP6 SUB SLT ISZERO PUSH2 0x15A3 JUMPI PUSH0 PUSH0 REVERT JUMPDEST PUSH2 0x15AC DUP4 PUSH2 0x1428 JUMP JUMPDEST SWAP2 POP PUSH1 0x20 DUP4 ADD CALLDATALOAD PUSH2 0x15BC DUP2 PUSH2 0x1585 JUMP JUMPDEST DUP1 SWAP2 POP POP SWAP3 POP SWAP3 SWAP1 POP JUMP JUMPDEST PUSH1 0x20 DUP1 DUP3 MSTORE PUSH1 0x2C SWAP1 DUP3 ADD MSTORE PUSH32 0x46756E6374696F6E206D7573742062652063616C6C6564207468726F75676820 PUSH1 0x40 DUP3 ADD MSTORE PUSH12 0x19195B1959D85D1958D85B1B PUSH1 0xA2 SHL PUSH1 0x60 DUP3 ADD MSTORE PUSH1 0x80 ADD SWAP1 JUMP JUMPDEST PUSH1 0x20 DUP1 DUP3 MSTORE PUSH1 0x2C SWAP1 DUP3 ADD MSTORE PUSH32 0x46756E6374696F6E206D7573742062652063616C6C6564207468726F75676820 PUSH1 0x40 DUP3 ADD MSTORE PUSH12 0x6163746976652070726F7879 PUSH1 0xA0 SHL PUSH1 0x60 DUP3 ADD MSTORE PUSH1 0x80 ADD SWAP1 JUMP JUMPDEST PUSH4 0x4E487B71 PUSH1 0xE0 SHL PUSH0 MSTORE PUSH1 0x11 PUSH1 0x4 MSTORE PUSH1 0x24 PUSH0 REVERT JUMPDEST DUP1 DUP3 ADD DUP1 DUP3 GT ISZERO PUSH2 0x1304 JUMPI PUSH2 0x1304 PUSH2 0x165F JUMP JUMPDEST PUSH0 PUSH1 0x20 DUP3 DUP5 SUB SLT ISZERO PUSH2 0x1696 JUMPI PUSH0 PUSH0 REVERT JUMPDEST POP MLOAD SWAP2 SWAP1 POP JUMP JUMPDEST DUP1 DUP3 MUL DUP2 ISZERO DUP3 DUP3 DIV DUP5 EQ OR PUSH2 0x1304 JUMPI PUSH2 0x1304 PUSH2 0x165F JUMP JUMPDEST PUSH0 DUP3 PUSH2 0x16CE JUMPI PUSH4 0x4E487B71 PUSH1 0xE0 SHL PUSH0 MSTORE PUSH1 0x12 PUSH1 0x4 MSTORE PUSH1 0x24 PUSH0 REVERT JUMPDEST POP DIV SWAP1 JUMP JUMPDEST PUSH0 PUSH1 0x20 DUP3 DUP5 SUB SLT ISZERO PUSH2 0x16E3 JUMPI PUSH0 PUSH0 REVERT JUMPDEST DUP2 MLOAD PUSH2 0x16EE DUP2 PUSH2 0x1585 JUMP JUMPDEST SWAP4 SWAP3 POP POP POP JUMP JUMPDEST PUSH1 0x20 DUP1 DUP3 MSTORE PUSH1 0x2B SWAP1 DUP3 ADD MSTORE PUSH32 0x496E697469616C697A61626C653A20636F6E7472616374206973206E6F742069 PUSH1 0x40 DUP3 ADD MSTORE PUSH11 0x6E697469616C697A696E67 PUSH1 0xA8 SHL PUSH1 0x60 DUP3 ADD MSTORE PUSH1 0x80 ADD SWAP1 JUMP JUMPDEST PUSH0 DUP3 MLOAD DUP1 PUSH1 0x20 DUP6 ADD DUP5 MCOPY PUSH0 SWAP3 ADD SWAP2 DUP3 MSTORE POP SWAP2 SWAP1 POP JUMP JUMPDEST PUSH1 0x20 DUP2 MSTORE PUSH0 DUP3 MLOAD DUP1 PUSH1 0x20 DUP5 ADD MSTORE DUP1 PUSH1 0x20 DUP6 ADD PUSH1 0x40 DUP6 ADD MCOPY PUSH0 PUSH1 0x40 DUP3 DUP6 ADD ADD MSTORE PUSH1 0x40 PUSH1 0x1F NOT PUSH1 0x1F DUP4 ADD AND DUP5 ADD ADD SWAP2 POP POP SWAP3 SWAP2 POP POP JUMP INVALID CALLDATASIZE ADDMOD SWAP5 LOG1 EXTCODESIZE LOG1 LOG3 0x21 MOD PUSH8 0xC828492DB98DCA3E KECCAK256 PUSH23 0xCC3735A920A3CA505D382BBC416464726573733A206C6F PUSH24 0x2D6C6576656C2064656C65676174652063616C6C20666169 PUSH13 0x6564A264697066735822122014 ISZERO 0x4B 0xC1 0xA7 ADDRESS 0xC4 CALLDATACOPY STOP 0x2C EXTCODESIZE 0x27 0xC2 0xA6 SWAPN 0xD1 0xE2 DUP1 OR 0xE9 PUSH26 0x535DF8F7E551E48FF2820C64736F6C634300081E003300000000 "
				},
				"gasEstimates": {
					"creation": {
						"codeDepositCost": "1230400",
						"executionCost": "infinite",
						"totalCost": "infinite"
					},
					"external": {
						"ALVA()": "2404",
						"blackListAddress(address)": "2555",
						"blackListUser(address,bool)": "30517",
						"enter(uint256)": "infinite",
						"initialize(address,address,uint256)": "infinite",
						"leave(uint256)": "infinite",
						"lockedPeriod()": "2327",
						"owner()": "2397",
						"proxiableUUID()": "infinite",
						"renounceOwnership()": "infinite",
						"transferOwnership(address)": "28425",
						"updateLockPeriod(uint256)": "28012",
						"upgradeTo(address)": "infinite",
						"upgradeToAndCall(address,bytes)": "infinite",
						"userLockPeriod(address)": "2533",
						"xALVA()": "2359"
					},
					"internal": {
						"_authorizeUpgrade(address)": "infinite"
					}
				},
				"methodIdentifiers": {
					"ALVA()": "323bf9f0",
					"blackListAddress(address)": "3b0e0133",
					"blackListUser(address,bool)": "e0cef1b0",
					"enter(uint256)": "a59f3e0c",
					"initialize(address,address,uint256)": "1794bb3c",
					"leave(uint256)": "67dfd4c9",
					"lockedPeriod()": "b3d6e119",
					"owner()": "8da5cb5b",
					"proxiableUUID()": "52d1902d",
					"renounceOwnership()": "715018a6",
					"transferOwnership(address)": "f2fde38b",
					"updateLockPeriod(uint256)": "91db7b0d",
					"upgradeTo(address)": "3659cfe6",
					"upgradeToAndCall(address,bytes)": "4f1ef286",
					"userLockPeriod(address)": "0c8e32d2",
					"xALVA()": "6ac10901"
				}
			},
			"storageLayout": {
				"storage": [
					{
						"astId": 505,
						"contract": "contracts/AlvaraDao.sol:AlvaraDao",
						"label": "_initialized",
						"offset": 0,
						"slot": "0",
						"type": "t_uint8"
					},
					{
						"astId": 508,
						"contract": "contracts/AlvaraDao.sol:AlvaraDao",
						"label": "_initializing",
						"offset": 1,
						"slot": "0",
						"type": "t_bool"
					},
					{
						"astId": 1184,
						"contract": "contracts/AlvaraDao.sol:AlvaraDao",
						"label": "__gap",
						"offset": 0,
						"slot": "1",
						"type": "t_array(t_uint256)50_storage"
					},
					{
						"astId": 11,
						"contract": "contracts/AlvaraDao.sol:AlvaraDao",
						"label": "_owner",
						"offset": 0,
						"slot": "51",
						"type": "t_address"
					},
					{
						"astId": 131,
						"contract": "contracts/AlvaraDao.sol:AlvaraDao",
						"label": "__gap",
						"offset": 0,
						"slot": "52",
						"type": "t_array(t_uint256)49_storage"
					},
					{
						"astId": 487,
						"contract": "contracts/AlvaraDao.sol:AlvaraDao",
						"label": "__gap",
						"offset": 0,
						"slot": "101",
						"type": "t_array(t_uint256)50_storage"
					},
					{
						"astId": 803,
						"contract": "contracts/AlvaraDao.sol:AlvaraDao",
						"label": "__gap",
						"offset": 0,
						"slot": "151",
						"type": "t_array(t_uint256)50_storage"
					},
					{
						"astId": 1310,
						"contract": "contracts/AlvaraDao.sol:AlvaraDao",
						"label": "ALVA",
						"offset": 0,
						"slot": "201",
						"type": "t_contract(IERC20)1718"
					},
					{
						"astId": 1313,
						"contract": "contracts/AlvaraDao.sol:AlvaraDao",
						"label": "xALVA",
						"offset": 0,
						"slot": "202",
						"type": "t_contract(IERC20)1718"
					},
					{
						"astId": 1317,
						"contract": "contracts/AlvaraDao.sol:AlvaraDao",
						"label": "userLockPeriod",
						"offset": 0,
						"slot": "203",
						"type": "t_mapping(t_address,t_uint256)"
					},
					{
						"astId": 1321,
						"contract": "contracts/AlvaraDao.sol:AlvaraDao",
						"label": "blackListAddress",
						"offset": 0,
						"slot": "204",
						"type": "t_mapping(t_address,t_bool)"
					},
					{
						"astId": 1323,
						"contract": "contracts/AlvaraDao.sol:AlvaraDao",
						"label": "lockedPeriod",
						"offset": 0,
						"slot": "205",
						"type": "t_uint256"
					}
				],
				"types": {
					"t_address": {
						"encoding": "inplace",
						"label": "address",
						"numberOfBytes": "20"
					},
					"t_array(t_uint256)49_storage": {
						"base": "t_uint256",
						"encoding": "inplace",
						"label": "uint256[49]",
						"numberOfBytes": "1568"
					},
					"t_array(t_uint256)50_storage": {
						"base": "t_uint256",
						"encoding": "inplace",
						"label": "uint256[50]",
						"numberOfBytes": "1600"
					},
					"t_bool": {
						"encoding": "inplace",
						"label": "bool",
						"numberOfBytes": "1"
					},
					"t_contract(IERC20)1718": {
						"encoding": "inplace",
						"label": "contract IERC20",
						"numberOfBytes": "20"
					},
					"t_mapping(t_address,t_bool)": {
						"encoding": "mapping",
						"key": "t_address",
						"label": "mapping(address => bool)",
						"numberOfBytes": "32",
						"value": "t_bool"
					},
					"t_mapping(t_address,t_uint256)": {
						"encoding": "mapping",
						"key": "t_address",
						"label": "mapping(address => uint256)",
						"numberOfBytes": "32",
						"value": "t_uint256"
					},
					"t_uint256": {
						"encoding": "inplace",
						"label": "uint256",
						"numberOfBytes": "32"
					},
					"t_uint8": {
						"encoding": "inplace",
						"label": "uint8",
						"numberOfBytes": "1"
					}
				}
			},
			"userdoc": {
				"kind": "user",
				"methods": {},
				"version": 1
			}
		}
	}
}