{
	"uniswap.sol": {
		"UniswapV2Router02": {
			"abi": [
				{
					"inputs": [
						{
							"internalType": "address",
							"name": "_WETH",
							"type": "address"
						}
					],
					"stateMutability": "nonpayable",
					"type": "constructor"
				},
				{
					"anonymous": false,
					"inputs": [
						{
							"indexed": false,
							"internalType": "uint8",
							"name": "version",
							"type": "uint8"
						}
					],
					"name": "Initialized",
					"type": "event"
				},
				{
					"anonymous": false,
					"inputs": [
						{
							"indexed": true,
							"internalType": "bytes32",
							"name": "role",
							"type": "bytes32"
						},
						{
							"indexed": true,
							"internalType": "bytes32",
							"name": "previousAdminRole",
							"type": "bytes32"
						},
						{
							"indexed": true,
							"internalType": "bytes32",
							"name": "newAdminRole",
							"type": "bytes32"
						}
					],
					"name": "RoleAdminChanged",
					"type": "event"
				},
				{
					"anonymous": false,
					"inputs": [
						{
							"indexed": true,
							"internalType": "bytes32",
							"name": "role",
							"type": "bytes32"
						},
						{
							"indexed": true,
							"internalType": "address",
							"name": "account",
							"type": "address"
						},
						{
							"indexed": true,
							"internalType": "address",
							"name": "sender",
							"type": "address"
						}
					],
					"name": "RoleGranted",
					"type": "event"
				},
				{
					"anonymous": false,
					"inputs": [
						{
							"indexed": true,
							"internalType": "bytes32",
							"name": "role",
							"type": "bytes32"
						},
						{
							"indexed": true,
							"internalType": "address",
							"name": "account",
							"type": "address"
						},
						{
							"indexed": true,
							"internalType": "address",
							"name": "sender",
							"type": "address"
						}
					],
					"name": "RoleRevoked",
					"type": "event"
				},
				{
					"inputs": [],
					"name": "DEFAULT_ADMIN_ROLE",
					"outputs": [
						{
							"internalType": "bytes32",
							"name": "",
							"type": "bytes32"
						}
					],
					"stateMutability": "view",
					"type": "function"
				},
				{
					"inputs": [],
					"name": "PRICE_MANAGER",
					"outputs": [
						{
							"internalType": "bytes32",
							"name": "",
							"type": "bytes32"
						}
					],
					"stateMutability": "view",
					"type": "function"
				},
				{
					"inputs": [],
					"name": "WETH",
					"outputs": [
						{
							"internalType": "address",
							"name": "",
							"type": "address"
						}
					],
					"stateMutability": "view",
					"type": "function"
				},
				{
					"inputs": [
						{
							"internalType": "uint256",
							"name": "amountIn",
							"type": "uint256"
						},
						{
							"internalType": "address[]",
							"name": "path",
							"type": "address[]"
						}
					],
					"name": "getAmountsOut",
					"outputs": [
						{
							"internalType": "uint256[]",
							"name": "amounts",
							"type": "uint256[]"
						}
					],
					"stateMutability": "view",
					"type": "function"
				},
				{
					"inputs": [
						{
							"internalType": "bytes32",
							"name": "role",
							"type": "bytes32"
						}
					],
					"name": "getRoleAdmin",
					"outputs": [
						{
							"internalType": "bytes32",
							"name": "",
							"type": "bytes32"
						}
					],
					"stateMutability": "view",
					"type": "function"
				},
				{
					"inputs": [
						{
							"internalType": "address",
							"name": "tokenAddress",
							"type": "address"
						}
					],
					"name": "getTokenDetails",
					"outputs": [
						{
							"components": [
								{
									"internalType": "uint256",
									"name": "price",
									"type": "uint256"
								},
								{
									"internalType": "address",
									"name": "tokenManager",
									"type": "address"
								}
							],
							"internalType": "struct UniswapV2Router02.TokenDetail",
							"name": "",
							"type": "tuple"
						}
					],
					"stateMutability": "view",
					"type": "function"
				},
				{
					"inputs": [
						{
							"internalType": "address",
							"name": "tokenAddress",
							"type": "address"
						}
					],
					"name": "getTokenPrice",
					"outputs": [
						{
							"internalType": "uint256",
							"name": "",
							"type": "uint256"
						}
					],
					"stateMutability": "view",
					"type": "function"
				},
				{
					"inputs": [],
					"name": "getWETHAddress",
					"outputs": [
						{
							"internalType": "address",
							"name": "",
							"type": "address"
						}
					],
					"stateMutability": "view",
					"type": "function"
				},
				{
					"inputs": [
						{
							"internalType": "bytes32",
							"name": "role",
							"type": "bytes32"
						},
						{
							"internalType": "address",
							"name": "account",
							"type": "address"
						}
					],
					"name": "grantRole",
					"outputs": [],
					"stateMutability": "nonpayable",
					"type": "function"
				},
				{
					"inputs": [
						{
							"internalType": "bytes32",
							"name": "role",
							"type": "bytes32"
						},
						{
							"internalType": "address",
							"name": "account",
							"type": "address"
						}
					],
					"name": "hasRole",
					"outputs": [
						{
							"internalType": "bool",
							"name": "",
							"type": "bool"
						}
					],
					"stateMutability": "view",
					"type": "function"
				},
				{
					"inputs": [
						{
							"internalType": "bytes32",
							"name": "role",
							"type": "bytes32"
						},
						{
							"internalType": "address",
							"name": "account",
							"type": "address"
						}
					],
					"name": "renounceRole",
					"outputs": [],
					"stateMutability": "nonpayable",
					"type": "function"
				},
				{
					"inputs": [
						{
							"internalType": "bytes32",
							"name": "role",
							"type": "bytes32"
						},
						{
							"internalType": "address",
							"name": "account",
							"type": "address"
						}
					],
					"name": "revokeRole",
					"outputs": [],
					"stateMutability": "nonpayable",
					"type": "function"
				},
				{
					"inputs": [
						{
							"internalType": "address",
							"name": "tokenAddress",
							"type": "address"
						},
						{
							"internalType": "address",
							"name": "tokenManager",
							"type": "address"
						},
						{
							"internalType": "uint256",
							"name": "price",
							"type": "uint256"
						}
					],
					"name": "setTokenDetails",
					"outputs": [],
					"stateMutability": "nonpayable",
					"type": "function"
				},
				{
					"inputs": [
						{
							"internalType": "address[]",
							"name": "tokenAddresses",
							"type": "address[]"
						},
						{
							"internalType": "address[]",
							"name": "tokenManagers",
							"type": "address[]"
						},
						{
							"internalType": "uint256[]",
							"name": "prices",
							"type": "uint256[]"
						}
					],
					"name": "setTokensDetails",
					"outputs": [],
					"stateMutability": "nonpayable",
					"type": "function"
				},
				{
					"inputs": [
						{
							"internalType": "bytes4",
							"name": "interfaceId",
							"type": "bytes4"
						}
					],
					"name": "supportsInterface",
					"outputs": [
						{
							"internalType": "bool",
							"name": "",
							"type": "bool"
						}
					],
					"stateMutability": "view",
					"type": "function"
				},
				{
					"inputs": [
						{
							"internalType": "uint256",
							"name": "amountOutMin",
							"type": "uint256"
						},
						{
							"internalType": "address[]",
							"name": "path",
							"type": "address[]"
						},
						{
							"internalType": "address",
							"name": "to",
							"type": "address"
						},
						{
							"internalType": "uint256",
							"name": "deadline",
							"type": "uint256"
						}
					],
					"name": "swapExactETHForTokensSupportingFeeOnTransferTokens",
					"outputs": [],
					"stateMutability": "payable",
					"type": "function"
				},
				{
					"inputs": [
						{
							"internalType": "address",
							"name": "",
							"type": "address"
						}
					],
					"name": "tokenDetails",
					"outputs": [
						{
							"internalType": "uint256",
							"name": "price",
							"type": "uint256"
						},
						{
							"internalType": "address",
							"name": "tokenManager",
							"type": "address"
						}
					],
					"stateMutability": "view",
					"type": "function"
				}
			],
			"devdoc": {
				"events": {
					"Initialized(uint8)": {
						"details": "Triggered when the contract has been initialized or reinitialized."
					},
					"RoleAdminChanged(bytes32,bytes32,bytes32)": {
						"details": "Emitted when `newAdminRole` is set as ``role``'s admin role, replacing `previousAdminRole` `DEFAULT_ADMIN_ROLE` is the starting admin for all roles, despite {RoleAdminChanged} not being emitted signaling this. _Available since v3.1._"
					},
					"RoleGranted(bytes32,address,address)": {
						"details": "Emitted when `account` is granted `role`. `sender` is the account that originated the contract call, an admin role bearer except when using {AccessControl-_setupRole}."
					},
					"RoleRevoked(bytes32,address,address)": {
						"details": "Emitted when `account` is revoked `role`. `sender` is the account that originated the contract call:   - if using `revokeRole`, it is the admin role bearer   - if using `renounceRole`, it is the role bearer (i.e. `account`)"
					}
				},
				"kind": "dev",
				"methods": {
					"getRoleAdmin(bytes32)": {
						"details": "Returns the admin role that controls `role`. See {grantRole} and {revokeRole}. To change a role's admin, use {_setRoleAdmin}."
					},
					"grantRole(bytes32,address)": {
						"details": "Grants `role` to `account`. If `account` had not been already granted `role`, emits a {RoleGranted} event. Requirements: - the caller must have ``role``'s admin role. May emit a {RoleGranted} event."
					},
					"hasRole(bytes32,address)": {
						"details": "Returns `true` if `account` has been granted `role`."
					},
					"renounceRole(bytes32,address)": {
						"details": "Revokes `role` from the calling account. Roles are often managed via {grantRole} and {revokeRole}: this function's purpose is to provide a mechanism for accounts to lose their privileges if they are compromised (such as when a trusted device is misplaced). If the calling account had been revoked `role`, emits a {RoleRevoked} event. Requirements: - the caller must be `account`. May emit a {RoleRevoked} event."
					},
					"revokeRole(bytes32,address)": {
						"details": "Revokes `role` from `account`. If `account` had been granted `role`, emits a {RoleRevoked} event. Requirements: - the caller must have ``role``'s admin role. May emit a {RoleRevoked} event."
					},
					"supportsInterface(bytes4)": {
						"details": "See {IERC165-supportsInterface}."
					}
				},
				"version": 1
			},
			"evm": {
				"assembly": "    /* \"uniswap.sol\":1874:7173  contract UniswapV2Router02 is AccessControlUpgradeable {... */\n  mstore(0x40, 0xa0)\n    /* \"uniswap.sol\":2192:2414  constructor(address _WETH) {... */\n  callvalue\n  dup1\n  iszero\n  tag_1\n  jumpi\n  revert(0x00, 0x00)\ntag_1:\n  pop\n  mload(0x40)\n  sub(codesize, bytecodeSize)\n  dup1\n  bytecodeSize\n  dup4\n  codecopy\n  dup2\n  add\n  0x40\n  dup2\n  swap1\n  mstore\n  tag_2\n  swap2\n  tag_3\n  jump\t// in\ntag_2:\n  sub(shl(0xa0, 0x01), 0x01)\n    /* \"uniswap.sol\":2229:2241  WETH = _WETH */\n  dup2\n  and\n  0x80\n  mstore\n    /* \"uniswap.sol\":2251:2295  _grantRole(DEFAULT_ADMIN_ROLE, _msgSender()) */\n  tag_6\n    /* \"@openzeppelin/contracts-upgradeable/access/AccessControlUpgradeable.sol\":2365:2369  0x00 */\n  0x00\n    /* \"@openzeppelin/contracts-upgradeable/utils/ContextUpgradeable.sol\":965:975  msg.sender */\n  caller\n    /* \"uniswap.sol\":2251:2261  _grantRole */\n  tag_9\n    /* \"uniswap.sol\":2251:2295  _grantRole(DEFAULT_ADMIN_ROLE, _msgSender()) */\n  jump\t// in\ntag_6:\n    /* \"uniswap.sol\":2305:2344  _grantRole(PRICE_MANAGER, _msgSender()) */\n  tag_10\n    /* \"uniswap.sol\":2159:2185  keccak256(\"PRICE_MANAGER\") */\n  0xa451215b66f023bb76f9a9e7bc5c64156446b47b26061a8a32eaa319c45f695e\n    /* \"@openzeppelin/contracts-upgradeable/utils/ContextUpgradeable.sol\":965:975  msg.sender */\n  caller\n    /* \"uniswap.sol\":2251:2261  _grantRole */\n  tag_9\n    /* \"uniswap.sol\":2251:2295  _grantRole(DEFAULT_ADMIN_ROLE, _msgSender()) */\n  jump\t// in\n    /* \"uniswap.sol\":2305:2344  _grantRole(PRICE_MANAGER, _msgSender()) */\ntag_10:\n    /* \"uniswap.sol\":2376:2407  TokenDetail(1e18, _msgSender()) */\n  mload(0x40)\n  dup1\n  0x40\n  add\n  0x40\n  mstore\n  dup1\n    /* \"uniswap.sol\":2388:2392  1e18 */\n  0x0de0b6b3a7640000\n    /* \"uniswap.sol\":2376:2407  TokenDetail(1e18, _msgSender()) */\n  dup2\n  mstore\n  0x20\n  add\n    /* \"uniswap.sol\":2394:2406  _msgSender() */\n  tag_12\n    /* \"uniswap.sol\":2394:2404  _msgSender */\n  shl(0x20, tag_8)\n    /* \"uniswap.sol\":2394:2406  _msgSender() */\n  0x20\n  shr\n  jump\t// in\ntag_12:\n  sub(shl(0xa0, 0x01), 0x01)\n    /* \"uniswap.sol\":2376:2407  TokenDetail(1e18, _msgSender()) */\n  swap1\n  dup2\n  and\n  swap1\n  swap2\n  mstore\n    /* \"uniswap.sol\":2354:2373  tokenDetails[_WETH] */\n  swap2\n  dup3\n  and\n  0x00\n  swap1\n  dup2\n  mstore\n    /* \"uniswap.sol\":2354:2366  tokenDetails */\n  0x97\n    /* \"uniswap.sol\":2354:2373  tokenDetails[_WETH] */\n  0x20\n  swap1\n  dup2\n  mstore\n  0x40\n  swap1\n  swap2\n  keccak256\n    /* \"uniswap.sol\":2354:2407  tokenDetails[_WETH] = TokenDetail(1e18, _msgSender()) */\n  dup3\n  mload\n  dup2\n  sstore\n  swap2\n  add\n  mload\n  0x01\n  swap1\n  swap2\n  add\n  dup1\n  sload\n  not(sub(shl(0xa0, 0x01), 0x01))\n  and\n  swap2\n  swap1\n  swap3\n  and\n  or\n  swap1\n  sstore\n    /* \"uniswap.sol\":1874:7173  contract UniswapV2Router02 is AccessControlUpgradeable {... */\n  jump(tag_21)\n    /* \"@openzeppelin/contracts-upgradeable/utils/ContextUpgradeable.sol\":886:982  function _msgSender() internal view virtual returns (address) {... */\ntag_8:\n    /* \"@openzeppelin/contracts-upgradeable/utils/ContextUpgradeable.sol\":965:975  msg.sender */\n  caller\n  swap1\n    /* \"@openzeppelin/contracts-upgradeable/utils/ContextUpgradeable.sol\":886:982  function _msgSender() internal view virtual returns (address) {... */\n  jump\t// out\n    /* \"@openzeppelin/contracts-upgradeable/access/AccessControlUpgradeable.sol\":7938:8171  function _grantRole(bytes32 role, address account) internal virtual {... */\ntag_9:\n    /* \"@openzeppelin/contracts-upgradeable/access/AccessControlUpgradeable.sol\":3436:3440  bool */\n  0x00\n    /* \"@openzeppelin/contracts-upgradeable/access/AccessControlUpgradeable.sol\":3459:3471  _roles[role] */\n  dup3\n  dup2\n  mstore\n    /* \"@openzeppelin/contracts-upgradeable/access/AccessControlUpgradeable.sol\":3459:3465  _roles */\n  0x65\n    /* \"@openzeppelin/contracts-upgradeable/access/AccessControlUpgradeable.sol\":3459:3471  _roles[role] */\n  0x20\n  swap1\n  dup2\n  mstore\n  0x40\n  dup1\n  dup4\n  keccak256\n  sub(shl(0xa0, 0x01), 0x01)\n    /* \"@openzeppelin/contracts-upgradeable/access/AccessControlUpgradeable.sol\":3459:3488  _roles[role].members[account] */\n  dup6\n  and\n  dup5\n  mstore\n  swap1\n  swap2\n  mstore\n  swap1\n  keccak256\n  sload\n  0xff\n  and\n    /* \"@openzeppelin/contracts-upgradeable/access/AccessControlUpgradeable.sol\":8016:8165  if (!hasRole(role, account)) {... */\n  tag_18\n  jumpi\n    /* \"@openzeppelin/contracts-upgradeable/access/AccessControlUpgradeable.sol\":8059:8071  _roles[role] */\n  0x00\n  dup3\n  dup2\n  mstore\n    /* \"@openzeppelin/contracts-upgradeable/access/AccessControlUpgradeable.sol\":8059:8065  _roles */\n  0x65\n    /* \"@openzeppelin/contracts-upgradeable/access/AccessControlUpgradeable.sol\":8059:8071  _roles[role] */\n  0x20\n  swap1\n  dup2\n  mstore\n  0x40\n  dup1\n  dup4\n  keccak256\n  sub(shl(0xa0, 0x01), 0x01)\n    /* \"@openzeppelin/contracts-upgradeable/access/AccessControlUpgradeable.sol\":8059:8088  _roles[role].members[account] */\n  dup6\n  and\n  dup5\n  mstore\n  swap1\n  swap2\n  mstore\n  swap1\n  keccak256\n    /* \"@openzeppelin/contracts-upgradeable/access/AccessControlUpgradeable.sol\":8059:8095  _roles[role].members[account] = true */\n  dup1\n  sload\n  not(0xff)\n  and\n    /* \"@openzeppelin/contracts-upgradeable/access/AccessControlUpgradeable.sol\":8091:8095  true */\n  0x01\n    /* \"@openzeppelin/contracts-upgradeable/access/AccessControlUpgradeable.sol\":8059:8095  _roles[role].members[account] = true */\n  or\n  swap1\n  sstore\n    /* \"@openzeppelin/contracts-upgradeable/access/AccessControlUpgradeable.sol\":8141:8153  _msgSender() */\n  tag_19\n    /* \"@openzeppelin/contracts-upgradeable/utils/ContextUpgradeable.sol\":965:975  msg.sender */\n  caller\n  swap1\n    /* \"@openzeppelin/contracts-upgradeable/utils/ContextUpgradeable.sol\":886:982  function _msgSender() internal view virtual returns (address) {... */\n  jump\n    /* \"@openzeppelin/contracts-upgradeable/access/AccessControlUpgradeable.sol\":8141:8153  _msgSender() */\ntag_19:\n  sub(shl(0xa0, 0x01), 0x01)\n    /* \"@openzeppelin/contracts-upgradeable/access/AccessControlUpgradeable.sol\":8114:8154  RoleGranted(role, account, _msgSender()) */\n  and\n    /* \"@openzeppelin/contracts-upgradeable/access/AccessControlUpgradeable.sol\":8132:8139  account */\n  dup2\n  sub(shl(0xa0, 0x01), 0x01)\n    /* \"@openzeppelin/contracts-upgradeable/access/AccessControlUpgradeable.sol\":8114:8154  RoleGranted(role, account, _msgSender()) */\n  and\n    /* \"@openzeppelin/contracts-upgradeable/access/AccessControlUpgradeable.sol\":8126:8130  role */\n  dup4\n    /* \"@openzeppelin/contracts-upgradeable/access/AccessControlUpgradeable.sol\":8114:8154  RoleGranted(role, account, _msgSender()) */\n  0x2f8788117e7eff1d82e926ec794901d17c78024a50270940304540a733656f0d\n  mload(0x40)\n  mload(0x40)\n  dup1\n  swap2\n  sub\n  swap1\n  log4\n    /* \"@openzeppelin/contracts-upgradeable/access/AccessControlUpgradeable.sol\":8016:8165  if (!hasRole(role, account)) {... */\ntag_18:\n    /* \"@openzeppelin/contracts-upgradeable/access/AccessControlUpgradeable.sol\":7938:8171  function _grantRole(bytes32 role, address account) internal virtual {... */\n  pop\n  pop\n  jump\t// out\n    /* \"#utility.yul\":14:304   */\ntag_3:\n    /* \"#utility.yul\":84:90   */\n  0x00\n    /* \"#utility.yul\":137:139   */\n  0x20\n    /* \"#utility.yul\":125:134   */\n  dup3\n    /* \"#utility.yul\":116:123   */\n  dup5\n    /* \"#utility.yul\":112:135   */\n  sub\n    /* \"#utility.yul\":108:140   */\n  slt\n    /* \"#utility.yul\":105:157   */\n  iszero\n  tag_23\n  jumpi\n    /* \"#utility.yul\":153:154   */\n  0x00\n    /* \"#utility.yul\":150:151   */\n  0x00\n    /* \"#utility.yul\":143:155   */\n  revert\n    /* \"#utility.yul\":105:157   */\ntag_23:\n    /* \"#utility.yul\":179:195   */\n  dup2\n  mload\n  sub(shl(0xa0, 0x01), 0x01)\n    /* \"#utility.yul\":224:255   */\n  dup2\n  and\n    /* \"#utility.yul\":214:256   */\n  dup2\n  eq\n    /* \"#utility.yul\":204:274   */\n  tag_24\n  jumpi\n    /* \"#utility.yul\":270:271   */\n  0x00\n    /* \"#utility.yul\":267:268   */\n  0x00\n    /* \"#utility.yul\":260:272   */\n  revert\n    /* \"#utility.yul\":204:274   */\ntag_24:\n    /* \"#utility.yul\":293:298   */\n  swap4\n    /* \"#utility.yul\":14:304   */\n  swap3\n  pop\n  pop\n  pop\n  jump\t// out\ntag_21:\n    /* \"uniswap.sol\":1874:7173  contract UniswapV2Router02 is AccessControlUpgradeable {... */\n  mload(0x80)\n  codecopy(0x00, dataOffset(sub_0), dataSize(sub_0))\n  0x00\n  assignImmutable(\"0x272fee19618bddbc00febd3897af287776f225c94084e4d859902021d48f698c\")\n  return(0x00, dataSize(sub_0))\nstop\n\nsub_0: assembly {\n        /* \"uniswap.sol\":1874:7173  contract UniswapV2Router02 is AccessControlUpgradeable {... */\n      mstore(0x40, 0x80)\n      jumpi(tag_1, lt(calldatasize, 0x04))\n      shr(0xe0, calldataload(0x00))\n      dup1\n      0xaffa8817\n      gt\n      tag_19\n      jumpi\n      dup1\n      0xd06ca61f\n      gt\n      tag_20\n      jumpi\n      dup1\n      0xd06ca61f\n      eq\n      tag_14\n      jumpi\n      dup1\n      0xd547741f\n      eq\n      tag_15\n      jumpi\n      dup1\n      0xdd4be683\n      eq\n      tag_16\n      jumpi\n      dup1\n      0xeb71f7e6\n      eq\n      tag_17\n      jumpi\n      dup1\n      0xfa1c631b\n      eq\n      tag_18\n      jumpi\n      revert(0x00, 0x00)\n    tag_20:\n      dup1\n      0xaffa8817\n      eq\n      tag_10\n      jumpi\n      dup1\n      0xb6f9de95\n      eq\n      tag_11\n      jumpi\n      dup1\n      0xcf0888aa\n      eq\n      tag_12\n      jumpi\n      dup1\n      0xd02641a0\n      eq\n      tag_13\n      jumpi\n      revert(0x00, 0x00)\n    tag_19:\n      dup1\n      0x88aa8bee\n      gt\n      tag_21\n      jumpi\n      dup1\n      0x88aa8bee\n      eq\n      tag_6\n      jumpi\n      dup1\n      0x91d14854\n      eq\n      tag_7\n      jumpi\n      dup1\n      0xa217fddf\n      eq\n      tag_8\n      jumpi\n      dup1\n      0xad5c4648\n      eq\n      tag_9\n      jumpi\n      revert(0x00, 0x00)\n    tag_21:\n      dup1\n      0x01ffc9a7\n      eq\n      tag_2\n      jumpi\n      dup1\n      0x248a9ca3\n      eq\n      tag_3\n      jumpi\n      dup1\n      0x2f2ff15d\n      eq\n      tag_4\n      jumpi\n      dup1\n      0x36568abe\n      eq\n      tag_5\n      jumpi\n    tag_1:\n      revert(0x00, 0x00)\n        /* \"@openzeppelin/contracts-upgradeable/access/AccessControlUpgradeable.sol\":3050:3263  function supportsInterface(bytes4 interfaceId) public view virtual override returns (bool) {... */\n    tag_2:\n      callvalue\n      dup1\n      iszero\n      tag_22\n      jumpi\n      revert(0x00, 0x00)\n    tag_22:\n      pop\n      tag_23\n      tag_24\n      calldatasize\n      0x04\n      tag_25\n      jump\t// in\n    tag_24:\n      tag_26\n      jump\t// in\n    tag_23:\n      mload(0x40)\n        /* \"#utility.yul\":470:484   */\n      swap1\n      iszero\n        /* \"#utility.yul\":463:485   */\n      iszero\n        /* \"#utility.yul\":445:486   */\n      dup2\n      mstore\n        /* \"#utility.yul\":433:435   */\n      0x20\n        /* \"#utility.yul\":418:436   */\n      add\n        /* \"@openzeppelin/contracts-upgradeable/access/AccessControlUpgradeable.sol\":3050:3263  function supportsInterface(bytes4 interfaceId) public view virtual override returns (bool) {... */\n    tag_27:\n      mload(0x40)\n      dup1\n      swap2\n      sub\n      swap1\n      return\n        /* \"@openzeppelin/contracts-upgradeable/access/AccessControlUpgradeable.sol\":4855:4984  function getRoleAdmin(bytes32 role) public view virtual override returns (bytes32) {... */\n    tag_3:\n      callvalue\n      dup1\n      iszero\n      tag_29\n      jumpi\n      revert(0x00, 0x00)\n    tag_29:\n      pop\n      tag_30\n      tag_31\n      calldatasize\n      0x04\n      tag_32\n      jump\t// in\n    tag_31:\n        /* \"@openzeppelin/contracts-upgradeable/access/AccessControlUpgradeable.sol\":4929:4936  bytes32 */\n      0x00\n        /* \"@openzeppelin/contracts-upgradeable/access/AccessControlUpgradeable.sol\":4955:4967  _roles[role] */\n      swap1\n      dup2\n      mstore\n        /* \"@openzeppelin/contracts-upgradeable/access/AccessControlUpgradeable.sol\":4955:4961  _roles */\n      0x65\n        /* \"@openzeppelin/contracts-upgradeable/access/AccessControlUpgradeable.sol\":4955:4967  _roles[role] */\n      0x20\n      mstore\n      0x40\n      swap1\n      keccak256\n        /* \"@openzeppelin/contracts-upgradeable/access/AccessControlUpgradeable.sol\":4955:4977  _roles[role].adminRole */\n      0x01\n      add\n      sload\n      swap1\n        /* \"@openzeppelin/contracts-upgradeable/access/AccessControlUpgradeable.sol\":4855:4984  function getRoleAdmin(bytes32 role) public view virtual override returns (bytes32) {... */\n      jump\n    tag_30:\n      mload(0x40)\n        /* \"#utility.yul\":874:899   */\n      swap1\n      dup2\n      mstore\n        /* \"#utility.yul\":862:864   */\n      0x20\n        /* \"#utility.yul\":847:865   */\n      add\n        /* \"@openzeppelin/contracts-upgradeable/access/AccessControlUpgradeable.sol\":4855:4984  function getRoleAdmin(bytes32 role) public view virtual override returns (bytes32) {... */\n      tag_27\n        /* \"#utility.yul\":728:905   */\n      jump\n        /* \"@openzeppelin/contracts-upgradeable/access/AccessControlUpgradeable.sol\":5280:5425  function grantRole(bytes32 role, address account) public virtual override onlyRole(getRoleAdmin(role)) {... */\n    tag_4:\n      callvalue\n      dup1\n      iszero\n      tag_36\n      jumpi\n      revert(0x00, 0x00)\n    tag_36:\n      pop\n      tag_37\n      tag_38\n      calldatasize\n      0x04\n      tag_39\n      jump\t// in\n    tag_38:\n      tag_40\n      jump\t// in\n    tag_37:\n      stop\n        /* \"@openzeppelin/contracts-upgradeable/access/AccessControlUpgradeable.sol\":6389:6603  function renounceRole(bytes32 role, address account) public virtual override {... */\n    tag_5:\n      callvalue\n      dup1\n      iszero\n      tag_41\n      jumpi\n      revert(0x00, 0x00)\n    tag_41:\n      pop\n      tag_37\n      tag_43\n      calldatasize\n      0x04\n      tag_39\n      jump\t// in\n    tag_43:\n      tag_44\n      jump\t// in\n        /* \"uniswap.sol\":5610:5776  function getTokenDetails(address tokenAddress)... */\n    tag_6:\n      callvalue\n      dup1\n      iszero\n      tag_45\n      jumpi\n      revert(0x00, 0x00)\n    tag_45:\n      pop\n      tag_46\n      tag_47\n      calldatasize\n      0x04\n      tag_48\n      jump\t// in\n    tag_47:\n      0x40\n      dup1\n      mload\n      dup1\n      dup3\n      add\n      dup3\n      mstore\n      0x00\n      dup1\n      dup3\n      mstore\n      0x20\n      swap2\n      dup3\n      add\n      dup2\n      swap1\n      mstore\n      sub(shl(0xa0, 0x01), 0x01)\n        /* \"uniswap.sol\":5743:5769  tokenDetails[tokenAddress] */\n      swap4\n      dup5\n      and\n      dup2\n      mstore\n        /* \"uniswap.sol\":5743:5755  tokenDetails */\n      0x97\n        /* \"uniswap.sol\":5743:5769  tokenDetails[tokenAddress] */\n      dup3\n      mstore\n      dup3\n      swap1\n      keccak256\n        /* \"uniswap.sol\":5736:5769  return tokenDetails[tokenAddress] */\n      dup3\n      mload\n      dup1\n      dup5\n      add\n      swap1\n      swap4\n      mstore\n      dup1\n      sload\n      dup4\n      mstore\n      0x01\n      add\n      sload\n      swap1\n      swap3\n      and\n      swap2\n      dup2\n      add\n      swap2\n      swap1\n      swap2\n      mstore\n      swap1\n        /* \"uniswap.sol\":5610:5776  function getTokenDetails(address tokenAddress)... */\n      jump\n    tag_46:\n      0x40\n      dup1\n      mload\n        /* \"#utility.yul\":1806:1819   */\n      dup3\n      mload\n        /* \"#utility.yul\":1788:1820   */\n      dup2\n      mstore\n        /* \"#utility.yul\":1880:1884   */\n      0x20\n        /* \"#utility.yul\":1868:1885   */\n      swap3\n      dup4\n      add\n        /* \"#utility.yul\":1862:1886   */\n      mload\n      sub(shl(0xa0, 0x01), 0x01)\n        /* \"#utility.yul\":1858:1908   */\n      and\n        /* \"#utility.yul\":1836:1856   */\n      swap3\n      dup2\n      add\n        /* \"#utility.yul\":1829:1909   */\n      swap3\n      swap1\n      swap3\n      mstore\n        /* \"#utility.yul\":1761:1779   */\n      add\n        /* \"uniswap.sol\":5610:5776  function getTokenDetails(address tokenAddress)... */\n      tag_27\n        /* \"#utility.yul\":1584:1915   */\n      jump\n        /* \"@openzeppelin/contracts-upgradeable/access/AccessControlUpgradeable.sol\":3350:3495  function hasRole(bytes32 role, address account) public view virtual override returns (bool) {... */\n    tag_7:\n      callvalue\n      dup1\n      iszero\n      tag_52\n      jumpi\n      revert(0x00, 0x00)\n    tag_52:\n      pop\n      tag_23\n      tag_54\n      calldatasize\n      0x04\n      tag_39\n      jump\t// in\n    tag_54:\n      tag_55\n      jump\t// in\n        /* \"@openzeppelin/contracts-upgradeable/access/AccessControlUpgradeable.sol\":2320:2369  bytes32 public constant DEFAULT_ADMIN_ROLE = 0x00 */\n    tag_8:\n      callvalue\n      dup1\n      iszero\n      tag_57\n      jumpi\n      revert(0x00, 0x00)\n    tag_57:\n      pop\n      tag_30\n        /* \"@openzeppelin/contracts-upgradeable/access/AccessControlUpgradeable.sol\":2365:2369  0x00 */\n      0x00\n        /* \"@openzeppelin/contracts-upgradeable/access/AccessControlUpgradeable.sol\":2320:2369  bytes32 public constant DEFAULT_ADMIN_ROLE = 0x00 */\n      dup2\n      jump\n        /* \"uniswap.sol\":2025:2054  address public immutable WETH */\n    tag_9:\n      callvalue\n      dup1\n      iszero\n      tag_61\n      jumpi\n      revert(0x00, 0x00)\n    tag_61:\n      pop\n      tag_62\n      immutable(\"0x272fee19618bddbc00febd3897af287776f225c94084e4d859902021d48f698c\")\n      dup2\n      jump\n    tag_62:\n      mload(0x40)\n      sub(shl(0xa0, 0x01), 0x01)\n        /* \"#utility.yul\":2084:2116   */\n      swap1\n      swap2\n      and\n        /* \"#utility.yul\":2066:2117   */\n      dup2\n      mstore\n        /* \"#utility.yul\":2054:2056   */\n      0x20\n        /* \"#utility.yul\":2039:2057   */\n      add\n        /* \"uniswap.sol\":2025:2054  address public immutable WETH */\n      tag_27\n        /* \"#utility.yul\":1920:2123   */\n      jump\n        /* \"uniswap.sol\":5383:5467  function getWETHAddress() public view returns (address) {... */\n    tag_10:\n      callvalue\n      dup1\n      iszero\n      tag_66\n      jumpi\n      revert(0x00, 0x00)\n    tag_66:\n      pop\n        /* \"uniswap.sol\":5456:5460  WETH */\n      immutable(\"0x272fee19618bddbc00febd3897af287776f225c94084e4d859902021d48f698c\")\n        /* \"uniswap.sol\":5383:5467  function getWETHAddress() public view returns (address) {... */\n      jump(tag_62)\n        /* \"uniswap.sol\":3196:4198  function swapExactETHForTokensSupportingFeeOnTransferTokens(... */\n    tag_11:\n      tag_37\n      tag_71\n      calldatasize\n      0x04\n      tag_72\n      jump\t// in\n    tag_71:\n      tag_73\n      jump\t// in\n        /* \"uniswap.sol\":2119:2185  bytes32 public constant PRICE_MANAGER = keccak256(\"PRICE_MANAGER\") */\n    tag_12:\n      callvalue\n      dup1\n      iszero\n      tag_74\n      jumpi\n      revert(0x00, 0x00)\n    tag_74:\n      pop\n      tag_30\n        /* \"uniswap.sol\":2159:2185  keccak256(\"PRICE_MANAGER\") */\n      0xa451215b66f023bb76f9a9e7bc5c64156446b47b26061a8a32eaa319c45f695e\n        /* \"uniswap.sol\":2119:2185  bytes32 public constant PRICE_MANAGER = keccak256(\"PRICE_MANAGER\") */\n      dup2\n      jump\n        /* \"uniswap.sol\":5473:5604  function getTokenPrice(address tokenAddress) public view returns (uint256) {... */\n    tag_13:\n      callvalue\n      dup1\n      iszero\n      tag_78\n      jumpi\n      revert(0x00, 0x00)\n    tag_78:\n      pop\n      tag_30\n      tag_80\n      calldatasize\n      0x04\n      tag_48\n      jump\t// in\n    tag_80:\n      sub(shl(0xa0, 0x01), 0x01)\n        /* \"uniswap.sol\":5565:5591  tokenDetails[tokenAddress] */\n      and\n        /* \"uniswap.sol\":5539:5546  uint256 */\n      0x00\n        /* \"uniswap.sol\":5565:5591  tokenDetails[tokenAddress] */\n      swap1\n      dup2\n      mstore\n        /* \"uniswap.sol\":5565:5577  tokenDetails */\n      0x97\n        /* \"uniswap.sol\":5565:5591  tokenDetails[tokenAddress] */\n      0x20\n      mstore\n      0x40\n      swap1\n      keccak256\n        /* \"uniswap.sol\":5565:5597  tokenDetails[tokenAddress].price */\n      sload\n      swap1\n        /* \"uniswap.sol\":5473:5604  function getTokenPrice(address tokenAddress) public view returns (uint256) {... */\n      jump\n        /* \"uniswap.sol\":4210:5377  function getAmountsOut(uint amountIn, address[] memory path)... */\n    tag_14:\n      callvalue\n      dup1\n      iszero\n      tag_84\n      jumpi\n      revert(0x00, 0x00)\n    tag_84:\n      pop\n      tag_85\n      tag_86\n      calldatasize\n      0x04\n      tag_87\n      jump\t// in\n    tag_86:\n      tag_88\n      jump\t// in\n    tag_85:\n      mload(0x40)\n      tag_27\n      swap2\n      swap1\n      tag_90\n      jump\t// in\n        /* \"@openzeppelin/contracts-upgradeable/access/AccessControlUpgradeable.sol\":5705:5852  function revokeRole(bytes32 role, address account) public virtual override onlyRole(getRoleAdmin(role)) {... */\n    tag_15:\n      callvalue\n      dup1\n      iszero\n      tag_91\n      jumpi\n      revert(0x00, 0x00)\n    tag_91:\n      pop\n      tag_37\n      tag_93\n      calldatasize\n      0x04\n      tag_39\n      jump\t// in\n    tag_93:\n      tag_94\n      jump\t// in\n        /* \"uniswap.sol\":2061:2112  mapping(address => TokenDetail) public tokenDetails */\n    tag_16:\n      callvalue\n      dup1\n      iszero\n      tag_95\n      jumpi\n      revert(0x00, 0x00)\n    tag_95:\n      pop\n      tag_96\n      tag_97\n      calldatasize\n      0x04\n      tag_48\n      jump\t// in\n    tag_97:\n      mstore(0x20, 0x97)\n      0x00\n      swap1\n      dup2\n      mstore\n      0x40\n      swap1\n      keccak256\n      dup1\n      sload\n      0x01\n      swap1\n      swap2\n      add\n      sload\n      sub(shl(0xa0, 0x01), 0x01)\n      and\n      dup3\n      jump\n    tag_96:\n      0x40\n      dup1\n      mload\n        /* \"#utility.yul\":5771:5796   */\n      swap3\n      dup4\n      mstore\n      sub(shl(0xa0, 0x01), 0x01)\n        /* \"#utility.yul\":5832:5864   */\n      swap1\n      swap2\n      and\n        /* \"#utility.yul\":5827:5829   */\n      0x20\n        /* \"#utility.yul\":5812:5830   */\n      dup4\n      add\n        /* \"#utility.yul\":5805:5865   */\n      mstore\n        /* \"#utility.yul\":5744:5762   */\n      add\n        /* \"uniswap.sol\":2061:2112  mapping(address => TokenDetail) public tokenDetails */\n      tag_27\n        /* \"#utility.yul\":5597:5871   */\n      jump\n        /* \"uniswap.sol\":2649:3190  function setTokensDetails(... */\n    tag_17:\n      callvalue\n      dup1\n      iszero\n      tag_101\n      jumpi\n      revert(0x00, 0x00)\n    tag_101:\n      pop\n      tag_37\n      tag_103\n      calldatasize\n      0x04\n      tag_104\n      jump\t// in\n    tag_103:\n      tag_105\n      jump\t// in\n        /* \"uniswap.sol\":2420:2643  function setTokenDetails(... */\n    tag_18:\n      callvalue\n      dup1\n      iszero\n      tag_106\n      jumpi\n      revert(0x00, 0x00)\n    tag_106:\n      pop\n      tag_37\n      tag_108\n      calldatasize\n      0x04\n      tag_109\n      jump\t// in\n    tag_108:\n      tag_110\n      jump\t// in\n        /* \"@openzeppelin/contracts-upgradeable/access/AccessControlUpgradeable.sol\":3050:3263  function supportsInterface(bytes4 interfaceId) public view virtual override returns (bool) {... */\n    tag_26:\n        /* \"@openzeppelin/contracts-upgradeable/access/AccessControlUpgradeable.sol\":3135:3139  bool */\n      0x00\n      not(sub(shl(0xe0, 0x01), 0x01))\n        /* \"@openzeppelin/contracts-upgradeable/access/AccessControlUpgradeable.sol\":3158:3216  interfaceId == type(IAccessControlUpgradeable).interfaceId */\n      dup3\n      and\n      shl(0xe0, 0x7965db0b)\n      eq\n      dup1\n        /* \"@openzeppelin/contracts-upgradeable/access/AccessControlUpgradeable.sol\":3158:3256  interfaceId == type(IAccessControlUpgradeable).interfaceId || super.supportsInterface(interfaceId) */\n      tag_113\n      jumpi\n      pop\n      shl(0xe0, 0x01ffc9a7)\n      not(sub(shl(0xe0, 0x01), 0x01))\n        /* \"@openzeppelin/contracts-upgradeable/utils/introspection/ERC165Upgradeable.sol\":1189:1240  interfaceId == type(IERC165Upgradeable).interfaceId */\n      dup4\n      and\n      eq\n        /* \"@openzeppelin/contracts-upgradeable/access/AccessControlUpgradeable.sol\":3220:3256  super.supportsInterface(interfaceId) */\n    tag_113:\n        /* \"@openzeppelin/contracts-upgradeable/access/AccessControlUpgradeable.sol\":3151:3256  return interfaceId == type(IAccessControlUpgradeable).interfaceId || super.supportsInterface(interfaceId) */\n      swap3\n        /* \"@openzeppelin/contracts-upgradeable/access/AccessControlUpgradeable.sol\":3050:3263  function supportsInterface(bytes4 interfaceId) public view virtual override returns (bool) {... */\n      swap2\n      pop\n      pop\n      jump\t// out\n        /* \"@openzeppelin/contracts-upgradeable/access/AccessControlUpgradeable.sol\":5280:5425  function grantRole(bytes32 role, address account) public virtual override onlyRole(getRoleAdmin(role)) {... */\n    tag_40:\n        /* \"@openzeppelin/contracts-upgradeable/access/AccessControlUpgradeable.sol\":4929:4936  bytes32 */\n      0x00\n        /* \"@openzeppelin/contracts-upgradeable/access/AccessControlUpgradeable.sol\":4955:4967  _roles[role] */\n      dup3\n      dup2\n      mstore\n        /* \"@openzeppelin/contracts-upgradeable/access/AccessControlUpgradeable.sol\":4955:4961  _roles */\n      0x65\n        /* \"@openzeppelin/contracts-upgradeable/access/AccessControlUpgradeable.sol\":4955:4967  _roles[role] */\n      0x20\n      mstore\n      0x40\n      swap1\n      keccak256\n        /* \"@openzeppelin/contracts-upgradeable/access/AccessControlUpgradeable.sol\":4955:4977  _roles[role].adminRole */\n      0x01\n      add\n      sload\n        /* \"@openzeppelin/contracts-upgradeable/access/AccessControlUpgradeable.sol\":2798:2814  _checkRole(role) */\n      tag_118\n        /* \"@openzeppelin/contracts-upgradeable/access/AccessControlUpgradeable.sol\":2809:2813  role */\n      dup2\n        /* \"@openzeppelin/contracts-upgradeable/access/AccessControlUpgradeable.sol\":2798:2808  _checkRole */\n      tag_119\n        /* \"@openzeppelin/contracts-upgradeable/access/AccessControlUpgradeable.sol\":2798:2814  _checkRole(role) */\n      jump\t// in\n    tag_118:\n        /* \"@openzeppelin/contracts-upgradeable/access/AccessControlUpgradeable.sol\":5393:5418  _grantRole(role, account) */\n      tag_121\n        /* \"@openzeppelin/contracts-upgradeable/access/AccessControlUpgradeable.sol\":5404:5408  role */\n      dup4\n        /* \"@openzeppelin/contracts-upgradeable/access/AccessControlUpgradeable.sol\":5410:5417  account */\n      dup4\n        /* \"@openzeppelin/contracts-upgradeable/access/AccessControlUpgradeable.sol\":5393:5403  _grantRole */\n      tag_122\n        /* \"@openzeppelin/contracts-upgradeable/access/AccessControlUpgradeable.sol\":5393:5418  _grantRole(role, account) */\n      jump\t// in\n    tag_121:\n        /* \"@openzeppelin/contracts-upgradeable/access/AccessControlUpgradeable.sol\":5280:5425  function grantRole(bytes32 role, address account) public virtual override onlyRole(getRoleAdmin(role)) {... */\n      pop\n      pop\n      pop\n      jump\t// out\n        /* \"@openzeppelin/contracts-upgradeable/access/AccessControlUpgradeable.sol\":6389:6603  function renounceRole(bytes32 role, address account) public virtual override {... */\n    tag_44:\n      sub(shl(0xa0, 0x01), 0x01)\n        /* \"@openzeppelin/contracts-upgradeable/access/AccessControlUpgradeable.sol\":6484:6507  account == _msgSender() */\n      dup2\n      and\n        /* \"@openzeppelin/contracts-upgradeable/utils/ContextUpgradeable.sol\":965:975  msg.sender */\n      caller\n        /* \"@openzeppelin/contracts-upgradeable/access/AccessControlUpgradeable.sol\":6484:6507  account == _msgSender() */\n      eq\n        /* \"@openzeppelin/contracts-upgradeable/access/AccessControlUpgradeable.sol\":6476:6559  require(account == _msgSender(), \"AccessControl: can only renounce roles for self\") */\n      tag_126\n      jumpi\n      mload(0x40)\n      shl(0xe5, 0x461bcd)\n      dup2\n      mstore\n        /* \"#utility.yul\":7886:7888   */\n      0x20\n        /* \"@openzeppelin/contracts-upgradeable/access/AccessControlUpgradeable.sol\":6476:6559  require(account == _msgSender(), \"AccessControl: can only renounce roles for self\") */\n      0x04\n      dup3\n      add\n        /* \"#utility.yul\":7868:7889   */\n      mstore\n        /* \"#utility.yul\":7925:7927   */\n      0x2f\n        /* \"#utility.yul\":7905:7923   */\n      0x24\n      dup3\n      add\n        /* \"#utility.yul\":7898:7928   */\n      mstore\n        /* \"#utility.yul\":7964:7998   */\n      0x416363657373436f6e74726f6c3a2063616e206f6e6c792072656e6f756e6365\n        /* \"#utility.yul\":7944:7962   */\n      0x44\n      dup3\n      add\n        /* \"#utility.yul\":7937:7999   */\n      mstore\n      shl(0x89, 0x103937b632b9903337b91039b2b633)\n        /* \"#utility.yul\":8015:8033   */\n      0x64\n      dup3\n      add\n        /* \"#utility.yul\":8008:8053   */\n      mstore\n        /* \"#utility.yul\":8070:8089   */\n      0x84\n      add\n        /* \"@openzeppelin/contracts-upgradeable/access/AccessControlUpgradeable.sol\":6476:6559  require(account == _msgSender(), \"AccessControl: can only renounce roles for self\") */\n    tag_127:\n      mload(0x40)\n      dup1\n      swap2\n      sub\n      swap1\n      revert\n    tag_126:\n        /* \"@openzeppelin/contracts-upgradeable/access/AccessControlUpgradeable.sol\":6570:6596  _revokeRole(role, account) */\n      tag_129\n        /* \"@openzeppelin/contracts-upgradeable/access/AccessControlUpgradeable.sol\":6582:6586  role */\n      dup3\n        /* \"@openzeppelin/contracts-upgradeable/access/AccessControlUpgradeable.sol\":6588:6595  account */\n      dup3\n        /* \"@openzeppelin/contracts-upgradeable/access/AccessControlUpgradeable.sol\":6570:6581  _revokeRole */\n      tag_130\n        /* \"@openzeppelin/contracts-upgradeable/access/AccessControlUpgradeable.sol\":6570:6596  _revokeRole(role, account) */\n      jump\t// in\n    tag_129:\n        /* \"@openzeppelin/contracts-upgradeable/access/AccessControlUpgradeable.sol\":6389:6603  function renounceRole(bytes32 role, address account) public virtual override {... */\n      pop\n      pop\n      jump\t// out\n        /* \"@openzeppelin/contracts-upgradeable/access/AccessControlUpgradeable.sol\":3350:3495  function hasRole(bytes32 role, address account) public view virtual override returns (bool) {... */\n    tag_55:\n        /* \"@openzeppelin/contracts-upgradeable/access/AccessControlUpgradeable.sol\":3436:3440  bool */\n      0x00\n        /* \"@openzeppelin/contracts-upgradeable/access/AccessControlUpgradeable.sol\":3459:3471  _roles[role] */\n      swap2\n      dup3\n      mstore\n        /* \"@openzeppelin/contracts-upgradeable/access/AccessControlUpgradeable.sol\":3459:3465  _roles */\n      0x65\n        /* \"@openzeppelin/contracts-upgradeable/access/AccessControlUpgradeable.sol\":3459:3471  _roles[role] */\n      0x20\n      swap1\n      dup2\n      mstore\n      0x40\n      dup1\n      dup5\n      keccak256\n      sub(shl(0xa0, 0x01), 0x01)\n        /* \"@openzeppelin/contracts-upgradeable/access/AccessControlUpgradeable.sol\":3459:3488  _roles[role].members[account] */\n      swap4\n      swap1\n      swap4\n      and\n      dup5\n      mstore\n      swap2\n      swap1\n      mstore\n      swap1\n      keccak256\n      sload\n      0xff\n      and\n      swap1\n        /* \"@openzeppelin/contracts-upgradeable/access/AccessControlUpgradeable.sol\":3350:3495  function hasRole(bytes32 role, address account) public view virtual override returns (bool) {... */\n      jump\t// out\n        /* \"uniswap.sol\":3196:4198  function swapExactETHForTokensSupportingFeeOnTransferTokens(... */\n    tag_73:\n        /* \"uniswap.sol\":3418:3422  WETH */\n      immutable(\"0x272fee19618bddbc00febd3897af287776f225c94084e4d859902021d48f698c\")\n      sub(shl(0xa0, 0x01), 0x01)\n        /* \"uniswap.sol\":3407:3422  path[0] == WETH */\n      and\n        /* \"uniswap.sol\":3407:3411  path */\n      dup5\n      dup5\n        /* \"uniswap.sol\":3412:3413  0 */\n      0x00\n        /* \"uniswap.sol\":3407:3414  path[0] */\n      dup2\n      dup2\n      lt\n      tag_138\n      jumpi\n      tag_138\n      tag_139\n      jump\t// in\n    tag_138:\n      swap1\n      pop\n      0x20\n      mul\n      add\n      0x20\n      dup2\n      add\n      swap1\n      tag_140\n      swap2\n      swap1\n      tag_48\n      jump\t// in\n    tag_140:\n      sub(shl(0xa0, 0x01), 0x01)\n        /* \"uniswap.sol\":3407:3422  path[0] == WETH */\n      and\n      eq\n        /* \"uniswap.sol\":3399:3456  require(path[0] == WETH, \"UniswapV2Router: INVALID_PATH\") */\n      tag_141\n      jumpi\n      mload(0x40)\n      shl(0xe5, 0x461bcd)\n      dup2\n      mstore\n        /* \"#utility.yul\":8434:8436   */\n      0x20\n        /* \"uniswap.sol\":3399:3456  require(path[0] == WETH, \"UniswapV2Router: INVALID_PATH\") */\n      0x04\n      dup3\n      add\n        /* \"#utility.yul\":8416:8437   */\n      mstore\n        /* \"#utility.yul\":8473:8475   */\n      0x1d\n        /* \"#utility.yul\":8453:8471   */\n      0x24\n      dup3\n      add\n        /* \"#utility.yul\":8446:8476   */\n      mstore\n        /* \"#utility.yul\":8512:8543   */\n      0x556e69737761705632526f757465723a20494e56414c49445f50415448000000\n        /* \"#utility.yul\":8492:8510   */\n      0x44\n      dup3\n      add\n        /* \"#utility.yul\":8485:8544   */\n      mstore\n        /* \"#utility.yul\":8561:8579   */\n      0x64\n      add\n        /* \"uniswap.sol\":3399:3456  require(path[0] == WETH, \"UniswapV2Router: INVALID_PATH\") */\n      tag_127\n        /* \"#utility.yul\":8232:8585   */\n      jump\n        /* \"uniswap.sol\":3399:3456  require(path[0] == WETH, \"UniswapV2Router: INVALID_PATH\") */\n    tag_141:\n        /* \"uniswap.sol\":3486:3501  block.timestamp */\n      timestamp\n        /* \"uniswap.sol\":3474:3482  deadline */\n      dup2\n        /* \"uniswap.sol\":3474:3501  deadline >= block.timestamp */\n      lt\n      iszero\n        /* \"uniswap.sol\":3466:3530  require(deadline >= block.timestamp, \"UniswapV2Router: EXPIRED\") */\n      tag_144\n      jumpi\n      mload(0x40)\n      shl(0xe5, 0x461bcd)\n      dup2\n      mstore\n        /* \"#utility.yul\":8792:8794   */\n      0x20\n        /* \"uniswap.sol\":3466:3530  require(deadline >= block.timestamp, \"UniswapV2Router: EXPIRED\") */\n      0x04\n      dup3\n      add\n        /* \"#utility.yul\":8774:8795   */\n      mstore\n        /* \"#utility.yul\":8831:8833   */\n      0x18\n        /* \"#utility.yul\":8811:8829   */\n      0x24\n      dup3\n      add\n        /* \"#utility.yul\":8804:8834   */\n      mstore\n        /* \"#utility.yul\":8870:8896   */\n      0x556e69737761705632526f757465723a20455850495245440000000000000000\n        /* \"#utility.yul\":8850:8868   */\n      0x44\n      dup3\n      add\n        /* \"#utility.yul\":8843:8897   */\n      mstore\n        /* \"#utility.yul\":8914:8932   */\n      0x64\n      add\n        /* \"uniswap.sol\":3466:3530  require(deadline >= block.timestamp, \"UniswapV2Router: EXPIRED\") */\n      tag_127\n        /* \"#utility.yul\":8590:8938   */\n      jump\n        /* \"uniswap.sol\":3466:3530  require(deadline >= block.timestamp, \"UniswapV2Router: EXPIRED\") */\n    tag_144:\n        /* \"uniswap.sol\":3541:3554  uint amountIn */\n      0x00\n        /* \"uniswap.sol\":3557:3566  msg.value */\n      callvalue\n        /* \"uniswap.sol\":3541:3566  uint amountIn = msg.value */\n      swap1\n      pop\n        /* \"uniswap.sol\":3577:3591  uint amountOut */\n      0x00\n        /* \"uniswap.sol\":3594:3623  getAmountsOut(amountIn, path) */\n      tag_147\n        /* \"uniswap.sol\":3608:3616  amountIn */\n      dup3\n        /* \"uniswap.sol\":3618:3622  path */\n      dup8\n      dup8\n        /* \"uniswap.sol\":3594:3623  getAmountsOut(amountIn, path) */\n      dup1\n      dup1\n      0x20\n      mul\n      0x20\n      add\n      mload(0x40)\n      swap1\n      dup2\n      add\n      0x40\n      mstore\n      dup1\n      swap4\n      swap3\n      swap2\n      swap1\n      dup2\n      dup2\n      mstore\n      0x20\n      add\n      dup4\n      dup4\n      0x20\n      mul\n      dup1\n      dup3\n      dup5\n      calldatacopy\n      0x00\n      swap3\n      add\n      swap2\n      swap1\n      swap2\n      mstore\n      pop\n        /* \"uniswap.sol\":3594:3607  getAmountsOut */\n      tag_88\n      swap3\n      pop\n      pop\n      pop\n        /* \"uniswap.sol\":3594:3623  getAmountsOut(amountIn, path) */\n      jump\t// in\n    tag_147:\n        /* \"uniswap.sol\":3624:3625  1 */\n      0x01\n        /* \"uniswap.sol\":3594:3626  getAmountsOut(amountIn, path)[1] */\n      dup2\n      mload\n      dup2\n      lt\n      tag_149\n      jumpi\n      tag_149\n      tag_139\n      jump\t// in\n    tag_149:\n      0x20\n      mul\n      0x20\n      add\n      add\n      mload\n        /* \"uniswap.sol\":3577:3626  uint amountOut = getAmountsOut(amountIn, path)[1] */\n      swap1\n      pop\n        /* \"uniswap.sol\":3669:3670  0 */\n      0x00\n        /* \"uniswap.sol\":3657:3666  amountOut */\n      dup2\n        /* \"uniswap.sol\":3657:3670  amountOut > 0 */\n      gt\n        /* \"uniswap.sol\":3657:3699  amountOut > 0 && amountOut >= amountOutMin */\n      dup1\n      iszero\n      tag_150\n      jumpi\n      pop\n        /* \"uniswap.sol\":3687:3699  amountOutMin */\n      dup7\n        /* \"uniswap.sol\":3674:3683  amountOut */\n      dup2\n        /* \"uniswap.sol\":3674:3699  amountOut >= amountOutMin */\n      lt\n      iszero\n        /* \"uniswap.sol\":3657:3699  amountOut > 0 && amountOut >= amountOutMin */\n    tag_150:\n        /* \"uniswap.sol\":3636:3768  require(... */\n      tag_151\n      jumpi\n      mload(0x40)\n      shl(0xe5, 0x461bcd)\n      dup2\n      mstore\n        /* \"#utility.yul\":9145:9147   */\n      0x20\n        /* \"uniswap.sol\":3636:3768  require(... */\n      0x04\n      dup3\n      add\n        /* \"#utility.yul\":9127:9148   */\n      mstore\n        /* \"#utility.yul\":9184:9186   */\n      0x2b\n        /* \"#utility.yul\":9164:9182   */\n      0x24\n      dup3\n      add\n        /* \"#utility.yul\":9157:9187   */\n      mstore\n        /* \"#utility.yul\":9223:9257   */\n      0x556e69737761705632526f757465723a20494e53554646494349454e545f4f55\n        /* \"#utility.yul\":9203:9221   */\n      0x44\n      dup3\n      add\n        /* \"#utility.yul\":9196:9258   */\n      mstore\n      shl(0xaa, 0x1514155517d05353d55395)\n        /* \"#utility.yul\":9274:9292   */\n      0x64\n      dup3\n      add\n        /* \"#utility.yul\":9267:9308   */\n      mstore\n        /* \"#utility.yul\":9325:9344   */\n      0x84\n      add\n        /* \"uniswap.sol\":3636:3768  require(... */\n      tag_127\n        /* \"#utility.yul\":8943:9350   */\n      jump\n        /* \"uniswap.sol\":3636:3768  require(... */\n    tag_151:\n        /* \"uniswap.sol\":3779:3794  address manager */\n      0x00\n        /* \"uniswap.sol\":3797:3809  tokenDetails */\n      0x97\n        /* \"uniswap.sol\":3797:3818  tokenDetails[path[1]] */\n      0x00\n        /* \"uniswap.sol\":3810:3814  path */\n      dup9\n      dup9\n        /* \"uniswap.sol\":3815:3816  1 */\n      0x01\n        /* \"uniswap.sol\":3810:3817  path[1] */\n      dup2\n      dup2\n      lt\n      tag_155\n      jumpi\n      tag_155\n      tag_139\n      jump\t// in\n    tag_155:\n      swap1\n      pop\n      0x20\n      mul\n      add\n      0x20\n      dup2\n      add\n      swap1\n      tag_156\n      swap2\n      swap1\n      tag_48\n      jump\t// in\n    tag_156:\n      sub(shl(0xa0, 0x01), 0x01)\n        /* \"uniswap.sol\":3797:3818  tokenDetails[path[1]] */\n      and\n      sub(shl(0xa0, 0x01), 0x01)\n      and\n      dup2\n      mstore\n      0x20\n      add\n      swap1\n      dup2\n      mstore\n      0x20\n      add\n      0x00\n      keccak256\n        /* \"uniswap.sol\":3797:3831  tokenDetails[path[1]].tokenManager */\n      0x01\n      add\n      0x00\n      swap1\n      sload\n      swap1\n      0x0100\n      exp\n      swap1\n      div\n      sub(shl(0xa0, 0x01), 0x01)\n      and\n        /* \"uniswap.sol\":3779:3831  address manager = tokenDetails[path[1]].tokenManager */\n      swap1\n      pop\n        /* \"uniswap.sol\":3841:3858  uint256 allowance */\n      0x00\n        /* \"uniswap.sol\":3867:3871  path */\n      dup8\n      dup8\n        /* \"uniswap.sol\":3872:3873  1 */\n      0x01\n        /* \"uniswap.sol\":3867:3874  path[1] */\n      dup2\n      dup2\n      lt\n      tag_158\n      jumpi\n      tag_158\n      tag_139\n      jump\t// in\n    tag_158:\n      swap1\n      pop\n      0x20\n      mul\n      add\n      0x20\n      dup2\n      add\n      swap1\n      tag_159\n      swap2\n      swap1\n      tag_48\n      jump\t// in\n    tag_159:\n        /* \"uniswap.sol\":3861:3909  IWETH(path[1]).allowance(manager, address(this)) */\n      mload(0x40)\n      shl(0xe1, 0x6eb1769f)\n      dup2\n      mstore\n      sub(shl(0xa0, 0x01), 0x01)\n        /* \"#utility.yul\":9547:9579   */\n      dup5\n      dup2\n      and\n        /* \"uniswap.sol\":3861:3909  IWETH(path[1]).allowance(manager, address(this)) */\n      0x04\n      dup4\n      add\n        /* \"#utility.yul\":9529:9580   */\n      mstore\n        /* \"uniswap.sol\":3903:3907  this */\n      address\n        /* \"#utility.yul\":9596:9614   */\n      0x24\n      dup4\n      add\n        /* \"#utility.yul\":9589:9649   */\n      mstore\n        /* \"uniswap.sol\":3861:3885  IWETH(path[1]).allowance */\n      swap2\n      swap1\n      swap2\n      and\n      swap1\n      0xdd62ed3e\n      swap1\n        /* \"#utility.yul\":9502:9520   */\n      0x44\n      add\n        /* \"uniswap.sol\":3861:3909  IWETH(path[1]).allowance(manager, address(this)) */\n      0x20\n      mload(0x40)\n      dup1\n      dup4\n      sub\n      dup2\n      dup7\n      gas\n      staticcall\n      iszero\n      dup1\n      iszero\n      tag_163\n      jumpi\n      returndatacopy(0x00, 0x00, returndatasize)\n      revert(0x00, returndatasize)\n    tag_163:\n      pop\n      pop\n      pop\n      pop\n      mload(0x40)\n      returndatasize\n      not(0x1f)\n      0x1f\n      dup3\n      add\n      and\n      dup3\n      add\n      dup1\n      0x40\n      mstore\n      pop\n      dup2\n      add\n      swap1\n      tag_164\n      swap2\n      swap1\n      tag_165\n      jump\t// in\n    tag_164:\n        /* \"uniswap.sol\":3841:3909  uint256 allowance = IWETH(path[1]).allowance(manager, address(this)) */\n      swap1\n      pop\n        /* \"uniswap.sol\":3953:3962  amountOut */\n      dup3\n        /* \"uniswap.sol\":3940:3949  allowance */\n      dup2\n        /* \"uniswap.sol\":3940:3962  allowance >= amountOut */\n      lt\n      iszero\n        /* \"uniswap.sol\":3919:4032  require(... */\n      tag_166\n      jumpi\n      mload(0x40)\n      shl(0xe5, 0x461bcd)\n      dup2\n      mstore\n        /* \"#utility.yul\":10051:10053   */\n      0x20\n        /* \"uniswap.sol\":3919:4032  require(... */\n      0x04\n      dup3\n      add\n        /* \"#utility.yul\":10033:10054   */\n      mstore\n        /* \"#utility.yul\":10090:10092   */\n      0x2c\n        /* \"#utility.yul\":10070:10088   */\n      0x24\n      dup3\n      add\n        /* \"#utility.yul\":10063:10093   */\n      mstore\n        /* \"#utility.yul\":10129:10163   */\n      0x556e69737761705632526f757465723a20494e53554646494349454e545f414d\n        /* \"#utility.yul\":10109:10127   */\n      0x44\n      dup3\n      add\n        /* \"#utility.yul\":10102:10164   */\n      mstore\n      shl(0xa2, 0x13d5539517d0531313d5d151)\n        /* \"#utility.yul\":10180:10198   */\n      0x64\n      dup3\n      add\n        /* \"#utility.yul\":10173:10215   */\n      mstore\n        /* \"#utility.yul\":10232:10251   */\n      0x84\n      add\n        /* \"uniswap.sol\":3919:4032  require(... */\n      tag_127\n        /* \"#utility.yul\":9849:10257   */\n      jump\n        /* \"uniswap.sol\":3919:4032  require(... */\n    tag_166:\n        /* \"uniswap.sol\":4049:4053  WETH */\n      immutable(\"0x272fee19618bddbc00febd3897af287776f225c94084e4d859902021d48f698c\")\n      sub(shl(0xa0, 0x01), 0x01)\n        /* \"uniswap.sol\":4043:4062  IWETH(WETH).deposit */\n      and\n      0xd0e30db0\n        /* \"uniswap.sol\":4070:4078  amountIn */\n      dup6\n        /* \"uniswap.sol\":4043:4081  IWETH(WETH).deposit{value: amountIn}() */\n      mload(0x40)\n      dup3\n      0xffffffff\n      and\n      0xe0\n      shl\n      dup2\n      mstore\n      0x04\n      add\n      0x00\n      mload(0x40)\n      dup1\n      dup4\n      sub\n      dup2\n      dup6\n      dup9\n      dup1\n      extcodesize\n      iszero\n      dup1\n      iszero\n      tag_169\n      jumpi\n      revert(0x00, 0x00)\n    tag_169:\n      pop\n      gas\n      call\n      iszero\n      dup1\n      iszero\n      tag_171\n      jumpi\n      returndatacopy(0x00, 0x00, returndatasize)\n      revert(0x00, returndatasize)\n    tag_171:\n      pop\n      pop\n      pop\n      pop\n      pop\n        /* \"uniswap.sol\":4097:4101  WETH */\n      immutable(\"0x272fee19618bddbc00febd3897af287776f225c94084e4d859902021d48f698c\")\n      sub(shl(0xa0, 0x01), 0x01)\n        /* \"uniswap.sol\":4091:4111  IWETH(WETH).transfer */\n      and\n      0xa9059cbb\n        /* \"uniswap.sol\":4112:4116  path */\n      dup10\n      dup10\n        /* \"uniswap.sol\":4117:4118  1 */\n      0x01\n        /* \"uniswap.sol\":4112:4119  path[1] */\n      dup2\n      dup2\n      lt\n      tag_173\n      jumpi\n      tag_173\n      tag_139\n      jump\t// in\n    tag_173:\n      swap1\n      pop\n      0x20\n      mul\n      add\n      0x20\n      dup2\n      add\n      swap1\n      tag_174\n      swap2\n      swap1\n      tag_48\n      jump\t// in\n    tag_174:\n        /* \"uniswap.sol\":4091:4130  IWETH(WETH).transfer(path[1], amountIn) */\n      mload(0x40)\n      not(sub(shl(0xe0, 0x01), 0x01))\n      0xe0\n      dup5\n      swap1\n      shl\n      and\n      dup2\n      mstore\n      sub(shl(0xa0, 0x01), 0x01)\n        /* \"#utility.yul\":10454:10486   */\n      swap1\n      swap2\n      and\n        /* \"uniswap.sol\":4091:4130  IWETH(WETH).transfer(path[1], amountIn) */\n      0x04\n      dup3\n      add\n        /* \"#utility.yul\":10436:10487   */\n      mstore\n        /* \"#utility.yul\":10503:10521   */\n      0x24\n      dup2\n      add\n        /* \"#utility.yul\":10496:10530   */\n      dup8\n      swap1\n      mstore\n        /* \"#utility.yul\":10409:10427   */\n      0x44\n      add\n        /* \"uniswap.sol\":4091:4130  IWETH(WETH).transfer(path[1], amountIn) */\n      0x20\n      mload(0x40)\n      dup1\n      dup4\n      sub\n      dup2\n      0x00\n      dup8\n      gas\n      call\n      iszero\n      dup1\n      iszero\n      tag_178\n      jumpi\n      returndatacopy(0x00, 0x00, returndatasize)\n      revert(0x00, returndatasize)\n    tag_178:\n      pop\n      pop\n      pop\n      pop\n      mload(0x40)\n      returndatasize\n      not(0x1f)\n      0x1f\n      dup3\n      add\n      and\n      dup3\n      add\n      dup1\n      0x40\n      mstore\n      pop\n      dup2\n      add\n      swap1\n      tag_179\n      swap2\n      swap1\n      tag_180\n      jump\t// in\n    tag_179:\n      pop\n        /* \"uniswap.sol\":4146:4150  path */\n      dup8\n      dup8\n        /* \"uniswap.sol\":4151:4152  1 */\n      0x01\n        /* \"uniswap.sol\":4146:4153  path[1] */\n      dup2\n      dup2\n      lt\n      tag_182\n      jumpi\n      tag_182\n      tag_139\n      jump\t// in\n    tag_182:\n      swap1\n      pop\n      0x20\n      mul\n      add\n      0x20\n      dup2\n      add\n      swap1\n      tag_183\n      swap2\n      swap1\n      tag_48\n      jump\t// in\n    tag_183:\n        /* \"uniswap.sol\":4140:4191  IWETH(path[1]).transferFrom(manager, to, amountOut) */\n      mload(0x40)\n      shl(0xe0, 0x23b872dd)\n      dup2\n      mstore\n      sub(shl(0xa0, 0x01), 0x01)\n        /* \"#utility.yul\":11043:11075   */\n      dup5\n      dup2\n      and\n        /* \"uniswap.sol\":4140:4191  IWETH(path[1]).transferFrom(manager, to, amountOut) */\n      0x04\n      dup4\n      add\n        /* \"#utility.yul\":11025:11076   */\n      mstore\n        /* \"#utility.yul\":11112:11144   */\n      dup9\n      dup2\n      and\n        /* \"#utility.yul\":11092:11110   */\n      0x24\n      dup4\n      add\n        /* \"#utility.yul\":11085:11145   */\n      mstore\n        /* \"#utility.yul\":11161:11179   */\n      0x44\n      dup3\n      add\n        /* \"#utility.yul\":11154:11188   */\n      dup7\n      swap1\n      mstore\n        /* \"uniswap.sol\":4140:4167  IWETH(path[1]).transferFrom */\n      swap2\n      swap1\n      swap2\n      and\n      swap1\n      0x23b872dd\n      swap1\n        /* \"#utility.yul\":10998:11016   */\n      0x64\n      add\n        /* \"uniswap.sol\":4140:4191  IWETH(path[1]).transferFrom(manager, to, amountOut) */\n      0x20\n      mload(0x40)\n      dup1\n      dup4\n      sub\n      dup2\n      0x00\n      dup8\n      gas\n      call\n      iszero\n      dup1\n      iszero\n      tag_187\n      jumpi\n      returndatacopy(0x00, 0x00, returndatasize)\n      revert(0x00, returndatasize)\n    tag_187:\n      pop\n      pop\n      pop\n      pop\n      mload(0x40)\n      returndatasize\n      not(0x1f)\n      0x1f\n      dup3\n      add\n      and\n      dup3\n      add\n      dup1\n      0x40\n      mstore\n      pop\n      dup2\n      add\n      swap1\n      tag_188\n      swap2\n      swap1\n      tag_180\n      jump\t// in\n    tag_188:\n      pop\n        /* \"uniswap.sol\":3380:4198  {... */\n      pop\n      pop\n      pop\n      pop\n        /* \"uniswap.sol\":3196:4198  function swapExactETHForTokensSupportingFeeOnTransferTokens(... */\n      pop\n      pop\n      pop\n      pop\n      pop\n      jump\t// out\n        /* \"uniswap.sol\":4210:5377  function getAmountsOut(uint amountIn, address[] memory path)... */\n    tag_88:\n        /* \"uniswap.sol\":4316:4337  uint[] memory amounts */\n      0x60\n        /* \"uniswap.sol\":4385:4386  0 */\n      0x00\n        /* \"uniswap.sol\":4374:4382  amountIn */\n      dup4\n        /* \"uniswap.sol\":4374:4386  amountIn > 0 */\n      gt\n        /* \"uniswap.sol\":4353:4465  require(... */\n      tag_191\n      jumpi\n      mload(0x40)\n      shl(0xe5, 0x461bcd)\n      dup2\n      mstore\n        /* \"#utility.yul\":11401:11403   */\n      0x20\n        /* \"uniswap.sol\":4353:4465  require(... */\n      0x04\n      dup3\n      add\n        /* \"#utility.yul\":11383:11404   */\n      mstore\n        /* \"#utility.yul\":11440:11442   */\n      0x35\n        /* \"#utility.yul\":11420:11438   */\n      0x24\n      dup3\n      add\n        /* \"#utility.yul\":11413:11443   */\n      mstore\n        /* \"#utility.yul\":11479:11513   */\n      0x556e69737761705632526f757465723a20616d6f756e74496e2073686f756c64\n        /* \"#utility.yul\":11459:11477   */\n      0x44\n      dup3\n      add\n        /* \"#utility.yul\":11452:11514   */\n      mstore\n      shl(0x58, 0x2062652067726561746572207468616e207a65726f)\n        /* \"#utility.yul\":11530:11548   */\n      0x64\n      dup3\n      add\n        /* \"#utility.yul\":11523:11574   */\n      mstore\n        /* \"#utility.yul\":11591:11610   */\n      0x84\n      add\n        /* \"uniswap.sol\":4353:4465  require(... */\n      tag_127\n        /* \"#utility.yul\":11199:11616   */\n      jump\n        /* \"uniswap.sol\":4353:4465  require(... */\n    tag_191:\n        /* \"uniswap.sol\":4511:4512  2 */\n      0x02\n        /* \"uniswap.sol\":4496:4500  path */\n      dup3\n        /* \"uniswap.sol\":4496:4507  path.length */\n      mload\n        /* \"uniswap.sol\":4496:4512  path.length >= 2 */\n      lt\n      iszero\n        /* \"uniswap.sol\":4475:4588  require(... */\n      tag_194\n      jumpi\n      mload(0x40)\n      shl(0xe5, 0x461bcd)\n      dup2\n      mstore\n        /* \"#utility.yul\":11823:11825   */\n      0x20\n        /* \"uniswap.sol\":4475:4588  require(... */\n      0x04\n      dup3\n      add\n        /* \"#utility.yul\":11805:11826   */\n      mstore\n        /* \"#utility.yul\":11862:11864   */\n      0x32\n        /* \"#utility.yul\":11842:11860   */\n      0x24\n      dup3\n      add\n        /* \"#utility.yul\":11835:11865   */\n      mstore\n        /* \"#utility.yul\":11901:11935   */\n      0x556e69737761705632526f757465723a207061746820636f6e7461696e732061\n        /* \"#utility.yul\":11881:11899   */\n      0x44\n      dup3\n      add\n        /* \"#utility.yul\":11874:11936   */\n      mstore\n      shl(0x70, 0x74206c65617374203220656c656d656e7473)\n        /* \"#utility.yul\":11952:11970   */\n      0x64\n      dup3\n      add\n        /* \"#utility.yul\":11945:11993   */\n      mstore\n        /* \"#utility.yul\":12010:12029   */\n      0x84\n      add\n        /* \"uniswap.sol\":4475:4588  require(... */\n      tag_127\n        /* \"#utility.yul\":11621:12035   */\n      jump\n        /* \"uniswap.sol\":4475:4588  require(... */\n    tag_194:\n        /* \"uniswap.sol\":4620:4624  path */\n      dup2\n        /* \"uniswap.sol\":4620:4631  path.length */\n      mload\n        /* \"uniswap.sol\":4609:4632  new uint[](path.length) */\n      0xffffffffffffffff\n      dup2\n      gt\n      iszero\n      tag_198\n      jumpi\n      tag_198\n      tag_199\n      jump\t// in\n    tag_198:\n      mload(0x40)\n      swap1\n      dup1\n      dup3\n      mstore\n      dup1\n      0x20\n      mul\n      0x20\n      add\n      dup3\n      add\n      0x40\n      mstore\n      dup1\n      iszero\n      tag_200\n      jumpi\n      dup2\n      0x20\n      add\n      0x20\n      dup3\n      mul\n      dup1\n      calldatasize\n      dup4\n      calldatacopy\n      add\n      swap1\n      pop\n    tag_200:\n      pop\n        /* \"uniswap.sol\":4599:4632  amounts = new uint[](path.length) */\n      swap1\n      pop\n        /* \"uniswap.sol\":4655:4663  amountIn */\n      dup3\n        /* \"uniswap.sol\":4642:4649  amounts */\n      dup2\n        /* \"uniswap.sol\":4650:4651  0 */\n      0x00\n        /* \"uniswap.sol\":4642:4652  amounts[0] */\n      dup2\n      mload\n      dup2\n      lt\n      tag_202\n      jumpi\n      tag_202\n      tag_139\n      jump\t// in\n    tag_202:\n      0x20\n      mul\n      0x20\n      add\n      add\n        /* \"uniswap.sol\":4642:4663  amounts[0] = amountIn */\n      dup2\n      dup2\n      mstore\n      pop\n      pop\n        /* \"uniswap.sol\":4679:4685  uint i */\n      0x00\n        /* \"uniswap.sol\":4674:5346  for (uint i; i < path.length - 1; i++) {... */\n    tag_203:\n        /* \"uniswap.sol\":4705:4706  1 */\n      0x01\n        /* \"uniswap.sol\":4691:4695  path */\n      dup4\n        /* \"uniswap.sol\":4691:4702  path.length */\n      mload\n        /* \"uniswap.sol\":4691:4706  path.length - 1 */\n      tag_206\n      swap2\n      swap1\n      tag_207\n      jump\t// in\n    tag_206:\n        /* \"uniswap.sol\":4687:4688  i */\n      dup2\n        /* \"uniswap.sol\":4687:4706  i < path.length - 1 */\n      lt\n        /* \"uniswap.sol\":4674:5346  for (uint i; i < path.length - 1; i++) {... */\n      iszero\n      tag_204\n      jumpi\n        /* \"uniswap.sol\":4731:4743  tokenDetails */\n      0x97\n        /* \"uniswap.sol\":4731:4756  tokenDetails[path[i + 1]] */\n      0x00\n        /* \"uniswap.sol\":4744:4748  path */\n      dup5\n        /* \"uniswap.sol\":4749:4754  i + 1 */\n      tag_208\n        /* \"uniswap.sol\":4749:4750  i */\n      dup5\n        /* \"uniswap.sol\":4753:4754  1 */\n      0x01\n        /* \"uniswap.sol\":4749:4754  i + 1 */\n      tag_209\n      jump\t// in\n    tag_208:\n        /* \"uniswap.sol\":4744:4755  path[i + 1] */\n      dup2\n      mload\n      dup2\n      lt\n      tag_211\n      jumpi\n      tag_211\n      tag_139\n      jump\t// in\n    tag_211:\n      0x20\n      mul\n      0x20\n      add\n      add\n      mload\n      sub(shl(0xa0, 0x01), 0x01)\n        /* \"uniswap.sol\":4731:4756  tokenDetails[path[i + 1]] */\n      and\n      sub(shl(0xa0, 0x01), 0x01)\n      and\n      dup2\n      mstore\n      0x20\n      add\n      swap1\n      dup2\n      mstore\n      0x20\n      add\n      0x00\n      keccak256\n        /* \"uniswap.sol\":4731:4762  tokenDetails[path[i + 1]].price */\n      0x00\n      add\n      sload\n        /* \"uniswap.sol\":4766:4767  0 */\n      0x00\n        /* \"uniswap.sol\":4731:4767  tokenDetails[path[i + 1]].price != 0 */\n      eq\n        /* \"uniswap.sol\":4727:5336  if (tokenDetails[path[i + 1]].price != 0) {... */\n      tag_212\n      jumpi\n        /* \"uniswap.sol\":4802:4806  WETH */\n      immutable(\"0x272fee19618bddbc00febd3897af287776f225c94084e4d859902021d48f698c\")\n      sub(shl(0xa0, 0x01), 0x01)\n        /* \"uniswap.sol\":4791:4806  path[0] == WETH */\n      and\n        /* \"uniswap.sol\":4791:4795  path */\n      dup4\n        /* \"uniswap.sol\":4796:4797  0 */\n      0x00\n        /* \"uniswap.sol\":4791:4798  path[0] */\n      dup2\n      mload\n      dup2\n      lt\n      tag_214\n      jumpi\n      tag_214\n      tag_139\n      jump\t// in\n    tag_214:\n      0x20\n      mul\n      0x20\n      add\n      add\n      mload\n      sub(shl(0xa0, 0x01), 0x01)\n        /* \"uniswap.sol\":4791:4806  path[0] == WETH */\n      and\n      sub\n        /* \"uniswap.sol\":4787:5265  if (path[0] == WETH) {... */\n      tag_215\n      jumpi\n        /* \"uniswap.sol\":4915:4927  tokenDetails */\n      0x97\n        /* \"uniswap.sol\":4915:4940  tokenDetails[path[i + 1]] */\n      0x00\n        /* \"uniswap.sol\":4928:4932  path */\n      dup5\n        /* \"uniswap.sol\":4933:4938  i + 1 */\n      tag_216\n        /* \"uniswap.sol\":4933:4934  i */\n      dup5\n        /* \"uniswap.sol\":4937:4938  1 */\n      0x01\n        /* \"uniswap.sol\":4933:4938  i + 1 */\n      tag_209\n      jump\t// in\n    tag_216:\n        /* \"uniswap.sol\":4928:4939  path[i + 1] */\n      dup2\n      mload\n      dup2\n      lt\n      tag_218\n      jumpi\n      tag_218\n      tag_139\n      jump\t// in\n    tag_218:\n      0x20\n      mul\n      0x20\n      add\n      add\n      mload\n      sub(shl(0xa0, 0x01), 0x01)\n        /* \"uniswap.sol\":4915:4940  tokenDetails[path[i + 1]] */\n      and\n      sub(shl(0xa0, 0x01), 0x01)\n      and\n      dup2\n      mstore\n      0x20\n      add\n      swap1\n      dup2\n      mstore\n      0x20\n      add\n      0x00\n      keccak256\n        /* \"uniswap.sol\":4915:4946  tokenDetails[path[i + 1]].price */\n      0x00\n      add\n      sload\n        /* \"uniswap.sol\":4872:4880  amountIn */\n      dup5\n        /* \"uniswap.sol\":4883:4887  1e18 */\n      0x0de0b6b3a7640000\n        /* \"uniswap.sol\":4872:4887  amountIn * 1e18 */\n      tag_219\n      swap2\n      swap1\n      tag_220\n      jump\t// in\n    tag_219:\n        /* \"uniswap.sol\":4871:4946  (amountIn * 1e18) /... */\n      tag_221\n      swap2\n      swap1\n      tag_222\n      jump\t// in\n    tag_221:\n        /* \"uniswap.sol\":4830:4837  amounts */\n      dup3\n        /* \"uniswap.sol\":4838:4843  i + 1 */\n      tag_223\n        /* \"uniswap.sol\":4838:4839  i */\n      dup4\n        /* \"uniswap.sol\":4842:4843  1 */\n      0x01\n        /* \"uniswap.sol\":4838:4843  i + 1 */\n      tag_209\n      jump\t// in\n    tag_223:\n        /* \"uniswap.sol\":4830:4844  amounts[i + 1] */\n      dup2\n      mload\n      dup2\n      lt\n      tag_225\n      jumpi\n      tag_225\n      tag_139\n      jump\t// in\n    tag_225:\n      0x20\n      mul\n      0x20\n      add\n      add\n        /* \"uniswap.sol\":4830:4946  amounts[i + 1] =... */\n      dup2\n      dup2\n      mstore\n      pop\n      pop\n        /* \"uniswap.sol\":4727:5336  if (tokenDetails[path[i + 1]].price != 0) {... */\n      jump(tag_239)\n        /* \"uniswap.sol\":4787:5265  if (path[0] == WETH) {... */\n    tag_215:\n        /* \"uniswap.sol\":4993:5009  uint amountInEth */\n      0x00\n        /* \"uniswap.sol\":5110:5114  1e18 */\n      0x0de0b6b3a7640000\n        /* \"uniswap.sol\":5079:5091  tokenDetails */\n      0x97\n        /* \"uniswap.sol\":5079:5100  tokenDetails[path[0]] */\n      0x00\n        /* \"uniswap.sol\":5092:5096  path */\n      dup7\n        /* \"uniswap.sol\":5097:5098  0 */\n      0x00\n        /* \"uniswap.sol\":5092:5099  path[0] */\n      dup2\n      mload\n      dup2\n      lt\n      tag_228\n      jumpi\n      tag_228\n      tag_139\n      jump\t// in\n    tag_228:\n      0x20\n      mul\n      0x20\n      add\n      add\n      mload\n      sub(shl(0xa0, 0x01), 0x01)\n        /* \"uniswap.sol\":5079:5100  tokenDetails[path[0]] */\n      and\n      sub(shl(0xa0, 0x01), 0x01)\n      and\n      dup2\n      mstore\n      0x20\n      add\n      swap1\n      dup2\n      mstore\n      0x20\n      add\n      0x00\n      keccak256\n        /* \"uniswap.sol\":5079:5106  tokenDetails[path[0]].price */\n      0x00\n      add\n      sload\n        /* \"uniswap.sol\":5013:5021  amountIn */\n      dup7\n        /* \"uniswap.sol\":5048:5052  1e18 */\n      0x0de0b6b3a7640000\n        /* \"uniswap.sol\":5013:5052  amountIn *... */\n      tag_229\n      swap2\n      swap1\n      tag_220\n      jump\t// in\n    tag_229:\n        /* \"uniswap.sol\":5013:5106  amountIn *... */\n      tag_230\n      swap2\n      swap1\n      tag_220\n      jump\t// in\n    tag_230:\n        /* \"uniswap.sol\":5012:5114  (amountIn *... */\n      tag_231\n      swap2\n      swap1\n      tag_222\n      jump\t// in\n    tag_231:\n        /* \"uniswap.sol\":4993:5114  uint amountInEth = (amountIn *... */\n      swap1\n      pop\n        /* \"uniswap.sol\":5215:5227  tokenDetails */\n      0x97\n        /* \"uniswap.sol\":5215:5240  tokenDetails[path[i + 1]] */\n      0x00\n        /* \"uniswap.sol\":5228:5232  path */\n      dup6\n        /* \"uniswap.sol\":5233:5238  i + 1 */\n      tag_232\n        /* \"uniswap.sol\":5233:5234  i */\n      dup6\n        /* \"uniswap.sol\":5237:5238  1 */\n      0x01\n        /* \"uniswap.sol\":5233:5238  i + 1 */\n      tag_209\n      jump\t// in\n    tag_232:\n        /* \"uniswap.sol\":5228:5239  path[i + 1] */\n      dup2\n      mload\n      dup2\n      lt\n      tag_234\n      jumpi\n      tag_234\n      tag_139\n      jump\t// in\n    tag_234:\n      0x20\n      mul\n      0x20\n      add\n      add\n      mload\n      sub(shl(0xa0, 0x01), 0x01)\n        /* \"uniswap.sol\":5215:5240  tokenDetails[path[i + 1]] */\n      and\n      sub(shl(0xa0, 0x01), 0x01)\n      and\n      dup2\n      mstore\n      0x20\n      add\n      swap1\n      dup2\n      mstore\n      0x20\n      add\n      0x00\n      keccak256\n        /* \"uniswap.sol\":5215:5246  tokenDetails[path[i + 1]].price */\n      0x00\n      add\n      sload\n        /* \"uniswap.sol\":5177:5188  amountInEth */\n      dup2\n        /* \"uniswap.sol\":5177:5246  amountInEth /... */\n      tag_235\n      swap2\n      swap1\n      tag_222\n      jump\t// in\n    tag_235:\n        /* \"uniswap.sol\":5136:5143  amounts */\n      dup4\n        /* \"uniswap.sol\":5144:5149  i + 1 */\n      tag_236\n        /* \"uniswap.sol\":5144:5145  i */\n      dup5\n        /* \"uniswap.sol\":5148:5149  1 */\n      0x01\n        /* \"uniswap.sol\":5144:5149  i + 1 */\n      tag_209\n      jump\t// in\n    tag_236:\n        /* \"uniswap.sol\":5136:5150  amounts[i + 1] */\n      dup2\n      mload\n      dup2\n      lt\n      tag_238\n      jumpi\n      tag_238\n      tag_139\n      jump\t// in\n    tag_238:\n      0x20\n      mul\n      0x20\n      add\n      add\n        /* \"uniswap.sol\":5136:5246  amounts[i + 1] =... */\n      dup2\n      dup2\n      mstore\n      pop\n      pop\n        /* \"uniswap.sol\":4971:5265  {... */\n      pop\n        /* \"uniswap.sol\":4727:5336  if (tokenDetails[path[i + 1]].price != 0) {... */\n      jump(tag_239)\n    tag_212:\n        /* \"uniswap.sol\":5320:5321  0 */\n      0x00\n        /* \"uniswap.sol\":5303:5310  amounts */\n      dup3\n        /* \"uniswap.sol\":5311:5316  i + 1 */\n      tag_240\n        /* \"uniswap.sol\":5311:5312  i */\n      dup4\n        /* \"uniswap.sol\":5315:5316  1 */\n      0x01\n        /* \"uniswap.sol\":5311:5316  i + 1 */\n      tag_209\n      jump\t// in\n    tag_240:\n        /* \"uniswap.sol\":5303:5317  amounts[i + 1] */\n      dup2\n      mload\n      dup2\n      lt\n      tag_242\n      jumpi\n      tag_242\n      tag_139\n      jump\t// in\n    tag_242:\n      0x20\n      mul\n      0x20\n      add\n      add\n        /* \"uniswap.sol\":5303:5321  amounts[i + 1] = 0 */\n      dup2\n      dup2\n      mstore\n      pop\n      pop\n        /* \"uniswap.sol\":4727:5336  if (tokenDetails[path[i + 1]].price != 0) {... */\n    tag_239:\n        /* \"uniswap.sol\":4708:4711  i++ */\n      0x01\n      add\n        /* \"uniswap.sol\":4674:5346  for (uint i; i < path.length - 1; i++) {... */\n      jump(tag_203)\n    tag_204:\n      pop\n        /* \"uniswap.sol\":4210:5377  function getAmountsOut(uint amountIn, address[] memory path)... */\n      swap3\n      swap2\n      pop\n      pop\n      jump\t// out\n        /* \"@openzeppelin/contracts-upgradeable/access/AccessControlUpgradeable.sol\":5705:5852  function revokeRole(bytes32 role, address account) public virtual override onlyRole(getRoleAdmin(role)) {... */\n    tag_94:\n        /* \"@openzeppelin/contracts-upgradeable/access/AccessControlUpgradeable.sol\":4929:4936  bytes32 */\n      0x00\n        /* \"@openzeppelin/contracts-upgradeable/access/AccessControlUpgradeable.sol\":4955:4967  _roles[role] */\n      dup3\n      dup2\n      mstore\n        /* \"@openzeppelin/contracts-upgradeable/access/AccessControlUpgradeable.sol\":4955:4961  _roles */\n      0x65\n        /* \"@openzeppelin/contracts-upgradeable/access/AccessControlUpgradeable.sol\":4955:4967  _roles[role] */\n      0x20\n      mstore\n      0x40\n      swap1\n      keccak256\n        /* \"@openzeppelin/contracts-upgradeable/access/AccessControlUpgradeable.sol\":4955:4977  _roles[role].adminRole */\n      0x01\n      add\n      sload\n        /* \"@openzeppelin/contracts-upgradeable/access/AccessControlUpgradeable.sol\":2798:2814  _checkRole(role) */\n      tag_245\n        /* \"@openzeppelin/contracts-upgradeable/access/AccessControlUpgradeable.sol\":2809:2813  role */\n      dup2\n        /* \"@openzeppelin/contracts-upgradeable/access/AccessControlUpgradeable.sol\":2798:2808  _checkRole */\n      tag_119\n        /* \"@openzeppelin/contracts-upgradeable/access/AccessControlUpgradeable.sol\":2798:2814  _checkRole(role) */\n      jump\t// in\n    tag_245:\n        /* \"@openzeppelin/contracts-upgradeable/access/AccessControlUpgradeable.sol\":5819:5845  _revokeRole(role, account) */\n      tag_121\n        /* \"@openzeppelin/contracts-upgradeable/access/AccessControlUpgradeable.sol\":5831:5835  role */\n      dup4\n        /* \"@openzeppelin/contracts-upgradeable/access/AccessControlUpgradeable.sol\":5837:5844  account */\n      dup4\n        /* \"@openzeppelin/contracts-upgradeable/access/AccessControlUpgradeable.sol\":5819:5830  _revokeRole */\n      tag_130\n        /* \"@openzeppelin/contracts-upgradeable/access/AccessControlUpgradeable.sol\":5819:5845  _revokeRole(role, account) */\n      jump\t// in\n        /* \"uniswap.sol\":2649:3190  function setTokensDetails(... */\n    tag_105:\n        /* \"uniswap.sol\":2159:2185  keccak256(\"PRICE_MANAGER\") */\n      0xa451215b66f023bb76f9a9e7bc5c64156446b47b26061a8a32eaa319c45f695e\n        /* \"@openzeppelin/contracts-upgradeable/access/AccessControlUpgradeable.sol\":2798:2814  _checkRole(role) */\n      tag_249\n        /* \"@openzeppelin/contracts-upgradeable/access/AccessControlUpgradeable.sol\":2809:2813  role */\n      dup2\n        /* \"@openzeppelin/contracts-upgradeable/access/AccessControlUpgradeable.sol\":2798:2808  _checkRole */\n      tag_119\n        /* \"@openzeppelin/contracts-upgradeable/access/AccessControlUpgradeable.sol\":2798:2814  _checkRole(role) */\n      jump\t// in\n    tag_249:\n        /* \"uniswap.sol\":2882:2884  30 */\n      0x1e\n        /* \"uniswap.sol\":2857:2871  tokenAddresses */\n      dup5\n        /* \"uniswap.sol\":2857:2878  tokenAddresses.length */\n      mload\n        /* \"uniswap.sol\":2857:2884  tokenAddresses.length <= 30 */\n      gt\n      iszero\n        /* \"uniswap.sol\":2836:2980  require(... */\n      tag_251\n      jumpi\n      mload(0x40)\n      shl(0xe5, 0x461bcd)\n      dup2\n      mstore\n        /* \"#utility.yul\":13032:13034   */\n      0x20\n        /* \"uniswap.sol\":2836:2980  require(... */\n      0x04\n      dup3\n      add\n        /* \"#utility.yul\":13014:13035   */\n      mstore\n        /* \"#utility.yul\":13071:13073   */\n      0x46\n        /* \"#utility.yul\":13051:13069   */\n      0x24\n      dup3\n      add\n        /* \"#utility.yul\":13044:13074   */\n      mstore\n        /* \"#utility.yul\":13110:13144   */\n      0x556e69737761705632526f757465723a20546f6b656e73206172726179206973\n        /* \"#utility.yul\":13090:13108   */\n      0x44\n      dup3\n      add\n        /* \"#utility.yul\":13083:13145   */\n      mstore\n        /* \"#utility.yul\":13181:13215   */\n      0x20746f6f206c6f6e672c2072656475636520746865206e756d626572206f6620\n        /* \"#utility.yul\":13161:13179   */\n      0x64\n      dup3\n      add\n        /* \"#utility.yul\":13154:13216   */\n      mstore\n      shl(0xd0, 0x746f6b656e73)\n        /* \"#utility.yul\":13232:13251   */\n      0x84\n      dup3\n      add\n        /* \"#utility.yul\":13225:13262   */\n      mstore\n        /* \"#utility.yul\":13279:13298   */\n      0xa4\n      add\n        /* \"uniswap.sol\":2836:2980  require(... */\n      tag_127\n        /* \"#utility.yul\":12830:13304   */\n      jump\n        /* \"uniswap.sol\":2836:2980  require(... */\n    tag_251:\n        /* \"uniswap.sol\":2996:3005  uint256 i */\n      0x00\n        /* \"uniswap.sol\":2991:3184  for (uint256 i; i < tokenAddresses.length; i++) {... */\n    tag_254:\n        /* \"uniswap.sol\":3011:3025  tokenAddresses */\n      dup5\n        /* \"uniswap.sol\":3011:3032  tokenAddresses.length */\n      mload\n        /* \"uniswap.sol\":3007:3008  i */\n      dup2\n        /* \"uniswap.sol\":3007:3032  i < tokenAddresses.length */\n      lt\n        /* \"uniswap.sol\":2991:3184  for (uint256 i; i < tokenAddresses.length; i++) {... */\n      iszero\n      tag_255\n      jumpi\n        /* \"uniswap.sol\":3087:3173  TokenDetail(... */\n      mload(0x40)\n      dup1\n      0x40\n      add\n      0x40\n      mstore\n      dup1\n        /* \"uniswap.sol\":3116:3122  prices */\n      dup5\n        /* \"uniswap.sol\":3123:3124  i */\n      dup4\n        /* \"uniswap.sol\":3116:3125  prices[i] */\n      dup2\n      mload\n      dup2\n      lt\n      tag_258\n      jumpi\n      tag_258\n      tag_139\n      jump\t// in\n    tag_258:\n      0x20\n      mul\n      0x20\n      add\n      add\n      mload\n        /* \"uniswap.sol\":3087:3173  TokenDetail(... */\n      dup2\n      mstore\n      0x20\n      add\n        /* \"uniswap.sol\":3143:3156  tokenManagers */\n      dup6\n        /* \"uniswap.sol\":3157:3158  i */\n      dup4\n        /* \"uniswap.sol\":3143:3159  tokenManagers[i] */\n      dup2\n      mload\n      dup2\n      lt\n      tag_260\n      jumpi\n      tag_260\n      tag_139\n      jump\t// in\n    tag_260:\n      0x20\n      mul\n      0x20\n      add\n      add\n      mload\n      sub(shl(0xa0, 0x01), 0x01)\n        /* \"uniswap.sol\":3087:3173  TokenDetail(... */\n      and\n      dup2\n      mstore\n      pop\n        /* \"uniswap.sol\":3053:3065  tokenDetails */\n      0x97\n        /* \"uniswap.sol\":3053:3084  tokenDetails[tokenAddresses[i]] */\n      0x00\n        /* \"uniswap.sol\":3066:3080  tokenAddresses */\n      dup8\n        /* \"uniswap.sol\":3081:3082  i */\n      dup5\n        /* \"uniswap.sol\":3066:3083  tokenAddresses[i] */\n      dup2\n      mload\n      dup2\n      lt\n      tag_262\n      jumpi\n      tag_262\n      tag_139\n      jump\t// in\n    tag_262:\n      0x20\n      swap1\n      dup2\n      mul\n      swap2\n      swap1\n      swap2\n      add\n      dup2\n      add\n      mload\n      sub(shl(0xa0, 0x01), 0x01)\n        /* \"uniswap.sol\":3053:3084  tokenDetails[tokenAddresses[i]] */\n      swap1\n      dup2\n      and\n      dup4\n      mstore\n      dup3\n      dup3\n      add\n      swap4\n      swap1\n      swap4\n      mstore\n      0x40\n      swap1\n      swap2\n      add\n      0x00\n      keccak256\n        /* \"uniswap.sol\":3053:3173  tokenDetails[tokenAddresses[i]] = TokenDetail(... */\n      dup4\n      mload\n      dup2\n      sstore\n      swap3\n      add\n      mload\n      0x01\n      swap3\n      dup4\n      add\n      dup1\n      sload\n      not(sub(shl(0xa0, 0x01), 0x01))\n      and\n      swap2\n      swap1\n      swap3\n      and\n      or\n      swap1\n      sstore\n        /* \"uniswap.sol\":3034:3037  i++ */\n      add\n        /* \"uniswap.sol\":2991:3184  for (uint256 i; i < tokenAddresses.length; i++) {... */\n      jump(tag_254)\n    tag_255:\n      pop\n        /* \"uniswap.sol\":2649:3190  function setTokensDetails(... */\n      pop\n      pop\n      pop\n      pop\n      jump\t// out\n        /* \"uniswap.sol\":2420:2643  function setTokenDetails(... */\n    tag_110:\n        /* \"uniswap.sol\":2159:2185  keccak256(\"PRICE_MANAGER\") */\n      0xa451215b66f023bb76f9a9e7bc5c64156446b47b26061a8a32eaa319c45f695e\n        /* \"@openzeppelin/contracts-upgradeable/access/AccessControlUpgradeable.sol\":2798:2814  _checkRole(role) */\n      tag_264\n        /* \"@openzeppelin/contracts-upgradeable/access/AccessControlUpgradeable.sol\":2809:2813  role */\n      dup2\n        /* \"@openzeppelin/contracts-upgradeable/access/AccessControlUpgradeable.sol\":2798:2808  _checkRole */\n      tag_119\n        /* \"@openzeppelin/contracts-upgradeable/access/AccessControlUpgradeable.sol\":2798:2814  _checkRole(role) */\n      jump\t// in\n    tag_264:\n      pop\n        /* \"uniswap.sol\":2604:2636  TokenDetail(price, tokenManager) */\n      0x40\n      dup1\n      mload\n      dup1\n      dup3\n      add\n      dup3\n      mstore\n      swap2\n      dup3\n      mstore\n      sub(shl(0xa0, 0x01), 0x01)\n      swap3\n      dup4\n      and\n      0x20\n      dup1\n      dup5\n      add\n      swap2\n      dup3\n      mstore\n        /* \"uniswap.sol\":2575:2601  tokenDetails[tokenAddress] */\n      swap5\n      dup5\n      and\n      0x00\n      swap1\n      dup2\n      mstore\n        /* \"uniswap.sol\":2575:2587  tokenDetails */\n      0x97\n        /* \"uniswap.sol\":2575:2601  tokenDetails[tokenAddress] */\n      swap1\n      swap6\n      mstore\n      swap4\n      keccak256\n        /* \"uniswap.sol\":2575:2636  tokenDetails[tokenAddress] = TokenDetail(price, tokenManager) */\n      swap1\n      mload\n      dup2\n      sstore\n      swap2\n      mload\n      0x01\n      swap1\n      swap3\n      add\n      dup1\n      sload\n      not(sub(shl(0xa0, 0x01), 0x01))\n      and\n      swap3\n      swap1\n      swap2\n      and\n      swap2\n      swap1\n      swap2\n      or\n      swap1\n      sstore\n        /* \"uniswap.sol\":2420:2643  function setTokenDetails(... */\n      jump\t// out\n        /* \"@openzeppelin/contracts-upgradeable/access/AccessControlUpgradeable.sol\":3789:3892  function _checkRole(bytes32 role) internal view virtual {... */\n    tag_119:\n        /* \"@openzeppelin/contracts-upgradeable/access/AccessControlUpgradeable.sol\":3855:3885  _checkRole(role, _msgSender()) */\n      tag_268\n        /* \"@openzeppelin/contracts-upgradeable/access/AccessControlUpgradeable.sol\":3866:3870  role */\n      dup2\n        /* \"@openzeppelin/contracts-upgradeable/utils/ContextUpgradeable.sol\":965:975  msg.sender */\n      caller\n        /* \"@openzeppelin/contracts-upgradeable/access/AccessControlUpgradeable.sol\":3855:3865  _checkRole */\n      tag_270\n        /* \"@openzeppelin/contracts-upgradeable/access/AccessControlUpgradeable.sol\":3855:3885  _checkRole(role, _msgSender()) */\n      jump\t// in\n    tag_268:\n        /* \"@openzeppelin/contracts-upgradeable/access/AccessControlUpgradeable.sol\":3789:3892  function _checkRole(bytes32 role) internal view virtual {... */\n      pop\n      jump\t// out\n        /* \"@openzeppelin/contracts-upgradeable/access/AccessControlUpgradeable.sol\":7938:8171  function _grantRole(bytes32 role, address account) internal virtual {... */\n    tag_122:\n        /* \"@openzeppelin/contracts-upgradeable/access/AccessControlUpgradeable.sol\":8021:8043  hasRole(role, account) */\n      tag_272\n        /* \"@openzeppelin/contracts-upgradeable/access/AccessControlUpgradeable.sol\":8029:8033  role */\n      dup3\n        /* \"@openzeppelin/contracts-upgradeable/access/AccessControlUpgradeable.sol\":8035:8042  account */\n      dup3\n        /* \"@openzeppelin/contracts-upgradeable/access/AccessControlUpgradeable.sol\":8021:8028  hasRole */\n      tag_55\n        /* \"@openzeppelin/contracts-upgradeable/access/AccessControlUpgradeable.sol\":8021:8043  hasRole(role, account) */\n      jump\t// in\n    tag_272:\n        /* \"@openzeppelin/contracts-upgradeable/access/AccessControlUpgradeable.sol\":8016:8165  if (!hasRole(role, account)) {... */\n      tag_129\n      jumpi\n        /* \"@openzeppelin/contracts-upgradeable/access/AccessControlUpgradeable.sol\":8059:8071  _roles[role] */\n      0x00\n      dup3\n      dup2\n      mstore\n        /* \"@openzeppelin/contracts-upgradeable/access/AccessControlUpgradeable.sol\":8059:8065  _roles */\n      0x65\n        /* \"@openzeppelin/contracts-upgradeable/access/AccessControlUpgradeable.sol\":8059:8071  _roles[role] */\n      0x20\n      swap1\n      dup2\n      mstore\n      0x40\n      dup1\n      dup4\n      keccak256\n      sub(shl(0xa0, 0x01), 0x01)\n        /* \"@openzeppelin/contracts-upgradeable/access/AccessControlUpgradeable.sol\":8059:8088  _roles[role].members[account] */\n      dup6\n      and\n      dup5\n      mstore\n      swap1\n      swap2\n      mstore\n      swap1\n      keccak256\n        /* \"@openzeppelin/contracts-upgradeable/access/AccessControlUpgradeable.sol\":8059:8095  _roles[role].members[account] = true */\n      dup1\n      sload\n      not(0xff)\n      and\n        /* \"@openzeppelin/contracts-upgradeable/access/AccessControlUpgradeable.sol\":8091:8095  true */\n      0x01\n        /* \"@openzeppelin/contracts-upgradeable/access/AccessControlUpgradeable.sol\":8059:8095  _roles[role].members[account] = true */\n      or\n      swap1\n      sstore\n        /* \"@openzeppelin/contracts-upgradeable/access/AccessControlUpgradeable.sol\":8141:8153  _msgSender() */\n      tag_274\n        /* \"@openzeppelin/contracts-upgradeable/utils/ContextUpgradeable.sol\":965:975  msg.sender */\n      caller\n      swap1\n        /* \"@openzeppelin/contracts-upgradeable/utils/ContextUpgradeable.sol\":886:982  function _msgSender() internal view virtual returns (address) {... */\n      jump\n        /* \"@openzeppelin/contracts-upgradeable/access/AccessControlUpgradeable.sol\":8141:8153  _msgSender() */\n    tag_274:\n      sub(shl(0xa0, 0x01), 0x01)\n        /* \"@openzeppelin/contracts-upgradeable/access/AccessControlUpgradeable.sol\":8114:8154  RoleGranted(role, account, _msgSender()) */\n      and\n        /* \"@openzeppelin/contracts-upgradeable/access/AccessControlUpgradeable.sol\":8132:8139  account */\n      dup2\n      sub(shl(0xa0, 0x01), 0x01)\n        /* \"@openzeppelin/contracts-upgradeable/access/AccessControlUpgradeable.sol\":8114:8154  RoleGranted(role, account, _msgSender()) */\n      and\n        /* \"@openzeppelin/contracts-upgradeable/access/AccessControlUpgradeable.sol\":8126:8130  role */\n      dup4\n        /* \"@openzeppelin/contracts-upgradeable/access/AccessControlUpgradeable.sol\":8114:8154  RoleGranted(role, account, _msgSender()) */\n      0x2f8788117e7eff1d82e926ec794901d17c78024a50270940304540a733656f0d\n      mload(0x40)\n      mload(0x40)\n      dup1\n      swap2\n      sub\n      swap1\n      log4\n        /* \"@openzeppelin/contracts-upgradeable/access/AccessControlUpgradeable.sol\":7938:8171  function _grantRole(bytes32 role, address account) internal virtual {... */\n      pop\n      pop\n      jump\t// out\n        /* \"@openzeppelin/contracts-upgradeable/access/AccessControlUpgradeable.sol\":8342:8576  function _revokeRole(bytes32 role, address account) internal virtual {... */\n    tag_130:\n        /* \"@openzeppelin/contracts-upgradeable/access/AccessControlUpgradeable.sol\":8425:8447  hasRole(role, account) */\n      tag_277\n        /* \"@openzeppelin/contracts-upgradeable/access/AccessControlUpgradeable.sol\":8433:8437  role */\n      dup3\n        /* \"@openzeppelin/contracts-upgradeable/access/AccessControlUpgradeable.sol\":8439:8446  account */\n      dup3\n        /* \"@openzeppelin/contracts-upgradeable/access/AccessControlUpgradeable.sol\":8425:8432  hasRole */\n      tag_55\n        /* \"@openzeppelin/contracts-upgradeable/access/AccessControlUpgradeable.sol\":8425:8447  hasRole(role, account) */\n      jump\t// in\n    tag_277:\n        /* \"@openzeppelin/contracts-upgradeable/access/AccessControlUpgradeable.sol\":8421:8570  if (hasRole(role, account)) {... */\n      iszero\n      tag_129\n      jumpi\n        /* \"@openzeppelin/contracts-upgradeable/access/AccessControlUpgradeable.sol\":8495:8500  false */\n      0x00\n        /* \"@openzeppelin/contracts-upgradeable/access/AccessControlUpgradeable.sol\":8463:8475  _roles[role] */\n      dup3\n      dup2\n      mstore\n        /* \"@openzeppelin/contracts-upgradeable/access/AccessControlUpgradeable.sol\":8463:8469  _roles */\n      0x65\n        /* \"@openzeppelin/contracts-upgradeable/access/AccessControlUpgradeable.sol\":8463:8475  _roles[role] */\n      0x20\n      swap1\n      dup2\n      mstore\n      0x40\n      dup1\n      dup4\n      keccak256\n      sub(shl(0xa0, 0x01), 0x01)\n        /* \"@openzeppelin/contracts-upgradeable/access/AccessControlUpgradeable.sol\":8463:8492  _roles[role].members[account] */\n      dup6\n      and\n      dup1\n      dup6\n      mstore\n      swap3\n      mstore\n      dup1\n      dup4\n      keccak256\n        /* \"@openzeppelin/contracts-upgradeable/access/AccessControlUpgradeable.sol\":8463:8500  _roles[role].members[account] = false */\n      dup1\n      sload\n      not(0xff)\n      and\n      swap1\n      sstore\n        /* \"@openzeppelin/contracts-upgradeable/access/AccessControlUpgradeable.sol\":8519:8559  RoleRevoked(role, account, _msgSender()) */\n      mload\n        /* \"@openzeppelin/contracts-upgradeable/utils/ContextUpgradeable.sol\":965:975  msg.sender */\n      caller\n      swap3\n        /* \"@openzeppelin/contracts-upgradeable/access/AccessControlUpgradeable.sol\":8463:8475  _roles[role] */\n      dup6\n      swap2\n        /* \"@openzeppelin/contracts-upgradeable/access/AccessControlUpgradeable.sol\":8519:8559  RoleRevoked(role, account, _msgSender()) */\n      0xf6391f5c32d9c69d2a47ea670b442974b53935d1edc7fd64eb21e047a839171b\n      swap2\n        /* \"@openzeppelin/contracts-upgradeable/access/AccessControlUpgradeable.sol\":8495:8500  false */\n      swap1\n        /* \"@openzeppelin/contracts-upgradeable/access/AccessControlUpgradeable.sol\":8519:8559  RoleRevoked(role, account, _msgSender()) */\n      log4\n        /* \"@openzeppelin/contracts-upgradeable/access/AccessControlUpgradeable.sol\":8342:8576  function _revokeRole(bytes32 role, address account) internal virtual {... */\n      pop\n      pop\n      jump\t// out\n        /* \"@openzeppelin/contracts-upgradeable/access/AccessControlUpgradeable.sol\":4173:4674  function _checkRole(bytes32 role, address account) internal view virtual {... */\n    tag_270:\n        /* \"@openzeppelin/contracts-upgradeable/access/AccessControlUpgradeable.sol\":4261:4283  hasRole(role, account) */\n      tag_281\n        /* \"@openzeppelin/contracts-upgradeable/access/AccessControlUpgradeable.sol\":4269:4273  role */\n      dup3\n        /* \"@openzeppelin/contracts-upgradeable/access/AccessControlUpgradeable.sol\":4275:4282  account */\n      dup3\n        /* \"@openzeppelin/contracts-upgradeable/access/AccessControlUpgradeable.sol\":4261:4268  hasRole */\n      tag_55\n        /* \"@openzeppelin/contracts-upgradeable/access/AccessControlUpgradeable.sol\":4261:4283  hasRole(role, account) */\n      jump\t// in\n    tag_281:\n        /* \"@openzeppelin/contracts-upgradeable/access/AccessControlUpgradeable.sol\":4256:4668  if (!hasRole(role, account)) {... */\n      tag_129\n      jumpi\n        /* \"@openzeppelin/contracts-upgradeable/access/AccessControlUpgradeable.sol\":4444:4483  StringsUpgradeable.toHexString(account) */\n      tag_283\n        /* \"@openzeppelin/contracts-upgradeable/access/AccessControlUpgradeable.sol\":4475:4482  account */\n      dup2\n        /* \"@openzeppelin/contracts-upgradeable/access/AccessControlUpgradeable.sol\":4444:4474  StringsUpgradeable.toHexString */\n      tag_284\n        /* \"@openzeppelin/contracts-upgradeable/access/AccessControlUpgradeable.sol\":4444:4483  StringsUpgradeable.toHexString(account) */\n      jump\t// in\n    tag_283:\n        /* \"@openzeppelin/contracts-upgradeable/access/AccessControlUpgradeable.sol\":4554:4603  StringsUpgradeable.toHexString(uint256(role), 32) */\n      tag_285\n        /* \"@openzeppelin/contracts-upgradeable/access/AccessControlUpgradeable.sol\":4593:4597  role */\n      dup4\n        /* \"@openzeppelin/contracts-upgradeable/access/AccessControlUpgradeable.sol\":4600:4602  32 */\n      0x20\n        /* \"@openzeppelin/contracts-upgradeable/access/AccessControlUpgradeable.sol\":4554:4584  StringsUpgradeable.toHexString */\n      tag_286\n        /* \"@openzeppelin/contracts-upgradeable/access/AccessControlUpgradeable.sol\":4554:4603  StringsUpgradeable.toHexString(uint256(role), 32) */\n      jump\t// in\n    tag_285:\n        /* \"@openzeppelin/contracts-upgradeable/access/AccessControlUpgradeable.sol\":4351:4625  abi.encodePacked(... */\n      add(0x20, mload(0x40))\n      tag_287\n      swap3\n      swap2\n      swap1\n      tag_288\n      jump\t// in\n    tag_287:\n      0x40\n      dup1\n      mload\n      not(0x1f)\n      dup2\n      dup5\n      sub\n      add\n      dup2\n      mstore\n      swap1\n      dup3\n      swap1\n      mstore\n      shl(0xe5, 0x461bcd)\n        /* \"@openzeppelin/contracts-upgradeable/access/AccessControlUpgradeable.sol\":4299:4657  revert(... */\n      dup3\n      mstore\n      tag_127\n      swap2\n      0x04\n      add\n      tag_290\n      jump\t// in\n        /* \"@openzeppelin/contracts-upgradeable/utils/StringsUpgradeable.sol\":2473:2622  function toHexString(address addr) internal pure returns (string memory) {... */\n    tag_284:\n        /* \"@openzeppelin/contracts-upgradeable/utils/StringsUpgradeable.sol\":2531:2544  string memory */\n      0x60\n        /* \"@openzeppelin/contracts-upgradeable/utils/StringsUpgradeable.sol\":2563:2615  toHexString(uint256(uint160(addr)), _ADDRESS_LENGTH) */\n      tag_113\n      sub(shl(0xa0, 0x01), 0x01)\n        /* \"@openzeppelin/contracts-upgradeable/utils/StringsUpgradeable.sol\":2575:2597  uint256(uint160(addr)) */\n      dup4\n      and\n        /* \"@openzeppelin/contracts-upgradeable/utils/StringsUpgradeable.sol\":376:378  20 */\n      0x14\n        /* \"@openzeppelin/contracts-upgradeable/utils/StringsUpgradeable.sol\":1884:2321  function toHexString(uint256 value, uint256 length) internal pure returns (string memory) {... */\n    tag_286:\n        /* \"@openzeppelin/contracts-upgradeable/utils/StringsUpgradeable.sol\":1959:1972  string memory */\n      0x60\n        /* \"@openzeppelin/contracts-upgradeable/utils/StringsUpgradeable.sol\":1984:2003  bytes memory buffer */\n      0x00\n        /* \"@openzeppelin/contracts-upgradeable/utils/StringsUpgradeable.sol\":2016:2026  2 * length */\n      tag_294\n        /* \"@openzeppelin/contracts-upgradeable/utils/StringsUpgradeable.sol\":2020:2026  length */\n      dup4\n        /* \"@openzeppelin/contracts-upgradeable/utils/StringsUpgradeable.sol\":2016:2017  2 */\n      0x02\n        /* \"@openzeppelin/contracts-upgradeable/utils/StringsUpgradeable.sol\":2016:2026  2 * length */\n      tag_220\n      jump\t// in\n    tag_294:\n        /* \"@openzeppelin/contracts-upgradeable/utils/StringsUpgradeable.sol\":2016:2030  2 * length + 2 */\n      tag_295\n      swap1\n        /* \"@openzeppelin/contracts-upgradeable/utils/StringsUpgradeable.sol\":2029:2030  2 */\n      0x02\n        /* \"@openzeppelin/contracts-upgradeable/utils/StringsUpgradeable.sol\":2016:2030  2 * length + 2 */\n      tag_209\n      jump\t// in\n    tag_295:\n        /* \"@openzeppelin/contracts-upgradeable/utils/StringsUpgradeable.sol\":2006:2031  new bytes(2 * length + 2) */\n      0xffffffffffffffff\n      dup2\n      gt\n      iszero\n      tag_297\n      jumpi\n      tag_297\n      tag_199\n      jump\t// in\n    tag_297:\n      mload(0x40)\n      swap1\n      dup1\n      dup3\n      mstore\n      dup1\n      0x1f\n      add\n      not(0x1f)\n      and\n      0x20\n      add\n      dup3\n      add\n      0x40\n      mstore\n      dup1\n      iszero\n      tag_298\n      jumpi\n      0x20\n      dup3\n      add\n      dup2\n      dup1\n      calldatasize\n      dup4\n      calldatacopy\n      add\n      swap1\n      pop\n    tag_298:\n      pop\n        /* \"@openzeppelin/contracts-upgradeable/utils/StringsUpgradeable.sol\":1984:2031  bytes memory buffer = new bytes(2 * length + 2) */\n      swap1\n      pop\n      shl(0xfc, 0x03)\n        /* \"@openzeppelin/contracts-upgradeable/utils/StringsUpgradeable.sol\":2041:2047  buffer */\n      dup2\n        /* \"@openzeppelin/contracts-upgradeable/utils/StringsUpgradeable.sol\":2048:2049  0 */\n      0x00\n        /* \"@openzeppelin/contracts-upgradeable/utils/StringsUpgradeable.sol\":2041:2050  buffer[0] */\n      dup2\n      mload\n      dup2\n      lt\n      tag_300\n      jumpi\n      tag_300\n      tag_139\n      jump\t// in\n    tag_300:\n      0x20\n      add\n      add\n        /* \"@openzeppelin/contracts-upgradeable/utils/StringsUpgradeable.sol\":2041:2056  buffer[0] = \"0\" */\n      swap1\n      not(sub(shl(0xf8, 0x01), 0x01))\n      and\n      swap1\n      dup2\n      0x00\n      byte\n      swap1\n      mstore8\n      pop\n      shl(0xfb, 0x0f)\n        /* \"@openzeppelin/contracts-upgradeable/utils/StringsUpgradeable.sol\":2066:2072  buffer */\n      dup2\n        /* \"@openzeppelin/contracts-upgradeable/utils/StringsUpgradeable.sol\":2073:2074  1 */\n      0x01\n        /* \"@openzeppelin/contracts-upgradeable/utils/StringsUpgradeable.sol\":2066:2075  buffer[1] */\n      dup2\n      mload\n      dup2\n      lt\n      tag_302\n      jumpi\n      tag_302\n      tag_139\n      jump\t// in\n    tag_302:\n      0x20\n      add\n      add\n        /* \"@openzeppelin/contracts-upgradeable/utils/StringsUpgradeable.sol\":2066:2081  buffer[1] = \"x\" */\n      swap1\n      not(sub(shl(0xf8, 0x01), 0x01))\n      and\n      swap1\n      dup2\n      0x00\n      byte\n      swap1\n      mstore8\n      pop\n        /* \"@openzeppelin/contracts-upgradeable/utils/StringsUpgradeable.sol\":2096:2105  uint256 i */\n      0x00\n        /* \"@openzeppelin/contracts-upgradeable/utils/StringsUpgradeable.sol\":2108:2118  2 * length */\n      tag_306\n        /* \"@openzeppelin/contracts-upgradeable/utils/StringsUpgradeable.sol\":2112:2118  length */\n      dup5\n        /* \"@openzeppelin/contracts-upgradeable/utils/StringsUpgradeable.sol\":2108:2109  2 */\n      0x02\n        /* \"@openzeppelin/contracts-upgradeable/utils/StringsUpgradeable.sol\":2108:2118  2 * length */\n      tag_220\n      jump\t// in\n    tag_306:\n        /* \"@openzeppelin/contracts-upgradeable/utils/StringsUpgradeable.sol\":2108:2122  2 * length + 1 */\n      tag_307\n      swap1\n        /* \"@openzeppelin/contracts-upgradeable/utils/StringsUpgradeable.sol\":2121:2122  1 */\n      0x01\n        /* \"@openzeppelin/contracts-upgradeable/utils/StringsUpgradeable.sol\":2108:2122  2 * length + 1 */\n      tag_209\n      jump\t// in\n    tag_307:\n        /* \"@openzeppelin/contracts-upgradeable/utils/StringsUpgradeable.sol\":2096:2122  uint256 i = 2 * length + 1 */\n      swap1\n      pop\n        /* \"@openzeppelin/contracts-upgradeable/utils/StringsUpgradeable.sol\":2091:2219  for (uint256 i = 2 * length + 1; i > 1; --i) {... */\n    tag_303:\n        /* \"@openzeppelin/contracts-upgradeable/utils/StringsUpgradeable.sol\":2128:2129  1 */\n      0x01\n        /* \"@openzeppelin/contracts-upgradeable/utils/StringsUpgradeable.sol\":2124:2125  i */\n      dup2\n        /* \"@openzeppelin/contracts-upgradeable/utils/StringsUpgradeable.sol\":2124:2129  i > 1 */\n      gt\n        /* \"@openzeppelin/contracts-upgradeable/utils/StringsUpgradeable.sol\":2091:2219  for (uint256 i = 2 * length + 1; i > 1; --i) {... */\n      iszero\n      tag_304\n      jumpi\n      shl(0x81, 0x181899199a1a9b1b9c1cb0b131b232b3)\n        /* \"@openzeppelin/contracts-upgradeable/utils/StringsUpgradeable.sol\":2171:2176  value */\n      dup6\n        /* \"@openzeppelin/contracts-upgradeable/utils/StringsUpgradeable.sol\":2179:2182  0xf */\n      0x0f\n        /* \"@openzeppelin/contracts-upgradeable/utils/StringsUpgradeable.sol\":2171:2182  value & 0xf */\n      and\n        /* \"@openzeppelin/contracts-upgradeable/utils/StringsUpgradeable.sol\":2162:2183  _SYMBOLS[value & 0xf] */\n      0x10\n      dup2\n      lt\n      tag_309\n      jumpi\n      tag_309\n      tag_139\n      jump\t// in\n    tag_309:\n      byte\n      0xf8\n      shl\n        /* \"@openzeppelin/contracts-upgradeable/utils/StringsUpgradeable.sol\":2150:2156  buffer */\n      dup3\n        /* \"@openzeppelin/contracts-upgradeable/utils/StringsUpgradeable.sol\":2157:2158  i */\n      dup3\n        /* \"@openzeppelin/contracts-upgradeable/utils/StringsUpgradeable.sol\":2150:2159  buffer[i] */\n      dup2\n      mload\n      dup2\n      lt\n      tag_311\n      jumpi\n      tag_311\n      tag_139\n      jump\t// in\n    tag_311:\n      0x20\n      add\n      add\n        /* \"@openzeppelin/contracts-upgradeable/utils/StringsUpgradeable.sol\":2150:2183  buffer[i] = _SYMBOLS[value & 0xf] */\n      swap1\n      not(sub(shl(0xf8, 0x01), 0x01))\n      and\n      swap1\n      dup2\n      0x00\n      byte\n      swap1\n      mstore8\n      pop\n        /* \"@openzeppelin/contracts-upgradeable/utils/StringsUpgradeable.sol\":2207:2208  4 */\n      0x04\n        /* \"@openzeppelin/contracts-upgradeable/utils/StringsUpgradeable.sol\":2197:2208  value >>= 4 */\n      swap5\n      swap1\n      swap5\n      shr\n      swap4\n        /* \"@openzeppelin/contracts-upgradeable/utils/StringsUpgradeable.sol\":2131:2134  --i */\n      tag_312\n      dup2\n      tag_313\n      jump\t// in\n    tag_312:\n      swap1\n      pop\n        /* \"@openzeppelin/contracts-upgradeable/utils/StringsUpgradeable.sol\":2091:2219  for (uint256 i = 2 * length + 1; i > 1; --i) {... */\n      jump(tag_303)\n    tag_304:\n      pop\n        /* \"@openzeppelin/contracts-upgradeable/utils/StringsUpgradeable.sol\":2236:2246  value == 0 */\n      dup4\n      iszero\n        /* \"@openzeppelin/contracts-upgradeable/utils/StringsUpgradeable.sol\":2228:2283  require(value == 0, \"Strings: hex length insufficient\") */\n      tag_314\n      jumpi\n      mload(0x40)\n      shl(0xe5, 0x461bcd)\n      dup2\n      mstore\n        /* \"#utility.yul\":14892:14894   */\n      0x20\n        /* \"@openzeppelin/contracts-upgradeable/utils/StringsUpgradeable.sol\":2228:2283  require(value == 0, \"Strings: hex length insufficient\") */\n      0x04\n      dup3\n      add\n        /* \"#utility.yul\":14874:14895   */\n      dup2\n      swap1\n      mstore\n        /* \"#utility.yul\":14911:14929   */\n      0x24\n      dup3\n      add\n        /* \"#utility.yul\":14904:14934   */\n      mstore\n        /* \"#utility.yul\":14970:15004   */\n      0x537472696e67733a20686578206c656e67746820696e73756666696369656e74\n        /* \"#utility.yul\":14950:14968   */\n      0x44\n      dup3\n      add\n        /* \"#utility.yul\":14943:15005   */\n      mstore\n        /* \"#utility.yul\":15022:15040   */\n      0x64\n      add\n        /* \"@openzeppelin/contracts-upgradeable/utils/StringsUpgradeable.sol\":2228:2283  require(value == 0, \"Strings: hex length insufficient\") */\n      tag_127\n        /* \"#utility.yul\":14690:15046   */\n      jump\n        /* \"@openzeppelin/contracts-upgradeable/utils/StringsUpgradeable.sol\":2228:2283  require(value == 0, \"Strings: hex length insufficient\") */\n    tag_314:\n        /* \"@openzeppelin/contracts-upgradeable/utils/StringsUpgradeable.sol\":2307:2313  buffer */\n      swap4\n        /* \"@openzeppelin/contracts-upgradeable/utils/StringsUpgradeable.sol\":1884:2321  function toHexString(uint256 value, uint256 length) internal pure returns (string memory) {... */\n      swap3\n      pop\n      pop\n      pop\n      jump\t// out\n        /* \"#utility.yul\":14:300   */\n    tag_25:\n        /* \"#utility.yul\":72:78   */\n      0x00\n        /* \"#utility.yul\":125:127   */\n      0x20\n        /* \"#utility.yul\":113:122   */\n      dup3\n        /* \"#utility.yul\":104:111   */\n      dup5\n        /* \"#utility.yul\":100:123   */\n      sub\n        /* \"#utility.yul\":96:128   */\n      slt\n        /* \"#utility.yul\":93:145   */\n      iszero\n      tag_325\n      jumpi\n        /* \"#utility.yul\":141:142   */\n      0x00\n        /* \"#utility.yul\":138:139   */\n      0x00\n        /* \"#utility.yul\":131:143   */\n      revert\n        /* \"#utility.yul\":93:145   */\n    tag_325:\n        /* \"#utility.yul\":167:190   */\n      dup2\n      calldataload\n      not(sub(shl(0xe0, 0x01), 0x01))\n        /* \"#utility.yul\":219:251   */\n      dup2\n      and\n        /* \"#utility.yul\":209:252   */\n      dup2\n      eq\n        /* \"#utility.yul\":199:270   */\n      tag_314\n      jumpi\n        /* \"#utility.yul\":266:267   */\n      0x00\n        /* \"#utility.yul\":263:264   */\n      0x00\n        /* \"#utility.yul\":256:268   */\n      revert\n        /* \"#utility.yul\":497:723   */\n    tag_32:\n        /* \"#utility.yul\":556:562   */\n      0x00\n        /* \"#utility.yul\":609:611   */\n      0x20\n        /* \"#utility.yul\":597:606   */\n      dup3\n        /* \"#utility.yul\":588:595   */\n      dup5\n        /* \"#utility.yul\":584:607   */\n      sub\n        /* \"#utility.yul\":580:612   */\n      slt\n        /* \"#utility.yul\":577:629   */\n      iszero\n      tag_329\n      jumpi\n        /* \"#utility.yul\":625:626   */\n      0x00\n        /* \"#utility.yul\":622:623   */\n      0x00\n        /* \"#utility.yul\":615:627   */\n      revert\n        /* \"#utility.yul\":577:629   */\n    tag_329:\n      pop\n        /* \"#utility.yul\":670:693   */\n      calldataload\n      swap2\n        /* \"#utility.yul\":497:723   */\n      swap1\n      pop\n      jump\t// out\n        /* \"#utility.yul\":910:1083   */\n    tag_317:\n        /* \"#utility.yul\":978:998   */\n      dup1\n      calldataload\n      sub(shl(0xa0, 0x01), 0x01)\n        /* \"#utility.yul\":1027:1058   */\n      dup2\n      and\n        /* \"#utility.yul\":1017:1059   */\n      dup2\n      eq\n        /* \"#utility.yul\":1007:1077   */\n      tag_332\n      jumpi\n        /* \"#utility.yul\":1073:1074   */\n      0x00\n        /* \"#utility.yul\":1070:1071   */\n      0x00\n        /* \"#utility.yul\":1063:1075   */\n      revert\n        /* \"#utility.yul\":1007:1077   */\n    tag_332:\n        /* \"#utility.yul\":910:1083   */\n      swap2\n      swap1\n      pop\n      jump\t// out\n        /* \"#utility.yul\":1088:1388   */\n    tag_39:\n        /* \"#utility.yul\":1156:1162   */\n      0x00\n        /* \"#utility.yul\":1164:1170   */\n      0x00\n        /* \"#utility.yul\":1217:1219   */\n      0x40\n        /* \"#utility.yul\":1205:1214   */\n      dup4\n        /* \"#utility.yul\":1196:1203   */\n      dup6\n        /* \"#utility.yul\":1192:1215   */\n      sub\n        /* \"#utility.yul\":1188:1220   */\n      slt\n        /* \"#utility.yul\":1185:1237   */\n      iszero\n      tag_334\n      jumpi\n        /* \"#utility.yul\":1233:1234   */\n      0x00\n        /* \"#utility.yul\":1230:1231   */\n      0x00\n        /* \"#utility.yul\":1223:1235   */\n      revert\n        /* \"#utility.yul\":1185:1237   */\n    tag_334:\n        /* \"#utility.yul\":1278:1301   */\n      dup3\n      calldataload\n      swap2\n      pop\n        /* \"#utility.yul\":1344:1382   */\n      tag_335\n        /* \"#utility.yul\":1378:1380   */\n      0x20\n        /* \"#utility.yul\":1363:1381   */\n      dup5\n      add\n        /* \"#utility.yul\":1344:1382   */\n      tag_317\n      jump\t// in\n    tag_335:\n        /* \"#utility.yul\":1334:1382   */\n      swap1\n      pop\n        /* \"#utility.yul\":1088:1388   */\n      swap3\n      pop\n      swap3\n      swap1\n      pop\n      jump\t// out\n        /* \"#utility.yul\":1393:1579   */\n    tag_48:\n        /* \"#utility.yul\":1452:1458   */\n      0x00\n        /* \"#utility.yul\":1505:1507   */\n      0x20\n        /* \"#utility.yul\":1493:1502   */\n      dup3\n        /* \"#utility.yul\":1484:1491   */\n      dup5\n        /* \"#utility.yul\":1480:1503   */\n      sub\n        /* \"#utility.yul\":1476:1508   */\n      slt\n        /* \"#utility.yul\":1473:1525   */\n      iszero\n      tag_337\n      jumpi\n        /* \"#utility.yul\":1521:1522   */\n      0x00\n        /* \"#utility.yul\":1518:1519   */\n      0x00\n        /* \"#utility.yul\":1511:1523   */\n      revert\n        /* \"#utility.yul\":1473:1525   */\n    tag_337:\n        /* \"#utility.yul\":1544:1573   */\n      tag_314\n        /* \"#utility.yul\":1563:1572   */\n      dup3\n        /* \"#utility.yul\":1544:1573   */\n      tag_317\n      jump\t// in\n        /* \"#utility.yul\":2128:3047   */\n    tag_72:\n        /* \"#utility.yul\":2241:2247   */\n      0x00\n        /* \"#utility.yul\":2249:2255   */\n      0x00\n        /* \"#utility.yul\":2257:2263   */\n      0x00\n        /* \"#utility.yul\":2265:2271   */\n      0x00\n        /* \"#utility.yul\":2273:2279   */\n      0x00\n        /* \"#utility.yul\":2326:2329   */\n      0x80\n        /* \"#utility.yul\":2314:2323   */\n      dup7\n        /* \"#utility.yul\":2305:2312   */\n      dup9\n        /* \"#utility.yul\":2301:2324   */\n      sub\n        /* \"#utility.yul\":2297:2330   */\n      slt\n        /* \"#utility.yul\":2294:2347   */\n      iszero\n      tag_342\n      jumpi\n        /* \"#utility.yul\":2343:2344   */\n      0x00\n        /* \"#utility.yul\":2340:2341   */\n      0x00\n        /* \"#utility.yul\":2333:2345   */\n      revert\n        /* \"#utility.yul\":2294:2347   */\n    tag_342:\n        /* \"#utility.yul\":2388:2411   */\n      dup6\n      calldataload\n      swap5\n      pop\n        /* \"#utility.yul\":2486:2488   */\n      0x20\n        /* \"#utility.yul\":2471:2489   */\n      dup7\n      add\n        /* \"#utility.yul\":2458:2490   */\n      calldataload\n        /* \"#utility.yul\":2513:2531   */\n      0xffffffffffffffff\n        /* \"#utility.yul\":2502:2532   */\n      dup2\n      gt\n        /* \"#utility.yul\":2499:2549   */\n      iszero\n      tag_343\n      jumpi\n        /* \"#utility.yul\":2545:2546   */\n      0x00\n        /* \"#utility.yul\":2542:2543   */\n      0x00\n        /* \"#utility.yul\":2535:2547   */\n      revert\n        /* \"#utility.yul\":2499:2549   */\n    tag_343:\n        /* \"#utility.yul\":2568:2590   */\n      dup7\n      add\n        /* \"#utility.yul\":2621:2625   */\n      0x1f\n        /* \"#utility.yul\":2613:2626   */\n      dup2\n      add\n        /* \"#utility.yul\":2609:2636   */\n      dup9\n      sgt\n        /* \"#utility.yul\":2599:2654   */\n      tag_344\n      jumpi\n        /* \"#utility.yul\":2650:2651   */\n      0x00\n        /* \"#utility.yul\":2647:2648   */\n      0x00\n        /* \"#utility.yul\":2640:2652   */\n      revert\n        /* \"#utility.yul\":2599:2654   */\n    tag_344:\n        /* \"#utility.yul\":2690:2692   */\n      dup1\n        /* \"#utility.yul\":2677:2693   */\n      calldataload\n        /* \"#utility.yul\":2716:2734   */\n      0xffffffffffffffff\n        /* \"#utility.yul\":2708:2714   */\n      dup2\n        /* \"#utility.yul\":2705:2735   */\n      gt\n        /* \"#utility.yul\":2702:2752   */\n      iszero\n      tag_345\n      jumpi\n        /* \"#utility.yul\":2748:2749   */\n      0x00\n        /* \"#utility.yul\":2745:2746   */\n      0x00\n        /* \"#utility.yul\":2738:2750   */\n      revert\n        /* \"#utility.yul\":2702:2752   */\n    tag_345:\n        /* \"#utility.yul\":2801:2808   */\n      dup9\n        /* \"#utility.yul\":2796:2798   */\n      0x20\n        /* \"#utility.yul\":2786:2792   */\n      dup3\n        /* \"#utility.yul\":2783:2784   */\n      0x05\n        /* \"#utility.yul\":2779:2793   */\n      shl\n        /* \"#utility.yul\":2775:2777   */\n      dup5\n        /* \"#utility.yul\":2771:2794   */\n      add\n        /* \"#utility.yul\":2767:2799   */\n      add\n        /* \"#utility.yul\":2764:2809   */\n      gt\n        /* \"#utility.yul\":2761:2826   */\n      iszero\n      tag_346\n      jumpi\n        /* \"#utility.yul\":2822:2823   */\n      0x00\n        /* \"#utility.yul\":2819:2820   */\n      0x00\n        /* \"#utility.yul\":2812:2824   */\n      revert\n        /* \"#utility.yul\":2761:2826   */\n    tag_346:\n        /* \"#utility.yul\":2853:2855   */\n      0x20\n        /* \"#utility.yul\":2845:2856   */\n      swap2\n      swap1\n      swap2\n      add\n      swap5\n      pop\n        /* \"#utility.yul\":2875:2881   */\n      swap3\n      pop\n        /* \"#utility.yul\":2900:2938   */\n      tag_347\n        /* \"#utility.yul\":2934:2936   */\n      0x40\n        /* \"#utility.yul\":2919:2937   */\n      dup8\n      add\n        /* \"#utility.yul\":2900:2938   */\n      tag_317\n      jump\t// in\n    tag_347:\n        /* \"#utility.yul\":2128:3047   */\n      swap5\n      swap8\n      swap4\n      swap7\n      pop\n      swap2\n      swap5\n        /* \"#utility.yul\":3011:3013   */\n      0x60\n        /* \"#utility.yul\":2996:3014   */\n      add\n        /* \"#utility.yul\":2983:3015   */\n      calldataload\n      swap3\n        /* \"#utility.yul\":2128:3047   */\n      swap2\n      pop\n      pop\n      jump\t// out\n        /* \"#utility.yul\":3234:3361   */\n    tag_199:\n        /* \"#utility.yul\":3295:3305   */\n      0x4e487b71\n        /* \"#utility.yul\":3290:3293   */\n      0xe0\n        /* \"#utility.yul\":3286:3306   */\n      shl\n        /* \"#utility.yul\":3283:3284   */\n      0x00\n        /* \"#utility.yul\":3276:3307   */\n      mstore\n        /* \"#utility.yul\":3326:3330   */\n      0x41\n        /* \"#utility.yul\":3323:3324   */\n      0x04\n        /* \"#utility.yul\":3316:3331   */\n      mstore\n        /* \"#utility.yul\":3350:3354   */\n      0x24\n        /* \"#utility.yul\":3347:3348   */\n      0x00\n        /* \"#utility.yul\":3340:3355   */\n      revert\n        /* \"#utility.yul\":3366:3641   */\n    tag_318:\n        /* \"#utility.yul\":3437:3439   */\n      0x40\n        /* \"#utility.yul\":3431:3440   */\n      mload\n        /* \"#utility.yul\":3502:3504   */\n      0x1f\n        /* \"#utility.yul\":3483:3496   */\n      dup3\n      add\n      not(0x1f)\n        /* \"#utility.yul\":3479:3506   */\n      and\n        /* \"#utility.yul\":3467:3507   */\n      dup2\n      add\n        /* \"#utility.yul\":3537:3555   */\n      0xffffffffffffffff\n        /* \"#utility.yul\":3522:3556   */\n      dup2\n      gt\n        /* \"#utility.yul\":3558:3580   */\n      dup3\n      dup3\n      lt\n        /* \"#utility.yul\":3519:3581   */\n      or\n        /* \"#utility.yul\":3516:3604   */\n      iszero\n      tag_352\n      jumpi\n        /* \"#utility.yul\":3584:3602   */\n      tag_352\n      tag_199\n      jump\t// in\n    tag_352:\n        /* \"#utility.yul\":3620:3622   */\n      0x40\n        /* \"#utility.yul\":3613:3635   */\n      mstore\n        /* \"#utility.yul\":3366:3641   */\n      swap2\n      swap1\n      pop\n      jump\t// out\n        /* \"#utility.yul\":3646:3829   */\n    tag_319:\n        /* \"#utility.yul\":3706:3710   */\n      0x00\n        /* \"#utility.yul\":3739:3757   */\n      0xffffffffffffffff\n        /* \"#utility.yul\":3731:3737   */\n      dup3\n        /* \"#utility.yul\":3728:3758   */\n      gt\n        /* \"#utility.yul\":3725:3781   */\n      iszero\n      tag_355\n      jumpi\n        /* \"#utility.yul\":3761:3779   */\n      tag_355\n      tag_199\n      jump\t// in\n    tag_355:\n      pop\n        /* \"#utility.yul\":3806:3807   */\n      0x05\n        /* \"#utility.yul\":3802:3816   */\n      shl\n        /* \"#utility.yul\":3818:3822   */\n      0x20\n        /* \"#utility.yul\":3798:3823   */\n      add\n      swap1\n        /* \"#utility.yul\":3646:3829   */\n      jump\t// out\n        /* \"#utility.yul\":3834:4509   */\n    tag_320:\n        /* \"#utility.yul\":3888:3893   */\n      0x00\n        /* \"#utility.yul\":3941:3944   */\n      dup3\n        /* \"#utility.yul\":3934:3938   */\n      0x1f\n        /* \"#utility.yul\":3926:3932   */\n      dup4\n        /* \"#utility.yul\":3922:3939   */\n      add\n        /* \"#utility.yul\":3918:3945   */\n      slt\n        /* \"#utility.yul\":3908:3963   */\n      tag_357\n      jumpi\n        /* \"#utility.yul\":3959:3960   */\n      0x00\n        /* \"#utility.yul\":3956:3957   */\n      0x00\n        /* \"#utility.yul\":3949:3961   */\n      revert\n        /* \"#utility.yul\":3908:3963   */\n    tag_357:\n        /* \"#utility.yul\":3999:4005   */\n      dup2\n        /* \"#utility.yul\":3986:4006   */\n      calldataload\n        /* \"#utility.yul\":4026:4090   */\n      tag_358\n        /* \"#utility.yul\":4042:4089   */\n      tag_359\n        /* \"#utility.yul\":4082:4088   */\n      dup3\n        /* \"#utility.yul\":4042:4089   */\n      tag_319\n      jump\t// in\n    tag_359:\n        /* \"#utility.yul\":4026:4090   */\n      tag_318\n      jump\t// in\n    tag_358:\n        /* \"#utility.yul\":4114:4117   */\n      dup1\n        /* \"#utility.yul\":4138:4144   */\n      dup3\n        /* \"#utility.yul\":4133:4136   */\n      dup3\n        /* \"#utility.yul\":4126:4145   */\n      mstore\n        /* \"#utility.yul\":4170:4174   */\n      0x20\n        /* \"#utility.yul\":4165:4168   */\n      dup3\n        /* \"#utility.yul\":4161:4175   */\n      add\n        /* \"#utility.yul\":4154:4175   */\n      swap2\n      pop\n        /* \"#utility.yul\":4231:4235   */\n      0x20\n        /* \"#utility.yul\":4221:4227   */\n      dup4\n        /* \"#utility.yul\":4218:4219   */\n      0x05\n        /* \"#utility.yul\":4214:4228   */\n      shl\n        /* \"#utility.yul\":4206:4212   */\n      dup7\n        /* \"#utility.yul\":4202:4229   */\n      add\n        /* \"#utility.yul\":4198:4236   */\n      add\n        /* \"#utility.yul\":4184:4236   */\n      swap3\n      pop\n        /* \"#utility.yul\":4259:4262   */\n      dup6\n        /* \"#utility.yul\":4251:4257   */\n      dup4\n        /* \"#utility.yul\":4248:4263   */\n      gt\n        /* \"#utility.yul\":4245:4280   */\n      iszero\n      tag_360\n      jumpi\n        /* \"#utility.yul\":4276:4277   */\n      0x00\n        /* \"#utility.yul\":4273:4274   */\n      0x00\n        /* \"#utility.yul\":4266:4278   */\n      revert\n        /* \"#utility.yul\":4245:4280   */\n    tag_360:\n        /* \"#utility.yul\":4312:4316   */\n      0x20\n        /* \"#utility.yul\":4304:4310   */\n      dup6\n        /* \"#utility.yul\":4300:4317   */\n      add\n        /* \"#utility.yul\":4326:4478   */\n    tag_361:\n        /* \"#utility.yul\":4342:4348   */\n      dup4\n        /* \"#utility.yul\":4337:4340   */\n      dup2\n        /* \"#utility.yul\":4334:4349   */\n      lt\n        /* \"#utility.yul\":4326:4478   */\n      iszero\n      tag_363\n      jumpi\n        /* \"#utility.yul\":4410:4433   */\n      tag_364\n        /* \"#utility.yul\":4429:4432   */\n      dup2\n        /* \"#utility.yul\":4410:4433   */\n      tag_317\n      jump\t// in\n    tag_364:\n        /* \"#utility.yul\":4398:4434   */\n      dup4\n      mstore\n        /* \"#utility.yul\":4463:4467   */\n      0x20\n        /* \"#utility.yul\":4454:4468   */\n      swap3\n      dup4\n      add\n      swap3\n        /* \"#utility.yul\":4359:4373   */\n      add\n        /* \"#utility.yul\":4326:4478   */\n      jump(tag_361)\n    tag_363:\n      pop\n        /* \"#utility.yul\":4496:4503   */\n      swap6\n        /* \"#utility.yul\":3834:4509   */\n      swap5\n      pop\n      pop\n      pop\n      pop\n      pop\n      jump\t// out\n        /* \"#utility.yul\":4514:4976   */\n    tag_87:\n        /* \"#utility.yul\":4607:4613   */\n      0x00\n        /* \"#utility.yul\":4615:4621   */\n      0x00\n        /* \"#utility.yul\":4668:4670   */\n      0x40\n        /* \"#utility.yul\":4656:4665   */\n      dup4\n        /* \"#utility.yul\":4647:4654   */\n      dup6\n        /* \"#utility.yul\":4643:4666   */\n      sub\n        /* \"#utility.yul\":4639:4671   */\n      slt\n        /* \"#utility.yul\":4636:4688   */\n      iszero\n      tag_366\n      jumpi\n        /* \"#utility.yul\":4684:4685   */\n      0x00\n        /* \"#utility.yul\":4681:4682   */\n      0x00\n        /* \"#utility.yul\":4674:4686   */\n      revert\n        /* \"#utility.yul\":4636:4688   */\n    tag_366:\n        /* \"#utility.yul\":4729:4752   */\n      dup3\n      calldataload\n      swap2\n      pop\n        /* \"#utility.yul\":4827:4829   */\n      0x20\n        /* \"#utility.yul\":4812:4830   */\n      dup4\n      add\n        /* \"#utility.yul\":4799:4831   */\n      calldataload\n        /* \"#utility.yul\":4854:4872   */\n      0xffffffffffffffff\n        /* \"#utility.yul\":4843:4873   */\n      dup2\n      gt\n        /* \"#utility.yul\":4840:4890   */\n      iszero\n      tag_367\n      jumpi\n        /* \"#utility.yul\":4886:4887   */\n      0x00\n        /* \"#utility.yul\":4883:4884   */\n      0x00\n        /* \"#utility.yul\":4876:4888   */\n      revert\n        /* \"#utility.yul\":4840:4890   */\n    tag_367:\n        /* \"#utility.yul\":4909:4970   */\n      tag_368\n        /* \"#utility.yul\":4962:4969   */\n      dup6\n        /* \"#utility.yul\":4953:4959   */\n      dup3\n        /* \"#utility.yul\":4942:4951   */\n      dup7\n        /* \"#utility.yul\":4938:4960   */\n      add\n        /* \"#utility.yul\":4909:4970   */\n      tag_320\n      jump\t// in\n    tag_368:\n        /* \"#utility.yul\":4899:4970   */\n      swap2\n      pop\n      pop\n        /* \"#utility.yul\":4514:4976   */\n      swap3\n      pop\n      swap3\n      swap1\n      pop\n      jump\t// out\n        /* \"#utility.yul\":4981:5592   */\n    tag_90:\n        /* \"#utility.yul\":5171:5173   */\n      0x20\n        /* \"#utility.yul\":5183:5204   */\n      dup1\n      dup3\n      mstore\n        /* \"#utility.yul\":5253:5266   */\n      dup3\n      mload\n        /* \"#utility.yul\":5156:5174   */\n      dup3\n      dup3\n      add\n        /* \"#utility.yul\":5275:5297   */\n      dup2\n      swap1\n      mstore\n        /* \"#utility.yul\":5123:5127   */\n      0x00\n      swap2\n        /* \"#utility.yul\":5354:5369   */\n      dup5\n      add\n      swap1\n        /* \"#utility.yul\":5328:5330   */\n      0x40\n        /* \"#utility.yul\":5313:5331   */\n      dup5\n      add\n      swap1\n        /* \"#utility.yul\":5123:5127   */\n      dup4\n        /* \"#utility.yul\":5397:5566   */\n    tag_370:\n        /* \"#utility.yul\":5411:5417   */\n      dup2\n        /* \"#utility.yul\":5408:5409   */\n      dup2\n        /* \"#utility.yul\":5405:5418   */\n      lt\n        /* \"#utility.yul\":5397:5566   */\n      iszero\n      tag_372\n      jumpi\n        /* \"#utility.yul\":5472:5485   */\n      dup4\n      mload\n        /* \"#utility.yul\":5460:5486   */\n      dup4\n      mstore\n        /* \"#utility.yul\":5515:5517   */\n      0x20\n        /* \"#utility.yul\":5541:5556   */\n      swap4\n      dup5\n      add\n      swap4\n        /* \"#utility.yul\":5506:5518   */\n      swap1\n      swap3\n      add\n      swap2\n        /* \"#utility.yul\":5433:5434   */\n      0x01\n        /* \"#utility.yul\":5426:5435   */\n      add\n        /* \"#utility.yul\":5397:5566   */\n      jump(tag_370)\n    tag_372:\n      pop\n        /* \"#utility.yul\":5583:5586   */\n      swap1\n      swap6\n        /* \"#utility.yul\":4981:5592   */\n      swap5\n      pop\n      pop\n      pop\n      pop\n      pop\n      jump\t// out\n        /* \"#utility.yul\":5876:7300   */\n    tag_104:\n        /* \"#utility.yul\":6028:6034   */\n      0x00\n        /* \"#utility.yul\":6036:6042   */\n      0x00\n        /* \"#utility.yul\":6044:6050   */\n      0x00\n        /* \"#utility.yul\":6097:6099   */\n      0x60\n        /* \"#utility.yul\":6085:6094   */\n      dup5\n        /* \"#utility.yul\":6076:6083   */\n      dup7\n        /* \"#utility.yul\":6072:6095   */\n      sub\n        /* \"#utility.yul\":6068:6100   */\n      slt\n        /* \"#utility.yul\":6065:6117   */\n      iszero\n      tag_375\n      jumpi\n        /* \"#utility.yul\":6113:6114   */\n      0x00\n        /* \"#utility.yul\":6110:6111   */\n      0x00\n        /* \"#utility.yul\":6103:6115   */\n      revert\n        /* \"#utility.yul\":6065:6117   */\n    tag_375:\n        /* \"#utility.yul\":6153:6162   */\n      dup4\n        /* \"#utility.yul\":6140:6163   */\n      calldataload\n        /* \"#utility.yul\":6186:6204   */\n      0xffffffffffffffff\n        /* \"#utility.yul\":6178:6184   */\n      dup2\n        /* \"#utility.yul\":6175:6205   */\n      gt\n        /* \"#utility.yul\":6172:6222   */\n      iszero\n      tag_376\n      jumpi\n        /* \"#utility.yul\":6218:6219   */\n      0x00\n        /* \"#utility.yul\":6215:6216   */\n      0x00\n        /* \"#utility.yul\":6208:6220   */\n      revert\n        /* \"#utility.yul\":6172:6222   */\n    tag_376:\n        /* \"#utility.yul\":6241:6302   */\n      tag_377\n        /* \"#utility.yul\":6294:6301   */\n      dup7\n        /* \"#utility.yul\":6285:6291   */\n      dup3\n        /* \"#utility.yul\":6274:6283   */\n      dup8\n        /* \"#utility.yul\":6270:6292   */\n      add\n        /* \"#utility.yul\":6241:6302   */\n      tag_320\n      jump\t// in\n    tag_377:\n        /* \"#utility.yul\":6231:6302   */\n      swap4\n      pop\n      pop\n        /* \"#utility.yul\":6355:6357   */\n      0x20\n        /* \"#utility.yul\":6344:6353   */\n      dup5\n        /* \"#utility.yul\":6340:6358   */\n      add\n        /* \"#utility.yul\":6327:6359   */\n      calldataload\n        /* \"#utility.yul\":6384:6402   */\n      0xffffffffffffffff\n        /* \"#utility.yul\":6374:6382   */\n      dup2\n        /* \"#utility.yul\":6371:6403   */\n      gt\n        /* \"#utility.yul\":6368:6420   */\n      iszero\n      tag_378\n      jumpi\n        /* \"#utility.yul\":6416:6417   */\n      0x00\n        /* \"#utility.yul\":6413:6414   */\n      0x00\n        /* \"#utility.yul\":6406:6418   */\n      revert\n        /* \"#utility.yul\":6368:6420   */\n    tag_378:\n        /* \"#utility.yul\":6439:6502   */\n      tag_379\n        /* \"#utility.yul\":6494:6501   */\n      dup7\n        /* \"#utility.yul\":6483:6491   */\n      dup3\n        /* \"#utility.yul\":6472:6481   */\n      dup8\n        /* \"#utility.yul\":6468:6492   */\n      add\n        /* \"#utility.yul\":6439:6502   */\n      tag_320\n      jump\t// in\n    tag_379:\n        /* \"#utility.yul\":6429:6502   */\n      swap3\n      pop\n      pop\n        /* \"#utility.yul\":6555:6557   */\n      0x40\n        /* \"#utility.yul\":6544:6553   */\n      dup5\n        /* \"#utility.yul\":6540:6558   */\n      add\n        /* \"#utility.yul\":6527:6559   */\n      calldataload\n        /* \"#utility.yul\":6584:6602   */\n      0xffffffffffffffff\n        /* \"#utility.yul\":6574:6582   */\n      dup2\n        /* \"#utility.yul\":6571:6603   */\n      gt\n        /* \"#utility.yul\":6568:6620   */\n      iszero\n      tag_380\n      jumpi\n        /* \"#utility.yul\":6616:6617   */\n      0x00\n        /* \"#utility.yul\":6613:6614   */\n      0x00\n        /* \"#utility.yul\":6606:6618   */\n      revert\n        /* \"#utility.yul\":6568:6620   */\n    tag_380:\n        /* \"#utility.yul\":6639:6663   */\n      dup5\n      add\n        /* \"#utility.yul\":6694:6698   */\n      0x1f\n        /* \"#utility.yul\":6686:6699   */\n      dup2\n      add\n        /* \"#utility.yul\":6682:6709   */\n      dup7\n      sgt\n        /* \"#utility.yul\":6672:6727   */\n      tag_381\n      jumpi\n        /* \"#utility.yul\":6723:6724   */\n      0x00\n        /* \"#utility.yul\":6720:6721   */\n      0x00\n        /* \"#utility.yul\":6713:6725   */\n      revert\n        /* \"#utility.yul\":6672:6727   */\n    tag_381:\n        /* \"#utility.yul\":6763:6765   */\n      dup1\n        /* \"#utility.yul\":6750:6766   */\n      calldataload\n        /* \"#utility.yul\":6786:6850   */\n      tag_382\n        /* \"#utility.yul\":6802:6849   */\n      tag_359\n        /* \"#utility.yul\":6842:6848   */\n      dup3\n        /* \"#utility.yul\":6802:6849   */\n      tag_319\n      jump\t// in\n        /* \"#utility.yul\":6786:6850   */\n    tag_382:\n        /* \"#utility.yul\":6872:6875   */\n      dup1\n        /* \"#utility.yul\":6896:6902   */\n      dup3\n        /* \"#utility.yul\":6891:6894   */\n      dup3\n        /* \"#utility.yul\":6884:6903   */\n      mstore\n        /* \"#utility.yul\":6928:6930   */\n      0x20\n        /* \"#utility.yul\":6923:6926   */\n      dup3\n        /* \"#utility.yul\":6919:6931   */\n      add\n        /* \"#utility.yul\":6912:6931   */\n      swap2\n      pop\n        /* \"#utility.yul\":6983:6985   */\n      0x20\n        /* \"#utility.yul\":6973:6979   */\n      dup4\n        /* \"#utility.yul\":6970:6971   */\n      0x05\n        /* \"#utility.yul\":6966:6980   */\n      shl\n        /* \"#utility.yul\":6962:6964   */\n      dup6\n        /* \"#utility.yul\":6958:6981   */\n      add\n        /* \"#utility.yul\":6954:6986   */\n      add\n        /* \"#utility.yul\":6940:6986   */\n      swap3\n      pop\n        /* \"#utility.yul\":7009:7016   */\n      dup9\n        /* \"#utility.yul\":7001:7007   */\n      dup4\n        /* \"#utility.yul\":6998:7017   */\n      gt\n        /* \"#utility.yul\":6995:7034   */\n      iszero\n      tag_384\n      jumpi\n        /* \"#utility.yul\":7030:7031   */\n      0x00\n        /* \"#utility.yul\":7027:7028   */\n      0x00\n        /* \"#utility.yul\":7020:7032   */\n      revert\n        /* \"#utility.yul\":6995:7034   */\n    tag_384:\n        /* \"#utility.yul\":7062:7064   */\n      0x20\n        /* \"#utility.yul\":7058:7060   */\n      dup5\n        /* \"#utility.yul\":7054:7065   */\n      add\n        /* \"#utility.yul\":7043:7065   */\n      swap4\n      pop\n        /* \"#utility.yul\":7074:7270   */\n    tag_385:\n        /* \"#utility.yul\":7090:7096   */\n      dup3\n        /* \"#utility.yul\":7085:7088   */\n      dup5\n        /* \"#utility.yul\":7082:7097   */\n      lt\n        /* \"#utility.yul\":7074:7270   */\n      iszero\n      tag_387\n      jumpi\n        /* \"#utility.yul\":7180:7197   */\n      dup4\n      calldataload\n        /* \"#utility.yul\":7210:7228   */\n      dup3\n      mstore\n        /* \"#utility.yul\":7257:7259   */\n      0x20\n        /* \"#utility.yul\":7107:7119   */\n      swap4\n      dup5\n      add\n      swap4\n        /* \"#utility.yul\":7248:7260   */\n      swap1\n      swap2\n      add\n      swap1\n        /* \"#utility.yul\":7074:7270   */\n      jump(tag_385)\n    tag_387:\n        /* \"#utility.yul\":7289:7294   */\n      dup1\n        /* \"#utility.yul\":7279:7294   */\n      swap5\n      pop\n      pop\n      pop\n      pop\n      pop\n        /* \"#utility.yul\":5876:7300   */\n      swap3\n      pop\n      swap3\n      pop\n      swap3\n      jump\t// out\n        /* \"#utility.yul\":7305:7679   */\n    tag_109:\n        /* \"#utility.yul\":7382:7388   */\n      0x00\n        /* \"#utility.yul\":7390:7396   */\n      0x00\n        /* \"#utility.yul\":7398:7404   */\n      0x00\n        /* \"#utility.yul\":7451:7453   */\n      0x60\n        /* \"#utility.yul\":7439:7448   */\n      dup5\n        /* \"#utility.yul\":7430:7437   */\n      dup7\n        /* \"#utility.yul\":7426:7449   */\n      sub\n        /* \"#utility.yul\":7422:7454   */\n      slt\n        /* \"#utility.yul\":7419:7471   */\n      iszero\n      tag_389\n      jumpi\n        /* \"#utility.yul\":7467:7468   */\n      0x00\n        /* \"#utility.yul\":7464:7465   */\n      0x00\n        /* \"#utility.yul\":7457:7469   */\n      revert\n        /* \"#utility.yul\":7419:7471   */\n    tag_389:\n        /* \"#utility.yul\":7490:7519   */\n      tag_390\n        /* \"#utility.yul\":7509:7518   */\n      dup5\n        /* \"#utility.yul\":7490:7519   */\n      tag_317\n      jump\t// in\n    tag_390:\n        /* \"#utility.yul\":7480:7519   */\n      swap3\n      pop\n        /* \"#utility.yul\":7538:7576   */\n      tag_391\n        /* \"#utility.yul\":7572:7574   */\n      0x20\n        /* \"#utility.yul\":7561:7570   */\n      dup6\n        /* \"#utility.yul\":7557:7575   */\n      add\n        /* \"#utility.yul\":7538:7576   */\n      tag_317\n      jump\t// in\n    tag_391:\n        /* \"#utility.yul\":7305:7679   */\n      swap3\n      swap6\n        /* \"#utility.yul\":7528:7576   */\n      swap3\n      swap5\n      pop\n      pop\n      pop\n        /* \"#utility.yul\":7645:7647   */\n      0x40\n        /* \"#utility.yul\":7630:7648   */\n      swap2\n      swap1\n      swap2\n      add\n        /* \"#utility.yul\":7617:7649   */\n      calldataload\n      swap1\n        /* \"#utility.yul\":7305:7679   */\n      jump\t// out\n        /* \"#utility.yul\":8100:8227   */\n    tag_139:\n        /* \"#utility.yul\":8161:8171   */\n      0x4e487b71\n        /* \"#utility.yul\":8156:8159   */\n      0xe0\n        /* \"#utility.yul\":8152:8172   */\n      shl\n        /* \"#utility.yul\":8149:8150   */\n      0x00\n        /* \"#utility.yul\":8142:8173   */\n      mstore\n        /* \"#utility.yul\":8192:8196   */\n      0x32\n        /* \"#utility.yul\":8189:8190   */\n      0x04\n        /* \"#utility.yul\":8182:8197   */\n      mstore\n        /* \"#utility.yul\":8216:8220   */\n      0x24\n        /* \"#utility.yul\":8213:8214   */\n      0x00\n        /* \"#utility.yul\":8206:8221   */\n      revert\n        /* \"#utility.yul\":9660:9844   */\n    tag_165:\n        /* \"#utility.yul\":9730:9736   */\n      0x00\n        /* \"#utility.yul\":9783:9785   */\n      0x20\n        /* \"#utility.yul\":9771:9780   */\n      dup3\n        /* \"#utility.yul\":9762:9769   */\n      dup5\n        /* \"#utility.yul\":9758:9781   */\n      sub\n        /* \"#utility.yul\":9754:9786   */\n      slt\n        /* \"#utility.yul\":9751:9803   */\n      iszero\n      tag_399\n      jumpi\n        /* \"#utility.yul\":9799:9800   */\n      0x00\n        /* \"#utility.yul\":9796:9797   */\n      0x00\n        /* \"#utility.yul\":9789:9801   */\n      revert\n        /* \"#utility.yul\":9751:9803   */\n    tag_399:\n      pop\n        /* \"#utility.yul\":9822:9838   */\n      mload\n      swap2\n        /* \"#utility.yul\":9660:9844   */\n      swap1\n      pop\n      jump\t// out\n        /* \"#utility.yul\":10541:10818   */\n    tag_180:\n        /* \"#utility.yul\":10608:10614   */\n      0x00\n        /* \"#utility.yul\":10661:10663   */\n      0x20\n        /* \"#utility.yul\":10649:10658   */\n      dup3\n        /* \"#utility.yul\":10640:10647   */\n      dup5\n        /* \"#utility.yul\":10636:10659   */\n      sub\n        /* \"#utility.yul\":10632:10664   */\n      slt\n        /* \"#utility.yul\":10629:10681   */\n      iszero\n      tag_403\n      jumpi\n        /* \"#utility.yul\":10677:10678   */\n      0x00\n        /* \"#utility.yul\":10674:10675   */\n      0x00\n        /* \"#utility.yul\":10667:10679   */\n      revert\n        /* \"#utility.yul\":10629:10681   */\n    tag_403:\n        /* \"#utility.yul\":10709:10718   */\n      dup2\n        /* \"#utility.yul\":10703:10719   */\n      mload\n        /* \"#utility.yul\":10762:10767   */\n      dup1\n        /* \"#utility.yul\":10755:10768   */\n      iszero\n        /* \"#utility.yul\":10748:10769   */\n      iszero\n        /* \"#utility.yul\":10741:10746   */\n      dup2\n        /* \"#utility.yul\":10738:10770   */\n      eq\n        /* \"#utility.yul\":10728:10788   */\n      tag_314\n      jumpi\n        /* \"#utility.yul\":10784:10785   */\n      0x00\n        /* \"#utility.yul\":10781:10782   */\n      0x00\n        /* \"#utility.yul\":10774:10786   */\n      revert\n        /* \"#utility.yul\":12040:12167   */\n    tag_321:\n        /* \"#utility.yul\":12101:12111   */\n      0x4e487b71\n        /* \"#utility.yul\":12096:12099   */\n      0xe0\n        /* \"#utility.yul\":12092:12112   */\n      shl\n        /* \"#utility.yul\":12089:12090   */\n      0x00\n        /* \"#utility.yul\":12082:12113   */\n      mstore\n        /* \"#utility.yul\":12132:12136   */\n      0x11\n        /* \"#utility.yul\":12129:12130   */\n      0x04\n        /* \"#utility.yul\":12122:12137   */\n      mstore\n        /* \"#utility.yul\":12156:12160   */\n      0x24\n        /* \"#utility.yul\":12153:12154   */\n      0x00\n        /* \"#utility.yul\":12146:12161   */\n      revert\n        /* \"#utility.yul\":12172:12300   */\n    tag_207:\n        /* \"#utility.yul\":12239:12248   */\n      dup2\n      dup2\n      sub\n        /* \"#utility.yul\":12260:12271   */\n      dup2\n      dup2\n      gt\n        /* \"#utility.yul\":12257:12294   */\n      iszero\n      tag_113\n      jumpi\n        /* \"#utility.yul\":12274:12292   */\n      tag_113\n      tag_321\n      jump\t// in\n        /* \"#utility.yul\":12305:12430   */\n    tag_209:\n        /* \"#utility.yul\":12370:12379   */\n      dup1\n      dup3\n      add\n        /* \"#utility.yul\":12391:12401   */\n      dup1\n      dup3\n      gt\n        /* \"#utility.yul\":12388:12424   */\n      iszero\n      tag_113\n      jumpi\n        /* \"#utility.yul\":12404:12422   */\n      tag_113\n      tag_321\n      jump\t// in\n        /* \"#utility.yul\":12435:12603   */\n    tag_220:\n        /* \"#utility.yul\":12508:12517   */\n      dup1\n      dup3\n      mul\n        /* \"#utility.yul\":12539:12548   */\n      dup2\n      iszero\n        /* \"#utility.yul\":12556:12571   */\n      dup3\n      dup3\n      div\n        /* \"#utility.yul\":12550:12572   */\n      dup5\n      eq\n        /* \"#utility.yul\":12536:12573   */\n      or\n        /* \"#utility.yul\":12526:12597   */\n      tag_113\n      jumpi\n        /* \"#utility.yul\":12577:12595   */\n      tag_113\n      tag_321\n      jump\t// in\n        /* \"#utility.yul\":12608:12825   */\n    tag_222:\n        /* \"#utility.yul\":12648:12649   */\n      0x00\n        /* \"#utility.yul\":12674:12675   */\n      dup3\n        /* \"#utility.yul\":12664:12796   */\n      tag_419\n      jumpi\n        /* \"#utility.yul\":12718:12728   */\n      0x4e487b71\n        /* \"#utility.yul\":12713:12716   */\n      0xe0\n        /* \"#utility.yul\":12709:12729   */\n      shl\n        /* \"#utility.yul\":12706:12707   */\n      0x00\n        /* \"#utility.yul\":12699:12730   */\n      mstore\n        /* \"#utility.yul\":12753:12757   */\n      0x12\n        /* \"#utility.yul\":12750:12751   */\n      0x04\n        /* \"#utility.yul\":12743:12758   */\n      mstore\n        /* \"#utility.yul\":12781:12785   */\n      0x24\n        /* \"#utility.yul\":12778:12779   */\n      0x00\n        /* \"#utility.yul\":12771:12786   */\n      revert\n        /* \"#utility.yul\":12664:12796   */\n    tag_419:\n      pop\n        /* \"#utility.yul\":12810:12819   */\n      div\n      swap1\n        /* \"#utility.yul\":12608:12825   */\n      jump\t// out\n        /* \"#utility.yul\":13309:13521   */\n    tag_322:\n        /* \"#utility.yul\":13351:13354   */\n      0x00\n        /* \"#utility.yul\":13389:13394   */\n      dup2\n        /* \"#utility.yul\":13383:13395   */\n      mload\n        /* \"#utility.yul\":13433:13439   */\n      dup1\n        /* \"#utility.yul\":13426:13430   */\n      0x20\n        /* \"#utility.yul\":13419:13424   */\n      dup5\n        /* \"#utility.yul\":13415:13431   */\n      add\n        /* \"#utility.yul\":13410:13413   */\n      dup6\n        /* \"#utility.yul\":13404:13440   */\n      mcopy\n        /* \"#utility.yul\":13495:13496   */\n      0x00\n        /* \"#utility.yul\":13459:13475   */\n      swap4\n      add\n        /* \"#utility.yul\":13484:13497   */\n      swap3\n      dup4\n      mstore\n      pop\n        /* \"#utility.yul\":13459:13475   */\n      swap1\n      swap2\n        /* \"#utility.yul\":13309:13521   */\n      swap1\n      pop\n      jump\t// out\n        /* \"#utility.yul\":13526:14121   */\n    tag_288:\n        /* \"#utility.yul\":13937:13962   */\n      0x416363657373436f6e74726f6c3a206163636f756e7420000000000000000000\n        /* \"#utility.yul\":13932:13935   */\n      dup2\n        /* \"#utility.yul\":13925:13963   */\n      mstore\n        /* \"#utility.yul\":13907:13910   */\n      0x00\n        /* \"#utility.yul\":13982:14021   */\n      tag_423\n        /* \"#utility.yul\":14017:14019   */\n      0x17\n        /* \"#utility.yul\":14012:14015   */\n      dup4\n        /* \"#utility.yul\":14008:14020   */\n      add\n        /* \"#utility.yul\":14000:14006   */\n      dup6\n        /* \"#utility.yul\":13982:14021   */\n      tag_322\n      jump\t// in\n    tag_423:\n      shl(0x7d, 0x01034b99036b4b9b9b4b733903937b6329)\n        /* \"#utility.yul\":14037:14039   */\n      dup2\n        /* \"#utility.yul\":14030:14061   */\n      mstore\n        /* \"#utility.yul\":14077:14115   */\n      tag_424\n        /* \"#utility.yul\":14111:14113   */\n      0x11\n        /* \"#utility.yul\":14107:14109   */\n      dup3\n        /* \"#utility.yul\":14103:14114   */\n      add\n        /* \"#utility.yul\":14095:14101   */\n      dup6\n        /* \"#utility.yul\":14077:14115   */\n      tag_322\n      jump\t// in\n    tag_424:\n        /* \"#utility.yul\":14070:14115   */\n      swap6\n        /* \"#utility.yul\":13526:14121   */\n      swap5\n      pop\n      pop\n      pop\n      pop\n      pop\n      jump\t// out\n        /* \"#utility.yul\":14126:14544   */\n    tag_290:\n        /* \"#utility.yul\":14275:14277   */\n      0x20\n        /* \"#utility.yul\":14264:14273   */\n      dup2\n        /* \"#utility.yul\":14257:14278   */\n      mstore\n        /* \"#utility.yul\":14238:14242   */\n      0x00\n        /* \"#utility.yul\":14307:14313   */\n      dup3\n        /* \"#utility.yul\":14301:14314   */\n      mload\n        /* \"#utility.yul\":14350:14356   */\n      dup1\n        /* \"#utility.yul\":14345:14347   */\n      0x20\n        /* \"#utility.yul\":14334:14343   */\n      dup5\n        /* \"#utility.yul\":14330:14348   */\n      add\n        /* \"#utility.yul\":14323:14357   */\n      mstore\n        /* \"#utility.yul\":14409:14415   */\n      dup1\n        /* \"#utility.yul\":14404:14406   */\n      0x20\n        /* \"#utility.yul\":14396:14402   */\n      dup6\n        /* \"#utility.yul\":14392:14407   */\n      add\n        /* \"#utility.yul\":14387:14389   */\n      0x40\n        /* \"#utility.yul\":14376:14385   */\n      dup6\n        /* \"#utility.yul\":14372:14390   */\n      add\n        /* \"#utility.yul\":14366:14416   */\n      mcopy\n        /* \"#utility.yul\":14465:14466   */\n      0x00\n        /* \"#utility.yul\":14460:14462   */\n      0x40\n        /* \"#utility.yul\":14451:14457   */\n      dup3\n        /* \"#utility.yul\":14440:14449   */\n      dup6\n        /* \"#utility.yul\":14436:14458   */\n      add\n        /* \"#utility.yul\":14432:14463   */\n      add\n        /* \"#utility.yul\":14425:14467   */\n      mstore\n        /* \"#utility.yul\":14535:14537   */\n      0x40\n        /* \"#utility.yul\":14528:14530   */\n      0x1f\n        /* \"#utility.yul\":14524:14531   */\n      not\n        /* \"#utility.yul\":14519:14521   */\n      0x1f\n        /* \"#utility.yul\":14511:14517   */\n      dup4\n        /* \"#utility.yul\":14507:14522   */\n      add\n        /* \"#utility.yul\":14503:14532   */\n      and\n        /* \"#utility.yul\":14492:14501   */\n      dup5\n        /* \"#utility.yul\":14488:14533   */\n      add\n        /* \"#utility.yul\":14484:14538   */\n      add\n        /* \"#utility.yul\":14476:14538   */\n      swap2\n      pop\n      pop\n        /* \"#utility.yul\":14126:14544   */\n      swap3\n      swap2\n      pop\n      pop\n      jump\t// out\n        /* \"#utility.yul\":14549:14685   */\n    tag_313:\n        /* \"#utility.yul\":14588:14591   */\n      0x00\n        /* \"#utility.yul\":14616:14621   */\n      dup2\n        /* \"#utility.yul\":14606:14645   */\n      tag_428\n      jumpi\n        /* \"#utility.yul\":14625:14643   */\n      tag_428\n      tag_321\n      jump\t// in\n    tag_428:\n      pop\n      not(0x00)\n        /* \"#utility.yul\":14661:14679   */\n      add\n      swap1\n        /* \"#utility.yul\":14549:14685   */\n      jump\t// out\n\n    auxdata: 0xa2646970667358221220b6f335f6f2fb06d29afe929f916428c8161d67a46e67dc1bd46f41021501803b64736f6c634300081c0033\n}\n",
				"bytecode": {
					"linkReferences": {},
					"object": "60a060405234801561000f575f5ffd5b50604051611a65380380611a6583398101604081905261002e91610180565b6001600160a01b0381166080526100455f336100df565b61006f7fa451215b66f023bb76f9a9e7bc5c64156446b47b26061a8a32eaa319c45f695e336100df565b6040518060400160405280670de0b6b3a764000081526020016100966100db60201b60201c565b6001600160a01b039081169091529182165f90815260976020908152604090912082518155910151600190910180546001600160a01b031916919092161790556101ad565b3390565b5f8281526065602090815260408083206001600160a01b038516845290915290205460ff1661017c575f8281526065602090815260408083206001600160a01b03851684529091529020805460ff1916600117905561013b3390565b6001600160a01b0316816001600160a01b0316837f2f8788117e7eff1d82e926ec794901d17c78024a50270940304540a733656f0d60405160405180910390a45b5050565b5f60208284031215610190575f5ffd5b81516001600160a01b03811681146101a6575f5ffd5b9392505050565b60805161187d6101e85f395f8181610275015281816102bd0152818161054a01528181610870015281816108e00152610bfb015261187d5ff3fe6080604052600436106100fa575f3560e01c8063affa881711610092578063d06ca61f11610062578063d06ca61f1461035b578063d547741f14610387578063dd4be683146103a6578063eb71f7e6146103fe578063fa1c631b1461041d575f5ffd5b8063affa8817146102af578063b6f9de95146102e1578063cf0888aa146102f4578063d02641a014610327575f5ffd5b806388aa8bee116100cd57806388aa8bee146101ae57806391d1485414610232578063a217fddf14610251578063ad5c464814610264575f5ffd5b806301ffc9a7146100fe578063248a9ca3146101325780632f2ff15d1461016e57806336568abe1461018f575b5f5ffd5b348015610109575f5ffd5b5061011d610118366004611320565b61043c565b60405190151581526020015b60405180910390f35b34801561013d575f5ffd5b5061016061014c366004611347565b5f9081526065602052604090206001015490565b604051908152602001610129565b348015610179575f5ffd5b5061018d610188366004611379565b610472565b005b34801561019a575f5ffd5b5061018d6101a9366004611379565b61049b565b3480156101b9575f5ffd5b5061020e6101c83660046113a3565b6040805180820182525f80825260209182018190526001600160a01b03938416815260978252829020825180840190935280548352600101549092169181019190915290565b60408051825181526020928301516001600160a01b03169281019290925201610129565b34801561023d575f5ffd5b5061011d61024c366004611379565b61051e565b34801561025c575f5ffd5b506101605f81565b34801561026f575f5ffd5b506102977f000000000000000000000000000000000000000000000000000000000000000081565b6040516001600160a01b039091168152602001610129565b3480156102ba575f5ffd5b507f0000000000000000000000000000000000000000000000000000000000000000610297565b61018d6102ef3660046113bc565b610548565b3480156102ff575f5ffd5b506101607fa451215b66f023bb76f9a9e7bc5c64156446b47b26061a8a32eaa319c45f695e81565b348015610332575f5ffd5b506101606103413660046113a3565b6001600160a01b03165f9081526097602052604090205490565b348015610366575f5ffd5b5061037a610375366004611527565b610a52565b604051610129919061156b565b348015610392575f5ffd5b5061018d6103a1366004611379565b610e0d565b3480156103b1575f5ffd5b506103e16103c03660046113a3565b60976020525f9081526040902080546001909101546001600160a01b031682565b604080519283526001600160a01b03909116602083015201610129565b348015610409575f5ffd5b5061018d6104183660046115ad565b610e31565b348015610428575f5ffd5b5061018d610437366004611694565b610fa5565b5f6001600160e01b03198216637965db0b60e01b148061046c57506301ffc9a760e01b6001600160e01b03198316145b92915050565b5f8281526065602052604090206001015461048c81611020565b610496838361102d565b505050565b6001600160a01b03811633146105105760405162461bcd60e51b815260206004820152602f60248201527f416363657373436f6e74726f6c3a2063616e206f6e6c792072656e6f756e636560448201526e103937b632b9903337b91039b2b63360891b60648201526084015b60405180910390fd5b61051a82826110b2565b5050565b5f9182526065602090815260408084206001600160a01b0393909316845291905290205460ff1690565b7f00000000000000000000000000000000000000000000000000000000000000006001600160a01b031684845f818110610584576105846116ce565b905060200201602081019061059991906113a3565b6001600160a01b0316146105ef5760405162461bcd60e51b815260206004820152601d60248201527f556e69737761705632526f757465723a20494e56414c49445f504154480000006044820152606401610507565b4281101561063f5760405162461bcd60e51b815260206004820152601860248201527f556e69737761705632526f757465723a204558504952454400000000000000006044820152606401610507565b5f3490505f610680828787808060200260200160405190810160405280939291908181526020018383602002808284375f92019190915250610a5292505050565b600181518110610692576106926116ce565b602002602001015190505f811180156106ab5750868110155b61070b5760405162461bcd60e51b815260206004820152602b60248201527f556e69737761705632526f757465723a20494e53554646494349454e545f4f5560448201526a1514155517d05353d5539560aa1b6064820152608401610507565b5f60975f88886001818110610722576107226116ce565b905060200201602081019061073791906113a3565b6001600160a01b03166001600160a01b031681526020019081526020015f206001015f9054906101000a90046001600160a01b031690505f87876001818110610782576107826116ce565b905060200201602081019061079791906113a3565b604051636eb1769f60e11b81526001600160a01b038481166004830152306024830152919091169063dd62ed3e90604401602060405180830381865afa1580156107e3573d5f5f3e3d5ffd5b505050506040513d601f19601f8201168201806040525081019061080791906116e2565b90508281101561086e5760405162461bcd60e51b815260206004820152602c60248201527f556e69737761705632526f757465723a20494e53554646494349454e545f414d60448201526b13d5539517d0531313d5d15160a21b6064820152608401610507565b7f00000000000000000000000000000000000000000000000000000000000000006001600160a01b031663d0e30db0856040518263ffffffff1660e01b81526004015f604051808303818588803b1580156108c7575f5ffd5b505af11580156108d9573d5f5f3e3d5ffd5b50505050507f00000000000000000000000000000000000000000000000000000000000000006001600160a01b031663a9059cbb89896001818110610920576109206116ce565b905060200201602081019061093591906113a3565b6040516001600160e01b031960e084901b1681526001600160a01b039091166004820152602481018790526044016020604051808303815f875af115801561097f573d5f5f3e3d5ffd5b505050506040513d601f19601f820116820180604052508101906109a391906116f9565b50878760018181106109b7576109b76116ce565b90506020020160208101906109cc91906113a3565b6040516323b872dd60e01b81526001600160a01b03848116600483015288811660248301526044820186905291909116906323b872dd906064016020604051808303815f875af1158015610a22573d5f5f3e3d5ffd5b505050506040513d601f19601f82011682018060405250810190610a4691906116f9565b50505050505050505050565b60605f8311610ac15760405162461bcd60e51b815260206004820152603560248201527f556e69737761705632526f757465723a20616d6f756e74496e2073686f756c646044820152742062652067726561746572207468616e207a65726f60581b6064820152608401610507565b600282511015610b2e5760405162461bcd60e51b815260206004820152603260248201527f556e69737761705632526f757465723a207061746820636f6e7461696e73206160448201527174206c65617374203220656c656d656e747360701b6064820152608401610507565b815167ffffffffffffffff811115610b4857610b4861144e565b604051908082528060200260200182016040528015610b71578160200160208202803683370190505b50905082815f81518110610b8757610b876116ce565b6020026020010181815250505f5b60018351610ba3919061172c565b811015610e065760975f84610bb984600161173f565b81518110610bc957610bc96116ce565b60200260200101516001600160a01b03166001600160a01b031681526020019081526020015f205f01545f14610dd4577f00000000000000000000000000000000000000000000000000000000000000006001600160a01b0316835f81518110610c3557610c356116ce565b60200260200101516001600160a01b031603610cdf5760975f84610c5a84600161173f565b81518110610c6a57610c6a6116ce565b60200260200101516001600160a01b03166001600160a01b031681526020019081526020015f205f015484670de0b6b3a7640000610ca89190611752565b610cb29190611769565b82610cbe83600161173f565b81518110610cce57610cce6116ce565b602002602001018181525050610dfe565b5f670de0b6b3a764000060975f865f81518110610cfe57610cfe6116ce565b60200260200101516001600160a01b03166001600160a01b031681526020019081526020015f205f015486670de0b6b3a7640000610d3c9190611752565b610d469190611752565b610d509190611769565b905060975f85610d6185600161173f565b81518110610d7157610d716116ce565b60200260200101516001600160a01b03166001600160a01b031681526020019081526020015f205f015481610da69190611769565b83610db284600161173f565b81518110610dc257610dc26116ce565b60200260200101818152505050610dfe565b5f82610de183600161173f565b81518110610df157610df16116ce565b6020026020010181815250505b600101610b95565b5092915050565b5f82815260656020526040902060010154610e2781611020565b61049683836110b2565b7fa451215b66f023bb76f9a9e7bc5c64156446b47b26061a8a32eaa319c45f695e610e5b81611020565b601e84511115610ee25760405162461bcd60e51b815260206004820152604660248201527f556e69737761705632526f757465723a20546f6b656e7320617272617920697360448201527f20746f6f206c6f6e672c2072656475636520746865206e756d626572206f6620606482015265746f6b656e7360d01b608482015260a401610507565b5f5b8451811015610f9e576040518060400160405280848381518110610f0a57610f0a6116ce565b60200260200101518152602001858381518110610f2957610f296116ce565b60200260200101516001600160a01b031681525060975f878481518110610f5257610f526116ce565b6020908102919091018101516001600160a01b0390811683528282019390935260409091015f2083518155920151600192830180546001600160a01b0319169190921617905501610ee4565b5050505050565b7fa451215b66f023bb76f9a9e7bc5c64156446b47b26061a8a32eaa319c45f695e610fcf81611020565b506040805180820182529182526001600160a01b0392831660208084019182529484165f90815260979095529320905181559151600190920180546001600160a01b03191692909116919091179055565b61102a8133611118565b50565b611037828261051e565b61051a575f8281526065602090815260408083206001600160a01b03851684529091529020805460ff1916600117905561106e3390565b6001600160a01b0316816001600160a01b0316837f2f8788117e7eff1d82e926ec794901d17c78024a50270940304540a733656f0d60405160405180910390a45050565b6110bc828261051e565b1561051a575f8281526065602090815260408083206001600160a01b0385168085529252808320805460ff1916905551339285917ff6391f5c32d9c69d2a47ea670b442974b53935d1edc7fd64eb21e047a839171b9190a45050565b611122828261051e565b61051a5761112f81611171565b61113a836020611183565b60405160200161114b92919061179f565b60408051601f198184030181529082905262461bcd60e51b8252610507916004016117fd565b606061046c6001600160a01b03831660145b60605f611191836002611752565b61119c90600261173f565b67ffffffffffffffff8111156111b4576111b461144e565b6040519080825280601f01601f1916602001820160405280156111de576020820181803683370190505b509050600360fc1b815f815181106111f8576111f86116ce565b60200101906001600160f81b03191690815f1a905350600f60fb1b81600181518110611226576112266116ce565b60200101906001600160f81b03191690815f1a9053505f611248846002611752565b61125390600161173f565b90505b60018111156112ca576f181899199a1a9b1b9c1cb0b131b232b360811b85600f1660108110611287576112876116ce565b1a60f81b82828151811061129d5761129d6116ce565b60200101906001600160f81b03191690815f1a90535060049490941c936112c381611832565b9050611256565b5083156113195760405162461bcd60e51b815260206004820181905260248201527f537472696e67733a20686578206c656e67746820696e73756666696369656e746044820152606401610507565b9392505050565b5f60208284031215611330575f5ffd5b81356001600160e01b031981168114611319575f5ffd5b5f60208284031215611357575f5ffd5b5035919050565b80356001600160a01b0381168114611374575f5ffd5b919050565b5f5f6040838503121561138a575f5ffd5b8235915061139a6020840161135e565b90509250929050565b5f602082840312156113b3575f5ffd5b6113198261135e565b5f5f5f5f5f608086880312156113d0575f5ffd5b85359450602086013567ffffffffffffffff8111156113ed575f5ffd5b8601601f810188136113fd575f5ffd5b803567ffffffffffffffff811115611413575f5ffd5b8860208260051b8401011115611427575f5ffd5b6020919091019450925061143d6040870161135e565b949793965091946060013592915050565b634e487b7160e01b5f52604160045260245ffd5b604051601f8201601f1916810167ffffffffffffffff8111828210171561148b5761148b61144e565b604052919050565b5f67ffffffffffffffff8211156114ac576114ac61144e565b5060051b60200190565b5f82601f8301126114c5575f5ffd5b81356114d86114d382611493565b611462565b8082825260208201915060208360051b8601019250858311156114f9575f5ffd5b602085015b8381101561151d5761150f8161135e565b8352602092830192016114fe565b5095945050505050565b5f5f60408385031215611538575f5ffd5b82359150602083013567ffffffffffffffff811115611555575f5ffd5b611561858286016114b6565b9150509250929050565b602080825282518282018190525f918401906040840190835b818110156115a2578351835260209384019390920191600101611584565b509095945050505050565b5f5f5f606084860312156115bf575f5ffd5b833567ffffffffffffffff8111156115d5575f5ffd5b6115e1868287016114b6565b935050602084013567ffffffffffffffff8111156115fd575f5ffd5b611609868287016114b6565b925050604084013567ffffffffffffffff811115611625575f5ffd5b8401601f81018613611635575f5ffd5b80356116436114d382611493565b8082825260208201915060208360051b850101925088831115611664575f5ffd5b6020840193505b8284101561168657833582526020938401939091019061166b565b809450505050509250925092565b5f5f5f606084860312156116a6575f5ffd5b6116af8461135e565b92506116bd6020850161135e565b929592945050506040919091013590565b634e487b7160e01b5f52603260045260245ffd5b5f602082840312156116f2575f5ffd5b5051919050565b5f60208284031215611709575f5ffd5b81518015158114611319575f5ffd5b634e487b7160e01b5f52601160045260245ffd5b8181038181111561046c5761046c611718565b8082018082111561046c5761046c611718565b808202811582820484141761046c5761046c611718565b5f8261178357634e487b7160e01b5f52601260045260245ffd5b500490565b5f81518060208401855e5f93019283525090919050565b7f416363657373436f6e74726f6c3a206163636f756e742000000000000000000081525f6117d06017830185611788565b7001034b99036b4b9b9b4b733903937b6329607d1b81526117f46011820185611788565b95945050505050565b602081525f82518060208401528060208501604085015e5f604082850101526040601f19601f83011684010191505092915050565b5f8161184057611840611718565b505f19019056fea2646970667358221220b6f335f6f2fb06d29afe929f916428c8161d67a46e67dc1bd46f41021501803b64736f6c634300081c0033",
					"opcodes": "PUSH1 0xA0 PUSH1 0x40 MSTORE CALLVALUE DUP1 ISZERO PUSH2 0xF JUMPI PUSH0 PUSH0 REVERT JUMPDEST POP PUSH1 0x40 MLOAD PUSH2 0x1A65 CODESIZE SUB DUP1 PUSH2 0x1A65 DUP4 CODECOPY DUP2 ADD PUSH1 0x40 DUP2 SWAP1 MSTORE PUSH2 0x2E SWAP2 PUSH2 0x180 JUMP JUMPDEST PUSH1 0x1 PUSH1 0x1 PUSH1 0xA0 SHL SUB DUP2 AND PUSH1 0x80 MSTORE PUSH2 0x45 PUSH0 CALLER PUSH2 0xDF JUMP JUMPDEST PUSH2 0x6F PUSH32 0xA451215B66F023BB76F9A9E7BC5C64156446B47B26061A8A32EAA319C45F695E CALLER PUSH2 0xDF JUMP JUMPDEST PUSH1 0x40 MLOAD DUP1 PUSH1 0x40 ADD PUSH1 0x40 MSTORE DUP1 PUSH8 0xDE0B6B3A7640000 DUP2 MSTORE PUSH1 0x20 ADD PUSH2 0x96 PUSH2 0xDB PUSH1 0x20 SHL PUSH1 0x20 SHR JUMP JUMPDEST PUSH1 0x1 PUSH1 0x1 PUSH1 0xA0 SHL SUB SWAP1 DUP2 AND SWAP1 SWAP2 MSTORE SWAP2 DUP3 AND PUSH0 SWAP1 DUP2 MSTORE PUSH1 0x97 PUSH1 0x20 SWAP1 DUP2 MSTORE PUSH1 0x40 SWAP1 SWAP2 KECCAK256 DUP3 MLOAD DUP2 SSTORE SWAP2 ADD MLOAD PUSH1 0x1 SWAP1 SWAP2 ADD DUP1 SLOAD PUSH1 0x1 PUSH1 0x1 PUSH1 0xA0 SHL SUB NOT AND SWAP2 SWAP1 SWAP3 AND OR SWAP1 SSTORE PUSH2 0x1AD JUMP JUMPDEST CALLER SWAP1 JUMP JUMPDEST PUSH0 DUP3 DUP2 MSTORE PUSH1 0x65 PUSH1 0x20 SWAP1 DUP2 MSTORE PUSH1 0x40 DUP1 DUP4 KECCAK256 PUSH1 0x1 PUSH1 0x1 PUSH1 0xA0 SHL SUB DUP6 AND DUP5 MSTORE SWAP1 SWAP2 MSTORE SWAP1 KECCAK256 SLOAD PUSH1 0xFF AND PUSH2 0x17C JUMPI PUSH0 DUP3 DUP2 MSTORE PUSH1 0x65 PUSH1 0x20 SWAP1 DUP2 MSTORE PUSH1 0x40 DUP1 DUP4 KECCAK256 PUSH1 0x1 PUSH1 0x1 PUSH1 0xA0 SHL SUB DUP6 AND DUP5 MSTORE SWAP1 SWAP2 MSTORE SWAP1 KECCAK256 DUP1 SLOAD PUSH1 0xFF NOT AND PUSH1 0x1 OR SWAP1 SSTORE PUSH2 0x13B CALLER SWAP1 JUMP JUMPDEST PUSH1 0x1 PUSH1 0x1 PUSH1 0xA0 SHL SUB AND DUP2 PUSH1 0x1 PUSH1 0x1 PUSH1 0xA0 SHL SUB AND DUP4 PUSH32 0x2F8788117E7EFF1D82E926EC794901D17C78024A50270940304540A733656F0D PUSH1 0x40 MLOAD PUSH1 0x40 MLOAD DUP1 SWAP2 SUB SWAP1 LOG4 JUMPDEST POP POP JUMP JUMPDEST PUSH0 PUSH1 0x20 DUP3 DUP5 SUB SLT ISZERO PUSH2 0x190 JUMPI PUSH0 PUSH0 REVERT JUMPDEST DUP2 MLOAD PUSH1 0x1 PUSH1 0x1 PUSH1 0xA0 SHL SUB DUP2 AND DUP2 EQ PUSH2 0x1A6 JUMPI PUSH0 PUSH0 REVERT JUMPDEST SWAP4 SWAP3 POP POP POP JUMP JUMPDEST PUSH1 0x80 MLOAD PUSH2 0x187D PUSH2 0x1E8 PUSH0 CODECOPY PUSH0 DUP2 DUP2 PUSH2 0x275 ADD MSTORE DUP2 DUP2 PUSH2 0x2BD ADD MSTORE DUP2 DUP2 PUSH2 0x54A ADD MSTORE DUP2 DUP2 PUSH2 0x870 ADD MSTORE DUP2 DUP2 PUSH2 0x8E0 ADD MSTORE PUSH2 0xBFB ADD MSTORE PUSH2 0x187D PUSH0 RETURN INVALID PUSH1 0x80 PUSH1 0x40 MSTORE PUSH1 0x4 CALLDATASIZE LT PUSH2 0xFA JUMPI PUSH0 CALLDATALOAD PUSH1 0xE0 SHR DUP1 PUSH4 0xAFFA8817 GT PUSH2 0x92 JUMPI DUP1 PUSH4 0xD06CA61F GT PUSH2 0x62 JUMPI DUP1 PUSH4 0xD06CA61F EQ PUSH2 0x35B JUMPI DUP1 PUSH4 0xD547741F EQ PUSH2 0x387 JUMPI DUP1 PUSH4 0xDD4BE683 EQ PUSH2 0x3A6 JUMPI DUP1 PUSH4 0xEB71F7E6 EQ PUSH2 0x3FE JUMPI DUP1 PUSH4 0xFA1C631B EQ PUSH2 0x41D JUMPI PUSH0 PUSH0 REVERT JUMPDEST DUP1 PUSH4 0xAFFA8817 EQ PUSH2 0x2AF JUMPI DUP1 PUSH4 0xB6F9DE95 EQ PUSH2 0x2E1 JUMPI DUP1 PUSH4 0xCF0888AA EQ PUSH2 0x2F4 JUMPI DUP1 PUSH4 0xD02641A0 EQ PUSH2 0x327 JUMPI PUSH0 PUSH0 REVERT JUMPDEST DUP1 PUSH4 0x88AA8BEE GT PUSH2 0xCD JUMPI DUP1 PUSH4 0x88AA8BEE EQ PUSH2 0x1AE JUMPI DUP1 PUSH4 0x91D14854 EQ PUSH2 0x232 JUMPI DUP1 PUSH4 0xA217FDDF EQ PUSH2 0x251 JUMPI DUP1 PUSH4 0xAD5C4648 EQ PUSH2 0x264 JUMPI PUSH0 PUSH0 REVERT JUMPDEST DUP1 PUSH4 0x1FFC9A7 EQ PUSH2 0xFE JUMPI DUP1 PUSH4 0x248A9CA3 EQ PUSH2 0x132 JUMPI DUP1 PUSH4 0x2F2FF15D EQ PUSH2 0x16E JUMPI DUP1 PUSH4 0x36568ABE EQ PUSH2 0x18F JUMPI JUMPDEST PUSH0 PUSH0 REVERT JUMPDEST CALLVALUE DUP1 ISZERO PUSH2 0x109 JUMPI PUSH0 PUSH0 REVERT JUMPDEST POP PUSH2 0x11D PUSH2 0x118 CALLDATASIZE PUSH1 0x4 PUSH2 0x1320 JUMP JUMPDEST PUSH2 0x43C JUMP JUMPDEST PUSH1 0x40 MLOAD SWAP1 ISZERO ISZERO DUP2 MSTORE PUSH1 0x20 ADD JUMPDEST PUSH1 0x40 MLOAD DUP1 SWAP2 SUB SWAP1 RETURN JUMPDEST CALLVALUE DUP1 ISZERO PUSH2 0x13D JUMPI PUSH0 PUSH0 REVERT JUMPDEST POP PUSH2 0x160 PUSH2 0x14C CALLDATASIZE PUSH1 0x4 PUSH2 0x1347 JUMP JUMPDEST PUSH0 SWAP1 DUP2 MSTORE PUSH1 0x65 PUSH1 0x20 MSTORE PUSH1 0x40 SWAP1 KECCAK256 PUSH1 0x1 ADD SLOAD SWAP1 JUMP JUMPDEST PUSH1 0x40 MLOAD SWAP1 DUP2 MSTORE PUSH1 0x20 ADD PUSH2 0x129 JUMP JUMPDEST CALLVALUE DUP1 ISZERO PUSH2 0x179 JUMPI PUSH0 PUSH0 REVERT JUMPDEST POP PUSH2 0x18D PUSH2 0x188 CALLDATASIZE PUSH1 0x4 PUSH2 0x1379 JUMP JUMPDEST PUSH2 0x472 JUMP JUMPDEST STOP JUMPDEST CALLVALUE DUP1 ISZERO PUSH2 0x19A JUMPI PUSH0 PUSH0 REVERT JUMPDEST POP PUSH2 0x18D PUSH2 0x1A9 CALLDATASIZE PUSH1 0x4 PUSH2 0x1379 JUMP JUMPDEST PUSH2 0x49B JUMP JUMPDEST CALLVALUE DUP1 ISZERO PUSH2 0x1B9 JUMPI PUSH0 PUSH0 REVERT JUMPDEST POP PUSH2 0x20E PUSH2 0x1C8 CALLDATASIZE PUSH1 0x4 PUSH2 0x13A3 JUMP JUMPDEST PUSH1 0x40 DUP1 MLOAD DUP1 DUP3 ADD DUP3 MSTORE PUSH0 DUP1 DUP3 MSTORE PUSH1 0x20 SWAP2 DUP3 ADD DUP2 SWAP1 MSTORE PUSH1 0x1 PUSH1 0x1 PUSH1 0xA0 SHL SUB SWAP4 DUP5 AND DUP2 MSTORE PUSH1 0x97 DUP3 MSTORE DUP3 SWAP1 KECCAK256 DUP3 MLOAD DUP1 DUP5 ADD SWAP1 SWAP4 MSTORE DUP1 SLOAD DUP4 MSTORE PUSH1 0x1 ADD SLOAD SWAP1 SWAP3 AND SWAP2 DUP2 ADD SWAP2 SWAP1 SWAP2 MSTORE SWAP1 JUMP JUMPDEST PUSH1 0x40 DUP1 MLOAD DUP3 MLOAD DUP2 MSTORE PUSH1 0x20 SWAP3 DUP4 ADD MLOAD PUSH1 0x1 PUSH1 0x1 PUSH1 0xA0 SHL SUB AND SWAP3 DUP2 ADD SWAP3 SWAP1 SWAP3 MSTORE ADD PUSH2 0x129 JUMP JUMPDEST CALLVALUE DUP1 ISZERO PUSH2 0x23D JUMPI PUSH0 PUSH0 REVERT JUMPDEST POP PUSH2 0x11D PUSH2 0x24C CALLDATASIZE PUSH1 0x4 PUSH2 0x1379 JUMP JUMPDEST PUSH2 0x51E JUMP JUMPDEST CALLVALUE DUP1 ISZERO PUSH2 0x25C JUMPI PUSH0 PUSH0 REVERT JUMPDEST POP PUSH2 0x160 PUSH0 DUP2 JUMP JUMPDEST CALLVALUE DUP1 ISZERO PUSH2 0x26F JUMPI PUSH0 PUSH0 REVERT JUMPDEST POP PUSH2 0x297 PUSH32 0x0 DUP2 JUMP JUMPDEST PUSH1 0x40 MLOAD PUSH1 0x1 PUSH1 0x1 PUSH1 0xA0 SHL SUB SWAP1 SWAP2 AND DUP2 MSTORE PUSH1 0x20 ADD PUSH2 0x129 JUMP JUMPDEST CALLVALUE DUP1 ISZERO PUSH2 0x2BA JUMPI PUSH0 PUSH0 REVERT JUMPDEST POP PUSH32 0x0 PUSH2 0x297 JUMP JUMPDEST PUSH2 0x18D PUSH2 0x2EF CALLDATASIZE PUSH1 0x4 PUSH2 0x13BC JUMP JUMPDEST PUSH2 0x548 JUMP JUMPDEST CALLVALUE DUP1 ISZERO PUSH2 0x2FF JUMPI PUSH0 PUSH0 REVERT JUMPDEST POP PUSH2 0x160 PUSH32 0xA451215B66F023BB76F9A9E7BC5C64156446B47B26061A8A32EAA319C45F695E DUP2 JUMP JUMPDEST CALLVALUE DUP1 ISZERO PUSH2 0x332 JUMPI PUSH0 PUSH0 REVERT JUMPDEST POP PUSH2 0x160 PUSH2 0x341 CALLDATASIZE PUSH1 0x4 PUSH2 0x13A3 JUMP JUMPDEST PUSH1 0x1 PUSH1 0x1 PUSH1 0xA0 SHL SUB AND PUSH0 SWAP1 DUP2 MSTORE PUSH1 0x97 PUSH1 0x20 MSTORE PUSH1 0x40 SWAP1 KECCAK256 SLOAD SWAP1 JUMP JUMPDEST CALLVALUE DUP1 ISZERO PUSH2 0x366 JUMPI PUSH0 PUSH0 REVERT JUMPDEST POP PUSH2 0x37A PUSH2 0x375 CALLDATASIZE PUSH1 0x4 PUSH2 0x1527 JUMP JUMPDEST PUSH2 0xA52 JUMP JUMPDEST PUSH1 0x40 MLOAD PUSH2 0x129 SWAP2 SWAP1 PUSH2 0x156B JUMP JUMPDEST CALLVALUE DUP1 ISZERO PUSH2 0x392 JUMPI PUSH0 PUSH0 REVERT JUMPDEST POP PUSH2 0x18D PUSH2 0x3A1 CALLDATASIZE PUSH1 0x4 PUSH2 0x1379 JUMP JUMPDEST PUSH2 0xE0D JUMP JUMPDEST CALLVALUE DUP1 ISZERO PUSH2 0x3B1 JUMPI PUSH0 PUSH0 REVERT JUMPDEST POP PUSH2 0x3E1 PUSH2 0x3C0 CALLDATASIZE PUSH1 0x4 PUSH2 0x13A3 JUMP JUMPDEST PUSH1 0x97 PUSH1 0x20 MSTORE PUSH0 SWAP1 DUP2 MSTORE PUSH1 0x40 SWAP1 KECCAK256 DUP1 SLOAD PUSH1 0x1 SWAP1 SWAP2 ADD SLOAD PUSH1 0x1 PUSH1 0x1 PUSH1 0xA0 SHL SUB AND DUP3 JUMP JUMPDEST PUSH1 0x40 DUP1 MLOAD SWAP3 DUP4 MSTORE PUSH1 0x1 PUSH1 0x1 PUSH1 0xA0 SHL SUB SWAP1 SWAP2 AND PUSH1 0x20 DUP4 ADD MSTORE ADD PUSH2 0x129 JUMP JUMPDEST CALLVALUE DUP1 ISZERO PUSH2 0x409 JUMPI PUSH0 PUSH0 REVERT JUMPDEST POP PUSH2 0x18D PUSH2 0x418 CALLDATASIZE PUSH1 0x4 PUSH2 0x15AD JUMP JUMPDEST PUSH2 0xE31 JUMP JUMPDEST CALLVALUE DUP1 ISZERO PUSH2 0x428 JUMPI PUSH0 PUSH0 REVERT JUMPDEST POP PUSH2 0x18D PUSH2 0x437 CALLDATASIZE PUSH1 0x4 PUSH2 0x1694 JUMP JUMPDEST PUSH2 0xFA5 JUMP JUMPDEST PUSH0 PUSH1 0x1 PUSH1 0x1 PUSH1 0xE0 SHL SUB NOT DUP3 AND PUSH4 0x7965DB0B PUSH1 0xE0 SHL EQ DUP1 PUSH2 0x46C JUMPI POP PUSH4 0x1FFC9A7 PUSH1 0xE0 SHL PUSH1 0x1 PUSH1 0x1 PUSH1 0xE0 SHL SUB NOT DUP4 AND EQ JUMPDEST SWAP3 SWAP2 POP POP JUMP JUMPDEST PUSH0 DUP3 DUP2 MSTORE PUSH1 0x65 PUSH1 0x20 MSTORE PUSH1 0x40 SWAP1 KECCAK256 PUSH1 0x1 ADD SLOAD PUSH2 0x48C DUP2 PUSH2 0x1020 JUMP JUMPDEST PUSH2 0x496 DUP4 DUP4 PUSH2 0x102D JUMP JUMPDEST POP POP POP JUMP JUMPDEST PUSH1 0x1 PUSH1 0x1 PUSH1 0xA0 SHL SUB DUP2 AND CALLER EQ PUSH2 0x510 JUMPI PUSH1 0x40 MLOAD PUSH3 0x461BCD PUSH1 0xE5 SHL DUP2 MSTORE PUSH1 0x20 PUSH1 0x4 DUP3 ADD MSTORE PUSH1 0x2F PUSH1 0x24 DUP3 ADD MSTORE PUSH32 0x416363657373436F6E74726F6C3A2063616E206F6E6C792072656E6F756E6365 PUSH1 0x44 DUP3 ADD MSTORE PUSH15 0x103937B632B9903337B91039B2B633 PUSH1 0x89 SHL PUSH1 0x64 DUP3 ADD MSTORE PUSH1 0x84 ADD JUMPDEST PUSH1 0x40 MLOAD DUP1 SWAP2 SUB SWAP1 REVERT JUMPDEST PUSH2 0x51A DUP3 DUP3 PUSH2 0x10B2 JUMP JUMPDEST POP POP JUMP JUMPDEST PUSH0 SWAP2 DUP3 MSTORE PUSH1 0x65 PUSH1 0x20 SWAP1 DUP2 MSTORE PUSH1 0x40 DUP1 DUP5 KECCAK256 PUSH1 0x1 PUSH1 0x1 PUSH1 0xA0 SHL SUB SWAP4 SWAP1 SWAP4 AND DUP5 MSTORE SWAP2 SWAP1 MSTORE SWAP1 KECCAK256 SLOAD PUSH1 0xFF AND SWAP1 JUMP JUMPDEST PUSH32 0x0 PUSH1 0x1 PUSH1 0x1 PUSH1 0xA0 SHL SUB AND DUP5 DUP5 PUSH0 DUP2 DUP2 LT PUSH2 0x584 JUMPI PUSH2 0x584 PUSH2 0x16CE JUMP JUMPDEST SWAP1 POP PUSH1 0x20 MUL ADD PUSH1 0x20 DUP2 ADD SWAP1 PUSH2 0x599 SWAP2 SWAP1 PUSH2 0x13A3 JUMP JUMPDEST PUSH1 0x1 PUSH1 0x1 PUSH1 0xA0 SHL SUB AND EQ PUSH2 0x5EF JUMPI PUSH1 0x40 MLOAD PUSH3 0x461BCD PUSH1 0xE5 SHL DUP2 MSTORE PUSH1 0x20 PUSH1 0x4 DUP3 ADD MSTORE PUSH1 0x1D PUSH1 0x24 DUP3 ADD MSTORE PUSH32 0x556E69737761705632526F757465723A20494E56414C49445F50415448000000 PUSH1 0x44 DUP3 ADD MSTORE PUSH1 0x64 ADD PUSH2 0x507 JUMP JUMPDEST TIMESTAMP DUP2 LT ISZERO PUSH2 0x63F JUMPI PUSH1 0x40 MLOAD PUSH3 0x461BCD PUSH1 0xE5 SHL DUP2 MSTORE PUSH1 0x20 PUSH1 0x4 DUP3 ADD MSTORE PUSH1 0x18 PUSH1 0x24 DUP3 ADD MSTORE PUSH32 0x556E69737761705632526F757465723A20455850495245440000000000000000 PUSH1 0x44 DUP3 ADD MSTORE PUSH1 0x64 ADD PUSH2 0x507 JUMP JUMPDEST PUSH0 CALLVALUE SWAP1 POP PUSH0 PUSH2 0x680 DUP3 DUP8 DUP8 DUP1 DUP1 PUSH1 0x20 MUL PUSH1 0x20 ADD PUSH1 0x40 MLOAD SWAP1 DUP2 ADD PUSH1 0x40 MSTORE DUP1 SWAP4 SWAP3 SWAP2 SWAP1 DUP2 DUP2 MSTORE PUSH1 0x20 ADD DUP4 DUP4 PUSH1 0x20 MUL DUP1 DUP3 DUP5 CALLDATACOPY PUSH0 SWAP3 ADD SWAP2 SWAP1 SWAP2 MSTORE POP PUSH2 0xA52 SWAP3 POP POP POP JUMP JUMPDEST PUSH1 0x1 DUP2 MLOAD DUP2 LT PUSH2 0x692 JUMPI PUSH2 0x692 PUSH2 0x16CE JUMP JUMPDEST PUSH1 0x20 MUL PUSH1 0x20 ADD ADD MLOAD SWAP1 POP PUSH0 DUP2 GT DUP1 ISZERO PUSH2 0x6AB JUMPI POP DUP7 DUP2 LT ISZERO JUMPDEST PUSH2 0x70B JUMPI PUSH1 0x40 MLOAD PUSH3 0x461BCD PUSH1 0xE5 SHL DUP2 MSTORE PUSH1 0x20 PUSH1 0x4 DUP3 ADD MSTORE PUSH1 0x2B PUSH1 0x24 DUP3 ADD MSTORE PUSH32 0x556E69737761705632526F757465723A20494E53554646494349454E545F4F55 PUSH1 0x44 DUP3 ADD MSTORE PUSH11 0x1514155517D05353D55395 PUSH1 0xAA SHL PUSH1 0x64 DUP3 ADD MSTORE PUSH1 0x84 ADD PUSH2 0x507 JUMP JUMPDEST PUSH0 PUSH1 0x97 PUSH0 DUP9 DUP9 PUSH1 0x1 DUP2 DUP2 LT PUSH2 0x722 JUMPI PUSH2 0x722 PUSH2 0x16CE JUMP JUMPDEST SWAP1 POP PUSH1 0x20 MUL ADD PUSH1 0x20 DUP2 ADD SWAP1 PUSH2 0x737 SWAP2 SWAP1 PUSH2 0x13A3 JUMP JUMPDEST PUSH1 0x1 PUSH1 0x1 PUSH1 0xA0 SHL SUB AND PUSH1 0x1 PUSH1 0x1 PUSH1 0xA0 SHL SUB AND DUP2 MSTORE PUSH1 0x20 ADD SWAP1 DUP2 MSTORE PUSH1 0x20 ADD PUSH0 KECCAK256 PUSH1 0x1 ADD PUSH0 SWAP1 SLOAD SWAP1 PUSH2 0x100 EXP SWAP1 DIV PUSH1 0x1 PUSH1 0x1 PUSH1 0xA0 SHL SUB AND SWAP1 POP PUSH0 DUP8 DUP8 PUSH1 0x1 DUP2 DUP2 LT PUSH2 0x782 JUMPI PUSH2 0x782 PUSH2 0x16CE JUMP JUMPDEST SWAP1 POP PUSH1 0x20 MUL ADD PUSH1 0x20 DUP2 ADD SWAP1 PUSH2 0x797 SWAP2 SWAP1 PUSH2 0x13A3 JUMP JUMPDEST PUSH1 0x40 MLOAD PUSH4 0x6EB1769F PUSH1 0xE1 SHL DUP2 MSTORE PUSH1 0x1 PUSH1 0x1 PUSH1 0xA0 SHL SUB DUP5 DUP2 AND PUSH1 0x4 DUP4 ADD MSTORE ADDRESS PUSH1 0x24 DUP4 ADD MSTORE SWAP2 SWAP1 SWAP2 AND SWAP1 PUSH4 0xDD62ED3E SWAP1 PUSH1 0x44 ADD PUSH1 0x20 PUSH1 0x40 MLOAD DUP1 DUP4 SUB DUP2 DUP7 GAS STATICCALL ISZERO DUP1 ISZERO PUSH2 0x7E3 JUMPI RETURNDATASIZE PUSH0 PUSH0 RETURNDATACOPY RETURNDATASIZE PUSH0 REVERT JUMPDEST POP POP POP POP PUSH1 0x40 MLOAD RETURNDATASIZE PUSH1 0x1F NOT PUSH1 0x1F DUP3 ADD AND DUP3 ADD DUP1 PUSH1 0x40 MSTORE POP DUP2 ADD SWAP1 PUSH2 0x807 SWAP2 SWAP1 PUSH2 0x16E2 JUMP JUMPDEST SWAP1 POP DUP3 DUP2 LT ISZERO PUSH2 0x86E JUMPI PUSH1 0x40 MLOAD PUSH3 0x461BCD PUSH1 0xE5 SHL DUP2 MSTORE PUSH1 0x20 PUSH1 0x4 DUP3 ADD MSTORE PUSH1 0x2C PUSH1 0x24 DUP3 ADD MSTORE PUSH32 0x556E69737761705632526F757465723A20494E53554646494349454E545F414D PUSH1 0x44 DUP3 ADD MSTORE PUSH12 0x13D5539517D0531313D5D151 PUSH1 0xA2 SHL PUSH1 0x64 DUP3 ADD MSTORE PUSH1 0x84 ADD PUSH2 0x507 JUMP JUMPDEST PUSH32 0x0 PUSH1 0x1 PUSH1 0x1 PUSH1 0xA0 SHL SUB AND PUSH4 0xD0E30DB0 DUP6 PUSH1 0x40 MLOAD DUP3 PUSH4 0xFFFFFFFF AND PUSH1 0xE0 SHL DUP2 MSTORE PUSH1 0x4 ADD PUSH0 PUSH1 0x40 MLOAD DUP1 DUP4 SUB DUP2 DUP6 DUP9 DUP1 EXTCODESIZE ISZERO DUP1 ISZERO PUSH2 0x8C7 JUMPI PUSH0 PUSH0 REVERT JUMPDEST POP GAS CALL ISZERO DUP1 ISZERO PUSH2 0x8D9 JUMPI RETURNDATASIZE PUSH0 PUSH0 RETURNDATACOPY RETURNDATASIZE PUSH0 REVERT JUMPDEST POP POP POP POP POP PUSH32 0x0 PUSH1 0x1 PUSH1 0x1 PUSH1 0xA0 SHL SUB AND PUSH4 0xA9059CBB DUP10 DUP10 PUSH1 0x1 DUP2 DUP2 LT PUSH2 0x920 JUMPI PUSH2 0x920 PUSH2 0x16CE JUMP JUMPDEST SWAP1 POP PUSH1 0x20 MUL ADD PUSH1 0x20 DUP2 ADD SWAP1 PUSH2 0x935 SWAP2 SWAP1 PUSH2 0x13A3 JUMP JUMPDEST PUSH1 0x40 MLOAD PUSH1 0x1 PUSH1 0x1 PUSH1 0xE0 SHL SUB NOT PUSH1 0xE0 DUP5 SWAP1 SHL AND DUP2 MSTORE PUSH1 0x1 PUSH1 0x1 PUSH1 0xA0 SHL SUB SWAP1 SWAP2 AND PUSH1 0x4 DUP3 ADD MSTORE PUSH1 0x24 DUP2 ADD DUP8 SWAP1 MSTORE PUSH1 0x44 ADD PUSH1 0x20 PUSH1 0x40 MLOAD DUP1 DUP4 SUB DUP2 PUSH0 DUP8 GAS CALL ISZERO DUP1 ISZERO PUSH2 0x97F JUMPI RETURNDATASIZE PUSH0 PUSH0 RETURNDATACOPY RETURNDATASIZE PUSH0 REVERT JUMPDEST POP POP POP POP PUSH1 0x40 MLOAD RETURNDATASIZE PUSH1 0x1F NOT PUSH1 0x1F DUP3 ADD AND DUP3 ADD DUP1 PUSH1 0x40 MSTORE POP DUP2 ADD SWAP1 PUSH2 0x9A3 SWAP2 SWAP1 PUSH2 0x16F9 JUMP JUMPDEST POP DUP8 DUP8 PUSH1 0x1 DUP2 DUP2 LT PUSH2 0x9B7 JUMPI PUSH2 0x9B7 PUSH2 0x16CE JUMP JUMPDEST SWAP1 POP PUSH1 0x20 MUL ADD PUSH1 0x20 DUP2 ADD SWAP1 PUSH2 0x9CC SWAP2 SWAP1 PUSH2 0x13A3 JUMP JUMPDEST PUSH1 0x40 MLOAD PUSH4 0x23B872DD PUSH1 0xE0 SHL DUP2 MSTORE PUSH1 0x1 PUSH1 0x1 PUSH1 0xA0 SHL SUB DUP5 DUP2 AND PUSH1 0x4 DUP4 ADD MSTORE DUP9 DUP2 AND PUSH1 0x24 DUP4 ADD MSTORE PUSH1 0x44 DUP3 ADD DUP7 SWAP1 MSTORE SWAP2 SWAP1 SWAP2 AND SWAP1 PUSH4 0x23B872DD SWAP1 PUSH1 0x64 ADD PUSH1 0x20 PUSH1 0x40 MLOAD DUP1 DUP4 SUB DUP2 PUSH0 DUP8 GAS CALL ISZERO DUP1 ISZERO PUSH2 0xA22 JUMPI RETURNDATASIZE PUSH0 PUSH0 RETURNDATACOPY RETURNDATASIZE PUSH0 REVERT JUMPDEST POP POP POP POP PUSH1 0x40 MLOAD RETURNDATASIZE PUSH1 0x1F NOT PUSH1 0x1F DUP3 ADD AND DUP3 ADD DUP1 PUSH1 0x40 MSTORE POP DUP2 ADD SWAP1 PUSH2 0xA46 SWAP2 SWAP1 PUSH2 0x16F9 JUMP JUMPDEST POP POP POP POP POP POP POP POP POP POP JUMP JUMPDEST PUSH1 0x60 PUSH0 DUP4 GT PUSH2 0xAC1 JUMPI PUSH1 0x40 MLOAD PUSH3 0x461BCD PUSH1 0xE5 SHL DUP2 MSTORE PUSH1 0x20 PUSH1 0x4 DUP3 ADD MSTORE PUSH1 0x35 PUSH1 0x24 DUP3 ADD MSTORE PUSH32 0x556E69737761705632526F757465723A20616D6F756E74496E2073686F756C64 PUSH1 0x44 DUP3 ADD MSTORE PUSH21 0x2062652067726561746572207468616E207A65726F PUSH1 0x58 SHL PUSH1 0x64 DUP3 ADD MSTORE PUSH1 0x84 ADD PUSH2 0x507 JUMP JUMPDEST PUSH1 0x2 DUP3 MLOAD LT ISZERO PUSH2 0xB2E JUMPI PUSH1 0x40 MLOAD PUSH3 0x461BCD PUSH1 0xE5 SHL DUP2 MSTORE PUSH1 0x20 PUSH1 0x4 DUP3 ADD MSTORE PUSH1 0x32 PUSH1 0x24 DUP3 ADD MSTORE PUSH32 0x556E69737761705632526F757465723A207061746820636F6E7461696E732061 PUSH1 0x44 DUP3 ADD MSTORE PUSH18 0x74206C65617374203220656C656D656E7473 PUSH1 0x70 SHL PUSH1 0x64 DUP3 ADD MSTORE PUSH1 0x84 ADD PUSH2 0x507 JUMP JUMPDEST DUP2 MLOAD PUSH8 0xFFFFFFFFFFFFFFFF DUP2 GT ISZERO PUSH2 0xB48 JUMPI PUSH2 0xB48 PUSH2 0x144E JUMP JUMPDEST PUSH1 0x40 MLOAD SWAP1 DUP1 DUP3 MSTORE DUP1 PUSH1 0x20 MUL PUSH1 0x20 ADD DUP3 ADD PUSH1 0x40 MSTORE DUP1 ISZERO PUSH2 0xB71 JUMPI DUP2 PUSH1 0x20 ADD PUSH1 0x20 DUP3 MUL DUP1 CALLDATASIZE DUP4 CALLDATACOPY ADD SWAP1 POP JUMPDEST POP SWAP1 POP DUP3 DUP2 PUSH0 DUP2 MLOAD DUP2 LT PUSH2 0xB87 JUMPI PUSH2 0xB87 PUSH2 0x16CE JUMP JUMPDEST PUSH1 0x20 MUL PUSH1 0x20 ADD ADD DUP2 DUP2 MSTORE POP POP PUSH0 JUMPDEST PUSH1 0x1 DUP4 MLOAD PUSH2 0xBA3 SWAP2 SWAP1 PUSH2 0x172C JUMP JUMPDEST DUP2 LT ISZERO PUSH2 0xE06 JUMPI PUSH1 0x97 PUSH0 DUP5 PUSH2 0xBB9 DUP5 PUSH1 0x1 PUSH2 0x173F JUMP JUMPDEST DUP2 MLOAD DUP2 LT PUSH2 0xBC9 JUMPI PUSH2 0xBC9 PUSH2 0x16CE JUMP JUMPDEST PUSH1 0x20 MUL PUSH1 0x20 ADD ADD MLOAD PUSH1 0x1 PUSH1 0x1 PUSH1 0xA0 SHL SUB AND PUSH1 0x1 PUSH1 0x1 PUSH1 0xA0 SHL SUB AND DUP2 MSTORE PUSH1 0x20 ADD SWAP1 DUP2 MSTORE PUSH1 0x20 ADD PUSH0 KECCAK256 PUSH0 ADD SLOAD PUSH0 EQ PUSH2 0xDD4 JUMPI PUSH32 0x0 PUSH1 0x1 PUSH1 0x1 PUSH1 0xA0 SHL SUB AND DUP4 PUSH0 DUP2 MLOAD DUP2 LT PUSH2 0xC35 JUMPI PUSH2 0xC35 PUSH2 0x16CE JUMP JUMPDEST PUSH1 0x20 MUL PUSH1 0x20 ADD ADD MLOAD PUSH1 0x1 PUSH1 0x1 PUSH1 0xA0 SHL SUB AND SUB PUSH2 0xCDF JUMPI PUSH1 0x97 PUSH0 DUP5 PUSH2 0xC5A DUP5 PUSH1 0x1 PUSH2 0x173F JUMP JUMPDEST DUP2 MLOAD DUP2 LT PUSH2 0xC6A JUMPI PUSH2 0xC6A PUSH2 0x16CE JUMP JUMPDEST PUSH1 0x20 MUL PUSH1 0x20 ADD ADD MLOAD PUSH1 0x1 PUSH1 0x1 PUSH1 0xA0 SHL SUB AND PUSH1 0x1 PUSH1 0x1 PUSH1 0xA0 SHL SUB AND DUP2 MSTORE PUSH1 0x20 ADD SWAP1 DUP2 MSTORE PUSH1 0x20 ADD PUSH0 KECCAK256 PUSH0 ADD SLOAD DUP5 PUSH8 0xDE0B6B3A7640000 PUSH2 0xCA8 SWAP2 SWAP1 PUSH2 0x1752 JUMP JUMPDEST PUSH2 0xCB2 SWAP2 SWAP1 PUSH2 0x1769 JUMP JUMPDEST DUP3 PUSH2 0xCBE DUP4 PUSH1 0x1 PUSH2 0x173F JUMP JUMPDEST DUP2 MLOAD DUP2 LT PUSH2 0xCCE JUMPI PUSH2 0xCCE PUSH2 0x16CE JUMP JUMPDEST PUSH1 0x20 MUL PUSH1 0x20 ADD ADD DUP2 DUP2 MSTORE POP POP PUSH2 0xDFE JUMP JUMPDEST PUSH0 PUSH8 0xDE0B6B3A7640000 PUSH1 0x97 PUSH0 DUP7 PUSH0 DUP2 MLOAD DUP2 LT PUSH2 0xCFE JUMPI PUSH2 0xCFE PUSH2 0x16CE JUMP JUMPDEST PUSH1 0x20 MUL PUSH1 0x20 ADD ADD MLOAD PUSH1 0x1 PUSH1 0x1 PUSH1 0xA0 SHL SUB AND PUSH1 0x1 PUSH1 0x1 PUSH1 0xA0 SHL SUB AND DUP2 MSTORE PUSH1 0x20 ADD SWAP1 DUP2 MSTORE PUSH1 0x20 ADD PUSH0 KECCAK256 PUSH0 ADD SLOAD DUP7 PUSH8 0xDE0B6B3A7640000 PUSH2 0xD3C SWAP2 SWAP1 PUSH2 0x1752 JUMP JUMPDEST PUSH2 0xD46 SWAP2 SWAP1 PUSH2 0x1752 JUMP JUMPDEST PUSH2 0xD50 SWAP2 SWAP1 PUSH2 0x1769 JUMP JUMPDEST SWAP1 POP PUSH1 0x97 PUSH0 DUP6 PUSH2 0xD61 DUP6 PUSH1 0x1 PUSH2 0x173F JUMP JUMPDEST DUP2 MLOAD DUP2 LT PUSH2 0xD71 JUMPI PUSH2 0xD71 PUSH2 0x16CE JUMP JUMPDEST PUSH1 0x20 MUL PUSH1 0x20 ADD ADD MLOAD PUSH1 0x1 PUSH1 0x1 PUSH1 0xA0 SHL SUB AND PUSH1 0x1 PUSH1 0x1 PUSH1 0xA0 SHL SUB AND DUP2 MSTORE PUSH1 0x20 ADD SWAP1 DUP2 MSTORE PUSH1 0x20 ADD PUSH0 KECCAK256 PUSH0 ADD SLOAD DUP2 PUSH2 0xDA6 SWAP2 SWAP1 PUSH2 0x1769 JUMP JUMPDEST DUP4 PUSH2 0xDB2 DUP5 PUSH1 0x1 PUSH2 0x173F JUMP JUMPDEST DUP2 MLOAD DUP2 LT PUSH2 0xDC2 JUMPI PUSH2 0xDC2 PUSH2 0x16CE JUMP JUMPDEST PUSH1 0x20 MUL PUSH1 0x20 ADD ADD DUP2 DUP2 MSTORE POP POP POP PUSH2 0xDFE JUMP JUMPDEST PUSH0 DUP3 PUSH2 0xDE1 DUP4 PUSH1 0x1 PUSH2 0x173F JUMP JUMPDEST DUP2 MLOAD DUP2 LT PUSH2 0xDF1 JUMPI PUSH2 0xDF1 PUSH2 0x16CE JUMP JUMPDEST PUSH1 0x20 MUL PUSH1 0x20 ADD ADD DUP2 DUP2 MSTORE POP POP JUMPDEST PUSH1 0x1 ADD PUSH2 0xB95 JUMP JUMPDEST POP SWAP3 SWAP2 POP POP JUMP JUMPDEST PUSH0 DUP3 DUP2 MSTORE PUSH1 0x65 PUSH1 0x20 MSTORE PUSH1 0x40 SWAP1 KECCAK256 PUSH1 0x1 ADD SLOAD PUSH2 0xE27 DUP2 PUSH2 0x1020 JUMP JUMPDEST PUSH2 0x496 DUP4 DUP4 PUSH2 0x10B2 JUMP JUMPDEST PUSH32 0xA451215B66F023BB76F9A9E7BC5C64156446B47B26061A8A32EAA319C45F695E PUSH2 0xE5B DUP2 PUSH2 0x1020 JUMP JUMPDEST PUSH1 0x1E DUP5 MLOAD GT ISZERO PUSH2 0xEE2 JUMPI PUSH1 0x40 MLOAD PUSH3 0x461BCD PUSH1 0xE5 SHL DUP2 MSTORE PUSH1 0x20 PUSH1 0x4 DUP3 ADD MSTORE PUSH1 0x46 PUSH1 0x24 DUP3 ADD MSTORE PUSH32 0x556E69737761705632526F757465723A20546F6B656E73206172726179206973 PUSH1 0x44 DUP3 ADD MSTORE PUSH32 0x20746F6F206C6F6E672C2072656475636520746865206E756D626572206F6620 PUSH1 0x64 DUP3 ADD MSTORE PUSH6 0x746F6B656E73 PUSH1 0xD0 SHL PUSH1 0x84 DUP3 ADD MSTORE PUSH1 0xA4 ADD PUSH2 0x507 JUMP JUMPDEST PUSH0 JUMPDEST DUP5 MLOAD DUP2 LT ISZERO PUSH2 0xF9E JUMPI PUSH1 0x40 MLOAD DUP1 PUSH1 0x40 ADD PUSH1 0x40 MSTORE DUP1 DUP5 DUP4 DUP2 MLOAD DUP2 LT PUSH2 0xF0A JUMPI PUSH2 0xF0A PUSH2 0x16CE JUMP JUMPDEST PUSH1 0x20 MUL PUSH1 0x20 ADD ADD MLOAD DUP2 MSTORE PUSH1 0x20 ADD DUP6 DUP4 DUP2 MLOAD DUP2 LT PUSH2 0xF29 JUMPI PUSH2 0xF29 PUSH2 0x16CE JUMP JUMPDEST PUSH1 0x20 MUL PUSH1 0x20 ADD ADD MLOAD PUSH1 0x1 PUSH1 0x1 PUSH1 0xA0 SHL SUB AND DUP2 MSTORE POP PUSH1 0x97 PUSH0 DUP8 DUP5 DUP2 MLOAD DUP2 LT PUSH2 0xF52 JUMPI PUSH2 0xF52 PUSH2 0x16CE JUMP JUMPDEST PUSH1 0x20 SWAP1 DUP2 MUL SWAP2 SWAP1 SWAP2 ADD DUP2 ADD MLOAD PUSH1 0x1 PUSH1 0x1 PUSH1 0xA0 SHL SUB SWAP1 DUP2 AND DUP4 MSTORE DUP3 DUP3 ADD SWAP4 SWAP1 SWAP4 MSTORE PUSH1 0x40 SWAP1 SWAP2 ADD PUSH0 KECCAK256 DUP4 MLOAD DUP2 SSTORE SWAP3 ADD MLOAD PUSH1 0x1 SWAP3 DUP4 ADD DUP1 SLOAD PUSH1 0x1 PUSH1 0x1 PUSH1 0xA0 SHL SUB NOT AND SWAP2 SWAP1 SWAP3 AND OR SWAP1 SSTORE ADD PUSH2 0xEE4 JUMP JUMPDEST POP POP POP POP POP JUMP JUMPDEST PUSH32 0xA451215B66F023BB76F9A9E7BC5C64156446B47B26061A8A32EAA319C45F695E PUSH2 0xFCF DUP2 PUSH2 0x1020 JUMP JUMPDEST POP PUSH1 0x40 DUP1 MLOAD DUP1 DUP3 ADD DUP3 MSTORE SWAP2 DUP3 MSTORE PUSH1 0x1 PUSH1 0x1 PUSH1 0xA0 SHL SUB SWAP3 DUP4 AND PUSH1 0x20 DUP1 DUP5 ADD SWAP2 DUP3 MSTORE SWAP5 DUP5 AND PUSH0 SWAP1 DUP2 MSTORE PUSH1 0x97 SWAP1 SWAP6 MSTORE SWAP4 KECCAK256 SWAP1 MLOAD DUP2 SSTORE SWAP2 MLOAD PUSH1 0x1 SWAP1 SWAP3 ADD DUP1 SLOAD PUSH1 0x1 PUSH1 0x1 PUSH1 0xA0 SHL SUB NOT AND SWAP3 SWAP1 SWAP2 AND SWAP2 SWAP1 SWAP2 OR SWAP1 SSTORE JUMP JUMPDEST PUSH2 0x102A DUP2 CALLER PUSH2 0x1118 JUMP JUMPDEST POP JUMP JUMPDEST PUSH2 0x1037 DUP3 DUP3 PUSH2 0x51E JUMP JUMPDEST PUSH2 0x51A JUMPI PUSH0 DUP3 DUP2 MSTORE PUSH1 0x65 PUSH1 0x20 SWAP1 DUP2 MSTORE PUSH1 0x40 DUP1 DUP4 KECCAK256 PUSH1 0x1 PUSH1 0x1 PUSH1 0xA0 SHL SUB DUP6 AND DUP5 MSTORE SWAP1 SWAP2 MSTORE SWAP1 KECCAK256 DUP1 SLOAD PUSH1 0xFF NOT AND PUSH1 0x1 OR SWAP1 SSTORE PUSH2 0x106E CALLER SWAP1 JUMP JUMPDEST PUSH1 0x1 PUSH1 0x1 PUSH1 0xA0 SHL SUB AND DUP2 PUSH1 0x1 PUSH1 0x1 PUSH1 0xA0 SHL SUB AND DUP4 PUSH32 0x2F8788117E7EFF1D82E926EC794901D17C78024A50270940304540A733656F0D PUSH1 0x40 MLOAD PUSH1 0x40 MLOAD DUP1 SWAP2 SUB SWAP1 LOG4 POP POP JUMP JUMPDEST PUSH2 0x10BC DUP3 DUP3 PUSH2 0x51E JUMP JUMPDEST ISZERO PUSH2 0x51A JUMPI PUSH0 DUP3 DUP2 MSTORE PUSH1 0x65 PUSH1 0x20 SWAP1 DUP2 MSTORE PUSH1 0x40 DUP1 DUP4 KECCAK256 PUSH1 0x1 PUSH1 0x1 PUSH1 0xA0 SHL SUB DUP6 AND DUP1 DUP6 MSTORE SWAP3 MSTORE DUP1 DUP4 KECCAK256 DUP1 SLOAD PUSH1 0xFF NOT AND SWAP1 SSTORE MLOAD CALLER SWAP3 DUP6 SWAP2 PUSH32 0xF6391F5C32D9C69D2A47EA670B442974B53935D1EDC7FD64EB21E047A839171B SWAP2 SWAP1 LOG4 POP POP JUMP JUMPDEST PUSH2 0x1122 DUP3 DUP3 PUSH2 0x51E JUMP JUMPDEST PUSH2 0x51A JUMPI PUSH2 0x112F DUP2 PUSH2 0x1171 JUMP JUMPDEST PUSH2 0x113A DUP4 PUSH1 0x20 PUSH2 0x1183 JUMP JUMPDEST PUSH1 0x40 MLOAD PUSH1 0x20 ADD PUSH2 0x114B SWAP3 SWAP2 SWAP1 PUSH2 0x179F JUMP JUMPDEST PUSH1 0x40 DUP1 MLOAD PUSH1 0x1F NOT DUP2 DUP5 SUB ADD DUP2 MSTORE SWAP1 DUP3 SWAP1 MSTORE PUSH3 0x461BCD PUSH1 0xE5 SHL DUP3 MSTORE PUSH2 0x507 SWAP2 PUSH1 0x4 ADD PUSH2 0x17FD JUMP JUMPDEST PUSH1 0x60 PUSH2 0x46C PUSH1 0x1 PUSH1 0x1 PUSH1 0xA0 SHL SUB DUP4 AND PUSH1 0x14 JUMPDEST PUSH1 0x60 PUSH0 PUSH2 0x1191 DUP4 PUSH1 0x2 PUSH2 0x1752 JUMP JUMPDEST PUSH2 0x119C SWAP1 PUSH1 0x2 PUSH2 0x173F JUMP JUMPDEST PUSH8 0xFFFFFFFFFFFFFFFF DUP2 GT ISZERO PUSH2 0x11B4 JUMPI PUSH2 0x11B4 PUSH2 0x144E JUMP JUMPDEST PUSH1 0x40 MLOAD SWAP1 DUP1 DUP3 MSTORE DUP1 PUSH1 0x1F ADD PUSH1 0x1F NOT AND PUSH1 0x20 ADD DUP3 ADD PUSH1 0x40 MSTORE DUP1 ISZERO PUSH2 0x11DE JUMPI PUSH1 0x20 DUP3 ADD DUP2 DUP1 CALLDATASIZE DUP4 CALLDATACOPY ADD SWAP1 POP JUMPDEST POP SWAP1 POP PUSH1 0x3 PUSH1 0xFC SHL DUP2 PUSH0 DUP2 MLOAD DUP2 LT PUSH2 0x11F8 JUMPI PUSH2 0x11F8 PUSH2 0x16CE JUMP JUMPDEST PUSH1 0x20 ADD ADD SWAP1 PUSH1 0x1 PUSH1 0x1 PUSH1 0xF8 SHL SUB NOT AND SWAP1 DUP2 PUSH0 BYTE SWAP1 MSTORE8 POP PUSH1 0xF PUSH1 0xFB SHL DUP2 PUSH1 0x1 DUP2 MLOAD DUP2 LT PUSH2 0x1226 JUMPI PUSH2 0x1226 PUSH2 0x16CE JUMP JUMPDEST PUSH1 0x20 ADD ADD SWAP1 PUSH1 0x1 PUSH1 0x1 PUSH1 0xF8 SHL SUB NOT AND SWAP1 DUP2 PUSH0 BYTE SWAP1 MSTORE8 POP PUSH0 PUSH2 0x1248 DUP5 PUSH1 0x2 PUSH2 0x1752 JUMP JUMPDEST PUSH2 0x1253 SWAP1 PUSH1 0x1 PUSH2 0x173F JUMP JUMPDEST SWAP1 POP JUMPDEST PUSH1 0x1 DUP2 GT ISZERO PUSH2 0x12CA JUMPI PUSH16 0x181899199A1A9B1B9C1CB0B131B232B3 PUSH1 0x81 SHL DUP6 PUSH1 0xF AND PUSH1 0x10 DUP2 LT PUSH2 0x1287 JUMPI PUSH2 0x1287 PUSH2 0x16CE JUMP JUMPDEST BYTE PUSH1 0xF8 SHL DUP3 DUP3 DUP2 MLOAD DUP2 LT PUSH2 0x129D JUMPI PUSH2 0x129D PUSH2 0x16CE JUMP JUMPDEST PUSH1 0x20 ADD ADD SWAP1 PUSH1 0x1 PUSH1 0x1 PUSH1 0xF8 SHL SUB NOT AND SWAP1 DUP2 PUSH0 BYTE SWAP1 MSTORE8 POP PUSH1 0x4 SWAP5 SWAP1 SWAP5 SHR SWAP4 PUSH2 0x12C3 DUP2 PUSH2 0x1832 JUMP JUMPDEST SWAP1 POP PUSH2 0x1256 JUMP JUMPDEST POP DUP4 ISZERO PUSH2 0x1319 JUMPI PUSH1 0x40 MLOAD PUSH3 0x461BCD PUSH1 0xE5 SHL DUP2 MSTORE PUSH1 0x20 PUSH1 0x4 DUP3 ADD DUP2 SWAP1 MSTORE PUSH1 0x24 DUP3 ADD MSTORE PUSH32 0x537472696E67733A20686578206C656E67746820696E73756666696369656E74 PUSH1 0x44 DUP3 ADD MSTORE PUSH1 0x64 ADD PUSH2 0x507 JUMP JUMPDEST SWAP4 SWAP3 POP POP POP JUMP JUMPDEST PUSH0 PUSH1 0x20 DUP3 DUP5 SUB SLT ISZERO PUSH2 0x1330 JUMPI PUSH0 PUSH0 REVERT JUMPDEST DUP2 CALLDATALOAD PUSH1 0x1 PUSH1 0x1 PUSH1 0xE0 SHL SUB NOT DUP2 AND DUP2 EQ PUSH2 0x1319 JUMPI PUSH0 PUSH0 REVERT JUMPDEST PUSH0 PUSH1 0x20 DUP3 DUP5 SUB SLT ISZERO PUSH2 0x1357 JUMPI PUSH0 PUSH0 REVERT JUMPDEST POP CALLDATALOAD SWAP2 SWAP1 POP JUMP JUMPDEST DUP1 CALLDATALOAD PUSH1 0x1 PUSH1 0x1 PUSH1 0xA0 SHL SUB DUP2 AND DUP2 EQ PUSH2 0x1374 JUMPI PUSH0 PUSH0 REVERT JUMPDEST SWAP2 SWAP1 POP JUMP JUMPDEST PUSH0 PUSH0 PUSH1 0x40 DUP4 DUP6 SUB SLT ISZERO PUSH2 0x138A JUMPI PUSH0 PUSH0 REVERT JUMPDEST DUP3 CALLDATALOAD SWAP2 POP PUSH2 0x139A PUSH1 0x20 DUP5 ADD PUSH2 0x135E JUMP JUMPDEST SWAP1 POP SWAP3 POP SWAP3 SWAP1 POP JUMP JUMPDEST PUSH0 PUSH1 0x20 DUP3 DUP5 SUB SLT ISZERO PUSH2 0x13B3 JUMPI PUSH0 PUSH0 REVERT JUMPDEST PUSH2 0x1319 DUP3 PUSH2 0x135E JUMP JUMPDEST PUSH0 PUSH0 PUSH0 PUSH0 PUSH0 PUSH1 0x80 DUP7 DUP9 SUB SLT ISZERO PUSH2 0x13D0 JUMPI PUSH0 PUSH0 REVERT JUMPDEST DUP6 CALLDATALOAD SWAP5 POP PUSH1 0x20 DUP7 ADD CALLDATALOAD PUSH8 0xFFFFFFFFFFFFFFFF DUP2 GT ISZERO PUSH2 0x13ED JUMPI PUSH0 PUSH0 REVERT JUMPDEST DUP7 ADD PUSH1 0x1F DUP2 ADD DUP9 SGT PUSH2 0x13FD JUMPI PUSH0 PUSH0 REVERT JUMPDEST DUP1 CALLDATALOAD PUSH8 0xFFFFFFFFFFFFFFFF DUP2 GT ISZERO PUSH2 0x1413 JUMPI PUSH0 PUSH0 REVERT JUMPDEST DUP9 PUSH1 0x20 DUP3 PUSH1 0x5 SHL DUP5 ADD ADD GT ISZERO PUSH2 0x1427 JUMPI PUSH0 PUSH0 REVERT JUMPDEST PUSH1 0x20 SWAP2 SWAP1 SWAP2 ADD SWAP5 POP SWAP3 POP PUSH2 0x143D PUSH1 0x40 DUP8 ADD PUSH2 0x135E JUMP JUMPDEST SWAP5 SWAP8 SWAP4 SWAP7 POP SWAP2 SWAP5 PUSH1 0x60 ADD CALLDATALOAD SWAP3 SWAP2 POP POP JUMP JUMPDEST PUSH4 0x4E487B71 PUSH1 0xE0 SHL PUSH0 MSTORE PUSH1 0x41 PUSH1 0x4 MSTORE PUSH1 0x24 PUSH0 REVERT JUMPDEST PUSH1 0x40 MLOAD PUSH1 0x1F DUP3 ADD PUSH1 0x1F NOT AND DUP2 ADD PUSH8 0xFFFFFFFFFFFFFFFF DUP2 GT DUP3 DUP3 LT OR ISZERO PUSH2 0x148B JUMPI PUSH2 0x148B PUSH2 0x144E JUMP JUMPDEST PUSH1 0x40 MSTORE SWAP2 SWAP1 POP JUMP JUMPDEST PUSH0 PUSH8 0xFFFFFFFFFFFFFFFF DUP3 GT ISZERO PUSH2 0x14AC JUMPI PUSH2 0x14AC PUSH2 0x144E JUMP JUMPDEST POP PUSH1 0x5 SHL PUSH1 0x20 ADD SWAP1 JUMP JUMPDEST PUSH0 DUP3 PUSH1 0x1F DUP4 ADD SLT PUSH2 0x14C5 JUMPI PUSH0 PUSH0 REVERT JUMPDEST DUP2 CALLDATALOAD PUSH2 0x14D8 PUSH2 0x14D3 DUP3 PUSH2 0x1493 JUMP JUMPDEST PUSH2 0x1462 JUMP JUMPDEST DUP1 DUP3 DUP3 MSTORE PUSH1 0x20 DUP3 ADD SWAP2 POP PUSH1 0x20 DUP4 PUSH1 0x5 SHL DUP7 ADD ADD SWAP3 POP DUP6 DUP4 GT ISZERO PUSH2 0x14F9 JUMPI PUSH0 PUSH0 REVERT JUMPDEST PUSH1 0x20 DUP6 ADD JUMPDEST DUP4 DUP2 LT ISZERO PUSH2 0x151D JUMPI PUSH2 0x150F DUP2 PUSH2 0x135E JUMP JUMPDEST DUP4 MSTORE PUSH1 0x20 SWAP3 DUP4 ADD SWAP3 ADD PUSH2 0x14FE JUMP JUMPDEST POP SWAP6 SWAP5 POP POP POP POP POP JUMP JUMPDEST PUSH0 PUSH0 PUSH1 0x40 DUP4 DUP6 SUB SLT ISZERO PUSH2 0x1538 JUMPI PUSH0 PUSH0 REVERT JUMPDEST DUP3 CALLDATALOAD SWAP2 POP PUSH1 0x20 DUP4 ADD CALLDATALOAD PUSH8 0xFFFFFFFFFFFFFFFF DUP2 GT ISZERO PUSH2 0x1555 JUMPI PUSH0 PUSH0 REVERT JUMPDEST PUSH2 0x1561 DUP6 DUP3 DUP7 ADD PUSH2 0x14B6 JUMP JUMPDEST SWAP2 POP POP SWAP3 POP SWAP3 SWAP1 POP JUMP JUMPDEST PUSH1 0x20 DUP1 DUP3 MSTORE DUP3 MLOAD DUP3 DUP3 ADD DUP2 SWAP1 MSTORE PUSH0 SWAP2 DUP5 ADD SWAP1 PUSH1 0x40 DUP5 ADD SWAP1 DUP4 JUMPDEST DUP2 DUP2 LT ISZERO PUSH2 0x15A2 JUMPI DUP4 MLOAD DUP4 MSTORE PUSH1 0x20 SWAP4 DUP5 ADD SWAP4 SWAP1 SWAP3 ADD SWAP2 PUSH1 0x1 ADD PUSH2 0x1584 JUMP JUMPDEST POP SWAP1 SWAP6 SWAP5 POP POP POP POP POP JUMP JUMPDEST PUSH0 PUSH0 PUSH0 PUSH1 0x60 DUP5 DUP7 SUB SLT ISZERO PUSH2 0x15BF JUMPI PUSH0 PUSH0 REVERT JUMPDEST DUP4 CALLDATALOAD PUSH8 0xFFFFFFFFFFFFFFFF DUP2 GT ISZERO PUSH2 0x15D5 JUMPI PUSH0 PUSH0 REVERT JUMPDEST PUSH2 0x15E1 DUP7 DUP3 DUP8 ADD PUSH2 0x14B6 JUMP JUMPDEST SWAP4 POP POP PUSH1 0x20 DUP5 ADD CALLDATALOAD PUSH8 0xFFFFFFFFFFFFFFFF DUP2 GT ISZERO PUSH2 0x15FD JUMPI PUSH0 PUSH0 REVERT JUMPDEST PUSH2 0x1609 DUP7 DUP3 DUP8 ADD PUSH2 0x14B6 JUMP JUMPDEST SWAP3 POP POP PUSH1 0x40 DUP5 ADD CALLDATALOAD PUSH8 0xFFFFFFFFFFFFFFFF DUP2 GT ISZERO PUSH2 0x1625 JUMPI PUSH0 PUSH0 REVERT JUMPDEST DUP5 ADD PUSH1 0x1F DUP2 ADD DUP7 SGT PUSH2 0x1635 JUMPI PUSH0 PUSH0 REVERT JUMPDEST DUP1 CALLDATALOAD PUSH2 0x1643 PUSH2 0x14D3 DUP3 PUSH2 0x1493 JUMP JUMPDEST DUP1 DUP3 DUP3 MSTORE PUSH1 0x20 DUP3 ADD SWAP2 POP PUSH1 0x20 DUP4 PUSH1 0x5 SHL DUP6 ADD ADD SWAP3 POP DUP9 DUP4 GT ISZERO PUSH2 0x1664 JUMPI PUSH0 PUSH0 REVERT JUMPDEST PUSH1 0x20 DUP5 ADD SWAP4 POP JUMPDEST DUP3 DUP5 LT ISZERO PUSH2 0x1686 JUMPI DUP4 CALLDATALOAD DUP3 MSTORE PUSH1 0x20 SWAP4 DUP5 ADD SWAP4 SWAP1 SWAP2 ADD SWAP1 PUSH2 0x166B JUMP JUMPDEST DUP1 SWAP5 POP POP POP POP POP SWAP3 POP SWAP3 POP SWAP3 JUMP JUMPDEST PUSH0 PUSH0 PUSH0 PUSH1 0x60 DUP5 DUP7 SUB SLT ISZERO PUSH2 0x16A6 JUMPI PUSH0 PUSH0 REVERT JUMPDEST PUSH2 0x16AF DUP5 PUSH2 0x135E JUMP JUMPDEST SWAP3 POP PUSH2 0x16BD PUSH1 0x20 DUP6 ADD PUSH2 0x135E JUMP JUMPDEST SWAP3 SWAP6 SWAP3 SWAP5 POP POP POP PUSH1 0x40 SWAP2 SWAP1 SWAP2 ADD CALLDATALOAD SWAP1 JUMP JUMPDEST PUSH4 0x4E487B71 PUSH1 0xE0 SHL PUSH0 MSTORE PUSH1 0x32 PUSH1 0x4 MSTORE PUSH1 0x24 PUSH0 REVERT JUMPDEST PUSH0 PUSH1 0x20 DUP3 DUP5 SUB SLT ISZERO PUSH2 0x16F2 JUMPI PUSH0 PUSH0 REVERT JUMPDEST POP MLOAD SWAP2 SWAP1 POP JUMP JUMPDEST PUSH0 PUSH1 0x20 DUP3 DUP5 SUB SLT ISZERO PUSH2 0x1709 JUMPI PUSH0 PUSH0 REVERT JUMPDEST DUP2 MLOAD DUP1 ISZERO ISZERO DUP2 EQ PUSH2 0x1319 JUMPI PUSH0 PUSH0 REVERT JUMPDEST PUSH4 0x4E487B71 PUSH1 0xE0 SHL PUSH0 MSTORE PUSH1 0x11 PUSH1 0x4 MSTORE PUSH1 0x24 PUSH0 REVERT JUMPDEST DUP2 DUP2 SUB DUP2 DUP2 GT ISZERO PUSH2 0x46C JUMPI PUSH2 0x46C PUSH2 0x1718 JUMP JUMPDEST DUP1 DUP3 ADD DUP1 DUP3 GT ISZERO PUSH2 0x46C JUMPI PUSH2 0x46C PUSH2 0x1718 JUMP JUMPDEST DUP1 DUP3 MUL DUP2 ISZERO DUP3 DUP3 DIV DUP5 EQ OR PUSH2 0x46C JUMPI PUSH2 0x46C PUSH2 0x1718 JUMP JUMPDEST PUSH0 DUP3 PUSH2 0x1783 JUMPI PUSH4 0x4E487B71 PUSH1 0xE0 SHL PUSH0 MSTORE PUSH1 0x12 PUSH1 0x4 MSTORE PUSH1 0x24 PUSH0 REVERT JUMPDEST POP DIV SWAP1 JUMP JUMPDEST PUSH0 DUP2 MLOAD DUP1 PUSH1 0x20 DUP5 ADD DUP6 MCOPY PUSH0 SWAP4 ADD SWAP3 DUP4 MSTORE POP SWAP1 SWAP2 SWAP1 POP JUMP JUMPDEST PUSH32 0x416363657373436F6E74726F6C3A206163636F756E7420000000000000000000 DUP2 MSTORE PUSH0 PUSH2 0x17D0 PUSH1 0x17 DUP4 ADD DUP6 PUSH2 0x1788 JUMP JUMPDEST PUSH17 0x1034B99036B4B9B9B4B733903937B6329 PUSH1 0x7D SHL DUP2 MSTORE PUSH2 0x17F4 PUSH1 0x11 DUP3 ADD DUP6 PUSH2 0x1788 JUMP JUMPDEST SWAP6 SWAP5 POP POP POP POP POP JUMP JUMPDEST PUSH1 0x20 DUP2 MSTORE PUSH0 DUP3 MLOAD DUP1 PUSH1 0x20 DUP5 ADD MSTORE DUP1 PUSH1 0x20 DUP6 ADD PUSH1 0x40 DUP6 ADD MCOPY PUSH0 PUSH1 0x40 DUP3 DUP6 ADD ADD MSTORE PUSH1 0x40 PUSH1 0x1F NOT PUSH1 0x1F DUP4 ADD AND DUP5 ADD ADD SWAP2 POP POP SWAP3 SWAP2 POP POP JUMP JUMPDEST PUSH0 DUP2 PUSH2 0x1840 JUMPI PUSH2 0x1840 PUSH2 0x1718 JUMP JUMPDEST POP PUSH0 NOT ADD SWAP1 JUMP INVALID LOG2 PUSH5 0x6970667358 0x22 SLT KECCAK256 0xB6 RETURN CALLDATALOAD 0xF6 CALLCODE 0xFB MOD 0xD2 SWAP11 INVALID SWAP3 SWAP16 SWAP2 PUSH5 0x28C8161D67 LOG4 PUSH15 0x67DC1BD46F41021501803B64736F6C PUSH4 0x4300081C STOP CALLER "
				},
				"gasEstimates": {
					"creation": {
						"codeDepositCost": "1253800",
						"executionCost": "infinite",
						"totalCost": "infinite"
					},
					"external": {
						"DEFAULT_ADMIN_ROLE()": "260",
						"PRICE_MANAGER()": "261",
						"WETH()": "infinite",
						"getAmountsOut(uint256,address[])": "infinite",
						"getRoleAdmin(bytes32)": "2487",
						"getTokenDetails(address)": "4855",
						"getTokenPrice(address)": "2623",
						"getWETHAddress()": "infinite",
						"grantRole(bytes32,address)": "infinite",
						"hasRole(bytes32,address)": "2695",
						"renounceRole(bytes32,address)": "29086",
						"revokeRole(bytes32,address)": "infinite",
						"setTokenDetails(address,address,uint256)": "infinite",
						"setTokensDetails(address[],address[],uint256[])": "infinite",
						"supportsInterface(bytes4)": "447",
						"swapExactETHForTokensSupportingFeeOnTransferTokens(uint256,address[],address,uint256)": "infinite",
						"tokenDetails(address)": "4754"
					}
				},
				"methodIdentifiers": {
					"DEFAULT_ADMIN_ROLE()": "a217fddf",
					"PRICE_MANAGER()": "cf0888aa",
					"WETH()": "ad5c4648",
					"getAmountsOut(uint256,address[])": "d06ca61f",
					"getRoleAdmin(bytes32)": "248a9ca3",
					"getTokenDetails(address)": "88aa8bee",
					"getTokenPrice(address)": "d02641a0",
					"getWETHAddress()": "affa8817",
					"grantRole(bytes32,address)": "2f2ff15d",
					"hasRole(bytes32,address)": "91d14854",
					"renounceRole(bytes32,address)": "36568abe",
					"revokeRole(bytes32,address)": "d547741f",
					"setTokenDetails(address,address,uint256)": "fa1c631b",
					"setTokensDetails(address[],address[],uint256[])": "eb71f7e6",
					"supportsInterface(bytes4)": "01ffc9a7",
					"swapExactETHForTokensSupportingFeeOnTransferTokens(uint256,address[],address,uint256)": "b6f9de95",
					"tokenDetails(address)": "dd4be683"
				}
			},
			"storageLayout": {
				"storage": [
					{
						"astId": 416,
						"contract": "uniswap.sol:UniswapV2Router02",
						"label": "_initialized",
						"offset": 0,
						"slot": "0",
						"type": "t_uint8"
					},
					{
						"astId": 419,
						"contract": "uniswap.sol:UniswapV2Router02",
						"label": "_initializing",
						"offset": 1,
						"slot": "0",
						"type": "t_bool"
					},
					{
						"astId": 958,
						"contract": "uniswap.sol:UniswapV2Router02",
						"label": "__gap",
						"offset": 0,
						"slot": "1",
						"type": "t_array(t_uint256)50_storage"
					},
					{
						"astId": 1232,
						"contract": "uniswap.sol:UniswapV2Router02",
						"label": "__gap",
						"offset": 0,
						"slot": "51",
						"type": "t_array(t_uint256)50_storage"
					},
					{
						"astId": 28,
						"contract": "uniswap.sol:UniswapV2Router02",
						"label": "_roles",
						"offset": 0,
						"slot": "101",
						"type": "t_mapping(t_bytes32,t_struct(RoleData)23_storage)"
					},
					{
						"astId": 335,
						"contract": "uniswap.sol:UniswapV2Router02",
						"label": "__gap",
						"offset": 0,
						"slot": "102",
						"type": "t_array(t_uint256)49_storage"
					},
					{
						"astId": 2284,
						"contract": "uniswap.sol:UniswapV2Router02",
						"label": "tokenDetails",
						"offset": 0,
						"slot": "151",
						"type": "t_mapping(t_address,t_struct(TokenDetail)2277_storage)"
					}
				],
				"types": {
					"t_address": {
						"encoding": "inplace",
						"label": "address",
						"numberOfBytes": "20"
					},
					"t_array(t_uint256)49_storage": {
						"base": "t_uint256",
						"encoding": "inplace",
						"label": "uint256[49]",
						"numberOfBytes": "1568"
					},
					"t_array(t_uint256)50_storage": {
						"base": "t_uint256",
						"encoding": "inplace",
						"label": "uint256[50]",
						"numberOfBytes": "1600"
					},
					"t_bool": {
						"encoding": "inplace",
						"label": "bool",
						"numberOfBytes": "1"
					},
					"t_bytes32": {
						"encoding": "inplace",
						"label": "bytes32",
						"numberOfBytes": "32"
					},
					"t_mapping(t_address,t_bool)": {
						"encoding": "mapping",
						"key": "t_address",
						"label": "mapping(address => bool)",
						"numberOfBytes": "32",
						"value": "t_bool"
					},
					"t_mapping(t_address,t_struct(TokenDetail)2277_storage)": {
						"encoding": "mapping",
						"key": "t_address",
						"label": "mapping(address => struct UniswapV2Router02.TokenDetail)",
						"numberOfBytes": "32",
						"value": "t_struct(TokenDetail)2277_storage"
					},
					"t_mapping(t_bytes32,t_struct(RoleData)23_storage)": {
						"encoding": "mapping",
						"key": "t_bytes32",
						"label": "mapping(bytes32 => struct AccessControlUpgradeable.RoleData)",
						"numberOfBytes": "32",
						"value": "t_struct(RoleData)23_storage"
					},
					"t_struct(RoleData)23_storage": {
						"encoding": "inplace",
						"label": "struct AccessControlUpgradeable.RoleData",
						"members": [
							{
								"astId": 20,
								"contract": "uniswap.sol:UniswapV2Router02",
								"label": "members",
								"offset": 0,
								"slot": "0",
								"type": "t_mapping(t_address,t_bool)"
							},
							{
								"astId": 22,
								"contract": "uniswap.sol:UniswapV2Router02",
								"label": "adminRole",
								"offset": 0,
								"slot": "1",
								"type": "t_bytes32"
							}
						],
						"numberOfBytes": "64"
					},
					"t_struct(TokenDetail)2277_storage": {
						"encoding": "inplace",
						"label": "struct UniswapV2Router02.TokenDetail",
						"members": [
							{
								"astId": 2274,
								"contract": "uniswap.sol:UniswapV2Router02",
								"label": "price",
								"offset": 0,
								"slot": "0",
								"type": "t_uint256"
							},
							{
								"astId": 2276,
								"contract": "uniswap.sol:UniswapV2Router02",
								"label": "tokenManager",
								"offset": 0,
								"slot": "1",
								"type": "t_address"
							}
						],
						"numberOfBytes": "64"
					},
					"t_uint256": {
						"encoding": "inplace",
						"label": "uint256",
						"numberOfBytes": "32"
					},
					"t_uint8": {
						"encoding": "inplace",
						"label": "uint8",
						"numberOfBytes": "1"
					}
				}
			},
			"userdoc": {
				"kind": "user",
				"methods": {},
				"version": 1
			}
		}
	}
}