{
	"uniswap.sol": {
		"UniswapV2Router02": {
			"abi": [
				{
					"inputs": [
						{
							"internalType": "address",
							"name": "_WETH",
							"type": "address"
						}
					],
					"stateMutability": "nonpayable",
					"type": "constructor"
				},
				{
					"anonymous": false,
					"inputs": [
						{
							"indexed": false,
							"internalType": "uint8",
							"name": "version",
							"type": "uint8"
						}
					],
					"name": "Initialized",
					"type": "event"
				},
				{
					"anonymous": false,
					"inputs": [
						{
							"indexed": true,
							"internalType": "bytes32",
							"name": "role",
							"type": "bytes32"
						},
						{
							"indexed": true,
							"internalType": "bytes32",
							"name": "previousAdminRole",
							"type": "bytes32"
						},
						{
							"indexed": true,
							"internalType": "bytes32",
							"name": "newAdminRole",
							"type": "bytes32"
						}
					],
					"name": "RoleAdminChanged",
					"type": "event"
				},
				{
					"anonymous": false,
					"inputs": [
						{
							"indexed": true,
							"internalType": "bytes32",
							"name": "role",
							"type": "bytes32"
						},
						{
							"indexed": true,
							"internalType": "address",
							"name": "account",
							"type": "address"
						},
						{
							"indexed": true,
							"internalType": "address",
							"name": "sender",
							"type": "address"
						}
					],
					"name": "RoleGranted",
					"type": "event"
				},
				{
					"anonymous": false,
					"inputs": [
						{
							"indexed": true,
							"internalType": "bytes32",
							"name": "role",
							"type": "bytes32"
						},
						{
							"indexed": true,
							"internalType": "address",
							"name": "account",
							"type": "address"
						},
						{
							"indexed": true,
							"internalType": "address",
							"name": "sender",
							"type": "address"
						}
					],
					"name": "RoleRevoked",
					"type": "event"
				},
				{
					"inputs": [],
					"name": "DEFAULT_ADMIN_ROLE",
					"outputs": [
						{
							"internalType": "bytes32",
							"name": "",
							"type": "bytes32"
						}
					],
					"stateMutability": "view",
					"type": "function"
				},
				{
					"inputs": [],
					"name": "PRICE_MANAGER",
					"outputs": [
						{
							"internalType": "bytes32",
							"name": "",
							"type": "bytes32"
						}
					],
					"stateMutability": "view",
					"type": "function"
				},
				{
					"inputs": [],
					"name": "WETH",
					"outputs": [
						{
							"internalType": "address",
							"name": "",
							"type": "address"
						}
					],
					"stateMutability": "view",
					"type": "function"
				},
				{
					"inputs": [
						{
							"internalType": "uint256",
							"name": "amountIn",
							"type": "uint256"
						},
						{
							"internalType": "address[]",
							"name": "path",
							"type": "address[]"
						}
					],
					"name": "getAmountsOut",
					"outputs": [
						{
							"internalType": "uint256[]",
							"name": "amounts",
							"type": "uint256[]"
						}
					],
					"stateMutability": "view",
					"type": "function"
				},
				{
					"inputs": [
						{
							"internalType": "bytes32",
							"name": "role",
							"type": "bytes32"
						}
					],
					"name": "getRoleAdmin",
					"outputs": [
						{
							"internalType": "bytes32",
							"name": "",
							"type": "bytes32"
						}
					],
					"stateMutability": "view",
					"type": "function"
				},
				{
					"inputs": [
						{
							"internalType": "address",
							"name": "tokenAddress",
							"type": "address"
						}
					],
					"name": "getTokenDetails",
					"outputs": [
						{
							"components": [
								{
									"internalType": "uint256",
									"name": "price",
									"type": "uint256"
								},
								{
									"internalType": "address",
									"name": "tokenManager",
									"type": "address"
								}
							],
							"internalType": "struct UniswapV2Router02.TokenDetail",
							"name": "",
							"type": "tuple"
						}
					],
					"stateMutability": "view",
					"type": "function"
				},
				{
					"inputs": [
						{
							"internalType": "address",
							"name": "tokenAddress",
							"type": "address"
						}
					],
					"name": "getTokenPrice",
					"outputs": [
						{
							"internalType": "uint256",
							"name": "",
							"type": "uint256"
						}
					],
					"stateMutability": "view",
					"type": "function"
				},
				{
					"inputs": [],
					"name": "getWETHAddress",
					"outputs": [
						{
							"internalType": "address",
							"name": "",
							"type": "address"
						}
					],
					"stateMutability": "view",
					"type": "function"
				},
				{
					"inputs": [
						{
							"internalType": "bytes32",
							"name": "role",
							"type": "bytes32"
						},
						{
							"internalType": "address",
							"name": "account",
							"type": "address"
						}
					],
					"name": "grantRole",
					"outputs": [],
					"stateMutability": "nonpayable",
					"type": "function"
				},
				{
					"inputs": [
						{
							"internalType": "bytes32",
							"name": "role",
							"type": "bytes32"
						},
						{
							"internalType": "address",
							"name": "account",
							"type": "address"
						}
					],
					"name": "hasRole",
					"outputs": [
						{
							"internalType": "bool",
							"name": "",
							"type": "bool"
						}
					],
					"stateMutability": "view",
					"type": "function"
				},
				{
					"inputs": [
						{
							"internalType": "bytes32",
							"name": "role",
							"type": "bytes32"
						},
						{
							"internalType": "address",
							"name": "account",
							"type": "address"
						}
					],
					"name": "renounceRole",
					"outputs": [],
					"stateMutability": "nonpayable",
					"type": "function"
				},
				{
					"inputs": [
						{
							"internalType": "bytes32",
							"name": "role",
							"type": "bytes32"
						},
						{
							"internalType": "address",
							"name": "account",
							"type": "address"
						}
					],
					"name": "revokeRole",
					"outputs": [],
					"stateMutability": "nonpayable",
					"type": "function"
				},
				{
					"inputs": [
						{
							"internalType": "address",
							"name": "tokenAddress",
							"type": "address"
						},
						{
							"internalType": "address",
							"name": "tokenManager",
							"type": "address"
						},
						{
							"internalType": "uint256",
							"name": "price",
							"type": "uint256"
						}
					],
					"name": "setTokenDetails",
					"outputs": [],
					"stateMutability": "nonpayable",
					"type": "function"
				},
				{
					"inputs": [
						{
							"internalType": "address[]",
							"name": "tokenAddresses",
							"type": "address[]"
						},
						{
							"internalType": "address[]",
							"name": "tokenManagers",
							"type": "address[]"
						},
						{
							"internalType": "uint256[]",
							"name": "prices",
							"type": "uint256[]"
						}
					],
					"name": "setTokensDetails",
					"outputs": [],
					"stateMutability": "nonpayable",
					"type": "function"
				},
				{
					"inputs": [
						{
							"internalType": "bytes4",
							"name": "interfaceId",
							"type": "bytes4"
						}
					],
					"name": "supportsInterface",
					"outputs": [
						{
							"internalType": "bool",
							"name": "",
							"type": "bool"
						}
					],
					"stateMutability": "view",
					"type": "function"
				},
				{
					"inputs": [
						{
							"internalType": "uint256",
							"name": "amountOutMin",
							"type": "uint256"
						},
						{
							"internalType": "address[]",
							"name": "path",
							"type": "address[]"
						},
						{
							"internalType": "address",
							"name": "to",
							"type": "address"
						},
						{
							"internalType": "uint256",
							"name": "deadline",
							"type": "uint256"
						}
					],
					"name": "swapExactETHForTokensSupportingFeeOnTransferTokens",
					"outputs": [],
					"stateMutability": "payable",
					"type": "function"
				},
				{
					"inputs": [
						{
							"internalType": "address",
							"name": "",
							"type": "address"
						}
					],
					"name": "tokenDetails",
					"outputs": [
						{
							"internalType": "uint256",
							"name": "price",
							"type": "uint256"
						},
						{
							"internalType": "address",
							"name": "tokenManager",
							"type": "address"
						}
					],
					"stateMutability": "view",
					"type": "function"
				}
			],
			"devdoc": {
				"events": {
					"Initialized(uint8)": {
						"details": "Triggered when the contract has been initialized or reinitialized."
					},
					"RoleAdminChanged(bytes32,bytes32,bytes32)": {
						"details": "Emitted when `newAdminRole` is set as ``role``'s admin role, replacing `previousAdminRole` `DEFAULT_ADMIN_ROLE` is the starting admin for all roles, despite {RoleAdminChanged} not being emitted signaling this. _Available since v3.1._"
					},
					"RoleGranted(bytes32,address,address)": {
						"details": "Emitted when `account` is granted `role`. `sender` is the account that originated the contract call, an admin role bearer except when using {AccessControl-_setupRole}."
					},
					"RoleRevoked(bytes32,address,address)": {
						"details": "Emitted when `account` is revoked `role`. `sender` is the account that originated the contract call:   - if using `revokeRole`, it is the admin role bearer   - if using `renounceRole`, it is the role bearer (i.e. `account`)"
					}
				},
				"kind": "dev",
				"methods": {
					"getRoleAdmin(bytes32)": {
						"details": "Returns the admin role that controls `role`. See {grantRole} and {revokeRole}. To change a role's admin, use {_setRoleAdmin}."
					},
					"grantRole(bytes32,address)": {
						"details": "Grants `role` to `account`. If `account` had not been already granted `role`, emits a {RoleGranted} event. Requirements: - the caller must have ``role``'s admin role. May emit a {RoleGranted} event."
					},
					"hasRole(bytes32,address)": {
						"details": "Returns `true` if `account` has been granted `role`."
					},
					"renounceRole(bytes32,address)": {
						"details": "Revokes `role` from the calling account. Roles are often managed via {grantRole} and {revokeRole}: this function's purpose is to provide a mechanism for accounts to lose their privileges if they are compromised (such as when a trusted device is misplaced). If the calling account had been revoked `role`, emits a {RoleRevoked} event. Requirements: - the caller must be `account`. May emit a {RoleRevoked} event."
					},
					"revokeRole(bytes32,address)": {
						"details": "Revokes `role` from `account`. If `account` had been granted `role`, emits a {RoleRevoked} event. Requirements: - the caller must have ``role``'s admin role. May emit a {RoleRevoked} event."
					},
					"supportsInterface(bytes4)": {
						"details": "See {IERC165-supportsInterface}."
					}
				},
				"version": 1
			},
			"evm": {
				"assembly": "    /* \"uniswap.sol\":1742:7041  contract UniswapV2Router02 is AccessControlUpgradeable {... */\n  mstore(0x40, 0xa0)\n    /* \"uniswap.sol\":2060:2282  constructor(address _WETH) {... */\n  callvalue\n  dup1\n  iszero\n  tag_1\n  jumpi\n  revert(0x00, 0x00)\ntag_1:\n  pop\n  mload(0x40)\n  sub(codesize, bytecodeSize)\n  dup1\n  bytecodeSize\n  dup4\n  codecopy\n  dup2\n  dup2\n  add\n  0x40\n  mstore\n  dup2\n  add\n  swap1\n  tag_2\n  swap2\n  swap1\n  tag_3\n  jump\t// in\ntag_2:\n    /* \"uniswap.sol\":2104:2109  _WETH */\n  dup1\n    /* \"uniswap.sol\":2097:2109  WETH = _WETH */\n  0xffffffffffffffffffffffffffffffffffffffff\n  and\n  0x80\n  dup2\n  0xffffffffffffffffffffffffffffffffffffffff\n  and\n  dup2\n  mstore\n  pop\n  pop\n    /* \"uniswap.sol\":2119:2163  _grantRole(DEFAULT_ADMIN_ROLE, _msgSender()) */\n  tag_6\n    /* \"@openzeppelin/contracts-upgradeable/access/AccessControlUpgradeable.sol\":2365:2369  0x00 */\n  0x00\n    /* \"uniswap.sol\":2130:2148  DEFAULT_ADMIN_ROLE */\n  0x00\n  shl\n    /* \"uniswap.sol\":2150:2162  _msgSender() */\n  tag_7\n    /* \"uniswap.sol\":2150:2160  _msgSender */\n  shl(0x20, tag_8)\n    /* \"uniswap.sol\":2150:2162  _msgSender() */\n  0x20\n  shr\n  jump\t// in\ntag_7:\n    /* \"uniswap.sol\":2119:2129  _grantRole */\n  shl(0x20, tag_9)\n    /* \"uniswap.sol\":2119:2163  _grantRole(DEFAULT_ADMIN_ROLE, _msgSender()) */\n  0x20\n  shr\n  jump\t// in\ntag_6:\n    /* \"uniswap.sol\":2173:2212  _grantRole(PRICE_MANAGER, _msgSender()) */\n  tag_10\n    /* \"uniswap.sol\":2027:2053  keccak256(\"PRICE_MANAGER\") */\n  0xa451215b66f023bb76f9a9e7bc5c64156446b47b26061a8a32eaa319c45f695e\n    /* \"uniswap.sol\":2199:2211  _msgSender() */\n  tag_11\n    /* \"uniswap.sol\":2199:2209  _msgSender */\n  shl(0x20, tag_8)\n    /* \"uniswap.sol\":2199:2211  _msgSender() */\n  0x20\n  shr\n  jump\t// in\ntag_11:\n    /* \"uniswap.sol\":2173:2183  _grantRole */\n  shl(0x20, tag_9)\n    /* \"uniswap.sol\":2173:2212  _grantRole(PRICE_MANAGER, _msgSender()) */\n  0x20\n  shr\n  jump\t// in\ntag_10:\n    /* \"uniswap.sol\":2244:2275  TokenDetail(1e18, _msgSender()) */\n  mload(0x40)\n  dup1\n  0x40\n  add\n  0x40\n  mstore\n  dup1\n    /* \"uniswap.sol\":2256:2260  1e18 */\n  0x0de0b6b3a7640000\n    /* \"uniswap.sol\":2244:2275  TokenDetail(1e18, _msgSender()) */\n  dup2\n  mstore\n  0x20\n  add\n    /* \"uniswap.sol\":2262:2274  _msgSender() */\n  tag_12\n    /* \"uniswap.sol\":2262:2272  _msgSender */\n  shl(0x20, tag_8)\n    /* \"uniswap.sol\":2262:2274  _msgSender() */\n  0x20\n  shr\n  jump\t// in\ntag_12:\n    /* \"uniswap.sol\":2244:2275  TokenDetail(1e18, _msgSender()) */\n  0xffffffffffffffffffffffffffffffffffffffff\n  and\n  dup2\n  mstore\n  pop\n    /* \"uniswap.sol\":2222:2234  tokenDetails */\n  0x97\n    /* \"uniswap.sol\":2222:2241  tokenDetails[_WETH] */\n  0x00\n    /* \"uniswap.sol\":2235:2240  _WETH */\n  dup4\n    /* \"uniswap.sol\":2222:2241  tokenDetails[_WETH] */\n  0xffffffffffffffffffffffffffffffffffffffff\n  and\n  0xffffffffffffffffffffffffffffffffffffffff\n  and\n  dup2\n  mstore\n  0x20\n  add\n  swap1\n  dup2\n  mstore\n  0x20\n  add\n  0x00\n  keccak256\n    /* \"uniswap.sol\":2222:2275  tokenDetails[_WETH] = TokenDetail(1e18, _msgSender()) */\n  0x00\n  dup3\n  add\n  mload\n  dup2\n  0x00\n  add\n  sstore\n  0x20\n  dup3\n  add\n  mload\n  dup2\n  0x01\n  add\n  exp(0x0100, 0x00)\n  dup2\n  sload\n  dup2\n  0xffffffffffffffffffffffffffffffffffffffff\n  mul\n  not\n  and\n  swap1\n  dup4\n  0xffffffffffffffffffffffffffffffffffffffff\n  and\n  mul\n  or\n  swap1\n  sstore\n  pop\n  swap1\n  pop\n  pop\n    /* \"uniswap.sol\":2060:2282  constructor(address _WETH) {... */\n  pop\n    /* \"uniswap.sol\":1742:7041  contract UniswapV2Router02 is AccessControlUpgradeable {... */\n  jump(tag_13)\n    /* \"@openzeppelin/contracts-upgradeable/utils/ContextUpgradeable.sol\":886:982  function _msgSender() internal view virtual returns (address) {... */\ntag_8:\n    /* \"@openzeppelin/contracts-upgradeable/utils/ContextUpgradeable.sol\":939:946  address */\n  0x00\n    /* \"@openzeppelin/contracts-upgradeable/utils/ContextUpgradeable.sol\":965:975  msg.sender */\n  caller\n    /* \"@openzeppelin/contracts-upgradeable/utils/ContextUpgradeable.sol\":958:975  return msg.sender */\n  swap1\n  pop\n    /* \"@openzeppelin/contracts-upgradeable/utils/ContextUpgradeable.sol\":886:982  function _msgSender() internal view virtual returns (address) {... */\n  swap1\n  jump\t// out\n    /* \"@openzeppelin/contracts-upgradeable/access/AccessControlUpgradeable.sol\":7938:8171  function _grantRole(bytes32 role, address account) internal virtual {... */\ntag_9:\n    /* \"@openzeppelin/contracts-upgradeable/access/AccessControlUpgradeable.sol\":8021:8043  hasRole(role, account) */\n  tag_16\n    /* \"@openzeppelin/contracts-upgradeable/access/AccessControlUpgradeable.sol\":8029:8033  role */\n  dup3\n    /* \"@openzeppelin/contracts-upgradeable/access/AccessControlUpgradeable.sol\":8035:8042  account */\n  dup3\n    /* \"@openzeppelin/contracts-upgradeable/access/AccessControlUpgradeable.sol\":8021:8028  hasRole */\n  shl(0x20, tag_17)\n    /* \"@openzeppelin/contracts-upgradeable/access/AccessControlUpgradeable.sol\":8021:8043  hasRole(role, account) */\n  0x20\n  shr\n  jump\t// in\ntag_16:\n    /* \"@openzeppelin/contracts-upgradeable/access/AccessControlUpgradeable.sol\":8016:8165  if (!hasRole(role, account)) {... */\n  tag_18\n  jumpi\n    /* \"@openzeppelin/contracts-upgradeable/access/AccessControlUpgradeable.sol\":8091:8095  true */\n  0x01\n    /* \"@openzeppelin/contracts-upgradeable/access/AccessControlUpgradeable.sol\":8059:8065  _roles */\n  0x65\n    /* \"@openzeppelin/contracts-upgradeable/access/AccessControlUpgradeable.sol\":8059:8071  _roles[role] */\n  0x00\n    /* \"@openzeppelin/contracts-upgradeable/access/AccessControlUpgradeable.sol\":8066:8070  role */\n  dup5\n    /* \"@openzeppelin/contracts-upgradeable/access/AccessControlUpgradeable.sol\":8059:8071  _roles[role] */\n  dup2\n  mstore\n  0x20\n  add\n  swap1\n  dup2\n  mstore\n  0x20\n  add\n  0x00\n  keccak256\n    /* \"@openzeppelin/contracts-upgradeable/access/AccessControlUpgradeable.sol\":8059:8079  _roles[role].members */\n  0x00\n  add\n    /* \"@openzeppelin/contracts-upgradeable/access/AccessControlUpgradeable.sol\":8059:8088  _roles[role].members[account] */\n  0x00\n    /* \"@openzeppelin/contracts-upgradeable/access/AccessControlUpgradeable.sol\":8080:8087  account */\n  dup4\n    /* \"@openzeppelin/contracts-upgradeable/access/AccessControlUpgradeable.sol\":8059:8088  _roles[role].members[account] */\n  0xffffffffffffffffffffffffffffffffffffffff\n  and\n  0xffffffffffffffffffffffffffffffffffffffff\n  and\n  dup2\n  mstore\n  0x20\n  add\n  swap1\n  dup2\n  mstore\n  0x20\n  add\n  0x00\n  keccak256\n  0x00\n    /* \"@openzeppelin/contracts-upgradeable/access/AccessControlUpgradeable.sol\":8059:8095  _roles[role].members[account] = true */\n  0x0100\n  exp\n  dup2\n  sload\n  dup2\n  0xff\n  mul\n  not\n  and\n  swap1\n  dup4\n  iszero\n  iszero\n  mul\n  or\n  swap1\n  sstore\n  pop\n    /* \"@openzeppelin/contracts-upgradeable/access/AccessControlUpgradeable.sol\":8141:8153  _msgSender() */\n  tag_19\n    /* \"@openzeppelin/contracts-upgradeable/access/AccessControlUpgradeable.sol\":8141:8151  _msgSender */\n  shl(0x20, tag_8)\n    /* \"@openzeppelin/contracts-upgradeable/access/AccessControlUpgradeable.sol\":8141:8153  _msgSender() */\n  0x20\n  shr\n  jump\t// in\ntag_19:\n    /* \"@openzeppelin/contracts-upgradeable/access/AccessControlUpgradeable.sol\":8114:8154  RoleGranted(role, account, _msgSender()) */\n  0xffffffffffffffffffffffffffffffffffffffff\n  and\n    /* \"@openzeppelin/contracts-upgradeable/access/AccessControlUpgradeable.sol\":8132:8139  account */\n  dup2\n    /* \"@openzeppelin/contracts-upgradeable/access/AccessControlUpgradeable.sol\":8114:8154  RoleGranted(role, account, _msgSender()) */\n  0xffffffffffffffffffffffffffffffffffffffff\n  and\n    /* \"@openzeppelin/contracts-upgradeable/access/AccessControlUpgradeable.sol\":8126:8130  role */\n  dup4\n    /* \"@openzeppelin/contracts-upgradeable/access/AccessControlUpgradeable.sol\":8114:8154  RoleGranted(role, account, _msgSender()) */\n  0x2f8788117e7eff1d82e926ec794901d17c78024a50270940304540a733656f0d\n  mload(0x40)\n  mload(0x40)\n  dup1\n  swap2\n  sub\n  swap1\n  log4\n    /* \"@openzeppelin/contracts-upgradeable/access/AccessControlUpgradeable.sol\":8016:8165  if (!hasRole(role, account)) {... */\ntag_18:\n    /* \"@openzeppelin/contracts-upgradeable/access/AccessControlUpgradeable.sol\":7938:8171  function _grantRole(bytes32 role, address account) internal virtual {... */\n  pop\n  pop\n  jump\t// out\n    /* \"@openzeppelin/contracts-upgradeable/access/AccessControlUpgradeable.sol\":3350:3495  function hasRole(bytes32 role, address account) public view virtual override returns (bool) {... */\ntag_17:\n    /* \"@openzeppelin/contracts-upgradeable/access/AccessControlUpgradeable.sol\":3436:3440  bool */\n  0x00\n    /* \"@openzeppelin/contracts-upgradeable/access/AccessControlUpgradeable.sol\":3459:3465  _roles */\n  0x65\n    /* \"@openzeppelin/contracts-upgradeable/access/AccessControlUpgradeable.sol\":3459:3471  _roles[role] */\n  0x00\n    /* \"@openzeppelin/contracts-upgradeable/access/AccessControlUpgradeable.sol\":3466:3470  role */\n  dup5\n    /* \"@openzeppelin/contracts-upgradeable/access/AccessControlUpgradeable.sol\":3459:3471  _roles[role] */\n  dup2\n  mstore\n  0x20\n  add\n  swap1\n  dup2\n  mstore\n  0x20\n  add\n  0x00\n  keccak256\n    /* \"@openzeppelin/contracts-upgradeable/access/AccessControlUpgradeable.sol\":3459:3479  _roles[role].members */\n  0x00\n  add\n    /* \"@openzeppelin/contracts-upgradeable/access/AccessControlUpgradeable.sol\":3459:3488  _roles[role].members[account] */\n  0x00\n    /* \"@openzeppelin/contracts-upgradeable/access/AccessControlUpgradeable.sol\":3480:3487  account */\n  dup4\n    /* \"@openzeppelin/contracts-upgradeable/access/AccessControlUpgradeable.sol\":3459:3488  _roles[role].members[account] */\n  0xffffffffffffffffffffffffffffffffffffffff\n  and\n  0xffffffffffffffffffffffffffffffffffffffff\n  and\n  dup2\n  mstore\n  0x20\n  add\n  swap1\n  dup2\n  mstore\n  0x20\n  add\n  0x00\n  keccak256\n  0x00\n  swap1\n  sload\n  swap1\n  0x0100\n  exp\n  swap1\n  div\n  0xff\n  and\n    /* \"@openzeppelin/contracts-upgradeable/access/AccessControlUpgradeable.sol\":3452:3488  return _roles[role].members[account] */\n  swap1\n  pop\n    /* \"@openzeppelin/contracts-upgradeable/access/AccessControlUpgradeable.sol\":3350:3495  function hasRole(bytes32 role, address account) public view virtual override returns (bool) {... */\n  swap3\n  swap2\n  pop\n  pop\n  jump\t// out\n    /* \"#utility.yul\":88:205   */\ntag_22:\n    /* \"#utility.yul\":197:198   */\n  0x00\n    /* \"#utility.yul\":194:195   */\n  0x00\n    /* \"#utility.yul\":187:199   */\n  revert\n    /* \"#utility.yul\":334:460   */\ntag_24:\n    /* \"#utility.yul\":371:378   */\n  0x00\n    /* \"#utility.yul\":411:453   */\n  0xffffffffffffffffffffffffffffffffffffffff\n    /* \"#utility.yul\":404:409   */\n  dup3\n    /* \"#utility.yul\":400:454   */\n  and\n    /* \"#utility.yul\":389:454   */\n  swap1\n  pop\n    /* \"#utility.yul\":334:460   */\n  swap2\n  swap1\n  pop\n  jump\t// out\n    /* \"#utility.yul\":466:562   */\ntag_25:\n    /* \"#utility.yul\":503:510   */\n  0x00\n    /* \"#utility.yul\":532:556   */\n  tag_34\n    /* \"#utility.yul\":550:555   */\n  dup3\n    /* \"#utility.yul\":532:556   */\n  tag_24\n  jump\t// in\ntag_34:\n    /* \"#utility.yul\":521:556   */\n  swap1\n  pop\n    /* \"#utility.yul\":466:562   */\n  swap2\n  swap1\n  pop\n  jump\t// out\n    /* \"#utility.yul\":568:690   */\ntag_26:\n    /* \"#utility.yul\":641:665   */\n  tag_36\n    /* \"#utility.yul\":659:664   */\n  dup2\n    /* \"#utility.yul\":641:665   */\n  tag_25\n  jump\t// in\ntag_36:\n    /* \"#utility.yul\":634:639   */\n  dup2\n    /* \"#utility.yul\":631:666   */\n  eq\n    /* \"#utility.yul\":621:684   */\n  tag_37\n  jumpi\n    /* \"#utility.yul\":680:681   */\n  0x00\n    /* \"#utility.yul\":677:678   */\n  0x00\n    /* \"#utility.yul\":670:682   */\n  revert\n    /* \"#utility.yul\":621:684   */\ntag_37:\n    /* \"#utility.yul\":568:690   */\n  pop\n  jump\t// out\n    /* \"#utility.yul\":696:839   */\ntag_27:\n    /* \"#utility.yul\":753:758   */\n  0x00\n    /* \"#utility.yul\":784:790   */\n  dup2\n    /* \"#utility.yul\":778:791   */\n  mload\n    /* \"#utility.yul\":769:791   */\n  swap1\n  pop\n    /* \"#utility.yul\":800:833   */\n  tag_39\n    /* \"#utility.yul\":827:832   */\n  dup2\n    /* \"#utility.yul\":800:833   */\n  tag_26\n  jump\t// in\ntag_39:\n    /* \"#utility.yul\":696:839   */\n  swap3\n  swap2\n  pop\n  pop\n  jump\t// out\n    /* \"#utility.yul\":845:1196   */\ntag_3:\n    /* \"#utility.yul\":915:921   */\n  0x00\n    /* \"#utility.yul\":964:966   */\n  0x20\n    /* \"#utility.yul\":952:961   */\n  dup3\n    /* \"#utility.yul\":943:950   */\n  dup5\n    /* \"#utility.yul\":939:962   */\n  sub\n    /* \"#utility.yul\":935:967   */\n  slt\n    /* \"#utility.yul\":932:1051   */\n  iszero\n  tag_41\n  jumpi\n    /* \"#utility.yul\":970:1049   */\n  tag_42\n  tag_22\n  jump\t// in\ntag_42:\n    /* \"#utility.yul\":932:1051   */\ntag_41:\n    /* \"#utility.yul\":1090:1091   */\n  0x00\n    /* \"#utility.yul\":1115:1179   */\n  tag_43\n    /* \"#utility.yul\":1171:1178   */\n  dup5\n    /* \"#utility.yul\":1162:1168   */\n  dup3\n    /* \"#utility.yul\":1151:1160   */\n  dup6\n    /* \"#utility.yul\":1147:1169   */\n  add\n    /* \"#utility.yul\":1115:1179   */\n  tag_27\n  jump\t// in\ntag_43:\n    /* \"#utility.yul\":1105:1179   */\n  swap2\n  pop\n    /* \"#utility.yul\":1061:1189   */\n  pop\n    /* \"#utility.yul\":845:1196   */\n  swap3\n  swap2\n  pop\n  pop\n  jump\t// out\n    /* \"uniswap.sol\":1742:7041  contract UniswapV2Router02 is AccessControlUpgradeable {... */\ntag_13:\n  mload(0x80)\n  codecopy(0x00, dataOffset(sub_0), dataSize(sub_0))\n  0x00\n  assignImmutable(\"0x272fee19618bddbc00febd3897af287776f225c94084e4d859902021d48f698c\")\n  return(0x00, dataSize(sub_0))\nstop\n\nsub_0: assembly {\n        /* \"uniswap.sol\":1742:7041  contract UniswapV2Router02 is AccessControlUpgradeable {... */\n      mstore(0x40, 0x80)\n      jumpi(tag_1, lt(calldatasize, 0x04))\n      shr(0xe0, calldataload(0x00))\n      dup1\n      0xaffa8817\n      gt\n      tag_19\n      jumpi\n      dup1\n      0xd06ca61f\n      gt\n      tag_20\n      jumpi\n      dup1\n      0xd06ca61f\n      eq\n      tag_14\n      jumpi\n      dup1\n      0xd547741f\n      eq\n      tag_15\n      jumpi\n      dup1\n      0xdd4be683\n      eq\n      tag_16\n      jumpi\n      dup1\n      0xeb71f7e6\n      eq\n      tag_17\n      jumpi\n      dup1\n      0xfa1c631b\n      eq\n      tag_18\n      jumpi\n      jump(tag_1)\n    tag_20:\n      dup1\n      0xaffa8817\n      eq\n      tag_10\n      jumpi\n      dup1\n      0xb6f9de95\n      eq\n      tag_11\n      jumpi\n      dup1\n      0xcf0888aa\n      eq\n      tag_12\n      jumpi\n      dup1\n      0xd02641a0\n      eq\n      tag_13\n      jumpi\n      jump(tag_1)\n    tag_19:\n      dup1\n      0x88aa8bee\n      gt\n      tag_21\n      jumpi\n      dup1\n      0x88aa8bee\n      eq\n      tag_6\n      jumpi\n      dup1\n      0x91d14854\n      eq\n      tag_7\n      jumpi\n      dup1\n      0xa217fddf\n      eq\n      tag_8\n      jumpi\n      dup1\n      0xad5c4648\n      eq\n      tag_9\n      jumpi\n      jump(tag_1)\n    tag_21:\n      dup1\n      0x01ffc9a7\n      eq\n      tag_2\n      jumpi\n      dup1\n      0x248a9ca3\n      eq\n      tag_3\n      jumpi\n      dup1\n      0x2f2ff15d\n      eq\n      tag_4\n      jumpi\n      dup1\n      0x36568abe\n      eq\n      tag_5\n      jumpi\n    tag_1:\n      revert(0x00, 0x00)\n        /* \"@openzeppelin/contracts-upgradeable/access/AccessControlUpgradeable.sol\":3050:3263  function supportsInterface(bytes4 interfaceId) public view virtual override returns (bool) {... */\n    tag_2:\n      callvalue\n      dup1\n      iszero\n      tag_22\n      jumpi\n      revert(0x00, 0x00)\n    tag_22:\n      pop\n      tag_23\n      0x04\n      dup1\n      calldatasize\n      sub\n      dup2\n      add\n      swap1\n      tag_24\n      swap2\n      swap1\n      tag_25\n      jump\t// in\n    tag_24:\n      tag_26\n      jump\t// in\n    tag_23:\n      mload(0x40)\n      tag_27\n      swap2\n      swap1\n      tag_28\n      jump\t// in\n    tag_27:\n      mload(0x40)\n      dup1\n      swap2\n      sub\n      swap1\n      return\n        /* \"@openzeppelin/contracts-upgradeable/access/AccessControlUpgradeable.sol\":4855:4984  function getRoleAdmin(bytes32 role) public view virtual override returns (bytes32) {... */\n    tag_3:\n      callvalue\n      dup1\n      iszero\n      tag_29\n      jumpi\n      revert(0x00, 0x00)\n    tag_29:\n      pop\n      tag_30\n      0x04\n      dup1\n      calldatasize\n      sub\n      dup2\n      add\n      swap1\n      tag_31\n      swap2\n      swap1\n      tag_32\n      jump\t// in\n    tag_31:\n      tag_33\n      jump\t// in\n    tag_30:\n      mload(0x40)\n      tag_34\n      swap2\n      swap1\n      tag_35\n      jump\t// in\n    tag_34:\n      mload(0x40)\n      dup1\n      swap2\n      sub\n      swap1\n      return\n        /* \"@openzeppelin/contracts-upgradeable/access/AccessControlUpgradeable.sol\":5280:5425  function grantRole(bytes32 role, address account) public virtual override onlyRole(getRoleAdmin(role)) {... */\n    tag_4:\n      callvalue\n      dup1\n      iszero\n      tag_36\n      jumpi\n      revert(0x00, 0x00)\n    tag_36:\n      pop\n      tag_37\n      0x04\n      dup1\n      calldatasize\n      sub\n      dup2\n      add\n      swap1\n      tag_38\n      swap2\n      swap1\n      tag_39\n      jump\t// in\n    tag_38:\n      tag_40\n      jump\t// in\n    tag_37:\n      stop\n        /* \"@openzeppelin/contracts-upgradeable/access/AccessControlUpgradeable.sol\":6389:6603  function renounceRole(bytes32 role, address account) public virtual override {... */\n    tag_5:\n      callvalue\n      dup1\n      iszero\n      tag_41\n      jumpi\n      revert(0x00, 0x00)\n    tag_41:\n      pop\n      tag_42\n      0x04\n      dup1\n      calldatasize\n      sub\n      dup2\n      add\n      swap1\n      tag_43\n      swap2\n      swap1\n      tag_39\n      jump\t// in\n    tag_43:\n      tag_44\n      jump\t// in\n    tag_42:\n      stop\n        /* \"uniswap.sol\":5478:5644  function getTokenDetails(address tokenAddress)... */\n    tag_6:\n      callvalue\n      dup1\n      iszero\n      tag_45\n      jumpi\n      revert(0x00, 0x00)\n    tag_45:\n      pop\n      tag_46\n      0x04\n      dup1\n      calldatasize\n      sub\n      dup2\n      add\n      swap1\n      tag_47\n      swap2\n      swap1\n      tag_48\n      jump\t// in\n    tag_47:\n      tag_49\n      jump\t// in\n    tag_46:\n      mload(0x40)\n      tag_50\n      swap2\n      swap1\n      tag_51\n      jump\t// in\n    tag_50:\n      mload(0x40)\n      dup1\n      swap2\n      sub\n      swap1\n      return\n        /* \"@openzeppelin/contracts-upgradeable/access/AccessControlUpgradeable.sol\":3350:3495  function hasRole(bytes32 role, address account) public view virtual override returns (bool) {... */\n    tag_7:\n      callvalue\n      dup1\n      iszero\n      tag_52\n      jumpi\n      revert(0x00, 0x00)\n    tag_52:\n      pop\n      tag_53\n      0x04\n      dup1\n      calldatasize\n      sub\n      dup2\n      add\n      swap1\n      tag_54\n      swap2\n      swap1\n      tag_39\n      jump\t// in\n    tag_54:\n      tag_55\n      jump\t// in\n    tag_53:\n      mload(0x40)\n      tag_56\n      swap2\n      swap1\n      tag_28\n      jump\t// in\n    tag_56:\n      mload(0x40)\n      dup1\n      swap2\n      sub\n      swap1\n      return\n        /* \"@openzeppelin/contracts-upgradeable/access/AccessControlUpgradeable.sol\":2320:2369  bytes32 public constant DEFAULT_ADMIN_ROLE = 0x00 */\n    tag_8:\n      callvalue\n      dup1\n      iszero\n      tag_57\n      jumpi\n      revert(0x00, 0x00)\n    tag_57:\n      pop\n      tag_58\n      tag_59\n      jump\t// in\n    tag_58:\n      mload(0x40)\n      tag_60\n      swap2\n      swap1\n      tag_35\n      jump\t// in\n    tag_60:\n      mload(0x40)\n      dup1\n      swap2\n      sub\n      swap1\n      return\n        /* \"uniswap.sol\":1893:1922  address public immutable WETH */\n    tag_9:\n      callvalue\n      dup1\n      iszero\n      tag_61\n      jumpi\n      revert(0x00, 0x00)\n    tag_61:\n      pop\n      tag_62\n      tag_63\n      jump\t// in\n    tag_62:\n      mload(0x40)\n      tag_64\n      swap2\n      swap1\n      tag_65\n      jump\t// in\n    tag_64:\n      mload(0x40)\n      dup1\n      swap2\n      sub\n      swap1\n      return\n        /* \"uniswap.sol\":5251:5335  function getWETHAddress() public view returns (address) {... */\n    tag_10:\n      callvalue\n      dup1\n      iszero\n      tag_66\n      jumpi\n      revert(0x00, 0x00)\n    tag_66:\n      pop\n      tag_67\n      tag_68\n      jump\t// in\n    tag_67:\n      mload(0x40)\n      tag_69\n      swap2\n      swap1\n      tag_65\n      jump\t// in\n    tag_69:\n      mload(0x40)\n      dup1\n      swap2\n      sub\n      swap1\n      return\n        /* \"uniswap.sol\":3064:4066  function swapExactETHForTokensSupportingFeeOnTransferTokens(... */\n    tag_11:\n      tag_70\n      0x04\n      dup1\n      calldatasize\n      sub\n      dup2\n      add\n      swap1\n      tag_71\n      swap2\n      swap1\n      tag_72\n      jump\t// in\n    tag_71:\n      tag_73\n      jump\t// in\n    tag_70:\n      stop\n        /* \"uniswap.sol\":1987:2053  bytes32 public constant PRICE_MANAGER = keccak256(\"PRICE_MANAGER\") */\n    tag_12:\n      callvalue\n      dup1\n      iszero\n      tag_74\n      jumpi\n      revert(0x00, 0x00)\n    tag_74:\n      pop\n      tag_75\n      tag_76\n      jump\t// in\n    tag_75:\n      mload(0x40)\n      tag_77\n      swap2\n      swap1\n      tag_35\n      jump\t// in\n    tag_77:\n      mload(0x40)\n      dup1\n      swap2\n      sub\n      swap1\n      return\n        /* \"uniswap.sol\":5341:5472  function getTokenPrice(address tokenAddress) public view returns (uint256) {... */\n    tag_13:\n      callvalue\n      dup1\n      iszero\n      tag_78\n      jumpi\n      revert(0x00, 0x00)\n    tag_78:\n      pop\n      tag_79\n      0x04\n      dup1\n      calldatasize\n      sub\n      dup2\n      add\n      swap1\n      tag_80\n      swap2\n      swap1\n      tag_48\n      jump\t// in\n    tag_80:\n      tag_81\n      jump\t// in\n    tag_79:\n      mload(0x40)\n      tag_82\n      swap2\n      swap1\n      tag_83\n      jump\t// in\n    tag_82:\n      mload(0x40)\n      dup1\n      swap2\n      sub\n      swap1\n      return\n        /* \"uniswap.sol\":4078:5245  function getAmountsOut(uint amountIn, address[] memory path)... */\n    tag_14:\n      callvalue\n      dup1\n      iszero\n      tag_84\n      jumpi\n      revert(0x00, 0x00)\n    tag_84:\n      pop\n      tag_85\n      0x04\n      dup1\n      calldatasize\n      sub\n      dup2\n      add\n      swap1\n      tag_86\n      swap2\n      swap1\n      tag_87\n      jump\t// in\n    tag_86:\n      tag_88\n      jump\t// in\n    tag_85:\n      mload(0x40)\n      tag_89\n      swap2\n      swap1\n      tag_90\n      jump\t// in\n    tag_89:\n      mload(0x40)\n      dup1\n      swap2\n      sub\n      swap1\n      return\n        /* \"@openzeppelin/contracts-upgradeable/access/AccessControlUpgradeable.sol\":5705:5852  function revokeRole(bytes32 role, address account) public virtual override onlyRole(getRoleAdmin(role)) {... */\n    tag_15:\n      callvalue\n      dup1\n      iszero\n      tag_91\n      jumpi\n      revert(0x00, 0x00)\n    tag_91:\n      pop\n      tag_92\n      0x04\n      dup1\n      calldatasize\n      sub\n      dup2\n      add\n      swap1\n      tag_93\n      swap2\n      swap1\n      tag_39\n      jump\t// in\n    tag_93:\n      tag_94\n      jump\t// in\n    tag_92:\n      stop\n        /* \"uniswap.sol\":1929:1980  mapping(address => TokenDetail) public tokenDetails */\n    tag_16:\n      callvalue\n      dup1\n      iszero\n      tag_95\n      jumpi\n      revert(0x00, 0x00)\n    tag_95:\n      pop\n      tag_96\n      0x04\n      dup1\n      calldatasize\n      sub\n      dup2\n      add\n      swap1\n      tag_97\n      swap2\n      swap1\n      tag_48\n      jump\t// in\n    tag_97:\n      tag_98\n      jump\t// in\n    tag_96:\n      mload(0x40)\n      tag_99\n      swap3\n      swap2\n      swap1\n      tag_100\n      jump\t// in\n    tag_99:\n      mload(0x40)\n      dup1\n      swap2\n      sub\n      swap1\n      return\n        /* \"uniswap.sol\":2517:3058  function setTokensDetails(... */\n    tag_17:\n      callvalue\n      dup1\n      iszero\n      tag_101\n      jumpi\n      revert(0x00, 0x00)\n    tag_101:\n      pop\n      tag_102\n      0x04\n      dup1\n      calldatasize\n      sub\n      dup2\n      add\n      swap1\n      tag_103\n      swap2\n      swap1\n      tag_104\n      jump\t// in\n    tag_103:\n      tag_105\n      jump\t// in\n    tag_102:\n      stop\n        /* \"uniswap.sol\":2288:2511  function setTokenDetails(... */\n    tag_18:\n      callvalue\n      dup1\n      iszero\n      tag_106\n      jumpi\n      revert(0x00, 0x00)\n    tag_106:\n      pop\n      tag_107\n      0x04\n      dup1\n      calldatasize\n      sub\n      dup2\n      add\n      swap1\n      tag_108\n      swap2\n      swap1\n      tag_109\n      jump\t// in\n    tag_108:\n      tag_110\n      jump\t// in\n    tag_107:\n      stop\n        /* \"@openzeppelin/contracts-upgradeable/access/AccessControlUpgradeable.sol\":3050:3263  function supportsInterface(bytes4 interfaceId) public view virtual override returns (bool) {... */\n    tag_26:\n        /* \"@openzeppelin/contracts-upgradeable/access/AccessControlUpgradeable.sol\":3135:3139  bool */\n      0x00\n        /* \"@openzeppelin/contracts-upgradeable/access/AccessControlUpgradeable.sol\":3173:3216  type(IAccessControlUpgradeable).interfaceId */\n      0x7965db0b00000000000000000000000000000000000000000000000000000000\n        /* \"@openzeppelin/contracts-upgradeable/access/AccessControlUpgradeable.sol\":3158:3216  interfaceId == type(IAccessControlUpgradeable).interfaceId */\n      not(0xffffffffffffffffffffffffffffffffffffffffffffffffffffffff)\n      and\n        /* \"@openzeppelin/contracts-upgradeable/access/AccessControlUpgradeable.sol\":3158:3169  interfaceId */\n      dup3\n        /* \"@openzeppelin/contracts-upgradeable/access/AccessControlUpgradeable.sol\":3158:3216  interfaceId == type(IAccessControlUpgradeable).interfaceId */\n      not(0xffffffffffffffffffffffffffffffffffffffffffffffffffffffff)\n      and\n      eq\n        /* \"@openzeppelin/contracts-upgradeable/access/AccessControlUpgradeable.sol\":3158:3256  interfaceId == type(IAccessControlUpgradeable).interfaceId || super.supportsInterface(interfaceId) */\n      dup1\n      tag_112\n      jumpi\n      pop\n        /* \"@openzeppelin/contracts-upgradeable/access/AccessControlUpgradeable.sol\":3220:3256  super.supportsInterface(interfaceId) */\n      tag_113\n        /* \"@openzeppelin/contracts-upgradeable/access/AccessControlUpgradeable.sol\":3244:3255  interfaceId */\n      dup3\n        /* \"@openzeppelin/contracts-upgradeable/access/AccessControlUpgradeable.sol\":3220:3243  super.supportsInterface */\n      tag_114\n        /* \"@openzeppelin/contracts-upgradeable/access/AccessControlUpgradeable.sol\":3220:3256  super.supportsInterface(interfaceId) */\n      jump\t// in\n    tag_113:\n        /* \"@openzeppelin/contracts-upgradeable/access/AccessControlUpgradeable.sol\":3158:3256  interfaceId == type(IAccessControlUpgradeable).interfaceId || super.supportsInterface(interfaceId) */\n    tag_112:\n        /* \"@openzeppelin/contracts-upgradeable/access/AccessControlUpgradeable.sol\":3151:3256  return interfaceId == type(IAccessControlUpgradeable).interfaceId || super.supportsInterface(interfaceId) */\n      swap1\n      pop\n        /* \"@openzeppelin/contracts-upgradeable/access/AccessControlUpgradeable.sol\":3050:3263  function supportsInterface(bytes4 interfaceId) public view virtual override returns (bool) {... */\n      swap2\n      swap1\n      pop\n      jump\t// out\n        /* \"@openzeppelin/contracts-upgradeable/access/AccessControlUpgradeable.sol\":4855:4984  function getRoleAdmin(bytes32 role) public view virtual override returns (bytes32) {... */\n    tag_33:\n        /* \"@openzeppelin/contracts-upgradeable/access/AccessControlUpgradeable.sol\":4929:4936  bytes32 */\n      0x00\n        /* \"@openzeppelin/contracts-upgradeable/access/AccessControlUpgradeable.sol\":4955:4961  _roles */\n      0x65\n        /* \"@openzeppelin/contracts-upgradeable/access/AccessControlUpgradeable.sol\":4955:4967  _roles[role] */\n      0x00\n        /* \"@openzeppelin/contracts-upgradeable/access/AccessControlUpgradeable.sol\":4962:4966  role */\n      dup4\n        /* \"@openzeppelin/contracts-upgradeable/access/AccessControlUpgradeable.sol\":4955:4967  _roles[role] */\n      dup2\n      mstore\n      0x20\n      add\n      swap1\n      dup2\n      mstore\n      0x20\n      add\n      0x00\n      keccak256\n        /* \"@openzeppelin/contracts-upgradeable/access/AccessControlUpgradeable.sol\":4955:4977  _roles[role].adminRole */\n      0x01\n      add\n      sload\n        /* \"@openzeppelin/contracts-upgradeable/access/AccessControlUpgradeable.sol\":4948:4977  return _roles[role].adminRole */\n      swap1\n      pop\n        /* \"@openzeppelin/contracts-upgradeable/access/AccessControlUpgradeable.sol\":4855:4984  function getRoleAdmin(bytes32 role) public view virtual override returns (bytes32) {... */\n      swap2\n      swap1\n      pop\n      jump\t// out\n        /* \"@openzeppelin/contracts-upgradeable/access/AccessControlUpgradeable.sol\":5280:5425  function grantRole(bytes32 role, address account) public virtual override onlyRole(getRoleAdmin(role)) {... */\n    tag_40:\n        /* \"@openzeppelin/contracts-upgradeable/access/AccessControlUpgradeable.sol\":5363:5381  getRoleAdmin(role) */\n      tag_116\n        /* \"@openzeppelin/contracts-upgradeable/access/AccessControlUpgradeable.sol\":5376:5380  role */\n      dup3\n        /* \"@openzeppelin/contracts-upgradeable/access/AccessControlUpgradeable.sol\":5363:5375  getRoleAdmin */\n      tag_33\n        /* \"@openzeppelin/contracts-upgradeable/access/AccessControlUpgradeable.sol\":5363:5381  getRoleAdmin(role) */\n      jump\t// in\n    tag_116:\n        /* \"@openzeppelin/contracts-upgradeable/access/AccessControlUpgradeable.sol\":2798:2814  _checkRole(role) */\n      tag_118\n        /* \"@openzeppelin/contracts-upgradeable/access/AccessControlUpgradeable.sol\":2809:2813  role */\n      dup2\n        /* \"@openzeppelin/contracts-upgradeable/access/AccessControlUpgradeable.sol\":2798:2808  _checkRole */\n      tag_119\n        /* \"@openzeppelin/contracts-upgradeable/access/AccessControlUpgradeable.sol\":2798:2814  _checkRole(role) */\n      jump\t// in\n    tag_118:\n        /* \"@openzeppelin/contracts-upgradeable/access/AccessControlUpgradeable.sol\":5393:5418  _grantRole(role, account) */\n      tag_121\n        /* \"@openzeppelin/contracts-upgradeable/access/AccessControlUpgradeable.sol\":5404:5408  role */\n      dup4\n        /* \"@openzeppelin/contracts-upgradeable/access/AccessControlUpgradeable.sol\":5410:5417  account */\n      dup4\n        /* \"@openzeppelin/contracts-upgradeable/access/AccessControlUpgradeable.sol\":5393:5403  _grantRole */\n      tag_122\n        /* \"@openzeppelin/contracts-upgradeable/access/AccessControlUpgradeable.sol\":5393:5418  _grantRole(role, account) */\n      jump\t// in\n    tag_121:\n        /* \"@openzeppelin/contracts-upgradeable/access/AccessControlUpgradeable.sol\":5280:5425  function grantRole(bytes32 role, address account) public virtual override onlyRole(getRoleAdmin(role)) {... */\n      pop\n      pop\n      pop\n      jump\t// out\n        /* \"@openzeppelin/contracts-upgradeable/access/AccessControlUpgradeable.sol\":6389:6603  function renounceRole(bytes32 role, address account) public virtual override {... */\n    tag_44:\n        /* \"@openzeppelin/contracts-upgradeable/access/AccessControlUpgradeable.sol\":6495:6507  _msgSender() */\n      tag_124\n        /* \"@openzeppelin/contracts-upgradeable/access/AccessControlUpgradeable.sol\":6495:6505  _msgSender */\n      tag_125\n        /* \"@openzeppelin/contracts-upgradeable/access/AccessControlUpgradeable.sol\":6495:6507  _msgSender() */\n      jump\t// in\n    tag_124:\n        /* \"@openzeppelin/contracts-upgradeable/access/AccessControlUpgradeable.sol\":6484:6507  account == _msgSender() */\n      0xffffffffffffffffffffffffffffffffffffffff\n      and\n        /* \"@openzeppelin/contracts-upgradeable/access/AccessControlUpgradeable.sol\":6484:6491  account */\n      dup2\n        /* \"@openzeppelin/contracts-upgradeable/access/AccessControlUpgradeable.sol\":6484:6507  account == _msgSender() */\n      0xffffffffffffffffffffffffffffffffffffffff\n      and\n      eq\n        /* \"@openzeppelin/contracts-upgradeable/access/AccessControlUpgradeable.sol\":6476:6559  require(account == _msgSender(), \"AccessControl: can only renounce roles for self\") */\n      tag_126\n      jumpi\n      mload(0x40)\n      0x08c379a000000000000000000000000000000000000000000000000000000000\n      dup2\n      mstore\n      0x04\n      add\n      tag_127\n      swap1\n      tag_128\n      jump\t// in\n    tag_127:\n      mload(0x40)\n      dup1\n      swap2\n      sub\n      swap1\n      revert\n    tag_126:\n        /* \"@openzeppelin/contracts-upgradeable/access/AccessControlUpgradeable.sol\":6570:6596  _revokeRole(role, account) */\n      tag_129\n        /* \"@openzeppelin/contracts-upgradeable/access/AccessControlUpgradeable.sol\":6582:6586  role */\n      dup3\n        /* \"@openzeppelin/contracts-upgradeable/access/AccessControlUpgradeable.sol\":6588:6595  account */\n      dup3\n        /* \"@openzeppelin/contracts-upgradeable/access/AccessControlUpgradeable.sol\":6570:6581  _revokeRole */\n      tag_130\n        /* \"@openzeppelin/contracts-upgradeable/access/AccessControlUpgradeable.sol\":6570:6596  _revokeRole(role, account) */\n      jump\t// in\n    tag_129:\n        /* \"@openzeppelin/contracts-upgradeable/access/AccessControlUpgradeable.sol\":6389:6603  function renounceRole(bytes32 role, address account) public virtual override {... */\n      pop\n      pop\n      jump\t// out\n        /* \"uniswap.sol\":5478:5644  function getTokenDetails(address tokenAddress)... */\n    tag_49:\n        /* \"uniswap.sol\":5570:5588  TokenDetail memory */\n      tag_131\n      tag_132\n      jump\t// in\n    tag_131:\n        /* \"uniswap.sol\":5611:5623  tokenDetails */\n      0x97\n        /* \"uniswap.sol\":5611:5637  tokenDetails[tokenAddress] */\n      0x00\n        /* \"uniswap.sol\":5624:5636  tokenAddress */\n      dup4\n        /* \"uniswap.sol\":5611:5637  tokenDetails[tokenAddress] */\n      0xffffffffffffffffffffffffffffffffffffffff\n      and\n      0xffffffffffffffffffffffffffffffffffffffff\n      and\n      dup2\n      mstore\n      0x20\n      add\n      swap1\n      dup2\n      mstore\n      0x20\n      add\n      0x00\n      keccak256\n        /* \"uniswap.sol\":5604:5637  return tokenDetails[tokenAddress] */\n      mload(0x40)\n      dup1\n      0x40\n      add\n      0x40\n      mstore\n      swap1\n      dup2\n      0x00\n      dup3\n      add\n      sload\n      dup2\n      mstore\n      0x20\n      add\n      0x01\n      dup3\n      add\n      0x00\n      swap1\n      sload\n      swap1\n      0x0100\n      exp\n      swap1\n      div\n      0xffffffffffffffffffffffffffffffffffffffff\n      and\n      0xffffffffffffffffffffffffffffffffffffffff\n      and\n      0xffffffffffffffffffffffffffffffffffffffff\n      and\n      dup2\n      mstore\n      pop\n      pop\n      swap1\n      pop\n        /* \"uniswap.sol\":5478:5644  function getTokenDetails(address tokenAddress)... */\n      swap2\n      swap1\n      pop\n      jump\t// out\n        /* \"@openzeppelin/contracts-upgradeable/access/AccessControlUpgradeable.sol\":3350:3495  function hasRole(bytes32 role, address account) public view virtual override returns (bool) {... */\n    tag_55:\n        /* \"@openzeppelin/contracts-upgradeable/access/AccessControlUpgradeable.sol\":3436:3440  bool */\n      0x00\n        /* \"@openzeppelin/contracts-upgradeable/access/AccessControlUpgradeable.sol\":3459:3465  _roles */\n      0x65\n        /* \"@openzeppelin/contracts-upgradeable/access/AccessControlUpgradeable.sol\":3459:3471  _roles[role] */\n      0x00\n        /* \"@openzeppelin/contracts-upgradeable/access/AccessControlUpgradeable.sol\":3466:3470  role */\n      dup5\n        /* \"@openzeppelin/contracts-upgradeable/access/AccessControlUpgradeable.sol\":3459:3471  _roles[role] */\n      dup2\n      mstore\n      0x20\n      add\n      swap1\n      dup2\n      mstore\n      0x20\n      add\n      0x00\n      keccak256\n        /* \"@openzeppelin/contracts-upgradeable/access/AccessControlUpgradeable.sol\":3459:3479  _roles[role].members */\n      0x00\n      add\n        /* \"@openzeppelin/contracts-upgradeable/access/AccessControlUpgradeable.sol\":3459:3488  _roles[role].members[account] */\n      0x00\n        /* \"@openzeppelin/contracts-upgradeable/access/AccessControlUpgradeable.sol\":3480:3487  account */\n      dup4\n        /* \"@openzeppelin/contracts-upgradeable/access/AccessControlUpgradeable.sol\":3459:3488  _roles[role].members[account] */\n      0xffffffffffffffffffffffffffffffffffffffff\n      and\n      0xffffffffffffffffffffffffffffffffffffffff\n      and\n      dup2\n      mstore\n      0x20\n      add\n      swap1\n      dup2\n      mstore\n      0x20\n      add\n      0x00\n      keccak256\n      0x00\n      swap1\n      sload\n      swap1\n      0x0100\n      exp\n      swap1\n      div\n      0xff\n      and\n        /* \"@openzeppelin/contracts-upgradeable/access/AccessControlUpgradeable.sol\":3452:3488  return _roles[role].members[account] */\n      swap1\n      pop\n        /* \"@openzeppelin/contracts-upgradeable/access/AccessControlUpgradeable.sol\":3350:3495  function hasRole(bytes32 role, address account) public view virtual override returns (bool) {... */\n      swap3\n      swap2\n      pop\n      pop\n      jump\t// out\n        /* \"@openzeppelin/contracts-upgradeable/access/AccessControlUpgradeable.sol\":2320:2369  bytes32 public constant DEFAULT_ADMIN_ROLE = 0x00 */\n    tag_59:\n        /* \"@openzeppelin/contracts-upgradeable/access/AccessControlUpgradeable.sol\":2365:2369  0x00 */\n      0x00\n        /* \"@openzeppelin/contracts-upgradeable/access/AccessControlUpgradeable.sol\":2320:2369  bytes32 public constant DEFAULT_ADMIN_ROLE = 0x00 */\n      0x00\n      shl\n      dup2\n      jump\t// out\n        /* \"uniswap.sol\":1893:1922  address public immutable WETH */\n    tag_63:\n      immutable(\"0x272fee19618bddbc00febd3897af287776f225c94084e4d859902021d48f698c\")\n      dup2\n      jump\t// out\n        /* \"uniswap.sol\":5251:5335  function getWETHAddress() public view returns (address) {... */\n    tag_68:\n        /* \"uniswap.sol\":5298:5305  address */\n      0x00\n        /* \"uniswap.sol\":5324:5328  WETH */\n      immutable(\"0x272fee19618bddbc00febd3897af287776f225c94084e4d859902021d48f698c\")\n        /* \"uniswap.sol\":5317:5328  return WETH */\n      swap1\n      pop\n        /* \"uniswap.sol\":5251:5335  function getWETHAddress() public view returns (address) {... */\n      swap1\n      jump\t// out\n        /* \"uniswap.sol\":3064:4066  function swapExactETHForTokensSupportingFeeOnTransferTokens(... */\n    tag_73:\n        /* \"uniswap.sol\":3286:3290  WETH */\n      immutable(\"0x272fee19618bddbc00febd3897af287776f225c94084e4d859902021d48f698c\")\n        /* \"uniswap.sol\":3275:3290  path[0] == WETH */\n      0xffffffffffffffffffffffffffffffffffffffff\n      and\n        /* \"uniswap.sol\":3275:3279  path */\n      dup5\n      dup5\n        /* \"uniswap.sol\":3280:3281  0 */\n      0x00\n        /* \"uniswap.sol\":3275:3282  path[0] */\n      dup2\n      dup2\n      lt\n      tag_137\n      jumpi\n      tag_138\n      tag_139\n      jump\t// in\n    tag_138:\n    tag_137:\n      swap1\n      pop\n      0x20\n      mul\n      add\n      0x20\n      dup2\n      add\n      swap1\n      tag_140\n      swap2\n      swap1\n      tag_48\n      jump\t// in\n    tag_140:\n        /* \"uniswap.sol\":3275:3290  path[0] == WETH */\n      0xffffffffffffffffffffffffffffffffffffffff\n      and\n      eq\n        /* \"uniswap.sol\":3267:3324  require(path[0] == WETH, \"UniswapV2Router: INVALID_PATH\") */\n      tag_141\n      jumpi\n      mload(0x40)\n      0x08c379a000000000000000000000000000000000000000000000000000000000\n      dup2\n      mstore\n      0x04\n      add\n      tag_142\n      swap1\n      tag_143\n      jump\t// in\n    tag_142:\n      mload(0x40)\n      dup1\n      swap2\n      sub\n      swap1\n      revert\n    tag_141:\n        /* \"uniswap.sol\":3354:3369  block.timestamp */\n      timestamp\n        /* \"uniswap.sol\":3342:3350  deadline */\n      dup2\n        /* \"uniswap.sol\":3342:3369  deadline >= block.timestamp */\n      lt\n      iszero\n        /* \"uniswap.sol\":3334:3398  require(deadline >= block.timestamp, \"UniswapV2Router: EXPIRED\") */\n      tag_144\n      jumpi\n      mload(0x40)\n      0x08c379a000000000000000000000000000000000000000000000000000000000\n      dup2\n      mstore\n      0x04\n      add\n      tag_145\n      swap1\n      tag_146\n      jump\t// in\n    tag_145:\n      mload(0x40)\n      dup1\n      swap2\n      sub\n      swap1\n      revert\n    tag_144:\n        /* \"uniswap.sol\":3409:3422  uint amountIn */\n      0x00\n        /* \"uniswap.sol\":3425:3434  msg.value */\n      callvalue\n        /* \"uniswap.sol\":3409:3434  uint amountIn = msg.value */\n      swap1\n      pop\n        /* \"uniswap.sol\":3445:3459  uint amountOut */\n      0x00\n        /* \"uniswap.sol\":3462:3491  getAmountsOut(amountIn, path) */\n      tag_147\n        /* \"uniswap.sol\":3476:3484  amountIn */\n      dup3\n        /* \"uniswap.sol\":3486:3490  path */\n      dup8\n      dup8\n        /* \"uniswap.sol\":3462:3491  getAmountsOut(amountIn, path) */\n      dup1\n      dup1\n      0x20\n      mul\n      0x20\n      add\n      mload(0x40)\n      swap1\n      dup2\n      add\n      0x40\n      mstore\n      dup1\n      swap4\n      swap3\n      swap2\n      swap1\n      dup2\n      dup2\n      mstore\n      0x20\n      add\n      dup4\n      dup4\n      0x20\n      mul\n      dup1\n      dup3\n      dup5\n      calldatacopy\n      0x00\n      dup2\n      dup5\n      add\n      mstore\n      not(0x1f)\n      0x1f\n      dup3\n      add\n      and\n      swap1\n      pop\n      dup1\n      dup4\n      add\n      swap3\n      pop\n      pop\n      pop\n      pop\n      pop\n      pop\n      pop\n        /* \"uniswap.sol\":3462:3475  getAmountsOut */\n      tag_88\n        /* \"uniswap.sol\":3462:3491  getAmountsOut(amountIn, path) */\n      jump\t// in\n    tag_147:\n        /* \"uniswap.sol\":3492:3493  1 */\n      0x01\n        /* \"uniswap.sol\":3462:3494  getAmountsOut(amountIn, path)[1] */\n      dup2\n      mload\n      dup2\n      lt\n      tag_148\n      jumpi\n      tag_149\n      tag_139\n      jump\t// in\n    tag_149:\n    tag_148:\n      0x20\n      mul\n      0x20\n      add\n      add\n      mload\n        /* \"uniswap.sol\":3445:3494  uint amountOut = getAmountsOut(amountIn, path)[1] */\n      swap1\n      pop\n        /* \"uniswap.sol\":3537:3538  0 */\n      0x00\n        /* \"uniswap.sol\":3525:3534  amountOut */\n      dup2\n        /* \"uniswap.sol\":3525:3538  amountOut > 0 */\n      gt\n        /* \"uniswap.sol\":3525:3567  amountOut > 0 && amountOut >= amountOutMin */\n      dup1\n      iszero\n      tag_150\n      jumpi\n      pop\n        /* \"uniswap.sol\":3555:3567  amountOutMin */\n      dup7\n        /* \"uniswap.sol\":3542:3551  amountOut */\n      dup2\n        /* \"uniswap.sol\":3542:3567  amountOut >= amountOutMin */\n      lt\n      iszero\n        /* \"uniswap.sol\":3525:3567  amountOut > 0 && amountOut >= amountOutMin */\n    tag_150:\n        /* \"uniswap.sol\":3504:3636  require(... */\n      tag_151\n      jumpi\n      mload(0x40)\n      0x08c379a000000000000000000000000000000000000000000000000000000000\n      dup2\n      mstore\n      0x04\n      add\n      tag_152\n      swap1\n      tag_153\n      jump\t// in\n    tag_152:\n      mload(0x40)\n      dup1\n      swap2\n      sub\n      swap1\n      revert\n    tag_151:\n        /* \"uniswap.sol\":3647:3662  address manager */\n      0x00\n        /* \"uniswap.sol\":3665:3677  tokenDetails */\n      0x97\n        /* \"uniswap.sol\":3665:3686  tokenDetails[path[1]] */\n      0x00\n        /* \"uniswap.sol\":3678:3682  path */\n      dup9\n      dup9\n        /* \"uniswap.sol\":3683:3684  1 */\n      0x01\n        /* \"uniswap.sol\":3678:3685  path[1] */\n      dup2\n      dup2\n      lt\n      tag_154\n      jumpi\n      tag_155\n      tag_139\n      jump\t// in\n    tag_155:\n    tag_154:\n      swap1\n      pop\n      0x20\n      mul\n      add\n      0x20\n      dup2\n      add\n      swap1\n      tag_156\n      swap2\n      swap1\n      tag_48\n      jump\t// in\n    tag_156:\n        /* \"uniswap.sol\":3665:3686  tokenDetails[path[1]] */\n      0xffffffffffffffffffffffffffffffffffffffff\n      and\n      0xffffffffffffffffffffffffffffffffffffffff\n      and\n      dup2\n      mstore\n      0x20\n      add\n      swap1\n      dup2\n      mstore\n      0x20\n      add\n      0x00\n      keccak256\n        /* \"uniswap.sol\":3665:3699  tokenDetails[path[1]].tokenManager */\n      0x01\n      add\n      0x00\n      swap1\n      sload\n      swap1\n      0x0100\n      exp\n      swap1\n      div\n      0xffffffffffffffffffffffffffffffffffffffff\n      and\n        /* \"uniswap.sol\":3647:3699  address manager = tokenDetails[path[1]].tokenManager */\n      swap1\n      pop\n        /* \"uniswap.sol\":3709:3726  uint256 allowance */\n      0x00\n        /* \"uniswap.sol\":3735:3739  path */\n      dup8\n      dup8\n        /* \"uniswap.sol\":3740:3741  1 */\n      0x01\n        /* \"uniswap.sol\":3735:3742  path[1] */\n      dup2\n      dup2\n      lt\n      tag_157\n      jumpi\n      tag_158\n      tag_139\n      jump\t// in\n    tag_158:\n    tag_157:\n      swap1\n      pop\n      0x20\n      mul\n      add\n      0x20\n      dup2\n      add\n      swap1\n      tag_159\n      swap2\n      swap1\n      tag_48\n      jump\t// in\n    tag_159:\n        /* \"uniswap.sol\":3729:3753  IWETH(path[1]).allowance */\n      0xffffffffffffffffffffffffffffffffffffffff\n      and\n      0xdd62ed3e\n        /* \"uniswap.sol\":3754:3761  manager */\n      dup4\n        /* \"uniswap.sol\":3771:3775  this */\n      address\n        /* \"uniswap.sol\":3729:3777  IWETH(path[1]).allowance(manager, address(this)) */\n      mload(0x40)\n      dup4\n      0xffffffff\n      and\n      0xe0\n      shl\n      dup2\n      mstore\n      0x04\n      add\n      tag_160\n      swap3\n      swap2\n      swap1\n      tag_161\n      jump\t// in\n    tag_160:\n      0x20\n      mload(0x40)\n      dup1\n      dup4\n      sub\n      dup2\n      dup7\n      gas\n      staticcall\n      iszero\n      dup1\n      iszero\n      tag_163\n      jumpi\n      returndatacopy(0x00, 0x00, returndatasize)\n      revert(0x00, returndatasize)\n    tag_163:\n      pop\n      pop\n      pop\n      pop\n      mload(0x40)\n      returndatasize\n      not(0x1f)\n      0x1f\n      dup3\n      add\n      and\n      dup3\n      add\n      dup1\n      0x40\n      mstore\n      pop\n      dup2\n      add\n      swap1\n      tag_164\n      swap2\n      swap1\n      tag_165\n      jump\t// in\n    tag_164:\n        /* \"uniswap.sol\":3709:3777  uint256 allowance = IWETH(path[1]).allowance(manager, address(this)) */\n      swap1\n      pop\n        /* \"uniswap.sol\":3821:3830  amountOut */\n      dup3\n        /* \"uniswap.sol\":3808:3817  allowance */\n      dup2\n        /* \"uniswap.sol\":3808:3830  allowance >= amountOut */\n      lt\n      iszero\n        /* \"uniswap.sol\":3787:3900  require(... */\n      tag_166\n      jumpi\n      mload(0x40)\n      0x08c379a000000000000000000000000000000000000000000000000000000000\n      dup2\n      mstore\n      0x04\n      add\n      tag_167\n      swap1\n      tag_168\n      jump\t// in\n    tag_167:\n      mload(0x40)\n      dup1\n      swap2\n      sub\n      swap1\n      revert\n    tag_166:\n        /* \"uniswap.sol\":3917:3921  WETH */\n      immutable(\"0x272fee19618bddbc00febd3897af287776f225c94084e4d859902021d48f698c\")\n        /* \"uniswap.sol\":3911:3930  IWETH(WETH).deposit */\n      0xffffffffffffffffffffffffffffffffffffffff\n      and\n      0xd0e30db0\n        /* \"uniswap.sol\":3938:3946  amountIn */\n      dup6\n        /* \"uniswap.sol\":3911:3949  IWETH(WETH).deposit{value: amountIn}() */\n      mload(0x40)\n      dup3\n      0xffffffff\n      and\n      0xe0\n      shl\n      dup2\n      mstore\n      0x04\n      add\n      0x00\n      mload(0x40)\n      dup1\n      dup4\n      sub\n      dup2\n      dup6\n      dup9\n      dup1\n      extcodesize\n      iszero\n      dup1\n      iszero\n      tag_169\n      jumpi\n      revert(0x00, 0x00)\n    tag_169:\n      pop\n      gas\n      call\n      iszero\n      dup1\n      iszero\n      tag_171\n      jumpi\n      returndatacopy(0x00, 0x00, returndatasize)\n      revert(0x00, returndatasize)\n    tag_171:\n      pop\n      pop\n      pop\n      pop\n      pop\n        /* \"uniswap.sol\":3965:3969  WETH */\n      immutable(\"0x272fee19618bddbc00febd3897af287776f225c94084e4d859902021d48f698c\")\n        /* \"uniswap.sol\":3959:3979  IWETH(WETH).transfer */\n      0xffffffffffffffffffffffffffffffffffffffff\n      and\n      0xa9059cbb\n        /* \"uniswap.sol\":3980:3984  path */\n      dup10\n      dup10\n        /* \"uniswap.sol\":3985:3986  1 */\n      0x01\n        /* \"uniswap.sol\":3980:3987  path[1] */\n      dup2\n      dup2\n      lt\n      tag_172\n      jumpi\n      tag_173\n      tag_139\n      jump\t// in\n    tag_173:\n    tag_172:\n      swap1\n      pop\n      0x20\n      mul\n      add\n      0x20\n      dup2\n      add\n      swap1\n      tag_174\n      swap2\n      swap1\n      tag_48\n      jump\t// in\n    tag_174:\n        /* \"uniswap.sol\":3989:3997  amountIn */\n      dup7\n        /* \"uniswap.sol\":3959:3998  IWETH(WETH).transfer(path[1], amountIn) */\n      mload(0x40)\n      dup4\n      0xffffffff\n      and\n      0xe0\n      shl\n      dup2\n      mstore\n      0x04\n      add\n      tag_175\n      swap3\n      swap2\n      swap1\n      tag_176\n      jump\t// in\n    tag_175:\n      0x20\n      mload(0x40)\n      dup1\n      dup4\n      sub\n      dup2\n      0x00\n      dup8\n      gas\n      call\n      iszero\n      dup1\n      iszero\n      tag_178\n      jumpi\n      returndatacopy(0x00, 0x00, returndatasize)\n      revert(0x00, returndatasize)\n    tag_178:\n      pop\n      pop\n      pop\n      pop\n      mload(0x40)\n      returndatasize\n      not(0x1f)\n      0x1f\n      dup3\n      add\n      and\n      dup3\n      add\n      dup1\n      0x40\n      mstore\n      pop\n      dup2\n      add\n      swap1\n      tag_179\n      swap2\n      swap1\n      tag_180\n      jump\t// in\n    tag_179:\n      pop\n        /* \"uniswap.sol\":4014:4018  path */\n      dup8\n      dup8\n        /* \"uniswap.sol\":4019:4020  1 */\n      0x01\n        /* \"uniswap.sol\":4014:4021  path[1] */\n      dup2\n      dup2\n      lt\n      tag_181\n      jumpi\n      tag_182\n      tag_139\n      jump\t// in\n    tag_182:\n    tag_181:\n      swap1\n      pop\n      0x20\n      mul\n      add\n      0x20\n      dup2\n      add\n      swap1\n      tag_183\n      swap2\n      swap1\n      tag_48\n      jump\t// in\n    tag_183:\n        /* \"uniswap.sol\":4008:4035  IWETH(path[1]).transferFrom */\n      0xffffffffffffffffffffffffffffffffffffffff\n      and\n      0x23b872dd\n        /* \"uniswap.sol\":4036:4043  manager */\n      dup4\n        /* \"uniswap.sol\":4045:4047  to */\n      dup9\n        /* \"uniswap.sol\":4049:4058  amountOut */\n      dup7\n        /* \"uniswap.sol\":4008:4059  IWETH(path[1]).transferFrom(manager, to, amountOut) */\n      mload(0x40)\n      dup5\n      0xffffffff\n      and\n      0xe0\n      shl\n      dup2\n      mstore\n      0x04\n      add\n      tag_184\n      swap4\n      swap3\n      swap2\n      swap1\n      tag_185\n      jump\t// in\n    tag_184:\n      0x20\n      mload(0x40)\n      dup1\n      dup4\n      sub\n      dup2\n      0x00\n      dup8\n      gas\n      call\n      iszero\n      dup1\n      iszero\n      tag_187\n      jumpi\n      returndatacopy(0x00, 0x00, returndatasize)\n      revert(0x00, returndatasize)\n    tag_187:\n      pop\n      pop\n      pop\n      pop\n      mload(0x40)\n      returndatasize\n      not(0x1f)\n      0x1f\n      dup3\n      add\n      and\n      dup3\n      add\n      dup1\n      0x40\n      mstore\n      pop\n      dup2\n      add\n      swap1\n      tag_188\n      swap2\n      swap1\n      tag_180\n      jump\t// in\n    tag_188:\n      pop\n        /* \"uniswap.sol\":3248:4066  {... */\n      pop\n      pop\n      pop\n      pop\n        /* \"uniswap.sol\":3064:4066  function swapExactETHForTokensSupportingFeeOnTransferTokens(... */\n      pop\n      pop\n      pop\n      pop\n      pop\n      jump\t// out\n        /* \"uniswap.sol\":1987:2053  bytes32 public constant PRICE_MANAGER = keccak256(\"PRICE_MANAGER\") */\n    tag_76:\n        /* \"uniswap.sol\":2027:2053  keccak256(\"PRICE_MANAGER\") */\n      0xa451215b66f023bb76f9a9e7bc5c64156446b47b26061a8a32eaa319c45f695e\n        /* \"uniswap.sol\":1987:2053  bytes32 public constant PRICE_MANAGER = keccak256(\"PRICE_MANAGER\") */\n      dup2\n      jump\t// out\n        /* \"uniswap.sol\":5341:5472  function getTokenPrice(address tokenAddress) public view returns (uint256) {... */\n    tag_81:\n        /* \"uniswap.sol\":5407:5414  uint256 */\n      0x00\n        /* \"uniswap.sol\":5433:5445  tokenDetails */\n      0x97\n        /* \"uniswap.sol\":5433:5459  tokenDetails[tokenAddress] */\n      0x00\n        /* \"uniswap.sol\":5446:5458  tokenAddress */\n      dup4\n        /* \"uniswap.sol\":5433:5459  tokenDetails[tokenAddress] */\n      0xffffffffffffffffffffffffffffffffffffffff\n      and\n      0xffffffffffffffffffffffffffffffffffffffff\n      and\n      dup2\n      mstore\n      0x20\n      add\n      swap1\n      dup2\n      mstore\n      0x20\n      add\n      0x00\n      keccak256\n        /* \"uniswap.sol\":5433:5465  tokenDetails[tokenAddress].price */\n      0x00\n      add\n      sload\n        /* \"uniswap.sol\":5426:5465  return tokenDetails[tokenAddress].price */\n      swap1\n      pop\n        /* \"uniswap.sol\":5341:5472  function getTokenPrice(address tokenAddress) public view returns (uint256) {... */\n      swap2\n      swap1\n      pop\n      jump\t// out\n        /* \"uniswap.sol\":4078:5245  function getAmountsOut(uint amountIn, address[] memory path)... */\n    tag_88:\n        /* \"uniswap.sol\":4184:4205  uint[] memory amounts */\n      0x60\n        /* \"uniswap.sol\":4253:4254  0 */\n      0x00\n        /* \"uniswap.sol\":4242:4250  amountIn */\n      dup4\n        /* \"uniswap.sol\":4242:4254  amountIn > 0 */\n      gt\n        /* \"uniswap.sol\":4221:4333  require(... */\n      tag_191\n      jumpi\n      mload(0x40)\n      0x08c379a000000000000000000000000000000000000000000000000000000000\n      dup2\n      mstore\n      0x04\n      add\n      tag_192\n      swap1\n      tag_193\n      jump\t// in\n    tag_192:\n      mload(0x40)\n      dup1\n      swap2\n      sub\n      swap1\n      revert\n    tag_191:\n        /* \"uniswap.sol\":4379:4380  2 */\n      0x02\n        /* \"uniswap.sol\":4364:4368  path */\n      dup3\n        /* \"uniswap.sol\":4364:4375  path.length */\n      mload\n        /* \"uniswap.sol\":4364:4380  path.length >= 2 */\n      lt\n      iszero\n        /* \"uniswap.sol\":4343:4456  require(... */\n      tag_194\n      jumpi\n      mload(0x40)\n      0x08c379a000000000000000000000000000000000000000000000000000000000\n      dup2\n      mstore\n      0x04\n      add\n      tag_195\n      swap1\n      tag_196\n      jump\t// in\n    tag_195:\n      mload(0x40)\n      dup1\n      swap2\n      sub\n      swap1\n      revert\n    tag_194:\n        /* \"uniswap.sol\":4488:4492  path */\n      dup2\n        /* \"uniswap.sol\":4488:4499  path.length */\n      mload\n        /* \"uniswap.sol\":4477:4500  new uint[](path.length) */\n      0xffffffffffffffff\n      dup2\n      gt\n      iszero\n      tag_197\n      jumpi\n      tag_198\n      tag_199\n      jump\t// in\n    tag_198:\n    tag_197:\n      mload(0x40)\n      swap1\n      dup1\n      dup3\n      mstore\n      dup1\n      0x20\n      mul\n      0x20\n      add\n      dup3\n      add\n      0x40\n      mstore\n      dup1\n      iszero\n      tag_200\n      jumpi\n      dup2\n      0x20\n      add\n      0x20\n      dup3\n      mul\n      dup1\n      calldatasize\n      dup4\n      calldatacopy\n      dup1\n      dup3\n      add\n      swap2\n      pop\n      pop\n      swap1\n      pop\n    tag_200:\n      pop\n        /* \"uniswap.sol\":4467:4500  amounts = new uint[](path.length) */\n      swap1\n      pop\n        /* \"uniswap.sol\":4523:4531  amountIn */\n      dup3\n        /* \"uniswap.sol\":4510:4517  amounts */\n      dup2\n        /* \"uniswap.sol\":4518:4519  0 */\n      0x00\n        /* \"uniswap.sol\":4510:4520  amounts[0] */\n      dup2\n      mload\n      dup2\n      lt\n      tag_201\n      jumpi\n      tag_202\n      tag_139\n      jump\t// in\n    tag_202:\n    tag_201:\n      0x20\n      mul\n      0x20\n      add\n      add\n        /* \"uniswap.sol\":4510:4531  amounts[0] = amountIn */\n      dup2\n      dup2\n      mstore\n      pop\n      pop\n        /* \"uniswap.sol\":4547:4553  uint i */\n      0x00\n        /* \"uniswap.sol\":4542:5214  for (uint i; i < path.length - 1; i++) {... */\n    tag_203:\n        /* \"uniswap.sol\":4573:4574  1 */\n      0x01\n        /* \"uniswap.sol\":4559:4563  path */\n      dup4\n        /* \"uniswap.sol\":4559:4570  path.length */\n      mload\n        /* \"uniswap.sol\":4559:4574  path.length - 1 */\n      tag_206\n      swap2\n      swap1\n      tag_207\n      jump\t// in\n    tag_206:\n        /* \"uniswap.sol\":4555:4556  i */\n      dup2\n        /* \"uniswap.sol\":4555:4574  i < path.length - 1 */\n      lt\n        /* \"uniswap.sol\":4542:5214  for (uint i; i < path.length - 1; i++) {... */\n      iszero\n      tag_204\n      jumpi\n        /* \"uniswap.sol\":4634:4635  0 */\n      0x00\n        /* \"uniswap.sol\":4599:4611  tokenDetails */\n      0x97\n        /* \"uniswap.sol\":4599:4624  tokenDetails[path[i + 1]] */\n      0x00\n        /* \"uniswap.sol\":4612:4616  path */\n      dup6\n        /* \"uniswap.sol\":4621:4622  1 */\n      0x01\n        /* \"uniswap.sol\":4617:4618  i */\n      dup6\n        /* \"uniswap.sol\":4617:4622  i + 1 */\n      tag_208\n      swap2\n      swap1\n      tag_209\n      jump\t// in\n    tag_208:\n        /* \"uniswap.sol\":4612:4623  path[i + 1] */\n      dup2\n      mload\n      dup2\n      lt\n      tag_210\n      jumpi\n      tag_211\n      tag_139\n      jump\t// in\n    tag_211:\n    tag_210:\n      0x20\n      mul\n      0x20\n      add\n      add\n      mload\n        /* \"uniswap.sol\":4599:4624  tokenDetails[path[i + 1]] */\n      0xffffffffffffffffffffffffffffffffffffffff\n      and\n      0xffffffffffffffffffffffffffffffffffffffff\n      and\n      dup2\n      mstore\n      0x20\n      add\n      swap1\n      dup2\n      mstore\n      0x20\n      add\n      0x00\n      keccak256\n        /* \"uniswap.sol\":4599:4630  tokenDetails[path[i + 1]].price */\n      0x00\n      add\n      sload\n        /* \"uniswap.sol\":4599:4635  tokenDetails[path[i + 1]].price != 0 */\n      eq\n        /* \"uniswap.sol\":4595:5204  if (tokenDetails[path[i + 1]].price != 0) {... */\n      tag_212\n      jumpi\n        /* \"uniswap.sol\":4670:4674  WETH */\n      immutable(\"0x272fee19618bddbc00febd3897af287776f225c94084e4d859902021d48f698c\")\n        /* \"uniswap.sol\":4659:4674  path[0] == WETH */\n      0xffffffffffffffffffffffffffffffffffffffff\n      and\n        /* \"uniswap.sol\":4659:4663  path */\n      dup4\n        /* \"uniswap.sol\":4664:4665  0 */\n      0x00\n        /* \"uniswap.sol\":4659:4666  path[0] */\n      dup2\n      mload\n      dup2\n      lt\n      tag_213\n      jumpi\n      tag_214\n      tag_139\n      jump\t// in\n    tag_214:\n    tag_213:\n      0x20\n      mul\n      0x20\n      add\n      add\n      mload\n        /* \"uniswap.sol\":4659:4674  path[0] == WETH */\n      0xffffffffffffffffffffffffffffffffffffffff\n      and\n      sub\n        /* \"uniswap.sol\":4655:5133  if (path[0] == WETH) {... */\n      tag_215\n      jumpi\n        /* \"uniswap.sol\":4783:4795  tokenDetails */\n      0x97\n        /* \"uniswap.sol\":4783:4808  tokenDetails[path[i + 1]] */\n      0x00\n        /* \"uniswap.sol\":4796:4800  path */\n      dup5\n        /* \"uniswap.sol\":4805:4806  1 */\n      0x01\n        /* \"uniswap.sol\":4801:4802  i */\n      dup5\n        /* \"uniswap.sol\":4801:4806  i + 1 */\n      tag_216\n      swap2\n      swap1\n      tag_209\n      jump\t// in\n    tag_216:\n        /* \"uniswap.sol\":4796:4807  path[i + 1] */\n      dup2\n      mload\n      dup2\n      lt\n      tag_217\n      jumpi\n      tag_218\n      tag_139\n      jump\t// in\n    tag_218:\n    tag_217:\n      0x20\n      mul\n      0x20\n      add\n      add\n      mload\n        /* \"uniswap.sol\":4783:4808  tokenDetails[path[i + 1]] */\n      0xffffffffffffffffffffffffffffffffffffffff\n      and\n      0xffffffffffffffffffffffffffffffffffffffff\n      and\n      dup2\n      mstore\n      0x20\n      add\n      swap1\n      dup2\n      mstore\n      0x20\n      add\n      0x00\n      keccak256\n        /* \"uniswap.sol\":4783:4814  tokenDetails[path[i + 1]].price */\n      0x00\n      add\n      sload\n        /* \"uniswap.sol\":4751:4755  1e18 */\n      0x0de0b6b3a7640000\n        /* \"uniswap.sol\":4740:4748  amountIn */\n      dup6\n        /* \"uniswap.sol\":4740:4755  amountIn * 1e18 */\n      tag_219\n      swap2\n      swap1\n      tag_220\n      jump\t// in\n    tag_219:\n        /* \"uniswap.sol\":4739:4814  (amountIn * 1e18) /... */\n      tag_221\n      swap2\n      swap1\n      tag_222\n      jump\t// in\n    tag_221:\n        /* \"uniswap.sol\":4698:4705  amounts */\n      dup3\n        /* \"uniswap.sol\":4710:4711  1 */\n      0x01\n        /* \"uniswap.sol\":4706:4707  i */\n      dup4\n        /* \"uniswap.sol\":4706:4711  i + 1 */\n      tag_223\n      swap2\n      swap1\n      tag_209\n      jump\t// in\n    tag_223:\n        /* \"uniswap.sol\":4698:4712  amounts[i + 1] */\n      dup2\n      mload\n      dup2\n      lt\n      tag_224\n      jumpi\n      tag_225\n      tag_139\n      jump\t// in\n    tag_225:\n    tag_224:\n      0x20\n      mul\n      0x20\n      add\n      add\n        /* \"uniswap.sol\":4698:4814  amounts[i + 1] =... */\n      dup2\n      dup2\n      mstore\n      pop\n      pop\n        /* \"uniswap.sol\":4655:5133  if (path[0] == WETH) {... */\n      jump(tag_226)\n    tag_215:\n        /* \"uniswap.sol\":4861:4877  uint amountInEth */\n      0x00\n        /* \"uniswap.sol\":4978:4982  1e18 */\n      0x0de0b6b3a7640000\n        /* \"uniswap.sol\":4947:4959  tokenDetails */\n      0x97\n        /* \"uniswap.sol\":4947:4968  tokenDetails[path[0]] */\n      0x00\n        /* \"uniswap.sol\":4960:4964  path */\n      dup7\n        /* \"uniswap.sol\":4965:4966  0 */\n      0x00\n        /* \"uniswap.sol\":4960:4967  path[0] */\n      dup2\n      mload\n      dup2\n      lt\n      tag_227\n      jumpi\n      tag_228\n      tag_139\n      jump\t// in\n    tag_228:\n    tag_227:\n      0x20\n      mul\n      0x20\n      add\n      add\n      mload\n        /* \"uniswap.sol\":4947:4968  tokenDetails[path[0]] */\n      0xffffffffffffffffffffffffffffffffffffffff\n      and\n      0xffffffffffffffffffffffffffffffffffffffff\n      and\n      dup2\n      mstore\n      0x20\n      add\n      swap1\n      dup2\n      mstore\n      0x20\n      add\n      0x00\n      keccak256\n        /* \"uniswap.sol\":4947:4974  tokenDetails[path[0]].price */\n      0x00\n      add\n      sload\n        /* \"uniswap.sol\":4916:4920  1e18 */\n      0x0de0b6b3a7640000\n        /* \"uniswap.sol\":4881:4889  amountIn */\n      dup8\n        /* \"uniswap.sol\":4881:4920  amountIn *... */\n      tag_229\n      swap2\n      swap1\n      tag_220\n      jump\t// in\n    tag_229:\n        /* \"uniswap.sol\":4881:4974  amountIn *... */\n      tag_230\n      swap2\n      swap1\n      tag_220\n      jump\t// in\n    tag_230:\n        /* \"uniswap.sol\":4880:4982  (amountIn *... */\n      tag_231\n      swap2\n      swap1\n      tag_222\n      jump\t// in\n    tag_231:\n        /* \"uniswap.sol\":4861:4982  uint amountInEth = (amountIn *... */\n      swap1\n      pop\n        /* \"uniswap.sol\":5083:5095  tokenDetails */\n      0x97\n        /* \"uniswap.sol\":5083:5108  tokenDetails[path[i + 1]] */\n      0x00\n        /* \"uniswap.sol\":5096:5100  path */\n      dup6\n        /* \"uniswap.sol\":5105:5106  1 */\n      0x01\n        /* \"uniswap.sol\":5101:5102  i */\n      dup6\n        /* \"uniswap.sol\":5101:5106  i + 1 */\n      tag_232\n      swap2\n      swap1\n      tag_209\n      jump\t// in\n    tag_232:\n        /* \"uniswap.sol\":5096:5107  path[i + 1] */\n      dup2\n      mload\n      dup2\n      lt\n      tag_233\n      jumpi\n      tag_234\n      tag_139\n      jump\t// in\n    tag_234:\n    tag_233:\n      0x20\n      mul\n      0x20\n      add\n      add\n      mload\n        /* \"uniswap.sol\":5083:5108  tokenDetails[path[i + 1]] */\n      0xffffffffffffffffffffffffffffffffffffffff\n      and\n      0xffffffffffffffffffffffffffffffffffffffff\n      and\n      dup2\n      mstore\n      0x20\n      add\n      swap1\n      dup2\n      mstore\n      0x20\n      add\n      0x00\n      keccak256\n        /* \"uniswap.sol\":5083:5114  tokenDetails[path[i + 1]].price */\n      0x00\n      add\n      sload\n        /* \"uniswap.sol\":5045:5056  amountInEth */\n      dup2\n        /* \"uniswap.sol\":5045:5114  amountInEth /... */\n      tag_235\n      swap2\n      swap1\n      tag_222\n      jump\t// in\n    tag_235:\n        /* \"uniswap.sol\":5004:5011  amounts */\n      dup4\n        /* \"uniswap.sol\":5016:5017  1 */\n      0x01\n        /* \"uniswap.sol\":5012:5013  i */\n      dup5\n        /* \"uniswap.sol\":5012:5017  i + 1 */\n      tag_236\n      swap2\n      swap1\n      tag_209\n      jump\t// in\n    tag_236:\n        /* \"uniswap.sol\":5004:5018  amounts[i + 1] */\n      dup2\n      mload\n      dup2\n      lt\n      tag_237\n      jumpi\n      tag_238\n      tag_139\n      jump\t// in\n    tag_238:\n    tag_237:\n      0x20\n      mul\n      0x20\n      add\n      add\n        /* \"uniswap.sol\":5004:5114  amounts[i + 1] =... */\n      dup2\n      dup2\n      mstore\n      pop\n      pop\n        /* \"uniswap.sol\":4839:5133  {... */\n      pop\n        /* \"uniswap.sol\":4655:5133  if (path[0] == WETH) {... */\n    tag_226:\n        /* \"uniswap.sol\":4595:5204  if (tokenDetails[path[i + 1]].price != 0) {... */\n      jump(tag_239)\n    tag_212:\n        /* \"uniswap.sol\":5188:5189  0 */\n      0x00\n        /* \"uniswap.sol\":5171:5178  amounts */\n      dup3\n        /* \"uniswap.sol\":5183:5184  1 */\n      0x01\n        /* \"uniswap.sol\":5179:5180  i */\n      dup4\n        /* \"uniswap.sol\":5179:5184  i + 1 */\n      tag_240\n      swap2\n      swap1\n      tag_209\n      jump\t// in\n    tag_240:\n        /* \"uniswap.sol\":5171:5185  amounts[i + 1] */\n      dup2\n      mload\n      dup2\n      lt\n      tag_241\n      jumpi\n      tag_242\n      tag_139\n      jump\t// in\n    tag_242:\n    tag_241:\n      0x20\n      mul\n      0x20\n      add\n      add\n        /* \"uniswap.sol\":5171:5189  amounts[i + 1] = 0 */\n      dup2\n      dup2\n      mstore\n      pop\n      pop\n        /* \"uniswap.sol\":4595:5204  if (tokenDetails[path[i + 1]].price != 0) {... */\n    tag_239:\n        /* \"uniswap.sol\":4576:4579  i++ */\n      dup1\n      dup1\n      0x01\n      add\n      swap2\n      pop\n      pop\n        /* \"uniswap.sol\":4542:5214  for (uint i; i < path.length - 1; i++) {... */\n      jump(tag_203)\n    tag_204:\n      pop\n        /* \"uniswap.sol\":4078:5245  function getAmountsOut(uint amountIn, address[] memory path)... */\n      swap3\n      swap2\n      pop\n      pop\n      jump\t// out\n        /* \"@openzeppelin/contracts-upgradeable/access/AccessControlUpgradeable.sol\":5705:5852  function revokeRole(bytes32 role, address account) public virtual override onlyRole(getRoleAdmin(role)) {... */\n    tag_94:\n        /* \"@openzeppelin/contracts-upgradeable/access/AccessControlUpgradeable.sol\":5789:5807  getRoleAdmin(role) */\n      tag_243\n        /* \"@openzeppelin/contracts-upgradeable/access/AccessControlUpgradeable.sol\":5802:5806  role */\n      dup3\n        /* \"@openzeppelin/contracts-upgradeable/access/AccessControlUpgradeable.sol\":5789:5801  getRoleAdmin */\n      tag_33\n        /* \"@openzeppelin/contracts-upgradeable/access/AccessControlUpgradeable.sol\":5789:5807  getRoleAdmin(role) */\n      jump\t// in\n    tag_243:\n        /* \"@openzeppelin/contracts-upgradeable/access/AccessControlUpgradeable.sol\":2798:2814  _checkRole(role) */\n      tag_245\n        /* \"@openzeppelin/contracts-upgradeable/access/AccessControlUpgradeable.sol\":2809:2813  role */\n      dup2\n        /* \"@openzeppelin/contracts-upgradeable/access/AccessControlUpgradeable.sol\":2798:2808  _checkRole */\n      tag_119\n        /* \"@openzeppelin/contracts-upgradeable/access/AccessControlUpgradeable.sol\":2798:2814  _checkRole(role) */\n      jump\t// in\n    tag_245:\n        /* \"@openzeppelin/contracts-upgradeable/access/AccessControlUpgradeable.sol\":5819:5845  _revokeRole(role, account) */\n      tag_247\n        /* \"@openzeppelin/contracts-upgradeable/access/AccessControlUpgradeable.sol\":5831:5835  role */\n      dup4\n        /* \"@openzeppelin/contracts-upgradeable/access/AccessControlUpgradeable.sol\":5837:5844  account */\n      dup4\n        /* \"@openzeppelin/contracts-upgradeable/access/AccessControlUpgradeable.sol\":5819:5830  _revokeRole */\n      tag_130\n        /* \"@openzeppelin/contracts-upgradeable/access/AccessControlUpgradeable.sol\":5819:5845  _revokeRole(role, account) */\n      jump\t// in\n    tag_247:\n        /* \"@openzeppelin/contracts-upgradeable/access/AccessControlUpgradeable.sol\":5705:5852  function revokeRole(bytes32 role, address account) public virtual override onlyRole(getRoleAdmin(role)) {... */\n      pop\n      pop\n      pop\n      jump\t// out\n        /* \"uniswap.sol\":1929:1980  mapping(address => TokenDetail) public tokenDetails */\n    tag_98:\n      mstore(0x20, 0x97)\n      dup1\n      0x00\n      mstore\n      keccak256(0x00, 0x40)\n      0x00\n      swap2\n      pop\n      swap1\n      pop\n      dup1\n      0x00\n      add\n      sload\n      swap1\n      dup1\n      0x01\n      add\n      0x00\n      swap1\n      sload\n      swap1\n      0x0100\n      exp\n      swap1\n      div\n      0xffffffffffffffffffffffffffffffffffffffff\n      and\n      swap1\n      pop\n      dup3\n      jump\t// out\n        /* \"uniswap.sol\":2517:3058  function setTokensDetails(... */\n    tag_105:\n        /* \"uniswap.sol\":2027:2053  keccak256(\"PRICE_MANAGER\") */\n      0xa451215b66f023bb76f9a9e7bc5c64156446b47b26061a8a32eaa319c45f695e\n        /* \"@openzeppelin/contracts-upgradeable/access/AccessControlUpgradeable.sol\":2798:2814  _checkRole(role) */\n      tag_249\n        /* \"@openzeppelin/contracts-upgradeable/access/AccessControlUpgradeable.sol\":2809:2813  role */\n      dup2\n        /* \"@openzeppelin/contracts-upgradeable/access/AccessControlUpgradeable.sol\":2798:2808  _checkRole */\n      tag_119\n        /* \"@openzeppelin/contracts-upgradeable/access/AccessControlUpgradeable.sol\":2798:2814  _checkRole(role) */\n      jump\t// in\n    tag_249:\n        /* \"uniswap.sol\":2750:2752  30 */\n      0x1e\n        /* \"uniswap.sol\":2725:2739  tokenAddresses */\n      dup5\n        /* \"uniswap.sol\":2725:2746  tokenAddresses.length */\n      mload\n        /* \"uniswap.sol\":2725:2752  tokenAddresses.length <= 30 */\n      gt\n      iszero\n        /* \"uniswap.sol\":2704:2848  require(... */\n      tag_251\n      jumpi\n      mload(0x40)\n      0x08c379a000000000000000000000000000000000000000000000000000000000\n      dup2\n      mstore\n      0x04\n      add\n      tag_252\n      swap1\n      tag_253\n      jump\t// in\n    tag_252:\n      mload(0x40)\n      dup1\n      swap2\n      sub\n      swap1\n      revert\n    tag_251:\n        /* \"uniswap.sol\":2864:2873  uint256 i */\n      0x00\n        /* \"uniswap.sol\":2859:3052  for (uint256 i; i < tokenAddresses.length; i++) {... */\n    tag_254:\n        /* \"uniswap.sol\":2879:2893  tokenAddresses */\n      dup5\n        /* \"uniswap.sol\":2879:2900  tokenAddresses.length */\n      mload\n        /* \"uniswap.sol\":2875:2876  i */\n      dup2\n        /* \"uniswap.sol\":2875:2900  i < tokenAddresses.length */\n      lt\n        /* \"uniswap.sol\":2859:3052  for (uint256 i; i < tokenAddresses.length; i++) {... */\n      iszero\n      tag_255\n      jumpi\n        /* \"uniswap.sol\":2955:3041  TokenDetail(... */\n      mload(0x40)\n      dup1\n      0x40\n      add\n      0x40\n      mstore\n      dup1\n        /* \"uniswap.sol\":2984:2990  prices */\n      dup5\n        /* \"uniswap.sol\":2991:2992  i */\n      dup4\n        /* \"uniswap.sol\":2984:2993  prices[i] */\n      dup2\n      mload\n      dup2\n      lt\n      tag_257\n      jumpi\n      tag_258\n      tag_139\n      jump\t// in\n    tag_258:\n    tag_257:\n      0x20\n      mul\n      0x20\n      add\n      add\n      mload\n        /* \"uniswap.sol\":2955:3041  TokenDetail(... */\n      dup2\n      mstore\n      0x20\n      add\n        /* \"uniswap.sol\":3011:3024  tokenManagers */\n      dup6\n        /* \"uniswap.sol\":3025:3026  i */\n      dup4\n        /* \"uniswap.sol\":3011:3027  tokenManagers[i] */\n      dup2\n      mload\n      dup2\n      lt\n      tag_259\n      jumpi\n      tag_260\n      tag_139\n      jump\t// in\n    tag_260:\n    tag_259:\n      0x20\n      mul\n      0x20\n      add\n      add\n      mload\n        /* \"uniswap.sol\":2955:3041  TokenDetail(... */\n      0xffffffffffffffffffffffffffffffffffffffff\n      and\n      dup2\n      mstore\n      pop\n        /* \"uniswap.sol\":2921:2933  tokenDetails */\n      0x97\n        /* \"uniswap.sol\":2921:2952  tokenDetails[tokenAddresses[i]] */\n      0x00\n        /* \"uniswap.sol\":2934:2948  tokenAddresses */\n      dup8\n        /* \"uniswap.sol\":2949:2950  i */\n      dup5\n        /* \"uniswap.sol\":2934:2951  tokenAddresses[i] */\n      dup2\n      mload\n      dup2\n      lt\n      tag_261\n      jumpi\n      tag_262\n      tag_139\n      jump\t// in\n    tag_262:\n    tag_261:\n      0x20\n      mul\n      0x20\n      add\n      add\n      mload\n        /* \"uniswap.sol\":2921:2952  tokenDetails[tokenAddresses[i]] */\n      0xffffffffffffffffffffffffffffffffffffffff\n      and\n      0xffffffffffffffffffffffffffffffffffffffff\n      and\n      dup2\n      mstore\n      0x20\n      add\n      swap1\n      dup2\n      mstore\n      0x20\n      add\n      0x00\n      keccak256\n        /* \"uniswap.sol\":2921:3041  tokenDetails[tokenAddresses[i]] = TokenDetail(... */\n      0x00\n      dup3\n      add\n      mload\n      dup2\n      0x00\n      add\n      sstore\n      0x20\n      dup3\n      add\n      mload\n      dup2\n      0x01\n      add\n      exp(0x0100, 0x00)\n      dup2\n      sload\n      dup2\n      0xffffffffffffffffffffffffffffffffffffffff\n      mul\n      not\n      and\n      swap1\n      dup4\n      0xffffffffffffffffffffffffffffffffffffffff\n      and\n      mul\n      or\n      swap1\n      sstore\n      pop\n      swap1\n      pop\n      pop\n        /* \"uniswap.sol\":2902:2905  i++ */\n      dup1\n      dup1\n      0x01\n      add\n      swap2\n      pop\n      pop\n        /* \"uniswap.sol\":2859:3052  for (uint256 i; i < tokenAddresses.length; i++) {... */\n      jump(tag_254)\n    tag_255:\n      pop\n        /* \"uniswap.sol\":2517:3058  function setTokensDetails(... */\n      pop\n      pop\n      pop\n      pop\n      jump\t// out\n        /* \"uniswap.sol\":2288:2511  function setTokenDetails(... */\n    tag_110:\n        /* \"uniswap.sol\":2027:2053  keccak256(\"PRICE_MANAGER\") */\n      0xa451215b66f023bb76f9a9e7bc5c64156446b47b26061a8a32eaa319c45f695e\n        /* \"@openzeppelin/contracts-upgradeable/access/AccessControlUpgradeable.sol\":2798:2814  _checkRole(role) */\n      tag_264\n        /* \"@openzeppelin/contracts-upgradeable/access/AccessControlUpgradeable.sol\":2809:2813  role */\n      dup2\n        /* \"@openzeppelin/contracts-upgradeable/access/AccessControlUpgradeable.sol\":2798:2808  _checkRole */\n      tag_119\n        /* \"@openzeppelin/contracts-upgradeable/access/AccessControlUpgradeable.sol\":2798:2814  _checkRole(role) */\n      jump\t// in\n    tag_264:\n        /* \"uniswap.sol\":2472:2504  TokenDetail(price, tokenManager) */\n      mload(0x40)\n      dup1\n      0x40\n      add\n      0x40\n      mstore\n      dup1\n        /* \"uniswap.sol\":2484:2489  price */\n      dup4\n        /* \"uniswap.sol\":2472:2504  TokenDetail(price, tokenManager) */\n      dup2\n      mstore\n      0x20\n      add\n        /* \"uniswap.sol\":2491:2503  tokenManager */\n      dup5\n        /* \"uniswap.sol\":2472:2504  TokenDetail(price, tokenManager) */\n      0xffffffffffffffffffffffffffffffffffffffff\n      and\n      dup2\n      mstore\n      pop\n        /* \"uniswap.sol\":2443:2455  tokenDetails */\n      0x97\n        /* \"uniswap.sol\":2443:2469  tokenDetails[tokenAddress] */\n      0x00\n        /* \"uniswap.sol\":2456:2468  tokenAddress */\n      dup7\n        /* \"uniswap.sol\":2443:2469  tokenDetails[tokenAddress] */\n      0xffffffffffffffffffffffffffffffffffffffff\n      and\n      0xffffffffffffffffffffffffffffffffffffffff\n      and\n      dup2\n      mstore\n      0x20\n      add\n      swap1\n      dup2\n      mstore\n      0x20\n      add\n      0x00\n      keccak256\n        /* \"uniswap.sol\":2443:2504  tokenDetails[tokenAddress] = TokenDetail(price, tokenManager) */\n      0x00\n      dup3\n      add\n      mload\n      dup2\n      0x00\n      add\n      sstore\n      0x20\n      dup3\n      add\n      mload\n      dup2\n      0x01\n      add\n      exp(0x0100, 0x00)\n      dup2\n      sload\n      dup2\n      0xffffffffffffffffffffffffffffffffffffffff\n      mul\n      not\n      and\n      swap1\n      dup4\n      0xffffffffffffffffffffffffffffffffffffffff\n      and\n      mul\n      or\n      swap1\n      sstore\n      pop\n      swap1\n      pop\n      pop\n        /* \"uniswap.sol\":2288:2511  function setTokenDetails(... */\n      pop\n      pop\n      pop\n      pop\n      jump\t// out\n        /* \"@openzeppelin/contracts-upgradeable/utils/introspection/ERC165Upgradeable.sol\":1081:1247  function supportsInterface(bytes4 interfaceId) public view virtual override returns (bool) {... */\n    tag_114:\n        /* \"@openzeppelin/contracts-upgradeable/utils/introspection/ERC165Upgradeable.sol\":1166:1170  bool */\n      0x00\n        /* \"@openzeppelin/contracts-upgradeable/utils/introspection/ERC165Upgradeable.sol\":1204:1240  type(IERC165Upgradeable).interfaceId */\n      0x01ffc9a700000000000000000000000000000000000000000000000000000000\n        /* \"@openzeppelin/contracts-upgradeable/utils/introspection/ERC165Upgradeable.sol\":1189:1240  interfaceId == type(IERC165Upgradeable).interfaceId */\n      not(0xffffffffffffffffffffffffffffffffffffffffffffffffffffffff)\n      and\n        /* \"@openzeppelin/contracts-upgradeable/utils/introspection/ERC165Upgradeable.sol\":1189:1200  interfaceId */\n      dup3\n        /* \"@openzeppelin/contracts-upgradeable/utils/introspection/ERC165Upgradeable.sol\":1189:1240  interfaceId == type(IERC165Upgradeable).interfaceId */\n      not(0xffffffffffffffffffffffffffffffffffffffffffffffffffffffff)\n      and\n      eq\n        /* \"@openzeppelin/contracts-upgradeable/utils/introspection/ERC165Upgradeable.sol\":1182:1240  return interfaceId == type(IERC165Upgradeable).interfaceId */\n      swap1\n      pop\n        /* \"@openzeppelin/contracts-upgradeable/utils/introspection/ERC165Upgradeable.sol\":1081:1247  function supportsInterface(bytes4 interfaceId) public view virtual override returns (bool) {... */\n      swap2\n      swap1\n      pop\n      jump\t// out\n        /* \"@openzeppelin/contracts-upgradeable/access/AccessControlUpgradeable.sol\":3789:3892  function _checkRole(bytes32 role) internal view virtual {... */\n    tag_119:\n        /* \"@openzeppelin/contracts-upgradeable/access/AccessControlUpgradeable.sol\":3855:3885  _checkRole(role, _msgSender()) */\n      tag_268\n        /* \"@openzeppelin/contracts-upgradeable/access/AccessControlUpgradeable.sol\":3866:3870  role */\n      dup2\n        /* \"@openzeppelin/contracts-upgradeable/access/AccessControlUpgradeable.sol\":3872:3884  _msgSender() */\n      tag_269\n        /* \"@openzeppelin/contracts-upgradeable/access/AccessControlUpgradeable.sol\":3872:3882  _msgSender */\n      tag_125\n        /* \"@openzeppelin/contracts-upgradeable/access/AccessControlUpgradeable.sol\":3872:3884  _msgSender() */\n      jump\t// in\n    tag_269:\n        /* \"@openzeppelin/contracts-upgradeable/access/AccessControlUpgradeable.sol\":3855:3865  _checkRole */\n      tag_270\n        /* \"@openzeppelin/contracts-upgradeable/access/AccessControlUpgradeable.sol\":3855:3885  _checkRole(role, _msgSender()) */\n      jump\t// in\n    tag_268:\n        /* \"@openzeppelin/contracts-upgradeable/access/AccessControlUpgradeable.sol\":3789:3892  function _checkRole(bytes32 role) internal view virtual {... */\n      pop\n      jump\t// out\n        /* \"@openzeppelin/contracts-upgradeable/access/AccessControlUpgradeable.sol\":7938:8171  function _grantRole(bytes32 role, address account) internal virtual {... */\n    tag_122:\n        /* \"@openzeppelin/contracts-upgradeable/access/AccessControlUpgradeable.sol\":8021:8043  hasRole(role, account) */\n      tag_272\n        /* \"@openzeppelin/contracts-upgradeable/access/AccessControlUpgradeable.sol\":8029:8033  role */\n      dup3\n        /* \"@openzeppelin/contracts-upgradeable/access/AccessControlUpgradeable.sol\":8035:8042  account */\n      dup3\n        /* \"@openzeppelin/contracts-upgradeable/access/AccessControlUpgradeable.sol\":8021:8028  hasRole */\n      tag_55\n        /* \"@openzeppelin/contracts-upgradeable/access/AccessControlUpgradeable.sol\":8021:8043  hasRole(role, account) */\n      jump\t// in\n    tag_272:\n        /* \"@openzeppelin/contracts-upgradeable/access/AccessControlUpgradeable.sol\":8016:8165  if (!hasRole(role, account)) {... */\n      tag_273\n      jumpi\n        /* \"@openzeppelin/contracts-upgradeable/access/AccessControlUpgradeable.sol\":8091:8095  true */\n      0x01\n        /* \"@openzeppelin/contracts-upgradeable/access/AccessControlUpgradeable.sol\":8059:8065  _roles */\n      0x65\n        /* \"@openzeppelin/contracts-upgradeable/access/AccessControlUpgradeable.sol\":8059:8071  _roles[role] */\n      0x00\n        /* \"@openzeppelin/contracts-upgradeable/access/AccessControlUpgradeable.sol\":8066:8070  role */\n      dup5\n        /* \"@openzeppelin/contracts-upgradeable/access/AccessControlUpgradeable.sol\":8059:8071  _roles[role] */\n      dup2\n      mstore\n      0x20\n      add\n      swap1\n      dup2\n      mstore\n      0x20\n      add\n      0x00\n      keccak256\n        /* \"@openzeppelin/contracts-upgradeable/access/AccessControlUpgradeable.sol\":8059:8079  _roles[role].members */\n      0x00\n      add\n        /* \"@openzeppelin/contracts-upgradeable/access/AccessControlUpgradeable.sol\":8059:8088  _roles[role].members[account] */\n      0x00\n        /* \"@openzeppelin/contracts-upgradeable/access/AccessControlUpgradeable.sol\":8080:8087  account */\n      dup4\n        /* \"@openzeppelin/contracts-upgradeable/access/AccessControlUpgradeable.sol\":8059:8088  _roles[role].members[account] */\n      0xffffffffffffffffffffffffffffffffffffffff\n      and\n      0xffffffffffffffffffffffffffffffffffffffff\n      and\n      dup2\n      mstore\n      0x20\n      add\n      swap1\n      dup2\n      mstore\n      0x20\n      add\n      0x00\n      keccak256\n      0x00\n        /* \"@openzeppelin/contracts-upgradeable/access/AccessControlUpgradeable.sol\":8059:8095  _roles[role].members[account] = true */\n      0x0100\n      exp\n      dup2\n      sload\n      dup2\n      0xff\n      mul\n      not\n      and\n      swap1\n      dup4\n      iszero\n      iszero\n      mul\n      or\n      swap1\n      sstore\n      pop\n        /* \"@openzeppelin/contracts-upgradeable/access/AccessControlUpgradeable.sol\":8141:8153  _msgSender() */\n      tag_274\n        /* \"@openzeppelin/contracts-upgradeable/access/AccessControlUpgradeable.sol\":8141:8151  _msgSender */\n      tag_125\n        /* \"@openzeppelin/contracts-upgradeable/access/AccessControlUpgradeable.sol\":8141:8153  _msgSender() */\n      jump\t// in\n    tag_274:\n        /* \"@openzeppelin/contracts-upgradeable/access/AccessControlUpgradeable.sol\":8114:8154  RoleGranted(role, account, _msgSender()) */\n      0xffffffffffffffffffffffffffffffffffffffff\n      and\n        /* \"@openzeppelin/contracts-upgradeable/access/AccessControlUpgradeable.sol\":8132:8139  account */\n      dup2\n        /* \"@openzeppelin/contracts-upgradeable/access/AccessControlUpgradeable.sol\":8114:8154  RoleGranted(role, account, _msgSender()) */\n      0xffffffffffffffffffffffffffffffffffffffff\n      and\n        /* \"@openzeppelin/contracts-upgradeable/access/AccessControlUpgradeable.sol\":8126:8130  role */\n      dup4\n        /* \"@openzeppelin/contracts-upgradeable/access/AccessControlUpgradeable.sol\":8114:8154  RoleGranted(role, account, _msgSender()) */\n      0x2f8788117e7eff1d82e926ec794901d17c78024a50270940304540a733656f0d\n      mload(0x40)\n      mload(0x40)\n      dup1\n      swap2\n      sub\n      swap1\n      log4\n        /* \"@openzeppelin/contracts-upgradeable/access/AccessControlUpgradeable.sol\":8016:8165  if (!hasRole(role, account)) {... */\n    tag_273:\n        /* \"@openzeppelin/contracts-upgradeable/access/AccessControlUpgradeable.sol\":7938:8171  function _grantRole(bytes32 role, address account) internal virtual {... */\n      pop\n      pop\n      jump\t// out\n        /* \"@openzeppelin/contracts-upgradeable/utils/ContextUpgradeable.sol\":886:982  function _msgSender() internal view virtual returns (address) {... */\n    tag_125:\n        /* \"@openzeppelin/contracts-upgradeable/utils/ContextUpgradeable.sol\":939:946  address */\n      0x00\n        /* \"@openzeppelin/contracts-upgradeable/utils/ContextUpgradeable.sol\":965:975  msg.sender */\n      caller\n        /* \"@openzeppelin/contracts-upgradeable/utils/ContextUpgradeable.sol\":958:975  return msg.sender */\n      swap1\n      pop\n        /* \"@openzeppelin/contracts-upgradeable/utils/ContextUpgradeable.sol\":886:982  function _msgSender() internal view virtual returns (address) {... */\n      swap1\n      jump\t// out\n        /* \"@openzeppelin/contracts-upgradeable/access/AccessControlUpgradeable.sol\":8342:8576  function _revokeRole(bytes32 role, address account) internal virtual {... */\n    tag_130:\n        /* \"@openzeppelin/contracts-upgradeable/access/AccessControlUpgradeable.sol\":8425:8447  hasRole(role, account) */\n      tag_277\n        /* \"@openzeppelin/contracts-upgradeable/access/AccessControlUpgradeable.sol\":8433:8437  role */\n      dup3\n        /* \"@openzeppelin/contracts-upgradeable/access/AccessControlUpgradeable.sol\":8439:8446  account */\n      dup3\n        /* \"@openzeppelin/contracts-upgradeable/access/AccessControlUpgradeable.sol\":8425:8432  hasRole */\n      tag_55\n        /* \"@openzeppelin/contracts-upgradeable/access/AccessControlUpgradeable.sol\":8425:8447  hasRole(role, account) */\n      jump\t// in\n    tag_277:\n        /* \"@openzeppelin/contracts-upgradeable/access/AccessControlUpgradeable.sol\":8421:8570  if (hasRole(role, account)) {... */\n      iszero\n      tag_278\n      jumpi\n        /* \"@openzeppelin/contracts-upgradeable/access/AccessControlUpgradeable.sol\":8495:8500  false */\n      0x00\n        /* \"@openzeppelin/contracts-upgradeable/access/AccessControlUpgradeable.sol\":8463:8469  _roles */\n      0x65\n        /* \"@openzeppelin/contracts-upgradeable/access/AccessControlUpgradeable.sol\":8463:8475  _roles[role] */\n      0x00\n        /* \"@openzeppelin/contracts-upgradeable/access/AccessControlUpgradeable.sol\":8470:8474  role */\n      dup5\n        /* \"@openzeppelin/contracts-upgradeable/access/AccessControlUpgradeable.sol\":8463:8475  _roles[role] */\n      dup2\n      mstore\n      0x20\n      add\n      swap1\n      dup2\n      mstore\n      0x20\n      add\n      0x00\n      keccak256\n        /* \"@openzeppelin/contracts-upgradeable/access/AccessControlUpgradeable.sol\":8463:8483  _roles[role].members */\n      0x00\n      add\n        /* \"@openzeppelin/contracts-upgradeable/access/AccessControlUpgradeable.sol\":8463:8492  _roles[role].members[account] */\n      0x00\n        /* \"@openzeppelin/contracts-upgradeable/access/AccessControlUpgradeable.sol\":8484:8491  account */\n      dup4\n        /* \"@openzeppelin/contracts-upgradeable/access/AccessControlUpgradeable.sol\":8463:8492  _roles[role].members[account] */\n      0xffffffffffffffffffffffffffffffffffffffff\n      and\n      0xffffffffffffffffffffffffffffffffffffffff\n      and\n      dup2\n      mstore\n      0x20\n      add\n      swap1\n      dup2\n      mstore\n      0x20\n      add\n      0x00\n      keccak256\n      0x00\n        /* \"@openzeppelin/contracts-upgradeable/access/AccessControlUpgradeable.sol\":8463:8500  _roles[role].members[account] = false */\n      0x0100\n      exp\n      dup2\n      sload\n      dup2\n      0xff\n      mul\n      not\n      and\n      swap1\n      dup4\n      iszero\n      iszero\n      mul\n      or\n      swap1\n      sstore\n      pop\n        /* \"@openzeppelin/contracts-upgradeable/access/AccessControlUpgradeable.sol\":8546:8558  _msgSender() */\n      tag_279\n        /* \"@openzeppelin/contracts-upgradeable/access/AccessControlUpgradeable.sol\":8546:8556  _msgSender */\n      tag_125\n        /* \"@openzeppelin/contracts-upgradeable/access/AccessControlUpgradeable.sol\":8546:8558  _msgSender() */\n      jump\t// in\n    tag_279:\n        /* \"@openzeppelin/contracts-upgradeable/access/AccessControlUpgradeable.sol\":8519:8559  RoleRevoked(role, account, _msgSender()) */\n      0xffffffffffffffffffffffffffffffffffffffff\n      and\n        /* \"@openzeppelin/contracts-upgradeable/access/AccessControlUpgradeable.sol\":8537:8544  account */\n      dup2\n        /* \"@openzeppelin/contracts-upgradeable/access/AccessControlUpgradeable.sol\":8519:8559  RoleRevoked(role, account, _msgSender()) */\n      0xffffffffffffffffffffffffffffffffffffffff\n      and\n        /* \"@openzeppelin/contracts-upgradeable/access/AccessControlUpgradeable.sol\":8531:8535  role */\n      dup4\n        /* \"@openzeppelin/contracts-upgradeable/access/AccessControlUpgradeable.sol\":8519:8559  RoleRevoked(role, account, _msgSender()) */\n      0xf6391f5c32d9c69d2a47ea670b442974b53935d1edc7fd64eb21e047a839171b\n      mload(0x40)\n      mload(0x40)\n      dup1\n      swap2\n      sub\n      swap1\n      log4\n        /* \"@openzeppelin/contracts-upgradeable/access/AccessControlUpgradeable.sol\":8421:8570  if (hasRole(role, account)) {... */\n    tag_278:\n        /* \"@openzeppelin/contracts-upgradeable/access/AccessControlUpgradeable.sol\":8342:8576  function _revokeRole(bytes32 role, address account) internal virtual {... */\n      pop\n      pop\n      jump\t// out\n        /* \"@openzeppelin/contracts-upgradeable/access/AccessControlUpgradeable.sol\":4173:4674  function _checkRole(bytes32 role, address account) internal view virtual {... */\n    tag_270:\n        /* \"@openzeppelin/contracts-upgradeable/access/AccessControlUpgradeable.sol\":4261:4283  hasRole(role, account) */\n      tag_281\n        /* \"@openzeppelin/contracts-upgradeable/access/AccessControlUpgradeable.sol\":4269:4273  role */\n      dup3\n        /* \"@openzeppelin/contracts-upgradeable/access/AccessControlUpgradeable.sol\":4275:4282  account */\n      dup3\n        /* \"@openzeppelin/contracts-upgradeable/access/AccessControlUpgradeable.sol\":4261:4268  hasRole */\n      tag_55\n        /* \"@openzeppelin/contracts-upgradeable/access/AccessControlUpgradeable.sol\":4261:4283  hasRole(role, account) */\n      jump\t// in\n    tag_281:\n        /* \"@openzeppelin/contracts-upgradeable/access/AccessControlUpgradeable.sol\":4256:4668  if (!hasRole(role, account)) {... */\n      tag_282\n      jumpi\n        /* \"@openzeppelin/contracts-upgradeable/access/AccessControlUpgradeable.sol\":4444:4483  StringsUpgradeable.toHexString(account) */\n      tag_283\n        /* \"@openzeppelin/contracts-upgradeable/access/AccessControlUpgradeable.sol\":4475:4482  account */\n      dup2\n        /* \"@openzeppelin/contracts-upgradeable/access/AccessControlUpgradeable.sol\":4444:4474  StringsUpgradeable.toHexString */\n      tag_284\n        /* \"@openzeppelin/contracts-upgradeable/access/AccessControlUpgradeable.sol\":4444:4483  StringsUpgradeable.toHexString(account) */\n      jump\t// in\n    tag_283:\n        /* \"@openzeppelin/contracts-upgradeable/access/AccessControlUpgradeable.sol\":4554:4603  StringsUpgradeable.toHexString(uint256(role), 32) */\n      tag_285\n        /* \"@openzeppelin/contracts-upgradeable/access/AccessControlUpgradeable.sol\":4593:4597  role */\n      dup4\n        /* \"@openzeppelin/contracts-upgradeable/access/AccessControlUpgradeable.sol\":4585:4598  uint256(role) */\n      0x00\n      shr\n        /* \"@openzeppelin/contracts-upgradeable/access/AccessControlUpgradeable.sol\":4600:4602  32 */\n      0x20\n        /* \"@openzeppelin/contracts-upgradeable/access/AccessControlUpgradeable.sol\":4554:4584  StringsUpgradeable.toHexString */\n      tag_286\n        /* \"@openzeppelin/contracts-upgradeable/access/AccessControlUpgradeable.sol\":4554:4603  StringsUpgradeable.toHexString(uint256(role), 32) */\n      jump\t// in\n    tag_285:\n        /* \"@openzeppelin/contracts-upgradeable/access/AccessControlUpgradeable.sol\":4351:4625  abi.encodePacked(... */\n      add(0x20, mload(0x40))\n      tag_287\n      swap3\n      swap2\n      swap1\n      tag_288\n      jump\t// in\n    tag_287:\n      mload(0x40)\n      0x20\n      dup2\n      dup4\n      sub\n      sub\n      dup2\n      mstore\n      swap1\n      0x40\n      mstore\n        /* \"@openzeppelin/contracts-upgradeable/access/AccessControlUpgradeable.sol\":4299:4657  revert(... */\n      mload(0x40)\n      0x08c379a000000000000000000000000000000000000000000000000000000000\n      dup2\n      mstore\n      0x04\n      add\n      tag_289\n      swap2\n      swap1\n      tag_290\n      jump\t// in\n    tag_289:\n      mload(0x40)\n      dup1\n      swap2\n      sub\n      swap1\n      revert\n        /* \"@openzeppelin/contracts-upgradeable/access/AccessControlUpgradeable.sol\":4256:4668  if (!hasRole(role, account)) {... */\n    tag_282:\n        /* \"@openzeppelin/contracts-upgradeable/access/AccessControlUpgradeable.sol\":4173:4674  function _checkRole(bytes32 role, address account) internal view virtual {... */\n      pop\n      pop\n      jump\t// out\n        /* \"@openzeppelin/contracts-upgradeable/utils/StringsUpgradeable.sol\":2473:2622  function toHexString(address addr) internal pure returns (string memory) {... */\n    tag_284:\n        /* \"@openzeppelin/contracts-upgradeable/utils/StringsUpgradeable.sol\":2531:2544  string memory */\n      0x60\n        /* \"@openzeppelin/contracts-upgradeable/utils/StringsUpgradeable.sol\":2563:2615  toHexString(uint256(uint160(addr)), _ADDRESS_LENGTH) */\n      tag_292\n        /* \"@openzeppelin/contracts-upgradeable/utils/StringsUpgradeable.sol\":2591:2595  addr */\n      dup3\n        /* \"@openzeppelin/contracts-upgradeable/utils/StringsUpgradeable.sol\":2575:2597  uint256(uint160(addr)) */\n      0xffffffffffffffffffffffffffffffffffffffff\n      and\n        /* \"@openzeppelin/contracts-upgradeable/utils/StringsUpgradeable.sol\":376:378  20 */\n      0x14\n        /* \"@openzeppelin/contracts-upgradeable/utils/StringsUpgradeable.sol\":2563:2615  toHexString(uint256(uint160(addr)), _ADDRESS_LENGTH) */\n      0xff\n      and\n        /* \"@openzeppelin/contracts-upgradeable/utils/StringsUpgradeable.sol\":2563:2574  toHexString */\n      tag_286\n        /* \"@openzeppelin/contracts-upgradeable/utils/StringsUpgradeable.sol\":2563:2615  toHexString(uint256(uint160(addr)), _ADDRESS_LENGTH) */\n      jump\t// in\n    tag_292:\n        /* \"@openzeppelin/contracts-upgradeable/utils/StringsUpgradeable.sol\":2556:2615  return toHexString(uint256(uint160(addr)), _ADDRESS_LENGTH) */\n      swap1\n      pop\n        /* \"@openzeppelin/contracts-upgradeable/utils/StringsUpgradeable.sol\":2473:2622  function toHexString(address addr) internal pure returns (string memory) {... */\n      swap2\n      swap1\n      pop\n      jump\t// out\n        /* \"@openzeppelin/contracts-upgradeable/utils/StringsUpgradeable.sol\":1884:2321  function toHexString(uint256 value, uint256 length) internal pure returns (string memory) {... */\n    tag_286:\n        /* \"@openzeppelin/contracts-upgradeable/utils/StringsUpgradeable.sol\":1959:1972  string memory */\n      0x60\n        /* \"@openzeppelin/contracts-upgradeable/utils/StringsUpgradeable.sol\":1984:2003  bytes memory buffer */\n      0x00\n        /* \"@openzeppelin/contracts-upgradeable/utils/StringsUpgradeable.sol\":2029:2030  2 */\n      0x02\n        /* \"@openzeppelin/contracts-upgradeable/utils/StringsUpgradeable.sol\":2020:2026  length */\n      dup4\n        /* \"@openzeppelin/contracts-upgradeable/utils/StringsUpgradeable.sol\":2016:2017  2 */\n      0x02\n        /* \"@openzeppelin/contracts-upgradeable/utils/StringsUpgradeable.sol\":2016:2026  2 * length */\n      tag_294\n      swap2\n      swap1\n      tag_220\n      jump\t// in\n    tag_294:\n        /* \"@openzeppelin/contracts-upgradeable/utils/StringsUpgradeable.sol\":2016:2030  2 * length + 2 */\n      tag_295\n      swap2\n      swap1\n      tag_209\n      jump\t// in\n    tag_295:\n        /* \"@openzeppelin/contracts-upgradeable/utils/StringsUpgradeable.sol\":2006:2031  new bytes(2 * length + 2) */\n      0xffffffffffffffff\n      dup2\n      gt\n      iszero\n      tag_296\n      jumpi\n      tag_297\n      tag_199\n      jump\t// in\n    tag_297:\n    tag_296:\n      mload(0x40)\n      swap1\n      dup1\n      dup3\n      mstore\n      dup1\n      0x1f\n      add\n      not(0x1f)\n      and\n      0x20\n      add\n      dup3\n      add\n      0x40\n      mstore\n      dup1\n      iszero\n      tag_298\n      jumpi\n      dup2\n      0x20\n      add\n      0x01\n      dup3\n      mul\n      dup1\n      calldatasize\n      dup4\n      calldatacopy\n      dup1\n      dup3\n      add\n      swap2\n      pop\n      pop\n      swap1\n      pop\n    tag_298:\n      pop\n        /* \"@openzeppelin/contracts-upgradeable/utils/StringsUpgradeable.sol\":1984:2031  bytes memory buffer = new bytes(2 * length + 2) */\n      swap1\n      pop\n        /* \"@openzeppelin/contracts-upgradeable/utils/StringsUpgradeable.sol\":2041:2056  buffer[0] = \"0\" */\n      0x3000000000000000000000000000000000000000000000000000000000000000\n        /* \"@openzeppelin/contracts-upgradeable/utils/StringsUpgradeable.sol\":2041:2047  buffer */\n      dup2\n        /* \"@openzeppelin/contracts-upgradeable/utils/StringsUpgradeable.sol\":2048:2049  0 */\n      0x00\n        /* \"@openzeppelin/contracts-upgradeable/utils/StringsUpgradeable.sol\":2041:2050  buffer[0] */\n      dup2\n      mload\n      dup2\n      lt\n      tag_299\n      jumpi\n      tag_300\n      tag_139\n      jump\t// in\n    tag_300:\n    tag_299:\n      0x20\n      add\n      add\n        /* \"@openzeppelin/contracts-upgradeable/utils/StringsUpgradeable.sol\":2041:2056  buffer[0] = \"0\" */\n      swap1\n      not(0xffffffffffffffffffffffffffffffffffffffffffffffffffffffffffffff)\n      and\n      swap1\n      dup2\n      0x00\n      byte\n      swap1\n      mstore8\n      pop\n        /* \"@openzeppelin/contracts-upgradeable/utils/StringsUpgradeable.sol\":2066:2081  buffer[1] = \"x\" */\n      0x7800000000000000000000000000000000000000000000000000000000000000\n        /* \"@openzeppelin/contracts-upgradeable/utils/StringsUpgradeable.sol\":2066:2072  buffer */\n      dup2\n        /* \"@openzeppelin/contracts-upgradeable/utils/StringsUpgradeable.sol\":2073:2074  1 */\n      0x01\n        /* \"@openzeppelin/contracts-upgradeable/utils/StringsUpgradeable.sol\":2066:2075  buffer[1] */\n      dup2\n      mload\n      dup2\n      lt\n      tag_301\n      jumpi\n      tag_302\n      tag_139\n      jump\t// in\n    tag_302:\n    tag_301:\n      0x20\n      add\n      add\n        /* \"@openzeppelin/contracts-upgradeable/utils/StringsUpgradeable.sol\":2066:2081  buffer[1] = \"x\" */\n      swap1\n      not(0xffffffffffffffffffffffffffffffffffffffffffffffffffffffffffffff)\n      and\n      swap1\n      dup2\n      0x00\n      byte\n      swap1\n      mstore8\n      pop\n        /* \"@openzeppelin/contracts-upgradeable/utils/StringsUpgradeable.sol\":2096:2105  uint256 i */\n      0x00\n        /* \"@openzeppelin/contracts-upgradeable/utils/StringsUpgradeable.sol\":2121:2122  1 */\n      0x01\n        /* \"@openzeppelin/contracts-upgradeable/utils/StringsUpgradeable.sol\":2112:2118  length */\n      dup5\n        /* \"@openzeppelin/contracts-upgradeable/utils/StringsUpgradeable.sol\":2108:2109  2 */\n      0x02\n        /* \"@openzeppelin/contracts-upgradeable/utils/StringsUpgradeable.sol\":2108:2118  2 * length */\n      tag_306\n      swap2\n      swap1\n      tag_220\n      jump\t// in\n    tag_306:\n        /* \"@openzeppelin/contracts-upgradeable/utils/StringsUpgradeable.sol\":2108:2122  2 * length + 1 */\n      tag_307\n      swap2\n      swap1\n      tag_209\n      jump\t// in\n    tag_307:\n        /* \"@openzeppelin/contracts-upgradeable/utils/StringsUpgradeable.sol\":2096:2122  uint256 i = 2 * length + 1 */\n      swap1\n      pop\n        /* \"@openzeppelin/contracts-upgradeable/utils/StringsUpgradeable.sol\":2091:2219  for (uint256 i = 2 * length + 1; i > 1; --i) {... */\n    tag_303:\n        /* \"@openzeppelin/contracts-upgradeable/utils/StringsUpgradeable.sol\":2128:2129  1 */\n      0x01\n        /* \"@openzeppelin/contracts-upgradeable/utils/StringsUpgradeable.sol\":2124:2125  i */\n      dup2\n        /* \"@openzeppelin/contracts-upgradeable/utils/StringsUpgradeable.sol\":2124:2129  i > 1 */\n      gt\n        /* \"@openzeppelin/contracts-upgradeable/utils/StringsUpgradeable.sol\":2091:2219  for (uint256 i = 2 * length + 1; i > 1; --i) {... */\n      iszero\n      tag_304\n      jumpi\n        /* \"@openzeppelin/contracts-upgradeable/utils/StringsUpgradeable.sol\":2162:2170  _SYMBOLS */\n      0x3031323334353637383961626364656600000000000000000000000000000000\n        /* \"@openzeppelin/contracts-upgradeable/utils/StringsUpgradeable.sol\":2179:2182  0xf */\n      0x0f\n        /* \"@openzeppelin/contracts-upgradeable/utils/StringsUpgradeable.sol\":2171:2176  value */\n      dup7\n        /* \"@openzeppelin/contracts-upgradeable/utils/StringsUpgradeable.sol\":2171:2182  value & 0xf */\n      and\n        /* \"@openzeppelin/contracts-upgradeable/utils/StringsUpgradeable.sol\":2162:2183  _SYMBOLS[value & 0xf] */\n      0x10\n      dup2\n      lt\n      tag_308\n      jumpi\n      tag_309\n      tag_139\n      jump\t// in\n    tag_309:\n    tag_308:\n      byte\n      0xf8\n      shl\n        /* \"@openzeppelin/contracts-upgradeable/utils/StringsUpgradeable.sol\":2150:2156  buffer */\n      dup3\n        /* \"@openzeppelin/contracts-upgradeable/utils/StringsUpgradeable.sol\":2157:2158  i */\n      dup3\n        /* \"@openzeppelin/contracts-upgradeable/utils/StringsUpgradeable.sol\":2150:2159  buffer[i] */\n      dup2\n      mload\n      dup2\n      lt\n      tag_310\n      jumpi\n      tag_311\n      tag_139\n      jump\t// in\n    tag_311:\n    tag_310:\n      0x20\n      add\n      add\n        /* \"@openzeppelin/contracts-upgradeable/utils/StringsUpgradeable.sol\":2150:2183  buffer[i] = _SYMBOLS[value & 0xf] */\n      swap1\n      not(0xffffffffffffffffffffffffffffffffffffffffffffffffffffffffffffff)\n      and\n      swap1\n      dup2\n      0x00\n      byte\n      swap1\n      mstore8\n      pop\n        /* \"@openzeppelin/contracts-upgradeable/utils/StringsUpgradeable.sol\":2207:2208  4 */\n      0x04\n        /* \"@openzeppelin/contracts-upgradeable/utils/StringsUpgradeable.sol\":2197:2208  value >>= 4 */\n      dup6\n      swap1\n      shr\n      swap5\n      pop\n        /* \"@openzeppelin/contracts-upgradeable/utils/StringsUpgradeable.sol\":2131:2134  --i */\n      dup1\n      tag_312\n      swap1\n      tag_313\n      jump\t// in\n    tag_312:\n      swap1\n      pop\n        /* \"@openzeppelin/contracts-upgradeable/utils/StringsUpgradeable.sol\":2091:2219  for (uint256 i = 2 * length + 1; i > 1; --i) {... */\n      jump(tag_303)\n    tag_304:\n      pop\n        /* \"@openzeppelin/contracts-upgradeable/utils/StringsUpgradeable.sol\":2245:2246  0 */\n      0x00\n        /* \"@openzeppelin/contracts-upgradeable/utils/StringsUpgradeable.sol\":2236:2241  value */\n      dup5\n        /* \"@openzeppelin/contracts-upgradeable/utils/StringsUpgradeable.sol\":2236:2246  value == 0 */\n      eq\n        /* \"@openzeppelin/contracts-upgradeable/utils/StringsUpgradeable.sol\":2228:2283  require(value == 0, \"Strings: hex length insufficient\") */\n      tag_314\n      jumpi\n      mload(0x40)\n      0x08c379a000000000000000000000000000000000000000000000000000000000\n      dup2\n      mstore\n      0x04\n      add\n      tag_315\n      swap1\n      tag_316\n      jump\t// in\n    tag_315:\n      mload(0x40)\n      dup1\n      swap2\n      sub\n      swap1\n      revert\n    tag_314:\n        /* \"@openzeppelin/contracts-upgradeable/utils/StringsUpgradeable.sol\":2307:2313  buffer */\n      dup1\n        /* \"@openzeppelin/contracts-upgradeable/utils/StringsUpgradeable.sol\":2293:2314  return string(buffer) */\n      swap2\n      pop\n      pop\n        /* \"@openzeppelin/contracts-upgradeable/utils/StringsUpgradeable.sol\":1884:2321  function toHexString(uint256 value, uint256 length) internal pure returns (string memory) {... */\n      swap3\n      swap2\n      pop\n      pop\n      jump\t// out\n    tag_132:\n      mload(0x40)\n      dup1\n      0x40\n      add\n      0x40\n      mstore\n      dup1\n      0x00\n      dup2\n      mstore\n      0x20\n      add\n      and(0xffffffffffffffffffffffffffffffffffffffff, 0x00)\n      dup2\n      mstore\n      pop\n      swap1\n      jump\t// out\n        /* \"#utility.yul\":7:82   */\n    tag_317:\n        /* \"#utility.yul\":40:46   */\n      0x00\n        /* \"#utility.yul\":73:75   */\n      0x40\n        /* \"#utility.yul\":67:76   */\n      mload\n        /* \"#utility.yul\":57:76   */\n      swap1\n      pop\n        /* \"#utility.yul\":7:82   */\n      swap1\n      jump\t// out\n        /* \"#utility.yul\":88:205   */\n    tag_318:\n        /* \"#utility.yul\":197:198   */\n      0x00\n        /* \"#utility.yul\":194:195   */\n      0x00\n        /* \"#utility.yul\":187:199   */\n      revert\n        /* \"#utility.yul\":211:328   */\n    tag_319:\n        /* \"#utility.yul\":320:321   */\n      0x00\n        /* \"#utility.yul\":317:318   */\n      0x00\n        /* \"#utility.yul\":310:322   */\n      revert\n        /* \"#utility.yul\":334:483   */\n    tag_320:\n        /* \"#utility.yul\":370:377   */\n      0x00\n        /* \"#utility.yul\":410:476   */\n      0xffffffff00000000000000000000000000000000000000000000000000000000\n        /* \"#utility.yul\":403:408   */\n      dup3\n        /* \"#utility.yul\":399:477   */\n      and\n        /* \"#utility.yul\":388:477   */\n      swap1\n      pop\n        /* \"#utility.yul\":334:483   */\n      swap2\n      swap1\n      pop\n      jump\t// out\n        /* \"#utility.yul\":489:609   */\n    tag_321:\n        /* \"#utility.yul\":561:584   */\n      tag_399\n        /* \"#utility.yul\":578:583   */\n      dup2\n        /* \"#utility.yul\":561:584   */\n      tag_320\n      jump\t// in\n    tag_399:\n        /* \"#utility.yul\":554:559   */\n      dup2\n        /* \"#utility.yul\":551:585   */\n      eq\n        /* \"#utility.yul\":541:603   */\n      tag_400\n      jumpi\n        /* \"#utility.yul\":599:600   */\n      0x00\n        /* \"#utility.yul\":596:597   */\n      0x00\n        /* \"#utility.yul\":589:601   */\n      revert\n        /* \"#utility.yul\":541:603   */\n    tag_400:\n        /* \"#utility.yul\":489:609   */\n      pop\n      jump\t// out\n        /* \"#utility.yul\":615:752   */\n    tag_322:\n        /* \"#utility.yul\":660:665   */\n      0x00\n        /* \"#utility.yul\":698:704   */\n      dup2\n        /* \"#utility.yul\":685:705   */\n      calldataload\n        /* \"#utility.yul\":676:705   */\n      swap1\n      pop\n        /* \"#utility.yul\":714:746   */\n      tag_402\n        /* \"#utility.yul\":740:745   */\n      dup2\n        /* \"#utility.yul\":714:746   */\n      tag_321\n      jump\t// in\n    tag_402:\n        /* \"#utility.yul\":615:752   */\n      swap3\n      swap2\n      pop\n      pop\n      jump\t// out\n        /* \"#utility.yul\":758:1085   */\n    tag_25:\n        /* \"#utility.yul\":816:822   */\n      0x00\n        /* \"#utility.yul\":865:867   */\n      0x20\n        /* \"#utility.yul\":853:862   */\n      dup3\n        /* \"#utility.yul\":844:851   */\n      dup5\n        /* \"#utility.yul\":840:863   */\n      sub\n        /* \"#utility.yul\":836:868   */\n      slt\n        /* \"#utility.yul\":833:952   */\n      iszero\n      tag_404\n      jumpi\n        /* \"#utility.yul\":871:950   */\n      tag_405\n      tag_318\n      jump\t// in\n    tag_405:\n        /* \"#utility.yul\":833:952   */\n    tag_404:\n        /* \"#utility.yul\":991:992   */\n      0x00\n        /* \"#utility.yul\":1016:1068   */\n      tag_406\n        /* \"#utility.yul\":1060:1067   */\n      dup5\n        /* \"#utility.yul\":1051:1057   */\n      dup3\n        /* \"#utility.yul\":1040:1049   */\n      dup6\n        /* \"#utility.yul\":1036:1058   */\n      add\n        /* \"#utility.yul\":1016:1068   */\n      tag_322\n      jump\t// in\n    tag_406:\n        /* \"#utility.yul\":1006:1068   */\n      swap2\n      pop\n        /* \"#utility.yul\":962:1078   */\n      pop\n        /* \"#utility.yul\":758:1085   */\n      swap3\n      swap2\n      pop\n      pop\n      jump\t// out\n        /* \"#utility.yul\":1091:1181   */\n    tag_323:\n        /* \"#utility.yul\":1125:1132   */\n      0x00\n        /* \"#utility.yul\":1168:1173   */\n      dup2\n        /* \"#utility.yul\":1161:1174   */\n      iszero\n        /* \"#utility.yul\":1154:1175   */\n      iszero\n        /* \"#utility.yul\":1143:1175   */\n      swap1\n      pop\n        /* \"#utility.yul\":1091:1181   */\n      swap2\n      swap1\n      pop\n      jump\t// out\n        /* \"#utility.yul\":1187:1296   */\n    tag_324:\n        /* \"#utility.yul\":1268:1289   */\n      tag_409\n        /* \"#utility.yul\":1283:1288   */\n      dup2\n        /* \"#utility.yul\":1268:1289   */\n      tag_323\n      jump\t// in\n    tag_409:\n        /* \"#utility.yul\":1263:1266   */\n      dup3\n        /* \"#utility.yul\":1256:1290   */\n      mstore\n        /* \"#utility.yul\":1187:1296   */\n      pop\n      pop\n      jump\t// out\n        /* \"#utility.yul\":1302:1512   */\n    tag_28:\n        /* \"#utility.yul\":1389:1393   */\n      0x00\n        /* \"#utility.yul\":1427:1429   */\n      0x20\n        /* \"#utility.yul\":1416:1425   */\n      dup3\n        /* \"#utility.yul\":1412:1430   */\n      add\n        /* \"#utility.yul\":1404:1430   */\n      swap1\n      pop\n        /* \"#utility.yul\":1440:1505   */\n      tag_411\n        /* \"#utility.yul\":1502:1503   */\n      0x00\n        /* \"#utility.yul\":1491:1500   */\n      dup4\n        /* \"#utility.yul\":1487:1504   */\n      add\n        /* \"#utility.yul\":1478:1484   */\n      dup5\n        /* \"#utility.yul\":1440:1505   */\n      tag_324\n      jump\t// in\n    tag_411:\n        /* \"#utility.yul\":1302:1512   */\n      swap3\n      swap2\n      pop\n      pop\n      jump\t// out\n        /* \"#utility.yul\":1518:1595   */\n    tag_325:\n        /* \"#utility.yul\":1555:1562   */\n      0x00\n        /* \"#utility.yul\":1584:1589   */\n      dup2\n        /* \"#utility.yul\":1573:1589   */\n      swap1\n      pop\n        /* \"#utility.yul\":1518:1595   */\n      swap2\n      swap1\n      pop\n      jump\t// out\n        /* \"#utility.yul\":1601:1723   */\n    tag_326:\n        /* \"#utility.yul\":1674:1698   */\n      tag_414\n        /* \"#utility.yul\":1692:1697   */\n      dup2\n        /* \"#utility.yul\":1674:1698   */\n      tag_325\n      jump\t// in\n    tag_414:\n        /* \"#utility.yul\":1667:1672   */\n      dup2\n        /* \"#utility.yul\":1664:1699   */\n      eq\n        /* \"#utility.yul\":1654:1717   */\n      tag_415\n      jumpi\n        /* \"#utility.yul\":1713:1714   */\n      0x00\n        /* \"#utility.yul\":1710:1711   */\n      0x00\n        /* \"#utility.yul\":1703:1715   */\n      revert\n        /* \"#utility.yul\":1654:1717   */\n    tag_415:\n        /* \"#utility.yul\":1601:1723   */\n      pop\n      jump\t// out\n        /* \"#utility.yul\":1729:1868   */\n    tag_327:\n        /* \"#utility.yul\":1775:1780   */\n      0x00\n        /* \"#utility.yul\":1813:1819   */\n      dup2\n        /* \"#utility.yul\":1800:1820   */\n      calldataload\n        /* \"#utility.yul\":1791:1820   */\n      swap1\n      pop\n        /* \"#utility.yul\":1829:1862   */\n      tag_417\n        /* \"#utility.yul\":1856:1861   */\n      dup2\n        /* \"#utility.yul\":1829:1862   */\n      tag_326\n      jump\t// in\n    tag_417:\n        /* \"#utility.yul\":1729:1868   */\n      swap3\n      swap2\n      pop\n      pop\n      jump\t// out\n        /* \"#utility.yul\":1874:2203   */\n    tag_32:\n        /* \"#utility.yul\":1933:1939   */\n      0x00\n        /* \"#utility.yul\":1982:1984   */\n      0x20\n        /* \"#utility.yul\":1970:1979   */\n      dup3\n        /* \"#utility.yul\":1961:1968   */\n      dup5\n        /* \"#utility.yul\":1957:1980   */\n      sub\n        /* \"#utility.yul\":1953:1985   */\n      slt\n        /* \"#utility.yul\":1950:2069   */\n      iszero\n      tag_419\n      jumpi\n        /* \"#utility.yul\":1988:2067   */\n      tag_420\n      tag_318\n      jump\t// in\n    tag_420:\n        /* \"#utility.yul\":1950:2069   */\n    tag_419:\n        /* \"#utility.yul\":2108:2109   */\n      0x00\n        /* \"#utility.yul\":2133:2186   */\n      tag_421\n        /* \"#utility.yul\":2178:2185   */\n      dup5\n        /* \"#utility.yul\":2169:2175   */\n      dup3\n        /* \"#utility.yul\":2158:2167   */\n      dup6\n        /* \"#utility.yul\":2154:2176   */\n      add\n        /* \"#utility.yul\":2133:2186   */\n      tag_327\n      jump\t// in\n    tag_421:\n        /* \"#utility.yul\":2123:2186   */\n      swap2\n      pop\n        /* \"#utility.yul\":2079:2196   */\n      pop\n        /* \"#utility.yul\":1874:2203   */\n      swap3\n      swap2\n      pop\n      pop\n      jump\t// out\n        /* \"#utility.yul\":2209:2327   */\n    tag_328:\n        /* \"#utility.yul\":2296:2320   */\n      tag_423\n        /* \"#utility.yul\":2314:2319   */\n      dup2\n        /* \"#utility.yul\":2296:2320   */\n      tag_325\n      jump\t// in\n    tag_423:\n        /* \"#utility.yul\":2291:2294   */\n      dup3\n        /* \"#utility.yul\":2284:2321   */\n      mstore\n        /* \"#utility.yul\":2209:2327   */\n      pop\n      pop\n      jump\t// out\n        /* \"#utility.yul\":2333:2555   */\n    tag_35:\n        /* \"#utility.yul\":2426:2430   */\n      0x00\n        /* \"#utility.yul\":2464:2466   */\n      0x20\n        /* \"#utility.yul\":2453:2462   */\n      dup3\n        /* \"#utility.yul\":2449:2467   */\n      add\n        /* \"#utility.yul\":2441:2467   */\n      swap1\n      pop\n        /* \"#utility.yul\":2477:2548   */\n      tag_425\n        /* \"#utility.yul\":2545:2546   */\n      0x00\n        /* \"#utility.yul\":2534:2543   */\n      dup4\n        /* \"#utility.yul\":2530:2547   */\n      add\n        /* \"#utility.yul\":2521:2527   */\n      dup5\n        /* \"#utility.yul\":2477:2548   */\n      tag_328\n      jump\t// in\n    tag_425:\n        /* \"#utility.yul\":2333:2555   */\n      swap3\n      swap2\n      pop\n      pop\n      jump\t// out\n        /* \"#utility.yul\":2561:2687   */\n    tag_329:\n        /* \"#utility.yul\":2598:2605   */\n      0x00\n        /* \"#utility.yul\":2638:2680   */\n      0xffffffffffffffffffffffffffffffffffffffff\n        /* \"#utility.yul\":2631:2636   */\n      dup3\n        /* \"#utility.yul\":2627:2681   */\n      and\n        /* \"#utility.yul\":2616:2681   */\n      swap1\n      pop\n        /* \"#utility.yul\":2561:2687   */\n      swap2\n      swap1\n      pop\n      jump\t// out\n        /* \"#utility.yul\":2693:2789   */\n    tag_330:\n        /* \"#utility.yul\":2730:2737   */\n      0x00\n        /* \"#utility.yul\":2759:2783   */\n      tag_428\n        /* \"#utility.yul\":2777:2782   */\n      dup3\n        /* \"#utility.yul\":2759:2783   */\n      tag_329\n      jump\t// in\n    tag_428:\n        /* \"#utility.yul\":2748:2783   */\n      swap1\n      pop\n        /* \"#utility.yul\":2693:2789   */\n      swap2\n      swap1\n      pop\n      jump\t// out\n        /* \"#utility.yul\":2795:2917   */\n    tag_331:\n        /* \"#utility.yul\":2868:2892   */\n      tag_430\n        /* \"#utility.yul\":2886:2891   */\n      dup2\n        /* \"#utility.yul\":2868:2892   */\n      tag_330\n      jump\t// in\n    tag_430:\n        /* \"#utility.yul\":2861:2866   */\n      dup2\n        /* \"#utility.yul\":2858:2893   */\n      eq\n        /* \"#utility.yul\":2848:2911   */\n      tag_431\n      jumpi\n        /* \"#utility.yul\":2907:2908   */\n      0x00\n        /* \"#utility.yul\":2904:2905   */\n      0x00\n        /* \"#utility.yul\":2897:2909   */\n      revert\n        /* \"#utility.yul\":2848:2911   */\n    tag_431:\n        /* \"#utility.yul\":2795:2917   */\n      pop\n      jump\t// out\n        /* \"#utility.yul\":2923:3062   */\n    tag_332:\n        /* \"#utility.yul\":2969:2974   */\n      0x00\n        /* \"#utility.yul\":3007:3013   */\n      dup2\n        /* \"#utility.yul\":2994:3014   */\n      calldataload\n        /* \"#utility.yul\":2985:3014   */\n      swap1\n      pop\n        /* \"#utility.yul\":3023:3056   */\n      tag_433\n        /* \"#utility.yul\":3050:3055   */\n      dup2\n        /* \"#utility.yul\":3023:3056   */\n      tag_331\n      jump\t// in\n    tag_433:\n        /* \"#utility.yul\":2923:3062   */\n      swap3\n      swap2\n      pop\n      pop\n      jump\t// out\n        /* \"#utility.yul\":3068:3542   */\n    tag_39:\n        /* \"#utility.yul\":3136:3142   */\n      0x00\n        /* \"#utility.yul\":3144:3150   */\n      0x00\n        /* \"#utility.yul\":3193:3195   */\n      0x40\n        /* \"#utility.yul\":3181:3190   */\n      dup4\n        /* \"#utility.yul\":3172:3179   */\n      dup6\n        /* \"#utility.yul\":3168:3191   */\n      sub\n        /* \"#utility.yul\":3164:3196   */\n      slt\n        /* \"#utility.yul\":3161:3280   */\n      iszero\n      tag_435\n      jumpi\n        /* \"#utility.yul\":3199:3278   */\n      tag_436\n      tag_318\n      jump\t// in\n    tag_436:\n        /* \"#utility.yul\":3161:3280   */\n    tag_435:\n        /* \"#utility.yul\":3319:3320   */\n      0x00\n        /* \"#utility.yul\":3344:3397   */\n      tag_437\n        /* \"#utility.yul\":3389:3396   */\n      dup6\n        /* \"#utility.yul\":3380:3386   */\n      dup3\n        /* \"#utility.yul\":3369:3378   */\n      dup7\n        /* \"#utility.yul\":3365:3387   */\n      add\n        /* \"#utility.yul\":3344:3397   */\n      tag_327\n      jump\t// in\n    tag_437:\n        /* \"#utility.yul\":3334:3397   */\n      swap3\n      pop\n        /* \"#utility.yul\":3290:3407   */\n      pop\n        /* \"#utility.yul\":3446:3448   */\n      0x20\n        /* \"#utility.yul\":3472:3525   */\n      tag_438\n        /* \"#utility.yul\":3517:3524   */\n      dup6\n        /* \"#utility.yul\":3508:3514   */\n      dup3\n        /* \"#utility.yul\":3497:3506   */\n      dup7\n        /* \"#utility.yul\":3493:3515   */\n      add\n        /* \"#utility.yul\":3472:3525   */\n      tag_332\n      jump\t// in\n    tag_438:\n        /* \"#utility.yul\":3462:3525   */\n      swap2\n      pop\n        /* \"#utility.yul\":3417:3535   */\n      pop\n        /* \"#utility.yul\":3068:3542   */\n      swap3\n      pop\n      swap3\n      swap1\n      pop\n      jump\t// out\n        /* \"#utility.yul\":3548:3877   */\n    tag_48:\n        /* \"#utility.yul\":3607:3613   */\n      0x00\n        /* \"#utility.yul\":3656:3658   */\n      0x20\n        /* \"#utility.yul\":3644:3653   */\n      dup3\n        /* \"#utility.yul\":3635:3642   */\n      dup5\n        /* \"#utility.yul\":3631:3654   */\n      sub\n        /* \"#utility.yul\":3627:3659   */\n      slt\n        /* \"#utility.yul\":3624:3743   */\n      iszero\n      tag_440\n      jumpi\n        /* \"#utility.yul\":3662:3741   */\n      tag_441\n      tag_318\n      jump\t// in\n    tag_441:\n        /* \"#utility.yul\":3624:3743   */\n    tag_440:\n        /* \"#utility.yul\":3782:3783   */\n      0x00\n        /* \"#utility.yul\":3807:3860   */\n      tag_442\n        /* \"#utility.yul\":3852:3859   */\n      dup5\n        /* \"#utility.yul\":3843:3849   */\n      dup3\n        /* \"#utility.yul\":3832:3841   */\n      dup6\n        /* \"#utility.yul\":3828:3850   */\n      add\n        /* \"#utility.yul\":3807:3860   */\n      tag_332\n      jump\t// in\n    tag_442:\n        /* \"#utility.yul\":3797:3860   */\n      swap2\n      pop\n        /* \"#utility.yul\":3753:3870   */\n      pop\n        /* \"#utility.yul\":3548:3877   */\n      swap3\n      swap2\n      pop\n      pop\n      jump\t// out\n        /* \"#utility.yul\":3883:3960   */\n    tag_333:\n        /* \"#utility.yul\":3920:3927   */\n      0x00\n        /* \"#utility.yul\":3949:3954   */\n      dup2\n        /* \"#utility.yul\":3938:3954   */\n      swap1\n      pop\n        /* \"#utility.yul\":3883:3960   */\n      swap2\n      swap1\n      pop\n      jump\t// out\n        /* \"#utility.yul\":3966:4074   */\n    tag_334:\n        /* \"#utility.yul\":4043:4067   */\n      tag_445\n        /* \"#utility.yul\":4061:4066   */\n      dup2\n        /* \"#utility.yul\":4043:4067   */\n      tag_333\n      jump\t// in\n    tag_445:\n        /* \"#utility.yul\":4038:4041   */\n      dup3\n        /* \"#utility.yul\":4031:4068   */\n      mstore\n        /* \"#utility.yul\":3966:4074   */\n      pop\n      pop\n      jump\t// out\n        /* \"#utility.yul\":4080:4188   */\n    tag_335:\n        /* \"#utility.yul\":4157:4181   */\n      tag_447\n        /* \"#utility.yul\":4175:4180   */\n      dup2\n        /* \"#utility.yul\":4157:4181   */\n      tag_330\n      jump\t// in\n    tag_447:\n        /* \"#utility.yul\":4152:4155   */\n      dup3\n        /* \"#utility.yul\":4145:4182   */\n      mstore\n        /* \"#utility.yul\":4080:4188   */\n      pop\n      pop\n      jump\t// out\n        /* \"#utility.yul\":4278:4802   */\n    tag_336:\n        /* \"#utility.yul\":4433:4437   */\n      0x40\n        /* \"#utility.yul\":4428:4431   */\n      dup3\n        /* \"#utility.yul\":4424:4438   */\n      add\n        /* \"#utility.yul\":4521:4525   */\n      0x00\n        /* \"#utility.yul\":4514:4519   */\n      dup3\n        /* \"#utility.yul\":4510:4526   */\n      add\n        /* \"#utility.yul\":4504:4527   */\n      mload\n        /* \"#utility.yul\":4540:4603   */\n      tag_449\n        /* \"#utility.yul\":4597:4601   */\n      0x00\n        /* \"#utility.yul\":4592:4595   */\n      dup6\n        /* \"#utility.yul\":4588:4602   */\n      add\n        /* \"#utility.yul\":4574:4586   */\n      dup3\n        /* \"#utility.yul\":4540:4603   */\n      tag_334\n      jump\t// in\n    tag_449:\n        /* \"#utility.yul\":4448:4613   */\n      pop\n        /* \"#utility.yul\":4703:4707   */\n      0x20\n        /* \"#utility.yul\":4696:4701   */\n      dup3\n        /* \"#utility.yul\":4692:4708   */\n      add\n        /* \"#utility.yul\":4686:4709   */\n      mload\n        /* \"#utility.yul\":4722:4785   */\n      tag_450\n        /* \"#utility.yul\":4779:4783   */\n      0x20\n        /* \"#utility.yul\":4774:4777   */\n      dup6\n        /* \"#utility.yul\":4770:4784   */\n      add\n        /* \"#utility.yul\":4756:4768   */\n      dup3\n        /* \"#utility.yul\":4722:4785   */\n      tag_335\n      jump\t// in\n    tag_450:\n        /* \"#utility.yul\":4623:4795   */\n      pop\n        /* \"#utility.yul\":4402:4802   */\n      pop\n        /* \"#utility.yul\":4278:4802   */\n      pop\n      pop\n      jump\t// out\n        /* \"#utility.yul\":4808:5146   */\n    tag_51:\n        /* \"#utility.yul\":4959:4963   */\n      0x00\n        /* \"#utility.yul\":4997:4999   */\n      0x40\n        /* \"#utility.yul\":4986:4995   */\n      dup3\n        /* \"#utility.yul\":4982:5000   */\n      add\n        /* \"#utility.yul\":4974:5000   */\n      swap1\n      pop\n        /* \"#utility.yul\":5010:5139   */\n      tag_452\n        /* \"#utility.yul\":5136:5137   */\n      0x00\n        /* \"#utility.yul\":5125:5134   */\n      dup4\n        /* \"#utility.yul\":5121:5138   */\n      add\n        /* \"#utility.yul\":5112:5118   */\n      dup5\n        /* \"#utility.yul\":5010:5139   */\n      tag_336\n      jump\t// in\n    tag_452:\n        /* \"#utility.yul\":4808:5146   */\n      swap3\n      swap2\n      pop\n      pop\n      jump\t// out\n        /* \"#utility.yul\":5152:5270   */\n    tag_337:\n        /* \"#utility.yul\":5239:5263   */\n      tag_454\n        /* \"#utility.yul\":5257:5262   */\n      dup2\n        /* \"#utility.yul\":5239:5263   */\n      tag_330\n      jump\t// in\n    tag_454:\n        /* \"#utility.yul\":5234:5237   */\n      dup3\n        /* \"#utility.yul\":5227:5264   */\n      mstore\n        /* \"#utility.yul\":5152:5270   */\n      pop\n      pop\n      jump\t// out\n        /* \"#utility.yul\":5276:5498   */\n    tag_65:\n        /* \"#utility.yul\":5369:5373   */\n      0x00\n        /* \"#utility.yul\":5407:5409   */\n      0x20\n        /* \"#utility.yul\":5396:5405   */\n      dup3\n        /* \"#utility.yul\":5392:5410   */\n      add\n        /* \"#utility.yul\":5384:5410   */\n      swap1\n      pop\n        /* \"#utility.yul\":5420:5491   */\n      tag_456\n        /* \"#utility.yul\":5488:5489   */\n      0x00\n        /* \"#utility.yul\":5477:5486   */\n      dup4\n        /* \"#utility.yul\":5473:5490   */\n      add\n        /* \"#utility.yul\":5464:5470   */\n      dup5\n        /* \"#utility.yul\":5420:5491   */\n      tag_337\n      jump\t// in\n    tag_456:\n        /* \"#utility.yul\":5276:5498   */\n      swap3\n      swap2\n      pop\n      pop\n      jump\t// out\n        /* \"#utility.yul\":5504:5626   */\n    tag_338:\n        /* \"#utility.yul\":5577:5601   */\n      tag_458\n        /* \"#utility.yul\":5595:5600   */\n      dup2\n        /* \"#utility.yul\":5577:5601   */\n      tag_333\n      jump\t// in\n    tag_458:\n        /* \"#utility.yul\":5570:5575   */\n      dup2\n        /* \"#utility.yul\":5567:5602   */\n      eq\n        /* \"#utility.yul\":5557:5620   */\n      tag_459\n      jumpi\n        /* \"#utility.yul\":5616:5617   */\n      0x00\n        /* \"#utility.yul\":5613:5614   */\n      0x00\n        /* \"#utility.yul\":5606:5618   */\n      revert\n        /* \"#utility.yul\":5557:5620   */\n    tag_459:\n        /* \"#utility.yul\":5504:5626   */\n      pop\n      jump\t// out\n        /* \"#utility.yul\":5632:5771   */\n    tag_339:\n        /* \"#utility.yul\":5678:5683   */\n      0x00\n        /* \"#utility.yul\":5716:5722   */\n      dup2\n        /* \"#utility.yul\":5703:5723   */\n      calldataload\n        /* \"#utility.yul\":5694:5723   */\n      swap1\n      pop\n        /* \"#utility.yul\":5732:5765   */\n      tag_461\n        /* \"#utility.yul\":5759:5764   */\n      dup2\n        /* \"#utility.yul\":5732:5765   */\n      tag_338\n      jump\t// in\n    tag_461:\n        /* \"#utility.yul\":5632:5771   */\n      swap3\n      swap2\n      pop\n      pop\n      jump\t// out\n        /* \"#utility.yul\":5777:5894   */\n    tag_340:\n        /* \"#utility.yul\":5886:5887   */\n      0x00\n        /* \"#utility.yul\":5883:5884   */\n      0x00\n        /* \"#utility.yul\":5876:5888   */\n      revert\n        /* \"#utility.yul\":5900:6017   */\n    tag_341:\n        /* \"#utility.yul\":6009:6010   */\n      0x00\n        /* \"#utility.yul\":6006:6007   */\n      0x00\n        /* \"#utility.yul\":5999:6011   */\n      revert\n        /* \"#utility.yul\":6023:6140   */\n    tag_342:\n        /* \"#utility.yul\":6132:6133   */\n      0x00\n        /* \"#utility.yul\":6129:6130   */\n      0x00\n        /* \"#utility.yul\":6122:6134   */\n      revert\n        /* \"#utility.yul\":6163:6731   */\n    tag_343:\n        /* \"#utility.yul\":6236:6244   */\n      0x00\n        /* \"#utility.yul\":6246:6252   */\n      0x00\n        /* \"#utility.yul\":6296:6299   */\n      dup4\n        /* \"#utility.yul\":6289:6293   */\n      0x1f\n        /* \"#utility.yul\":6281:6287   */\n      dup5\n        /* \"#utility.yul\":6277:6294   */\n      add\n        /* \"#utility.yul\":6273:6300   */\n      slt\n        /* \"#utility.yul\":6263:6385   */\n      tag_466\n      jumpi\n        /* \"#utility.yul\":6304:6383   */\n      tag_467\n      tag_340\n      jump\t// in\n    tag_467:\n        /* \"#utility.yul\":6263:6385   */\n    tag_466:\n        /* \"#utility.yul\":6417:6423   */\n      dup3\n        /* \"#utility.yul\":6404:6424   */\n      calldataload\n        /* \"#utility.yul\":6394:6424   */\n      swap1\n      pop\n        /* \"#utility.yul\":6447:6465   */\n      0xffffffffffffffff\n        /* \"#utility.yul\":6439:6445   */\n      dup2\n        /* \"#utility.yul\":6436:6466   */\n      gt\n        /* \"#utility.yul\":6433:6550   */\n      iszero\n      tag_468\n      jumpi\n        /* \"#utility.yul\":6469:6548   */\n      tag_469\n      tag_341\n      jump\t// in\n    tag_469:\n        /* \"#utility.yul\":6433:6550   */\n    tag_468:\n        /* \"#utility.yul\":6583:6587   */\n      0x20\n        /* \"#utility.yul\":6575:6581   */\n      dup4\n        /* \"#utility.yul\":6571:6588   */\n      add\n        /* \"#utility.yul\":6559:6588   */\n      swap2\n      pop\n        /* \"#utility.yul\":6637:6640   */\n      dup4\n        /* \"#utility.yul\":6629:6633   */\n      0x20\n        /* \"#utility.yul\":6621:6627   */\n      dup3\n        /* \"#utility.yul\":6617:6634   */\n      mul\n        /* \"#utility.yul\":6607:6615   */\n      dup4\n        /* \"#utility.yul\":6603:6635   */\n      add\n        /* \"#utility.yul\":6600:6641   */\n      gt\n        /* \"#utility.yul\":6597:6725   */\n      iszero\n      tag_470\n      jumpi\n        /* \"#utility.yul\":6644:6723   */\n      tag_471\n      tag_342\n      jump\t// in\n    tag_471:\n        /* \"#utility.yul\":6597:6725   */\n    tag_470:\n        /* \"#utility.yul\":6163:6731   */\n      swap3\n      pop\n      swap3\n      swap1\n      pop\n      jump\t// out\n        /* \"#utility.yul\":6737:7732   */\n    tag_72:\n        /* \"#utility.yul\":6850:6856   */\n      0x00\n        /* \"#utility.yul\":6858:6864   */\n      0x00\n        /* \"#utility.yul\":6866:6872   */\n      0x00\n        /* \"#utility.yul\":6874:6880   */\n      0x00\n        /* \"#utility.yul\":6882:6888   */\n      0x00\n        /* \"#utility.yul\":6931:6934   */\n      0x80\n        /* \"#utility.yul\":6919:6928   */\n      dup7\n        /* \"#utility.yul\":6910:6917   */\n      dup9\n        /* \"#utility.yul\":6906:6929   */\n      sub\n        /* \"#utility.yul\":6902:6935   */\n      slt\n        /* \"#utility.yul\":6899:7019   */\n      iszero\n      tag_473\n      jumpi\n        /* \"#utility.yul\":6938:7017   */\n      tag_474\n      tag_318\n      jump\t// in\n    tag_474:\n        /* \"#utility.yul\":6899:7019   */\n    tag_473:\n        /* \"#utility.yul\":7058:7059   */\n      0x00\n        /* \"#utility.yul\":7083:7136   */\n      tag_475\n        /* \"#utility.yul\":7128:7135   */\n      dup9\n        /* \"#utility.yul\":7119:7125   */\n      dup3\n        /* \"#utility.yul\":7108:7117   */\n      dup10\n        /* \"#utility.yul\":7104:7126   */\n      add\n        /* \"#utility.yul\":7083:7136   */\n      tag_339\n      jump\t// in\n    tag_475:\n        /* \"#utility.yul\":7073:7136   */\n      swap6\n      pop\n        /* \"#utility.yul\":7029:7146   */\n      pop\n        /* \"#utility.yul\":7213:7215   */\n      0x20\n        /* \"#utility.yul\":7202:7211   */\n      dup7\n        /* \"#utility.yul\":7198:7216   */\n      add\n        /* \"#utility.yul\":7185:7217   */\n      calldataload\n        /* \"#utility.yul\":7244:7262   */\n      0xffffffffffffffff\n        /* \"#utility.yul\":7236:7242   */\n      dup2\n        /* \"#utility.yul\":7233:7263   */\n      gt\n        /* \"#utility.yul\":7230:7347   */\n      iszero\n      tag_476\n      jumpi\n        /* \"#utility.yul\":7266:7345   */\n      tag_477\n      tag_319\n      jump\t// in\n    tag_477:\n        /* \"#utility.yul\":7230:7347   */\n    tag_476:\n        /* \"#utility.yul\":7379:7459   */\n      tag_478\n        /* \"#utility.yul\":7451:7458   */\n      dup9\n        /* \"#utility.yul\":7442:7448   */\n      dup3\n        /* \"#utility.yul\":7431:7440   */\n      dup10\n        /* \"#utility.yul\":7427:7449   */\n      add\n        /* \"#utility.yul\":7379:7459   */\n      tag_343\n      jump\t// in\n    tag_478:\n        /* \"#utility.yul\":7361:7459   */\n      swap5\n      pop\n      swap5\n      pop\n        /* \"#utility.yul\":7156:7469   */\n      pop\n        /* \"#utility.yul\":7508:7510   */\n      0x40\n        /* \"#utility.yul\":7534:7587   */\n      tag_479\n        /* \"#utility.yul\":7579:7586   */\n      dup9\n        /* \"#utility.yul\":7570:7576   */\n      dup3\n        /* \"#utility.yul\":7559:7568   */\n      dup10\n        /* \"#utility.yul\":7555:7577   */\n      add\n        /* \"#utility.yul\":7534:7587   */\n      tag_332\n      jump\t// in\n    tag_479:\n        /* \"#utility.yul\":7524:7587   */\n      swap3\n      pop\n        /* \"#utility.yul\":7479:7597   */\n      pop\n        /* \"#utility.yul\":7636:7638   */\n      0x60\n        /* \"#utility.yul\":7662:7715   */\n      tag_480\n        /* \"#utility.yul\":7707:7714   */\n      dup9\n        /* \"#utility.yul\":7698:7704   */\n      dup3\n        /* \"#utility.yul\":7687:7696   */\n      dup10\n        /* \"#utility.yul\":7683:7705   */\n      add\n        /* \"#utility.yul\":7662:7715   */\n      tag_339\n      jump\t// in\n    tag_480:\n        /* \"#utility.yul\":7652:7715   */\n      swap2\n      pop\n        /* \"#utility.yul\":7607:7725   */\n      pop\n        /* \"#utility.yul\":6737:7732   */\n      swap3\n      swap6\n      pop\n      swap3\n      swap6\n      swap1\n      swap4\n      pop\n      jump\t// out\n        /* \"#utility.yul\":7738:7856   */\n    tag_344:\n        /* \"#utility.yul\":7825:7849   */\n      tag_482\n        /* \"#utility.yul\":7843:7848   */\n      dup2\n        /* \"#utility.yul\":7825:7849   */\n      tag_333\n      jump\t// in\n    tag_482:\n        /* \"#utility.yul\":7820:7823   */\n      dup3\n        /* \"#utility.yul\":7813:7850   */\n      mstore\n        /* \"#utility.yul\":7738:7856   */\n      pop\n      pop\n      jump\t// out\n        /* \"#utility.yul\":7862:8084   */\n    tag_83:\n        /* \"#utility.yul\":7955:7959   */\n      0x00\n        /* \"#utility.yul\":7993:7995   */\n      0x20\n        /* \"#utility.yul\":7982:7991   */\n      dup3\n        /* \"#utility.yul\":7978:7996   */\n      add\n        /* \"#utility.yul\":7970:7996   */\n      swap1\n      pop\n        /* \"#utility.yul\":8006:8077   */\n      tag_484\n        /* \"#utility.yul\":8074:8075   */\n      0x00\n        /* \"#utility.yul\":8063:8072   */\n      dup4\n        /* \"#utility.yul\":8059:8076   */\n      add\n        /* \"#utility.yul\":8050:8056   */\n      dup5\n        /* \"#utility.yul\":8006:8077   */\n      tag_344\n      jump\t// in\n    tag_484:\n        /* \"#utility.yul\":7862:8084   */\n      swap3\n      swap2\n      pop\n      pop\n      jump\t// out\n        /* \"#utility.yul\":8090:8192   */\n    tag_345:\n        /* \"#utility.yul\":8131:8137   */\n      0x00\n        /* \"#utility.yul\":8182:8184   */\n      0x1f\n        /* \"#utility.yul\":8178:8185   */\n      not\n        /* \"#utility.yul\":8173:8175   */\n      0x1f\n        /* \"#utility.yul\":8166:8171   */\n      dup4\n        /* \"#utility.yul\":8162:8176   */\n      add\n        /* \"#utility.yul\":8158:8186   */\n      and\n        /* \"#utility.yul\":8148:8186   */\n      swap1\n      pop\n        /* \"#utility.yul\":8090:8192   */\n      swap2\n      swap1\n      pop\n      jump\t// out\n        /* \"#utility.yul\":8198:8378   */\n    tag_199:\n        /* \"#utility.yul\":8246:8323   */\n      0x4e487b7100000000000000000000000000000000000000000000000000000000\n        /* \"#utility.yul\":8243:8244   */\n      0x00\n        /* \"#utility.yul\":8236:8324   */\n      mstore\n        /* \"#utility.yul\":8343:8347   */\n      0x41\n        /* \"#utility.yul\":8340:8341   */\n      0x04\n        /* \"#utility.yul\":8333:8348   */\n      mstore\n        /* \"#utility.yul\":8367:8371   */\n      0x24\n        /* \"#utility.yul\":8364:8365   */\n      0x00\n        /* \"#utility.yul\":8357:8372   */\n      revert\n        /* \"#utility.yul\":8384:8665   */\n    tag_346:\n        /* \"#utility.yul\":8467:8494   */\n      tag_488\n        /* \"#utility.yul\":8489:8493   */\n      dup3\n        /* \"#utility.yul\":8467:8494   */\n      tag_345\n      jump\t// in\n    tag_488:\n        /* \"#utility.yul\":8459:8465   */\n      dup2\n        /* \"#utility.yul\":8455:8495   */\n      add\n        /* \"#utility.yul\":8597:8603   */\n      dup2\n        /* \"#utility.yul\":8585:8595   */\n      dup2\n        /* \"#utility.yul\":8582:8604   */\n      lt\n        /* \"#utility.yul\":8561:8579   */\n      0xffffffffffffffff\n        /* \"#utility.yul\":8549:8559   */\n      dup3\n        /* \"#utility.yul\":8546:8580   */\n      gt\n        /* \"#utility.yul\":8543:8605   */\n      or\n        /* \"#utility.yul\":8540:8628   */\n      iszero\n      tag_489\n      jumpi\n        /* \"#utility.yul\":8608:8626   */\n      tag_490\n      tag_199\n      jump\t// in\n    tag_490:\n        /* \"#utility.yul\":8540:8628   */\n    tag_489:\n        /* \"#utility.yul\":8648:8658   */\n      dup1\n        /* \"#utility.yul\":8644:8646   */\n      0x40\n        /* \"#utility.yul\":8637:8659   */\n      mstore\n        /* \"#utility.yul\":8427:8665   */\n      pop\n        /* \"#utility.yul\":8384:8665   */\n      pop\n      pop\n      jump\t// out\n        /* \"#utility.yul\":8671:8800   */\n    tag_347:\n        /* \"#utility.yul\":8705:8711   */\n      0x00\n        /* \"#utility.yul\":8732:8752   */\n      tag_492\n      tag_317\n      jump\t// in\n    tag_492:\n        /* \"#utility.yul\":8722:8752   */\n      swap1\n      pop\n        /* \"#utility.yul\":8761:8794   */\n      tag_493\n        /* \"#utility.yul\":8789:8793   */\n      dup3\n        /* \"#utility.yul\":8781:8787   */\n      dup3\n        /* \"#utility.yul\":8761:8794   */\n      tag_346\n      jump\t// in\n    tag_493:\n        /* \"#utility.yul\":8671:8800   */\n      swap2\n      swap1\n      pop\n      jump\t// out\n        /* \"#utility.yul\":8806:9117   */\n    tag_348:\n        /* \"#utility.yul\":8883:8887   */\n      0x00\n        /* \"#utility.yul\":8973:8991   */\n      0xffffffffffffffff\n        /* \"#utility.yul\":8965:8971   */\n      dup3\n        /* \"#utility.yul\":8962:8992   */\n      gt\n        /* \"#utility.yul\":8959:9015   */\n      iszero\n      tag_495\n      jumpi\n        /* \"#utility.yul\":8995:9013   */\n      tag_496\n      tag_199\n      jump\t// in\n    tag_496:\n        /* \"#utility.yul\":8959:9015   */\n    tag_495:\n        /* \"#utility.yul\":9045:9049   */\n      0x20\n        /* \"#utility.yul\":9037:9043   */\n      dup3\n        /* \"#utility.yul\":9033:9050   */\n      mul\n        /* \"#utility.yul\":9025:9050   */\n      swap1\n      pop\n        /* \"#utility.yul\":9105:9109   */\n      0x20\n        /* \"#utility.yul\":9099:9103   */\n      dup2\n        /* \"#utility.yul\":9095:9110   */\n      add\n        /* \"#utility.yul\":9087:9110   */\n      swap1\n      pop\n        /* \"#utility.yul\":8806:9117   */\n      swap2\n      swap1\n      pop\n      jump\t// out\n        /* \"#utility.yul\":9140:9850   */\n    tag_349:\n        /* \"#utility.yul\":9236:9241   */\n      0x00\n        /* \"#utility.yul\":9261:9342   */\n      tag_498\n        /* \"#utility.yul\":9277:9341   */\n      tag_499\n        /* \"#utility.yul\":9334:9340   */\n      dup5\n        /* \"#utility.yul\":9277:9341   */\n      tag_348\n      jump\t// in\n    tag_499:\n        /* \"#utility.yul\":9261:9342   */\n      tag_347\n      jump\t// in\n    tag_498:\n        /* \"#utility.yul\":9252:9342   */\n      swap1\n      pop\n        /* \"#utility.yul\":9362:9367   */\n      dup1\n        /* \"#utility.yul\":9391:9397   */\n      dup4\n        /* \"#utility.yul\":9384:9389   */\n      dup3\n        /* \"#utility.yul\":9377:9398   */\n      mstore\n        /* \"#utility.yul\":9425:9429   */\n      0x20\n        /* \"#utility.yul\":9418:9423   */\n      dup3\n        /* \"#utility.yul\":9414:9430   */\n      add\n        /* \"#utility.yul\":9407:9430   */\n      swap1\n      pop\n        /* \"#utility.yul\":9478:9482   */\n      0x20\n        /* \"#utility.yul\":9470:9476   */\n      dup5\n        /* \"#utility.yul\":9466:9483   */\n      mul\n        /* \"#utility.yul\":9458:9464   */\n      dup4\n        /* \"#utility.yul\":9454:9484   */\n      add\n        /* \"#utility.yul\":9507:9510   */\n      dup6\n        /* \"#utility.yul\":9499:9505   */\n      dup2\n        /* \"#utility.yul\":9496:9511   */\n      gt\n        /* \"#utility.yul\":9493:9615   */\n      iszero\n      tag_500\n      jumpi\n        /* \"#utility.yul\":9526:9605   */\n      tag_501\n      tag_342\n      jump\t// in\n    tag_501:\n        /* \"#utility.yul\":9493:9615   */\n    tag_500:\n        /* \"#utility.yul\":9641:9647   */\n      dup4\n        /* \"#utility.yul\":9624:9844   */\n    tag_502:\n        /* \"#utility.yul\":9658:9664   */\n      dup2\n        /* \"#utility.yul\":9653:9656   */\n      dup2\n        /* \"#utility.yul\":9650:9665   */\n      lt\n        /* \"#utility.yul\":9624:9844   */\n      iszero\n      tag_504\n      jumpi\n        /* \"#utility.yul\":9733:9736   */\n      dup1\n        /* \"#utility.yul\":9762:9799   */\n      tag_505\n        /* \"#utility.yul\":9795:9798   */\n      dup9\n        /* \"#utility.yul\":9783:9793   */\n      dup3\n        /* \"#utility.yul\":9762:9799   */\n      tag_332\n      jump\t// in\n    tag_505:\n        /* \"#utility.yul\":9757:9760   */\n      dup5\n        /* \"#utility.yul\":9750:9800   */\n      mstore\n        /* \"#utility.yul\":9829:9833   */\n      0x20\n        /* \"#utility.yul\":9824:9827   */\n      dup5\n        /* \"#utility.yul\":9820:9834   */\n      add\n        /* \"#utility.yul\":9813:9834   */\n      swap4\n      pop\n        /* \"#utility.yul\":9700:9844   */\n      pop\n        /* \"#utility.yul\":9684:9688   */\n      0x20\n        /* \"#utility.yul\":9679:9682   */\n      dup2\n        /* \"#utility.yul\":9675:9689   */\n      add\n        /* \"#utility.yul\":9668:9689   */\n      swap1\n      pop\n        /* \"#utility.yul\":9624:9844   */\n      jump(tag_502)\n    tag_504:\n        /* \"#utility.yul\":9628:9649   */\n      pop\n        /* \"#utility.yul\":9242:9850   */\n      pop\n      pop\n        /* \"#utility.yul\":9140:9850   */\n      swap4\n      swap3\n      pop\n      pop\n      pop\n      jump\t// out\n        /* \"#utility.yul\":9873:10243   */\n    tag_350:\n        /* \"#utility.yul\":9944:9949   */\n      0x00\n        /* \"#utility.yul\":9993:9996   */\n      dup3\n        /* \"#utility.yul\":9986:9990   */\n      0x1f\n        /* \"#utility.yul\":9978:9984   */\n      dup4\n        /* \"#utility.yul\":9974:9991   */\n      add\n        /* \"#utility.yul\":9970:9997   */\n      slt\n        /* \"#utility.yul\":9960:10082   */\n      tag_507\n      jumpi\n        /* \"#utility.yul\":10001:10080   */\n      tag_508\n      tag_340\n      jump\t// in\n    tag_508:\n        /* \"#utility.yul\":9960:10082   */\n    tag_507:\n        /* \"#utility.yul\":10118:10124   */\n      dup2\n        /* \"#utility.yul\":10105:10125   */\n      calldataload\n        /* \"#utility.yul\":10143:10237   */\n      tag_509\n        /* \"#utility.yul\":10233:10236   */\n      dup5\n        /* \"#utility.yul\":10225:10231   */\n      dup3\n        /* \"#utility.yul\":10218:10222   */\n      0x20\n        /* \"#utility.yul\":10210:10216   */\n      dup7\n        /* \"#utility.yul\":10206:10223   */\n      add\n        /* \"#utility.yul\":10143:10237   */\n      tag_349\n      jump\t// in\n    tag_509:\n        /* \"#utility.yul\":10134:10237   */\n      swap2\n      pop\n        /* \"#utility.yul\":9950:10243   */\n      pop\n        /* \"#utility.yul\":9873:10243   */\n      swap3\n      swap2\n      pop\n      pop\n      jump\t// out\n        /* \"#utility.yul\":10249:10933   */\n    tag_87:\n        /* \"#utility.yul\":10342:10348   */\n      0x00\n        /* \"#utility.yul\":10350:10356   */\n      0x00\n        /* \"#utility.yul\":10399:10401   */\n      0x40\n        /* \"#utility.yul\":10387:10396   */\n      dup4\n        /* \"#utility.yul\":10378:10385   */\n      dup6\n        /* \"#utility.yul\":10374:10397   */\n      sub\n        /* \"#utility.yul\":10370:10402   */\n      slt\n        /* \"#utility.yul\":10367:10486   */\n      iszero\n      tag_511\n      jumpi\n        /* \"#utility.yul\":10405:10484   */\n      tag_512\n      tag_318\n      jump\t// in\n    tag_512:\n        /* \"#utility.yul\":10367:10486   */\n    tag_511:\n        /* \"#utility.yul\":10525:10526   */\n      0x00\n        /* \"#utility.yul\":10550:10603   */\n      tag_513\n        /* \"#utility.yul\":10595:10602   */\n      dup6\n        /* \"#utility.yul\":10586:10592   */\n      dup3\n        /* \"#utility.yul\":10575:10584   */\n      dup7\n        /* \"#utility.yul\":10571:10593   */\n      add\n        /* \"#utility.yul\":10550:10603   */\n      tag_339\n      jump\t// in\n    tag_513:\n        /* \"#utility.yul\":10540:10603   */\n      swap3\n      pop\n        /* \"#utility.yul\":10496:10613   */\n      pop\n        /* \"#utility.yul\":10680:10682   */\n      0x20\n        /* \"#utility.yul\":10669:10678   */\n      dup4\n        /* \"#utility.yul\":10665:10683   */\n      add\n        /* \"#utility.yul\":10652:10684   */\n      calldataload\n        /* \"#utility.yul\":10711:10729   */\n      0xffffffffffffffff\n        /* \"#utility.yul\":10703:10709   */\n      dup2\n        /* \"#utility.yul\":10700:10730   */\n      gt\n        /* \"#utility.yul\":10697:10814   */\n      iszero\n      tag_514\n      jumpi\n        /* \"#utility.yul\":10733:10812   */\n      tag_515\n      tag_319\n      jump\t// in\n    tag_515:\n        /* \"#utility.yul\":10697:10814   */\n    tag_514:\n        /* \"#utility.yul\":10838:10916   */\n      tag_516\n        /* \"#utility.yul\":10908:10915   */\n      dup6\n        /* \"#utility.yul\":10899:10905   */\n      dup3\n        /* \"#utility.yul\":10888:10897   */\n      dup7\n        /* \"#utility.yul\":10884:10906   */\n      add\n        /* \"#utility.yul\":10838:10916   */\n      tag_350\n      jump\t// in\n    tag_516:\n        /* \"#utility.yul\":10828:10916   */\n      swap2\n      pop\n        /* \"#utility.yul\":10623:10926   */\n      pop\n        /* \"#utility.yul\":10249:10933   */\n      swap3\n      pop\n      swap3\n      swap1\n      pop\n      jump\t// out\n        /* \"#utility.yul\":10939:11053   */\n    tag_351:\n        /* \"#utility.yul\":11006:11012   */\n      0x00\n        /* \"#utility.yul\":11040:11045   */\n      dup2\n        /* \"#utility.yul\":11034:11046   */\n      mload\n        /* \"#utility.yul\":11024:11046   */\n      swap1\n      pop\n        /* \"#utility.yul\":10939:11053   */\n      swap2\n      swap1\n      pop\n      jump\t// out\n        /* \"#utility.yul\":11059:11243   */\n    tag_352:\n        /* \"#utility.yul\":11158:11169   */\n      0x00\n        /* \"#utility.yul\":11192:11198   */\n      dup3\n        /* \"#utility.yul\":11187:11190   */\n      dup3\n        /* \"#utility.yul\":11180:11199   */\n      mstore\n        /* \"#utility.yul\":11232:11236   */\n      0x20\n        /* \"#utility.yul\":11227:11230   */\n      dup3\n        /* \"#utility.yul\":11223:11237   */\n      add\n        /* \"#utility.yul\":11208:11237   */\n      swap1\n      pop\n        /* \"#utility.yul\":11059:11243   */\n      swap3\n      swap2\n      pop\n      pop\n      jump\t// out\n        /* \"#utility.yul\":11249:11381   */\n    tag_353:\n        /* \"#utility.yul\":11316:11320   */\n      0x00\n        /* \"#utility.yul\":11339:11342   */\n      dup2\n        /* \"#utility.yul\":11331:11342   */\n      swap1\n      pop\n        /* \"#utility.yul\":11369:11373   */\n      0x20\n        /* \"#utility.yul\":11364:11367   */\n      dup3\n        /* \"#utility.yul\":11360:11374   */\n      add\n        /* \"#utility.yul\":11352:11374   */\n      swap1\n      pop\n        /* \"#utility.yul\":11249:11381   */\n      swap2\n      swap1\n      pop\n      jump\t// out\n        /* \"#utility.yul\":11387:11566   */\n    tag_354:\n        /* \"#utility.yul\":11456:11466   */\n      0x00\n        /* \"#utility.yul\":11477:11523   */\n      tag_521\n        /* \"#utility.yul\":11519:11522   */\n      dup4\n        /* \"#utility.yul\":11511:11517   */\n      dup4\n        /* \"#utility.yul\":11477:11523   */\n      tag_334\n      jump\t// in\n    tag_521:\n        /* \"#utility.yul\":11555:11559   */\n      0x20\n        /* \"#utility.yul\":11550:11553   */\n      dup4\n        /* \"#utility.yul\":11546:11560   */\n      add\n        /* \"#utility.yul\":11532:11560   */\n      swap1\n      pop\n        /* \"#utility.yul\":11387:11566   */\n      swap3\n      swap2\n      pop\n      pop\n      jump\t// out\n        /* \"#utility.yul\":11572:11685   */\n    tag_355:\n        /* \"#utility.yul\":11642:11646   */\n      0x00\n        /* \"#utility.yul\":11674:11678   */\n      0x20\n        /* \"#utility.yul\":11669:11672   */\n      dup3\n        /* \"#utility.yul\":11665:11679   */\n      add\n        /* \"#utility.yul\":11657:11679   */\n      swap1\n      pop\n        /* \"#utility.yul\":11572:11685   */\n      swap2\n      swap1\n      pop\n      jump\t// out\n        /* \"#utility.yul\":11721:12453   */\n    tag_356:\n        /* \"#utility.yul\":11840:11843   */\n      0x00\n        /* \"#utility.yul\":11869:11923   */\n      tag_524\n        /* \"#utility.yul\":11917:11922   */\n      dup3\n        /* \"#utility.yul\":11869:11923   */\n      tag_351\n      jump\t// in\n    tag_524:\n        /* \"#utility.yul\":11939:12025   */\n      tag_525\n        /* \"#utility.yul\":12018:12024   */\n      dup2\n        /* \"#utility.yul\":12013:12016   */\n      dup6\n        /* \"#utility.yul\":11939:12025   */\n      tag_352\n      jump\t// in\n    tag_525:\n        /* \"#utility.yul\":11932:12025   */\n      swap4\n      pop\n        /* \"#utility.yul\":12049:12105   */\n      tag_526\n        /* \"#utility.yul\":12099:12104   */\n      dup4\n        /* \"#utility.yul\":12049:12105   */\n      tag_353\n      jump\t// in\n    tag_526:\n        /* \"#utility.yul\":12128:12135   */\n      dup1\n        /* \"#utility.yul\":12159:12160   */\n      0x00\n        /* \"#utility.yul\":12144:12428   */\n    tag_527:\n        /* \"#utility.yul\":12169:12175   */\n      dup4\n        /* \"#utility.yul\":12166:12167   */\n      dup2\n        /* \"#utility.yul\":12163:12176   */\n      lt\n        /* \"#utility.yul\":12144:12428   */\n      iszero\n      tag_529\n      jumpi\n        /* \"#utility.yul\":12245:12251   */\n      dup2\n        /* \"#utility.yul\":12239:12252   */\n      mload\n        /* \"#utility.yul\":12272:12335   */\n      tag_530\n        /* \"#utility.yul\":12331:12334   */\n      dup9\n        /* \"#utility.yul\":12316:12329   */\n      dup3\n        /* \"#utility.yul\":12272:12335   */\n      tag_354\n      jump\t// in\n    tag_530:\n        /* \"#utility.yul\":12265:12335   */\n      swap8\n      pop\n        /* \"#utility.yul\":12358:12418   */\n      tag_531\n        /* \"#utility.yul\":12411:12417   */\n      dup4\n        /* \"#utility.yul\":12358:12418   */\n      tag_355\n      jump\t// in\n    tag_531:\n        /* \"#utility.yul\":12348:12418   */\n      swap3\n      pop\n        /* \"#utility.yul\":12204:12428   */\n      pop\n        /* \"#utility.yul\":12191:12192   */\n      0x01\n        /* \"#utility.yul\":12188:12189   */\n      dup2\n        /* \"#utility.yul\":12184:12193   */\n      add\n        /* \"#utility.yul\":12179:12193   */\n      swap1\n      pop\n        /* \"#utility.yul\":12144:12428   */\n      jump(tag_527)\n    tag_529:\n        /* \"#utility.yul\":12148:12162   */\n      pop\n        /* \"#utility.yul\":12444:12447   */\n      dup6\n        /* \"#utility.yul\":12437:12447   */\n      swap4\n      pop\n        /* \"#utility.yul\":11845:12453   */\n      pop\n      pop\n      pop\n        /* \"#utility.yul\":11721:12453   */\n      swap3\n      swap2\n      pop\n      pop\n      jump\t// out\n        /* \"#utility.yul\":12459:12832   */\n    tag_90:\n        /* \"#utility.yul\":12602:12606   */\n      0x00\n        /* \"#utility.yul\":12640:12642   */\n      0x20\n        /* \"#utility.yul\":12629:12638   */\n      dup3\n        /* \"#utility.yul\":12625:12643   */\n      add\n        /* \"#utility.yul\":12617:12643   */\n      swap1\n      pop\n        /* \"#utility.yul\":12689:12698   */\n      dup2\n        /* \"#utility.yul\":12683:12687   */\n      dup2\n        /* \"#utility.yul\":12679:12699   */\n      sub\n        /* \"#utility.yul\":12675:12676   */\n      0x00\n        /* \"#utility.yul\":12664:12673   */\n      dup4\n        /* \"#utility.yul\":12660:12677   */\n      add\n        /* \"#utility.yul\":12653:12700   */\n      mstore\n        /* \"#utility.yul\":12717:12825   */\n      tag_533\n        /* \"#utility.yul\":12820:12824   */\n      dup2\n        /* \"#utility.yul\":12811:12817   */\n      dup5\n        /* \"#utility.yul\":12717:12825   */\n      tag_356\n      jump\t// in\n    tag_533:\n        /* \"#utility.yul\":12709:12825   */\n      swap1\n      pop\n        /* \"#utility.yul\":12459:12832   */\n      swap3\n      swap2\n      pop\n      pop\n      jump\t// out\n        /* \"#utility.yul\":12838:13170   */\n    tag_100:\n        /* \"#utility.yul\":12959:12963   */\n      0x00\n        /* \"#utility.yul\":12997:12999   */\n      0x40\n        /* \"#utility.yul\":12986:12995   */\n      dup3\n        /* \"#utility.yul\":12982:13000   */\n      add\n        /* \"#utility.yul\":12974:13000   */\n      swap1\n      pop\n        /* \"#utility.yul\":13010:13081   */\n      tag_535\n        /* \"#utility.yul\":13078:13079   */\n      0x00\n        /* \"#utility.yul\":13067:13076   */\n      dup4\n        /* \"#utility.yul\":13063:13080   */\n      add\n        /* \"#utility.yul\":13054:13060   */\n      dup6\n        /* \"#utility.yul\":13010:13081   */\n      tag_344\n      jump\t// in\n    tag_535:\n        /* \"#utility.yul\":13091:13163   */\n      tag_536\n        /* \"#utility.yul\":13159:13161   */\n      0x20\n        /* \"#utility.yul\":13148:13157   */\n      dup4\n        /* \"#utility.yul\":13144:13162   */\n      add\n        /* \"#utility.yul\":13135:13141   */\n      dup5\n        /* \"#utility.yul\":13091:13163   */\n      tag_337\n      jump\t// in\n    tag_536:\n        /* \"#utility.yul\":12838:13170   */\n      swap4\n      swap3\n      pop\n      pop\n      pop\n      jump\t// out\n        /* \"#utility.yul\":13176:13487   */\n    tag_357:\n        /* \"#utility.yul\":13253:13257   */\n      0x00\n        /* \"#utility.yul\":13343:13361   */\n      0xffffffffffffffff\n        /* \"#utility.yul\":13335:13341   */\n      dup3\n        /* \"#utility.yul\":13332:13362   */\n      gt\n        /* \"#utility.yul\":13329:13385   */\n      iszero\n      tag_538\n      jumpi\n        /* \"#utility.yul\":13365:13383   */\n      tag_539\n      tag_199\n      jump\t// in\n    tag_539:\n        /* \"#utility.yul\":13329:13385   */\n    tag_538:\n        /* \"#utility.yul\":13415:13419   */\n      0x20\n        /* \"#utility.yul\":13407:13413   */\n      dup3\n        /* \"#utility.yul\":13403:13420   */\n      mul\n        /* \"#utility.yul\":13395:13420   */\n      swap1\n      pop\n        /* \"#utility.yul\":13475:13479   */\n      0x20\n        /* \"#utility.yul\":13469:13473   */\n      dup2\n        /* \"#utility.yul\":13465:13480   */\n      add\n        /* \"#utility.yul\":13457:13480   */\n      swap1\n      pop\n        /* \"#utility.yul\":13176:13487   */\n      swap2\n      swap1\n      pop\n      jump\t// out\n        /* \"#utility.yul\":13510:14220   */\n    tag_358:\n        /* \"#utility.yul\":13606:13611   */\n      0x00\n        /* \"#utility.yul\":13631:13712   */\n      tag_541\n        /* \"#utility.yul\":13647:13711   */\n      tag_542\n        /* \"#utility.yul\":13704:13710   */\n      dup5\n        /* \"#utility.yul\":13647:13711   */\n      tag_357\n      jump\t// in\n    tag_542:\n        /* \"#utility.yul\":13631:13712   */\n      tag_347\n      jump\t// in\n    tag_541:\n        /* \"#utility.yul\":13622:13712   */\n      swap1\n      pop\n        /* \"#utility.yul\":13732:13737   */\n      dup1\n        /* \"#utility.yul\":13761:13767   */\n      dup4\n        /* \"#utility.yul\":13754:13759   */\n      dup3\n        /* \"#utility.yul\":13747:13768   */\n      mstore\n        /* \"#utility.yul\":13795:13799   */\n      0x20\n        /* \"#utility.yul\":13788:13793   */\n      dup3\n        /* \"#utility.yul\":13784:13800   */\n      add\n        /* \"#utility.yul\":13777:13800   */\n      swap1\n      pop\n        /* \"#utility.yul\":13848:13852   */\n      0x20\n        /* \"#utility.yul\":13840:13846   */\n      dup5\n        /* \"#utility.yul\":13836:13853   */\n      mul\n        /* \"#utility.yul\":13828:13834   */\n      dup4\n        /* \"#utility.yul\":13824:13854   */\n      add\n        /* \"#utility.yul\":13877:13880   */\n      dup6\n        /* \"#utility.yul\":13869:13875   */\n      dup2\n        /* \"#utility.yul\":13866:13881   */\n      gt\n        /* \"#utility.yul\":13863:13985   */\n      iszero\n      tag_543\n      jumpi\n        /* \"#utility.yul\":13896:13975   */\n      tag_544\n      tag_342\n      jump\t// in\n    tag_544:\n        /* \"#utility.yul\":13863:13985   */\n    tag_543:\n        /* \"#utility.yul\":14011:14017   */\n      dup4\n        /* \"#utility.yul\":13994:14214   */\n    tag_545:\n        /* \"#utility.yul\":14028:14034   */\n      dup2\n        /* \"#utility.yul\":14023:14026   */\n      dup2\n        /* \"#utility.yul\":14020:14035   */\n      lt\n        /* \"#utility.yul\":13994:14214   */\n      iszero\n      tag_547\n      jumpi\n        /* \"#utility.yul\":14103:14106   */\n      dup1\n        /* \"#utility.yul\":14132:14169   */\n      tag_548\n        /* \"#utility.yul\":14165:14168   */\n      dup9\n        /* \"#utility.yul\":14153:14163   */\n      dup3\n        /* \"#utility.yul\":14132:14169   */\n      tag_339\n      jump\t// in\n    tag_548:\n        /* \"#utility.yul\":14127:14130   */\n      dup5\n        /* \"#utility.yul\":14120:14170   */\n      mstore\n        /* \"#utility.yul\":14199:14203   */\n      0x20\n        /* \"#utility.yul\":14194:14197   */\n      dup5\n        /* \"#utility.yul\":14190:14204   */\n      add\n        /* \"#utility.yul\":14183:14204   */\n      swap4\n      pop\n        /* \"#utility.yul\":14070:14214   */\n      pop\n        /* \"#utility.yul\":14054:14058   */\n      0x20\n        /* \"#utility.yul\":14049:14052   */\n      dup2\n        /* \"#utility.yul\":14045:14059   */\n      add\n        /* \"#utility.yul\":14038:14059   */\n      swap1\n      pop\n        /* \"#utility.yul\":13994:14214   */\n      jump(tag_545)\n    tag_547:\n        /* \"#utility.yul\":13998:14019   */\n      pop\n        /* \"#utility.yul\":13612:14220   */\n      pop\n      pop\n        /* \"#utility.yul\":13510:14220   */\n      swap4\n      swap3\n      pop\n      pop\n      pop\n      jump\t// out\n        /* \"#utility.yul\":14243:14613   */\n    tag_359:\n        /* \"#utility.yul\":14314:14319   */\n      0x00\n        /* \"#utility.yul\":14363:14366   */\n      dup3\n        /* \"#utility.yul\":14356:14360   */\n      0x1f\n        /* \"#utility.yul\":14348:14354   */\n      dup4\n        /* \"#utility.yul\":14344:14361   */\n      add\n        /* \"#utility.yul\":14340:14367   */\n      slt\n        /* \"#utility.yul\":14330:14452   */\n      tag_550\n      jumpi\n        /* \"#utility.yul\":14371:14450   */\n      tag_551\n      tag_340\n      jump\t// in\n    tag_551:\n        /* \"#utility.yul\":14330:14452   */\n    tag_550:\n        /* \"#utility.yul\":14488:14494   */\n      dup2\n        /* \"#utility.yul\":14475:14495   */\n      calldataload\n        /* \"#utility.yul\":14513:14607   */\n      tag_552\n        /* \"#utility.yul\":14603:14606   */\n      dup5\n        /* \"#utility.yul\":14595:14601   */\n      dup3\n        /* \"#utility.yul\":14588:14592   */\n      0x20\n        /* \"#utility.yul\":14580:14586   */\n      dup7\n        /* \"#utility.yul\":14576:14593   */\n      add\n        /* \"#utility.yul\":14513:14607   */\n      tag_358\n      jump\t// in\n    tag_552:\n        /* \"#utility.yul\":14504:14607   */\n      swap2\n      pop\n        /* \"#utility.yul\":14320:14613   */\n      pop\n        /* \"#utility.yul\":14243:14613   */\n      swap3\n      swap2\n      pop\n      pop\n      jump\t// out\n        /* \"#utility.yul\":14619:15868   */\n    tag_104:\n        /* \"#utility.yul\":14771:14777   */\n      0x00\n        /* \"#utility.yul\":14779:14785   */\n      0x00\n        /* \"#utility.yul\":14787:14793   */\n      0x00\n        /* \"#utility.yul\":14836:14838   */\n      0x60\n        /* \"#utility.yul\":14824:14833   */\n      dup5\n        /* \"#utility.yul\":14815:14822   */\n      dup7\n        /* \"#utility.yul\":14811:14834   */\n      sub\n        /* \"#utility.yul\":14807:14839   */\n      slt\n        /* \"#utility.yul\":14804:14923   */\n      iszero\n      tag_554\n      jumpi\n        /* \"#utility.yul\":14842:14921   */\n      tag_555\n      tag_318\n      jump\t// in\n    tag_555:\n        /* \"#utility.yul\":14804:14923   */\n    tag_554:\n        /* \"#utility.yul\":14990:14991   */\n      0x00\n        /* \"#utility.yul\":14979:14988   */\n      dup5\n        /* \"#utility.yul\":14975:14992   */\n      add\n        /* \"#utility.yul\":14962:14993   */\n      calldataload\n        /* \"#utility.yul\":15020:15038   */\n      0xffffffffffffffff\n        /* \"#utility.yul\":15012:15018   */\n      dup2\n        /* \"#utility.yul\":15009:15039   */\n      gt\n        /* \"#utility.yul\":15006:15123   */\n      iszero\n      tag_556\n      jumpi\n        /* \"#utility.yul\":15042:15121   */\n      tag_557\n      tag_319\n      jump\t// in\n    tag_557:\n        /* \"#utility.yul\":15006:15123   */\n    tag_556:\n        /* \"#utility.yul\":15147:15225   */\n      tag_558\n        /* \"#utility.yul\":15217:15224   */\n      dup7\n        /* \"#utility.yul\":15208:15214   */\n      dup3\n        /* \"#utility.yul\":15197:15206   */\n      dup8\n        /* \"#utility.yul\":15193:15215   */\n      add\n        /* \"#utility.yul\":15147:15225   */\n      tag_350\n      jump\t// in\n    tag_558:\n        /* \"#utility.yul\":15137:15225   */\n      swap4\n      pop\n        /* \"#utility.yul\":14933:15235   */\n      pop\n        /* \"#utility.yul\":15302:15304   */\n      0x20\n        /* \"#utility.yul\":15291:15300   */\n      dup5\n        /* \"#utility.yul\":15287:15305   */\n      add\n        /* \"#utility.yul\":15274:15306   */\n      calldataload\n        /* \"#utility.yul\":15333:15351   */\n      0xffffffffffffffff\n        /* \"#utility.yul\":15325:15331   */\n      dup2\n        /* \"#utility.yul\":15322:15352   */\n      gt\n        /* \"#utility.yul\":15319:15436   */\n      iszero\n      tag_559\n      jumpi\n        /* \"#utility.yul\":15355:15434   */\n      tag_560\n      tag_319\n      jump\t// in\n    tag_560:\n        /* \"#utility.yul\":15319:15436   */\n    tag_559:\n        /* \"#utility.yul\":15460:15538   */\n      tag_561\n        /* \"#utility.yul\":15530:15537   */\n      dup7\n        /* \"#utility.yul\":15521:15527   */\n      dup3\n        /* \"#utility.yul\":15510:15519   */\n      dup8\n        /* \"#utility.yul\":15506:15528   */\n      add\n        /* \"#utility.yul\":15460:15538   */\n      tag_350\n      jump\t// in\n    tag_561:\n        /* \"#utility.yul\":15450:15538   */\n      swap3\n      pop\n        /* \"#utility.yul\":15245:15548   */\n      pop\n        /* \"#utility.yul\":15615:15617   */\n      0x40\n        /* \"#utility.yul\":15604:15613   */\n      dup5\n        /* \"#utility.yul\":15600:15618   */\n      add\n        /* \"#utility.yul\":15587:15619   */\n      calldataload\n        /* \"#utility.yul\":15646:15664   */\n      0xffffffffffffffff\n        /* \"#utility.yul\":15638:15644   */\n      dup2\n        /* \"#utility.yul\":15635:15665   */\n      gt\n        /* \"#utility.yul\":15632:15749   */\n      iszero\n      tag_562\n      jumpi\n        /* \"#utility.yul\":15668:15747   */\n      tag_563\n      tag_319\n      jump\t// in\n    tag_563:\n        /* \"#utility.yul\":15632:15749   */\n    tag_562:\n        /* \"#utility.yul\":15773:15851   */\n      tag_564\n        /* \"#utility.yul\":15843:15850   */\n      dup7\n        /* \"#utility.yul\":15834:15840   */\n      dup3\n        /* \"#utility.yul\":15823:15832   */\n      dup8\n        /* \"#utility.yul\":15819:15841   */\n      add\n        /* \"#utility.yul\":15773:15851   */\n      tag_359\n      jump\t// in\n    tag_564:\n        /* \"#utility.yul\":15763:15851   */\n      swap2\n      pop\n        /* \"#utility.yul\":15558:15861   */\n      pop\n        /* \"#utility.yul\":14619:15868   */\n      swap3\n      pop\n      swap3\n      pop\n      swap3\n      jump\t// out\n        /* \"#utility.yul\":15874:16493   */\n    tag_109:\n        /* \"#utility.yul\":15951:15957   */\n      0x00\n        /* \"#utility.yul\":15959:15965   */\n      0x00\n        /* \"#utility.yul\":15967:15973   */\n      0x00\n        /* \"#utility.yul\":16016:16018   */\n      0x60\n        /* \"#utility.yul\":16004:16013   */\n      dup5\n        /* \"#utility.yul\":15995:16002   */\n      dup7\n        /* \"#utility.yul\":15991:16014   */\n      sub\n        /* \"#utility.yul\":15987:16019   */\n      slt\n        /* \"#utility.yul\":15984:16103   */\n      iszero\n      tag_566\n      jumpi\n        /* \"#utility.yul\":16022:16101   */\n      tag_567\n      tag_318\n      jump\t// in\n    tag_567:\n        /* \"#utility.yul\":15984:16103   */\n    tag_566:\n        /* \"#utility.yul\":16142:16143   */\n      0x00\n        /* \"#utility.yul\":16167:16220   */\n      tag_568\n        /* \"#utility.yul\":16212:16219   */\n      dup7\n        /* \"#utility.yul\":16203:16209   */\n      dup3\n        /* \"#utility.yul\":16192:16201   */\n      dup8\n        /* \"#utility.yul\":16188:16210   */\n      add\n        /* \"#utility.yul\":16167:16220   */\n      tag_332\n      jump\t// in\n    tag_568:\n        /* \"#utility.yul\":16157:16220   */\n      swap4\n      pop\n        /* \"#utility.yul\":16113:16230   */\n      pop\n        /* \"#utility.yul\":16269:16271   */\n      0x20\n        /* \"#utility.yul\":16295:16348   */\n      tag_569\n        /* \"#utility.yul\":16340:16347   */\n      dup7\n        /* \"#utility.yul\":16331:16337   */\n      dup3\n        /* \"#utility.yul\":16320:16329   */\n      dup8\n        /* \"#utility.yul\":16316:16338   */\n      add\n        /* \"#utility.yul\":16295:16348   */\n      tag_332\n      jump\t// in\n    tag_569:\n        /* \"#utility.yul\":16285:16348   */\n      swap3\n      pop\n        /* \"#utility.yul\":16240:16358   */\n      pop\n        /* \"#utility.yul\":16397:16399   */\n      0x40\n        /* \"#utility.yul\":16423:16476   */\n      tag_570\n        /* \"#utility.yul\":16468:16475   */\n      dup7\n        /* \"#utility.yul\":16459:16465   */\n      dup3\n        /* \"#utility.yul\":16448:16457   */\n      dup8\n        /* \"#utility.yul\":16444:16466   */\n      add\n        /* \"#utility.yul\":16423:16476   */\n      tag_339\n      jump\t// in\n    tag_570:\n        /* \"#utility.yul\":16413:16476   */\n      swap2\n      pop\n        /* \"#utility.yul\":16368:16486   */\n      pop\n        /* \"#utility.yul\":15874:16493   */\n      swap3\n      pop\n      swap3\n      pop\n      swap3\n      jump\t// out\n        /* \"#utility.yul\":16499:16668   */\n    tag_360:\n        /* \"#utility.yul\":16583:16594   */\n      0x00\n        /* \"#utility.yul\":16617:16623   */\n      dup3\n        /* \"#utility.yul\":16612:16615   */\n      dup3\n        /* \"#utility.yul\":16605:16624   */\n      mstore\n        /* \"#utility.yul\":16657:16661   */\n      0x20\n        /* \"#utility.yul\":16652:16655   */\n      dup3\n        /* \"#utility.yul\":16648:16662   */\n      add\n        /* \"#utility.yul\":16633:16662   */\n      swap1\n      pop\n        /* \"#utility.yul\":16499:16668   */\n      swap3\n      swap2\n      pop\n      pop\n      jump\t// out\n        /* \"#utility.yul\":16674:16908   */\n    tag_361:\n        /* \"#utility.yul\":16814:16848   */\n      0x416363657373436f6e74726f6c3a2063616e206f6e6c792072656e6f756e6365\n        /* \"#utility.yul\":16810:16811   */\n      0x00\n        /* \"#utility.yul\":16802:16808   */\n      dup3\n        /* \"#utility.yul\":16798:16812   */\n      add\n        /* \"#utility.yul\":16791:16849   */\n      mstore\n        /* \"#utility.yul\":16883:16900   */\n      0x20726f6c657320666f722073656c660000000000000000000000000000000000\n        /* \"#utility.yul\":16878:16880   */\n      0x20\n        /* \"#utility.yul\":16870:16876   */\n      dup3\n        /* \"#utility.yul\":16866:16881   */\n      add\n        /* \"#utility.yul\":16859:16901   */\n      mstore\n        /* \"#utility.yul\":16674:16908   */\n      pop\n      jump\t// out\n        /* \"#utility.yul\":16914:17280   */\n    tag_362:\n        /* \"#utility.yul\":17056:17059   */\n      0x00\n        /* \"#utility.yul\":17077:17144   */\n      tag_574\n        /* \"#utility.yul\":17141:17143   */\n      0x2f\n        /* \"#utility.yul\":17136:17139   */\n      dup4\n        /* \"#utility.yul\":17077:17144   */\n      tag_360\n      jump\t// in\n    tag_574:\n        /* \"#utility.yul\":17070:17144   */\n      swap2\n      pop\n        /* \"#utility.yul\":17153:17246   */\n      tag_575\n        /* \"#utility.yul\":17242:17245   */\n      dup3\n        /* \"#utility.yul\":17153:17246   */\n      tag_361\n      jump\t// in\n    tag_575:\n        /* \"#utility.yul\":17271:17273   */\n      0x40\n        /* \"#utility.yul\":17266:17269   */\n      dup3\n        /* \"#utility.yul\":17262:17274   */\n      add\n        /* \"#utility.yul\":17255:17274   */\n      swap1\n      pop\n        /* \"#utility.yul\":16914:17280   */\n      swap2\n      swap1\n      pop\n      jump\t// out\n        /* \"#utility.yul\":17286:17705   */\n    tag_128:\n        /* \"#utility.yul\":17452:17456   */\n      0x00\n        /* \"#utility.yul\":17490:17492   */\n      0x20\n        /* \"#utility.yul\":17479:17488   */\n      dup3\n        /* \"#utility.yul\":17475:17493   */\n      add\n        /* \"#utility.yul\":17467:17493   */\n      swap1\n      pop\n        /* \"#utility.yul\":17539:17548   */\n      dup2\n        /* \"#utility.yul\":17533:17537   */\n      dup2\n        /* \"#utility.yul\":17529:17549   */\n      sub\n        /* \"#utility.yul\":17525:17526   */\n      0x00\n        /* \"#utility.yul\":17514:17523   */\n      dup4\n        /* \"#utility.yul\":17510:17527   */\n      add\n        /* \"#utility.yul\":17503:17550   */\n      mstore\n        /* \"#utility.yul\":17567:17698   */\n      tag_577\n        /* \"#utility.yul\":17693:17697   */\n      dup2\n        /* \"#utility.yul\":17567:17698   */\n      tag_362\n      jump\t// in\n    tag_577:\n        /* \"#utility.yul\":17559:17698   */\n      swap1\n      pop\n        /* \"#utility.yul\":17286:17705   */\n      swap2\n      swap1\n      pop\n      jump\t// out\n        /* \"#utility.yul\":17711:17891   */\n    tag_139:\n        /* \"#utility.yul\":17759:17836   */\n      0x4e487b7100000000000000000000000000000000000000000000000000000000\n        /* \"#utility.yul\":17756:17757   */\n      0x00\n        /* \"#utility.yul\":17749:17837   */\n      mstore\n        /* \"#utility.yul\":17856:17860   */\n      0x32\n        /* \"#utility.yul\":17853:17854   */\n      0x04\n        /* \"#utility.yul\":17846:17861   */\n      mstore\n        /* \"#utility.yul\":17880:17884   */\n      0x24\n        /* \"#utility.yul\":17877:17878   */\n      0x00\n        /* \"#utility.yul\":17870:17885   */\n      revert\n        /* \"#utility.yul\":17897:18076   */\n    tag_363:\n        /* \"#utility.yul\":18037:18068   */\n      0x556e69737761705632526f757465723a20494e56414c49445f50415448000000\n        /* \"#utility.yul\":18033:18034   */\n      0x00\n        /* \"#utility.yul\":18025:18031   */\n      dup3\n        /* \"#utility.yul\":18021:18035   */\n      add\n        /* \"#utility.yul\":18014:18069   */\n      mstore\n        /* \"#utility.yul\":17897:18076   */\n      pop\n      jump\t// out\n        /* \"#utility.yul\":18082:18448   */\n    tag_364:\n        /* \"#utility.yul\":18224:18227   */\n      0x00\n        /* \"#utility.yul\":18245:18312   */\n      tag_581\n        /* \"#utility.yul\":18309:18311   */\n      0x1d\n        /* \"#utility.yul\":18304:18307   */\n      dup4\n        /* \"#utility.yul\":18245:18312   */\n      tag_360\n      jump\t// in\n    tag_581:\n        /* \"#utility.yul\":18238:18312   */\n      swap2\n      pop\n        /* \"#utility.yul\":18321:18414   */\n      tag_582\n        /* \"#utility.yul\":18410:18413   */\n      dup3\n        /* \"#utility.yul\":18321:18414   */\n      tag_363\n      jump\t// in\n    tag_582:\n        /* \"#utility.yul\":18439:18441   */\n      0x20\n        /* \"#utility.yul\":18434:18437   */\n      dup3\n        /* \"#utility.yul\":18430:18442   */\n      add\n        /* \"#utility.yul\":18423:18442   */\n      swap1\n      pop\n        /* \"#utility.yul\":18082:18448   */\n      swap2\n      swap1\n      pop\n      jump\t// out\n        /* \"#utility.yul\":18454:18873   */\n    tag_143:\n        /* \"#utility.yul\":18620:18624   */\n      0x00\n        /* \"#utility.yul\":18658:18660   */\n      0x20\n        /* \"#utility.yul\":18647:18656   */\n      dup3\n        /* \"#utility.yul\":18643:18661   */\n      add\n        /* \"#utility.yul\":18635:18661   */\n      swap1\n      pop\n        /* \"#utility.yul\":18707:18716   */\n      dup2\n        /* \"#utility.yul\":18701:18705   */\n      dup2\n        /* \"#utility.yul\":18697:18717   */\n      sub\n        /* \"#utility.yul\":18693:18694   */\n      0x00\n        /* \"#utility.yul\":18682:18691   */\n      dup4\n        /* \"#utility.yul\":18678:18695   */\n      add\n        /* \"#utility.yul\":18671:18718   */\n      mstore\n        /* \"#utility.yul\":18735:18866   */\n      tag_584\n        /* \"#utility.yul\":18861:18865   */\n      dup2\n        /* \"#utility.yul\":18735:18866   */\n      tag_364\n      jump\t// in\n    tag_584:\n        /* \"#utility.yul\":18727:18866   */\n      swap1\n      pop\n        /* \"#utility.yul\":18454:18873   */\n      swap2\n      swap1\n      pop\n      jump\t// out\n        /* \"#utility.yul\":18879:19053   */\n    tag_365:\n        /* \"#utility.yul\":19019:19045   */\n      0x556e69737761705632526f757465723a20455850495245440000000000000000\n        /* \"#utility.yul\":19015:19016   */\n      0x00\n        /* \"#utility.yul\":19007:19013   */\n      dup3\n        /* \"#utility.yul\":19003:19017   */\n      add\n        /* \"#utility.yul\":18996:19046   */\n      mstore\n        /* \"#utility.yul\":18879:19053   */\n      pop\n      jump\t// out\n        /* \"#utility.yul\":19059:19425   */\n    tag_366:\n        /* \"#utility.yul\":19201:19204   */\n      0x00\n        /* \"#utility.yul\":19222:19289   */\n      tag_587\n        /* \"#utility.yul\":19286:19288   */\n      0x18\n        /* \"#utility.yul\":19281:19284   */\n      dup4\n        /* \"#utility.yul\":19222:19289   */\n      tag_360\n      jump\t// in\n    tag_587:\n        /* \"#utility.yul\":19215:19289   */\n      swap2\n      pop\n        /* \"#utility.yul\":19298:19391   */\n      tag_588\n        /* \"#utility.yul\":19387:19390   */\n      dup3\n        /* \"#utility.yul\":19298:19391   */\n      tag_365\n      jump\t// in\n    tag_588:\n        /* \"#utility.yul\":19416:19418   */\n      0x20\n        /* \"#utility.yul\":19411:19414   */\n      dup3\n        /* \"#utility.yul\":19407:19419   */\n      add\n        /* \"#utility.yul\":19400:19419   */\n      swap1\n      pop\n        /* \"#utility.yul\":19059:19425   */\n      swap2\n      swap1\n      pop\n      jump\t// out\n        /* \"#utility.yul\":19431:19850   */\n    tag_146:\n        /* \"#utility.yul\":19597:19601   */\n      0x00\n        /* \"#utility.yul\":19635:19637   */\n      0x20\n        /* \"#utility.yul\":19624:19633   */\n      dup3\n        /* \"#utility.yul\":19620:19638   */\n      add\n        /* \"#utility.yul\":19612:19638   */\n      swap1\n      pop\n        /* \"#utility.yul\":19684:19693   */\n      dup2\n        /* \"#utility.yul\":19678:19682   */\n      dup2\n        /* \"#utility.yul\":19674:19694   */\n      sub\n        /* \"#utility.yul\":19670:19671   */\n      0x00\n        /* \"#utility.yul\":19659:19668   */\n      dup4\n        /* \"#utility.yul\":19655:19672   */\n      add\n        /* \"#utility.yul\":19648:19695   */\n      mstore\n        /* \"#utility.yul\":19712:19843   */\n      tag_590\n        /* \"#utility.yul\":19838:19842   */\n      dup2\n        /* \"#utility.yul\":19712:19843   */\n      tag_366\n      jump\t// in\n    tag_590:\n        /* \"#utility.yul\":19704:19843   */\n      swap1\n      pop\n        /* \"#utility.yul\":19431:19850   */\n      swap2\n      swap1\n      pop\n      jump\t// out\n        /* \"#utility.yul\":19856:20086   */\n    tag_367:\n        /* \"#utility.yul\":19996:20030   */\n      0x556e69737761705632526f757465723a20494e53554646494349454e545f4f55\n        /* \"#utility.yul\":19992:19993   */\n      0x00\n        /* \"#utility.yul\":19984:19990   */\n      dup3\n        /* \"#utility.yul\":19980:19994   */\n      add\n        /* \"#utility.yul\":19973:20031   */\n      mstore\n        /* \"#utility.yul\":20065:20078   */\n      0x545055545f414d4f554e54000000000000000000000000000000000000000000\n        /* \"#utility.yul\":20060:20062   */\n      0x20\n        /* \"#utility.yul\":20052:20058   */\n      dup3\n        /* \"#utility.yul\":20048:20063   */\n      add\n        /* \"#utility.yul\":20041:20079   */\n      mstore\n        /* \"#utility.yul\":19856:20086   */\n      pop\n      jump\t// out\n        /* \"#utility.yul\":20092:20458   */\n    tag_368:\n        /* \"#utility.yul\":20234:20237   */\n      0x00\n        /* \"#utility.yul\":20255:20322   */\n      tag_593\n        /* \"#utility.yul\":20319:20321   */\n      0x2b\n        /* \"#utility.yul\":20314:20317   */\n      dup4\n        /* \"#utility.yul\":20255:20322   */\n      tag_360\n      jump\t// in\n    tag_593:\n        /* \"#utility.yul\":20248:20322   */\n      swap2\n      pop\n        /* \"#utility.yul\":20331:20424   */\n      tag_594\n        /* \"#utility.yul\":20420:20423   */\n      dup3\n        /* \"#utility.yul\":20331:20424   */\n      tag_367\n      jump\t// in\n    tag_594:\n        /* \"#utility.yul\":20449:20451   */\n      0x40\n        /* \"#utility.yul\":20444:20447   */\n      dup3\n        /* \"#utility.yul\":20440:20452   */\n      add\n        /* \"#utility.yul\":20433:20452   */\n      swap1\n      pop\n        /* \"#utility.yul\":20092:20458   */\n      swap2\n      swap1\n      pop\n      jump\t// out\n        /* \"#utility.yul\":20464:20883   */\n    tag_153:\n        /* \"#utility.yul\":20630:20634   */\n      0x00\n        /* \"#utility.yul\":20668:20670   */\n      0x20\n        /* \"#utility.yul\":20657:20666   */\n      dup3\n        /* \"#utility.yul\":20653:20671   */\n      add\n        /* \"#utility.yul\":20645:20671   */\n      swap1\n      pop\n        /* \"#utility.yul\":20717:20726   */\n      dup2\n        /* \"#utility.yul\":20711:20715   */\n      dup2\n        /* \"#utility.yul\":20707:20727   */\n      sub\n        /* \"#utility.yul\":20703:20704   */\n      0x00\n        /* \"#utility.yul\":20692:20701   */\n      dup4\n        /* \"#utility.yul\":20688:20705   */\n      add\n        /* \"#utility.yul\":20681:20728   */\n      mstore\n        /* \"#utility.yul\":20745:20876   */\n      tag_596\n        /* \"#utility.yul\":20871:20875   */\n      dup2\n        /* \"#utility.yul\":20745:20876   */\n      tag_368\n      jump\t// in\n    tag_596:\n        /* \"#utility.yul\":20737:20876   */\n      swap1\n      pop\n        /* \"#utility.yul\":20464:20883   */\n      swap2\n      swap1\n      pop\n      jump\t// out\n        /* \"#utility.yul\":20889:21221   */\n    tag_161:\n        /* \"#utility.yul\":21010:21014   */\n      0x00\n        /* \"#utility.yul\":21048:21050   */\n      0x40\n        /* \"#utility.yul\":21037:21046   */\n      dup3\n        /* \"#utility.yul\":21033:21051   */\n      add\n        /* \"#utility.yul\":21025:21051   */\n      swap1\n      pop\n        /* \"#utility.yul\":21061:21132   */\n      tag_598\n        /* \"#utility.yul\":21129:21130   */\n      0x00\n        /* \"#utility.yul\":21118:21127   */\n      dup4\n        /* \"#utility.yul\":21114:21131   */\n      add\n        /* \"#utility.yul\":21105:21111   */\n      dup6\n        /* \"#utility.yul\":21061:21132   */\n      tag_337\n      jump\t// in\n    tag_598:\n        /* \"#utility.yul\":21142:21214   */\n      tag_599\n        /* \"#utility.yul\":21210:21212   */\n      0x20\n        /* \"#utility.yul\":21199:21208   */\n      dup4\n        /* \"#utility.yul\":21195:21213   */\n      add\n        /* \"#utility.yul\":21186:21192   */\n      dup5\n        /* \"#utility.yul\":21142:21214   */\n      tag_337\n      jump\t// in\n    tag_599:\n        /* \"#utility.yul\":20889:21221   */\n      swap4\n      swap3\n      pop\n      pop\n      pop\n      jump\t// out\n        /* \"#utility.yul\":21227:21370   */\n    tag_369:\n        /* \"#utility.yul\":21284:21289   */\n      0x00\n        /* \"#utility.yul\":21315:21321   */\n      dup2\n        /* \"#utility.yul\":21309:21322   */\n      mload\n        /* \"#utility.yul\":21300:21322   */\n      swap1\n      pop\n        /* \"#utility.yul\":21331:21364   */\n      tag_601\n        /* \"#utility.yul\":21358:21363   */\n      dup2\n        /* \"#utility.yul\":21331:21364   */\n      tag_338\n      jump\t// in\n    tag_601:\n        /* \"#utility.yul\":21227:21370   */\n      swap3\n      swap2\n      pop\n      pop\n      jump\t// out\n        /* \"#utility.yul\":21376:21727   */\n    tag_165:\n        /* \"#utility.yul\":21446:21452   */\n      0x00\n        /* \"#utility.yul\":21495:21497   */\n      0x20\n        /* \"#utility.yul\":21483:21492   */\n      dup3\n        /* \"#utility.yul\":21474:21481   */\n      dup5\n        /* \"#utility.yul\":21470:21493   */\n      sub\n        /* \"#utility.yul\":21466:21498   */\n      slt\n        /* \"#utility.yul\":21463:21582   */\n      iszero\n      tag_603\n      jumpi\n        /* \"#utility.yul\":21501:21580   */\n      tag_604\n      tag_318\n      jump\t// in\n    tag_604:\n        /* \"#utility.yul\":21463:21582   */\n    tag_603:\n        /* \"#utility.yul\":21621:21622   */\n      0x00\n        /* \"#utility.yul\":21646:21710   */\n      tag_605\n        /* \"#utility.yul\":21702:21709   */\n      dup5\n        /* \"#utility.yul\":21693:21699   */\n      dup3\n        /* \"#utility.yul\":21682:21691   */\n      dup6\n        /* \"#utility.yul\":21678:21700   */\n      add\n        /* \"#utility.yul\":21646:21710   */\n      tag_369\n      jump\t// in\n    tag_605:\n        /* \"#utility.yul\":21636:21710   */\n      swap2\n      pop\n        /* \"#utility.yul\":21592:21720   */\n      pop\n        /* \"#utility.yul\":21376:21727   */\n      swap3\n      swap2\n      pop\n      pop\n      jump\t// out\n        /* \"#utility.yul\":21733:21964   */\n    tag_370:\n        /* \"#utility.yul\":21873:21907   */\n      0x556e69737761705632526f757465723a20494e53554646494349454e545f414d\n        /* \"#utility.yul\":21869:21870   */\n      0x00\n        /* \"#utility.yul\":21861:21867   */\n      dup3\n        /* \"#utility.yul\":21857:21871   */\n      add\n        /* \"#utility.yul\":21850:21908   */\n      mstore\n        /* \"#utility.yul\":21942:21956   */\n      0x4f554e545f414c4c4f5745440000000000000000000000000000000000000000\n        /* \"#utility.yul\":21937:21939   */\n      0x20\n        /* \"#utility.yul\":21929:21935   */\n      dup3\n        /* \"#utility.yul\":21925:21940   */\n      add\n        /* \"#utility.yul\":21918:21957   */\n      mstore\n        /* \"#utility.yul\":21733:21964   */\n      pop\n      jump\t// out\n        /* \"#utility.yul\":21970:22336   */\n    tag_371:\n        /* \"#utility.yul\":22112:22115   */\n      0x00\n        /* \"#utility.yul\":22133:22200   */\n      tag_608\n        /* \"#utility.yul\":22197:22199   */\n      0x2c\n        /* \"#utility.yul\":22192:22195   */\n      dup4\n        /* \"#utility.yul\":22133:22200   */\n      tag_360\n      jump\t// in\n    tag_608:\n        /* \"#utility.yul\":22126:22200   */\n      swap2\n      pop\n        /* \"#utility.yul\":22209:22302   */\n      tag_609\n        /* \"#utility.yul\":22298:22301   */\n      dup3\n        /* \"#utility.yul\":22209:22302   */\n      tag_370\n      jump\t// in\n    tag_609:\n        /* \"#utility.yul\":22327:22329   */\n      0x40\n        /* \"#utility.yul\":22322:22325   */\n      dup3\n        /* \"#utility.yul\":22318:22330   */\n      add\n        /* \"#utility.yul\":22311:22330   */\n      swap1\n      pop\n        /* \"#utility.yul\":21970:22336   */\n      swap2\n      swap1\n      pop\n      jump\t// out\n        /* \"#utility.yul\":22342:22761   */\n    tag_168:\n        /* \"#utility.yul\":22508:22512   */\n      0x00\n        /* \"#utility.yul\":22546:22548   */\n      0x20\n        /* \"#utility.yul\":22535:22544   */\n      dup3\n        /* \"#utility.yul\":22531:22549   */\n      add\n        /* \"#utility.yul\":22523:22549   */\n      swap1\n      pop\n        /* \"#utility.yul\":22595:22604   */\n      dup2\n        /* \"#utility.yul\":22589:22593   */\n      dup2\n        /* \"#utility.yul\":22585:22605   */\n      sub\n        /* \"#utility.yul\":22581:22582   */\n      0x00\n        /* \"#utility.yul\":22570:22579   */\n      dup4\n        /* \"#utility.yul\":22566:22583   */\n      add\n        /* \"#utility.yul\":22559:22606   */\n      mstore\n        /* \"#utility.yul\":22623:22754   */\n      tag_611\n        /* \"#utility.yul\":22749:22753   */\n      dup2\n        /* \"#utility.yul\":22623:22754   */\n      tag_371\n      jump\t// in\n    tag_611:\n        /* \"#utility.yul\":22615:22754   */\n      swap1\n      pop\n        /* \"#utility.yul\":22342:22761   */\n      swap2\n      swap1\n      pop\n      jump\t// out\n        /* \"#utility.yul\":22767:23099   */\n    tag_176:\n        /* \"#utility.yul\":22888:22892   */\n      0x00\n        /* \"#utility.yul\":22926:22928   */\n      0x40\n        /* \"#utility.yul\":22915:22924   */\n      dup3\n        /* \"#utility.yul\":22911:22929   */\n      add\n        /* \"#utility.yul\":22903:22929   */\n      swap1\n      pop\n        /* \"#utility.yul\":22939:23010   */\n      tag_613\n        /* \"#utility.yul\":23007:23008   */\n      0x00\n        /* \"#utility.yul\":22996:23005   */\n      dup4\n        /* \"#utility.yul\":22992:23009   */\n      add\n        /* \"#utility.yul\":22983:22989   */\n      dup6\n        /* \"#utility.yul\":22939:23010   */\n      tag_337\n      jump\t// in\n    tag_613:\n        /* \"#utility.yul\":23020:23092   */\n      tag_614\n        /* \"#utility.yul\":23088:23090   */\n      0x20\n        /* \"#utility.yul\":23077:23086   */\n      dup4\n        /* \"#utility.yul\":23073:23091   */\n      add\n        /* \"#utility.yul\":23064:23070   */\n      dup5\n        /* \"#utility.yul\":23020:23092   */\n      tag_344\n      jump\t// in\n    tag_614:\n        /* \"#utility.yul\":22767:23099   */\n      swap4\n      swap3\n      pop\n      pop\n      pop\n      jump\t// out\n        /* \"#utility.yul\":23105:23221   */\n    tag_372:\n        /* \"#utility.yul\":23175:23196   */\n      tag_616\n        /* \"#utility.yul\":23190:23195   */\n      dup2\n        /* \"#utility.yul\":23175:23196   */\n      tag_323\n      jump\t// in\n    tag_616:\n        /* \"#utility.yul\":23168:23173   */\n      dup2\n        /* \"#utility.yul\":23165:23197   */\n      eq\n        /* \"#utility.yul\":23155:23215   */\n      tag_617\n      jumpi\n        /* \"#utility.yul\":23211:23212   */\n      0x00\n        /* \"#utility.yul\":23208:23209   */\n      0x00\n        /* \"#utility.yul\":23201:23213   */\n      revert\n        /* \"#utility.yul\":23155:23215   */\n    tag_617:\n        /* \"#utility.yul\":23105:23221   */\n      pop\n      jump\t// out\n        /* \"#utility.yul\":23227:23364   */\n    tag_373:\n        /* \"#utility.yul\":23281:23286   */\n      0x00\n        /* \"#utility.yul\":23312:23318   */\n      dup2\n        /* \"#utility.yul\":23306:23319   */\n      mload\n        /* \"#utility.yul\":23297:23319   */\n      swap1\n      pop\n        /* \"#utility.yul\":23328:23358   */\n      tag_619\n        /* \"#utility.yul\":23352:23357   */\n      dup2\n        /* \"#utility.yul\":23328:23358   */\n      tag_372\n      jump\t// in\n    tag_619:\n        /* \"#utility.yul\":23227:23364   */\n      swap3\n      swap2\n      pop\n      pop\n      jump\t// out\n        /* \"#utility.yul\":23370:23715   */\n    tag_180:\n        /* \"#utility.yul\":23437:23443   */\n      0x00\n        /* \"#utility.yul\":23486:23488   */\n      0x20\n        /* \"#utility.yul\":23474:23483   */\n      dup3\n        /* \"#utility.yul\":23465:23472   */\n      dup5\n        /* \"#utility.yul\":23461:23484   */\n      sub\n        /* \"#utility.yul\":23457:23489   */\n      slt\n        /* \"#utility.yul\":23454:23573   */\n      iszero\n      tag_621\n      jumpi\n        /* \"#utility.yul\":23492:23571   */\n      tag_622\n      tag_318\n      jump\t// in\n    tag_622:\n        /* \"#utility.yul\":23454:23573   */\n    tag_621:\n        /* \"#utility.yul\":23612:23613   */\n      0x00\n        /* \"#utility.yul\":23637:23698   */\n      tag_623\n        /* \"#utility.yul\":23690:23697   */\n      dup5\n        /* \"#utility.yul\":23681:23687   */\n      dup3\n        /* \"#utility.yul\":23670:23679   */\n      dup6\n        /* \"#utility.yul\":23666:23688   */\n      add\n        /* \"#utility.yul\":23637:23698   */\n      tag_373\n      jump\t// in\n    tag_623:\n        /* \"#utility.yul\":23627:23698   */\n      swap2\n      pop\n        /* \"#utility.yul\":23583:23708   */\n      pop\n        /* \"#utility.yul\":23370:23715   */\n      swap3\n      swap2\n      pop\n      pop\n      jump\t// out\n        /* \"#utility.yul\":23721:24163   */\n    tag_185:\n        /* \"#utility.yul\":23870:23874   */\n      0x00\n        /* \"#utility.yul\":23908:23910   */\n      0x60\n        /* \"#utility.yul\":23897:23906   */\n      dup3\n        /* \"#utility.yul\":23893:23911   */\n      add\n        /* \"#utility.yul\":23885:23911   */\n      swap1\n      pop\n        /* \"#utility.yul\":23921:23992   */\n      tag_625\n        /* \"#utility.yul\":23989:23990   */\n      0x00\n        /* \"#utility.yul\":23978:23987   */\n      dup4\n        /* \"#utility.yul\":23974:23991   */\n      add\n        /* \"#utility.yul\":23965:23971   */\n      dup7\n        /* \"#utility.yul\":23921:23992   */\n      tag_337\n      jump\t// in\n    tag_625:\n        /* \"#utility.yul\":24002:24074   */\n      tag_626\n        /* \"#utility.yul\":24070:24072   */\n      0x20\n        /* \"#utility.yul\":24059:24068   */\n      dup4\n        /* \"#utility.yul\":24055:24073   */\n      add\n        /* \"#utility.yul\":24046:24052   */\n      dup6\n        /* \"#utility.yul\":24002:24074   */\n      tag_337\n      jump\t// in\n    tag_626:\n        /* \"#utility.yul\":24084:24156   */\n      tag_627\n        /* \"#utility.yul\":24152:24154   */\n      0x40\n        /* \"#utility.yul\":24141:24150   */\n      dup4\n        /* \"#utility.yul\":24137:24155   */\n      add\n        /* \"#utility.yul\":24128:24134   */\n      dup5\n        /* \"#utility.yul\":24084:24156   */\n      tag_344\n      jump\t// in\n    tag_627:\n        /* \"#utility.yul\":23721:24163   */\n      swap5\n      swap4\n      pop\n      pop\n      pop\n      pop\n      jump\t// out\n        /* \"#utility.yul\":24169:24409   */\n    tag_374:\n        /* \"#utility.yul\":24309:24343   */\n      0x556e69737761705632526f757465723a20616d6f756e74496e2073686f756c64\n        /* \"#utility.yul\":24305:24306   */\n      0x00\n        /* \"#utility.yul\":24297:24303   */\n      dup3\n        /* \"#utility.yul\":24293:24307   */\n      add\n        /* \"#utility.yul\":24286:24344   */\n      mstore\n        /* \"#utility.yul\":24378:24401   */\n      0x2062652067726561746572207468616e207a65726f0000000000000000000000\n        /* \"#utility.yul\":24373:24375   */\n      0x20\n        /* \"#utility.yul\":24365:24371   */\n      dup3\n        /* \"#utility.yul\":24361:24376   */\n      add\n        /* \"#utility.yul\":24354:24402   */\n      mstore\n        /* \"#utility.yul\":24169:24409   */\n      pop\n      jump\t// out\n        /* \"#utility.yul\":24415:24781   */\n    tag_375:\n        /* \"#utility.yul\":24557:24560   */\n      0x00\n        /* \"#utility.yul\":24578:24645   */\n      tag_630\n        /* \"#utility.yul\":24642:24644   */\n      0x35\n        /* \"#utility.yul\":24637:24640   */\n      dup4\n        /* \"#utility.yul\":24578:24645   */\n      tag_360\n      jump\t// in\n    tag_630:\n        /* \"#utility.yul\":24571:24645   */\n      swap2\n      pop\n        /* \"#utility.yul\":24654:24747   */\n      tag_631\n        /* \"#utility.yul\":24743:24746   */\n      dup3\n        /* \"#utility.yul\":24654:24747   */\n      tag_374\n      jump\t// in\n    tag_631:\n        /* \"#utility.yul\":24772:24774   */\n      0x40\n        /* \"#utility.yul\":24767:24770   */\n      dup3\n        /* \"#utility.yul\":24763:24775   */\n      add\n        /* \"#utility.yul\":24756:24775   */\n      swap1\n      pop\n        /* \"#utility.yul\":24415:24781   */\n      swap2\n      swap1\n      pop\n      jump\t// out\n        /* \"#utility.yul\":24787:25206   */\n    tag_193:\n        /* \"#utility.yul\":24953:24957   */\n      0x00\n        /* \"#utility.yul\":24991:24993   */\n      0x20\n        /* \"#utility.yul\":24980:24989   */\n      dup3\n        /* \"#utility.yul\":24976:24994   */\n      add\n        /* \"#utility.yul\":24968:24994   */\n      swap1\n      pop\n        /* \"#utility.yul\":25040:25049   */\n      dup2\n        /* \"#utility.yul\":25034:25038   */\n      dup2\n        /* \"#utility.yul\":25030:25050   */\n      sub\n        /* \"#utility.yul\":25026:25027   */\n      0x00\n        /* \"#utility.yul\":25015:25024   */\n      dup4\n        /* \"#utility.yul\":25011:25028   */\n      add\n        /* \"#utility.yul\":25004:25051   */\n      mstore\n        /* \"#utility.yul\":25068:25199   */\n      tag_633\n        /* \"#utility.yul\":25194:25198   */\n      dup2\n        /* \"#utility.yul\":25068:25199   */\n      tag_375\n      jump\t// in\n    tag_633:\n        /* \"#utility.yul\":25060:25199   */\n      swap1\n      pop\n        /* \"#utility.yul\":24787:25206   */\n      swap2\n      swap1\n      pop\n      jump\t// out\n        /* \"#utility.yul\":25212:25449   */\n    tag_376:\n        /* \"#utility.yul\":25352:25386   */\n      0x556e69737761705632526f757465723a207061746820636f6e7461696e732061\n        /* \"#utility.yul\":25348:25349   */\n      0x00\n        /* \"#utility.yul\":25340:25346   */\n      dup3\n        /* \"#utility.yul\":25336:25350   */\n      add\n        /* \"#utility.yul\":25329:25387   */\n      mstore\n        /* \"#utility.yul\":25421:25441   */\n      0x74206c65617374203220656c656d656e74730000000000000000000000000000\n        /* \"#utility.yul\":25416:25418   */\n      0x20\n        /* \"#utility.yul\":25408:25414   */\n      dup3\n        /* \"#utility.yul\":25404:25419   */\n      add\n        /* \"#utility.yul\":25397:25442   */\n      mstore\n        /* \"#utility.yul\":25212:25449   */\n      pop\n      jump\t// out\n        /* \"#utility.yul\":25455:25821   */\n    tag_377:\n        /* \"#utility.yul\":25597:25600   */\n      0x00\n        /* \"#utility.yul\":25618:25685   */\n      tag_636\n        /* \"#utility.yul\":25682:25684   */\n      0x32\n        /* \"#utility.yul\":25677:25680   */\n      dup4\n        /* \"#utility.yul\":25618:25685   */\n      tag_360\n      jump\t// in\n    tag_636:\n        /* \"#utility.yul\":25611:25685   */\n      swap2\n      pop\n        /* \"#utility.yul\":25694:25787   */\n      tag_637\n        /* \"#utility.yul\":25783:25786   */\n      dup3\n        /* \"#utility.yul\":25694:25787   */\n      tag_376\n      jump\t// in\n    tag_637:\n        /* \"#utility.yul\":25812:25814   */\n      0x40\n        /* \"#utility.yul\":25807:25810   */\n      dup3\n        /* \"#utility.yul\":25803:25815   */\n      add\n        /* \"#utility.yul\":25796:25815   */\n      swap1\n      pop\n        /* \"#utility.yul\":25455:25821   */\n      swap2\n      swap1\n      pop\n      jump\t// out\n        /* \"#utility.yul\":25827:26246   */\n    tag_196:\n        /* \"#utility.yul\":25993:25997   */\n      0x00\n        /* \"#utility.yul\":26031:26033   */\n      0x20\n        /* \"#utility.yul\":26020:26029   */\n      dup3\n        /* \"#utility.yul\":26016:26034   */\n      add\n        /* \"#utility.yul\":26008:26034   */\n      swap1\n      pop\n        /* \"#utility.yul\":26080:26089   */\n      dup2\n        /* \"#utility.yul\":26074:26078   */\n      dup2\n        /* \"#utility.yul\":26070:26090   */\n      sub\n        /* \"#utility.yul\":26066:26067   */\n      0x00\n        /* \"#utility.yul\":26055:26064   */\n      dup4\n        /* \"#utility.yul\":26051:26068   */\n      add\n        /* \"#utility.yul\":26044:26091   */\n      mstore\n        /* \"#utility.yul\":26108:26239   */\n      tag_639\n        /* \"#utility.yul\":26234:26238   */\n      dup2\n        /* \"#utility.yul\":26108:26239   */\n      tag_377\n      jump\t// in\n    tag_639:\n        /* \"#utility.yul\":26100:26239   */\n      swap1\n      pop\n        /* \"#utility.yul\":25827:26246   */\n      swap2\n      swap1\n      pop\n      jump\t// out\n        /* \"#utility.yul\":26252:26432   */\n    tag_378:\n        /* \"#utility.yul\":26300:26377   */\n      0x4e487b7100000000000000000000000000000000000000000000000000000000\n        /* \"#utility.yul\":26297:26298   */\n      0x00\n        /* \"#utility.yul\":26290:26378   */\n      mstore\n        /* \"#utility.yul\":26397:26401   */\n      0x11\n        /* \"#utility.yul\":26394:26395   */\n      0x04\n        /* \"#utility.yul\":26387:26402   */\n      mstore\n        /* \"#utility.yul\":26421:26425   */\n      0x24\n        /* \"#utility.yul\":26418:26419   */\n      0x00\n        /* \"#utility.yul\":26411:26426   */\n      revert\n        /* \"#utility.yul\":26438:26632   */\n    tag_207:\n        /* \"#utility.yul\":26478:26482   */\n      0x00\n        /* \"#utility.yul\":26498:26518   */\n      tag_642\n        /* \"#utility.yul\":26516:26517   */\n      dup3\n        /* \"#utility.yul\":26498:26518   */\n      tag_333\n      jump\t// in\n    tag_642:\n        /* \"#utility.yul\":26493:26518   */\n      swap2\n      pop\n        /* \"#utility.yul\":26532:26552   */\n      tag_643\n        /* \"#utility.yul\":26550:26551   */\n      dup4\n        /* \"#utility.yul\":26532:26552   */\n      tag_333\n      jump\t// in\n    tag_643:\n        /* \"#utility.yul\":26527:26552   */\n      swap3\n      pop\n        /* \"#utility.yul\":26576:26577   */\n      dup3\n        /* \"#utility.yul\":26573:26574   */\n      dup3\n        /* \"#utility.yul\":26569:26578   */\n      sub\n        /* \"#utility.yul\":26561:26578   */\n      swap1\n      pop\n        /* \"#utility.yul\":26600:26601   */\n      dup2\n        /* \"#utility.yul\":26594:26598   */\n      dup2\n        /* \"#utility.yul\":26591:26602   */\n      gt\n        /* \"#utility.yul\":26588:26625   */\n      iszero\n      tag_644\n      jumpi\n        /* \"#utility.yul\":26605:26623   */\n      tag_645\n      tag_378\n      jump\t// in\n    tag_645:\n        /* \"#utility.yul\":26588:26625   */\n    tag_644:\n        /* \"#utility.yul\":26438:26632   */\n      swap3\n      swap2\n      pop\n      pop\n      jump\t// out\n        /* \"#utility.yul\":26638:26829   */\n    tag_209:\n        /* \"#utility.yul\":26678:26681   */\n      0x00\n        /* \"#utility.yul\":26697:26717   */\n      tag_647\n        /* \"#utility.yul\":26715:26716   */\n      dup3\n        /* \"#utility.yul\":26697:26717   */\n      tag_333\n      jump\t// in\n    tag_647:\n        /* \"#utility.yul\":26692:26717   */\n      swap2\n      pop\n        /* \"#utility.yul\":26731:26751   */\n      tag_648\n        /* \"#utility.yul\":26749:26750   */\n      dup4\n        /* \"#utility.yul\":26731:26751   */\n      tag_333\n      jump\t// in\n    tag_648:\n        /* \"#utility.yul\":26726:26751   */\n      swap3\n      pop\n        /* \"#utility.yul\":26774:26775   */\n      dup3\n        /* \"#utility.yul\":26771:26772   */\n      dup3\n        /* \"#utility.yul\":26767:26776   */\n      add\n        /* \"#utility.yul\":26760:26776   */\n      swap1\n      pop\n        /* \"#utility.yul\":26795:26798   */\n      dup1\n        /* \"#utility.yul\":26792:26793   */\n      dup3\n        /* \"#utility.yul\":26789:26799   */\n      gt\n        /* \"#utility.yul\":26786:26822   */\n      iszero\n      tag_649\n      jumpi\n        /* \"#utility.yul\":26802:26820   */\n      tag_650\n      tag_378\n      jump\t// in\n    tag_650:\n        /* \"#utility.yul\":26786:26822   */\n    tag_649:\n        /* \"#utility.yul\":26638:26829   */\n      swap3\n      swap2\n      pop\n      pop\n      jump\t// out\n        /* \"#utility.yul\":26835:27245   */\n    tag_220:\n        /* \"#utility.yul\":26875:26882   */\n      0x00\n        /* \"#utility.yul\":26898:26918   */\n      tag_652\n        /* \"#utility.yul\":26916:26917   */\n      dup3\n        /* \"#utility.yul\":26898:26918   */\n      tag_333\n      jump\t// in\n    tag_652:\n        /* \"#utility.yul\":26893:26918   */\n      swap2\n      pop\n        /* \"#utility.yul\":26932:26952   */\n      tag_653\n        /* \"#utility.yul\":26950:26951   */\n      dup4\n        /* \"#utility.yul\":26932:26952   */\n      tag_333\n      jump\t// in\n    tag_653:\n        /* \"#utility.yul\":26927:26952   */\n      swap3\n      pop\n        /* \"#utility.yul\":26987:26988   */\n      dup3\n        /* \"#utility.yul\":26984:26985   */\n      dup3\n        /* \"#utility.yul\":26980:26989   */\n      mul\n        /* \"#utility.yul\":27009:27039   */\n      tag_654\n        /* \"#utility.yul\":27027:27038   */\n      dup2\n        /* \"#utility.yul\":27009:27039   */\n      tag_333\n      jump\t// in\n    tag_654:\n        /* \"#utility.yul\":26998:27039   */\n      swap2\n      pop\n        /* \"#utility.yul\":27188:27189   */\n      dup3\n        /* \"#utility.yul\":27179:27186   */\n      dup3\n        /* \"#utility.yul\":27175:27190   */\n      div\n        /* \"#utility.yul\":27172:27173   */\n      dup5\n        /* \"#utility.yul\":27169:27191   */\n      eq\n        /* \"#utility.yul\":27149:27150   */\n      dup4\n        /* \"#utility.yul\":27142:27151   */\n      iszero\n        /* \"#utility.yul\":27122:27205   */\n      or\n        /* \"#utility.yul\":27099:27238   */\n      tag_655\n      jumpi\n        /* \"#utility.yul\":27218:27236   */\n      tag_656\n      tag_378\n      jump\t// in\n    tag_656:\n        /* \"#utility.yul\":27099:27238   */\n    tag_655:\n        /* \"#utility.yul\":26883:27245   */\n      pop\n        /* \"#utility.yul\":26835:27245   */\n      swap3\n      swap2\n      pop\n      pop\n      jump\t// out\n        /* \"#utility.yul\":27251:27431   */\n    tag_379:\n        /* \"#utility.yul\":27299:27376   */\n      0x4e487b7100000000000000000000000000000000000000000000000000000000\n        /* \"#utility.yul\":27296:27297   */\n      0x00\n        /* \"#utility.yul\":27289:27377   */\n      mstore\n        /* \"#utility.yul\":27396:27400   */\n      0x12\n        /* \"#utility.yul\":27393:27394   */\n      0x04\n        /* \"#utility.yul\":27386:27401   */\n      mstore\n        /* \"#utility.yul\":27420:27424   */\n      0x24\n        /* \"#utility.yul\":27417:27418   */\n      0x00\n        /* \"#utility.yul\":27410:27425   */\n      revert\n        /* \"#utility.yul\":27437:27622   */\n    tag_222:\n        /* \"#utility.yul\":27477:27478   */\n      0x00\n        /* \"#utility.yul\":27494:27514   */\n      tag_659\n        /* \"#utility.yul\":27512:27513   */\n      dup3\n        /* \"#utility.yul\":27494:27514   */\n      tag_333\n      jump\t// in\n    tag_659:\n        /* \"#utility.yul\":27489:27514   */\n      swap2\n      pop\n        /* \"#utility.yul\":27528:27548   */\n      tag_660\n        /* \"#utility.yul\":27546:27547   */\n      dup4\n        /* \"#utility.yul\":27528:27548   */\n      tag_333\n      jump\t// in\n    tag_660:\n        /* \"#utility.yul\":27523:27548   */\n      swap3\n      pop\n        /* \"#utility.yul\":27567:27568   */\n      dup3\n        /* \"#utility.yul\":27557:27592   */\n      tag_661\n      jumpi\n        /* \"#utility.yul\":27572:27590   */\n      tag_662\n      tag_379\n      jump\t// in\n    tag_662:\n        /* \"#utility.yul\":27557:27592   */\n    tag_661:\n        /* \"#utility.yul\":27614:27615   */\n      dup3\n        /* \"#utility.yul\":27611:27612   */\n      dup3\n        /* \"#utility.yul\":27607:27616   */\n      div\n        /* \"#utility.yul\":27602:27616   */\n      swap1\n      pop\n        /* \"#utility.yul\":27437:27622   */\n      swap3\n      swap2\n      pop\n      pop\n      jump\t// out\n        /* \"#utility.yul\":27628:27922   */\n    tag_380:\n        /* \"#utility.yul\":27768:27802   */\n      0x556e69737761705632526f757465723a20546f6b656e73206172726179206973\n        /* \"#utility.yul\":27764:27765   */\n      0x00\n        /* \"#utility.yul\":27756:27762   */\n      dup3\n        /* \"#utility.yul\":27752:27766   */\n      add\n        /* \"#utility.yul\":27745:27803   */\n      mstore\n        /* \"#utility.yul\":27837:27871   */\n      0x20746f6f206c6f6e672c2072656475636520746865206e756d626572206f6620\n        /* \"#utility.yul\":27832:27834   */\n      0x20\n        /* \"#utility.yul\":27824:27830   */\n      dup3\n        /* \"#utility.yul\":27820:27835   */\n      add\n        /* \"#utility.yul\":27813:27872   */\n      mstore\n        /* \"#utility.yul\":27906:27914   */\n      0x746f6b656e730000000000000000000000000000000000000000000000000000\n        /* \"#utility.yul\":27901:27903   */\n      0x40\n        /* \"#utility.yul\":27893:27899   */\n      dup3\n        /* \"#utility.yul\":27889:27904   */\n      add\n        /* \"#utility.yul\":27882:27915   */\n      mstore\n        /* \"#utility.yul\":27628:27922   */\n      pop\n      jump\t// out\n        /* \"#utility.yul\":27928:28294   */\n    tag_381:\n        /* \"#utility.yul\":28070:28073   */\n      0x00\n        /* \"#utility.yul\":28091:28158   */\n      tag_665\n        /* \"#utility.yul\":28155:28157   */\n      0x46\n        /* \"#utility.yul\":28150:28153   */\n      dup4\n        /* \"#utility.yul\":28091:28158   */\n      tag_360\n      jump\t// in\n    tag_665:\n        /* \"#utility.yul\":28084:28158   */\n      swap2\n      pop\n        /* \"#utility.yul\":28167:28260   */\n      tag_666\n        /* \"#utility.yul\":28256:28259   */\n      dup3\n        /* \"#utility.yul\":28167:28260   */\n      tag_380\n      jump\t// in\n    tag_666:\n        /* \"#utility.yul\":28285:28287   */\n      0x60\n        /* \"#utility.yul\":28280:28283   */\n      dup3\n        /* \"#utility.yul\":28276:28288   */\n      add\n        /* \"#utility.yul\":28269:28288   */\n      swap1\n      pop\n        /* \"#utility.yul\":27928:28294   */\n      swap2\n      swap1\n      pop\n      jump\t// out\n        /* \"#utility.yul\":28300:28719   */\n    tag_253:\n        /* \"#utility.yul\":28466:28470   */\n      0x00\n        /* \"#utility.yul\":28504:28506   */\n      0x20\n        /* \"#utility.yul\":28493:28502   */\n      dup3\n        /* \"#utility.yul\":28489:28507   */\n      add\n        /* \"#utility.yul\":28481:28507   */\n      swap1\n      pop\n        /* \"#utility.yul\":28553:28562   */\n      dup2\n        /* \"#utility.yul\":28547:28551   */\n      dup2\n        /* \"#utility.yul\":28543:28563   */\n      sub\n        /* \"#utility.yul\":28539:28540   */\n      0x00\n        /* \"#utility.yul\":28528:28537   */\n      dup4\n        /* \"#utility.yul\":28524:28541   */\n      add\n        /* \"#utility.yul\":28517:28564   */\n      mstore\n        /* \"#utility.yul\":28581:28712   */\n      tag_668\n        /* \"#utility.yul\":28707:28711   */\n      dup2\n        /* \"#utility.yul\":28581:28712   */\n      tag_381\n      jump\t// in\n    tag_668:\n        /* \"#utility.yul\":28573:28712   */\n      swap1\n      pop\n        /* \"#utility.yul\":28300:28719   */\n      swap2\n      swap1\n      pop\n      jump\t// out\n        /* \"#utility.yul\":28725:28873   */\n    tag_382:\n        /* \"#utility.yul\":28827:28838   */\n      0x00\n        /* \"#utility.yul\":28864:28867   */\n      dup2\n        /* \"#utility.yul\":28849:28867   */\n      swap1\n      pop\n        /* \"#utility.yul\":28725:28873   */\n      swap3\n      swap2\n      pop\n      pop\n      jump\t// out\n        /* \"#utility.yul\":28879:29052   */\n    tag_383:\n        /* \"#utility.yul\":29019:29044   */\n      0x416363657373436f6e74726f6c3a206163636f756e7420000000000000000000\n        /* \"#utility.yul\":29015:29016   */\n      0x00\n        /* \"#utility.yul\":29007:29013   */\n      dup3\n        /* \"#utility.yul\":29003:29017   */\n      add\n        /* \"#utility.yul\":28996:29045   */\n      mstore\n        /* \"#utility.yul\":28879:29052   */\n      pop\n      jump\t// out\n        /* \"#utility.yul\":29058:29460   */\n    tag_384:\n        /* \"#utility.yul\":29218:29221   */\n      0x00\n        /* \"#utility.yul\":29239:29324   */\n      tag_672\n        /* \"#utility.yul\":29321:29323   */\n      0x17\n        /* \"#utility.yul\":29316:29319   */\n      dup4\n        /* \"#utility.yul\":29239:29324   */\n      tag_382\n      jump\t// in\n    tag_672:\n        /* \"#utility.yul\":29232:29324   */\n      swap2\n      pop\n        /* \"#utility.yul\":29333:29426   */\n      tag_673\n        /* \"#utility.yul\":29422:29425   */\n      dup3\n        /* \"#utility.yul\":29333:29426   */\n      tag_383\n      jump\t// in\n    tag_673:\n        /* \"#utility.yul\":29451:29453   */\n      0x17\n        /* \"#utility.yul\":29446:29449   */\n      dup3\n        /* \"#utility.yul\":29442:29454   */\n      add\n        /* \"#utility.yul\":29435:29454   */\n      swap1\n      pop\n        /* \"#utility.yul\":29058:29460   */\n      swap2\n      swap1\n      pop\n      jump\t// out\n        /* \"#utility.yul\":29466:29565   */\n    tag_385:\n        /* \"#utility.yul\":29518:29524   */\n      0x00\n        /* \"#utility.yul\":29552:29557   */\n      dup2\n        /* \"#utility.yul\":29546:29558   */\n      mload\n        /* \"#utility.yul\":29536:29558   */\n      swap1\n      pop\n        /* \"#utility.yul\":29466:29565   */\n      swap2\n      swap1\n      pop\n      jump\t// out\n        /* \"#utility.yul\":29571:29710   */\n    tag_386:\n        /* \"#utility.yul\":29660:29666   */\n      dup3\n        /* \"#utility.yul\":29655:29658   */\n      dup2\n        /* \"#utility.yul\":29650:29653   */\n      dup4\n        /* \"#utility.yul\":29644:29667   */\n      mcopy\n        /* \"#utility.yul\":29701:29702   */\n      0x00\n        /* \"#utility.yul\":29692:29698   */\n      dup4\n        /* \"#utility.yul\":29687:29690   */\n      dup4\n        /* \"#utility.yul\":29683:29699   */\n      add\n        /* \"#utility.yul\":29676:29703   */\n      mstore\n        /* \"#utility.yul\":29571:29710   */\n      pop\n      pop\n      pop\n      jump\t// out\n        /* \"#utility.yul\":29716:30106   */\n    tag_387:\n        /* \"#utility.yul\":29822:29825   */\n      0x00\n        /* \"#utility.yul\":29850:29889   */\n      tag_677\n        /* \"#utility.yul\":29883:29888   */\n      dup3\n        /* \"#utility.yul\":29850:29889   */\n      tag_385\n      jump\t// in\n    tag_677:\n        /* \"#utility.yul\":29905:29994   */\n      tag_678\n        /* \"#utility.yul\":29987:29993   */\n      dup2\n        /* \"#utility.yul\":29982:29985   */\n      dup6\n        /* \"#utility.yul\":29905:29994   */\n      tag_382\n      jump\t// in\n    tag_678:\n        /* \"#utility.yul\":29898:29994   */\n      swap4\n      pop\n        /* \"#utility.yul\":30003:30068   */\n      tag_679\n        /* \"#utility.yul\":30061:30067   */\n      dup2\n        /* \"#utility.yul\":30056:30059   */\n      dup6\n        /* \"#utility.yul\":30049:30053   */\n      0x20\n        /* \"#utility.yul\":30042:30047   */\n      dup7\n        /* \"#utility.yul\":30038:30054   */\n      add\n        /* \"#utility.yul\":30003:30068   */\n      tag_386\n      jump\t// in\n    tag_679:\n        /* \"#utility.yul\":30093:30099   */\n      dup1\n        /* \"#utility.yul\":30088:30091   */\n      dup5\n        /* \"#utility.yul\":30084:30100   */\n      add\n        /* \"#utility.yul\":30077:30100   */\n      swap2\n      pop\n        /* \"#utility.yul\":29826:30106   */\n      pop\n        /* \"#utility.yul\":29716:30106   */\n      swap3\n      swap2\n      pop\n      pop\n      jump\t// out\n        /* \"#utility.yul\":30112:30279   */\n    tag_388:\n        /* \"#utility.yul\":30252:30271   */\n      0x206973206d697373696e6720726f6c6520000000000000000000000000000000\n        /* \"#utility.yul\":30248:30249   */\n      0x00\n        /* \"#utility.yul\":30240:30246   */\n      dup3\n        /* \"#utility.yul\":30236:30250   */\n      add\n        /* \"#utility.yul\":30229:30272   */\n      mstore\n        /* \"#utility.yul\":30112:30279   */\n      pop\n      jump\t// out\n        /* \"#utility.yul\":30285:30687   */\n    tag_389:\n        /* \"#utility.yul\":30445:30448   */\n      0x00\n        /* \"#utility.yul\":30466:30551   */\n      tag_682\n        /* \"#utility.yul\":30548:30550   */\n      0x11\n        /* \"#utility.yul\":30543:30546   */\n      dup4\n        /* \"#utility.yul\":30466:30551   */\n      tag_382\n      jump\t// in\n    tag_682:\n        /* \"#utility.yul\":30459:30551   */\n      swap2\n      pop\n        /* \"#utility.yul\":30560:30653   */\n      tag_683\n        /* \"#utility.yul\":30649:30652   */\n      dup3\n        /* \"#utility.yul\":30560:30653   */\n      tag_388\n      jump\t// in\n    tag_683:\n        /* \"#utility.yul\":30678:30680   */\n      0x11\n        /* \"#utility.yul\":30673:30676   */\n      dup3\n        /* \"#utility.yul\":30669:30681   */\n      add\n        /* \"#utility.yul\":30662:30681   */\n      swap1\n      pop\n        /* \"#utility.yul\":30285:30687   */\n      swap2\n      swap1\n      pop\n      jump\t// out\n        /* \"#utility.yul\":30693:31660   */\n    tag_288:\n        /* \"#utility.yul\":31075:31078   */\n      0x00\n        /* \"#utility.yul\":31097:31245   */\n      tag_685\n        /* \"#utility.yul\":31241:31244   */\n      dup3\n        /* \"#utility.yul\":31097:31245   */\n      tag_384\n      jump\t// in\n    tag_685:\n        /* \"#utility.yul\":31090:31245   */\n      swap2\n      pop\n        /* \"#utility.yul\":31262:31357   */\n      tag_686\n        /* \"#utility.yul\":31353:31356   */\n      dup3\n        /* \"#utility.yul\":31344:31350   */\n      dup6\n        /* \"#utility.yul\":31262:31357   */\n      tag_387\n      jump\t// in\n    tag_686:\n        /* \"#utility.yul\":31255:31357   */\n      swap2\n      pop\n        /* \"#utility.yul\":31374:31522   */\n      tag_687\n        /* \"#utility.yul\":31518:31521   */\n      dup3\n        /* \"#utility.yul\":31374:31522   */\n      tag_389\n      jump\t// in\n    tag_687:\n        /* \"#utility.yul\":31367:31522   */\n      swap2\n      pop\n        /* \"#utility.yul\":31539:31634   */\n      tag_688\n        /* \"#utility.yul\":31630:31633   */\n      dup3\n        /* \"#utility.yul\":31621:31627   */\n      dup5\n        /* \"#utility.yul\":31539:31634   */\n      tag_387\n      jump\t// in\n    tag_688:\n        /* \"#utility.yul\":31532:31634   */\n      swap2\n      pop\n        /* \"#utility.yul\":31651:31654   */\n      dup2\n        /* \"#utility.yul\":31644:31654   */\n      swap1\n      pop\n        /* \"#utility.yul\":30693:31660   */\n      swap4\n      swap3\n      pop\n      pop\n      pop\n      jump\t// out\n        /* \"#utility.yul\":31666:32043   */\n    tag_390:\n        /* \"#utility.yul\":31754:31757   */\n      0x00\n        /* \"#utility.yul\":31782:31821   */\n      tag_690\n        /* \"#utility.yul\":31815:31820   */\n      dup3\n        /* \"#utility.yul\":31782:31821   */\n      tag_385\n      jump\t// in\n    tag_690:\n        /* \"#utility.yul\":31837:31908   */\n      tag_691\n        /* \"#utility.yul\":31901:31907   */\n      dup2\n        /* \"#utility.yul\":31896:31899   */\n      dup6\n        /* \"#utility.yul\":31837:31908   */\n      tag_360\n      jump\t// in\n    tag_691:\n        /* \"#utility.yul\":31830:31908   */\n      swap4\n      pop\n        /* \"#utility.yul\":31917:31982   */\n      tag_692\n        /* \"#utility.yul\":31975:31981   */\n      dup2\n        /* \"#utility.yul\":31970:31973   */\n      dup6\n        /* \"#utility.yul\":31963:31967   */\n      0x20\n        /* \"#utility.yul\":31956:31961   */\n      dup7\n        /* \"#utility.yul\":31952:31968   */\n      add\n        /* \"#utility.yul\":31917:31982   */\n      tag_386\n      jump\t// in\n    tag_692:\n        /* \"#utility.yul\":32007:32036   */\n      tag_693\n        /* \"#utility.yul\":32029:32035   */\n      dup2\n        /* \"#utility.yul\":32007:32036   */\n      tag_345\n      jump\t// in\n    tag_693:\n        /* \"#utility.yul\":32002:32005   */\n      dup5\n        /* \"#utility.yul\":31998:32037   */\n      add\n        /* \"#utility.yul\":31991:32037   */\n      swap2\n      pop\n        /* \"#utility.yul\":31758:32043   */\n      pop\n        /* \"#utility.yul\":31666:32043   */\n      swap3\n      swap2\n      pop\n      pop\n      jump\t// out\n        /* \"#utility.yul\":32049:32362   */\n    tag_290:\n        /* \"#utility.yul\":32162:32166   */\n      0x00\n        /* \"#utility.yul\":32200:32202   */\n      0x20\n        /* \"#utility.yul\":32189:32198   */\n      dup3\n        /* \"#utility.yul\":32185:32203   */\n      add\n        /* \"#utility.yul\":32177:32203   */\n      swap1\n      pop\n        /* \"#utility.yul\":32249:32258   */\n      dup2\n        /* \"#utility.yul\":32243:32247   */\n      dup2\n        /* \"#utility.yul\":32239:32259   */\n      sub\n        /* \"#utility.yul\":32235:32236   */\n      0x00\n        /* \"#utility.yul\":32224:32233   */\n      dup4\n        /* \"#utility.yul\":32220:32237   */\n      add\n        /* \"#utility.yul\":32213:32260   */\n      mstore\n        /* \"#utility.yul\":32277:32355   */\n      tag_695\n        /* \"#utility.yul\":32350:32354   */\n      dup2\n        /* \"#utility.yul\":32341:32347   */\n      dup5\n        /* \"#utility.yul\":32277:32355   */\n      tag_390\n      jump\t// in\n    tag_695:\n        /* \"#utility.yul\":32269:32355   */\n      swap1\n      pop\n        /* \"#utility.yul\":32049:32362   */\n      swap3\n      swap2\n      pop\n      pop\n      jump\t// out\n        /* \"#utility.yul\":32368:32539   */\n    tag_313:\n        /* \"#utility.yul\":32407:32410   */\n      0x00\n        /* \"#utility.yul\":32430:32454   */\n      tag_697\n        /* \"#utility.yul\":32448:32453   */\n      dup3\n        /* \"#utility.yul\":32430:32454   */\n      tag_333\n      jump\t// in\n    tag_697:\n        /* \"#utility.yul\":32421:32454   */\n      swap2\n      pop\n        /* \"#utility.yul\":32476:32480   */\n      0x00\n        /* \"#utility.yul\":32469:32474   */\n      dup3\n        /* \"#utility.yul\":32466:32481   */\n      sub\n        /* \"#utility.yul\":32463:32504   */\n      tag_698\n      jumpi\n        /* \"#utility.yul\":32484:32502   */\n      tag_699\n      tag_378\n      jump\t// in\n    tag_699:\n        /* \"#utility.yul\":32463:32504   */\n    tag_698:\n        /* \"#utility.yul\":32531:32532   */\n      0x01\n        /* \"#utility.yul\":32524:32529   */\n      dup3\n        /* \"#utility.yul\":32520:32533   */\n      sub\n        /* \"#utility.yul\":32513:32533   */\n      swap1\n      pop\n        /* \"#utility.yul\":32368:32539   */\n      swap2\n      swap1\n      pop\n      jump\t// out\n        /* \"#utility.yul\":32545:32727   */\n    tag_391:\n        /* \"#utility.yul\":32685:32719   */\n      0x537472696e67733a20686578206c656e67746820696e73756666696369656e74\n        /* \"#utility.yul\":32681:32682   */\n      0x00\n        /* \"#utility.yul\":32673:32679   */\n      dup3\n        /* \"#utility.yul\":32669:32683   */\n      add\n        /* \"#utility.yul\":32662:32720   */\n      mstore\n        /* \"#utility.yul\":32545:32727   */\n      pop\n      jump\t// out\n        /* \"#utility.yul\":32733:33099   */\n    tag_392:\n        /* \"#utility.yul\":32875:32878   */\n      0x00\n        /* \"#utility.yul\":32896:32963   */\n      tag_702\n        /* \"#utility.yul\":32960:32962   */\n      0x20\n        /* \"#utility.yul\":32955:32958   */\n      dup4\n        /* \"#utility.yul\":32896:32963   */\n      tag_360\n      jump\t// in\n    tag_702:\n        /* \"#utility.yul\":32889:32963   */\n      swap2\n      pop\n        /* \"#utility.yul\":32972:33065   */\n      tag_703\n        /* \"#utility.yul\":33061:33064   */\n      dup3\n        /* \"#utility.yul\":32972:33065   */\n      tag_391\n      jump\t// in\n    tag_703:\n        /* \"#utility.yul\":33090:33092   */\n      0x20\n        /* \"#utility.yul\":33085:33088   */\n      dup3\n        /* \"#utility.yul\":33081:33093   */\n      add\n        /* \"#utility.yul\":33074:33093   */\n      swap1\n      pop\n        /* \"#utility.yul\":32733:33099   */\n      swap2\n      swap1\n      pop\n      jump\t// out\n        /* \"#utility.yul\":33105:33524   */\n    tag_316:\n        /* \"#utility.yul\":33271:33275   */\n      0x00\n        /* \"#utility.yul\":33309:33311   */\n      0x20\n        /* \"#utility.yul\":33298:33307   */\n      dup3\n        /* \"#utility.yul\":33294:33312   */\n      add\n        /* \"#utility.yul\":33286:33312   */\n      swap1\n      pop\n        /* \"#utility.yul\":33358:33367   */\n      dup2\n        /* \"#utility.yul\":33352:33356   */\n      dup2\n        /* \"#utility.yul\":33348:33368   */\n      sub\n        /* \"#utility.yul\":33344:33345   */\n      0x00\n        /* \"#utility.yul\":33333:33342   */\n      dup4\n        /* \"#utility.yul\":33329:33346   */\n      add\n        /* \"#utility.yul\":33322:33369   */\n      mstore\n        /* \"#utility.yul\":33386:33517   */\n      tag_705\n        /* \"#utility.yul\":33512:33516   */\n      dup2\n        /* \"#utility.yul\":33386:33517   */\n      tag_392\n      jump\t// in\n    tag_705:\n        /* \"#utility.yul\":33378:33517   */\n      swap1\n      pop\n        /* \"#utility.yul\":33105:33524   */\n      swap2\n      swap1\n      pop\n      jump\t// out\n\n    auxdata: 0xa2646970667358221220a3d32f6ebb2fb6b3d8a9e67349126fedaeddba6f9a19564dcf935020f7f1eed264736f6c634300081e0033\n}\n",
				"bytecode": {
					"linkReferences": {},
					"object": "60a060405234801561000f575f5ffd5b50604051612d64380380612d6483398181016040528101906100319190610345565b8073ffffffffffffffffffffffffffffffffffffffff1660808173ffffffffffffffffffffffffffffffffffffffff16815250506100845f5f1b61007961019560201b60201c565b61019c60201b60201c565b6100c17fa451215b66f023bb76f9a9e7bc5c64156446b47b26061a8a32eaa319c45f695e6100b661019560201b60201c565b61019c60201b60201c565b6040518060400160405280670de0b6b3a764000081526020016100e861019560201b60201c565b73ffffffffffffffffffffffffffffffffffffffff1681525060975f8373ffffffffffffffffffffffffffffffffffffffff1673ffffffffffffffffffffffffffffffffffffffff1681526020019081526020015f205f820151815f01556020820151816001015f6101000a81548173ffffffffffffffffffffffffffffffffffffffff021916908373ffffffffffffffffffffffffffffffffffffffff16021790555090505050610370565b5f33905090565b6101ac828261028360201b60201c565b61027f57600160655f8481526020019081526020015f205f015f8373ffffffffffffffffffffffffffffffffffffffff1673ffffffffffffffffffffffffffffffffffffffff1681526020019081526020015f205f6101000a81548160ff02191690831515021790555061022461019560201b60201c565b73ffffffffffffffffffffffffffffffffffffffff168173ffffffffffffffffffffffffffffffffffffffff16837f2f8788117e7eff1d82e926ec794901d17c78024a50270940304540a733656f0d60405160405180910390a45b5050565b5f60655f8481526020019081526020015f205f015f8373ffffffffffffffffffffffffffffffffffffffff1673ffffffffffffffffffffffffffffffffffffffff1681526020019081526020015f205f9054906101000a900460ff16905092915050565b5f5ffd5b5f73ffffffffffffffffffffffffffffffffffffffff82169050919050565b5f610314826102eb565b9050919050565b6103248161030a565b811461032e575f5ffd5b50565b5f8151905061033f8161031b565b92915050565b5f6020828403121561035a576103596102e7565b5b5f61036784828501610331565b91505092915050565b6080516129b96103ab5f395f818161068d015281816106b2015281816106d8015281816109fd01528181610a7a0152610dd301526129b95ff3fe6080604052600436106100fd575f3560e01c8063affa881711610094578063d06ca61f11610063578063d06ca61f14610341578063d547741f1461037d578063dd4be683146103a5578063eb71f7e6146103e2578063fa1c631b1461040a576100fd565b8063affa881714610295578063b6f9de95146102bf578063cf0888aa146102db578063d02641a014610305576100fd565b806388aa8bee116100d057806388aa8bee146101c957806391d1485414610205578063a217fddf14610241578063ad5c46481461026b576100fd565b806301ffc9a714610101578063248a9ca31461013d5780632f2ff15d1461017957806336568abe146101a1575b5f5ffd5b34801561010c575f5ffd5b50610127600480360381019061012291906118f6565b610432565b604051610134919061193b565b60405180910390f35b348015610148575f5ffd5b50610163600480360381019061015e9190611987565b6104ab565b60405161017091906119c1565b60405180910390f35b348015610184575f5ffd5b5061019f600480360381019061019a9190611a34565b6104c8565b005b3480156101ac575f5ffd5b506101c760048036038101906101c29190611a34565b6104e9565b005b3480156101d4575f5ffd5b506101ef60048036038101906101ea9190611a72565b61056c565b6040516101fc9190611af1565b60405180910390f35b348015610210575f5ffd5b5061022b60048036038101906102269190611a34565b610621565b604051610238919061193b565b60405180910390f35b34801561024c575f5ffd5b50610255610685565b60405161026291906119c1565b60405180910390f35b348015610276575f5ffd5b5061027f61068b565b60405161028c9190611b19565b60405180910390f35b3480156102a0575f5ffd5b506102a96106af565b6040516102b69190611b19565b60405180910390f35b6102d960048036038101906102d49190611bbd565b6106d6565b005b3480156102e6575f5ffd5b506102ef610bed565b6040516102fc91906119c1565b60405180910390f35b348015610310575f5ffd5b5061032b60048036038101906103269190611a72565b610c11565b6040516103389190611c50565b60405180910390f35b34801561034c575f5ffd5b5061036760048036038101906103629190611db1565b610c59565b6040516103749190611eb3565b60405180910390f35b348015610388575f5ffd5b506103a3600480360381019061039e9190611a34565b611064565b005b3480156103b0575f5ffd5b506103cb60048036038101906103c69190611a72565b611085565b6040516103d9929190611ed3565b60405180910390f35b3480156103ed575f5ffd5b5061040860048036038101906104039190611fba565b6110c4565b005b348015610415575f5ffd5b50610430600480360381019061042b919061205e565b611259565b005b5f7f7965db0b000000000000000000000000000000000000000000000000000000007bffffffffffffffffffffffffffffffffffffffffffffffffffffffff1916827bffffffffffffffffffffffffffffffffffffffffffffffffffffffff191614806104a457506104a382611342565b5b9050919050565b5f60655f8381526020019081526020015f20600101549050919050565b6104d1826104ab565b6104da816113ab565b6104e483836113bf565b505050565b6104f161149a565b73ffffffffffffffffffffffffffffffffffffffff168173ffffffffffffffffffffffffffffffffffffffff161461055e576040517f08c379a00000000000000000000000000000000000000000000000000000000081526004016105559061212e565b60405180910390fd5b61056882826114a1565b5050565b610574611862565b60975f8373ffffffffffffffffffffffffffffffffffffffff1673ffffffffffffffffffffffffffffffffffffffff1681526020019081526020015f206040518060400160405290815f8201548152602001600182015f9054906101000a900473ffffffffffffffffffffffffffffffffffffffff1673ffffffffffffffffffffffffffffffffffffffff1673ffffffffffffffffffffffffffffffffffffffff16815250509050919050565b5f60655f8481526020019081526020015f205f015f8373ffffffffffffffffffffffffffffffffffffffff1673ffffffffffffffffffffffffffffffffffffffff1681526020019081526020015f205f9054906101000a900460ff16905092915050565b5f5f1b81565b7f000000000000000000000000000000000000000000000000000000000000000081565b5f7f0000000000000000000000000000000000000000000000000000000000000000905090565b7f000000000000000000000000000000000000000000000000000000000000000073ffffffffffffffffffffffffffffffffffffffff1684845f8181106107205761071f61214c565b5b90506020020160208101906107359190611a72565b73ffffffffffffffffffffffffffffffffffffffff161461078b576040517f08c379a0000000000000000000000000000000000000000000000000000000008152600401610782906121c3565b60405180910390fd5b428110156107ce576040517f08c379a00000000000000000000000000000000000000000000000000000000081526004016107c59061222b565b60405180910390fd5b5f3490505f61081d828787808060200260200160405190810160405280939291908181526020018383602002808284375f81840152601f19601f82011690508083019250505050505050610c59565b6001815181106108305761082f61214c565b5b602002602001015190505f811180156108495750868110155b610888576040517f08c379a000000000000000000000000000000000000000000000000000000000815260040161087f906122b9565b60405180910390fd5b5f60975f888860018181106108a05761089f61214c565b5b90506020020160208101906108b59190611a72565b73ffffffffffffffffffffffffffffffffffffffff1673ffffffffffffffffffffffffffffffffffffffff1681526020019081526020015f206001015f9054906101000a900473ffffffffffffffffffffffffffffffffffffffff1690505f878760018181106109285761092761214c565b5b905060200201602081019061093d9190611a72565b73ffffffffffffffffffffffffffffffffffffffff1663dd62ed3e83306040518363ffffffff1660e01b81526004016109779291906122d7565b602060405180830381865afa158015610992573d5f5f3e3d5ffd5b505050506040513d601f19601f820116820180604052508101906109b69190612312565b9050828110156109fb576040517f08c379a00000000000000000000000000000000000000000000000000000000081526004016109f2906123ad565b60405180910390fd5b7f000000000000000000000000000000000000000000000000000000000000000073ffffffffffffffffffffffffffffffffffffffff1663d0e30db0856040518263ffffffff1660e01b81526004015f604051808303818588803b158015610a61575f5ffd5b505af1158015610a73573d5f5f3e3d5ffd5b50505050507f000000000000000000000000000000000000000000000000000000000000000073ffffffffffffffffffffffffffffffffffffffff1663a9059cbb89896001818110610ac857610ac761214c565b5b9050602002016020810190610add9190611a72565b866040518363ffffffff1660e01b8152600401610afb9291906123cb565b6020604051808303815f875af1158015610b17573d5f5f3e3d5ffd5b505050506040513d601f19601f82011682018060405250810190610b3b919061241c565b5087876001818110610b5057610b4f61214c565b5b9050602002016020810190610b659190611a72565b73ffffffffffffffffffffffffffffffffffffffff166323b872dd8388866040518463ffffffff1660e01b8152600401610ba193929190612447565b6020604051808303815f875af1158015610bbd573d5f5f3e3d5ffd5b505050506040513d601f19601f82011682018060405250810190610be1919061241c565b50505050505050505050565b7fa451215b66f023bb76f9a9e7bc5c64156446b47b26061a8a32eaa319c45f695e81565b5f60975f8373ffffffffffffffffffffffffffffffffffffffff1673ffffffffffffffffffffffffffffffffffffffff1681526020019081526020015f205f01549050919050565b60605f8311610c9d576040517f08c379a0000000000000000000000000000000000000000000000000000000008152600401610c94906124ec565b60405180910390fd5b600282511015610ce2576040517f08c379a0000000000000000000000000000000000000000000000000000000008152600401610cd99061257a565b60405180910390fd5b815167ffffffffffffffff811115610cfd57610cfc611c79565b5b604051908082528060200260200182016040528015610d2b5781602001602082028036833780820191505090505b50905082815f81518110610d4257610d4161214c565b5b6020026020010181815250505f5b60018351610d5e91906125c5565b81101561105d575f60975f85600185610d7791906125f8565b81518110610d8857610d8761214c565b5b602002602001015173ffffffffffffffffffffffffffffffffffffffff1673ffffffffffffffffffffffffffffffffffffffff1681526020019081526020015f205f015414611023577f000000000000000000000000000000000000000000000000000000000000000073ffffffffffffffffffffffffffffffffffffffff16835f81518110610e1b57610e1a61214c565b5b602002602001015173ffffffffffffffffffffffffffffffffffffffff1603610ef25760975f84600184610e4f91906125f8565b81518110610e6057610e5f61214c565b5b602002602001015173ffffffffffffffffffffffffffffffffffffffff1673ffffffffffffffffffffffffffffffffffffffff1681526020019081526020015f205f0154670de0b6b3a764000085610eb8919061262b565b610ec29190612699565b82600183610ed091906125f8565b81518110610ee157610ee061214c565b5b60200260200101818152505061101e565b5f670de0b6b3a764000060975f865f81518110610f1257610f1161214c565b5b602002602001015173ffffffffffffffffffffffffffffffffffffffff1673ffffffffffffffffffffffffffffffffffffffff1681526020019081526020015f205f0154670de0b6b3a764000087610f6a919061262b565b610f74919061262b565b610f7e9190612699565b905060975f85600185610f9191906125f8565b81518110610fa257610fa161214c565b5b602002602001015173ffffffffffffffffffffffffffffffffffffffff1673ffffffffffffffffffffffffffffffffffffffff1681526020019081526020015f205f015481610ff19190612699565b83600184610fff91906125f8565b815181106110105761100f61214c565b5b602002602001018181525050505b611050565b5f8260018361103291906125f8565b815181106110435761104261214c565b5b6020026020010181815250505b8080600101915050610d50565b5092915050565b61106d826104ab565b611076816113ab565b61108083836114a1565b505050565b6097602052805f5260405f205f91509050805f015490806001015f9054906101000a900473ffffffffffffffffffffffffffffffffffffffff16905082565b7fa451215b66f023bb76f9a9e7bc5c64156446b47b26061a8a32eaa319c45f695e6110ee816113ab565b601e84511115611133576040517f08c379a000000000000000000000000000000000000000000000000000000000815260040161112a9061275f565b60405180910390fd5b5f5b845181101561125257604051806040016040528084838151811061115c5761115b61214c565b5b6020026020010151815260200185838151811061117c5761117b61214c565b5b602002602001015173ffffffffffffffffffffffffffffffffffffffff1681525060975f8784815181106111b3576111b261214c565b5b602002602001015173ffffffffffffffffffffffffffffffffffffffff1673ffffffffffffffffffffffffffffffffffffffff1681526020019081526020015f205f820151815f01556020820151816001015f6101000a81548173ffffffffffffffffffffffffffffffffffffffff021916908373ffffffffffffffffffffffffffffffffffffffff1602179055509050508080600101915050611135565b5050505050565b7fa451215b66f023bb76f9a9e7bc5c64156446b47b26061a8a32eaa319c45f695e611283816113ab565b60405180604001604052808381526020018473ffffffffffffffffffffffffffffffffffffffff1681525060975f8673ffffffffffffffffffffffffffffffffffffffff1673ffffffffffffffffffffffffffffffffffffffff1681526020019081526020015f205f820151815f01556020820151816001015f6101000a81548173ffffffffffffffffffffffffffffffffffffffff021916908373ffffffffffffffffffffffffffffffffffffffff16021790555090505050505050565b5f7f01ffc9a7000000000000000000000000000000000000000000000000000000007bffffffffffffffffffffffffffffffffffffffffffffffffffffffff1916827bffffffffffffffffffffffffffffffffffffffffffffffffffffffff1916149050919050565b6113bc816113b761149a565b61157c565b50565b6113c98282610621565b61149657600160655f8481526020019081526020015f205f015f8373ffffffffffffffffffffffffffffffffffffffff1673ffffffffffffffffffffffffffffffffffffffff1681526020019081526020015f205f6101000a81548160ff02191690831515021790555061143b61149a565b73ffffffffffffffffffffffffffffffffffffffff168173ffffffffffffffffffffffffffffffffffffffff16837f2f8788117e7eff1d82e926ec794901d17c78024a50270940304540a733656f0d60405160405180910390a45b5050565b5f33905090565b6114ab8282610621565b15611578575f60655f8481526020019081526020015f205f015f8373ffffffffffffffffffffffffffffffffffffffff1673ffffffffffffffffffffffffffffffffffffffff1681526020019081526020015f205f6101000a81548160ff02191690831515021790555061151d61149a565b73ffffffffffffffffffffffffffffffffffffffff168173ffffffffffffffffffffffffffffffffffffffff16837ff6391f5c32d9c69d2a47ea670b442974b53935d1edc7fd64eb21e047a839171b60405160405180910390a45b5050565b6115868282610621565b6115fc5761159381611600565b6115a0835f1c602061162d565b6040516020016115b1929190612863565b6040516020818303038152906040526040517f08c379a00000000000000000000000000000000000000000000000000000000081526004016115f391906128d4565b60405180910390fd5b5050565b60606116268273ffffffffffffffffffffffffffffffffffffffff16601460ff1661162d565b9050919050565b60605f600283600261163f919061262b565b61164991906125f8565b67ffffffffffffffff81111561166257611661611c79565b5b6040519080825280601f01601f1916602001820160405280156116945781602001600182028036833780820191505090505b5090507f3000000000000000000000000000000000000000000000000000000000000000815f815181106116cb576116ca61214c565b5b60200101907effffffffffffffffffffffffffffffffffffffffffffffffffffffffffffff191690815f1a9053507f78000000000000000000000000000000000000000000000000000000000000008160018151811061172e5761172d61214c565b5b60200101907effffffffffffffffffffffffffffffffffffffffffffffffffffffffffffff191690815f1a9053505f600184600261176c919061262b565b61177691906125f8565b90505b6001811115611815577f3031323334353637383961626364656600000000000000000000000000000000600f8616601081106117b8576117b761214c565b5b1a60f81b8282815181106117cf576117ce61214c565b5b60200101907effffffffffffffffffffffffffffffffffffffffffffffffffffffffffffff191690815f1a905350600485901c94508061180e906128f4565b9050611779565b505f8414611858576040517f08c379a000000000000000000000000000000000000000000000000000000000815260040161184f90612965565b60405180910390fd5b8091505092915050565b60405180604001604052805f81526020015f73ffffffffffffffffffffffffffffffffffffffff1681525090565b5f604051905090565b5f5ffd5b5f5ffd5b5f7fffffffff0000000000000000000000000000000000000000000000000000000082169050919050565b6118d5816118a1565b81146118df575f5ffd5b50565b5f813590506118f0816118cc565b92915050565b5f6020828403121561190b5761190a611899565b5b5f611918848285016118e2565b91505092915050565b5f8115159050919050565b61193581611921565b82525050565b5f60208201905061194e5f83018461192c565b92915050565b5f819050919050565b61196681611954565b8114611970575f5ffd5b50565b5f813590506119818161195d565b92915050565b5f6020828403121561199c5761199b611899565b5b5f6119a984828501611973565b91505092915050565b6119bb81611954565b82525050565b5f6020820190506119d45f8301846119b2565b92915050565b5f73ffffffffffffffffffffffffffffffffffffffff82169050919050565b5f611a03826119da565b9050919050565b611a13816119f9565b8114611a1d575f5ffd5b50565b5f81359050611a2e81611a0a565b92915050565b5f5f60408385031215611a4a57611a49611899565b5b5f611a5785828601611973565b9250506020611a6885828601611a20565b9150509250929050565b5f60208284031215611a8757611a86611899565b5b5f611a9484828501611a20565b91505092915050565b5f819050919050565b611aaf81611a9d565b82525050565b611abe816119f9565b82525050565b604082015f820151611ad85f850182611aa6565b506020820151611aeb6020850182611ab5565b50505050565b5f604082019050611b045f830184611ac4565b92915050565b611b13816119f9565b82525050565b5f602082019050611b2c5f830184611b0a565b92915050565b611b3b81611a9d565b8114611b45575f5ffd5b50565b5f81359050611b5681611b32565b92915050565b5f5ffd5b5f5ffd5b5f5ffd5b5f5f83601f840112611b7d57611b7c611b5c565b5b8235905067ffffffffffffffff811115611b9a57611b99611b60565b5b602083019150836020820283011115611bb657611bb5611b64565b5b9250929050565b5f5f5f5f5f60808688031215611bd657611bd5611899565b5b5f611be388828901611b48565b955050602086013567ffffffffffffffff811115611c0457611c0361189d565b5b611c1088828901611b68565b94509450506040611c2388828901611a20565b9250506060611c3488828901611b48565b9150509295509295909350565b611c4a81611a9d565b82525050565b5f602082019050611c635f830184611c41565b92915050565b5f601f19601f8301169050919050565b7f4e487b71000000000000000000000000000000000000000000000000000000005f52604160045260245ffd5b611caf82611c69565b810181811067ffffffffffffffff82111715611cce57611ccd611c79565b5b80604052505050565b5f611ce0611890565b9050611cec8282611ca6565b919050565b5f67ffffffffffffffff821115611d0b57611d0a611c79565b5b602082029050602081019050919050565b5f611d2e611d2984611cf1565b611cd7565b90508083825260208201905060208402830185811115611d5157611d50611b64565b5b835b81811015611d7a5780611d668882611a20565b845260208401935050602081019050611d53565b5050509392505050565b5f82601f830112611d9857611d97611b5c565b5b8135611da8848260208601611d1c565b91505092915050565b5f5f60408385031215611dc757611dc6611899565b5b5f611dd485828601611b48565b925050602083013567ffffffffffffffff811115611df557611df461189d565b5b611e0185828601611d84565b9150509250929050565b5f81519050919050565b5f82825260208201905092915050565b5f819050602082019050919050565b5f611e3f8383611aa6565b60208301905092915050565b5f602082019050919050565b5f611e6182611e0b565b611e6b8185611e15565b9350611e7683611e25565b805f5b83811015611ea6578151611e8d8882611e34565b9750611e9883611e4b565b925050600181019050611e79565b5085935050505092915050565b5f6020820190508181035f830152611ecb8184611e57565b905092915050565b5f604082019050611ee65f830185611c41565b611ef36020830184611b0a565b9392505050565b5f67ffffffffffffffff821115611f1457611f13611c79565b5b602082029050602081019050919050565b5f611f37611f3284611efa565b611cd7565b90508083825260208201905060208402830185811115611f5a57611f59611b64565b5b835b81811015611f835780611f6f8882611b48565b845260208401935050602081019050611f5c565b5050509392505050565b5f82601f830112611fa157611fa0611b5c565b5b8135611fb1848260208601611f25565b91505092915050565b5f5f5f60608486031215611fd157611fd0611899565b5b5f84013567ffffffffffffffff811115611fee57611fed61189d565b5b611ffa86828701611d84565b935050602084013567ffffffffffffffff81111561201b5761201a61189d565b5b61202786828701611d84565b925050604084013567ffffffffffffffff8111156120485761204761189d565b5b61205486828701611f8d565b9150509250925092565b5f5f5f6060848603121561207557612074611899565b5b5f61208286828701611a20565b935050602061209386828701611a20565b92505060406120a486828701611b48565b9150509250925092565b5f82825260208201905092915050565b7f416363657373436f6e74726f6c3a2063616e206f6e6c792072656e6f756e63655f8201527f20726f6c657320666f722073656c660000000000000000000000000000000000602082015250565b5f612118602f836120ae565b9150612123826120be565b604082019050919050565b5f6020820190508181035f8301526121458161210c565b9050919050565b7f4e487b71000000000000000000000000000000000000000000000000000000005f52603260045260245ffd5b7f556e69737761705632526f757465723a20494e56414c49445f504154480000005f82015250565b5f6121ad601d836120ae565b91506121b882612179565b602082019050919050565b5f6020820190508181035f8301526121da816121a1565b9050919050565b7f556e69737761705632526f757465723a204558504952454400000000000000005f82015250565b5f6122156018836120ae565b9150612220826121e1565b602082019050919050565b5f6020820190508181035f83015261224281612209565b9050919050565b7f556e69737761705632526f757465723a20494e53554646494349454e545f4f555f8201527f545055545f414d4f554e54000000000000000000000000000000000000000000602082015250565b5f6122a3602b836120ae565b91506122ae82612249565b604082019050919050565b5f6020820190508181035f8301526122d081612297565b9050919050565b5f6040820190506122ea5f830185611b0a565b6122f76020830184611b0a565b9392505050565b5f8151905061230c81611b32565b92915050565b5f6020828403121561232757612326611899565b5b5f612334848285016122fe565b91505092915050565b7f556e69737761705632526f757465723a20494e53554646494349454e545f414d5f8201527f4f554e545f414c4c4f5745440000000000000000000000000000000000000000602082015250565b5f612397602c836120ae565b91506123a28261233d565b604082019050919050565b5f6020820190508181035f8301526123c48161238b565b9050919050565b5f6040820190506123de5f830185611b0a565b6123eb6020830184611c41565b9392505050565b6123fb81611921565b8114612405575f5ffd5b50565b5f81519050612416816123f2565b92915050565b5f6020828403121561243157612430611899565b5b5f61243e84828501612408565b91505092915050565b5f60608201905061245a5f830186611b0a565b6124676020830185611b0a565b6124746040830184611c41565b949350505050565b7f556e69737761705632526f757465723a20616d6f756e74496e2073686f756c645f8201527f2062652067726561746572207468616e207a65726f0000000000000000000000602082015250565b5f6124d66035836120ae565b91506124e18261247c565b604082019050919050565b5f6020820190508181035f830152612503816124ca565b9050919050565b7f556e69737761705632526f757465723a207061746820636f6e7461696e7320615f8201527f74206c65617374203220656c656d656e74730000000000000000000000000000602082015250565b5f6125646032836120ae565b915061256f8261250a565b604082019050919050565b5f6020820190508181035f83015261259181612558565b9050919050565b7f4e487b71000000000000000000000000000000000000000000000000000000005f52601160045260245ffd5b5f6125cf82611a9d565b91506125da83611a9d565b92508282039050818111156125f2576125f1612598565b5b92915050565b5f61260282611a9d565b915061260d83611a9d565b925082820190508082111561262557612624612598565b5b92915050565b5f61263582611a9d565b915061264083611a9d565b925082820261264e81611a9d565b9150828204841483151761266557612664612598565b5b5092915050565b7f4e487b71000000000000000000000000000000000000000000000000000000005f52601260045260245ffd5b5f6126a382611a9d565b91506126ae83611a9d565b9250826126be576126bd61266c565b5b828204905092915050565b7f556e69737761705632526f757465723a20546f6b656e732061727261792069735f8201527f20746f6f206c6f6e672c2072656475636520746865206e756d626572206f662060208201527f746f6b656e730000000000000000000000000000000000000000000000000000604082015250565b5f6127496046836120ae565b9150612754826126c9565b606082019050919050565b5f6020820190508181035f8301526127768161273d565b9050919050565b5f81905092915050565b7f416363657373436f6e74726f6c3a206163636f756e74200000000000000000005f82015250565b5f6127bb60178361277d565b91506127c682612787565b601782019050919050565b5f81519050919050565b8281835e5f83830152505050565b5f6127f3826127d1565b6127fd818561277d565b935061280d8185602086016127db565b80840191505092915050565b7f206973206d697373696e6720726f6c65200000000000000000000000000000005f82015250565b5f61284d60118361277d565b915061285882612819565b601182019050919050565b5f61286d826127af565b915061287982856127e9565b915061288482612841565b915061289082846127e9565b91508190509392505050565b5f6128a6826127d1565b6128b081856120ae565b93506128c08185602086016127db565b6128c981611c69565b840191505092915050565b5f6020820190508181035f8301526128ec818461289c565b905092915050565b5f6128fe82611a9d565b91505f82036129105761290f612598565b5b600182039050919050565b7f537472696e67733a20686578206c656e67746820696e73756666696369656e745f82015250565b5f61294f6020836120ae565b915061295a8261291b565b602082019050919050565b5f6020820190508181035f83015261297c81612943565b905091905056fea2646970667358221220a3d32f6ebb2fb6b3d8a9e67349126fedaeddba6f9a19564dcf935020f7f1eed264736f6c634300081e0033",
					"opcodes": "PUSH1 0xA0 PUSH1 0x40 MSTORE CALLVALUE DUP1 ISZERO PUSH2 0xF JUMPI PUSH0 PUSH0 REVERT JUMPDEST POP PUSH1 0x40 MLOAD PUSH2 0x2D64 CODESIZE SUB DUP1 PUSH2 0x2D64 DUP4 CODECOPY DUP2 DUP2 ADD PUSH1 0x40 MSTORE DUP2 ADD SWAP1 PUSH2 0x31 SWAP2 SWAP1 PUSH2 0x345 JUMP JUMPDEST DUP1 PUSH20 0xFFFFFFFFFFFFFFFFFFFFFFFFFFFFFFFFFFFFFFFF AND PUSH1 0x80 DUP2 PUSH20 0xFFFFFFFFFFFFFFFFFFFFFFFFFFFFFFFFFFFFFFFF AND DUP2 MSTORE POP POP PUSH2 0x84 PUSH0 PUSH0 SHL PUSH2 0x79 PUSH2 0x195 PUSH1 0x20 SHL PUSH1 0x20 SHR JUMP JUMPDEST PUSH2 0x19C PUSH1 0x20 SHL PUSH1 0x20 SHR JUMP JUMPDEST PUSH2 0xC1 PUSH32 0xA451215B66F023BB76F9A9E7BC5C64156446B47B26061A8A32EAA319C45F695E PUSH2 0xB6 PUSH2 0x195 PUSH1 0x20 SHL PUSH1 0x20 SHR JUMP JUMPDEST PUSH2 0x19C PUSH1 0x20 SHL PUSH1 0x20 SHR JUMP JUMPDEST PUSH1 0x40 MLOAD DUP1 PUSH1 0x40 ADD PUSH1 0x40 MSTORE DUP1 PUSH8 0xDE0B6B3A7640000 DUP2 MSTORE PUSH1 0x20 ADD PUSH2 0xE8 PUSH2 0x195 PUSH1 0x20 SHL PUSH1 0x20 SHR JUMP JUMPDEST PUSH20 0xFFFFFFFFFFFFFFFFFFFFFFFFFFFFFFFFFFFFFFFF AND DUP2 MSTORE POP PUSH1 0x97 PUSH0 DUP4 PUSH20 0xFFFFFFFFFFFFFFFFFFFFFFFFFFFFFFFFFFFFFFFF AND PUSH20 0xFFFFFFFFFFFFFFFFFFFFFFFFFFFFFFFFFFFFFFFF AND DUP2 MSTORE PUSH1 0x20 ADD SWAP1 DUP2 MSTORE PUSH1 0x20 ADD PUSH0 KECCAK256 PUSH0 DUP3 ADD MLOAD DUP2 PUSH0 ADD SSTORE PUSH1 0x20 DUP3 ADD MLOAD DUP2 PUSH1 0x1 ADD PUSH0 PUSH2 0x100 EXP DUP2 SLOAD DUP2 PUSH20 0xFFFFFFFFFFFFFFFFFFFFFFFFFFFFFFFFFFFFFFFF MUL NOT AND SWAP1 DUP4 PUSH20 0xFFFFFFFFFFFFFFFFFFFFFFFFFFFFFFFFFFFFFFFF AND MUL OR SWAP1 SSTORE POP SWAP1 POP POP POP PUSH2 0x370 JUMP JUMPDEST PUSH0 CALLER SWAP1 POP SWAP1 JUMP JUMPDEST PUSH2 0x1AC DUP3 DUP3 PUSH2 0x283 PUSH1 0x20 SHL PUSH1 0x20 SHR JUMP JUMPDEST PUSH2 0x27F JUMPI PUSH1 0x1 PUSH1 0x65 PUSH0 DUP5 DUP2 MSTORE PUSH1 0x20 ADD SWAP1 DUP2 MSTORE PUSH1 0x20 ADD PUSH0 KECCAK256 PUSH0 ADD PUSH0 DUP4 PUSH20 0xFFFFFFFFFFFFFFFFFFFFFFFFFFFFFFFFFFFFFFFF AND PUSH20 0xFFFFFFFFFFFFFFFFFFFFFFFFFFFFFFFFFFFFFFFF AND DUP2 MSTORE PUSH1 0x20 ADD SWAP1 DUP2 MSTORE PUSH1 0x20 ADD PUSH0 KECCAK256 PUSH0 PUSH2 0x100 EXP DUP2 SLOAD DUP2 PUSH1 0xFF MUL NOT AND SWAP1 DUP4 ISZERO ISZERO MUL OR SWAP1 SSTORE POP PUSH2 0x224 PUSH2 0x195 PUSH1 0x20 SHL PUSH1 0x20 SHR JUMP JUMPDEST PUSH20 0xFFFFFFFFFFFFFFFFFFFFFFFFFFFFFFFFFFFFFFFF AND DUP2 PUSH20 0xFFFFFFFFFFFFFFFFFFFFFFFFFFFFFFFFFFFFFFFF AND DUP4 PUSH32 0x2F8788117E7EFF1D82E926EC794901D17C78024A50270940304540A733656F0D PUSH1 0x40 MLOAD PUSH1 0x40 MLOAD DUP1 SWAP2 SUB SWAP1 LOG4 JUMPDEST POP POP JUMP JUMPDEST PUSH0 PUSH1 0x65 PUSH0 DUP5 DUP2 MSTORE PUSH1 0x20 ADD SWAP1 DUP2 MSTORE PUSH1 0x20 ADD PUSH0 KECCAK256 PUSH0 ADD PUSH0 DUP4 PUSH20 0xFFFFFFFFFFFFFFFFFFFFFFFFFFFFFFFFFFFFFFFF AND PUSH20 0xFFFFFFFFFFFFFFFFFFFFFFFFFFFFFFFFFFFFFFFF AND DUP2 MSTORE PUSH1 0x20 ADD SWAP1 DUP2 MSTORE PUSH1 0x20 ADD PUSH0 KECCAK256 PUSH0 SWAP1 SLOAD SWAP1 PUSH2 0x100 EXP SWAP1 DIV PUSH1 0xFF AND SWAP1 POP SWAP3 SWAP2 POP POP JUMP JUMPDEST PUSH0 PUSH0 REVERT JUMPDEST PUSH0 PUSH20 0xFFFFFFFFFFFFFFFFFFFFFFFFFFFFFFFFFFFFFFFF DUP3 AND SWAP1 POP SWAP2 SWAP1 POP JUMP JUMPDEST PUSH0 PUSH2 0x314 DUP3 PUSH2 0x2EB JUMP JUMPDEST SWAP1 POP SWAP2 SWAP1 POP JUMP JUMPDEST PUSH2 0x324 DUP2 PUSH2 0x30A JUMP JUMPDEST DUP2 EQ PUSH2 0x32E JUMPI PUSH0 PUSH0 REVERT JUMPDEST POP JUMP JUMPDEST PUSH0 DUP2 MLOAD SWAP1 POP PUSH2 0x33F DUP2 PUSH2 0x31B JUMP JUMPDEST SWAP3 SWAP2 POP POP JUMP JUMPDEST PUSH0 PUSH1 0x20 DUP3 DUP5 SUB SLT ISZERO PUSH2 0x35A JUMPI PUSH2 0x359 PUSH2 0x2E7 JUMP JUMPDEST JUMPDEST PUSH0 PUSH2 0x367 DUP5 DUP3 DUP6 ADD PUSH2 0x331 JUMP JUMPDEST SWAP2 POP POP SWAP3 SWAP2 POP POP JUMP JUMPDEST PUSH1 0x80 MLOAD PUSH2 0x29B9 PUSH2 0x3AB PUSH0 CODECOPY PUSH0 DUP2 DUP2 PUSH2 0x68D ADD MSTORE DUP2 DUP2 PUSH2 0x6B2 ADD MSTORE DUP2 DUP2 PUSH2 0x6D8 ADD MSTORE DUP2 DUP2 PUSH2 0x9FD ADD MSTORE DUP2 DUP2 PUSH2 0xA7A ADD MSTORE PUSH2 0xDD3 ADD MSTORE PUSH2 0x29B9 PUSH0 RETURN INVALID PUSH1 0x80 PUSH1 0x40 MSTORE PUSH1 0x4 CALLDATASIZE LT PUSH2 0xFD JUMPI PUSH0 CALLDATALOAD PUSH1 0xE0 SHR DUP1 PUSH4 0xAFFA8817 GT PUSH2 0x94 JUMPI DUP1 PUSH4 0xD06CA61F GT PUSH2 0x63 JUMPI DUP1 PUSH4 0xD06CA61F EQ PUSH2 0x341 JUMPI DUP1 PUSH4 0xD547741F EQ PUSH2 0x37D JUMPI DUP1 PUSH4 0xDD4BE683 EQ PUSH2 0x3A5 JUMPI DUP1 PUSH4 0xEB71F7E6 EQ PUSH2 0x3E2 JUMPI DUP1 PUSH4 0xFA1C631B EQ PUSH2 0x40A JUMPI PUSH2 0xFD JUMP JUMPDEST DUP1 PUSH4 0xAFFA8817 EQ PUSH2 0x295 JUMPI DUP1 PUSH4 0xB6F9DE95 EQ PUSH2 0x2BF JUMPI DUP1 PUSH4 0xCF0888AA EQ PUSH2 0x2DB JUMPI DUP1 PUSH4 0xD02641A0 EQ PUSH2 0x305 JUMPI PUSH2 0xFD JUMP JUMPDEST DUP1 PUSH4 0x88AA8BEE GT PUSH2 0xD0 JUMPI DUP1 PUSH4 0x88AA8BEE EQ PUSH2 0x1C9 JUMPI DUP1 PUSH4 0x91D14854 EQ PUSH2 0x205 JUMPI DUP1 PUSH4 0xA217FDDF EQ PUSH2 0x241 JUMPI DUP1 PUSH4 0xAD5C4648 EQ PUSH2 0x26B JUMPI PUSH2 0xFD JUMP JUMPDEST DUP1 PUSH4 0x1FFC9A7 EQ PUSH2 0x101 JUMPI DUP1 PUSH4 0x248A9CA3 EQ PUSH2 0x13D JUMPI DUP1 PUSH4 0x2F2FF15D EQ PUSH2 0x179 JUMPI DUP1 PUSH4 0x36568ABE EQ PUSH2 0x1A1 JUMPI JUMPDEST PUSH0 PUSH0 REVERT JUMPDEST CALLVALUE DUP1 ISZERO PUSH2 0x10C JUMPI PUSH0 PUSH0 REVERT JUMPDEST POP PUSH2 0x127 PUSH1 0x4 DUP1 CALLDATASIZE SUB DUP2 ADD SWAP1 PUSH2 0x122 SWAP2 SWAP1 PUSH2 0x18F6 JUMP JUMPDEST PUSH2 0x432 JUMP JUMPDEST PUSH1 0x40 MLOAD PUSH2 0x134 SWAP2 SWAP1 PUSH2 0x193B JUMP JUMPDEST PUSH1 0x40 MLOAD DUP1 SWAP2 SUB SWAP1 RETURN JUMPDEST CALLVALUE DUP1 ISZERO PUSH2 0x148 JUMPI PUSH0 PUSH0 REVERT JUMPDEST POP PUSH2 0x163 PUSH1 0x4 DUP1 CALLDATASIZE SUB DUP2 ADD SWAP1 PUSH2 0x15E SWAP2 SWAP1 PUSH2 0x1987 JUMP JUMPDEST PUSH2 0x4AB JUMP JUMPDEST PUSH1 0x40 MLOAD PUSH2 0x170 SWAP2 SWAP1 PUSH2 0x19C1 JUMP JUMPDEST PUSH1 0x40 MLOAD DUP1 SWAP2 SUB SWAP1 RETURN JUMPDEST CALLVALUE DUP1 ISZERO PUSH2 0x184 JUMPI PUSH0 PUSH0 REVERT JUMPDEST POP PUSH2 0x19F PUSH1 0x4 DUP1 CALLDATASIZE SUB DUP2 ADD SWAP1 PUSH2 0x19A SWAP2 SWAP1 PUSH2 0x1A34 JUMP JUMPDEST PUSH2 0x4C8 JUMP JUMPDEST STOP JUMPDEST CALLVALUE DUP1 ISZERO PUSH2 0x1AC JUMPI PUSH0 PUSH0 REVERT JUMPDEST POP PUSH2 0x1C7 PUSH1 0x4 DUP1 CALLDATASIZE SUB DUP2 ADD SWAP1 PUSH2 0x1C2 SWAP2 SWAP1 PUSH2 0x1A34 JUMP JUMPDEST PUSH2 0x4E9 JUMP JUMPDEST STOP JUMPDEST CALLVALUE DUP1 ISZERO PUSH2 0x1D4 JUMPI PUSH0 PUSH0 REVERT JUMPDEST POP PUSH2 0x1EF PUSH1 0x4 DUP1 CALLDATASIZE SUB DUP2 ADD SWAP1 PUSH2 0x1EA SWAP2 SWAP1 PUSH2 0x1A72 JUMP JUMPDEST PUSH2 0x56C JUMP JUMPDEST PUSH1 0x40 MLOAD PUSH2 0x1FC SWAP2 SWAP1 PUSH2 0x1AF1 JUMP JUMPDEST PUSH1 0x40 MLOAD DUP1 SWAP2 SUB SWAP1 RETURN JUMPDEST CALLVALUE DUP1 ISZERO PUSH2 0x210 JUMPI PUSH0 PUSH0 REVERT JUMPDEST POP PUSH2 0x22B PUSH1 0x4 DUP1 CALLDATASIZE SUB DUP2 ADD SWAP1 PUSH2 0x226 SWAP2 SWAP1 PUSH2 0x1A34 JUMP JUMPDEST PUSH2 0x621 JUMP JUMPDEST PUSH1 0x40 MLOAD PUSH2 0x238 SWAP2 SWAP1 PUSH2 0x193B JUMP JUMPDEST PUSH1 0x40 MLOAD DUP1 SWAP2 SUB SWAP1 RETURN JUMPDEST CALLVALUE DUP1 ISZERO PUSH2 0x24C JUMPI PUSH0 PUSH0 REVERT JUMPDEST POP PUSH2 0x255 PUSH2 0x685 JUMP JUMPDEST PUSH1 0x40 MLOAD PUSH2 0x262 SWAP2 SWAP1 PUSH2 0x19C1 JUMP JUMPDEST PUSH1 0x40 MLOAD DUP1 SWAP2 SUB SWAP1 RETURN JUMPDEST CALLVALUE DUP1 ISZERO PUSH2 0x276 JUMPI PUSH0 PUSH0 REVERT JUMPDEST POP PUSH2 0x27F PUSH2 0x68B JUMP JUMPDEST PUSH1 0x40 MLOAD PUSH2 0x28C SWAP2 SWAP1 PUSH2 0x1B19 JUMP JUMPDEST PUSH1 0x40 MLOAD DUP1 SWAP2 SUB SWAP1 RETURN JUMPDEST CALLVALUE DUP1 ISZERO PUSH2 0x2A0 JUMPI PUSH0 PUSH0 REVERT JUMPDEST POP PUSH2 0x2A9 PUSH2 0x6AF JUMP JUMPDEST PUSH1 0x40 MLOAD PUSH2 0x2B6 SWAP2 SWAP1 PUSH2 0x1B19 JUMP JUMPDEST PUSH1 0x40 MLOAD DUP1 SWAP2 SUB SWAP1 RETURN JUMPDEST PUSH2 0x2D9 PUSH1 0x4 DUP1 CALLDATASIZE SUB DUP2 ADD SWAP1 PUSH2 0x2D4 SWAP2 SWAP1 PUSH2 0x1BBD JUMP JUMPDEST PUSH2 0x6D6 JUMP JUMPDEST STOP JUMPDEST CALLVALUE DUP1 ISZERO PUSH2 0x2E6 JUMPI PUSH0 PUSH0 REVERT JUMPDEST POP PUSH2 0x2EF PUSH2 0xBED JUMP JUMPDEST PUSH1 0x40 MLOAD PUSH2 0x2FC SWAP2 SWAP1 PUSH2 0x19C1 JUMP JUMPDEST PUSH1 0x40 MLOAD DUP1 SWAP2 SUB SWAP1 RETURN JUMPDEST CALLVALUE DUP1 ISZERO PUSH2 0x310 JUMPI PUSH0 PUSH0 REVERT JUMPDEST POP PUSH2 0x32B PUSH1 0x4 DUP1 CALLDATASIZE SUB DUP2 ADD SWAP1 PUSH2 0x326 SWAP2 SWAP1 PUSH2 0x1A72 JUMP JUMPDEST PUSH2 0xC11 JUMP JUMPDEST PUSH1 0x40 MLOAD PUSH2 0x338 SWAP2 SWAP1 PUSH2 0x1C50 JUMP JUMPDEST PUSH1 0x40 MLOAD DUP1 SWAP2 SUB SWAP1 RETURN JUMPDEST CALLVALUE DUP1 ISZERO PUSH2 0x34C JUMPI PUSH0 PUSH0 REVERT JUMPDEST POP PUSH2 0x367 PUSH1 0x4 DUP1 CALLDATASIZE SUB DUP2 ADD SWAP1 PUSH2 0x362 SWAP2 SWAP1 PUSH2 0x1DB1 JUMP JUMPDEST PUSH2 0xC59 JUMP JUMPDEST PUSH1 0x40 MLOAD PUSH2 0x374 SWAP2 SWAP1 PUSH2 0x1EB3 JUMP JUMPDEST PUSH1 0x40 MLOAD DUP1 SWAP2 SUB SWAP1 RETURN JUMPDEST CALLVALUE DUP1 ISZERO PUSH2 0x388 JUMPI PUSH0 PUSH0 REVERT JUMPDEST POP PUSH2 0x3A3 PUSH1 0x4 DUP1 CALLDATASIZE SUB DUP2 ADD SWAP1 PUSH2 0x39E SWAP2 SWAP1 PUSH2 0x1A34 JUMP JUMPDEST PUSH2 0x1064 JUMP JUMPDEST STOP JUMPDEST CALLVALUE DUP1 ISZERO PUSH2 0x3B0 JUMPI PUSH0 PUSH0 REVERT JUMPDEST POP PUSH2 0x3CB PUSH1 0x4 DUP1 CALLDATASIZE SUB DUP2 ADD SWAP1 PUSH2 0x3C6 SWAP2 SWAP1 PUSH2 0x1A72 JUMP JUMPDEST PUSH2 0x1085 JUMP JUMPDEST PUSH1 0x40 MLOAD PUSH2 0x3D9 SWAP3 SWAP2 SWAP1 PUSH2 0x1ED3 JUMP JUMPDEST PUSH1 0x40 MLOAD DUP1 SWAP2 SUB SWAP1 RETURN JUMPDEST CALLVALUE DUP1 ISZERO PUSH2 0x3ED JUMPI PUSH0 PUSH0 REVERT JUMPDEST POP PUSH2 0x408 PUSH1 0x4 DUP1 CALLDATASIZE SUB DUP2 ADD SWAP1 PUSH2 0x403 SWAP2 SWAP1 PUSH2 0x1FBA JUMP JUMPDEST PUSH2 0x10C4 JUMP JUMPDEST STOP JUMPDEST CALLVALUE DUP1 ISZERO PUSH2 0x415 JUMPI PUSH0 PUSH0 REVERT JUMPDEST POP PUSH2 0x430 PUSH1 0x4 DUP1 CALLDATASIZE SUB DUP2 ADD SWAP1 PUSH2 0x42B SWAP2 SWAP1 PUSH2 0x205E JUMP JUMPDEST PUSH2 0x1259 JUMP JUMPDEST STOP JUMPDEST PUSH0 PUSH32 0x7965DB0B00000000000000000000000000000000000000000000000000000000 PUSH28 0xFFFFFFFFFFFFFFFFFFFFFFFFFFFFFFFFFFFFFFFFFFFFFFFFFFFFFFFF NOT AND DUP3 PUSH28 0xFFFFFFFFFFFFFFFFFFFFFFFFFFFFFFFFFFFFFFFFFFFFFFFFFFFFFFFF NOT AND EQ DUP1 PUSH2 0x4A4 JUMPI POP PUSH2 0x4A3 DUP3 PUSH2 0x1342 JUMP JUMPDEST JUMPDEST SWAP1 POP SWAP2 SWAP1 POP JUMP JUMPDEST PUSH0 PUSH1 0x65 PUSH0 DUP4 DUP2 MSTORE PUSH1 0x20 ADD SWAP1 DUP2 MSTORE PUSH1 0x20 ADD PUSH0 KECCAK256 PUSH1 0x1 ADD SLOAD SWAP1 POP SWAP2 SWAP1 POP JUMP JUMPDEST PUSH2 0x4D1 DUP3 PUSH2 0x4AB JUMP JUMPDEST PUSH2 0x4DA DUP2 PUSH2 0x13AB JUMP JUMPDEST PUSH2 0x4E4 DUP4 DUP4 PUSH2 0x13BF JUMP JUMPDEST POP POP POP JUMP JUMPDEST PUSH2 0x4F1 PUSH2 0x149A JUMP JUMPDEST PUSH20 0xFFFFFFFFFFFFFFFFFFFFFFFFFFFFFFFFFFFFFFFF AND DUP2 PUSH20 0xFFFFFFFFFFFFFFFFFFFFFFFFFFFFFFFFFFFFFFFF AND EQ PUSH2 0x55E JUMPI PUSH1 0x40 MLOAD PUSH32 0x8C379A000000000000000000000000000000000000000000000000000000000 DUP2 MSTORE PUSH1 0x4 ADD PUSH2 0x555 SWAP1 PUSH2 0x212E JUMP JUMPDEST PUSH1 0x40 MLOAD DUP1 SWAP2 SUB SWAP1 REVERT JUMPDEST PUSH2 0x568 DUP3 DUP3 PUSH2 0x14A1 JUMP JUMPDEST POP POP JUMP JUMPDEST PUSH2 0x574 PUSH2 0x1862 JUMP JUMPDEST PUSH1 0x97 PUSH0 DUP4 PUSH20 0xFFFFFFFFFFFFFFFFFFFFFFFFFFFFFFFFFFFFFFFF AND PUSH20 0xFFFFFFFFFFFFFFFFFFFFFFFFFFFFFFFFFFFFFFFF AND DUP2 MSTORE PUSH1 0x20 ADD SWAP1 DUP2 MSTORE PUSH1 0x20 ADD PUSH0 KECCAK256 PUSH1 0x40 MLOAD DUP1 PUSH1 0x40 ADD PUSH1 0x40 MSTORE SWAP1 DUP2 PUSH0 DUP3 ADD SLOAD DUP2 MSTORE PUSH1 0x20 ADD PUSH1 0x1 DUP3 ADD PUSH0 SWAP1 SLOAD SWAP1 PUSH2 0x100 EXP SWAP1 DIV PUSH20 0xFFFFFFFFFFFFFFFFFFFFFFFFFFFFFFFFFFFFFFFF AND PUSH20 0xFFFFFFFFFFFFFFFFFFFFFFFFFFFFFFFFFFFFFFFF AND PUSH20 0xFFFFFFFFFFFFFFFFFFFFFFFFFFFFFFFFFFFFFFFF AND DUP2 MSTORE POP POP SWAP1 POP SWAP2 SWAP1 POP JUMP JUMPDEST PUSH0 PUSH1 0x65 PUSH0 DUP5 DUP2 MSTORE PUSH1 0x20 ADD SWAP1 DUP2 MSTORE PUSH1 0x20 ADD PUSH0 KECCAK256 PUSH0 ADD PUSH0 DUP4 PUSH20 0xFFFFFFFFFFFFFFFFFFFFFFFFFFFFFFFFFFFFFFFF AND PUSH20 0xFFFFFFFFFFFFFFFFFFFFFFFFFFFFFFFFFFFFFFFF AND DUP2 MSTORE PUSH1 0x20 ADD SWAP1 DUP2 MSTORE PUSH1 0x20 ADD PUSH0 KECCAK256 PUSH0 SWAP1 SLOAD SWAP1 PUSH2 0x100 EXP SWAP1 DIV PUSH1 0xFF AND SWAP1 POP SWAP3 SWAP2 POP POP JUMP JUMPDEST PUSH0 PUSH0 SHL DUP2 JUMP JUMPDEST PUSH32 0x0 DUP2 JUMP JUMPDEST PUSH0 PUSH32 0x0 SWAP1 POP SWAP1 JUMP JUMPDEST PUSH32 0x0 PUSH20 0xFFFFFFFFFFFFFFFFFFFFFFFFFFFFFFFFFFFFFFFF AND DUP5 DUP5 PUSH0 DUP2 DUP2 LT PUSH2 0x720 JUMPI PUSH2 0x71F PUSH2 0x214C JUMP JUMPDEST JUMPDEST SWAP1 POP PUSH1 0x20 MUL ADD PUSH1 0x20 DUP2 ADD SWAP1 PUSH2 0x735 SWAP2 SWAP1 PUSH2 0x1A72 JUMP JUMPDEST PUSH20 0xFFFFFFFFFFFFFFFFFFFFFFFFFFFFFFFFFFFFFFFF AND EQ PUSH2 0x78B JUMPI PUSH1 0x40 MLOAD PUSH32 0x8C379A000000000000000000000000000000000000000000000000000000000 DUP2 MSTORE PUSH1 0x4 ADD PUSH2 0x782 SWAP1 PUSH2 0x21C3 JUMP JUMPDEST PUSH1 0x40 MLOAD DUP1 SWAP2 SUB SWAP1 REVERT JUMPDEST TIMESTAMP DUP2 LT ISZERO PUSH2 0x7CE JUMPI PUSH1 0x40 MLOAD PUSH32 0x8C379A000000000000000000000000000000000000000000000000000000000 DUP2 MSTORE PUSH1 0x4 ADD PUSH2 0x7C5 SWAP1 PUSH2 0x222B JUMP JUMPDEST PUSH1 0x40 MLOAD DUP1 SWAP2 SUB SWAP1 REVERT JUMPDEST PUSH0 CALLVALUE SWAP1 POP PUSH0 PUSH2 0x81D DUP3 DUP8 DUP8 DUP1 DUP1 PUSH1 0x20 MUL PUSH1 0x20 ADD PUSH1 0x40 MLOAD SWAP1 DUP2 ADD PUSH1 0x40 MSTORE DUP1 SWAP4 SWAP3 SWAP2 SWAP1 DUP2 DUP2 MSTORE PUSH1 0x20 ADD DUP4 DUP4 PUSH1 0x20 MUL DUP1 DUP3 DUP5 CALLDATACOPY PUSH0 DUP2 DUP5 ADD MSTORE PUSH1 0x1F NOT PUSH1 0x1F DUP3 ADD AND SWAP1 POP DUP1 DUP4 ADD SWAP3 POP POP POP POP POP POP POP PUSH2 0xC59 JUMP JUMPDEST PUSH1 0x1 DUP2 MLOAD DUP2 LT PUSH2 0x830 JUMPI PUSH2 0x82F PUSH2 0x214C JUMP JUMPDEST JUMPDEST PUSH1 0x20 MUL PUSH1 0x20 ADD ADD MLOAD SWAP1 POP PUSH0 DUP2 GT DUP1 ISZERO PUSH2 0x849 JUMPI POP DUP7 DUP2 LT ISZERO JUMPDEST PUSH2 0x888 JUMPI PUSH1 0x40 MLOAD PUSH32 0x8C379A000000000000000000000000000000000000000000000000000000000 DUP2 MSTORE PUSH1 0x4 ADD PUSH2 0x87F SWAP1 PUSH2 0x22B9 JUMP JUMPDEST PUSH1 0x40 MLOAD DUP1 SWAP2 SUB SWAP1 REVERT JUMPDEST PUSH0 PUSH1 0x97 PUSH0 DUP9 DUP9 PUSH1 0x1 DUP2 DUP2 LT PUSH2 0x8A0 JUMPI PUSH2 0x89F PUSH2 0x214C JUMP JUMPDEST JUMPDEST SWAP1 POP PUSH1 0x20 MUL ADD PUSH1 0x20 DUP2 ADD SWAP1 PUSH2 0x8B5 SWAP2 SWAP1 PUSH2 0x1A72 JUMP JUMPDEST PUSH20 0xFFFFFFFFFFFFFFFFFFFFFFFFFFFFFFFFFFFFFFFF AND PUSH20 0xFFFFFFFFFFFFFFFFFFFFFFFFFFFFFFFFFFFFFFFF AND DUP2 MSTORE PUSH1 0x20 ADD SWAP1 DUP2 MSTORE PUSH1 0x20 ADD PUSH0 KECCAK256 PUSH1 0x1 ADD PUSH0 SWAP1 SLOAD SWAP1 PUSH2 0x100 EXP SWAP1 DIV PUSH20 0xFFFFFFFFFFFFFFFFFFFFFFFFFFFFFFFFFFFFFFFF AND SWAP1 POP PUSH0 DUP8 DUP8 PUSH1 0x1 DUP2 DUP2 LT PUSH2 0x928 JUMPI PUSH2 0x927 PUSH2 0x214C JUMP JUMPDEST JUMPDEST SWAP1 POP PUSH1 0x20 MUL ADD PUSH1 0x20 DUP2 ADD SWAP1 PUSH2 0x93D SWAP2 SWAP1 PUSH2 0x1A72 JUMP JUMPDEST PUSH20 0xFFFFFFFFFFFFFFFFFFFFFFFFFFFFFFFFFFFFFFFF AND PUSH4 0xDD62ED3E DUP4 ADDRESS PUSH1 0x40 MLOAD DUP4 PUSH4 0xFFFFFFFF AND PUSH1 0xE0 SHL DUP2 MSTORE PUSH1 0x4 ADD PUSH2 0x977 SWAP3 SWAP2 SWAP1 PUSH2 0x22D7 JUMP JUMPDEST PUSH1 0x20 PUSH1 0x40 MLOAD DUP1 DUP4 SUB DUP2 DUP7 GAS STATICCALL ISZERO DUP1 ISZERO PUSH2 0x992 JUMPI RETURNDATASIZE PUSH0 PUSH0 RETURNDATACOPY RETURNDATASIZE PUSH0 REVERT JUMPDEST POP POP POP POP PUSH1 0x40 MLOAD RETURNDATASIZE PUSH1 0x1F NOT PUSH1 0x1F DUP3 ADD AND DUP3 ADD DUP1 PUSH1 0x40 MSTORE POP DUP2 ADD SWAP1 PUSH2 0x9B6 SWAP2 SWAP1 PUSH2 0x2312 JUMP JUMPDEST SWAP1 POP DUP3 DUP2 LT ISZERO PUSH2 0x9FB JUMPI PUSH1 0x40 MLOAD PUSH32 0x8C379A000000000000000000000000000000000000000000000000000000000 DUP2 MSTORE PUSH1 0x4 ADD PUSH2 0x9F2 SWAP1 PUSH2 0x23AD JUMP JUMPDEST PUSH1 0x40 MLOAD DUP1 SWAP2 SUB SWAP1 REVERT JUMPDEST PUSH32 0x0 PUSH20 0xFFFFFFFFFFFFFFFFFFFFFFFFFFFFFFFFFFFFFFFF AND PUSH4 0xD0E30DB0 DUP6 PUSH1 0x40 MLOAD DUP3 PUSH4 0xFFFFFFFF AND PUSH1 0xE0 SHL DUP2 MSTORE PUSH1 0x4 ADD PUSH0 PUSH1 0x40 MLOAD DUP1 DUP4 SUB DUP2 DUP6 DUP9 DUP1 EXTCODESIZE ISZERO DUP1 ISZERO PUSH2 0xA61 JUMPI PUSH0 PUSH0 REVERT JUMPDEST POP GAS CALL ISZERO DUP1 ISZERO PUSH2 0xA73 JUMPI RETURNDATASIZE PUSH0 PUSH0 RETURNDATACOPY RETURNDATASIZE PUSH0 REVERT JUMPDEST POP POP POP POP POP PUSH32 0x0 PUSH20 0xFFFFFFFFFFFFFFFFFFFFFFFFFFFFFFFFFFFFFFFF AND PUSH4 0xA9059CBB DUP10 DUP10 PUSH1 0x1 DUP2 DUP2 LT PUSH2 0xAC8 JUMPI PUSH2 0xAC7 PUSH2 0x214C JUMP JUMPDEST JUMPDEST SWAP1 POP PUSH1 0x20 MUL ADD PUSH1 0x20 DUP2 ADD SWAP1 PUSH2 0xADD SWAP2 SWAP1 PUSH2 0x1A72 JUMP JUMPDEST DUP7 PUSH1 0x40 MLOAD DUP4 PUSH4 0xFFFFFFFF AND PUSH1 0xE0 SHL DUP2 MSTORE PUSH1 0x4 ADD PUSH2 0xAFB SWAP3 SWAP2 SWAP1 PUSH2 0x23CB JUMP JUMPDEST PUSH1 0x20 PUSH1 0x40 MLOAD DUP1 DUP4 SUB DUP2 PUSH0 DUP8 GAS CALL ISZERO DUP1 ISZERO PUSH2 0xB17 JUMPI RETURNDATASIZE PUSH0 PUSH0 RETURNDATACOPY RETURNDATASIZE PUSH0 REVERT JUMPDEST POP POP POP POP PUSH1 0x40 MLOAD RETURNDATASIZE PUSH1 0x1F NOT PUSH1 0x1F DUP3 ADD AND DUP3 ADD DUP1 PUSH1 0x40 MSTORE POP DUP2 ADD SWAP1 PUSH2 0xB3B SWAP2 SWAP1 PUSH2 0x241C JUMP JUMPDEST POP DUP8 DUP8 PUSH1 0x1 DUP2 DUP2 LT PUSH2 0xB50 JUMPI PUSH2 0xB4F PUSH2 0x214C JUMP JUMPDEST JUMPDEST SWAP1 POP PUSH1 0x20 MUL ADD PUSH1 0x20 DUP2 ADD SWAP1 PUSH2 0xB65 SWAP2 SWAP1 PUSH2 0x1A72 JUMP JUMPDEST PUSH20 0xFFFFFFFFFFFFFFFFFFFFFFFFFFFFFFFFFFFFFFFF AND PUSH4 0x23B872DD DUP4 DUP9 DUP7 PUSH1 0x40 MLOAD DUP5 PUSH4 0xFFFFFFFF AND PUSH1 0xE0 SHL DUP2 MSTORE PUSH1 0x4 ADD PUSH2 0xBA1 SWAP4 SWAP3 SWAP2 SWAP1 PUSH2 0x2447 JUMP JUMPDEST PUSH1 0x20 PUSH1 0x40 MLOAD DUP1 DUP4 SUB DUP2 PUSH0 DUP8 GAS CALL ISZERO DUP1 ISZERO PUSH2 0xBBD JUMPI RETURNDATASIZE PUSH0 PUSH0 RETURNDATACOPY RETURNDATASIZE PUSH0 REVERT JUMPDEST POP POP POP POP PUSH1 0x40 MLOAD RETURNDATASIZE PUSH1 0x1F NOT PUSH1 0x1F DUP3 ADD AND DUP3 ADD DUP1 PUSH1 0x40 MSTORE POP DUP2 ADD SWAP1 PUSH2 0xBE1 SWAP2 SWAP1 PUSH2 0x241C JUMP JUMPDEST POP POP POP POP POP POP POP POP POP POP JUMP JUMPDEST PUSH32 0xA451215B66F023BB76F9A9E7BC5C64156446B47B26061A8A32EAA319C45F695E DUP2 JUMP JUMPDEST PUSH0 PUSH1 0x97 PUSH0 DUP4 PUSH20 0xFFFFFFFFFFFFFFFFFFFFFFFFFFFFFFFFFFFFFFFF AND PUSH20 0xFFFFFFFFFFFFFFFFFFFFFFFFFFFFFFFFFFFFFFFF AND DUP2 MSTORE PUSH1 0x20 ADD SWAP1 DUP2 MSTORE PUSH1 0x20 ADD PUSH0 KECCAK256 PUSH0 ADD SLOAD SWAP1 POP SWAP2 SWAP1 POP JUMP JUMPDEST PUSH1 0x60 PUSH0 DUP4 GT PUSH2 0xC9D JUMPI PUSH1 0x40 MLOAD PUSH32 0x8C379A000000000000000000000000000000000000000000000000000000000 DUP2 MSTORE PUSH1 0x4 ADD PUSH2 0xC94 SWAP1 PUSH2 0x24EC JUMP JUMPDEST PUSH1 0x40 MLOAD DUP1 SWAP2 SUB SWAP1 REVERT JUMPDEST PUSH1 0x2 DUP3 MLOAD LT ISZERO PUSH2 0xCE2 JUMPI PUSH1 0x40 MLOAD PUSH32 0x8C379A000000000000000000000000000000000000000000000000000000000 DUP2 MSTORE PUSH1 0x4 ADD PUSH2 0xCD9 SWAP1 PUSH2 0x257A JUMP JUMPDEST PUSH1 0x40 MLOAD DUP1 SWAP2 SUB SWAP1 REVERT JUMPDEST DUP2 MLOAD PUSH8 0xFFFFFFFFFFFFFFFF DUP2 GT ISZERO PUSH2 0xCFD JUMPI PUSH2 0xCFC PUSH2 0x1C79 JUMP JUMPDEST JUMPDEST PUSH1 0x40 MLOAD SWAP1 DUP1 DUP3 MSTORE DUP1 PUSH1 0x20 MUL PUSH1 0x20 ADD DUP3 ADD PUSH1 0x40 MSTORE DUP1 ISZERO PUSH2 0xD2B JUMPI DUP2 PUSH1 0x20 ADD PUSH1 0x20 DUP3 MUL DUP1 CALLDATASIZE DUP4 CALLDATACOPY DUP1 DUP3 ADD SWAP2 POP POP SWAP1 POP JUMPDEST POP SWAP1 POP DUP3 DUP2 PUSH0 DUP2 MLOAD DUP2 LT PUSH2 0xD42 JUMPI PUSH2 0xD41 PUSH2 0x214C JUMP JUMPDEST JUMPDEST PUSH1 0x20 MUL PUSH1 0x20 ADD ADD DUP2 DUP2 MSTORE POP POP PUSH0 JUMPDEST PUSH1 0x1 DUP4 MLOAD PUSH2 0xD5E SWAP2 SWAP1 PUSH2 0x25C5 JUMP JUMPDEST DUP2 LT ISZERO PUSH2 0x105D JUMPI PUSH0 PUSH1 0x97 PUSH0 DUP6 PUSH1 0x1 DUP6 PUSH2 0xD77 SWAP2 SWAP1 PUSH2 0x25F8 JUMP JUMPDEST DUP2 MLOAD DUP2 LT PUSH2 0xD88 JUMPI PUSH2 0xD87 PUSH2 0x214C JUMP JUMPDEST JUMPDEST PUSH1 0x20 MUL PUSH1 0x20 ADD ADD MLOAD PUSH20 0xFFFFFFFFFFFFFFFFFFFFFFFFFFFFFFFFFFFFFFFF AND PUSH20 0xFFFFFFFFFFFFFFFFFFFFFFFFFFFFFFFFFFFFFFFF AND DUP2 MSTORE PUSH1 0x20 ADD SWAP1 DUP2 MSTORE PUSH1 0x20 ADD PUSH0 KECCAK256 PUSH0 ADD SLOAD EQ PUSH2 0x1023 JUMPI PUSH32 0x0 PUSH20 0xFFFFFFFFFFFFFFFFFFFFFFFFFFFFFFFFFFFFFFFF AND DUP4 PUSH0 DUP2 MLOAD DUP2 LT PUSH2 0xE1B JUMPI PUSH2 0xE1A PUSH2 0x214C JUMP JUMPDEST JUMPDEST PUSH1 0x20 MUL PUSH1 0x20 ADD ADD MLOAD PUSH20 0xFFFFFFFFFFFFFFFFFFFFFFFFFFFFFFFFFFFFFFFF AND SUB PUSH2 0xEF2 JUMPI PUSH1 0x97 PUSH0 DUP5 PUSH1 0x1 DUP5 PUSH2 0xE4F SWAP2 SWAP1 PUSH2 0x25F8 JUMP JUMPDEST DUP2 MLOAD DUP2 LT PUSH2 0xE60 JUMPI PUSH2 0xE5F PUSH2 0x214C JUMP JUMPDEST JUMPDEST PUSH1 0x20 MUL PUSH1 0x20 ADD ADD MLOAD PUSH20 0xFFFFFFFFFFFFFFFFFFFFFFFFFFFFFFFFFFFFFFFF AND PUSH20 0xFFFFFFFFFFFFFFFFFFFFFFFFFFFFFFFFFFFFFFFF AND DUP2 MSTORE PUSH1 0x20 ADD SWAP1 DUP2 MSTORE PUSH1 0x20 ADD PUSH0 KECCAK256 PUSH0 ADD SLOAD PUSH8 0xDE0B6B3A7640000 DUP6 PUSH2 0xEB8 SWAP2 SWAP1 PUSH2 0x262B JUMP JUMPDEST PUSH2 0xEC2 SWAP2 SWAP1 PUSH2 0x2699 JUMP JUMPDEST DUP3 PUSH1 0x1 DUP4 PUSH2 0xED0 SWAP2 SWAP1 PUSH2 0x25F8 JUMP JUMPDEST DUP2 MLOAD DUP2 LT PUSH2 0xEE1 JUMPI PUSH2 0xEE0 PUSH2 0x214C JUMP JUMPDEST JUMPDEST PUSH1 0x20 MUL PUSH1 0x20 ADD ADD DUP2 DUP2 MSTORE POP POP PUSH2 0x101E JUMP JUMPDEST PUSH0 PUSH8 0xDE0B6B3A7640000 PUSH1 0x97 PUSH0 DUP7 PUSH0 DUP2 MLOAD DUP2 LT PUSH2 0xF12 JUMPI PUSH2 0xF11 PUSH2 0x214C JUMP JUMPDEST JUMPDEST PUSH1 0x20 MUL PUSH1 0x20 ADD ADD MLOAD PUSH20 0xFFFFFFFFFFFFFFFFFFFFFFFFFFFFFFFFFFFFFFFF AND PUSH20 0xFFFFFFFFFFFFFFFFFFFFFFFFFFFFFFFFFFFFFFFF AND DUP2 MSTORE PUSH1 0x20 ADD SWAP1 DUP2 MSTORE PUSH1 0x20 ADD PUSH0 KECCAK256 PUSH0 ADD SLOAD PUSH8 0xDE0B6B3A7640000 DUP8 PUSH2 0xF6A SWAP2 SWAP1 PUSH2 0x262B JUMP JUMPDEST PUSH2 0xF74 SWAP2 SWAP1 PUSH2 0x262B JUMP JUMPDEST PUSH2 0xF7E SWAP2 SWAP1 PUSH2 0x2699 JUMP JUMPDEST SWAP1 POP PUSH1 0x97 PUSH0 DUP6 PUSH1 0x1 DUP6 PUSH2 0xF91 SWAP2 SWAP1 PUSH2 0x25F8 JUMP JUMPDEST DUP2 MLOAD DUP2 LT PUSH2 0xFA2 JUMPI PUSH2 0xFA1 PUSH2 0x214C JUMP JUMPDEST JUMPDEST PUSH1 0x20 MUL PUSH1 0x20 ADD ADD MLOAD PUSH20 0xFFFFFFFFFFFFFFFFFFFFFFFFFFFFFFFFFFFFFFFF AND PUSH20 0xFFFFFFFFFFFFFFFFFFFFFFFFFFFFFFFFFFFFFFFF AND DUP2 MSTORE PUSH1 0x20 ADD SWAP1 DUP2 MSTORE PUSH1 0x20 ADD PUSH0 KECCAK256 PUSH0 ADD SLOAD DUP2 PUSH2 0xFF1 SWAP2 SWAP1 PUSH2 0x2699 JUMP JUMPDEST DUP4 PUSH1 0x1 DUP5 PUSH2 0xFFF SWAP2 SWAP1 PUSH2 0x25F8 JUMP JUMPDEST DUP2 MLOAD DUP2 LT PUSH2 0x1010 JUMPI PUSH2 0x100F PUSH2 0x214C JUMP JUMPDEST JUMPDEST PUSH1 0x20 MUL PUSH1 0x20 ADD ADD DUP2 DUP2 MSTORE POP POP POP JUMPDEST PUSH2 0x1050 JUMP JUMPDEST PUSH0 DUP3 PUSH1 0x1 DUP4 PUSH2 0x1032 SWAP2 SWAP1 PUSH2 0x25F8 JUMP JUMPDEST DUP2 MLOAD DUP2 LT PUSH2 0x1043 JUMPI PUSH2 0x1042 PUSH2 0x214C JUMP JUMPDEST JUMPDEST PUSH1 0x20 MUL PUSH1 0x20 ADD ADD DUP2 DUP2 MSTORE POP POP JUMPDEST DUP1 DUP1 PUSH1 0x1 ADD SWAP2 POP POP PUSH2 0xD50 JUMP JUMPDEST POP SWAP3 SWAP2 POP POP JUMP JUMPDEST PUSH2 0x106D DUP3 PUSH2 0x4AB JUMP JUMPDEST PUSH2 0x1076 DUP2 PUSH2 0x13AB JUMP JUMPDEST PUSH2 0x1080 DUP4 DUP4 PUSH2 0x14A1 JUMP JUMPDEST POP POP POP JUMP JUMPDEST PUSH1 0x97 PUSH1 0x20 MSTORE DUP1 PUSH0 MSTORE PUSH1 0x40 PUSH0 KECCAK256 PUSH0 SWAP2 POP SWAP1 POP DUP1 PUSH0 ADD SLOAD SWAP1 DUP1 PUSH1 0x1 ADD PUSH0 SWAP1 SLOAD SWAP1 PUSH2 0x100 EXP SWAP1 DIV PUSH20 0xFFFFFFFFFFFFFFFFFFFFFFFFFFFFFFFFFFFFFFFF AND SWAP1 POP DUP3 JUMP JUMPDEST PUSH32 0xA451215B66F023BB76F9A9E7BC5C64156446B47B26061A8A32EAA319C45F695E PUSH2 0x10EE DUP2 PUSH2 0x13AB JUMP JUMPDEST PUSH1 0x1E DUP5 MLOAD GT ISZERO PUSH2 0x1133 JUMPI PUSH1 0x40 MLOAD PUSH32 0x8C379A000000000000000000000000000000000000000000000000000000000 DUP2 MSTORE PUSH1 0x4 ADD PUSH2 0x112A SWAP1 PUSH2 0x275F JUMP JUMPDEST PUSH1 0x40 MLOAD DUP1 SWAP2 SUB SWAP1 REVERT JUMPDEST PUSH0 JUMPDEST DUP5 MLOAD DUP2 LT ISZERO PUSH2 0x1252 JUMPI PUSH1 0x40 MLOAD DUP1 PUSH1 0x40 ADD PUSH1 0x40 MSTORE DUP1 DUP5 DUP4 DUP2 MLOAD DUP2 LT PUSH2 0x115C JUMPI PUSH2 0x115B PUSH2 0x214C JUMP JUMPDEST JUMPDEST PUSH1 0x20 MUL PUSH1 0x20 ADD ADD MLOAD DUP2 MSTORE PUSH1 0x20 ADD DUP6 DUP4 DUP2 MLOAD DUP2 LT PUSH2 0x117C JUMPI PUSH2 0x117B PUSH2 0x214C JUMP JUMPDEST JUMPDEST PUSH1 0x20 MUL PUSH1 0x20 ADD ADD MLOAD PUSH20 0xFFFFFFFFFFFFFFFFFFFFFFFFFFFFFFFFFFFFFFFF AND DUP2 MSTORE POP PUSH1 0x97 PUSH0 DUP8 DUP5 DUP2 MLOAD DUP2 LT PUSH2 0x11B3 JUMPI PUSH2 0x11B2 PUSH2 0x214C JUMP JUMPDEST JUMPDEST PUSH1 0x20 MUL PUSH1 0x20 ADD ADD MLOAD PUSH20 0xFFFFFFFFFFFFFFFFFFFFFFFFFFFFFFFFFFFFFFFF AND PUSH20 0xFFFFFFFFFFFFFFFFFFFFFFFFFFFFFFFFFFFFFFFF AND DUP2 MSTORE PUSH1 0x20 ADD SWAP1 DUP2 MSTORE PUSH1 0x20 ADD PUSH0 KECCAK256 PUSH0 DUP3 ADD MLOAD DUP2 PUSH0 ADD SSTORE PUSH1 0x20 DUP3 ADD MLOAD DUP2 PUSH1 0x1 ADD PUSH0 PUSH2 0x100 EXP DUP2 SLOAD DUP2 PUSH20 0xFFFFFFFFFFFFFFFFFFFFFFFFFFFFFFFFFFFFFFFF MUL NOT AND SWAP1 DUP4 PUSH20 0xFFFFFFFFFFFFFFFFFFFFFFFFFFFFFFFFFFFFFFFF AND MUL OR SWAP1 SSTORE POP SWAP1 POP POP DUP1 DUP1 PUSH1 0x1 ADD SWAP2 POP POP PUSH2 0x1135 JUMP JUMPDEST POP POP POP POP POP JUMP JUMPDEST PUSH32 0xA451215B66F023BB76F9A9E7BC5C64156446B47B26061A8A32EAA319C45F695E PUSH2 0x1283 DUP2 PUSH2 0x13AB JUMP JUMPDEST PUSH1 0x40 MLOAD DUP1 PUSH1 0x40 ADD PUSH1 0x40 MSTORE DUP1 DUP4 DUP2 MSTORE PUSH1 0x20 ADD DUP5 PUSH20 0xFFFFFFFFFFFFFFFFFFFFFFFFFFFFFFFFFFFFFFFF AND DUP2 MSTORE POP PUSH1 0x97 PUSH0 DUP7 PUSH20 0xFFFFFFFFFFFFFFFFFFFFFFFFFFFFFFFFFFFFFFFF AND PUSH20 0xFFFFFFFFFFFFFFFFFFFFFFFFFFFFFFFFFFFFFFFF AND DUP2 MSTORE PUSH1 0x20 ADD SWAP1 DUP2 MSTORE PUSH1 0x20 ADD PUSH0 KECCAK256 PUSH0 DUP3 ADD MLOAD DUP2 PUSH0 ADD SSTORE PUSH1 0x20 DUP3 ADD MLOAD DUP2 PUSH1 0x1 ADD PUSH0 PUSH2 0x100 EXP DUP2 SLOAD DUP2 PUSH20 0xFFFFFFFFFFFFFFFFFFFFFFFFFFFFFFFFFFFFFFFF MUL NOT AND SWAP1 DUP4 PUSH20 0xFFFFFFFFFFFFFFFFFFFFFFFFFFFFFFFFFFFFFFFF AND MUL OR SWAP1 SSTORE POP SWAP1 POP POP POP POP POP POP JUMP JUMPDEST PUSH0 PUSH32 0x1FFC9A700000000000000000000000000000000000000000000000000000000 PUSH28 0xFFFFFFFFFFFFFFFFFFFFFFFFFFFFFFFFFFFFFFFFFFFFFFFFFFFFFFFF NOT AND DUP3 PUSH28 0xFFFFFFFFFFFFFFFFFFFFFFFFFFFFFFFFFFFFFFFFFFFFFFFFFFFFFFFF NOT AND EQ SWAP1 POP SWAP2 SWAP1 POP JUMP JUMPDEST PUSH2 0x13BC DUP2 PUSH2 0x13B7 PUSH2 0x149A JUMP JUMPDEST PUSH2 0x157C JUMP JUMPDEST POP JUMP JUMPDEST PUSH2 0x13C9 DUP3 DUP3 PUSH2 0x621 JUMP JUMPDEST PUSH2 0x1496 JUMPI PUSH1 0x1 PUSH1 0x65 PUSH0 DUP5 DUP2 MSTORE PUSH1 0x20 ADD SWAP1 DUP2 MSTORE PUSH1 0x20 ADD PUSH0 KECCAK256 PUSH0 ADD PUSH0 DUP4 PUSH20 0xFFFFFFFFFFFFFFFFFFFFFFFFFFFFFFFFFFFFFFFF AND PUSH20 0xFFFFFFFFFFFFFFFFFFFFFFFFFFFFFFFFFFFFFFFF AND DUP2 MSTORE PUSH1 0x20 ADD SWAP1 DUP2 MSTORE PUSH1 0x20 ADD PUSH0 KECCAK256 PUSH0 PUSH2 0x100 EXP DUP2 SLOAD DUP2 PUSH1 0xFF MUL NOT AND SWAP1 DUP4 ISZERO ISZERO MUL OR SWAP1 SSTORE POP PUSH2 0x143B PUSH2 0x149A JUMP JUMPDEST PUSH20 0xFFFFFFFFFFFFFFFFFFFFFFFFFFFFFFFFFFFFFFFF AND DUP2 PUSH20 0xFFFFFFFFFFFFFFFFFFFFFFFFFFFFFFFFFFFFFFFF AND DUP4 PUSH32 0x2F8788117E7EFF1D82E926EC794901D17C78024A50270940304540A733656F0D PUSH1 0x40 MLOAD PUSH1 0x40 MLOAD DUP1 SWAP2 SUB SWAP1 LOG4 JUMPDEST POP POP JUMP JUMPDEST PUSH0 CALLER SWAP1 POP SWAP1 JUMP JUMPDEST PUSH2 0x14AB DUP3 DUP3 PUSH2 0x621 JUMP JUMPDEST ISZERO PUSH2 0x1578 JUMPI PUSH0 PUSH1 0x65 PUSH0 DUP5 DUP2 MSTORE PUSH1 0x20 ADD SWAP1 DUP2 MSTORE PUSH1 0x20 ADD PUSH0 KECCAK256 PUSH0 ADD PUSH0 DUP4 PUSH20 0xFFFFFFFFFFFFFFFFFFFFFFFFFFFFFFFFFFFFFFFF AND PUSH20 0xFFFFFFFFFFFFFFFFFFFFFFFFFFFFFFFFFFFFFFFF AND DUP2 MSTORE PUSH1 0x20 ADD SWAP1 DUP2 MSTORE PUSH1 0x20 ADD PUSH0 KECCAK256 PUSH0 PUSH2 0x100 EXP DUP2 SLOAD DUP2 PUSH1 0xFF MUL NOT AND SWAP1 DUP4 ISZERO ISZERO MUL OR SWAP1 SSTORE POP PUSH2 0x151D PUSH2 0x149A JUMP JUMPDEST PUSH20 0xFFFFFFFFFFFFFFFFFFFFFFFFFFFFFFFFFFFFFFFF AND DUP2 PUSH20 0xFFFFFFFFFFFFFFFFFFFFFFFFFFFFFFFFFFFFFFFF AND DUP4 PUSH32 0xF6391F5C32D9C69D2A47EA670B442974B53935D1EDC7FD64EB21E047A839171B PUSH1 0x40 MLOAD PUSH1 0x40 MLOAD DUP1 SWAP2 SUB SWAP1 LOG4 JUMPDEST POP POP JUMP JUMPDEST PUSH2 0x1586 DUP3 DUP3 PUSH2 0x621 JUMP JUMPDEST PUSH2 0x15FC JUMPI PUSH2 0x1593 DUP2 PUSH2 0x1600 JUMP JUMPDEST PUSH2 0x15A0 DUP4 PUSH0 SHR PUSH1 0x20 PUSH2 0x162D JUMP JUMPDEST PUSH1 0x40 MLOAD PUSH1 0x20 ADD PUSH2 0x15B1 SWAP3 SWAP2 SWAP1 PUSH2 0x2863 JUMP JUMPDEST PUSH1 0x40 MLOAD PUSH1 0x20 DUP2 DUP4 SUB SUB DUP2 MSTORE SWAP1 PUSH1 0x40 MSTORE PUSH1 0x40 MLOAD PUSH32 0x8C379A000000000000000000000000000000000000000000000000000000000 DUP2 MSTORE PUSH1 0x4 ADD PUSH2 0x15F3 SWAP2 SWAP1 PUSH2 0x28D4 JUMP JUMPDEST PUSH1 0x40 MLOAD DUP1 SWAP2 SUB SWAP1 REVERT JUMPDEST POP POP JUMP JUMPDEST PUSH1 0x60 PUSH2 0x1626 DUP3 PUSH20 0xFFFFFFFFFFFFFFFFFFFFFFFFFFFFFFFFFFFFFFFF AND PUSH1 0x14 PUSH1 0xFF AND PUSH2 0x162D JUMP JUMPDEST SWAP1 POP SWAP2 SWAP1 POP JUMP JUMPDEST PUSH1 0x60 PUSH0 PUSH1 0x2 DUP4 PUSH1 0x2 PUSH2 0x163F SWAP2 SWAP1 PUSH2 0x262B JUMP JUMPDEST PUSH2 0x1649 SWAP2 SWAP1 PUSH2 0x25F8 JUMP JUMPDEST PUSH8 0xFFFFFFFFFFFFFFFF DUP2 GT ISZERO PUSH2 0x1662 JUMPI PUSH2 0x1661 PUSH2 0x1C79 JUMP JUMPDEST JUMPDEST PUSH1 0x40 MLOAD SWAP1 DUP1 DUP3 MSTORE DUP1 PUSH1 0x1F ADD PUSH1 0x1F NOT AND PUSH1 0x20 ADD DUP3 ADD PUSH1 0x40 MSTORE DUP1 ISZERO PUSH2 0x1694 JUMPI DUP2 PUSH1 0x20 ADD PUSH1 0x1 DUP3 MUL DUP1 CALLDATASIZE DUP4 CALLDATACOPY DUP1 DUP3 ADD SWAP2 POP POP SWAP1 POP JUMPDEST POP SWAP1 POP PUSH32 0x3000000000000000000000000000000000000000000000000000000000000000 DUP2 PUSH0 DUP2 MLOAD DUP2 LT PUSH2 0x16CB JUMPI PUSH2 0x16CA PUSH2 0x214C JUMP JUMPDEST JUMPDEST PUSH1 0x20 ADD ADD SWAP1 PUSH31 0xFFFFFFFFFFFFFFFFFFFFFFFFFFFFFFFFFFFFFFFFFFFFFFFFFFFFFFFFFFFFFF NOT AND SWAP1 DUP2 PUSH0 BYTE SWAP1 MSTORE8 POP PUSH32 0x7800000000000000000000000000000000000000000000000000000000000000 DUP2 PUSH1 0x1 DUP2 MLOAD DUP2 LT PUSH2 0x172E JUMPI PUSH2 0x172D PUSH2 0x214C JUMP JUMPDEST JUMPDEST PUSH1 0x20 ADD ADD SWAP1 PUSH31 0xFFFFFFFFFFFFFFFFFFFFFFFFFFFFFFFFFFFFFFFFFFFFFFFFFFFFFFFFFFFFFF NOT AND SWAP1 DUP2 PUSH0 BYTE SWAP1 MSTORE8 POP PUSH0 PUSH1 0x1 DUP5 PUSH1 0x2 PUSH2 0x176C SWAP2 SWAP1 PUSH2 0x262B JUMP JUMPDEST PUSH2 0x1776 SWAP2 SWAP1 PUSH2 0x25F8 JUMP JUMPDEST SWAP1 POP JUMPDEST PUSH1 0x1 DUP2 GT ISZERO PUSH2 0x1815 JUMPI PUSH32 0x3031323334353637383961626364656600000000000000000000000000000000 PUSH1 0xF DUP7 AND PUSH1 0x10 DUP2 LT PUSH2 0x17B8 JUMPI PUSH2 0x17B7 PUSH2 0x214C JUMP JUMPDEST JUMPDEST BYTE PUSH1 0xF8 SHL DUP3 DUP3 DUP2 MLOAD DUP2 LT PUSH2 0x17CF JUMPI PUSH2 0x17CE PUSH2 0x214C JUMP JUMPDEST JUMPDEST PUSH1 0x20 ADD ADD SWAP1 PUSH31 0xFFFFFFFFFFFFFFFFFFFFFFFFFFFFFFFFFFFFFFFFFFFFFFFFFFFFFFFFFFFFFF NOT AND SWAP1 DUP2 PUSH0 BYTE SWAP1 MSTORE8 POP PUSH1 0x4 DUP6 SWAP1 SHR SWAP5 POP DUP1 PUSH2 0x180E SWAP1 PUSH2 0x28F4 JUMP JUMPDEST SWAP1 POP PUSH2 0x1779 JUMP JUMPDEST POP PUSH0 DUP5 EQ PUSH2 0x1858 JUMPI PUSH1 0x40 MLOAD PUSH32 0x8C379A000000000000000000000000000000000000000000000000000000000 DUP2 MSTORE PUSH1 0x4 ADD PUSH2 0x184F SWAP1 PUSH2 0x2965 JUMP JUMPDEST PUSH1 0x40 MLOAD DUP1 SWAP2 SUB SWAP1 REVERT JUMPDEST DUP1 SWAP2 POP POP SWAP3 SWAP2 POP POP JUMP JUMPDEST PUSH1 0x40 MLOAD DUP1 PUSH1 0x40 ADD PUSH1 0x40 MSTORE DUP1 PUSH0 DUP2 MSTORE PUSH1 0x20 ADD PUSH0 PUSH20 0xFFFFFFFFFFFFFFFFFFFFFFFFFFFFFFFFFFFFFFFF AND DUP2 MSTORE POP SWAP1 JUMP JUMPDEST PUSH0 PUSH1 0x40 MLOAD SWAP1 POP SWAP1 JUMP JUMPDEST PUSH0 PUSH0 REVERT JUMPDEST PUSH0 PUSH0 REVERT JUMPDEST PUSH0 PUSH32 0xFFFFFFFF00000000000000000000000000000000000000000000000000000000 DUP3 AND SWAP1 POP SWAP2 SWAP1 POP JUMP JUMPDEST PUSH2 0x18D5 DUP2 PUSH2 0x18A1 JUMP JUMPDEST DUP2 EQ PUSH2 0x18DF JUMPI PUSH0 PUSH0 REVERT JUMPDEST POP JUMP JUMPDEST PUSH0 DUP2 CALLDATALOAD SWAP1 POP PUSH2 0x18F0 DUP2 PUSH2 0x18CC JUMP JUMPDEST SWAP3 SWAP2 POP POP JUMP JUMPDEST PUSH0 PUSH1 0x20 DUP3 DUP5 SUB SLT ISZERO PUSH2 0x190B JUMPI PUSH2 0x190A PUSH2 0x1899 JUMP JUMPDEST JUMPDEST PUSH0 PUSH2 0x1918 DUP5 DUP3 DUP6 ADD PUSH2 0x18E2 JUMP JUMPDEST SWAP2 POP POP SWAP3 SWAP2 POP POP JUMP JUMPDEST PUSH0 DUP2 ISZERO ISZERO SWAP1 POP SWAP2 SWAP1 POP JUMP JUMPDEST PUSH2 0x1935 DUP2 PUSH2 0x1921 JUMP JUMPDEST DUP3 MSTORE POP POP JUMP JUMPDEST PUSH0 PUSH1 0x20 DUP3 ADD SWAP1 POP PUSH2 0x194E PUSH0 DUP4 ADD DUP5 PUSH2 0x192C JUMP JUMPDEST SWAP3 SWAP2 POP POP JUMP JUMPDEST PUSH0 DUP2 SWAP1 POP SWAP2 SWAP1 POP JUMP JUMPDEST PUSH2 0x1966 DUP2 PUSH2 0x1954 JUMP JUMPDEST DUP2 EQ PUSH2 0x1970 JUMPI PUSH0 PUSH0 REVERT JUMPDEST POP JUMP JUMPDEST PUSH0 DUP2 CALLDATALOAD SWAP1 POP PUSH2 0x1981 DUP2 PUSH2 0x195D JUMP JUMPDEST SWAP3 SWAP2 POP POP JUMP JUMPDEST PUSH0 PUSH1 0x20 DUP3 DUP5 SUB SLT ISZERO PUSH2 0x199C JUMPI PUSH2 0x199B PUSH2 0x1899 JUMP JUMPDEST JUMPDEST PUSH0 PUSH2 0x19A9 DUP5 DUP3 DUP6 ADD PUSH2 0x1973 JUMP JUMPDEST SWAP2 POP POP SWAP3 SWAP2 POP POP JUMP JUMPDEST PUSH2 0x19BB DUP2 PUSH2 0x1954 JUMP JUMPDEST DUP3 MSTORE POP POP JUMP JUMPDEST PUSH0 PUSH1 0x20 DUP3 ADD SWAP1 POP PUSH2 0x19D4 PUSH0 DUP4 ADD DUP5 PUSH2 0x19B2 JUMP JUMPDEST SWAP3 SWAP2 POP POP JUMP JUMPDEST PUSH0 PUSH20 0xFFFFFFFFFFFFFFFFFFFFFFFFFFFFFFFFFFFFFFFF DUP3 AND SWAP1 POP SWAP2 SWAP1 POP JUMP JUMPDEST PUSH0 PUSH2 0x1A03 DUP3 PUSH2 0x19DA JUMP JUMPDEST SWAP1 POP SWAP2 SWAP1 POP JUMP JUMPDEST PUSH2 0x1A13 DUP2 PUSH2 0x19F9 JUMP JUMPDEST DUP2 EQ PUSH2 0x1A1D JUMPI PUSH0 PUSH0 REVERT JUMPDEST POP JUMP JUMPDEST PUSH0 DUP2 CALLDATALOAD SWAP1 POP PUSH2 0x1A2E DUP2 PUSH2 0x1A0A JUMP JUMPDEST SWAP3 SWAP2 POP POP JUMP JUMPDEST PUSH0 PUSH0 PUSH1 0x40 DUP4 DUP6 SUB SLT ISZERO PUSH2 0x1A4A JUMPI PUSH2 0x1A49 PUSH2 0x1899 JUMP JUMPDEST JUMPDEST PUSH0 PUSH2 0x1A57 DUP6 DUP3 DUP7 ADD PUSH2 0x1973 JUMP JUMPDEST SWAP3 POP POP PUSH1 0x20 PUSH2 0x1A68 DUP6 DUP3 DUP7 ADD PUSH2 0x1A20 JUMP JUMPDEST SWAP2 POP POP SWAP3 POP SWAP3 SWAP1 POP JUMP JUMPDEST PUSH0 PUSH1 0x20 DUP3 DUP5 SUB SLT ISZERO PUSH2 0x1A87 JUMPI PUSH2 0x1A86 PUSH2 0x1899 JUMP JUMPDEST JUMPDEST PUSH0 PUSH2 0x1A94 DUP5 DUP3 DUP6 ADD PUSH2 0x1A20 JUMP JUMPDEST SWAP2 POP POP SWAP3 SWAP2 POP POP JUMP JUMPDEST PUSH0 DUP2 SWAP1 POP SWAP2 SWAP1 POP JUMP JUMPDEST PUSH2 0x1AAF DUP2 PUSH2 0x1A9D JUMP JUMPDEST DUP3 MSTORE POP POP JUMP JUMPDEST PUSH2 0x1ABE DUP2 PUSH2 0x19F9 JUMP JUMPDEST DUP3 MSTORE POP POP JUMP JUMPDEST PUSH1 0x40 DUP3 ADD PUSH0 DUP3 ADD MLOAD PUSH2 0x1AD8 PUSH0 DUP6 ADD DUP3 PUSH2 0x1AA6 JUMP JUMPDEST POP PUSH1 0x20 DUP3 ADD MLOAD PUSH2 0x1AEB PUSH1 0x20 DUP6 ADD DUP3 PUSH2 0x1AB5 JUMP JUMPDEST POP POP POP POP JUMP JUMPDEST PUSH0 PUSH1 0x40 DUP3 ADD SWAP1 POP PUSH2 0x1B04 PUSH0 DUP4 ADD DUP5 PUSH2 0x1AC4 JUMP JUMPDEST SWAP3 SWAP2 POP POP JUMP JUMPDEST PUSH2 0x1B13 DUP2 PUSH2 0x19F9 JUMP JUMPDEST DUP3 MSTORE POP POP JUMP JUMPDEST PUSH0 PUSH1 0x20 DUP3 ADD SWAP1 POP PUSH2 0x1B2C PUSH0 DUP4 ADD DUP5 PUSH2 0x1B0A JUMP JUMPDEST SWAP3 SWAP2 POP POP JUMP JUMPDEST PUSH2 0x1B3B DUP2 PUSH2 0x1A9D JUMP JUMPDEST DUP2 EQ PUSH2 0x1B45 JUMPI PUSH0 PUSH0 REVERT JUMPDEST POP JUMP JUMPDEST PUSH0 DUP2 CALLDATALOAD SWAP1 POP PUSH2 0x1B56 DUP2 PUSH2 0x1B32 JUMP JUMPDEST SWAP3 SWAP2 POP POP JUMP JUMPDEST PUSH0 PUSH0 REVERT JUMPDEST PUSH0 PUSH0 REVERT JUMPDEST PUSH0 PUSH0 REVERT JUMPDEST PUSH0 PUSH0 DUP4 PUSH1 0x1F DUP5 ADD SLT PUSH2 0x1B7D JUMPI PUSH2 0x1B7C PUSH2 0x1B5C JUMP JUMPDEST JUMPDEST DUP3 CALLDATALOAD SWAP1 POP PUSH8 0xFFFFFFFFFFFFFFFF DUP2 GT ISZERO PUSH2 0x1B9A JUMPI PUSH2 0x1B99 PUSH2 0x1B60 JUMP JUMPDEST JUMPDEST PUSH1 0x20 DUP4 ADD SWAP2 POP DUP4 PUSH1 0x20 DUP3 MUL DUP4 ADD GT ISZERO PUSH2 0x1BB6 JUMPI PUSH2 0x1BB5 PUSH2 0x1B64 JUMP JUMPDEST JUMPDEST SWAP3 POP SWAP3 SWAP1 POP JUMP JUMPDEST PUSH0 PUSH0 PUSH0 PUSH0 PUSH0 PUSH1 0x80 DUP7 DUP9 SUB SLT ISZERO PUSH2 0x1BD6 JUMPI PUSH2 0x1BD5 PUSH2 0x1899 JUMP JUMPDEST JUMPDEST PUSH0 PUSH2 0x1BE3 DUP9 DUP3 DUP10 ADD PUSH2 0x1B48 JUMP JUMPDEST SWAP6 POP POP PUSH1 0x20 DUP7 ADD CALLDATALOAD PUSH8 0xFFFFFFFFFFFFFFFF DUP2 GT ISZERO PUSH2 0x1C04 JUMPI PUSH2 0x1C03 PUSH2 0x189D JUMP JUMPDEST JUMPDEST PUSH2 0x1C10 DUP9 DUP3 DUP10 ADD PUSH2 0x1B68 JUMP JUMPDEST SWAP5 POP SWAP5 POP POP PUSH1 0x40 PUSH2 0x1C23 DUP9 DUP3 DUP10 ADD PUSH2 0x1A20 JUMP JUMPDEST SWAP3 POP POP PUSH1 0x60 PUSH2 0x1C34 DUP9 DUP3 DUP10 ADD PUSH2 0x1B48 JUMP JUMPDEST SWAP2 POP POP SWAP3 SWAP6 POP SWAP3 SWAP6 SWAP1 SWAP4 POP JUMP JUMPDEST PUSH2 0x1C4A DUP2 PUSH2 0x1A9D JUMP JUMPDEST DUP3 MSTORE POP POP JUMP JUMPDEST PUSH0 PUSH1 0x20 DUP3 ADD SWAP1 POP PUSH2 0x1C63 PUSH0 DUP4 ADD DUP5 PUSH2 0x1C41 JUMP JUMPDEST SWAP3 SWAP2 POP POP JUMP JUMPDEST PUSH0 PUSH1 0x1F NOT PUSH1 0x1F DUP4 ADD AND SWAP1 POP SWAP2 SWAP1 POP JUMP JUMPDEST PUSH32 0x4E487B7100000000000000000000000000000000000000000000000000000000 PUSH0 MSTORE PUSH1 0x41 PUSH1 0x4 MSTORE PUSH1 0x24 PUSH0 REVERT JUMPDEST PUSH2 0x1CAF DUP3 PUSH2 0x1C69 JUMP JUMPDEST DUP2 ADD DUP2 DUP2 LT PUSH8 0xFFFFFFFFFFFFFFFF DUP3 GT OR ISZERO PUSH2 0x1CCE JUMPI PUSH2 0x1CCD PUSH2 0x1C79 JUMP JUMPDEST JUMPDEST DUP1 PUSH1 0x40 MSTORE POP POP POP JUMP JUMPDEST PUSH0 PUSH2 0x1CE0 PUSH2 0x1890 JUMP JUMPDEST SWAP1 POP PUSH2 0x1CEC DUP3 DUP3 PUSH2 0x1CA6 JUMP JUMPDEST SWAP2 SWAP1 POP JUMP JUMPDEST PUSH0 PUSH8 0xFFFFFFFFFFFFFFFF DUP3 GT ISZERO PUSH2 0x1D0B JUMPI PUSH2 0x1D0A PUSH2 0x1C79 JUMP JUMPDEST JUMPDEST PUSH1 0x20 DUP3 MUL SWAP1 POP PUSH1 0x20 DUP2 ADD SWAP1 POP SWAP2 SWAP1 POP JUMP JUMPDEST PUSH0 PUSH2 0x1D2E PUSH2 0x1D29 DUP5 PUSH2 0x1CF1 JUMP JUMPDEST PUSH2 0x1CD7 JUMP JUMPDEST SWAP1 POP DUP1 DUP4 DUP3 MSTORE PUSH1 0x20 DUP3 ADD SWAP1 POP PUSH1 0x20 DUP5 MUL DUP4 ADD DUP6 DUP2 GT ISZERO PUSH2 0x1D51 JUMPI PUSH2 0x1D50 PUSH2 0x1B64 JUMP JUMPDEST JUMPDEST DUP4 JUMPDEST DUP2 DUP2 LT ISZERO PUSH2 0x1D7A JUMPI DUP1 PUSH2 0x1D66 DUP9 DUP3 PUSH2 0x1A20 JUMP JUMPDEST DUP5 MSTORE PUSH1 0x20 DUP5 ADD SWAP4 POP POP PUSH1 0x20 DUP2 ADD SWAP1 POP PUSH2 0x1D53 JUMP JUMPDEST POP POP POP SWAP4 SWAP3 POP POP POP JUMP JUMPDEST PUSH0 DUP3 PUSH1 0x1F DUP4 ADD SLT PUSH2 0x1D98 JUMPI PUSH2 0x1D97 PUSH2 0x1B5C JUMP JUMPDEST JUMPDEST DUP2 CALLDATALOAD PUSH2 0x1DA8 DUP5 DUP3 PUSH1 0x20 DUP7 ADD PUSH2 0x1D1C JUMP JUMPDEST SWAP2 POP POP SWAP3 SWAP2 POP POP JUMP JUMPDEST PUSH0 PUSH0 PUSH1 0x40 DUP4 DUP6 SUB SLT ISZERO PUSH2 0x1DC7 JUMPI PUSH2 0x1DC6 PUSH2 0x1899 JUMP JUMPDEST JUMPDEST PUSH0 PUSH2 0x1DD4 DUP6 DUP3 DUP7 ADD PUSH2 0x1B48 JUMP JUMPDEST SWAP3 POP POP PUSH1 0x20 DUP4 ADD CALLDATALOAD PUSH8 0xFFFFFFFFFFFFFFFF DUP2 GT ISZERO PUSH2 0x1DF5 JUMPI PUSH2 0x1DF4 PUSH2 0x189D JUMP JUMPDEST JUMPDEST PUSH2 0x1E01 DUP6 DUP3 DUP7 ADD PUSH2 0x1D84 JUMP JUMPDEST SWAP2 POP POP SWAP3 POP SWAP3 SWAP1 POP JUMP JUMPDEST PUSH0 DUP2 MLOAD SWAP1 POP SWAP2 SWAP1 POP JUMP JUMPDEST PUSH0 DUP3 DUP3 MSTORE PUSH1 0x20 DUP3 ADD SWAP1 POP SWAP3 SWAP2 POP POP JUMP JUMPDEST PUSH0 DUP2 SWAP1 POP PUSH1 0x20 DUP3 ADD SWAP1 POP SWAP2 SWAP1 POP JUMP JUMPDEST PUSH0 PUSH2 0x1E3F DUP4 DUP4 PUSH2 0x1AA6 JUMP JUMPDEST PUSH1 0x20 DUP4 ADD SWAP1 POP SWAP3 SWAP2 POP POP JUMP JUMPDEST PUSH0 PUSH1 0x20 DUP3 ADD SWAP1 POP SWAP2 SWAP1 POP JUMP JUMPDEST PUSH0 PUSH2 0x1E61 DUP3 PUSH2 0x1E0B JUMP JUMPDEST PUSH2 0x1E6B DUP2 DUP6 PUSH2 0x1E15 JUMP JUMPDEST SWAP4 POP PUSH2 0x1E76 DUP4 PUSH2 0x1E25 JUMP JUMPDEST DUP1 PUSH0 JUMPDEST DUP4 DUP2 LT ISZERO PUSH2 0x1EA6 JUMPI DUP2 MLOAD PUSH2 0x1E8D DUP9 DUP3 PUSH2 0x1E34 JUMP JUMPDEST SWAP8 POP PUSH2 0x1E98 DUP4 PUSH2 0x1E4B JUMP JUMPDEST SWAP3 POP POP PUSH1 0x1 DUP2 ADD SWAP1 POP PUSH2 0x1E79 JUMP JUMPDEST POP DUP6 SWAP4 POP POP POP POP SWAP3 SWAP2 POP POP JUMP JUMPDEST PUSH0 PUSH1 0x20 DUP3 ADD SWAP1 POP DUP2 DUP2 SUB PUSH0 DUP4 ADD MSTORE PUSH2 0x1ECB DUP2 DUP5 PUSH2 0x1E57 JUMP JUMPDEST SWAP1 POP SWAP3 SWAP2 POP POP JUMP JUMPDEST PUSH0 PUSH1 0x40 DUP3 ADD SWAP1 POP PUSH2 0x1EE6 PUSH0 DUP4 ADD DUP6 PUSH2 0x1C41 JUMP JUMPDEST PUSH2 0x1EF3 PUSH1 0x20 DUP4 ADD DUP5 PUSH2 0x1B0A JUMP JUMPDEST SWAP4 SWAP3 POP POP POP JUMP JUMPDEST PUSH0 PUSH8 0xFFFFFFFFFFFFFFFF DUP3 GT ISZERO PUSH2 0x1F14 JUMPI PUSH2 0x1F13 PUSH2 0x1C79 JUMP JUMPDEST JUMPDEST PUSH1 0x20 DUP3 MUL SWAP1 POP PUSH1 0x20 DUP2 ADD SWAP1 POP SWAP2 SWAP1 POP JUMP JUMPDEST PUSH0 PUSH2 0x1F37 PUSH2 0x1F32 DUP5 PUSH2 0x1EFA JUMP JUMPDEST PUSH2 0x1CD7 JUMP JUMPDEST SWAP1 POP DUP1 DUP4 DUP3 MSTORE PUSH1 0x20 DUP3 ADD SWAP1 POP PUSH1 0x20 DUP5 MUL DUP4 ADD DUP6 DUP2 GT ISZERO PUSH2 0x1F5A JUMPI PUSH2 0x1F59 PUSH2 0x1B64 JUMP JUMPDEST JUMPDEST DUP4 JUMPDEST DUP2 DUP2 LT ISZERO PUSH2 0x1F83 JUMPI DUP1 PUSH2 0x1F6F DUP9 DUP3 PUSH2 0x1B48 JUMP JUMPDEST DUP5 MSTORE PUSH1 0x20 DUP5 ADD SWAP4 POP POP PUSH1 0x20 DUP2 ADD SWAP1 POP PUSH2 0x1F5C JUMP JUMPDEST POP POP POP SWAP4 SWAP3 POP POP POP JUMP JUMPDEST PUSH0 DUP3 PUSH1 0x1F DUP4 ADD SLT PUSH2 0x1FA1 JUMPI PUSH2 0x1FA0 PUSH2 0x1B5C JUMP JUMPDEST JUMPDEST DUP2 CALLDATALOAD PUSH2 0x1FB1 DUP5 DUP3 PUSH1 0x20 DUP7 ADD PUSH2 0x1F25 JUMP JUMPDEST SWAP2 POP POP SWAP3 SWAP2 POP POP JUMP JUMPDEST PUSH0 PUSH0 PUSH0 PUSH1 0x60 DUP5 DUP7 SUB SLT ISZERO PUSH2 0x1FD1 JUMPI PUSH2 0x1FD0 PUSH2 0x1899 JUMP JUMPDEST JUMPDEST PUSH0 DUP5 ADD CALLDATALOAD PUSH8 0xFFFFFFFFFFFFFFFF DUP2 GT ISZERO PUSH2 0x1FEE JUMPI PUSH2 0x1FED PUSH2 0x189D JUMP JUMPDEST JUMPDEST PUSH2 0x1FFA DUP7 DUP3 DUP8 ADD PUSH2 0x1D84 JUMP JUMPDEST SWAP4 POP POP PUSH1 0x20 DUP5 ADD CALLDATALOAD PUSH8 0xFFFFFFFFFFFFFFFF DUP2 GT ISZERO PUSH2 0x201B JUMPI PUSH2 0x201A PUSH2 0x189D JUMP JUMPDEST JUMPDEST PUSH2 0x2027 DUP7 DUP3 DUP8 ADD PUSH2 0x1D84 JUMP JUMPDEST SWAP3 POP POP PUSH1 0x40 DUP5 ADD CALLDATALOAD PUSH8 0xFFFFFFFFFFFFFFFF DUP2 GT ISZERO PUSH2 0x2048 JUMPI PUSH2 0x2047 PUSH2 0x189D JUMP JUMPDEST JUMPDEST PUSH2 0x2054 DUP7 DUP3 DUP8 ADD PUSH2 0x1F8D JUMP JUMPDEST SWAP2 POP POP SWAP3 POP SWAP3 POP SWAP3 JUMP JUMPDEST PUSH0 PUSH0 PUSH0 PUSH1 0x60 DUP5 DUP7 SUB SLT ISZERO PUSH2 0x2075 JUMPI PUSH2 0x2074 PUSH2 0x1899 JUMP JUMPDEST JUMPDEST PUSH0 PUSH2 0x2082 DUP7 DUP3 DUP8 ADD PUSH2 0x1A20 JUMP JUMPDEST SWAP4 POP POP PUSH1 0x20 PUSH2 0x2093 DUP7 DUP3 DUP8 ADD PUSH2 0x1A20 JUMP JUMPDEST SWAP3 POP POP PUSH1 0x40 PUSH2 0x20A4 DUP7 DUP3 DUP8 ADD PUSH2 0x1B48 JUMP JUMPDEST SWAP2 POP POP SWAP3 POP SWAP3 POP SWAP3 JUMP JUMPDEST PUSH0 DUP3 DUP3 MSTORE PUSH1 0x20 DUP3 ADD SWAP1 POP SWAP3 SWAP2 POP POP JUMP JUMPDEST PUSH32 0x416363657373436F6E74726F6C3A2063616E206F6E6C792072656E6F756E6365 PUSH0 DUP3 ADD MSTORE PUSH32 0x20726F6C657320666F722073656C660000000000000000000000000000000000 PUSH1 0x20 DUP3 ADD MSTORE POP JUMP JUMPDEST PUSH0 PUSH2 0x2118 PUSH1 0x2F DUP4 PUSH2 0x20AE JUMP JUMPDEST SWAP2 POP PUSH2 0x2123 DUP3 PUSH2 0x20BE JUMP JUMPDEST PUSH1 0x40 DUP3 ADD SWAP1 POP SWAP2 SWAP1 POP JUMP JUMPDEST PUSH0 PUSH1 0x20 DUP3 ADD SWAP1 POP DUP2 DUP2 SUB PUSH0 DUP4 ADD MSTORE PUSH2 0x2145 DUP2 PUSH2 0x210C JUMP JUMPDEST SWAP1 POP SWAP2 SWAP1 POP JUMP JUMPDEST PUSH32 0x4E487B7100000000000000000000000000000000000000000000000000000000 PUSH0 MSTORE PUSH1 0x32 PUSH1 0x4 MSTORE PUSH1 0x24 PUSH0 REVERT JUMPDEST PUSH32 0x556E69737761705632526F757465723A20494E56414C49445F50415448000000 PUSH0 DUP3 ADD MSTORE POP JUMP JUMPDEST PUSH0 PUSH2 0x21AD PUSH1 0x1D DUP4 PUSH2 0x20AE JUMP JUMPDEST SWAP2 POP PUSH2 0x21B8 DUP3 PUSH2 0x2179 JUMP JUMPDEST PUSH1 0x20 DUP3 ADD SWAP1 POP SWAP2 SWAP1 POP JUMP JUMPDEST PUSH0 PUSH1 0x20 DUP3 ADD SWAP1 POP DUP2 DUP2 SUB PUSH0 DUP4 ADD MSTORE PUSH2 0x21DA DUP2 PUSH2 0x21A1 JUMP JUMPDEST SWAP1 POP SWAP2 SWAP1 POP JUMP JUMPDEST PUSH32 0x556E69737761705632526F757465723A20455850495245440000000000000000 PUSH0 DUP3 ADD MSTORE POP JUMP JUMPDEST PUSH0 PUSH2 0x2215 PUSH1 0x18 DUP4 PUSH2 0x20AE JUMP JUMPDEST SWAP2 POP PUSH2 0x2220 DUP3 PUSH2 0x21E1 JUMP JUMPDEST PUSH1 0x20 DUP3 ADD SWAP1 POP SWAP2 SWAP1 POP JUMP JUMPDEST PUSH0 PUSH1 0x20 DUP3 ADD SWAP1 POP DUP2 DUP2 SUB PUSH0 DUP4 ADD MSTORE PUSH2 0x2242 DUP2 PUSH2 0x2209 JUMP JUMPDEST SWAP1 POP SWAP2 SWAP1 POP JUMP JUMPDEST PUSH32 0x556E69737761705632526F757465723A20494E53554646494349454E545F4F55 PUSH0 DUP3 ADD MSTORE PUSH32 0x545055545F414D4F554E54000000000000000000000000000000000000000000 PUSH1 0x20 DUP3 ADD MSTORE POP JUMP JUMPDEST PUSH0 PUSH2 0x22A3 PUSH1 0x2B DUP4 PUSH2 0x20AE JUMP JUMPDEST SWAP2 POP PUSH2 0x22AE DUP3 PUSH2 0x2249 JUMP JUMPDEST PUSH1 0x40 DUP3 ADD SWAP1 POP SWAP2 SWAP1 POP JUMP JUMPDEST PUSH0 PUSH1 0x20 DUP3 ADD SWAP1 POP DUP2 DUP2 SUB PUSH0 DUP4 ADD MSTORE PUSH2 0x22D0 DUP2 PUSH2 0x2297 JUMP JUMPDEST SWAP1 POP SWAP2 SWAP1 POP JUMP JUMPDEST PUSH0 PUSH1 0x40 DUP3 ADD SWAP1 POP PUSH2 0x22EA PUSH0 DUP4 ADD DUP6 PUSH2 0x1B0A JUMP JUMPDEST PUSH2 0x22F7 PUSH1 0x20 DUP4 ADD DUP5 PUSH2 0x1B0A JUMP JUMPDEST SWAP4 SWAP3 POP POP POP JUMP JUMPDEST PUSH0 DUP2 MLOAD SWAP1 POP PUSH2 0x230C DUP2 PUSH2 0x1B32 JUMP JUMPDEST SWAP3 SWAP2 POP POP JUMP JUMPDEST PUSH0 PUSH1 0x20 DUP3 DUP5 SUB SLT ISZERO PUSH2 0x2327 JUMPI PUSH2 0x2326 PUSH2 0x1899 JUMP JUMPDEST JUMPDEST PUSH0 PUSH2 0x2334 DUP5 DUP3 DUP6 ADD PUSH2 0x22FE JUMP JUMPDEST SWAP2 POP POP SWAP3 SWAP2 POP POP JUMP JUMPDEST PUSH32 0x556E69737761705632526F757465723A20494E53554646494349454E545F414D PUSH0 DUP3 ADD MSTORE PUSH32 0x4F554E545F414C4C4F5745440000000000000000000000000000000000000000 PUSH1 0x20 DUP3 ADD MSTORE POP JUMP JUMPDEST PUSH0 PUSH2 0x2397 PUSH1 0x2C DUP4 PUSH2 0x20AE JUMP JUMPDEST SWAP2 POP PUSH2 0x23A2 DUP3 PUSH2 0x233D JUMP JUMPDEST PUSH1 0x40 DUP3 ADD SWAP1 POP SWAP2 SWAP1 POP JUMP JUMPDEST PUSH0 PUSH1 0x20 DUP3 ADD SWAP1 POP DUP2 DUP2 SUB PUSH0 DUP4 ADD MSTORE PUSH2 0x23C4 DUP2 PUSH2 0x238B JUMP JUMPDEST SWAP1 POP SWAP2 SWAP1 POP JUMP JUMPDEST PUSH0 PUSH1 0x40 DUP3 ADD SWAP1 POP PUSH2 0x23DE PUSH0 DUP4 ADD DUP6 PUSH2 0x1B0A JUMP JUMPDEST PUSH2 0x23EB PUSH1 0x20 DUP4 ADD DUP5 PUSH2 0x1C41 JUMP JUMPDEST SWAP4 SWAP3 POP POP POP JUMP JUMPDEST PUSH2 0x23FB DUP2 PUSH2 0x1921 JUMP JUMPDEST DUP2 EQ PUSH2 0x2405 JUMPI PUSH0 PUSH0 REVERT JUMPDEST POP JUMP JUMPDEST PUSH0 DUP2 MLOAD SWAP1 POP PUSH2 0x2416 DUP2 PUSH2 0x23F2 JUMP JUMPDEST SWAP3 SWAP2 POP POP JUMP JUMPDEST PUSH0 PUSH1 0x20 DUP3 DUP5 SUB SLT ISZERO PUSH2 0x2431 JUMPI PUSH2 0x2430 PUSH2 0x1899 JUMP JUMPDEST JUMPDEST PUSH0 PUSH2 0x243E DUP5 DUP3 DUP6 ADD PUSH2 0x2408 JUMP JUMPDEST SWAP2 POP POP SWAP3 SWAP2 POP POP JUMP JUMPDEST PUSH0 PUSH1 0x60 DUP3 ADD SWAP1 POP PUSH2 0x245A PUSH0 DUP4 ADD DUP7 PUSH2 0x1B0A JUMP JUMPDEST PUSH2 0x2467 PUSH1 0x20 DUP4 ADD DUP6 PUSH2 0x1B0A JUMP JUMPDEST PUSH2 0x2474 PUSH1 0x40 DUP4 ADD DUP5 PUSH2 0x1C41 JUMP JUMPDEST SWAP5 SWAP4 POP POP POP POP JUMP JUMPDEST PUSH32 0x556E69737761705632526F757465723A20616D6F756E74496E2073686F756C64 PUSH0 DUP3 ADD MSTORE PUSH32 0x2062652067726561746572207468616E207A65726F0000000000000000000000 PUSH1 0x20 DUP3 ADD MSTORE POP JUMP JUMPDEST PUSH0 PUSH2 0x24D6 PUSH1 0x35 DUP4 PUSH2 0x20AE JUMP JUMPDEST SWAP2 POP PUSH2 0x24E1 DUP3 PUSH2 0x247C JUMP JUMPDEST PUSH1 0x40 DUP3 ADD SWAP1 POP SWAP2 SWAP1 POP JUMP JUMPDEST PUSH0 PUSH1 0x20 DUP3 ADD SWAP1 POP DUP2 DUP2 SUB PUSH0 DUP4 ADD MSTORE PUSH2 0x2503 DUP2 PUSH2 0x24CA JUMP JUMPDEST SWAP1 POP SWAP2 SWAP1 POP JUMP JUMPDEST PUSH32 0x556E69737761705632526F757465723A207061746820636F6E7461696E732061 PUSH0 DUP3 ADD MSTORE PUSH32 0x74206C65617374203220656C656D656E74730000000000000000000000000000 PUSH1 0x20 DUP3 ADD MSTORE POP JUMP JUMPDEST PUSH0 PUSH2 0x2564 PUSH1 0x32 DUP4 PUSH2 0x20AE JUMP JUMPDEST SWAP2 POP PUSH2 0x256F DUP3 PUSH2 0x250A JUMP JUMPDEST PUSH1 0x40 DUP3 ADD SWAP1 POP SWAP2 SWAP1 POP JUMP JUMPDEST PUSH0 PUSH1 0x20 DUP3 ADD SWAP1 POP DUP2 DUP2 SUB PUSH0 DUP4 ADD MSTORE PUSH2 0x2591 DUP2 PUSH2 0x2558 JUMP JUMPDEST SWAP1 POP SWAP2 SWAP1 POP JUMP JUMPDEST PUSH32 0x4E487B7100000000000000000000000000000000000000000000000000000000 PUSH0 MSTORE PUSH1 0x11 PUSH1 0x4 MSTORE PUSH1 0x24 PUSH0 REVERT JUMPDEST PUSH0 PUSH2 0x25CF DUP3 PUSH2 0x1A9D JUMP JUMPDEST SWAP2 POP PUSH2 0x25DA DUP4 PUSH2 0x1A9D JUMP JUMPDEST SWAP3 POP DUP3 DUP3 SUB SWAP1 POP DUP2 DUP2 GT ISZERO PUSH2 0x25F2 JUMPI PUSH2 0x25F1 PUSH2 0x2598 JUMP JUMPDEST JUMPDEST SWAP3 SWAP2 POP POP JUMP JUMPDEST PUSH0 PUSH2 0x2602 DUP3 PUSH2 0x1A9D JUMP JUMPDEST SWAP2 POP PUSH2 0x260D DUP4 PUSH2 0x1A9D JUMP JUMPDEST SWAP3 POP DUP3 DUP3 ADD SWAP1 POP DUP1 DUP3 GT ISZERO PUSH2 0x2625 JUMPI PUSH2 0x2624 PUSH2 0x2598 JUMP JUMPDEST JUMPDEST SWAP3 SWAP2 POP POP JUMP JUMPDEST PUSH0 PUSH2 0x2635 DUP3 PUSH2 0x1A9D JUMP JUMPDEST SWAP2 POP PUSH2 0x2640 DUP4 PUSH2 0x1A9D JUMP JUMPDEST SWAP3 POP DUP3 DUP3 MUL PUSH2 0x264E DUP2 PUSH2 0x1A9D JUMP JUMPDEST SWAP2 POP DUP3 DUP3 DIV DUP5 EQ DUP4 ISZERO OR PUSH2 0x2665 JUMPI PUSH2 0x2664 PUSH2 0x2598 JUMP JUMPDEST JUMPDEST POP SWAP3 SWAP2 POP POP JUMP JUMPDEST PUSH32 0x4E487B7100000000000000000000000000000000000000000000000000000000 PUSH0 MSTORE PUSH1 0x12 PUSH1 0x4 MSTORE PUSH1 0x24 PUSH0 REVERT JUMPDEST PUSH0 PUSH2 0x26A3 DUP3 PUSH2 0x1A9D JUMP JUMPDEST SWAP2 POP PUSH2 0x26AE DUP4 PUSH2 0x1A9D JUMP JUMPDEST SWAP3 POP DUP3 PUSH2 0x26BE JUMPI PUSH2 0x26BD PUSH2 0x266C JUMP JUMPDEST JUMPDEST DUP3 DUP3 DIV SWAP1 POP SWAP3 SWAP2 POP POP JUMP JUMPDEST PUSH32 0x556E69737761705632526F757465723A20546F6B656E73206172726179206973 PUSH0 DUP3 ADD MSTORE PUSH32 0x20746F6F206C6F6E672C2072656475636520746865206E756D626572206F6620 PUSH1 0x20 DUP3 ADD MSTORE PUSH32 0x746F6B656E730000000000000000000000000000000000000000000000000000 PUSH1 0x40 DUP3 ADD MSTORE POP JUMP JUMPDEST PUSH0 PUSH2 0x2749 PUSH1 0x46 DUP4 PUSH2 0x20AE JUMP JUMPDEST SWAP2 POP PUSH2 0x2754 DUP3 PUSH2 0x26C9 JUMP JUMPDEST PUSH1 0x60 DUP3 ADD SWAP1 POP SWAP2 SWAP1 POP JUMP JUMPDEST PUSH0 PUSH1 0x20 DUP3 ADD SWAP1 POP DUP2 DUP2 SUB PUSH0 DUP4 ADD MSTORE PUSH2 0x2776 DUP2 PUSH2 0x273D JUMP JUMPDEST SWAP1 POP SWAP2 SWAP1 POP JUMP JUMPDEST PUSH0 DUP2 SWAP1 POP SWAP3 SWAP2 POP POP JUMP JUMPDEST PUSH32 0x416363657373436F6E74726F6C3A206163636F756E7420000000000000000000 PUSH0 DUP3 ADD MSTORE POP JUMP JUMPDEST PUSH0 PUSH2 0x27BB PUSH1 0x17 DUP4 PUSH2 0x277D JUMP JUMPDEST SWAP2 POP PUSH2 0x27C6 DUP3 PUSH2 0x2787 JUMP JUMPDEST PUSH1 0x17 DUP3 ADD SWAP1 POP SWAP2 SWAP1 POP JUMP JUMPDEST PUSH0 DUP2 MLOAD SWAP1 POP SWAP2 SWAP1 POP JUMP JUMPDEST DUP3 DUP2 DUP4 MCOPY PUSH0 DUP4 DUP4 ADD MSTORE POP POP POP JUMP JUMPDEST PUSH0 PUSH2 0x27F3 DUP3 PUSH2 0x27D1 JUMP JUMPDEST PUSH2 0x27FD DUP2 DUP6 PUSH2 0x277D JUMP JUMPDEST SWAP4 POP PUSH2 0x280D DUP2 DUP6 PUSH1 0x20 DUP7 ADD PUSH2 0x27DB JUMP JUMPDEST DUP1 DUP5 ADD SWAP2 POP POP SWAP3 SWAP2 POP POP JUMP JUMPDEST PUSH32 0x206973206D697373696E6720726F6C6520000000000000000000000000000000 PUSH0 DUP3 ADD MSTORE POP JUMP JUMPDEST PUSH0 PUSH2 0x284D PUSH1 0x11 DUP4 PUSH2 0x277D JUMP JUMPDEST SWAP2 POP PUSH2 0x2858 DUP3 PUSH2 0x2819 JUMP JUMPDEST PUSH1 0x11 DUP3 ADD SWAP1 POP SWAP2 SWAP1 POP JUMP JUMPDEST PUSH0 PUSH2 0x286D DUP3 PUSH2 0x27AF JUMP JUMPDEST SWAP2 POP PUSH2 0x2879 DUP3 DUP6 PUSH2 0x27E9 JUMP JUMPDEST SWAP2 POP PUSH2 0x2884 DUP3 PUSH2 0x2841 JUMP JUMPDEST SWAP2 POP PUSH2 0x2890 DUP3 DUP5 PUSH2 0x27E9 JUMP JUMPDEST SWAP2 POP DUP2 SWAP1 POP SWAP4 SWAP3 POP POP POP JUMP JUMPDEST PUSH0 PUSH2 0x28A6 DUP3 PUSH2 0x27D1 JUMP JUMPDEST PUSH2 0x28B0 DUP2 DUP6 PUSH2 0x20AE JUMP JUMPDEST SWAP4 POP PUSH2 0x28C0 DUP2 DUP6 PUSH1 0x20 DUP7 ADD PUSH2 0x27DB JUMP JUMPDEST PUSH2 0x28C9 DUP2 PUSH2 0x1C69 JUMP JUMPDEST DUP5 ADD SWAP2 POP POP SWAP3 SWAP2 POP POP JUMP JUMPDEST PUSH0 PUSH1 0x20 DUP3 ADD SWAP1 POP DUP2 DUP2 SUB PUSH0 DUP4 ADD MSTORE PUSH2 0x28EC DUP2 DUP5 PUSH2 0x289C JUMP JUMPDEST SWAP1 POP SWAP3 SWAP2 POP POP JUMP JUMPDEST PUSH0 PUSH2 0x28FE DUP3 PUSH2 0x1A9D JUMP JUMPDEST SWAP2 POP PUSH0 DUP3 SUB PUSH2 0x2910 JUMPI PUSH2 0x290F PUSH2 0x2598 JUMP JUMPDEST JUMPDEST PUSH1 0x1 DUP3 SUB SWAP1 POP SWAP2 SWAP1 POP JUMP JUMPDEST PUSH32 0x537472696E67733A20686578206C656E67746820696E73756666696369656E74 PUSH0 DUP3 ADD MSTORE POP JUMP JUMPDEST PUSH0 PUSH2 0x294F PUSH1 0x20 DUP4 PUSH2 0x20AE JUMP JUMPDEST SWAP2 POP PUSH2 0x295A DUP3 PUSH2 0x291B JUMP JUMPDEST PUSH1 0x20 DUP3 ADD SWAP1 POP SWAP2 SWAP1 POP JUMP JUMPDEST PUSH0 PUSH1 0x20 DUP3 ADD SWAP1 POP DUP2 DUP2 SUB PUSH0 DUP4 ADD MSTORE PUSH2 0x297C DUP2 PUSH2 0x2943 JUMP JUMPDEST SWAP1 POP SWAP2 SWAP1 POP JUMP INVALID LOG2 PUSH5 0x6970667358 0x22 SLT KECCAK256 LOG3 0xD3 0x2F PUSH15 0xBB2FB6B3D8A9E67349126FEDAEDDBA PUSH16 0x9A19564DCF935020F7F1EED264736F6C PUSH4 0x4300081E STOP CALLER "
				},
				"gasEstimates": {
					"creation": {
						"codeDepositCost": "2136200",
						"executionCost": "infinite",
						"totalCost": "infinite"
					},
					"external": {
						"DEFAULT_ADMIN_ROLE()": "396",
						"PRICE_MANAGER()": "392",
						"WETH()": "infinite",
						"getAmountsOut(uint256,address[])": "infinite",
						"getRoleAdmin(bytes32)": "infinite",
						"getTokenDetails(address)": "infinite",
						"getTokenPrice(address)": "2923",
						"getWETHAddress()": "infinite",
						"grantRole(bytes32,address)": "infinite",
						"hasRole(bytes32,address)": "3166",
						"renounceRole(bytes32,address)": "infinite",
						"revokeRole(bytes32,address)": "infinite",
						"setTokenDetails(address,address,uint256)": "infinite",
						"setTokensDetails(address[],address[],uint256[])": "infinite",
						"supportsInterface(bytes4)": "741",
						"swapExactETHForTokensSupportingFeeOnTransferTokens(uint256,address[],address,uint256)": "infinite",
						"tokenDetails(address)": "infinite"
					}
				},
				"methodIdentifiers": {
					"DEFAULT_ADMIN_ROLE()": "a217fddf",
					"PRICE_MANAGER()": "cf0888aa",
					"WETH()": "ad5c4648",
					"getAmountsOut(uint256,address[])": "d06ca61f",
					"getRoleAdmin(bytes32)": "248a9ca3",
					"getTokenDetails(address)": "88aa8bee",
					"getTokenPrice(address)": "d02641a0",
					"getWETHAddress()": "affa8817",
					"grantRole(bytes32,address)": "2f2ff15d",
					"hasRole(bytes32,address)": "91d14854",
					"renounceRole(bytes32,address)": "36568abe",
					"revokeRole(bytes32,address)": "d547741f",
					"setTokenDetails(address,address,uint256)": "fa1c631b",
					"setTokensDetails(address[],address[],uint256[])": "eb71f7e6",
					"supportsInterface(bytes4)": "01ffc9a7",
					"swapExactETHForTokensSupportingFeeOnTransferTokens(uint256,address[],address,uint256)": "b6f9de95",
					"tokenDetails(address)": "dd4be683"
				}
			},
			"storageLayout": {
				"storage": [
					{
						"astId": 416,
						"contract": "uniswap.sol:UniswapV2Router02",
						"label": "_initialized",
						"offset": 0,
						"slot": "0",
						"type": "t_uint8"
					},
					{
						"astId": 419,
						"contract": "uniswap.sol:UniswapV2Router02",
						"label": "_initializing",
						"offset": 1,
						"slot": "0",
						"type": "t_bool"
					},
					{
						"astId": 958,
						"contract": "uniswap.sol:UniswapV2Router02",
						"label": "__gap",
						"offset": 0,
						"slot": "1",
						"type": "t_array(t_uint256)50_storage"
					},
					{
						"astId": 1232,
						"contract": "uniswap.sol:UniswapV2Router02",
						"label": "__gap",
						"offset": 0,
						"slot": "51",
						"type": "t_array(t_uint256)50_storage"
					},
					{
						"astId": 28,
						"contract": "uniswap.sol:UniswapV2Router02",
						"label": "_roles",
						"offset": 0,
						"slot": "101",
						"type": "t_mapping(t_bytes32,t_struct(RoleData)23_storage)"
					},
					{
						"astId": 335,
						"contract": "uniswap.sol:UniswapV2Router02",
						"label": "__gap",
						"offset": 0,
						"slot": "102",
						"type": "t_array(t_uint256)49_storage"
					},
					{
						"astId": 2284,
						"contract": "uniswap.sol:UniswapV2Router02",
						"label": "tokenDetails",
						"offset": 0,
						"slot": "151",
						"type": "t_mapping(t_address,t_struct(TokenDetail)2277_storage)"
					}
				],
				"types": {
					"t_address": {
						"encoding": "inplace",
						"label": "address",
						"numberOfBytes": "20"
					},
					"t_array(t_uint256)49_storage": {
						"base": "t_uint256",
						"encoding": "inplace",
						"label": "uint256[49]",
						"numberOfBytes": "1568"
					},
					"t_array(t_uint256)50_storage": {
						"base": "t_uint256",
						"encoding": "inplace",
						"label": "uint256[50]",
						"numberOfBytes": "1600"
					},
					"t_bool": {
						"encoding": "inplace",
						"label": "bool",
						"numberOfBytes": "1"
					},
					"t_bytes32": {
						"encoding": "inplace",
						"label": "bytes32",
						"numberOfBytes": "32"
					},
					"t_mapping(t_address,t_bool)": {
						"encoding": "mapping",
						"key": "t_address",
						"label": "mapping(address => bool)",
						"numberOfBytes": "32",
						"value": "t_bool"
					},
					"t_mapping(t_address,t_struct(TokenDetail)2277_storage)": {
						"encoding": "mapping",
						"key": "t_address",
						"label": "mapping(address => struct UniswapV2Router02.TokenDetail)",
						"numberOfBytes": "32",
						"value": "t_struct(TokenDetail)2277_storage"
					},
					"t_mapping(t_bytes32,t_struct(RoleData)23_storage)": {
						"encoding": "mapping",
						"key": "t_bytes32",
						"label": "mapping(bytes32 => struct AccessControlUpgradeable.RoleData)",
						"numberOfBytes": "32",
						"value": "t_struct(RoleData)23_storage"
					},
					"t_struct(RoleData)23_storage": {
						"encoding": "inplace",
						"label": "struct AccessControlUpgradeable.RoleData",
						"members": [
							{
								"astId": 20,
								"contract": "uniswap.sol:UniswapV2Router02",
								"label": "members",
								"offset": 0,
								"slot": "0",
								"type": "t_mapping(t_address,t_bool)"
							},
							{
								"astId": 22,
								"contract": "uniswap.sol:UniswapV2Router02",
								"label": "adminRole",
								"offset": 0,
								"slot": "1",
								"type": "t_bytes32"
							}
						],
						"numberOfBytes": "64"
					},
					"t_struct(TokenDetail)2277_storage": {
						"encoding": "inplace",
						"label": "struct UniswapV2Router02.TokenDetail",
						"members": [
							{
								"astId": 2274,
								"contract": "uniswap.sol:UniswapV2Router02",
								"label": "price",
								"offset": 0,
								"slot": "0",
								"type": "t_uint256"
							},
							{
								"astId": 2276,
								"contract": "uniswap.sol:UniswapV2Router02",
								"label": "tokenManager",
								"offset": 0,
								"slot": "1",
								"type": "t_address"
							}
						],
						"numberOfBytes": "64"
					},
					"t_uint256": {
						"encoding": "inplace",
						"label": "uint256",
						"numberOfBytes": "32"
					},
					"t_uint8": {
						"encoding": "inplace",
						"label": "uint8",
						"numberOfBytes": "1"
					}
				}
			},
			"userdoc": {
				"kind": "user",
				"methods": {},
				"version": 1
			}
		}
	}
}