{
	"Contract.sol": {
		"UniswapV2Router02": {
			"abi": [
				{
					"inputs": [
						{
							"internalType": "address",
							"name": "_WETH",
							"type": "address"
						}
					],
					"stateMutability": "nonpayable",
					"type": "constructor"
				},
				{
					"anonymous": false,
					"inputs": [
						{
							"indexed": false,
							"internalType": "uint8",
							"name": "version",
							"type": "uint8"
						}
					],
					"name": "Initialized",
					"type": "event"
				},
				{
					"anonymous": false,
					"inputs": [
						{
							"indexed": true,
							"internalType": "bytes32",
							"name": "role",
							"type": "bytes32"
						},
						{
							"indexed": true,
							"internalType": "bytes32",
							"name": "previousAdminRole",
							"type": "bytes32"
						},
						{
							"indexed": true,
							"internalType": "bytes32",
							"name": "newAdminRole",
							"type": "bytes32"
						}
					],
					"name": "RoleAdminChanged",
					"type": "event"
				},
				{
					"anonymous": false,
					"inputs": [
						{
							"indexed": true,
							"internalType": "bytes32",
							"name": "role",
							"type": "bytes32"
						},
						{
							"indexed": true,
							"internalType": "address",
							"name": "account",
							"type": "address"
						},
						{
							"indexed": true,
							"internalType": "address",
							"name": "sender",
							"type": "address"
						}
					],
					"name": "RoleGranted",
					"type": "event"
				},
				{
					"anonymous": false,
					"inputs": [
						{
							"indexed": true,
							"internalType": "bytes32",
							"name": "role",
							"type": "bytes32"
						},
						{
							"indexed": true,
							"internalType": "address",
							"name": "account",
							"type": "address"
						},
						{
							"indexed": true,
							"internalType": "address",
							"name": "sender",
							"type": "address"
						}
					],
					"name": "RoleRevoked",
					"type": "event"
				},
				{
					"inputs": [],
					"name": "DEFAULT_ADMIN_ROLE",
					"outputs": [
						{
							"internalType": "bytes32",
							"name": "",
							"type": "bytes32"
						}
					],
					"stateMutability": "view",
					"type": "function"
				},
				{
					"inputs": [],
					"name": "PRICE_MANAGER",
					"outputs": [
						{
							"internalType": "bytes32",
							"name": "",
							"type": "bytes32"
						}
					],
					"stateMutability": "view",
					"type": "function"
				},
				{
					"inputs": [],
					"name": "WETH",
					"outputs": [
						{
							"internalType": "address",
							"name": "",
							"type": "address"
						}
					],
					"stateMutability": "view",
					"type": "function"
				},
				{
					"inputs": [
						{
							"internalType": "uint256",
							"name": "amountIn",
							"type": "uint256"
						},
						{
							"internalType": "address[]",
							"name": "path",
							"type": "address[]"
						}
					],
					"name": "getAmountsOut",
					"outputs": [
						{
							"internalType": "uint256[]",
							"name": "amounts",
							"type": "uint256[]"
						}
					],
					"stateMutability": "view",
					"type": "function"
				},
				{
					"inputs": [
						{
							"internalType": "bytes32",
							"name": "role",
							"type": "bytes32"
						}
					],
					"name": "getRoleAdmin",
					"outputs": [
						{
							"internalType": "bytes32",
							"name": "",
							"type": "bytes32"
						}
					],
					"stateMutability": "view",
					"type": "function"
				},
				{
					"inputs": [
						{
							"internalType": "address",
							"name": "tokenAddress",
							"type": "address"
						}
					],
					"name": "getTokenDetails",
					"outputs": [
						{
							"components": [
								{
									"internalType": "uint256",
									"name": "price",
									"type": "uint256"
								},
								{
									"internalType": "address",
									"name": "tokenManager",
									"type": "address"
								}
							],
							"internalType": "struct UniswapV2Router02.TokenDetail",
							"name": "",
							"type": "tuple"
						}
					],
					"stateMutability": "view",
					"type": "function"
				},
				{
					"inputs": [
						{
							"internalType": "address",
							"name": "tokenAddress",
							"type": "address"
						}
					],
					"name": "getTokenPrice",
					"outputs": [
						{
							"internalType": "uint256",
							"name": "",
							"type": "uint256"
						}
					],
					"stateMutability": "view",
					"type": "function"
				},
				{
					"inputs": [],
					"name": "getWETHAddress",
					"outputs": [
						{
							"internalType": "address",
							"name": "",
							"type": "address"
						}
					],
					"stateMutability": "view",
					"type": "function"
				},
				{
					"inputs": [
						{
							"internalType": "bytes32",
							"name": "role",
							"type": "bytes32"
						},
						{
							"internalType": "address",
							"name": "account",
							"type": "address"
						}
					],
					"name": "grantRole",
					"outputs": [],
					"stateMutability": "nonpayable",
					"type": "function"
				},
				{
					"inputs": [
						{
							"internalType": "bytes32",
							"name": "role",
							"type": "bytes32"
						},
						{
							"internalType": "address",
							"name": "account",
							"type": "address"
						}
					],
					"name": "hasRole",
					"outputs": [
						{
							"internalType": "bool",
							"name": "",
							"type": "bool"
						}
					],
					"stateMutability": "view",
					"type": "function"
				},
				{
					"inputs": [
						{
							"internalType": "bytes32",
							"name": "role",
							"type": "bytes32"
						},
						{
							"internalType": "address",
							"name": "account",
							"type": "address"
						}
					],
					"name": "renounceRole",
					"outputs": [],
					"stateMutability": "nonpayable",
					"type": "function"
				},
				{
					"inputs": [
						{
							"internalType": "bytes32",
							"name": "role",
							"type": "bytes32"
						},
						{
							"internalType": "address",
							"name": "account",
							"type": "address"
						}
					],
					"name": "revokeRole",
					"outputs": [],
					"stateMutability": "nonpayable",
					"type": "function"
				},
				{
					"inputs": [
						{
							"internalType": "address",
							"name": "tokenAddress",
							"type": "address"
						},
						{
							"internalType": "address",
							"name": "tokenManager",
							"type": "address"
						},
						{
							"internalType": "uint256",
							"name": "price",
							"type": "uint256"
						}
					],
					"name": "setTokenDetails",
					"outputs": [],
					"stateMutability": "nonpayable",
					"type": "function"
				},
				{
					"inputs": [
						{
							"internalType": "address[]",
							"name": "tokenAddresses",
							"type": "address[]"
						},
						{
							"internalType": "address[]",
							"name": "tokenManagers",
							"type": "address[]"
						},
						{
							"internalType": "uint256[]",
							"name": "prices",
							"type": "uint256[]"
						}
					],
					"name": "setTokensDetails",
					"outputs": [],
					"stateMutability": "nonpayable",
					"type": "function"
				},
				{
					"inputs": [
						{
							"internalType": "bytes4",
							"name": "interfaceId",
							"type": "bytes4"
						}
					],
					"name": "supportsInterface",
					"outputs": [
						{
							"internalType": "bool",
							"name": "",
							"type": "bool"
						}
					],
					"stateMutability": "view",
					"type": "function"
				},
				{
					"inputs": [
						{
							"internalType": "uint256",
							"name": "amountOutMin",
							"type": "uint256"
						},
						{
							"internalType": "address[]",
							"name": "path",
							"type": "address[]"
						},
						{
							"internalType": "address",
							"name": "to",
							"type": "address"
						},
						{
							"internalType": "uint256",
							"name": "deadline",
							"type": "uint256"
						}
					],
					"name": "swapExactETHForTokensSupportingFeeOnTransferTokens",
					"outputs": [],
					"stateMutability": "payable",
					"type": "function"
				},
				{
					"inputs": [
						{
							"internalType": "uint256",
							"name": "amountIn",
							"type": "uint256"
						},
						{
							"internalType": "uint256",
							"name": "amountOutMin",
							"type": "uint256"
						},
						{
							"internalType": "address[]",
							"name": "path",
							"type": "address[]"
						},
						{
							"internalType": "address",
							"name": "to",
							"type": "address"
						},
						{
							"internalType": "uint256",
							"name": "deadline",
							"type": "uint256"
						}
					],
					"name": "swapExactTokensForTokensSupportingFeeOnTransferTokens",
					"outputs": [],
					"stateMutability": "nonpayable",
					"type": "function"
				},
				{
					"inputs": [
						{
							"internalType": "address",
							"name": "",
							"type": "address"
						}
					],
					"name": "tokenDetails",
					"outputs": [
						{
							"internalType": "uint256",
							"name": "price",
							"type": "uint256"
						},
						{
							"internalType": "address",
							"name": "tokenManager",
							"type": "address"
						}
					],
					"stateMutability": "view",
					"type": "function"
				}
			],
			"devdoc": {
				"events": {
					"Initialized(uint8)": {
						"details": "Triggered when the contract has been initialized or reinitialized."
					},
					"RoleAdminChanged(bytes32,bytes32,bytes32)": {
						"details": "Emitted when `newAdminRole` is set as ``role``'s admin role, replacing `previousAdminRole` `DEFAULT_ADMIN_ROLE` is the starting admin for all roles, despite {RoleAdminChanged} not being emitted signaling this. _Available since v3.1._"
					},
					"RoleGranted(bytes32,address,address)": {
						"details": "Emitted when `account` is granted `role`. `sender` is the account that originated the contract call, an admin role bearer except when using {AccessControl-_setupRole}."
					},
					"RoleRevoked(bytes32,address,address)": {
						"details": "Emitted when `account` is revoked `role`. `sender` is the account that originated the contract call:   - if using `revokeRole`, it is the admin role bearer   - if using `renounceRole`, it is the role bearer (i.e. `account`)"
					}
				},
				"kind": "dev",
				"methods": {
					"getRoleAdmin(bytes32)": {
						"details": "Returns the admin role that controls `role`. See {grantRole} and {revokeRole}. To change a role's admin, use {_setRoleAdmin}."
					},
					"grantRole(bytes32,address)": {
						"details": "Grants `role` to `account`. If `account` had not been already granted `role`, emits a {RoleGranted} event. Requirements: - the caller must have ``role``'s admin role. May emit a {RoleGranted} event."
					},
					"hasRole(bytes32,address)": {
						"details": "Returns `true` if `account` has been granted `role`."
					},
					"renounceRole(bytes32,address)": {
						"details": "Revokes `role` from the calling account. Roles are often managed via {grantRole} and {revokeRole}: this function's purpose is to provide a mechanism for accounts to lose their privileges if they are compromised (such as when a trusted device is misplaced). If the calling account had been revoked `role`, emits a {RoleRevoked} event. Requirements: - the caller must be `account`. May emit a {RoleRevoked} event."
					},
					"revokeRole(bytes32,address)": {
						"details": "Revokes `role` from `account`. If `account` had been granted `role`, emits a {RoleRevoked} event. Requirements: - the caller must have ``role``'s admin role. May emit a {RoleRevoked} event."
					},
					"supportsInterface(bytes4)": {
						"details": "See {IERC165-supportsInterface}."
					}
				},
				"version": 1
			},
			"evm": {
				"assembly": "    /* \"Contract.sol\":698:5879  contract UniswapV2Router02 is AccessControlUpgradeable {... */\n  mstore(0x40, 0xa0)\n    /* \"Contract.sol\":1016:1238  constructor(address _WETH) {... */\n  callvalue\n  dup1\n  iszero\n  tag_1\n  jumpi\n  revert(0x00, 0x00)\ntag_1:\n  pop\n  mload(0x40)\n  sub(codesize, bytecodeSize)\n  dup1\n  bytecodeSize\n  dup4\n  codecopy\n  dup2\n  add\n  0x40\n  dup2\n  swap1\n  mstore\n  tag_2\n  swap2\n  tag_3\n  jump\t// in\ntag_2:\n  sub(shl(0xa0, 0x01), 0x01)\n    /* \"Contract.sol\":1053:1065  WETH = _WETH */\n  dup2\n  and\n  0x80\n  mstore\n    /* \"Contract.sol\":1075:1119  _grantRole(DEFAULT_ADMIN_ROLE, _msgSender()) */\n  tag_6\n    /* \"@openzeppelin/contracts-upgradeable/access/AccessControlUpgradeable.sol\":2365:2369  0x00 */\n  0x00\n    /* \"@openzeppelin/contracts-upgradeable/utils/ContextUpgradeable.sol\":965:975  msg.sender */\n  caller\n    /* \"Contract.sol\":1075:1085  _grantRole */\n  tag_9\n    /* \"Contract.sol\":1075:1119  _grantRole(DEFAULT_ADMIN_ROLE, _msgSender()) */\n  jump\t// in\ntag_6:\n    /* \"Contract.sol\":1129:1168  _grantRole(PRICE_MANAGER, _msgSender()) */\n  tag_10\n    /* \"Contract.sol\":983:1009  keccak256(\"PRICE_MANAGER\") */\n  0xa451215b66f023bb76f9a9e7bc5c64156446b47b26061a8a32eaa319c45f695e\n    /* \"@openzeppelin/contracts-upgradeable/utils/ContextUpgradeable.sol\":965:975  msg.sender */\n  caller\n    /* \"Contract.sol\":1075:1085  _grantRole */\n  tag_9\n    /* \"Contract.sol\":1075:1119  _grantRole(DEFAULT_ADMIN_ROLE, _msgSender()) */\n  jump\t// in\n    /* \"Contract.sol\":1129:1168  _grantRole(PRICE_MANAGER, _msgSender()) */\ntag_10:\n    /* \"Contract.sol\":1200:1231  TokenDetail(1e18, _msgSender()) */\n  mload(0x40)\n  dup1\n  0x40\n  add\n  0x40\n  mstore\n  dup1\n    /* \"Contract.sol\":1212:1216  1e18 */\n  0x0de0b6b3a7640000\n    /* \"Contract.sol\":1200:1231  TokenDetail(1e18, _msgSender()) */\n  dup2\n  mstore\n  0x20\n  add\n    /* \"Contract.sol\":1218:1230  _msgSender() */\n  tag_12\n    /* \"Contract.sol\":1218:1228  _msgSender */\n  shl(0x20, tag_8)\n    /* \"Contract.sol\":1218:1230  _msgSender() */\n  0x20\n  shr\n  jump\t// in\ntag_12:\n  sub(shl(0xa0, 0x01), 0x01)\n    /* \"Contract.sol\":1200:1231  TokenDetail(1e18, _msgSender()) */\n  swap1\n  dup2\n  and\n  swap1\n  swap2\n  mstore\n    /* \"Contract.sol\":1178:1197  tokenDetails[_WETH] */\n  swap2\n  dup3\n  and\n  0x00\n  swap1\n  dup2\n  mstore\n    /* \"Contract.sol\":1178:1190  tokenDetails */\n  0x97\n    /* \"Contract.sol\":1178:1197  tokenDetails[_WETH] */\n  0x20\n  swap1\n  dup2\n  mstore\n  0x40\n  swap1\n  swap2\n  keccak256\n    /* \"Contract.sol\":1178:1231  tokenDetails[_WETH] = TokenDetail(1e18, _msgSender()) */\n  dup3\n  mload\n  dup2\n  sstore\n  swap2\n  add\n  mload\n  0x01\n  swap1\n  swap2\n  add\n  dup1\n  sload\n  not(sub(shl(0xa0, 0x01), 0x01))\n  and\n  swap2\n  swap1\n  swap3\n  and\n  or\n  swap1\n  sstore\n    /* \"Contract.sol\":698:5879  contract UniswapV2Router02 is AccessControlUpgradeable {... */\n  jump(tag_21)\n    /* \"@openzeppelin/contracts-upgradeable/utils/ContextUpgradeable.sol\":886:982  function _msgSender() internal view virtual returns (address) {... */\ntag_8:\n    /* \"@openzeppelin/contracts-upgradeable/utils/ContextUpgradeable.sol\":965:975  msg.sender */\n  caller\n  swap1\n    /* \"@openzeppelin/contracts-upgradeable/utils/ContextUpgradeable.sol\":886:982  function _msgSender() internal view virtual returns (address) {... */\n  jump\t// out\n    /* \"@openzeppelin/contracts-upgradeable/access/AccessControlUpgradeable.sol\":7938:8171  function _grantRole(bytes32 role, address account) internal virtual {... */\ntag_9:\n    /* \"@openzeppelin/contracts-upgradeable/access/AccessControlUpgradeable.sol\":3436:3440  bool */\n  0x00\n    /* \"@openzeppelin/contracts-upgradeable/access/AccessControlUpgradeable.sol\":3459:3471  _roles[role] */\n  dup3\n  dup2\n  mstore\n    /* \"@openzeppelin/contracts-upgradeable/access/AccessControlUpgradeable.sol\":3459:3465  _roles */\n  0x65\n    /* \"@openzeppelin/contracts-upgradeable/access/AccessControlUpgradeable.sol\":3459:3471  _roles[role] */\n  0x20\n  swap1\n  dup2\n  mstore\n  0x40\n  dup1\n  dup4\n  keccak256\n  sub(shl(0xa0, 0x01), 0x01)\n    /* \"@openzeppelin/contracts-upgradeable/access/AccessControlUpgradeable.sol\":3459:3488  _roles[role].members[account] */\n  dup6\n  and\n  dup5\n  mstore\n  swap1\n  swap2\n  mstore\n  swap1\n  keccak256\n  sload\n  0xff\n  and\n    /* \"@openzeppelin/contracts-upgradeable/access/AccessControlUpgradeable.sol\":8016:8165  if (!hasRole(role, account)) {... */\n  tag_18\n  jumpi\n    /* \"@openzeppelin/contracts-upgradeable/access/AccessControlUpgradeable.sol\":8059:8071  _roles[role] */\n  0x00\n  dup3\n  dup2\n  mstore\n    /* \"@openzeppelin/contracts-upgradeable/access/AccessControlUpgradeable.sol\":8059:8065  _roles */\n  0x65\n    /* \"@openzeppelin/contracts-upgradeable/access/AccessControlUpgradeable.sol\":8059:8071  _roles[role] */\n  0x20\n  swap1\n  dup2\n  mstore\n  0x40\n  dup1\n  dup4\n  keccak256\n  sub(shl(0xa0, 0x01), 0x01)\n    /* \"@openzeppelin/contracts-upgradeable/access/AccessControlUpgradeable.sol\":8059:8088  _roles[role].members[account] */\n  dup6\n  and\n  dup5\n  mstore\n  swap1\n  swap2\n  mstore\n  swap1\n  keccak256\n    /* \"@openzeppelin/contracts-upgradeable/access/AccessControlUpgradeable.sol\":8059:8095  _roles[role].members[account] = true */\n  dup1\n  sload\n  not(0xff)\n  and\n    /* \"@openzeppelin/contracts-upgradeable/access/AccessControlUpgradeable.sol\":8091:8095  true */\n  0x01\n    /* \"@openzeppelin/contracts-upgradeable/access/AccessControlUpgradeable.sol\":8059:8095  _roles[role].members[account] = true */\n  or\n  swap1\n  sstore\n    /* \"@openzeppelin/contracts-upgradeable/access/AccessControlUpgradeable.sol\":8141:8153  _msgSender() */\n  tag_19\n    /* \"@openzeppelin/contracts-upgradeable/utils/ContextUpgradeable.sol\":965:975  msg.sender */\n  caller\n  swap1\n    /* \"@openzeppelin/contracts-upgradeable/utils/ContextUpgradeable.sol\":886:982  function _msgSender() internal view virtual returns (address) {... */\n  jump\n    /* \"@openzeppelin/contracts-upgradeable/access/AccessControlUpgradeable.sol\":8141:8153  _msgSender() */\ntag_19:\n  sub(shl(0xa0, 0x01), 0x01)\n    /* \"@openzeppelin/contracts-upgradeable/access/AccessControlUpgradeable.sol\":8114:8154  RoleGranted(role, account, _msgSender()) */\n  and\n    /* \"@openzeppelin/contracts-upgradeable/access/AccessControlUpgradeable.sol\":8132:8139  account */\n  dup2\n  sub(shl(0xa0, 0x01), 0x01)\n    /* \"@openzeppelin/contracts-upgradeable/access/AccessControlUpgradeable.sol\":8114:8154  RoleGranted(role, account, _msgSender()) */\n  and\n    /* \"@openzeppelin/contracts-upgradeable/access/AccessControlUpgradeable.sol\":8126:8130  role */\n  dup4\n    /* \"@openzeppelin/contracts-upgradeable/access/AccessControlUpgradeable.sol\":8114:8154  RoleGranted(role, account, _msgSender()) */\n  0x2f8788117e7eff1d82e926ec794901d17c78024a50270940304540a733656f0d\n  mload(0x40)\n  mload(0x40)\n  dup1\n  swap2\n  sub\n  swap1\n  log4\n    /* \"@openzeppelin/contracts-upgradeable/access/AccessControlUpgradeable.sol\":8016:8165  if (!hasRole(role, account)) {... */\ntag_18:\n    /* \"@openzeppelin/contracts-upgradeable/access/AccessControlUpgradeable.sol\":7938:8171  function _grantRole(bytes32 role, address account) internal virtual {... */\n  pop\n  pop\n  jump\t// out\n    /* \"#utility.yul\":14:304   */\ntag_3:\n    /* \"#utility.yul\":84:90   */\n  0x00\n    /* \"#utility.yul\":137:139   */\n  0x20\n    /* \"#utility.yul\":125:134   */\n  dup3\n    /* \"#utility.yul\":116:123   */\n  dup5\n    /* \"#utility.yul\":112:135   */\n  sub\n    /* \"#utility.yul\":108:140   */\n  slt\n    /* \"#utility.yul\":105:157   */\n  iszero\n  tag_23\n  jumpi\n    /* \"#utility.yul\":153:154   */\n  0x00\n    /* \"#utility.yul\":150:151   */\n  0x00\n    /* \"#utility.yul\":143:155   */\n  revert\n    /* \"#utility.yul\":105:157   */\ntag_23:\n    /* \"#utility.yul\":179:195   */\n  dup2\n  mload\n  sub(shl(0xa0, 0x01), 0x01)\n    /* \"#utility.yul\":224:255   */\n  dup2\n  and\n    /* \"#utility.yul\":214:256   */\n  dup2\n  eq\n    /* \"#utility.yul\":204:274   */\n  tag_24\n  jumpi\n    /* \"#utility.yul\":270:271   */\n  0x00\n    /* \"#utility.yul\":267:268   */\n  0x00\n    /* \"#utility.yul\":260:272   */\n  revert\n    /* \"#utility.yul\":204:274   */\ntag_24:\n    /* \"#utility.yul\":293:298   */\n  swap4\n    /* \"#utility.yul\":14:304   */\n  swap3\n  pop\n  pop\n  pop\n  jump\t// out\ntag_21:\n    /* \"Contract.sol\":698:5879  contract UniswapV2Router02 is AccessControlUpgradeable {... */\n  mload(0x80)\n  codecopy(0x00, dataOffset(sub_0), dataSize(sub_0))\n  0x00\n  assignImmutable(\"0x272fee19618bddbc00febd3897af287776f225c94084e4d859902021d48f698c\")\n  return(0x00, dataSize(sub_0))\nstop\n\nsub_0: assembly {\n        /* \"Contract.sol\":698:5879  contract UniswapV2Router02 is AccessControlUpgradeable {... */\n      mstore(0x40, 0x80)\n      jumpi(tag_1, lt(calldatasize, 0x04))\n      shr(0xe0, calldataload(0x00))\n      dup1\n      0xaffa8817\n      gt\n      tag_20\n      jumpi\n      dup1\n      0xd06ca61f\n      gt\n      tag_21\n      jumpi\n      dup1\n      0xd06ca61f\n      eq\n      tag_15\n      jumpi\n      dup1\n      0xd547741f\n      eq\n      tag_16\n      jumpi\n      dup1\n      0xdd4be683\n      eq\n      tag_17\n      jumpi\n      dup1\n      0xeb71f7e6\n      eq\n      tag_18\n      jumpi\n      dup1\n      0xfa1c631b\n      eq\n      tag_19\n      jumpi\n      revert(0x00, 0x00)\n    tag_21:\n      dup1\n      0xaffa8817\n      eq\n      tag_11\n      jumpi\n      dup1\n      0xb6f9de95\n      eq\n      tag_12\n      jumpi\n      dup1\n      0xcf0888aa\n      eq\n      tag_13\n      jumpi\n      dup1\n      0xd02641a0\n      eq\n      tag_14\n      jumpi\n      revert(0x00, 0x00)\n    tag_20:\n      dup1\n      0x5c11d795\n      gt\n      tag_22\n      jumpi\n      dup1\n      0x5c11d795\n      eq\n      tag_6\n      jumpi\n      dup1\n      0x88aa8bee\n      eq\n      tag_7\n      jumpi\n      dup1\n      0x91d14854\n      eq\n      tag_8\n      jumpi\n      dup1\n      0xa217fddf\n      eq\n      tag_9\n      jumpi\n      dup1\n      0xad5c4648\n      eq\n      tag_10\n      jumpi\n      revert(0x00, 0x00)\n    tag_22:\n      dup1\n      0x01ffc9a7\n      eq\n      tag_2\n      jumpi\n      dup1\n      0x248a9ca3\n      eq\n      tag_3\n      jumpi\n      dup1\n      0x2f2ff15d\n      eq\n      tag_4\n      jumpi\n      dup1\n      0x36568abe\n      eq\n      tag_5\n      jumpi\n    tag_1:\n      revert(0x00, 0x00)\n        /* \"@openzeppelin/contracts-upgradeable/access/AccessControlUpgradeable.sol\":3050:3263  function supportsInterface(bytes4 interfaceId) public view virtual override returns (bool) {... */\n    tag_2:\n      callvalue\n      dup1\n      iszero\n      tag_23\n      jumpi\n      revert(0x00, 0x00)\n    tag_23:\n      pop\n      tag_24\n      tag_25\n      calldatasize\n      0x04\n      tag_26\n      jump\t// in\n    tag_25:\n      tag_27\n      jump\t// in\n    tag_24:\n      mload(0x40)\n        /* \"#utility.yul\":470:484   */\n      swap1\n      iszero\n        /* \"#utility.yul\":463:485   */\n      iszero\n        /* \"#utility.yul\":445:486   */\n      dup2\n      mstore\n        /* \"#utility.yul\":433:435   */\n      0x20\n        /* \"#utility.yul\":418:436   */\n      add\n        /* \"@openzeppelin/contracts-upgradeable/access/AccessControlUpgradeable.sol\":3050:3263  function supportsInterface(bytes4 interfaceId) public view virtual override returns (bool) {... */\n    tag_28:\n      mload(0x40)\n      dup1\n      swap2\n      sub\n      swap1\n      return\n        /* \"@openzeppelin/contracts-upgradeable/access/AccessControlUpgradeable.sol\":4855:4984  function getRoleAdmin(bytes32 role) public view virtual override returns (bytes32) {... */\n    tag_3:\n      callvalue\n      dup1\n      iszero\n      tag_30\n      jumpi\n      revert(0x00, 0x00)\n    tag_30:\n      pop\n      tag_31\n      tag_32\n      calldatasize\n      0x04\n      tag_33\n      jump\t// in\n    tag_32:\n        /* \"@openzeppelin/contracts-upgradeable/access/AccessControlUpgradeable.sol\":4929:4936  bytes32 */\n      0x00\n        /* \"@openzeppelin/contracts-upgradeable/access/AccessControlUpgradeable.sol\":4955:4967  _roles[role] */\n      swap1\n      dup2\n      mstore\n        /* \"@openzeppelin/contracts-upgradeable/access/AccessControlUpgradeable.sol\":4955:4961  _roles */\n      0x65\n        /* \"@openzeppelin/contracts-upgradeable/access/AccessControlUpgradeable.sol\":4955:4967  _roles[role] */\n      0x20\n      mstore\n      0x40\n      swap1\n      keccak256\n        /* \"@openzeppelin/contracts-upgradeable/access/AccessControlUpgradeable.sol\":4955:4977  _roles[role].adminRole */\n      0x01\n      add\n      sload\n      swap1\n        /* \"@openzeppelin/contracts-upgradeable/access/AccessControlUpgradeable.sol\":4855:4984  function getRoleAdmin(bytes32 role) public view virtual override returns (bytes32) {... */\n      jump\n    tag_31:\n      mload(0x40)\n        /* \"#utility.yul\":874:899   */\n      swap1\n      dup2\n      mstore\n        /* \"#utility.yul\":862:864   */\n      0x20\n        /* \"#utility.yul\":847:865   */\n      add\n        /* \"@openzeppelin/contracts-upgradeable/access/AccessControlUpgradeable.sol\":4855:4984  function getRoleAdmin(bytes32 role) public view virtual override returns (bytes32) {... */\n      tag_28\n        /* \"#utility.yul\":728:905   */\n      jump\n        /* \"@openzeppelin/contracts-upgradeable/access/AccessControlUpgradeable.sol\":5280:5425  function grantRole(bytes32 role, address account) public virtual override onlyRole(getRoleAdmin(role)) {... */\n    tag_4:\n      callvalue\n      dup1\n      iszero\n      tag_37\n      jumpi\n      revert(0x00, 0x00)\n    tag_37:\n      pop\n      tag_38\n      tag_39\n      calldatasize\n      0x04\n      tag_40\n      jump\t// in\n    tag_39:\n      tag_41\n      jump\t// in\n    tag_38:\n      stop\n        /* \"@openzeppelin/contracts-upgradeable/access/AccessControlUpgradeable.sol\":6389:6603  function renounceRole(bytes32 role, address account) public virtual override {... */\n    tag_5:\n      callvalue\n      dup1\n      iszero\n      tag_42\n      jumpi\n      revert(0x00, 0x00)\n    tag_42:\n      pop\n      tag_38\n      tag_44\n      calldatasize\n      0x04\n      tag_40\n      jump\t// in\n    tag_44:\n      tag_45\n      jump\t// in\n        /* \"Contract.sol\":3018:4305  function swapExactTokensForTokensSupportingFeeOnTransferTokens(... */\n    tag_6:\n      callvalue\n      dup1\n      iszero\n      tag_46\n      jumpi\n      revert(0x00, 0x00)\n    tag_46:\n      pop\n      tag_38\n      tag_48\n      calldatasize\n      0x04\n      tag_49\n      jump\t// in\n    tag_48:\n      tag_50\n      jump\t// in\n        /* \"Contract.sol\":5711:5877  function getTokenDetails(address tokenAddress)... */\n    tag_7:\n      callvalue\n      dup1\n      iszero\n      tag_51\n      jumpi\n      revert(0x00, 0x00)\n    tag_51:\n      pop\n      tag_52\n      tag_53\n      calldatasize\n      0x04\n      tag_54\n      jump\t// in\n    tag_53:\n      0x40\n      dup1\n      mload\n      dup1\n      dup3\n      add\n      dup3\n      mstore\n      0x00\n      dup1\n      dup3\n      mstore\n      0x20\n      swap2\n      dup3\n      add\n      dup2\n      swap1\n      mstore\n      sub(shl(0xa0, 0x01), 0x01)\n        /* \"Contract.sol\":5844:5870  tokenDetails[tokenAddress] */\n      swap4\n      dup5\n      and\n      dup2\n      mstore\n        /* \"Contract.sol\":5844:5856  tokenDetails */\n      0x97\n        /* \"Contract.sol\":5844:5870  tokenDetails[tokenAddress] */\n      dup3\n      mstore\n      dup3\n      swap1\n      keccak256\n        /* \"Contract.sol\":5837:5870  return tokenDetails[tokenAddress] */\n      dup3\n      mload\n      dup1\n      dup5\n      add\n      swap1\n      swap4\n      mstore\n      dup1\n      sload\n      dup4\n      mstore\n      0x01\n      add\n      sload\n      swap1\n      swap3\n      and\n      swap2\n      dup2\n      add\n      swap2\n      swap1\n      swap2\n      mstore\n      swap1\n        /* \"Contract.sol\":5711:5877  function getTokenDetails(address tokenAddress)... */\n      jump\n    tag_52:\n      0x40\n      dup1\n      mload\n        /* \"#utility.yul\":3050:3063   */\n      dup3\n      mload\n        /* \"#utility.yul\":3032:3064   */\n      dup2\n      mstore\n        /* \"#utility.yul\":3124:3128   */\n      0x20\n        /* \"#utility.yul\":3112:3129   */\n      swap3\n      dup4\n      add\n        /* \"#utility.yul\":3106:3130   */\n      mload\n      sub(shl(0xa0, 0x01), 0x01)\n        /* \"#utility.yul\":3102:3152   */\n      and\n        /* \"#utility.yul\":3080:3100   */\n      swap3\n      dup2\n      add\n        /* \"#utility.yul\":3073:3153   */\n      swap3\n      swap1\n      swap3\n      mstore\n        /* \"#utility.yul\":3005:3023   */\n      add\n        /* \"Contract.sol\":5711:5877  function getTokenDetails(address tokenAddress)... */\n      tag_28\n        /* \"#utility.yul\":2828:3159   */\n      jump\n        /* \"@openzeppelin/contracts-upgradeable/access/AccessControlUpgradeable.sol\":3350:3495  function hasRole(bytes32 role, address account) public view virtual override returns (bool) {... */\n    tag_8:\n      callvalue\n      dup1\n      iszero\n      tag_58\n      jumpi\n      revert(0x00, 0x00)\n    tag_58:\n      pop\n      tag_24\n      tag_60\n      calldatasize\n      0x04\n      tag_40\n      jump\t// in\n    tag_60:\n      tag_61\n      jump\t// in\n        /* \"@openzeppelin/contracts-upgradeable/access/AccessControlUpgradeable.sol\":2320:2369  bytes32 public constant DEFAULT_ADMIN_ROLE = 0x00 */\n    tag_9:\n      callvalue\n      dup1\n      iszero\n      tag_63\n      jumpi\n      revert(0x00, 0x00)\n    tag_63:\n      pop\n      tag_31\n        /* \"@openzeppelin/contracts-upgradeable/access/AccessControlUpgradeable.sol\":2365:2369  0x00 */\n      0x00\n        /* \"@openzeppelin/contracts-upgradeable/access/AccessControlUpgradeable.sol\":2320:2369  bytes32 public constant DEFAULT_ADMIN_ROLE = 0x00 */\n      dup2\n      jump\n        /* \"Contract.sol\":849:878  address public immutable WETH */\n    tag_10:\n      callvalue\n      dup1\n      iszero\n      tag_67\n      jumpi\n      revert(0x00, 0x00)\n    tag_67:\n      pop\n      tag_68\n      immutable(\"0x272fee19618bddbc00febd3897af287776f225c94084e4d859902021d48f698c\")\n      dup2\n      jump\n    tag_68:\n      mload(0x40)\n      sub(shl(0xa0, 0x01), 0x01)\n        /* \"#utility.yul\":3328:3360   */\n      swap1\n      swap2\n      and\n        /* \"#utility.yul\":3310:3361   */\n      dup2\n      mstore\n        /* \"#utility.yul\":3298:3300   */\n      0x20\n        /* \"#utility.yul\":3283:3301   */\n      add\n        /* \"Contract.sol\":849:878  address public immutable WETH */\n      tag_28\n        /* \"#utility.yul\":3164:3367   */\n      jump\n        /* \"Contract.sol\":5484:5568  function getWETHAddress() public view returns (address) {... */\n    tag_11:\n      callvalue\n      dup1\n      iszero\n      tag_72\n      jumpi\n      revert(0x00, 0x00)\n    tag_72:\n      pop\n        /* \"Contract.sol\":5557:5561  WETH */\n      immutable(\"0x272fee19618bddbc00febd3897af287776f225c94084e4d859902021d48f698c\")\n        /* \"Contract.sol\":5484:5568  function getWETHAddress() public view returns (address) {... */\n      jump(tag_68)\n        /* \"Contract.sol\":2020:3012  function swapExactETHForTokensSupportingFeeOnTransferTokens(... */\n    tag_12:\n      tag_38\n      tag_77\n      calldatasize\n      0x04\n      tag_78\n      jump\t// in\n    tag_77:\n      tag_79\n      jump\t// in\n        /* \"Contract.sol\":943:1009  bytes32 public constant PRICE_MANAGER = keccak256(\"PRICE_MANAGER\") */\n    tag_13:\n      callvalue\n      dup1\n      iszero\n      tag_80\n      jumpi\n      revert(0x00, 0x00)\n    tag_80:\n      pop\n      tag_31\n        /* \"Contract.sol\":983:1009  keccak256(\"PRICE_MANAGER\") */\n      0xa451215b66f023bb76f9a9e7bc5c64156446b47b26061a8a32eaa319c45f695e\n        /* \"Contract.sol\":943:1009  bytes32 public constant PRICE_MANAGER = keccak256(\"PRICE_MANAGER\") */\n      dup2\n      jump\n        /* \"Contract.sol\":5574:5705  function getTokenPrice(address tokenAddress) public view returns (uint256) {... */\n    tag_14:\n      callvalue\n      dup1\n      iszero\n      tag_84\n      jumpi\n      revert(0x00, 0x00)\n    tag_84:\n      pop\n      tag_31\n      tag_86\n      calldatasize\n      0x04\n      tag_54\n      jump\t// in\n    tag_86:\n      sub(shl(0xa0, 0x01), 0x01)\n        /* \"Contract.sol\":5666:5692  tokenDetails[tokenAddress] */\n      and\n        /* \"Contract.sol\":5640:5647  uint256 */\n      0x00\n        /* \"Contract.sol\":5666:5692  tokenDetails[tokenAddress] */\n      swap1\n      dup2\n      mstore\n        /* \"Contract.sol\":5666:5678  tokenDetails */\n      0x97\n        /* \"Contract.sol\":5666:5692  tokenDetails[tokenAddress] */\n      0x20\n      mstore\n      0x40\n      swap1\n      keccak256\n        /* \"Contract.sol\":5666:5698  tokenDetails[tokenAddress].price */\n      sload\n      swap1\n        /* \"Contract.sol\":5574:5705  function getTokenPrice(address tokenAddress) public view returns (uint256) {... */\n      jump\n        /* \"Contract.sol\":4311:5478  function getAmountsOut(uint amountIn, address[] memory path)... */\n    tag_15:\n      callvalue\n      dup1\n      iszero\n      tag_90\n      jumpi\n      revert(0x00, 0x00)\n    tag_90:\n      pop\n      tag_91\n      tag_92\n      calldatasize\n      0x04\n      tag_93\n      jump\t// in\n    tag_92:\n      tag_94\n      jump\t// in\n    tag_91:\n      mload(0x40)\n      tag_28\n      swap2\n      swap1\n      tag_96\n      jump\t// in\n        /* \"@openzeppelin/contracts-upgradeable/access/AccessControlUpgradeable.sol\":5705:5852  function revokeRole(bytes32 role, address account) public virtual override onlyRole(getRoleAdmin(role)) {... */\n    tag_16:\n      callvalue\n      dup1\n      iszero\n      tag_97\n      jumpi\n      revert(0x00, 0x00)\n    tag_97:\n      pop\n      tag_38\n      tag_99\n      calldatasize\n      0x04\n      tag_40\n      jump\t// in\n    tag_99:\n      tag_100\n      jump\t// in\n        /* \"Contract.sol\":885:936  mapping(address => TokenDetail) public tokenDetails */\n    tag_17:\n      callvalue\n      dup1\n      iszero\n      tag_101\n      jumpi\n      revert(0x00, 0x00)\n    tag_101:\n      pop\n      tag_102\n      tag_103\n      calldatasize\n      0x04\n      tag_54\n      jump\t// in\n    tag_103:\n      mstore(0x20, 0x97)\n      0x00\n      swap1\n      dup2\n      mstore\n      0x40\n      swap1\n      keccak256\n      dup1\n      sload\n      0x01\n      swap1\n      swap2\n      add\n      sload\n      sub(shl(0xa0, 0x01), 0x01)\n      and\n      dup3\n      jump\n    tag_102:\n      0x40\n      dup1\n      mload\n        /* \"#utility.yul\":6842:6867   */\n      swap3\n      dup4\n      mstore\n      sub(shl(0xa0, 0x01), 0x01)\n        /* \"#utility.yul\":6903:6935   */\n      swap1\n      swap2\n      and\n        /* \"#utility.yul\":6898:6900   */\n      0x20\n        /* \"#utility.yul\":6883:6901   */\n      dup4\n      add\n        /* \"#utility.yul\":6876:6936   */\n      mstore\n        /* \"#utility.yul\":6815:6833   */\n      add\n        /* \"Contract.sol\":885:936  mapping(address => TokenDetail) public tokenDetails */\n      tag_28\n        /* \"#utility.yul\":6668:6942   */\n      jump\n        /* \"Contract.sol\":1473:2014  function setTokensDetails(... */\n    tag_18:\n      callvalue\n      dup1\n      iszero\n      tag_107\n      jumpi\n      revert(0x00, 0x00)\n    tag_107:\n      pop\n      tag_38\n      tag_109\n      calldatasize\n      0x04\n      tag_110\n      jump\t// in\n    tag_109:\n      tag_111\n      jump\t// in\n        /* \"Contract.sol\":1244:1467  function setTokenDetails(... */\n    tag_19:\n      callvalue\n      dup1\n      iszero\n      tag_112\n      jumpi\n      revert(0x00, 0x00)\n    tag_112:\n      pop\n      tag_38\n      tag_114\n      calldatasize\n      0x04\n      tag_115\n      jump\t// in\n    tag_114:\n      tag_116\n      jump\t// in\n        /* \"@openzeppelin/contracts-upgradeable/access/AccessControlUpgradeable.sol\":3050:3263  function supportsInterface(bytes4 interfaceId) public view virtual override returns (bool) {... */\n    tag_27:\n        /* \"@openzeppelin/contracts-upgradeable/access/AccessControlUpgradeable.sol\":3135:3139  bool */\n      0x00\n      not(sub(shl(0xe0, 0x01), 0x01))\n        /* \"@openzeppelin/contracts-upgradeable/access/AccessControlUpgradeable.sol\":3158:3216  interfaceId == type(IAccessControlUpgradeable).interfaceId */\n      dup3\n      and\n      shl(0xe0, 0x7965db0b)\n      eq\n      dup1\n        /* \"@openzeppelin/contracts-upgradeable/access/AccessControlUpgradeable.sol\":3158:3256  interfaceId == type(IAccessControlUpgradeable).interfaceId || super.supportsInterface(interfaceId) */\n      tag_119\n      jumpi\n      pop\n      shl(0xe0, 0x01ffc9a7)\n      not(sub(shl(0xe0, 0x01), 0x01))\n        /* \"@openzeppelin/contracts-upgradeable/utils/introspection/ERC165Upgradeable.sol\":1189:1240  interfaceId == type(IERC165Upgradeable).interfaceId */\n      dup4\n      and\n      eq\n        /* \"@openzeppelin/contracts-upgradeable/access/AccessControlUpgradeable.sol\":3220:3256  super.supportsInterface(interfaceId) */\n    tag_119:\n        /* \"@openzeppelin/contracts-upgradeable/access/AccessControlUpgradeable.sol\":3151:3256  return interfaceId == type(IAccessControlUpgradeable).interfaceId || super.supportsInterface(interfaceId) */\n      swap3\n        /* \"@openzeppelin/contracts-upgradeable/access/AccessControlUpgradeable.sol\":3050:3263  function supportsInterface(bytes4 interfaceId) public view virtual override returns (bool) {... */\n      swap2\n      pop\n      pop\n      jump\t// out\n        /* \"@openzeppelin/contracts-upgradeable/access/AccessControlUpgradeable.sol\":5280:5425  function grantRole(bytes32 role, address account) public virtual override onlyRole(getRoleAdmin(role)) {... */\n    tag_41:\n        /* \"@openzeppelin/contracts-upgradeable/access/AccessControlUpgradeable.sol\":4929:4936  bytes32 */\n      0x00\n        /* \"@openzeppelin/contracts-upgradeable/access/AccessControlUpgradeable.sol\":4955:4967  _roles[role] */\n      dup3\n      dup2\n      mstore\n        /* \"@openzeppelin/contracts-upgradeable/access/AccessControlUpgradeable.sol\":4955:4961  _roles */\n      0x65\n        /* \"@openzeppelin/contracts-upgradeable/access/AccessControlUpgradeable.sol\":4955:4967  _roles[role] */\n      0x20\n      mstore\n      0x40\n      swap1\n      keccak256\n        /* \"@openzeppelin/contracts-upgradeable/access/AccessControlUpgradeable.sol\":4955:4977  _roles[role].adminRole */\n      0x01\n      add\n      sload\n        /* \"@openzeppelin/contracts-upgradeable/access/AccessControlUpgradeable.sol\":2798:2814  _checkRole(role) */\n      tag_124\n        /* \"@openzeppelin/contracts-upgradeable/access/AccessControlUpgradeable.sol\":2809:2813  role */\n      dup2\n        /* \"@openzeppelin/contracts-upgradeable/access/AccessControlUpgradeable.sol\":2798:2808  _checkRole */\n      tag_125\n        /* \"@openzeppelin/contracts-upgradeable/access/AccessControlUpgradeable.sol\":2798:2814  _checkRole(role) */\n      jump\t// in\n    tag_124:\n        /* \"@openzeppelin/contracts-upgradeable/access/AccessControlUpgradeable.sol\":5393:5418  _grantRole(role, account) */\n      tag_127\n        /* \"@openzeppelin/contracts-upgradeable/access/AccessControlUpgradeable.sol\":5404:5408  role */\n      dup4\n        /* \"@openzeppelin/contracts-upgradeable/access/AccessControlUpgradeable.sol\":5410:5417  account */\n      dup4\n        /* \"@openzeppelin/contracts-upgradeable/access/AccessControlUpgradeable.sol\":5393:5403  _grantRole */\n      tag_128\n        /* \"@openzeppelin/contracts-upgradeable/access/AccessControlUpgradeable.sol\":5393:5418  _grantRole(role, account) */\n      jump\t// in\n    tag_127:\n        /* \"@openzeppelin/contracts-upgradeable/access/AccessControlUpgradeable.sol\":5280:5425  function grantRole(bytes32 role, address account) public virtual override onlyRole(getRoleAdmin(role)) {... */\n      pop\n      pop\n      pop\n      jump\t// out\n        /* \"@openzeppelin/contracts-upgradeable/access/AccessControlUpgradeable.sol\":6389:6603  function renounceRole(bytes32 role, address account) public virtual override {... */\n    tag_45:\n      sub(shl(0xa0, 0x01), 0x01)\n        /* \"@openzeppelin/contracts-upgradeable/access/AccessControlUpgradeable.sol\":6484:6507  account == _msgSender() */\n      dup2\n      and\n        /* \"@openzeppelin/contracts-upgradeable/utils/ContextUpgradeable.sol\":965:975  msg.sender */\n      caller\n        /* \"@openzeppelin/contracts-upgradeable/access/AccessControlUpgradeable.sol\":6484:6507  account == _msgSender() */\n      eq\n        /* \"@openzeppelin/contracts-upgradeable/access/AccessControlUpgradeable.sol\":6476:6559  require(account == _msgSender(), \"AccessControl: can only renounce roles for self\") */\n      tag_132\n      jumpi\n      mload(0x40)\n      shl(0xe5, 0x461bcd)\n      dup2\n      mstore\n        /* \"#utility.yul\":8957:8959   */\n      0x20\n        /* \"@openzeppelin/contracts-upgradeable/access/AccessControlUpgradeable.sol\":6476:6559  require(account == _msgSender(), \"AccessControl: can only renounce roles for self\") */\n      0x04\n      dup3\n      add\n        /* \"#utility.yul\":8939:8960   */\n      mstore\n        /* \"#utility.yul\":8996:8998   */\n      0x2f\n        /* \"#utility.yul\":8976:8994   */\n      0x24\n      dup3\n      add\n        /* \"#utility.yul\":8969:8999   */\n      mstore\n        /* \"#utility.yul\":9035:9069   */\n      0x416363657373436f6e74726f6c3a2063616e206f6e6c792072656e6f756e6365\n        /* \"#utility.yul\":9015:9033   */\n      0x44\n      dup3\n      add\n        /* \"#utility.yul\":9008:9070   */\n      mstore\n      shl(0x89, 0x103937b632b9903337b91039b2b633)\n        /* \"#utility.yul\":9086:9104   */\n      0x64\n      dup3\n      add\n        /* \"#utility.yul\":9079:9124   */\n      mstore\n        /* \"#utility.yul\":9141:9160   */\n      0x84\n      add\n        /* \"@openzeppelin/contracts-upgradeable/access/AccessControlUpgradeable.sol\":6476:6559  require(account == _msgSender(), \"AccessControl: can only renounce roles for self\") */\n    tag_133:\n      mload(0x40)\n      dup1\n      swap2\n      sub\n      swap1\n      revert\n    tag_132:\n        /* \"@openzeppelin/contracts-upgradeable/access/AccessControlUpgradeable.sol\":6570:6596  _revokeRole(role, account) */\n      tag_135\n        /* \"@openzeppelin/contracts-upgradeable/access/AccessControlUpgradeable.sol\":6582:6586  role */\n      dup3\n        /* \"@openzeppelin/contracts-upgradeable/access/AccessControlUpgradeable.sol\":6588:6595  account */\n      dup3\n        /* \"@openzeppelin/contracts-upgradeable/access/AccessControlUpgradeable.sol\":6570:6581  _revokeRole */\n      tag_136\n        /* \"@openzeppelin/contracts-upgradeable/access/AccessControlUpgradeable.sol\":6570:6596  _revokeRole(role, account) */\n      jump\t// in\n    tag_135:\n        /* \"@openzeppelin/contracts-upgradeable/access/AccessControlUpgradeable.sol\":6389:6603  function renounceRole(bytes32 role, address account) public virtual override {... */\n      pop\n      pop\n      jump\t// out\n        /* \"Contract.sol\":3018:4305  function swapExactTokensForTokensSupportingFeeOnTransferTokens(... */\n    tag_50:\n        /* \"Contract.sol\":3259:3274  block.timestamp */\n      timestamp\n        /* \"Contract.sol\":3247:3255  deadline */\n      dup2\n        /* \"Contract.sol\":3247:3274  deadline >= block.timestamp */\n      lt\n      iszero\n        /* \"Contract.sol\":3239:3303  require(deadline >= block.timestamp, \"UniswapV2Router: EXPIRED\") */\n      tag_138\n      jumpi\n      mload(0x40)\n      shl(0xe5, 0x461bcd)\n      dup2\n      mstore\n        /* \"#utility.yul\":9373:9375   */\n      0x20\n        /* \"Contract.sol\":3239:3303  require(deadline >= block.timestamp, \"UniswapV2Router: EXPIRED\") */\n      0x04\n      dup3\n      add\n        /* \"#utility.yul\":9355:9376   */\n      mstore\n        /* \"#utility.yul\":9412:9414   */\n      0x18\n        /* \"#utility.yul\":9392:9410   */\n      0x24\n      dup3\n      add\n        /* \"#utility.yul\":9385:9415   */\n      mstore\n      shl(0x42, 0x155b9a5cddd85c158c949bdd5d195c8e8811561412549151)\n        /* \"#utility.yul\":9431:9449   */\n      0x44\n      dup3\n      add\n        /* \"#utility.yul\":9424:9478   */\n      mstore\n        /* \"#utility.yul\":9495:9513   */\n      0x64\n      add\n        /* \"Contract.sol\":3239:3303  require(deadline >= block.timestamp, \"UniswapV2Router: EXPIRED\") */\n      tag_133\n        /* \"#utility.yul\":9171:9519   */\n      jump\n        /* \"Contract.sol\":3239:3303  require(deadline >= block.timestamp, \"UniswapV2Router: EXPIRED\") */\n    tag_138:\n        /* \"Contract.sol\":3314:3328  uint amountOut */\n      0x00\n        /* \"Contract.sol\":3331:3360  getAmountsOut(amountIn, path) */\n      tag_141\n        /* \"Contract.sol\":3345:3353  amountIn */\n      dup8\n        /* \"Contract.sol\":3355:3359  path */\n      dup7\n      dup7\n        /* \"Contract.sol\":3331:3360  getAmountsOut(amountIn, path) */\n      dup1\n      dup1\n      0x20\n      mul\n      0x20\n      add\n      mload(0x40)\n      swap1\n      dup2\n      add\n      0x40\n      mstore\n      dup1\n      swap4\n      swap3\n      swap2\n      swap1\n      dup2\n      dup2\n      mstore\n      0x20\n      add\n      dup4\n      dup4\n      0x20\n      mul\n      dup1\n      dup3\n      dup5\n      calldatacopy\n      0x00\n      swap3\n      add\n      swap2\n      swap1\n      swap2\n      mstore\n      pop\n        /* \"Contract.sol\":3331:3344  getAmountsOut */\n      tag_94\n      swap3\n      pop\n      pop\n      pop\n        /* \"Contract.sol\":3331:3360  getAmountsOut(amountIn, path) */\n      jump\t// in\n    tag_141:\n        /* \"Contract.sol\":3361:3362  1 */\n      0x01\n        /* \"Contract.sol\":3331:3363  getAmountsOut(amountIn, path)[1] */\n      dup2\n      mload\n      dup2\n      lt\n      tag_143\n      jumpi\n      tag_143\n      tag_144\n      jump\t// in\n    tag_143:\n      0x20\n      mul\n      0x20\n      add\n      add\n      mload\n        /* \"Contract.sol\":3314:3363  uint amountOut = getAmountsOut(amountIn, path)[1] */\n      swap1\n      pop\n        /* \"Contract.sol\":3406:3407  0 */\n      0x00\n        /* \"Contract.sol\":3394:3403  amountOut */\n      dup2\n        /* \"Contract.sol\":3394:3407  amountOut > 0 */\n      gt\n        /* \"Contract.sol\":3394:3436  amountOut > 0 && amountOut >= amountOutMin */\n      dup1\n      iszero\n      tag_145\n      jumpi\n      pop\n        /* \"Contract.sol\":3424:3436  amountOutMin */\n      dup6\n        /* \"Contract.sol\":3411:3420  amountOut */\n      dup2\n        /* \"Contract.sol\":3411:3436  amountOut >= amountOutMin */\n      lt\n      iszero\n        /* \"Contract.sol\":3394:3436  amountOut > 0 && amountOut >= amountOutMin */\n    tag_145:\n        /* \"Contract.sol\":3373:3505  require(... */\n      tag_146\n      jumpi\n      mload(0x40)\n      shl(0xe5, 0x461bcd)\n      dup2\n      mstore\n      0x04\n      add\n      tag_133\n      swap1\n      tag_148\n      jump\t// in\n    tag_146:\n        /* \"Contract.sol\":3516:3534  address managerOut */\n      0x00\n        /* \"Contract.sol\":3537:3549  tokenDetails */\n      0x97\n        /* \"Contract.sol\":3537:3558  tokenDetails[path[1]] */\n      0x00\n        /* \"Contract.sol\":3550:3554  path */\n      dup8\n      dup8\n        /* \"Contract.sol\":3555:3556  1 */\n      0x01\n        /* \"Contract.sol\":3550:3557  path[1] */\n      dup2\n      dup2\n      lt\n      tag_150\n      jumpi\n      tag_150\n      tag_144\n      jump\t// in\n    tag_150:\n      swap1\n      pop\n      0x20\n      mul\n      add\n      0x20\n      dup2\n      add\n      swap1\n      tag_151\n      swap2\n      swap1\n      tag_54\n      jump\t// in\n    tag_151:\n      sub(shl(0xa0, 0x01), 0x01)\n        /* \"Contract.sol\":3537:3558  tokenDetails[path[1]] */\n      swap1\n      dup2\n      and\n      dup3\n      mstore\n      0x20\n      dup3\n      add\n      swap3\n      swap1\n      swap3\n      mstore\n      0x40\n      add\n      0x00\n      swap1\n      dup2\n      keccak256\n        /* \"Contract.sol\":3537:3571  tokenDetails[path[1]].tokenManager */\n      0x01\n      add\n      sload\n      swap1\n      swap2\n      and\n      swap2\n      pop\n        /* \"Contract.sol\":3615:3619  path */\n      dup7\n      dup7\n      dup3\n        /* \"Contract.sol\":3615:3622  path[0] */\n      dup2\n      tag_153\n      jumpi\n      tag_153\n      tag_144\n      jump\t// in\n    tag_153:\n      swap1\n      pop\n      0x20\n      mul\n      add\n      0x20\n      dup2\n      add\n      swap1\n      tag_154\n      swap2\n      swap1\n      tag_54\n      jump\t// in\n    tag_154:\n      sub(shl(0xa0, 0x01), 0x01)\n        /* \"Contract.sol\":3609:3633  IWETH(path[0]).allowance */\n      and\n      0xdd62ed3e\n        /* \"@openzeppelin/contracts-upgradeable/utils/ContextUpgradeable.sol\":965:975  msg.sender */\n      caller\n        /* \"Contract.sol\":3609:3696  IWETH(path[0]).allowance(... */\n      mload(0x40)\n      not(sub(shl(0xe0, 0x01), 0x01))\n      0xe0\n      dup5\n      swap1\n      shl\n      and\n      dup2\n      mstore\n      sub(shl(0xa0, 0x01), 0x01)\n        /* \"#utility.yul\":10260:10292   */\n      swap1\n      swap2\n      and\n        /* \"Contract.sol\":3609:3696  IWETH(path[0]).allowance(... */\n      0x04\n      dup3\n      add\n        /* \"#utility.yul\":10242:10293   */\n      mstore\n        /* \"Contract.sol\":3681:3685  this */\n      address\n        /* \"#utility.yul\":10309:10327   */\n      0x24\n      dup3\n      add\n        /* \"#utility.yul\":10302:10362   */\n      mstore\n        /* \"#utility.yul\":10215:10233   */\n      0x44\n      add\n        /* \"Contract.sol\":3609:3696  IWETH(path[0]).allowance(... */\n      0x20\n      mload(0x40)\n      dup1\n      dup4\n      sub\n      dup2\n      dup7\n      gas\n      staticcall\n      iszero\n      dup1\n      iszero\n      tag_159\n      jumpi\n      returndatacopy(0x00, 0x00, returndatasize)\n      revert(0x00, returndatasize)\n    tag_159:\n      pop\n      pop\n      pop\n      pop\n      mload(0x40)\n      returndatasize\n      not(0x1f)\n      0x1f\n      dup3\n      add\n      and\n      dup3\n      add\n      dup1\n      0x40\n      mstore\n      pop\n      dup2\n      add\n      swap1\n      tag_160\n      swap2\n      swap1\n      tag_161\n      jump\t// in\n    tag_160:\n        /* \"Contract.sol\":3582:3696  uint256 allowanceTokenIn = IWETH(path[0]).allowance(... */\n      swap1\n      pop\n        /* \"Contract.sol\":3748:3756  amountIn */\n      dup9\n        /* \"Contract.sol\":3728:3744  allowanceTokenIn */\n      dup2\n        /* \"Contract.sol\":3728:3756  allowanceTokenIn >= amountIn */\n      lt\n      iszero\n        /* \"Contract.sol\":3707:3835  require(... */\n      tag_162\n      jumpi\n      mload(0x40)\n      shl(0xe5, 0x461bcd)\n      dup2\n      mstore\n        /* \"#utility.yul\":10764:10766   */\n      0x20\n        /* \"Contract.sol\":3707:3835  require(... */\n      0x04\n      dup3\n      add\n        /* \"#utility.yul\":10746:10767   */\n      mstore\n        /* \"#utility.yul\":10803:10805   */\n      0x35\n        /* \"#utility.yul\":10783:10801   */\n      0x24\n      dup3\n      add\n        /* \"#utility.yul\":10776:10806   */\n      mstore\n        /* \"#utility.yul\":10842:10876   */\n      0x556e69737761705632526f757465723a20494e53554646494349454e545f414d\n        /* \"#utility.yul\":10822:10840   */\n      0x44\n      dup3\n      add\n        /* \"#utility.yul\":10815:10877   */\n      mstore\n      shl(0x59, 0x27aaa72a2fa0a62627aba2a22faa27a5a2a72fa4a7)\n        /* \"#utility.yul\":10893:10911   */\n      0x64\n      dup3\n      add\n        /* \"#utility.yul\":10886:10937   */\n      mstore\n        /* \"#utility.yul\":10954:10973   */\n      0x84\n      add\n        /* \"Contract.sol\":3707:3835  require(... */\n      tag_133\n        /* \"#utility.yul\":10562:10979   */\n      jump\n        /* \"Contract.sol\":3707:3835  require(... */\n    tag_162:\n        /* \"Contract.sol\":3846:3871  uint256 allowanceTokenOut */\n      0x00\n        /* \"Contract.sol\":3880:3884  path */\n      dup8\n      dup8\n        /* \"Contract.sol\":3885:3886  1 */\n      0x01\n        /* \"Contract.sol\":3880:3887  path[1] */\n      dup2\n      dup2\n      lt\n      tag_166\n      jumpi\n      tag_166\n      tag_144\n      jump\t// in\n    tag_166:\n      swap1\n      pop\n      0x20\n      mul\n      add\n      0x20\n      dup2\n      add\n      swap1\n      tag_167\n      swap2\n      swap1\n      tag_54\n      jump\t// in\n    tag_167:\n        /* \"Contract.sol\":3874:3959  IWETH(path[1]).allowance(... */\n      mload(0x40)\n      shl(0xe1, 0x6eb1769f)\n      dup2\n      mstore\n      sub(shl(0xa0, 0x01), 0x01)\n        /* \"#utility.yul\":10260:10292   */\n      dup6\n      dup2\n      and\n        /* \"Contract.sol\":3874:3959  IWETH(path[1]).allowance(... */\n      0x04\n      dup4\n      add\n        /* \"#utility.yul\":10242:10293   */\n      mstore\n        /* \"Contract.sol\":3944:3948  this */\n      address\n        /* \"#utility.yul\":10309:10327   */\n      0x24\n      dup4\n      add\n        /* \"#utility.yul\":10302:10362   */\n      mstore\n        /* \"Contract.sol\":3874:3898  IWETH(path[1]).allowance */\n      swap2\n      swap1\n      swap2\n      and\n      swap1\n      0xdd62ed3e\n      swap1\n        /* \"#utility.yul\":10215:10233   */\n      0x44\n      add\n        /* \"Contract.sol\":3874:3959  IWETH(path[1]).allowance(... */\n      0x20\n      mload(0x40)\n      dup1\n      dup4\n      sub\n      dup2\n      dup7\n      gas\n      staticcall\n      iszero\n      dup1\n      iszero\n      tag_170\n      jumpi\n      returndatacopy(0x00, 0x00, returndatasize)\n      revert(0x00, returndatasize)\n    tag_170:\n      pop\n      pop\n      pop\n      pop\n      mload(0x40)\n      returndatasize\n      not(0x1f)\n      0x1f\n      dup3\n      add\n      and\n      dup3\n      add\n      dup1\n      0x40\n      mstore\n      pop\n      dup2\n      add\n      swap1\n      tag_171\n      swap2\n      swap1\n      tag_161\n      jump\t// in\n    tag_171:\n        /* \"Contract.sol\":3846:3959  uint256 allowanceTokenOut = IWETH(path[1]).allowance(... */\n      swap1\n      pop\n        /* \"Contract.sol\":4012:4021  amountOut */\n      dup4\n        /* \"Contract.sol\":3991:4008  allowanceTokenOut */\n      dup2\n        /* \"Contract.sol\":3991:4021  allowanceTokenOut >= amountOut */\n      lt\n      iszero\n        /* \"Contract.sol\":3970:4101  require(... */\n      tag_172\n      jumpi\n      mload(0x40)\n      shl(0xe5, 0x461bcd)\n      dup2\n      mstore\n        /* \"#utility.yul\":11186:11188   */\n      0x20\n        /* \"Contract.sol\":3970:4101  require(... */\n      0x04\n      dup3\n      add\n        /* \"#utility.yul\":11168:11189   */\n      mstore\n        /* \"#utility.yul\":11225:11227   */\n      0x36\n        /* \"#utility.yul\":11205:11223   */\n      0x24\n      dup3\n      add\n        /* \"#utility.yul\":11198:11228   */\n      mstore\n        /* \"#utility.yul\":11264:11298   */\n      0x556e69737761705632526f757465723a20494e53554646494349454e545f414d\n        /* \"#utility.yul\":11244:11262   */\n      0x44\n      dup3\n      add\n        /* \"#utility.yul\":11237:11299   */\n      mstore\n      shl(0x52, 0x13d5539517d0531313d5d15117d513d2d15397d3d555)\n        /* \"#utility.yul\":11315:11333   */\n      0x64\n      dup3\n      add\n        /* \"#utility.yul\":11308:11360   */\n      mstore\n        /* \"#utility.yul\":11377:11396   */\n      0x84\n      add\n        /* \"Contract.sol\":3970:4101  require(... */\n      tag_133\n        /* \"#utility.yul\":10984:11402   */\n      jump\n        /* \"Contract.sol\":3970:4101  require(... */\n    tag_172:\n        /* \"Contract.sol\":4118:4122  path */\n      dup8\n      dup8\n        /* \"Contract.sol\":4123:4124  0 */\n      0x00\n        /* \"Contract.sol\":4118:4125  path[0] */\n      dup2\n      dup2\n      lt\n      tag_176\n      jumpi\n      tag_176\n      tag_144\n      jump\t// in\n    tag_176:\n      swap1\n      pop\n      0x20\n      mul\n      add\n      0x20\n      dup2\n      add\n      swap1\n      tag_177\n      swap2\n      swap1\n      tag_54\n      jump\t// in\n    tag_177:\n      sub(shl(0xa0, 0x01), 0x01)\n        /* \"Contract.sol\":4112:4139  IWETH(path[0]).transferFrom */\n      and\n      0x23b872dd\n        /* \"@openzeppelin/contracts-upgradeable/utils/ContextUpgradeable.sol\":965:975  msg.sender */\n      caller\n        /* \"Contract.sol\":4112:4178  IWETH(path[0]).transferFrom(_msgSender(), address(this), amountIn) */\n      mload(0x40)\n      not(sub(shl(0xe0, 0x01), 0x01))\n      0xe0\n      dup5\n      swap1\n      shl\n      and\n      dup2\n      mstore\n      sub(shl(0xa0, 0x01), 0x01)\n        /* \"#utility.yul\":11627:11659   */\n      swap1\n      swap2\n      and\n        /* \"Contract.sol\":4112:4178  IWETH(path[0]).transferFrom(_msgSender(), address(this), amountIn) */\n      0x04\n      dup3\n      add\n        /* \"#utility.yul\":11609:11660   */\n      mstore\n        /* \"Contract.sol\":4162:4166  this */\n      address\n        /* \"#utility.yul\":11676:11694   */\n      0x24\n      dup3\n      add\n        /* \"#utility.yul\":11669:11729   */\n      mstore\n        /* \"#utility.yul\":11745:11763   */\n      0x44\n      dup2\n      add\n        /* \"#utility.yul\":11738:11772   */\n      dup14\n      swap1\n      mstore\n        /* \"#utility.yul\":11582:11600   */\n      0x64\n      add\n        /* \"Contract.sol\":4112:4178  IWETH(path[0]).transferFrom(_msgSender(), address(this), amountIn) */\n      0x20\n      mload(0x40)\n      dup1\n      dup4\n      sub\n      dup2\n      0x00\n      dup8\n      gas\n      call\n      iszero\n      dup1\n      iszero\n      tag_182\n      jumpi\n      returndatacopy(0x00, 0x00, returndatasize)\n      revert(0x00, returndatasize)\n    tag_182:\n      pop\n      pop\n      pop\n      pop\n      mload(0x40)\n      returndatasize\n      not(0x1f)\n      0x1f\n      dup3\n      add\n      and\n      dup3\n      add\n      dup1\n      0x40\n      mstore\n      pop\n      dup2\n      add\n      swap1\n      tag_183\n      swap2\n      swap1\n      tag_184\n      jump\t// in\n    tag_183:\n      pop\n        /* \"Contract.sol\":4194:4198  path */\n      dup8\n      dup8\n        /* \"Contract.sol\":4199:4200  0 */\n      0x00\n        /* \"Contract.sol\":4194:4201  path[0] */\n      dup2\n      dup2\n      lt\n      tag_186\n      jumpi\n      tag_186\n      tag_144\n      jump\t// in\n    tag_186:\n      swap1\n      pop\n      0x20\n      mul\n      add\n      0x20\n      dup2\n      add\n      swap1\n      tag_187\n      swap2\n      swap1\n      tag_54\n      jump\t// in\n    tag_187:\n        /* \"Contract.sol\":4188:4233  IWETH(path[0]).transfer(managerOut, amountIn) */\n      mload(0x40)\n      shl(0xe0, 0xa9059cbb)\n      dup2\n      mstore\n      sub(shl(0xa0, 0x01), 0x01)\n        /* \"#utility.yul\":12257:12289   */\n      dup6\n      dup2\n      and\n        /* \"Contract.sol\":4188:4233  IWETH(path[0]).transfer(managerOut, amountIn) */\n      0x04\n      dup4\n      add\n        /* \"#utility.yul\":12239:12290   */\n      mstore\n        /* \"#utility.yul\":12306:12324   */\n      0x24\n      dup3\n      add\n        /* \"#utility.yul\":12299:12333   */\n      dup14\n      swap1\n      mstore\n        /* \"Contract.sol\":4188:4211  IWETH(path[0]).transfer */\n      swap2\n      swap1\n      swap2\n      and\n      swap1\n      0xa9059cbb\n      swap1\n        /* \"#utility.yul\":12212:12230   */\n      0x44\n      add\n        /* \"Contract.sol\":4188:4233  IWETH(path[0]).transfer(managerOut, amountIn) */\n      0x20\n      mload(0x40)\n      dup1\n      dup4\n      sub\n      dup2\n      0x00\n      dup8\n      gas\n      call\n      iszero\n      dup1\n      iszero\n      tag_191\n      jumpi\n      returndatacopy(0x00, 0x00, returndatasize)\n      revert(0x00, returndatasize)\n    tag_191:\n      pop\n      pop\n      pop\n      pop\n      mload(0x40)\n      returndatasize\n      not(0x1f)\n      0x1f\n      dup3\n      add\n      and\n      dup3\n      add\n      dup1\n      0x40\n      mstore\n      pop\n      dup2\n      add\n      swap1\n      tag_192\n      swap2\n      swap1\n      tag_184\n      jump\t// in\n    tag_192:\n      pop\n        /* \"Contract.sol\":4250:4254  path */\n      dup8\n      dup8\n        /* \"Contract.sol\":4255:4256  1 */\n      0x01\n        /* \"Contract.sol\":4250:4257  path[1] */\n      dup2\n      dup2\n      lt\n      tag_194\n      jumpi\n      tag_194\n      tag_144\n      jump\t// in\n    tag_194:\n      swap1\n      pop\n      0x20\n      mul\n      add\n      0x20\n      dup2\n      add\n      swap1\n      tag_195\n      swap2\n      swap1\n      tag_54\n      jump\t// in\n    tag_195:\n        /* \"Contract.sol\":4244:4298  IWETH(path[1]).transferFrom(managerOut, to, amountOut) */\n      mload(0x40)\n      shl(0xe0, 0x23b872dd)\n      dup2\n      mstore\n      sub(shl(0xa0, 0x01), 0x01)\n        /* \"#utility.yul\":11627:11659   */\n      dup6\n      dup2\n      and\n        /* \"Contract.sol\":4244:4298  IWETH(path[1]).transferFrom(managerOut, to, amountOut) */\n      0x04\n      dup4\n      add\n        /* \"#utility.yul\":11609:11660   */\n      mstore\n        /* \"#utility.yul\":11696:11728   */\n      dup9\n      dup2\n      and\n        /* \"#utility.yul\":11676:11694   */\n      0x24\n      dup4\n      add\n        /* \"#utility.yul\":11669:11729   */\n      mstore\n        /* \"#utility.yul\":11745:11763   */\n      0x44\n      dup3\n      add\n        /* \"#utility.yul\":11738:11772   */\n      dup8\n      swap1\n      mstore\n        /* \"Contract.sol\":4244:4271  IWETH(path[1]).transferFrom */\n      swap2\n      swap1\n      swap2\n      and\n      swap1\n      0x23b872dd\n      swap1\n        /* \"#utility.yul\":11582:11600   */\n      0x64\n      add\n        /* \"Contract.sol\":4244:4298  IWETH(path[1]).transferFrom(managerOut, to, amountOut) */\n      0x20\n      mload(0x40)\n      dup1\n      dup4\n      sub\n      dup2\n      0x00\n      dup8\n      gas\n      call\n      iszero\n      dup1\n      iszero\n      tag_198\n      jumpi\n      returndatacopy(0x00, 0x00, returndatasize)\n      revert(0x00, returndatasize)\n    tag_198:\n      pop\n      pop\n      pop\n      pop\n      mload(0x40)\n      returndatasize\n      not(0x1f)\n      0x1f\n      dup3\n      add\n      and\n      dup3\n      add\n      dup1\n      0x40\n      mstore\n      pop\n      dup2\n      add\n      swap1\n      tag_199\n      swap2\n      swap1\n      tag_184\n      jump\t// in\n    tag_199:\n      pop\n        /* \"Contract.sol\":3229:4305  {... */\n      pop\n      pop\n      pop\n      pop\n        /* \"Contract.sol\":3018:4305  function swapExactTokensForTokensSupportingFeeOnTransferTokens(... */\n      pop\n      pop\n      pop\n      pop\n      pop\n      pop\n      jump\t// out\n        /* \"@openzeppelin/contracts-upgradeable/access/AccessControlUpgradeable.sol\":3350:3495  function hasRole(bytes32 role, address account) public view virtual override returns (bool) {... */\n    tag_61:\n        /* \"@openzeppelin/contracts-upgradeable/access/AccessControlUpgradeable.sol\":3436:3440  bool */\n      0x00\n        /* \"@openzeppelin/contracts-upgradeable/access/AccessControlUpgradeable.sol\":3459:3471  _roles[role] */\n      swap2\n      dup3\n      mstore\n        /* \"@openzeppelin/contracts-upgradeable/access/AccessControlUpgradeable.sol\":3459:3465  _roles */\n      0x65\n        /* \"@openzeppelin/contracts-upgradeable/access/AccessControlUpgradeable.sol\":3459:3471  _roles[role] */\n      0x20\n      swap1\n      dup2\n      mstore\n      0x40\n      dup1\n      dup5\n      keccak256\n      sub(shl(0xa0, 0x01), 0x01)\n        /* \"@openzeppelin/contracts-upgradeable/access/AccessControlUpgradeable.sol\":3459:3488  _roles[role].members[account] */\n      swap4\n      swap1\n      swap4\n      and\n      dup5\n      mstore\n      swap2\n      swap1\n      mstore\n      swap1\n      keccak256\n      sload\n      0xff\n      and\n      swap1\n        /* \"@openzeppelin/contracts-upgradeable/access/AccessControlUpgradeable.sol\":3350:3495  function hasRole(bytes32 role, address account) public view virtual override returns (bool) {... */\n      jump\t// out\n        /* \"Contract.sol\":2020:3012  function swapExactETHForTokensSupportingFeeOnTransferTokens(... */\n    tag_79:\n        /* \"Contract.sol\":2233:2237  WETH */\n      immutable(\"0x272fee19618bddbc00febd3897af287776f225c94084e4d859902021d48f698c\")\n      sub(shl(0xa0, 0x01), 0x01)\n        /* \"Contract.sol\":2222:2237  path[0] == WETH */\n      and\n        /* \"Contract.sol\":2222:2226  path */\n      dup5\n      dup5\n        /* \"Contract.sol\":2227:2228  0 */\n      0x00\n        /* \"Contract.sol\":2222:2229  path[0] */\n      dup2\n      dup2\n      lt\n      tag_207\n      jumpi\n      tag_207\n      tag_144\n      jump\t// in\n    tag_207:\n      swap1\n      pop\n      0x20\n      mul\n      add\n      0x20\n      dup2\n      add\n      swap1\n      tag_208\n      swap2\n      swap1\n      tag_54\n      jump\t// in\n    tag_208:\n      sub(shl(0xa0, 0x01), 0x01)\n        /* \"Contract.sol\":2222:2237  path[0] == WETH */\n      and\n      eq\n        /* \"Contract.sol\":2214:2271  require(path[0] == WETH, \"UniswapV2Router: INVALID_PATH\") */\n      tag_209\n      jumpi\n      mload(0x40)\n      shl(0xe5, 0x461bcd)\n      dup2\n      mstore\n        /* \"#utility.yul\":12546:12548   */\n      0x20\n        /* \"Contract.sol\":2214:2271  require(path[0] == WETH, \"UniswapV2Router: INVALID_PATH\") */\n      0x04\n      dup3\n      add\n        /* \"#utility.yul\":12528:12549   */\n      mstore\n        /* \"#utility.yul\":12585:12587   */\n      0x1d\n        /* \"#utility.yul\":12565:12583   */\n      0x24\n      dup3\n      add\n        /* \"#utility.yul\":12558:12588   */\n      mstore\n        /* \"#utility.yul\":12624:12655   */\n      0x556e69737761705632526f757465723a20494e56414c49445f50415448000000\n        /* \"#utility.yul\":12604:12622   */\n      0x44\n      dup3\n      add\n        /* \"#utility.yul\":12597:12656   */\n      mstore\n        /* \"#utility.yul\":12673:12691   */\n      0x64\n      add\n        /* \"Contract.sol\":2214:2271  require(path[0] == WETH, \"UniswapV2Router: INVALID_PATH\") */\n      tag_133\n        /* \"#utility.yul\":12344:12697   */\n      jump\n        /* \"Contract.sol\":2214:2271  require(path[0] == WETH, \"UniswapV2Router: INVALID_PATH\") */\n    tag_209:\n        /* \"Contract.sol\":2301:2316  block.timestamp */\n      timestamp\n        /* \"Contract.sol\":2289:2297  deadline */\n      dup2\n        /* \"Contract.sol\":2289:2316  deadline >= block.timestamp */\n      lt\n      iszero\n        /* \"Contract.sol\":2281:2345  require(deadline >= block.timestamp, \"UniswapV2Router: EXPIRED\") */\n      tag_212\n      jumpi\n      mload(0x40)\n      shl(0xe5, 0x461bcd)\n      dup2\n      mstore\n        /* \"#utility.yul\":9373:9375   */\n      0x20\n        /* \"Contract.sol\":2281:2345  require(deadline >= block.timestamp, \"UniswapV2Router: EXPIRED\") */\n      0x04\n      dup3\n      add\n        /* \"#utility.yul\":9355:9376   */\n      mstore\n        /* \"#utility.yul\":9412:9414   */\n      0x18\n        /* \"#utility.yul\":9392:9410   */\n      0x24\n      dup3\n      add\n        /* \"#utility.yul\":9385:9415   */\n      mstore\n      shl(0x42, 0x155b9a5cddd85c158c949bdd5d195c8e8811561412549151)\n        /* \"#utility.yul\":9431:9449   */\n      0x44\n      dup3\n      add\n        /* \"#utility.yul\":9424:9478   */\n      mstore\n        /* \"#utility.yul\":9495:9513   */\n      0x64\n      add\n        /* \"Contract.sol\":2281:2345  require(deadline >= block.timestamp, \"UniswapV2Router: EXPIRED\") */\n      tag_133\n        /* \"#utility.yul\":9171:9519   */\n      jump\n        /* \"Contract.sol\":2281:2345  require(deadline >= block.timestamp, \"UniswapV2Router: EXPIRED\") */\n    tag_212:\n        /* \"Contract.sol\":2356:2369  uint amountIn */\n      0x00\n        /* \"Contract.sol\":2372:2381  msg.value */\n      callvalue\n        /* \"Contract.sol\":2356:2381  uint amountIn = msg.value */\n      swap1\n      pop\n        /* \"Contract.sol\":2391:2405  uint amountOut */\n      0x00\n        /* \"Contract.sol\":2408:2437  getAmountsOut(amountIn, path) */\n      tag_214\n        /* \"Contract.sol\":2422:2430  amountIn */\n      dup3\n        /* \"Contract.sol\":2432:2436  path */\n      dup8\n      dup8\n        /* \"Contract.sol\":2408:2437  getAmountsOut(amountIn, path) */\n      dup1\n      dup1\n      0x20\n      mul\n      0x20\n      add\n      mload(0x40)\n      swap1\n      dup2\n      add\n      0x40\n      mstore\n      dup1\n      swap4\n      swap3\n      swap2\n      swap1\n      dup2\n      dup2\n      mstore\n      0x20\n      add\n      dup4\n      dup4\n      0x20\n      mul\n      dup1\n      dup3\n      dup5\n      calldatacopy\n      0x00\n      swap3\n      add\n      swap2\n      swap1\n      swap2\n      mstore\n      pop\n        /* \"Contract.sol\":2408:2421  getAmountsOut */\n      tag_94\n      swap3\n      pop\n      pop\n      pop\n        /* \"Contract.sol\":2408:2437  getAmountsOut(amountIn, path) */\n      jump\t// in\n    tag_214:\n        /* \"Contract.sol\":2438:2439  1 */\n      0x01\n        /* \"Contract.sol\":2408:2440  getAmountsOut(amountIn, path)[1] */\n      dup2\n      mload\n      dup2\n      lt\n      tag_216\n      jumpi\n      tag_216\n      tag_144\n      jump\t// in\n    tag_216:\n      0x20\n      mul\n      0x20\n      add\n      add\n      mload\n        /* \"Contract.sol\":2391:2440  uint amountOut = getAmountsOut(amountIn, path)[1] */\n      swap1\n      pop\n        /* \"Contract.sol\":2483:2484  0 */\n      0x00\n        /* \"Contract.sol\":2471:2480  amountOut */\n      dup2\n        /* \"Contract.sol\":2471:2484  amountOut > 0 */\n      gt\n        /* \"Contract.sol\":2471:2513  amountOut > 0 && amountOut >= amountOutMin */\n      dup1\n      iszero\n      tag_217\n      jumpi\n      pop\n        /* \"Contract.sol\":2501:2513  amountOutMin */\n      dup7\n        /* \"Contract.sol\":2488:2497  amountOut */\n      dup2\n        /* \"Contract.sol\":2488:2513  amountOut >= amountOutMin */\n      lt\n      iszero\n        /* \"Contract.sol\":2471:2513  amountOut > 0 && amountOut >= amountOutMin */\n    tag_217:\n        /* \"Contract.sol\":2450:2582  require(... */\n      tag_218\n      jumpi\n      mload(0x40)\n      shl(0xe5, 0x461bcd)\n      dup2\n      mstore\n      0x04\n      add\n      tag_133\n      swap1\n      tag_148\n      jump\t// in\n    tag_218:\n        /* \"Contract.sol\":2593:2608  address manager */\n      0x00\n        /* \"Contract.sol\":2611:2623  tokenDetails */\n      0x97\n        /* \"Contract.sol\":2611:2632  tokenDetails[path[1]] */\n      0x00\n        /* \"Contract.sol\":2624:2628  path */\n      dup9\n      dup9\n        /* \"Contract.sol\":2629:2630  1 */\n      0x01\n        /* \"Contract.sol\":2624:2631  path[1] */\n      dup2\n      dup2\n      lt\n      tag_221\n      jumpi\n      tag_221\n      tag_144\n      jump\t// in\n    tag_221:\n      swap1\n      pop\n      0x20\n      mul\n      add\n      0x20\n      dup2\n      add\n      swap1\n      tag_222\n      swap2\n      swap1\n      tag_54\n      jump\t// in\n    tag_222:\n      sub(shl(0xa0, 0x01), 0x01)\n        /* \"Contract.sol\":2611:2632  tokenDetails[path[1]] */\n      and\n      sub(shl(0xa0, 0x01), 0x01)\n      and\n      dup2\n      mstore\n      0x20\n      add\n      swap1\n      dup2\n      mstore\n      0x20\n      add\n      0x00\n      keccak256\n        /* \"Contract.sol\":2611:2645  tokenDetails[path[1]].tokenManager */\n      0x01\n      add\n      0x00\n      swap1\n      sload\n      swap1\n      0x0100\n      exp\n      swap1\n      div\n      sub(shl(0xa0, 0x01), 0x01)\n      and\n        /* \"Contract.sol\":2593:2645  address manager = tokenDetails[path[1]].tokenManager */\n      swap1\n      pop\n        /* \"Contract.sol\":2655:2672  uint256 allowance */\n      0x00\n        /* \"Contract.sol\":2681:2685  path */\n      dup8\n      dup8\n        /* \"Contract.sol\":2686:2687  1 */\n      0x01\n        /* \"Contract.sol\":2681:2688  path[1] */\n      dup2\n      dup2\n      lt\n      tag_224\n      jumpi\n      tag_224\n      tag_144\n      jump\t// in\n    tag_224:\n      swap1\n      pop\n      0x20\n      mul\n      add\n      0x20\n      dup2\n      add\n      swap1\n      tag_225\n      swap2\n      swap1\n      tag_54\n      jump\t// in\n    tag_225:\n        /* \"Contract.sol\":2675:2723  IWETH(path[1]).allowance(manager, address(this)) */\n      mload(0x40)\n      shl(0xe1, 0x6eb1769f)\n      dup2\n      mstore\n      sub(shl(0xa0, 0x01), 0x01)\n        /* \"#utility.yul\":10260:10292   */\n      dup5\n      dup2\n      and\n        /* \"Contract.sol\":2675:2723  IWETH(path[1]).allowance(manager, address(this)) */\n      0x04\n      dup4\n      add\n        /* \"#utility.yul\":10242:10293   */\n      mstore\n        /* \"Contract.sol\":2717:2721  this */\n      address\n        /* \"#utility.yul\":10309:10327   */\n      0x24\n      dup4\n      add\n        /* \"#utility.yul\":10302:10362   */\n      mstore\n        /* \"Contract.sol\":2675:2699  IWETH(path[1]).allowance */\n      swap2\n      swap1\n      swap2\n      and\n      swap1\n      0xdd62ed3e\n      swap1\n        /* \"#utility.yul\":10215:10233   */\n      0x44\n      add\n        /* \"Contract.sol\":2675:2723  IWETH(path[1]).allowance(manager, address(this)) */\n      0x20\n      mload(0x40)\n      dup1\n      dup4\n      sub\n      dup2\n      dup7\n      gas\n      staticcall\n      iszero\n      dup1\n      iszero\n      tag_228\n      jumpi\n      returndatacopy(0x00, 0x00, returndatasize)\n      revert(0x00, returndatasize)\n    tag_228:\n      pop\n      pop\n      pop\n      pop\n      mload(0x40)\n      returndatasize\n      not(0x1f)\n      0x1f\n      dup3\n      add\n      and\n      dup3\n      add\n      dup1\n      0x40\n      mstore\n      pop\n      dup2\n      add\n      swap1\n      tag_229\n      swap2\n      swap1\n      tag_161\n      jump\t// in\n    tag_229:\n        /* \"Contract.sol\":2655:2723  uint256 allowance = IWETH(path[1]).allowance(manager, address(this)) */\n      swap1\n      pop\n        /* \"Contract.sol\":2767:2776  amountOut */\n      dup3\n        /* \"Contract.sol\":2754:2763  allowance */\n      dup2\n        /* \"Contract.sol\":2754:2776  allowance >= amountOut */\n      lt\n      iszero\n        /* \"Contract.sol\":2733:2846  require(... */\n      tag_230\n      jumpi\n      mload(0x40)\n      shl(0xe5, 0x461bcd)\n      dup2\n      mstore\n        /* \"#utility.yul\":12904:12906   */\n      0x20\n        /* \"Contract.sol\":2733:2846  require(... */\n      0x04\n      dup3\n      add\n        /* \"#utility.yul\":12886:12907   */\n      mstore\n        /* \"#utility.yul\":12943:12945   */\n      0x2c\n        /* \"#utility.yul\":12923:12941   */\n      0x24\n      dup3\n      add\n        /* \"#utility.yul\":12916:12946   */\n      mstore\n        /* \"#utility.yul\":12982:13016   */\n      0x556e69737761705632526f757465723a20494e53554646494349454e545f414d\n        /* \"#utility.yul\":12962:12980   */\n      0x44\n      dup3\n      add\n        /* \"#utility.yul\":12955:13017   */\n      mstore\n      shl(0xa2, 0x13d5539517d0531313d5d151)\n        /* \"#utility.yul\":13033:13051   */\n      0x64\n      dup3\n      add\n        /* \"#utility.yul\":13026:13068   */\n      mstore\n        /* \"#utility.yul\":13085:13104   */\n      0x84\n      add\n        /* \"Contract.sol\":2733:2846  require(... */\n      tag_133\n        /* \"#utility.yul\":12702:13110   */\n      jump\n        /* \"Contract.sol\":2733:2846  require(... */\n    tag_230:\n        /* \"Contract.sol\":2863:2867  WETH */\n      immutable(\"0x272fee19618bddbc00febd3897af287776f225c94084e4d859902021d48f698c\")\n      sub(shl(0xa0, 0x01), 0x01)\n        /* \"Contract.sol\":2857:2876  IWETH(WETH).deposit */\n      and\n      0xd0e30db0\n        /* \"Contract.sol\":2884:2892  amountIn */\n      dup6\n        /* \"Contract.sol\":2857:2895  IWETH(WETH).deposit{value: amountIn}() */\n      mload(0x40)\n      dup3\n      0xffffffff\n      and\n      0xe0\n      shl\n      dup2\n      mstore\n      0x04\n      add\n      0x00\n      mload(0x40)\n      dup1\n      dup4\n      sub\n      dup2\n      dup6\n      dup9\n      dup1\n      extcodesize\n      iszero\n      dup1\n      iszero\n      tag_233\n      jumpi\n      revert(0x00, 0x00)\n    tag_233:\n      pop\n      gas\n      call\n      iszero\n      dup1\n      iszero\n      tag_235\n      jumpi\n      returndatacopy(0x00, 0x00, returndatasize)\n      revert(0x00, returndatasize)\n    tag_235:\n      pop\n      pop\n      pop\n      pop\n      pop\n        /* \"Contract.sol\":2911:2915  WETH */\n      immutable(\"0x272fee19618bddbc00febd3897af287776f225c94084e4d859902021d48f698c\")\n      sub(shl(0xa0, 0x01), 0x01)\n        /* \"Contract.sol\":2905:2925  IWETH(WETH).transfer */\n      and\n      0xa9059cbb\n        /* \"Contract.sol\":2926:2930  path */\n      dup10\n      dup10\n        /* \"Contract.sol\":2931:2932  1 */\n      0x01\n        /* \"Contract.sol\":2926:2933  path[1] */\n      dup2\n      dup2\n      lt\n      tag_237\n      jumpi\n      tag_237\n      tag_144\n      jump\t// in\n    tag_237:\n      swap1\n      pop\n      0x20\n      mul\n      add\n      0x20\n      dup2\n      add\n      swap1\n      tag_238\n      swap2\n      swap1\n      tag_54\n      jump\t// in\n    tag_238:\n        /* \"Contract.sol\":2905:2944  IWETH(WETH).transfer(path[1], amountIn) */\n      mload(0x40)\n      not(sub(shl(0xe0, 0x01), 0x01))\n      0xe0\n      dup5\n      swap1\n      shl\n      and\n      dup2\n      mstore\n      sub(shl(0xa0, 0x01), 0x01)\n        /* \"#utility.yul\":12257:12289   */\n      swap1\n      swap2\n      and\n        /* \"Contract.sol\":2905:2944  IWETH(WETH).transfer(path[1], amountIn) */\n      0x04\n      dup3\n      add\n        /* \"#utility.yul\":12239:12290   */\n      mstore\n        /* \"#utility.yul\":12306:12324   */\n      0x24\n      dup2\n      add\n        /* \"#utility.yul\":12299:12333   */\n      dup8\n      swap1\n      mstore\n        /* \"#utility.yul\":12212:12230   */\n      0x44\n      add\n        /* \"Contract.sol\":2905:2944  IWETH(WETH).transfer(path[1], amountIn) */\n      0x20\n      mload(0x40)\n      dup1\n      dup4\n      sub\n      dup2\n      0x00\n      dup8\n      gas\n      call\n      iszero\n      dup1\n      iszero\n      tag_241\n      jumpi\n      returndatacopy(0x00, 0x00, returndatasize)\n      revert(0x00, returndatasize)\n    tag_241:\n      pop\n      pop\n      pop\n      pop\n      mload(0x40)\n      returndatasize\n      not(0x1f)\n      0x1f\n      dup3\n      add\n      and\n      dup3\n      add\n      dup1\n      0x40\n      mstore\n      pop\n      dup2\n      add\n      swap1\n      tag_242\n      swap2\n      swap1\n      tag_184\n      jump\t// in\n    tag_242:\n      pop\n        /* \"Contract.sol\":2960:2964  path */\n      dup8\n      dup8\n        /* \"Contract.sol\":2965:2966  1 */\n      0x01\n        /* \"Contract.sol\":2960:2967  path[1] */\n      dup2\n      dup2\n      lt\n      tag_244\n      jumpi\n      tag_244\n      tag_144\n      jump\t// in\n    tag_244:\n      swap1\n      pop\n      0x20\n      mul\n      add\n      0x20\n      dup2\n      add\n      swap1\n      tag_245\n      swap2\n      swap1\n      tag_54\n      jump\t// in\n    tag_245:\n        /* \"Contract.sol\":2954:3005  IWETH(path[1]).transferFrom(manager, to, amountOut) */\n      mload(0x40)\n      shl(0xe0, 0x23b872dd)\n      dup2\n      mstore\n      sub(shl(0xa0, 0x01), 0x01)\n        /* \"#utility.yul\":11627:11659   */\n      dup5\n      dup2\n      and\n        /* \"Contract.sol\":2954:3005  IWETH(path[1]).transferFrom(manager, to, amountOut) */\n      0x04\n      dup4\n      add\n        /* \"#utility.yul\":11609:11660   */\n      mstore\n        /* \"#utility.yul\":11696:11728   */\n      dup9\n      dup2\n      and\n        /* \"#utility.yul\":11676:11694   */\n      0x24\n      dup4\n      add\n        /* \"#utility.yul\":11669:11729   */\n      mstore\n        /* \"#utility.yul\":11745:11763   */\n      0x44\n      dup3\n      add\n        /* \"#utility.yul\":11738:11772   */\n      dup7\n      swap1\n      mstore\n        /* \"Contract.sol\":2954:2981  IWETH(path[1]).transferFrom */\n      swap2\n      swap1\n      swap2\n      and\n      swap1\n      0x23b872dd\n      swap1\n        /* \"#utility.yul\":11582:11600   */\n      0x64\n      add\n        /* \"Contract.sol\":2954:3005  IWETH(path[1]).transferFrom(manager, to, amountOut) */\n      0x20\n      mload(0x40)\n      dup1\n      dup4\n      sub\n      dup2\n      0x00\n      dup8\n      gas\n      call\n      iszero\n      dup1\n      iszero\n      tag_248\n      jumpi\n      returndatacopy(0x00, 0x00, returndatasize)\n      revert(0x00, returndatasize)\n    tag_248:\n      pop\n      pop\n      pop\n      pop\n      mload(0x40)\n      returndatasize\n      not(0x1f)\n      0x1f\n      dup3\n      add\n      and\n      dup3\n      add\n      dup1\n      0x40\n      mstore\n      pop\n      dup2\n      add\n      swap1\n      tag_249\n      swap2\n      swap1\n      tag_184\n      jump\t// in\n    tag_249:\n      pop\n        /* \"Contract.sol\":2204:3012  {... */\n      pop\n      pop\n      pop\n      pop\n        /* \"Contract.sol\":2020:3012  function swapExactETHForTokensSupportingFeeOnTransferTokens(... */\n      pop\n      pop\n      pop\n      pop\n      pop\n      jump\t// out\n        /* \"Contract.sol\":4311:5478  function getAmountsOut(uint amountIn, address[] memory path)... */\n    tag_94:\n        /* \"Contract.sol\":4417:4438  uint[] memory amounts */\n      0x60\n        /* \"Contract.sol\":4486:4487  0 */\n      0x00\n        /* \"Contract.sol\":4475:4483  amountIn */\n      dup4\n        /* \"Contract.sol\":4475:4487  amountIn > 0 */\n      gt\n        /* \"Contract.sol\":4454:4566  require(... */\n      tag_252\n      jumpi\n      mload(0x40)\n      shl(0xe5, 0x461bcd)\n      dup2\n      mstore\n        /* \"#utility.yul\":13317:13319   */\n      0x20\n        /* \"Contract.sol\":4454:4566  require(... */\n      0x04\n      dup3\n      add\n        /* \"#utility.yul\":13299:13320   */\n      mstore\n        /* \"#utility.yul\":13356:13358   */\n      0x35\n        /* \"#utility.yul\":13336:13354   */\n      0x24\n      dup3\n      add\n        /* \"#utility.yul\":13329:13359   */\n      mstore\n        /* \"#utility.yul\":13395:13429   */\n      0x556e69737761705632526f757465723a20616d6f756e74496e2073686f756c64\n        /* \"#utility.yul\":13375:13393   */\n      0x44\n      dup3\n      add\n        /* \"#utility.yul\":13368:13430   */\n      mstore\n      shl(0x58, 0x2062652067726561746572207468616e207a65726f)\n        /* \"#utility.yul\":13446:13464   */\n      0x64\n      dup3\n      add\n        /* \"#utility.yul\":13439:13490   */\n      mstore\n        /* \"#utility.yul\":13507:13526   */\n      0x84\n      add\n        /* \"Contract.sol\":4454:4566  require(... */\n      tag_133\n        /* \"#utility.yul\":13115:13532   */\n      jump\n        /* \"Contract.sol\":4454:4566  require(... */\n    tag_252:\n        /* \"Contract.sol\":4612:4613  2 */\n      0x02\n        /* \"Contract.sol\":4597:4601  path */\n      dup3\n        /* \"Contract.sol\":4597:4608  path.length */\n      mload\n        /* \"Contract.sol\":4597:4613  path.length >= 2 */\n      lt\n      iszero\n        /* \"Contract.sol\":4576:4689  require(... */\n      tag_255\n      jumpi\n      mload(0x40)\n      shl(0xe5, 0x461bcd)\n      dup2\n      mstore\n        /* \"#utility.yul\":13739:13741   */\n      0x20\n        /* \"Contract.sol\":4576:4689  require(... */\n      0x04\n      dup3\n      add\n        /* \"#utility.yul\":13721:13742   */\n      mstore\n        /* \"#utility.yul\":13778:13780   */\n      0x32\n        /* \"#utility.yul\":13758:13776   */\n      0x24\n      dup3\n      add\n        /* \"#utility.yul\":13751:13781   */\n      mstore\n        /* \"#utility.yul\":13817:13851   */\n      0x556e69737761705632526f757465723a207061746820636f6e7461696e732061\n        /* \"#utility.yul\":13797:13815   */\n      0x44\n      dup3\n      add\n        /* \"#utility.yul\":13790:13852   */\n      mstore\n      shl(0x70, 0x74206c65617374203220656c656d656e7473)\n        /* \"#utility.yul\":13868:13886   */\n      0x64\n      dup3\n      add\n        /* \"#utility.yul\":13861:13909   */\n      mstore\n        /* \"#utility.yul\":13926:13945   */\n      0x84\n      add\n        /* \"Contract.sol\":4576:4689  require(... */\n      tag_133\n        /* \"#utility.yul\":13537:13951   */\n      jump\n        /* \"Contract.sol\":4576:4689  require(... */\n    tag_255:\n        /* \"Contract.sol\":4721:4725  path */\n      dup2\n        /* \"Contract.sol\":4721:4732  path.length */\n      mload\n        /* \"Contract.sol\":4710:4733  new uint[](path.length) */\n      0xffffffffffffffff\n      dup2\n      gt\n      iszero\n      tag_259\n      jumpi\n      tag_259\n      tag_260\n      jump\t// in\n    tag_259:\n      mload(0x40)\n      swap1\n      dup1\n      dup3\n      mstore\n      dup1\n      0x20\n      mul\n      0x20\n      add\n      dup3\n      add\n      0x40\n      mstore\n      dup1\n      iszero\n      tag_261\n      jumpi\n      dup2\n      0x20\n      add\n      0x20\n      dup3\n      mul\n      dup1\n      calldatasize\n      dup4\n      calldatacopy\n      add\n      swap1\n      pop\n    tag_261:\n      pop\n        /* \"Contract.sol\":4700:4733  amounts = new uint[](path.length) */\n      swap1\n      pop\n        /* \"Contract.sol\":4756:4764  amountIn */\n      dup3\n        /* \"Contract.sol\":4743:4750  amounts */\n      dup2\n        /* \"Contract.sol\":4751:4752  0 */\n      0x00\n        /* \"Contract.sol\":4743:4753  amounts[0] */\n      dup2\n      mload\n      dup2\n      lt\n      tag_263\n      jumpi\n      tag_263\n      tag_144\n      jump\t// in\n    tag_263:\n      0x20\n      mul\n      0x20\n      add\n      add\n        /* \"Contract.sol\":4743:4764  amounts[0] = amountIn */\n      dup2\n      dup2\n      mstore\n      pop\n      pop\n        /* \"Contract.sol\":4780:4786  uint i */\n      0x00\n        /* \"Contract.sol\":4775:5447  for (uint i; i < path.length - 1; i++) {... */\n    tag_264:\n        /* \"Contract.sol\":4806:4807  1 */\n      0x01\n        /* \"Contract.sol\":4792:4796  path */\n      dup4\n        /* \"Contract.sol\":4792:4803  path.length */\n      mload\n        /* \"Contract.sol\":4792:4807  path.length - 1 */\n      tag_267\n      swap2\n      swap1\n      tag_268\n      jump\t// in\n    tag_267:\n        /* \"Contract.sol\":4788:4789  i */\n      dup2\n        /* \"Contract.sol\":4788:4807  i < path.length - 1 */\n      lt\n        /* \"Contract.sol\":4775:5447  for (uint i; i < path.length - 1; i++) {... */\n      iszero\n      tag_265\n      jumpi\n        /* \"Contract.sol\":4832:4844  tokenDetails */\n      0x97\n        /* \"Contract.sol\":4832:4857  tokenDetails[path[i + 1]] */\n      0x00\n        /* \"Contract.sol\":4845:4849  path */\n      dup5\n        /* \"Contract.sol\":4850:4855  i + 1 */\n      tag_269\n        /* \"Contract.sol\":4850:4851  i */\n      dup5\n        /* \"Contract.sol\":4854:4855  1 */\n      0x01\n        /* \"Contract.sol\":4850:4855  i + 1 */\n      tag_270\n      jump\t// in\n    tag_269:\n        /* \"Contract.sol\":4845:4856  path[i + 1] */\n      dup2\n      mload\n      dup2\n      lt\n      tag_272\n      jumpi\n      tag_272\n      tag_144\n      jump\t// in\n    tag_272:\n      0x20\n      mul\n      0x20\n      add\n      add\n      mload\n      sub(shl(0xa0, 0x01), 0x01)\n        /* \"Contract.sol\":4832:4857  tokenDetails[path[i + 1]] */\n      and\n      sub(shl(0xa0, 0x01), 0x01)\n      and\n      dup2\n      mstore\n      0x20\n      add\n      swap1\n      dup2\n      mstore\n      0x20\n      add\n      0x00\n      keccak256\n        /* \"Contract.sol\":4832:4863  tokenDetails[path[i + 1]].price */\n      0x00\n      add\n      sload\n        /* \"Contract.sol\":4867:4868  0 */\n      0x00\n        /* \"Contract.sol\":4832:4868  tokenDetails[path[i + 1]].price != 0 */\n      eq\n        /* \"Contract.sol\":4828:5437  if (tokenDetails[path[i + 1]].price != 0) {... */\n      tag_273\n      jumpi\n        /* \"Contract.sol\":4903:4907  WETH */\n      immutable(\"0x272fee19618bddbc00febd3897af287776f225c94084e4d859902021d48f698c\")\n      sub(shl(0xa0, 0x01), 0x01)\n        /* \"Contract.sol\":4892:4907  path[0] == WETH */\n      and\n        /* \"Contract.sol\":4892:4896  path */\n      dup4\n        /* \"Contract.sol\":4897:4898  0 */\n      0x00\n        /* \"Contract.sol\":4892:4899  path[0] */\n      dup2\n      mload\n      dup2\n      lt\n      tag_275\n      jumpi\n      tag_275\n      tag_144\n      jump\t// in\n    tag_275:\n      0x20\n      mul\n      0x20\n      add\n      add\n      mload\n      sub(shl(0xa0, 0x01), 0x01)\n        /* \"Contract.sol\":4892:4907  path[0] == WETH */\n      and\n      sub\n        /* \"Contract.sol\":4888:5366  if (path[0] == WETH) {... */\n      tag_276\n      jumpi\n        /* \"Contract.sol\":5016:5028  tokenDetails */\n      0x97\n        /* \"Contract.sol\":5016:5041  tokenDetails[path[i + 1]] */\n      0x00\n        /* \"Contract.sol\":5029:5033  path */\n      dup5\n        /* \"Contract.sol\":5034:5039  i + 1 */\n      tag_277\n        /* \"Contract.sol\":5034:5035  i */\n      dup5\n        /* \"Contract.sol\":5038:5039  1 */\n      0x01\n        /* \"Contract.sol\":5034:5039  i + 1 */\n      tag_270\n      jump\t// in\n    tag_277:\n        /* \"Contract.sol\":5029:5040  path[i + 1] */\n      dup2\n      mload\n      dup2\n      lt\n      tag_279\n      jumpi\n      tag_279\n      tag_144\n      jump\t// in\n    tag_279:\n      0x20\n      mul\n      0x20\n      add\n      add\n      mload\n      sub(shl(0xa0, 0x01), 0x01)\n        /* \"Contract.sol\":5016:5041  tokenDetails[path[i + 1]] */\n      and\n      sub(shl(0xa0, 0x01), 0x01)\n      and\n      dup2\n      mstore\n      0x20\n      add\n      swap1\n      dup2\n      mstore\n      0x20\n      add\n      0x00\n      keccak256\n        /* \"Contract.sol\":5016:5047  tokenDetails[path[i + 1]].price */\n      0x00\n      add\n      sload\n        /* \"Contract.sol\":4973:4981  amountIn */\n      dup5\n        /* \"Contract.sol\":4984:4988  1e18 */\n      0x0de0b6b3a7640000\n        /* \"Contract.sol\":4973:4988  amountIn * 1e18 */\n      tag_280\n      swap2\n      swap1\n      tag_281\n      jump\t// in\n    tag_280:\n        /* \"Contract.sol\":4972:5047  (amountIn * 1e18) /... */\n      tag_282\n      swap2\n      swap1\n      tag_283\n      jump\t// in\n    tag_282:\n        /* \"Contract.sol\":4931:4938  amounts */\n      dup3\n        /* \"Contract.sol\":4939:4944  i + 1 */\n      tag_284\n        /* \"Contract.sol\":4939:4940  i */\n      dup4\n        /* \"Contract.sol\":4943:4944  1 */\n      0x01\n        /* \"Contract.sol\":4939:4944  i + 1 */\n      tag_270\n      jump\t// in\n    tag_284:\n        /* \"Contract.sol\":4931:4945  amounts[i + 1] */\n      dup2\n      mload\n      dup2\n      lt\n      tag_286\n      jumpi\n      tag_286\n      tag_144\n      jump\t// in\n    tag_286:\n      0x20\n      mul\n      0x20\n      add\n      add\n        /* \"Contract.sol\":4931:5047  amounts[i + 1] =... */\n      dup2\n      dup2\n      mstore\n      pop\n      pop\n        /* \"Contract.sol\":4828:5437  if (tokenDetails[path[i + 1]].price != 0) {... */\n      jump(tag_300)\n        /* \"Contract.sol\":4888:5366  if (path[0] == WETH) {... */\n    tag_276:\n        /* \"Contract.sol\":5094:5110  uint amountInEth */\n      0x00\n        /* \"Contract.sol\":5211:5215  1e18 */\n      0x0de0b6b3a7640000\n        /* \"Contract.sol\":5180:5192  tokenDetails */\n      0x97\n        /* \"Contract.sol\":5180:5201  tokenDetails[path[0]] */\n      0x00\n        /* \"Contract.sol\":5193:5197  path */\n      dup7\n        /* \"Contract.sol\":5198:5199  0 */\n      0x00\n        /* \"Contract.sol\":5193:5200  path[0] */\n      dup2\n      mload\n      dup2\n      lt\n      tag_289\n      jumpi\n      tag_289\n      tag_144\n      jump\t// in\n    tag_289:\n      0x20\n      mul\n      0x20\n      add\n      add\n      mload\n      sub(shl(0xa0, 0x01), 0x01)\n        /* \"Contract.sol\":5180:5201  tokenDetails[path[0]] */\n      and\n      sub(shl(0xa0, 0x01), 0x01)\n      and\n      dup2\n      mstore\n      0x20\n      add\n      swap1\n      dup2\n      mstore\n      0x20\n      add\n      0x00\n      keccak256\n        /* \"Contract.sol\":5180:5207  tokenDetails[path[0]].price */\n      0x00\n      add\n      sload\n        /* \"Contract.sol\":5114:5122  amountIn */\n      dup7\n        /* \"Contract.sol\":5149:5153  1e18 */\n      0x0de0b6b3a7640000\n        /* \"Contract.sol\":5114:5153  amountIn *... */\n      tag_290\n      swap2\n      swap1\n      tag_281\n      jump\t// in\n    tag_290:\n        /* \"Contract.sol\":5114:5207  amountIn *... */\n      tag_291\n      swap2\n      swap1\n      tag_281\n      jump\t// in\n    tag_291:\n        /* \"Contract.sol\":5113:5215  (amountIn *... */\n      tag_292\n      swap2\n      swap1\n      tag_283\n      jump\t// in\n    tag_292:\n        /* \"Contract.sol\":5094:5215  uint amountInEth = (amountIn *... */\n      swap1\n      pop\n        /* \"Contract.sol\":5316:5328  tokenDetails */\n      0x97\n        /* \"Contract.sol\":5316:5341  tokenDetails[path[i + 1]] */\n      0x00\n        /* \"Contract.sol\":5329:5333  path */\n      dup6\n        /* \"Contract.sol\":5334:5339  i + 1 */\n      tag_293\n        /* \"Contract.sol\":5334:5335  i */\n      dup6\n        /* \"Contract.sol\":5338:5339  1 */\n      0x01\n        /* \"Contract.sol\":5334:5339  i + 1 */\n      tag_270\n      jump\t// in\n    tag_293:\n        /* \"Contract.sol\":5329:5340  path[i + 1] */\n      dup2\n      mload\n      dup2\n      lt\n      tag_295\n      jumpi\n      tag_295\n      tag_144\n      jump\t// in\n    tag_295:\n      0x20\n      mul\n      0x20\n      add\n      add\n      mload\n      sub(shl(0xa0, 0x01), 0x01)\n        /* \"Contract.sol\":5316:5341  tokenDetails[path[i + 1]] */\n      and\n      sub(shl(0xa0, 0x01), 0x01)\n      and\n      dup2\n      mstore\n      0x20\n      add\n      swap1\n      dup2\n      mstore\n      0x20\n      add\n      0x00\n      keccak256\n        /* \"Contract.sol\":5316:5347  tokenDetails[path[i + 1]].price */\n      0x00\n      add\n      sload\n        /* \"Contract.sol\":5278:5289  amountInEth */\n      dup2\n        /* \"Contract.sol\":5278:5347  amountInEth /... */\n      tag_296\n      swap2\n      swap1\n      tag_283\n      jump\t// in\n    tag_296:\n        /* \"Contract.sol\":5237:5244  amounts */\n      dup4\n        /* \"Contract.sol\":5245:5250  i + 1 */\n      tag_297\n        /* \"Contract.sol\":5245:5246  i */\n      dup5\n        /* \"Contract.sol\":5249:5250  1 */\n      0x01\n        /* \"Contract.sol\":5245:5250  i + 1 */\n      tag_270\n      jump\t// in\n    tag_297:\n        /* \"Contract.sol\":5237:5251  amounts[i + 1] */\n      dup2\n      mload\n      dup2\n      lt\n      tag_299\n      jumpi\n      tag_299\n      tag_144\n      jump\t// in\n    tag_299:\n      0x20\n      mul\n      0x20\n      add\n      add\n        /* \"Contract.sol\":5237:5347  amounts[i + 1] =... */\n      dup2\n      dup2\n      mstore\n      pop\n      pop\n        /* \"Contract.sol\":5072:5366  {... */\n      pop\n        /* \"Contract.sol\":4828:5437  if (tokenDetails[path[i + 1]].price != 0) {... */\n      jump(tag_300)\n    tag_273:\n        /* \"Contract.sol\":5421:5422  0 */\n      0x00\n        /* \"Contract.sol\":5404:5411  amounts */\n      dup3\n        /* \"Contract.sol\":5412:5417  i + 1 */\n      tag_301\n        /* \"Contract.sol\":5412:5413  i */\n      dup4\n        /* \"Contract.sol\":5416:5417  1 */\n      0x01\n        /* \"Contract.sol\":5412:5417  i + 1 */\n      tag_270\n      jump\t// in\n    tag_301:\n        /* \"Contract.sol\":5404:5418  amounts[i + 1] */\n      dup2\n      mload\n      dup2\n      lt\n      tag_303\n      jumpi\n      tag_303\n      tag_144\n      jump\t// in\n    tag_303:\n      0x20\n      mul\n      0x20\n      add\n      add\n        /* \"Contract.sol\":5404:5422  amounts[i + 1] = 0 */\n      dup2\n      dup2\n      mstore\n      pop\n      pop\n        /* \"Contract.sol\":4828:5437  if (tokenDetails[path[i + 1]].price != 0) {... */\n    tag_300:\n        /* \"Contract.sol\":4809:4812  i++ */\n      0x01\n      add\n        /* \"Contract.sol\":4775:5447  for (uint i; i < path.length - 1; i++) {... */\n      jump(tag_264)\n    tag_265:\n      pop\n        /* \"Contract.sol\":4311:5478  function getAmountsOut(uint amountIn, address[] memory path)... */\n      swap3\n      swap2\n      pop\n      pop\n      jump\t// out\n        /* \"@openzeppelin/contracts-upgradeable/access/AccessControlUpgradeable.sol\":5705:5852  function revokeRole(bytes32 role, address account) public virtual override onlyRole(getRoleAdmin(role)) {... */\n    tag_100:\n        /* \"@openzeppelin/contracts-upgradeable/access/AccessControlUpgradeable.sol\":4929:4936  bytes32 */\n      0x00\n        /* \"@openzeppelin/contracts-upgradeable/access/AccessControlUpgradeable.sol\":4955:4967  _roles[role] */\n      dup3\n      dup2\n      mstore\n        /* \"@openzeppelin/contracts-upgradeable/access/AccessControlUpgradeable.sol\":4955:4961  _roles */\n      0x65\n        /* \"@openzeppelin/contracts-upgradeable/access/AccessControlUpgradeable.sol\":4955:4967  _roles[role] */\n      0x20\n      mstore\n      0x40\n      swap1\n      keccak256\n        /* \"@openzeppelin/contracts-upgradeable/access/AccessControlUpgradeable.sol\":4955:4977  _roles[role].adminRole */\n      0x01\n      add\n      sload\n        /* \"@openzeppelin/contracts-upgradeable/access/AccessControlUpgradeable.sol\":2798:2814  _checkRole(role) */\n      tag_306\n        /* \"@openzeppelin/contracts-upgradeable/access/AccessControlUpgradeable.sol\":2809:2813  role */\n      dup2\n        /* \"@openzeppelin/contracts-upgradeable/access/AccessControlUpgradeable.sol\":2798:2808  _checkRole */\n      tag_125\n        /* \"@openzeppelin/contracts-upgradeable/access/AccessControlUpgradeable.sol\":2798:2814  _checkRole(role) */\n      jump\t// in\n    tag_306:\n        /* \"@openzeppelin/contracts-upgradeable/access/AccessControlUpgradeable.sol\":5819:5845  _revokeRole(role, account) */\n      tag_127\n        /* \"@openzeppelin/contracts-upgradeable/access/AccessControlUpgradeable.sol\":5831:5835  role */\n      dup4\n        /* \"@openzeppelin/contracts-upgradeable/access/AccessControlUpgradeable.sol\":5837:5844  account */\n      dup4\n        /* \"@openzeppelin/contracts-upgradeable/access/AccessControlUpgradeable.sol\":5819:5830  _revokeRole */\n      tag_136\n        /* \"@openzeppelin/contracts-upgradeable/access/AccessControlUpgradeable.sol\":5819:5845  _revokeRole(role, account) */\n      jump\t// in\n        /* \"Contract.sol\":1473:2014  function setTokensDetails(... */\n    tag_111:\n        /* \"Contract.sol\":983:1009  keccak256(\"PRICE_MANAGER\") */\n      0xa451215b66f023bb76f9a9e7bc5c64156446b47b26061a8a32eaa319c45f695e\n        /* \"@openzeppelin/contracts-upgradeable/access/AccessControlUpgradeable.sol\":2798:2814  _checkRole(role) */\n      tag_310\n        /* \"@openzeppelin/contracts-upgradeable/access/AccessControlUpgradeable.sol\":2809:2813  role */\n      dup2\n        /* \"@openzeppelin/contracts-upgradeable/access/AccessControlUpgradeable.sol\":2798:2808  _checkRole */\n      tag_125\n        /* \"@openzeppelin/contracts-upgradeable/access/AccessControlUpgradeable.sol\":2798:2814  _checkRole(role) */\n      jump\t// in\n    tag_310:\n        /* \"Contract.sol\":1706:1708  30 */\n      0x1e\n        /* \"Contract.sol\":1681:1695  tokenAddresses */\n      dup5\n        /* \"Contract.sol\":1681:1702  tokenAddresses.length */\n      mload\n        /* \"Contract.sol\":1681:1708  tokenAddresses.length <= 30 */\n      gt\n      iszero\n        /* \"Contract.sol\":1660:1804  require(... */\n      tag_312\n      jumpi\n      mload(0x40)\n      shl(0xe5, 0x461bcd)\n      dup2\n      mstore\n        /* \"#utility.yul\":14948:14950   */\n      0x20\n        /* \"Contract.sol\":1660:1804  require(... */\n      0x04\n      dup3\n      add\n        /* \"#utility.yul\":14930:14951   */\n      mstore\n        /* \"#utility.yul\":14987:14989   */\n      0x46\n        /* \"#utility.yul\":14967:14985   */\n      0x24\n      dup3\n      add\n        /* \"#utility.yul\":14960:14990   */\n      mstore\n        /* \"#utility.yul\":15026:15060   */\n      0x556e69737761705632526f757465723a20546f6b656e73206172726179206973\n        /* \"#utility.yul\":15006:15024   */\n      0x44\n      dup3\n      add\n        /* \"#utility.yul\":14999:15061   */\n      mstore\n        /* \"#utility.yul\":15097:15131   */\n      0x20746f6f206c6f6e672c2072656475636520746865206e756d626572206f6620\n        /* \"#utility.yul\":15077:15095   */\n      0x64\n      dup3\n      add\n        /* \"#utility.yul\":15070:15132   */\n      mstore\n      shl(0xd0, 0x746f6b656e73)\n        /* \"#utility.yul\":15148:15167   */\n      0x84\n      dup3\n      add\n        /* \"#utility.yul\":15141:15178   */\n      mstore\n        /* \"#utility.yul\":15195:15214   */\n      0xa4\n      add\n        /* \"Contract.sol\":1660:1804  require(... */\n      tag_133\n        /* \"#utility.yul\":14746:15220   */\n      jump\n        /* \"Contract.sol\":1660:1804  require(... */\n    tag_312:\n        /* \"Contract.sol\":1820:1829  uint256 i */\n      0x00\n        /* \"Contract.sol\":1815:2008  for (uint256 i; i < tokenAddresses.length; i++) {... */\n    tag_315:\n        /* \"Contract.sol\":1835:1849  tokenAddresses */\n      dup5\n        /* \"Contract.sol\":1835:1856  tokenAddresses.length */\n      mload\n        /* \"Contract.sol\":1831:1832  i */\n      dup2\n        /* \"Contract.sol\":1831:1856  i < tokenAddresses.length */\n      lt\n        /* \"Contract.sol\":1815:2008  for (uint256 i; i < tokenAddresses.length; i++) {... */\n      iszero\n      tag_316\n      jumpi\n        /* \"Contract.sol\":1911:1997  TokenDetail(... */\n      mload(0x40)\n      dup1\n      0x40\n      add\n      0x40\n      mstore\n      dup1\n        /* \"Contract.sol\":1940:1946  prices */\n      dup5\n        /* \"Contract.sol\":1947:1948  i */\n      dup4\n        /* \"Contract.sol\":1940:1949  prices[i] */\n      dup2\n      mload\n      dup2\n      lt\n      tag_319\n      jumpi\n      tag_319\n      tag_144\n      jump\t// in\n    tag_319:\n      0x20\n      mul\n      0x20\n      add\n      add\n      mload\n        /* \"Contract.sol\":1911:1997  TokenDetail(... */\n      dup2\n      mstore\n      0x20\n      add\n        /* \"Contract.sol\":1967:1980  tokenManagers */\n      dup6\n        /* \"Contract.sol\":1981:1982  i */\n      dup4\n        /* \"Contract.sol\":1967:1983  tokenManagers[i] */\n      dup2\n      mload\n      dup2\n      lt\n      tag_321\n      jumpi\n      tag_321\n      tag_144\n      jump\t// in\n    tag_321:\n      0x20\n      mul\n      0x20\n      add\n      add\n      mload\n      sub(shl(0xa0, 0x01), 0x01)\n        /* \"Contract.sol\":1911:1997  TokenDetail(... */\n      and\n      dup2\n      mstore\n      pop\n        /* \"Contract.sol\":1877:1889  tokenDetails */\n      0x97\n        /* \"Contract.sol\":1877:1908  tokenDetails[tokenAddresses[i]] */\n      0x00\n        /* \"Contract.sol\":1890:1904  tokenAddresses */\n      dup8\n        /* \"Contract.sol\":1905:1906  i */\n      dup5\n        /* \"Contract.sol\":1890:1907  tokenAddresses[i] */\n      dup2\n      mload\n      dup2\n      lt\n      tag_323\n      jumpi\n      tag_323\n      tag_144\n      jump\t// in\n    tag_323:\n      0x20\n      swap1\n      dup2\n      mul\n      swap2\n      swap1\n      swap2\n      add\n      dup2\n      add\n      mload\n      sub(shl(0xa0, 0x01), 0x01)\n        /* \"Contract.sol\":1877:1908  tokenDetails[tokenAddresses[i]] */\n      swap1\n      dup2\n      and\n      dup4\n      mstore\n      dup3\n      dup3\n      add\n      swap4\n      swap1\n      swap4\n      mstore\n      0x40\n      swap1\n      swap2\n      add\n      0x00\n      keccak256\n        /* \"Contract.sol\":1877:1997  tokenDetails[tokenAddresses[i]] = TokenDetail(... */\n      dup4\n      mload\n      dup2\n      sstore\n      swap3\n      add\n      mload\n      0x01\n      swap3\n      dup4\n      add\n      dup1\n      sload\n      not(sub(shl(0xa0, 0x01), 0x01))\n      and\n      swap2\n      swap1\n      swap3\n      and\n      or\n      swap1\n      sstore\n        /* \"Contract.sol\":1858:1861  i++ */\n      add\n        /* \"Contract.sol\":1815:2008  for (uint256 i; i < tokenAddresses.length; i++) {... */\n      jump(tag_315)\n    tag_316:\n      pop\n        /* \"Contract.sol\":1473:2014  function setTokensDetails(... */\n      pop\n      pop\n      pop\n      pop\n      jump\t// out\n        /* \"Contract.sol\":1244:1467  function setTokenDetails(... */\n    tag_116:\n        /* \"Contract.sol\":983:1009  keccak256(\"PRICE_MANAGER\") */\n      0xa451215b66f023bb76f9a9e7bc5c64156446b47b26061a8a32eaa319c45f695e\n        /* \"@openzeppelin/contracts-upgradeable/access/AccessControlUpgradeable.sol\":2798:2814  _checkRole(role) */\n      tag_325\n        /* \"@openzeppelin/contracts-upgradeable/access/AccessControlUpgradeable.sol\":2809:2813  role */\n      dup2\n        /* \"@openzeppelin/contracts-upgradeable/access/AccessControlUpgradeable.sol\":2798:2808  _checkRole */\n      tag_125\n        /* \"@openzeppelin/contracts-upgradeable/access/AccessControlUpgradeable.sol\":2798:2814  _checkRole(role) */\n      jump\t// in\n    tag_325:\n      pop\n        /* \"Contract.sol\":1428:1460  TokenDetail(price, tokenManager) */\n      0x40\n      dup1\n      mload\n      dup1\n      dup3\n      add\n      dup3\n      mstore\n      swap2\n      dup3\n      mstore\n      sub(shl(0xa0, 0x01), 0x01)\n      swap3\n      dup4\n      and\n      0x20\n      dup1\n      dup5\n      add\n      swap2\n      dup3\n      mstore\n        /* \"Contract.sol\":1399:1425  tokenDetails[tokenAddress] */\n      swap5\n      dup5\n      and\n      0x00\n      swap1\n      dup2\n      mstore\n        /* \"Contract.sol\":1399:1411  tokenDetails */\n      0x97\n        /* \"Contract.sol\":1399:1425  tokenDetails[tokenAddress] */\n      swap1\n      swap6\n      mstore\n      swap4\n      keccak256\n        /* \"Contract.sol\":1399:1460  tokenDetails[tokenAddress] = TokenDetail(price, tokenManager) */\n      swap1\n      mload\n      dup2\n      sstore\n      swap2\n      mload\n      0x01\n      swap1\n      swap3\n      add\n      dup1\n      sload\n      not(sub(shl(0xa0, 0x01), 0x01))\n      and\n      swap3\n      swap1\n      swap2\n      and\n      swap2\n      swap1\n      swap2\n      or\n      swap1\n      sstore\n        /* \"Contract.sol\":1244:1467  function setTokenDetails(... */\n      jump\t// out\n        /* \"@openzeppelin/contracts-upgradeable/access/AccessControlUpgradeable.sol\":3789:3892  function _checkRole(bytes32 role) internal view virtual {... */\n    tag_125:\n        /* \"@openzeppelin/contracts-upgradeable/access/AccessControlUpgradeable.sol\":3855:3885  _checkRole(role, _msgSender()) */\n      tag_329\n        /* \"@openzeppelin/contracts-upgradeable/access/AccessControlUpgradeable.sol\":3866:3870  role */\n      dup2\n        /* \"@openzeppelin/contracts-upgradeable/utils/ContextUpgradeable.sol\":965:975  msg.sender */\n      caller\n        /* \"@openzeppelin/contracts-upgradeable/access/AccessControlUpgradeable.sol\":3855:3865  _checkRole */\n      tag_331\n        /* \"@openzeppelin/contracts-upgradeable/access/AccessControlUpgradeable.sol\":3855:3885  _checkRole(role, _msgSender()) */\n      jump\t// in\n    tag_329:\n        /* \"@openzeppelin/contracts-upgradeable/access/AccessControlUpgradeable.sol\":3789:3892  function _checkRole(bytes32 role) internal view virtual {... */\n      pop\n      jump\t// out\n        /* \"@openzeppelin/contracts-upgradeable/access/AccessControlUpgradeable.sol\":7938:8171  function _grantRole(bytes32 role, address account) internal virtual {... */\n    tag_128:\n        /* \"@openzeppelin/contracts-upgradeable/access/AccessControlUpgradeable.sol\":8021:8043  hasRole(role, account) */\n      tag_333\n        /* \"@openzeppelin/contracts-upgradeable/access/AccessControlUpgradeable.sol\":8029:8033  role */\n      dup3\n        /* \"@openzeppelin/contracts-upgradeable/access/AccessControlUpgradeable.sol\":8035:8042  account */\n      dup3\n        /* \"@openzeppelin/contracts-upgradeable/access/AccessControlUpgradeable.sol\":8021:8028  hasRole */\n      tag_61\n        /* \"@openzeppelin/contracts-upgradeable/access/AccessControlUpgradeable.sol\":8021:8043  hasRole(role, account) */\n      jump\t// in\n    tag_333:\n        /* \"@openzeppelin/contracts-upgradeable/access/AccessControlUpgradeable.sol\":8016:8165  if (!hasRole(role, account)) {... */\n      tag_135\n      jumpi\n        /* \"@openzeppelin/contracts-upgradeable/access/AccessControlUpgradeable.sol\":8059:8071  _roles[role] */\n      0x00\n      dup3\n      dup2\n      mstore\n        /* \"@openzeppelin/contracts-upgradeable/access/AccessControlUpgradeable.sol\":8059:8065  _roles */\n      0x65\n        /* \"@openzeppelin/contracts-upgradeable/access/AccessControlUpgradeable.sol\":8059:8071  _roles[role] */\n      0x20\n      swap1\n      dup2\n      mstore\n      0x40\n      dup1\n      dup4\n      keccak256\n      sub(shl(0xa0, 0x01), 0x01)\n        /* \"@openzeppelin/contracts-upgradeable/access/AccessControlUpgradeable.sol\":8059:8088  _roles[role].members[account] */\n      dup6\n      and\n      dup5\n      mstore\n      swap1\n      swap2\n      mstore\n      swap1\n      keccak256\n        /* \"@openzeppelin/contracts-upgradeable/access/AccessControlUpgradeable.sol\":8059:8095  _roles[role].members[account] = true */\n      dup1\n      sload\n      not(0xff)\n      and\n        /* \"@openzeppelin/contracts-upgradeable/access/AccessControlUpgradeable.sol\":8091:8095  true */\n      0x01\n        /* \"@openzeppelin/contracts-upgradeable/access/AccessControlUpgradeable.sol\":8059:8095  _roles[role].members[account] = true */\n      or\n      swap1\n      sstore\n        /* \"@openzeppelin/contracts-upgradeable/access/AccessControlUpgradeable.sol\":8141:8153  _msgSender() */\n      tag_335\n        /* \"@openzeppelin/contracts-upgradeable/utils/ContextUpgradeable.sol\":965:975  msg.sender */\n      caller\n      swap1\n        /* \"@openzeppelin/contracts-upgradeable/utils/ContextUpgradeable.sol\":886:982  function _msgSender() internal view virtual returns (address) {... */\n      jump\n        /* \"@openzeppelin/contracts-upgradeable/access/AccessControlUpgradeable.sol\":8141:8153  _msgSender() */\n    tag_335:\n      sub(shl(0xa0, 0x01), 0x01)\n        /* \"@openzeppelin/contracts-upgradeable/access/AccessControlUpgradeable.sol\":8114:8154  RoleGranted(role, account, _msgSender()) */\n      and\n        /* \"@openzeppelin/contracts-upgradeable/access/AccessControlUpgradeable.sol\":8132:8139  account */\n      dup2\n      sub(shl(0xa0, 0x01), 0x01)\n        /* \"@openzeppelin/contracts-upgradeable/access/AccessControlUpgradeable.sol\":8114:8154  RoleGranted(role, account, _msgSender()) */\n      and\n        /* \"@openzeppelin/contracts-upgradeable/access/AccessControlUpgradeable.sol\":8126:8130  role */\n      dup4\n        /* \"@openzeppelin/contracts-upgradeable/access/AccessControlUpgradeable.sol\":8114:8154  RoleGranted(role, account, _msgSender()) */\n      0x2f8788117e7eff1d82e926ec794901d17c78024a50270940304540a733656f0d\n      mload(0x40)\n      mload(0x40)\n      dup1\n      swap2\n      sub\n      swap1\n      log4\n        /* \"@openzeppelin/contracts-upgradeable/access/AccessControlUpgradeable.sol\":7938:8171  function _grantRole(bytes32 role, address account) internal virtual {... */\n      pop\n      pop\n      jump\t// out\n        /* \"@openzeppelin/contracts-upgradeable/access/AccessControlUpgradeable.sol\":8342:8576  function _revokeRole(bytes32 role, address account) internal virtual {... */\n    tag_136:\n        /* \"@openzeppelin/contracts-upgradeable/access/AccessControlUpgradeable.sol\":8425:8447  hasRole(role, account) */\n      tag_338\n        /* \"@openzeppelin/contracts-upgradeable/access/AccessControlUpgradeable.sol\":8433:8437  role */\n      dup3\n        /* \"@openzeppelin/contracts-upgradeable/access/AccessControlUpgradeable.sol\":8439:8446  account */\n      dup3\n        /* \"@openzeppelin/contracts-upgradeable/access/AccessControlUpgradeable.sol\":8425:8432  hasRole */\n      tag_61\n        /* \"@openzeppelin/contracts-upgradeable/access/AccessControlUpgradeable.sol\":8425:8447  hasRole(role, account) */\n      jump\t// in\n    tag_338:\n        /* \"@openzeppelin/contracts-upgradeable/access/AccessControlUpgradeable.sol\":8421:8570  if (hasRole(role, account)) {... */\n      iszero\n      tag_135\n      jumpi\n        /* \"@openzeppelin/contracts-upgradeable/access/AccessControlUpgradeable.sol\":8495:8500  false */\n      0x00\n        /* \"@openzeppelin/contracts-upgradeable/access/AccessControlUpgradeable.sol\":8463:8475  _roles[role] */\n      dup3\n      dup2\n      mstore\n        /* \"@openzeppelin/contracts-upgradeable/access/AccessControlUpgradeable.sol\":8463:8469  _roles */\n      0x65\n        /* \"@openzeppelin/contracts-upgradeable/access/AccessControlUpgradeable.sol\":8463:8475  _roles[role] */\n      0x20\n      swap1\n      dup2\n      mstore\n      0x40\n      dup1\n      dup4\n      keccak256\n      sub(shl(0xa0, 0x01), 0x01)\n        /* \"@openzeppelin/contracts-upgradeable/access/AccessControlUpgradeable.sol\":8463:8492  _roles[role].members[account] */\n      dup6\n      and\n      dup1\n      dup6\n      mstore\n      swap3\n      mstore\n      dup1\n      dup4\n      keccak256\n        /* \"@openzeppelin/contracts-upgradeable/access/AccessControlUpgradeable.sol\":8463:8500  _roles[role].members[account] = false */\n      dup1\n      sload\n      not(0xff)\n      and\n      swap1\n      sstore\n        /* \"@openzeppelin/contracts-upgradeable/access/AccessControlUpgradeable.sol\":8519:8559  RoleRevoked(role, account, _msgSender()) */\n      mload\n        /* \"@openzeppelin/contracts-upgradeable/utils/ContextUpgradeable.sol\":965:975  msg.sender */\n      caller\n      swap3\n        /* \"@openzeppelin/contracts-upgradeable/access/AccessControlUpgradeable.sol\":8463:8475  _roles[role] */\n      dup6\n      swap2\n        /* \"@openzeppelin/contracts-upgradeable/access/AccessControlUpgradeable.sol\":8519:8559  RoleRevoked(role, account, _msgSender()) */\n      0xf6391f5c32d9c69d2a47ea670b442974b53935d1edc7fd64eb21e047a839171b\n      swap2\n        /* \"@openzeppelin/contracts-upgradeable/access/AccessControlUpgradeable.sol\":8495:8500  false */\n      swap1\n        /* \"@openzeppelin/contracts-upgradeable/access/AccessControlUpgradeable.sol\":8519:8559  RoleRevoked(role, account, _msgSender()) */\n      log4\n        /* \"@openzeppelin/contracts-upgradeable/access/AccessControlUpgradeable.sol\":8342:8576  function _revokeRole(bytes32 role, address account) internal virtual {... */\n      pop\n      pop\n      jump\t// out\n        /* \"@openzeppelin/contracts-upgradeable/access/AccessControlUpgradeable.sol\":4173:4674  function _checkRole(bytes32 role, address account) internal view virtual {... */\n    tag_331:\n        /* \"@openzeppelin/contracts-upgradeable/access/AccessControlUpgradeable.sol\":4261:4283  hasRole(role, account) */\n      tag_342\n        /* \"@openzeppelin/contracts-upgradeable/access/AccessControlUpgradeable.sol\":4269:4273  role */\n      dup3\n        /* \"@openzeppelin/contracts-upgradeable/access/AccessControlUpgradeable.sol\":4275:4282  account */\n      dup3\n        /* \"@openzeppelin/contracts-upgradeable/access/AccessControlUpgradeable.sol\":4261:4268  hasRole */\n      tag_61\n        /* \"@openzeppelin/contracts-upgradeable/access/AccessControlUpgradeable.sol\":4261:4283  hasRole(role, account) */\n      jump\t// in\n    tag_342:\n        /* \"@openzeppelin/contracts-upgradeable/access/AccessControlUpgradeable.sol\":4256:4668  if (!hasRole(role, account)) {... */\n      tag_135\n      jumpi\n        /* \"@openzeppelin/contracts-upgradeable/access/AccessControlUpgradeable.sol\":4444:4483  StringsUpgradeable.toHexString(account) */\n      tag_344\n        /* \"@openzeppelin/contracts-upgradeable/access/AccessControlUpgradeable.sol\":4475:4482  account */\n      dup2\n        /* \"@openzeppelin/contracts-upgradeable/access/AccessControlUpgradeable.sol\":4444:4474  StringsUpgradeable.toHexString */\n      tag_345\n        /* \"@openzeppelin/contracts-upgradeable/access/AccessControlUpgradeable.sol\":4444:4483  StringsUpgradeable.toHexString(account) */\n      jump\t// in\n    tag_344:\n        /* \"@openzeppelin/contracts-upgradeable/access/AccessControlUpgradeable.sol\":4554:4603  StringsUpgradeable.toHexString(uint256(role), 32) */\n      tag_346\n        /* \"@openzeppelin/contracts-upgradeable/access/AccessControlUpgradeable.sol\":4593:4597  role */\n      dup4\n        /* \"@openzeppelin/contracts-upgradeable/access/AccessControlUpgradeable.sol\":4600:4602  32 */\n      0x20\n        /* \"@openzeppelin/contracts-upgradeable/access/AccessControlUpgradeable.sol\":4554:4584  StringsUpgradeable.toHexString */\n      tag_347\n        /* \"@openzeppelin/contracts-upgradeable/access/AccessControlUpgradeable.sol\":4554:4603  StringsUpgradeable.toHexString(uint256(role), 32) */\n      jump\t// in\n    tag_346:\n        /* \"@openzeppelin/contracts-upgradeable/access/AccessControlUpgradeable.sol\":4351:4625  abi.encodePacked(... */\n      add(0x20, mload(0x40))\n      tag_348\n      swap3\n      swap2\n      swap1\n      tag_349\n      jump\t// in\n    tag_348:\n      0x40\n      dup1\n      mload\n      not(0x1f)\n      dup2\n      dup5\n      sub\n      add\n      dup2\n      mstore\n      swap1\n      dup3\n      swap1\n      mstore\n      shl(0xe5, 0x461bcd)\n        /* \"@openzeppelin/contracts-upgradeable/access/AccessControlUpgradeable.sol\":4299:4657  revert(... */\n      dup3\n      mstore\n      tag_133\n      swap2\n      0x04\n      add\n      tag_351\n      jump\t// in\n        /* \"@openzeppelin/contracts-upgradeable/utils/StringsUpgradeable.sol\":2473:2622  function toHexString(address addr) internal pure returns (string memory) {... */\n    tag_345:\n        /* \"@openzeppelin/contracts-upgradeable/utils/StringsUpgradeable.sol\":2531:2544  string memory */\n      0x60\n        /* \"@openzeppelin/contracts-upgradeable/utils/StringsUpgradeable.sol\":2563:2615  toHexString(uint256(uint160(addr)), _ADDRESS_LENGTH) */\n      tag_119\n      sub(shl(0xa0, 0x01), 0x01)\n        /* \"@openzeppelin/contracts-upgradeable/utils/StringsUpgradeable.sol\":2575:2597  uint256(uint160(addr)) */\n      dup4\n      and\n        /* \"@openzeppelin/contracts-upgradeable/utils/StringsUpgradeable.sol\":376:378  20 */\n      0x14\n        /* \"@openzeppelin/contracts-upgradeable/utils/StringsUpgradeable.sol\":1884:2321  function toHexString(uint256 value, uint256 length) internal pure returns (string memory) {... */\n    tag_347:\n        /* \"@openzeppelin/contracts-upgradeable/utils/StringsUpgradeable.sol\":1959:1972  string memory */\n      0x60\n        /* \"@openzeppelin/contracts-upgradeable/utils/StringsUpgradeable.sol\":1984:2003  bytes memory buffer */\n      0x00\n        /* \"@openzeppelin/contracts-upgradeable/utils/StringsUpgradeable.sol\":2016:2026  2 * length */\n      tag_355\n        /* \"@openzeppelin/contracts-upgradeable/utils/StringsUpgradeable.sol\":2020:2026  length */\n      dup4\n        /* \"@openzeppelin/contracts-upgradeable/utils/StringsUpgradeable.sol\":2016:2017  2 */\n      0x02\n        /* \"@openzeppelin/contracts-upgradeable/utils/StringsUpgradeable.sol\":2016:2026  2 * length */\n      tag_281\n      jump\t// in\n    tag_355:\n        /* \"@openzeppelin/contracts-upgradeable/utils/StringsUpgradeable.sol\":2016:2030  2 * length + 2 */\n      tag_356\n      swap1\n        /* \"@openzeppelin/contracts-upgradeable/utils/StringsUpgradeable.sol\":2029:2030  2 */\n      0x02\n        /* \"@openzeppelin/contracts-upgradeable/utils/StringsUpgradeable.sol\":2016:2030  2 * length + 2 */\n      tag_270\n      jump\t// in\n    tag_356:\n        /* \"@openzeppelin/contracts-upgradeable/utils/StringsUpgradeable.sol\":2006:2031  new bytes(2 * length + 2) */\n      0xffffffffffffffff\n      dup2\n      gt\n      iszero\n      tag_358\n      jumpi\n      tag_358\n      tag_260\n      jump\t// in\n    tag_358:\n      mload(0x40)\n      swap1\n      dup1\n      dup3\n      mstore\n      dup1\n      0x1f\n      add\n      not(0x1f)\n      and\n      0x20\n      add\n      dup3\n      add\n      0x40\n      mstore\n      dup1\n      iszero\n      tag_359\n      jumpi\n      0x20\n      dup3\n      add\n      dup2\n      dup1\n      calldatasize\n      dup4\n      calldatacopy\n      add\n      swap1\n      pop\n    tag_359:\n      pop\n        /* \"@openzeppelin/contracts-upgradeable/utils/StringsUpgradeable.sol\":1984:2031  bytes memory buffer = new bytes(2 * length + 2) */\n      swap1\n      pop\n      shl(0xfc, 0x03)\n        /* \"@openzeppelin/contracts-upgradeable/utils/StringsUpgradeable.sol\":2041:2047  buffer */\n      dup2\n        /* \"@openzeppelin/contracts-upgradeable/utils/StringsUpgradeable.sol\":2048:2049  0 */\n      0x00\n        /* \"@openzeppelin/contracts-upgradeable/utils/StringsUpgradeable.sol\":2041:2050  buffer[0] */\n      dup2\n      mload\n      dup2\n      lt\n      tag_361\n      jumpi\n      tag_361\n      tag_144\n      jump\t// in\n    tag_361:\n      0x20\n      add\n      add\n        /* \"@openzeppelin/contracts-upgradeable/utils/StringsUpgradeable.sol\":2041:2056  buffer[0] = \"0\" */\n      swap1\n      not(sub(shl(0xf8, 0x01), 0x01))\n      and\n      swap1\n      dup2\n      0x00\n      byte\n      swap1\n      mstore8\n      pop\n      shl(0xfb, 0x0f)\n        /* \"@openzeppelin/contracts-upgradeable/utils/StringsUpgradeable.sol\":2066:2072  buffer */\n      dup2\n        /* \"@openzeppelin/contracts-upgradeable/utils/StringsUpgradeable.sol\":2073:2074  1 */\n      0x01\n        /* \"@openzeppelin/contracts-upgradeable/utils/StringsUpgradeable.sol\":2066:2075  buffer[1] */\n      dup2\n      mload\n      dup2\n      lt\n      tag_363\n      jumpi\n      tag_363\n      tag_144\n      jump\t// in\n    tag_363:\n      0x20\n      add\n      add\n        /* \"@openzeppelin/contracts-upgradeable/utils/StringsUpgradeable.sol\":2066:2081  buffer[1] = \"x\" */\n      swap1\n      not(sub(shl(0xf8, 0x01), 0x01))\n      and\n      swap1\n      dup2\n      0x00\n      byte\n      swap1\n      mstore8\n      pop\n        /* \"@openzeppelin/contracts-upgradeable/utils/StringsUpgradeable.sol\":2096:2105  uint256 i */\n      0x00\n        /* \"@openzeppelin/contracts-upgradeable/utils/StringsUpgradeable.sol\":2108:2118  2 * length */\n      tag_367\n        /* \"@openzeppelin/contracts-upgradeable/utils/StringsUpgradeable.sol\":2112:2118  length */\n      dup5\n        /* \"@openzeppelin/contracts-upgradeable/utils/StringsUpgradeable.sol\":2108:2109  2 */\n      0x02\n        /* \"@openzeppelin/contracts-upgradeable/utils/StringsUpgradeable.sol\":2108:2118  2 * length */\n      tag_281\n      jump\t// in\n    tag_367:\n        /* \"@openzeppelin/contracts-upgradeable/utils/StringsUpgradeable.sol\":2108:2122  2 * length + 1 */\n      tag_368\n      swap1\n        /* \"@openzeppelin/contracts-upgradeable/utils/StringsUpgradeable.sol\":2121:2122  1 */\n      0x01\n        /* \"@openzeppelin/contracts-upgradeable/utils/StringsUpgradeable.sol\":2108:2122  2 * length + 1 */\n      tag_270\n      jump\t// in\n    tag_368:\n        /* \"@openzeppelin/contracts-upgradeable/utils/StringsUpgradeable.sol\":2096:2122  uint256 i = 2 * length + 1 */\n      swap1\n      pop\n        /* \"@openzeppelin/contracts-upgradeable/utils/StringsUpgradeable.sol\":2091:2219  for (uint256 i = 2 * length + 1; i > 1; --i) {... */\n    tag_364:\n        /* \"@openzeppelin/contracts-upgradeable/utils/StringsUpgradeable.sol\":2128:2129  1 */\n      0x01\n        /* \"@openzeppelin/contracts-upgradeable/utils/StringsUpgradeable.sol\":2124:2125  i */\n      dup2\n        /* \"@openzeppelin/contracts-upgradeable/utils/StringsUpgradeable.sol\":2124:2129  i > 1 */\n      gt\n        /* \"@openzeppelin/contracts-upgradeable/utils/StringsUpgradeable.sol\":2091:2219  for (uint256 i = 2 * length + 1; i > 1; --i) {... */\n      iszero\n      tag_365\n      jumpi\n      shl(0x81, 0x181899199a1a9b1b9c1cb0b131b232b3)\n        /* \"@openzeppelin/contracts-upgradeable/utils/StringsUpgradeable.sol\":2171:2176  value */\n      dup6\n        /* \"@openzeppelin/contracts-upgradeable/utils/StringsUpgradeable.sol\":2179:2182  0xf */\n      0x0f\n        /* \"@openzeppelin/contracts-upgradeable/utils/StringsUpgradeable.sol\":2171:2182  value & 0xf */\n      and\n        /* \"@openzeppelin/contracts-upgradeable/utils/StringsUpgradeable.sol\":2162:2183  _SYMBOLS[value & 0xf] */\n      0x10\n      dup2\n      lt\n      tag_370\n      jumpi\n      tag_370\n      tag_144\n      jump\t// in\n    tag_370:\n      byte\n      0xf8\n      shl\n        /* \"@openzeppelin/contracts-upgradeable/utils/StringsUpgradeable.sol\":2150:2156  buffer */\n      dup3\n        /* \"@openzeppelin/contracts-upgradeable/utils/StringsUpgradeable.sol\":2157:2158  i */\n      dup3\n        /* \"@openzeppelin/contracts-upgradeable/utils/StringsUpgradeable.sol\":2150:2159  buffer[i] */\n      dup2\n      mload\n      dup2\n      lt\n      tag_372\n      jumpi\n      tag_372\n      tag_144\n      jump\t// in\n    tag_372:\n      0x20\n      add\n      add\n        /* \"@openzeppelin/contracts-upgradeable/utils/StringsUpgradeable.sol\":2150:2183  buffer[i] = _SYMBOLS[value & 0xf] */\n      swap1\n      not(sub(shl(0xf8, 0x01), 0x01))\n      and\n      swap1\n      dup2\n      0x00\n      byte\n      swap1\n      mstore8\n      pop\n        /* \"@openzeppelin/contracts-upgradeable/utils/StringsUpgradeable.sol\":2207:2208  4 */\n      0x04\n        /* \"@openzeppelin/contracts-upgradeable/utils/StringsUpgradeable.sol\":2197:2208  value >>= 4 */\n      swap5\n      swap1\n      swap5\n      shr\n      swap4\n        /* \"@openzeppelin/contracts-upgradeable/utils/StringsUpgradeable.sol\":2131:2134  --i */\n      tag_373\n      dup2\n      tag_374\n      jump\t// in\n    tag_373:\n      swap1\n      pop\n        /* \"@openzeppelin/contracts-upgradeable/utils/StringsUpgradeable.sol\":2091:2219  for (uint256 i = 2 * length + 1; i > 1; --i) {... */\n      jump(tag_364)\n    tag_365:\n      pop\n        /* \"@openzeppelin/contracts-upgradeable/utils/StringsUpgradeable.sol\":2236:2246  value == 0 */\n      dup4\n      iszero\n        /* \"@openzeppelin/contracts-upgradeable/utils/StringsUpgradeable.sol\":2228:2283  require(value == 0, \"Strings: hex length insufficient\") */\n      tag_375\n      jumpi\n      mload(0x40)\n      shl(0xe5, 0x461bcd)\n      dup2\n      mstore\n        /* \"#utility.yul\":16808:16810   */\n      0x20\n        /* \"@openzeppelin/contracts-upgradeable/utils/StringsUpgradeable.sol\":2228:2283  require(value == 0, \"Strings: hex length insufficient\") */\n      0x04\n      dup3\n      add\n        /* \"#utility.yul\":16790:16811   */\n      dup2\n      swap1\n      mstore\n        /* \"#utility.yul\":16827:16845   */\n      0x24\n      dup3\n      add\n        /* \"#utility.yul\":16820:16850   */\n      mstore\n        /* \"#utility.yul\":16886:16920   */\n      0x537472696e67733a20686578206c656e67746820696e73756666696369656e74\n        /* \"#utility.yul\":16866:16884   */\n      0x44\n      dup3\n      add\n        /* \"#utility.yul\":16859:16921   */\n      mstore\n        /* \"#utility.yul\":16938:16956   */\n      0x64\n      add\n        /* \"@openzeppelin/contracts-upgradeable/utils/StringsUpgradeable.sol\":2228:2283  require(value == 0, \"Strings: hex length insufficient\") */\n      tag_133\n        /* \"#utility.yul\":16606:16962   */\n      jump\n        /* \"@openzeppelin/contracts-upgradeable/utils/StringsUpgradeable.sol\":2228:2283  require(value == 0, \"Strings: hex length insufficient\") */\n    tag_375:\n        /* \"@openzeppelin/contracts-upgradeable/utils/StringsUpgradeable.sol\":2307:2313  buffer */\n      swap4\n        /* \"@openzeppelin/contracts-upgradeable/utils/StringsUpgradeable.sol\":1884:2321  function toHexString(uint256 value, uint256 length) internal pure returns (string memory) {... */\n      swap3\n      pop\n      pop\n      pop\n      jump\t// out\n        /* \"#utility.yul\":14:300   */\n    tag_26:\n        /* \"#utility.yul\":72:78   */\n      0x00\n        /* \"#utility.yul\":125:127   */\n      0x20\n        /* \"#utility.yul\":113:122   */\n      dup3\n        /* \"#utility.yul\":104:111   */\n      dup5\n        /* \"#utility.yul\":100:123   */\n      sub\n        /* \"#utility.yul\":96:128   */\n      slt\n        /* \"#utility.yul\":93:145   */\n      iszero\n      tag_387\n      jumpi\n        /* \"#utility.yul\":141:142   */\n      0x00\n        /* \"#utility.yul\":138:139   */\n      0x00\n        /* \"#utility.yul\":131:143   */\n      revert\n        /* \"#utility.yul\":93:145   */\n    tag_387:\n        /* \"#utility.yul\":167:190   */\n      dup2\n      calldataload\n      not(sub(shl(0xe0, 0x01), 0x01))\n        /* \"#utility.yul\":219:251   */\n      dup2\n      and\n        /* \"#utility.yul\":209:252   */\n      dup2\n      eq\n        /* \"#utility.yul\":199:270   */\n      tag_375\n      jumpi\n        /* \"#utility.yul\":266:267   */\n      0x00\n        /* \"#utility.yul\":263:264   */\n      0x00\n        /* \"#utility.yul\":256:268   */\n      revert\n        /* \"#utility.yul\":497:723   */\n    tag_33:\n        /* \"#utility.yul\":556:562   */\n      0x00\n        /* \"#utility.yul\":609:611   */\n      0x20\n        /* \"#utility.yul\":597:606   */\n      dup3\n        /* \"#utility.yul\":588:595   */\n      dup5\n        /* \"#utility.yul\":584:607   */\n      sub\n        /* \"#utility.yul\":580:612   */\n      slt\n        /* \"#utility.yul\":577:629   */\n      iszero\n      tag_391\n      jumpi\n        /* \"#utility.yul\":625:626   */\n      0x00\n        /* \"#utility.yul\":622:623   */\n      0x00\n        /* \"#utility.yul\":615:627   */\n      revert\n        /* \"#utility.yul\":577:629   */\n    tag_391:\n      pop\n        /* \"#utility.yul\":670:693   */\n      calldataload\n      swap2\n        /* \"#utility.yul\":497:723   */\n      swap1\n      pop\n      jump\t// out\n        /* \"#utility.yul\":910:1083   */\n    tag_378:\n        /* \"#utility.yul\":978:998   */\n      dup1\n      calldataload\n      sub(shl(0xa0, 0x01), 0x01)\n        /* \"#utility.yul\":1027:1058   */\n      dup2\n      and\n        /* \"#utility.yul\":1017:1059   */\n      dup2\n      eq\n        /* \"#utility.yul\":1007:1077   */\n      tag_394\n      jumpi\n        /* \"#utility.yul\":1073:1074   */\n      0x00\n        /* \"#utility.yul\":1070:1071   */\n      0x00\n        /* \"#utility.yul\":1063:1075   */\n      revert\n        /* \"#utility.yul\":1007:1077   */\n    tag_394:\n        /* \"#utility.yul\":910:1083   */\n      swap2\n      swap1\n      pop\n      jump\t// out\n        /* \"#utility.yul\":1088:1388   */\n    tag_40:\n        /* \"#utility.yul\":1156:1162   */\n      0x00\n        /* \"#utility.yul\":1164:1170   */\n      0x00\n        /* \"#utility.yul\":1217:1219   */\n      0x40\n        /* \"#utility.yul\":1205:1214   */\n      dup4\n        /* \"#utility.yul\":1196:1203   */\n      dup6\n        /* \"#utility.yul\":1192:1215   */\n      sub\n        /* \"#utility.yul\":1188:1220   */\n      slt\n        /* \"#utility.yul\":1185:1237   */\n      iszero\n      tag_396\n      jumpi\n        /* \"#utility.yul\":1233:1234   */\n      0x00\n        /* \"#utility.yul\":1230:1231   */\n      0x00\n        /* \"#utility.yul\":1223:1235   */\n      revert\n        /* \"#utility.yul\":1185:1237   */\n    tag_396:\n        /* \"#utility.yul\":1278:1301   */\n      dup3\n      calldataload\n      swap2\n      pop\n        /* \"#utility.yul\":1344:1382   */\n      tag_397\n        /* \"#utility.yul\":1378:1380   */\n      0x20\n        /* \"#utility.yul\":1363:1381   */\n      dup5\n      add\n        /* \"#utility.yul\":1344:1382   */\n      tag_378\n      jump\t// in\n    tag_397:\n        /* \"#utility.yul\":1334:1382   */\n      swap1\n      pop\n        /* \"#utility.yul\":1088:1388   */\n      swap3\n      pop\n      swap3\n      swap1\n      pop\n      jump\t// out\n        /* \"#utility.yul\":1393:1760   */\n    tag_379:\n        /* \"#utility.yul\":1456:1464   */\n      0x00\n        /* \"#utility.yul\":1466:1472   */\n      0x00\n        /* \"#utility.yul\":1520:1523   */\n      dup4\n        /* \"#utility.yul\":1513:1517   */\n      0x1f\n        /* \"#utility.yul\":1505:1511   */\n      dup5\n        /* \"#utility.yul\":1501:1518   */\n      add\n        /* \"#utility.yul\":1497:1524   */\n      slt\n        /* \"#utility.yul\":1487:1542   */\n      tag_399\n      jumpi\n        /* \"#utility.yul\":1538:1539   */\n      0x00\n        /* \"#utility.yul\":1535:1536   */\n      0x00\n        /* \"#utility.yul\":1528:1540   */\n      revert\n        /* \"#utility.yul\":1487:1542   */\n    tag_399:\n      pop\n        /* \"#utility.yul\":1561:1581   */\n      dup2\n      calldataload\n        /* \"#utility.yul\":1604:1622   */\n      0xffffffffffffffff\n        /* \"#utility.yul\":1593:1623   */\n      dup2\n      gt\n        /* \"#utility.yul\":1590:1640   */\n      iszero\n      tag_400\n      jumpi\n        /* \"#utility.yul\":1636:1637   */\n      0x00\n        /* \"#utility.yul\":1633:1634   */\n      0x00\n        /* \"#utility.yul\":1626:1638   */\n      revert\n        /* \"#utility.yul\":1590:1640   */\n    tag_400:\n        /* \"#utility.yul\":1673:1677   */\n      0x20\n        /* \"#utility.yul\":1665:1671   */\n      dup4\n        /* \"#utility.yul\":1661:1678   */\n      add\n        /* \"#utility.yul\":1649:1678   */\n      swap2\n      pop\n        /* \"#utility.yul\":1733:1736   */\n      dup4\n        /* \"#utility.yul\":1726:1730   */\n      0x20\n        /* \"#utility.yul\":1716:1722   */\n      dup3\n        /* \"#utility.yul\":1713:1714   */\n      0x05\n        /* \"#utility.yul\":1709:1723   */\n      shl\n        /* \"#utility.yul\":1701:1707   */\n      dup6\n        /* \"#utility.yul\":1697:1724   */\n      add\n        /* \"#utility.yul\":1693:1731   */\n      add\n        /* \"#utility.yul\":1690:1737   */\n      gt\n        /* \"#utility.yul\":1687:1754   */\n      iszero\n      tag_401\n      jumpi\n        /* \"#utility.yul\":1750:1751   */\n      0x00\n        /* \"#utility.yul\":1747:1748   */\n      0x00\n        /* \"#utility.yul\":1740:1752   */\n      revert\n        /* \"#utility.yul\":1687:1754   */\n    tag_401:\n        /* \"#utility.yul\":1393:1760   */\n      swap3\n      pop\n      swap3\n      swap1\n      pop\n      jump\t// out\n        /* \"#utility.yul\":1765:2632   */\n    tag_49:\n        /* \"#utility.yul\":1887:1893   */\n      0x00\n        /* \"#utility.yul\":1895:1901   */\n      0x00\n        /* \"#utility.yul\":1903:1909   */\n      0x00\n        /* \"#utility.yul\":1911:1917   */\n      0x00\n        /* \"#utility.yul\":1919:1925   */\n      0x00\n        /* \"#utility.yul\":1927:1933   */\n      0x00\n        /* \"#utility.yul\":1980:1983   */\n      0xa0\n        /* \"#utility.yul\":1968:1977   */\n      dup8\n        /* \"#utility.yul\":1959:1966   */\n      dup10\n        /* \"#utility.yul\":1955:1978   */\n      sub\n        /* \"#utility.yul\":1951:1984   */\n      slt\n        /* \"#utility.yul\":1948:2001   */\n      iszero\n      tag_403\n      jumpi\n        /* \"#utility.yul\":1997:1998   */\n      0x00\n        /* \"#utility.yul\":1994:1995   */\n      0x00\n        /* \"#utility.yul\":1987:1999   */\n      revert\n        /* \"#utility.yul\":1948:2001   */\n    tag_403:\n        /* \"#utility.yul\":2042:2065   */\n      dup7\n      calldataload\n      swap6\n      pop\n        /* \"#utility.yul\":2162:2164   */\n      0x20\n        /* \"#utility.yul\":2147:2165   */\n      dup8\n      add\n        /* \"#utility.yul\":2134:2166   */\n      calldataload\n      swap5\n      pop\n        /* \"#utility.yul\":2243:2245   */\n      0x40\n        /* \"#utility.yul\":2228:2246   */\n      dup8\n      add\n        /* \"#utility.yul\":2215:2247   */\n      calldataload\n        /* \"#utility.yul\":2270:2288   */\n      0xffffffffffffffff\n        /* \"#utility.yul\":2259:2289   */\n      dup2\n      gt\n        /* \"#utility.yul\":2256:2306   */\n      iszero\n      tag_404\n      jumpi\n        /* \"#utility.yul\":2302:2303   */\n      0x00\n        /* \"#utility.yul\":2299:2300   */\n      0x00\n        /* \"#utility.yul\":2292:2304   */\n      revert\n        /* \"#utility.yul\":2256:2306   */\n    tag_404:\n        /* \"#utility.yul\":2341:2411   */\n      tag_405\n        /* \"#utility.yul\":2403:2410   */\n      dup10\n        /* \"#utility.yul\":2394:2400   */\n      dup3\n        /* \"#utility.yul\":2383:2392   */\n      dup11\n        /* \"#utility.yul\":2379:2401   */\n      add\n        /* \"#utility.yul\":2341:2411   */\n      tag_379\n      jump\t// in\n    tag_405:\n        /* \"#utility.yul\":2430:2438   */\n      swap1\n      swap6\n      pop\n        /* \"#utility.yul\":2315:2411   */\n      swap4\n      pop\n        /* \"#utility.yul\":2484:2522   */\n      tag_406\n      swap1\n      pop\n        /* \"#utility.yul\":2518:2520   */\n      0x60\n        /* \"#utility.yul\":2503:2521   */\n      dup9\n      add\n        /* \"#utility.yul\":2484:2522   */\n      tag_378\n      jump\t// in\n    tag_406:\n        /* \"#utility.yul\":1765:2632   */\n      swap6\n      swap9\n      swap5\n      swap8\n      pop\n      swap3\n      swap6\n      swap2\n      swap5\n      swap4\n        /* \"#utility.yul\":2595:2598   */\n      0x80\n        /* \"#utility.yul\":2580:2599   */\n      swap1\n      swap3\n      add\n        /* \"#utility.yul\":2567:2600   */\n      calldataload\n      swap3\n      pop\n      pop\n        /* \"#utility.yul\":1765:2632   */\n      jump\t// out\n        /* \"#utility.yul\":2637:2823   */\n    tag_54:\n        /* \"#utility.yul\":2696:2702   */\n      0x00\n        /* \"#utility.yul\":2749:2751   */\n      0x20\n        /* \"#utility.yul\":2737:2746   */\n      dup3\n        /* \"#utility.yul\":2728:2735   */\n      dup5\n        /* \"#utility.yul\":2724:2747   */\n      sub\n        /* \"#utility.yul\":2720:2752   */\n      slt\n        /* \"#utility.yul\":2717:2769   */\n      iszero\n      tag_408\n      jumpi\n        /* \"#utility.yul\":2765:2766   */\n      0x00\n        /* \"#utility.yul\":2762:2763   */\n      0x00\n        /* \"#utility.yul\":2755:2767   */\n      revert\n        /* \"#utility.yul\":2717:2769   */\n    tag_408:\n        /* \"#utility.yul\":2788:2817   */\n      tag_375\n        /* \"#utility.yul\":2807:2816   */\n      dup3\n        /* \"#utility.yul\":2788:2817   */\n      tag_378\n      jump\t// in\n        /* \"#utility.yul\":3372:4118   */\n    tag_78:\n        /* \"#utility.yul\":3485:3491   */\n      0x00\n        /* \"#utility.yul\":3493:3499   */\n      0x00\n        /* \"#utility.yul\":3501:3507   */\n      0x00\n        /* \"#utility.yul\":3509:3515   */\n      0x00\n        /* \"#utility.yul\":3517:3523   */\n      0x00\n        /* \"#utility.yul\":3570:3573   */\n      0x80\n        /* \"#utility.yul\":3558:3567   */\n      dup7\n        /* \"#utility.yul\":3549:3556   */\n      dup9\n        /* \"#utility.yul\":3545:3568   */\n      sub\n        /* \"#utility.yul\":3541:3574   */\n      slt\n        /* \"#utility.yul\":3538:3591   */\n      iszero\n      tag_413\n      jumpi\n        /* \"#utility.yul\":3587:3588   */\n      0x00\n        /* \"#utility.yul\":3584:3585   */\n      0x00\n        /* \"#utility.yul\":3577:3589   */\n      revert\n        /* \"#utility.yul\":3538:3591   */\n    tag_413:\n        /* \"#utility.yul\":3632:3655   */\n      dup6\n      calldataload\n      swap5\n      pop\n        /* \"#utility.yul\":3730:3732   */\n      0x20\n        /* \"#utility.yul\":3715:3733   */\n      dup7\n      add\n        /* \"#utility.yul\":3702:3734   */\n      calldataload\n        /* \"#utility.yul\":3757:3775   */\n      0xffffffffffffffff\n        /* \"#utility.yul\":3746:3776   */\n      dup2\n      gt\n        /* \"#utility.yul\":3743:3793   */\n      iszero\n      tag_414\n      jumpi\n        /* \"#utility.yul\":3789:3790   */\n      0x00\n        /* \"#utility.yul\":3786:3787   */\n      0x00\n        /* \"#utility.yul\":3779:3791   */\n      revert\n        /* \"#utility.yul\":3743:3793   */\n    tag_414:\n        /* \"#utility.yul\":3828:3898   */\n      tag_415\n        /* \"#utility.yul\":3890:3897   */\n      dup9\n        /* \"#utility.yul\":3881:3887   */\n      dup3\n        /* \"#utility.yul\":3870:3879   */\n      dup10\n        /* \"#utility.yul\":3866:3888   */\n      add\n        /* \"#utility.yul\":3828:3898   */\n      tag_379\n      jump\t// in\n    tag_415:\n        /* \"#utility.yul\":3917:3925   */\n      swap1\n      swap6\n      pop\n        /* \"#utility.yul\":3802:3898   */\n      swap4\n      pop\n        /* \"#utility.yul\":3971:4009   */\n      tag_416\n      swap1\n      pop\n        /* \"#utility.yul\":4005:4007   */\n      0x40\n        /* \"#utility.yul\":3990:4008   */\n      dup8\n      add\n        /* \"#utility.yul\":3971:4009   */\n      tag_378\n      jump\t// in\n    tag_416:\n        /* \"#utility.yul\":3372:4118   */\n      swap5\n      swap8\n      swap4\n      swap7\n      pop\n      swap2\n      swap5\n        /* \"#utility.yul\":4082:4084   */\n      0x60\n        /* \"#utility.yul\":4067:4085   */\n      add\n        /* \"#utility.yul\":4054:4086   */\n      calldataload\n      swap3\n        /* \"#utility.yul\":3372:4118   */\n      swap2\n      pop\n      pop\n      jump\t// out\n        /* \"#utility.yul\":4305:4432   */\n    tag_260:\n        /* \"#utility.yul\":4366:4376   */\n      0x4e487b71\n        /* \"#utility.yul\":4361:4364   */\n      0xe0\n        /* \"#utility.yul\":4357:4377   */\n      shl\n        /* \"#utility.yul\":4354:4355   */\n      0x00\n        /* \"#utility.yul\":4347:4378   */\n      mstore\n        /* \"#utility.yul\":4397:4401   */\n      0x41\n        /* \"#utility.yul\":4394:4395   */\n      0x04\n        /* \"#utility.yul\":4387:4402   */\n      mstore\n        /* \"#utility.yul\":4421:4425   */\n      0x24\n        /* \"#utility.yul\":4418:4419   */\n      0x00\n        /* \"#utility.yul\":4411:4426   */\n      revert\n        /* \"#utility.yul\":4437:4712   */\n    tag_380:\n        /* \"#utility.yul\":4508:4510   */\n      0x40\n        /* \"#utility.yul\":4502:4511   */\n      mload\n        /* \"#utility.yul\":4573:4575   */\n      0x1f\n        /* \"#utility.yul\":4554:4567   */\n      dup3\n      add\n      not(0x1f)\n        /* \"#utility.yul\":4550:4577   */\n      and\n        /* \"#utility.yul\":4538:4578   */\n      dup2\n      add\n        /* \"#utility.yul\":4608:4626   */\n      0xffffffffffffffff\n        /* \"#utility.yul\":4593:4627   */\n      dup2\n      gt\n        /* \"#utility.yul\":4629:4651   */\n      dup3\n      dup3\n      lt\n        /* \"#utility.yul\":4590:4652   */\n      or\n        /* \"#utility.yul\":4587:4675   */\n      iszero\n      tag_421\n      jumpi\n        /* \"#utility.yul\":4655:4673   */\n      tag_421\n      tag_260\n      jump\t// in\n    tag_421:\n        /* \"#utility.yul\":4691:4693   */\n      0x40\n        /* \"#utility.yul\":4684:4706   */\n      mstore\n        /* \"#utility.yul\":4437:4712   */\n      swap2\n      swap1\n      pop\n      jump\t// out\n        /* \"#utility.yul\":4717:4900   */\n    tag_381:\n        /* \"#utility.yul\":4777:4781   */\n      0x00\n        /* \"#utility.yul\":4810:4828   */\n      0xffffffffffffffff\n        /* \"#utility.yul\":4802:4808   */\n      dup3\n        /* \"#utility.yul\":4799:4829   */\n      gt\n        /* \"#utility.yul\":4796:4852   */\n      iszero\n      tag_424\n      jumpi\n        /* \"#utility.yul\":4832:4850   */\n      tag_424\n      tag_260\n      jump\t// in\n    tag_424:\n      pop\n        /* \"#utility.yul\":4877:4878   */\n      0x05\n        /* \"#utility.yul\":4873:4887   */\n      shl\n        /* \"#utility.yul\":4889:4893   */\n      0x20\n        /* \"#utility.yul\":4869:4894   */\n      add\n      swap1\n        /* \"#utility.yul\":4717:4900   */\n      jump\t// out\n        /* \"#utility.yul\":4905:5580   */\n    tag_382:\n        /* \"#utility.yul\":4959:4964   */\n      0x00\n        /* \"#utility.yul\":5012:5015   */\n      dup3\n        /* \"#utility.yul\":5005:5009   */\n      0x1f\n        /* \"#utility.yul\":4997:5003   */\n      dup4\n        /* \"#utility.yul\":4993:5010   */\n      add\n        /* \"#utility.yul\":4989:5016   */\n      slt\n        /* \"#utility.yul\":4979:5034   */\n      tag_426\n      jumpi\n        /* \"#utility.yul\":5030:5031   */\n      0x00\n        /* \"#utility.yul\":5027:5028   */\n      0x00\n        /* \"#utility.yul\":5020:5032   */\n      revert\n        /* \"#utility.yul\":4979:5034   */\n    tag_426:\n        /* \"#utility.yul\":5070:5076   */\n      dup2\n        /* \"#utility.yul\":5057:5077   */\n      calldataload\n        /* \"#utility.yul\":5097:5161   */\n      tag_427\n        /* \"#utility.yul\":5113:5160   */\n      tag_428\n        /* \"#utility.yul\":5153:5159   */\n      dup3\n        /* \"#utility.yul\":5113:5160   */\n      tag_381\n      jump\t// in\n    tag_428:\n        /* \"#utility.yul\":5097:5161   */\n      tag_380\n      jump\t// in\n    tag_427:\n        /* \"#utility.yul\":5185:5188   */\n      dup1\n        /* \"#utility.yul\":5209:5215   */\n      dup3\n        /* \"#utility.yul\":5204:5207   */\n      dup3\n        /* \"#utility.yul\":5197:5216   */\n      mstore\n        /* \"#utility.yul\":5241:5245   */\n      0x20\n        /* \"#utility.yul\":5236:5239   */\n      dup3\n        /* \"#utility.yul\":5232:5246   */\n      add\n        /* \"#utility.yul\":5225:5246   */\n      swap2\n      pop\n        /* \"#utility.yul\":5302:5306   */\n      0x20\n        /* \"#utility.yul\":5292:5298   */\n      dup4\n        /* \"#utility.yul\":5289:5290   */\n      0x05\n        /* \"#utility.yul\":5285:5299   */\n      shl\n        /* \"#utility.yul\":5277:5283   */\n      dup7\n        /* \"#utility.yul\":5273:5300   */\n      add\n        /* \"#utility.yul\":5269:5307   */\n      add\n        /* \"#utility.yul\":5255:5307   */\n      swap3\n      pop\n        /* \"#utility.yul\":5330:5333   */\n      dup6\n        /* \"#utility.yul\":5322:5328   */\n      dup4\n        /* \"#utility.yul\":5319:5334   */\n      gt\n        /* \"#utility.yul\":5316:5351   */\n      iszero\n      tag_429\n      jumpi\n        /* \"#utility.yul\":5347:5348   */\n      0x00\n        /* \"#utility.yul\":5344:5345   */\n      0x00\n        /* \"#utility.yul\":5337:5349   */\n      revert\n        /* \"#utility.yul\":5316:5351   */\n    tag_429:\n        /* \"#utility.yul\":5383:5387   */\n      0x20\n        /* \"#utility.yul\":5375:5381   */\n      dup6\n        /* \"#utility.yul\":5371:5388   */\n      add\n        /* \"#utility.yul\":5397:5549   */\n    tag_430:\n        /* \"#utility.yul\":5413:5419   */\n      dup4\n        /* \"#utility.yul\":5408:5411   */\n      dup2\n        /* \"#utility.yul\":5405:5420   */\n      lt\n        /* \"#utility.yul\":5397:5549   */\n      iszero\n      tag_432\n      jumpi\n        /* \"#utility.yul\":5481:5504   */\n      tag_433\n        /* \"#utility.yul\":5500:5503   */\n      dup2\n        /* \"#utility.yul\":5481:5504   */\n      tag_378\n      jump\t// in\n    tag_433:\n        /* \"#utility.yul\":5469:5505   */\n      dup4\n      mstore\n        /* \"#utility.yul\":5534:5538   */\n      0x20\n        /* \"#utility.yul\":5525:5539   */\n      swap3\n      dup4\n      add\n      swap3\n        /* \"#utility.yul\":5430:5444   */\n      add\n        /* \"#utility.yul\":5397:5549   */\n      jump(tag_430)\n    tag_432:\n      pop\n        /* \"#utility.yul\":5567:5574   */\n      swap6\n        /* \"#utility.yul\":4905:5580   */\n      swap5\n      pop\n      pop\n      pop\n      pop\n      pop\n      jump\t// out\n        /* \"#utility.yul\":5585:6047   */\n    tag_93:\n        /* \"#utility.yul\":5678:5684   */\n      0x00\n        /* \"#utility.yul\":5686:5692   */\n      0x00\n        /* \"#utility.yul\":5739:5741   */\n      0x40\n        /* \"#utility.yul\":5727:5736   */\n      dup4\n        /* \"#utility.yul\":5718:5725   */\n      dup6\n        /* \"#utility.yul\":5714:5737   */\n      sub\n        /* \"#utility.yul\":5710:5742   */\n      slt\n        /* \"#utility.yul\":5707:5759   */\n      iszero\n      tag_435\n      jumpi\n        /* \"#utility.yul\":5755:5756   */\n      0x00\n        /* \"#utility.yul\":5752:5753   */\n      0x00\n        /* \"#utility.yul\":5745:5757   */\n      revert\n        /* \"#utility.yul\":5707:5759   */\n    tag_435:\n        /* \"#utility.yul\":5800:5823   */\n      dup3\n      calldataload\n      swap2\n      pop\n        /* \"#utility.yul\":5898:5900   */\n      0x20\n        /* \"#utility.yul\":5883:5901   */\n      dup4\n      add\n        /* \"#utility.yul\":5870:5902   */\n      calldataload\n        /* \"#utility.yul\":5925:5943   */\n      0xffffffffffffffff\n        /* \"#utility.yul\":5914:5944   */\n      dup2\n      gt\n        /* \"#utility.yul\":5911:5961   */\n      iszero\n      tag_436\n      jumpi\n        /* \"#utility.yul\":5957:5958   */\n      0x00\n        /* \"#utility.yul\":5954:5955   */\n      0x00\n        /* \"#utility.yul\":5947:5959   */\n      revert\n        /* \"#utility.yul\":5911:5961   */\n    tag_436:\n        /* \"#utility.yul\":5980:6041   */\n      tag_437\n        /* \"#utility.yul\":6033:6040   */\n      dup6\n        /* \"#utility.yul\":6024:6030   */\n      dup3\n        /* \"#utility.yul\":6013:6022   */\n      dup7\n        /* \"#utility.yul\":6009:6031   */\n      add\n        /* \"#utility.yul\":5980:6041   */\n      tag_382\n      jump\t// in\n    tag_437:\n        /* \"#utility.yul\":5970:6041   */\n      swap2\n      pop\n      pop\n        /* \"#utility.yul\":5585:6047   */\n      swap3\n      pop\n      swap3\n      swap1\n      pop\n      jump\t// out\n        /* \"#utility.yul\":6052:6663   */\n    tag_96:\n        /* \"#utility.yul\":6242:6244   */\n      0x20\n        /* \"#utility.yul\":6254:6275   */\n      dup1\n      dup3\n      mstore\n        /* \"#utility.yul\":6324:6337   */\n      dup3\n      mload\n        /* \"#utility.yul\":6227:6245   */\n      dup3\n      dup3\n      add\n        /* \"#utility.yul\":6346:6368   */\n      dup2\n      swap1\n      mstore\n        /* \"#utility.yul\":6194:6198   */\n      0x00\n      swap2\n        /* \"#utility.yul\":6425:6440   */\n      dup5\n      add\n      swap1\n        /* \"#utility.yul\":6399:6401   */\n      0x40\n        /* \"#utility.yul\":6384:6402   */\n      dup5\n      add\n      swap1\n        /* \"#utility.yul\":6194:6198   */\n      dup4\n        /* \"#utility.yul\":6468:6637   */\n    tag_439:\n        /* \"#utility.yul\":6482:6488   */\n      dup2\n        /* \"#utility.yul\":6479:6480   */\n      dup2\n        /* \"#utility.yul\":6476:6489   */\n      lt\n        /* \"#utility.yul\":6468:6637   */\n      iszero\n      tag_441\n      jumpi\n        /* \"#utility.yul\":6543:6556   */\n      dup4\n      mload\n        /* \"#utility.yul\":6531:6557   */\n      dup4\n      mstore\n        /* \"#utility.yul\":6586:6588   */\n      0x20\n        /* \"#utility.yul\":6612:6627   */\n      swap4\n      dup5\n      add\n      swap4\n        /* \"#utility.yul\":6577:6589   */\n      swap1\n      swap3\n      add\n      swap2\n        /* \"#utility.yul\":6504:6505   */\n      0x01\n        /* \"#utility.yul\":6497:6506   */\n      add\n        /* \"#utility.yul\":6468:6637   */\n      jump(tag_439)\n    tag_441:\n      pop\n        /* \"#utility.yul\":6654:6657   */\n      swap1\n      swap6\n        /* \"#utility.yul\":6052:6663   */\n      swap5\n      pop\n      pop\n      pop\n      pop\n      pop\n      jump\t// out\n        /* \"#utility.yul\":6947:8371   */\n    tag_110:\n        /* \"#utility.yul\":7099:7105   */\n      0x00\n        /* \"#utility.yul\":7107:7113   */\n      0x00\n        /* \"#utility.yul\":7115:7121   */\n      0x00\n        /* \"#utility.yul\":7168:7170   */\n      0x60\n        /* \"#utility.yul\":7156:7165   */\n      dup5\n        /* \"#utility.yul\":7147:7154   */\n      dup7\n        /* \"#utility.yul\":7143:7166   */\n      sub\n        /* \"#utility.yul\":7139:7171   */\n      slt\n        /* \"#utility.yul\":7136:7188   */\n      iszero\n      tag_444\n      jumpi\n        /* \"#utility.yul\":7184:7185   */\n      0x00\n        /* \"#utility.yul\":7181:7182   */\n      0x00\n        /* \"#utility.yul\":7174:7186   */\n      revert\n        /* \"#utility.yul\":7136:7188   */\n    tag_444:\n        /* \"#utility.yul\":7224:7233   */\n      dup4\n        /* \"#utility.yul\":7211:7234   */\n      calldataload\n        /* \"#utility.yul\":7257:7275   */\n      0xffffffffffffffff\n        /* \"#utility.yul\":7249:7255   */\n      dup2\n        /* \"#utility.yul\":7246:7276   */\n      gt\n        /* \"#utility.yul\":7243:7293   */\n      iszero\n      tag_445\n      jumpi\n        /* \"#utility.yul\":7289:7290   */\n      0x00\n        /* \"#utility.yul\":7286:7287   */\n      0x00\n        /* \"#utility.yul\":7279:7291   */\n      revert\n        /* \"#utility.yul\":7243:7293   */\n    tag_445:\n        /* \"#utility.yul\":7312:7373   */\n      tag_446\n        /* \"#utility.yul\":7365:7372   */\n      dup7\n        /* \"#utility.yul\":7356:7362   */\n      dup3\n        /* \"#utility.yul\":7345:7354   */\n      dup8\n        /* \"#utility.yul\":7341:7363   */\n      add\n        /* \"#utility.yul\":7312:7373   */\n      tag_382\n      jump\t// in\n    tag_446:\n        /* \"#utility.yul\":7302:7373   */\n      swap4\n      pop\n      pop\n        /* \"#utility.yul\":7426:7428   */\n      0x20\n        /* \"#utility.yul\":7415:7424   */\n      dup5\n        /* \"#utility.yul\":7411:7429   */\n      add\n        /* \"#utility.yul\":7398:7430   */\n      calldataload\n        /* \"#utility.yul\":7455:7473   */\n      0xffffffffffffffff\n        /* \"#utility.yul\":7445:7453   */\n      dup2\n        /* \"#utility.yul\":7442:7474   */\n      gt\n        /* \"#utility.yul\":7439:7491   */\n      iszero\n      tag_447\n      jumpi\n        /* \"#utility.yul\":7487:7488   */\n      0x00\n        /* \"#utility.yul\":7484:7485   */\n      0x00\n        /* \"#utility.yul\":7477:7489   */\n      revert\n        /* \"#utility.yul\":7439:7491   */\n    tag_447:\n        /* \"#utility.yul\":7510:7573   */\n      tag_448\n        /* \"#utility.yul\":7565:7572   */\n      dup7\n        /* \"#utility.yul\":7554:7562   */\n      dup3\n        /* \"#utility.yul\":7543:7552   */\n      dup8\n        /* \"#utility.yul\":7539:7563   */\n      add\n        /* \"#utility.yul\":7510:7573   */\n      tag_382\n      jump\t// in\n    tag_448:\n        /* \"#utility.yul\":7500:7573   */\n      swap3\n      pop\n      pop\n        /* \"#utility.yul\":7626:7628   */\n      0x40\n        /* \"#utility.yul\":7615:7624   */\n      dup5\n        /* \"#utility.yul\":7611:7629   */\n      add\n        /* \"#utility.yul\":7598:7630   */\n      calldataload\n        /* \"#utility.yul\":7655:7673   */\n      0xffffffffffffffff\n        /* \"#utility.yul\":7645:7653   */\n      dup2\n        /* \"#utility.yul\":7642:7674   */\n      gt\n        /* \"#utility.yul\":7639:7691   */\n      iszero\n      tag_449\n      jumpi\n        /* \"#utility.yul\":7687:7688   */\n      0x00\n        /* \"#utility.yul\":7684:7685   */\n      0x00\n        /* \"#utility.yul\":7677:7689   */\n      revert\n        /* \"#utility.yul\":7639:7691   */\n    tag_449:\n        /* \"#utility.yul\":7710:7734   */\n      dup5\n      add\n        /* \"#utility.yul\":7765:7769   */\n      0x1f\n        /* \"#utility.yul\":7757:7770   */\n      dup2\n      add\n        /* \"#utility.yul\":7753:7780   */\n      dup7\n      sgt\n        /* \"#utility.yul\":7743:7798   */\n      tag_450\n      jumpi\n        /* \"#utility.yul\":7794:7795   */\n      0x00\n        /* \"#utility.yul\":7791:7792   */\n      0x00\n        /* \"#utility.yul\":7784:7796   */\n      revert\n        /* \"#utility.yul\":7743:7798   */\n    tag_450:\n        /* \"#utility.yul\":7834:7836   */\n      dup1\n        /* \"#utility.yul\":7821:7837   */\n      calldataload\n        /* \"#utility.yul\":7857:7921   */\n      tag_451\n        /* \"#utility.yul\":7873:7920   */\n      tag_428\n        /* \"#utility.yul\":7913:7919   */\n      dup3\n        /* \"#utility.yul\":7873:7920   */\n      tag_381\n      jump\t// in\n        /* \"#utility.yul\":7857:7921   */\n    tag_451:\n        /* \"#utility.yul\":7943:7946   */\n      dup1\n        /* \"#utility.yul\":7967:7973   */\n      dup3\n        /* \"#utility.yul\":7962:7965   */\n      dup3\n        /* \"#utility.yul\":7955:7974   */\n      mstore\n        /* \"#utility.yul\":7999:8001   */\n      0x20\n        /* \"#utility.yul\":7994:7997   */\n      dup3\n        /* \"#utility.yul\":7990:8002   */\n      add\n        /* \"#utility.yul\":7983:8002   */\n      swap2\n      pop\n        /* \"#utility.yul\":8054:8056   */\n      0x20\n        /* \"#utility.yul\":8044:8050   */\n      dup4\n        /* \"#utility.yul\":8041:8042   */\n      0x05\n        /* \"#utility.yul\":8037:8051   */\n      shl\n        /* \"#utility.yul\":8033:8035   */\n      dup6\n        /* \"#utility.yul\":8029:8052   */\n      add\n        /* \"#utility.yul\":8025:8057   */\n      add\n        /* \"#utility.yul\":8011:8057   */\n      swap3\n      pop\n        /* \"#utility.yul\":8080:8087   */\n      dup9\n        /* \"#utility.yul\":8072:8078   */\n      dup4\n        /* \"#utility.yul\":8069:8088   */\n      gt\n        /* \"#utility.yul\":8066:8105   */\n      iszero\n      tag_453\n      jumpi\n        /* \"#utility.yul\":8101:8102   */\n      0x00\n        /* \"#utility.yul\":8098:8099   */\n      0x00\n        /* \"#utility.yul\":8091:8103   */\n      revert\n        /* \"#utility.yul\":8066:8105   */\n    tag_453:\n        /* \"#utility.yul\":8133:8135   */\n      0x20\n        /* \"#utility.yul\":8129:8131   */\n      dup5\n        /* \"#utility.yul\":8125:8136   */\n      add\n        /* \"#utility.yul\":8114:8136   */\n      swap4\n      pop\n        /* \"#utility.yul\":8145:8341   */\n    tag_454:\n        /* \"#utility.yul\":8161:8167   */\n      dup3\n        /* \"#utility.yul\":8156:8159   */\n      dup5\n        /* \"#utility.yul\":8153:8168   */\n      lt\n        /* \"#utility.yul\":8145:8341   */\n      iszero\n      tag_456\n      jumpi\n        /* \"#utility.yul\":8251:8268   */\n      dup4\n      calldataload\n        /* \"#utility.yul\":8281:8299   */\n      dup3\n      mstore\n        /* \"#utility.yul\":8328:8330   */\n      0x20\n        /* \"#utility.yul\":8178:8190   */\n      swap4\n      dup5\n      add\n      swap4\n        /* \"#utility.yul\":8319:8331   */\n      swap1\n      swap2\n      add\n      swap1\n        /* \"#utility.yul\":8145:8341   */\n      jump(tag_454)\n    tag_456:\n        /* \"#utility.yul\":8360:8365   */\n      dup1\n        /* \"#utility.yul\":8350:8365   */\n      swap5\n      pop\n      pop\n      pop\n      pop\n      pop\n        /* \"#utility.yul\":6947:8371   */\n      swap3\n      pop\n      swap3\n      pop\n      swap3\n      jump\t// out\n        /* \"#utility.yul\":8376:8750   */\n    tag_115:\n        /* \"#utility.yul\":8453:8459   */\n      0x00\n        /* \"#utility.yul\":8461:8467   */\n      0x00\n        /* \"#utility.yul\":8469:8475   */\n      0x00\n        /* \"#utility.yul\":8522:8524   */\n      0x60\n        /* \"#utility.yul\":8510:8519   */\n      dup5\n        /* \"#utility.yul\":8501:8508   */\n      dup7\n        /* \"#utility.yul\":8497:8520   */\n      sub\n        /* \"#utility.yul\":8493:8525   */\n      slt\n        /* \"#utility.yul\":8490:8542   */\n      iszero\n      tag_458\n      jumpi\n        /* \"#utility.yul\":8538:8539   */\n      0x00\n        /* \"#utility.yul\":8535:8536   */\n      0x00\n        /* \"#utility.yul\":8528:8540   */\n      revert\n        /* \"#utility.yul\":8490:8542   */\n    tag_458:\n        /* \"#utility.yul\":8561:8590   */\n      tag_459\n        /* \"#utility.yul\":8580:8589   */\n      dup5\n        /* \"#utility.yul\":8561:8590   */\n      tag_378\n      jump\t// in\n    tag_459:\n        /* \"#utility.yul\":8551:8590   */\n      swap3\n      pop\n        /* \"#utility.yul\":8609:8647   */\n      tag_460\n        /* \"#utility.yul\":8643:8645   */\n      0x20\n        /* \"#utility.yul\":8632:8641   */\n      dup6\n        /* \"#utility.yul\":8628:8646   */\n      add\n        /* \"#utility.yul\":8609:8647   */\n      tag_378\n      jump\t// in\n    tag_460:\n        /* \"#utility.yul\":8376:8750   */\n      swap3\n      swap6\n        /* \"#utility.yul\":8599:8647   */\n      swap3\n      swap5\n      pop\n      pop\n      pop\n        /* \"#utility.yul\":8716:8718   */\n      0x40\n        /* \"#utility.yul\":8701:8719   */\n      swap2\n      swap1\n      swap2\n      add\n        /* \"#utility.yul\":8688:8720   */\n      calldataload\n      swap1\n        /* \"#utility.yul\":8376:8750   */\n      jump\t// out\n        /* \"#utility.yul\":9524:9651   */\n    tag_144:\n        /* \"#utility.yul\":9585:9595   */\n      0x4e487b71\n        /* \"#utility.yul\":9580:9583   */\n      0xe0\n        /* \"#utility.yul\":9576:9596   */\n      shl\n        /* \"#utility.yul\":9573:9574   */\n      0x00\n        /* \"#utility.yul\":9566:9597   */\n      mstore\n        /* \"#utility.yul\":9616:9620   */\n      0x32\n        /* \"#utility.yul\":9613:9614   */\n      0x04\n        /* \"#utility.yul\":9606:9621   */\n      mstore\n        /* \"#utility.yul\":9640:9644   */\n      0x24\n        /* \"#utility.yul\":9637:9638   */\n      0x00\n        /* \"#utility.yul\":9630:9645   */\n      revert\n        /* \"#utility.yul\":9656:10063   */\n    tag_148:\n        /* \"#utility.yul\":9858:9860   */\n      0x20\n        /* \"#utility.yul\":9840:9861   */\n      dup1\n      dup3\n      mstore\n        /* \"#utility.yul\":9897:9899   */\n      0x2b\n        /* \"#utility.yul\":9877:9895   */\n      swap1\n      dup3\n      add\n        /* \"#utility.yul\":9870:9900   */\n      mstore\n        /* \"#utility.yul\":9936:9970   */\n      0x556e69737761705632526f757465723a20494e53554646494349454e545f4f55\n        /* \"#utility.yul\":9931:9933   */\n      0x40\n        /* \"#utility.yul\":9916:9934   */\n      dup3\n      add\n        /* \"#utility.yul\":9909:9971   */\n      mstore\n      shl(0xaa, 0x1514155517d05353d55395)\n        /* \"#utility.yul\":10002:10004   */\n      0x60\n        /* \"#utility.yul\":9987:10005   */\n      dup3\n      add\n        /* \"#utility.yul\":9980:10021   */\n      mstore\n        /* \"#utility.yul\":10053:10056   */\n      0x80\n        /* \"#utility.yul\":10038:10057   */\n      add\n      swap1\n        /* \"#utility.yul\":9656:10063   */\n      jump\t// out\n        /* \"#utility.yul\":10373:10557   */\n    tag_161:\n        /* \"#utility.yul\":10443:10449   */\n      0x00\n        /* \"#utility.yul\":10496:10498   */\n      0x20\n        /* \"#utility.yul\":10484:10493   */\n      dup3\n        /* \"#utility.yul\":10475:10482   */\n      dup5\n        /* \"#utility.yul\":10471:10494   */\n      sub\n        /* \"#utility.yul\":10467:10499   */\n      slt\n        /* \"#utility.yul\":10464:10516   */\n      iszero\n      tag_467\n      jumpi\n        /* \"#utility.yul\":10512:10513   */\n      0x00\n        /* \"#utility.yul\":10509:10510   */\n      0x00\n        /* \"#utility.yul\":10502:10514   */\n      revert\n        /* \"#utility.yul\":10464:10516   */\n    tag_467:\n      pop\n        /* \"#utility.yul\":10535:10551   */\n      mload\n      swap2\n        /* \"#utility.yul\":10373:10557   */\n      swap1\n      pop\n      jump\t// out\n        /* \"#utility.yul\":11783:12060   */\n    tag_184:\n        /* \"#utility.yul\":11850:11856   */\n      0x00\n        /* \"#utility.yul\":11903:11905   */\n      0x20\n        /* \"#utility.yul\":11891:11900   */\n      dup3\n        /* \"#utility.yul\":11882:11889   */\n      dup5\n        /* \"#utility.yul\":11878:11901   */\n      sub\n        /* \"#utility.yul\":11874:11906   */\n      slt\n        /* \"#utility.yul\":11871:11923   */\n      iszero\n      tag_472\n      jumpi\n        /* \"#utility.yul\":11919:11920   */\n      0x00\n        /* \"#utility.yul\":11916:11917   */\n      0x00\n        /* \"#utility.yul\":11909:11921   */\n      revert\n        /* \"#utility.yul\":11871:11923   */\n    tag_472:\n        /* \"#utility.yul\":11951:11960   */\n      dup2\n        /* \"#utility.yul\":11945:11961   */\n      mload\n        /* \"#utility.yul\":12004:12009   */\n      dup1\n        /* \"#utility.yul\":11997:12010   */\n      iszero\n        /* \"#utility.yul\":11990:12011   */\n      iszero\n        /* \"#utility.yul\":11983:11988   */\n      dup2\n        /* \"#utility.yul\":11980:12012   */\n      eq\n        /* \"#utility.yul\":11970:12030   */\n      tag_375\n      jumpi\n        /* \"#utility.yul\":12026:12027   */\n      0x00\n        /* \"#utility.yul\":12023:12024   */\n      0x00\n        /* \"#utility.yul\":12016:12028   */\n      revert\n        /* \"#utility.yul\":13956:14083   */\n    tag_383:\n        /* \"#utility.yul\":14017:14027   */\n      0x4e487b71\n        /* \"#utility.yul\":14012:14015   */\n      0xe0\n        /* \"#utility.yul\":14008:14028   */\n      shl\n        /* \"#utility.yul\":14005:14006   */\n      0x00\n        /* \"#utility.yul\":13998:14029   */\n      mstore\n        /* \"#utility.yul\":14048:14052   */\n      0x11\n        /* \"#utility.yul\":14045:14046   */\n      0x04\n        /* \"#utility.yul\":14038:14053   */\n      mstore\n        /* \"#utility.yul\":14072:14076   */\n      0x24\n        /* \"#utility.yul\":14069:14070   */\n      0x00\n        /* \"#utility.yul\":14062:14077   */\n      revert\n        /* \"#utility.yul\":14088:14216   */\n    tag_268:\n        /* \"#utility.yul\":14155:14164   */\n      dup2\n      dup2\n      sub\n        /* \"#utility.yul\":14176:14187   */\n      dup2\n      dup2\n      gt\n        /* \"#utility.yul\":14173:14210   */\n      iszero\n      tag_119\n      jumpi\n        /* \"#utility.yul\":14190:14208   */\n      tag_119\n      tag_383\n      jump\t// in\n        /* \"#utility.yul\":14221:14346   */\n    tag_270:\n        /* \"#utility.yul\":14286:14295   */\n      dup1\n      dup3\n      add\n        /* \"#utility.yul\":14307:14317   */\n      dup1\n      dup3\n      gt\n        /* \"#utility.yul\":14304:14340   */\n      iszero\n      tag_119\n      jumpi\n        /* \"#utility.yul\":14320:14338   */\n      tag_119\n      tag_383\n      jump\t// in\n        /* \"#utility.yul\":14351:14519   */\n    tag_281:\n        /* \"#utility.yul\":14424:14433   */\n      dup1\n      dup3\n      mul\n        /* \"#utility.yul\":14455:14464   */\n      dup2\n      iszero\n        /* \"#utility.yul\":14472:14487   */\n      dup3\n      dup3\n      div\n        /* \"#utility.yul\":14466:14488   */\n      dup5\n      eq\n        /* \"#utility.yul\":14452:14489   */\n      or\n        /* \"#utility.yul\":14442:14513   */\n      tag_119\n      jumpi\n        /* \"#utility.yul\":14493:14511   */\n      tag_119\n      tag_383\n      jump\t// in\n        /* \"#utility.yul\":14524:14741   */\n    tag_283:\n        /* \"#utility.yul\":14564:14565   */\n      0x00\n        /* \"#utility.yul\":14590:14591   */\n      dup3\n        /* \"#utility.yul\":14580:14712   */\n      tag_490\n      jumpi\n        /* \"#utility.yul\":14634:14644   */\n      0x4e487b71\n        /* \"#utility.yul\":14629:14632   */\n      0xe0\n        /* \"#utility.yul\":14625:14645   */\n      shl\n        /* \"#utility.yul\":14622:14623   */\n      0x00\n        /* \"#utility.yul\":14615:14646   */\n      mstore\n        /* \"#utility.yul\":14669:14673   */\n      0x12\n        /* \"#utility.yul\":14666:14667   */\n      0x04\n        /* \"#utility.yul\":14659:14674   */\n      mstore\n        /* \"#utility.yul\":14697:14701   */\n      0x24\n        /* \"#utility.yul\":14694:14695   */\n      0x00\n        /* \"#utility.yul\":14687:14702   */\n      revert\n        /* \"#utility.yul\":14580:14712   */\n    tag_490:\n      pop\n        /* \"#utility.yul\":14726:14735   */\n      div\n      swap1\n        /* \"#utility.yul\":14524:14741   */\n      jump\t// out\n        /* \"#utility.yul\":15225:15437   */\n    tag_384:\n        /* \"#utility.yul\":15267:15270   */\n      0x00\n        /* \"#utility.yul\":15305:15310   */\n      dup2\n        /* \"#utility.yul\":15299:15311   */\n      mload\n        /* \"#utility.yul\":15349:15355   */\n      dup1\n        /* \"#utility.yul\":15342:15346   */\n      0x20\n        /* \"#utility.yul\":15335:15340   */\n      dup5\n        /* \"#utility.yul\":15331:15347   */\n      add\n        /* \"#utility.yul\":15326:15329   */\n      dup6\n        /* \"#utility.yul\":15320:15356   */\n      mcopy\n        /* \"#utility.yul\":15411:15412   */\n      0x00\n        /* \"#utility.yul\":15375:15391   */\n      swap4\n      add\n        /* \"#utility.yul\":15400:15413   */\n      swap3\n      dup4\n      mstore\n      pop\n        /* \"#utility.yul\":15375:15391   */\n      swap1\n      swap2\n        /* \"#utility.yul\":15225:15437   */\n      swap1\n      pop\n      jump\t// out\n        /* \"#utility.yul\":15442:16037   */\n    tag_349:\n        /* \"#utility.yul\":15853:15878   */\n      0x416363657373436f6e74726f6c3a206163636f756e7420000000000000000000\n        /* \"#utility.yul\":15848:15851   */\n      dup2\n        /* \"#utility.yul\":15841:15879   */\n      mstore\n        /* \"#utility.yul\":15823:15826   */\n      0x00\n        /* \"#utility.yul\":15898:15937   */\n      tag_494\n        /* \"#utility.yul\":15933:15935   */\n      0x17\n        /* \"#utility.yul\":15928:15931   */\n      dup4\n        /* \"#utility.yul\":15924:15936   */\n      add\n        /* \"#utility.yul\":15916:15922   */\n      dup6\n        /* \"#utility.yul\":15898:15937   */\n      tag_384\n      jump\t// in\n    tag_494:\n      shl(0x7d, 0x01034b99036b4b9b9b4b733903937b6329)\n        /* \"#utility.yul\":15953:15955   */\n      dup2\n        /* \"#utility.yul\":15946:15977   */\n      mstore\n        /* \"#utility.yul\":15993:16031   */\n      tag_495\n        /* \"#utility.yul\":16027:16029   */\n      0x11\n        /* \"#utility.yul\":16023:16025   */\n      dup3\n        /* \"#utility.yul\":16019:16030   */\n      add\n        /* \"#utility.yul\":16011:16017   */\n      dup6\n        /* \"#utility.yul\":15993:16031   */\n      tag_384\n      jump\t// in\n    tag_495:\n        /* \"#utility.yul\":15986:16031   */\n      swap6\n        /* \"#utility.yul\":15442:16037   */\n      swap5\n      pop\n      pop\n      pop\n      pop\n      pop\n      jump\t// out\n        /* \"#utility.yul\":16042:16460   */\n    tag_351:\n        /* \"#utility.yul\":16191:16193   */\n      0x20\n        /* \"#utility.yul\":16180:16189   */\n      dup2\n        /* \"#utility.yul\":16173:16194   */\n      mstore\n        /* \"#utility.yul\":16154:16158   */\n      0x00\n        /* \"#utility.yul\":16223:16229   */\n      dup3\n        /* \"#utility.yul\":16217:16230   */\n      mload\n        /* \"#utility.yul\":16266:16272   */\n      dup1\n        /* \"#utility.yul\":16261:16263   */\n      0x20\n        /* \"#utility.yul\":16250:16259   */\n      dup5\n        /* \"#utility.yul\":16246:16264   */\n      add\n        /* \"#utility.yul\":16239:16273   */\n      mstore\n        /* \"#utility.yul\":16325:16331   */\n      dup1\n        /* \"#utility.yul\":16320:16322   */\n      0x20\n        /* \"#utility.yul\":16312:16318   */\n      dup6\n        /* \"#utility.yul\":16308:16323   */\n      add\n        /* \"#utility.yul\":16303:16305   */\n      0x40\n        /* \"#utility.yul\":16292:16301   */\n      dup6\n        /* \"#utility.yul\":16288:16306   */\n      add\n        /* \"#utility.yul\":16282:16332   */\n      mcopy\n        /* \"#utility.yul\":16381:16382   */\n      0x00\n        /* \"#utility.yul\":16376:16378   */\n      0x40\n        /* \"#utility.yul\":16367:16373   */\n      dup3\n        /* \"#utility.yul\":16356:16365   */\n      dup6\n        /* \"#utility.yul\":16352:16374   */\n      add\n        /* \"#utility.yul\":16348:16379   */\n      add\n        /* \"#utility.yul\":16341:16383   */\n      mstore\n        /* \"#utility.yul\":16451:16453   */\n      0x40\n        /* \"#utility.yul\":16444:16446   */\n      0x1f\n        /* \"#utility.yul\":16440:16447   */\n      not\n        /* \"#utility.yul\":16435:16437   */\n      0x1f\n        /* \"#utility.yul\":16427:16433   */\n      dup4\n        /* \"#utility.yul\":16423:16438   */\n      add\n        /* \"#utility.yul\":16419:16448   */\n      and\n        /* \"#utility.yul\":16408:16417   */\n      dup5\n        /* \"#utility.yul\":16404:16449   */\n      add\n        /* \"#utility.yul\":16400:16454   */\n      add\n        /* \"#utility.yul\":16392:16454   */\n      swap2\n      pop\n      pop\n        /* \"#utility.yul\":16042:16460   */\n      swap3\n      swap2\n      pop\n      pop\n      jump\t// out\n        /* \"#utility.yul\":16465:16601   */\n    tag_374:\n        /* \"#utility.yul\":16504:16507   */\n      0x00\n        /* \"#utility.yul\":16532:16537   */\n      dup2\n        /* \"#utility.yul\":16522:16561   */\n      tag_499\n      jumpi\n        /* \"#utility.yul\":16541:16559   */\n      tag_499\n      tag_383\n      jump\t// in\n    tag_499:\n      pop\n      not(0x00)\n        /* \"#utility.yul\":16577:16595   */\n      add\n      swap1\n        /* \"#utility.yul\":16465:16601   */\n      jump\t// out\n\n    auxdata: 0xa26469706673582212206ec0ea6189b6e8f6794c41ebfddd9989f218b9c7e2930f988b7abde03c029fae64736f6c634300081e0033\n}\n",
				"bytecode": {
					"linkReferences": {},
					"object": "60a060405234801561000f575f5ffd5b5060405161204338038061204383398101604081905261002e91610180565b6001600160a01b0381166080526100455f336100df565b61006f7fa451215b66f023bb76f9a9e7bc5c64156446b47b26061a8a32eaa319c45f695e336100df565b6040518060400160405280670de0b6b3a764000081526020016100966100db60201b60201c565b6001600160a01b039081169091529182165f90815260976020908152604090912082518155910151600190910180546001600160a01b031916919092161790556101ad565b3390565b5f8281526065602090815260408083206001600160a01b038516845290915290205460ff1661017c575f8281526065602090815260408083206001600160a01b03851684529091529020805460ff1916600117905561013b3390565b6001600160a01b0316816001600160a01b0316837f2f8788117e7eff1d82e926ec794901d17c78024a50270940304540a733656f0d60405160405180910390a45b5050565b5f60208284031215610190575f5ffd5b81516001600160a01b03811681146101a6575f5ffd5b9392505050565b608051611e5b6101e85f395f818161029f015281816102e701528181610aa201528181610d7f01528181610def015261110a0152611e5b5ff3fe608060405260043610610105575f3560e01c8063affa881711610092578063d06ca61f11610062578063d06ca61f14610385578063d547741f146103b1578063dd4be683146103d0578063eb71f7e614610428578063fa1c631b14610447575f5ffd5b8063affa8817146102d9578063b6f9de951461030b578063cf0888aa1461031e578063d02641a014610351575f5ffd5b80635c11d795116100d85780635c11d795146101b957806388aa8bee146101d857806391d148541461025c578063a217fddf1461027b578063ad5c46481461028e575f5ffd5b806301ffc9a714610109578063248a9ca31461013d5780632f2ff15d1461017957806336568abe1461019a575b5f5ffd5b348015610114575f5ffd5b5061012861012336600461182f565b610466565b60405190151581526020015b60405180910390f35b348015610148575f5ffd5b5061016b610157366004611856565b5f9081526065602052604090206001015490565b604051908152602001610134565b348015610184575f5ffd5b50610198610193366004611888565b61049c565b005b3480156101a5575f5ffd5b506101986101b4366004611888565b6104c5565b3480156101c4575f5ffd5b506101986101d33660046118fa565b610548565b3480156101e3575f5ffd5b506102386101f2366004611967565b6040805180820182525f80825260209182018190526001600160a01b03938416815260978252829020825180840190935280548352600101549092169181019190915290565b60408051825181526020928301516001600160a01b03169281019290925201610134565b348015610267575f5ffd5b50610128610276366004611888565b610a76565b348015610286575f5ffd5b5061016b5f81565b348015610299575f5ffd5b506102c17f000000000000000000000000000000000000000000000000000000000000000081565b6040516001600160a01b039091168152602001610134565b3480156102e4575f5ffd5b507f00000000000000000000000000000000000000000000000000000000000000006102c1565b610198610319366004611980565b610aa0565b348015610329575f5ffd5b5061016b7fa451215b66f023bb76f9a9e7bc5c64156446b47b26061a8a32eaa319c45f695e81565b34801561035c575f5ffd5b5061016b61036b366004611967565b6001600160a01b03165f9081526097602052604090205490565b348015610390575f5ffd5b506103a461039f366004611aba565b610f61565b6040516101349190611afe565b3480156103bc575f5ffd5b506101986103cb366004611888565b61131c565b3480156103db575f5ffd5b5061040b6103ea366004611967565b60976020525f9081526040902080546001909101546001600160a01b031682565b604080519283526001600160a01b03909116602083015201610134565b348015610433575f5ffd5b50610198610442366004611b40565b611340565b348015610452575f5ffd5b50610198610461366004611c27565b6114b4565b5f6001600160e01b03198216637965db0b60e01b148061049657506301ffc9a760e01b6001600160e01b03198316145b92915050565b5f828152606560205260409020600101546104b68161152f565b6104c0838361153c565b505050565b6001600160a01b038116331461053a5760405162461bcd60e51b815260206004820152602f60248201527f416363657373436f6e74726f6c3a2063616e206f6e6c792072656e6f756e636560448201526e103937b632b9903337b91039b2b63360891b60648201526084015b60405180910390fd5b61054482826115c1565b5050565b428110156105935760405162461bcd60e51b8152602060048201526018602482015277155b9a5cddd85c158c949bdd5d195c8e881156141254915160421b6044820152606401610531565b5f6105d0878686808060200260200160405190810160405280939291908181526020018383602002808284375f92019190915250610f6192505050565b6001815181106105e2576105e2611c61565b602002602001015190505f811180156105fb5750858110155b6106175760405162461bcd60e51b815260040161053190611c75565b5f60975f8787600181811061062e5761062e611c61565b90506020020160208101906106439190611967565b6001600160a01b03908116825260208201929092526040015f9081206001015490911691508686828161067857610678611c61565b905060200201602081019061068d9190611967565b6001600160a01b031663dd62ed3e336040516001600160e01b031960e084901b1681526001600160a01b039091166004820152306024820152604401602060405180830381865afa1580156106e4573d5f5f3e3d5ffd5b505050506040513d601f19601f820116820180604052508101906107089190611cc0565b9050888110156107785760405162461bcd60e51b815260206004820152603560248201527f556e69737761705632526f757465723a20494e53554646494349454e545f414d60448201527427aaa72a2fa0a62627aba2a22faa27a5a2a72fa4a760591b6064820152608401610531565b5f8787600181811061078c5761078c611c61565b90506020020160208101906107a19190611967565b604051636eb1769f60e11b81526001600160a01b038581166004830152306024830152919091169063dd62ed3e90604401602060405180830381865afa1580156107ed573d5f5f3e3d5ffd5b505050506040513d601f19601f820116820180604052508101906108119190611cc0565b9050838110156108825760405162461bcd60e51b815260206004820152603660248201527f556e69737761705632526f757465723a20494e53554646494349454e545f414d60448201527513d5539517d0531313d5d15117d513d2d15397d3d55560521b6064820152608401610531565b87875f81811061089457610894611c61565b90506020020160208101906108a99190611967565b6001600160a01b03166323b872dd336040516001600160e01b031960e084901b1681526001600160a01b039091166004820152306024820152604481018d90526064016020604051808303815f875af1158015610908573d5f5f3e3d5ffd5b505050506040513d601f19601f8201168201806040525081019061092c9190611cd7565b5087875f81811061093f5761093f611c61565b90506020020160208101906109549190611967565b60405163a9059cbb60e01b81526001600160a01b038581166004830152602482018d9052919091169063a9059cbb906044016020604051808303815f875af11580156109a2573d5f5f3e3d5ffd5b505050506040513d601f19601f820116820180604052508101906109c69190611cd7565b50878760018181106109da576109da611c61565b90506020020160208101906109ef9190611967565b6040516323b872dd60e01b81526001600160a01b03858116600483015288811660248301526044820187905291909116906323b872dd906064016020604051808303815f875af1158015610a45573d5f5f3e3d5ffd5b505050506040513d601f19601f82011682018060405250810190610a699190611cd7565b5050505050505050505050565b5f9182526065602090815260408084206001600160a01b0393909316845291905290205460ff1690565b7f00000000000000000000000000000000000000000000000000000000000000006001600160a01b031684845f818110610adc57610adc611c61565b9050602002016020810190610af19190611967565b6001600160a01b031614610b475760405162461bcd60e51b815260206004820152601d60248201527f556e69737761705632526f757465723a20494e56414c49445f504154480000006044820152606401610531565b42811015610b925760405162461bcd60e51b8152602060048201526018602482015277155b9a5cddd85c158c949bdd5d195c8e881156141254915160421b6044820152606401610531565b5f3490505f610bd3828787808060200260200160405190810160405280939291908181526020018383602002808284375f92019190915250610f6192505050565b600181518110610be557610be5611c61565b602002602001015190505f81118015610bfe5750868110155b610c1a5760405162461bcd60e51b815260040161053190611c75565b5f60975f88886001818110610c3157610c31611c61565b9050602002016020810190610c469190611967565b6001600160a01b03166001600160a01b031681526020019081526020015f206001015f9054906101000a90046001600160a01b031690505f87876001818110610c9157610c91611c61565b9050602002016020810190610ca69190611967565b604051636eb1769f60e11b81526001600160a01b038481166004830152306024830152919091169063dd62ed3e90604401602060405180830381865afa158015610cf2573d5f5f3e3d5ffd5b505050506040513d601f19601f82011682018060405250810190610d169190611cc0565b905082811015610d7d5760405162461bcd60e51b815260206004820152602c60248201527f556e69737761705632526f757465723a20494e53554646494349454e545f414d60448201526b13d5539517d0531313d5d15160a21b6064820152608401610531565b7f00000000000000000000000000000000000000000000000000000000000000006001600160a01b031663d0e30db0856040518263ffffffff1660e01b81526004015f604051808303818588803b158015610dd6575f5ffd5b505af1158015610de8573d5f5f3e3d5ffd5b50505050507f00000000000000000000000000000000000000000000000000000000000000006001600160a01b031663a9059cbb89896001818110610e2f57610e2f611c61565b9050602002016020810190610e449190611967565b6040516001600160e01b031960e084901b1681526001600160a01b039091166004820152602481018790526044016020604051808303815f875af1158015610e8e573d5f5f3e3d5ffd5b505050506040513d601f19601f82011682018060405250810190610eb29190611cd7565b5087876001818110610ec657610ec6611c61565b9050602002016020810190610edb9190611967565b6040516323b872dd60e01b81526001600160a01b03848116600483015288811660248301526044820186905291909116906323b872dd906064016020604051808303815f875af1158015610f31573d5f5f3e3d5ffd5b505050506040513d601f19601f82011682018060405250810190610f559190611cd7565b50505050505050505050565b60605f8311610fd05760405162461bcd60e51b815260206004820152603560248201527f556e69737761705632526f757465723a20616d6f756e74496e2073686f756c646044820152742062652067726561746572207468616e207a65726f60581b6064820152608401610531565b60028251101561103d5760405162461bcd60e51b815260206004820152603260248201527f556e69737761705632526f757465723a207061746820636f6e7461696e73206160448201527174206c65617374203220656c656d656e747360701b6064820152608401610531565b815167ffffffffffffffff811115611057576110576119e1565b604051908082528060200260200182016040528015611080578160200160208202803683370190505b50905082815f8151811061109657611096611c61565b6020026020010181815250505f5b600183516110b29190611d0a565b8110156113155760975f846110c8846001611d1d565b815181106110d8576110d8611c61565b60200260200101516001600160a01b03166001600160a01b031681526020019081526020015f205f01545f146112e3577f00000000000000000000000000000000000000000000000000000000000000006001600160a01b0316835f8151811061114457611144611c61565b60200260200101516001600160a01b0316036111ee5760975f84611169846001611d1d565b8151811061117957611179611c61565b60200260200101516001600160a01b03166001600160a01b031681526020019081526020015f205f015484670de0b6b3a76400006111b79190611d30565b6111c19190611d47565b826111cd836001611d1d565b815181106111dd576111dd611c61565b60200260200101818152505061130d565b5f670de0b6b3a764000060975f865f8151811061120d5761120d611c61565b60200260200101516001600160a01b03166001600160a01b031681526020019081526020015f205f015486670de0b6b3a764000061124b9190611d30565b6112559190611d30565b61125f9190611d47565b905060975f85611270856001611d1d565b8151811061128057611280611c61565b60200260200101516001600160a01b03166001600160a01b031681526020019081526020015f205f0154816112b59190611d47565b836112c1846001611d1d565b815181106112d1576112d1611c61565b6020026020010181815250505061130d565b5f826112f0836001611d1d565b8151811061130057611300611c61565b6020026020010181815250505b6001016110a4565b5092915050565b5f828152606560205260409020600101546113368161152f565b6104c083836115c1565b7fa451215b66f023bb76f9a9e7bc5c64156446b47b26061a8a32eaa319c45f695e61136a8161152f565b601e845111156113f15760405162461bcd60e51b815260206004820152604660248201527f556e69737761705632526f757465723a20546f6b656e7320617272617920697360448201527f20746f6f206c6f6e672c2072656475636520746865206e756d626572206f6620606482015265746f6b656e7360d01b608482015260a401610531565b5f5b84518110156114ad57604051806040016040528084838151811061141957611419611c61565b6020026020010151815260200185838151811061143857611438611c61565b60200260200101516001600160a01b031681525060975f87848151811061146157611461611c61565b6020908102919091018101516001600160a01b0390811683528282019390935260409091015f2083518155920151600192830180546001600160a01b03191691909216179055016113f3565b5050505050565b7fa451215b66f023bb76f9a9e7bc5c64156446b47b26061a8a32eaa319c45f695e6114de8161152f565b506040805180820182529182526001600160a01b0392831660208084019182529484165f90815260979095529320905181559151600190920180546001600160a01b03191692909116919091179055565b6115398133611627565b50565b6115468282610a76565b610544575f8281526065602090815260408083206001600160a01b03851684529091529020805460ff1916600117905561157d3390565b6001600160a01b0316816001600160a01b0316837f2f8788117e7eff1d82e926ec794901d17c78024a50270940304540a733656f0d60405160405180910390a45050565b6115cb8282610a76565b15610544575f8281526065602090815260408083206001600160a01b0385168085529252808320805460ff1916905551339285917ff6391f5c32d9c69d2a47ea670b442974b53935d1edc7fd64eb21e047a839171b9190a45050565b6116318282610a76565b6105445761163e81611680565b611649836020611692565b60405160200161165a929190611d7d565b60408051601f198184030181529082905262461bcd60e51b825261053191600401611ddb565b60606104966001600160a01b03831660145b60605f6116a0836002611d30565b6116ab906002611d1d565b67ffffffffffffffff8111156116c3576116c36119e1565b6040519080825280601f01601f1916602001820160405280156116ed576020820181803683370190505b509050600360fc1b815f8151811061170757611707611c61565b60200101906001600160f81b03191690815f1a905350600f60fb1b8160018151811061173557611735611c61565b60200101906001600160f81b03191690815f1a9053505f611757846002611d30565b611762906001611d1d565b90505b60018111156117d9576f181899199a1a9b1b9c1cb0b131b232b360811b85600f166010811061179657611796611c61565b1a60f81b8282815181106117ac576117ac611c61565b60200101906001600160f81b03191690815f1a90535060049490941c936117d281611e10565b9050611765565b5083156118285760405162461bcd60e51b815260206004820181905260248201527f537472696e67733a20686578206c656e67746820696e73756666696369656e746044820152606401610531565b9392505050565b5f6020828403121561183f575f5ffd5b81356001600160e01b031981168114611828575f5ffd5b5f60208284031215611866575f5ffd5b5035919050565b80356001600160a01b0381168114611883575f5ffd5b919050565b5f5f60408385031215611899575f5ffd5b823591506118a96020840161186d565b90509250929050565b5f5f83601f8401126118c2575f5ffd5b50813567ffffffffffffffff8111156118d9575f5ffd5b6020830191508360208260051b85010111156118f3575f5ffd5b9250929050565b5f5f5f5f5f5f60a0878903121561190f575f5ffd5b8635955060208701359450604087013567ffffffffffffffff811115611933575f5ffd5b61193f89828a016118b2565b909550935061195290506060880161186d565b95989497509295919493608090920135925050565b5f60208284031215611977575f5ffd5b6118288261186d565b5f5f5f5f5f60808688031215611994575f5ffd5b85359450602086013567ffffffffffffffff8111156119b1575f5ffd5b6119bd888289016118b2565b90955093506119d090506040870161186d565b949793965091946060013592915050565b634e487b7160e01b5f52604160045260245ffd5b604051601f8201601f1916810167ffffffffffffffff81118282101715611a1e57611a1e6119e1565b604052919050565b5f67ffffffffffffffff821115611a3f57611a3f6119e1565b5060051b60200190565b5f82601f830112611a58575f5ffd5b8135611a6b611a6682611a26565b6119f5565b8082825260208201915060208360051b860101925085831115611a8c575f5ffd5b602085015b83811015611ab057611aa28161186d565b835260209283019201611a91565b5095945050505050565b5f5f60408385031215611acb575f5ffd5b82359150602083013567ffffffffffffffff811115611ae8575f5ffd5b611af485828601611a49565b9150509250929050565b602080825282518282018190525f918401906040840190835b81811015611b35578351835260209384019390920191600101611b17565b509095945050505050565b5f5f5f60608486031215611b52575f5ffd5b833567ffffffffffffffff811115611b68575f5ffd5b611b7486828701611a49565b935050602084013567ffffffffffffffff811115611b90575f5ffd5b611b9c86828701611a49565b925050604084013567ffffffffffffffff811115611bb8575f5ffd5b8401601f81018613611bc8575f5ffd5b8035611bd6611a6682611a26565b8082825260208201915060208360051b850101925088831115611bf7575f5ffd5b6020840193505b82841015611c19578335825260209384019390910190611bfe565b809450505050509250925092565b5f5f5f60608486031215611c39575f5ffd5b611c428461186d565b9250611c506020850161186d565b929592945050506040919091013590565b634e487b7160e01b5f52603260045260245ffd5b6020808252602b908201527f556e69737761705632526f757465723a20494e53554646494349454e545f4f5560408201526a1514155517d05353d5539560aa1b606082015260800190565b5f60208284031215611cd0575f5ffd5b5051919050565b5f60208284031215611ce7575f5ffd5b81518015158114611828575f5ffd5b634e487b7160e01b5f52601160045260245ffd5b8181038181111561049657610496611cf6565b8082018082111561049657610496611cf6565b808202811582820484141761049657610496611cf6565b5f82611d6157634e487b7160e01b5f52601260045260245ffd5b500490565b5f81518060208401855e5f93019283525090919050565b7f416363657373436f6e74726f6c3a206163636f756e742000000000000000000081525f611dae6017830185611d66565b7001034b99036b4b9b9b4b733903937b6329607d1b8152611dd26011820185611d66565b95945050505050565b602081525f82518060208401528060208501604085015e5f604082850101526040601f19601f83011684010191505092915050565b5f81611e1e57611e1e611cf6565b505f19019056fea26469706673582212206ec0ea6189b6e8f6794c41ebfddd9989f218b9c7e2930f988b7abde03c029fae64736f6c634300081e0033",
					"opcodes": "PUSH1 0xA0 PUSH1 0x40 MSTORE CALLVALUE DUP1 ISZERO PUSH2 0xF JUMPI PUSH0 PUSH0 REVERT JUMPDEST POP PUSH1 0x40 MLOAD PUSH2 0x2043 CODESIZE SUB DUP1 PUSH2 0x2043 DUP4 CODECOPY DUP2 ADD PUSH1 0x40 DUP2 SWAP1 MSTORE PUSH2 0x2E SWAP2 PUSH2 0x180 JUMP JUMPDEST PUSH1 0x1 PUSH1 0x1 PUSH1 0xA0 SHL SUB DUP2 AND PUSH1 0x80 MSTORE PUSH2 0x45 PUSH0 CALLER PUSH2 0xDF JUMP JUMPDEST PUSH2 0x6F PUSH32 0xA451215B66F023BB76F9A9E7BC5C64156446B47B26061A8A32EAA319C45F695E CALLER PUSH2 0xDF JUMP JUMPDEST PUSH1 0x40 MLOAD DUP1 PUSH1 0x40 ADD PUSH1 0x40 MSTORE DUP1 PUSH8 0xDE0B6B3A7640000 DUP2 MSTORE PUSH1 0x20 ADD PUSH2 0x96 PUSH2 0xDB PUSH1 0x20 SHL PUSH1 0x20 SHR JUMP JUMPDEST PUSH1 0x1 PUSH1 0x1 PUSH1 0xA0 SHL SUB SWAP1 DUP2 AND SWAP1 SWAP2 MSTORE SWAP2 DUP3 AND PUSH0 SWAP1 DUP2 MSTORE PUSH1 0x97 PUSH1 0x20 SWAP1 DUP2 MSTORE PUSH1 0x40 SWAP1 SWAP2 KECCAK256 DUP3 MLOAD DUP2 SSTORE SWAP2 ADD MLOAD PUSH1 0x1 SWAP1 SWAP2 ADD DUP1 SLOAD PUSH1 0x1 PUSH1 0x1 PUSH1 0xA0 SHL SUB NOT AND SWAP2 SWAP1 SWAP3 AND OR SWAP1 SSTORE PUSH2 0x1AD JUMP JUMPDEST CALLER SWAP1 JUMP JUMPDEST PUSH0 DUP3 DUP2 MSTORE PUSH1 0x65 PUSH1 0x20 SWAP1 DUP2 MSTORE PUSH1 0x40 DUP1 DUP4 KECCAK256 PUSH1 0x1 PUSH1 0x1 PUSH1 0xA0 SHL SUB DUP6 AND DUP5 MSTORE SWAP1 SWAP2 MSTORE SWAP1 KECCAK256 SLOAD PUSH1 0xFF AND PUSH2 0x17C JUMPI PUSH0 DUP3 DUP2 MSTORE PUSH1 0x65 PUSH1 0x20 SWAP1 DUP2 MSTORE PUSH1 0x40 DUP1 DUP4 KECCAK256 PUSH1 0x1 PUSH1 0x1 PUSH1 0xA0 SHL SUB DUP6 AND DUP5 MSTORE SWAP1 SWAP2 MSTORE SWAP1 KECCAK256 DUP1 SLOAD PUSH1 0xFF NOT AND PUSH1 0x1 OR SWAP1 SSTORE PUSH2 0x13B CALLER SWAP1 JUMP JUMPDEST PUSH1 0x1 PUSH1 0x1 PUSH1 0xA0 SHL SUB AND DUP2 PUSH1 0x1 PUSH1 0x1 PUSH1 0xA0 SHL SUB AND DUP4 PUSH32 0x2F8788117E7EFF1D82E926EC794901D17C78024A50270940304540A733656F0D PUSH1 0x40 MLOAD PUSH1 0x40 MLOAD DUP1 SWAP2 SUB SWAP1 LOG4 JUMPDEST POP POP JUMP JUMPDEST PUSH0 PUSH1 0x20 DUP3 DUP5 SUB SLT ISZERO PUSH2 0x190 JUMPI PUSH0 PUSH0 REVERT JUMPDEST DUP2 MLOAD PUSH1 0x1 PUSH1 0x1 PUSH1 0xA0 SHL SUB DUP2 AND DUP2 EQ PUSH2 0x1A6 JUMPI PUSH0 PUSH0 REVERT JUMPDEST SWAP4 SWAP3 POP POP POP JUMP JUMPDEST PUSH1 0x80 MLOAD PUSH2 0x1E5B PUSH2 0x1E8 PUSH0 CODECOPY PUSH0 DUP2 DUP2 PUSH2 0x29F ADD MSTORE DUP2 DUP2 PUSH2 0x2E7 ADD MSTORE DUP2 DUP2 PUSH2 0xAA2 ADD MSTORE DUP2 DUP2 PUSH2 0xD7F ADD MSTORE DUP2 DUP2 PUSH2 0xDEF ADD MSTORE PUSH2 0x110A ADD MSTORE PUSH2 0x1E5B PUSH0 RETURN INVALID PUSH1 0x80 PUSH1 0x40 MSTORE PUSH1 0x4 CALLDATASIZE LT PUSH2 0x105 JUMPI PUSH0 CALLDATALOAD PUSH1 0xE0 SHR DUP1 PUSH4 0xAFFA8817 GT PUSH2 0x92 JUMPI DUP1 PUSH4 0xD06CA61F GT PUSH2 0x62 JUMPI DUP1 PUSH4 0xD06CA61F EQ PUSH2 0x385 JUMPI DUP1 PUSH4 0xD547741F EQ PUSH2 0x3B1 JUMPI DUP1 PUSH4 0xDD4BE683 EQ PUSH2 0x3D0 JUMPI DUP1 PUSH4 0xEB71F7E6 EQ PUSH2 0x428 JUMPI DUP1 PUSH4 0xFA1C631B EQ PUSH2 0x447 JUMPI PUSH0 PUSH0 REVERT JUMPDEST DUP1 PUSH4 0xAFFA8817 EQ PUSH2 0x2D9 JUMPI DUP1 PUSH4 0xB6F9DE95 EQ PUSH2 0x30B JUMPI DUP1 PUSH4 0xCF0888AA EQ PUSH2 0x31E JUMPI DUP1 PUSH4 0xD02641A0 EQ PUSH2 0x351 JUMPI PUSH0 PUSH0 REVERT JUMPDEST DUP1 PUSH4 0x5C11D795 GT PUSH2 0xD8 JUMPI DUP1 PUSH4 0x5C11D795 EQ PUSH2 0x1B9 JUMPI DUP1 PUSH4 0x88AA8BEE EQ PUSH2 0x1D8 JUMPI DUP1 PUSH4 0x91D14854 EQ PUSH2 0x25C JUMPI DUP1 PUSH4 0xA217FDDF EQ PUSH2 0x27B JUMPI DUP1 PUSH4 0xAD5C4648 EQ PUSH2 0x28E JUMPI PUSH0 PUSH0 REVERT JUMPDEST DUP1 PUSH4 0x1FFC9A7 EQ PUSH2 0x109 JUMPI DUP1 PUSH4 0x248A9CA3 EQ PUSH2 0x13D JUMPI DUP1 PUSH4 0x2F2FF15D EQ PUSH2 0x179 JUMPI DUP1 PUSH4 0x36568ABE EQ PUSH2 0x19A JUMPI JUMPDEST PUSH0 PUSH0 REVERT JUMPDEST CALLVALUE DUP1 ISZERO PUSH2 0x114 JUMPI PUSH0 PUSH0 REVERT JUMPDEST POP PUSH2 0x128 PUSH2 0x123 CALLDATASIZE PUSH1 0x4 PUSH2 0x182F JUMP JUMPDEST PUSH2 0x466 JUMP JUMPDEST PUSH1 0x40 MLOAD SWAP1 ISZERO ISZERO DUP2 MSTORE PUSH1 0x20 ADD JUMPDEST PUSH1 0x40 MLOAD DUP1 SWAP2 SUB SWAP1 RETURN JUMPDEST CALLVALUE DUP1 ISZERO PUSH2 0x148 JUMPI PUSH0 PUSH0 REVERT JUMPDEST POP PUSH2 0x16B PUSH2 0x157 CALLDATASIZE PUSH1 0x4 PUSH2 0x1856 JUMP JUMPDEST PUSH0 SWAP1 DUP2 MSTORE PUSH1 0x65 PUSH1 0x20 MSTORE PUSH1 0x40 SWAP1 KECCAK256 PUSH1 0x1 ADD SLOAD SWAP1 JUMP JUMPDEST PUSH1 0x40 MLOAD SWAP1 DUP2 MSTORE PUSH1 0x20 ADD PUSH2 0x134 JUMP JUMPDEST CALLVALUE DUP1 ISZERO PUSH2 0x184 JUMPI PUSH0 PUSH0 REVERT JUMPDEST POP PUSH2 0x198 PUSH2 0x193 CALLDATASIZE PUSH1 0x4 PUSH2 0x1888 JUMP JUMPDEST PUSH2 0x49C JUMP JUMPDEST STOP JUMPDEST CALLVALUE DUP1 ISZERO PUSH2 0x1A5 JUMPI PUSH0 PUSH0 REVERT JUMPDEST POP PUSH2 0x198 PUSH2 0x1B4 CALLDATASIZE PUSH1 0x4 PUSH2 0x1888 JUMP JUMPDEST PUSH2 0x4C5 JUMP JUMPDEST CALLVALUE DUP1 ISZERO PUSH2 0x1C4 JUMPI PUSH0 PUSH0 REVERT JUMPDEST POP PUSH2 0x198 PUSH2 0x1D3 CALLDATASIZE PUSH1 0x4 PUSH2 0x18FA JUMP JUMPDEST PUSH2 0x548 JUMP JUMPDEST CALLVALUE DUP1 ISZERO PUSH2 0x1E3 JUMPI PUSH0 PUSH0 REVERT JUMPDEST POP PUSH2 0x238 PUSH2 0x1F2 CALLDATASIZE PUSH1 0x4 PUSH2 0x1967 JUMP JUMPDEST PUSH1 0x40 DUP1 MLOAD DUP1 DUP3 ADD DUP3 MSTORE PUSH0 DUP1 DUP3 MSTORE PUSH1 0x20 SWAP2 DUP3 ADD DUP2 SWAP1 MSTORE PUSH1 0x1 PUSH1 0x1 PUSH1 0xA0 SHL SUB SWAP4 DUP5 AND DUP2 MSTORE PUSH1 0x97 DUP3 MSTORE DUP3 SWAP1 KECCAK256 DUP3 MLOAD DUP1 DUP5 ADD SWAP1 SWAP4 MSTORE DUP1 SLOAD DUP4 MSTORE PUSH1 0x1 ADD SLOAD SWAP1 SWAP3 AND SWAP2 DUP2 ADD SWAP2 SWAP1 SWAP2 MSTORE SWAP1 JUMP JUMPDEST PUSH1 0x40 DUP1 MLOAD DUP3 MLOAD DUP2 MSTORE PUSH1 0x20 SWAP3 DUP4 ADD MLOAD PUSH1 0x1 PUSH1 0x1 PUSH1 0xA0 SHL SUB AND SWAP3 DUP2 ADD SWAP3 SWAP1 SWAP3 MSTORE ADD PUSH2 0x134 JUMP JUMPDEST CALLVALUE DUP1 ISZERO PUSH2 0x267 JUMPI PUSH0 PUSH0 REVERT JUMPDEST POP PUSH2 0x128 PUSH2 0x276 CALLDATASIZE PUSH1 0x4 PUSH2 0x1888 JUMP JUMPDEST PUSH2 0xA76 JUMP JUMPDEST CALLVALUE DUP1 ISZERO PUSH2 0x286 JUMPI PUSH0 PUSH0 REVERT JUMPDEST POP PUSH2 0x16B PUSH0 DUP2 JUMP JUMPDEST CALLVALUE DUP1 ISZERO PUSH2 0x299 JUMPI PUSH0 PUSH0 REVERT JUMPDEST POP PUSH2 0x2C1 PUSH32 0x0 DUP2 JUMP JUMPDEST PUSH1 0x40 MLOAD PUSH1 0x1 PUSH1 0x1 PUSH1 0xA0 SHL SUB SWAP1 SWAP2 AND DUP2 MSTORE PUSH1 0x20 ADD PUSH2 0x134 JUMP JUMPDEST CALLVALUE DUP1 ISZERO PUSH2 0x2E4 JUMPI PUSH0 PUSH0 REVERT JUMPDEST POP PUSH32 0x0 PUSH2 0x2C1 JUMP JUMPDEST PUSH2 0x198 PUSH2 0x319 CALLDATASIZE PUSH1 0x4 PUSH2 0x1980 JUMP JUMPDEST PUSH2 0xAA0 JUMP JUMPDEST CALLVALUE DUP1 ISZERO PUSH2 0x329 JUMPI PUSH0 PUSH0 REVERT JUMPDEST POP PUSH2 0x16B PUSH32 0xA451215B66F023BB76F9A9E7BC5C64156446B47B26061A8A32EAA319C45F695E DUP2 JUMP JUMPDEST CALLVALUE DUP1 ISZERO PUSH2 0x35C JUMPI PUSH0 PUSH0 REVERT JUMPDEST POP PUSH2 0x16B PUSH2 0x36B CALLDATASIZE PUSH1 0x4 PUSH2 0x1967 JUMP JUMPDEST PUSH1 0x1 PUSH1 0x1 PUSH1 0xA0 SHL SUB AND PUSH0 SWAP1 DUP2 MSTORE PUSH1 0x97 PUSH1 0x20 MSTORE PUSH1 0x40 SWAP1 KECCAK256 SLOAD SWAP1 JUMP JUMPDEST CALLVALUE DUP1 ISZERO PUSH2 0x390 JUMPI PUSH0 PUSH0 REVERT JUMPDEST POP PUSH2 0x3A4 PUSH2 0x39F CALLDATASIZE PUSH1 0x4 PUSH2 0x1ABA JUMP JUMPDEST PUSH2 0xF61 JUMP JUMPDEST PUSH1 0x40 MLOAD PUSH2 0x134 SWAP2 SWAP1 PUSH2 0x1AFE JUMP JUMPDEST CALLVALUE DUP1 ISZERO PUSH2 0x3BC JUMPI PUSH0 PUSH0 REVERT JUMPDEST POP PUSH2 0x198 PUSH2 0x3CB CALLDATASIZE PUSH1 0x4 PUSH2 0x1888 JUMP JUMPDEST PUSH2 0x131C JUMP JUMPDEST CALLVALUE DUP1 ISZERO PUSH2 0x3DB JUMPI PUSH0 PUSH0 REVERT JUMPDEST POP PUSH2 0x40B PUSH2 0x3EA CALLDATASIZE PUSH1 0x4 PUSH2 0x1967 JUMP JUMPDEST PUSH1 0x97 PUSH1 0x20 MSTORE PUSH0 SWAP1 DUP2 MSTORE PUSH1 0x40 SWAP1 KECCAK256 DUP1 SLOAD PUSH1 0x1 SWAP1 SWAP2 ADD SLOAD PUSH1 0x1 PUSH1 0x1 PUSH1 0xA0 SHL SUB AND DUP3 JUMP JUMPDEST PUSH1 0x40 DUP1 MLOAD SWAP3 DUP4 MSTORE PUSH1 0x1 PUSH1 0x1 PUSH1 0xA0 SHL SUB SWAP1 SWAP2 AND PUSH1 0x20 DUP4 ADD MSTORE ADD PUSH2 0x134 JUMP JUMPDEST CALLVALUE DUP1 ISZERO PUSH2 0x433 JUMPI PUSH0 PUSH0 REVERT JUMPDEST POP PUSH2 0x198 PUSH2 0x442 CALLDATASIZE PUSH1 0x4 PUSH2 0x1B40 JUMP JUMPDEST PUSH2 0x1340 JUMP JUMPDEST CALLVALUE DUP1 ISZERO PUSH2 0x452 JUMPI PUSH0 PUSH0 REVERT JUMPDEST POP PUSH2 0x198 PUSH2 0x461 CALLDATASIZE PUSH1 0x4 PUSH2 0x1C27 JUMP JUMPDEST PUSH2 0x14B4 JUMP JUMPDEST PUSH0 PUSH1 0x1 PUSH1 0x1 PUSH1 0xE0 SHL SUB NOT DUP3 AND PUSH4 0x7965DB0B PUSH1 0xE0 SHL EQ DUP1 PUSH2 0x496 JUMPI POP PUSH4 0x1FFC9A7 PUSH1 0xE0 SHL PUSH1 0x1 PUSH1 0x1 PUSH1 0xE0 SHL SUB NOT DUP4 AND EQ JUMPDEST SWAP3 SWAP2 POP POP JUMP JUMPDEST PUSH0 DUP3 DUP2 MSTORE PUSH1 0x65 PUSH1 0x20 MSTORE PUSH1 0x40 SWAP1 KECCAK256 PUSH1 0x1 ADD SLOAD PUSH2 0x4B6 DUP2 PUSH2 0x152F JUMP JUMPDEST PUSH2 0x4C0 DUP4 DUP4 PUSH2 0x153C JUMP JUMPDEST POP POP POP JUMP JUMPDEST PUSH1 0x1 PUSH1 0x1 PUSH1 0xA0 SHL SUB DUP2 AND CALLER EQ PUSH2 0x53A JUMPI PUSH1 0x40 MLOAD PUSH3 0x461BCD PUSH1 0xE5 SHL DUP2 MSTORE PUSH1 0x20 PUSH1 0x4 DUP3 ADD MSTORE PUSH1 0x2F PUSH1 0x24 DUP3 ADD MSTORE PUSH32 0x416363657373436F6E74726F6C3A2063616E206F6E6C792072656E6F756E6365 PUSH1 0x44 DUP3 ADD MSTORE PUSH15 0x103937B632B9903337B91039B2B633 PUSH1 0x89 SHL PUSH1 0x64 DUP3 ADD MSTORE PUSH1 0x84 ADD JUMPDEST PUSH1 0x40 MLOAD DUP1 SWAP2 SUB SWAP1 REVERT JUMPDEST PUSH2 0x544 DUP3 DUP3 PUSH2 0x15C1 JUMP JUMPDEST POP POP JUMP JUMPDEST TIMESTAMP DUP2 LT ISZERO PUSH2 0x593 JUMPI PUSH1 0x40 MLOAD PUSH3 0x461BCD PUSH1 0xE5 SHL DUP2 MSTORE PUSH1 0x20 PUSH1 0x4 DUP3 ADD MSTORE PUSH1 0x18 PUSH1 0x24 DUP3 ADD MSTORE PUSH24 0x155B9A5CDDD85C158C949BDD5D195C8E8811561412549151 PUSH1 0x42 SHL PUSH1 0x44 DUP3 ADD MSTORE PUSH1 0x64 ADD PUSH2 0x531 JUMP JUMPDEST PUSH0 PUSH2 0x5D0 DUP8 DUP7 DUP7 DUP1 DUP1 PUSH1 0x20 MUL PUSH1 0x20 ADD PUSH1 0x40 MLOAD SWAP1 DUP2 ADD PUSH1 0x40 MSTORE DUP1 SWAP4 SWAP3 SWAP2 SWAP1 DUP2 DUP2 MSTORE PUSH1 0x20 ADD DUP4 DUP4 PUSH1 0x20 MUL DUP1 DUP3 DUP5 CALLDATACOPY PUSH0 SWAP3 ADD SWAP2 SWAP1 SWAP2 MSTORE POP PUSH2 0xF61 SWAP3 POP POP POP JUMP JUMPDEST PUSH1 0x1 DUP2 MLOAD DUP2 LT PUSH2 0x5E2 JUMPI PUSH2 0x5E2 PUSH2 0x1C61 JUMP JUMPDEST PUSH1 0x20 MUL PUSH1 0x20 ADD ADD MLOAD SWAP1 POP PUSH0 DUP2 GT DUP1 ISZERO PUSH2 0x5FB JUMPI POP DUP6 DUP2 LT ISZERO JUMPDEST PUSH2 0x617 JUMPI PUSH1 0x40 MLOAD PUSH3 0x461BCD PUSH1 0xE5 SHL DUP2 MSTORE PUSH1 0x4 ADD PUSH2 0x531 SWAP1 PUSH2 0x1C75 JUMP JUMPDEST PUSH0 PUSH1 0x97 PUSH0 DUP8 DUP8 PUSH1 0x1 DUP2 DUP2 LT PUSH2 0x62E JUMPI PUSH2 0x62E PUSH2 0x1C61 JUMP JUMPDEST SWAP1 POP PUSH1 0x20 MUL ADD PUSH1 0x20 DUP2 ADD SWAP1 PUSH2 0x643 SWAP2 SWAP1 PUSH2 0x1967 JUMP JUMPDEST PUSH1 0x1 PUSH1 0x1 PUSH1 0xA0 SHL SUB SWAP1 DUP2 AND DUP3 MSTORE PUSH1 0x20 DUP3 ADD SWAP3 SWAP1 SWAP3 MSTORE PUSH1 0x40 ADD PUSH0 SWAP1 DUP2 KECCAK256 PUSH1 0x1 ADD SLOAD SWAP1 SWAP2 AND SWAP2 POP DUP7 DUP7 DUP3 DUP2 PUSH2 0x678 JUMPI PUSH2 0x678 PUSH2 0x1C61 JUMP JUMPDEST SWAP1 POP PUSH1 0x20 MUL ADD PUSH1 0x20 DUP2 ADD SWAP1 PUSH2 0x68D SWAP2 SWAP1 PUSH2 0x1967 JUMP JUMPDEST PUSH1 0x1 PUSH1 0x1 PUSH1 0xA0 SHL SUB AND PUSH4 0xDD62ED3E CALLER PUSH1 0x40 MLOAD PUSH1 0x1 PUSH1 0x1 PUSH1 0xE0 SHL SUB NOT PUSH1 0xE0 DUP5 SWAP1 SHL AND DUP2 MSTORE PUSH1 0x1 PUSH1 0x1 PUSH1 0xA0 SHL SUB SWAP1 SWAP2 AND PUSH1 0x4 DUP3 ADD MSTORE ADDRESS PUSH1 0x24 DUP3 ADD MSTORE PUSH1 0x44 ADD PUSH1 0x20 PUSH1 0x40 MLOAD DUP1 DUP4 SUB DUP2 DUP7 GAS STATICCALL ISZERO DUP1 ISZERO PUSH2 0x6E4 JUMPI RETURNDATASIZE PUSH0 PUSH0 RETURNDATACOPY RETURNDATASIZE PUSH0 REVERT JUMPDEST POP POP POP POP PUSH1 0x40 MLOAD RETURNDATASIZE PUSH1 0x1F NOT PUSH1 0x1F DUP3 ADD AND DUP3 ADD DUP1 PUSH1 0x40 MSTORE POP DUP2 ADD SWAP1 PUSH2 0x708 SWAP2 SWAP1 PUSH2 0x1CC0 JUMP JUMPDEST SWAP1 POP DUP9 DUP2 LT ISZERO PUSH2 0x778 JUMPI PUSH1 0x40 MLOAD PUSH3 0x461BCD PUSH1 0xE5 SHL DUP2 MSTORE PUSH1 0x20 PUSH1 0x4 DUP3 ADD MSTORE PUSH1 0x35 PUSH1 0x24 DUP3 ADD MSTORE PUSH32 0x556E69737761705632526F757465723A20494E53554646494349454E545F414D PUSH1 0x44 DUP3 ADD MSTORE PUSH21 0x27AAA72A2FA0A62627ABA2A22FAA27A5A2A72FA4A7 PUSH1 0x59 SHL PUSH1 0x64 DUP3 ADD MSTORE PUSH1 0x84 ADD PUSH2 0x531 JUMP JUMPDEST PUSH0 DUP8 DUP8 PUSH1 0x1 DUP2 DUP2 LT PUSH2 0x78C JUMPI PUSH2 0x78C PUSH2 0x1C61 JUMP JUMPDEST SWAP1 POP PUSH1 0x20 MUL ADD PUSH1 0x20 DUP2 ADD SWAP1 PUSH2 0x7A1 SWAP2 SWAP1 PUSH2 0x1967 JUMP JUMPDEST PUSH1 0x40 MLOAD PUSH4 0x6EB1769F PUSH1 0xE1 SHL DUP2 MSTORE PUSH1 0x1 PUSH1 0x1 PUSH1 0xA0 SHL SUB DUP6 DUP2 AND PUSH1 0x4 DUP4 ADD MSTORE ADDRESS PUSH1 0x24 DUP4 ADD MSTORE SWAP2 SWAP1 SWAP2 AND SWAP1 PUSH4 0xDD62ED3E SWAP1 PUSH1 0x44 ADD PUSH1 0x20 PUSH1 0x40 MLOAD DUP1 DUP4 SUB DUP2 DUP7 GAS STATICCALL ISZERO DUP1 ISZERO PUSH2 0x7ED JUMPI RETURNDATASIZE PUSH0 PUSH0 RETURNDATACOPY RETURNDATASIZE PUSH0 REVERT JUMPDEST POP POP POP POP PUSH1 0x40 MLOAD RETURNDATASIZE PUSH1 0x1F NOT PUSH1 0x1F DUP3 ADD AND DUP3 ADD DUP1 PUSH1 0x40 MSTORE POP DUP2 ADD SWAP1 PUSH2 0x811 SWAP2 SWAP1 PUSH2 0x1CC0 JUMP JUMPDEST SWAP1 POP DUP4 DUP2 LT ISZERO PUSH2 0x882 JUMPI PUSH1 0x40 MLOAD PUSH3 0x461BCD PUSH1 0xE5 SHL DUP2 MSTORE PUSH1 0x20 PUSH1 0x4 DUP3 ADD MSTORE PUSH1 0x36 PUSH1 0x24 DUP3 ADD MSTORE PUSH32 0x556E69737761705632526F757465723A20494E53554646494349454E545F414D PUSH1 0x44 DUP3 ADD MSTORE PUSH22 0x13D5539517D0531313D5D15117D513D2D15397D3D555 PUSH1 0x52 SHL PUSH1 0x64 DUP3 ADD MSTORE PUSH1 0x84 ADD PUSH2 0x531 JUMP JUMPDEST DUP8 DUP8 PUSH0 DUP2 DUP2 LT PUSH2 0x894 JUMPI PUSH2 0x894 PUSH2 0x1C61 JUMP JUMPDEST SWAP1 POP PUSH1 0x20 MUL ADD PUSH1 0x20 DUP2 ADD SWAP1 PUSH2 0x8A9 SWAP2 SWAP1 PUSH2 0x1967 JUMP JUMPDEST PUSH1 0x1 PUSH1 0x1 PUSH1 0xA0 SHL SUB AND PUSH4 0x23B872DD CALLER PUSH1 0x40 MLOAD PUSH1 0x1 PUSH1 0x1 PUSH1 0xE0 SHL SUB NOT PUSH1 0xE0 DUP5 SWAP1 SHL AND DUP2 MSTORE PUSH1 0x1 PUSH1 0x1 PUSH1 0xA0 SHL SUB SWAP1 SWAP2 AND PUSH1 0x4 DUP3 ADD MSTORE ADDRESS PUSH1 0x24 DUP3 ADD MSTORE PUSH1 0x44 DUP2 ADD DUP14 SWAP1 MSTORE PUSH1 0x64 ADD PUSH1 0x20 PUSH1 0x40 MLOAD DUP1 DUP4 SUB DUP2 PUSH0 DUP8 GAS CALL ISZERO DUP1 ISZERO PUSH2 0x908 JUMPI RETURNDATASIZE PUSH0 PUSH0 RETURNDATACOPY RETURNDATASIZE PUSH0 REVERT JUMPDEST POP POP POP POP PUSH1 0x40 MLOAD RETURNDATASIZE PUSH1 0x1F NOT PUSH1 0x1F DUP3 ADD AND DUP3 ADD DUP1 PUSH1 0x40 MSTORE POP DUP2 ADD SWAP1 PUSH2 0x92C SWAP2 SWAP1 PUSH2 0x1CD7 JUMP JUMPDEST POP DUP8 DUP8 PUSH0 DUP2 DUP2 LT PUSH2 0x93F JUMPI PUSH2 0x93F PUSH2 0x1C61 JUMP JUMPDEST SWAP1 POP PUSH1 0x20 MUL ADD PUSH1 0x20 DUP2 ADD SWAP1 PUSH2 0x954 SWAP2 SWAP1 PUSH2 0x1967 JUMP JUMPDEST PUSH1 0x40 MLOAD PUSH4 0xA9059CBB PUSH1 0xE0 SHL DUP2 MSTORE PUSH1 0x1 PUSH1 0x1 PUSH1 0xA0 SHL SUB DUP6 DUP2 AND PUSH1 0x4 DUP4 ADD MSTORE PUSH1 0x24 DUP3 ADD DUP14 SWAP1 MSTORE SWAP2 SWAP1 SWAP2 AND SWAP1 PUSH4 0xA9059CBB SWAP1 PUSH1 0x44 ADD PUSH1 0x20 PUSH1 0x40 MLOAD DUP1 DUP4 SUB DUP2 PUSH0 DUP8 GAS CALL ISZERO DUP1 ISZERO PUSH2 0x9A2 JUMPI RETURNDATASIZE PUSH0 PUSH0 RETURNDATACOPY RETURNDATASIZE PUSH0 REVERT JUMPDEST POP POP POP POP PUSH1 0x40 MLOAD RETURNDATASIZE PUSH1 0x1F NOT PUSH1 0x1F DUP3 ADD AND DUP3 ADD DUP1 PUSH1 0x40 MSTORE POP DUP2 ADD SWAP1 PUSH2 0x9C6 SWAP2 SWAP1 PUSH2 0x1CD7 JUMP JUMPDEST POP DUP8 DUP8 PUSH1 0x1 DUP2 DUP2 LT PUSH2 0x9DA JUMPI PUSH2 0x9DA PUSH2 0x1C61 JUMP JUMPDEST SWAP1 POP PUSH1 0x20 MUL ADD PUSH1 0x20 DUP2 ADD SWAP1 PUSH2 0x9EF SWAP2 SWAP1 PUSH2 0x1967 JUMP JUMPDEST PUSH1 0x40 MLOAD PUSH4 0x23B872DD PUSH1 0xE0 SHL DUP2 MSTORE PUSH1 0x1 PUSH1 0x1 PUSH1 0xA0 SHL SUB DUP6 DUP2 AND PUSH1 0x4 DUP4 ADD MSTORE DUP9 DUP2 AND PUSH1 0x24 DUP4 ADD MSTORE PUSH1 0x44 DUP3 ADD DUP8 SWAP1 MSTORE SWAP2 SWAP1 SWAP2 AND SWAP1 PUSH4 0x23B872DD SWAP1 PUSH1 0x64 ADD PUSH1 0x20 PUSH1 0x40 MLOAD DUP1 DUP4 SUB DUP2 PUSH0 DUP8 GAS CALL ISZERO DUP1 ISZERO PUSH2 0xA45 JUMPI RETURNDATASIZE PUSH0 PUSH0 RETURNDATACOPY RETURNDATASIZE PUSH0 REVERT JUMPDEST POP POP POP POP PUSH1 0x40 MLOAD RETURNDATASIZE PUSH1 0x1F NOT PUSH1 0x1F DUP3 ADD AND DUP3 ADD DUP1 PUSH1 0x40 MSTORE POP DUP2 ADD SWAP1 PUSH2 0xA69 SWAP2 SWAP1 PUSH2 0x1CD7 JUMP JUMPDEST POP POP POP POP POP POP POP POP POP POP POP JUMP JUMPDEST PUSH0 SWAP2 DUP3 MSTORE PUSH1 0x65 PUSH1 0x20 SWAP1 DUP2 MSTORE PUSH1 0x40 DUP1 DUP5 KECCAK256 PUSH1 0x1 PUSH1 0x1 PUSH1 0xA0 SHL SUB SWAP4 SWAP1 SWAP4 AND DUP5 MSTORE SWAP2 SWAP1 MSTORE SWAP1 KECCAK256 SLOAD PUSH1 0xFF AND SWAP1 JUMP JUMPDEST PUSH32 0x0 PUSH1 0x1 PUSH1 0x1 PUSH1 0xA0 SHL SUB AND DUP5 DUP5 PUSH0 DUP2 DUP2 LT PUSH2 0xADC JUMPI PUSH2 0xADC PUSH2 0x1C61 JUMP JUMPDEST SWAP1 POP PUSH1 0x20 MUL ADD PUSH1 0x20 DUP2 ADD SWAP1 PUSH2 0xAF1 SWAP2 SWAP1 PUSH2 0x1967 JUMP JUMPDEST PUSH1 0x1 PUSH1 0x1 PUSH1 0xA0 SHL SUB AND EQ PUSH2 0xB47 JUMPI PUSH1 0x40 MLOAD PUSH3 0x461BCD PUSH1 0xE5 SHL DUP2 MSTORE PUSH1 0x20 PUSH1 0x4 DUP3 ADD MSTORE PUSH1 0x1D PUSH1 0x24 DUP3 ADD MSTORE PUSH32 0x556E69737761705632526F757465723A20494E56414C49445F50415448000000 PUSH1 0x44 DUP3 ADD MSTORE PUSH1 0x64 ADD PUSH2 0x531 JUMP JUMPDEST TIMESTAMP DUP2 LT ISZERO PUSH2 0xB92 JUMPI PUSH1 0x40 MLOAD PUSH3 0x461BCD PUSH1 0xE5 SHL DUP2 MSTORE PUSH1 0x20 PUSH1 0x4 DUP3 ADD MSTORE PUSH1 0x18 PUSH1 0x24 DUP3 ADD MSTORE PUSH24 0x155B9A5CDDD85C158C949BDD5D195C8E8811561412549151 PUSH1 0x42 SHL PUSH1 0x44 DUP3 ADD MSTORE PUSH1 0x64 ADD PUSH2 0x531 JUMP JUMPDEST PUSH0 CALLVALUE SWAP1 POP PUSH0 PUSH2 0xBD3 DUP3 DUP8 DUP8 DUP1 DUP1 PUSH1 0x20 MUL PUSH1 0x20 ADD PUSH1 0x40 MLOAD SWAP1 DUP2 ADD PUSH1 0x40 MSTORE DUP1 SWAP4 SWAP3 SWAP2 SWAP1 DUP2 DUP2 MSTORE PUSH1 0x20 ADD DUP4 DUP4 PUSH1 0x20 MUL DUP1 DUP3 DUP5 CALLDATACOPY PUSH0 SWAP3 ADD SWAP2 SWAP1 SWAP2 MSTORE POP PUSH2 0xF61 SWAP3 POP POP POP JUMP JUMPDEST PUSH1 0x1 DUP2 MLOAD DUP2 LT PUSH2 0xBE5 JUMPI PUSH2 0xBE5 PUSH2 0x1C61 JUMP JUMPDEST PUSH1 0x20 MUL PUSH1 0x20 ADD ADD MLOAD SWAP1 POP PUSH0 DUP2 GT DUP1 ISZERO PUSH2 0xBFE JUMPI POP DUP7 DUP2 LT ISZERO JUMPDEST PUSH2 0xC1A JUMPI PUSH1 0x40 MLOAD PUSH3 0x461BCD PUSH1 0xE5 SHL DUP2 MSTORE PUSH1 0x4 ADD PUSH2 0x531 SWAP1 PUSH2 0x1C75 JUMP JUMPDEST PUSH0 PUSH1 0x97 PUSH0 DUP9 DUP9 PUSH1 0x1 DUP2 DUP2 LT PUSH2 0xC31 JUMPI PUSH2 0xC31 PUSH2 0x1C61 JUMP JUMPDEST SWAP1 POP PUSH1 0x20 MUL ADD PUSH1 0x20 DUP2 ADD SWAP1 PUSH2 0xC46 SWAP2 SWAP1 PUSH2 0x1967 JUMP JUMPDEST PUSH1 0x1 PUSH1 0x1 PUSH1 0xA0 SHL SUB AND PUSH1 0x1 PUSH1 0x1 PUSH1 0xA0 SHL SUB AND DUP2 MSTORE PUSH1 0x20 ADD SWAP1 DUP2 MSTORE PUSH1 0x20 ADD PUSH0 KECCAK256 PUSH1 0x1 ADD PUSH0 SWAP1 SLOAD SWAP1 PUSH2 0x100 EXP SWAP1 DIV PUSH1 0x1 PUSH1 0x1 PUSH1 0xA0 SHL SUB AND SWAP1 POP PUSH0 DUP8 DUP8 PUSH1 0x1 DUP2 DUP2 LT PUSH2 0xC91 JUMPI PUSH2 0xC91 PUSH2 0x1C61 JUMP JUMPDEST SWAP1 POP PUSH1 0x20 MUL ADD PUSH1 0x20 DUP2 ADD SWAP1 PUSH2 0xCA6 SWAP2 SWAP1 PUSH2 0x1967 JUMP JUMPDEST PUSH1 0x40 MLOAD PUSH4 0x6EB1769F PUSH1 0xE1 SHL DUP2 MSTORE PUSH1 0x1 PUSH1 0x1 PUSH1 0xA0 SHL SUB DUP5 DUP2 AND PUSH1 0x4 DUP4 ADD MSTORE ADDRESS PUSH1 0x24 DUP4 ADD MSTORE SWAP2 SWAP1 SWAP2 AND SWAP1 PUSH4 0xDD62ED3E SWAP1 PUSH1 0x44 ADD PUSH1 0x20 PUSH1 0x40 MLOAD DUP1 DUP4 SUB DUP2 DUP7 GAS STATICCALL ISZERO DUP1 ISZERO PUSH2 0xCF2 JUMPI RETURNDATASIZE PUSH0 PUSH0 RETURNDATACOPY RETURNDATASIZE PUSH0 REVERT JUMPDEST POP POP POP POP PUSH1 0x40 MLOAD RETURNDATASIZE PUSH1 0x1F NOT PUSH1 0x1F DUP3 ADD AND DUP3 ADD DUP1 PUSH1 0x40 MSTORE POP DUP2 ADD SWAP1 PUSH2 0xD16 SWAP2 SWAP1 PUSH2 0x1CC0 JUMP JUMPDEST SWAP1 POP DUP3 DUP2 LT ISZERO PUSH2 0xD7D JUMPI PUSH1 0x40 MLOAD PUSH3 0x461BCD PUSH1 0xE5 SHL DUP2 MSTORE PUSH1 0x20 PUSH1 0x4 DUP3 ADD MSTORE PUSH1 0x2C PUSH1 0x24 DUP3 ADD MSTORE PUSH32 0x556E69737761705632526F757465723A20494E53554646494349454E545F414D PUSH1 0x44 DUP3 ADD MSTORE PUSH12 0x13D5539517D0531313D5D151 PUSH1 0xA2 SHL PUSH1 0x64 DUP3 ADD MSTORE PUSH1 0x84 ADD PUSH2 0x531 JUMP JUMPDEST PUSH32 0x0 PUSH1 0x1 PUSH1 0x1 PUSH1 0xA0 SHL SUB AND PUSH4 0xD0E30DB0 DUP6 PUSH1 0x40 MLOAD DUP3 PUSH4 0xFFFFFFFF AND PUSH1 0xE0 SHL DUP2 MSTORE PUSH1 0x4 ADD PUSH0 PUSH1 0x40 MLOAD DUP1 DUP4 SUB DUP2 DUP6 DUP9 DUP1 EXTCODESIZE ISZERO DUP1 ISZERO PUSH2 0xDD6 JUMPI PUSH0 PUSH0 REVERT JUMPDEST POP GAS CALL ISZERO DUP1 ISZERO PUSH2 0xDE8 JUMPI RETURNDATASIZE PUSH0 PUSH0 RETURNDATACOPY RETURNDATASIZE PUSH0 REVERT JUMPDEST POP POP POP POP POP PUSH32 0x0 PUSH1 0x1 PUSH1 0x1 PUSH1 0xA0 SHL SUB AND PUSH4 0xA9059CBB DUP10 DUP10 PUSH1 0x1 DUP2 DUP2 LT PUSH2 0xE2F JUMPI PUSH2 0xE2F PUSH2 0x1C61 JUMP JUMPDEST SWAP1 POP PUSH1 0x20 MUL ADD PUSH1 0x20 DUP2 ADD SWAP1 PUSH2 0xE44 SWAP2 SWAP1 PUSH2 0x1967 JUMP JUMPDEST PUSH1 0x40 MLOAD PUSH1 0x1 PUSH1 0x1 PUSH1 0xE0 SHL SUB NOT PUSH1 0xE0 DUP5 SWAP1 SHL AND DUP2 MSTORE PUSH1 0x1 PUSH1 0x1 PUSH1 0xA0 SHL SUB SWAP1 SWAP2 AND PUSH1 0x4 DUP3 ADD MSTORE PUSH1 0x24 DUP2 ADD DUP8 SWAP1 MSTORE PUSH1 0x44 ADD PUSH1 0x20 PUSH1 0x40 MLOAD DUP1 DUP4 SUB DUP2 PUSH0 DUP8 GAS CALL ISZERO DUP1 ISZERO PUSH2 0xE8E JUMPI RETURNDATASIZE PUSH0 PUSH0 RETURNDATACOPY RETURNDATASIZE PUSH0 REVERT JUMPDEST POP POP POP POP PUSH1 0x40 MLOAD RETURNDATASIZE PUSH1 0x1F NOT PUSH1 0x1F DUP3 ADD AND DUP3 ADD DUP1 PUSH1 0x40 MSTORE POP DUP2 ADD SWAP1 PUSH2 0xEB2 SWAP2 SWAP1 PUSH2 0x1CD7 JUMP JUMPDEST POP DUP8 DUP8 PUSH1 0x1 DUP2 DUP2 LT PUSH2 0xEC6 JUMPI PUSH2 0xEC6 PUSH2 0x1C61 JUMP JUMPDEST SWAP1 POP PUSH1 0x20 MUL ADD PUSH1 0x20 DUP2 ADD SWAP1 PUSH2 0xEDB SWAP2 SWAP1 PUSH2 0x1967 JUMP JUMPDEST PUSH1 0x40 MLOAD PUSH4 0x23B872DD PUSH1 0xE0 SHL DUP2 MSTORE PUSH1 0x1 PUSH1 0x1 PUSH1 0xA0 SHL SUB DUP5 DUP2 AND PUSH1 0x4 DUP4 ADD MSTORE DUP9 DUP2 AND PUSH1 0x24 DUP4 ADD MSTORE PUSH1 0x44 DUP3 ADD DUP7 SWAP1 MSTORE SWAP2 SWAP1 SWAP2 AND SWAP1 PUSH4 0x23B872DD SWAP1 PUSH1 0x64 ADD PUSH1 0x20 PUSH1 0x40 MLOAD DUP1 DUP4 SUB DUP2 PUSH0 DUP8 GAS CALL ISZERO DUP1 ISZERO PUSH2 0xF31 JUMPI RETURNDATASIZE PUSH0 PUSH0 RETURNDATACOPY RETURNDATASIZE PUSH0 REVERT JUMPDEST POP POP POP POP PUSH1 0x40 MLOAD RETURNDATASIZE PUSH1 0x1F NOT PUSH1 0x1F DUP3 ADD AND DUP3 ADD DUP1 PUSH1 0x40 MSTORE POP DUP2 ADD SWAP1 PUSH2 0xF55 SWAP2 SWAP1 PUSH2 0x1CD7 JUMP JUMPDEST POP POP POP POP POP POP POP POP POP POP JUMP JUMPDEST PUSH1 0x60 PUSH0 DUP4 GT PUSH2 0xFD0 JUMPI PUSH1 0x40 MLOAD PUSH3 0x461BCD PUSH1 0xE5 SHL DUP2 MSTORE PUSH1 0x20 PUSH1 0x4 DUP3 ADD MSTORE PUSH1 0x35 PUSH1 0x24 DUP3 ADD MSTORE PUSH32 0x556E69737761705632526F757465723A20616D6F756E74496E2073686F756C64 PUSH1 0x44 DUP3 ADD MSTORE PUSH21 0x2062652067726561746572207468616E207A65726F PUSH1 0x58 SHL PUSH1 0x64 DUP3 ADD MSTORE PUSH1 0x84 ADD PUSH2 0x531 JUMP JUMPDEST PUSH1 0x2 DUP3 MLOAD LT ISZERO PUSH2 0x103D JUMPI PUSH1 0x40 MLOAD PUSH3 0x461BCD PUSH1 0xE5 SHL DUP2 MSTORE PUSH1 0x20 PUSH1 0x4 DUP3 ADD MSTORE PUSH1 0x32 PUSH1 0x24 DUP3 ADD MSTORE PUSH32 0x556E69737761705632526F757465723A207061746820636F6E7461696E732061 PUSH1 0x44 DUP3 ADD MSTORE PUSH18 0x74206C65617374203220656C656D656E7473 PUSH1 0x70 SHL PUSH1 0x64 DUP3 ADD MSTORE PUSH1 0x84 ADD PUSH2 0x531 JUMP JUMPDEST DUP2 MLOAD PUSH8 0xFFFFFFFFFFFFFFFF DUP2 GT ISZERO PUSH2 0x1057 JUMPI PUSH2 0x1057 PUSH2 0x19E1 JUMP JUMPDEST PUSH1 0x40 MLOAD SWAP1 DUP1 DUP3 MSTORE DUP1 PUSH1 0x20 MUL PUSH1 0x20 ADD DUP3 ADD PUSH1 0x40 MSTORE DUP1 ISZERO PUSH2 0x1080 JUMPI DUP2 PUSH1 0x20 ADD PUSH1 0x20 DUP3 MUL DUP1 CALLDATASIZE DUP4 CALLDATACOPY ADD SWAP1 POP JUMPDEST POP SWAP1 POP DUP3 DUP2 PUSH0 DUP2 MLOAD DUP2 LT PUSH2 0x1096 JUMPI PUSH2 0x1096 PUSH2 0x1C61 JUMP JUMPDEST PUSH1 0x20 MUL PUSH1 0x20 ADD ADD DUP2 DUP2 MSTORE POP POP PUSH0 JUMPDEST PUSH1 0x1 DUP4 MLOAD PUSH2 0x10B2 SWAP2 SWAP1 PUSH2 0x1D0A JUMP JUMPDEST DUP2 LT ISZERO PUSH2 0x1315 JUMPI PUSH1 0x97 PUSH0 DUP5 PUSH2 0x10C8 DUP5 PUSH1 0x1 PUSH2 0x1D1D JUMP JUMPDEST DUP2 MLOAD DUP2 LT PUSH2 0x10D8 JUMPI PUSH2 0x10D8 PUSH2 0x1C61 JUMP JUMPDEST PUSH1 0x20 MUL PUSH1 0x20 ADD ADD MLOAD PUSH1 0x1 PUSH1 0x1 PUSH1 0xA0 SHL SUB AND PUSH1 0x1 PUSH1 0x1 PUSH1 0xA0 SHL SUB AND DUP2 MSTORE PUSH1 0x20 ADD SWAP1 DUP2 MSTORE PUSH1 0x20 ADD PUSH0 KECCAK256 PUSH0 ADD SLOAD PUSH0 EQ PUSH2 0x12E3 JUMPI PUSH32 0x0 PUSH1 0x1 PUSH1 0x1 PUSH1 0xA0 SHL SUB AND DUP4 PUSH0 DUP2 MLOAD DUP2 LT PUSH2 0x1144 JUMPI PUSH2 0x1144 PUSH2 0x1C61 JUMP JUMPDEST PUSH1 0x20 MUL PUSH1 0x20 ADD ADD MLOAD PUSH1 0x1 PUSH1 0x1 PUSH1 0xA0 SHL SUB AND SUB PUSH2 0x11EE JUMPI PUSH1 0x97 PUSH0 DUP5 PUSH2 0x1169 DUP5 PUSH1 0x1 PUSH2 0x1D1D JUMP JUMPDEST DUP2 MLOAD DUP2 LT PUSH2 0x1179 JUMPI PUSH2 0x1179 PUSH2 0x1C61 JUMP JUMPDEST PUSH1 0x20 MUL PUSH1 0x20 ADD ADD MLOAD PUSH1 0x1 PUSH1 0x1 PUSH1 0xA0 SHL SUB AND PUSH1 0x1 PUSH1 0x1 PUSH1 0xA0 SHL SUB AND DUP2 MSTORE PUSH1 0x20 ADD SWAP1 DUP2 MSTORE PUSH1 0x20 ADD PUSH0 KECCAK256 PUSH0 ADD SLOAD DUP5 PUSH8 0xDE0B6B3A7640000 PUSH2 0x11B7 SWAP2 SWAP1 PUSH2 0x1D30 JUMP JUMPDEST PUSH2 0x11C1 SWAP2 SWAP1 PUSH2 0x1D47 JUMP JUMPDEST DUP3 PUSH2 0x11CD DUP4 PUSH1 0x1 PUSH2 0x1D1D JUMP JUMPDEST DUP2 MLOAD DUP2 LT PUSH2 0x11DD JUMPI PUSH2 0x11DD PUSH2 0x1C61 JUMP JUMPDEST PUSH1 0x20 MUL PUSH1 0x20 ADD ADD DUP2 DUP2 MSTORE POP POP PUSH2 0x130D JUMP JUMPDEST PUSH0 PUSH8 0xDE0B6B3A7640000 PUSH1 0x97 PUSH0 DUP7 PUSH0 DUP2 MLOAD DUP2 LT PUSH2 0x120D JUMPI PUSH2 0x120D PUSH2 0x1C61 JUMP JUMPDEST PUSH1 0x20 MUL PUSH1 0x20 ADD ADD MLOAD PUSH1 0x1 PUSH1 0x1 PUSH1 0xA0 SHL SUB AND PUSH1 0x1 PUSH1 0x1 PUSH1 0xA0 SHL SUB AND DUP2 MSTORE PUSH1 0x20 ADD SWAP1 DUP2 MSTORE PUSH1 0x20 ADD PUSH0 KECCAK256 PUSH0 ADD SLOAD DUP7 PUSH8 0xDE0B6B3A7640000 PUSH2 0x124B SWAP2 SWAP1 PUSH2 0x1D30 JUMP JUMPDEST PUSH2 0x1255 SWAP2 SWAP1 PUSH2 0x1D30 JUMP JUMPDEST PUSH2 0x125F SWAP2 SWAP1 PUSH2 0x1D47 JUMP JUMPDEST SWAP1 POP PUSH1 0x97 PUSH0 DUP6 PUSH2 0x1270 DUP6 PUSH1 0x1 PUSH2 0x1D1D JUMP JUMPDEST DUP2 MLOAD DUP2 LT PUSH2 0x1280 JUMPI PUSH2 0x1280 PUSH2 0x1C61 JUMP JUMPDEST PUSH1 0x20 MUL PUSH1 0x20 ADD ADD MLOAD PUSH1 0x1 PUSH1 0x1 PUSH1 0xA0 SHL SUB AND PUSH1 0x1 PUSH1 0x1 PUSH1 0xA0 SHL SUB AND DUP2 MSTORE PUSH1 0x20 ADD SWAP1 DUP2 MSTORE PUSH1 0x20 ADD PUSH0 KECCAK256 PUSH0 ADD SLOAD DUP2 PUSH2 0x12B5 SWAP2 SWAP1 PUSH2 0x1D47 JUMP JUMPDEST DUP4 PUSH2 0x12C1 DUP5 PUSH1 0x1 PUSH2 0x1D1D JUMP JUMPDEST DUP2 MLOAD DUP2 LT PUSH2 0x12D1 JUMPI PUSH2 0x12D1 PUSH2 0x1C61 JUMP JUMPDEST PUSH1 0x20 MUL PUSH1 0x20 ADD ADD DUP2 DUP2 MSTORE POP POP POP PUSH2 0x130D JUMP JUMPDEST PUSH0 DUP3 PUSH2 0x12F0 DUP4 PUSH1 0x1 PUSH2 0x1D1D JUMP JUMPDEST DUP2 MLOAD DUP2 LT PUSH2 0x1300 JUMPI PUSH2 0x1300 PUSH2 0x1C61 JUMP JUMPDEST PUSH1 0x20 MUL PUSH1 0x20 ADD ADD DUP2 DUP2 MSTORE POP POP JUMPDEST PUSH1 0x1 ADD PUSH2 0x10A4 JUMP JUMPDEST POP SWAP3 SWAP2 POP POP JUMP JUMPDEST PUSH0 DUP3 DUP2 MSTORE PUSH1 0x65 PUSH1 0x20 MSTORE PUSH1 0x40 SWAP1 KECCAK256 PUSH1 0x1 ADD SLOAD PUSH2 0x1336 DUP2 PUSH2 0x152F JUMP JUMPDEST PUSH2 0x4C0 DUP4 DUP4 PUSH2 0x15C1 JUMP JUMPDEST PUSH32 0xA451215B66F023BB76F9A9E7BC5C64156446B47B26061A8A32EAA319C45F695E PUSH2 0x136A DUP2 PUSH2 0x152F JUMP JUMPDEST PUSH1 0x1E DUP5 MLOAD GT ISZERO PUSH2 0x13F1 JUMPI PUSH1 0x40 MLOAD PUSH3 0x461BCD PUSH1 0xE5 SHL DUP2 MSTORE PUSH1 0x20 PUSH1 0x4 DUP3 ADD MSTORE PUSH1 0x46 PUSH1 0x24 DUP3 ADD MSTORE PUSH32 0x556E69737761705632526F757465723A20546F6B656E73206172726179206973 PUSH1 0x44 DUP3 ADD MSTORE PUSH32 0x20746F6F206C6F6E672C2072656475636520746865206E756D626572206F6620 PUSH1 0x64 DUP3 ADD MSTORE PUSH6 0x746F6B656E73 PUSH1 0xD0 SHL PUSH1 0x84 DUP3 ADD MSTORE PUSH1 0xA4 ADD PUSH2 0x531 JUMP JUMPDEST PUSH0 JUMPDEST DUP5 MLOAD DUP2 LT ISZERO PUSH2 0x14AD JUMPI PUSH1 0x40 MLOAD DUP1 PUSH1 0x40 ADD PUSH1 0x40 MSTORE DUP1 DUP5 DUP4 DUP2 MLOAD DUP2 LT PUSH2 0x1419 JUMPI PUSH2 0x1419 PUSH2 0x1C61 JUMP JUMPDEST PUSH1 0x20 MUL PUSH1 0x20 ADD ADD MLOAD DUP2 MSTORE PUSH1 0x20 ADD DUP6 DUP4 DUP2 MLOAD DUP2 LT PUSH2 0x1438 JUMPI PUSH2 0x1438 PUSH2 0x1C61 JUMP JUMPDEST PUSH1 0x20 MUL PUSH1 0x20 ADD ADD MLOAD PUSH1 0x1 PUSH1 0x1 PUSH1 0xA0 SHL SUB AND DUP2 MSTORE POP PUSH1 0x97 PUSH0 DUP8 DUP5 DUP2 MLOAD DUP2 LT PUSH2 0x1461 JUMPI PUSH2 0x1461 PUSH2 0x1C61 JUMP JUMPDEST PUSH1 0x20 SWAP1 DUP2 MUL SWAP2 SWAP1 SWAP2 ADD DUP2 ADD MLOAD PUSH1 0x1 PUSH1 0x1 PUSH1 0xA0 SHL SUB SWAP1 DUP2 AND DUP4 MSTORE DUP3 DUP3 ADD SWAP4 SWAP1 SWAP4 MSTORE PUSH1 0x40 SWAP1 SWAP2 ADD PUSH0 KECCAK256 DUP4 MLOAD DUP2 SSTORE SWAP3 ADD MLOAD PUSH1 0x1 SWAP3 DUP4 ADD DUP1 SLOAD PUSH1 0x1 PUSH1 0x1 PUSH1 0xA0 SHL SUB NOT AND SWAP2 SWAP1 SWAP3 AND OR SWAP1 SSTORE ADD PUSH2 0x13F3 JUMP JUMPDEST POP POP POP POP POP JUMP JUMPDEST PUSH32 0xA451215B66F023BB76F9A9E7BC5C64156446B47B26061A8A32EAA319C45F695E PUSH2 0x14DE DUP2 PUSH2 0x152F JUMP JUMPDEST POP PUSH1 0x40 DUP1 MLOAD DUP1 DUP3 ADD DUP3 MSTORE SWAP2 DUP3 MSTORE PUSH1 0x1 PUSH1 0x1 PUSH1 0xA0 SHL SUB SWAP3 DUP4 AND PUSH1 0x20 DUP1 DUP5 ADD SWAP2 DUP3 MSTORE SWAP5 DUP5 AND PUSH0 SWAP1 DUP2 MSTORE PUSH1 0x97 SWAP1 SWAP6 MSTORE SWAP4 KECCAK256 SWAP1 MLOAD DUP2 SSTORE SWAP2 MLOAD PUSH1 0x1 SWAP1 SWAP3 ADD DUP1 SLOAD PUSH1 0x1 PUSH1 0x1 PUSH1 0xA0 SHL SUB NOT AND SWAP3 SWAP1 SWAP2 AND SWAP2 SWAP1 SWAP2 OR SWAP1 SSTORE JUMP JUMPDEST PUSH2 0x1539 DUP2 CALLER PUSH2 0x1627 JUMP JUMPDEST POP JUMP JUMPDEST PUSH2 0x1546 DUP3 DUP3 PUSH2 0xA76 JUMP JUMPDEST PUSH2 0x544 JUMPI PUSH0 DUP3 DUP2 MSTORE PUSH1 0x65 PUSH1 0x20 SWAP1 DUP2 MSTORE PUSH1 0x40 DUP1 DUP4 KECCAK256 PUSH1 0x1 PUSH1 0x1 PUSH1 0xA0 SHL SUB DUP6 AND DUP5 MSTORE SWAP1 SWAP2 MSTORE SWAP1 KECCAK256 DUP1 SLOAD PUSH1 0xFF NOT AND PUSH1 0x1 OR SWAP1 SSTORE PUSH2 0x157D CALLER SWAP1 JUMP JUMPDEST PUSH1 0x1 PUSH1 0x1 PUSH1 0xA0 SHL SUB AND DUP2 PUSH1 0x1 PUSH1 0x1 PUSH1 0xA0 SHL SUB AND DUP4 PUSH32 0x2F8788117E7EFF1D82E926EC794901D17C78024A50270940304540A733656F0D PUSH1 0x40 MLOAD PUSH1 0x40 MLOAD DUP1 SWAP2 SUB SWAP1 LOG4 POP POP JUMP JUMPDEST PUSH2 0x15CB DUP3 DUP3 PUSH2 0xA76 JUMP JUMPDEST ISZERO PUSH2 0x544 JUMPI PUSH0 DUP3 DUP2 MSTORE PUSH1 0x65 PUSH1 0x20 SWAP1 DUP2 MSTORE PUSH1 0x40 DUP1 DUP4 KECCAK256 PUSH1 0x1 PUSH1 0x1 PUSH1 0xA0 SHL SUB DUP6 AND DUP1 DUP6 MSTORE SWAP3 MSTORE DUP1 DUP4 KECCAK256 DUP1 SLOAD PUSH1 0xFF NOT AND SWAP1 SSTORE MLOAD CALLER SWAP3 DUP6 SWAP2 PUSH32 0xF6391F5C32D9C69D2A47EA670B442974B53935D1EDC7FD64EB21E047A839171B SWAP2 SWAP1 LOG4 POP POP JUMP JUMPDEST PUSH2 0x1631 DUP3 DUP3 PUSH2 0xA76 JUMP JUMPDEST PUSH2 0x544 JUMPI PUSH2 0x163E DUP2 PUSH2 0x1680 JUMP JUMPDEST PUSH2 0x1649 DUP4 PUSH1 0x20 PUSH2 0x1692 JUMP JUMPDEST PUSH1 0x40 MLOAD PUSH1 0x20 ADD PUSH2 0x165A SWAP3 SWAP2 SWAP1 PUSH2 0x1D7D JUMP JUMPDEST PUSH1 0x40 DUP1 MLOAD PUSH1 0x1F NOT DUP2 DUP5 SUB ADD DUP2 MSTORE SWAP1 DUP3 SWAP1 MSTORE PUSH3 0x461BCD PUSH1 0xE5 SHL DUP3 MSTORE PUSH2 0x531 SWAP2 PUSH1 0x4 ADD PUSH2 0x1DDB JUMP JUMPDEST PUSH1 0x60 PUSH2 0x496 PUSH1 0x1 PUSH1 0x1 PUSH1 0xA0 SHL SUB DUP4 AND PUSH1 0x14 JUMPDEST PUSH1 0x60 PUSH0 PUSH2 0x16A0 DUP4 PUSH1 0x2 PUSH2 0x1D30 JUMP JUMPDEST PUSH2 0x16AB SWAP1 PUSH1 0x2 PUSH2 0x1D1D JUMP JUMPDEST PUSH8 0xFFFFFFFFFFFFFFFF DUP2 GT ISZERO PUSH2 0x16C3 JUMPI PUSH2 0x16C3 PUSH2 0x19E1 JUMP JUMPDEST PUSH1 0x40 MLOAD SWAP1 DUP1 DUP3 MSTORE DUP1 PUSH1 0x1F ADD PUSH1 0x1F NOT AND PUSH1 0x20 ADD DUP3 ADD PUSH1 0x40 MSTORE DUP1 ISZERO PUSH2 0x16ED JUMPI PUSH1 0x20 DUP3 ADD DUP2 DUP1 CALLDATASIZE DUP4 CALLDATACOPY ADD SWAP1 POP JUMPDEST POP SWAP1 POP PUSH1 0x3 PUSH1 0xFC SHL DUP2 PUSH0 DUP2 MLOAD DUP2 LT PUSH2 0x1707 JUMPI PUSH2 0x1707 PUSH2 0x1C61 JUMP JUMPDEST PUSH1 0x20 ADD ADD SWAP1 PUSH1 0x1 PUSH1 0x1 PUSH1 0xF8 SHL SUB NOT AND SWAP1 DUP2 PUSH0 BYTE SWAP1 MSTORE8 POP PUSH1 0xF PUSH1 0xFB SHL DUP2 PUSH1 0x1 DUP2 MLOAD DUP2 LT PUSH2 0x1735 JUMPI PUSH2 0x1735 PUSH2 0x1C61 JUMP JUMPDEST PUSH1 0x20 ADD ADD SWAP1 PUSH1 0x1 PUSH1 0x1 PUSH1 0xF8 SHL SUB NOT AND SWAP1 DUP2 PUSH0 BYTE SWAP1 MSTORE8 POP PUSH0 PUSH2 0x1757 DUP5 PUSH1 0x2 PUSH2 0x1D30 JUMP JUMPDEST PUSH2 0x1762 SWAP1 PUSH1 0x1 PUSH2 0x1D1D JUMP JUMPDEST SWAP1 POP JUMPDEST PUSH1 0x1 DUP2 GT ISZERO PUSH2 0x17D9 JUMPI PUSH16 0x181899199A1A9B1B9C1CB0B131B232B3 PUSH1 0x81 SHL DUP6 PUSH1 0xF AND PUSH1 0x10 DUP2 LT PUSH2 0x1796 JUMPI PUSH2 0x1796 PUSH2 0x1C61 JUMP JUMPDEST BYTE PUSH1 0xF8 SHL DUP3 DUP3 DUP2 MLOAD DUP2 LT PUSH2 0x17AC JUMPI PUSH2 0x17AC PUSH2 0x1C61 JUMP JUMPDEST PUSH1 0x20 ADD ADD SWAP1 PUSH1 0x1 PUSH1 0x1 PUSH1 0xF8 SHL SUB NOT AND SWAP1 DUP2 PUSH0 BYTE SWAP1 MSTORE8 POP PUSH1 0x4 SWAP5 SWAP1 SWAP5 SHR SWAP4 PUSH2 0x17D2 DUP2 PUSH2 0x1E10 JUMP JUMPDEST SWAP1 POP PUSH2 0x1765 JUMP JUMPDEST POP DUP4 ISZERO PUSH2 0x1828 JUMPI PUSH1 0x40 MLOAD PUSH3 0x461BCD PUSH1 0xE5 SHL DUP2 MSTORE PUSH1 0x20 PUSH1 0x4 DUP3 ADD DUP2 SWAP1 MSTORE PUSH1 0x24 DUP3 ADD MSTORE PUSH32 0x537472696E67733A20686578206C656E67746820696E73756666696369656E74 PUSH1 0x44 DUP3 ADD MSTORE PUSH1 0x64 ADD PUSH2 0x531 JUMP JUMPDEST SWAP4 SWAP3 POP POP POP JUMP JUMPDEST PUSH0 PUSH1 0x20 DUP3 DUP5 SUB SLT ISZERO PUSH2 0x183F JUMPI PUSH0 PUSH0 REVERT JUMPDEST DUP2 CALLDATALOAD PUSH1 0x1 PUSH1 0x1 PUSH1 0xE0 SHL SUB NOT DUP2 AND DUP2 EQ PUSH2 0x1828 JUMPI PUSH0 PUSH0 REVERT JUMPDEST PUSH0 PUSH1 0x20 DUP3 DUP5 SUB SLT ISZERO PUSH2 0x1866 JUMPI PUSH0 PUSH0 REVERT JUMPDEST POP CALLDATALOAD SWAP2 SWAP1 POP JUMP JUMPDEST DUP1 CALLDATALOAD PUSH1 0x1 PUSH1 0x1 PUSH1 0xA0 SHL SUB DUP2 AND DUP2 EQ PUSH2 0x1883 JUMPI PUSH0 PUSH0 REVERT JUMPDEST SWAP2 SWAP1 POP JUMP JUMPDEST PUSH0 PUSH0 PUSH1 0x40 DUP4 DUP6 SUB SLT ISZERO PUSH2 0x1899 JUMPI PUSH0 PUSH0 REVERT JUMPDEST DUP3 CALLDATALOAD SWAP2 POP PUSH2 0x18A9 PUSH1 0x20 DUP5 ADD PUSH2 0x186D JUMP JUMPDEST SWAP1 POP SWAP3 POP SWAP3 SWAP1 POP JUMP JUMPDEST PUSH0 PUSH0 DUP4 PUSH1 0x1F DUP5 ADD SLT PUSH2 0x18C2 JUMPI PUSH0 PUSH0 REVERT JUMPDEST POP DUP2 CALLDATALOAD PUSH8 0xFFFFFFFFFFFFFFFF DUP2 GT ISZERO PUSH2 0x18D9 JUMPI PUSH0 PUSH0 REVERT JUMPDEST PUSH1 0x20 DUP4 ADD SWAP2 POP DUP4 PUSH1 0x20 DUP3 PUSH1 0x5 SHL DUP6 ADD ADD GT ISZERO PUSH2 0x18F3 JUMPI PUSH0 PUSH0 REVERT JUMPDEST SWAP3 POP SWAP3 SWAP1 POP JUMP JUMPDEST PUSH0 PUSH0 PUSH0 PUSH0 PUSH0 PUSH0 PUSH1 0xA0 DUP8 DUP10 SUB SLT ISZERO PUSH2 0x190F JUMPI PUSH0 PUSH0 REVERT JUMPDEST DUP7 CALLDATALOAD SWAP6 POP PUSH1 0x20 DUP8 ADD CALLDATALOAD SWAP5 POP PUSH1 0x40 DUP8 ADD CALLDATALOAD PUSH8 0xFFFFFFFFFFFFFFFF DUP2 GT ISZERO PUSH2 0x1933 JUMPI PUSH0 PUSH0 REVERT JUMPDEST PUSH2 0x193F DUP10 DUP3 DUP11 ADD PUSH2 0x18B2 JUMP JUMPDEST SWAP1 SWAP6 POP SWAP4 POP PUSH2 0x1952 SWAP1 POP PUSH1 0x60 DUP9 ADD PUSH2 0x186D JUMP JUMPDEST SWAP6 SWAP9 SWAP5 SWAP8 POP SWAP3 SWAP6 SWAP2 SWAP5 SWAP4 PUSH1 0x80 SWAP1 SWAP3 ADD CALLDATALOAD SWAP3 POP POP JUMP JUMPDEST PUSH0 PUSH1 0x20 DUP3 DUP5 SUB SLT ISZERO PUSH2 0x1977 JUMPI PUSH0 PUSH0 REVERT JUMPDEST PUSH2 0x1828 DUP3 PUSH2 0x186D JUMP JUMPDEST PUSH0 PUSH0 PUSH0 PUSH0 PUSH0 PUSH1 0x80 DUP7 DUP9 SUB SLT ISZERO PUSH2 0x1994 JUMPI PUSH0 PUSH0 REVERT JUMPDEST DUP6 CALLDATALOAD SWAP5 POP PUSH1 0x20 DUP7 ADD CALLDATALOAD PUSH8 0xFFFFFFFFFFFFFFFF DUP2 GT ISZERO PUSH2 0x19B1 JUMPI PUSH0 PUSH0 REVERT JUMPDEST PUSH2 0x19BD DUP9 DUP3 DUP10 ADD PUSH2 0x18B2 JUMP JUMPDEST SWAP1 SWAP6 POP SWAP4 POP PUSH2 0x19D0 SWAP1 POP PUSH1 0x40 DUP8 ADD PUSH2 0x186D JUMP JUMPDEST SWAP5 SWAP8 SWAP4 SWAP7 POP SWAP2 SWAP5 PUSH1 0x60 ADD CALLDATALOAD SWAP3 SWAP2 POP POP JUMP JUMPDEST PUSH4 0x4E487B71 PUSH1 0xE0 SHL PUSH0 MSTORE PUSH1 0x41 PUSH1 0x4 MSTORE PUSH1 0x24 PUSH0 REVERT JUMPDEST PUSH1 0x40 MLOAD PUSH1 0x1F DUP3 ADD PUSH1 0x1F NOT AND DUP2 ADD PUSH8 0xFFFFFFFFFFFFFFFF DUP2 GT DUP3 DUP3 LT OR ISZERO PUSH2 0x1A1E JUMPI PUSH2 0x1A1E PUSH2 0x19E1 JUMP JUMPDEST PUSH1 0x40 MSTORE SWAP2 SWAP1 POP JUMP JUMPDEST PUSH0 PUSH8 0xFFFFFFFFFFFFFFFF DUP3 GT ISZERO PUSH2 0x1A3F JUMPI PUSH2 0x1A3F PUSH2 0x19E1 JUMP JUMPDEST POP PUSH1 0x5 SHL PUSH1 0x20 ADD SWAP1 JUMP JUMPDEST PUSH0 DUP3 PUSH1 0x1F DUP4 ADD SLT PUSH2 0x1A58 JUMPI PUSH0 PUSH0 REVERT JUMPDEST DUP2 CALLDATALOAD PUSH2 0x1A6B PUSH2 0x1A66 DUP3 PUSH2 0x1A26 JUMP JUMPDEST PUSH2 0x19F5 JUMP JUMPDEST DUP1 DUP3 DUP3 MSTORE PUSH1 0x20 DUP3 ADD SWAP2 POP PUSH1 0x20 DUP4 PUSH1 0x5 SHL DUP7 ADD ADD SWAP3 POP DUP6 DUP4 GT ISZERO PUSH2 0x1A8C JUMPI PUSH0 PUSH0 REVERT JUMPDEST PUSH1 0x20 DUP6 ADD JUMPDEST DUP4 DUP2 LT ISZERO PUSH2 0x1AB0 JUMPI PUSH2 0x1AA2 DUP2 PUSH2 0x186D JUMP JUMPDEST DUP4 MSTORE PUSH1 0x20 SWAP3 DUP4 ADD SWAP3 ADD PUSH2 0x1A91 JUMP JUMPDEST POP SWAP6 SWAP5 POP POP POP POP POP JUMP JUMPDEST PUSH0 PUSH0 PUSH1 0x40 DUP4 DUP6 SUB SLT ISZERO PUSH2 0x1ACB JUMPI PUSH0 PUSH0 REVERT JUMPDEST DUP3 CALLDATALOAD SWAP2 POP PUSH1 0x20 DUP4 ADD CALLDATALOAD PUSH8 0xFFFFFFFFFFFFFFFF DUP2 GT ISZERO PUSH2 0x1AE8 JUMPI PUSH0 PUSH0 REVERT JUMPDEST PUSH2 0x1AF4 DUP6 DUP3 DUP7 ADD PUSH2 0x1A49 JUMP JUMPDEST SWAP2 POP POP SWAP3 POP SWAP3 SWAP1 POP JUMP JUMPDEST PUSH1 0x20 DUP1 DUP3 MSTORE DUP3 MLOAD DUP3 DUP3 ADD DUP2 SWAP1 MSTORE PUSH0 SWAP2 DUP5 ADD SWAP1 PUSH1 0x40 DUP5 ADD SWAP1 DUP4 JUMPDEST DUP2 DUP2 LT ISZERO PUSH2 0x1B35 JUMPI DUP4 MLOAD DUP4 MSTORE PUSH1 0x20 SWAP4 DUP5 ADD SWAP4 SWAP1 SWAP3 ADD SWAP2 PUSH1 0x1 ADD PUSH2 0x1B17 JUMP JUMPDEST POP SWAP1 SWAP6 SWAP5 POP POP POP POP POP JUMP JUMPDEST PUSH0 PUSH0 PUSH0 PUSH1 0x60 DUP5 DUP7 SUB SLT ISZERO PUSH2 0x1B52 JUMPI PUSH0 PUSH0 REVERT JUMPDEST DUP4 CALLDATALOAD PUSH8 0xFFFFFFFFFFFFFFFF DUP2 GT ISZERO PUSH2 0x1B68 JUMPI PUSH0 PUSH0 REVERT JUMPDEST PUSH2 0x1B74 DUP7 DUP3 DUP8 ADD PUSH2 0x1A49 JUMP JUMPDEST SWAP4 POP POP PUSH1 0x20 DUP5 ADD CALLDATALOAD PUSH8 0xFFFFFFFFFFFFFFFF DUP2 GT ISZERO PUSH2 0x1B90 JUMPI PUSH0 PUSH0 REVERT JUMPDEST PUSH2 0x1B9C DUP7 DUP3 DUP8 ADD PUSH2 0x1A49 JUMP JUMPDEST SWAP3 POP POP PUSH1 0x40 DUP5 ADD CALLDATALOAD PUSH8 0xFFFFFFFFFFFFFFFF DUP2 GT ISZERO PUSH2 0x1BB8 JUMPI PUSH0 PUSH0 REVERT JUMPDEST DUP5 ADD PUSH1 0x1F DUP2 ADD DUP7 SGT PUSH2 0x1BC8 JUMPI PUSH0 PUSH0 REVERT JUMPDEST DUP1 CALLDATALOAD PUSH2 0x1BD6 PUSH2 0x1A66 DUP3 PUSH2 0x1A26 JUMP JUMPDEST DUP1 DUP3 DUP3 MSTORE PUSH1 0x20 DUP3 ADD SWAP2 POP PUSH1 0x20 DUP4 PUSH1 0x5 SHL DUP6 ADD ADD SWAP3 POP DUP9 DUP4 GT ISZERO PUSH2 0x1BF7 JUMPI PUSH0 PUSH0 REVERT JUMPDEST PUSH1 0x20 DUP5 ADD SWAP4 POP JUMPDEST DUP3 DUP5 LT ISZERO PUSH2 0x1C19 JUMPI DUP4 CALLDATALOAD DUP3 MSTORE PUSH1 0x20 SWAP4 DUP5 ADD SWAP4 SWAP1 SWAP2 ADD SWAP1 PUSH2 0x1BFE JUMP JUMPDEST DUP1 SWAP5 POP POP POP POP POP SWAP3 POP SWAP3 POP SWAP3 JUMP JUMPDEST PUSH0 PUSH0 PUSH0 PUSH1 0x60 DUP5 DUP7 SUB SLT ISZERO PUSH2 0x1C39 JUMPI PUSH0 PUSH0 REVERT JUMPDEST PUSH2 0x1C42 DUP5 PUSH2 0x186D JUMP JUMPDEST SWAP3 POP PUSH2 0x1C50 PUSH1 0x20 DUP6 ADD PUSH2 0x186D JUMP JUMPDEST SWAP3 SWAP6 SWAP3 SWAP5 POP POP POP PUSH1 0x40 SWAP2 SWAP1 SWAP2 ADD CALLDATALOAD SWAP1 JUMP JUMPDEST PUSH4 0x4E487B71 PUSH1 0xE0 SHL PUSH0 MSTORE PUSH1 0x32 PUSH1 0x4 MSTORE PUSH1 0x24 PUSH0 REVERT JUMPDEST PUSH1 0x20 DUP1 DUP3 MSTORE PUSH1 0x2B SWAP1 DUP3 ADD MSTORE PUSH32 0x556E69737761705632526F757465723A20494E53554646494349454E545F4F55 PUSH1 0x40 DUP3 ADD MSTORE PUSH11 0x1514155517D05353D55395 PUSH1 0xAA SHL PUSH1 0x60 DUP3 ADD MSTORE PUSH1 0x80 ADD SWAP1 JUMP JUMPDEST PUSH0 PUSH1 0x20 DUP3 DUP5 SUB SLT ISZERO PUSH2 0x1CD0 JUMPI PUSH0 PUSH0 REVERT JUMPDEST POP MLOAD SWAP2 SWAP1 POP JUMP JUMPDEST PUSH0 PUSH1 0x20 DUP3 DUP5 SUB SLT ISZERO PUSH2 0x1CE7 JUMPI PUSH0 PUSH0 REVERT JUMPDEST DUP2 MLOAD DUP1 ISZERO ISZERO DUP2 EQ PUSH2 0x1828 JUMPI PUSH0 PUSH0 REVERT JUMPDEST PUSH4 0x4E487B71 PUSH1 0xE0 SHL PUSH0 MSTORE PUSH1 0x11 PUSH1 0x4 MSTORE PUSH1 0x24 PUSH0 REVERT JUMPDEST DUP2 DUP2 SUB DUP2 DUP2 GT ISZERO PUSH2 0x496 JUMPI PUSH2 0x496 PUSH2 0x1CF6 JUMP JUMPDEST DUP1 DUP3 ADD DUP1 DUP3 GT ISZERO PUSH2 0x496 JUMPI PUSH2 0x496 PUSH2 0x1CF6 JUMP JUMPDEST DUP1 DUP3 MUL DUP2 ISZERO DUP3 DUP3 DIV DUP5 EQ OR PUSH2 0x496 JUMPI PUSH2 0x496 PUSH2 0x1CF6 JUMP JUMPDEST PUSH0 DUP3 PUSH2 0x1D61 JUMPI PUSH4 0x4E487B71 PUSH1 0xE0 SHL PUSH0 MSTORE PUSH1 0x12 PUSH1 0x4 MSTORE PUSH1 0x24 PUSH0 REVERT JUMPDEST POP DIV SWAP1 JUMP JUMPDEST PUSH0 DUP2 MLOAD DUP1 PUSH1 0x20 DUP5 ADD DUP6 MCOPY PUSH0 SWAP4 ADD SWAP3 DUP4 MSTORE POP SWAP1 SWAP2 SWAP1 POP JUMP JUMPDEST PUSH32 0x416363657373436F6E74726F6C3A206163636F756E7420000000000000000000 DUP2 MSTORE PUSH0 PUSH2 0x1DAE PUSH1 0x17 DUP4 ADD DUP6 PUSH2 0x1D66 JUMP JUMPDEST PUSH17 0x1034B99036B4B9B9B4B733903937B6329 PUSH1 0x7D SHL DUP2 MSTORE PUSH2 0x1DD2 PUSH1 0x11 DUP3 ADD DUP6 PUSH2 0x1D66 JUMP JUMPDEST SWAP6 SWAP5 POP POP POP POP POP JUMP JUMPDEST PUSH1 0x20 DUP2 MSTORE PUSH0 DUP3 MLOAD DUP1 PUSH1 0x20 DUP5 ADD MSTORE DUP1 PUSH1 0x20 DUP6 ADD PUSH1 0x40 DUP6 ADD MCOPY PUSH0 PUSH1 0x40 DUP3 DUP6 ADD ADD MSTORE PUSH1 0x40 PUSH1 0x1F NOT PUSH1 0x1F DUP4 ADD AND DUP5 ADD ADD SWAP2 POP POP SWAP3 SWAP2 POP POP JUMP JUMPDEST PUSH0 DUP2 PUSH2 0x1E1E JUMPI PUSH2 0x1E1E PUSH2 0x1CF6 JUMP JUMPDEST POP PUSH0 NOT ADD SWAP1 JUMP INVALID LOG2 PUSH5 0x6970667358 0x22 SLT KECCAK256 PUSH15 0xC0EA6189B6E8F6794C41EBFDDD9989 CALLCODE XOR 0xB9 0xC7 0xE2 SWAP4 0xF SWAP9 DUP12 PUSH27 0xBDE03C029FAE64736F6C634300081E003300000000000000000000 "
				},
				"gasEstimates": {
					"creation": {
						"codeDepositCost": "1554200",
						"executionCost": "infinite",
						"totalCost": "infinite"
					},
					"external": {
						"DEFAULT_ADMIN_ROLE()": "282",
						"PRICE_MANAGER()": "261",
						"WETH()": "infinite",
						"getAmountsOut(uint256,address[])": "infinite",
						"getRoleAdmin(bytes32)": "2487",
						"getTokenDetails(address)": "4877",
						"getTokenPrice(address)": "2623",
						"getWETHAddress()": "infinite",
						"grantRole(bytes32,address)": "infinite",
						"hasRole(bytes32,address)": "2717",
						"renounceRole(bytes32,address)": "29086",
						"revokeRole(bytes32,address)": "infinite",
						"setTokenDetails(address,address,uint256)": "infinite",
						"setTokensDetails(address[],address[],uint256[])": "infinite",
						"supportsInterface(bytes4)": "447",
						"swapExactETHForTokensSupportingFeeOnTransferTokens(uint256,address[],address,uint256)": "infinite",
						"swapExactTokensForTokensSupportingFeeOnTransferTokens(uint256,uint256,address[],address,uint256)": "infinite",
						"tokenDetails(address)": "4754"
					}
				},
				"methodIdentifiers": {
					"DEFAULT_ADMIN_ROLE()": "a217fddf",
					"PRICE_MANAGER()": "cf0888aa",
					"WETH()": "ad5c4648",
					"getAmountsOut(uint256,address[])": "d06ca61f",
					"getRoleAdmin(bytes32)": "248a9ca3",
					"getTokenDetails(address)": "88aa8bee",
					"getTokenPrice(address)": "d02641a0",
					"getWETHAddress()": "affa8817",
					"grantRole(bytes32,address)": "2f2ff15d",
					"hasRole(bytes32,address)": "91d14854",
					"renounceRole(bytes32,address)": "36568abe",
					"revokeRole(bytes32,address)": "d547741f",
					"setTokenDetails(address,address,uint256)": "fa1c631b",
					"setTokensDetails(address[],address[],uint256[])": "eb71f7e6",
					"supportsInterface(bytes4)": "01ffc9a7",
					"swapExactETHForTokensSupportingFeeOnTransferTokens(uint256,address[],address,uint256)": "b6f9de95",
					"swapExactTokensForTokensSupportingFeeOnTransferTokens(uint256,uint256,address[],address,uint256)": "5c11d795",
					"tokenDetails(address)": "dd4be683"
				}
			},
			"storageLayout": {
				"storage": [
					{
						"astId": 416,
						"contract": "Contract.sol:UniswapV2Router02",
						"label": "_initialized",
						"offset": 0,
						"slot": "0",
						"type": "t_uint8"
					},
					{
						"astId": 419,
						"contract": "Contract.sol:UniswapV2Router02",
						"label": "_initializing",
						"offset": 1,
						"slot": "0",
						"type": "t_bool"
					},
					{
						"astId": 958,
						"contract": "Contract.sol:UniswapV2Router02",
						"label": "__gap",
						"offset": 0,
						"slot": "1",
						"type": "t_array(t_uint256)50_storage"
					},
					{
						"astId": 1232,
						"contract": "Contract.sol:UniswapV2Router02",
						"label": "__gap",
						"offset": 0,
						"slot": "51",
						"type": "t_array(t_uint256)50_storage"
					},
					{
						"astId": 28,
						"contract": "Contract.sol:UniswapV2Router02",
						"label": "_roles",
						"offset": 0,
						"slot": "101",
						"type": "t_mapping(t_bytes32,t_struct(RoleData)23_storage)"
					},
					{
						"astId": 335,
						"contract": "Contract.sol:UniswapV2Router02",
						"label": "__gap",
						"offset": 0,
						"slot": "102",
						"type": "t_array(t_uint256)49_storage"
					},
					{
						"astId": 2284,
						"contract": "Contract.sol:UniswapV2Router02",
						"label": "tokenDetails",
						"offset": 0,
						"slot": "151",
						"type": "t_mapping(t_address,t_struct(TokenDetail)2277_storage)"
					}
				],
				"types": {
					"t_address": {
						"encoding": "inplace",
						"label": "address",
						"numberOfBytes": "20"
					},
					"t_array(t_uint256)49_storage": {
						"base": "t_uint256",
						"encoding": "inplace",
						"label": "uint256[49]",
						"numberOfBytes": "1568"
					},
					"t_array(t_uint256)50_storage": {
						"base": "t_uint256",
						"encoding": "inplace",
						"label": "uint256[50]",
						"numberOfBytes": "1600"
					},
					"t_bool": {
						"encoding": "inplace",
						"label": "bool",
						"numberOfBytes": "1"
					},
					"t_bytes32": {
						"encoding": "inplace",
						"label": "bytes32",
						"numberOfBytes": "32"
					},
					"t_mapping(t_address,t_bool)": {
						"encoding": "mapping",
						"key": "t_address",
						"label": "mapping(address => bool)",
						"numberOfBytes": "32",
						"value": "t_bool"
					},
					"t_mapping(t_address,t_struct(TokenDetail)2277_storage)": {
						"encoding": "mapping",
						"key": "t_address",
						"label": "mapping(address => struct UniswapV2Router02.TokenDetail)",
						"numberOfBytes": "32",
						"value": "t_struct(TokenDetail)2277_storage"
					},
					"t_mapping(t_bytes32,t_struct(RoleData)23_storage)": {
						"encoding": "mapping",
						"key": "t_bytes32",
						"label": "mapping(bytes32 => struct AccessControlUpgradeable.RoleData)",
						"numberOfBytes": "32",
						"value": "t_struct(RoleData)23_storage"
					},
					"t_struct(RoleData)23_storage": {
						"encoding": "inplace",
						"label": "struct AccessControlUpgradeable.RoleData",
						"members": [
							{
								"astId": 20,
								"contract": "Contract.sol:UniswapV2Router02",
								"label": "members",
								"offset": 0,
								"slot": "0",
								"type": "t_mapping(t_address,t_bool)"
							},
							{
								"astId": 22,
								"contract": "Contract.sol:UniswapV2Router02",
								"label": "adminRole",
								"offset": 0,
								"slot": "1",
								"type": "t_bytes32"
							}
						],
						"numberOfBytes": "64"
					},
					"t_struct(TokenDetail)2277_storage": {
						"encoding": "inplace",
						"label": "struct UniswapV2Router02.TokenDetail",
						"members": [
							{
								"astId": 2274,
								"contract": "Contract.sol:UniswapV2Router02",
								"label": "price",
								"offset": 0,
								"slot": "0",
								"type": "t_uint256"
							},
							{
								"astId": 2276,
								"contract": "Contract.sol:UniswapV2Router02",
								"label": "tokenManager",
								"offset": 0,
								"slot": "1",
								"type": "t_address"
							}
						],
						"numberOfBytes": "64"
					},
					"t_uint256": {
						"encoding": "inplace",
						"label": "uint256",
						"numberOfBytes": "32"
					},
					"t_uint8": {
						"encoding": "inplace",
						"label": "uint8",
						"numberOfBytes": "1"
					}
				}
			},
			"userdoc": {
				"kind": "user",
				"methods": {},
				"version": 1
			}
		}
	}
}