{
	"contracts/tokens/Alvara.sol": {
		"Alvara": {
			"abi": [
				{
					"inputs": [],
					"stateMutability": "nonpayable",
					"type": "constructor"
				},
				{
					"inputs": [],
					"name": "ActionRestricted",
					"type": "error"
				},
				{
					"inputs": [],
					"name": "AddressAlreadyGreylisted",
					"type": "error"
				},
				{
					"inputs": [],
					"name": "AddressNotInGreyList",
					"type": "error"
				},
				{
					"inputs": [],
					"name": "SupervisedTranferFrom",
					"type": "error"
				},
				{
					"inputs": [],
					"name": "TokenAlreadyListed",
					"type": "error"
				},
				{
					"anonymous": false,
					"inputs": [
						{
							"indexed": true,
							"internalType": "address",
							"name": "owner",
							"type": "address"
						},
						{
							"indexed": true,
							"internalType": "address",
							"name": "spender",
							"type": "address"
						},
						{
							"indexed": false,
							"internalType": "uint256",
							"name": "value",
							"type": "uint256"
						}
					],
					"name": "Approval",
					"type": "event"
				},
				{
					"anonymous": false,
					"inputs": [
						{
							"indexed": true,
							"internalType": "address",
							"name": "account",
							"type": "address"
						}
					],
					"name": "GreyListed",
					"type": "event"
				},
				{
					"anonymous": false,
					"inputs": [
						{
							"indexed": false,
							"internalType": "uint8",
							"name": "version",
							"type": "uint8"
						}
					],
					"name": "Initialized",
					"type": "event"
				},
				{
					"anonymous": false,
					"inputs": [
						{
							"indexed": false,
							"internalType": "uint32",
							"name": "newListingTimestamp",
							"type": "uint32"
						}
					],
					"name": "ListingTimestampUpdated",
					"type": "event"
				},
				{
					"anonymous": false,
					"inputs": [
						{
							"indexed": true,
							"internalType": "address",
							"name": "account",
							"type": "address"
						}
					],
					"name": "RemovedFromGreyList",
					"type": "event"
				},
				{
					"anonymous": false,
					"inputs": [
						{
							"indexed": true,
							"internalType": "bytes32",
							"name": "role",
							"type": "bytes32"
						},
						{
							"indexed": true,
							"internalType": "bytes32",
							"name": "previousAdminRole",
							"type": "bytes32"
						},
						{
							"indexed": true,
							"internalType": "bytes32",
							"name": "newAdminRole",
							"type": "bytes32"
						}
					],
					"name": "RoleAdminChanged",
					"type": "event"
				},
				{
					"anonymous": false,
					"inputs": [
						{
							"indexed": true,
							"internalType": "bytes32",
							"name": "role",
							"type": "bytes32"
						},
						{
							"indexed": true,
							"internalType": "address",
							"name": "account",
							"type": "address"
						},
						{
							"indexed": true,
							"internalType": "address",
							"name": "sender",
							"type": "address"
						}
					],
					"name": "RoleGranted",
					"type": "event"
				},
				{
					"anonymous": false,
					"inputs": [
						{
							"indexed": true,
							"internalType": "bytes32",
							"name": "role",
							"type": "bytes32"
						},
						{
							"indexed": true,
							"internalType": "address",
							"name": "account",
							"type": "address"
						},
						{
							"indexed": true,
							"internalType": "address",
							"name": "sender",
							"type": "address"
						}
					],
					"name": "RoleRevoked",
					"type": "event"
				},
				{
					"anonymous": false,
					"inputs": [
						{
							"indexed": true,
							"internalType": "address",
							"name": "from",
							"type": "address"
						},
						{
							"indexed": true,
							"internalType": "address",
							"name": "to",
							"type": "address"
						},
						{
							"indexed": false,
							"internalType": "uint256",
							"name": "value",
							"type": "uint256"
						}
					],
					"name": "Transfer",
					"type": "event"
				},
				{
					"inputs": [],
					"name": "ALLOWED_TRANSFER_FROM_ROLE",
					"outputs": [
						{
							"internalType": "bytes32",
							"name": "",
							"type": "bytes32"
						}
					],
					"stateMutability": "view",
					"type": "function"
				},
				{
					"inputs": [],
					"name": "DEFAULT_ADMIN_ROLE",
					"outputs": [
						{
							"internalType": "bytes32",
							"name": "",
							"type": "bytes32"
						}
					],
					"stateMutability": "view",
					"type": "function"
				},
				{
					"inputs": [],
					"name": "GREYLIST_MANAGER_ROLE",
					"outputs": [
						{
							"internalType": "bytes32",
							"name": "",
							"type": "bytes32"
						}
					],
					"stateMutability": "view",
					"type": "function"
				},
				{
					"inputs": [
						{
							"internalType": "address",
							"name": "account",
							"type": "address"
						}
					],
					"name": "addToGreyList",
					"outputs": [],
					"stateMutability": "nonpayable",
					"type": "function"
				},
				{
					"inputs": [
						{
							"internalType": "address",
							"name": "owner",
							"type": "address"
						},
						{
							"internalType": "address",
							"name": "spender",
							"type": "address"
						}
					],
					"name": "allowance",
					"outputs": [
						{
							"internalType": "uint256",
							"name": "",
							"type": "uint256"
						}
					],
					"stateMutability": "view",
					"type": "function"
				},
				{
					"inputs": [
						{
							"internalType": "address",
							"name": "spender",
							"type": "address"
						},
						{
							"internalType": "uint256",
							"name": "amount",
							"type": "uint256"
						}
					],
					"name": "approve",
					"outputs": [
						{
							"internalType": "bool",
							"name": "",
							"type": "bool"
						}
					],
					"stateMutability": "nonpayable",
					"type": "function"
				},
				{
					"inputs": [
						{
							"internalType": "address",
							"name": "account",
							"type": "address"
						}
					],
					"name": "balanceOf",
					"outputs": [
						{
							"internalType": "uint256",
							"name": "",
							"type": "uint256"
						}
					],
					"stateMutability": "view",
					"type": "function"
				},
				{
					"inputs": [
						{
							"internalType": "uint256",
							"name": "amount",
							"type": "uint256"
						}
					],
					"name": "burn",
					"outputs": [],
					"stateMutability": "nonpayable",
					"type": "function"
				},
				{
					"inputs": [
						{
							"internalType": "address",
							"name": "account",
							"type": "address"
						},
						{
							"internalType": "uint256",
							"name": "amount",
							"type": "uint256"
						}
					],
					"name": "burnFrom",
					"outputs": [],
					"stateMutability": "nonpayable",
					"type": "function"
				},
				{
					"inputs": [],
					"name": "decimals",
					"outputs": [
						{
							"internalType": "uint8",
							"name": "",
							"type": "uint8"
						}
					],
					"stateMutability": "view",
					"type": "function"
				},
				{
					"inputs": [
						{
							"internalType": "address",
							"name": "spender",
							"type": "address"
						},
						{
							"internalType": "uint256",
							"name": "subtractedValue",
							"type": "uint256"
						}
					],
					"name": "decreaseAllowance",
					"outputs": [
						{
							"internalType": "bool",
							"name": "",
							"type": "bool"
						}
					],
					"stateMutability": "nonpayable",
					"type": "function"
				},
				{
					"inputs": [
						{
							"internalType": "bytes32",
							"name": "role",
							"type": "bytes32"
						}
					],
					"name": "getRoleAdmin",
					"outputs": [
						{
							"internalType": "bytes32",
							"name": "",
							"type": "bytes32"
						}
					],
					"stateMutability": "view",
					"type": "function"
				},
				{
					"inputs": [
						{
							"internalType": "bytes32",
							"name": "role",
							"type": "bytes32"
						},
						{
							"internalType": "address",
							"name": "account",
							"type": "address"
						}
					],
					"name": "grantRole",
					"outputs": [],
					"stateMutability": "nonpayable",
					"type": "function"
				},
				{
					"inputs": [
						{
							"internalType": "bytes32",
							"name": "role",
							"type": "bytes32"
						},
						{
							"internalType": "address",
							"name": "account",
							"type": "address"
						}
					],
					"name": "hasRole",
					"outputs": [
						{
							"internalType": "bool",
							"name": "",
							"type": "bool"
						}
					],
					"stateMutability": "view",
					"type": "function"
				},
				{
					"inputs": [
						{
							"internalType": "address",
							"name": "spender",
							"type": "address"
						},
						{
							"internalType": "uint256",
							"name": "addedValue",
							"type": "uint256"
						}
					],
					"name": "increaseAllowance",
					"outputs": [
						{
							"internalType": "bool",
							"name": "",
							"type": "bool"
						}
					],
					"stateMutability": "nonpayable",
					"type": "function"
				},
				{
					"inputs": [],
					"name": "initialize",
					"outputs": [],
					"stateMutability": "nonpayable",
					"type": "function"
				},
				{
					"inputs": [
						{
							"internalType": "address",
							"name": "account",
							"type": "address"
						}
					],
					"name": "isGreyListed",
					"outputs": [
						{
							"internalType": "bool",
							"name": "",
							"type": "bool"
						}
					],
					"stateMutability": "view",
					"type": "function"
				},
				{
					"inputs": [],
					"name": "listingTimestamp",
					"outputs": [
						{
							"internalType": "uint32",
							"name": "",
							"type": "uint32"
						}
					],
					"stateMutability": "view",
					"type": "function"
				},
				{
					"inputs": [],
					"name": "name",
					"outputs": [
						{
							"internalType": "string",
							"name": "",
							"type": "string"
						}
					],
					"stateMutability": "view",
					"type": "function"
				},
				{
					"inputs": [
						{
							"internalType": "address",
							"name": "account",
							"type": "address"
						}
					],
					"name": "removeFromGreyList",
					"outputs": [],
					"stateMutability": "nonpayable",
					"type": "function"
				},
				{
					"inputs": [
						{
							"internalType": "bytes32",
							"name": "role",
							"type": "bytes32"
						},
						{
							"internalType": "address",
							"name": "account",
							"type": "address"
						}
					],
					"name": "renounceRole",
					"outputs": [],
					"stateMutability": "nonpayable",
					"type": "function"
				},
				{
					"inputs": [
						{
							"internalType": "bytes32",
							"name": "role",
							"type": "bytes32"
						},
						{
							"internalType": "address",
							"name": "account",
							"type": "address"
						}
					],
					"name": "revokeRole",
					"outputs": [],
					"stateMutability": "nonpayable",
					"type": "function"
				},
				{
					"inputs": [
						{
							"internalType": "uint32",
							"name": "newListingTimestamp",
							"type": "uint32"
						}
					],
					"name": "setListingTimestamp",
					"outputs": [],
					"stateMutability": "nonpayable",
					"type": "function"
				},
				{
					"inputs": [
						{
							"internalType": "bytes4",
							"name": "interfaceId",
							"type": "bytes4"
						}
					],
					"name": "supportsInterface",
					"outputs": [
						{
							"internalType": "bool",
							"name": "",
							"type": "bool"
						}
					],
					"stateMutability": "view",
					"type": "function"
				},
				{
					"inputs": [],
					"name": "symbol",
					"outputs": [
						{
							"internalType": "string",
							"name": "",
							"type": "string"
						}
					],
					"stateMutability": "view",
					"type": "function"
				},
				{
					"inputs": [],
					"name": "totalSupply",
					"outputs": [
						{
							"internalType": "uint256",
							"name": "",
							"type": "uint256"
						}
					],
					"stateMutability": "view",
					"type": "function"
				},
				{
					"inputs": [
						{
							"internalType": "address",
							"name": "to",
							"type": "address"
						},
						{
							"internalType": "uint256",
							"name": "amount",
							"type": "uint256"
						}
					],
					"name": "transfer",
					"outputs": [
						{
							"internalType": "bool",
							"name": "",
							"type": "bool"
						}
					],
					"stateMutability": "nonpayable",
					"type": "function"
				},
				{
					"inputs": [
						{
							"internalType": "address",
							"name": "from",
							"type": "address"
						},
						{
							"internalType": "address",
							"name": "to",
							"type": "address"
						},
						{
							"internalType": "uint256",
							"name": "amount",
							"type": "uint256"
						}
					],
					"name": "transferFrom",
					"outputs": [
						{
							"internalType": "bool",
							"name": "",
							"type": "bool"
						}
					],
					"stateMutability": "nonpayable",
					"type": "function"
				}
			],
			"devdoc": {
				"errors": {
					"ActionRestricted()": [
						{
							"details": "Whenever an action is performed that is restricted, this error will be shown"
						}
					],
					"AddressAlreadyGreylisted()": [
						{
							"details": "Error displayed when address is already greylisted"
						}
					],
					"AddressNotInGreyList()": [
						{
							"details": "Error displayed when an address is not in grey list and function tries to remove it "
						}
					],
					"SupervisedTranferFrom()": [
						{
							"details": "Used before listing if not allowed transferFrom occurs."
						}
					],
					"TokenAlreadyListed()": [
						{
							"details": "Once the listingTimestamp passes (which disables supervised transfers) it can never be set again. This ensures once supervised transfers are disabled, they can never be enabled again."
						}
					]
				},
				"events": {
					"Approval(address,address,uint256)": {
						"details": "Emitted when the allowance of a `spender` for an `owner` is set by a call to {approve}. `value` is the new allowance."
					},
					"GreyListed(address)": {
						"details": "Emitted when an address is added to the grey list.",
						"params": {
							"account": "The address that has been greylisted."
						}
					},
					"Initialized(uint8)": {
						"details": "Triggered when the contract has been initialized or reinitialized."
					},
					"ListingTimestampUpdated(uint32)": {
						"params": {
							"newListingTimestamp": "the value of the new listing timestamp"
						}
					},
					"RemovedFromGreyList(address)": {
						"details": "Emitted when an address is removed from the grey list.",
						"params": {
							"account": "The address that has been removed from the grey list."
						}
					},
					"RoleAdminChanged(bytes32,bytes32,bytes32)": {
						"details": "Emitted when `newAdminRole` is set as ``role``'s admin role, replacing `previousAdminRole` `DEFAULT_ADMIN_ROLE` is the starting admin for all roles, despite {RoleAdminChanged} not being emitted signaling this. _Available since v3.1._"
					},
					"RoleGranted(bytes32,address,address)": {
						"details": "Emitted when `account` is granted `role`. `sender` is the account that originated the contract call, an admin role bearer except when using {AccessControl-_setupRole}."
					},
					"RoleRevoked(bytes32,address,address)": {
						"details": "Emitted when `account` is revoked `role`. `sender` is the account that originated the contract call:   - if using `revokeRole`, it is the admin role bearer   - if using `renounceRole`, it is the role bearer (i.e. `account`)"
					},
					"Transfer(address,address,uint256)": {
						"details": "Emitted when `value` tokens are moved from one account (`from`) to another (`to`). Note that `value` may be zero."
					}
				},
				"kind": "dev",
				"methods": {
					"addToGreyList(address)": {
						"details": "Adds a wallet address to the grey list. Can only be called by the GREYLIST_MANAGER_ROLE holder.",
						"params": {
							"account": "The address to be added to the grey list."
						}
					},
					"allowance(address,address)": {
						"details": "See {IERC20-allowance}."
					},
					"approve(address,uint256)": {
						"details": "See {IERC20-approve}. NOTE: If `amount` is the maximum `uint256`, the allowance is not updated on `transferFrom`. This is semantically equivalent to an infinite approval. Requirements: - `spender` cannot be the zero address."
					},
					"balanceOf(address)": {
						"details": "See {IERC20-balanceOf}."
					},
					"burn(uint256)": {
						"details": "Destroys `amount` tokens from the caller. See {ERC20-_burn}."
					},
					"burnFrom(address,uint256)": {
						"details": "Destroys `amount` tokens from `account`, deducting from the caller's allowance. See {ERC20-_burn} and {ERC20-allowance}. Requirements: - the caller must have allowance for ``accounts``'s tokens of at least `amount`."
					},
					"constructor": {
						"details": "Constructor will disable initializers."
					},
					"decimals()": {
						"details": "Returns the number of decimals used to get its user representation. For example, if `decimals` equals `2`, a balance of `505` tokens should be displayed to a user as `5.05` (`505 / 10 ** 2`). Tokens usually opt for a value of 18, imitating the relationship between Ether and Wei. This is the default value returned by this function, unless it's overridden. NOTE: This information is only used for _display_ purposes: it in no way affects any of the arithmetic of the contract, including {IERC20-balanceOf} and {IERC20-transfer}."
					},
					"decreaseAllowance(address,uint256)": {
						"details": "Atomically decreases the allowance granted to `spender` by the caller. This is an alternative to {approve} that can be used as a mitigation for problems described in {IERC20-approve}. Emits an {Approval} event indicating the updated allowance. Requirements: - `spender` cannot be the zero address. - `spender` must have allowance for the caller of at least `subtractedValue`."
					},
					"getRoleAdmin(bytes32)": {
						"details": "Returns the admin role that controls `role`. See {grantRole} and {revokeRole}. To change a role's admin, use {_setRoleAdmin}."
					},
					"grantRole(bytes32,address)": {
						"details": "Grants `role` to `account`. If `account` had not been already granted `role`, emits a {RoleGranted} event. Requirements: - the caller must have ``role``'s admin role. May emit a {RoleGranted} event."
					},
					"hasRole(bytes32,address)": {
						"details": "Returns `true` if `account` has been granted `role`."
					},
					"increaseAllowance(address,uint256)": {
						"details": "Atomically increases the allowance granted to `spender` by the caller. This is an alternative to {approve} that can be used as a mitigation for problems described in {IERC20-approve}. Emits an {Approval} event indicating the updated allowance. Requirements: - `spender` cannot be the zero address."
					},
					"initialize()": {
						"details": "Initializer"
					},
					"isGreyListed(address)": {
						"details": "Checks if an address is a part of grey list.",
						"params": {
							"account": "The address to be checked."
						},
						"returns": {
							"_0": "true if the address is on the grey list, false otherwise."
						}
					},
					"name()": {
						"details": "Returns the name of the token."
					},
					"removeFromGreyList(address)": {
						"details": "Removes an address from the grey list. Can only be called by the GREYLIST_MANAGER_ROLE holder.",
						"params": {
							"account": "The address to be removed from the grey list."
						}
					},
					"renounceRole(bytes32,address)": {
						"details": "Revokes `role` from the calling account. Roles are often managed via {grantRole} and {revokeRole}: this function's purpose is to provide a mechanism for accounts to lose their privileges if they are compromised (such as when a trusted device is misplaced). If the calling account had been revoked `role`, emits a {RoleRevoked} event. Requirements: - the caller must be `account`. May emit a {RoleRevoked} event."
					},
					"revokeRole(bytes32,address)": {
						"details": "Revokes `role` from `account`. If `account` had been granted `role`, emits a {RoleRevoked} event. Requirements: - the caller must have ``role``'s admin role. May emit a {RoleRevoked} event."
					},
					"setListingTimestamp(uint32)": {
						"params": {
							"newListingTimestamp": "epoch time of when the token is listed on DEX"
						}
					},
					"supportsInterface(bytes4)": {
						"details": "See {IERC165-supportsInterface}."
					},
					"symbol()": {
						"details": "Returns the symbol of the token, usually a shorter version of the name."
					},
					"totalSupply()": {
						"details": "See {IERC20-totalSupply}."
					},
					"transfer(address,uint256)": {
						"details": "See {IERC20-transfer}. Requirements: - `to` cannot be the zero address. - the caller must have a balance of at least `amount`."
					},
					"transferFrom(address,address,uint256)": {
						"details": "Public Transfer From method including supervised transfer control"
					}
				},
				"stateVariables": {
					"GREYLIST_MANAGER_ROLE": {
						"details": "Define role for managing the grey list"
					},
					"_greyList": {
						"details": "Mapping to keep track of greylisted wallet addresses"
					}
				},
				"version": 1
			},
			"evm": {
				"assembly": "    /* \"contracts/tokens/Alvara.sol\":370:3967  contract Alvara is... */\n  mstore(0x40, 0x80)\n    /* \"contracts/tokens/Alvara.sol\":1646:1727  constructor() {... */\n  callvalue\n  dup1\n  iszero\n  tag_1\n  jumpi\n  revert(0x00, 0x00)\ntag_1:\n  pop\n    /* \"contracts/tokens/Alvara.sol\":1670:1692  _disableInitializers() */\n  tag_4\n    /* \"contracts/tokens/Alvara.sol\":1670:1690  _disableInitializers */\n  tag_5\n    /* \"contracts/tokens/Alvara.sol\":1670:1692  _disableInitializers() */\n  jump\t// in\ntag_4:\n    /* \"contracts/tokens/Alvara.sol\":370:3967  contract Alvara is... */\n  jump(tag_14)\n    /* \"@openzeppelin/contracts-upgradeable/proxy/utils/Initializable.sol\":5939:6219  function _disableInitializers() internal virtual {... */\ntag_5:\n    /* \"@openzeppelin/contracts-upgradeable/proxy/utils/Initializable.sol\":6007:6020  _initializing */\n  sload(0x00)\n  0x0100\n  swap1\n  div\n  0xff\n  and\n    /* \"@openzeppelin/contracts-upgradeable/proxy/utils/Initializable.sol\":6006:6020  !_initializing */\n  iszero\n    /* \"@openzeppelin/contracts-upgradeable/proxy/utils/Initializable.sol\":5998:6064  require(!_initializing, \"Initializable: contract is initializing\") */\n  tag_8\n  jumpi\n  mload(0x40)\n  shl(0xe5, 0x461bcd)\n  dup2\n  mstore\n    /* \"#utility.yul\":216:218   */\n  0x20\n    /* \"@openzeppelin/contracts-upgradeable/proxy/utils/Initializable.sol\":5998:6064  require(!_initializing, \"Initializable: contract is initializing\") */\n  0x04\n  dup3\n  add\n    /* \"#utility.yul\":198:219   */\n  mstore\n    /* \"#utility.yul\":255:257   */\n  0x27\n    /* \"#utility.yul\":235:253   */\n  0x24\n  dup3\n  add\n    /* \"#utility.yul\":228:258   */\n  mstore\n    /* \"#utility.yul\":294:328   */\n  0x496e697469616c697a61626c653a20636f6e747261637420697320696e697469\n    /* \"#utility.yul\":274:292   */\n  0x44\n  dup3\n  add\n    /* \"#utility.yul\":267:329   */\n  mstore\n  shl(0xc8, 0x616c697a696e67)\n    /* \"#utility.yul\":345:363   */\n  0x64\n  dup3\n  add\n    /* \"#utility.yul\":338:375   */\n  mstore\n    /* \"#utility.yul\":392:411   */\n  0x84\n  add\n    /* \"@openzeppelin/contracts-upgradeable/proxy/utils/Initializable.sol\":5998:6064  require(!_initializing, \"Initializable: contract is initializing\") */\n  mload(0x40)\n  dup1\n  swap2\n  sub\n  swap1\n  revert\ntag_8:\n    /* \"@openzeppelin/contracts-upgradeable/proxy/utils/Initializable.sol\":6078:6090  _initialized */\n  sload(0x00)\n    /* \"@openzeppelin/contracts-upgradeable/proxy/utils/Initializable.sol\":6094:6109  type(uint8).max */\n  0xff\n    /* \"@openzeppelin/contracts-upgradeable/proxy/utils/Initializable.sol\":6078:6090  _initialized */\n  swap1\n  dup2\n  and\n    /* \"@openzeppelin/contracts-upgradeable/proxy/utils/Initializable.sol\":6078:6109  _initialized != type(uint8).max */\n  eq\n    /* \"@openzeppelin/contracts-upgradeable/proxy/utils/Initializable.sol\":6074:6213  if (_initialized != type(uint8).max) {... */\n  tag_11\n  jumpi\n    /* \"@openzeppelin/contracts-upgradeable/proxy/utils/Initializable.sol\":6125:6137  _initialized */\n  0x00\n    /* \"@openzeppelin/contracts-upgradeable/proxy/utils/Initializable.sol\":6125:6155  _initialized = type(uint8).max */\n  dup1\n  sload\n  not(0xff)\n  and\n    /* \"@openzeppelin/contracts-upgradeable/proxy/utils/Initializable.sol\":6140:6155  type(uint8).max */\n  0xff\n    /* \"@openzeppelin/contracts-upgradeable/proxy/utils/Initializable.sol\":6125:6155  _initialized = type(uint8).max */\n  swap1\n  dup2\n  or\n  swap1\n  swap2\n  sstore\n    /* \"@openzeppelin/contracts-upgradeable/proxy/utils/Initializable.sol\":6174:6202  Initialized(type(uint8).max) */\n  mload(0x40)\n    /* \"#utility.yul\":564:600   */\n  swap1\n  dup2\n  mstore\n    /* \"@openzeppelin/contracts-upgradeable/proxy/utils/Initializable.sol\":6174:6202  Initialized(type(uint8).max) */\n  0x7f26b83ff96e1f2b6a682f133852f6798a09c465da95921460cefb3847402498\n  swap1\n    /* \"#utility.yul\":552:554   */\n  0x20\n    /* \"#utility.yul\":537:555   */\n  add\n    /* \"@openzeppelin/contracts-upgradeable/proxy/utils/Initializable.sol\":6174:6202  Initialized(type(uint8).max) */\n  mload(0x40)\n  dup1\n  swap2\n  sub\n  swap1\n  log1\n    /* \"@openzeppelin/contracts-upgradeable/proxy/utils/Initializable.sol\":6074:6213  if (_initialized != type(uint8).max) {... */\ntag_11:\n    /* \"@openzeppelin/contracts-upgradeable/proxy/utils/Initializable.sol\":5939:6219  function _disableInitializers() internal virtual {... */\n  jump\t// out\n    /* \"#utility.yul\":422:606   */\ntag_14:\n    /* \"contracts/tokens/Alvara.sol\":370:3967  contract Alvara is... */\n  dataSize(sub_0)\n  dup1\n  dataOffset(sub_0)\n  0x00\n  codecopy\n  0x00\n  return\nstop\n\nsub_0: assembly {\n        /* \"contracts/tokens/Alvara.sol\":370:3967  contract Alvara is... */\n      mstore(0x40, 0x80)\n      callvalue\n      dup1\n      iszero\n      tag_1\n      jumpi\n      revert(0x00, 0x00)\n    tag_1:\n      pop\n      jumpi(tag_2, lt(calldatasize, 0x04))\n      shr(0xe0, calldataload(0x00))\n      dup1\n      0x70a08231\n      gt\n      tag_31\n      jumpi\n      dup1\n      0xa64a92a8\n      gt\n      tag_32\n      jumpi\n      dup1\n      0xd547741f\n      gt\n      tag_33\n      jumpi\n      dup1\n      0xd547741f\n      eq\n      tag_27\n      jumpi\n      dup1\n      0xdbd192d4\n      eq\n      tag_28\n      jumpi\n      dup1\n      0xdd62ed3e\n      eq\n      tag_29\n      jumpi\n      dup1\n      0xe90cdd1c\n      eq\n      tag_30\n      jumpi\n      revert(0x00, 0x00)\n    tag_33:\n      dup1\n      0xa64a92a8\n      eq\n      tag_24\n      jumpi\n      dup1\n      0xa9059cbb\n      eq\n      tag_25\n      jumpi\n      dup1\n      0xbd39a2a8\n      eq\n      tag_26\n      jumpi\n      revert(0x00, 0x00)\n    tag_32:\n      dup1\n      0x91d14854\n      gt\n      tag_34\n      jumpi\n      dup1\n      0x91d14854\n      eq\n      tag_20\n      jumpi\n      dup1\n      0x95d89b41\n      eq\n      tag_21\n      jumpi\n      dup1\n      0xa217fddf\n      eq\n      tag_22\n      jumpi\n      dup1\n      0xa457c2d7\n      eq\n      tag_23\n      jumpi\n      revert(0x00, 0x00)\n    tag_34:\n      dup1\n      0x70a08231\n      eq\n      tag_17\n      jumpi\n      dup1\n      0x79cc6790\n      eq\n      tag_18\n      jumpi\n      dup1\n      0x8129fc1c\n      eq\n      tag_19\n      jumpi\n      revert(0x00, 0x00)\n    tag_31:\n      dup1\n      0x313ce567\n      gt\n      tag_35\n      jumpi\n      dup1\n      0x39509351\n      gt\n      tag_36\n      jumpi\n      dup1\n      0x39509351\n      eq\n      tag_13\n      jumpi\n      dup1\n      0x42966c68\n      eq\n      tag_14\n      jumpi\n      dup1\n      0x4e695cca\n      eq\n      tag_15\n      jumpi\n      dup1\n      0x6e4af83e\n      eq\n      tag_16\n      jumpi\n      revert(0x00, 0x00)\n    tag_36:\n      dup1\n      0x313ce567\n      eq\n      tag_10\n      jumpi\n      dup1\n      0x36568abe\n      eq\n      tag_11\n      jumpi\n      dup1\n      0x38f5a5e4\n      eq\n      tag_12\n      jumpi\n      revert(0x00, 0x00)\n    tag_35:\n      dup1\n      0x18160ddd\n      gt\n      tag_37\n      jumpi\n      dup1\n      0x18160ddd\n      eq\n      tag_6\n      jumpi\n      dup1\n      0x23b872dd\n      eq\n      tag_7\n      jumpi\n      dup1\n      0x248a9ca3\n      eq\n      tag_8\n      jumpi\n      dup1\n      0x2f2ff15d\n      eq\n      tag_9\n      jumpi\n      revert(0x00, 0x00)\n    tag_37:\n      dup1\n      0x01ffc9a7\n      eq\n      tag_3\n      jumpi\n      dup1\n      0x06fdde03\n      eq\n      tag_4\n      jumpi\n      dup1\n      0x095ea7b3\n      eq\n      tag_5\n      jumpi\n    tag_2:\n      revert(0x00, 0x00)\n        /* \"@openzeppelin/contracts-upgradeable/access/AccessControlUpgradeable.sol\":3050:3263  function supportsInterface(bytes4 interfaceId) public view virtual override returns (bool) {... */\n    tag_3:\n      tag_38\n      tag_39\n      calldatasize\n      0x04\n      tag_40\n      jump\t// in\n    tag_39:\n      tag_41\n      jump\t// in\n    tag_38:\n      mload(0x40)\n        /* \"#utility.yul\":470:484   */\n      swap1\n      iszero\n        /* \"#utility.yul\":463:485   */\n      iszero\n        /* \"#utility.yul\":445:486   */\n      dup2\n      mstore\n        /* \"#utility.yul\":433:435   */\n      0x20\n        /* \"#utility.yul\":418:436   */\n      add\n        /* \"@openzeppelin/contracts-upgradeable/access/AccessControlUpgradeable.sol\":3050:3263  function supportsInterface(bytes4 interfaceId) public view virtual override returns (bool) {... */\n    tag_42:\n      mload(0x40)\n      dup1\n      swap2\n      sub\n      swap1\n      return\n        /* \"@openzeppelin/contracts-upgradeable/token/ERC20/ERC20Upgradeable.sol\":2516:2614  function name() public view virtual override returns (string memory) {... */\n    tag_4:\n      tag_44\n      tag_45\n      jump\t// in\n    tag_44:\n      mload(0x40)\n      tag_42\n      swap2\n      swap1\n      tag_47\n      jump\t// in\n        /* \"@openzeppelin/contracts-upgradeable/token/ERC20/ERC20Upgradeable.sol\":4802:4999  function approve(address spender, uint256 amount) public virtual override returns (bool) {... */\n    tag_5:\n      tag_38\n      tag_49\n      calldatasize\n      0x04\n      tag_50\n      jump\t// in\n    tag_49:\n      tag_51\n      jump\t// in\n        /* \"@openzeppelin/contracts-upgradeable/token/ERC20/ERC20Upgradeable.sol\":3613:3719  function totalSupply() public view virtual override returns (uint256) {... */\n    tag_6:\n        /* \"@openzeppelin/contracts-upgradeable/token/ERC20/ERC20Upgradeable.sol\":3700:3712  _totalSupply */\n      sload(0x35)\n        /* \"@openzeppelin/contracts-upgradeable/token/ERC20/ERC20Upgradeable.sol\":3613:3719  function totalSupply() public view virtual override returns (uint256) {... */\n    tag_53:\n      mload(0x40)\n        /* \"#utility.yul\":1549:1574   */\n      swap1\n      dup2\n      mstore\n        /* \"#utility.yul\":1537:1539   */\n      0x20\n        /* \"#utility.yul\":1522:1540   */\n      add\n        /* \"@openzeppelin/contracts-upgradeable/token/ERC20/ERC20Upgradeable.sol\":3613:3719  function totalSupply() public view virtual override returns (uint256) {... */\n      tag_42\n        /* \"#utility.yul\":1403:1580   */\n      jump\n        /* \"contracts/tokens/Alvara.sol\":3747:3965  function transferFrom(... */\n    tag_7:\n      tag_38\n      tag_58\n      calldatasize\n      0x04\n      tag_59\n      jump\t// in\n    tag_58:\n      tag_60\n      jump\t// in\n        /* \"@openzeppelin/contracts-upgradeable/access/AccessControlUpgradeable.sol\":4855:4984  function getRoleAdmin(bytes32 role) public view virtual override returns (bytes32) {... */\n    tag_8:\n      tag_53\n      tag_63\n      calldatasize\n      0x04\n      tag_64\n      jump\t// in\n    tag_63:\n        /* \"@openzeppelin/contracts-upgradeable/access/AccessControlUpgradeable.sol\":4929:4936  bytes32 */\n      0x00\n        /* \"@openzeppelin/contracts-upgradeable/access/AccessControlUpgradeable.sol\":4955:4967  _roles[role] */\n      swap1\n      dup2\n      mstore\n        /* \"@openzeppelin/contracts-upgradeable/access/AccessControlUpgradeable.sol\":4955:4961  _roles */\n      0xc9\n        /* \"@openzeppelin/contracts-upgradeable/access/AccessControlUpgradeable.sol\":4955:4967  _roles[role] */\n      0x20\n      mstore\n      0x40\n      swap1\n      keccak256\n        /* \"@openzeppelin/contracts-upgradeable/access/AccessControlUpgradeable.sol\":4955:4977  _roles[role].adminRole */\n      0x01\n      add\n      sload\n      swap1\n        /* \"@openzeppelin/contracts-upgradeable/access/AccessControlUpgradeable.sol\":4855:4984  function getRoleAdmin(bytes32 role) public view virtual override returns (bytes32) {... */\n      jump\n        /* \"@openzeppelin/contracts-upgradeable/access/AccessControlUpgradeable.sol\":5280:5425  function grantRole(bytes32 role, address account) public virtual override onlyRole(getRoleAdmin(role)) {... */\n    tag_9:\n      tag_68\n      tag_69\n      calldatasize\n      0x04\n      tag_70\n      jump\t// in\n    tag_69:\n      tag_71\n      jump\t// in\n    tag_68:\n      stop\n        /* \"@openzeppelin/contracts-upgradeable/token/ERC20/ERC20Upgradeable.sol\":3462:3553  function decimals() public view virtual override returns (uint8) {... */\n    tag_10:\n      mload(0x40)\n        /* \"@openzeppelin/contracts-upgradeable/token/ERC20/ERC20Upgradeable.sol\":3544:3546  18 */\n      0x12\n        /* \"#utility.yul\":2824:2860   */\n      dup2\n      mstore\n        /* \"#utility.yul\":2812:2814   */\n      0x20\n        /* \"#utility.yul\":2797:2815   */\n      add\n        /* \"@openzeppelin/contracts-upgradeable/token/ERC20/ERC20Upgradeable.sol\":3462:3553  function decimals() public view virtual override returns (uint8) {... */\n      tag_42\n        /* \"#utility.yul\":2682:2866   */\n      jump\n        /* \"@openzeppelin/contracts-upgradeable/access/AccessControlUpgradeable.sol\":6389:6603  function renounceRole(bytes32 role, address account) public virtual override {... */\n    tag_11:\n      tag_68\n      tag_77\n      calldatasize\n      0x04\n      tag_70\n      jump\t// in\n    tag_77:\n      tag_78\n      jump\t// in\n        /* \"contracts/tokens/Alvara.sol\":2187:2433  function addToGreyList(address account) public onlyRole(GREYLIST_MANAGER_ROLE) {... */\n    tag_12:\n      tag_68\n      tag_80\n      calldatasize\n      0x04\n      tag_81\n      jump\t// in\n    tag_80:\n      tag_82\n      jump\t// in\n        /* \"@openzeppelin/contracts-upgradeable/token/ERC20/ERC20Upgradeable.sol\":6212:6446  function increaseAllowance(address spender, uint256 addedValue) public virtual returns (bool) {... */\n    tag_13:\n      tag_38\n      tag_84\n      calldatasize\n      0x04\n      tag_50\n      jump\t// in\n    tag_84:\n      tag_85\n      jump\t// in\n        /* \"@openzeppelin/contracts-upgradeable/token/ERC20/extensions/ERC20BurnableUpgradeable.sol\":869:958  function burn(uint256 amount) public virtual {... */\n    tag_14:\n      tag_68\n      tag_88\n      calldatasize\n      0x04\n      tag_64\n      jump\t// in\n    tag_88:\n      tag_90\n      jump\t// in\n        /* \"contracts/utils/WithSupervisedTransfers.sol\":1254:1354  bytes32 public constant ALLOWED_TRANSFER_FROM_ROLE =... */\n    tag_15:\n      tag_53\n        /* \"contracts/utils/WithSupervisedTransfers.sol\":1315:1354  keccak256(\"ALLOWED_TRANSFER_FROM_ROLE\") */\n      0x2f26ac9ab74d35285b05b7b0d4a0f2ffdef33823bc15863d6299dbdd56e7b6b0\n        /* \"contracts/utils/WithSupervisedTransfers.sol\":1254:1354  bytes32 public constant ALLOWED_TRANSFER_FROM_ROLE =... */\n      dup2\n      jump\n        /* \"contracts/tokens/Alvara.sol\":2630:2931  function removeFromGreyList(address account) public onlyRole(GREYLIST_MANAGER_ROLE) {... */\n    tag_16:\n      tag_68\n      tag_95\n      calldatasize\n      0x04\n      tag_81\n      jump\t// in\n    tag_95:\n      tag_96\n      jump\t// in\n        /* \"@openzeppelin/contracts-upgradeable/token/ERC20/ERC20Upgradeable.sol\":3777:3902  function balanceOf(address account) public view virtual override returns (uint256) {... */\n    tag_17:\n      tag_53\n      tag_98\n      calldatasize\n      0x04\n      tag_81\n      jump\t// in\n    tag_98:\n      sub(shl(0xa0, 0x01), 0x01)\n        /* \"@openzeppelin/contracts-upgradeable/token/ERC20/ERC20Upgradeable.sol\":3877:3895  _balances[account] */\n      and\n        /* \"@openzeppelin/contracts-upgradeable/token/ERC20/ERC20Upgradeable.sol\":3851:3858  uint256 */\n      0x00\n        /* \"@openzeppelin/contracts-upgradeable/token/ERC20/ERC20Upgradeable.sol\":3877:3895  _balances[account] */\n      swap1\n      dup2\n      mstore\n        /* \"@openzeppelin/contracts-upgradeable/token/ERC20/ERC20Upgradeable.sol\":3877:3886  _balances */\n      0x33\n        /* \"@openzeppelin/contracts-upgradeable/token/ERC20/ERC20Upgradeable.sol\":3877:3895  _balances[account] */\n      0x20\n      mstore\n      0x40\n      swap1\n      keccak256\n      sload\n      swap1\n        /* \"@openzeppelin/contracts-upgradeable/token/ERC20/ERC20Upgradeable.sol\":3777:3902  function balanceOf(address account) public view virtual override returns (uint256) {... */\n      jump\n        /* \"@openzeppelin/contracts-upgradeable/token/ERC20/extensions/ERC20BurnableUpgradeable.sol\":1264:1425  function burnFrom(address account, uint256 amount) public virtual {... */\n    tag_18:\n      tag_68\n      tag_102\n      calldatasize\n      0x04\n      tag_50\n      jump\t// in\n    tag_102:\n      tag_103\n      jump\t// in\n        /* \"contracts/tokens/Alvara.sol\":1773:1993  function initialize() public initializer {... */\n    tag_19:\n      tag_68\n      tag_105\n      jump\t// in\n        /* \"@openzeppelin/contracts-upgradeable/access/AccessControlUpgradeable.sol\":3350:3495  function hasRole(bytes32 role, address account) public view virtual override returns (bool) {... */\n    tag_20:\n      tag_38\n      tag_107\n      calldatasize\n      0x04\n      tag_70\n      jump\t// in\n    tag_107:\n      tag_108\n      jump\t// in\n        /* \"@openzeppelin/contracts-upgradeable/token/ERC20/ERC20Upgradeable.sol\":2727:2829  function symbol() public view virtual override returns (string memory) {... */\n    tag_21:\n      tag_44\n      tag_111\n      jump\t// in\n        /* \"@openzeppelin/contracts-upgradeable/access/AccessControlUpgradeable.sol\":2320:2369  bytes32 public constant DEFAULT_ADMIN_ROLE = 0x00 */\n    tag_22:\n      tag_53\n        /* \"@openzeppelin/contracts-upgradeable/access/AccessControlUpgradeable.sol\":2365:2369  0x00 */\n      0x00\n        /* \"@openzeppelin/contracts-upgradeable/access/AccessControlUpgradeable.sol\":2320:2369  bytes32 public constant DEFAULT_ADMIN_ROLE = 0x00 */\n      dup2\n      jump\n        /* \"@openzeppelin/contracts-upgradeable/token/ERC20/ERC20Upgradeable.sol\":6933:7360  function decreaseAllowance(address spender, uint256 subtractedValue) public virtual returns (bool) {... */\n    tag_23:\n      tag_38\n      tag_117\n      calldatasize\n      0x04\n      tag_50\n      jump\t// in\n    tag_117:\n      tag_118\n      jump\t// in\n        /* \"contracts/tokens/Alvara.sol\":3132:3240  function isGreyListed(address account) public view returns (bool){... */\n    tag_24:\n      tag_38\n      tag_121\n      calldatasize\n      0x04\n      tag_81\n      jump\t// in\n    tag_121:\n      sub(shl(0xa0, 0x01), 0x01)\n        /* \"contracts/tokens/Alvara.sol\":3214:3232  _greyList[account] */\n      and\n        /* \"contracts/tokens/Alvara.sol\":3192:3196  bool */\n      0x00\n        /* \"contracts/tokens/Alvara.sol\":3214:3232  _greyList[account] */\n      swap1\n      dup2\n      mstore\n        /* \"contracts/tokens/Alvara.sol\":3214:3223  _greyList */\n      0xfc\n        /* \"contracts/tokens/Alvara.sol\":3214:3232  _greyList[account] */\n      0x20\n      mstore\n      0x40\n      swap1\n      keccak256\n      sload\n      0xff\n      and\n      swap1\n        /* \"contracts/tokens/Alvara.sol\":3132:3240  function isGreyListed(address account) public view returns (bool){... */\n      jump\n        /* \"@openzeppelin/contracts-upgradeable/token/ERC20/ERC20Upgradeable.sol\":4098:4287  function transfer(address to, uint256 amount) public virtual override returns (bool) {... */\n    tag_25:\n      tag_38\n      tag_125\n      calldatasize\n      0x04\n      tag_50\n      jump\t// in\n    tag_125:\n      tag_126\n      jump\t// in\n        /* \"contracts/utils/WithSupervisedTransfers.sol\":1360:1390  uint32 public listingTimestamp */\n    tag_26:\n      sload(0xfb)\n      tag_128\n      swap1\n      0xffffffff\n      and\n      dup2\n      jump\n    tag_128:\n      mload(0x40)\n        /* \"#utility.yul\":3467:3477   */\n      0xffffffff\n        /* \"#utility.yul\":3455:3478   */\n      swap1\n      swap2\n      and\n        /* \"#utility.yul\":3437:3479   */\n      dup2\n      mstore\n        /* \"#utility.yul\":3425:3427   */\n      0x20\n        /* \"#utility.yul\":3410:3428   */\n      add\n        /* \"contracts/utils/WithSupervisedTransfers.sol\":1360:1390  uint32 public listingTimestamp */\n      tag_42\n        /* \"#utility.yul\":3293:3485   */\n      jump\n        /* \"@openzeppelin/contracts-upgradeable/access/AccessControlUpgradeable.sol\":5705:5852  function revokeRole(bytes32 role, address account) public virtual override onlyRole(getRoleAdmin(role)) {... */\n    tag_27:\n      tag_68\n      tag_133\n      calldatasize\n      0x04\n      tag_70\n      jump\t// in\n    tag_133:\n      tag_134\n      jump\t// in\n        /* \"contracts/tokens/Alvara.sol\":948:1030  bytes32 public constant GREYLIST_MANAGER_ROLE = keccak256(\"GREYLIST_MANAGER_ROLE\") */\n    tag_28:\n      tag_53\n        /* \"contracts/tokens/Alvara.sol\":996:1030  keccak256(\"GREYLIST_MANAGER_ROLE\") */\n      0x5be4d4bb045cde5abb3c363f9fc314c0f4f94dffcc1c7ba61871bdb28228c55f\n        /* \"contracts/tokens/Alvara.sol\":948:1030  bytes32 public constant GREYLIST_MANAGER_ROLE = keccak256(\"GREYLIST_MANAGER_ROLE\") */\n      dup2\n      jump\n        /* \"@openzeppelin/contracts-upgradeable/token/ERC20/ERC20Upgradeable.sol\":4345:4494  function allowance(address owner, address spender) public view virtual override returns (uint256) {... */\n    tag_29:\n      tag_53\n      tag_139\n      calldatasize\n      0x04\n      tag_140\n      jump\t// in\n    tag_139:\n      tag_141\n      jump\t// in\n        /* \"contracts/utils/WithSupervisedTransfers.sol\":2766:3121  function setListingTimestamp(uint32 newListingTimestamp)... */\n    tag_30:\n      tag_68\n      tag_144\n      calldatasize\n      0x04\n      tag_145\n      jump\t// in\n    tag_144:\n      tag_146\n      jump\t// in\n        /* \"@openzeppelin/contracts-upgradeable/access/AccessControlUpgradeable.sol\":3050:3263  function supportsInterface(bytes4 interfaceId) public view virtual override returns (bool) {... */\n    tag_41:\n        /* \"@openzeppelin/contracts-upgradeable/access/AccessControlUpgradeable.sol\":3135:3139  bool */\n      0x00\n      not(sub(shl(0xe0, 0x01), 0x01))\n        /* \"@openzeppelin/contracts-upgradeable/access/AccessControlUpgradeable.sol\":3158:3216  interfaceId == type(IAccessControlUpgradeable).interfaceId */\n      dup3\n      and\n      shl(0xe0, 0x7965db0b)\n      eq\n      dup1\n        /* \"@openzeppelin/contracts-upgradeable/access/AccessControlUpgradeable.sol\":3158:3256  interfaceId == type(IAccessControlUpgradeable).interfaceId || super.supportsInterface(interfaceId) */\n      tag_149\n      jumpi\n      pop\n      shl(0xe0, 0x01ffc9a7)\n      not(sub(shl(0xe0, 0x01), 0x01))\n        /* \"@openzeppelin/contracts-upgradeable/utils/introspection/ERC165Upgradeable.sol\":1189:1240  interfaceId == type(IERC165Upgradeable).interfaceId */\n      dup4\n      and\n      eq\n        /* \"@openzeppelin/contracts-upgradeable/access/AccessControlUpgradeable.sol\":3220:3256  super.supportsInterface(interfaceId) */\n    tag_149:\n        /* \"@openzeppelin/contracts-upgradeable/access/AccessControlUpgradeable.sol\":3151:3256  return interfaceId == type(IAccessControlUpgradeable).interfaceId || super.supportsInterface(interfaceId) */\n      swap3\n        /* \"@openzeppelin/contracts-upgradeable/access/AccessControlUpgradeable.sol\":3050:3263  function supportsInterface(bytes4 interfaceId) public view virtual override returns (bool) {... */\n      swap2\n      pop\n      pop\n      jump\t// out\n        /* \"@openzeppelin/contracts-upgradeable/token/ERC20/ERC20Upgradeable.sol\":2516:2614  function name() public view virtual override returns (string memory) {... */\n    tag_45:\n        /* \"@openzeppelin/contracts-upgradeable/token/ERC20/ERC20Upgradeable.sol\":2570:2583  string memory */\n      0x60\n        /* \"@openzeppelin/contracts-upgradeable/token/ERC20/ERC20Upgradeable.sol\":2602:2607  _name */\n      0x36\n        /* \"@openzeppelin/contracts-upgradeable/token/ERC20/ERC20Upgradeable.sol\":2595:2607  return _name */\n      dup1\n      sload\n      tag_152\n      swap1\n      tag_153\n      jump\t// in\n    tag_152:\n      dup1\n      0x1f\n      add\n      0x20\n      dup1\n      swap2\n      div\n      mul\n      0x20\n      add\n      mload(0x40)\n      swap1\n      dup2\n      add\n      0x40\n      mstore\n      dup1\n      swap3\n      swap2\n      swap1\n      dup2\n      dup2\n      mstore\n      0x20\n      add\n      dup3\n      dup1\n      sload\n      tag_154\n      swap1\n      tag_153\n      jump\t// in\n    tag_154:\n      dup1\n      iszero\n      tag_155\n      jumpi\n      dup1\n      0x1f\n      lt\n      tag_156\n      jumpi\n      0x0100\n      dup1\n      dup4\n      sload\n      div\n      mul\n      dup4\n      mstore\n      swap2\n      0x20\n      add\n      swap2\n      jump(tag_155)\n    tag_156:\n      dup3\n      add\n      swap2\n      swap1\n      0x00\n      mstore\n      keccak256(0x00, 0x20)\n      swap1\n    tag_157:\n      dup2\n      sload\n      dup2\n      mstore\n      swap1\n      0x01\n      add\n      swap1\n      0x20\n      add\n      dup1\n      dup4\n      gt\n      tag_157\n      jumpi\n      dup3\n      swap1\n      sub\n      0x1f\n      and\n      dup3\n      add\n      swap2\n    tag_155:\n      pop\n      pop\n      pop\n      pop\n      pop\n      swap1\n      pop\n        /* \"@openzeppelin/contracts-upgradeable/token/ERC20/ERC20Upgradeable.sol\":2516:2614  function name() public view virtual override returns (string memory) {... */\n      swap1\n      jump\t// out\n        /* \"@openzeppelin/contracts-upgradeable/token/ERC20/ERC20Upgradeable.sol\":4802:4999  function approve(address spender, uint256 amount) public virtual override returns (bool) {... */\n    tag_51:\n        /* \"@openzeppelin/contracts-upgradeable/token/ERC20/ERC20Upgradeable.sol\":4885:4889  bool */\n      0x00\n        /* \"@openzeppelin/contracts-upgradeable/utils/ContextUpgradeable.sol\":965:975  msg.sender */\n      caller\n        /* \"@openzeppelin/contracts-upgradeable/token/ERC20/ERC20Upgradeable.sol\":4939:4971  _approve(owner, spender, amount) */\n      tag_161\n        /* \"@openzeppelin/contracts-upgradeable/utils/ContextUpgradeable.sol\":965:975  msg.sender */\n      dup2\n        /* \"@openzeppelin/contracts-upgradeable/token/ERC20/ERC20Upgradeable.sol\":4955:4962  spender */\n      dup6\n        /* \"@openzeppelin/contracts-upgradeable/token/ERC20/ERC20Upgradeable.sol\":4964:4970  amount */\n      dup6\n        /* \"@openzeppelin/contracts-upgradeable/token/ERC20/ERC20Upgradeable.sol\":4939:4947  _approve */\n      tag_162\n        /* \"@openzeppelin/contracts-upgradeable/token/ERC20/ERC20Upgradeable.sol\":4939:4971  _approve(owner, spender, amount) */\n      jump\t// in\n    tag_161:\n      pop\n        /* \"@openzeppelin/contracts-upgradeable/token/ERC20/ERC20Upgradeable.sol\":4988:4992  true */\n      0x01\n      swap4\n        /* \"@openzeppelin/contracts-upgradeable/token/ERC20/ERC20Upgradeable.sol\":4802:4999  function approve(address spender, uint256 amount) public virtual override returns (bool) {... */\n      swap3\n      pop\n      pop\n      pop\n      jump\t// out\n        /* \"contracts/tokens/Alvara.sol\":3747:3965  function transferFrom(... */\n    tag_60:\n        /* \"contracts/utils/WithSupervisedTransfers.sol\":1770:1786  listingTimestamp */\n      sload(0xfb)\n        /* \"contracts/tokens/Alvara.sol\":3899:3903  bool */\n      0x00\n      swap1\n        /* \"contracts/tokens/Alvara.sol\":3880:3884  from */\n      dup5\n      swap1\n        /* \"contracts/tokens/Alvara.sol\":3886:3888  to */\n      dup5\n      swap1\n        /* \"contracts/tokens/Alvara.sol\":3899:3903  bool */\n      dup4\n      swap1\n        /* \"contracts/utils/WithSupervisedTransfers.sol\":1770:1786  listingTimestamp */\n      0xffffffff\n      and\n        /* \"contracts/utils/WithSupervisedTransfers.sol\":1770:1791  listingTimestamp == 0 */\n      iszero\n      dup1\n        /* \"contracts/utils/WithSupervisedTransfers.sol\":1770:1841  listingTimestamp == 0 ||... */\n      tag_165\n      jumpi\n      pop\n        /* \"contracts/utils/WithSupervisedTransfers.sol\":1825:1841  listingTimestamp */\n      and(0xffffffff, sload(0xfb))\n        /* \"contracts/utils/WithSupervisedTransfers.sol\":1807:1822  block.timestamp */\n      timestamp\n        /* \"contracts/utils/WithSupervisedTransfers.sol\":1807:1841  block.timestamp < listingTimestamp */\n      lt\n        /* \"contracts/utils/WithSupervisedTransfers.sol\":1770:1841  listingTimestamp == 0 ||... */\n    tag_165:\n        /* \"contracts/utils/WithSupervisedTransfers.sol\":1737:1841  bool duringSupervisedTransfers = listingTimestamp == 0 ||... */\n      swap1\n      pop\n        /* \"contracts/utils/WithSupervisedTransfers.sol\":1855:1880  duringSupervisedTransfers */\n      dup1\n        /* \"contracts/utils/WithSupervisedTransfers.sol\":1851:2281  if (duringSupervisedTransfers) {... */\n      iszero\n      tag_166\n      jumpi\n        /* \"contracts/utils/WithSupervisedTransfers.sol\":1896:1925  bool transactionInvolvesAdmin */\n      0x00\n        /* \"contracts/utils/WithSupervisedTransfers.sol\":1928:1961  hasRole(DEFAULT_ADMIN_ROLE, from) */\n      tag_167\n        /* \"contracts/utils/WithSupervisedTransfers.sol\":1896:1925  bool transactionInvolvesAdmin */\n      dup2\n        /* \"contracts/utils/WithSupervisedTransfers.sol\":1956:1960  from */\n      dup6\n        /* \"contracts/utils/WithSupervisedTransfers.sol\":1928:1935  hasRole */\n      tag_108\n        /* \"contracts/utils/WithSupervisedTransfers.sol\":1928:1961  hasRole(DEFAULT_ADMIN_ROLE, from) */\n      jump\t// in\n    tag_167:\n        /* \"contracts/utils/WithSupervisedTransfers.sol\":1928:2012  hasRole(DEFAULT_ADMIN_ROLE, from) ||... */\n      dup1\n      tag_169\n      jumpi\n      pop\n        /* \"contracts/utils/WithSupervisedTransfers.sol\":1981:2012  hasRole(DEFAULT_ADMIN_ROLE, to) */\n      tag_169\n        /* \"@openzeppelin/contracts-upgradeable/access/AccessControlUpgradeable.sol\":2365:2369  0x00 */\n      0x00\n        /* \"contracts/utils/WithSupervisedTransfers.sol\":2009:2011  to */\n      dup5\n        /* \"contracts/utils/WithSupervisedTransfers.sol\":1981:1988  hasRole */\n      tag_108\n        /* \"contracts/utils/WithSupervisedTransfers.sol\":1981:2012  hasRole(DEFAULT_ADMIN_ROLE, to) */\n      jump\t// in\n    tag_169:\n        /* \"contracts/utils/WithSupervisedTransfers.sol\":1928:2073  hasRole(DEFAULT_ADMIN_ROLE, from) ||... */\n      dup1\n      tag_171\n      jumpi\n      pop\n        /* \"contracts/utils/WithSupervisedTransfers.sol\":2032:2073  hasRole(DEFAULT_ADMIN_ROLE, _msgSender()) */\n      tag_171\n        /* \"@openzeppelin/contracts-upgradeable/access/AccessControlUpgradeable.sol\":2365:2369  0x00 */\n      0x00\n        /* \"@openzeppelin/contracts-upgradeable/utils/ContextUpgradeable.sol\":965:975  msg.sender */\n      caller\n        /* \"@openzeppelin/contracts-upgradeable/access/AccessControlUpgradeable.sol\":3350:3495  function hasRole(bytes32 role, address account) public view virtual override returns (bool) {... */\n      tag_108\n      jump\t// in\n        /* \"contracts/utils/WithSupervisedTransfers.sol\":2032:2073  hasRole(DEFAULT_ADMIN_ROLE, _msgSender()) */\n    tag_171:\n        /* \"contracts/utils/WithSupervisedTransfers.sol\":1896:2073  bool transactionInvolvesAdmin = hasRole(DEFAULT_ADMIN_ROLE, from) ||... */\n      swap1\n      pop\n        /* \"contracts/utils/WithSupervisedTransfers.sol\":2109:2133  transactionInvolvesAdmin */\n      dup1\n        /* \"contracts/utils/WithSupervisedTransfers.sol\":2108:2133  !transactionInvolvesAdmin */\n      iszero\n        /* \"contracts/utils/WithSupervisedTransfers.sol\":2108:2193  !transactionInvolvesAdmin &&... */\n      dup1\n      iszero\n      tag_173\n      jumpi\n      pop\n        /* \"contracts/utils/WithSupervisedTransfers.sol\":2154:2193  hasRole(ALLOWED_TRANSFER_FROM_ROLE, to) */\n      tag_174\n        /* \"contracts/utils/WithSupervisedTransfers.sol\":1315:1354  keccak256(\"ALLOWED_TRANSFER_FROM_ROLE\") */\n      0x2f26ac9ab74d35285b05b7b0d4a0f2ffdef33823bc15863d6299dbdd56e7b6b0\n        /* \"contracts/utils/WithSupervisedTransfers.sol\":2190:2192  to */\n      dup5\n        /* \"contracts/utils/WithSupervisedTransfers.sol\":2154:2161  hasRole */\n      tag_108\n        /* \"contracts/utils/WithSupervisedTransfers.sol\":2154:2193  hasRole(ALLOWED_TRANSFER_FROM_ROLE, to) */\n      jump\t// in\n    tag_174:\n        /* \"contracts/utils/WithSupervisedTransfers.sol\":2153:2193  !hasRole(ALLOWED_TRANSFER_FROM_ROLE, to) */\n      iszero\n        /* \"contracts/utils/WithSupervisedTransfers.sol\":2108:2193  !transactionInvolvesAdmin &&... */\n    tag_173:\n        /* \"contracts/utils/WithSupervisedTransfers.sol\":2087:2271  if (... */\n      iszero\n      tag_175\n      jumpi\n        /* \"contracts/utils/WithSupervisedTransfers.sol\":2233:2256  SupervisedTranferFrom() */\n      mload(0x40)\n      shl(0xe0, 0xafae8e97)\n      dup2\n      mstore\n      0x04\n      add\n      mload(0x40)\n      dup1\n      swap2\n      sub\n      swap1\n      revert\n        /* \"contracts/utils/WithSupervisedTransfers.sol\":2087:2271  if (... */\n    tag_175:\n        /* \"contracts/utils/WithSupervisedTransfers.sol\":1882:2281  {... */\n      pop\n        /* \"contracts/utils/WithSupervisedTransfers.sol\":1851:2281  if (duringSupervisedTransfers) {... */\n    tag_166:\n        /* \"contracts/tokens/Alvara.sol\":3922:3958  super.transferFrom(from, to, amount) */\n      tag_177\n        /* \"contracts/tokens/Alvara.sol\":3941:3945  from */\n      dup8\n        /* \"contracts/tokens/Alvara.sol\":3947:3949  to */\n      dup8\n        /* \"contracts/tokens/Alvara.sol\":3951:3957  amount */\n      dup8\n        /* \"contracts/tokens/Alvara.sol\":3922:3940  super.transferFrom */\n      tag_178\n        /* \"contracts/tokens/Alvara.sol\":3922:3958  super.transferFrom(from, to, amount) */\n      jump\t// in\n    tag_177:\n        /* \"contracts/tokens/Alvara.sol\":3915:3958  return super.transferFrom(from, to, amount) */\n      swap8\n        /* \"contracts/tokens/Alvara.sol\":3747:3965  function transferFrom(... */\n      swap7\n      pop\n      pop\n      pop\n      pop\n      pop\n      pop\n      pop\n      jump\t// out\n        /* \"@openzeppelin/contracts-upgradeable/access/AccessControlUpgradeable.sol\":5280:5425  function grantRole(bytes32 role, address account) public virtual override onlyRole(getRoleAdmin(role)) {... */\n    tag_71:\n        /* \"@openzeppelin/contracts-upgradeable/access/AccessControlUpgradeable.sol\":4929:4936  bytes32 */\n      0x00\n        /* \"@openzeppelin/contracts-upgradeable/access/AccessControlUpgradeable.sol\":4955:4967  _roles[role] */\n      dup3\n      dup2\n      mstore\n        /* \"@openzeppelin/contracts-upgradeable/access/AccessControlUpgradeable.sol\":4955:4961  _roles */\n      0xc9\n        /* \"@openzeppelin/contracts-upgradeable/access/AccessControlUpgradeable.sol\":4955:4967  _roles[role] */\n      0x20\n      mstore\n      0x40\n      swap1\n      keccak256\n        /* \"@openzeppelin/contracts-upgradeable/access/AccessControlUpgradeable.sol\":4955:4977  _roles[role].adminRole */\n      0x01\n      add\n      sload\n        /* \"@openzeppelin/contracts-upgradeable/access/AccessControlUpgradeable.sol\":2798:2814  _checkRole(role) */\n      tag_182\n        /* \"@openzeppelin/contracts-upgradeable/access/AccessControlUpgradeable.sol\":2809:2813  role */\n      dup2\n        /* \"@openzeppelin/contracts-upgradeable/access/AccessControlUpgradeable.sol\":2798:2808  _checkRole */\n      tag_183\n        /* \"@openzeppelin/contracts-upgradeable/access/AccessControlUpgradeable.sol\":2798:2814  _checkRole(role) */\n      jump\t// in\n    tag_182:\n        /* \"@openzeppelin/contracts-upgradeable/access/AccessControlUpgradeable.sol\":5393:5418  _grantRole(role, account) */\n      tag_185\n        /* \"@openzeppelin/contracts-upgradeable/access/AccessControlUpgradeable.sol\":5404:5408  role */\n      dup4\n        /* \"@openzeppelin/contracts-upgradeable/access/AccessControlUpgradeable.sol\":5410:5417  account */\n      dup4\n        /* \"@openzeppelin/contracts-upgradeable/access/AccessControlUpgradeable.sol\":5393:5403  _grantRole */\n      tag_186\n        /* \"@openzeppelin/contracts-upgradeable/access/AccessControlUpgradeable.sol\":5393:5418  _grantRole(role, account) */\n      jump\t// in\n    tag_185:\n        /* \"@openzeppelin/contracts-upgradeable/access/AccessControlUpgradeable.sol\":5280:5425  function grantRole(bytes32 role, address account) public virtual override onlyRole(getRoleAdmin(role)) {... */\n      pop\n      pop\n      pop\n      jump\t// out\n        /* \"@openzeppelin/contracts-upgradeable/access/AccessControlUpgradeable.sol\":6389:6603  function renounceRole(bytes32 role, address account) public virtual override {... */\n    tag_78:\n      sub(shl(0xa0, 0x01), 0x01)\n        /* \"@openzeppelin/contracts-upgradeable/access/AccessControlUpgradeable.sol\":6484:6507  account == _msgSender() */\n      dup2\n      and\n        /* \"@openzeppelin/contracts-upgradeable/utils/ContextUpgradeable.sol\":965:975  msg.sender */\n      caller\n        /* \"@openzeppelin/contracts-upgradeable/access/AccessControlUpgradeable.sol\":6484:6507  account == _msgSender() */\n      eq\n        /* \"@openzeppelin/contracts-upgradeable/access/AccessControlUpgradeable.sol\":6476:6559  require(account == _msgSender(), \"AccessControl: can only renounce roles for self\") */\n      tag_190\n      jumpi\n      mload(0x40)\n      shl(0xe5, 0x461bcd)\n      dup2\n      mstore\n        /* \"#utility.yul\":4623:4625   */\n      0x20\n        /* \"@openzeppelin/contracts-upgradeable/access/AccessControlUpgradeable.sol\":6476:6559  require(account == _msgSender(), \"AccessControl: can only renounce roles for self\") */\n      0x04\n      dup3\n      add\n        /* \"#utility.yul\":4605:4626   */\n      mstore\n        /* \"#utility.yul\":4662:4664   */\n      0x2f\n        /* \"#utility.yul\":4642:4660   */\n      0x24\n      dup3\n      add\n        /* \"#utility.yul\":4635:4665   */\n      mstore\n        /* \"#utility.yul\":4701:4735   */\n      0x416363657373436f6e74726f6c3a2063616e206f6e6c792072656e6f756e6365\n        /* \"#utility.yul\":4681:4699   */\n      0x44\n      dup3\n      add\n        /* \"#utility.yul\":4674:4736   */\n      mstore\n      shl(0x89, 0x103937b632b9903337b91039b2b633)\n        /* \"#utility.yul\":4752:4770   */\n      0x64\n      dup3\n      add\n        /* \"#utility.yul\":4745:4790   */\n      mstore\n        /* \"#utility.yul\":4807:4826   */\n      0x84\n      add\n        /* \"@openzeppelin/contracts-upgradeable/access/AccessControlUpgradeable.sol\":6476:6559  require(account == _msgSender(), \"AccessControl: can only renounce roles for self\") */\n    tag_191:\n      mload(0x40)\n      dup1\n      swap2\n      sub\n      swap1\n      revert\n    tag_190:\n        /* \"@openzeppelin/contracts-upgradeable/access/AccessControlUpgradeable.sol\":6570:6596  _revokeRole(role, account) */\n      tag_193\n        /* \"@openzeppelin/contracts-upgradeable/access/AccessControlUpgradeable.sol\":6582:6586  role */\n      dup3\n        /* \"@openzeppelin/contracts-upgradeable/access/AccessControlUpgradeable.sol\":6588:6595  account */\n      dup3\n        /* \"@openzeppelin/contracts-upgradeable/access/AccessControlUpgradeable.sol\":6570:6581  _revokeRole */\n      tag_194\n        /* \"@openzeppelin/contracts-upgradeable/access/AccessControlUpgradeable.sol\":6570:6596  _revokeRole(role, account) */\n      jump\t// in\n    tag_193:\n        /* \"@openzeppelin/contracts-upgradeable/access/AccessControlUpgradeable.sol\":6389:6603  function renounceRole(bytes32 role, address account) public virtual override {... */\n      pop\n      pop\n      jump\t// out\n        /* \"contracts/tokens/Alvara.sol\":2187:2433  function addToGreyList(address account) public onlyRole(GREYLIST_MANAGER_ROLE) {... */\n    tag_82:\n        /* \"contracts/tokens/Alvara.sol\":996:1030  keccak256(\"GREYLIST_MANAGER_ROLE\") */\n      0x5be4d4bb045cde5abb3c363f9fc314c0f4f94dffcc1c7ba61871bdb28228c55f\n        /* \"@openzeppelin/contracts-upgradeable/access/AccessControlUpgradeable.sol\":2798:2814  _checkRole(role) */\n      tag_196\n        /* \"@openzeppelin/contracts-upgradeable/access/AccessControlUpgradeable.sol\":2809:2813  role */\n      dup2\n        /* \"@openzeppelin/contracts-upgradeable/access/AccessControlUpgradeable.sol\":2798:2808  _checkRole */\n      tag_183\n        /* \"@openzeppelin/contracts-upgradeable/access/AccessControlUpgradeable.sol\":2798:2814  _checkRole(role) */\n      jump\t// in\n    tag_196:\n      sub(shl(0xa0, 0x01), 0x01)\n        /* \"contracts/tokens/Alvara.sol\":2280:2298  _greyList[account] */\n      dup3\n      and\n      0x00\n      swap1\n      dup2\n      mstore\n        /* \"contracts/tokens/Alvara.sol\":2280:2289  _greyList */\n      0xfc\n        /* \"contracts/tokens/Alvara.sol\":2280:2298  _greyList[account] */\n      0x20\n      mstore\n      0x40\n      swap1\n      keccak256\n      sload\n      0xff\n      and\n        /* \"contracts/tokens/Alvara.sol\":2276:2358  if (_greyList[account]) {... */\n      iszero\n      tag_198\n      jumpi\n        /* \"contracts/tokens/Alvara.sol\":2321:2347  AddressAlreadyGreylisted() */\n      mload(0x40)\n      shl(0xe3, 0x14829857)\n      dup2\n      mstore\n      0x04\n      add\n      mload(0x40)\n      dup1\n      swap2\n      sub\n      swap1\n      revert\n        /* \"contracts/tokens/Alvara.sol\":2276:2358  if (_greyList[account]) {... */\n    tag_198:\n      sub(shl(0xa0, 0x01), 0x01)\n        /* \"contracts/tokens/Alvara.sol\":2367:2385  _greyList[account] */\n      dup3\n      and\n      0x00\n      dup2\n      dup2\n      mstore\n        /* \"contracts/tokens/Alvara.sol\":2367:2376  _greyList */\n      0xfc\n        /* \"contracts/tokens/Alvara.sol\":2367:2385  _greyList[account] */\n      0x20\n      mstore\n      0x40\n      dup1\n      dup3\n      keccak256\n        /* \"contracts/tokens/Alvara.sol\":2367:2392  _greyList[account] = true */\n      dup1\n      sload\n      not(0xff)\n      and\n        /* \"contracts/tokens/Alvara.sol\":2388:2392  true */\n      0x01\n        /* \"contracts/tokens/Alvara.sol\":2367:2392  _greyList[account] = true */\n      or\n      swap1\n      sstore\n        /* \"contracts/tokens/Alvara.sol\":2407:2426  GreyListed(account) */\n      mload\n      0x4f03d75a12f5f2153536f14e57d9477eff6be012215a22e894dbc840db1c8f7e\n      swap2\n        /* \"contracts/tokens/Alvara.sol\":2367:2385  _greyList[account] */\n      swap1\n        /* \"contracts/tokens/Alvara.sol\":2407:2426  GreyListed(account) */\n      log2\n        /* \"contracts/tokens/Alvara.sol\":2187:2433  function addToGreyList(address account) public onlyRole(GREYLIST_MANAGER_ROLE) {... */\n      pop\n      pop\n      jump\t// out\n        /* \"@openzeppelin/contracts-upgradeable/token/ERC20/ERC20Upgradeable.sol\":6212:6446  function increaseAllowance(address spender, uint256 addedValue) public virtual returns (bool) {... */\n    tag_85:\n        /* \"@openzeppelin/contracts-upgradeable/token/ERC20/ERC20Upgradeable.sol\":6300:6304  bool */\n      0x00\n        /* \"@openzeppelin/contracts-upgradeable/utils/ContextUpgradeable.sol\":965:975  msg.sender */\n      caller\n        /* \"@openzeppelin/contracts-upgradeable/token/ERC20/ERC20Upgradeable.sol\":6354:6418  _approve(owner, spender, allowance(owner, spender) + addedValue) */\n      tag_161\n        /* \"@openzeppelin/contracts-upgradeable/utils/ContextUpgradeable.sol\":965:975  msg.sender */\n      dup2\n        /* \"@openzeppelin/contracts-upgradeable/token/ERC20/ERC20Upgradeable.sol\":6370:6377  spender */\n      dup6\n        /* \"@openzeppelin/contracts-upgradeable/token/ERC20/ERC20Upgradeable.sol\":6407:6417  addedValue */\n      dup6\n        /* \"@openzeppelin/contracts-upgradeable/token/ERC20/ERC20Upgradeable.sol\":6379:6404  allowance(owner, spender) */\n      tag_202\n        /* \"@openzeppelin/contracts-upgradeable/utils/ContextUpgradeable.sol\":965:975  msg.sender */\n      dup4\n        /* \"@openzeppelin/contracts-upgradeable/token/ERC20/ERC20Upgradeable.sol\":6370:6377  spender */\n      dup4\n        /* \"@openzeppelin/contracts-upgradeable/token/ERC20/ERC20Upgradeable.sol\":6379:6388  allowance */\n      tag_141\n        /* \"@openzeppelin/contracts-upgradeable/token/ERC20/ERC20Upgradeable.sol\":6379:6404  allowance(owner, spender) */\n      jump\t// in\n    tag_202:\n        /* \"@openzeppelin/contracts-upgradeable/token/ERC20/ERC20Upgradeable.sol\":6379:6417  allowance(owner, spender) + addedValue */\n      tag_203\n      swap2\n      swap1\n      tag_204\n      jump\t// in\n    tag_203:\n        /* \"@openzeppelin/contracts-upgradeable/token/ERC20/ERC20Upgradeable.sol\":6354:6362  _approve */\n      tag_162\n        /* \"@openzeppelin/contracts-upgradeable/token/ERC20/ERC20Upgradeable.sol\":6354:6418  _approve(owner, spender, allowance(owner, spender) + addedValue) */\n      jump\t// in\n        /* \"@openzeppelin/contracts-upgradeable/token/ERC20/extensions/ERC20BurnableUpgradeable.sol\":869:958  function burn(uint256 amount) public virtual {... */\n    tag_90:\n        /* \"@openzeppelin/contracts-upgradeable/token/ERC20/extensions/ERC20BurnableUpgradeable.sol\":924:951  _burn(_msgSender(), amount) */\n      tag_206\n        /* \"@openzeppelin/contracts-upgradeable/utils/ContextUpgradeable.sol\":965:975  msg.sender */\n      caller\n        /* \"@openzeppelin/contracts-upgradeable/token/ERC20/extensions/ERC20BurnableUpgradeable.sol\":944:950  amount */\n      dup3\n        /* \"@openzeppelin/contracts-upgradeable/token/ERC20/extensions/ERC20BurnableUpgradeable.sol\":924:929  _burn */\n      tag_208\n        /* \"@openzeppelin/contracts-upgradeable/token/ERC20/extensions/ERC20BurnableUpgradeable.sol\":924:951  _burn(_msgSender(), amount) */\n      jump\t// in\n    tag_206:\n        /* \"@openzeppelin/contracts-upgradeable/token/ERC20/extensions/ERC20BurnableUpgradeable.sol\":869:958  function burn(uint256 amount) public virtual {... */\n      pop\n      jump\t// out\n        /* \"contracts/tokens/Alvara.sol\":2630:2931  function removeFromGreyList(address account) public onlyRole(GREYLIST_MANAGER_ROLE) {... */\n    tag_96:\n        /* \"contracts/tokens/Alvara.sol\":996:1030  keccak256(\"GREYLIST_MANAGER_ROLE\") */\n      0x5be4d4bb045cde5abb3c363f9fc314c0f4f94dffcc1c7ba61871bdb28228c55f\n        /* \"@openzeppelin/contracts-upgradeable/access/AccessControlUpgradeable.sol\":2798:2814  _checkRole(role) */\n      tag_210\n        /* \"@openzeppelin/contracts-upgradeable/access/AccessControlUpgradeable.sol\":2809:2813  role */\n      dup2\n        /* \"@openzeppelin/contracts-upgradeable/access/AccessControlUpgradeable.sol\":2798:2808  _checkRole */\n      tag_183\n        /* \"@openzeppelin/contracts-upgradeable/access/AccessControlUpgradeable.sol\":2798:2814  _checkRole(role) */\n      jump\t// in\n    tag_210:\n      sub(shl(0xa0, 0x01), 0x01)\n        /* \"contracts/tokens/Alvara.sol\":2729:2747  _greyList[account] */\n      dup3\n      and\n      0x00\n      swap1\n      dup2\n      mstore\n        /* \"contracts/tokens/Alvara.sol\":2729:2738  _greyList */\n      0xfc\n        /* \"contracts/tokens/Alvara.sol\":2729:2747  _greyList[account] */\n      0x20\n      mstore\n      0x40\n      swap1\n      keccak256\n      sload\n      0xff\n      and\n        /* \"contracts/tokens/Alvara.sol\":2724:2846  if (!_greyList[account]) {... */\n      tag_212\n      jumpi\n        /* \"contracts/tokens/Alvara.sol\":2770:2792  AddressNotInGreyList() */\n      mload(0x40)\n      shl(0xe0, 0x17c33b65)\n      dup2\n      mstore\n      0x04\n      add\n      mload(0x40)\n      dup1\n      swap2\n      sub\n      swap1\n      revert\n        /* \"contracts/tokens/Alvara.sol\":2724:2846  if (!_greyList[account]) {... */\n    tag_212:\n      sub(shl(0xa0, 0x01), 0x01)\n        /* \"contracts/tokens/Alvara.sol\":2855:2873  _greyList[account] */\n      dup3\n      and\n        /* \"contracts/tokens/Alvara.sol\":2876:2881  false */\n      0x00\n        /* \"contracts/tokens/Alvara.sol\":2855:2873  _greyList[account] */\n      dup2\n      dup2\n      mstore\n        /* \"contracts/tokens/Alvara.sol\":2855:2864  _greyList */\n      0xfc\n        /* \"contracts/tokens/Alvara.sol\":2855:2873  _greyList[account] */\n      0x20\n      mstore\n      0x40\n      dup1\n      dup3\n      keccak256\n        /* \"contracts/tokens/Alvara.sol\":2855:2881  _greyList[account] = false */\n      dup1\n      sload\n      not(0xff)\n      and\n      swap1\n      sstore\n        /* \"contracts/tokens/Alvara.sol\":2896:2924  RemovedFromGreyList(account) */\n      mload\n      0x43a926d6828be5aecd76c987f92b63201c077e5ebf44ea16eecd0f2342bf5319\n      swap2\n        /* \"contracts/tokens/Alvara.sol\":2876:2881  false */\n      swap1\n        /* \"contracts/tokens/Alvara.sol\":2896:2924  RemovedFromGreyList(account) */\n      log2\n        /* \"contracts/tokens/Alvara.sol\":2630:2931  function removeFromGreyList(address account) public onlyRole(GREYLIST_MANAGER_ROLE) {... */\n      pop\n      pop\n      jump\t// out\n        /* \"@openzeppelin/contracts-upgradeable/token/ERC20/extensions/ERC20BurnableUpgradeable.sol\":1264:1425  function burnFrom(address account, uint256 amount) public virtual {... */\n    tag_103:\n        /* \"@openzeppelin/contracts-upgradeable/token/ERC20/extensions/ERC20BurnableUpgradeable.sol\":1340:1386  _spendAllowance(account, _msgSender(), amount) */\n      tag_215\n        /* \"@openzeppelin/contracts-upgradeable/token/ERC20/extensions/ERC20BurnableUpgradeable.sol\":1356:1363  account */\n      dup3\n        /* \"@openzeppelin/contracts-upgradeable/utils/ContextUpgradeable.sol\":965:975  msg.sender */\n      caller\n        /* \"@openzeppelin/contracts-upgradeable/token/ERC20/extensions/ERC20BurnableUpgradeable.sol\":1379:1385  amount */\n      dup4\n        /* \"@openzeppelin/contracts-upgradeable/token/ERC20/extensions/ERC20BurnableUpgradeable.sol\":1340:1355  _spendAllowance */\n      tag_217\n        /* \"@openzeppelin/contracts-upgradeable/token/ERC20/extensions/ERC20BurnableUpgradeable.sol\":1340:1386  _spendAllowance(account, _msgSender(), amount) */\n      jump\t// in\n    tag_215:\n        /* \"@openzeppelin/contracts-upgradeable/token/ERC20/extensions/ERC20BurnableUpgradeable.sol\":1396:1418  _burn(account, amount) */\n      tag_193\n        /* \"@openzeppelin/contracts-upgradeable/token/ERC20/extensions/ERC20BurnableUpgradeable.sol\":1402:1409  account */\n      dup3\n        /* \"@openzeppelin/contracts-upgradeable/token/ERC20/extensions/ERC20BurnableUpgradeable.sol\":1411:1417  amount */\n      dup3\n        /* \"@openzeppelin/contracts-upgradeable/token/ERC20/extensions/ERC20BurnableUpgradeable.sol\":1396:1401  _burn */\n      tag_208\n        /* \"@openzeppelin/contracts-upgradeable/token/ERC20/extensions/ERC20BurnableUpgradeable.sol\":1396:1418  _burn(account, amount) */\n      jump\t// in\n        /* \"contracts/tokens/Alvara.sol\":1773:1993  function initialize() public initializer {... */\n    tag_105:\n        /* \"@openzeppelin/contracts-upgradeable/proxy/utils/Initializable.sol\":3279:3298  bool isTopLevelCall */\n      0x00\n        /* \"@openzeppelin/contracts-upgradeable/proxy/utils/Initializable.sol\":3302:3315  _initializing */\n      sload\n      0x0100\n      swap1\n      div\n      0xff\n      and\n        /* \"@openzeppelin/contracts-upgradeable/proxy/utils/Initializable.sol\":3301:3315  !_initializing */\n      iszero\n      dup1\n        /* \"@openzeppelin/contracts-upgradeable/proxy/utils/Initializable.sol\":3347:3381  isTopLevelCall && _initialized < 1 */\n      dup1\n      iszero\n      tag_220\n      jumpi\n      pop\n        /* \"@openzeppelin/contracts-upgradeable/proxy/utils/Initializable.sol\":3365:3377  _initialized */\n      sload(0x00)\n        /* \"@openzeppelin/contracts-upgradeable/proxy/utils/Initializable.sol\":3380:3381  1 */\n      0x01\n        /* \"@openzeppelin/contracts-upgradeable/proxy/utils/Initializable.sol\":3365:3377  _initialized */\n      0xff\n      swap1\n      swap2\n      and\n        /* \"@openzeppelin/contracts-upgradeable/proxy/utils/Initializable.sol\":3365:3381  _initialized < 1 */\n      lt\n        /* \"@openzeppelin/contracts-upgradeable/proxy/utils/Initializable.sol\":3347:3381  isTopLevelCall && _initialized < 1 */\n    tag_220:\n        /* \"@openzeppelin/contracts-upgradeable/proxy/utils/Initializable.sol\":3346:3454  (isTopLevelCall && _initialized < 1) || (!AddressUpgradeable.isContract(address(this)) && _initialized == 1) */\n      dup1\n      tag_224\n      jumpi\n      pop\n        /* \"@openzeppelin/contracts-upgradeable/proxy/utils/Initializable.sol\":3426:3430  this */\n      address\n        /* \"@openzeppelin/contracts-upgradeable/utils/AddressUpgradeable.sol\":1713:1732  account.code.length */\n      extcodesize\n        /* \"@openzeppelin/contracts-upgradeable/utils/AddressUpgradeable.sol\":1713:1736  account.code.length > 0 */\n      iszero\n      dup1\n      iszero\n        /* \"@openzeppelin/contracts-upgradeable/proxy/utils/Initializable.sol\":3387:3453  !AddressUpgradeable.isContract(address(this)) && _initialized == 1 */\n      tag_224\n      jumpi\n      pop\n        /* \"@openzeppelin/contracts-upgradeable/proxy/utils/Initializable.sol\":3436:3448  _initialized */\n      and(0xff, sload(0x00))\n      0x01\n        /* \"@openzeppelin/contracts-upgradeable/proxy/utils/Initializable.sol\":3436:3453  _initialized == 1 */\n      eq\n        /* \"@openzeppelin/contracts-upgradeable/proxy/utils/Initializable.sol\":3387:3453  !AddressUpgradeable.isContract(address(this)) && _initialized == 1 */\n    tag_224:\n        /* \"@openzeppelin/contracts-upgradeable/proxy/utils/Initializable.sol\":3325:3526  require(... */\n      tag_225\n      jumpi\n      mload(0x40)\n      shl(0xe5, 0x461bcd)\n      dup2\n      mstore\n        /* \"#utility.yul\":5301:5303   */\n      0x20\n        /* \"@openzeppelin/contracts-upgradeable/proxy/utils/Initializable.sol\":3325:3526  require(... */\n      0x04\n      dup3\n      add\n        /* \"#utility.yul\":5283:5304   */\n      mstore\n        /* \"#utility.yul\":5340:5342   */\n      0x2e\n        /* \"#utility.yul\":5320:5338   */\n      0x24\n      dup3\n      add\n        /* \"#utility.yul\":5313:5343   */\n      mstore\n        /* \"#utility.yul\":5379:5413   */\n      0x496e697469616c697a61626c653a20636f6e747261637420697320616c726561\n        /* \"#utility.yul\":5359:5377   */\n      0x44\n      dup3\n      add\n        /* \"#utility.yul\":5352:5414   */\n      mstore\n      shl(0x92, 0x191e481a5b9a5d1a585b1a5e9959)\n        /* \"#utility.yul\":5430:5448   */\n      0x64\n      dup3\n      add\n        /* \"#utility.yul\":5423:5467   */\n      mstore\n        /* \"#utility.yul\":5484:5503   */\n      0x84\n      add\n        /* \"@openzeppelin/contracts-upgradeable/proxy/utils/Initializable.sol\":3325:3526  require(... */\n      tag_191\n        /* \"#utility.yul\":5099:5509   */\n      jump\n        /* \"@openzeppelin/contracts-upgradeable/proxy/utils/Initializable.sol\":3325:3526  require(... */\n    tag_225:\n        /* \"@openzeppelin/contracts-upgradeable/proxy/utils/Initializable.sol\":3536:3548  _initialized */\n      0x00\n        /* \"@openzeppelin/contracts-upgradeable/proxy/utils/Initializable.sol\":3536:3552  _initialized = 1 */\n      dup1\n      sload\n      not(0xff)\n      and\n        /* \"@openzeppelin/contracts-upgradeable/proxy/utils/Initializable.sol\":3551:3552  1 */\n      0x01\n        /* \"@openzeppelin/contracts-upgradeable/proxy/utils/Initializable.sol\":3536:3552  _initialized = 1 */\n      or\n      swap1\n      sstore\n        /* \"@openzeppelin/contracts-upgradeable/proxy/utils/Initializable.sol\":3562:3627  if (isTopLevelCall) {... */\n      dup1\n      iszero\n      tag_228\n      jumpi\n        /* \"@openzeppelin/contracts-upgradeable/proxy/utils/Initializable.sol\":3596:3609  _initializing */\n      0x00\n        /* \"@openzeppelin/contracts-upgradeable/proxy/utils/Initializable.sol\":3596:3616  _initializing = true */\n      dup1\n      sload\n      not(0xff00)\n      and\n      0x0100\n      or\n      swap1\n      sstore\n        /* \"@openzeppelin/contracts-upgradeable/proxy/utils/Initializable.sol\":3562:3627  if (isTopLevelCall) {... */\n    tag_228:\n        /* \"contracts/tokens/Alvara.sol\":1824:1854  __ERC20_init(\"Alvara\", \"ALVA\") */\n      tag_230\n      mload(0x40)\n      dup1\n      0x40\n      add\n      0x40\n      mstore\n      dup1\n      0x06\n      dup2\n      mstore\n      0x20\n      add\n      shl(0xd0, 0x416c76617261)\n      dup2\n      mstore\n      pop\n      mload(0x40)\n      dup1\n      0x40\n      add\n      0x40\n      mstore\n      dup1\n      0x04\n      dup2\n      mstore\n      0x20\n      add\n      shl(0xe0, 0x414c5641)\n      dup2\n      mstore\n      pop\n        /* \"contracts/tokens/Alvara.sol\":1824:1836  __ERC20_init */\n      tag_231\n        /* \"contracts/tokens/Alvara.sol\":1824:1854  __ERC20_init(\"Alvara\", \"ALVA\") */\n      jump\t// in\n    tag_230:\n        /* \"contracts/tokens/Alvara.sol\":1864:1886  __ERC20Burnable_init() */\n      tag_232\n        /* \"contracts/tokens/Alvara.sol\":1864:1884  __ERC20Burnable_init */\n      tag_233\n        /* \"contracts/tokens/Alvara.sol\":1864:1886  __ERC20Burnable_init() */\n      jump\t// in\n    tag_232:\n        /* \"contracts/tokens/Alvara.sol\":1896:1928  __WithSupervisedTransfers_init() */\n      tag_234\n        /* \"contracts/tokens/Alvara.sol\":1896:1926  __WithSupervisedTransfers_init */\n      tag_235\n        /* \"contracts/tokens/Alvara.sol\":1896:1928  __WithSupervisedTransfers_init() */\n      jump\t// in\n    tag_234:\n        /* \"contracts/tokens/Alvara.sol\":1939:1986  _mint(msg.sender, 200_000_000 * 10**decimals()) */\n      tag_236\n        /* \"contracts/tokens/Alvara.sol\":1945:1955  msg.sender */\n      caller\n        /* \"contracts/tokens/Alvara.sol\":1971:1985  10**decimals() */\n      tag_238\n        /* \"@openzeppelin/contracts-upgradeable/token/ERC20/ERC20Upgradeable.sol\":3544:3546  18 */\n      0x12\n        /* \"contracts/tokens/Alvara.sol\":1971:1973  10 */\n      0x0a\n        /* \"contracts/tokens/Alvara.sol\":1971:1985  10**decimals() */\n      tag_239\n      jump\t// in\n    tag_238:\n        /* \"contracts/tokens/Alvara.sol\":1957:1985  200_000_000 * 10**decimals() */\n      tag_240\n      swap1\n        /* \"contracts/tokens/Alvara.sol\":1957:1968  200_000_000 */\n      0x0bebc200\n        /* \"contracts/tokens/Alvara.sol\":1957:1985  200_000_000 * 10**decimals() */\n      tag_241\n      jump\t// in\n    tag_240:\n        /* \"contracts/tokens/Alvara.sol\":1939:1944  _mint */\n      tag_242\n        /* \"contracts/tokens/Alvara.sol\":1939:1986  _mint(msg.sender, 200_000_000 * 10**decimals()) */\n      jump\t// in\n    tag_236:\n        /* \"@openzeppelin/contracts-upgradeable/proxy/utils/Initializable.sol\":3651:3665  isTopLevelCall */\n      dup1\n        /* \"@openzeppelin/contracts-upgradeable/proxy/utils/Initializable.sol\":3647:3746  if (isTopLevelCall) {... */\n      iszero\n      tag_206\n      jumpi\n        /* \"@openzeppelin/contracts-upgradeable/proxy/utils/Initializable.sol\":3697:3702  false */\n      0x00\n        /* \"@openzeppelin/contracts-upgradeable/proxy/utils/Initializable.sol\":3681:3702  _initializing = false */\n      dup1\n      sload\n      not(0xff00)\n      and\n      swap1\n      sstore\n        /* \"@openzeppelin/contracts-upgradeable/proxy/utils/Initializable.sol\":3721:3735  Initialized(1) */\n      mload(0x40)\n      0x01\n        /* \"#utility.yul\":2824:2860   */\n      dup2\n      mstore\n        /* \"@openzeppelin/contracts-upgradeable/proxy/utils/Initializable.sol\":3721:3735  Initialized(1) */\n      0x7f26b83ff96e1f2b6a682f133852f6798a09c465da95921460cefb3847402498\n      swap1\n        /* \"#utility.yul\":2812:2814   */\n      0x20\n        /* \"#utility.yul\":2797:2815   */\n      add\n        /* \"@openzeppelin/contracts-upgradeable/proxy/utils/Initializable.sol\":3721:3735  Initialized(1) */\n      mload(0x40)\n      dup1\n      swap2\n      sub\n      swap1\n      log1\n        /* \"@openzeppelin/contracts-upgradeable/proxy/utils/Initializable.sol\":3269:3752  {... */\n      pop\n        /* \"contracts/tokens/Alvara.sol\":1773:1993  function initialize() public initializer {... */\n      jump\t// out\n        /* \"@openzeppelin/contracts-upgradeable/access/AccessControlUpgradeable.sol\":3350:3495  function hasRole(bytes32 role, address account) public view virtual override returns (bool) {... */\n    tag_108:\n        /* \"@openzeppelin/contracts-upgradeable/access/AccessControlUpgradeable.sol\":3436:3440  bool */\n      0x00\n        /* \"@openzeppelin/contracts-upgradeable/access/AccessControlUpgradeable.sol\":3459:3471  _roles[role] */\n      swap2\n      dup3\n      mstore\n        /* \"@openzeppelin/contracts-upgradeable/access/AccessControlUpgradeable.sol\":3459:3465  _roles */\n      0xc9\n        /* \"@openzeppelin/contracts-upgradeable/access/AccessControlUpgradeable.sol\":3459:3471  _roles[role] */\n      0x20\n      swap1\n      dup2\n      mstore\n      0x40\n      dup1\n      dup5\n      keccak256\n      sub(shl(0xa0, 0x01), 0x01)\n        /* \"@openzeppelin/contracts-upgradeable/access/AccessControlUpgradeable.sol\":3459:3488  _roles[role].members[account] */\n      swap4\n      swap1\n      swap4\n      and\n      dup5\n      mstore\n      swap2\n      swap1\n      mstore\n      swap1\n      keccak256\n      sload\n      0xff\n      and\n      swap1\n        /* \"@openzeppelin/contracts-upgradeable/access/AccessControlUpgradeable.sol\":3350:3495  function hasRole(bytes32 role, address account) public view virtual override returns (bool) {... */\n      jump\t// out\n        /* \"@openzeppelin/contracts-upgradeable/token/ERC20/ERC20Upgradeable.sol\":2727:2829  function symbol() public view virtual override returns (string memory) {... */\n    tag_111:\n        /* \"@openzeppelin/contracts-upgradeable/token/ERC20/ERC20Upgradeable.sol\":2783:2796  string memory */\n      0x60\n        /* \"@openzeppelin/contracts-upgradeable/token/ERC20/ERC20Upgradeable.sol\":2815:2822  _symbol */\n      0x37\n        /* \"@openzeppelin/contracts-upgradeable/token/ERC20/ERC20Upgradeable.sol\":2808:2822  return _symbol */\n      dup1\n      sload\n      tag_152\n      swap1\n      tag_153\n      jump\t// in\n        /* \"@openzeppelin/contracts-upgradeable/token/ERC20/ERC20Upgradeable.sol\":6933:7360  function decreaseAllowance(address spender, uint256 subtractedValue) public virtual returns (bool) {... */\n    tag_118:\n        /* \"@openzeppelin/contracts-upgradeable/token/ERC20/ERC20Upgradeable.sol\":7026:7030  bool */\n      0x00\n        /* \"@openzeppelin/contracts-upgradeable/utils/ContextUpgradeable.sol\":965:975  msg.sender */\n      caller\n        /* \"@openzeppelin/contracts-upgradeable/token/ERC20/ERC20Upgradeable.sol\":7026:7030  bool */\n      dup2\n        /* \"@openzeppelin/contracts-upgradeable/token/ERC20/ERC20Upgradeable.sol\":7107:7132  allowance(owner, spender) */\n      tag_255\n        /* \"@openzeppelin/contracts-upgradeable/utils/ContextUpgradeable.sol\":965:975  msg.sender */\n      dup3\n        /* \"@openzeppelin/contracts-upgradeable/token/ERC20/ERC20Upgradeable.sol\":7124:7131  spender */\n      dup7\n        /* \"@openzeppelin/contracts-upgradeable/token/ERC20/ERC20Upgradeable.sol\":7107:7116  allowance */\n      tag_141\n        /* \"@openzeppelin/contracts-upgradeable/token/ERC20/ERC20Upgradeable.sol\":7107:7132  allowance(owner, spender) */\n      jump\t// in\n    tag_255:\n        /* \"@openzeppelin/contracts-upgradeable/token/ERC20/ERC20Upgradeable.sol\":7080:7132  uint256 currentAllowance = allowance(owner, spender) */\n      swap1\n      pop\n        /* \"@openzeppelin/contracts-upgradeable/token/ERC20/ERC20Upgradeable.sol\":7170:7185  subtractedValue */\n      dup4\n        /* \"@openzeppelin/contracts-upgradeable/token/ERC20/ERC20Upgradeable.sol\":7150:7166  currentAllowance */\n      dup2\n        /* \"@openzeppelin/contracts-upgradeable/token/ERC20/ERC20Upgradeable.sol\":7150:7185  currentAllowance >= subtractedValue */\n      lt\n      iszero\n        /* \"@openzeppelin/contracts-upgradeable/token/ERC20/ERC20Upgradeable.sol\":7142:7227  require(currentAllowance >= subtractedValue, \"ERC20: decreased allowance below zero\") */\n      tag_256\n      jumpi\n      mload(0x40)\n      shl(0xe5, 0x461bcd)\n      dup2\n      mstore\n        /* \"#utility.yul\":7520:7522   */\n      0x20\n        /* \"@openzeppelin/contracts-upgradeable/token/ERC20/ERC20Upgradeable.sol\":7142:7227  require(currentAllowance >= subtractedValue, \"ERC20: decreased allowance below zero\") */\n      0x04\n      dup3\n      add\n        /* \"#utility.yul\":7502:7523   */\n      mstore\n        /* \"#utility.yul\":7559:7561   */\n      0x25\n        /* \"#utility.yul\":7539:7557   */\n      0x24\n      dup3\n      add\n        /* \"#utility.yul\":7532:7562   */\n      mstore\n        /* \"#utility.yul\":7598:7632   */\n      0x45524332303a2064656372656173656420616c6c6f77616e63652062656c6f77\n        /* \"#utility.yul\":7578:7596   */\n      0x44\n      dup3\n      add\n        /* \"#utility.yul\":7571:7633   */\n      mstore\n      shl(0xd8, 0x207a65726f)\n        /* \"#utility.yul\":7649:7667   */\n      0x64\n      dup3\n      add\n        /* \"#utility.yul\":7642:7677   */\n      mstore\n        /* \"#utility.yul\":7694:7713   */\n      0x84\n      add\n        /* \"@openzeppelin/contracts-upgradeable/token/ERC20/ERC20Upgradeable.sol\":7142:7227  require(currentAllowance >= subtractedValue, \"ERC20: decreased allowance below zero\") */\n      tag_191\n        /* \"#utility.yul\":7318:7719   */\n      jump\n        /* \"@openzeppelin/contracts-upgradeable/token/ERC20/ERC20Upgradeable.sol\":7142:7227  require(currentAllowance >= subtractedValue, \"ERC20: decreased allowance below zero\") */\n    tag_256:\n        /* \"@openzeppelin/contracts-upgradeable/token/ERC20/ERC20Upgradeable.sol\":7261:7321  _approve(owner, spender, currentAllowance - subtractedValue) */\n      tag_259\n        /* \"@openzeppelin/contracts-upgradeable/token/ERC20/ERC20Upgradeable.sol\":7270:7275  owner */\n      dup3\n        /* \"@openzeppelin/contracts-upgradeable/token/ERC20/ERC20Upgradeable.sol\":7277:7284  spender */\n      dup7\n        /* \"@openzeppelin/contracts-upgradeable/token/ERC20/ERC20Upgradeable.sol\":7305:7320  subtractedValue */\n      dup7\n        /* \"@openzeppelin/contracts-upgradeable/token/ERC20/ERC20Upgradeable.sol\":7286:7302  currentAllowance */\n      dup5\n        /* \"@openzeppelin/contracts-upgradeable/token/ERC20/ERC20Upgradeable.sol\":7286:7320  currentAllowance - subtractedValue */\n      sub\n        /* \"@openzeppelin/contracts-upgradeable/token/ERC20/ERC20Upgradeable.sol\":7261:7269  _approve */\n      tag_162\n        /* \"@openzeppelin/contracts-upgradeable/token/ERC20/ERC20Upgradeable.sol\":7261:7321  _approve(owner, spender, currentAllowance - subtractedValue) */\n      jump\t// in\n    tag_259:\n      pop\n        /* \"@openzeppelin/contracts-upgradeable/token/ERC20/ERC20Upgradeable.sol\":7349:7353  true */\n      0x01\n      swap5\n        /* \"@openzeppelin/contracts-upgradeable/token/ERC20/ERC20Upgradeable.sol\":6933:7360  function decreaseAllowance(address spender, uint256 subtractedValue) public virtual returns (bool) {... */\n      swap4\n      pop\n      pop\n      pop\n      pop\n      jump\t// out\n        /* \"@openzeppelin/contracts-upgradeable/token/ERC20/ERC20Upgradeable.sol\":4098:4287  function transfer(address to, uint256 amount) public virtual override returns (bool) {... */\n    tag_126:\n        /* \"@openzeppelin/contracts-upgradeable/token/ERC20/ERC20Upgradeable.sol\":4177:4181  bool */\n      0x00\n        /* \"@openzeppelin/contracts-upgradeable/utils/ContextUpgradeable.sol\":965:975  msg.sender */\n      caller\n        /* \"@openzeppelin/contracts-upgradeable/token/ERC20/ERC20Upgradeable.sol\":4231:4259  _transfer(owner, to, amount) */\n      tag_161\n        /* \"@openzeppelin/contracts-upgradeable/utils/ContextUpgradeable.sol\":965:975  msg.sender */\n      dup2\n        /* \"@openzeppelin/contracts-upgradeable/token/ERC20/ERC20Upgradeable.sol\":4248:4250  to */\n      dup6\n        /* \"@openzeppelin/contracts-upgradeable/token/ERC20/ERC20Upgradeable.sol\":4252:4258  amount */\n      dup6\n        /* \"@openzeppelin/contracts-upgradeable/token/ERC20/ERC20Upgradeable.sol\":4231:4240  _transfer */\n      tag_264\n        /* \"@openzeppelin/contracts-upgradeable/token/ERC20/ERC20Upgradeable.sol\":4231:4259  _transfer(owner, to, amount) */\n      jump\t// in\n        /* \"@openzeppelin/contracts-upgradeable/access/AccessControlUpgradeable.sol\":5705:5852  function revokeRole(bytes32 role, address account) public virtual override onlyRole(getRoleAdmin(role)) {... */\n    tag_134:\n        /* \"@openzeppelin/contracts-upgradeable/access/AccessControlUpgradeable.sol\":4929:4936  bytes32 */\n      0x00\n        /* \"@openzeppelin/contracts-upgradeable/access/AccessControlUpgradeable.sol\":4955:4967  _roles[role] */\n      dup3\n      dup2\n      mstore\n        /* \"@openzeppelin/contracts-upgradeable/access/AccessControlUpgradeable.sol\":4955:4961  _roles */\n      0xc9\n        /* \"@openzeppelin/contracts-upgradeable/access/AccessControlUpgradeable.sol\":4955:4967  _roles[role] */\n      0x20\n      mstore\n      0x40\n      swap1\n      keccak256\n        /* \"@openzeppelin/contracts-upgradeable/access/AccessControlUpgradeable.sol\":4955:4977  _roles[role].adminRole */\n      0x01\n      add\n      sload\n        /* \"@openzeppelin/contracts-upgradeable/access/AccessControlUpgradeable.sol\":2798:2814  _checkRole(role) */\n      tag_267\n        /* \"@openzeppelin/contracts-upgradeable/access/AccessControlUpgradeable.sol\":2809:2813  role */\n      dup2\n        /* \"@openzeppelin/contracts-upgradeable/access/AccessControlUpgradeable.sol\":2798:2808  _checkRole */\n      tag_183\n        /* \"@openzeppelin/contracts-upgradeable/access/AccessControlUpgradeable.sol\":2798:2814  _checkRole(role) */\n      jump\t// in\n    tag_267:\n        /* \"@openzeppelin/contracts-upgradeable/access/AccessControlUpgradeable.sol\":5819:5845  _revokeRole(role, account) */\n      tag_185\n        /* \"@openzeppelin/contracts-upgradeable/access/AccessControlUpgradeable.sol\":5831:5835  role */\n      dup4\n        /* \"@openzeppelin/contracts-upgradeable/access/AccessControlUpgradeable.sol\":5837:5844  account */\n      dup4\n        /* \"@openzeppelin/contracts-upgradeable/access/AccessControlUpgradeable.sol\":5819:5830  _revokeRole */\n      tag_194\n        /* \"@openzeppelin/contracts-upgradeable/access/AccessControlUpgradeable.sol\":5819:5845  _revokeRole(role, account) */\n      jump\t// in\n        /* \"@openzeppelin/contracts-upgradeable/token/ERC20/ERC20Upgradeable.sol\":4345:4494  function allowance(address owner, address spender) public view virtual override returns (uint256) {... */\n    tag_141:\n      sub(shl(0xa0, 0x01), 0x01)\n        /* \"@openzeppelin/contracts-upgradeable/token/ERC20/ERC20Upgradeable.sol\":4460:4478  _allowances[owner] */\n      swap2\n      dup3\n      and\n        /* \"@openzeppelin/contracts-upgradeable/token/ERC20/ERC20Upgradeable.sol\":4434:4441  uint256 */\n      0x00\n        /* \"@openzeppelin/contracts-upgradeable/token/ERC20/ERC20Upgradeable.sol\":4460:4478  _allowances[owner] */\n      swap1\n      dup2\n      mstore\n        /* \"@openzeppelin/contracts-upgradeable/token/ERC20/ERC20Upgradeable.sol\":4460:4471  _allowances */\n      0x34\n        /* \"@openzeppelin/contracts-upgradeable/token/ERC20/ERC20Upgradeable.sol\":4460:4478  _allowances[owner] */\n      0x20\n      swap1\n      dup2\n      mstore\n      0x40\n      dup1\n      dup4\n      keccak256\n        /* \"@openzeppelin/contracts-upgradeable/token/ERC20/ERC20Upgradeable.sol\":4460:4487  _allowances[owner][spender] */\n      swap4\n      swap1\n      swap5\n      and\n      dup3\n      mstore\n      swap2\n      swap1\n      swap2\n      mstore\n      keccak256\n      sload\n      swap1\n        /* \"@openzeppelin/contracts-upgradeable/token/ERC20/ERC20Upgradeable.sol\":4345:4494  function allowance(address owner, address spender) public view virtual override returns (uint256) {... */\n      jump\t// out\n        /* \"contracts/utils/WithSupervisedTransfers.sol\":2766:3121  function setListingTimestamp(uint32 newListingTimestamp)... */\n    tag_146:\n        /* \"@openzeppelin/contracts-upgradeable/access/AccessControlUpgradeable.sol\":2365:2369  0x00 */\n      0x00\n        /* \"@openzeppelin/contracts-upgradeable/access/AccessControlUpgradeable.sol\":2798:2814  _checkRole(role) */\n      tag_272\n        /* \"@openzeppelin/contracts-upgradeable/access/AccessControlUpgradeable.sol\":2365:2369  0x00 */\n      dup2\n        /* \"@openzeppelin/contracts-upgradeable/access/AccessControlUpgradeable.sol\":2798:2808  _checkRole */\n      tag_183\n        /* \"@openzeppelin/contracts-upgradeable/access/AccessControlUpgradeable.sol\":2798:2814  _checkRole(role) */\n      jump\t// in\n    tag_272:\n        /* \"contracts/utils/WithSupervisedTransfers.sol\":2895:2911  listingTimestamp */\n      and(0xffffffff, sload(0xfb))\n        /* \"contracts/utils/WithSupervisedTransfers.sol\":2895:2915  listingTimestamp > 0 */\n      iszero\n      dup1\n      iszero\n      swap1\n        /* \"contracts/utils/WithSupervisedTransfers.sol\":2895:2954  listingTimestamp > 0 && block.timestamp >= listingTimestamp */\n      tag_274\n      jumpi\n      pop\n        /* \"contracts/utils/WithSupervisedTransfers.sol\":2938:2954  listingTimestamp */\n      and(0xffffffff, sload(0xfb))\n        /* \"contracts/utils/WithSupervisedTransfers.sol\":2919:2934  block.timestamp */\n      timestamp\n        /* \"contracts/utils/WithSupervisedTransfers.sol\":2919:2954  block.timestamp >= listingTimestamp */\n      lt\n      iszero\n        /* \"contracts/utils/WithSupervisedTransfers.sol\":2895:2954  listingTimestamp > 0 && block.timestamp >= listingTimestamp */\n    tag_274:\n        /* \"contracts/utils/WithSupervisedTransfers.sol\":2891:3008  if (listingTimestamp > 0 && block.timestamp >= listingTimestamp) {... */\n      iszero\n      tag_275\n      jumpi\n        /* \"contracts/utils/WithSupervisedTransfers.sol\":2977:2997  TokenAlreadyListed() */\n      mload(0x40)\n      shl(0xe1, 0x6f555ee1)\n      dup2\n      mstore\n      0x04\n      add\n      mload(0x40)\n      dup1\n      swap2\n      sub\n      swap1\n      revert\n        /* \"contracts/utils/WithSupervisedTransfers.sol\":2891:3008  if (listingTimestamp > 0 && block.timestamp >= listingTimestamp) {... */\n    tag_275:\n        /* \"contracts/utils/WithSupervisedTransfers.sol\":3022:3066  ListingTimestampUpdated(newListingTimestamp) */\n      mload(0x40)\n        /* \"#utility.yul\":3467:3477   */\n      0xffffffff\n        /* \"#utility.yul\":3455:3478   */\n      dup4\n      and\n        /* \"#utility.yul\":3437:3479   */\n      dup2\n      mstore\n        /* \"contracts/utils/WithSupervisedTransfers.sol\":3022:3066  ListingTimestampUpdated(newListingTimestamp) */\n      0x0e210431ce7e96eef28f9095d645802317660c1411f89b4d642456f027e7c8d6\n      swap1\n        /* \"#utility.yul\":3425:3427   */\n      0x20\n        /* \"#utility.yul\":3410:3428   */\n      add\n        /* \"contracts/utils/WithSupervisedTransfers.sol\":3022:3066  ListingTimestampUpdated(newListingTimestamp) */\n      mload(0x40)\n      dup1\n      swap2\n      sub\n      swap1\n      log1\n      pop\n        /* \"contracts/utils/WithSupervisedTransfers.sol\":3076:3092  listingTimestamp */\n      0xfb\n        /* \"contracts/utils/WithSupervisedTransfers.sol\":3076:3114  listingTimestamp = newListingTimestamp */\n      dup1\n      sload\n      not(0xffffffff)\n      and\n      0xffffffff\n      swap3\n      swap1\n      swap3\n      and\n      swap2\n      swap1\n      swap2\n      or\n      swap1\n      sstore\n        /* \"contracts/utils/WithSupervisedTransfers.sol\":2766:3121  function setListingTimestamp(uint32 newListingTimestamp)... */\n      jump\t// out\n        /* \"@openzeppelin/contracts-upgradeable/token/ERC20/ERC20Upgradeable.sol\":10815:11155  function _approve(address owner, address spender, uint256 amount) internal virtual {... */\n    tag_162:\n      sub(shl(0xa0, 0x01), 0x01)\n        /* \"@openzeppelin/contracts-upgradeable/token/ERC20/ERC20Upgradeable.sol\":10916:10935  owner != address(0) */\n      dup4\n      and\n        /* \"@openzeppelin/contracts-upgradeable/token/ERC20/ERC20Upgradeable.sol\":10908:10976  require(owner != address(0), \"ERC20: approve from the zero address\") */\n      tag_280\n      jumpi\n      mload(0x40)\n      shl(0xe5, 0x461bcd)\n      dup2\n      mstore\n        /* \"#utility.yul\":7926:7928   */\n      0x20\n        /* \"@openzeppelin/contracts-upgradeable/token/ERC20/ERC20Upgradeable.sol\":10908:10976  require(owner != address(0), \"ERC20: approve from the zero address\") */\n      0x04\n      dup3\n      add\n        /* \"#utility.yul\":7908:7929   */\n      mstore\n        /* \"#utility.yul\":7965:7967   */\n      0x24\n        /* \"#utility.yul\":7945:7963   */\n      dup1\n      dup3\n      add\n        /* \"#utility.yul\":7938:7968   */\n      mstore\n        /* \"#utility.yul\":8004:8038   */\n      0x45524332303a20617070726f76652066726f6d20746865207a65726f20616464\n        /* \"#utility.yul\":7984:8002   */\n      0x44\n      dup3\n      add\n        /* \"#utility.yul\":7977:8039   */\n      mstore\n      shl(0xe0, 0x72657373)\n        /* \"#utility.yul\":8055:8073   */\n      0x64\n      dup3\n      add\n        /* \"#utility.yul\":8048:8082   */\n      mstore\n        /* \"#utility.yul\":8099:8118   */\n      0x84\n      add\n        /* \"@openzeppelin/contracts-upgradeable/token/ERC20/ERC20Upgradeable.sol\":10908:10976  require(owner != address(0), \"ERC20: approve from the zero address\") */\n      tag_191\n        /* \"#utility.yul\":7724:8124   */\n      jump\n        /* \"@openzeppelin/contracts-upgradeable/token/ERC20/ERC20Upgradeable.sol\":10908:10976  require(owner != address(0), \"ERC20: approve from the zero address\") */\n    tag_280:\n      sub(shl(0xa0, 0x01), 0x01)\n        /* \"@openzeppelin/contracts-upgradeable/token/ERC20/ERC20Upgradeable.sol\":10994:11015  spender != address(0) */\n      dup3\n      and\n        /* \"@openzeppelin/contracts-upgradeable/token/ERC20/ERC20Upgradeable.sol\":10986:11054  require(spender != address(0), \"ERC20: approve to the zero address\") */\n      tag_283\n      jumpi\n      mload(0x40)\n      shl(0xe5, 0x461bcd)\n      dup2\n      mstore\n        /* \"#utility.yul\":8331:8333   */\n      0x20\n        /* \"@openzeppelin/contracts-upgradeable/token/ERC20/ERC20Upgradeable.sol\":10986:11054  require(spender != address(0), \"ERC20: approve to the zero address\") */\n      0x04\n      dup3\n      add\n        /* \"#utility.yul\":8313:8334   */\n      mstore\n        /* \"#utility.yul\":8370:8372   */\n      0x22\n        /* \"#utility.yul\":8350:8368   */\n      0x24\n      dup3\n      add\n        /* \"#utility.yul\":8343:8373   */\n      mstore\n        /* \"#utility.yul\":8409:8443   */\n      0x45524332303a20617070726f766520746f20746865207a65726f206164647265\n        /* \"#utility.yul\":8389:8407   */\n      0x44\n      dup3\n      add\n        /* \"#utility.yul\":8382:8444   */\n      mstore\n      shl(0xf0, 0x7373)\n        /* \"#utility.yul\":8460:8478   */\n      0x64\n      dup3\n      add\n        /* \"#utility.yul\":8453:8485   */\n      mstore\n        /* \"#utility.yul\":8502:8521   */\n      0x84\n      add\n        /* \"@openzeppelin/contracts-upgradeable/token/ERC20/ERC20Upgradeable.sol\":10986:11054  require(spender != address(0), \"ERC20: approve to the zero address\") */\n      tag_191\n        /* \"#utility.yul\":8129:8527   */\n      jump\n        /* \"@openzeppelin/contracts-upgradeable/token/ERC20/ERC20Upgradeable.sol\":10986:11054  require(spender != address(0), \"ERC20: approve to the zero address\") */\n    tag_283:\n      sub(shl(0xa0, 0x01), 0x01)\n        /* \"@openzeppelin/contracts-upgradeable/token/ERC20/ERC20Upgradeable.sol\":11065:11083  _allowances[owner] */\n      dup4\n      dup2\n      and\n      0x00\n      dup2\n      dup2\n      mstore\n        /* \"@openzeppelin/contracts-upgradeable/token/ERC20/ERC20Upgradeable.sol\":11065:11076  _allowances */\n      0x34\n        /* \"@openzeppelin/contracts-upgradeable/token/ERC20/ERC20Upgradeable.sol\":11065:11083  _allowances[owner] */\n      0x20\n      swap1\n      dup2\n      mstore\n      0x40\n      dup1\n      dup4\n      keccak256\n        /* \"@openzeppelin/contracts-upgradeable/token/ERC20/ERC20Upgradeable.sol\":11065:11092  _allowances[owner][spender] */\n      swap5\n      dup8\n      and\n      dup1\n      dup5\n      mstore\n      swap5\n      dup3\n      mstore\n      swap2\n      dup3\n      swap1\n      keccak256\n        /* \"@openzeppelin/contracts-upgradeable/token/ERC20/ERC20Upgradeable.sol\":11065:11101  _allowances[owner][spender] = amount */\n      dup6\n      swap1\n      sstore\n        /* \"@openzeppelin/contracts-upgradeable/token/ERC20/ERC20Upgradeable.sol\":11116:11148  Approval(owner, spender, amount) */\n      swap1\n      mload\n        /* \"#utility.yul\":1549:1574   */\n      dup5\n      dup2\n      mstore\n        /* \"@openzeppelin/contracts-upgradeable/token/ERC20/ERC20Upgradeable.sol\":11116:11148  Approval(owner, spender, amount) */\n      0x8c5be1e5ebec7d5bd14f71427d1e84f3dd0314c0f7b2291e5b200ac8c7c3b925\n      swap2\n        /* \"#utility.yul\":1522:1540   */\n      add\n        /* \"@openzeppelin/contracts-upgradeable/token/ERC20/ERC20Upgradeable.sol\":11116:11148  Approval(owner, spender, amount) */\n      mload(0x40)\n      dup1\n      swap2\n      sub\n      swap1\n      log3\n        /* \"@openzeppelin/contracts-upgradeable/token/ERC20/ERC20Upgradeable.sol\":10815:11155  function _approve(address owner, address spender, uint256 amount) internal virtual {... */\n      pop\n      pop\n      pop\n      jump\t// out\n        /* \"@openzeppelin/contracts-upgradeable/token/ERC20/ERC20Upgradeable.sol\":5561:5817  function transferFrom(address from, address to, uint256 amount) public virtual override returns (bool) {... */\n    tag_178:\n        /* \"@openzeppelin/contracts-upgradeable/token/ERC20/ERC20Upgradeable.sol\":5658:5662  bool */\n      0x00\n        /* \"@openzeppelin/contracts-upgradeable/utils/ContextUpgradeable.sol\":965:975  msg.sender */\n      caller\n        /* \"@openzeppelin/contracts-upgradeable/token/ERC20/ERC20Upgradeable.sol\":5714:5752  _spendAllowance(from, spender, amount) */\n      tag_289\n        /* \"@openzeppelin/contracts-upgradeable/token/ERC20/ERC20Upgradeable.sol\":5730:5734  from */\n      dup6\n        /* \"@openzeppelin/contracts-upgradeable/utils/ContextUpgradeable.sol\":965:975  msg.sender */\n      dup3\n        /* \"@openzeppelin/contracts-upgradeable/token/ERC20/ERC20Upgradeable.sol\":5745:5751  amount */\n      dup6\n        /* \"@openzeppelin/contracts-upgradeable/token/ERC20/ERC20Upgradeable.sol\":5714:5729  _spendAllowance */\n      tag_217\n        /* \"@openzeppelin/contracts-upgradeable/token/ERC20/ERC20Upgradeable.sol\":5714:5752  _spendAllowance(from, spender, amount) */\n      jump\t// in\n    tag_289:\n        /* \"@openzeppelin/contracts-upgradeable/token/ERC20/ERC20Upgradeable.sol\":5762:5789  _transfer(from, to, amount) */\n      tag_259\n        /* \"@openzeppelin/contracts-upgradeable/token/ERC20/ERC20Upgradeable.sol\":5772:5776  from */\n      dup6\n        /* \"@openzeppelin/contracts-upgradeable/token/ERC20/ERC20Upgradeable.sol\":5778:5780  to */\n      dup6\n        /* \"@openzeppelin/contracts-upgradeable/token/ERC20/ERC20Upgradeable.sol\":5782:5788  amount */\n      dup6\n        /* \"@openzeppelin/contracts-upgradeable/token/ERC20/ERC20Upgradeable.sol\":5762:5771  _transfer */\n      tag_264\n        /* \"@openzeppelin/contracts-upgradeable/token/ERC20/ERC20Upgradeable.sol\":5762:5789  _transfer(from, to, amount) */\n      jump\t// in\n        /* \"@openzeppelin/contracts-upgradeable/access/AccessControlUpgradeable.sol\":3789:3892  function _checkRole(bytes32 role) internal view virtual {... */\n    tag_183:\n        /* \"@openzeppelin/contracts-upgradeable/access/AccessControlUpgradeable.sol\":3855:3885  _checkRole(role, _msgSender()) */\n      tag_206\n        /* \"@openzeppelin/contracts-upgradeable/access/AccessControlUpgradeable.sol\":3866:3870  role */\n      dup2\n        /* \"@openzeppelin/contracts-upgradeable/utils/ContextUpgradeable.sol\":965:975  msg.sender */\n      caller\n        /* \"@openzeppelin/contracts-upgradeable/access/AccessControlUpgradeable.sol\":3855:3865  _checkRole */\n      tag_294\n        /* \"@openzeppelin/contracts-upgradeable/access/AccessControlUpgradeable.sol\":3855:3885  _checkRole(role, _msgSender()) */\n      jump\t// in\n        /* \"@openzeppelin/contracts-upgradeable/access/AccessControlUpgradeable.sol\":7938:8171  function _grantRole(bytes32 role, address account) internal virtual {... */\n    tag_186:\n        /* \"@openzeppelin/contracts-upgradeable/access/AccessControlUpgradeable.sol\":8021:8043  hasRole(role, account) */\n      tag_296\n        /* \"@openzeppelin/contracts-upgradeable/access/AccessControlUpgradeable.sol\":8029:8033  role */\n      dup3\n        /* \"@openzeppelin/contracts-upgradeable/access/AccessControlUpgradeable.sol\":8035:8042  account */\n      dup3\n        /* \"@openzeppelin/contracts-upgradeable/access/AccessControlUpgradeable.sol\":8021:8028  hasRole */\n      tag_108\n        /* \"@openzeppelin/contracts-upgradeable/access/AccessControlUpgradeable.sol\":8021:8043  hasRole(role, account) */\n      jump\t// in\n    tag_296:\n        /* \"@openzeppelin/contracts-upgradeable/access/AccessControlUpgradeable.sol\":8016:8165  if (!hasRole(role, account)) {... */\n      tag_193\n      jumpi\n        /* \"@openzeppelin/contracts-upgradeable/access/AccessControlUpgradeable.sol\":8059:8071  _roles[role] */\n      0x00\n      dup3\n      dup2\n      mstore\n        /* \"@openzeppelin/contracts-upgradeable/access/AccessControlUpgradeable.sol\":8059:8065  _roles */\n      0xc9\n        /* \"@openzeppelin/contracts-upgradeable/access/AccessControlUpgradeable.sol\":8059:8071  _roles[role] */\n      0x20\n      swap1\n      dup2\n      mstore\n      0x40\n      dup1\n      dup4\n      keccak256\n      sub(shl(0xa0, 0x01), 0x01)\n        /* \"@openzeppelin/contracts-upgradeable/access/AccessControlUpgradeable.sol\":8059:8088  _roles[role].members[account] */\n      dup6\n      and\n      dup5\n      mstore\n      swap1\n      swap2\n      mstore\n      swap1\n      keccak256\n        /* \"@openzeppelin/contracts-upgradeable/access/AccessControlUpgradeable.sol\":8059:8095  _roles[role].members[account] = true */\n      dup1\n      sload\n      not(0xff)\n      and\n        /* \"@openzeppelin/contracts-upgradeable/access/AccessControlUpgradeable.sol\":8091:8095  true */\n      0x01\n        /* \"@openzeppelin/contracts-upgradeable/access/AccessControlUpgradeable.sol\":8059:8095  _roles[role].members[account] = true */\n      or\n      swap1\n      sstore\n        /* \"@openzeppelin/contracts-upgradeable/access/AccessControlUpgradeable.sol\":8141:8153  _msgSender() */\n      tag_298\n        /* \"@openzeppelin/contracts-upgradeable/utils/ContextUpgradeable.sol\":965:975  msg.sender */\n      caller\n      swap1\n        /* \"@openzeppelin/contracts-upgradeable/utils/ContextUpgradeable.sol\":886:982  function _msgSender() internal view virtual returns (address) {... */\n      jump\n        /* \"@openzeppelin/contracts-upgradeable/access/AccessControlUpgradeable.sol\":8141:8153  _msgSender() */\n    tag_298:\n      sub(shl(0xa0, 0x01), 0x01)\n        /* \"@openzeppelin/contracts-upgradeable/access/AccessControlUpgradeable.sol\":8114:8154  RoleGranted(role, account, _msgSender()) */\n      and\n        /* \"@openzeppelin/contracts-upgradeable/access/AccessControlUpgradeable.sol\":8132:8139  account */\n      dup2\n      sub(shl(0xa0, 0x01), 0x01)\n        /* \"@openzeppelin/contracts-upgradeable/access/AccessControlUpgradeable.sol\":8114:8154  RoleGranted(role, account, _msgSender()) */\n      and\n        /* \"@openzeppelin/contracts-upgradeable/access/AccessControlUpgradeable.sol\":8126:8130  role */\n      dup4\n        /* \"@openzeppelin/contracts-upgradeable/access/AccessControlUpgradeable.sol\":8114:8154  RoleGranted(role, account, _msgSender()) */\n      0x2f8788117e7eff1d82e926ec794901d17c78024a50270940304540a733656f0d\n      mload(0x40)\n      mload(0x40)\n      dup1\n      swap2\n      sub\n      swap1\n      log4\n        /* \"@openzeppelin/contracts-upgradeable/access/AccessControlUpgradeable.sol\":7938:8171  function _grantRole(bytes32 role, address account) internal virtual {... */\n      pop\n      pop\n      jump\t// out\n        /* \"@openzeppelin/contracts-upgradeable/access/AccessControlUpgradeable.sol\":8342:8576  function _revokeRole(bytes32 role, address account) internal virtual {... */\n    tag_194:\n        /* \"@openzeppelin/contracts-upgradeable/access/AccessControlUpgradeable.sol\":8425:8447  hasRole(role, account) */\n      tag_300\n        /* \"@openzeppelin/contracts-upgradeable/access/AccessControlUpgradeable.sol\":8433:8437  role */\n      dup3\n        /* \"@openzeppelin/contracts-upgradeable/access/AccessControlUpgradeable.sol\":8439:8446  account */\n      dup3\n        /* \"@openzeppelin/contracts-upgradeable/access/AccessControlUpgradeable.sol\":8425:8432  hasRole */\n      tag_108\n        /* \"@openzeppelin/contracts-upgradeable/access/AccessControlUpgradeable.sol\":8425:8447  hasRole(role, account) */\n      jump\t// in\n    tag_300:\n        /* \"@openzeppelin/contracts-upgradeable/access/AccessControlUpgradeable.sol\":8421:8570  if (hasRole(role, account)) {... */\n      iszero\n      tag_193\n      jumpi\n        /* \"@openzeppelin/contracts-upgradeable/access/AccessControlUpgradeable.sol\":8495:8500  false */\n      0x00\n        /* \"@openzeppelin/contracts-upgradeable/access/AccessControlUpgradeable.sol\":8463:8475  _roles[role] */\n      dup3\n      dup2\n      mstore\n        /* \"@openzeppelin/contracts-upgradeable/access/AccessControlUpgradeable.sol\":8463:8469  _roles */\n      0xc9\n        /* \"@openzeppelin/contracts-upgradeable/access/AccessControlUpgradeable.sol\":8463:8475  _roles[role] */\n      0x20\n      swap1\n      dup2\n      mstore\n      0x40\n      dup1\n      dup4\n      keccak256\n      sub(shl(0xa0, 0x01), 0x01)\n        /* \"@openzeppelin/contracts-upgradeable/access/AccessControlUpgradeable.sol\":8463:8492  _roles[role].members[account] */\n      dup6\n      and\n      dup1\n      dup6\n      mstore\n      swap3\n      mstore\n      dup1\n      dup4\n      keccak256\n        /* \"@openzeppelin/contracts-upgradeable/access/AccessControlUpgradeable.sol\":8463:8500  _roles[role].members[account] = false */\n      dup1\n      sload\n      not(0xff)\n      and\n      swap1\n      sstore\n        /* \"@openzeppelin/contracts-upgradeable/access/AccessControlUpgradeable.sol\":8519:8559  RoleRevoked(role, account, _msgSender()) */\n      mload\n        /* \"@openzeppelin/contracts-upgradeable/utils/ContextUpgradeable.sol\":965:975  msg.sender */\n      caller\n      swap3\n        /* \"@openzeppelin/contracts-upgradeable/access/AccessControlUpgradeable.sol\":8463:8475  _roles[role] */\n      dup6\n      swap2\n        /* \"@openzeppelin/contracts-upgradeable/access/AccessControlUpgradeable.sol\":8519:8559  RoleRevoked(role, account, _msgSender()) */\n      0xf6391f5c32d9c69d2a47ea670b442974b53935d1edc7fd64eb21e047a839171b\n      swap2\n        /* \"@openzeppelin/contracts-upgradeable/access/AccessControlUpgradeable.sol\":8495:8500  false */\n      swap1\n        /* \"@openzeppelin/contracts-upgradeable/access/AccessControlUpgradeable.sol\":8519:8559  RoleRevoked(role, account, _msgSender()) */\n      log4\n        /* \"@openzeppelin/contracts-upgradeable/access/AccessControlUpgradeable.sol\":8342:8576  function _revokeRole(bytes32 role, address account) internal virtual {... */\n      pop\n      pop\n      jump\t// out\n        /* \"@openzeppelin/contracts-upgradeable/token/ERC20/ERC20Upgradeable.sol\":9733:10392  function _burn(address account, uint256 amount) internal virtual {... */\n    tag_208:\n      sub(shl(0xa0, 0x01), 0x01)\n        /* \"@openzeppelin/contracts-upgradeable/token/ERC20/ERC20Upgradeable.sol\":9816:9837  account != address(0) */\n      dup3\n      and\n        /* \"@openzeppelin/contracts-upgradeable/token/ERC20/ERC20Upgradeable.sol\":9808:9875  require(account != address(0), \"ERC20: burn from the zero address\") */\n      tag_304\n      jumpi\n      mload(0x40)\n      shl(0xe5, 0x461bcd)\n      dup2\n      mstore\n        /* \"#utility.yul\":8734:8736   */\n      0x20\n        /* \"@openzeppelin/contracts-upgradeable/token/ERC20/ERC20Upgradeable.sol\":9808:9875  require(account != address(0), \"ERC20: burn from the zero address\") */\n      0x04\n      dup3\n      add\n        /* \"#utility.yul\":8716:8737   */\n      mstore\n        /* \"#utility.yul\":8773:8775   */\n      0x21\n        /* \"#utility.yul\":8753:8771   */\n      0x24\n      dup3\n      add\n        /* \"#utility.yul\":8746:8776   */\n      mstore\n        /* \"#utility.yul\":8812:8846   */\n      0x45524332303a206275726e2066726f6d20746865207a65726f20616464726573\n        /* \"#utility.yul\":8792:8810   */\n      0x44\n      dup3\n      add\n        /* \"#utility.yul\":8785:8847   */\n      mstore\n      shl(0xf8, 0x73)\n        /* \"#utility.yul\":8863:8881   */\n      0x64\n      dup3\n      add\n        /* \"#utility.yul\":8856:8887   */\n      mstore\n        /* \"#utility.yul\":8904:8923   */\n      0x84\n      add\n        /* \"@openzeppelin/contracts-upgradeable/token/ERC20/ERC20Upgradeable.sol\":9808:9875  require(account != address(0), \"ERC20: burn from the zero address\") */\n      tag_191\n        /* \"#utility.yul\":8532:8929   */\n      jump\n        /* \"@openzeppelin/contracts-upgradeable/token/ERC20/ERC20Upgradeable.sol\":9808:9875  require(account != address(0), \"ERC20: burn from the zero address\") */\n    tag_304:\n      sub(shl(0xa0, 0x01), 0x01)\n        /* \"@openzeppelin/contracts-upgradeable/token/ERC20/ERC20Upgradeable.sol\":9971:9989  _balances[account] */\n      dup3\n      and\n        /* \"@openzeppelin/contracts-upgradeable/token/ERC20/ERC20Upgradeable.sol\":9946:9968  uint256 accountBalance */\n      0x00\n        /* \"@openzeppelin/contracts-upgradeable/token/ERC20/ERC20Upgradeable.sol\":9971:9989  _balances[account] */\n      swap1\n      dup2\n      mstore\n        /* \"@openzeppelin/contracts-upgradeable/token/ERC20/ERC20Upgradeable.sol\":9971:9980  _balances */\n      0x33\n        /* \"@openzeppelin/contracts-upgradeable/token/ERC20/ERC20Upgradeable.sol\":9971:9989  _balances[account] */\n      0x20\n      mstore\n      0x40\n      swap1\n      keccak256\n      sload\n        /* \"@openzeppelin/contracts-upgradeable/token/ERC20/ERC20Upgradeable.sol\":10007:10031  accountBalance >= amount */\n      dup2\n      dup2\n      lt\n      iszero\n        /* \"@openzeppelin/contracts-upgradeable/token/ERC20/ERC20Upgradeable.sol\":9999:10070  require(accountBalance >= amount, \"ERC20: burn amount exceeds balance\") */\n      tag_309\n      jumpi\n      mload(0x40)\n      shl(0xe5, 0x461bcd)\n      dup2\n      mstore\n        /* \"#utility.yul\":9136:9138   */\n      0x20\n        /* \"@openzeppelin/contracts-upgradeable/token/ERC20/ERC20Upgradeable.sol\":9999:10070  require(accountBalance >= amount, \"ERC20: burn amount exceeds balance\") */\n      0x04\n      dup3\n      add\n        /* \"#utility.yul\":9118:9139   */\n      mstore\n        /* \"#utility.yul\":9175:9177   */\n      0x22\n        /* \"#utility.yul\":9155:9173   */\n      0x24\n      dup3\n      add\n        /* \"#utility.yul\":9148:9178   */\n      mstore\n        /* \"#utility.yul\":9214:9248   */\n      0x45524332303a206275726e20616d6f756e7420657863656564732062616c616e\n        /* \"#utility.yul\":9194:9212   */\n      0x44\n      dup3\n      add\n        /* \"#utility.yul\":9187:9249   */\n      mstore\n      shl(0xf0, 0x6365)\n        /* \"#utility.yul\":9265:9283   */\n      0x64\n      dup3\n      add\n        /* \"#utility.yul\":9258:9290   */\n      mstore\n        /* \"#utility.yul\":9307:9326   */\n      0x84\n      add\n        /* \"@openzeppelin/contracts-upgradeable/token/ERC20/ERC20Upgradeable.sol\":9999:10070  require(accountBalance >= amount, \"ERC20: burn amount exceeds balance\") */\n      tag_191\n        /* \"#utility.yul\":8934:9332   */\n      jump\n        /* \"@openzeppelin/contracts-upgradeable/token/ERC20/ERC20Upgradeable.sol\":9999:10070  require(accountBalance >= amount, \"ERC20: burn amount exceeds balance\") */\n    tag_309:\n      sub(shl(0xa0, 0x01), 0x01)\n        /* \"@openzeppelin/contracts-upgradeable/token/ERC20/ERC20Upgradeable.sol\":10104:10122  _balances[account] */\n      dup4\n      and\n      0x00\n      dup2\n      dup2\n      mstore\n        /* \"@openzeppelin/contracts-upgradeable/token/ERC20/ERC20Upgradeable.sol\":10104:10113  _balances */\n      0x33\n        /* \"@openzeppelin/contracts-upgradeable/token/ERC20/ERC20Upgradeable.sol\":10104:10122  _balances[account] */\n      0x20\n      swap1\n      dup2\n      mstore\n      0x40\n      dup1\n      dup4\n      keccak256\n        /* \"@openzeppelin/contracts-upgradeable/token/ERC20/ERC20Upgradeable.sol\":10125:10148  accountBalance - amount */\n      dup7\n      dup7\n      sub\n        /* \"@openzeppelin/contracts-upgradeable/token/ERC20/ERC20Upgradeable.sol\":10104:10148  _balances[account] = accountBalance - amount */\n      swap1\n      sstore\n        /* \"@openzeppelin/contracts-upgradeable/token/ERC20/ERC20Upgradeable.sol\":10241:10253  _totalSupply */\n      0x35\n        /* \"@openzeppelin/contracts-upgradeable/token/ERC20/ERC20Upgradeable.sol\":10241:10263  _totalSupply -= amount */\n      dup1\n      sload\n      dup8\n      swap1\n      sub\n      swap1\n      sstore\n        /* \"@openzeppelin/contracts-upgradeable/token/ERC20/ERC20Upgradeable.sol\":10289:10326  Transfer(account, address(0), amount) */\n      mload\n        /* \"#utility.yul\":1549:1574   */\n      dup6\n      dup2\n      mstore\n        /* \"@openzeppelin/contracts-upgradeable/token/ERC20/ERC20Upgradeable.sol\":10104:10122  _balances[account] */\n      swap2\n      swap3\n      swap2\n        /* \"@openzeppelin/contracts-upgradeable/token/ERC20/ERC20Upgradeable.sol\":10289:10326  Transfer(account, address(0), amount) */\n      0xddf252ad1be2c89b69c2b068fc378daa952ba7f163c4a11628f55a4df523b3ef\n      swap2\n        /* \"#utility.yul\":1522:1540   */\n      add\n        /* \"@openzeppelin/contracts-upgradeable/token/ERC20/ERC20Upgradeable.sol\":10289:10326  Transfer(account, address(0), amount) */\n      mload(0x40)\n      dup1\n      swap2\n      sub\n      swap1\n      log3\n        /* \"@openzeppelin/contracts-upgradeable/access/AccessControlUpgradeable.sol\":5280:5425  function grantRole(bytes32 role, address account) public virtual override onlyRole(getRoleAdmin(role)) {... */\n      pop\n      pop\n      pop\n      jump\t// out\n        /* \"@openzeppelin/contracts-upgradeable/token/ERC20/ERC20Upgradeable.sol\":11436:11847  function _spendAllowance(address owner, address spender, uint256 amount) internal virtual {... */\n    tag_217:\n        /* \"@openzeppelin/contracts-upgradeable/token/ERC20/ERC20Upgradeable.sol\":11536:11560  uint256 currentAllowance */\n      0x00\n        /* \"@openzeppelin/contracts-upgradeable/token/ERC20/ERC20Upgradeable.sol\":11563:11588  allowance(owner, spender) */\n      tag_316\n        /* \"@openzeppelin/contracts-upgradeable/token/ERC20/ERC20Upgradeable.sol\":11573:11578  owner */\n      dup5\n        /* \"@openzeppelin/contracts-upgradeable/token/ERC20/ERC20Upgradeable.sol\":11580:11587  spender */\n      dup5\n        /* \"@openzeppelin/contracts-upgradeable/token/ERC20/ERC20Upgradeable.sol\":11563:11572  allowance */\n      tag_141\n        /* \"@openzeppelin/contracts-upgradeable/token/ERC20/ERC20Upgradeable.sol\":11563:11588  allowance(owner, spender) */\n      jump\t// in\n    tag_316:\n        /* \"@openzeppelin/contracts-upgradeable/token/ERC20/ERC20Upgradeable.sol\":11536:11588  uint256 currentAllowance = allowance(owner, spender) */\n      swap1\n      pop\n      not(0x00)\n        /* \"@openzeppelin/contracts-upgradeable/token/ERC20/ERC20Upgradeable.sol\":11602:11618  currentAllowance */\n      dup2\n        /* \"@openzeppelin/contracts-upgradeable/token/ERC20/ERC20Upgradeable.sol\":11602:11639  currentAllowance != type(uint256).max */\n      eq\n        /* \"@openzeppelin/contracts-upgradeable/token/ERC20/ERC20Upgradeable.sol\":11598:11841  if (currentAllowance != type(uint256).max) {... */\n      tag_321\n      jumpi\n        /* \"@openzeppelin/contracts-upgradeable/token/ERC20/ERC20Upgradeable.sol\":11683:11689  amount */\n      dup2\n        /* \"@openzeppelin/contracts-upgradeable/token/ERC20/ERC20Upgradeable.sol\":11663:11679  currentAllowance */\n      dup2\n        /* \"@openzeppelin/contracts-upgradeable/token/ERC20/ERC20Upgradeable.sol\":11663:11689  currentAllowance >= amount */\n      lt\n      iszero\n        /* \"@openzeppelin/contracts-upgradeable/token/ERC20/ERC20Upgradeable.sol\":11655:11723  require(currentAllowance >= amount, \"ERC20: insufficient allowance\") */\n      tag_318\n      jumpi\n      mload(0x40)\n      shl(0xe5, 0x461bcd)\n      dup2\n      mstore\n        /* \"#utility.yul\":9539:9541   */\n      0x20\n        /* \"@openzeppelin/contracts-upgradeable/token/ERC20/ERC20Upgradeable.sol\":11655:11723  require(currentAllowance >= amount, \"ERC20: insufficient allowance\") */\n      0x04\n      dup3\n      add\n        /* \"#utility.yul\":9521:9542   */\n      mstore\n        /* \"#utility.yul\":9578:9580   */\n      0x1d\n        /* \"#utility.yul\":9558:9576   */\n      0x24\n      dup3\n      add\n        /* \"#utility.yul\":9551:9581   */\n      mstore\n        /* \"#utility.yul\":9617:9648   */\n      0x45524332303a20696e73756666696369656e7420616c6c6f77616e6365000000\n        /* \"#utility.yul\":9597:9615   */\n      0x44\n      dup3\n      add\n        /* \"#utility.yul\":9590:9649   */\n      mstore\n        /* \"#utility.yul\":9666:9684   */\n      0x64\n      add\n        /* \"@openzeppelin/contracts-upgradeable/token/ERC20/ERC20Upgradeable.sol\":11655:11723  require(currentAllowance >= amount, \"ERC20: insufficient allowance\") */\n      tag_191\n        /* \"#utility.yul\":9337:9690   */\n      jump\n        /* \"@openzeppelin/contracts-upgradeable/token/ERC20/ERC20Upgradeable.sol\":11655:11723  require(currentAllowance >= amount, \"ERC20: insufficient allowance\") */\n    tag_318:\n        /* \"@openzeppelin/contracts-upgradeable/token/ERC20/ERC20Upgradeable.sol\":11765:11816  _approve(owner, spender, currentAllowance - amount) */\n      tag_321\n        /* \"@openzeppelin/contracts-upgradeable/token/ERC20/ERC20Upgradeable.sol\":11774:11779  owner */\n      dup5\n        /* \"@openzeppelin/contracts-upgradeable/token/ERC20/ERC20Upgradeable.sol\":11781:11788  spender */\n      dup5\n        /* \"@openzeppelin/contracts-upgradeable/token/ERC20/ERC20Upgradeable.sol\":11809:11815  amount */\n      dup5\n        /* \"@openzeppelin/contracts-upgradeable/token/ERC20/ERC20Upgradeable.sol\":11790:11806  currentAllowance */\n      dup5\n        /* \"@openzeppelin/contracts-upgradeable/token/ERC20/ERC20Upgradeable.sol\":11790:11815  currentAllowance - amount */\n      sub\n        /* \"@openzeppelin/contracts-upgradeable/token/ERC20/ERC20Upgradeable.sol\":11765:11773  _approve */\n      tag_162\n        /* \"@openzeppelin/contracts-upgradeable/token/ERC20/ERC20Upgradeable.sol\":11765:11816  _approve(owner, spender, currentAllowance - amount) */\n      jump\t// in\n    tag_321:\n        /* \"@openzeppelin/contracts-upgradeable/token/ERC20/ERC20Upgradeable.sol\":11526:11847  {... */\n      pop\n        /* \"@openzeppelin/contracts-upgradeable/token/ERC20/ERC20Upgradeable.sol\":11436:11847  function _spendAllowance(address owner, address spender, uint256 amount) internal virtual {... */\n      pop\n      pop\n      pop\n      jump\t// out\n        /* \"@openzeppelin/contracts-upgradeable/token/ERC20/ERC20Upgradeable.sol\":2139:2286  function __ERC20_init(string memory name_, string memory symbol_) internal onlyInitializing {... */\n    tag_231:\n        /* \"@openzeppelin/contracts-upgradeable/proxy/utils/Initializable.sol\":5374:5387  _initializing */\n      sload(0x00)\n      0x0100\n      swap1\n      div\n      0xff\n      and\n        /* \"@openzeppelin/contracts-upgradeable/proxy/utils/Initializable.sol\":5366:5435  require(_initializing, \"Initializable: contract is not initializing\") */\n      tag_324\n      jumpi\n      mload(0x40)\n      shl(0xe5, 0x461bcd)\n      dup2\n      mstore\n      0x04\n      add\n      tag_191\n      swap1\n      tag_326\n      jump\t// in\n    tag_324:\n        /* \"@openzeppelin/contracts-upgradeable/token/ERC20/ERC20Upgradeable.sol\":2241:2279  __ERC20_init_unchained(name_, symbol_) */\n      tag_193\n        /* \"@openzeppelin/contracts-upgradeable/token/ERC20/ERC20Upgradeable.sol\":2264:2269  name_ */\n      dup3\n        /* \"@openzeppelin/contracts-upgradeable/token/ERC20/ERC20Upgradeable.sol\":2271:2278  symbol_ */\n      dup3\n        /* \"@openzeppelin/contracts-upgradeable/token/ERC20/ERC20Upgradeable.sol\":2241:2263  __ERC20_init_unchained */\n      tag_329\n        /* \"@openzeppelin/contracts-upgradeable/token/ERC20/ERC20Upgradeable.sol\":2241:2279  __ERC20_init_unchained(name_, symbol_) */\n      jump\t// in\n        /* \"@openzeppelin/contracts-upgradeable/token/ERC20/extensions/ERC20BurnableUpgradeable.sol\":615:680  function __ERC20Burnable_init() internal onlyInitializing {... */\n    tag_233:\n        /* \"@openzeppelin/contracts-upgradeable/proxy/utils/Initializable.sol\":5374:5387  _initializing */\n      sload(0x00)\n      0x0100\n      swap1\n      div\n      0xff\n      and\n        /* \"@openzeppelin/contracts-upgradeable/proxy/utils/Initializable.sol\":5366:5435  require(_initializing, \"Initializable: contract is not initializing\") */\n      tag_331\n      jumpi\n      mload(0x40)\n      shl(0xe5, 0x461bcd)\n      dup2\n      mstore\n      0x04\n      add\n      tag_191\n      swap1\n      tag_326\n      jump\t// in\n    tag_331:\n        /* \"@openzeppelin/contracts-upgradeable/token/ERC20/extensions/ERC20BurnableUpgradeable.sol\":615:680  function __ERC20Burnable_init() internal onlyInitializing {... */\n      jump\t// out\n        /* \"contracts/utils/WithSupervisedTransfers.sol\":2380:2509  function __WithSupervisedTransfers_init() internal onlyInitializing {... */\n    tag_235:\n        /* \"@openzeppelin/contracts-upgradeable/proxy/utils/Initializable.sol\":5374:5387  _initializing */\n      sload(0x00)\n      0x0100\n      swap1\n      div\n      0xff\n      and\n        /* \"@openzeppelin/contracts-upgradeable/proxy/utils/Initializable.sol\":5366:5435  require(_initializing, \"Initializable: contract is not initializing\") */\n      tag_335\n      jumpi\n      mload(0x40)\n      shl(0xe5, 0x461bcd)\n      dup2\n      mstore\n      0x04\n      add\n      tag_191\n      swap1\n      tag_326\n      jump\t// in\n    tag_335:\n        /* \"contracts/utils/WithSupervisedTransfers.sol\":2458:2502  _grantRole(DEFAULT_ADMIN_ROLE, _msgSender()) */\n      tag_331\n        /* \"@openzeppelin/contracts-upgradeable/access/AccessControlUpgradeable.sol\":2365:2369  0x00 */\n      0x00\n        /* \"@openzeppelin/contracts-upgradeable/utils/ContextUpgradeable.sol\":965:975  msg.sender */\n      caller\n        /* \"contracts/utils/WithSupervisedTransfers.sol\":2458:2468  _grantRole */\n      tag_186\n        /* \"contracts/utils/WithSupervisedTransfers.sol\":2458:2502  _grantRole(DEFAULT_ADMIN_ROLE, _msgSender()) */\n      jump\t// in\n        /* \"@openzeppelin/contracts-upgradeable/token/ERC20/ERC20Upgradeable.sol\":8878:9413  function _mint(address account, uint256 amount) internal virtual {... */\n    tag_242:\n      sub(shl(0xa0, 0x01), 0x01)\n        /* \"@openzeppelin/contracts-upgradeable/token/ERC20/ERC20Upgradeable.sol\":8961:8982  account != address(0) */\n      dup3\n      and\n        /* \"@openzeppelin/contracts-upgradeable/token/ERC20/ERC20Upgradeable.sol\":8953:9018  require(account != address(0), \"ERC20: mint to the zero address\") */\n      tag_341\n      jumpi\n      mload(0x40)\n      shl(0xe5, 0x461bcd)\n      dup2\n      mstore\n        /* \"#utility.yul\":10309:10311   */\n      0x20\n        /* \"@openzeppelin/contracts-upgradeable/token/ERC20/ERC20Upgradeable.sol\":8953:9018  require(account != address(0), \"ERC20: mint to the zero address\") */\n      0x04\n      dup3\n      add\n        /* \"#utility.yul\":10291:10312   */\n      mstore\n        /* \"#utility.yul\":10348:10350   */\n      0x1f\n        /* \"#utility.yul\":10328:10346   */\n      0x24\n      dup3\n      add\n        /* \"#utility.yul\":10321:10351   */\n      mstore\n        /* \"#utility.yul\":10387:10420   */\n      0x45524332303a206d696e7420746f20746865207a65726f206164647265737300\n        /* \"#utility.yul\":10367:10385   */\n      0x44\n      dup3\n      add\n        /* \"#utility.yul\":10360:10421   */\n      mstore\n        /* \"#utility.yul\":10438:10456   */\n      0x64\n      add\n        /* \"@openzeppelin/contracts-upgradeable/token/ERC20/ERC20Upgradeable.sol\":8953:9018  require(account != address(0), \"ERC20: mint to the zero address\") */\n      tag_191\n        /* \"#utility.yul\":10107:10462   */\n      jump\n        /* \"@openzeppelin/contracts-upgradeable/token/ERC20/ERC20Upgradeable.sol\":8953:9018  require(account != address(0), \"ERC20: mint to the zero address\") */\n    tag_341:\n        /* \"@openzeppelin/contracts-upgradeable/token/ERC20/ERC20Upgradeable.sol\":9105:9111  amount */\n      dup1\n        /* \"@openzeppelin/contracts-upgradeable/token/ERC20/ERC20Upgradeable.sol\":9089:9101  _totalSupply */\n      0x35\n      0x00\n        /* \"@openzeppelin/contracts-upgradeable/token/ERC20/ERC20Upgradeable.sol\":9089:9111  _totalSupply += amount */\n      dup3\n      dup3\n      sload\n      tag_345\n      swap2\n      swap1\n      tag_204\n      jump\t// in\n    tag_345:\n      swap1\n      swap2\n      sstore\n      pop\n      pop\n      sub(shl(0xa0, 0x01), 0x01)\n        /* \"@openzeppelin/contracts-upgradeable/token/ERC20/ERC20Upgradeable.sol\":9257:9275  _balances[account] */\n      dup3\n      and\n      0x00\n      dup2\n      dup2\n      mstore\n        /* \"@openzeppelin/contracts-upgradeable/token/ERC20/ERC20Upgradeable.sol\":9257:9266  _balances */\n      0x33\n        /* \"@openzeppelin/contracts-upgradeable/token/ERC20/ERC20Upgradeable.sol\":9257:9275  _balances[account] */\n      0x20\n      swap1\n      dup2\n      mstore\n      0x40\n      dup1\n      dup4\n      keccak256\n        /* \"@openzeppelin/contracts-upgradeable/token/ERC20/ERC20Upgradeable.sol\":9257:9285  _balances[account] += amount */\n      dup1\n      sload\n      dup7\n      add\n      swap1\n      sstore\n        /* \"@openzeppelin/contracts-upgradeable/token/ERC20/ERC20Upgradeable.sol\":9310:9347  Transfer(address(0), account, amount) */\n      mload\n        /* \"#utility.yul\":1549:1574   */\n      dup5\n      dup2\n      mstore\n        /* \"@openzeppelin/contracts-upgradeable/token/ERC20/ERC20Upgradeable.sol\":9310:9347  Transfer(address(0), account, amount) */\n      0xddf252ad1be2c89b69c2b068fc378daa952ba7f163c4a11628f55a4df523b3ef\n      swap2\n        /* \"#utility.yul\":1522:1540   */\n      add\n        /* \"@openzeppelin/contracts-upgradeable/token/ERC20/ERC20Upgradeable.sol\":9310:9347  Transfer(address(0), account, amount) */\n      mload(0x40)\n      dup1\n      swap2\n      sub\n      swap1\n      log3\n        /* \"@openzeppelin/contracts-upgradeable/access/AccessControlUpgradeable.sol\":6389:6603  function renounceRole(bytes32 role, address account) public virtual override {... */\n      pop\n      pop\n      jump\t// out\n        /* \"contracts/tokens/Alvara.sol\":3328:3648  function _transfer(... */\n    tag_264:\n      sub(shl(0xa0, 0x01), 0x01)\n        /* \"contracts/tokens/Alvara.sol\":3461:3476  _greyList[from] */\n      dup4\n      and\n      0x00\n      swap1\n      dup2\n      mstore\n        /* \"contracts/tokens/Alvara.sol\":3461:3470  _greyList */\n      0xfc\n        /* \"contracts/tokens/Alvara.sol\":3461:3476  _greyList[from] */\n      0x20\n      mstore\n      0x40\n      swap1\n      keccak256\n      sload\n      0xff\n      and\n        /* \"contracts/tokens/Alvara.sol\":3457:3595  if (_greyList[from]) {... */\n      iszero\n      tag_349\n      jumpi\n        /* \"contracts/tokens/Alvara.sol\":3503:3521  ActionRestricted() */\n      mload(0x40)\n      shl(0xe2, 0x3991fca9)\n      dup2\n      mstore\n      0x04\n      add\n      mload(0x40)\n      dup1\n      swap2\n      sub\n      swap1\n      revert\n        /* \"contracts/tokens/Alvara.sol\":3457:3595  if (_greyList[from]) {... */\n    tag_349:\n        /* \"contracts/tokens/Alvara.sol\":3608:3641  super._transfer(from, to, amount) */\n      tag_185\n        /* \"contracts/tokens/Alvara.sol\":3624:3628  from */\n      dup4\n        /* \"contracts/tokens/Alvara.sol\":3630:3632  to */\n      dup4\n        /* \"contracts/tokens/Alvara.sol\":3634:3640  amount */\n      dup4\n        /* \"contracts/tokens/Alvara.sol\":3608:3623  super._transfer */\n      tag_351\n        /* \"contracts/tokens/Alvara.sol\":3608:3641  super._transfer(from, to, amount) */\n      jump\t// in\n        /* \"@openzeppelin/contracts-upgradeable/access/AccessControlUpgradeable.sol\":4173:4674  function _checkRole(bytes32 role, address account) internal view virtual {... */\n    tag_294:\n        /* \"@openzeppelin/contracts-upgradeable/access/AccessControlUpgradeable.sol\":4261:4283  hasRole(role, account) */\n      tag_353\n        /* \"@openzeppelin/contracts-upgradeable/access/AccessControlUpgradeable.sol\":4269:4273  role */\n      dup3\n        /* \"@openzeppelin/contracts-upgradeable/access/AccessControlUpgradeable.sol\":4275:4282  account */\n      dup3\n        /* \"@openzeppelin/contracts-upgradeable/access/AccessControlUpgradeable.sol\":4261:4268  hasRole */\n      tag_108\n        /* \"@openzeppelin/contracts-upgradeable/access/AccessControlUpgradeable.sol\":4261:4283  hasRole(role, account) */\n      jump\t// in\n    tag_353:\n        /* \"@openzeppelin/contracts-upgradeable/access/AccessControlUpgradeable.sol\":4256:4668  if (!hasRole(role, account)) {... */\n      tag_193\n      jumpi\n        /* \"@openzeppelin/contracts-upgradeable/access/AccessControlUpgradeable.sol\":4444:4483  StringsUpgradeable.toHexString(account) */\n      tag_355\n        /* \"@openzeppelin/contracts-upgradeable/access/AccessControlUpgradeable.sol\":4475:4482  account */\n      dup2\n        /* \"@openzeppelin/contracts-upgradeable/access/AccessControlUpgradeable.sol\":4444:4474  StringsUpgradeable.toHexString */\n      tag_356\n        /* \"@openzeppelin/contracts-upgradeable/access/AccessControlUpgradeable.sol\":4444:4483  StringsUpgradeable.toHexString(account) */\n      jump\t// in\n    tag_355:\n        /* \"@openzeppelin/contracts-upgradeable/access/AccessControlUpgradeable.sol\":4554:4603  StringsUpgradeable.toHexString(uint256(role), 32) */\n      tag_357\n        /* \"@openzeppelin/contracts-upgradeable/access/AccessControlUpgradeable.sol\":4593:4597  role */\n      dup4\n        /* \"@openzeppelin/contracts-upgradeable/access/AccessControlUpgradeable.sol\":4600:4602  32 */\n      0x20\n        /* \"@openzeppelin/contracts-upgradeable/access/AccessControlUpgradeable.sol\":4554:4584  StringsUpgradeable.toHexString */\n      tag_358\n        /* \"@openzeppelin/contracts-upgradeable/access/AccessControlUpgradeable.sol\":4554:4603  StringsUpgradeable.toHexString(uint256(role), 32) */\n      jump\t// in\n    tag_357:\n        /* \"@openzeppelin/contracts-upgradeable/access/AccessControlUpgradeable.sol\":4351:4625  abi.encodePacked(... */\n      add(0x20, mload(0x40))\n      tag_359\n      swap3\n      swap2\n      swap1\n      tag_360\n      jump\t// in\n    tag_359:\n      0x40\n      dup1\n      mload\n      not(0x1f)\n      dup2\n      dup5\n      sub\n      add\n      dup2\n      mstore\n      swap1\n      dup3\n      swap1\n      mstore\n      shl(0xe5, 0x461bcd)\n        /* \"@openzeppelin/contracts-upgradeable/access/AccessControlUpgradeable.sol\":4299:4657  revert(... */\n      dup3\n      mstore\n      tag_191\n      swap2\n      0x04\n      add\n      tag_47\n      jump\t// in\n        /* \"@openzeppelin/contracts-upgradeable/token/ERC20/ERC20Upgradeable.sol\":2292:2451  function __ERC20_init_unchained(string memory name_, string memory symbol_) internal onlyInitializing {... */\n    tag_329:\n        /* \"@openzeppelin/contracts-upgradeable/proxy/utils/Initializable.sol\":5374:5387  _initializing */\n      sload(0x00)\n      0x0100\n      swap1\n      div\n      0xff\n      and\n        /* \"@openzeppelin/contracts-upgradeable/proxy/utils/Initializable.sol\":5366:5435  require(_initializing, \"Initializable: contract is not initializing\") */\n      tag_365\n      jumpi\n      mload(0x40)\n      shl(0xe5, 0x461bcd)\n      dup2\n      mstore\n      0x04\n      add\n      tag_191\n      swap1\n      tag_326\n      jump\t// in\n    tag_365:\n        /* \"@openzeppelin/contracts-upgradeable/token/ERC20/ERC20Upgradeable.sol\":2404:2409  _name */\n      0x36\n        /* \"@openzeppelin/contracts-upgradeable/token/ERC20/ERC20Upgradeable.sol\":2404:2417  _name = name_ */\n      tag_368\n        /* \"@openzeppelin/contracts-upgradeable/token/ERC20/ERC20Upgradeable.sol\":2412:2417  name_ */\n      dup4\n        /* \"@openzeppelin/contracts-upgradeable/token/ERC20/ERC20Upgradeable.sol\":2404:2409  _name */\n      dup3\n        /* \"@openzeppelin/contracts-upgradeable/token/ERC20/ERC20Upgradeable.sol\":2404:2417  _name = name_ */\n      tag_369\n      jump\t// in\n    tag_368:\n      pop\n        /* \"@openzeppelin/contracts-upgradeable/token/ERC20/ERC20Upgradeable.sol\":2427:2434  _symbol */\n      0x37\n        /* \"@openzeppelin/contracts-upgradeable/token/ERC20/ERC20Upgradeable.sol\":2427:2444  _symbol = symbol_ */\n      tag_185\n        /* \"@openzeppelin/contracts-upgradeable/token/ERC20/ERC20Upgradeable.sol\":2437:2444  symbol_ */\n      dup3\n        /* \"@openzeppelin/contracts-upgradeable/token/ERC20/ERC20Upgradeable.sol\":2427:2434  _symbol */\n      dup3\n        /* \"@openzeppelin/contracts-upgradeable/token/ERC20/ERC20Upgradeable.sol\":2427:2444  _symbol = symbol_ */\n      tag_369\n      jump\t// in\n        /* \"@openzeppelin/contracts-upgradeable/token/ERC20/ERC20Upgradeable.sol\":7814:8602  function _transfer(address from, address to, uint256 amount) internal virtual {... */\n    tag_351:\n      sub(shl(0xa0, 0x01), 0x01)\n        /* \"@openzeppelin/contracts-upgradeable/token/ERC20/ERC20Upgradeable.sol\":7910:7928  from != address(0) */\n      dup4\n      and\n        /* \"@openzeppelin/contracts-upgradeable/token/ERC20/ERC20Upgradeable.sol\":7902:7970  require(from != address(0), \"ERC20: transfer from the zero address\") */\n      tag_372\n      jumpi\n      mload(0x40)\n      shl(0xe5, 0x461bcd)\n      dup2\n      mstore\n        /* \"#utility.yul\":13742:13744   */\n      0x20\n        /* \"@openzeppelin/contracts-upgradeable/token/ERC20/ERC20Upgradeable.sol\":7902:7970  require(from != address(0), \"ERC20: transfer from the zero address\") */\n      0x04\n      dup3\n      add\n        /* \"#utility.yul\":13724:13745   */\n      mstore\n        /* \"#utility.yul\":13781:13783   */\n      0x25\n        /* \"#utility.yul\":13761:13779   */\n      0x24\n      dup3\n      add\n        /* \"#utility.yul\":13754:13784   */\n      mstore\n        /* \"#utility.yul\":13820:13854   */\n      0x45524332303a207472616e736665722066726f6d20746865207a65726f206164\n        /* \"#utility.yul\":13800:13818   */\n      0x44\n      dup3\n      add\n        /* \"#utility.yul\":13793:13855   */\n      mstore\n      shl(0xd8, 0x6472657373)\n        /* \"#utility.yul\":13871:13889   */\n      0x64\n      dup3\n      add\n        /* \"#utility.yul\":13864:13899   */\n      mstore\n        /* \"#utility.yul\":13916:13935   */\n      0x84\n      add\n        /* \"@openzeppelin/contracts-upgradeable/token/ERC20/ERC20Upgradeable.sol\":7902:7970  require(from != address(0), \"ERC20: transfer from the zero address\") */\n      tag_191\n        /* \"#utility.yul\":13540:13941   */\n      jump\n        /* \"@openzeppelin/contracts-upgradeable/token/ERC20/ERC20Upgradeable.sol\":7902:7970  require(from != address(0), \"ERC20: transfer from the zero address\") */\n    tag_372:\n      sub(shl(0xa0, 0x01), 0x01)\n        /* \"@openzeppelin/contracts-upgradeable/token/ERC20/ERC20Upgradeable.sol\":7988:8004  to != address(0) */\n      dup3\n      and\n        /* \"@openzeppelin/contracts-upgradeable/token/ERC20/ERC20Upgradeable.sol\":7980:8044  require(to != address(0), \"ERC20: transfer to the zero address\") */\n      tag_375\n      jumpi\n      mload(0x40)\n      shl(0xe5, 0x461bcd)\n      dup2\n      mstore\n        /* \"#utility.yul\":14148:14150   */\n      0x20\n        /* \"@openzeppelin/contracts-upgradeable/token/ERC20/ERC20Upgradeable.sol\":7980:8044  require(to != address(0), \"ERC20: transfer to the zero address\") */\n      0x04\n      dup3\n      add\n        /* \"#utility.yul\":14130:14151   */\n      mstore\n        /* \"#utility.yul\":14187:14189   */\n      0x23\n        /* \"#utility.yul\":14167:14185   */\n      0x24\n      dup3\n      add\n        /* \"#utility.yul\":14160:14190   */\n      mstore\n        /* \"#utility.yul\":14226:14260   */\n      0x45524332303a207472616e7366657220746f20746865207a65726f2061646472\n        /* \"#utility.yul\":14206:14224   */\n      0x44\n      dup3\n      add\n        /* \"#utility.yul\":14199:14261   */\n      mstore\n      shl(0xe8, 0x657373)\n        /* \"#utility.yul\":14277:14295   */\n      0x64\n      dup3\n      add\n        /* \"#utility.yul\":14270:14303   */\n      mstore\n        /* \"#utility.yul\":14320:14339   */\n      0x84\n      add\n        /* \"@openzeppelin/contracts-upgradeable/token/ERC20/ERC20Upgradeable.sol\":7980:8044  require(to != address(0), \"ERC20: transfer to the zero address\") */\n      tag_191\n        /* \"#utility.yul\":13946:14345   */\n      jump\n        /* \"@openzeppelin/contracts-upgradeable/token/ERC20/ERC20Upgradeable.sol\":7980:8044  require(to != address(0), \"ERC20: transfer to the zero address\") */\n    tag_375:\n      sub(shl(0xa0, 0x01), 0x01)\n        /* \"@openzeppelin/contracts-upgradeable/token/ERC20/ERC20Upgradeable.sol\":8126:8141  _balances[from] */\n      dup4\n      and\n        /* \"@openzeppelin/contracts-upgradeable/token/ERC20/ERC20Upgradeable.sol\":8104:8123  uint256 fromBalance */\n      0x00\n        /* \"@openzeppelin/contracts-upgradeable/token/ERC20/ERC20Upgradeable.sol\":8126:8141  _balances[from] */\n      swap1\n      dup2\n      mstore\n        /* \"@openzeppelin/contracts-upgradeable/token/ERC20/ERC20Upgradeable.sol\":8126:8135  _balances */\n      0x33\n        /* \"@openzeppelin/contracts-upgradeable/token/ERC20/ERC20Upgradeable.sol\":8126:8141  _balances[from] */\n      0x20\n      mstore\n      0x40\n      swap1\n      keccak256\n      sload\n        /* \"@openzeppelin/contracts-upgradeable/token/ERC20/ERC20Upgradeable.sol\":8159:8180  fromBalance >= amount */\n      dup2\n      dup2\n      lt\n      iszero\n        /* \"@openzeppelin/contracts-upgradeable/token/ERC20/ERC20Upgradeable.sol\":8151:8223  require(fromBalance >= amount, \"ERC20: transfer amount exceeds balance\") */\n      tag_379\n      jumpi\n      mload(0x40)\n      shl(0xe5, 0x461bcd)\n      dup2\n      mstore\n        /* \"#utility.yul\":14552:14554   */\n      0x20\n        /* \"@openzeppelin/contracts-upgradeable/token/ERC20/ERC20Upgradeable.sol\":8151:8223  require(fromBalance >= amount, \"ERC20: transfer amount exceeds balance\") */\n      0x04\n      dup3\n      add\n        /* \"#utility.yul\":14534:14555   */\n      mstore\n        /* \"#utility.yul\":14591:14593   */\n      0x26\n        /* \"#utility.yul\":14571:14589   */\n      0x24\n      dup3\n      add\n        /* \"#utility.yul\":14564:14594   */\n      mstore\n        /* \"#utility.yul\":14630:14664   */\n      0x45524332303a207472616e7366657220616d6f756e7420657863656564732062\n        /* \"#utility.yul\":14610:14628   */\n      0x44\n      dup3\n      add\n        /* \"#utility.yul\":14603:14665   */\n      mstore\n      shl(0xd0, 0x616c616e6365)\n        /* \"#utility.yul\":14681:14699   */\n      0x64\n      dup3\n      add\n        /* \"#utility.yul\":14674:14710   */\n      mstore\n        /* \"#utility.yul\":14727:14746   */\n      0x84\n      add\n        /* \"@openzeppelin/contracts-upgradeable/token/ERC20/ERC20Upgradeable.sol\":8151:8223  require(fromBalance >= amount, \"ERC20: transfer amount exceeds balance\") */\n      tag_191\n        /* \"#utility.yul\":14350:14752   */\n      jump\n        /* \"@openzeppelin/contracts-upgradeable/token/ERC20/ERC20Upgradeable.sol\":8151:8223  require(fromBalance >= amount, \"ERC20: transfer amount exceeds balance\") */\n    tag_379:\n      sub(shl(0xa0, 0x01), 0x01)\n        /* \"@openzeppelin/contracts-upgradeable/token/ERC20/ERC20Upgradeable.sol\":8257:8272  _balances[from] */\n      dup1\n      dup6\n      and\n      0x00\n      dup2\n      dup2\n      mstore\n        /* \"@openzeppelin/contracts-upgradeable/token/ERC20/ERC20Upgradeable.sol\":8257:8266  _balances */\n      0x33\n        /* \"@openzeppelin/contracts-upgradeable/token/ERC20/ERC20Upgradeable.sol\":8257:8272  _balances[from] */\n      0x20\n      mstore\n      0x40\n      dup1\n      dup3\n      keccak256\n        /* \"@openzeppelin/contracts-upgradeable/token/ERC20/ERC20Upgradeable.sol\":8275:8295  fromBalance - amount */\n      dup7\n      dup7\n      sub\n        /* \"@openzeppelin/contracts-upgradeable/token/ERC20/ERC20Upgradeable.sol\":8257:8295  _balances[from] = fromBalance - amount */\n      swap1\n      sstore\n        /* \"@openzeppelin/contracts-upgradeable/token/ERC20/ERC20Upgradeable.sol\":8472:8485  _balances[to] */\n      swap3\n      dup7\n      and\n      dup1\n      dup3\n      mstore\n      swap1\n      dup4\n      swap1\n      keccak256\n        /* \"@openzeppelin/contracts-upgradeable/token/ERC20/ERC20Upgradeable.sol\":8472:8495  _balances[to] += amount */\n      dup1\n      sload\n      dup7\n      add\n      swap1\n      sstore\n        /* \"@openzeppelin/contracts-upgradeable/token/ERC20/ERC20Upgradeable.sol\":8521:8547  Transfer(from, to, amount) */\n      swap2\n      mload\n      0xddf252ad1be2c89b69c2b068fc378daa952ba7f163c4a11628f55a4df523b3ef\n      swap1\n      tag_382\n      swap1\n        /* \"@openzeppelin/contracts-upgradeable/token/ERC20/ERC20Upgradeable.sol\":8289:8295  amount */\n      dup7\n        /* \"#utility.yul\":1549:1574   */\n      dup2\n      mstore\n        /* \"#utility.yul\":1537:1539   */\n      0x20\n        /* \"#utility.yul\":1522:1540   */\n      add\n      swap1\n        /* \"#utility.yul\":1403:1580   */\n      jump\n        /* \"@openzeppelin/contracts-upgradeable/token/ERC20/ERC20Upgradeable.sol\":8521:8547  Transfer(from, to, amount) */\n    tag_382:\n      mload(0x40)\n      dup1\n      swap2\n      sub\n      swap1\n      log3\n        /* \"@openzeppelin/contracts-upgradeable/token/ERC20/ERC20Upgradeable.sol\":8558:8595  _afterTokenTransfer(from, to, amount) */\n      tag_321\n        /* \"@openzeppelin/contracts-upgradeable/access/AccessControlUpgradeable.sol\":5280:5425  function grantRole(bytes32 role, address account) public virtual override onlyRole(getRoleAdmin(role)) {... */\n      jump\n        /* \"@openzeppelin/contracts-upgradeable/utils/StringsUpgradeable.sol\":2473:2622  function toHexString(address addr) internal pure returns (string memory) {... */\n    tag_356:\n        /* \"@openzeppelin/contracts-upgradeable/utils/StringsUpgradeable.sol\":2531:2544  string memory */\n      0x60\n        /* \"@openzeppelin/contracts-upgradeable/utils/StringsUpgradeable.sol\":2563:2615  toHexString(uint256(uint160(addr)), _ADDRESS_LENGTH) */\n      tag_149\n      sub(shl(0xa0, 0x01), 0x01)\n        /* \"@openzeppelin/contracts-upgradeable/utils/StringsUpgradeable.sol\":2575:2597  uint256(uint160(addr)) */\n      dup4\n      and\n        /* \"@openzeppelin/contracts-upgradeable/utils/StringsUpgradeable.sol\":376:378  20 */\n      0x14\n        /* \"@openzeppelin/contracts-upgradeable/utils/StringsUpgradeable.sol\":1884:2321  function toHexString(uint256 value, uint256 length) internal pure returns (string memory) {... */\n    tag_358:\n        /* \"@openzeppelin/contracts-upgradeable/utils/StringsUpgradeable.sol\":1959:1972  string memory */\n      0x60\n        /* \"@openzeppelin/contracts-upgradeable/utils/StringsUpgradeable.sol\":1984:2003  bytes memory buffer */\n      0x00\n        /* \"@openzeppelin/contracts-upgradeable/utils/StringsUpgradeable.sol\":2016:2026  2 * length */\n      tag_387\n        /* \"@openzeppelin/contracts-upgradeable/utils/StringsUpgradeable.sol\":2020:2026  length */\n      dup4\n        /* \"@openzeppelin/contracts-upgradeable/utils/StringsUpgradeable.sol\":2016:2017  2 */\n      0x02\n        /* \"@openzeppelin/contracts-upgradeable/utils/StringsUpgradeable.sol\":2016:2026  2 * length */\n      tag_241\n      jump\t// in\n    tag_387:\n        /* \"@openzeppelin/contracts-upgradeable/utils/StringsUpgradeable.sol\":2016:2030  2 * length + 2 */\n      tag_388\n      swap1\n        /* \"@openzeppelin/contracts-upgradeable/utils/StringsUpgradeable.sol\":2029:2030  2 */\n      0x02\n        /* \"@openzeppelin/contracts-upgradeable/utils/StringsUpgradeable.sol\":2016:2030  2 * length + 2 */\n      tag_204\n      jump\t// in\n    tag_388:\n        /* \"@openzeppelin/contracts-upgradeable/utils/StringsUpgradeable.sol\":2006:2031  new bytes(2 * length + 2) */\n      0xffffffffffffffff\n      dup2\n      gt\n      iszero\n      tag_390\n      jumpi\n      tag_390\n      tag_391\n      jump\t// in\n    tag_390:\n      mload(0x40)\n      swap1\n      dup1\n      dup3\n      mstore\n      dup1\n      0x1f\n      add\n      not(0x1f)\n      and\n      0x20\n      add\n      dup3\n      add\n      0x40\n      mstore\n      dup1\n      iszero\n      tag_392\n      jumpi\n      0x20\n      dup3\n      add\n      dup2\n      dup1\n      calldatasize\n      dup4\n      calldatacopy\n      add\n      swap1\n      pop\n    tag_392:\n      pop\n        /* \"@openzeppelin/contracts-upgradeable/utils/StringsUpgradeable.sol\":1984:2031  bytes memory buffer = new bytes(2 * length + 2) */\n      swap1\n      pop\n      shl(0xfc, 0x03)\n        /* \"@openzeppelin/contracts-upgradeable/utils/StringsUpgradeable.sol\":2041:2047  buffer */\n      dup2\n        /* \"@openzeppelin/contracts-upgradeable/utils/StringsUpgradeable.sol\":2048:2049  0 */\n      0x00\n        /* \"@openzeppelin/contracts-upgradeable/utils/StringsUpgradeable.sol\":2041:2050  buffer[0] */\n      dup2\n      mload\n      dup2\n      lt\n      tag_394\n      jumpi\n      tag_394\n      tag_395\n      jump\t// in\n    tag_394:\n      0x20\n      add\n      add\n        /* \"@openzeppelin/contracts-upgradeable/utils/StringsUpgradeable.sol\":2041:2056  buffer[0] = \"0\" */\n      swap1\n      not(sub(shl(0xf8, 0x01), 0x01))\n      and\n      swap1\n      dup2\n      0x00\n      byte\n      swap1\n      mstore8\n      pop\n      shl(0xfb, 0x0f)\n        /* \"@openzeppelin/contracts-upgradeable/utils/StringsUpgradeable.sol\":2066:2072  buffer */\n      dup2\n        /* \"@openzeppelin/contracts-upgradeable/utils/StringsUpgradeable.sol\":2073:2074  1 */\n      0x01\n        /* \"@openzeppelin/contracts-upgradeable/utils/StringsUpgradeable.sol\":2066:2075  buffer[1] */\n      dup2\n      mload\n      dup2\n      lt\n      tag_397\n      jumpi\n      tag_397\n      tag_395\n      jump\t// in\n    tag_397:\n      0x20\n      add\n      add\n        /* \"@openzeppelin/contracts-upgradeable/utils/StringsUpgradeable.sol\":2066:2081  buffer[1] = \"x\" */\n      swap1\n      not(sub(shl(0xf8, 0x01), 0x01))\n      and\n      swap1\n      dup2\n      0x00\n      byte\n      swap1\n      mstore8\n      pop\n        /* \"@openzeppelin/contracts-upgradeable/utils/StringsUpgradeable.sol\":2096:2105  uint256 i */\n      0x00\n        /* \"@openzeppelin/contracts-upgradeable/utils/StringsUpgradeable.sol\":2108:2118  2 * length */\n      tag_401\n        /* \"@openzeppelin/contracts-upgradeable/utils/StringsUpgradeable.sol\":2112:2118  length */\n      dup5\n        /* \"@openzeppelin/contracts-upgradeable/utils/StringsUpgradeable.sol\":2108:2109  2 */\n      0x02\n        /* \"@openzeppelin/contracts-upgradeable/utils/StringsUpgradeable.sol\":2108:2118  2 * length */\n      tag_241\n      jump\t// in\n    tag_401:\n        /* \"@openzeppelin/contracts-upgradeable/utils/StringsUpgradeable.sol\":2108:2122  2 * length + 1 */\n      tag_402\n      swap1\n        /* \"@openzeppelin/contracts-upgradeable/utils/StringsUpgradeable.sol\":2121:2122  1 */\n      0x01\n        /* \"@openzeppelin/contracts-upgradeable/utils/StringsUpgradeable.sol\":2108:2122  2 * length + 1 */\n      tag_204\n      jump\t// in\n    tag_402:\n        /* \"@openzeppelin/contracts-upgradeable/utils/StringsUpgradeable.sol\":2096:2122  uint256 i = 2 * length + 1 */\n      swap1\n      pop\n        /* \"@openzeppelin/contracts-upgradeable/utils/StringsUpgradeable.sol\":2091:2219  for (uint256 i = 2 * length + 1; i > 1; --i) {... */\n    tag_398:\n        /* \"@openzeppelin/contracts-upgradeable/utils/StringsUpgradeable.sol\":2128:2129  1 */\n      0x01\n        /* \"@openzeppelin/contracts-upgradeable/utils/StringsUpgradeable.sol\":2124:2125  i */\n      dup2\n        /* \"@openzeppelin/contracts-upgradeable/utils/StringsUpgradeable.sol\":2124:2129  i > 1 */\n      gt\n        /* \"@openzeppelin/contracts-upgradeable/utils/StringsUpgradeable.sol\":2091:2219  for (uint256 i = 2 * length + 1; i > 1; --i) {... */\n      iszero\n      tag_399\n      jumpi\n      shl(0x81, 0x181899199a1a9b1b9c1cb0b131b232b3)\n        /* \"@openzeppelin/contracts-upgradeable/utils/StringsUpgradeable.sol\":2171:2176  value */\n      dup6\n        /* \"@openzeppelin/contracts-upgradeable/utils/StringsUpgradeable.sol\":2179:2182  0xf */\n      0x0f\n        /* \"@openzeppelin/contracts-upgradeable/utils/StringsUpgradeable.sol\":2171:2182  value & 0xf */\n      and\n        /* \"@openzeppelin/contracts-upgradeable/utils/StringsUpgradeable.sol\":2162:2183  _SYMBOLS[value & 0xf] */\n      0x10\n      dup2\n      lt\n      tag_404\n      jumpi\n      tag_404\n      tag_395\n      jump\t// in\n    tag_404:\n      byte\n      0xf8\n      shl\n        /* \"@openzeppelin/contracts-upgradeable/utils/StringsUpgradeable.sol\":2150:2156  buffer */\n      dup3\n        /* \"@openzeppelin/contracts-upgradeable/utils/StringsUpgradeable.sol\":2157:2158  i */\n      dup3\n        /* \"@openzeppelin/contracts-upgradeable/utils/StringsUpgradeable.sol\":2150:2159  buffer[i] */\n      dup2\n      mload\n      dup2\n      lt\n      tag_406\n      jumpi\n      tag_406\n      tag_395\n      jump\t// in\n    tag_406:\n      0x20\n      add\n      add\n        /* \"@openzeppelin/contracts-upgradeable/utils/StringsUpgradeable.sol\":2150:2183  buffer[i] = _SYMBOLS[value & 0xf] */\n      swap1\n      not(sub(shl(0xf8, 0x01), 0x01))\n      and\n      swap1\n      dup2\n      0x00\n      byte\n      swap1\n      mstore8\n      pop\n        /* \"@openzeppelin/contracts-upgradeable/utils/StringsUpgradeable.sol\":2207:2208  4 */\n      0x04\n        /* \"@openzeppelin/contracts-upgradeable/utils/StringsUpgradeable.sol\":2197:2208  value >>= 4 */\n      swap5\n      swap1\n      swap5\n      shr\n      swap4\n        /* \"@openzeppelin/contracts-upgradeable/utils/StringsUpgradeable.sol\":2131:2134  --i */\n      tag_407\n      dup2\n      tag_408\n      jump\t// in\n    tag_407:\n      swap1\n      pop\n        /* \"@openzeppelin/contracts-upgradeable/utils/StringsUpgradeable.sol\":2091:2219  for (uint256 i = 2 * length + 1; i > 1; --i) {... */\n      jump(tag_398)\n    tag_399:\n      pop\n        /* \"@openzeppelin/contracts-upgradeable/utils/StringsUpgradeable.sol\":2236:2246  value == 0 */\n      dup4\n      iszero\n        /* \"@openzeppelin/contracts-upgradeable/utils/StringsUpgradeable.sol\":2228:2283  require(value == 0, \"Strings: hex length insufficient\") */\n      tag_409\n      jumpi\n      mload(0x40)\n      shl(0xe5, 0x461bcd)\n      dup2\n      mstore\n        /* \"#utility.yul\":15232:15234   */\n      0x20\n        /* \"@openzeppelin/contracts-upgradeable/utils/StringsUpgradeable.sol\":2228:2283  require(value == 0, \"Strings: hex length insufficient\") */\n      0x04\n      dup3\n      add\n        /* \"#utility.yul\":15214:15235   */\n      dup2\n      swap1\n      mstore\n        /* \"#utility.yul\":15251:15269   */\n      0x24\n      dup3\n      add\n        /* \"#utility.yul\":15244:15274   */\n      mstore\n        /* \"#utility.yul\":15310:15344   */\n      0x537472696e67733a20686578206c656e67746820696e73756666696369656e74\n        /* \"#utility.yul\":15290:15308   */\n      0x44\n      dup3\n      add\n        /* \"#utility.yul\":15283:15345   */\n      mstore\n        /* \"#utility.yul\":15362:15380   */\n      0x64\n      add\n        /* \"@openzeppelin/contracts-upgradeable/utils/StringsUpgradeable.sol\":2228:2283  require(value == 0, \"Strings: hex length insufficient\") */\n      tag_191\n        /* \"#utility.yul\":15030:15386   */\n      jump\n        /* \"@openzeppelin/contracts-upgradeable/utils/StringsUpgradeable.sol\":2228:2283  require(value == 0, \"Strings: hex length insufficient\") */\n    tag_409:\n        /* \"@openzeppelin/contracts-upgradeable/utils/StringsUpgradeable.sol\":2307:2313  buffer */\n      swap4\n        /* \"@openzeppelin/contracts-upgradeable/utils/StringsUpgradeable.sol\":1884:2321  function toHexString(uint256 value, uint256 length) internal pure returns (string memory) {... */\n      swap3\n      pop\n      pop\n      pop\n      jump\t// out\n        /* \"#utility.yul\":14:300   */\n    tag_40:\n        /* \"#utility.yul\":72:78   */\n      0x00\n        /* \"#utility.yul\":125:127   */\n      0x20\n        /* \"#utility.yul\":113:122   */\n      dup3\n        /* \"#utility.yul\":104:111   */\n      dup5\n        /* \"#utility.yul\":100:123   */\n      sub\n        /* \"#utility.yul\":96:128   */\n      slt\n        /* \"#utility.yul\":93:145   */\n      iszero\n      tag_422\n      jumpi\n        /* \"#utility.yul\":141:142   */\n      0x00\n        /* \"#utility.yul\":138:139   */\n      0x00\n        /* \"#utility.yul\":131:143   */\n      revert\n        /* \"#utility.yul\":93:145   */\n    tag_422:\n        /* \"#utility.yul\":167:190   */\n      dup2\n      calldataload\n      not(sub(shl(0xe0, 0x01), 0x01))\n        /* \"#utility.yul\":219:251   */\n      dup2\n      and\n        /* \"#utility.yul\":209:252   */\n      dup2\n      eq\n        /* \"#utility.yul\":199:270   */\n      tag_409\n      jumpi\n        /* \"#utility.yul\":266:267   */\n      0x00\n        /* \"#utility.yul\":263:264   */\n      0x00\n        /* \"#utility.yul\":256:268   */\n      revert\n        /* \"#utility.yul\":497:915   */\n    tag_47:\n        /* \"#utility.yul\":646:648   */\n      0x20\n        /* \"#utility.yul\":635:644   */\n      dup2\n        /* \"#utility.yul\":628:649   */\n      mstore\n        /* \"#utility.yul\":609:613   */\n      0x00\n        /* \"#utility.yul\":678:684   */\n      dup3\n        /* \"#utility.yul\":672:685   */\n      mload\n        /* \"#utility.yul\":721:727   */\n      dup1\n        /* \"#utility.yul\":716:718   */\n      0x20\n        /* \"#utility.yul\":705:714   */\n      dup5\n        /* \"#utility.yul\":701:719   */\n      add\n        /* \"#utility.yul\":694:728   */\n      mstore\n        /* \"#utility.yul\":780:786   */\n      dup1\n        /* \"#utility.yul\":775:777   */\n      0x20\n        /* \"#utility.yul\":767:773   */\n      dup6\n        /* \"#utility.yul\":763:778   */\n      add\n        /* \"#utility.yul\":758:760   */\n      0x40\n        /* \"#utility.yul\":747:756   */\n      dup6\n        /* \"#utility.yul\":743:761   */\n      add\n        /* \"#utility.yul\":737:787   */\n      mcopy\n        /* \"#utility.yul\":836:837   */\n      0x00\n        /* \"#utility.yul\":831:833   */\n      0x40\n        /* \"#utility.yul\":822:828   */\n      dup3\n        /* \"#utility.yul\":811:820   */\n      dup6\n        /* \"#utility.yul\":807:829   */\n      add\n        /* \"#utility.yul\":803:834   */\n      add\n        /* \"#utility.yul\":796:838   */\n      mstore\n        /* \"#utility.yul\":906:908   */\n      0x40\n        /* \"#utility.yul\":899:901   */\n      0x1f\n        /* \"#utility.yul\":895:902   */\n      not\n        /* \"#utility.yul\":890:892   */\n      0x1f\n        /* \"#utility.yul\":882:888   */\n      dup4\n        /* \"#utility.yul\":878:893   */\n      add\n        /* \"#utility.yul\":874:903   */\n      and\n        /* \"#utility.yul\":863:872   */\n      dup5\n        /* \"#utility.yul\":859:904   */\n      add\n        /* \"#utility.yul\":855:909   */\n      add\n        /* \"#utility.yul\":847:909   */\n      swap2\n      pop\n      pop\n        /* \"#utility.yul\":497:915   */\n      swap3\n      swap2\n      pop\n      pop\n      jump\t// out\n        /* \"#utility.yul\":920:1093   */\n    tag_412:\n        /* \"#utility.yul\":988:1008   */\n      dup1\n      calldataload\n      sub(shl(0xa0, 0x01), 0x01)\n        /* \"#utility.yul\":1037:1068   */\n      dup2\n      and\n        /* \"#utility.yul\":1027:1069   */\n      dup2\n      eq\n        /* \"#utility.yul\":1017:1087   */\n      tag_427\n      jumpi\n        /* \"#utility.yul\":1083:1084   */\n      0x00\n        /* \"#utility.yul\":1080:1081   */\n      0x00\n        /* \"#utility.yul\":1073:1085   */\n      revert\n        /* \"#utility.yul\":1017:1087   */\n    tag_427:\n        /* \"#utility.yul\":920:1093   */\n      swap2\n      swap1\n      pop\n      jump\t// out\n        /* \"#utility.yul\":1098:1398   */\n    tag_50:\n        /* \"#utility.yul\":1166:1172   */\n      0x00\n        /* \"#utility.yul\":1174:1180   */\n      0x00\n        /* \"#utility.yul\":1227:1229   */\n      0x40\n        /* \"#utility.yul\":1215:1224   */\n      dup4\n        /* \"#utility.yul\":1206:1213   */\n      dup6\n        /* \"#utility.yul\":1202:1225   */\n      sub\n        /* \"#utility.yul\":1198:1230   */\n      slt\n        /* \"#utility.yul\":1195:1247   */\n      iszero\n      tag_429\n      jumpi\n        /* \"#utility.yul\":1243:1244   */\n      0x00\n        /* \"#utility.yul\":1240:1241   */\n      0x00\n        /* \"#utility.yul\":1233:1245   */\n      revert\n        /* \"#utility.yul\":1195:1247   */\n    tag_429:\n        /* \"#utility.yul\":1266:1295   */\n      tag_430\n        /* \"#utility.yul\":1285:1294   */\n      dup4\n        /* \"#utility.yul\":1266:1295   */\n      tag_412\n      jump\t// in\n    tag_430:\n        /* \"#utility.yul\":1256:1295   */\n      swap5\n        /* \"#utility.yul\":1364:1366   */\n      0x20\n        /* \"#utility.yul\":1349:1367   */\n      swap4\n      swap1\n      swap4\n      add\n        /* \"#utility.yul\":1336:1368   */\n      calldataload\n      swap4\n      pop\n      pop\n      pop\n        /* \"#utility.yul\":1098:1398   */\n      jump\t// out\n        /* \"#utility.yul\":1585:1959   */\n    tag_59:\n        /* \"#utility.yul\":1662:1668   */\n      0x00\n        /* \"#utility.yul\":1670:1676   */\n      0x00\n        /* \"#utility.yul\":1678:1684   */\n      0x00\n        /* \"#utility.yul\":1731:1733   */\n      0x60\n        /* \"#utility.yul\":1719:1728   */\n      dup5\n        /* \"#utility.yul\":1710:1717   */\n      dup7\n        /* \"#utility.yul\":1706:1729   */\n      sub\n        /* \"#utility.yul\":1702:1734   */\n      slt\n        /* \"#utility.yul\":1699:1751   */\n      iszero\n      tag_433\n      jumpi\n        /* \"#utility.yul\":1747:1748   */\n      0x00\n        /* \"#utility.yul\":1744:1745   */\n      0x00\n        /* \"#utility.yul\":1737:1749   */\n      revert\n        /* \"#utility.yul\":1699:1751   */\n    tag_433:\n        /* \"#utility.yul\":1770:1799   */\n      tag_434\n        /* \"#utility.yul\":1789:1798   */\n      dup5\n        /* \"#utility.yul\":1770:1799   */\n      tag_412\n      jump\t// in\n    tag_434:\n        /* \"#utility.yul\":1760:1799   */\n      swap3\n      pop\n        /* \"#utility.yul\":1818:1856   */\n      tag_435\n        /* \"#utility.yul\":1852:1854   */\n      0x20\n        /* \"#utility.yul\":1841:1850   */\n      dup6\n        /* \"#utility.yul\":1837:1855   */\n      add\n        /* \"#utility.yul\":1818:1856   */\n      tag_412\n      jump\t// in\n    tag_435:\n        /* \"#utility.yul\":1585:1959   */\n      swap3\n      swap6\n        /* \"#utility.yul\":1808:1856   */\n      swap3\n      swap5\n      pop\n      pop\n      pop\n        /* \"#utility.yul\":1925:1927   */\n      0x40\n        /* \"#utility.yul\":1910:1928   */\n      swap2\n      swap1\n      swap2\n      add\n        /* \"#utility.yul\":1897:1929   */\n      calldataload\n      swap1\n        /* \"#utility.yul\":1585:1959   */\n      jump\t// out\n        /* \"#utility.yul\":1964:2190   */\n    tag_64:\n        /* \"#utility.yul\":2023:2029   */\n      0x00\n        /* \"#utility.yul\":2076:2078   */\n      0x20\n        /* \"#utility.yul\":2064:2073   */\n      dup3\n        /* \"#utility.yul\":2055:2062   */\n      dup5\n        /* \"#utility.yul\":2051:2074   */\n      sub\n        /* \"#utility.yul\":2047:2079   */\n      slt\n        /* \"#utility.yul\":2044:2096   */\n      iszero\n      tag_437\n      jumpi\n        /* \"#utility.yul\":2092:2093   */\n      0x00\n        /* \"#utility.yul\":2089:2090   */\n      0x00\n        /* \"#utility.yul\":2082:2094   */\n      revert\n        /* \"#utility.yul\":2044:2096   */\n    tag_437:\n      pop\n        /* \"#utility.yul\":2137:2160   */\n      calldataload\n      swap2\n        /* \"#utility.yul\":1964:2190   */\n      swap1\n      pop\n      jump\t// out\n        /* \"#utility.yul\":2377:2677   */\n    tag_70:\n        /* \"#utility.yul\":2445:2451   */\n      0x00\n        /* \"#utility.yul\":2453:2459   */\n      0x00\n        /* \"#utility.yul\":2506:2508   */\n      0x40\n        /* \"#utility.yul\":2494:2503   */\n      dup4\n        /* \"#utility.yul\":2485:2492   */\n      dup6\n        /* \"#utility.yul\":2481:2504   */\n      sub\n        /* \"#utility.yul\":2477:2509   */\n      slt\n        /* \"#utility.yul\":2474:2526   */\n      iszero\n      tag_440\n      jumpi\n        /* \"#utility.yul\":2522:2523   */\n      0x00\n        /* \"#utility.yul\":2519:2520   */\n      0x00\n        /* \"#utility.yul\":2512:2524   */\n      revert\n        /* \"#utility.yul\":2474:2526   */\n    tag_440:\n        /* \"#utility.yul\":2567:2590   */\n      dup3\n      calldataload\n      swap2\n      pop\n        /* \"#utility.yul\":2633:2671   */\n      tag_441\n        /* \"#utility.yul\":2667:2669   */\n      0x20\n        /* \"#utility.yul\":2652:2670   */\n      dup5\n      add\n        /* \"#utility.yul\":2633:2671   */\n      tag_412\n      jump\t// in\n    tag_441:\n        /* \"#utility.yul\":2623:2671   */\n      swap1\n      pop\n        /* \"#utility.yul\":2377:2677   */\n      swap3\n      pop\n      swap3\n      swap1\n      pop\n      jump\t// out\n        /* \"#utility.yul\":2871:3057   */\n    tag_81:\n        /* \"#utility.yul\":2930:2936   */\n      0x00\n        /* \"#utility.yul\":2983:2985   */\n      0x20\n        /* \"#utility.yul\":2971:2980   */\n      dup3\n        /* \"#utility.yul\":2962:2969   */\n      dup5\n        /* \"#utility.yul\":2958:2981   */\n      sub\n        /* \"#utility.yul\":2954:2986   */\n      slt\n        /* \"#utility.yul\":2951:3003   */\n      iszero\n      tag_444\n      jumpi\n        /* \"#utility.yul\":2999:3000   */\n      0x00\n        /* \"#utility.yul\":2996:2997   */\n      0x00\n        /* \"#utility.yul\":2989:3001   */\n      revert\n        /* \"#utility.yul\":2951:3003   */\n    tag_444:\n        /* \"#utility.yul\":3022:3051   */\n      tag_409\n        /* \"#utility.yul\":3041:3050   */\n      dup3\n        /* \"#utility.yul\":3022:3051   */\n      tag_412\n      jump\t// in\n        /* \"#utility.yul\":3490:3750   */\n    tag_140:\n        /* \"#utility.yul\":3558:3564   */\n      0x00\n        /* \"#utility.yul\":3566:3572   */\n      0x00\n        /* \"#utility.yul\":3619:3621   */\n      0x40\n        /* \"#utility.yul\":3607:3616   */\n      dup4\n        /* \"#utility.yul\":3598:3605   */\n      dup6\n        /* \"#utility.yul\":3594:3617   */\n      sub\n        /* \"#utility.yul\":3590:3622   */\n      slt\n        /* \"#utility.yul\":3587:3639   */\n      iszero\n      tag_450\n      jumpi\n        /* \"#utility.yul\":3635:3636   */\n      0x00\n        /* \"#utility.yul\":3632:3633   */\n      0x00\n        /* \"#utility.yul\":3625:3637   */\n      revert\n        /* \"#utility.yul\":3587:3639   */\n    tag_450:\n        /* \"#utility.yul\":3658:3687   */\n      tag_451\n        /* \"#utility.yul\":3677:3686   */\n      dup4\n        /* \"#utility.yul\":3658:3687   */\n      tag_412\n      jump\t// in\n    tag_451:\n        /* \"#utility.yul\":3648:3687   */\n      swap2\n      pop\n        /* \"#utility.yul\":3706:3744   */\n      tag_441\n        /* \"#utility.yul\":3740:3742   */\n      0x20\n        /* \"#utility.yul\":3729:3738   */\n      dup5\n        /* \"#utility.yul\":3725:3743   */\n      add\n        /* \"#utility.yul\":3706:3744   */\n      tag_412\n      jump\t// in\n        /* \"#utility.yul\":3755:4031   */\n    tag_145:\n        /* \"#utility.yul\":3813:3819   */\n      0x00\n        /* \"#utility.yul\":3866:3868   */\n      0x20\n        /* \"#utility.yul\":3854:3863   */\n      dup3\n        /* \"#utility.yul\":3845:3852   */\n      dup5\n        /* \"#utility.yul\":3841:3864   */\n      sub\n        /* \"#utility.yul\":3837:3869   */\n      slt\n        /* \"#utility.yul\":3834:3886   */\n      iszero\n      tag_454\n      jumpi\n        /* \"#utility.yul\":3882:3883   */\n      0x00\n        /* \"#utility.yul\":3879:3880   */\n      0x00\n        /* \"#utility.yul\":3872:3884   */\n      revert\n        /* \"#utility.yul\":3834:3886   */\n    tag_454:\n        /* \"#utility.yul\":3921:3930   */\n      dup2\n        /* \"#utility.yul\":3908:3931   */\n      calldataload\n        /* \"#utility.yul\":3971:3981   */\n      0xffffffff\n        /* \"#utility.yul\":3964:3969   */\n      dup2\n        /* \"#utility.yul\":3960:3982   */\n      and\n        /* \"#utility.yul\":3953:3958   */\n      dup2\n        /* \"#utility.yul\":3950:3983   */\n      eq\n        /* \"#utility.yul\":3940:4001   */\n      tag_409\n      jumpi\n        /* \"#utility.yul\":3997:3998   */\n      0x00\n        /* \"#utility.yul\":3994:3995   */\n      0x00\n        /* \"#utility.yul\":3987:3999   */\n      revert\n        /* \"#utility.yul\":4036:4416   */\n    tag_153:\n        /* \"#utility.yul\":4115:4116   */\n      0x01\n        /* \"#utility.yul\":4111:4123   */\n      dup2\n      dup2\n      shr\n      swap1\n        /* \"#utility.yul\":4158:4170   */\n      dup3\n      and\n      dup1\n        /* \"#utility.yul\":4179:4240   */\n      tag_457\n      jumpi\n        /* \"#utility.yul\":4233:4237   */\n      0x7f\n        /* \"#utility.yul\":4225:4231   */\n      dup3\n        /* \"#utility.yul\":4221:4238   */\n      and\n        /* \"#utility.yul\":4211:4238   */\n      swap2\n      pop\n        /* \"#utility.yul\":4179:4240   */\n    tag_457:\n        /* \"#utility.yul\":4286:4288   */\n      0x20\n        /* \"#utility.yul\":4278:4284   */\n      dup3\n        /* \"#utility.yul\":4275:4289   */\n      lt\n        /* \"#utility.yul\":4255:4273   */\n      dup2\n        /* \"#utility.yul\":4252:4290   */\n      sub\n        /* \"#utility.yul\":4249:4410   */\n      tag_458\n      jumpi\n        /* \"#utility.yul\":4332:4342   */\n      0x4e487b71\n        /* \"#utility.yul\":4327:4330   */\n      0xe0\n        /* \"#utility.yul\":4323:4343   */\n      shl\n        /* \"#utility.yul\":4320:4321   */\n      0x00\n        /* \"#utility.yul\":4313:4344   */\n      mstore\n        /* \"#utility.yul\":4367:4371   */\n      0x22\n        /* \"#utility.yul\":4364:4365   */\n      0x04\n        /* \"#utility.yul\":4357:4372   */\n      mstore\n        /* \"#utility.yul\":4395:4399   */\n      0x24\n        /* \"#utility.yul\":4392:4393   */\n      0x00\n        /* \"#utility.yul\":4385:4400   */\n      revert\n        /* \"#utility.yul\":4249:4410   */\n    tag_458:\n      pop\n        /* \"#utility.yul\":4036:4416   */\n      swap2\n      swap1\n      pop\n      jump\t// out\n        /* \"#utility.yul\":4837:4964   */\n    tag_413:\n        /* \"#utility.yul\":4898:4908   */\n      0x4e487b71\n        /* \"#utility.yul\":4893:4896   */\n      0xe0\n        /* \"#utility.yul\":4889:4909   */\n      shl\n        /* \"#utility.yul\":4886:4887   */\n      0x00\n        /* \"#utility.yul\":4879:4910   */\n      mstore\n        /* \"#utility.yul\":4929:4933   */\n      0x11\n        /* \"#utility.yul\":4926:4927   */\n      0x04\n        /* \"#utility.yul\":4919:4934   */\n      mstore\n        /* \"#utility.yul\":4953:4957   */\n      0x24\n        /* \"#utility.yul\":4950:4951   */\n      0x00\n        /* \"#utility.yul\":4943:4958   */\n      revert\n        /* \"#utility.yul\":4969:5094   */\n    tag_204:\n        /* \"#utility.yul\":5034:5043   */\n      dup1\n      dup3\n      add\n        /* \"#utility.yul\":5055:5065   */\n      dup1\n      dup3\n      gt\n        /* \"#utility.yul\":5052:5088   */\n      iszero\n      tag_149\n      jumpi\n        /* \"#utility.yul\":5068:5086   */\n      tag_149\n      tag_413\n      jump\t// in\n        /* \"#utility.yul\":5514:5889   */\n    tag_414:\n        /* \"#utility.yul\":5602:5603   */\n      0x01\n        /* \"#utility.yul\":5620:5625   */\n      dup2\n        /* \"#utility.yul\":5634:5883   */\n    tag_466:\n        /* \"#utility.yul\":5655:5656   */\n      0x01\n        /* \"#utility.yul\":5645:5653   */\n      dup5\n        /* \"#utility.yul\":5642:5657   */\n      gt\n        /* \"#utility.yul\":5634:5883   */\n      iszero\n      tag_468\n      jumpi\n        /* \"#utility.yul\":5705:5709   */\n      dup1\n        /* \"#utility.yul\":5700:5703   */\n      dup6\n        /* \"#utility.yul\":5696:5710   */\n      div\n        /* \"#utility.yul\":5690:5694   */\n      dup2\n        /* \"#utility.yul\":5687:5711   */\n      gt\n        /* \"#utility.yul\":5684:5734   */\n      iszero\n      tag_470\n      jumpi\n        /* \"#utility.yul\":5714:5732   */\n      tag_470\n      tag_413\n      jump\t// in\n    tag_470:\n        /* \"#utility.yul\":5764:5765   */\n      0x01\n        /* \"#utility.yul\":5754:5762   */\n      dup5\n        /* \"#utility.yul\":5750:5766   */\n      and\n        /* \"#utility.yul\":5747:5796   */\n      iszero\n      tag_471\n      jumpi\n        /* \"#utility.yul\":5778:5794   */\n      swap1\n      dup2\n      mul\n      swap1\n        /* \"#utility.yul\":5747:5796   */\n    tag_471:\n        /* \"#utility.yul\":5861:5862   */\n      0x01\n        /* \"#utility.yul\":5857:5873   */\n      swap4\n      swap1\n      swap4\n      shr\n      swap3\n        /* \"#utility.yul\":5817:5832   */\n      dup1\n      mul\n        /* \"#utility.yul\":5634:5883   */\n      jump(tag_466)\n    tag_468:\n        /* \"#utility.yul\":5514:5889   */\n      swap4\n      pop\n      swap4\n      swap2\n      pop\n      pop\n      jump\t// out\n        /* \"#utility.yul\":5894:6796   */\n    tag_415:\n        /* \"#utility.yul\":5943:5948   */\n      0x00\n        /* \"#utility.yul\":5973:5981   */\n      dup3\n        /* \"#utility.yul\":5963:6043   */\n      tag_473\n      jumpi\n      pop\n        /* \"#utility.yul\":6014:6015   */\n      0x01\n        /* \"#utility.yul\":6028:6033   */\n      jump(tag_149)\n        /* \"#utility.yul\":5963:6043   */\n    tag_473:\n        /* \"#utility.yul\":6062:6066   */\n      dup2\n        /* \"#utility.yul\":6052:6128   */\n      tag_474\n      jumpi\n      pop\n        /* \"#utility.yul\":6099:6100   */\n      0x00\n        /* \"#utility.yul\":6113:6118   */\n      jump(tag_149)\n        /* \"#utility.yul\":6052:6128   */\n    tag_474:\n        /* \"#utility.yul\":6144:6148   */\n      dup2\n        /* \"#utility.yul\":6162:6163   */\n      0x01\n        /* \"#utility.yul\":6157:6216   */\n      dup2\n      eq\n      tag_476\n      jumpi\n        /* \"#utility.yul\":6230:6231   */\n      0x02\n        /* \"#utility.yul\":6225:6399   */\n      dup2\n      eq\n      tag_477\n      jumpi\n        /* \"#utility.yul\":6137:6399   */\n      jump(tag_475)\n        /* \"#utility.yul\":6157:6216   */\n    tag_476:\n        /* \"#utility.yul\":6187:6188   */\n      0x01\n        /* \"#utility.yul\":6178:6188   */\n      swap2\n      pop\n        /* \"#utility.yul\":6201:6206   */\n      pop\n      jump(tag_149)\n        /* \"#utility.yul\":6225:6399   */\n    tag_477:\n        /* \"#utility.yul\":6262:6265   */\n      0xff\n        /* \"#utility.yul\":6252:6260   */\n      dup5\n        /* \"#utility.yul\":6249:6266   */\n      gt\n        /* \"#utility.yul\":6246:6289   */\n      iszero\n      tag_479\n      jumpi\n        /* \"#utility.yul\":6269:6287   */\n      tag_479\n      tag_413\n      jump\t// in\n    tag_479:\n      pop\n      pop\n        /* \"#utility.yul\":6325:6326   */\n      0x01\n        /* \"#utility.yul\":6311:6327   */\n      dup3\n      shl\n        /* \"#utility.yul\":6384:6389   */\n      jump(tag_149)\n        /* \"#utility.yul\":6137:6399   */\n    tag_475:\n      pop\n        /* \"#utility.yul\":6483:6485   */\n      0x20\n        /* \"#utility.yul\":6473:6481   */\n      dup4\n        /* \"#utility.yul\":6470:6486   */\n      lt\n        /* \"#utility.yul\":6464:6467   */\n      0x0133\n        /* \"#utility.yul\":6458:6462   */\n      dup4\n        /* \"#utility.yul\":6455:6468   */\n      lt\n        /* \"#utility.yul\":6451:6487   */\n      and\n        /* \"#utility.yul\":6445:6447   */\n      0x4e\n        /* \"#utility.yul\":6435:6443   */\n      dup5\n        /* \"#utility.yul\":6432:6448   */\n      lt\n        /* \"#utility.yul\":6427:6429   */\n      0x0b\n        /* \"#utility.yul\":6421:6425   */\n      dup5\n        /* \"#utility.yul\":6418:6430   */\n      lt\n        /* \"#utility.yul\":6414:6449   */\n      and\n        /* \"#utility.yul\":6411:6488   */\n      or\n        /* \"#utility.yul\":6408:6611   */\n      iszero\n      tag_480\n      jumpi\n      pop\n        /* \"#utility.yul\":6520:6539   */\n      dup2\n      dup2\n      exp\n        /* \"#utility.yul\":6596:6601   */\n      jump(tag_149)\n        /* \"#utility.yul\":6408:6611   */\n    tag_480:\n        /* \"#utility.yul\":6643:6685   */\n      tag_481\n      not(0x00)\n        /* \"#utility.yul\":6668:6676   */\n      dup5\n        /* \"#utility.yul\":6662:6666   */\n      dup5\n        /* \"#utility.yul\":6643:6685   */\n      tag_414\n      jump\t// in\n    tag_481:\n        /* \"#utility.yul\":6721:6727   */\n      dup1\n        /* \"#utility.yul\":6717:6718   */\n      0x00\n        /* \"#utility.yul\":6713:6719   */\n      not\n        /* \"#utility.yul\":6709:6728   */\n      div\n        /* \"#utility.yul\":6700:6707   */\n      dup3\n        /* \"#utility.yul\":6697:6729   */\n      gt\n        /* \"#utility.yul\":6694:6752   */\n      iszero\n      tag_483\n      jumpi\n        /* \"#utility.yul\":6732:6750   */\n      tag_483\n      tag_413\n      jump\t// in\n    tag_483:\n        /* \"#utility.yul\":6770:6790   */\n      mul\n      swap4\n        /* \"#utility.yul\":5894:6796   */\n      swap3\n      pop\n      pop\n      pop\n      jump\t// out\n        /* \"#utility.yul\":6801:6941   */\n    tag_239:\n        /* \"#utility.yul\":6859:6864   */\n      0x00\n        /* \"#utility.yul\":6888:6935   */\n      tag_409\n        /* \"#utility.yul\":6929:6933   */\n      0xff\n        /* \"#utility.yul\":6919:6927   */\n      dup5\n        /* \"#utility.yul\":6915:6934   */\n      and\n        /* \"#utility.yul\":6909:6913   */\n      dup4\n        /* \"#utility.yul\":6888:6935   */\n      tag_415\n      jump\t// in\n        /* \"#utility.yul\":6946:7114   */\n    tag_241:\n        /* \"#utility.yul\":7019:7028   */\n      dup1\n      dup3\n      mul\n        /* \"#utility.yul\":7050:7059   */\n      dup2\n      iszero\n        /* \"#utility.yul\":7067:7082   */\n      dup3\n      dup3\n      div\n        /* \"#utility.yul\":7061:7083   */\n      dup5\n      eq\n        /* \"#utility.yul\":7047:7084   */\n      or\n        /* \"#utility.yul\":7037:7108   */\n      tag_149\n      jumpi\n        /* \"#utility.yul\":7088:7106   */\n      tag_149\n      tag_413\n      jump\t// in\n        /* \"#utility.yul\":9695:10102   */\n    tag_326:\n        /* \"#utility.yul\":9897:9899   */\n      0x20\n        /* \"#utility.yul\":9879:9900   */\n      dup1\n      dup3\n      mstore\n        /* \"#utility.yul\":9936:9938   */\n      0x2b\n        /* \"#utility.yul\":9916:9934   */\n      swap1\n      dup3\n      add\n        /* \"#utility.yul\":9909:9939   */\n      mstore\n        /* \"#utility.yul\":9975:10009   */\n      0x496e697469616c697a61626c653a20636f6e7472616374206973206e6f742069\n        /* \"#utility.yul\":9970:9972   */\n      0x40\n        /* \"#utility.yul\":9955:9973   */\n      dup3\n      add\n        /* \"#utility.yul\":9948:10010   */\n      mstore\n      shl(0xa8, 0x6e697469616c697a696e67)\n        /* \"#utility.yul\":10041:10043   */\n      0x60\n        /* \"#utility.yul\":10026:10044   */\n      dup3\n      add\n        /* \"#utility.yul\":10019:10060   */\n      mstore\n        /* \"#utility.yul\":10092:10095   */\n      0x80\n        /* \"#utility.yul\":10077:10096   */\n      add\n      swap1\n        /* \"#utility.yul\":9695:10102   */\n      jump\t// out\n        /* \"#utility.yul\":10467:10679   */\n    tag_416:\n        /* \"#utility.yul\":10509:10512   */\n      0x00\n        /* \"#utility.yul\":10547:10552   */\n      dup2\n        /* \"#utility.yul\":10541:10553   */\n      mload\n        /* \"#utility.yul\":10591:10597   */\n      dup1\n        /* \"#utility.yul\":10584:10588   */\n      0x20\n        /* \"#utility.yul\":10577:10582   */\n      dup5\n        /* \"#utility.yul\":10573:10589   */\n      add\n        /* \"#utility.yul\":10568:10571   */\n      dup6\n        /* \"#utility.yul\":10562:10598   */\n      mcopy\n        /* \"#utility.yul\":10653:10654   */\n      0x00\n        /* \"#utility.yul\":10617:10633   */\n      swap4\n      add\n        /* \"#utility.yul\":10642:10655   */\n      swap3\n      dup4\n      mstore\n      pop\n        /* \"#utility.yul\":10617:10633   */\n      swap1\n      swap2\n        /* \"#utility.yul\":10467:10679   */\n      swap1\n      pop\n      jump\t// out\n        /* \"#utility.yul\":10684:11279   */\n    tag_360:\n        /* \"#utility.yul\":11095:11120   */\n      0x416363657373436f6e74726f6c3a206163636f756e7420000000000000000000\n        /* \"#utility.yul\":11090:11093   */\n      dup2\n        /* \"#utility.yul\":11083:11121   */\n      mstore\n        /* \"#utility.yul\":11065:11068   */\n      0x00\n        /* \"#utility.yul\":11140:11179   */\n      tag_500\n        /* \"#utility.yul\":11175:11177   */\n      0x17\n        /* \"#utility.yul\":11170:11173   */\n      dup4\n        /* \"#utility.yul\":11166:11178   */\n      add\n        /* \"#utility.yul\":11158:11164   */\n      dup6\n        /* \"#utility.yul\":11140:11179   */\n      tag_416\n      jump\t// in\n    tag_500:\n      shl(0x7d, 0x01034b99036b4b9b9b4b733903937b6329)\n        /* \"#utility.yul\":11195:11197   */\n      dup2\n        /* \"#utility.yul\":11188:11219   */\n      mstore\n        /* \"#utility.yul\":11235:11273   */\n      tag_501\n        /* \"#utility.yul\":11269:11271   */\n      0x11\n        /* \"#utility.yul\":11265:11267   */\n      dup3\n        /* \"#utility.yul\":11261:11272   */\n      add\n        /* \"#utility.yul\":11253:11259   */\n      dup6\n        /* \"#utility.yul\":11235:11273   */\n      tag_416\n      jump\t// in\n    tag_501:\n        /* \"#utility.yul\":11228:11273   */\n      swap6\n        /* \"#utility.yul\":10684:11279   */\n      swap5\n      pop\n      pop\n      pop\n      pop\n      pop\n      jump\t// out\n        /* \"#utility.yul\":11284:11411   */\n    tag_391:\n        /* \"#utility.yul\":11345:11355   */\n      0x4e487b71\n        /* \"#utility.yul\":11340:11343   */\n      0xe0\n        /* \"#utility.yul\":11336:11356   */\n      shl\n        /* \"#utility.yul\":11333:11334   */\n      0x00\n        /* \"#utility.yul\":11326:11357   */\n      mstore\n        /* \"#utility.yul\":11376:11380   */\n      0x41\n        /* \"#utility.yul\":11373:11374   */\n      0x04\n        /* \"#utility.yul\":11366:11381   */\n      mstore\n        /* \"#utility.yul\":11400:11404   */\n      0x24\n        /* \"#utility.yul\":11397:11398   */\n      0x00\n        /* \"#utility.yul\":11390:11405   */\n      revert\n        /* \"#utility.yul\":11542:12060   */\n    tag_418:\n        /* \"#utility.yul\":11644:11646   */\n      0x1f\n        /* \"#utility.yul\":11639:11642   */\n      dup3\n        /* \"#utility.yul\":11636:11647   */\n      gt\n        /* \"#utility.yul\":11633:12054   */\n      iszero\n      tag_185\n      jumpi\n        /* \"#utility.yul\":11680:11685   */\n      dup1\n        /* \"#utility.yul\":11677:11678   */\n      0x00\n        /* \"#utility.yul\":11670:11686   */\n      mstore\n        /* \"#utility.yul\":11724:11728   */\n      0x20\n        /* \"#utility.yul\":11721:11722   */\n      0x00\n        /* \"#utility.yul\":11711:11729   */\n      keccak256\n        /* \"#utility.yul\":11794:11796   */\n      0x1f\n        /* \"#utility.yul\":11782:11792   */\n      dup5\n        /* \"#utility.yul\":11778:11797   */\n      add\n        /* \"#utility.yul\":11775:11776   */\n      0x05\n        /* \"#utility.yul\":11771:11798   */\n      shr\n        /* \"#utility.yul\":11765:11769   */\n      dup2\n        /* \"#utility.yul\":11761:11799   */\n      add\n        /* \"#utility.yul\":11830:11834   */\n      0x20\n        /* \"#utility.yul\":11818:11828   */\n      dup6\n        /* \"#utility.yul\":11815:11835   */\n      lt\n        /* \"#utility.yul\":11812:11859   */\n      iszero\n      tag_506\n      jumpi\n      pop\n        /* \"#utility.yul\":11853:11857   */\n      dup1\n        /* \"#utility.yul\":11812:11859   */\n    tag_506:\n        /* \"#utility.yul\":11908:11910   */\n      0x1f\n        /* \"#utility.yul\":11903:11906   */\n      dup5\n        /* \"#utility.yul\":11899:11911   */\n      add\n        /* \"#utility.yul\":11896:11897   */\n      0x05\n        /* \"#utility.yul\":11892:11912   */\n      shr\n        /* \"#utility.yul\":11886:11890   */\n      dup3\n        /* \"#utility.yul\":11882:11913   */\n      add\n        /* \"#utility.yul\":11872:11913   */\n      swap2\n      pop\n        /* \"#utility.yul\":11963:12044   */\n    tag_507:\n        /* \"#utility.yul\":11981:11983   */\n      dup2\n        /* \"#utility.yul\":11974:11979   */\n      dup2\n        /* \"#utility.yul\":11971:11984   */\n      lt\n        /* \"#utility.yul\":11963:12044   */\n      iszero\n      tag_509\n      jumpi\n        /* \"#utility.yul\":12040:12041   */\n      0x00\n        /* \"#utility.yul\":12026:12042   */\n      dup2\n      sstore\n        /* \"#utility.yul\":12007:12008   */\n      0x01\n        /* \"#utility.yul\":11996:12009   */\n      add\n        /* \"#utility.yul\":11963:12044   */\n      jump(tag_507)\n    tag_509:\n        /* \"#utility.yul\":11967:11970   */\n      pop\n      pop\n        /* \"#utility.yul\":11542:12060   */\n      pop\n      pop\n      pop\n      jump\t// out\n        /* \"#utility.yul\":12236:13535   */\n    tag_369:\n        /* \"#utility.yul\":12362:12365   */\n      dup2\n        /* \"#utility.yul\":12356:12366   */\n      mload\n        /* \"#utility.yul\":12389:12407   */\n      0xffffffffffffffff\n        /* \"#utility.yul\":12381:12387   */\n      dup2\n        /* \"#utility.yul\":12378:12408   */\n      gt\n        /* \"#utility.yul\":12375:12431   */\n      iszero\n      tag_513\n      jumpi\n        /* \"#utility.yul\":12411:12429   */\n      tag_513\n      tag_391\n      jump\t// in\n    tag_513:\n        /* \"#utility.yul\":12440:12537   */\n      tag_514\n        /* \"#utility.yul\":12530:12536   */\n      dup2\n        /* \"#utility.yul\":12490:12528   */\n      tag_515\n        /* \"#utility.yul\":12522:12526   */\n      dup5\n        /* \"#utility.yul\":12516:12527   */\n      sload\n        /* \"#utility.yul\":12490:12528   */\n      tag_153\n      jump\t// in\n    tag_515:\n        /* \"#utility.yul\":12484:12488   */\n      dup5\n        /* \"#utility.yul\":12440:12537   */\n      tag_418\n      jump\t// in\n    tag_514:\n        /* \"#utility.yul\":12586:12590   */\n      0x20\n        /* \"#utility.yul\":12617:12619   */\n      0x1f\n        /* \"#utility.yul\":12606:12620   */\n      dup3\n      gt\n        /* \"#utility.yul\":12634:12635   */\n      0x01\n        /* \"#utility.yul\":12629:13278   */\n      dup2\n      eq\n      tag_517\n      jumpi\n        /* \"#utility.yul\":13322:13323   */\n      0x00\n        /* \"#utility.yul\":13339:13345   */\n      dup4\n        /* \"#utility.yul\":13336:13425   */\n      iszero\n      tag_518\n      jumpi\n      pop\n        /* \"#utility.yul\":13391:13410   */\n      dup5\n      dup3\n      add\n        /* \"#utility.yul\":13385:13411   */\n      mload\n        /* \"#utility.yul\":13336:13425   */\n    tag_518:\n      not(0x00)\n        /* \"#utility.yul\":12193:12194   */\n      0x03\n        /* \"#utility.yul\":12189:12200   */\n      dup6\n      swap1\n      shl\n        /* \"#utility.yul\":12185:12209   */\n      shr\n        /* \"#utility.yul\":12181:12210   */\n      not\n        /* \"#utility.yul\":12171:12211   */\n      and\n        /* \"#utility.yul\":12217:12218   */\n      0x01\n        /* \"#utility.yul\":12213:12224   */\n      dup5\n      swap1\n      shl\n        /* \"#utility.yul\":12168:12225   */\n      or\n        /* \"#utility.yul\":13438:13519   */\n      dup5\n      sstore\n        /* \"#utility.yul\":12599:13529   */\n      jump(tag_509)\n        /* \"#utility.yul\":12629:13278   */\n    tag_517:\n        /* \"#utility.yul\":11489:11490   */\n      0x00\n        /* \"#utility.yul\":11482:11496   */\n      dup5\n      dup2\n      mstore\n        /* \"#utility.yul\":11526:11530   */\n      0x20\n        /* \"#utility.yul\":11513:11531   */\n      dup2\n      keccak256\n      not(0x1f)\n        /* \"#utility.yul\":12665:12685   */\n      dup6\n      and\n      swap2\n        /* \"#utility.yul\":12783:13005   */\n    tag_521:\n        /* \"#utility.yul\":12797:12804   */\n      dup3\n        /* \"#utility.yul\":12794:12795   */\n      dup2\n        /* \"#utility.yul\":12791:12805   */\n      lt\n        /* \"#utility.yul\":12783:13005   */\n      iszero\n      tag_523\n      jumpi\n        /* \"#utility.yul\":12879:12898   */\n      dup8\n      dup6\n      add\n        /* \"#utility.yul\":12873:12899   */\n      mload\n        /* \"#utility.yul\":12858:12900   */\n      dup3\n      sstore\n        /* \"#utility.yul\":12986:12990   */\n      0x20\n        /* \"#utility.yul\":12971:12991   */\n      swap5\n      dup6\n      add\n      swap5\n        /* \"#utility.yul\":12939:12940   */\n      0x01\n        /* \"#utility.yul\":12927:12941   */\n      swap1\n      swap3\n      add\n      swap2\n        /* \"#utility.yul\":12813:12825   */\n      add\n        /* \"#utility.yul\":12783:13005   */\n      jump(tag_521)\n    tag_523:\n        /* \"#utility.yul\":12787:12790   */\n      pop\n        /* \"#utility.yul\":13033:13039   */\n      dup5\n        /* \"#utility.yul\":13024:13031   */\n      dup3\n        /* \"#utility.yul\":13021:13040   */\n      lt\n        /* \"#utility.yul\":13018:13219   */\n      iszero\n      tag_524\n      jumpi\n        /* \"#utility.yul\":13094:13113   */\n      dup7\n      dup5\n      add\n        /* \"#utility.yul\":13088:13114   */\n      mload\n      not(0x00)\n        /* \"#utility.yul\":13177:13178   */\n      0x03\n        /* \"#utility.yul\":13173:13187   */\n      dup8\n      swap1\n      shl\n        /* \"#utility.yul\":13189:13192   */\n      0xf8\n        /* \"#utility.yul\":13169:13193   */\n      and\n        /* \"#utility.yul\":13165:13202   */\n      shr\n        /* \"#utility.yul\":13161:13203   */\n      not\n        /* \"#utility.yul\":13146:13204   */\n      and\n        /* \"#utility.yul\":13131:13205   */\n      dup2\n      sstore\n        /* \"#utility.yul\":13018:13219   */\n    tag_524:\n      pop\n      pop\n      pop\n      pop\n        /* \"#utility.yul\":13265:13266   */\n      0x01\n        /* \"#utility.yul\":13249:13263   */\n      swap1\n      dup2\n      shl\n        /* \"#utility.yul\":13245:13267   */\n      add\n        /* \"#utility.yul\":13232:13268   */\n      swap1\n      sstore\n      pop\n        /* \"#utility.yul\":12236:13535   */\n      jump\t// out\n        /* \"#utility.yul\":14757:14884   */\n    tag_395:\n        /* \"#utility.yul\":14818:14828   */\n      0x4e487b71\n        /* \"#utility.yul\":14813:14816   */\n      0xe0\n        /* \"#utility.yul\":14809:14829   */\n      shl\n        /* \"#utility.yul\":14806:14807   */\n      0x00\n        /* \"#utility.yul\":14799:14830   */\n      mstore\n        /* \"#utility.yul\":14849:14853   */\n      0x32\n        /* \"#utility.yul\":14846:14847   */\n      0x04\n        /* \"#utility.yul\":14839:14854   */\n      mstore\n        /* \"#utility.yul\":14873:14877   */\n      0x24\n        /* \"#utility.yul\":14870:14871   */\n      0x00\n        /* \"#utility.yul\":14863:14878   */\n      revert\n        /* \"#utility.yul\":14889:15025   */\n    tag_408:\n        /* \"#utility.yul\":14928:14931   */\n      0x00\n        /* \"#utility.yul\":14956:14961   */\n      dup2\n        /* \"#utility.yul\":14946:14985   */\n      tag_531\n      jumpi\n        /* \"#utility.yul\":14965:14983   */\n      tag_531\n      tag_413\n      jump\t// in\n    tag_531:\n      pop\n      not(0x00)\n        /* \"#utility.yul\":15001:15019   */\n      add\n      swap1\n        /* \"#utility.yul\":14889:15025   */\n      jump\t// out\n\n    auxdata: 0xa2646970667358221220d425106bd83823a2750a9a3f439963bd87ed4ec854cbbd904f169966229fa7f664736f6c634300081e0033\n}\n",
				"bytecode": {
					"linkReferences": {},
					"object": "6080604052348015600e575f5ffd5b5060156019565b60d3565b5f54610100900460ff161560835760405162461bcd60e51b815260206004820152602760248201527f496e697469616c697a61626c653a20636f6e747261637420697320696e697469604482015266616c697a696e6760c81b606482015260840160405180910390fd5b5f5460ff9081161460d1575f805460ff191660ff9081179091556040519081527f7f26b83ff96e1f2b6a682f133852f6798a09c465da95921460cefb38474024989060200160405180910390a15b565b6119c7806100e05f395ff3fe608060405234801561000f575f5ffd5b50600436106101bb575f3560e01c806370a08231116100f3578063a64a92a811610093578063d547741f1161006e578063d547741f146103db578063dbd192d4146103ee578063dd62ed3e14610415578063e90cdd1c14610428575f5ffd5b8063a64a92a814610378578063a9059cbb146103a3578063bd39a2a8146103b6575f5ffd5b806391d14854116100ce57806391d148541461034357806395d89b4114610356578063a217fddf1461035e578063a457c2d714610365575f5ffd5b806370a082311461030057806379cc6790146103285780638129fc1c1461033b575f5ffd5b8063313ce5671161015e578063395093511161013957806339509351146102a057806342966c68146102b35780634e695cca146102c65780636e4af83e146102ed575f5ffd5b8063313ce5671461026b57806336568abe1461027a57806338f5a5e41461028d575f5ffd5b806318160ddd1161019957806318160ddd1461020f57806323b872dd14610221578063248a9ca3146102345780632f2ff15d14610256575f5ffd5b806301ffc9a7146101bf57806306fdde03146101e7578063095ea7b3146101fc575b5f5ffd5b6101d26101cd3660046114a9565b61043b565b60405190151581526020015b60405180910390f35b6101ef610471565b6040516101de91906114d0565b6101d261020a366004611520565b610501565b6035545b6040519081526020016101de565b6101d261022f366004611548565b610518565b610213610242366004611582565b5f90815260c9602052604090206001015490565b610269610264366004611599565b6105dc565b005b604051601281526020016101de565b610269610288366004611599565b610605565b61026961029b3660046115c3565b610688565b6101d26102ae366004611520565b610737565b6102696102c1366004611582565b610758565b6102137f2f26ac9ab74d35285b05b7b0d4a0f2ffdef33823bc15863d6299dbdd56e7b6b081565b6102696102fb3660046115c3565b610765565b61021361030e3660046115c3565b6001600160a01b03165f9081526033602052604090205490565b610269610336366004611520565b610810565b610269610825565b6101d2610351366004611599565b61099e565b6101ef6109c8565b6102135f81565b6101d2610373366004611520565b6109d7565b6101d26103863660046115c3565b6001600160a01b03165f90815260fc602052604090205460ff1690565b6101d26103b1366004611520565b610a5c565b60fb546103c69063ffffffff1681565b60405163ffffffff90911681526020016101de565b6102696103e9366004611599565b610a69565b6102137f5be4d4bb045cde5abb3c363f9fc314c0f4f94dffcc1c7ba61871bdb28228c55f81565b6102136104233660046115dc565b610a8d565b610269610436366004611604565b610ab7565b5f6001600160e01b03198216637965db0b60e01b148061046b57506301ffc9a760e01b6001600160e01b03198316145b92915050565b60606036805461048090611627565b80601f01602080910402602001604051908101604052809291908181526020018280546104ac90611627565b80156104f75780601f106104ce576101008083540402835291602001916104f7565b820191905f5260205f20905b8154815290600101906020018083116104da57829003601f168201915b5050505050905090565b5f3361050e818585610b54565b5060019392505050565b60fb545f9084908490839063ffffffff16158061053c575060fb5463ffffffff1642105b905080156105c6575f61054f818561099e565b8061055f575061055f5f8461099e565b8061056f575061056f5f3361099e565b9050801580156105a657506105a47f2f26ac9ab74d35285b05b7b0d4a0f2ffdef33823bc15863d6299dbdd56e7b6b08461099e565b155b156105c45760405163afae8e9760e01b815260040160405180910390fd5b505b6105d1878787610c77565b979650505050505050565b5f82815260c960205260409020600101546105f681610c8f565b6106008383610c99565b505050565b6001600160a01b038116331461067a5760405162461bcd60e51b815260206004820152602f60248201527f416363657373436f6e74726f6c3a2063616e206f6e6c792072656e6f756e636560448201526e103937b632b9903337b91039b2b63360891b60648201526084015b60405180910390fd5b6106848282610d1e565b5050565b7f5be4d4bb045cde5abb3c363f9fc314c0f4f94dffcc1c7ba61871bdb28228c55f6106b281610c8f565b6001600160a01b0382165f90815260fc602052604090205460ff16156106eb57604051631482985760e31b815260040160405180910390fd5b6001600160a01b0382165f81815260fc6020526040808220805460ff19166001179055517f4f03d75a12f5f2153536f14e57d9477eff6be012215a22e894dbc840db1c8f7e9190a25050565b5f3361050e8185856107498383610a8d565b6107539190611673565b610b54565b6107623382610d84565b50565b7f5be4d4bb045cde5abb3c363f9fc314c0f4f94dffcc1c7ba61871bdb28228c55f61078f81610c8f565b6001600160a01b0382165f90815260fc602052604090205460ff166107c7576040516317c33b6560e01b815260040160405180910390fd5b6001600160a01b0382165f81815260fc6020526040808220805460ff19169055517f43a926d6828be5aecd76c987f92b63201c077e5ebf44ea16eecd0f2342bf53199190a25050565b61081b823383610eb6565b6106848282610d84565b5f54610100900460ff161580801561084357505f54600160ff909116105b8061085c5750303b15801561085c57505f5460ff166001145b6108bf5760405162461bcd60e51b815260206004820152602e60248201527f496e697469616c697a61626c653a20636f6e747261637420697320616c72656160448201526d191e481a5b9a5d1a585b1a5e995960921b6064820152608401610671565b5f805460ff1916600117905580156108e0575f805461ff0019166101001790555b61092460405180604001604052806006815260200165416c7661726160d01b81525060405180604001604052806004815260200163414c564160e01b815250610f2e565b61092c610f5e565b610934610f86565b610957336109446012600a611769565b61095290630bebc200611777565b610fb6565b8015610762575f805461ff0019169055604051600181527f7f26b83ff96e1f2b6a682f133852f6798a09c465da95921460cefb38474024989060200160405180910390a150565b5f91825260c9602090815260408084206001600160a01b0393909316845291905290205460ff1690565b60606037805461048090611627565b5f33816109e48286610a8d565b905083811015610a445760405162461bcd60e51b815260206004820152602560248201527f45524332303a2064656372656173656420616c6c6f77616e63652062656c6f77604482015264207a65726f60d81b6064820152608401610671565b610a518286868403610b54565b506001949350505050565b5f3361050e818585611075565b5f82815260c96020526040902060010154610a8381610c8f565b6106008383610d1e565b6001600160a01b039182165f90815260346020908152604080832093909416825291909152205490565b5f610ac181610c8f565b60fb5463ffffffff1615801590610ae0575060fb5463ffffffff164210155b15610afe57604051636f555ee160e11b815260040160405180910390fd5b60405163ffffffff831681527f0e210431ce7e96eef28f9095d645802317660c1411f89b4d642456f027e7c8d69060200160405180910390a15060fb805463ffffffff191663ffffffff92909216919091179055565b6001600160a01b038316610bb65760405162461bcd60e51b8152602060048201526024808201527f45524332303a20617070726f76652066726f6d20746865207a65726f206164646044820152637265737360e01b6064820152608401610671565b6001600160a01b038216610c175760405162461bcd60e51b815260206004820152602260248201527f45524332303a20617070726f766520746f20746865207a65726f206164647265604482015261737360f01b6064820152608401610671565b6001600160a01b038381165f8181526034602090815260408083209487168084529482529182902085905590518481527f8c5be1e5ebec7d5bd14f71427d1e84f3dd0314c0f7b2291e5b200ac8c7c3b925910160405180910390a3505050565b5f33610c84858285610eb6565b610a51858585611075565b61076281336110b9565b610ca3828261099e565b610684575f82815260c9602090815260408083206001600160a01b03851684529091529020805460ff19166001179055610cda3390565b6001600160a01b0316816001600160a01b0316837f2f8788117e7eff1d82e926ec794901d17c78024a50270940304540a733656f0d60405160405180910390a45050565b610d28828261099e565b15610684575f82815260c9602090815260408083206001600160a01b0385168085529252808320805460ff1916905551339285917ff6391f5c32d9c69d2a47ea670b442974b53935d1edc7fd64eb21e047a839171b9190a45050565b6001600160a01b038216610de45760405162461bcd60e51b815260206004820152602160248201527f45524332303a206275726e2066726f6d20746865207a65726f206164647265736044820152607360f81b6064820152608401610671565b6001600160a01b0382165f9081526033602052604090205481811015610e575760405162461bcd60e51b815260206004820152602260248201527f45524332303a206275726e20616d6f756e7420657863656564732062616c616e604482015261636560f01b6064820152608401610671565b6001600160a01b0383165f8181526033602090815260408083208686039055603580548790039055518581529192917fddf252ad1be2c89b69c2b068fc378daa952ba7f163c4a11628f55a4df523b3ef910160405180910390a3505050565b5f610ec18484610a8d565b90505f198114610f285781811015610f1b5760405162461bcd60e51b815260206004820152601d60248201527f45524332303a20696e73756666696369656e7420616c6c6f77616e63650000006044820152606401610671565b610f288484848403610b54565b50505050565b5f54610100900460ff16610f545760405162461bcd60e51b81526004016106719061178e565b6106848282611112565b5f54610100900460ff16610f845760405162461bcd60e51b81526004016106719061178e565b565b5f54610100900460ff16610fac5760405162461bcd60e51b81526004016106719061178e565b610f845f33610c99565b6001600160a01b03821661100c5760405162461bcd60e51b815260206004820152601f60248201527f45524332303a206d696e7420746f20746865207a65726f2061646472657373006044820152606401610671565b8060355f82825461101d9190611673565b90915550506001600160a01b0382165f818152603360209081526040808320805486019055518481527fddf252ad1be2c89b69c2b068fc378daa952ba7f163c4a11628f55a4df523b3ef910160405180910390a35050565b6001600160a01b0383165f90815260fc602052604090205460ff16156110ae57604051633991fca960e21b815260040160405180910390fd5b610600838383611151565b6110c3828261099e565b610684576110d0816112fa565b6110db83602061130c565b6040516020016110ec9291906117f0565b60408051601f198184030181529082905262461bcd60e51b8252610671916004016114d0565b5f54610100900460ff166111385760405162461bcd60e51b81526004016106719061178e565b603661114483826118ad565b50603761060082826118ad565b6001600160a01b0383166111b55760405162461bcd60e51b815260206004820152602560248201527f45524332303a207472616e736665722066726f6d20746865207a65726f206164604482015264647265737360d81b6064820152608401610671565b6001600160a01b0382166112175760405162461bcd60e51b815260206004820152602360248201527f45524332303a207472616e7366657220746f20746865207a65726f206164647260448201526265737360e81b6064820152608401610671565b6001600160a01b0383165f908152603360205260409020548181101561128e5760405162461bcd60e51b815260206004820152602660248201527f45524332303a207472616e7366657220616d6f756e7420657863656564732062604482015265616c616e636560d01b6064820152608401610671565b6001600160a01b038085165f8181526033602052604080822086860390559286168082529083902080548601905591517fddf252ad1be2c89b69c2b068fc378daa952ba7f163c4a11628f55a4df523b3ef906112ed9086815260200190565b60405180910390a3610f28565b606061046b6001600160a01b03831660145b60605f61131a836002611777565b611325906002611673565b67ffffffffffffffff81111561133d5761133d61184e565b6040519080825280601f01601f191660200182016040528015611367576020820181803683370190505b509050600360fc1b815f8151811061138157611381611968565b60200101906001600160f81b03191690815f1a905350600f60fb1b816001815181106113af576113af611968565b60200101906001600160f81b03191690815f1a9053505f6113d1846002611777565b6113dc906001611673565b90505b6001811115611453576f181899199a1a9b1b9c1cb0b131b232b360811b85600f166010811061141057611410611968565b1a60f81b82828151811061142657611426611968565b60200101906001600160f81b03191690815f1a90535060049490941c9361144c8161197c565b90506113df565b5083156114a25760405162461bcd60e51b815260206004820181905260248201527f537472696e67733a20686578206c656e67746820696e73756666696369656e746044820152606401610671565b9392505050565b5f602082840312156114b9575f5ffd5b81356001600160e01b0319811681146114a2575f5ffd5b602081525f82518060208401528060208501604085015e5f604082850101526040601f19601f83011684010191505092915050565b80356001600160a01b038116811461151b575f5ffd5b919050565b5f5f60408385031215611531575f5ffd5b61153a83611505565b946020939093013593505050565b5f5f5f6060848603121561155a575f5ffd5b61156384611505565b925061157160208501611505565b929592945050506040919091013590565b5f60208284031215611592575f5ffd5b5035919050565b5f5f604083850312156115aa575f5ffd5b823591506115ba60208401611505565b90509250929050565b5f602082840312156115d3575f5ffd5b6114a282611505565b5f5f604083850312156115ed575f5ffd5b6115f683611505565b91506115ba60208401611505565b5f60208284031215611614575f5ffd5b813563ffffffff811681146114a2575f5ffd5b600181811c9082168061163b57607f821691505b60208210810361165957634e487b7160e01b5f52602260045260245ffd5b50919050565b634e487b7160e01b5f52601160045260245ffd5b8082018082111561046b5761046b61165f565b6001815b60018411156116c1578085048111156116a5576116a561165f565b60018416156116b357908102905b60019390931c92800261168a565b935093915050565b5f826116d75750600161046b565b816116e357505f61046b565b81600181146116f957600281146117035761171f565b600191505061046b565b60ff8411156117145761171461165f565b50506001821b61046b565b5060208310610133831016604e8410600b8410161715611742575081810a61046b565b61174e5f198484611686565b805f19048211156117615761176161165f565b029392505050565b5f6114a260ff8416836116c9565b808202811582820484141761046b5761046b61165f565b6020808252602b908201527f496e697469616c697a61626c653a20636f6e7472616374206973206e6f74206960408201526a6e697469616c697a696e6760a81b606082015260800190565b5f81518060208401855e5f93019283525090919050565b7f416363657373436f6e74726f6c3a206163636f756e742000000000000000000081525f61182160178301856117d9565b7001034b99036b4b9b9b4b733903937b6329607d1b815261184560118201856117d9565b95945050505050565b634e487b7160e01b5f52604160045260245ffd5b601f82111561060057805f5260205f20601f840160051c810160208510156118875750805b601f840160051c820191505b818110156118a6575f8155600101611893565b5050505050565b815167ffffffffffffffff8111156118c7576118c761184e565b6118db816118d58454611627565b84611862565b6020601f82116001811461190d575f83156118f65750848201515b5f19600385901b1c1916600184901b1784556118a6565b5f84815260208120601f198516915b8281101561193c578785015182556020948501946001909201910161191c565b508482101561195957868401515f19600387901b60f8161c191681555b50505050600190811b01905550565b634e487b7160e01b5f52603260045260245ffd5b5f8161198a5761198a61165f565b505f19019056fea2646970667358221220d425106bd83823a2750a9a3f439963bd87ed4ec854cbbd904f169966229fa7f664736f6c634300081e0033",
					"opcodes": "PUSH1 0x80 PUSH1 0x40 MSTORE CALLVALUE DUP1 ISZERO PUSH1 0xE JUMPI PUSH0 PUSH0 REVERT JUMPDEST POP PUSH1 0x15 PUSH1 0x19 JUMP JUMPDEST PUSH1 0xD3 JUMP JUMPDEST PUSH0 SLOAD PUSH2 0x100 SWAP1 DIV PUSH1 0xFF AND ISZERO PUSH1 0x83 JUMPI PUSH1 0x40 MLOAD PUSH3 0x461BCD PUSH1 0xE5 SHL DUP2 MSTORE PUSH1 0x20 PUSH1 0x4 DUP3 ADD MSTORE PUSH1 0x27 PUSH1 0x24 DUP3 ADD MSTORE PUSH32 0x496E697469616C697A61626C653A20636F6E747261637420697320696E697469 PUSH1 0x44 DUP3 ADD MSTORE PUSH7 0x616C697A696E67 PUSH1 0xC8 SHL PUSH1 0x64 DUP3 ADD MSTORE PUSH1 0x84 ADD PUSH1 0x40 MLOAD DUP1 SWAP2 SUB SWAP1 REVERT JUMPDEST PUSH0 SLOAD PUSH1 0xFF SWAP1 DUP2 AND EQ PUSH1 0xD1 JUMPI PUSH0 DUP1 SLOAD PUSH1 0xFF NOT AND PUSH1 0xFF SWAP1 DUP2 OR SWAP1 SWAP2 SSTORE PUSH1 0x40 MLOAD SWAP1 DUP2 MSTORE PUSH32 0x7F26B83FF96E1F2B6A682F133852F6798A09C465DA95921460CEFB3847402498 SWAP1 PUSH1 0x20 ADD PUSH1 0x40 MLOAD DUP1 SWAP2 SUB SWAP1 LOG1 JUMPDEST JUMP JUMPDEST PUSH2 0x19C7 DUP1 PUSH2 0xE0 PUSH0 CODECOPY PUSH0 RETURN INVALID PUSH1 0x80 PUSH1 0x40 MSTORE CALLVALUE DUP1 ISZERO PUSH2 0xF JUMPI PUSH0 PUSH0 REVERT JUMPDEST POP PUSH1 0x4 CALLDATASIZE LT PUSH2 0x1BB JUMPI PUSH0 CALLDATALOAD PUSH1 0xE0 SHR DUP1 PUSH4 0x70A08231 GT PUSH2 0xF3 JUMPI DUP1 PUSH4 0xA64A92A8 GT PUSH2 0x93 JUMPI DUP1 PUSH4 0xD547741F GT PUSH2 0x6E JUMPI DUP1 PUSH4 0xD547741F EQ PUSH2 0x3DB JUMPI DUP1 PUSH4 0xDBD192D4 EQ PUSH2 0x3EE JUMPI DUP1 PUSH4 0xDD62ED3E EQ PUSH2 0x415 JUMPI DUP1 PUSH4 0xE90CDD1C EQ PUSH2 0x428 JUMPI PUSH0 PUSH0 REVERT JUMPDEST DUP1 PUSH4 0xA64A92A8 EQ PUSH2 0x378 JUMPI DUP1 PUSH4 0xA9059CBB EQ PUSH2 0x3A3 JUMPI DUP1 PUSH4 0xBD39A2A8 EQ PUSH2 0x3B6 JUMPI PUSH0 PUSH0 REVERT JUMPDEST DUP1 PUSH4 0x91D14854 GT PUSH2 0xCE JUMPI DUP1 PUSH4 0x91D14854 EQ PUSH2 0x343 JUMPI DUP1 PUSH4 0x95D89B41 EQ PUSH2 0x356 JUMPI DUP1 PUSH4 0xA217FDDF EQ PUSH2 0x35E JUMPI DUP1 PUSH4 0xA457C2D7 EQ PUSH2 0x365 JUMPI PUSH0 PUSH0 REVERT JUMPDEST DUP1 PUSH4 0x70A08231 EQ PUSH2 0x300 JUMPI DUP1 PUSH4 0x79CC6790 EQ PUSH2 0x328 JUMPI DUP1 PUSH4 0x8129FC1C EQ PUSH2 0x33B JUMPI PUSH0 PUSH0 REVERT JUMPDEST DUP1 PUSH4 0x313CE567 GT PUSH2 0x15E JUMPI DUP1 PUSH4 0x39509351 GT PUSH2 0x139 JUMPI DUP1 PUSH4 0x39509351 EQ PUSH2 0x2A0 JUMPI DUP1 PUSH4 0x42966C68 EQ PUSH2 0x2B3 JUMPI DUP1 PUSH4 0x4E695CCA EQ PUSH2 0x2C6 JUMPI DUP1 PUSH4 0x6E4AF83E EQ PUSH2 0x2ED JUMPI PUSH0 PUSH0 REVERT JUMPDEST DUP1 PUSH4 0x313CE567 EQ PUSH2 0x26B JUMPI DUP1 PUSH4 0x36568ABE EQ PUSH2 0x27A JUMPI DUP1 PUSH4 0x38F5A5E4 EQ PUSH2 0x28D JUMPI PUSH0 PUSH0 REVERT JUMPDEST DUP1 PUSH4 0x18160DDD GT PUSH2 0x199 JUMPI DUP1 PUSH4 0x18160DDD EQ PUSH2 0x20F JUMPI DUP1 PUSH4 0x23B872DD EQ PUSH2 0x221 JUMPI DUP1 PUSH4 0x248A9CA3 EQ PUSH2 0x234 JUMPI DUP1 PUSH4 0x2F2FF15D EQ PUSH2 0x256 JUMPI PUSH0 PUSH0 REVERT JUMPDEST DUP1 PUSH4 0x1FFC9A7 EQ PUSH2 0x1BF JUMPI DUP1 PUSH4 0x6FDDE03 EQ PUSH2 0x1E7 JUMPI DUP1 PUSH4 0x95EA7B3 EQ PUSH2 0x1FC JUMPI JUMPDEST PUSH0 PUSH0 REVERT JUMPDEST PUSH2 0x1D2 PUSH2 0x1CD CALLDATASIZE PUSH1 0x4 PUSH2 0x14A9 JUMP JUMPDEST PUSH2 0x43B JUMP JUMPDEST PUSH1 0x40 MLOAD SWAP1 ISZERO ISZERO DUP2 MSTORE PUSH1 0x20 ADD JUMPDEST PUSH1 0x40 MLOAD DUP1 SWAP2 SUB SWAP1 RETURN JUMPDEST PUSH2 0x1EF PUSH2 0x471 JUMP JUMPDEST PUSH1 0x40 MLOAD PUSH2 0x1DE SWAP2 SWAP1 PUSH2 0x14D0 JUMP JUMPDEST PUSH2 0x1D2 PUSH2 0x20A CALLDATASIZE PUSH1 0x4 PUSH2 0x1520 JUMP JUMPDEST PUSH2 0x501 JUMP JUMPDEST PUSH1 0x35 SLOAD JUMPDEST PUSH1 0x40 MLOAD SWAP1 DUP2 MSTORE PUSH1 0x20 ADD PUSH2 0x1DE JUMP JUMPDEST PUSH2 0x1D2 PUSH2 0x22F CALLDATASIZE PUSH1 0x4 PUSH2 0x1548 JUMP JUMPDEST PUSH2 0x518 JUMP JUMPDEST PUSH2 0x213 PUSH2 0x242 CALLDATASIZE PUSH1 0x4 PUSH2 0x1582 JUMP JUMPDEST PUSH0 SWAP1 DUP2 MSTORE PUSH1 0xC9 PUSH1 0x20 MSTORE PUSH1 0x40 SWAP1 KECCAK256 PUSH1 0x1 ADD SLOAD SWAP1 JUMP JUMPDEST PUSH2 0x269 PUSH2 0x264 CALLDATASIZE PUSH1 0x4 PUSH2 0x1599 JUMP JUMPDEST PUSH2 0x5DC JUMP JUMPDEST STOP JUMPDEST PUSH1 0x40 MLOAD PUSH1 0x12 DUP2 MSTORE PUSH1 0x20 ADD PUSH2 0x1DE JUMP JUMPDEST PUSH2 0x269 PUSH2 0x288 CALLDATASIZE PUSH1 0x4 PUSH2 0x1599 JUMP JUMPDEST PUSH2 0x605 JUMP JUMPDEST PUSH2 0x269 PUSH2 0x29B CALLDATASIZE PUSH1 0x4 PUSH2 0x15C3 JUMP JUMPDEST PUSH2 0x688 JUMP JUMPDEST PUSH2 0x1D2 PUSH2 0x2AE CALLDATASIZE PUSH1 0x4 PUSH2 0x1520 JUMP JUMPDEST PUSH2 0x737 JUMP JUMPDEST PUSH2 0x269 PUSH2 0x2C1 CALLDATASIZE PUSH1 0x4 PUSH2 0x1582 JUMP JUMPDEST PUSH2 0x758 JUMP JUMPDEST PUSH2 0x213 PUSH32 0x2F26AC9AB74D35285B05B7B0D4A0F2FFDEF33823BC15863D6299DBDD56E7B6B0 DUP2 JUMP JUMPDEST PUSH2 0x269 PUSH2 0x2FB CALLDATASIZE PUSH1 0x4 PUSH2 0x15C3 JUMP JUMPDEST PUSH2 0x765 JUMP JUMPDEST PUSH2 0x213 PUSH2 0x30E CALLDATASIZE PUSH1 0x4 PUSH2 0x15C3 JUMP JUMPDEST PUSH1 0x1 PUSH1 0x1 PUSH1 0xA0 SHL SUB AND PUSH0 SWAP1 DUP2 MSTORE PUSH1 0x33 PUSH1 0x20 MSTORE PUSH1 0x40 SWAP1 KECCAK256 SLOAD SWAP1 JUMP JUMPDEST PUSH2 0x269 PUSH2 0x336 CALLDATASIZE PUSH1 0x4 PUSH2 0x1520 JUMP JUMPDEST PUSH2 0x810 JUMP JUMPDEST PUSH2 0x269 PUSH2 0x825 JUMP JUMPDEST PUSH2 0x1D2 PUSH2 0x351 CALLDATASIZE PUSH1 0x4 PUSH2 0x1599 JUMP JUMPDEST PUSH2 0x99E JUMP JUMPDEST PUSH2 0x1EF PUSH2 0x9C8 JUMP JUMPDEST PUSH2 0x213 PUSH0 DUP2 JUMP JUMPDEST PUSH2 0x1D2 PUSH2 0x373 CALLDATASIZE PUSH1 0x4 PUSH2 0x1520 JUMP JUMPDEST PUSH2 0x9D7 JUMP JUMPDEST PUSH2 0x1D2 PUSH2 0x386 CALLDATASIZE PUSH1 0x4 PUSH2 0x15C3 JUMP JUMPDEST PUSH1 0x1 PUSH1 0x1 PUSH1 0xA0 SHL SUB AND PUSH0 SWAP1 DUP2 MSTORE PUSH1 0xFC PUSH1 0x20 MSTORE PUSH1 0x40 SWAP1 KECCAK256 SLOAD PUSH1 0xFF AND SWAP1 JUMP JUMPDEST PUSH2 0x1D2 PUSH2 0x3B1 CALLDATASIZE PUSH1 0x4 PUSH2 0x1520 JUMP JUMPDEST PUSH2 0xA5C JUMP JUMPDEST PUSH1 0xFB SLOAD PUSH2 0x3C6 SWAP1 PUSH4 0xFFFFFFFF AND DUP2 JUMP JUMPDEST PUSH1 0x40 MLOAD PUSH4 0xFFFFFFFF SWAP1 SWAP2 AND DUP2 MSTORE PUSH1 0x20 ADD PUSH2 0x1DE JUMP JUMPDEST PUSH2 0x269 PUSH2 0x3E9 CALLDATASIZE PUSH1 0x4 PUSH2 0x1599 JUMP JUMPDEST PUSH2 0xA69 JUMP JUMPDEST PUSH2 0x213 PUSH32 0x5BE4D4BB045CDE5ABB3C363F9FC314C0F4F94DFFCC1C7BA61871BDB28228C55F DUP2 JUMP JUMPDEST PUSH2 0x213 PUSH2 0x423 CALLDATASIZE PUSH1 0x4 PUSH2 0x15DC JUMP JUMPDEST PUSH2 0xA8D JUMP JUMPDEST PUSH2 0x269 PUSH2 0x436 CALLDATASIZE PUSH1 0x4 PUSH2 0x1604 JUMP JUMPDEST PUSH2 0xAB7 JUMP JUMPDEST PUSH0 PUSH1 0x1 PUSH1 0x1 PUSH1 0xE0 SHL SUB NOT DUP3 AND PUSH4 0x7965DB0B PUSH1 0xE0 SHL EQ DUP1 PUSH2 0x46B JUMPI POP PUSH4 0x1FFC9A7 PUSH1 0xE0 SHL PUSH1 0x1 PUSH1 0x1 PUSH1 0xE0 SHL SUB NOT DUP4 AND EQ JUMPDEST SWAP3 SWAP2 POP POP JUMP JUMPDEST PUSH1 0x60 PUSH1 0x36 DUP1 SLOAD PUSH2 0x480 SWAP1 PUSH2 0x1627 JUMP JUMPDEST DUP1 PUSH1 0x1F ADD PUSH1 0x20 DUP1 SWAP2 DIV MUL PUSH1 0x20 ADD PUSH1 0x40 MLOAD SWAP1 DUP2 ADD PUSH1 0x40 MSTORE DUP1 SWAP3 SWAP2 SWAP1 DUP2 DUP2 MSTORE PUSH1 0x20 ADD DUP3 DUP1 SLOAD PUSH2 0x4AC SWAP1 PUSH2 0x1627 JUMP JUMPDEST DUP1 ISZERO PUSH2 0x4F7 JUMPI DUP1 PUSH1 0x1F LT PUSH2 0x4CE JUMPI PUSH2 0x100 DUP1 DUP4 SLOAD DIV MUL DUP4 MSTORE SWAP2 PUSH1 0x20 ADD SWAP2 PUSH2 0x4F7 JUMP JUMPDEST DUP3 ADD SWAP2 SWAP1 PUSH0 MSTORE PUSH1 0x20 PUSH0 KECCAK256 SWAP1 JUMPDEST DUP2 SLOAD DUP2 MSTORE SWAP1 PUSH1 0x1 ADD SWAP1 PUSH1 0x20 ADD DUP1 DUP4 GT PUSH2 0x4DA JUMPI DUP3 SWAP1 SUB PUSH1 0x1F AND DUP3 ADD SWAP2 JUMPDEST POP POP POP POP POP SWAP1 POP SWAP1 JUMP JUMPDEST PUSH0 CALLER PUSH2 0x50E DUP2 DUP6 DUP6 PUSH2 0xB54 JUMP JUMPDEST POP PUSH1 0x1 SWAP4 SWAP3 POP POP POP JUMP JUMPDEST PUSH1 0xFB SLOAD PUSH0 SWAP1 DUP5 SWAP1 DUP5 SWAP1 DUP4 SWAP1 PUSH4 0xFFFFFFFF AND ISZERO DUP1 PUSH2 0x53C JUMPI POP PUSH1 0xFB SLOAD PUSH4 0xFFFFFFFF AND TIMESTAMP LT JUMPDEST SWAP1 POP DUP1 ISZERO PUSH2 0x5C6 JUMPI PUSH0 PUSH2 0x54F DUP2 DUP6 PUSH2 0x99E JUMP JUMPDEST DUP1 PUSH2 0x55F JUMPI POP PUSH2 0x55F PUSH0 DUP5 PUSH2 0x99E JUMP JUMPDEST DUP1 PUSH2 0x56F JUMPI POP PUSH2 0x56F PUSH0 CALLER PUSH2 0x99E JUMP JUMPDEST SWAP1 POP DUP1 ISZERO DUP1 ISZERO PUSH2 0x5A6 JUMPI POP PUSH2 0x5A4 PUSH32 0x2F26AC9AB74D35285B05B7B0D4A0F2FFDEF33823BC15863D6299DBDD56E7B6B0 DUP5 PUSH2 0x99E JUMP JUMPDEST ISZERO JUMPDEST ISZERO PUSH2 0x5C4 JUMPI PUSH1 0x40 MLOAD PUSH4 0xAFAE8E97 PUSH1 0xE0 SHL DUP2 MSTORE PUSH1 0x4 ADD PUSH1 0x40 MLOAD DUP1 SWAP2 SUB SWAP1 REVERT JUMPDEST POP JUMPDEST PUSH2 0x5D1 DUP8 DUP8 DUP8 PUSH2 0xC77 JUMP JUMPDEST SWAP8 SWAP7 POP POP POP POP POP POP POP JUMP JUMPDEST PUSH0 DUP3 DUP2 MSTORE PUSH1 0xC9 PUSH1 0x20 MSTORE PUSH1 0x40 SWAP1 KECCAK256 PUSH1 0x1 ADD SLOAD PUSH2 0x5F6 DUP2 PUSH2 0xC8F JUMP JUMPDEST PUSH2 0x600 DUP4 DUP4 PUSH2 0xC99 JUMP JUMPDEST POP POP POP JUMP JUMPDEST PUSH1 0x1 PUSH1 0x1 PUSH1 0xA0 SHL SUB DUP2 AND CALLER EQ PUSH2 0x67A JUMPI PUSH1 0x40 MLOAD PUSH3 0x461BCD PUSH1 0xE5 SHL DUP2 MSTORE PUSH1 0x20 PUSH1 0x4 DUP3 ADD MSTORE PUSH1 0x2F PUSH1 0x24 DUP3 ADD MSTORE PUSH32 0x416363657373436F6E74726F6C3A2063616E206F6E6C792072656E6F756E6365 PUSH1 0x44 DUP3 ADD MSTORE PUSH15 0x103937B632B9903337B91039B2B633 PUSH1 0x89 SHL PUSH1 0x64 DUP3 ADD MSTORE PUSH1 0x84 ADD JUMPDEST PUSH1 0x40 MLOAD DUP1 SWAP2 SUB SWAP1 REVERT JUMPDEST PUSH2 0x684 DUP3 DUP3 PUSH2 0xD1E JUMP JUMPDEST POP POP JUMP JUMPDEST PUSH32 0x5BE4D4BB045CDE5ABB3C363F9FC314C0F4F94DFFCC1C7BA61871BDB28228C55F PUSH2 0x6B2 DUP2 PUSH2 0xC8F JUMP JUMPDEST PUSH1 0x1 PUSH1 0x1 PUSH1 0xA0 SHL SUB DUP3 AND PUSH0 SWAP1 DUP2 MSTORE PUSH1 0xFC PUSH1 0x20 MSTORE PUSH1 0x40 SWAP1 KECCAK256 SLOAD PUSH1 0xFF AND ISZERO PUSH2 0x6EB JUMPI PUSH1 0x40 MLOAD PUSH4 0x14829857 PUSH1 0xE3 SHL DUP2 MSTORE PUSH1 0x4 ADD PUSH1 0x40 MLOAD DUP1 SWAP2 SUB SWAP1 REVERT JUMPDEST PUSH1 0x1 PUSH1 0x1 PUSH1 0xA0 SHL SUB DUP3 AND PUSH0 DUP2 DUP2 MSTORE PUSH1 0xFC PUSH1 0x20 MSTORE PUSH1 0x40 DUP1 DUP3 KECCAK256 DUP1 SLOAD PUSH1 0xFF NOT AND PUSH1 0x1 OR SWAP1 SSTORE MLOAD PUSH32 0x4F03D75A12F5F2153536F14E57D9477EFF6BE012215A22E894DBC840DB1C8F7E SWAP2 SWAP1 LOG2 POP POP JUMP JUMPDEST PUSH0 CALLER PUSH2 0x50E DUP2 DUP6 DUP6 PUSH2 0x749 DUP4 DUP4 PUSH2 0xA8D JUMP JUMPDEST PUSH2 0x753 SWAP2 SWAP1 PUSH2 0x1673 JUMP JUMPDEST PUSH2 0xB54 JUMP JUMPDEST PUSH2 0x762 CALLER DUP3 PUSH2 0xD84 JUMP JUMPDEST POP JUMP JUMPDEST PUSH32 0x5BE4D4BB045CDE5ABB3C363F9FC314C0F4F94DFFCC1C7BA61871BDB28228C55F PUSH2 0x78F DUP2 PUSH2 0xC8F JUMP JUMPDEST PUSH1 0x1 PUSH1 0x1 PUSH1 0xA0 SHL SUB DUP3 AND PUSH0 SWAP1 DUP2 MSTORE PUSH1 0xFC PUSH1 0x20 MSTORE PUSH1 0x40 SWAP1 KECCAK256 SLOAD PUSH1 0xFF AND PUSH2 0x7C7 JUMPI PUSH1 0x40 MLOAD PUSH4 0x17C33B65 PUSH1 0xE0 SHL DUP2 MSTORE PUSH1 0x4 ADD PUSH1 0x40 MLOAD DUP1 SWAP2 SUB SWAP1 REVERT JUMPDEST PUSH1 0x1 PUSH1 0x1 PUSH1 0xA0 SHL SUB DUP3 AND PUSH0 DUP2 DUP2 MSTORE PUSH1 0xFC PUSH1 0x20 MSTORE PUSH1 0x40 DUP1 DUP3 KECCAK256 DUP1 SLOAD PUSH1 0xFF NOT AND SWAP1 SSTORE MLOAD PUSH32 0x43A926D6828BE5AECD76C987F92B63201C077E5EBF44EA16EECD0F2342BF5319 SWAP2 SWAP1 LOG2 POP POP JUMP JUMPDEST PUSH2 0x81B DUP3 CALLER DUP4 PUSH2 0xEB6 JUMP JUMPDEST PUSH2 0x684 DUP3 DUP3 PUSH2 0xD84 JUMP JUMPDEST PUSH0 SLOAD PUSH2 0x100 SWAP1 DIV PUSH1 0xFF AND ISZERO DUP1 DUP1 ISZERO PUSH2 0x843 JUMPI POP PUSH0 SLOAD PUSH1 0x1 PUSH1 0xFF SWAP1 SWAP2 AND LT JUMPDEST DUP1 PUSH2 0x85C JUMPI POP ADDRESS EXTCODESIZE ISZERO DUP1 ISZERO PUSH2 0x85C JUMPI POP PUSH0 SLOAD PUSH1 0xFF AND PUSH1 0x1 EQ JUMPDEST PUSH2 0x8BF JUMPI PUSH1 0x40 MLOAD PUSH3 0x461BCD PUSH1 0xE5 SHL DUP2 MSTORE PUSH1 0x20 PUSH1 0x4 DUP3 ADD MSTORE PUSH1 0x2E PUSH1 0x24 DUP3 ADD MSTORE PUSH32 0x496E697469616C697A61626C653A20636F6E747261637420697320616C726561 PUSH1 0x44 DUP3 ADD MSTORE PUSH14 0x191E481A5B9A5D1A585B1A5E9959 PUSH1 0x92 SHL PUSH1 0x64 DUP3 ADD MSTORE PUSH1 0x84 ADD PUSH2 0x671 JUMP JUMPDEST PUSH0 DUP1 SLOAD PUSH1 0xFF NOT AND PUSH1 0x1 OR SWAP1 SSTORE DUP1 ISZERO PUSH2 0x8E0 JUMPI PUSH0 DUP1 SLOAD PUSH2 0xFF00 NOT AND PUSH2 0x100 OR SWAP1 SSTORE JUMPDEST PUSH2 0x924 PUSH1 0x40 MLOAD DUP1 PUSH1 0x40 ADD PUSH1 0x40 MSTORE DUP1 PUSH1 0x6 DUP2 MSTORE PUSH1 0x20 ADD PUSH6 0x416C76617261 PUSH1 0xD0 SHL DUP2 MSTORE POP PUSH1 0x40 MLOAD DUP1 PUSH1 0x40 ADD PUSH1 0x40 MSTORE DUP1 PUSH1 0x4 DUP2 MSTORE PUSH1 0x20 ADD PUSH4 0x414C5641 PUSH1 0xE0 SHL DUP2 MSTORE POP PUSH2 0xF2E JUMP JUMPDEST PUSH2 0x92C PUSH2 0xF5E JUMP JUMPDEST PUSH2 0x934 PUSH2 0xF86 JUMP JUMPDEST PUSH2 0x957 CALLER PUSH2 0x944 PUSH1 0x12 PUSH1 0xA PUSH2 0x1769 JUMP JUMPDEST PUSH2 0x952 SWAP1 PUSH4 0xBEBC200 PUSH2 0x1777 JUMP JUMPDEST PUSH2 0xFB6 JUMP JUMPDEST DUP1 ISZERO PUSH2 0x762 JUMPI PUSH0 DUP1 SLOAD PUSH2 0xFF00 NOT AND SWAP1 SSTORE PUSH1 0x40 MLOAD PUSH1 0x1 DUP2 MSTORE PUSH32 0x7F26B83FF96E1F2B6A682F133852F6798A09C465DA95921460CEFB3847402498 SWAP1 PUSH1 0x20 ADD PUSH1 0x40 MLOAD DUP1 SWAP2 SUB SWAP1 LOG1 POP JUMP JUMPDEST PUSH0 SWAP2 DUP3 MSTORE PUSH1 0xC9 PUSH1 0x20 SWAP1 DUP2 MSTORE PUSH1 0x40 DUP1 DUP5 KECCAK256 PUSH1 0x1 PUSH1 0x1 PUSH1 0xA0 SHL SUB SWAP4 SWAP1 SWAP4 AND DUP5 MSTORE SWAP2 SWAP1 MSTORE SWAP1 KECCAK256 SLOAD PUSH1 0xFF AND SWAP1 JUMP JUMPDEST PUSH1 0x60 PUSH1 0x37 DUP1 SLOAD PUSH2 0x480 SWAP1 PUSH2 0x1627 JUMP JUMPDEST PUSH0 CALLER DUP2 PUSH2 0x9E4 DUP3 DUP7 PUSH2 0xA8D JUMP JUMPDEST SWAP1 POP DUP4 DUP2 LT ISZERO PUSH2 0xA44 JUMPI PUSH1 0x40 MLOAD PUSH3 0x461BCD PUSH1 0xE5 SHL DUP2 MSTORE PUSH1 0x20 PUSH1 0x4 DUP3 ADD MSTORE PUSH1 0x25 PUSH1 0x24 DUP3 ADD MSTORE PUSH32 0x45524332303A2064656372656173656420616C6C6F77616E63652062656C6F77 PUSH1 0x44 DUP3 ADD MSTORE PUSH5 0x207A65726F PUSH1 0xD8 SHL PUSH1 0x64 DUP3 ADD MSTORE PUSH1 0x84 ADD PUSH2 0x671 JUMP JUMPDEST PUSH2 0xA51 DUP3 DUP7 DUP7 DUP5 SUB PUSH2 0xB54 JUMP JUMPDEST POP PUSH1 0x1 SWAP5 SWAP4 POP POP POP POP JUMP JUMPDEST PUSH0 CALLER PUSH2 0x50E DUP2 DUP6 DUP6 PUSH2 0x1075 JUMP JUMPDEST PUSH0 DUP3 DUP2 MSTORE PUSH1 0xC9 PUSH1 0x20 MSTORE PUSH1 0x40 SWAP1 KECCAK256 PUSH1 0x1 ADD SLOAD PUSH2 0xA83 DUP2 PUSH2 0xC8F JUMP JUMPDEST PUSH2 0x600 DUP4 DUP4 PUSH2 0xD1E JUMP JUMPDEST PUSH1 0x1 PUSH1 0x1 PUSH1 0xA0 SHL SUB SWAP2 DUP3 AND PUSH0 SWAP1 DUP2 MSTORE PUSH1 0x34 PUSH1 0x20 SWAP1 DUP2 MSTORE PUSH1 0x40 DUP1 DUP4 KECCAK256 SWAP4 SWAP1 SWAP5 AND DUP3 MSTORE SWAP2 SWAP1 SWAP2 MSTORE KECCAK256 SLOAD SWAP1 JUMP JUMPDEST PUSH0 PUSH2 0xAC1 DUP2 PUSH2 0xC8F JUMP JUMPDEST PUSH1 0xFB SLOAD PUSH4 0xFFFFFFFF AND ISZERO DUP1 ISZERO SWAP1 PUSH2 0xAE0 JUMPI POP PUSH1 0xFB SLOAD PUSH4 0xFFFFFFFF AND TIMESTAMP LT ISZERO JUMPDEST ISZERO PUSH2 0xAFE JUMPI PUSH1 0x40 MLOAD PUSH4 0x6F555EE1 PUSH1 0xE1 SHL DUP2 MSTORE PUSH1 0x4 ADD PUSH1 0x40 MLOAD DUP1 SWAP2 SUB SWAP1 REVERT JUMPDEST PUSH1 0x40 MLOAD PUSH4 0xFFFFFFFF DUP4 AND DUP2 MSTORE PUSH32 0xE210431CE7E96EEF28F9095D645802317660C1411F89B4D642456F027E7C8D6 SWAP1 PUSH1 0x20 ADD PUSH1 0x40 MLOAD DUP1 SWAP2 SUB SWAP1 LOG1 POP PUSH1 0xFB DUP1 SLOAD PUSH4 0xFFFFFFFF NOT AND PUSH4 0xFFFFFFFF SWAP3 SWAP1 SWAP3 AND SWAP2 SWAP1 SWAP2 OR SWAP1 SSTORE JUMP JUMPDEST PUSH1 0x1 PUSH1 0x1 PUSH1 0xA0 SHL SUB DUP4 AND PUSH2 0xBB6 JUMPI PUSH1 0x40 MLOAD PUSH3 0x461BCD PUSH1 0xE5 SHL DUP2 MSTORE PUSH1 0x20 PUSH1 0x4 DUP3 ADD MSTORE PUSH1 0x24 DUP1 DUP3 ADD MSTORE PUSH32 0x45524332303A20617070726F76652066726F6D20746865207A65726F20616464 PUSH1 0x44 DUP3 ADD MSTORE PUSH4 0x72657373 PUSH1 0xE0 SHL PUSH1 0x64 DUP3 ADD MSTORE PUSH1 0x84 ADD PUSH2 0x671 JUMP JUMPDEST PUSH1 0x1 PUSH1 0x1 PUSH1 0xA0 SHL SUB DUP3 AND PUSH2 0xC17 JUMPI PUSH1 0x40 MLOAD PUSH3 0x461BCD PUSH1 0xE5 SHL DUP2 MSTORE PUSH1 0x20 PUSH1 0x4 DUP3 ADD MSTORE PUSH1 0x22 PUSH1 0x24 DUP3 ADD MSTORE PUSH32 0x45524332303A20617070726F766520746F20746865207A65726F206164647265 PUSH1 0x44 DUP3 ADD MSTORE PUSH2 0x7373 PUSH1 0xF0 SHL PUSH1 0x64 DUP3 ADD MSTORE PUSH1 0x84 ADD PUSH2 0x671 JUMP JUMPDEST PUSH1 0x1 PUSH1 0x1 PUSH1 0xA0 SHL SUB DUP4 DUP2 AND PUSH0 DUP2 DUP2 MSTORE PUSH1 0x34 PUSH1 0x20 SWAP1 DUP2 MSTORE PUSH1 0x40 DUP1 DUP4 KECCAK256 SWAP5 DUP8 AND DUP1 DUP5 MSTORE SWAP5 DUP3 MSTORE SWAP2 DUP3 SWAP1 KECCAK256 DUP6 SWAP1 SSTORE SWAP1 MLOAD DUP5 DUP2 MSTORE PUSH32 0x8C5BE1E5EBEC7D5BD14F71427D1E84F3DD0314C0F7B2291E5B200AC8C7C3B925 SWAP2 ADD PUSH1 0x40 MLOAD DUP1 SWAP2 SUB SWAP1 LOG3 POP POP POP JUMP JUMPDEST PUSH0 CALLER PUSH2 0xC84 DUP6 DUP3 DUP6 PUSH2 0xEB6 JUMP JUMPDEST PUSH2 0xA51 DUP6 DUP6 DUP6 PUSH2 0x1075 JUMP JUMPDEST PUSH2 0x762 DUP2 CALLER PUSH2 0x10B9 JUMP JUMPDEST PUSH2 0xCA3 DUP3 DUP3 PUSH2 0x99E JUMP JUMPDEST PUSH2 0x684 JUMPI PUSH0 DUP3 DUP2 MSTORE PUSH1 0xC9 PUSH1 0x20 SWAP1 DUP2 MSTORE PUSH1 0x40 DUP1 DUP4 KECCAK256 PUSH1 0x1 PUSH1 0x1 PUSH1 0xA0 SHL SUB DUP6 AND DUP5 MSTORE SWAP1 SWAP2 MSTORE SWAP1 KECCAK256 DUP1 SLOAD PUSH1 0xFF NOT AND PUSH1 0x1 OR SWAP1 SSTORE PUSH2 0xCDA CALLER SWAP1 JUMP JUMPDEST PUSH1 0x1 PUSH1 0x1 PUSH1 0xA0 SHL SUB AND DUP2 PUSH1 0x1 PUSH1 0x1 PUSH1 0xA0 SHL SUB AND DUP4 PUSH32 0x2F8788117E7EFF1D82E926EC794901D17C78024A50270940304540A733656F0D PUSH1 0x40 MLOAD PUSH1 0x40 MLOAD DUP1 SWAP2 SUB SWAP1 LOG4 POP POP JUMP JUMPDEST PUSH2 0xD28 DUP3 DUP3 PUSH2 0x99E JUMP JUMPDEST ISZERO PUSH2 0x684 JUMPI PUSH0 DUP3 DUP2 MSTORE PUSH1 0xC9 PUSH1 0x20 SWAP1 DUP2 MSTORE PUSH1 0x40 DUP1 DUP4 KECCAK256 PUSH1 0x1 PUSH1 0x1 PUSH1 0xA0 SHL SUB DUP6 AND DUP1 DUP6 MSTORE SWAP3 MSTORE DUP1 DUP4 KECCAK256 DUP1 SLOAD PUSH1 0xFF NOT AND SWAP1 SSTORE MLOAD CALLER SWAP3 DUP6 SWAP2 PUSH32 0xF6391F5C32D9C69D2A47EA670B442974B53935D1EDC7FD64EB21E047A839171B SWAP2 SWAP1 LOG4 POP POP JUMP JUMPDEST PUSH1 0x1 PUSH1 0x1 PUSH1 0xA0 SHL SUB DUP3 AND PUSH2 0xDE4 JUMPI PUSH1 0x40 MLOAD PUSH3 0x461BCD PUSH1 0xE5 SHL DUP2 MSTORE PUSH1 0x20 PUSH1 0x4 DUP3 ADD MSTORE PUSH1 0x21 PUSH1 0x24 DUP3 ADD MSTORE PUSH32 0x45524332303A206275726E2066726F6D20746865207A65726F20616464726573 PUSH1 0x44 DUP3 ADD MSTORE PUSH1 0x73 PUSH1 0xF8 SHL PUSH1 0x64 DUP3 ADD MSTORE PUSH1 0x84 ADD PUSH2 0x671 JUMP JUMPDEST PUSH1 0x1 PUSH1 0x1 PUSH1 0xA0 SHL SUB DUP3 AND PUSH0 SWAP1 DUP2 MSTORE PUSH1 0x33 PUSH1 0x20 MSTORE PUSH1 0x40 SWAP1 KECCAK256 SLOAD DUP2 DUP2 LT ISZERO PUSH2 0xE57 JUMPI PUSH1 0x40 MLOAD PUSH3 0x461BCD PUSH1 0xE5 SHL DUP2 MSTORE PUSH1 0x20 PUSH1 0x4 DUP3 ADD MSTORE PUSH1 0x22 PUSH1 0x24 DUP3 ADD MSTORE PUSH32 0x45524332303A206275726E20616D6F756E7420657863656564732062616C616E PUSH1 0x44 DUP3 ADD MSTORE PUSH2 0x6365 PUSH1 0xF0 SHL PUSH1 0x64 DUP3 ADD MSTORE PUSH1 0x84 ADD PUSH2 0x671 JUMP JUMPDEST PUSH1 0x1 PUSH1 0x1 PUSH1 0xA0 SHL SUB DUP4 AND PUSH0 DUP2 DUP2 MSTORE PUSH1 0x33 PUSH1 0x20 SWAP1 DUP2 MSTORE PUSH1 0x40 DUP1 DUP4 KECCAK256 DUP7 DUP7 SUB SWAP1 SSTORE PUSH1 0x35 DUP1 SLOAD DUP8 SWAP1 SUB SWAP1 SSTORE MLOAD DUP6 DUP2 MSTORE SWAP2 SWAP3 SWAP2 PUSH32 0xDDF252AD1BE2C89B69C2B068FC378DAA952BA7F163C4A11628F55A4DF523B3EF SWAP2 ADD PUSH1 0x40 MLOAD DUP1 SWAP2 SUB SWAP1 LOG3 POP POP POP JUMP JUMPDEST PUSH0 PUSH2 0xEC1 DUP5 DUP5 PUSH2 0xA8D JUMP JUMPDEST SWAP1 POP PUSH0 NOT DUP2 EQ PUSH2 0xF28 JUMPI DUP2 DUP2 LT ISZERO PUSH2 0xF1B JUMPI PUSH1 0x40 MLOAD PUSH3 0x461BCD PUSH1 0xE5 SHL DUP2 MSTORE PUSH1 0x20 PUSH1 0x4 DUP3 ADD MSTORE PUSH1 0x1D PUSH1 0x24 DUP3 ADD MSTORE PUSH32 0x45524332303A20696E73756666696369656E7420616C6C6F77616E6365000000 PUSH1 0x44 DUP3 ADD MSTORE PUSH1 0x64 ADD PUSH2 0x671 JUMP JUMPDEST PUSH2 0xF28 DUP5 DUP5 DUP5 DUP5 SUB PUSH2 0xB54 JUMP JUMPDEST POP POP POP POP JUMP JUMPDEST PUSH0 SLOAD PUSH2 0x100 SWAP1 DIV PUSH1 0xFF AND PUSH2 0xF54 JUMPI PUSH1 0x40 MLOAD PUSH3 0x461BCD PUSH1 0xE5 SHL DUP2 MSTORE PUSH1 0x4 ADD PUSH2 0x671 SWAP1 PUSH2 0x178E JUMP JUMPDEST PUSH2 0x684 DUP3 DUP3 PUSH2 0x1112 JUMP JUMPDEST PUSH0 SLOAD PUSH2 0x100 SWAP1 DIV PUSH1 0xFF AND PUSH2 0xF84 JUMPI PUSH1 0x40 MLOAD PUSH3 0x461BCD PUSH1 0xE5 SHL DUP2 MSTORE PUSH1 0x4 ADD PUSH2 0x671 SWAP1 PUSH2 0x178E JUMP JUMPDEST JUMP JUMPDEST PUSH0 SLOAD PUSH2 0x100 SWAP1 DIV PUSH1 0xFF AND PUSH2 0xFAC JUMPI PUSH1 0x40 MLOAD PUSH3 0x461BCD PUSH1 0xE5 SHL DUP2 MSTORE PUSH1 0x4 ADD PUSH2 0x671 SWAP1 PUSH2 0x178E JUMP JUMPDEST PUSH2 0xF84 PUSH0 CALLER PUSH2 0xC99 JUMP JUMPDEST PUSH1 0x1 PUSH1 0x1 PUSH1 0xA0 SHL SUB DUP3 AND PUSH2 0x100C JUMPI PUSH1 0x40 MLOAD PUSH3 0x461BCD PUSH1 0xE5 SHL DUP2 MSTORE PUSH1 0x20 PUSH1 0x4 DUP3 ADD MSTORE PUSH1 0x1F PUSH1 0x24 DUP3 ADD MSTORE PUSH32 0x45524332303A206D696E7420746F20746865207A65726F206164647265737300 PUSH1 0x44 DUP3 ADD MSTORE PUSH1 0x64 ADD PUSH2 0x671 JUMP JUMPDEST DUP1 PUSH1 0x35 PUSH0 DUP3 DUP3 SLOAD PUSH2 0x101D SWAP2 SWAP1 PUSH2 0x1673 JUMP JUMPDEST SWAP1 SWAP2 SSTORE POP POP PUSH1 0x1 PUSH1 0x1 PUSH1 0xA0 SHL SUB DUP3 AND PUSH0 DUP2 DUP2 MSTORE PUSH1 0x33 PUSH1 0x20 SWAP1 DUP2 MSTORE PUSH1 0x40 DUP1 DUP4 KECCAK256 DUP1 SLOAD DUP7 ADD SWAP1 SSTORE MLOAD DUP5 DUP2 MSTORE PUSH32 0xDDF252AD1BE2C89B69C2B068FC378DAA952BA7F163C4A11628F55A4DF523B3EF SWAP2 ADD PUSH1 0x40 MLOAD DUP1 SWAP2 SUB SWAP1 LOG3 POP POP JUMP JUMPDEST PUSH1 0x1 PUSH1 0x1 PUSH1 0xA0 SHL SUB DUP4 AND PUSH0 SWAP1 DUP2 MSTORE PUSH1 0xFC PUSH1 0x20 MSTORE PUSH1 0x40 SWAP1 KECCAK256 SLOAD PUSH1 0xFF AND ISZERO PUSH2 0x10AE JUMPI PUSH1 0x40 MLOAD PUSH4 0x3991FCA9 PUSH1 0xE2 SHL DUP2 MSTORE PUSH1 0x4 ADD PUSH1 0x40 MLOAD DUP1 SWAP2 SUB SWAP1 REVERT JUMPDEST PUSH2 0x600 DUP4 DUP4 DUP4 PUSH2 0x1151 JUMP JUMPDEST PUSH2 0x10C3 DUP3 DUP3 PUSH2 0x99E JUMP JUMPDEST PUSH2 0x684 JUMPI PUSH2 0x10D0 DUP2 PUSH2 0x12FA JUMP JUMPDEST PUSH2 0x10DB DUP4 PUSH1 0x20 PUSH2 0x130C JUMP JUMPDEST PUSH1 0x40 MLOAD PUSH1 0x20 ADD PUSH2 0x10EC SWAP3 SWAP2 SWAP1 PUSH2 0x17F0 JUMP JUMPDEST PUSH1 0x40 DUP1 MLOAD PUSH1 0x1F NOT DUP2 DUP5 SUB ADD DUP2 MSTORE SWAP1 DUP3 SWAP1 MSTORE PUSH3 0x461BCD PUSH1 0xE5 SHL DUP3 MSTORE PUSH2 0x671 SWAP2 PUSH1 0x4 ADD PUSH2 0x14D0 JUMP JUMPDEST PUSH0 SLOAD PUSH2 0x100 SWAP1 DIV PUSH1 0xFF AND PUSH2 0x1138 JUMPI PUSH1 0x40 MLOAD PUSH3 0x461BCD PUSH1 0xE5 SHL DUP2 MSTORE PUSH1 0x4 ADD PUSH2 0x671 SWAP1 PUSH2 0x178E JUMP JUMPDEST PUSH1 0x36 PUSH2 0x1144 DUP4 DUP3 PUSH2 0x18AD JUMP JUMPDEST POP PUSH1 0x37 PUSH2 0x600 DUP3 DUP3 PUSH2 0x18AD JUMP JUMPDEST PUSH1 0x1 PUSH1 0x1 PUSH1 0xA0 SHL SUB DUP4 AND PUSH2 0x11B5 JUMPI PUSH1 0x40 MLOAD PUSH3 0x461BCD PUSH1 0xE5 SHL DUP2 MSTORE PUSH1 0x20 PUSH1 0x4 DUP3 ADD MSTORE PUSH1 0x25 PUSH1 0x24 DUP3 ADD MSTORE PUSH32 0x45524332303A207472616E736665722066726F6D20746865207A65726F206164 PUSH1 0x44 DUP3 ADD MSTORE PUSH5 0x6472657373 PUSH1 0xD8 SHL PUSH1 0x64 DUP3 ADD MSTORE PUSH1 0x84 ADD PUSH2 0x671 JUMP JUMPDEST PUSH1 0x1 PUSH1 0x1 PUSH1 0xA0 SHL SUB DUP3 AND PUSH2 0x1217 JUMPI PUSH1 0x40 MLOAD PUSH3 0x461BCD PUSH1 0xE5 SHL DUP2 MSTORE PUSH1 0x20 PUSH1 0x4 DUP3 ADD MSTORE PUSH1 0x23 PUSH1 0x24 DUP3 ADD MSTORE PUSH32 0x45524332303A207472616E7366657220746F20746865207A65726F2061646472 PUSH1 0x44 DUP3 ADD MSTORE PUSH3 0x657373 PUSH1 0xE8 SHL PUSH1 0x64 DUP3 ADD MSTORE PUSH1 0x84 ADD PUSH2 0x671 JUMP JUMPDEST PUSH1 0x1 PUSH1 0x1 PUSH1 0xA0 SHL SUB DUP4 AND PUSH0 SWAP1 DUP2 MSTORE PUSH1 0x33 PUSH1 0x20 MSTORE PUSH1 0x40 SWAP1 KECCAK256 SLOAD DUP2 DUP2 LT ISZERO PUSH2 0x128E JUMPI PUSH1 0x40 MLOAD PUSH3 0x461BCD PUSH1 0xE5 SHL DUP2 MSTORE PUSH1 0x20 PUSH1 0x4 DUP3 ADD MSTORE PUSH1 0x26 PUSH1 0x24 DUP3 ADD MSTORE PUSH32 0x45524332303A207472616E7366657220616D6F756E7420657863656564732062 PUSH1 0x44 DUP3 ADD MSTORE PUSH6 0x616C616E6365 PUSH1 0xD0 SHL PUSH1 0x64 DUP3 ADD MSTORE PUSH1 0x84 ADD PUSH2 0x671 JUMP JUMPDEST PUSH1 0x1 PUSH1 0x1 PUSH1 0xA0 SHL SUB DUP1 DUP6 AND PUSH0 DUP2 DUP2 MSTORE PUSH1 0x33 PUSH1 0x20 MSTORE PUSH1 0x40 DUP1 DUP3 KECCAK256 DUP7 DUP7 SUB SWAP1 SSTORE SWAP3 DUP7 AND DUP1 DUP3 MSTORE SWAP1 DUP4 SWAP1 KECCAK256 DUP1 SLOAD DUP7 ADD SWAP1 SSTORE SWAP2 MLOAD PUSH32 0xDDF252AD1BE2C89B69C2B068FC378DAA952BA7F163C4A11628F55A4DF523B3EF SWAP1 PUSH2 0x12ED SWAP1 DUP7 DUP2 MSTORE PUSH1 0x20 ADD SWAP1 JUMP JUMPDEST PUSH1 0x40 MLOAD DUP1 SWAP2 SUB SWAP1 LOG3 PUSH2 0xF28 JUMP JUMPDEST PUSH1 0x60 PUSH2 0x46B PUSH1 0x1 PUSH1 0x1 PUSH1 0xA0 SHL SUB DUP4 AND PUSH1 0x14 JUMPDEST PUSH1 0x60 PUSH0 PUSH2 0x131A DUP4 PUSH1 0x2 PUSH2 0x1777 JUMP JUMPDEST PUSH2 0x1325 SWAP1 PUSH1 0x2 PUSH2 0x1673 JUMP JUMPDEST PUSH8 0xFFFFFFFFFFFFFFFF DUP2 GT ISZERO PUSH2 0x133D JUMPI PUSH2 0x133D PUSH2 0x184E JUMP JUMPDEST PUSH1 0x40 MLOAD SWAP1 DUP1 DUP3 MSTORE DUP1 PUSH1 0x1F ADD PUSH1 0x1F NOT AND PUSH1 0x20 ADD DUP3 ADD PUSH1 0x40 MSTORE DUP1 ISZERO PUSH2 0x1367 JUMPI PUSH1 0x20 DUP3 ADD DUP2 DUP1 CALLDATASIZE DUP4 CALLDATACOPY ADD SWAP1 POP JUMPDEST POP SWAP1 POP PUSH1 0x3 PUSH1 0xFC SHL DUP2 PUSH0 DUP2 MLOAD DUP2 LT PUSH2 0x1381 JUMPI PUSH2 0x1381 PUSH2 0x1968 JUMP JUMPDEST PUSH1 0x20 ADD ADD SWAP1 PUSH1 0x1 PUSH1 0x1 PUSH1 0xF8 SHL SUB NOT AND SWAP1 DUP2 PUSH0 BYTE SWAP1 MSTORE8 POP PUSH1 0xF PUSH1 0xFB SHL DUP2 PUSH1 0x1 DUP2 MLOAD DUP2 LT PUSH2 0x13AF JUMPI PUSH2 0x13AF PUSH2 0x1968 JUMP JUMPDEST PUSH1 0x20 ADD ADD SWAP1 PUSH1 0x1 PUSH1 0x1 PUSH1 0xF8 SHL SUB NOT AND SWAP1 DUP2 PUSH0 BYTE SWAP1 MSTORE8 POP PUSH0 PUSH2 0x13D1 DUP5 PUSH1 0x2 PUSH2 0x1777 JUMP JUMPDEST PUSH2 0x13DC SWAP1 PUSH1 0x1 PUSH2 0x1673 JUMP JUMPDEST SWAP1 POP JUMPDEST PUSH1 0x1 DUP2 GT ISZERO PUSH2 0x1453 JUMPI PUSH16 0x181899199A1A9B1B9C1CB0B131B232B3 PUSH1 0x81 SHL DUP6 PUSH1 0xF AND PUSH1 0x10 DUP2 LT PUSH2 0x1410 JUMPI PUSH2 0x1410 PUSH2 0x1968 JUMP JUMPDEST BYTE PUSH1 0xF8 SHL DUP3 DUP3 DUP2 MLOAD DUP2 LT PUSH2 0x1426 JUMPI PUSH2 0x1426 PUSH2 0x1968 JUMP JUMPDEST PUSH1 0x20 ADD ADD SWAP1 PUSH1 0x1 PUSH1 0x1 PUSH1 0xF8 SHL SUB NOT AND SWAP1 DUP2 PUSH0 BYTE SWAP1 MSTORE8 POP PUSH1 0x4 SWAP5 SWAP1 SWAP5 SHR SWAP4 PUSH2 0x144C DUP2 PUSH2 0x197C JUMP JUMPDEST SWAP1 POP PUSH2 0x13DF JUMP JUMPDEST POP DUP4 ISZERO PUSH2 0x14A2 JUMPI PUSH1 0x40 MLOAD PUSH3 0x461BCD PUSH1 0xE5 SHL DUP2 MSTORE PUSH1 0x20 PUSH1 0x4 DUP3 ADD DUP2 SWAP1 MSTORE PUSH1 0x24 DUP3 ADD MSTORE PUSH32 0x537472696E67733A20686578206C656E67746820696E73756666696369656E74 PUSH1 0x44 DUP3 ADD MSTORE PUSH1 0x64 ADD PUSH2 0x671 JUMP JUMPDEST SWAP4 SWAP3 POP POP POP JUMP JUMPDEST PUSH0 PUSH1 0x20 DUP3 DUP5 SUB SLT ISZERO PUSH2 0x14B9 JUMPI PUSH0 PUSH0 REVERT JUMPDEST DUP2 CALLDATALOAD PUSH1 0x1 PUSH1 0x1 PUSH1 0xE0 SHL SUB NOT DUP2 AND DUP2 EQ PUSH2 0x14A2 JUMPI PUSH0 PUSH0 REVERT JUMPDEST PUSH1 0x20 DUP2 MSTORE PUSH0 DUP3 MLOAD DUP1 PUSH1 0x20 DUP5 ADD MSTORE DUP1 PUSH1 0x20 DUP6 ADD PUSH1 0x40 DUP6 ADD MCOPY PUSH0 PUSH1 0x40 DUP3 DUP6 ADD ADD MSTORE PUSH1 0x40 PUSH1 0x1F NOT PUSH1 0x1F DUP4 ADD AND DUP5 ADD ADD SWAP2 POP POP SWAP3 SWAP2 POP POP JUMP JUMPDEST DUP1 CALLDATALOAD PUSH1 0x1 PUSH1 0x1 PUSH1 0xA0 SHL SUB DUP2 AND DUP2 EQ PUSH2 0x151B JUMPI PUSH0 PUSH0 REVERT JUMPDEST SWAP2 SWAP1 POP JUMP JUMPDEST PUSH0 PUSH0 PUSH1 0x40 DUP4 DUP6 SUB SLT ISZERO PUSH2 0x1531 JUMPI PUSH0 PUSH0 REVERT JUMPDEST PUSH2 0x153A DUP4 PUSH2 0x1505 JUMP JUMPDEST SWAP5 PUSH1 0x20 SWAP4 SWAP1 SWAP4 ADD CALLDATALOAD SWAP4 POP POP POP JUMP JUMPDEST PUSH0 PUSH0 PUSH0 PUSH1 0x60 DUP5 DUP7 SUB SLT ISZERO PUSH2 0x155A JUMPI PUSH0 PUSH0 REVERT JUMPDEST PUSH2 0x1563 DUP5 PUSH2 0x1505 JUMP JUMPDEST SWAP3 POP PUSH2 0x1571 PUSH1 0x20 DUP6 ADD PUSH2 0x1505 JUMP JUMPDEST SWAP3 SWAP6 SWAP3 SWAP5 POP POP POP PUSH1 0x40 SWAP2 SWAP1 SWAP2 ADD CALLDATALOAD SWAP1 JUMP JUMPDEST PUSH0 PUSH1 0x20 DUP3 DUP5 SUB SLT ISZERO PUSH2 0x1592 JUMPI PUSH0 PUSH0 REVERT JUMPDEST POP CALLDATALOAD SWAP2 SWAP1 POP JUMP JUMPDEST PUSH0 PUSH0 PUSH1 0x40 DUP4 DUP6 SUB SLT ISZERO PUSH2 0x15AA JUMPI PUSH0 PUSH0 REVERT JUMPDEST DUP3 CALLDATALOAD SWAP2 POP PUSH2 0x15BA PUSH1 0x20 DUP5 ADD PUSH2 0x1505 JUMP JUMPDEST SWAP1 POP SWAP3 POP SWAP3 SWAP1 POP JUMP JUMPDEST PUSH0 PUSH1 0x20 DUP3 DUP5 SUB SLT ISZERO PUSH2 0x15D3 JUMPI PUSH0 PUSH0 REVERT JUMPDEST PUSH2 0x14A2 DUP3 PUSH2 0x1505 JUMP JUMPDEST PUSH0 PUSH0 PUSH1 0x40 DUP4 DUP6 SUB SLT ISZERO PUSH2 0x15ED JUMPI PUSH0 PUSH0 REVERT JUMPDEST PUSH2 0x15F6 DUP4 PUSH2 0x1505 JUMP JUMPDEST SWAP2 POP PUSH2 0x15BA PUSH1 0x20 DUP5 ADD PUSH2 0x1505 JUMP JUMPDEST PUSH0 PUSH1 0x20 DUP3 DUP5 SUB SLT ISZERO PUSH2 0x1614 JUMPI PUSH0 PUSH0 REVERT JUMPDEST DUP2 CALLDATALOAD PUSH4 0xFFFFFFFF DUP2 AND DUP2 EQ PUSH2 0x14A2 JUMPI PUSH0 PUSH0 REVERT JUMPDEST PUSH1 0x1 DUP2 DUP2 SHR SWAP1 DUP3 AND DUP1 PUSH2 0x163B JUMPI PUSH1 0x7F DUP3 AND SWAP2 POP JUMPDEST PUSH1 0x20 DUP3 LT DUP2 SUB PUSH2 0x1659 JUMPI PUSH4 0x4E487B71 PUSH1 0xE0 SHL PUSH0 MSTORE PUSH1 0x22 PUSH1 0x4 MSTORE PUSH1 0x24 PUSH0 REVERT JUMPDEST POP SWAP2 SWAP1 POP JUMP JUMPDEST PUSH4 0x4E487B71 PUSH1 0xE0 SHL PUSH0 MSTORE PUSH1 0x11 PUSH1 0x4 MSTORE PUSH1 0x24 PUSH0 REVERT JUMPDEST DUP1 DUP3 ADD DUP1 DUP3 GT ISZERO PUSH2 0x46B JUMPI PUSH2 0x46B PUSH2 0x165F JUMP JUMPDEST PUSH1 0x1 DUP2 JUMPDEST PUSH1 0x1 DUP5 GT ISZERO PUSH2 0x16C1 JUMPI DUP1 DUP6 DIV DUP2 GT ISZERO PUSH2 0x16A5 JUMPI PUSH2 0x16A5 PUSH2 0x165F JUMP JUMPDEST PUSH1 0x1 DUP5 AND ISZERO PUSH2 0x16B3 JUMPI SWAP1 DUP2 MUL SWAP1 JUMPDEST PUSH1 0x1 SWAP4 SWAP1 SWAP4 SHR SWAP3 DUP1 MUL PUSH2 0x168A JUMP JUMPDEST SWAP4 POP SWAP4 SWAP2 POP POP JUMP JUMPDEST PUSH0 DUP3 PUSH2 0x16D7 JUMPI POP PUSH1 0x1 PUSH2 0x46B JUMP JUMPDEST DUP2 PUSH2 0x16E3 JUMPI POP PUSH0 PUSH2 0x46B JUMP JUMPDEST DUP2 PUSH1 0x1 DUP2 EQ PUSH2 0x16F9 JUMPI PUSH1 0x2 DUP2 EQ PUSH2 0x1703 JUMPI PUSH2 0x171F JUMP JUMPDEST PUSH1 0x1 SWAP2 POP POP PUSH2 0x46B JUMP JUMPDEST PUSH1 0xFF DUP5 GT ISZERO PUSH2 0x1714 JUMPI PUSH2 0x1714 PUSH2 0x165F JUMP JUMPDEST POP POP PUSH1 0x1 DUP3 SHL PUSH2 0x46B JUMP JUMPDEST POP PUSH1 0x20 DUP4 LT PUSH2 0x133 DUP4 LT AND PUSH1 0x4E DUP5 LT PUSH1 0xB DUP5 LT AND OR ISZERO PUSH2 0x1742 JUMPI POP DUP2 DUP2 EXP PUSH2 0x46B JUMP JUMPDEST PUSH2 0x174E PUSH0 NOT DUP5 DUP5 PUSH2 0x1686 JUMP JUMPDEST DUP1 PUSH0 NOT DIV DUP3 GT ISZERO PUSH2 0x1761 JUMPI PUSH2 0x1761 PUSH2 0x165F JUMP JUMPDEST MUL SWAP4 SWAP3 POP POP POP JUMP JUMPDEST PUSH0 PUSH2 0x14A2 PUSH1 0xFF DUP5 AND DUP4 PUSH2 0x16C9 JUMP JUMPDEST DUP1 DUP3 MUL DUP2 ISZERO DUP3 DUP3 DIV DUP5 EQ OR PUSH2 0x46B JUMPI PUSH2 0x46B PUSH2 0x165F JUMP JUMPDEST PUSH1 0x20 DUP1 DUP3 MSTORE PUSH1 0x2B SWAP1 DUP3 ADD MSTORE PUSH32 0x496E697469616C697A61626C653A20636F6E7472616374206973206E6F742069 PUSH1 0x40 DUP3 ADD MSTORE PUSH11 0x6E697469616C697A696E67 PUSH1 0xA8 SHL PUSH1 0x60 DUP3 ADD MSTORE PUSH1 0x80 ADD SWAP1 JUMP JUMPDEST PUSH0 DUP2 MLOAD DUP1 PUSH1 0x20 DUP5 ADD DUP6 MCOPY PUSH0 SWAP4 ADD SWAP3 DUP4 MSTORE POP SWAP1 SWAP2 SWAP1 POP JUMP JUMPDEST PUSH32 0x416363657373436F6E74726F6C3A206163636F756E7420000000000000000000 DUP2 MSTORE PUSH0 PUSH2 0x1821 PUSH1 0x17 DUP4 ADD DUP6 PUSH2 0x17D9 JUMP JUMPDEST PUSH17 0x1034B99036B4B9B9B4B733903937B6329 PUSH1 0x7D SHL DUP2 MSTORE PUSH2 0x1845 PUSH1 0x11 DUP3 ADD DUP6 PUSH2 0x17D9 JUMP JUMPDEST SWAP6 SWAP5 POP POP POP POP POP JUMP JUMPDEST PUSH4 0x4E487B71 PUSH1 0xE0 SHL PUSH0 MSTORE PUSH1 0x41 PUSH1 0x4 MSTORE PUSH1 0x24 PUSH0 REVERT JUMPDEST PUSH1 0x1F DUP3 GT ISZERO PUSH2 0x600 JUMPI DUP1 PUSH0 MSTORE PUSH1 0x20 PUSH0 KECCAK256 PUSH1 0x1F DUP5 ADD PUSH1 0x5 SHR DUP2 ADD PUSH1 0x20 DUP6 LT ISZERO PUSH2 0x1887 JUMPI POP DUP1 JUMPDEST PUSH1 0x1F DUP5 ADD PUSH1 0x5 SHR DUP3 ADD SWAP2 POP JUMPDEST DUP2 DUP2 LT ISZERO PUSH2 0x18A6 JUMPI PUSH0 DUP2 SSTORE PUSH1 0x1 ADD PUSH2 0x1893 JUMP JUMPDEST POP POP POP POP POP JUMP JUMPDEST DUP2 MLOAD PUSH8 0xFFFFFFFFFFFFFFFF DUP2 GT ISZERO PUSH2 0x18C7 JUMPI PUSH2 0x18C7 PUSH2 0x184E JUMP JUMPDEST PUSH2 0x18DB DUP2 PUSH2 0x18D5 DUP5 SLOAD PUSH2 0x1627 JUMP JUMPDEST DUP5 PUSH2 0x1862 JUMP JUMPDEST PUSH1 0x20 PUSH1 0x1F DUP3 GT PUSH1 0x1 DUP2 EQ PUSH2 0x190D JUMPI PUSH0 DUP4 ISZERO PUSH2 0x18F6 JUMPI POP DUP5 DUP3 ADD MLOAD JUMPDEST PUSH0 NOT PUSH1 0x3 DUP6 SWAP1 SHL SHR NOT AND PUSH1 0x1 DUP5 SWAP1 SHL OR DUP5 SSTORE PUSH2 0x18A6 JUMP JUMPDEST PUSH0 DUP5 DUP2 MSTORE PUSH1 0x20 DUP2 KECCAK256 PUSH1 0x1F NOT DUP6 AND SWAP2 JUMPDEST DUP3 DUP2 LT ISZERO PUSH2 0x193C JUMPI DUP8 DUP6 ADD MLOAD DUP3 SSTORE PUSH1 0x20 SWAP5 DUP6 ADD SWAP5 PUSH1 0x1 SWAP1 SWAP3 ADD SWAP2 ADD PUSH2 0x191C JUMP JUMPDEST POP DUP5 DUP3 LT ISZERO PUSH2 0x1959 JUMPI DUP7 DUP5 ADD MLOAD PUSH0 NOT PUSH1 0x3 DUP8 SWAP1 SHL PUSH1 0xF8 AND SHR NOT AND DUP2 SSTORE JUMPDEST POP POP POP POP PUSH1 0x1 SWAP1 DUP2 SHL ADD SWAP1 SSTORE POP JUMP JUMPDEST PUSH4 0x4E487B71 PUSH1 0xE0 SHL PUSH0 MSTORE PUSH1 0x32 PUSH1 0x4 MSTORE PUSH1 0x24 PUSH0 REVERT JUMPDEST PUSH0 DUP2 PUSH2 0x198A JUMPI PUSH2 0x198A PUSH2 0x165F JUMP JUMPDEST POP PUSH0 NOT ADD SWAP1 JUMP INVALID LOG2 PUSH5 0x6970667358 0x22 SLT KECCAK256 0xD4 0x25 LT PUSH12 0xD83823A2750A9A3F439963BD DUP8 0xED 0x4E 0xC8 SLOAD 0xCB 0xBD SWAP1 0x4F AND SWAP10 PUSH7 0x229FA7F664736F PUSH13 0x634300081E0033000000000000 "
				},
				"gasEstimates": {
					"creation": {
						"codeDepositCost": "1319800",
						"executionCost": "30960",
						"totalCost": "1350760"
					},
					"external": {
						"ALLOWED_TRANSFER_FROM_ROLE()": "283",
						"DEFAULT_ADMIN_ROLE()": "282",
						"GREYLIST_MANAGER_ROLE()": "260",
						"addToGreyList(address)": "infinite",
						"allowance(address,address)": "infinite",
						"approve(address,uint256)": "24676",
						"balanceOf(address)": "2580",
						"burn(uint256)": "50811",
						"burnFrom(address,uint256)": "77517",
						"decimals()": "222",
						"decreaseAllowance(address,uint256)": "27044",
						"getRoleAdmin(bytes32)": "2531",
						"grantRole(bytes32,address)": "infinite",
						"hasRole(bytes32,address)": "2695",
						"increaseAllowance(address,uint256)": "27011",
						"initialize()": "infinite",
						"isGreyListed(address)": "2580",
						"listingTimestamp()": "2401",
						"name()": "infinite",
						"removeFromGreyList(address)": "infinite",
						"renounceRole(bytes32,address)": "29064",
						"revokeRole(bytes32,address)": "infinite",
						"setListingTimestamp(uint32)": "infinite",
						"supportsInterface(bytes4)": "470",
						"symbol()": "infinite",
						"totalSupply()": "2326",
						"transfer(address,uint256)": "53356",
						"transferFrom(address,address,uint256)": "infinite"
					},
					"internal": {
						"_transfer(address,address,uint256)": "infinite"
					}
				},
				"methodIdentifiers": {
					"ALLOWED_TRANSFER_FROM_ROLE()": "4e695cca",
					"DEFAULT_ADMIN_ROLE()": "a217fddf",
					"GREYLIST_MANAGER_ROLE()": "dbd192d4",
					"addToGreyList(address)": "38f5a5e4",
					"allowance(address,address)": "dd62ed3e",
					"approve(address,uint256)": "095ea7b3",
					"balanceOf(address)": "70a08231",
					"burn(uint256)": "42966c68",
					"burnFrom(address,uint256)": "79cc6790",
					"decimals()": "313ce567",
					"decreaseAllowance(address,uint256)": "a457c2d7",
					"getRoleAdmin(bytes32)": "248a9ca3",
					"grantRole(bytes32,address)": "2f2ff15d",
					"hasRole(bytes32,address)": "91d14854",
					"increaseAllowance(address,uint256)": "39509351",
					"initialize()": "8129fc1c",
					"isGreyListed(address)": "a64a92a8",
					"listingTimestamp()": "bd39a2a8",
					"name()": "06fdde03",
					"removeFromGreyList(address)": "6e4af83e",
					"renounceRole(bytes32,address)": "36568abe",
					"revokeRole(bytes32,address)": "d547741f",
					"setListingTimestamp(uint32)": "e90cdd1c",
					"supportsInterface(bytes4)": "01ffc9a7",
					"symbol()": "95d89b41",
					"totalSupply()": "18160ddd",
					"transfer(address,uint256)": "a9059cbb",
					"transferFrom(address,address,uint256)": "23b872dd"
				}
			},
			"storageLayout": {
				"storage": [
					{
						"astId": 416,
						"contract": "contracts/tokens/Alvara.sol:Alvara",
						"label": "_initialized",
						"offset": 0,
						"slot": "0",
						"type": "t_uint8"
					},
					{
						"astId": 419,
						"contract": "contracts/tokens/Alvara.sol:Alvara",
						"label": "_initializing",
						"offset": 1,
						"slot": "0",
						"type": "t_bool"
					},
					{
						"astId": 1739,
						"contract": "contracts/tokens/Alvara.sol:Alvara",
						"label": "__gap",
						"offset": 0,
						"slot": "1",
						"type": "t_array(t_uint256)50_storage"
					},
					{
						"astId": 598,
						"contract": "contracts/tokens/Alvara.sol:Alvara",
						"label": "_balances",
						"offset": 0,
						"slot": "51",
						"type": "t_mapping(t_address,t_uint256)"
					},
					{
						"astId": 604,
						"contract": "contracts/tokens/Alvara.sol:Alvara",
						"label": "_allowances",
						"offset": 0,
						"slot": "52",
						"type": "t_mapping(t_address,t_mapping(t_address,t_uint256))"
					},
					{
						"astId": 606,
						"contract": "contracts/tokens/Alvara.sol:Alvara",
						"label": "_totalSupply",
						"offset": 0,
						"slot": "53",
						"type": "t_uint256"
					},
					{
						"astId": 608,
						"contract": "contracts/tokens/Alvara.sol:Alvara",
						"label": "_name",
						"offset": 0,
						"slot": "54",
						"type": "t_string_storage"
					},
					{
						"astId": 610,
						"contract": "contracts/tokens/Alvara.sol:Alvara",
						"label": "_symbol",
						"offset": 0,
						"slot": "55",
						"type": "t_string_storage"
					},
					{
						"astId": 1190,
						"contract": "contracts/tokens/Alvara.sol:Alvara",
						"label": "__gap",
						"offset": 0,
						"slot": "56",
						"type": "t_array(t_uint256)45_storage"
					},
					{
						"astId": 1333,
						"contract": "contracts/tokens/Alvara.sol:Alvara",
						"label": "__gap",
						"offset": 0,
						"slot": "101",
						"type": "t_array(t_uint256)50_storage"
					},
					{
						"astId": 2013,
						"contract": "contracts/tokens/Alvara.sol:Alvara",
						"label": "__gap",
						"offset": 0,
						"slot": "151",
						"type": "t_array(t_uint256)50_storage"
					},
					{
						"astId": 28,
						"contract": "contracts/tokens/Alvara.sol:Alvara",
						"label": "_roles",
						"offset": 0,
						"slot": "201",
						"type": "t_mapping(t_bytes32,t_struct(RoleData)23_storage)"
					},
					{
						"astId": 335,
						"contract": "contracts/tokens/Alvara.sol:Alvara",
						"label": "__gap",
						"offset": 0,
						"slot": "202",
						"type": "t_array(t_uint256)49_storage"
					},
					{
						"astId": 3227,
						"contract": "contracts/tokens/Alvara.sol:Alvara",
						"label": "listingTimestamp",
						"offset": 0,
						"slot": "251",
						"type": "t_uint32"
					},
					{
						"astId": 3031,
						"contract": "contracts/tokens/Alvara.sol:Alvara",
						"label": "_greyList",
						"offset": 0,
						"slot": "252",
						"type": "t_mapping(t_address,t_bool)"
					}
				],
				"types": {
					"t_address": {
						"encoding": "inplace",
						"label": "address",
						"numberOfBytes": "20"
					},
					"t_array(t_uint256)45_storage": {
						"base": "t_uint256",
						"encoding": "inplace",
						"label": "uint256[45]",
						"numberOfBytes": "1440"
					},
					"t_array(t_uint256)49_storage": {
						"base": "t_uint256",
						"encoding": "inplace",
						"label": "uint256[49]",
						"numberOfBytes": "1568"
					},
					"t_array(t_uint256)50_storage": {
						"base": "t_uint256",
						"encoding": "inplace",
						"label": "uint256[50]",
						"numberOfBytes": "1600"
					},
					"t_bool": {
						"encoding": "inplace",
						"label": "bool",
						"numberOfBytes": "1"
					},
					"t_bytes32": {
						"encoding": "inplace",
						"label": "bytes32",
						"numberOfBytes": "32"
					},
					"t_mapping(t_address,t_bool)": {
						"encoding": "mapping",
						"key": "t_address",
						"label": "mapping(address => bool)",
						"numberOfBytes": "32",
						"value": "t_bool"
					},
					"t_mapping(t_address,t_mapping(t_address,t_uint256))": {
						"encoding": "mapping",
						"key": "t_address",
						"label": "mapping(address => mapping(address => uint256))",
						"numberOfBytes": "32",
						"value": "t_mapping(t_address,t_uint256)"
					},
					"t_mapping(t_address,t_uint256)": {
						"encoding": "mapping",
						"key": "t_address",
						"label": "mapping(address => uint256)",
						"numberOfBytes": "32",
						"value": "t_uint256"
					},
					"t_mapping(t_bytes32,t_struct(RoleData)23_storage)": {
						"encoding": "mapping",
						"key": "t_bytes32",
						"label": "mapping(bytes32 => struct AccessControlUpgradeable.RoleData)",
						"numberOfBytes": "32",
						"value": "t_struct(RoleData)23_storage"
					},
					"t_string_storage": {
						"encoding": "bytes",
						"label": "string",
						"numberOfBytes": "32"
					},
					"t_struct(RoleData)23_storage": {
						"encoding": "inplace",
						"label": "struct AccessControlUpgradeable.RoleData",
						"members": [
							{
								"astId": 20,
								"contract": "contracts/tokens/Alvara.sol:Alvara",
								"label": "members",
								"offset": 0,
								"slot": "0",
								"type": "t_mapping(t_address,t_bool)"
							},
							{
								"astId": 22,
								"contract": "contracts/tokens/Alvara.sol:Alvara",
								"label": "adminRole",
								"offset": 0,
								"slot": "1",
								"type": "t_bytes32"
							}
						],
						"numberOfBytes": "64"
					},
					"t_uint256": {
						"encoding": "inplace",
						"label": "uint256",
						"numberOfBytes": "32"
					},
					"t_uint32": {
						"encoding": "inplace",
						"label": "uint32",
						"numberOfBytes": "4"
					},
					"t_uint8": {
						"encoding": "inplace",
						"label": "uint8",
						"numberOfBytes": "1"
					}
				}
			},
			"userdoc": {
				"events": {
					"ListingTimestampUpdated(uint32)": {
						"notice": "Called every time the listing timestamp is updated for easy off-chain tracking."
					}
				},
				"kind": "user",
				"methods": {
					"setListingTimestamp(uint32)": {
						"notice": "Allows the admin to specify when the token should become tradeable. Once the token is tradeable, transferFrom can never be supervised again."
					}
				},
				"version": 1
			}
		}
	}
}