{
	"contracts/tokens/AlvaraAvax.sol": {
		"AlvaraAvax": {
			"abi": [
				{
					"inputs": [],
					"name": "SupervisedTranferFrom",
					"type": "error"
				},
				{
					"inputs": [],
					"name": "TokenAlreadyListed",
					"type": "error"
				},
				{
					"anonymous": false,
					"inputs": [
						{
							"indexed": true,
							"internalType": "address",
							"name": "owner",
							"type": "address"
						},
						{
							"indexed": true,
							"internalType": "address",
							"name": "spender",
							"type": "address"
						},
						{
							"indexed": false,
							"internalType": "uint256",
							"name": "value",
							"type": "uint256"
						}
					],
					"name": "Approval",
					"type": "event"
				},
				{
					"anonymous": false,
					"inputs": [
						{
							"indexed": false,
							"internalType": "uint8",
							"name": "version",
							"type": "uint8"
						}
					],
					"name": "Initialized",
					"type": "event"
				},
				{
					"anonymous": false,
					"inputs": [
						{
							"indexed": false,
							"internalType": "uint32",
							"name": "newListingTimestamp",
							"type": "uint32"
						}
					],
					"name": "ListingTimestampUpdated",
					"type": "event"
				},
				{
					"anonymous": false,
					"inputs": [
						{
							"indexed": true,
							"internalType": "address",
							"name": "previousOwner",
							"type": "address"
						},
						{
							"indexed": true,
							"internalType": "address",
							"name": "newOwner",
							"type": "address"
						}
					],
					"name": "OwnershipTransferred",
					"type": "event"
				},
				{
					"anonymous": false,
					"inputs": [
						{
							"indexed": true,
							"internalType": "bytes32",
							"name": "role",
							"type": "bytes32"
						},
						{
							"indexed": true,
							"internalType": "bytes32",
							"name": "previousAdminRole",
							"type": "bytes32"
						},
						{
							"indexed": true,
							"internalType": "bytes32",
							"name": "newAdminRole",
							"type": "bytes32"
						}
					],
					"name": "RoleAdminChanged",
					"type": "event"
				},
				{
					"anonymous": false,
					"inputs": [
						{
							"indexed": true,
							"internalType": "bytes32",
							"name": "role",
							"type": "bytes32"
						},
						{
							"indexed": true,
							"internalType": "address",
							"name": "account",
							"type": "address"
						},
						{
							"indexed": true,
							"internalType": "address",
							"name": "sender",
							"type": "address"
						}
					],
					"name": "RoleGranted",
					"type": "event"
				},
				{
					"anonymous": false,
					"inputs": [
						{
							"indexed": true,
							"internalType": "bytes32",
							"name": "role",
							"type": "bytes32"
						},
						{
							"indexed": true,
							"internalType": "address",
							"name": "account",
							"type": "address"
						},
						{
							"indexed": true,
							"internalType": "address",
							"name": "sender",
							"type": "address"
						}
					],
					"name": "RoleRevoked",
					"type": "event"
				},
				{
					"anonymous": false,
					"inputs": [
						{
							"indexed": true,
							"internalType": "address",
							"name": "from",
							"type": "address"
						},
						{
							"indexed": true,
							"internalType": "address",
							"name": "to",
							"type": "address"
						},
						{
							"indexed": false,
							"internalType": "uint256",
							"name": "value",
							"type": "uint256"
						}
					],
					"name": "Transfer",
					"type": "event"
				},
				{
					"inputs": [],
					"name": "ALLOWED_TRANSFER_FROM_ROLE",
					"outputs": [
						{
							"internalType": "bytes32",
							"name": "",
							"type": "bytes32"
						}
					],
					"stateMutability": "view",
					"type": "function"
				},
				{
					"inputs": [],
					"name": "BURN_ROLE",
					"outputs": [
						{
							"internalType": "bytes32",
							"name": "",
							"type": "bytes32"
						}
					],
					"stateMutability": "view",
					"type": "function"
				},
				{
					"inputs": [],
					"name": "DEFAULT_ADMIN_ROLE",
					"outputs": [
						{
							"internalType": "bytes32",
							"name": "",
							"type": "bytes32"
						}
					],
					"stateMutability": "view",
					"type": "function"
				},
				{
					"inputs": [],
					"name": "MINTER_ROLE",
					"outputs": [
						{
							"internalType": "bytes32",
							"name": "",
							"type": "bytes32"
						}
					],
					"stateMutability": "view",
					"type": "function"
				},
				{
					"inputs": [
						{
							"internalType": "address",
							"name": "owner",
							"type": "address"
						},
						{
							"internalType": "address",
							"name": "spender",
							"type": "address"
						}
					],
					"name": "allowance",
					"outputs": [
						{
							"internalType": "uint256",
							"name": "",
							"type": "uint256"
						}
					],
					"stateMutability": "view",
					"type": "function"
				},
				{
					"inputs": [
						{
							"internalType": "address",
							"name": "spender",
							"type": "address"
						},
						{
							"internalType": "uint256",
							"name": "amount",
							"type": "uint256"
						}
					],
					"name": "approve",
					"outputs": [
						{
							"internalType": "bool",
							"name": "",
							"type": "bool"
						}
					],
					"stateMutability": "nonpayable",
					"type": "function"
				},
				{
					"inputs": [
						{
							"internalType": "address",
							"name": "account",
							"type": "address"
						}
					],
					"name": "balanceOf",
					"outputs": [
						{
							"internalType": "uint256",
							"name": "",
							"type": "uint256"
						}
					],
					"stateMutability": "view",
					"type": "function"
				},
				{
					"inputs": [
						{
							"internalType": "uint256",
							"name": "amount",
							"type": "uint256"
						}
					],
					"name": "burn",
					"outputs": [],
					"stateMutability": "nonpayable",
					"type": "function"
				},
				{
					"inputs": [
						{
							"internalType": "address",
							"name": "from",
							"type": "address"
						},
						{
							"internalType": "uint256",
							"name": "amount",
							"type": "uint256"
						}
					],
					"name": "burn",
					"outputs": [],
					"stateMutability": "nonpayable",
					"type": "function"
				},
				{
					"inputs": [
						{
							"internalType": "address",
							"name": "account",
							"type": "address"
						},
						{
							"internalType": "uint256",
							"name": "amount",
							"type": "uint256"
						}
					],
					"name": "burnFrom",
					"outputs": [],
					"stateMutability": "nonpayable",
					"type": "function"
				},
				{
					"inputs": [],
					"name": "decimals",
					"outputs": [
						{
							"internalType": "uint8",
							"name": "",
							"type": "uint8"
						}
					],
					"stateMutability": "view",
					"type": "function"
				},
				{
					"inputs": [
						{
							"internalType": "address",
							"name": "spender",
							"type": "address"
						},
						{
							"internalType": "uint256",
							"name": "subtractedValue",
							"type": "uint256"
						}
					],
					"name": "decreaseAllowance",
					"outputs": [
						{
							"internalType": "bool",
							"name": "",
							"type": "bool"
						}
					],
					"stateMutability": "nonpayable",
					"type": "function"
				},
				{
					"inputs": [
						{
							"internalType": "bytes32",
							"name": "role",
							"type": "bytes32"
						}
					],
					"name": "getRoleAdmin",
					"outputs": [
						{
							"internalType": "bytes32",
							"name": "",
							"type": "bytes32"
						}
					],
					"stateMutability": "view",
					"type": "function"
				},
				{
					"inputs": [
						{
							"internalType": "bytes32",
							"name": "role",
							"type": "bytes32"
						},
						{
							"internalType": "address",
							"name": "account",
							"type": "address"
						}
					],
					"name": "grantRole",
					"outputs": [],
					"stateMutability": "nonpayable",
					"type": "function"
				},
				{
					"inputs": [
						{
							"internalType": "bytes32",
							"name": "role",
							"type": "bytes32"
						},
						{
							"internalType": "address",
							"name": "account",
							"type": "address"
						}
					],
					"name": "hasRole",
					"outputs": [
						{
							"internalType": "bool",
							"name": "",
							"type": "bool"
						}
					],
					"stateMutability": "view",
					"type": "function"
				},
				{
					"inputs": [
						{
							"internalType": "address",
							"name": "spender",
							"type": "address"
						},
						{
							"internalType": "uint256",
							"name": "addedValue",
							"type": "uint256"
						}
					],
					"name": "increaseAllowance",
					"outputs": [
						{
							"internalType": "bool",
							"name": "",
							"type": "bool"
						}
					],
					"stateMutability": "nonpayable",
					"type": "function"
				},
				{
					"inputs": [],
					"name": "initialize",
					"outputs": [],
					"stateMutability": "nonpayable",
					"type": "function"
				},
				{
					"inputs": [],
					"name": "listingTimestamp",
					"outputs": [
						{
							"internalType": "uint32",
							"name": "",
							"type": "uint32"
						}
					],
					"stateMutability": "view",
					"type": "function"
				},
				{
					"inputs": [
						{
							"internalType": "address",
							"name": "to",
							"type": "address"
						},
						{
							"internalType": "uint256",
							"name": "amount",
							"type": "uint256"
						}
					],
					"name": "mint",
					"outputs": [],
					"stateMutability": "nonpayable",
					"type": "function"
				},
				{
					"inputs": [],
					"name": "name",
					"outputs": [
						{
							"internalType": "string",
							"name": "",
							"type": "string"
						}
					],
					"stateMutability": "view",
					"type": "function"
				},
				{
					"inputs": [],
					"name": "owner",
					"outputs": [
						{
							"internalType": "address",
							"name": "",
							"type": "address"
						}
					],
					"stateMutability": "view",
					"type": "function"
				},
				{
					"inputs": [],
					"name": "renounceOwnership",
					"outputs": [],
					"stateMutability": "nonpayable",
					"type": "function"
				},
				{
					"inputs": [
						{
							"internalType": "bytes32",
							"name": "role",
							"type": "bytes32"
						},
						{
							"internalType": "address",
							"name": "account",
							"type": "address"
						}
					],
					"name": "renounceRole",
					"outputs": [],
					"stateMutability": "nonpayable",
					"type": "function"
				},
				{
					"inputs": [
						{
							"internalType": "bytes32",
							"name": "role",
							"type": "bytes32"
						},
						{
							"internalType": "address",
							"name": "account",
							"type": "address"
						}
					],
					"name": "revokeRole",
					"outputs": [],
					"stateMutability": "nonpayable",
					"type": "function"
				},
				{
					"inputs": [
						{
							"internalType": "uint32",
							"name": "newListingTimestamp",
							"type": "uint32"
						}
					],
					"name": "setListingTimestamp",
					"outputs": [],
					"stateMutability": "nonpayable",
					"type": "function"
				},
				{
					"inputs": [
						{
							"internalType": "bytes4",
							"name": "interfaceId",
							"type": "bytes4"
						}
					],
					"name": "supportsInterface",
					"outputs": [
						{
							"internalType": "bool",
							"name": "",
							"type": "bool"
						}
					],
					"stateMutability": "view",
					"type": "function"
				},
				{
					"inputs": [],
					"name": "symbol",
					"outputs": [
						{
							"internalType": "string",
							"name": "",
							"type": "string"
						}
					],
					"stateMutability": "view",
					"type": "function"
				},
				{
					"inputs": [],
					"name": "totalSupply",
					"outputs": [
						{
							"internalType": "uint256",
							"name": "",
							"type": "uint256"
						}
					],
					"stateMutability": "view",
					"type": "function"
				},
				{
					"inputs": [
						{
							"internalType": "address",
							"name": "to",
							"type": "address"
						},
						{
							"internalType": "uint256",
							"name": "amount",
							"type": "uint256"
						}
					],
					"name": "transfer",
					"outputs": [
						{
							"internalType": "bool",
							"name": "",
							"type": "bool"
						}
					],
					"stateMutability": "nonpayable",
					"type": "function"
				},
				{
					"inputs": [
						{
							"internalType": "address",
							"name": "from",
							"type": "address"
						},
						{
							"internalType": "address",
							"name": "to",
							"type": "address"
						},
						{
							"internalType": "uint256",
							"name": "amount",
							"type": "uint256"
						}
					],
					"name": "transferFrom",
					"outputs": [
						{
							"internalType": "bool",
							"name": "",
							"type": "bool"
						}
					],
					"stateMutability": "nonpayable",
					"type": "function"
				},
				{
					"inputs": [
						{
							"internalType": "address",
							"name": "newOwner",
							"type": "address"
						}
					],
					"name": "transferOwnership",
					"outputs": [],
					"stateMutability": "nonpayable",
					"type": "function"
				}
			],
			"devdoc": {
				"errors": {
					"SupervisedTranferFrom()": [
						{
							"details": "Used before listing if not allowed transferFrom occurs."
						}
					],
					"TokenAlreadyListed()": [
						{
							"details": "Once the listingTimestamp passes (which disables supervised transfers) it can never be set again. This ensures once supervised transfers are disabled, they can never be enabled again."
						}
					]
				},
				"events": {
					"Approval(address,address,uint256)": {
						"details": "Emitted when the allowance of a `spender` for an `owner` is set by a call to {approve}. `value` is the new allowance."
					},
					"Initialized(uint8)": {
						"details": "Triggered when the contract has been initialized or reinitialized."
					},
					"ListingTimestampUpdated(uint32)": {
						"params": {
							"newListingTimestamp": "the value of the new listing timestamp"
						}
					},
					"RoleAdminChanged(bytes32,bytes32,bytes32)": {
						"details": "Emitted when `newAdminRole` is set as ``role``'s admin role, replacing `previousAdminRole` `DEFAULT_ADMIN_ROLE` is the starting admin for all roles, despite {RoleAdminChanged} not being emitted signaling this. _Available since v3.1._"
					},
					"RoleGranted(bytes32,address,address)": {
						"details": "Emitted when `account` is granted `role`. `sender` is the account that originated the contract call, an admin role bearer except when using {AccessControl-_setupRole}."
					},
					"RoleRevoked(bytes32,address,address)": {
						"details": "Emitted when `account` is revoked `role`. `sender` is the account that originated the contract call:   - if using `revokeRole`, it is the admin role bearer   - if using `renounceRole`, it is the role bearer (i.e. `account`)"
					},
					"Transfer(address,address,uint256)": {
						"details": "Emitted when `value` tokens are moved from one account (`from`) to another (`to`). Note that `value` may be zero."
					}
				},
				"kind": "dev",
				"methods": {
					"allowance(address,address)": {
						"details": "See {IERC20-allowance}."
					},
					"approve(address,uint256)": {
						"details": "See {IERC20-approve}. NOTE: If `amount` is the maximum `uint256`, the allowance is not updated on `transferFrom`. This is semantically equivalent to an infinite approval. Requirements: - `spender` cannot be the zero address."
					},
					"balanceOf(address)": {
						"details": "See {IERC20-balanceOf}."
					},
					"burn(uint256)": {
						"details": "Destroys `amount` tokens from the caller. See {ERC20-_burn}."
					},
					"burnFrom(address,uint256)": {
						"details": "Destroys `amount` tokens from `account`, deducting from the caller's allowance. See {ERC20-_burn} and {ERC20-allowance}. Requirements: - the caller must have allowance for ``accounts``'s tokens of at least `amount`."
					},
					"decimals()": {
						"details": "Returns the number of decimals used to get its user representation. For example, if `decimals` equals `2`, a balance of `505` tokens should be displayed to a user as `5.05` (`505 / 10 ** 2`). Tokens usually opt for a value of 18, imitating the relationship between Ether and Wei. This is the default value returned by this function, unless it's overridden. NOTE: This information is only used for _display_ purposes: it in no way affects any of the arithmetic of the contract, including {IERC20-balanceOf} and {IERC20-transfer}."
					},
					"decreaseAllowance(address,uint256)": {
						"details": "Atomically decreases the allowance granted to `spender` by the caller. This is an alternative to {approve} that can be used as a mitigation for problems described in {IERC20-approve}. Emits an {Approval} event indicating the updated allowance. Requirements: - `spender` cannot be the zero address. - `spender` must have allowance for the caller of at least `subtractedValue`."
					},
					"getRoleAdmin(bytes32)": {
						"details": "Returns the admin role that controls `role`. See {grantRole} and {revokeRole}. To change a role's admin, use {_setRoleAdmin}."
					},
					"grantRole(bytes32,address)": {
						"details": "Grants `role` to `account`. If `account` had not been already granted `role`, emits a {RoleGranted} event. Requirements: - the caller must have ``role``'s admin role. May emit a {RoleGranted} event."
					},
					"hasRole(bytes32,address)": {
						"details": "Returns `true` if `account` has been granted `role`."
					},
					"increaseAllowance(address,uint256)": {
						"details": "Atomically increases the allowance granted to `spender` by the caller. This is an alternative to {approve} that can be used as a mitigation for problems described in {IERC20-approve}. Emits an {Approval} event indicating the updated allowance. Requirements: - `spender` cannot be the zero address."
					},
					"name()": {
						"details": "Returns the name of the token."
					},
					"owner()": {
						"details": "Returns the address of the current owner."
					},
					"renounceOwnership()": {
						"details": "Leaves the contract without owner. It will not be possible to call `onlyOwner` functions. Can only be called by the current owner. NOTE: Renouncing ownership will leave the contract without an owner, thereby disabling any functionality that is only available to the owner."
					},
					"renounceRole(bytes32,address)": {
						"details": "Revokes `role` from the calling account. Roles are often managed via {grantRole} and {revokeRole}: this function's purpose is to provide a mechanism for accounts to lose their privileges if they are compromised (such as when a trusted device is misplaced). If the calling account had been revoked `role`, emits a {RoleRevoked} event. Requirements: - the caller must be `account`. May emit a {RoleRevoked} event."
					},
					"revokeRole(bytes32,address)": {
						"details": "Revokes `role` from `account`. If `account` had been granted `role`, emits a {RoleRevoked} event. Requirements: - the caller must have ``role``'s admin role. May emit a {RoleRevoked} event."
					},
					"setListingTimestamp(uint32)": {
						"params": {
							"newListingTimestamp": "epoch time of when the token is listed on DEX"
						}
					},
					"supportsInterface(bytes4)": {
						"details": "See {IERC165-supportsInterface}."
					},
					"symbol()": {
						"details": "Returns the symbol of the token, usually a shorter version of the name."
					},
					"totalSupply()": {
						"details": "See {IERC20-totalSupply}."
					},
					"transfer(address,uint256)": {
						"details": "See {IERC20-transfer}. Requirements: - `to` cannot be the zero address. - the caller must have a balance of at least `amount`."
					},
					"transferFrom(address,address,uint256)": {
						"details": "See {IERC20-transferFrom}. Emits an {Approval} event indicating the updated allowance. This is not required by the EIP. See the note at the beginning of {ERC20}. NOTE: Does not update the allowance if the current allowance is the maximum `uint256`. Requirements: - `from` and `to` cannot be the zero address. - `from` must have a balance of at least `amount`. - the caller must have allowance for ``from``'s tokens of at least `amount`."
					},
					"transferOwnership(address)": {
						"details": "Transfers ownership of the contract to a new account (`newOwner`). Can only be called by the current owner."
					}
				},
				"version": 1
			},
			"evm": {
				"assembly": "    /* \"contracts/tokens/AlvaraAvax.sol\":479:1421  contract AlvaraAvax is... */\n  mstore(0x40, 0x80)\n  callvalue\n  dup1\n  iszero\n  tag_1\n  jumpi\n  revert(0x00, 0x00)\ntag_1:\n  pop\n  dataSize(sub_0)\n  dup1\n  dataOffset(sub_0)\n  0x00\n  codecopy\n  0x00\n  return\nstop\n\nsub_0: assembly {\n        /* \"contracts/tokens/AlvaraAvax.sol\":479:1421  contract AlvaraAvax is... */\n      mstore(0x40, 0x80)\n      callvalue\n      dup1\n      iszero\n      tag_1\n      jumpi\n      revert(0x00, 0x00)\n    tag_1:\n      pop\n      jumpi(tag_2, lt(calldatasize, 0x04))\n      shr(0xe0, calldataload(0x00))\n      dup1\n      0x79cc6790\n      gt\n      tag_34\n      jumpi\n      dup1\n      0xa9059cbb\n      gt\n      tag_35\n      jumpi\n      dup1\n      0xd547741f\n      gt\n      tag_36\n      jumpi\n      dup1\n      0xd547741f\n      eq\n      tag_30\n      jumpi\n      dup1\n      0xdd62ed3e\n      eq\n      tag_31\n      jumpi\n      dup1\n      0xe90cdd1c\n      eq\n      tag_32\n      jumpi\n      dup1\n      0xf2fde38b\n      eq\n      tag_33\n      jumpi\n      revert(0x00, 0x00)\n    tag_36:\n      dup1\n      0xa9059cbb\n      eq\n      tag_26\n      jumpi\n      dup1\n      0xb930908f\n      eq\n      tag_27\n      jumpi\n      dup1\n      0xbd39a2a8\n      eq\n      tag_28\n      jumpi\n      dup1\n      0xd5391393\n      eq\n      tag_29\n      jumpi\n      revert(0x00, 0x00)\n    tag_35:\n      dup1\n      0x95d89b41\n      gt\n      tag_37\n      jumpi\n      dup1\n      0x95d89b41\n      eq\n      tag_22\n      jumpi\n      dup1\n      0x9dc29fac\n      eq\n      tag_23\n      jumpi\n      dup1\n      0xa217fddf\n      eq\n      tag_24\n      jumpi\n      dup1\n      0xa457c2d7\n      eq\n      tag_25\n      jumpi\n      revert(0x00, 0x00)\n    tag_37:\n      dup1\n      0x79cc6790\n      eq\n      tag_18\n      jumpi\n      dup1\n      0x8129fc1c\n      eq\n      tag_19\n      jumpi\n      dup1\n      0x8da5cb5b\n      eq\n      tag_20\n      jumpi\n      dup1\n      0x91d14854\n      eq\n      tag_21\n      jumpi\n      revert(0x00, 0x00)\n    tag_34:\n      dup1\n      0x313ce567\n      gt\n      tag_38\n      jumpi\n      dup1\n      0x42966c68\n      gt\n      tag_39\n      jumpi\n      dup1\n      0x42966c68\n      eq\n      tag_14\n      jumpi\n      dup1\n      0x4e695cca\n      eq\n      tag_15\n      jumpi\n      dup1\n      0x70a08231\n      eq\n      tag_16\n      jumpi\n      dup1\n      0x715018a6\n      eq\n      tag_17\n      jumpi\n      revert(0x00, 0x00)\n    tag_39:\n      dup1\n      0x313ce567\n      eq\n      tag_10\n      jumpi\n      dup1\n      0x36568abe\n      eq\n      tag_11\n      jumpi\n      dup1\n      0x39509351\n      eq\n      tag_12\n      jumpi\n      dup1\n      0x40c10f19\n      eq\n      tag_13\n      jumpi\n      revert(0x00, 0x00)\n    tag_38:\n      dup1\n      0x18160ddd\n      gt\n      tag_40\n      jumpi\n      dup1\n      0x18160ddd\n      eq\n      tag_6\n      jumpi\n      dup1\n      0x23b872dd\n      eq\n      tag_7\n      jumpi\n      dup1\n      0x248a9ca3\n      eq\n      tag_8\n      jumpi\n      dup1\n      0x2f2ff15d\n      eq\n      tag_9\n      jumpi\n      revert(0x00, 0x00)\n    tag_40:\n      dup1\n      0x01ffc9a7\n      eq\n      tag_3\n      jumpi\n      dup1\n      0x06fdde03\n      eq\n      tag_4\n      jumpi\n      dup1\n      0x095ea7b3\n      eq\n      tag_5\n      jumpi\n    tag_2:\n      revert(0x00, 0x00)\n        /* \"@openzeppelin/contracts-upgradeable/access/AccessControlUpgradeable.sol\":3050:3263  function supportsInterface(bytes4 interfaceId) public view virtual override returns (bool) {... */\n    tag_3:\n      tag_41\n      tag_42\n      calldatasize\n      0x04\n      tag_43\n      jump\t// in\n    tag_42:\n      tag_44\n      jump\t// in\n    tag_41:\n      mload(0x40)\n        /* \"#utility.yul\":470:484   */\n      swap1\n      iszero\n        /* \"#utility.yul\":463:485   */\n      iszero\n        /* \"#utility.yul\":445:486   */\n      dup2\n      mstore\n        /* \"#utility.yul\":433:435   */\n      0x20\n        /* \"#utility.yul\":418:436   */\n      add\n        /* \"@openzeppelin/contracts-upgradeable/access/AccessControlUpgradeable.sol\":3050:3263  function supportsInterface(bytes4 interfaceId) public view virtual override returns (bool) {... */\n    tag_45:\n      mload(0x40)\n      dup1\n      swap2\n      sub\n      swap1\n      return\n        /* \"@openzeppelin/contracts-upgradeable/token/ERC20/ERC20Upgradeable.sol\":2516:2614  function name() public view virtual override returns (string memory) {... */\n    tag_4:\n      tag_47\n      tag_48\n      jump\t// in\n    tag_47:\n      mload(0x40)\n      tag_45\n      swap2\n      swap1\n      tag_50\n      jump\t// in\n        /* \"@openzeppelin/contracts-upgradeable/token/ERC20/ERC20Upgradeable.sol\":4802:4999  function approve(address spender, uint256 amount) public virtual override returns (bool) {... */\n    tag_5:\n      tag_41\n      tag_52\n      calldatasize\n      0x04\n      tag_53\n      jump\t// in\n    tag_52:\n      tag_54\n      jump\t// in\n        /* \"@openzeppelin/contracts-upgradeable/token/ERC20/ERC20Upgradeable.sol\":3613:3719  function totalSupply() public view virtual override returns (uint256) {... */\n    tag_6:\n        /* \"@openzeppelin/contracts-upgradeable/token/ERC20/ERC20Upgradeable.sol\":3700:3712  _totalSupply */\n      sload(0x35)\n        /* \"@openzeppelin/contracts-upgradeable/token/ERC20/ERC20Upgradeable.sol\":3613:3719  function totalSupply() public view virtual override returns (uint256) {... */\n    tag_56:\n      mload(0x40)\n        /* \"#utility.yul\":1549:1574   */\n      swap1\n      dup2\n      mstore\n        /* \"#utility.yul\":1537:1539   */\n      0x20\n        /* \"#utility.yul\":1522:1540   */\n      add\n        /* \"@openzeppelin/contracts-upgradeable/token/ERC20/ERC20Upgradeable.sol\":3613:3719  function totalSupply() public view virtual override returns (uint256) {... */\n      tag_45\n        /* \"#utility.yul\":1403:1580   */\n      jump\n        /* \"contracts/tokens/AlvaraAvax.sol\":1201:1419  function transferFrom(... */\n    tag_7:\n      tag_41\n      tag_61\n      calldatasize\n      0x04\n      tag_62\n      jump\t// in\n    tag_61:\n      tag_63\n      jump\t// in\n        /* \"@openzeppelin/contracts-upgradeable/access/AccessControlUpgradeable.sol\":4855:4984  function getRoleAdmin(bytes32 role) public view virtual override returns (bytes32) {... */\n    tag_8:\n      tag_56\n      tag_66\n      calldatasize\n      0x04\n      tag_67\n      jump\t// in\n    tag_66:\n        /* \"@openzeppelin/contracts-upgradeable/access/AccessControlUpgradeable.sol\":4929:4936  bytes32 */\n      0x00\n        /* \"@openzeppelin/contracts-upgradeable/access/AccessControlUpgradeable.sol\":4955:4967  _roles[role] */\n      swap1\n      dup2\n      mstore\n        /* \"@openzeppelin/contracts-upgradeable/access/AccessControlUpgradeable.sol\":4955:4961  _roles */\n      0xfb\n        /* \"@openzeppelin/contracts-upgradeable/access/AccessControlUpgradeable.sol\":4955:4967  _roles[role] */\n      0x20\n      mstore\n      0x40\n      swap1\n      keccak256\n        /* \"@openzeppelin/contracts-upgradeable/access/AccessControlUpgradeable.sol\":4955:4977  _roles[role].adminRole */\n      0x01\n      add\n      sload\n      swap1\n        /* \"@openzeppelin/contracts-upgradeable/access/AccessControlUpgradeable.sol\":4855:4984  function getRoleAdmin(bytes32 role) public view virtual override returns (bytes32) {... */\n      jump\n        /* \"@openzeppelin/contracts-upgradeable/access/AccessControlUpgradeable.sol\":5280:5425  function grantRole(bytes32 role, address account) public virtual override onlyRole(getRoleAdmin(role)) {... */\n    tag_9:\n      tag_71\n      tag_72\n      calldatasize\n      0x04\n      tag_73\n      jump\t// in\n    tag_72:\n      tag_74\n      jump\t// in\n    tag_71:\n      stop\n        /* \"@openzeppelin/contracts-upgradeable/token/ERC20/ERC20Upgradeable.sol\":3462:3553  function decimals() public view virtual override returns (uint8) {... */\n    tag_10:\n      mload(0x40)\n        /* \"@openzeppelin/contracts-upgradeable/token/ERC20/ERC20Upgradeable.sol\":3544:3546  18 */\n      0x12\n        /* \"#utility.yul\":2824:2860   */\n      dup2\n      mstore\n        /* \"#utility.yul\":2812:2814   */\n      0x20\n        /* \"#utility.yul\":2797:2815   */\n      add\n        /* \"@openzeppelin/contracts-upgradeable/token/ERC20/ERC20Upgradeable.sol\":3462:3553  function decimals() public view virtual override returns (uint8) {... */\n      tag_45\n        /* \"#utility.yul\":2682:2866   */\n      jump\n        /* \"@openzeppelin/contracts-upgradeable/access/AccessControlUpgradeable.sol\":6389:6603  function renounceRole(bytes32 role, address account) public virtual override {... */\n    tag_11:\n      tag_71\n      tag_80\n      calldatasize\n      0x04\n      tag_73\n      jump\t// in\n    tag_80:\n      tag_81\n      jump\t// in\n        /* \"@openzeppelin/contracts-upgradeable/token/ERC20/ERC20Upgradeable.sol\":6212:6446  function increaseAllowance(address spender, uint256 addedValue) public virtual returns (bool) {... */\n    tag_12:\n      tag_41\n      tag_83\n      calldatasize\n      0x04\n      tag_53\n      jump\t// in\n    tag_83:\n      tag_84\n      jump\t// in\n        /* \"contracts/tokens/AlvaraAvax.sol\":965:1076  function mint(address to, uint256 amount) public onlyRole(MINTER_ROLE) {... */\n    tag_13:\n      tag_71\n      tag_87\n      calldatasize\n      0x04\n      tag_53\n      jump\t// in\n    tag_87:\n      tag_88\n      jump\t// in\n        /* \"@openzeppelin/contracts-upgradeable/token/ERC20/extensions/ERC20BurnableUpgradeable.sol\":869:958  function burn(uint256 amount) public virtual {... */\n    tag_14:\n      tag_71\n      tag_90\n      calldatasize\n      0x04\n      tag_67\n      jump\t// in\n    tag_90:\n      tag_92\n      jump\t// in\n        /* \"contracts/utils/WithSupervisedTransfersAvax.sol\":1258:1358  bytes32 public constant ALLOWED_TRANSFER_FROM_ROLE =... */\n    tag_15:\n      tag_56\n        /* \"contracts/utils/WithSupervisedTransfersAvax.sol\":1319:1358  keccak256(\"ALLOWED_TRANSFER_FROM_ROLE\") */\n      0x2f26ac9ab74d35285b05b7b0d4a0f2ffdef33823bc15863d6299dbdd56e7b6b0\n        /* \"contracts/utils/WithSupervisedTransfersAvax.sol\":1258:1358  bytes32 public constant ALLOWED_TRANSFER_FROM_ROLE =... */\n      dup2\n      jump\n        /* \"@openzeppelin/contracts-upgradeable/token/ERC20/ERC20Upgradeable.sol\":3777:3902  function balanceOf(address account) public view virtual override returns (uint256) {... */\n    tag_16:\n      tag_56\n      tag_97\n      calldatasize\n      0x04\n      tag_98\n      jump\t// in\n    tag_97:\n      sub(shl(0xa0, 0x01), 0x01)\n        /* \"@openzeppelin/contracts-upgradeable/token/ERC20/ERC20Upgradeable.sol\":3877:3895  _balances[account] */\n      and\n        /* \"@openzeppelin/contracts-upgradeable/token/ERC20/ERC20Upgradeable.sol\":3851:3858  uint256 */\n      0x00\n        /* \"@openzeppelin/contracts-upgradeable/token/ERC20/ERC20Upgradeable.sol\":3877:3895  _balances[account] */\n      swap1\n      dup2\n      mstore\n        /* \"@openzeppelin/contracts-upgradeable/token/ERC20/ERC20Upgradeable.sol\":3877:3886  _balances */\n      0x33\n        /* \"@openzeppelin/contracts-upgradeable/token/ERC20/ERC20Upgradeable.sol\":3877:3895  _balances[account] */\n      0x20\n      mstore\n      0x40\n      swap1\n      keccak256\n      sload\n      swap1\n        /* \"@openzeppelin/contracts-upgradeable/token/ERC20/ERC20Upgradeable.sol\":3777:3902  function balanceOf(address account) public view virtual override returns (uint256) {... */\n      jump\n        /* \"@openzeppelin/contracts-upgradeable/access/OwnableUpgradeable.sol\":2085:2186  function renounceOwnership() public virtual onlyOwner {... */\n    tag_17:\n      tag_71\n      tag_102\n      jump\t// in\n        /* \"@openzeppelin/contracts-upgradeable/token/ERC20/extensions/ERC20BurnableUpgradeable.sol\":1264:1425  function burnFrom(address account, uint256 amount) public virtual {... */\n    tag_18:\n      tag_71\n      tag_104\n      calldatasize\n      0x04\n      tag_53\n      jump\t// in\n    tag_104:\n      tag_105\n      jump\t// in\n        /* \"contracts/tokens/AlvaraAvax.sol\":749:959  function initialize() public initializer {... */\n    tag_19:\n      tag_71\n      tag_107\n      jump\t// in\n        /* \"@openzeppelin/contracts-upgradeable/access/OwnableUpgradeable.sol\":1462:1547  function owner() public view virtual returns (address) {... */\n    tag_20:\n        /* \"@openzeppelin/contracts-upgradeable/access/OwnableUpgradeable.sol\":1534:1540  _owner */\n      sload(0x65)\n        /* \"@openzeppelin/contracts-upgradeable/access/OwnableUpgradeable.sol\":1462:1547  function owner() public view virtual returns (address) {... */\n      mload(0x40)\n      sub(shl(0xa0, 0x01), 0x01)\n        /* \"@openzeppelin/contracts-upgradeable/access/OwnableUpgradeable.sol\":1534:1540  _owner */\n      swap1\n      swap2\n      and\n        /* \"#utility.yul\":3439:3490   */\n      dup2\n      mstore\n        /* \"#utility.yul\":3427:3429   */\n      0x20\n        /* \"#utility.yul\":3412:3430   */\n      add\n        /* \"@openzeppelin/contracts-upgradeable/access/OwnableUpgradeable.sol\":1462:1547  function owner() public view virtual returns (address) {... */\n      tag_45\n        /* \"#utility.yul\":3293:3496   */\n      jump\n        /* \"@openzeppelin/contracts-upgradeable/access/AccessControlUpgradeable.sol\":3350:3495  function hasRole(bytes32 role, address account) public view virtual override returns (bool) {... */\n    tag_21:\n      tag_41\n      tag_113\n      calldatasize\n      0x04\n      tag_73\n      jump\t// in\n    tag_113:\n      tag_114\n      jump\t// in\n        /* \"@openzeppelin/contracts-upgradeable/token/ERC20/ERC20Upgradeable.sol\":2727:2829  function symbol() public view virtual override returns (string memory) {... */\n    tag_22:\n      tag_47\n      tag_117\n      jump\t// in\n        /* \"contracts/tokens/AlvaraAvax.sol\":1082:1195  function burn(address from, uint256 amount) public onlyRole(BURN_ROLE) {... */\n    tag_23:\n      tag_71\n      tag_120\n      calldatasize\n      0x04\n      tag_53\n      jump\t// in\n    tag_120:\n      tag_121\n      jump\t// in\n        /* \"@openzeppelin/contracts-upgradeable/access/AccessControlUpgradeable.sol\":2320:2369  bytes32 public constant DEFAULT_ADMIN_ROLE = 0x00 */\n    tag_24:\n      tag_56\n        /* \"@openzeppelin/contracts-upgradeable/access/AccessControlUpgradeable.sol\":2365:2369  0x00 */\n      0x00\n        /* \"@openzeppelin/contracts-upgradeable/access/AccessControlUpgradeable.sol\":2320:2369  bytes32 public constant DEFAULT_ADMIN_ROLE = 0x00 */\n      dup2\n      jump\n        /* \"@openzeppelin/contracts-upgradeable/token/ERC20/ERC20Upgradeable.sol\":6933:7360  function decreaseAllowance(address spender, uint256 subtractedValue) public virtual returns (bool) {... */\n    tag_25:\n      tag_41\n      tag_126\n      calldatasize\n      0x04\n      tag_53\n      jump\t// in\n    tag_126:\n      tag_127\n      jump\t// in\n        /* \"@openzeppelin/contracts-upgradeable/token/ERC20/ERC20Upgradeable.sol\":4098:4287  function transfer(address to, uint256 amount) public virtual override returns (bool) {... */\n    tag_26:\n      tag_41\n      tag_130\n      calldatasize\n      0x04\n      tag_53\n      jump\t// in\n    tag_130:\n      tag_131\n      jump\t// in\n        /* \"contracts/tokens/AlvaraAvax.sol\":684:742  bytes32 public constant BURN_ROLE = keccak256(\"BURN_ROLE\") */\n    tag_27:\n      tag_56\n        /* \"contracts/tokens/AlvaraAvax.sol\":720:742  keccak256(\"BURN_ROLE\") */\n      0xe97b137254058bd94f28d2f3eb79e2d34074ffb488d042e3bc958e0a57d2fa22\n        /* \"contracts/tokens/AlvaraAvax.sol\":684:742  bytes32 public constant BURN_ROLE = keccak256(\"BURN_ROLE\") */\n      dup2\n      jump\n        /* \"contracts/utils/WithSupervisedTransfersAvax.sol\":1364:1394  uint32 public listingTimestamp */\n    tag_28:\n      sload(0x012d)\n      tag_136\n      swap1\n      0xffffffff\n      and\n      dup2\n      jump\n    tag_136:\n      mload(0x40)\n        /* \"#utility.yul\":3675:3685   */\n      0xffffffff\n        /* \"#utility.yul\":3663:3686   */\n      swap1\n      swap2\n      and\n        /* \"#utility.yul\":3645:3687   */\n      dup2\n      mstore\n        /* \"#utility.yul\":3633:3635   */\n      0x20\n        /* \"#utility.yul\":3618:3636   */\n      add\n        /* \"contracts/utils/WithSupervisedTransfersAvax.sol\":1364:1394  uint32 public listingTimestamp */\n      tag_45\n        /* \"#utility.yul\":3501:3693   */\n      jump\n        /* \"contracts/tokens/AlvaraAvax.sol\":616:678  bytes32 public constant MINTER_ROLE = keccak256(\"MINTER_ROLE\") */\n    tag_29:\n      tag_56\n        /* \"contracts/tokens/AlvaraAvax.sol\":654:678  keccak256(\"MINTER_ROLE\") */\n      0x9f2df0fed2c77648de5860a4cc508cd0818c85b8b8a1ab4ceeef8d981c8956a6\n        /* \"contracts/tokens/AlvaraAvax.sol\":616:678  bytes32 public constant MINTER_ROLE = keccak256(\"MINTER_ROLE\") */\n      dup2\n      jump\n        /* \"@openzeppelin/contracts-upgradeable/access/AccessControlUpgradeable.sol\":5705:5852  function revokeRole(bytes32 role, address account) public virtual override onlyRole(getRoleAdmin(role)) {... */\n    tag_30:\n      tag_71\n      tag_144\n      calldatasize\n      0x04\n      tag_73\n      jump\t// in\n    tag_144:\n      tag_145\n      jump\t// in\n        /* \"@openzeppelin/contracts-upgradeable/token/ERC20/ERC20Upgradeable.sol\":4345:4494  function allowance(address owner, address spender) public view virtual override returns (uint256) {... */\n    tag_31:\n      tag_56\n      tag_147\n      calldatasize\n      0x04\n      tag_148\n      jump\t// in\n    tag_147:\n      tag_149\n      jump\t// in\n        /* \"contracts/utils/WithSupervisedTransfersAvax.sol\":2922:3277  function setListingTimestamp(uint32 newListingTimestamp)... */\n    tag_32:\n      tag_71\n      tag_152\n      calldatasize\n      0x04\n      tag_153\n      jump\t// in\n    tag_152:\n      tag_154\n      jump\t// in\n        /* \"@openzeppelin/contracts-upgradeable/access/OwnableUpgradeable.sol\":2335:2533  function transferOwnership(address newOwner) public virtual onlyOwner {... */\n    tag_33:\n      tag_71\n      tag_156\n      calldatasize\n      0x04\n      tag_98\n      jump\t// in\n    tag_156:\n      tag_157\n      jump\t// in\n        /* \"@openzeppelin/contracts-upgradeable/access/AccessControlUpgradeable.sol\":3050:3263  function supportsInterface(bytes4 interfaceId) public view virtual override returns (bool) {... */\n    tag_44:\n        /* \"@openzeppelin/contracts-upgradeable/access/AccessControlUpgradeable.sol\":3135:3139  bool */\n      0x00\n      not(sub(shl(0xe0, 0x01), 0x01))\n        /* \"@openzeppelin/contracts-upgradeable/access/AccessControlUpgradeable.sol\":3158:3216  interfaceId == type(IAccessControlUpgradeable).interfaceId */\n      dup3\n      and\n      shl(0xe0, 0x7965db0b)\n      eq\n      dup1\n        /* \"@openzeppelin/contracts-upgradeable/access/AccessControlUpgradeable.sol\":3158:3256  interfaceId == type(IAccessControlUpgradeable).interfaceId || super.supportsInterface(interfaceId) */\n      tag_160\n      jumpi\n      pop\n      shl(0xe0, 0x01ffc9a7)\n      not(sub(shl(0xe0, 0x01), 0x01))\n        /* \"@openzeppelin/contracts-upgradeable/utils/introspection/ERC165Upgradeable.sol\":1189:1240  interfaceId == type(IERC165Upgradeable).interfaceId */\n      dup4\n      and\n      eq\n        /* \"@openzeppelin/contracts-upgradeable/access/AccessControlUpgradeable.sol\":3220:3256  super.supportsInterface(interfaceId) */\n    tag_160:\n        /* \"@openzeppelin/contracts-upgradeable/access/AccessControlUpgradeable.sol\":3151:3256  return interfaceId == type(IAccessControlUpgradeable).interfaceId || super.supportsInterface(interfaceId) */\n      swap3\n        /* \"@openzeppelin/contracts-upgradeable/access/AccessControlUpgradeable.sol\":3050:3263  function supportsInterface(bytes4 interfaceId) public view virtual override returns (bool) {... */\n      swap2\n      pop\n      pop\n      jump\t// out\n        /* \"@openzeppelin/contracts-upgradeable/token/ERC20/ERC20Upgradeable.sol\":2516:2614  function name() public view virtual override returns (string memory) {... */\n    tag_48:\n        /* \"@openzeppelin/contracts-upgradeable/token/ERC20/ERC20Upgradeable.sol\":2570:2583  string memory */\n      0x60\n        /* \"@openzeppelin/contracts-upgradeable/token/ERC20/ERC20Upgradeable.sol\":2602:2607  _name */\n      0x36\n        /* \"@openzeppelin/contracts-upgradeable/token/ERC20/ERC20Upgradeable.sol\":2595:2607  return _name */\n      dup1\n      sload\n      tag_163\n      swap1\n      tag_164\n      jump\t// in\n    tag_163:\n      dup1\n      0x1f\n      add\n      0x20\n      dup1\n      swap2\n      div\n      mul\n      0x20\n      add\n      mload(0x40)\n      swap1\n      dup2\n      add\n      0x40\n      mstore\n      dup1\n      swap3\n      swap2\n      swap1\n      dup2\n      dup2\n      mstore\n      0x20\n      add\n      dup3\n      dup1\n      sload\n      tag_165\n      swap1\n      tag_164\n      jump\t// in\n    tag_165:\n      dup1\n      iszero\n      tag_166\n      jumpi\n      dup1\n      0x1f\n      lt\n      tag_167\n      jumpi\n      0x0100\n      dup1\n      dup4\n      sload\n      div\n      mul\n      dup4\n      mstore\n      swap2\n      0x20\n      add\n      swap2\n      jump(tag_166)\n    tag_167:\n      dup3\n      add\n      swap2\n      swap1\n      0x00\n      mstore\n      keccak256(0x00, 0x20)\n      swap1\n    tag_168:\n      dup2\n      sload\n      dup2\n      mstore\n      swap1\n      0x01\n      add\n      swap1\n      0x20\n      add\n      dup1\n      dup4\n      gt\n      tag_168\n      jumpi\n      dup3\n      swap1\n      sub\n      0x1f\n      and\n      dup3\n      add\n      swap2\n    tag_166:\n      pop\n      pop\n      pop\n      pop\n      pop\n      swap1\n      pop\n        /* \"@openzeppelin/contracts-upgradeable/token/ERC20/ERC20Upgradeable.sol\":2516:2614  function name() public view virtual override returns (string memory) {... */\n      swap1\n      jump\t// out\n        /* \"@openzeppelin/contracts-upgradeable/token/ERC20/ERC20Upgradeable.sol\":4802:4999  function approve(address spender, uint256 amount) public virtual override returns (bool) {... */\n    tag_54:\n        /* \"@openzeppelin/contracts-upgradeable/token/ERC20/ERC20Upgradeable.sol\":4885:4889  bool */\n      0x00\n        /* \"@openzeppelin/contracts-upgradeable/utils/ContextUpgradeable.sol\":965:975  msg.sender */\n      caller\n        /* \"@openzeppelin/contracts-upgradeable/token/ERC20/ERC20Upgradeable.sol\":4939:4971  _approve(owner, spender, amount) */\n      tag_172\n        /* \"@openzeppelin/contracts-upgradeable/utils/ContextUpgradeable.sol\":965:975  msg.sender */\n      dup2\n        /* \"@openzeppelin/contracts-upgradeable/token/ERC20/ERC20Upgradeable.sol\":4955:4962  spender */\n      dup6\n        /* \"@openzeppelin/contracts-upgradeable/token/ERC20/ERC20Upgradeable.sol\":4964:4970  amount */\n      dup6\n        /* \"@openzeppelin/contracts-upgradeable/token/ERC20/ERC20Upgradeable.sol\":4939:4947  _approve */\n      tag_173\n        /* \"@openzeppelin/contracts-upgradeable/token/ERC20/ERC20Upgradeable.sol\":4939:4971  _approve(owner, spender, amount) */\n      jump\t// in\n    tag_172:\n      pop\n        /* \"@openzeppelin/contracts-upgradeable/token/ERC20/ERC20Upgradeable.sol\":4988:4992  true */\n      0x01\n      swap4\n        /* \"@openzeppelin/contracts-upgradeable/token/ERC20/ERC20Upgradeable.sol\":4802:4999  function approve(address spender, uint256 amount) public virtual override returns (bool) {... */\n      swap3\n      pop\n      pop\n      pop\n      jump\t// out\n        /* \"contracts/tokens/AlvaraAvax.sol\":1201:1419  function transferFrom(... */\n    tag_63:\n        /* \"contracts/utils/WithSupervisedTransfersAvax.sol\":1774:1790  listingTimestamp */\n      sload(0x012d)\n        /* \"contracts/tokens/AlvaraAvax.sol\":1353:1357  bool */\n      0x00\n      swap1\n        /* \"contracts/tokens/AlvaraAvax.sol\":1334:1338  from */\n      dup5\n      swap1\n        /* \"contracts/tokens/AlvaraAvax.sol\":1340:1342  to */\n      dup5\n      swap1\n        /* \"contracts/tokens/AlvaraAvax.sol\":1353:1357  bool */\n      dup4\n      swap1\n        /* \"contracts/utils/WithSupervisedTransfersAvax.sol\":1774:1790  listingTimestamp */\n      0xffffffff\n      and\n        /* \"contracts/utils/WithSupervisedTransfersAvax.sol\":1774:1795  listingTimestamp == 0 */\n      iszero\n      dup1\n        /* \"contracts/utils/WithSupervisedTransfersAvax.sol\":1774:1845  listingTimestamp == 0 ||... */\n      tag_176\n      jumpi\n      pop\n        /* \"contracts/utils/WithSupervisedTransfersAvax.sol\":1829:1845  listingTimestamp */\n      and(0xffffffff, sload(0x012d))\n        /* \"contracts/utils/WithSupervisedTransfersAvax.sol\":1811:1826  block.timestamp */\n      timestamp\n        /* \"contracts/utils/WithSupervisedTransfersAvax.sol\":1811:1845  block.timestamp < listingTimestamp */\n      lt\n        /* \"contracts/utils/WithSupervisedTransfersAvax.sol\":1774:1845  listingTimestamp == 0 ||... */\n    tag_176:\n        /* \"contracts/utils/WithSupervisedTransfersAvax.sol\":1741:1845  bool duringSupervisedTransfers = listingTimestamp == 0 ||... */\n      swap1\n      pop\n        /* \"contracts/utils/WithSupervisedTransfersAvax.sol\":1859:1884  duringSupervisedTransfers */\n      dup1\n        /* \"contracts/utils/WithSupervisedTransfersAvax.sol\":1855:2285  if (duringSupervisedTransfers) {... */\n      iszero\n      tag_177\n      jumpi\n        /* \"contracts/utils/WithSupervisedTransfersAvax.sol\":1900:1929  bool transactionInvolvesAdmin */\n      0x00\n        /* \"contracts/utils/WithSupervisedTransfersAvax.sol\":1932:1965  hasRole(DEFAULT_ADMIN_ROLE, from) */\n      tag_178\n        /* \"contracts/utils/WithSupervisedTransfersAvax.sol\":1900:1929  bool transactionInvolvesAdmin */\n      dup2\n        /* \"contracts/utils/WithSupervisedTransfersAvax.sol\":1960:1964  from */\n      dup6\n        /* \"contracts/utils/WithSupervisedTransfersAvax.sol\":1932:1939  hasRole */\n      tag_114\n        /* \"contracts/utils/WithSupervisedTransfersAvax.sol\":1932:1965  hasRole(DEFAULT_ADMIN_ROLE, from) */\n      jump\t// in\n    tag_178:\n        /* \"contracts/utils/WithSupervisedTransfersAvax.sol\":1932:2016  hasRole(DEFAULT_ADMIN_ROLE, from) ||... */\n      dup1\n      tag_180\n      jumpi\n      pop\n        /* \"contracts/utils/WithSupervisedTransfersAvax.sol\":1985:2016  hasRole(DEFAULT_ADMIN_ROLE, to) */\n      tag_180\n        /* \"@openzeppelin/contracts-upgradeable/access/AccessControlUpgradeable.sol\":2365:2369  0x00 */\n      0x00\n        /* \"contracts/utils/WithSupervisedTransfersAvax.sol\":2013:2015  to */\n      dup5\n        /* \"contracts/utils/WithSupervisedTransfersAvax.sol\":1985:1992  hasRole */\n      tag_114\n        /* \"contracts/utils/WithSupervisedTransfersAvax.sol\":1985:2016  hasRole(DEFAULT_ADMIN_ROLE, to) */\n      jump\t// in\n    tag_180:\n        /* \"contracts/utils/WithSupervisedTransfersAvax.sol\":1932:2077  hasRole(DEFAULT_ADMIN_ROLE, from) ||... */\n      dup1\n      tag_182\n      jumpi\n      pop\n        /* \"contracts/utils/WithSupervisedTransfersAvax.sol\":2036:2077  hasRole(DEFAULT_ADMIN_ROLE, _msgSender()) */\n      tag_182\n        /* \"@openzeppelin/contracts-upgradeable/access/AccessControlUpgradeable.sol\":2365:2369  0x00 */\n      0x00\n        /* \"@openzeppelin/contracts-upgradeable/utils/ContextUpgradeable.sol\":965:975  msg.sender */\n      caller\n        /* \"@openzeppelin/contracts-upgradeable/access/AccessControlUpgradeable.sol\":3350:3495  function hasRole(bytes32 role, address account) public view virtual override returns (bool) {... */\n      tag_114\n      jump\t// in\n        /* \"contracts/utils/WithSupervisedTransfersAvax.sol\":2036:2077  hasRole(DEFAULT_ADMIN_ROLE, _msgSender()) */\n    tag_182:\n        /* \"contracts/utils/WithSupervisedTransfersAvax.sol\":1900:2077  bool transactionInvolvesAdmin = hasRole(DEFAULT_ADMIN_ROLE, from) ||... */\n      swap1\n      pop\n        /* \"contracts/utils/WithSupervisedTransfersAvax.sol\":2113:2137  transactionInvolvesAdmin */\n      dup1\n        /* \"contracts/utils/WithSupervisedTransfersAvax.sol\":2112:2137  !transactionInvolvesAdmin */\n      iszero\n        /* \"contracts/utils/WithSupervisedTransfersAvax.sol\":2112:2197  !transactionInvolvesAdmin &&... */\n      dup1\n      iszero\n      tag_184\n      jumpi\n      pop\n        /* \"contracts/utils/WithSupervisedTransfersAvax.sol\":2158:2197  hasRole(ALLOWED_TRANSFER_FROM_ROLE, to) */\n      tag_185\n        /* \"contracts/utils/WithSupervisedTransfersAvax.sol\":1319:1358  keccak256(\"ALLOWED_TRANSFER_FROM_ROLE\") */\n      0x2f26ac9ab74d35285b05b7b0d4a0f2ffdef33823bc15863d6299dbdd56e7b6b0\n        /* \"contracts/utils/WithSupervisedTransfersAvax.sol\":2194:2196  to */\n      dup5\n        /* \"contracts/utils/WithSupervisedTransfersAvax.sol\":2158:2165  hasRole */\n      tag_114\n        /* \"contracts/utils/WithSupervisedTransfersAvax.sol\":2158:2197  hasRole(ALLOWED_TRANSFER_FROM_ROLE, to) */\n      jump\t// in\n    tag_185:\n        /* \"contracts/utils/WithSupervisedTransfersAvax.sol\":2157:2197  !hasRole(ALLOWED_TRANSFER_FROM_ROLE, to) */\n      iszero\n        /* \"contracts/utils/WithSupervisedTransfersAvax.sol\":2112:2197  !transactionInvolvesAdmin &&... */\n    tag_184:\n        /* \"contracts/utils/WithSupervisedTransfersAvax.sol\":2091:2275  if (... */\n      iszero\n      tag_186\n      jumpi\n        /* \"contracts/utils/WithSupervisedTransfersAvax.sol\":2237:2260  SupervisedTranferFrom() */\n      mload(0x40)\n      shl(0xe0, 0xafae8e97)\n      dup2\n      mstore\n      0x04\n      add\n      mload(0x40)\n      dup1\n      swap2\n      sub\n      swap1\n      revert\n        /* \"contracts/utils/WithSupervisedTransfersAvax.sol\":2091:2275  if (... */\n    tag_186:\n        /* \"contracts/utils/WithSupervisedTransfersAvax.sol\":1886:2285  {... */\n      pop\n        /* \"contracts/utils/WithSupervisedTransfersAvax.sol\":1855:2285  if (duringSupervisedTransfers) {... */\n    tag_177:\n        /* \"contracts/tokens/AlvaraAvax.sol\":1376:1412  super.transferFrom(from, to, amount) */\n      tag_188\n        /* \"contracts/tokens/AlvaraAvax.sol\":1395:1399  from */\n      dup8\n        /* \"contracts/tokens/AlvaraAvax.sol\":1401:1403  to */\n      dup8\n        /* \"contracts/tokens/AlvaraAvax.sol\":1405:1411  amount */\n      dup8\n        /* \"contracts/tokens/AlvaraAvax.sol\":1376:1394  super.transferFrom */\n      tag_189\n        /* \"contracts/tokens/AlvaraAvax.sol\":1376:1412  super.transferFrom(from, to, amount) */\n      jump\t// in\n    tag_188:\n        /* \"contracts/tokens/AlvaraAvax.sol\":1369:1412  return super.transferFrom(from, to, amount) */\n      swap8\n        /* \"contracts/tokens/AlvaraAvax.sol\":1201:1419  function transferFrom(... */\n      swap7\n      pop\n      pop\n      pop\n      pop\n      pop\n      pop\n      pop\n      jump\t// out\n        /* \"@openzeppelin/contracts-upgradeable/access/AccessControlUpgradeable.sol\":5280:5425  function grantRole(bytes32 role, address account) public virtual override onlyRole(getRoleAdmin(role)) {... */\n    tag_74:\n        /* \"@openzeppelin/contracts-upgradeable/access/AccessControlUpgradeable.sol\":4929:4936  bytes32 */\n      0x00\n        /* \"@openzeppelin/contracts-upgradeable/access/AccessControlUpgradeable.sol\":4955:4967  _roles[role] */\n      dup3\n      dup2\n      mstore\n        /* \"@openzeppelin/contracts-upgradeable/access/AccessControlUpgradeable.sol\":4955:4961  _roles */\n      0xfb\n        /* \"@openzeppelin/contracts-upgradeable/access/AccessControlUpgradeable.sol\":4955:4967  _roles[role] */\n      0x20\n      mstore\n      0x40\n      swap1\n      keccak256\n        /* \"@openzeppelin/contracts-upgradeable/access/AccessControlUpgradeable.sol\":4955:4977  _roles[role].adminRole */\n      0x01\n      add\n      sload\n        /* \"@openzeppelin/contracts-upgradeable/access/AccessControlUpgradeable.sol\":2798:2814  _checkRole(role) */\n      tag_193\n        /* \"@openzeppelin/contracts-upgradeable/access/AccessControlUpgradeable.sol\":2809:2813  role */\n      dup2\n        /* \"@openzeppelin/contracts-upgradeable/access/AccessControlUpgradeable.sol\":2798:2808  _checkRole */\n      tag_194\n        /* \"@openzeppelin/contracts-upgradeable/access/AccessControlUpgradeable.sol\":2798:2814  _checkRole(role) */\n      jump\t// in\n    tag_193:\n        /* \"@openzeppelin/contracts-upgradeable/access/AccessControlUpgradeable.sol\":5393:5418  _grantRole(role, account) */\n      tag_196\n        /* \"@openzeppelin/contracts-upgradeable/access/AccessControlUpgradeable.sol\":5404:5408  role */\n      dup4\n        /* \"@openzeppelin/contracts-upgradeable/access/AccessControlUpgradeable.sol\":5410:5417  account */\n      dup4\n        /* \"@openzeppelin/contracts-upgradeable/access/AccessControlUpgradeable.sol\":5393:5403  _grantRole */\n      tag_197\n        /* \"@openzeppelin/contracts-upgradeable/access/AccessControlUpgradeable.sol\":5393:5418  _grantRole(role, account) */\n      jump\t// in\n    tag_196:\n        /* \"@openzeppelin/contracts-upgradeable/access/AccessControlUpgradeable.sol\":5280:5425  function grantRole(bytes32 role, address account) public virtual override onlyRole(getRoleAdmin(role)) {... */\n      pop\n      pop\n      pop\n      jump\t// out\n        /* \"@openzeppelin/contracts-upgradeable/access/AccessControlUpgradeable.sol\":6389:6603  function renounceRole(bytes32 role, address account) public virtual override {... */\n    tag_81:\n      sub(shl(0xa0, 0x01), 0x01)\n        /* \"@openzeppelin/contracts-upgradeable/access/AccessControlUpgradeable.sol\":6484:6507  account == _msgSender() */\n      dup2\n      and\n        /* \"@openzeppelin/contracts-upgradeable/utils/ContextUpgradeable.sol\":965:975  msg.sender */\n      caller\n        /* \"@openzeppelin/contracts-upgradeable/access/AccessControlUpgradeable.sol\":6484:6507  account == _msgSender() */\n      eq\n        /* \"@openzeppelin/contracts-upgradeable/access/AccessControlUpgradeable.sol\":6476:6559  require(account == _msgSender(), \"AccessControl: can only renounce roles for self\") */\n      tag_201\n      jumpi\n      mload(0x40)\n      shl(0xe5, 0x461bcd)\n      dup2\n      mstore\n        /* \"#utility.yul\":4831:4833   */\n      0x20\n        /* \"@openzeppelin/contracts-upgradeable/access/AccessControlUpgradeable.sol\":6476:6559  require(account == _msgSender(), \"AccessControl: can only renounce roles for self\") */\n      0x04\n      dup3\n      add\n        /* \"#utility.yul\":4813:4834   */\n      mstore\n        /* \"#utility.yul\":4870:4872   */\n      0x2f\n        /* \"#utility.yul\":4850:4868   */\n      0x24\n      dup3\n      add\n        /* \"#utility.yul\":4843:4873   */\n      mstore\n        /* \"#utility.yul\":4909:4943   */\n      0x416363657373436f6e74726f6c3a2063616e206f6e6c792072656e6f756e6365\n        /* \"#utility.yul\":4889:4907   */\n      0x44\n      dup3\n      add\n        /* \"#utility.yul\":4882:4944   */\n      mstore\n      shl(0x89, 0x103937b632b9903337b91039b2b633)\n        /* \"#utility.yul\":4960:4978   */\n      0x64\n      dup3\n      add\n        /* \"#utility.yul\":4953:4998   */\n      mstore\n        /* \"#utility.yul\":5015:5034   */\n      0x84\n      add\n        /* \"@openzeppelin/contracts-upgradeable/access/AccessControlUpgradeable.sol\":6476:6559  require(account == _msgSender(), \"AccessControl: can only renounce roles for self\") */\n    tag_202:\n      mload(0x40)\n      dup1\n      swap2\n      sub\n      swap1\n      revert\n    tag_201:\n        /* \"@openzeppelin/contracts-upgradeable/access/AccessControlUpgradeable.sol\":6570:6596  _revokeRole(role, account) */\n      tag_204\n        /* \"@openzeppelin/contracts-upgradeable/access/AccessControlUpgradeable.sol\":6582:6586  role */\n      dup3\n        /* \"@openzeppelin/contracts-upgradeable/access/AccessControlUpgradeable.sol\":6588:6595  account */\n      dup3\n        /* \"@openzeppelin/contracts-upgradeable/access/AccessControlUpgradeable.sol\":6570:6581  _revokeRole */\n      tag_205\n        /* \"@openzeppelin/contracts-upgradeable/access/AccessControlUpgradeable.sol\":6570:6596  _revokeRole(role, account) */\n      jump\t// in\n    tag_204:\n        /* \"@openzeppelin/contracts-upgradeable/access/AccessControlUpgradeable.sol\":6389:6603  function renounceRole(bytes32 role, address account) public virtual override {... */\n      pop\n      pop\n      jump\t// out\n        /* \"@openzeppelin/contracts-upgradeable/token/ERC20/ERC20Upgradeable.sol\":6212:6446  function increaseAllowance(address spender, uint256 addedValue) public virtual returns (bool) {... */\n    tag_84:\n        /* \"@openzeppelin/contracts-upgradeable/token/ERC20/ERC20Upgradeable.sol\":6300:6304  bool */\n      0x00\n        /* \"@openzeppelin/contracts-upgradeable/utils/ContextUpgradeable.sol\":965:975  msg.sender */\n      caller\n        /* \"@openzeppelin/contracts-upgradeable/token/ERC20/ERC20Upgradeable.sol\":6354:6418  _approve(owner, spender, allowance(owner, spender) + addedValue) */\n      tag_172\n        /* \"@openzeppelin/contracts-upgradeable/utils/ContextUpgradeable.sol\":965:975  msg.sender */\n      dup2\n        /* \"@openzeppelin/contracts-upgradeable/token/ERC20/ERC20Upgradeable.sol\":6370:6377  spender */\n      dup6\n        /* \"@openzeppelin/contracts-upgradeable/token/ERC20/ERC20Upgradeable.sol\":6407:6417  addedValue */\n      dup6\n        /* \"@openzeppelin/contracts-upgradeable/token/ERC20/ERC20Upgradeable.sol\":6379:6404  allowance(owner, spender) */\n      tag_209\n        /* \"@openzeppelin/contracts-upgradeable/utils/ContextUpgradeable.sol\":965:975  msg.sender */\n      dup4\n        /* \"@openzeppelin/contracts-upgradeable/token/ERC20/ERC20Upgradeable.sol\":6370:6377  spender */\n      dup4\n        /* \"@openzeppelin/contracts-upgradeable/token/ERC20/ERC20Upgradeable.sol\":6379:6388  allowance */\n      tag_149\n        /* \"@openzeppelin/contracts-upgradeable/token/ERC20/ERC20Upgradeable.sol\":6379:6404  allowance(owner, spender) */\n      jump\t// in\n    tag_209:\n        /* \"@openzeppelin/contracts-upgradeable/token/ERC20/ERC20Upgradeable.sol\":6379:6417  allowance(owner, spender) + addedValue */\n      tag_210\n      swap2\n      swap1\n      tag_211\n      jump\t// in\n    tag_210:\n        /* \"@openzeppelin/contracts-upgradeable/token/ERC20/ERC20Upgradeable.sol\":6354:6362  _approve */\n      tag_173\n        /* \"@openzeppelin/contracts-upgradeable/token/ERC20/ERC20Upgradeable.sol\":6354:6418  _approve(owner, spender, allowance(owner, spender) + addedValue) */\n      jump\t// in\n        /* \"contracts/tokens/AlvaraAvax.sol\":965:1076  function mint(address to, uint256 amount) public onlyRole(MINTER_ROLE) {... */\n    tag_88:\n        /* \"contracts/tokens/AlvaraAvax.sol\":654:678  keccak256(\"MINTER_ROLE\") */\n      0x9f2df0fed2c77648de5860a4cc508cd0818c85b8b8a1ab4ceeef8d981c8956a6\n        /* \"@openzeppelin/contracts-upgradeable/access/AccessControlUpgradeable.sol\":2798:2814  _checkRole(role) */\n      tag_213\n        /* \"@openzeppelin/contracts-upgradeable/access/AccessControlUpgradeable.sol\":2809:2813  role */\n      dup2\n        /* \"@openzeppelin/contracts-upgradeable/access/AccessControlUpgradeable.sol\":2798:2808  _checkRole */\n      tag_194\n        /* \"@openzeppelin/contracts-upgradeable/access/AccessControlUpgradeable.sol\":2798:2814  _checkRole(role) */\n      jump\t// in\n    tag_213:\n        /* \"contracts/tokens/AlvaraAvax.sol\":1046:1069  super._mint(to, amount) */\n      tag_196\n        /* \"contracts/tokens/AlvaraAvax.sol\":1058:1060  to */\n      dup4\n        /* \"contracts/tokens/AlvaraAvax.sol\":1062:1068  amount */\n      dup4\n        /* \"contracts/tokens/AlvaraAvax.sol\":1046:1057  super._mint */\n      tag_216\n        /* \"contracts/tokens/AlvaraAvax.sol\":1046:1069  super._mint(to, amount) */\n      jump\t// in\n        /* \"@openzeppelin/contracts-upgradeable/token/ERC20/extensions/ERC20BurnableUpgradeable.sol\":869:958  function burn(uint256 amount) public virtual {... */\n    tag_92:\n        /* \"@openzeppelin/contracts-upgradeable/token/ERC20/extensions/ERC20BurnableUpgradeable.sol\":924:951  _burn(_msgSender(), amount) */\n      tag_218\n        /* \"@openzeppelin/contracts-upgradeable/utils/ContextUpgradeable.sol\":965:975  msg.sender */\n      caller\n        /* \"@openzeppelin/contracts-upgradeable/token/ERC20/extensions/ERC20BurnableUpgradeable.sol\":944:950  amount */\n      dup3\n        /* \"@openzeppelin/contracts-upgradeable/token/ERC20/extensions/ERC20BurnableUpgradeable.sol\":924:929  _burn */\n      tag_220\n        /* \"@openzeppelin/contracts-upgradeable/token/ERC20/extensions/ERC20BurnableUpgradeable.sol\":924:951  _burn(_msgSender(), amount) */\n      jump\t// in\n    tag_218:\n        /* \"@openzeppelin/contracts-upgradeable/token/ERC20/extensions/ERC20BurnableUpgradeable.sol\":869:958  function burn(uint256 amount) public virtual {... */\n      pop\n      jump\t// out\n        /* \"@openzeppelin/contracts-upgradeable/access/OwnableUpgradeable.sol\":2085:2186  function renounceOwnership() public virtual onlyOwner {... */\n    tag_102:\n        /* \"@openzeppelin/contracts-upgradeable/access/OwnableUpgradeable.sol\":1355:1368  _checkOwner() */\n      tag_223\n        /* \"@openzeppelin/contracts-upgradeable/access/OwnableUpgradeable.sol\":1355:1366  _checkOwner */\n      tag_224\n        /* \"@openzeppelin/contracts-upgradeable/access/OwnableUpgradeable.sol\":1355:1368  _checkOwner() */\n      jump\t// in\n    tag_223:\n        /* \"@openzeppelin/contracts-upgradeable/access/OwnableUpgradeable.sol\":2149:2179  _transferOwnership(address(0)) */\n      tag_226\n        /* \"@openzeppelin/contracts-upgradeable/access/OwnableUpgradeable.sol\":2176:2177  0 */\n      0x00\n        /* \"@openzeppelin/contracts-upgradeable/access/OwnableUpgradeable.sol\":2149:2167  _transferOwnership */\n      tag_227\n        /* \"@openzeppelin/contracts-upgradeable/access/OwnableUpgradeable.sol\":2149:2179  _transferOwnership(address(0)) */\n      jump\t// in\n    tag_226:\n        /* \"@openzeppelin/contracts-upgradeable/access/OwnableUpgradeable.sol\":2085:2186  function renounceOwnership() public virtual onlyOwner {... */\n      jump\t// out\n        /* \"@openzeppelin/contracts-upgradeable/token/ERC20/extensions/ERC20BurnableUpgradeable.sol\":1264:1425  function burnFrom(address account, uint256 amount) public virtual {... */\n    tag_105:\n        /* \"@openzeppelin/contracts-upgradeable/token/ERC20/extensions/ERC20BurnableUpgradeable.sol\":1340:1386  _spendAllowance(account, _msgSender(), amount) */\n      tag_229\n        /* \"@openzeppelin/contracts-upgradeable/token/ERC20/extensions/ERC20BurnableUpgradeable.sol\":1356:1363  account */\n      dup3\n        /* \"@openzeppelin/contracts-upgradeable/utils/ContextUpgradeable.sol\":965:975  msg.sender */\n      caller\n        /* \"@openzeppelin/contracts-upgradeable/token/ERC20/extensions/ERC20BurnableUpgradeable.sol\":1379:1385  amount */\n      dup4\n        /* \"@openzeppelin/contracts-upgradeable/token/ERC20/extensions/ERC20BurnableUpgradeable.sol\":1340:1355  _spendAllowance */\n      tag_231\n        /* \"@openzeppelin/contracts-upgradeable/token/ERC20/extensions/ERC20BurnableUpgradeable.sol\":1340:1386  _spendAllowance(account, _msgSender(), amount) */\n      jump\t// in\n    tag_229:\n        /* \"@openzeppelin/contracts-upgradeable/token/ERC20/extensions/ERC20BurnableUpgradeable.sol\":1396:1418  _burn(account, amount) */\n      tag_204\n        /* \"@openzeppelin/contracts-upgradeable/token/ERC20/extensions/ERC20BurnableUpgradeable.sol\":1402:1409  account */\n      dup3\n        /* \"@openzeppelin/contracts-upgradeable/token/ERC20/extensions/ERC20BurnableUpgradeable.sol\":1411:1417  amount */\n      dup3\n        /* \"@openzeppelin/contracts-upgradeable/token/ERC20/extensions/ERC20BurnableUpgradeable.sol\":1396:1401  _burn */\n      tag_220\n        /* \"@openzeppelin/contracts-upgradeable/token/ERC20/extensions/ERC20BurnableUpgradeable.sol\":1396:1418  _burn(account, amount) */\n      jump\t// in\n        /* \"contracts/tokens/AlvaraAvax.sol\":749:959  function initialize() public initializer {... */\n    tag_107:\n        /* \"@openzeppelin/contracts-upgradeable/proxy/utils/Initializable.sol\":3279:3298  bool isTopLevelCall */\n      0x00\n        /* \"@openzeppelin/contracts-upgradeable/proxy/utils/Initializable.sol\":3302:3315  _initializing */\n      sload\n      0x0100\n      swap1\n      div\n      0xff\n      and\n        /* \"@openzeppelin/contracts-upgradeable/proxy/utils/Initializable.sol\":3301:3315  !_initializing */\n      iszero\n      dup1\n        /* \"@openzeppelin/contracts-upgradeable/proxy/utils/Initializable.sol\":3347:3381  isTopLevelCall && _initialized < 1 */\n      dup1\n      iszero\n      tag_234\n      jumpi\n      pop\n        /* \"@openzeppelin/contracts-upgradeable/proxy/utils/Initializable.sol\":3365:3377  _initialized */\n      sload(0x00)\n        /* \"@openzeppelin/contracts-upgradeable/proxy/utils/Initializable.sol\":3380:3381  1 */\n      0x01\n        /* \"@openzeppelin/contracts-upgradeable/proxy/utils/Initializable.sol\":3365:3377  _initialized */\n      0xff\n      swap1\n      swap2\n      and\n        /* \"@openzeppelin/contracts-upgradeable/proxy/utils/Initializable.sol\":3365:3381  _initialized < 1 */\n      lt\n        /* \"@openzeppelin/contracts-upgradeable/proxy/utils/Initializable.sol\":3347:3381  isTopLevelCall && _initialized < 1 */\n    tag_234:\n        /* \"@openzeppelin/contracts-upgradeable/proxy/utils/Initializable.sol\":3346:3454  (isTopLevelCall && _initialized < 1) || (!AddressUpgradeable.isContract(address(this)) && _initialized == 1) */\n      dup1\n      tag_238\n      jumpi\n      pop\n        /* \"@openzeppelin/contracts-upgradeable/proxy/utils/Initializable.sol\":3426:3430  this */\n      address\n        /* \"@openzeppelin/contracts-upgradeable/utils/AddressUpgradeable.sol\":1713:1732  account.code.length */\n      extcodesize\n        /* \"@openzeppelin/contracts-upgradeable/utils/AddressUpgradeable.sol\":1713:1736  account.code.length > 0 */\n      iszero\n      dup1\n      iszero\n        /* \"@openzeppelin/contracts-upgradeable/proxy/utils/Initializable.sol\":3387:3453  !AddressUpgradeable.isContract(address(this)) && _initialized == 1 */\n      tag_238\n      jumpi\n      pop\n        /* \"@openzeppelin/contracts-upgradeable/proxy/utils/Initializable.sol\":3436:3448  _initialized */\n      and(0xff, sload(0x00))\n      0x01\n        /* \"@openzeppelin/contracts-upgradeable/proxy/utils/Initializable.sol\":3436:3453  _initialized == 1 */\n      eq\n        /* \"@openzeppelin/contracts-upgradeable/proxy/utils/Initializable.sol\":3387:3453  !AddressUpgradeable.isContract(address(this)) && _initialized == 1 */\n    tag_238:\n        /* \"@openzeppelin/contracts-upgradeable/proxy/utils/Initializable.sol\":3325:3526  require(... */\n      tag_239\n      jumpi\n      mload(0x40)\n      shl(0xe5, 0x461bcd)\n      dup2\n      mstore\n        /* \"#utility.yul\":5509:5511   */\n      0x20\n        /* \"@openzeppelin/contracts-upgradeable/proxy/utils/Initializable.sol\":3325:3526  require(... */\n      0x04\n      dup3\n      add\n        /* \"#utility.yul\":5491:5512   */\n      mstore\n        /* \"#utility.yul\":5548:5550   */\n      0x2e\n        /* \"#utility.yul\":5528:5546   */\n      0x24\n      dup3\n      add\n        /* \"#utility.yul\":5521:5551   */\n      mstore\n        /* \"#utility.yul\":5587:5621   */\n      0x496e697469616c697a61626c653a20636f6e747261637420697320616c726561\n        /* \"#utility.yul\":5567:5585   */\n      0x44\n      dup3\n      add\n        /* \"#utility.yul\":5560:5622   */\n      mstore\n      shl(0x92, 0x191e481a5b9a5d1a585b1a5e9959)\n        /* \"#utility.yul\":5638:5656   */\n      0x64\n      dup3\n      add\n        /* \"#utility.yul\":5631:5675   */\n      mstore\n        /* \"#utility.yul\":5692:5711   */\n      0x84\n      add\n        /* \"@openzeppelin/contracts-upgradeable/proxy/utils/Initializable.sol\":3325:3526  require(... */\n      tag_202\n        /* \"#utility.yul\":5307:5717   */\n      jump\n        /* \"@openzeppelin/contracts-upgradeable/proxy/utils/Initializable.sol\":3325:3526  require(... */\n    tag_239:\n        /* \"@openzeppelin/contracts-upgradeable/proxy/utils/Initializable.sol\":3536:3548  _initialized */\n      0x00\n        /* \"@openzeppelin/contracts-upgradeable/proxy/utils/Initializable.sol\":3536:3552  _initialized = 1 */\n      dup1\n      sload\n      not(0xff)\n      and\n        /* \"@openzeppelin/contracts-upgradeable/proxy/utils/Initializable.sol\":3551:3552  1 */\n      0x01\n        /* \"@openzeppelin/contracts-upgradeable/proxy/utils/Initializable.sol\":3536:3552  _initialized = 1 */\n      or\n      swap1\n      sstore\n        /* \"@openzeppelin/contracts-upgradeable/proxy/utils/Initializable.sol\":3562:3627  if (isTopLevelCall) {... */\n      dup1\n      iszero\n      tag_242\n      jumpi\n        /* \"@openzeppelin/contracts-upgradeable/proxy/utils/Initializable.sol\":3596:3609  _initializing */\n      0x00\n        /* \"@openzeppelin/contracts-upgradeable/proxy/utils/Initializable.sol\":3596:3616  _initializing = true */\n      dup1\n      sload\n      not(0xff00)\n      and\n      0x0100\n      or\n      swap1\n      sstore\n        /* \"@openzeppelin/contracts-upgradeable/proxy/utils/Initializable.sol\":3562:3627  if (isTopLevelCall) {... */\n    tag_242:\n        /* \"contracts/tokens/AlvaraAvax.sol\":800:830  __ERC20_init(\"Alvara\", \"ALVA\") */\n      tag_244\n      mload(0x40)\n      dup1\n      0x40\n      add\n      0x40\n      mstore\n      dup1\n      0x06\n      dup2\n      mstore\n      0x20\n      add\n      shl(0xd0, 0x416c76617261)\n      dup2\n      mstore\n      pop\n      mload(0x40)\n      dup1\n      0x40\n      add\n      0x40\n      mstore\n      dup1\n      0x04\n      dup2\n      mstore\n      0x20\n      add\n      shl(0xe0, 0x414c5641)\n      dup2\n      mstore\n      pop\n        /* \"contracts/tokens/AlvaraAvax.sol\":800:812  __ERC20_init */\n      tag_245\n        /* \"contracts/tokens/AlvaraAvax.sol\":800:830  __ERC20_init(\"Alvara\", \"ALVA\") */\n      jump\t// in\n    tag_244:\n        /* \"contracts/tokens/AlvaraAvax.sol\":840:862  __ERC20Burnable_init() */\n      tag_246\n        /* \"contracts/tokens/AlvaraAvax.sol\":840:860  __ERC20Burnable_init */\n      tag_247\n        /* \"contracts/tokens/AlvaraAvax.sol\":840:862  __ERC20Burnable_init() */\n      jump\t// in\n    tag_246:\n        /* \"contracts/tokens/AlvaraAvax.sol\":872:926  __WithSupervisedTransfers_init(MINTER_ROLE, BURN_ROLE) */\n      tag_248\n        /* \"contracts/tokens/AlvaraAvax.sol\":654:678  keccak256(\"MINTER_ROLE\") */\n      0x9f2df0fed2c77648de5860a4cc508cd0818c85b8b8a1ab4ceeef8d981c8956a6\n        /* \"contracts/tokens/AlvaraAvax.sol\":720:742  keccak256(\"BURN_ROLE\") */\n      0xe97b137254058bd94f28d2f3eb79e2d34074ffb488d042e3bc958e0a57d2fa22\n        /* \"contracts/tokens/AlvaraAvax.sol\":872:902  __WithSupervisedTransfers_init */\n      tag_249\n        /* \"contracts/tokens/AlvaraAvax.sol\":872:926  __WithSupervisedTransfers_init(MINTER_ROLE, BURN_ROLE) */\n      jump\t// in\n    tag_248:\n        /* \"contracts/tokens/AlvaraAvax.sol\":936:952  __Ownable_init() */\n      tag_250\n        /* \"contracts/tokens/AlvaraAvax.sol\":936:950  __Ownable_init */\n      tag_251\n        /* \"contracts/tokens/AlvaraAvax.sol\":936:952  __Ownable_init() */\n      jump\t// in\n    tag_250:\n        /* \"@openzeppelin/contracts-upgradeable/proxy/utils/Initializable.sol\":3651:3665  isTopLevelCall */\n      dup1\n        /* \"@openzeppelin/contracts-upgradeable/proxy/utils/Initializable.sol\":3647:3746  if (isTopLevelCall) {... */\n      iszero\n      tag_218\n      jumpi\n        /* \"@openzeppelin/contracts-upgradeable/proxy/utils/Initializable.sol\":3697:3702  false */\n      0x00\n        /* \"@openzeppelin/contracts-upgradeable/proxy/utils/Initializable.sol\":3681:3702  _initializing = false */\n      dup1\n      sload\n      not(0xff00)\n      and\n      swap1\n      sstore\n        /* \"@openzeppelin/contracts-upgradeable/proxy/utils/Initializable.sol\":3721:3735  Initialized(1) */\n      mload(0x40)\n      0x01\n        /* \"#utility.yul\":2824:2860   */\n      dup2\n      mstore\n        /* \"@openzeppelin/contracts-upgradeable/proxy/utils/Initializable.sol\":3721:3735  Initialized(1) */\n      0x7f26b83ff96e1f2b6a682f133852f6798a09c465da95921460cefb3847402498\n      swap1\n        /* \"#utility.yul\":2812:2814   */\n      0x20\n        /* \"#utility.yul\":2797:2815   */\n      add\n        /* \"@openzeppelin/contracts-upgradeable/proxy/utils/Initializable.sol\":3721:3735  Initialized(1) */\n      mload(0x40)\n      dup1\n      swap2\n      sub\n      swap1\n      log1\n        /* \"@openzeppelin/contracts-upgradeable/proxy/utils/Initializable.sol\":3269:3752  {... */\n      pop\n        /* \"contracts/tokens/AlvaraAvax.sol\":749:959  function initialize() public initializer {... */\n      jump\t// out\n        /* \"@openzeppelin/contracts-upgradeable/access/AccessControlUpgradeable.sol\":3350:3495  function hasRole(bytes32 role, address account) public view virtual override returns (bool) {... */\n    tag_114:\n        /* \"@openzeppelin/contracts-upgradeable/access/AccessControlUpgradeable.sol\":3436:3440  bool */\n      0x00\n        /* \"@openzeppelin/contracts-upgradeable/access/AccessControlUpgradeable.sol\":3459:3471  _roles[role] */\n      swap2\n      dup3\n      mstore\n        /* \"@openzeppelin/contracts-upgradeable/access/AccessControlUpgradeable.sol\":3459:3465  _roles */\n      0xfb\n        /* \"@openzeppelin/contracts-upgradeable/access/AccessControlUpgradeable.sol\":3459:3471  _roles[role] */\n      0x20\n      swap1\n      dup2\n      mstore\n      0x40\n      dup1\n      dup5\n      keccak256\n      sub(shl(0xa0, 0x01), 0x01)\n        /* \"@openzeppelin/contracts-upgradeable/access/AccessControlUpgradeable.sol\":3459:3488  _roles[role].members[account] */\n      swap4\n      swap1\n      swap4\n      and\n      dup5\n      mstore\n      swap2\n      swap1\n      mstore\n      swap1\n      keccak256\n      sload\n      0xff\n      and\n      swap1\n        /* \"@openzeppelin/contracts-upgradeable/access/AccessControlUpgradeable.sol\":3350:3495  function hasRole(bytes32 role, address account) public view virtual override returns (bool) {... */\n      jump\t// out\n        /* \"@openzeppelin/contracts-upgradeable/token/ERC20/ERC20Upgradeable.sol\":2727:2829  function symbol() public view virtual override returns (string memory) {... */\n    tag_117:\n        /* \"@openzeppelin/contracts-upgradeable/token/ERC20/ERC20Upgradeable.sol\":2783:2796  string memory */\n      0x60\n        /* \"@openzeppelin/contracts-upgradeable/token/ERC20/ERC20Upgradeable.sol\":2815:2822  _symbol */\n      0x37\n        /* \"@openzeppelin/contracts-upgradeable/token/ERC20/ERC20Upgradeable.sol\":2808:2822  return _symbol */\n      dup1\n      sload\n      tag_163\n      swap1\n      tag_164\n      jump\t// in\n        /* \"contracts/tokens/AlvaraAvax.sol\":1082:1195  function burn(address from, uint256 amount) public onlyRole(BURN_ROLE) {... */\n    tag_121:\n        /* \"contracts/tokens/AlvaraAvax.sol\":720:742  keccak256(\"BURN_ROLE\") */\n      0xe97b137254058bd94f28d2f3eb79e2d34074ffb488d042e3bc958e0a57d2fa22\n        /* \"@openzeppelin/contracts-upgradeable/access/AccessControlUpgradeable.sol\":2798:2814  _checkRole(role) */\n      tag_264\n        /* \"@openzeppelin/contracts-upgradeable/access/AccessControlUpgradeable.sol\":2809:2813  role */\n      dup2\n        /* \"@openzeppelin/contracts-upgradeable/access/AccessControlUpgradeable.sol\":2798:2808  _checkRole */\n      tag_194\n        /* \"@openzeppelin/contracts-upgradeable/access/AccessControlUpgradeable.sol\":2798:2814  _checkRole(role) */\n      jump\t// in\n    tag_264:\n        /* \"contracts/tokens/AlvaraAvax.sol\":1163:1188  super._burn(from, amount) */\n      tag_196\n        /* \"contracts/tokens/AlvaraAvax.sol\":1175:1179  from */\n      dup4\n        /* \"contracts/tokens/AlvaraAvax.sol\":1181:1187  amount */\n      dup4\n        /* \"contracts/tokens/AlvaraAvax.sol\":1163:1174  super._burn */\n      tag_220\n        /* \"contracts/tokens/AlvaraAvax.sol\":1163:1188  super._burn(from, amount) */\n      jump\t// in\n        /* \"@openzeppelin/contracts-upgradeable/token/ERC20/ERC20Upgradeable.sol\":6933:7360  function decreaseAllowance(address spender, uint256 subtractedValue) public virtual returns (bool) {... */\n    tag_127:\n        /* \"@openzeppelin/contracts-upgradeable/token/ERC20/ERC20Upgradeable.sol\":7026:7030  bool */\n      0x00\n        /* \"@openzeppelin/contracts-upgradeable/utils/ContextUpgradeable.sol\":965:975  msg.sender */\n      caller\n        /* \"@openzeppelin/contracts-upgradeable/token/ERC20/ERC20Upgradeable.sol\":7026:7030  bool */\n      dup2\n        /* \"@openzeppelin/contracts-upgradeable/token/ERC20/ERC20Upgradeable.sol\":7107:7132  allowance(owner, spender) */\n      tag_269\n        /* \"@openzeppelin/contracts-upgradeable/utils/ContextUpgradeable.sol\":965:975  msg.sender */\n      dup3\n        /* \"@openzeppelin/contracts-upgradeable/token/ERC20/ERC20Upgradeable.sol\":7124:7131  spender */\n      dup7\n        /* \"@openzeppelin/contracts-upgradeable/token/ERC20/ERC20Upgradeable.sol\":7107:7116  allowance */\n      tag_149\n        /* \"@openzeppelin/contracts-upgradeable/token/ERC20/ERC20Upgradeable.sol\":7107:7132  allowance(owner, spender) */\n      jump\t// in\n    tag_269:\n        /* \"@openzeppelin/contracts-upgradeable/token/ERC20/ERC20Upgradeable.sol\":7080:7132  uint256 currentAllowance = allowance(owner, spender) */\n      swap1\n      pop\n        /* \"@openzeppelin/contracts-upgradeable/token/ERC20/ERC20Upgradeable.sol\":7170:7185  subtractedValue */\n      dup4\n        /* \"@openzeppelin/contracts-upgradeable/token/ERC20/ERC20Upgradeable.sol\":7150:7166  currentAllowance */\n      dup2\n        /* \"@openzeppelin/contracts-upgradeable/token/ERC20/ERC20Upgradeable.sol\":7150:7185  currentAllowance >= subtractedValue */\n      lt\n      iszero\n        /* \"@openzeppelin/contracts-upgradeable/token/ERC20/ERC20Upgradeable.sol\":7142:7227  require(currentAllowance >= subtractedValue, \"ERC20: decreased allowance below zero\") */\n      tag_270\n      jumpi\n      mload(0x40)\n      shl(0xe5, 0x461bcd)\n      dup2\n      mstore\n        /* \"#utility.yul\":6123:6125   */\n      0x20\n        /* \"@openzeppelin/contracts-upgradeable/token/ERC20/ERC20Upgradeable.sol\":7142:7227  require(currentAllowance >= subtractedValue, \"ERC20: decreased allowance below zero\") */\n      0x04\n      dup3\n      add\n        /* \"#utility.yul\":6105:6126   */\n      mstore\n        /* \"#utility.yul\":6162:6164   */\n      0x25\n        /* \"#utility.yul\":6142:6160   */\n      0x24\n      dup3\n      add\n        /* \"#utility.yul\":6135:6165   */\n      mstore\n        /* \"#utility.yul\":6201:6235   */\n      0x45524332303a2064656372656173656420616c6c6f77616e63652062656c6f77\n        /* \"#utility.yul\":6181:6199   */\n      0x44\n      dup3\n      add\n        /* \"#utility.yul\":6174:6236   */\n      mstore\n      shl(0xd8, 0x207a65726f)\n        /* \"#utility.yul\":6252:6270   */\n      0x64\n      dup3\n      add\n        /* \"#utility.yul\":6245:6280   */\n      mstore\n        /* \"#utility.yul\":6297:6316   */\n      0x84\n      add\n        /* \"@openzeppelin/contracts-upgradeable/token/ERC20/ERC20Upgradeable.sol\":7142:7227  require(currentAllowance >= subtractedValue, \"ERC20: decreased allowance below zero\") */\n      tag_202\n        /* \"#utility.yul\":5921:6322   */\n      jump\n        /* \"@openzeppelin/contracts-upgradeable/token/ERC20/ERC20Upgradeable.sol\":7142:7227  require(currentAllowance >= subtractedValue, \"ERC20: decreased allowance below zero\") */\n    tag_270:\n        /* \"@openzeppelin/contracts-upgradeable/token/ERC20/ERC20Upgradeable.sol\":7261:7321  _approve(owner, spender, currentAllowance - subtractedValue) */\n      tag_273\n        /* \"@openzeppelin/contracts-upgradeable/token/ERC20/ERC20Upgradeable.sol\":7270:7275  owner */\n      dup3\n        /* \"@openzeppelin/contracts-upgradeable/token/ERC20/ERC20Upgradeable.sol\":7277:7284  spender */\n      dup7\n        /* \"@openzeppelin/contracts-upgradeable/token/ERC20/ERC20Upgradeable.sol\":7305:7320  subtractedValue */\n      dup7\n        /* \"@openzeppelin/contracts-upgradeable/token/ERC20/ERC20Upgradeable.sol\":7286:7302  currentAllowance */\n      dup5\n        /* \"@openzeppelin/contracts-upgradeable/token/ERC20/ERC20Upgradeable.sol\":7286:7320  currentAllowance - subtractedValue */\n      sub\n        /* \"@openzeppelin/contracts-upgradeable/token/ERC20/ERC20Upgradeable.sol\":7261:7269  _approve */\n      tag_173\n        /* \"@openzeppelin/contracts-upgradeable/token/ERC20/ERC20Upgradeable.sol\":7261:7321  _approve(owner, spender, currentAllowance - subtractedValue) */\n      jump\t// in\n    tag_273:\n      pop\n        /* \"@openzeppelin/contracts-upgradeable/token/ERC20/ERC20Upgradeable.sol\":7349:7353  true */\n      0x01\n      swap5\n        /* \"@openzeppelin/contracts-upgradeable/token/ERC20/ERC20Upgradeable.sol\":6933:7360  function decreaseAllowance(address spender, uint256 subtractedValue) public virtual returns (bool) {... */\n      swap4\n      pop\n      pop\n      pop\n      pop\n      jump\t// out\n        /* \"@openzeppelin/contracts-upgradeable/token/ERC20/ERC20Upgradeable.sol\":4098:4287  function transfer(address to, uint256 amount) public virtual override returns (bool) {... */\n    tag_131:\n        /* \"@openzeppelin/contracts-upgradeable/token/ERC20/ERC20Upgradeable.sol\":4177:4181  bool */\n      0x00\n        /* \"@openzeppelin/contracts-upgradeable/utils/ContextUpgradeable.sol\":965:975  msg.sender */\n      caller\n        /* \"@openzeppelin/contracts-upgradeable/token/ERC20/ERC20Upgradeable.sol\":4231:4259  _transfer(owner, to, amount) */\n      tag_172\n        /* \"@openzeppelin/contracts-upgradeable/utils/ContextUpgradeable.sol\":965:975  msg.sender */\n      dup2\n        /* \"@openzeppelin/contracts-upgradeable/token/ERC20/ERC20Upgradeable.sol\":4248:4250  to */\n      dup6\n        /* \"@openzeppelin/contracts-upgradeable/token/ERC20/ERC20Upgradeable.sol\":4252:4258  amount */\n      dup6\n        /* \"@openzeppelin/contracts-upgradeable/token/ERC20/ERC20Upgradeable.sol\":4231:4240  _transfer */\n      tag_277\n        /* \"@openzeppelin/contracts-upgradeable/token/ERC20/ERC20Upgradeable.sol\":4231:4259  _transfer(owner, to, amount) */\n      jump\t// in\n        /* \"@openzeppelin/contracts-upgradeable/access/AccessControlUpgradeable.sol\":5705:5852  function revokeRole(bytes32 role, address account) public virtual override onlyRole(getRoleAdmin(role)) {... */\n    tag_145:\n        /* \"@openzeppelin/contracts-upgradeable/access/AccessControlUpgradeable.sol\":4929:4936  bytes32 */\n      0x00\n        /* \"@openzeppelin/contracts-upgradeable/access/AccessControlUpgradeable.sol\":4955:4967  _roles[role] */\n      dup3\n      dup2\n      mstore\n        /* \"@openzeppelin/contracts-upgradeable/access/AccessControlUpgradeable.sol\":4955:4961  _roles */\n      0xfb\n        /* \"@openzeppelin/contracts-upgradeable/access/AccessControlUpgradeable.sol\":4955:4967  _roles[role] */\n      0x20\n      mstore\n      0x40\n      swap1\n      keccak256\n        /* \"@openzeppelin/contracts-upgradeable/access/AccessControlUpgradeable.sol\":4955:4977  _roles[role].adminRole */\n      0x01\n      add\n      sload\n        /* \"@openzeppelin/contracts-upgradeable/access/AccessControlUpgradeable.sol\":2798:2814  _checkRole(role) */\n      tag_280\n        /* \"@openzeppelin/contracts-upgradeable/access/AccessControlUpgradeable.sol\":2809:2813  role */\n      dup2\n        /* \"@openzeppelin/contracts-upgradeable/access/AccessControlUpgradeable.sol\":2798:2808  _checkRole */\n      tag_194\n        /* \"@openzeppelin/contracts-upgradeable/access/AccessControlUpgradeable.sol\":2798:2814  _checkRole(role) */\n      jump\t// in\n    tag_280:\n        /* \"@openzeppelin/contracts-upgradeable/access/AccessControlUpgradeable.sol\":5819:5845  _revokeRole(role, account) */\n      tag_196\n        /* \"@openzeppelin/contracts-upgradeable/access/AccessControlUpgradeable.sol\":5831:5835  role */\n      dup4\n        /* \"@openzeppelin/contracts-upgradeable/access/AccessControlUpgradeable.sol\":5837:5844  account */\n      dup4\n        /* \"@openzeppelin/contracts-upgradeable/access/AccessControlUpgradeable.sol\":5819:5830  _revokeRole */\n      tag_205\n        /* \"@openzeppelin/contracts-upgradeable/access/AccessControlUpgradeable.sol\":5819:5845  _revokeRole(role, account) */\n      jump\t// in\n        /* \"@openzeppelin/contracts-upgradeable/token/ERC20/ERC20Upgradeable.sol\":4345:4494  function allowance(address owner, address spender) public view virtual override returns (uint256) {... */\n    tag_149:\n      sub(shl(0xa0, 0x01), 0x01)\n        /* \"@openzeppelin/contracts-upgradeable/token/ERC20/ERC20Upgradeable.sol\":4460:4478  _allowances[owner] */\n      swap2\n      dup3\n      and\n        /* \"@openzeppelin/contracts-upgradeable/token/ERC20/ERC20Upgradeable.sol\":4434:4441  uint256 */\n      0x00\n        /* \"@openzeppelin/contracts-upgradeable/token/ERC20/ERC20Upgradeable.sol\":4460:4478  _allowances[owner] */\n      swap1\n      dup2\n      mstore\n        /* \"@openzeppelin/contracts-upgradeable/token/ERC20/ERC20Upgradeable.sol\":4460:4471  _allowances */\n      0x34\n        /* \"@openzeppelin/contracts-upgradeable/token/ERC20/ERC20Upgradeable.sol\":4460:4478  _allowances[owner] */\n      0x20\n      swap1\n      dup2\n      mstore\n      0x40\n      dup1\n      dup4\n      keccak256\n        /* \"@openzeppelin/contracts-upgradeable/token/ERC20/ERC20Upgradeable.sol\":4460:4487  _allowances[owner][spender] */\n      swap4\n      swap1\n      swap5\n      and\n      dup3\n      mstore\n      swap2\n      swap1\n      swap2\n      mstore\n      keccak256\n      sload\n      swap1\n        /* \"@openzeppelin/contracts-upgradeable/token/ERC20/ERC20Upgradeable.sol\":4345:4494  function allowance(address owner, address spender) public view virtual override returns (uint256) {... */\n      jump\t// out\n        /* \"contracts/utils/WithSupervisedTransfersAvax.sol\":2922:3277  function setListingTimestamp(uint32 newListingTimestamp)... */\n    tag_154:\n        /* \"@openzeppelin/contracts-upgradeable/access/AccessControlUpgradeable.sol\":2365:2369  0x00 */\n      0x00\n        /* \"@openzeppelin/contracts-upgradeable/access/AccessControlUpgradeable.sol\":2798:2814  _checkRole(role) */\n      tag_285\n        /* \"@openzeppelin/contracts-upgradeable/access/AccessControlUpgradeable.sol\":2365:2369  0x00 */\n      dup2\n        /* \"@openzeppelin/contracts-upgradeable/access/AccessControlUpgradeable.sol\":2798:2808  _checkRole */\n      tag_194\n        /* \"@openzeppelin/contracts-upgradeable/access/AccessControlUpgradeable.sol\":2798:2814  _checkRole(role) */\n      jump\t// in\n    tag_285:\n        /* \"contracts/utils/WithSupervisedTransfersAvax.sol\":3051:3067  listingTimestamp */\n      and(0xffffffff, sload(0x012d))\n        /* \"contracts/utils/WithSupervisedTransfersAvax.sol\":3051:3071  listingTimestamp > 0 */\n      iszero\n      dup1\n      iszero\n      swap1\n        /* \"contracts/utils/WithSupervisedTransfersAvax.sol\":3051:3110  listingTimestamp > 0 && block.timestamp >= listingTimestamp */\n      tag_287\n      jumpi\n      pop\n        /* \"contracts/utils/WithSupervisedTransfersAvax.sol\":3094:3110  listingTimestamp */\n      and(0xffffffff, sload(0x012d))\n        /* \"contracts/utils/WithSupervisedTransfersAvax.sol\":3075:3090  block.timestamp */\n      timestamp\n        /* \"contracts/utils/WithSupervisedTransfersAvax.sol\":3075:3110  block.timestamp >= listingTimestamp */\n      lt\n      iszero\n        /* \"contracts/utils/WithSupervisedTransfersAvax.sol\":3051:3110  listingTimestamp > 0 && block.timestamp >= listingTimestamp */\n    tag_287:\n        /* \"contracts/utils/WithSupervisedTransfersAvax.sol\":3047:3164  if (listingTimestamp > 0 && block.timestamp >= listingTimestamp) {... */\n      iszero\n      tag_288\n      jumpi\n        /* \"contracts/utils/WithSupervisedTransfersAvax.sol\":3133:3153  TokenAlreadyListed() */\n      mload(0x40)\n      shl(0xe1, 0x6f555ee1)\n      dup2\n      mstore\n      0x04\n      add\n      mload(0x40)\n      dup1\n      swap2\n      sub\n      swap1\n      revert\n        /* \"contracts/utils/WithSupervisedTransfersAvax.sol\":3047:3164  if (listingTimestamp > 0 && block.timestamp >= listingTimestamp) {... */\n    tag_288:\n        /* \"contracts/utils/WithSupervisedTransfersAvax.sol\":3178:3222  ListingTimestampUpdated(newListingTimestamp) */\n      mload(0x40)\n        /* \"#utility.yul\":3675:3685   */\n      0xffffffff\n        /* \"#utility.yul\":3663:3686   */\n      dup4\n      and\n        /* \"#utility.yul\":3645:3687   */\n      dup2\n      mstore\n        /* \"contracts/utils/WithSupervisedTransfersAvax.sol\":3178:3222  ListingTimestampUpdated(newListingTimestamp) */\n      0x0e210431ce7e96eef28f9095d645802317660c1411f89b4d642456f027e7c8d6\n      swap1\n        /* \"#utility.yul\":3633:3635   */\n      0x20\n        /* \"#utility.yul\":3618:3636   */\n      add\n        /* \"contracts/utils/WithSupervisedTransfersAvax.sol\":3178:3222  ListingTimestampUpdated(newListingTimestamp) */\n      mload(0x40)\n      dup1\n      swap2\n      sub\n      swap1\n      log1\n      pop\n        /* \"contracts/utils/WithSupervisedTransfersAvax.sol\":3232:3248  listingTimestamp */\n      0x012d\n        /* \"contracts/utils/WithSupervisedTransfersAvax.sol\":3232:3270  listingTimestamp = newListingTimestamp */\n      dup1\n      sload\n      not(0xffffffff)\n      and\n      0xffffffff\n      swap3\n      swap1\n      swap3\n      and\n      swap2\n      swap1\n      swap2\n      or\n      swap1\n      sstore\n        /* \"contracts/utils/WithSupervisedTransfersAvax.sol\":2922:3277  function setListingTimestamp(uint32 newListingTimestamp)... */\n      jump\t// out\n        /* \"@openzeppelin/contracts-upgradeable/access/OwnableUpgradeable.sol\":2335:2533  function transferOwnership(address newOwner) public virtual onlyOwner {... */\n    tag_157:\n        /* \"@openzeppelin/contracts-upgradeable/access/OwnableUpgradeable.sol\":1355:1368  _checkOwner() */\n      tag_291\n        /* \"@openzeppelin/contracts-upgradeable/access/OwnableUpgradeable.sol\":1355:1366  _checkOwner */\n      tag_224\n        /* \"@openzeppelin/contracts-upgradeable/access/OwnableUpgradeable.sol\":1355:1368  _checkOwner() */\n      jump\t// in\n    tag_291:\n      sub(shl(0xa0, 0x01), 0x01)\n        /* \"@openzeppelin/contracts-upgradeable/access/OwnableUpgradeable.sol\":2423:2445  newOwner != address(0) */\n      dup2\n      and\n        /* \"@openzeppelin/contracts-upgradeable/access/OwnableUpgradeable.sol\":2415:2488  require(newOwner != address(0), \"Ownable: new owner is the zero address\") */\n      tag_293\n      jumpi\n      mload(0x40)\n      shl(0xe5, 0x461bcd)\n      dup2\n      mstore\n        /* \"#utility.yul\":6529:6531   */\n      0x20\n        /* \"@openzeppelin/contracts-upgradeable/access/OwnableUpgradeable.sol\":2415:2488  require(newOwner != address(0), \"Ownable: new owner is the zero address\") */\n      0x04\n      dup3\n      add\n        /* \"#utility.yul\":6511:6532   */\n      mstore\n        /* \"#utility.yul\":6568:6570   */\n      0x26\n        /* \"#utility.yul\":6548:6566   */\n      0x24\n      dup3\n      add\n        /* \"#utility.yul\":6541:6571   */\n      mstore\n        /* \"#utility.yul\":6607:6641   */\n      0x4f776e61626c653a206e6577206f776e657220697320746865207a65726f2061\n        /* \"#utility.yul\":6587:6605   */\n      0x44\n      dup3\n      add\n        /* \"#utility.yul\":6580:6642   */\n      mstore\n      shl(0xd0, 0x646472657373)\n        /* \"#utility.yul\":6658:6676   */\n      0x64\n      dup3\n      add\n        /* \"#utility.yul\":6651:6687   */\n      mstore\n        /* \"#utility.yul\":6704:6723   */\n      0x84\n      add\n        /* \"@openzeppelin/contracts-upgradeable/access/OwnableUpgradeable.sol\":2415:2488  require(newOwner != address(0), \"Ownable: new owner is the zero address\") */\n      tag_202\n        /* \"#utility.yul\":6327:6729   */\n      jump\n        /* \"@openzeppelin/contracts-upgradeable/access/OwnableUpgradeable.sol\":2415:2488  require(newOwner != address(0), \"Ownable: new owner is the zero address\") */\n    tag_293:\n        /* \"@openzeppelin/contracts-upgradeable/access/OwnableUpgradeable.sol\":2498:2526  _transferOwnership(newOwner) */\n      tag_218\n        /* \"@openzeppelin/contracts-upgradeable/access/OwnableUpgradeable.sol\":2517:2525  newOwner */\n      dup2\n        /* \"@openzeppelin/contracts-upgradeable/access/OwnableUpgradeable.sol\":2498:2516  _transferOwnership */\n      tag_227\n        /* \"@openzeppelin/contracts-upgradeable/access/OwnableUpgradeable.sol\":2498:2526  _transferOwnership(newOwner) */\n      jump\t// in\n        /* \"@openzeppelin/contracts-upgradeable/token/ERC20/ERC20Upgradeable.sol\":10815:11155  function _approve(address owner, address spender, uint256 amount) internal virtual {... */\n    tag_173:\n      sub(shl(0xa0, 0x01), 0x01)\n        /* \"@openzeppelin/contracts-upgradeable/token/ERC20/ERC20Upgradeable.sol\":10916:10935  owner != address(0) */\n      dup4\n      and\n        /* \"@openzeppelin/contracts-upgradeable/token/ERC20/ERC20Upgradeable.sol\":10908:10976  require(owner != address(0), \"ERC20: approve from the zero address\") */\n      tag_300\n      jumpi\n      mload(0x40)\n      shl(0xe5, 0x461bcd)\n      dup2\n      mstore\n        /* \"#utility.yul\":6936:6938   */\n      0x20\n        /* \"@openzeppelin/contracts-upgradeable/token/ERC20/ERC20Upgradeable.sol\":10908:10976  require(owner != address(0), \"ERC20: approve from the zero address\") */\n      0x04\n      dup3\n      add\n        /* \"#utility.yul\":6918:6939   */\n      mstore\n        /* \"#utility.yul\":6975:6977   */\n      0x24\n        /* \"#utility.yul\":6955:6973   */\n      dup1\n      dup3\n      add\n        /* \"#utility.yul\":6948:6978   */\n      mstore\n        /* \"#utility.yul\":7014:7048   */\n      0x45524332303a20617070726f76652066726f6d20746865207a65726f20616464\n        /* \"#utility.yul\":6994:7012   */\n      0x44\n      dup3\n      add\n        /* \"#utility.yul\":6987:7049   */\n      mstore\n      shl(0xe0, 0x72657373)\n        /* \"#utility.yul\":7065:7083   */\n      0x64\n      dup3\n      add\n        /* \"#utility.yul\":7058:7092   */\n      mstore\n        /* \"#utility.yul\":7109:7128   */\n      0x84\n      add\n        /* \"@openzeppelin/contracts-upgradeable/token/ERC20/ERC20Upgradeable.sol\":10908:10976  require(owner != address(0), \"ERC20: approve from the zero address\") */\n      tag_202\n        /* \"#utility.yul\":6734:7134   */\n      jump\n        /* \"@openzeppelin/contracts-upgradeable/token/ERC20/ERC20Upgradeable.sol\":10908:10976  require(owner != address(0), \"ERC20: approve from the zero address\") */\n    tag_300:\n      sub(shl(0xa0, 0x01), 0x01)\n        /* \"@openzeppelin/contracts-upgradeable/token/ERC20/ERC20Upgradeable.sol\":10994:11015  spender != address(0) */\n      dup3\n      and\n        /* \"@openzeppelin/contracts-upgradeable/token/ERC20/ERC20Upgradeable.sol\":10986:11054  require(spender != address(0), \"ERC20: approve to the zero address\") */\n      tag_303\n      jumpi\n      mload(0x40)\n      shl(0xe5, 0x461bcd)\n      dup2\n      mstore\n        /* \"#utility.yul\":7341:7343   */\n      0x20\n        /* \"@openzeppelin/contracts-upgradeable/token/ERC20/ERC20Upgradeable.sol\":10986:11054  require(spender != address(0), \"ERC20: approve to the zero address\") */\n      0x04\n      dup3\n      add\n        /* \"#utility.yul\":7323:7344   */\n      mstore\n        /* \"#utility.yul\":7380:7382   */\n      0x22\n        /* \"#utility.yul\":7360:7378   */\n      0x24\n      dup3\n      add\n        /* \"#utility.yul\":7353:7383   */\n      mstore\n        /* \"#utility.yul\":7419:7453   */\n      0x45524332303a20617070726f766520746f20746865207a65726f206164647265\n        /* \"#utility.yul\":7399:7417   */\n      0x44\n      dup3\n      add\n        /* \"#utility.yul\":7392:7454   */\n      mstore\n      shl(0xf0, 0x7373)\n        /* \"#utility.yul\":7470:7488   */\n      0x64\n      dup3\n      add\n        /* \"#utility.yul\":7463:7495   */\n      mstore\n        /* \"#utility.yul\":7512:7531   */\n      0x84\n      add\n        /* \"@openzeppelin/contracts-upgradeable/token/ERC20/ERC20Upgradeable.sol\":10986:11054  require(spender != address(0), \"ERC20: approve to the zero address\") */\n      tag_202\n        /* \"#utility.yul\":7139:7537   */\n      jump\n        /* \"@openzeppelin/contracts-upgradeable/token/ERC20/ERC20Upgradeable.sol\":10986:11054  require(spender != address(0), \"ERC20: approve to the zero address\") */\n    tag_303:\n      sub(shl(0xa0, 0x01), 0x01)\n        /* \"@openzeppelin/contracts-upgradeable/token/ERC20/ERC20Upgradeable.sol\":11065:11083  _allowances[owner] */\n      dup4\n      dup2\n      and\n      0x00\n      dup2\n      dup2\n      mstore\n        /* \"@openzeppelin/contracts-upgradeable/token/ERC20/ERC20Upgradeable.sol\":11065:11076  _allowances */\n      0x34\n        /* \"@openzeppelin/contracts-upgradeable/token/ERC20/ERC20Upgradeable.sol\":11065:11083  _allowances[owner] */\n      0x20\n      swap1\n      dup2\n      mstore\n      0x40\n      dup1\n      dup4\n      keccak256\n        /* \"@openzeppelin/contracts-upgradeable/token/ERC20/ERC20Upgradeable.sol\":11065:11092  _allowances[owner][spender] */\n      swap5\n      dup8\n      and\n      dup1\n      dup5\n      mstore\n      swap5\n      dup3\n      mstore\n      swap2\n      dup3\n      swap1\n      keccak256\n        /* \"@openzeppelin/contracts-upgradeable/token/ERC20/ERC20Upgradeable.sol\":11065:11101  _allowances[owner][spender] = amount */\n      dup6\n      swap1\n      sstore\n        /* \"@openzeppelin/contracts-upgradeable/token/ERC20/ERC20Upgradeable.sol\":11116:11148  Approval(owner, spender, amount) */\n      swap1\n      mload\n        /* \"#utility.yul\":1549:1574   */\n      dup5\n      dup2\n      mstore\n        /* \"@openzeppelin/contracts-upgradeable/token/ERC20/ERC20Upgradeable.sol\":11116:11148  Approval(owner, spender, amount) */\n      0x8c5be1e5ebec7d5bd14f71427d1e84f3dd0314c0f7b2291e5b200ac8c7c3b925\n      swap2\n        /* \"#utility.yul\":1522:1540   */\n      add\n        /* \"@openzeppelin/contracts-upgradeable/token/ERC20/ERC20Upgradeable.sol\":11116:11148  Approval(owner, spender, amount) */\n      mload(0x40)\n      dup1\n      swap2\n      sub\n      swap1\n      log3\n        /* \"@openzeppelin/contracts-upgradeable/token/ERC20/ERC20Upgradeable.sol\":10815:11155  function _approve(address owner, address spender, uint256 amount) internal virtual {... */\n      pop\n      pop\n      pop\n      jump\t// out\n        /* \"@openzeppelin/contracts-upgradeable/token/ERC20/ERC20Upgradeable.sol\":5561:5817  function transferFrom(address from, address to, uint256 amount) public virtual override returns (bool) {... */\n    tag_189:\n        /* \"@openzeppelin/contracts-upgradeable/token/ERC20/ERC20Upgradeable.sol\":5658:5662  bool */\n      0x00\n        /* \"@openzeppelin/contracts-upgradeable/utils/ContextUpgradeable.sol\":965:975  msg.sender */\n      caller\n        /* \"@openzeppelin/contracts-upgradeable/token/ERC20/ERC20Upgradeable.sol\":5714:5752  _spendAllowance(from, spender, amount) */\n      tag_309\n        /* \"@openzeppelin/contracts-upgradeable/token/ERC20/ERC20Upgradeable.sol\":5730:5734  from */\n      dup6\n        /* \"@openzeppelin/contracts-upgradeable/utils/ContextUpgradeable.sol\":965:975  msg.sender */\n      dup3\n        /* \"@openzeppelin/contracts-upgradeable/token/ERC20/ERC20Upgradeable.sol\":5745:5751  amount */\n      dup6\n        /* \"@openzeppelin/contracts-upgradeable/token/ERC20/ERC20Upgradeable.sol\":5714:5729  _spendAllowance */\n      tag_231\n        /* \"@openzeppelin/contracts-upgradeable/token/ERC20/ERC20Upgradeable.sol\":5714:5752  _spendAllowance(from, spender, amount) */\n      jump\t// in\n    tag_309:\n        /* \"@openzeppelin/contracts-upgradeable/token/ERC20/ERC20Upgradeable.sol\":5762:5789  _transfer(from, to, amount) */\n      tag_273\n        /* \"@openzeppelin/contracts-upgradeable/token/ERC20/ERC20Upgradeable.sol\":5772:5776  from */\n      dup6\n        /* \"@openzeppelin/contracts-upgradeable/token/ERC20/ERC20Upgradeable.sol\":5778:5780  to */\n      dup6\n        /* \"@openzeppelin/contracts-upgradeable/token/ERC20/ERC20Upgradeable.sol\":5782:5788  amount */\n      dup6\n        /* \"@openzeppelin/contracts-upgradeable/token/ERC20/ERC20Upgradeable.sol\":5762:5771  _transfer */\n      tag_277\n        /* \"@openzeppelin/contracts-upgradeable/token/ERC20/ERC20Upgradeable.sol\":5762:5789  _transfer(from, to, amount) */\n      jump\t// in\n        /* \"@openzeppelin/contracts-upgradeable/access/AccessControlUpgradeable.sol\":3789:3892  function _checkRole(bytes32 role) internal view virtual {... */\n    tag_194:\n        /* \"@openzeppelin/contracts-upgradeable/access/AccessControlUpgradeable.sol\":3855:3885  _checkRole(role, _msgSender()) */\n      tag_218\n        /* \"@openzeppelin/contracts-upgradeable/access/AccessControlUpgradeable.sol\":3866:3870  role */\n      dup2\n        /* \"@openzeppelin/contracts-upgradeable/utils/ContextUpgradeable.sol\":965:975  msg.sender */\n      caller\n        /* \"@openzeppelin/contracts-upgradeable/access/AccessControlUpgradeable.sol\":3855:3865  _checkRole */\n      tag_314\n        /* \"@openzeppelin/contracts-upgradeable/access/AccessControlUpgradeable.sol\":3855:3885  _checkRole(role, _msgSender()) */\n      jump\t// in\n        /* \"@openzeppelin/contracts-upgradeable/access/AccessControlUpgradeable.sol\":7938:8171  function _grantRole(bytes32 role, address account) internal virtual {... */\n    tag_197:\n        /* \"@openzeppelin/contracts-upgradeable/access/AccessControlUpgradeable.sol\":8021:8043  hasRole(role, account) */\n      tag_316\n        /* \"@openzeppelin/contracts-upgradeable/access/AccessControlUpgradeable.sol\":8029:8033  role */\n      dup3\n        /* \"@openzeppelin/contracts-upgradeable/access/AccessControlUpgradeable.sol\":8035:8042  account */\n      dup3\n        /* \"@openzeppelin/contracts-upgradeable/access/AccessControlUpgradeable.sol\":8021:8028  hasRole */\n      tag_114\n        /* \"@openzeppelin/contracts-upgradeable/access/AccessControlUpgradeable.sol\":8021:8043  hasRole(role, account) */\n      jump\t// in\n    tag_316:\n        /* \"@openzeppelin/contracts-upgradeable/access/AccessControlUpgradeable.sol\":8016:8165  if (!hasRole(role, account)) {... */\n      tag_204\n      jumpi\n        /* \"@openzeppelin/contracts-upgradeable/access/AccessControlUpgradeable.sol\":8059:8071  _roles[role] */\n      0x00\n      dup3\n      dup2\n      mstore\n        /* \"@openzeppelin/contracts-upgradeable/access/AccessControlUpgradeable.sol\":8059:8065  _roles */\n      0xfb\n        /* \"@openzeppelin/contracts-upgradeable/access/AccessControlUpgradeable.sol\":8059:8071  _roles[role] */\n      0x20\n      swap1\n      dup2\n      mstore\n      0x40\n      dup1\n      dup4\n      keccak256\n      sub(shl(0xa0, 0x01), 0x01)\n        /* \"@openzeppelin/contracts-upgradeable/access/AccessControlUpgradeable.sol\":8059:8088  _roles[role].members[account] */\n      dup6\n      and\n      dup5\n      mstore\n      swap1\n      swap2\n      mstore\n      swap1\n      keccak256\n        /* \"@openzeppelin/contracts-upgradeable/access/AccessControlUpgradeable.sol\":8059:8095  _roles[role].members[account] = true */\n      dup1\n      sload\n      not(0xff)\n      and\n        /* \"@openzeppelin/contracts-upgradeable/access/AccessControlUpgradeable.sol\":8091:8095  true */\n      0x01\n        /* \"@openzeppelin/contracts-upgradeable/access/AccessControlUpgradeable.sol\":8059:8095  _roles[role].members[account] = true */\n      or\n      swap1\n      sstore\n        /* \"@openzeppelin/contracts-upgradeable/access/AccessControlUpgradeable.sol\":8141:8153  _msgSender() */\n      tag_318\n        /* \"@openzeppelin/contracts-upgradeable/utils/ContextUpgradeable.sol\":965:975  msg.sender */\n      caller\n      swap1\n        /* \"@openzeppelin/contracts-upgradeable/utils/ContextUpgradeable.sol\":886:982  function _msgSender() internal view virtual returns (address) {... */\n      jump\n        /* \"@openzeppelin/contracts-upgradeable/access/AccessControlUpgradeable.sol\":8141:8153  _msgSender() */\n    tag_318:\n      sub(shl(0xa0, 0x01), 0x01)\n        /* \"@openzeppelin/contracts-upgradeable/access/AccessControlUpgradeable.sol\":8114:8154  RoleGranted(role, account, _msgSender()) */\n      and\n        /* \"@openzeppelin/contracts-upgradeable/access/AccessControlUpgradeable.sol\":8132:8139  account */\n      dup2\n      sub(shl(0xa0, 0x01), 0x01)\n        /* \"@openzeppelin/contracts-upgradeable/access/AccessControlUpgradeable.sol\":8114:8154  RoleGranted(role, account, _msgSender()) */\n      and\n        /* \"@openzeppelin/contracts-upgradeable/access/AccessControlUpgradeable.sol\":8126:8130  role */\n      dup4\n        /* \"@openzeppelin/contracts-upgradeable/access/AccessControlUpgradeable.sol\":8114:8154  RoleGranted(role, account, _msgSender()) */\n      0x2f8788117e7eff1d82e926ec794901d17c78024a50270940304540a733656f0d\n      mload(0x40)\n      mload(0x40)\n      dup1\n      swap2\n      sub\n      swap1\n      log4\n        /* \"@openzeppelin/contracts-upgradeable/access/AccessControlUpgradeable.sol\":7938:8171  function _grantRole(bytes32 role, address account) internal virtual {... */\n      pop\n      pop\n      jump\t// out\n        /* \"@openzeppelin/contracts-upgradeable/access/AccessControlUpgradeable.sol\":8342:8576  function _revokeRole(bytes32 role, address account) internal virtual {... */\n    tag_205:\n        /* \"@openzeppelin/contracts-upgradeable/access/AccessControlUpgradeable.sol\":8425:8447  hasRole(role, account) */\n      tag_320\n        /* \"@openzeppelin/contracts-upgradeable/access/AccessControlUpgradeable.sol\":8433:8437  role */\n      dup3\n        /* \"@openzeppelin/contracts-upgradeable/access/AccessControlUpgradeable.sol\":8439:8446  account */\n      dup3\n        /* \"@openzeppelin/contracts-upgradeable/access/AccessControlUpgradeable.sol\":8425:8432  hasRole */\n      tag_114\n        /* \"@openzeppelin/contracts-upgradeable/access/AccessControlUpgradeable.sol\":8425:8447  hasRole(role, account) */\n      jump\t// in\n    tag_320:\n        /* \"@openzeppelin/contracts-upgradeable/access/AccessControlUpgradeable.sol\":8421:8570  if (hasRole(role, account)) {... */\n      iszero\n      tag_204\n      jumpi\n        /* \"@openzeppelin/contracts-upgradeable/access/AccessControlUpgradeable.sol\":8495:8500  false */\n      0x00\n        /* \"@openzeppelin/contracts-upgradeable/access/AccessControlUpgradeable.sol\":8463:8475  _roles[role] */\n      dup3\n      dup2\n      mstore\n        /* \"@openzeppelin/contracts-upgradeable/access/AccessControlUpgradeable.sol\":8463:8469  _roles */\n      0xfb\n        /* \"@openzeppelin/contracts-upgradeable/access/AccessControlUpgradeable.sol\":8463:8475  _roles[role] */\n      0x20\n      swap1\n      dup2\n      mstore\n      0x40\n      dup1\n      dup4\n      keccak256\n      sub(shl(0xa0, 0x01), 0x01)\n        /* \"@openzeppelin/contracts-upgradeable/access/AccessControlUpgradeable.sol\":8463:8492  _roles[role].members[account] */\n      dup6\n      and\n      dup1\n      dup6\n      mstore\n      swap3\n      mstore\n      dup1\n      dup4\n      keccak256\n        /* \"@openzeppelin/contracts-upgradeable/access/AccessControlUpgradeable.sol\":8463:8500  _roles[role].members[account] = false */\n      dup1\n      sload\n      not(0xff)\n      and\n      swap1\n      sstore\n        /* \"@openzeppelin/contracts-upgradeable/access/AccessControlUpgradeable.sol\":8519:8559  RoleRevoked(role, account, _msgSender()) */\n      mload\n        /* \"@openzeppelin/contracts-upgradeable/utils/ContextUpgradeable.sol\":965:975  msg.sender */\n      caller\n      swap3\n        /* \"@openzeppelin/contracts-upgradeable/access/AccessControlUpgradeable.sol\":8463:8475  _roles[role] */\n      dup6\n      swap2\n        /* \"@openzeppelin/contracts-upgradeable/access/AccessControlUpgradeable.sol\":8519:8559  RoleRevoked(role, account, _msgSender()) */\n      0xf6391f5c32d9c69d2a47ea670b442974b53935d1edc7fd64eb21e047a839171b\n      swap2\n        /* \"@openzeppelin/contracts-upgradeable/access/AccessControlUpgradeable.sol\":8495:8500  false */\n      swap1\n        /* \"@openzeppelin/contracts-upgradeable/access/AccessControlUpgradeable.sol\":8519:8559  RoleRevoked(role, account, _msgSender()) */\n      log4\n        /* \"@openzeppelin/contracts-upgradeable/access/AccessControlUpgradeable.sol\":8342:8576  function _revokeRole(bytes32 role, address account) internal virtual {... */\n      pop\n      pop\n      jump\t// out\n        /* \"@openzeppelin/contracts-upgradeable/token/ERC20/ERC20Upgradeable.sol\":8878:9413  function _mint(address account, uint256 amount) internal virtual {... */\n    tag_216:\n      sub(shl(0xa0, 0x01), 0x01)\n        /* \"@openzeppelin/contracts-upgradeable/token/ERC20/ERC20Upgradeable.sol\":8961:8982  account != address(0) */\n      dup3\n      and\n        /* \"@openzeppelin/contracts-upgradeable/token/ERC20/ERC20Upgradeable.sol\":8953:9018  require(account != address(0), \"ERC20: mint to the zero address\") */\n      tag_324\n      jumpi\n      mload(0x40)\n      shl(0xe5, 0x461bcd)\n      dup2\n      mstore\n        /* \"#utility.yul\":7744:7746   */\n      0x20\n        /* \"@openzeppelin/contracts-upgradeable/token/ERC20/ERC20Upgradeable.sol\":8953:9018  require(account != address(0), \"ERC20: mint to the zero address\") */\n      0x04\n      dup3\n      add\n        /* \"#utility.yul\":7726:7747   */\n      mstore\n        /* \"#utility.yul\":7783:7785   */\n      0x1f\n        /* \"#utility.yul\":7763:7781   */\n      0x24\n      dup3\n      add\n        /* \"#utility.yul\":7756:7786   */\n      mstore\n        /* \"#utility.yul\":7822:7855   */\n      0x45524332303a206d696e7420746f20746865207a65726f206164647265737300\n        /* \"#utility.yul\":7802:7820   */\n      0x44\n      dup3\n      add\n        /* \"#utility.yul\":7795:7856   */\n      mstore\n        /* \"#utility.yul\":7873:7891   */\n      0x64\n      add\n        /* \"@openzeppelin/contracts-upgradeable/token/ERC20/ERC20Upgradeable.sol\":8953:9018  require(account != address(0), \"ERC20: mint to the zero address\") */\n      tag_202\n        /* \"#utility.yul\":7542:7897   */\n      jump\n        /* \"@openzeppelin/contracts-upgradeable/token/ERC20/ERC20Upgradeable.sol\":8953:9018  require(account != address(0), \"ERC20: mint to the zero address\") */\n    tag_324:\n        /* \"@openzeppelin/contracts-upgradeable/token/ERC20/ERC20Upgradeable.sol\":9105:9111  amount */\n      dup1\n        /* \"@openzeppelin/contracts-upgradeable/token/ERC20/ERC20Upgradeable.sol\":9089:9101  _totalSupply */\n      0x35\n      0x00\n        /* \"@openzeppelin/contracts-upgradeable/token/ERC20/ERC20Upgradeable.sol\":9089:9111  _totalSupply += amount */\n      dup3\n      dup3\n      sload\n      tag_329\n      swap2\n      swap1\n      tag_211\n      jump\t// in\n    tag_329:\n      swap1\n      swap2\n      sstore\n      pop\n      pop\n      sub(shl(0xa0, 0x01), 0x01)\n        /* \"@openzeppelin/contracts-upgradeable/token/ERC20/ERC20Upgradeable.sol\":9257:9275  _balances[account] */\n      dup3\n      and\n      0x00\n      dup2\n      dup2\n      mstore\n        /* \"@openzeppelin/contracts-upgradeable/token/ERC20/ERC20Upgradeable.sol\":9257:9266  _balances */\n      0x33\n        /* \"@openzeppelin/contracts-upgradeable/token/ERC20/ERC20Upgradeable.sol\":9257:9275  _balances[account] */\n      0x20\n      swap1\n      dup2\n      mstore\n      0x40\n      dup1\n      dup4\n      keccak256\n        /* \"@openzeppelin/contracts-upgradeable/token/ERC20/ERC20Upgradeable.sol\":9257:9285  _balances[account] += amount */\n      dup1\n      sload\n      dup7\n      add\n      swap1\n      sstore\n        /* \"@openzeppelin/contracts-upgradeable/token/ERC20/ERC20Upgradeable.sol\":9310:9347  Transfer(address(0), account, amount) */\n      mload\n        /* \"#utility.yul\":1549:1574   */\n      dup5\n      dup2\n      mstore\n        /* \"@openzeppelin/contracts-upgradeable/token/ERC20/ERC20Upgradeable.sol\":9310:9347  Transfer(address(0), account, amount) */\n      0xddf252ad1be2c89b69c2b068fc378daa952ba7f163c4a11628f55a4df523b3ef\n      swap2\n        /* \"#utility.yul\":1522:1540   */\n      add\n        /* \"@openzeppelin/contracts-upgradeable/token/ERC20/ERC20Upgradeable.sol\":9310:9347  Transfer(address(0), account, amount) */\n      mload(0x40)\n      dup1\n      swap2\n      sub\n      swap1\n      log3\n        /* \"@openzeppelin/contracts-upgradeable/access/AccessControlUpgradeable.sol\":6389:6603  function renounceRole(bytes32 role, address account) public virtual override {... */\n      pop\n      pop\n      jump\t// out\n        /* \"@openzeppelin/contracts-upgradeable/token/ERC20/ERC20Upgradeable.sol\":9733:10392  function _burn(address account, uint256 amount) internal virtual {... */\n    tag_220:\n      sub(shl(0xa0, 0x01), 0x01)\n        /* \"@openzeppelin/contracts-upgradeable/token/ERC20/ERC20Upgradeable.sol\":9816:9837  account != address(0) */\n      dup3\n      and\n        /* \"@openzeppelin/contracts-upgradeable/token/ERC20/ERC20Upgradeable.sol\":9808:9875  require(account != address(0), \"ERC20: burn from the zero address\") */\n      tag_334\n      jumpi\n      mload(0x40)\n      shl(0xe5, 0x461bcd)\n      dup2\n      mstore\n        /* \"#utility.yul\":8104:8106   */\n      0x20\n        /* \"@openzeppelin/contracts-upgradeable/token/ERC20/ERC20Upgradeable.sol\":9808:9875  require(account != address(0), \"ERC20: burn from the zero address\") */\n      0x04\n      dup3\n      add\n        /* \"#utility.yul\":8086:8107   */\n      mstore\n        /* \"#utility.yul\":8143:8145   */\n      0x21\n        /* \"#utility.yul\":8123:8141   */\n      0x24\n      dup3\n      add\n        /* \"#utility.yul\":8116:8146   */\n      mstore\n        /* \"#utility.yul\":8182:8216   */\n      0x45524332303a206275726e2066726f6d20746865207a65726f20616464726573\n        /* \"#utility.yul\":8162:8180   */\n      0x44\n      dup3\n      add\n        /* \"#utility.yul\":8155:8217   */\n      mstore\n      shl(0xf8, 0x73)\n        /* \"#utility.yul\":8233:8251   */\n      0x64\n      dup3\n      add\n        /* \"#utility.yul\":8226:8257   */\n      mstore\n        /* \"#utility.yul\":8274:8293   */\n      0x84\n      add\n        /* \"@openzeppelin/contracts-upgradeable/token/ERC20/ERC20Upgradeable.sol\":9808:9875  require(account != address(0), \"ERC20: burn from the zero address\") */\n      tag_202\n        /* \"#utility.yul\":7902:8299   */\n      jump\n        /* \"@openzeppelin/contracts-upgradeable/token/ERC20/ERC20Upgradeable.sol\":9808:9875  require(account != address(0), \"ERC20: burn from the zero address\") */\n    tag_334:\n      sub(shl(0xa0, 0x01), 0x01)\n        /* \"@openzeppelin/contracts-upgradeable/token/ERC20/ERC20Upgradeable.sol\":9971:9989  _balances[account] */\n      dup3\n      and\n        /* \"@openzeppelin/contracts-upgradeable/token/ERC20/ERC20Upgradeable.sol\":9946:9968  uint256 accountBalance */\n      0x00\n        /* \"@openzeppelin/contracts-upgradeable/token/ERC20/ERC20Upgradeable.sol\":9971:9989  _balances[account] */\n      swap1\n      dup2\n      mstore\n        /* \"@openzeppelin/contracts-upgradeable/token/ERC20/ERC20Upgradeable.sol\":9971:9980  _balances */\n      0x33\n        /* \"@openzeppelin/contracts-upgradeable/token/ERC20/ERC20Upgradeable.sol\":9971:9989  _balances[account] */\n      0x20\n      mstore\n      0x40\n      swap1\n      keccak256\n      sload\n        /* \"@openzeppelin/contracts-upgradeable/token/ERC20/ERC20Upgradeable.sol\":10007:10031  accountBalance >= amount */\n      dup2\n      dup2\n      lt\n      iszero\n        /* \"@openzeppelin/contracts-upgradeable/token/ERC20/ERC20Upgradeable.sol\":9999:10070  require(accountBalance >= amount, \"ERC20: burn amount exceeds balance\") */\n      tag_338\n      jumpi\n      mload(0x40)\n      shl(0xe5, 0x461bcd)\n      dup2\n      mstore\n        /* \"#utility.yul\":8506:8508   */\n      0x20\n        /* \"@openzeppelin/contracts-upgradeable/token/ERC20/ERC20Upgradeable.sol\":9999:10070  require(accountBalance >= amount, \"ERC20: burn amount exceeds balance\") */\n      0x04\n      dup3\n      add\n        /* \"#utility.yul\":8488:8509   */\n      mstore\n        /* \"#utility.yul\":8545:8547   */\n      0x22\n        /* \"#utility.yul\":8525:8543   */\n      0x24\n      dup3\n      add\n        /* \"#utility.yul\":8518:8548   */\n      mstore\n        /* \"#utility.yul\":8584:8618   */\n      0x45524332303a206275726e20616d6f756e7420657863656564732062616c616e\n        /* \"#utility.yul\":8564:8582   */\n      0x44\n      dup3\n      add\n        /* \"#utility.yul\":8557:8619   */\n      mstore\n      shl(0xf0, 0x6365)\n        /* \"#utility.yul\":8635:8653   */\n      0x64\n      dup3\n      add\n        /* \"#utility.yul\":8628:8660   */\n      mstore\n        /* \"#utility.yul\":8677:8696   */\n      0x84\n      add\n        /* \"@openzeppelin/contracts-upgradeable/token/ERC20/ERC20Upgradeable.sol\":9999:10070  require(accountBalance >= amount, \"ERC20: burn amount exceeds balance\") */\n      tag_202\n        /* \"#utility.yul\":8304:8702   */\n      jump\n        /* \"@openzeppelin/contracts-upgradeable/token/ERC20/ERC20Upgradeable.sol\":9999:10070  require(accountBalance >= amount, \"ERC20: burn amount exceeds balance\") */\n    tag_338:\n      sub(shl(0xa0, 0x01), 0x01)\n        /* \"@openzeppelin/contracts-upgradeable/token/ERC20/ERC20Upgradeable.sol\":10104:10122  _balances[account] */\n      dup4\n      and\n      0x00\n      dup2\n      dup2\n      mstore\n        /* \"@openzeppelin/contracts-upgradeable/token/ERC20/ERC20Upgradeable.sol\":10104:10113  _balances */\n      0x33\n        /* \"@openzeppelin/contracts-upgradeable/token/ERC20/ERC20Upgradeable.sol\":10104:10122  _balances[account] */\n      0x20\n      swap1\n      dup2\n      mstore\n      0x40\n      dup1\n      dup4\n      keccak256\n        /* \"@openzeppelin/contracts-upgradeable/token/ERC20/ERC20Upgradeable.sol\":10125:10148  accountBalance - amount */\n      dup7\n      dup7\n      sub\n        /* \"@openzeppelin/contracts-upgradeable/token/ERC20/ERC20Upgradeable.sol\":10104:10148  _balances[account] = accountBalance - amount */\n      swap1\n      sstore\n        /* \"@openzeppelin/contracts-upgradeable/token/ERC20/ERC20Upgradeable.sol\":10241:10253  _totalSupply */\n      0x35\n        /* \"@openzeppelin/contracts-upgradeable/token/ERC20/ERC20Upgradeable.sol\":10241:10263  _totalSupply -= amount */\n      dup1\n      sload\n      dup8\n      swap1\n      sub\n      swap1\n      sstore\n        /* \"@openzeppelin/contracts-upgradeable/token/ERC20/ERC20Upgradeable.sol\":10289:10326  Transfer(account, address(0), amount) */\n      mload\n        /* \"#utility.yul\":1549:1574   */\n      dup6\n      dup2\n      mstore\n        /* \"@openzeppelin/contracts-upgradeable/token/ERC20/ERC20Upgradeable.sol\":10104:10122  _balances[account] */\n      swap2\n      swap3\n      swap2\n        /* \"@openzeppelin/contracts-upgradeable/token/ERC20/ERC20Upgradeable.sol\":10289:10326  Transfer(account, address(0), amount) */\n      0xddf252ad1be2c89b69c2b068fc378daa952ba7f163c4a11628f55a4df523b3ef\n      swap2\n        /* \"#utility.yul\":1522:1540   */\n      add\n        /* \"@openzeppelin/contracts-upgradeable/token/ERC20/ERC20Upgradeable.sol\":10289:10326  Transfer(account, address(0), amount) */\n      mload(0x40)\n      dup1\n      swap2\n      sub\n      swap1\n      log3\n        /* \"@openzeppelin/contracts-upgradeable/access/AccessControlUpgradeable.sol\":5280:5425  function grantRole(bytes32 role, address account) public virtual override onlyRole(getRoleAdmin(role)) {... */\n      pop\n      pop\n      pop\n      jump\t// out\n        /* \"@openzeppelin/contracts-upgradeable/access/OwnableUpgradeable.sol\":1620:1750  function _checkOwner() internal view virtual {... */\n    tag_224:\n        /* \"@openzeppelin/contracts-upgradeable/access/OwnableUpgradeable.sol\":1534:1540  _owner */\n      and(sub(shl(0xa0, 0x01), 0x01), sload(0x65))\n        /* \"@openzeppelin/contracts-upgradeable/utils/ContextUpgradeable.sol\":965:975  msg.sender */\n      caller\n        /* \"@openzeppelin/contracts-upgradeable/access/OwnableUpgradeable.sol\":1683:1706  owner() == _msgSender() */\n      eq\n        /* \"@openzeppelin/contracts-upgradeable/access/OwnableUpgradeable.sol\":1675:1743  require(owner() == _msgSender(), \"Ownable: caller is not the owner\") */\n      tag_226\n      jumpi\n      mload(0x40)\n      shl(0xe5, 0x461bcd)\n      dup2\n      mstore\n        /* \"#utility.yul\":8909:8911   */\n      0x20\n        /* \"@openzeppelin/contracts-upgradeable/access/OwnableUpgradeable.sol\":1675:1743  require(owner() == _msgSender(), \"Ownable: caller is not the owner\") */\n      0x04\n      dup3\n      add\n        /* \"#utility.yul\":8891:8912   */\n      dup2\n      swap1\n      mstore\n        /* \"#utility.yul\":8928:8946   */\n      0x24\n      dup3\n      add\n        /* \"#utility.yul\":8921:8951   */\n      mstore\n        /* \"#utility.yul\":8987:9021   */\n      0x4f776e61626c653a2063616c6c6572206973206e6f7420746865206f776e6572\n        /* \"#utility.yul\":8967:8985   */\n      0x44\n      dup3\n      add\n        /* \"#utility.yul\":8960:9022   */\n      mstore\n        /* \"#utility.yul\":9039:9057   */\n      0x64\n      add\n        /* \"@openzeppelin/contracts-upgradeable/access/OwnableUpgradeable.sol\":1675:1743  require(owner() == _msgSender(), \"Ownable: caller is not the owner\") */\n      tag_202\n        /* \"#utility.yul\":8707:9063   */\n      jump\n        /* \"@openzeppelin/contracts-upgradeable/access/OwnableUpgradeable.sol\":2687:2874  function _transferOwnership(address newOwner) internal virtual {... */\n    tag_227:\n        /* \"@openzeppelin/contracts-upgradeable/access/OwnableUpgradeable.sol\":2779:2785  _owner */\n      0x65\n      dup1\n      sload\n      sub(shl(0xa0, 0x01), 0x01)\n        /* \"@openzeppelin/contracts-upgradeable/access/OwnableUpgradeable.sol\":2795:2812  _owner = newOwner */\n      dup4\n      dup2\n      and\n      not(sub(shl(0xa0, 0x01), 0x01))\n      dup4\n      and\n      dup2\n      or\n      swap1\n      swap4\n      sstore\n        /* \"@openzeppelin/contracts-upgradeable/access/OwnableUpgradeable.sol\":2827:2867  OwnershipTransferred(oldOwner, newOwner) */\n      mload(0x40)\n        /* \"@openzeppelin/contracts-upgradeable/access/OwnableUpgradeable.sol\":2779:2785  _owner */\n      swap2\n      and\n      swap2\n        /* \"@openzeppelin/contracts-upgradeable/access/OwnableUpgradeable.sol\":2795:2812  _owner = newOwner */\n      swap1\n        /* \"@openzeppelin/contracts-upgradeable/access/OwnableUpgradeable.sol\":2779:2785  _owner */\n      dup3\n      swap1\n        /* \"@openzeppelin/contracts-upgradeable/access/OwnableUpgradeable.sol\":2827:2867  OwnershipTransferred(oldOwner, newOwner) */\n      0x8be0079c531659141344cd1fd0a4f28419497f9722a3daafe3b4186f6b6457e0\n      swap1\n        /* \"@openzeppelin/contracts-upgradeable/access/OwnableUpgradeable.sol\":2760:2776  address oldOwner */\n      0x00\n      swap1\n        /* \"@openzeppelin/contracts-upgradeable/access/OwnableUpgradeable.sol\":2827:2867  OwnershipTransferred(oldOwner, newOwner) */\n      log3\n        /* \"@openzeppelin/contracts-upgradeable/access/OwnableUpgradeable.sol\":2750:2874  {... */\n      pop\n        /* \"@openzeppelin/contracts-upgradeable/access/OwnableUpgradeable.sol\":2687:2874  function _transferOwnership(address newOwner) internal virtual {... */\n      pop\n      jump\t// out\n        /* \"@openzeppelin/contracts-upgradeable/token/ERC20/ERC20Upgradeable.sol\":11436:11847  function _spendAllowance(address owner, address spender, uint256 amount) internal virtual {... */\n    tag_231:\n        /* \"@openzeppelin/contracts-upgradeable/token/ERC20/ERC20Upgradeable.sol\":11536:11560  uint256 currentAllowance */\n      0x00\n        /* \"@openzeppelin/contracts-upgradeable/token/ERC20/ERC20Upgradeable.sol\":11563:11588  allowance(owner, spender) */\n      tag_351\n        /* \"@openzeppelin/contracts-upgradeable/token/ERC20/ERC20Upgradeable.sol\":11573:11578  owner */\n      dup5\n        /* \"@openzeppelin/contracts-upgradeable/token/ERC20/ERC20Upgradeable.sol\":11580:11587  spender */\n      dup5\n        /* \"@openzeppelin/contracts-upgradeable/token/ERC20/ERC20Upgradeable.sol\":11563:11572  allowance */\n      tag_149\n        /* \"@openzeppelin/contracts-upgradeable/token/ERC20/ERC20Upgradeable.sol\":11563:11588  allowance(owner, spender) */\n      jump\t// in\n    tag_351:\n        /* \"@openzeppelin/contracts-upgradeable/token/ERC20/ERC20Upgradeable.sol\":11536:11588  uint256 currentAllowance = allowance(owner, spender) */\n      swap1\n      pop\n      not(0x00)\n        /* \"@openzeppelin/contracts-upgradeable/token/ERC20/ERC20Upgradeable.sol\":11602:11618  currentAllowance */\n      dup2\n        /* \"@openzeppelin/contracts-upgradeable/token/ERC20/ERC20Upgradeable.sol\":11602:11639  currentAllowance != type(uint256).max */\n      eq\n        /* \"@openzeppelin/contracts-upgradeable/token/ERC20/ERC20Upgradeable.sol\":11598:11841  if (currentAllowance != type(uint256).max) {... */\n      tag_356\n      jumpi\n        /* \"@openzeppelin/contracts-upgradeable/token/ERC20/ERC20Upgradeable.sol\":11683:11689  amount */\n      dup2\n        /* \"@openzeppelin/contracts-upgradeable/token/ERC20/ERC20Upgradeable.sol\":11663:11679  currentAllowance */\n      dup2\n        /* \"@openzeppelin/contracts-upgradeable/token/ERC20/ERC20Upgradeable.sol\":11663:11689  currentAllowance >= amount */\n      lt\n      iszero\n        /* \"@openzeppelin/contracts-upgradeable/token/ERC20/ERC20Upgradeable.sol\":11655:11723  require(currentAllowance >= amount, \"ERC20: insufficient allowance\") */\n      tag_353\n      jumpi\n      mload(0x40)\n      shl(0xe5, 0x461bcd)\n      dup2\n      mstore\n        /* \"#utility.yul\":9270:9272   */\n      0x20\n        /* \"@openzeppelin/contracts-upgradeable/token/ERC20/ERC20Upgradeable.sol\":11655:11723  require(currentAllowance >= amount, \"ERC20: insufficient allowance\") */\n      0x04\n      dup3\n      add\n        /* \"#utility.yul\":9252:9273   */\n      mstore\n        /* \"#utility.yul\":9309:9311   */\n      0x1d\n        /* \"#utility.yul\":9289:9307   */\n      0x24\n      dup3\n      add\n        /* \"#utility.yul\":9282:9312   */\n      mstore\n        /* \"#utility.yul\":9348:9379   */\n      0x45524332303a20696e73756666696369656e7420616c6c6f77616e6365000000\n        /* \"#utility.yul\":9328:9346   */\n      0x44\n      dup3\n      add\n        /* \"#utility.yul\":9321:9380   */\n      mstore\n        /* \"#utility.yul\":9397:9415   */\n      0x64\n      add\n        /* \"@openzeppelin/contracts-upgradeable/token/ERC20/ERC20Upgradeable.sol\":11655:11723  require(currentAllowance >= amount, \"ERC20: insufficient allowance\") */\n      tag_202\n        /* \"#utility.yul\":9068:9421   */\n      jump\n        /* \"@openzeppelin/contracts-upgradeable/token/ERC20/ERC20Upgradeable.sol\":11655:11723  require(currentAllowance >= amount, \"ERC20: insufficient allowance\") */\n    tag_353:\n        /* \"@openzeppelin/contracts-upgradeable/token/ERC20/ERC20Upgradeable.sol\":11765:11816  _approve(owner, spender, currentAllowance - amount) */\n      tag_356\n        /* \"@openzeppelin/contracts-upgradeable/token/ERC20/ERC20Upgradeable.sol\":11774:11779  owner */\n      dup5\n        /* \"@openzeppelin/contracts-upgradeable/token/ERC20/ERC20Upgradeable.sol\":11781:11788  spender */\n      dup5\n        /* \"@openzeppelin/contracts-upgradeable/token/ERC20/ERC20Upgradeable.sol\":11809:11815  amount */\n      dup5\n        /* \"@openzeppelin/contracts-upgradeable/token/ERC20/ERC20Upgradeable.sol\":11790:11806  currentAllowance */\n      dup5\n        /* \"@openzeppelin/contracts-upgradeable/token/ERC20/ERC20Upgradeable.sol\":11790:11815  currentAllowance - amount */\n      sub\n        /* \"@openzeppelin/contracts-upgradeable/token/ERC20/ERC20Upgradeable.sol\":11765:11773  _approve */\n      tag_173\n        /* \"@openzeppelin/contracts-upgradeable/token/ERC20/ERC20Upgradeable.sol\":11765:11816  _approve(owner, spender, currentAllowance - amount) */\n      jump\t// in\n    tag_356:\n        /* \"@openzeppelin/contracts-upgradeable/token/ERC20/ERC20Upgradeable.sol\":11526:11847  {... */\n      pop\n        /* \"@openzeppelin/contracts-upgradeable/token/ERC20/ERC20Upgradeable.sol\":11436:11847  function _spendAllowance(address owner, address spender, uint256 amount) internal virtual {... */\n      pop\n      pop\n      pop\n      jump\t// out\n        /* \"@openzeppelin/contracts-upgradeable/token/ERC20/ERC20Upgradeable.sol\":2139:2286  function __ERC20_init(string memory name_, string memory symbol_) internal onlyInitializing {... */\n    tag_245:\n        /* \"@openzeppelin/contracts-upgradeable/proxy/utils/Initializable.sol\":5374:5387  _initializing */\n      sload(0x00)\n      0x0100\n      swap1\n      div\n      0xff\n      and\n        /* \"@openzeppelin/contracts-upgradeable/proxy/utils/Initializable.sol\":5366:5435  require(_initializing, \"Initializable: contract is not initializing\") */\n      tag_359\n      jumpi\n      mload(0x40)\n      shl(0xe5, 0x461bcd)\n      dup2\n      mstore\n      0x04\n      add\n      tag_202\n      swap1\n      tag_361\n      jump\t// in\n    tag_359:\n        /* \"@openzeppelin/contracts-upgradeable/token/ERC20/ERC20Upgradeable.sol\":2241:2279  __ERC20_init_unchained(name_, symbol_) */\n      tag_204\n        /* \"@openzeppelin/contracts-upgradeable/token/ERC20/ERC20Upgradeable.sol\":2264:2269  name_ */\n      dup3\n        /* \"@openzeppelin/contracts-upgradeable/token/ERC20/ERC20Upgradeable.sol\":2271:2278  symbol_ */\n      dup3\n        /* \"@openzeppelin/contracts-upgradeable/token/ERC20/ERC20Upgradeable.sol\":2241:2263  __ERC20_init_unchained */\n      tag_364\n        /* \"@openzeppelin/contracts-upgradeable/token/ERC20/ERC20Upgradeable.sol\":2241:2279  __ERC20_init_unchained(name_, symbol_) */\n      jump\t// in\n        /* \"@openzeppelin/contracts-upgradeable/token/ERC20/extensions/ERC20BurnableUpgradeable.sol\":615:680  function __ERC20Burnable_init() internal onlyInitializing {... */\n    tag_247:\n        /* \"@openzeppelin/contracts-upgradeable/proxy/utils/Initializable.sol\":5374:5387  _initializing */\n      sload(0x00)\n      0x0100\n      swap1\n      div\n      0xff\n      and\n        /* \"@openzeppelin/contracts-upgradeable/proxy/utils/Initializable.sol\":5366:5435  require(_initializing, \"Initializable: contract is not initializing\") */\n      tag_226\n      jumpi\n      mload(0x40)\n      shl(0xe5, 0x461bcd)\n      dup2\n      mstore\n      0x04\n      add\n      tag_202\n      swap1\n      tag_361\n      jump\t// in\n        /* \"contracts/utils/WithSupervisedTransfersAvax.sol\":2384:2665  function __WithSupervisedTransfers_init(... */\n    tag_249:\n        /* \"@openzeppelin/contracts-upgradeable/proxy/utils/Initializable.sol\":5374:5387  _initializing */\n      sload(0x00)\n      0x0100\n      swap1\n      div\n      0xff\n      and\n        /* \"@openzeppelin/contracts-upgradeable/proxy/utils/Initializable.sol\":5366:5435  require(_initializing, \"Initializable: contract is not initializing\") */\n      tag_370\n      jumpi\n      mload(0x40)\n      shl(0xe5, 0x461bcd)\n      dup2\n      mstore\n      0x04\n      add\n      tag_202\n      swap1\n      tag_361\n      jump\t// in\n    tag_370:\n        /* \"contracts/utils/WithSupervisedTransfersAvax.sol\":2522:2566  _grantRole(DEFAULT_ADMIN_ROLE, _msgSender()) */\n      tag_373\n        /* \"@openzeppelin/contracts-upgradeable/access/AccessControlUpgradeable.sol\":2365:2369  0x00 */\n      0x00\n        /* \"@openzeppelin/contracts-upgradeable/utils/ContextUpgradeable.sol\":965:975  msg.sender */\n      caller\n        /* \"contracts/utils/WithSupervisedTransfersAvax.sol\":2522:2532  _grantRole */\n      tag_197\n        /* \"contracts/utils/WithSupervisedTransfersAvax.sol\":2522:2566  _grantRole(DEFAULT_ADMIN_ROLE, _msgSender()) */\n      jump\t// in\n    tag_373:\n        /* \"contracts/utils/WithSupervisedTransfersAvax.sol\":2576:2613  _grantRole(MINTER_ROLE, _msgSender()) */\n      tag_375\n        /* \"contracts/utils/WithSupervisedTransfersAvax.sol\":2587:2598  MINTER_ROLE */\n      dup3\n        /* \"@openzeppelin/contracts-upgradeable/utils/ContextUpgradeable.sol\":965:975  msg.sender */\n      caller\n        /* \"contracts/utils/WithSupervisedTransfersAvax.sol\":2522:2532  _grantRole */\n      tag_197\n        /* \"contracts/utils/WithSupervisedTransfersAvax.sol\":2522:2566  _grantRole(DEFAULT_ADMIN_ROLE, _msgSender()) */\n      jump\t// in\n        /* \"contracts/utils/WithSupervisedTransfersAvax.sol\":2576:2613  _grantRole(MINTER_ROLE, _msgSender()) */\n    tag_375:\n        /* \"contracts/utils/WithSupervisedTransfersAvax.sol\":2623:2658  _grantRole(BURN_ROLE, _msgSender()) */\n      tag_204\n        /* \"contracts/utils/WithSupervisedTransfersAvax.sol\":2634:2643  BURN_ROLE */\n      dup2\n        /* \"@openzeppelin/contracts-upgradeable/utils/ContextUpgradeable.sol\":965:975  msg.sender */\n      caller\n        /* \"contracts/utils/WithSupervisedTransfersAvax.sol\":2522:2532  _grantRole */\n      tag_197\n        /* \"contracts/utils/WithSupervisedTransfersAvax.sol\":2522:2566  _grantRole(DEFAULT_ADMIN_ROLE, _msgSender()) */\n      jump\t// in\n        /* \"@openzeppelin/contracts-upgradeable/access/OwnableUpgradeable.sol\":1024:1119  function __Ownable_init() internal onlyInitializing {... */\n    tag_251:\n        /* \"@openzeppelin/contracts-upgradeable/proxy/utils/Initializable.sol\":5374:5387  _initializing */\n      sload(0x00)\n      0x0100\n      swap1\n      div\n      0xff\n      and\n        /* \"@openzeppelin/contracts-upgradeable/proxy/utils/Initializable.sol\":5366:5435  require(_initializing, \"Initializable: contract is not initializing\") */\n      tag_380\n      jumpi\n      mload(0x40)\n      shl(0xe5, 0x461bcd)\n      dup2\n      mstore\n      0x04\n      add\n      tag_202\n      swap1\n      tag_361\n      jump\t// in\n    tag_380:\n        /* \"@openzeppelin/contracts-upgradeable/access/OwnableUpgradeable.sol\":1086:1112  __Ownable_init_unchained() */\n      tag_226\n        /* \"@openzeppelin/contracts-upgradeable/access/OwnableUpgradeable.sol\":1086:1110  __Ownable_init_unchained */\n      tag_384\n        /* \"@openzeppelin/contracts-upgradeable/access/OwnableUpgradeable.sol\":1086:1112  __Ownable_init_unchained() */\n      jump\t// in\n        /* \"@openzeppelin/contracts-upgradeable/token/ERC20/ERC20Upgradeable.sol\":7814:8602  function _transfer(address from, address to, uint256 amount) internal virtual {... */\n    tag_277:\n      sub(shl(0xa0, 0x01), 0x01)\n        /* \"@openzeppelin/contracts-upgradeable/token/ERC20/ERC20Upgradeable.sol\":7910:7928  from != address(0) */\n      dup4\n      and\n        /* \"@openzeppelin/contracts-upgradeable/token/ERC20/ERC20Upgradeable.sol\":7902:7970  require(from != address(0), \"ERC20: transfer from the zero address\") */\n      tag_386\n      jumpi\n      mload(0x40)\n      shl(0xe5, 0x461bcd)\n      dup2\n      mstore\n        /* \"#utility.yul\":10040:10042   */\n      0x20\n        /* \"@openzeppelin/contracts-upgradeable/token/ERC20/ERC20Upgradeable.sol\":7902:7970  require(from != address(0), \"ERC20: transfer from the zero address\") */\n      0x04\n      dup3\n      add\n        /* \"#utility.yul\":10022:10043   */\n      mstore\n        /* \"#utility.yul\":10079:10081   */\n      0x25\n        /* \"#utility.yul\":10059:10077   */\n      0x24\n      dup3\n      add\n        /* \"#utility.yul\":10052:10082   */\n      mstore\n        /* \"#utility.yul\":10118:10152   */\n      0x45524332303a207472616e736665722066726f6d20746865207a65726f206164\n        /* \"#utility.yul\":10098:10116   */\n      0x44\n      dup3\n      add\n        /* \"#utility.yul\":10091:10153   */\n      mstore\n      shl(0xd8, 0x6472657373)\n        /* \"#utility.yul\":10169:10187   */\n      0x64\n      dup3\n      add\n        /* \"#utility.yul\":10162:10197   */\n      mstore\n        /* \"#utility.yul\":10214:10233   */\n      0x84\n      add\n        /* \"@openzeppelin/contracts-upgradeable/token/ERC20/ERC20Upgradeable.sol\":7902:7970  require(from != address(0), \"ERC20: transfer from the zero address\") */\n      tag_202\n        /* \"#utility.yul\":9838:10239   */\n      jump\n        /* \"@openzeppelin/contracts-upgradeable/token/ERC20/ERC20Upgradeable.sol\":7902:7970  require(from != address(0), \"ERC20: transfer from the zero address\") */\n    tag_386:\n      sub(shl(0xa0, 0x01), 0x01)\n        /* \"@openzeppelin/contracts-upgradeable/token/ERC20/ERC20Upgradeable.sol\":7988:8004  to != address(0) */\n      dup3\n      and\n        /* \"@openzeppelin/contracts-upgradeable/token/ERC20/ERC20Upgradeable.sol\":7980:8044  require(to != address(0), \"ERC20: transfer to the zero address\") */\n      tag_389\n      jumpi\n      mload(0x40)\n      shl(0xe5, 0x461bcd)\n      dup2\n      mstore\n        /* \"#utility.yul\":10446:10448   */\n      0x20\n        /* \"@openzeppelin/contracts-upgradeable/token/ERC20/ERC20Upgradeable.sol\":7980:8044  require(to != address(0), \"ERC20: transfer to the zero address\") */\n      0x04\n      dup3\n      add\n        /* \"#utility.yul\":10428:10449   */\n      mstore\n        /* \"#utility.yul\":10485:10487   */\n      0x23\n        /* \"#utility.yul\":10465:10483   */\n      0x24\n      dup3\n      add\n        /* \"#utility.yul\":10458:10488   */\n      mstore\n        /* \"#utility.yul\":10524:10558   */\n      0x45524332303a207472616e7366657220746f20746865207a65726f2061646472\n        /* \"#utility.yul\":10504:10522   */\n      0x44\n      dup3\n      add\n        /* \"#utility.yul\":10497:10559   */\n      mstore\n      shl(0xe8, 0x657373)\n        /* \"#utility.yul\":10575:10593   */\n      0x64\n      dup3\n      add\n        /* \"#utility.yul\":10568:10601   */\n      mstore\n        /* \"#utility.yul\":10618:10637   */\n      0x84\n      add\n        /* \"@openzeppelin/contracts-upgradeable/token/ERC20/ERC20Upgradeable.sol\":7980:8044  require(to != address(0), \"ERC20: transfer to the zero address\") */\n      tag_202\n        /* \"#utility.yul\":10244:10643   */\n      jump\n        /* \"@openzeppelin/contracts-upgradeable/token/ERC20/ERC20Upgradeable.sol\":7980:8044  require(to != address(0), \"ERC20: transfer to the zero address\") */\n    tag_389:\n      sub(shl(0xa0, 0x01), 0x01)\n        /* \"@openzeppelin/contracts-upgradeable/token/ERC20/ERC20Upgradeable.sol\":8126:8141  _balances[from] */\n      dup4\n      and\n        /* \"@openzeppelin/contracts-upgradeable/token/ERC20/ERC20Upgradeable.sol\":8104:8123  uint256 fromBalance */\n      0x00\n        /* \"@openzeppelin/contracts-upgradeable/token/ERC20/ERC20Upgradeable.sol\":8126:8141  _balances[from] */\n      swap1\n      dup2\n      mstore\n        /* \"@openzeppelin/contracts-upgradeable/token/ERC20/ERC20Upgradeable.sol\":8126:8135  _balances */\n      0x33\n        /* \"@openzeppelin/contracts-upgradeable/token/ERC20/ERC20Upgradeable.sol\":8126:8141  _balances[from] */\n      0x20\n      mstore\n      0x40\n      swap1\n      keccak256\n      sload\n        /* \"@openzeppelin/contracts-upgradeable/token/ERC20/ERC20Upgradeable.sol\":8159:8180  fromBalance >= amount */\n      dup2\n      dup2\n      lt\n      iszero\n        /* \"@openzeppelin/contracts-upgradeable/token/ERC20/ERC20Upgradeable.sol\":8151:8223  require(fromBalance >= amount, \"ERC20: transfer amount exceeds balance\") */\n      tag_393\n      jumpi\n      mload(0x40)\n      shl(0xe5, 0x461bcd)\n      dup2\n      mstore\n        /* \"#utility.yul\":10850:10852   */\n      0x20\n        /* \"@openzeppelin/contracts-upgradeable/token/ERC20/ERC20Upgradeable.sol\":8151:8223  require(fromBalance >= amount, \"ERC20: transfer amount exceeds balance\") */\n      0x04\n      dup3\n      add\n        /* \"#utility.yul\":10832:10853   */\n      mstore\n        /* \"#utility.yul\":10889:10891   */\n      0x26\n        /* \"#utility.yul\":10869:10887   */\n      0x24\n      dup3\n      add\n        /* \"#utility.yul\":10862:10892   */\n      mstore\n        /* \"#utility.yul\":10928:10962   */\n      0x45524332303a207472616e7366657220616d6f756e7420657863656564732062\n        /* \"#utility.yul\":10908:10926   */\n      0x44\n      dup3\n      add\n        /* \"#utility.yul\":10901:10963   */\n      mstore\n      shl(0xd0, 0x616c616e6365)\n        /* \"#utility.yul\":10979:10997   */\n      0x64\n      dup3\n      add\n        /* \"#utility.yul\":10972:11008   */\n      mstore\n        /* \"#utility.yul\":11025:11044   */\n      0x84\n      add\n        /* \"@openzeppelin/contracts-upgradeable/token/ERC20/ERC20Upgradeable.sol\":8151:8223  require(fromBalance >= amount, \"ERC20: transfer amount exceeds balance\") */\n      tag_202\n        /* \"#utility.yul\":10648:11050   */\n      jump\n        /* \"@openzeppelin/contracts-upgradeable/token/ERC20/ERC20Upgradeable.sol\":8151:8223  require(fromBalance >= amount, \"ERC20: transfer amount exceeds balance\") */\n    tag_393:\n      sub(shl(0xa0, 0x01), 0x01)\n        /* \"@openzeppelin/contracts-upgradeable/token/ERC20/ERC20Upgradeable.sol\":8257:8272  _balances[from] */\n      dup1\n      dup6\n      and\n      0x00\n      dup2\n      dup2\n      mstore\n        /* \"@openzeppelin/contracts-upgradeable/token/ERC20/ERC20Upgradeable.sol\":8257:8266  _balances */\n      0x33\n        /* \"@openzeppelin/contracts-upgradeable/token/ERC20/ERC20Upgradeable.sol\":8257:8272  _balances[from] */\n      0x20\n      mstore\n      0x40\n      dup1\n      dup3\n      keccak256\n        /* \"@openzeppelin/contracts-upgradeable/token/ERC20/ERC20Upgradeable.sol\":8275:8295  fromBalance - amount */\n      dup7\n      dup7\n      sub\n        /* \"@openzeppelin/contracts-upgradeable/token/ERC20/ERC20Upgradeable.sol\":8257:8295  _balances[from] = fromBalance - amount */\n      swap1\n      sstore\n        /* \"@openzeppelin/contracts-upgradeable/token/ERC20/ERC20Upgradeable.sol\":8472:8485  _balances[to] */\n      swap3\n      dup7\n      and\n      dup1\n      dup3\n      mstore\n      swap1\n      dup4\n      swap1\n      keccak256\n        /* \"@openzeppelin/contracts-upgradeable/token/ERC20/ERC20Upgradeable.sol\":8472:8495  _balances[to] += amount */\n      dup1\n      sload\n      dup7\n      add\n      swap1\n      sstore\n        /* \"@openzeppelin/contracts-upgradeable/token/ERC20/ERC20Upgradeable.sol\":8521:8547  Transfer(from, to, amount) */\n      swap2\n      mload\n      0xddf252ad1be2c89b69c2b068fc378daa952ba7f163c4a11628f55a4df523b3ef\n      swap1\n      tag_396\n      swap1\n        /* \"@openzeppelin/contracts-upgradeable/token/ERC20/ERC20Upgradeable.sol\":8289:8295  amount */\n      dup7\n        /* \"#utility.yul\":1549:1574   */\n      dup2\n      mstore\n        /* \"#utility.yul\":1537:1539   */\n      0x20\n        /* \"#utility.yul\":1522:1540   */\n      add\n      swap1\n        /* \"#utility.yul\":1403:1580   */\n      jump\n        /* \"@openzeppelin/contracts-upgradeable/token/ERC20/ERC20Upgradeable.sol\":8521:8547  Transfer(from, to, amount) */\n    tag_396:\n      mload(0x40)\n      dup1\n      swap2\n      sub\n      swap1\n      log3\n        /* \"@openzeppelin/contracts-upgradeable/token/ERC20/ERC20Upgradeable.sol\":8558:8595  _afterTokenTransfer(from, to, amount) */\n      tag_356\n        /* \"@openzeppelin/contracts-upgradeable/access/AccessControlUpgradeable.sol\":5280:5425  function grantRole(bytes32 role, address account) public virtual override onlyRole(getRoleAdmin(role)) {... */\n      jump\n        /* \"@openzeppelin/contracts-upgradeable/access/AccessControlUpgradeable.sol\":4173:4674  function _checkRole(bytes32 role, address account) internal view virtual {... */\n    tag_314:\n        /* \"@openzeppelin/contracts-upgradeable/access/AccessControlUpgradeable.sol\":4261:4283  hasRole(role, account) */\n      tag_399\n        /* \"@openzeppelin/contracts-upgradeable/access/AccessControlUpgradeable.sol\":4269:4273  role */\n      dup3\n        /* \"@openzeppelin/contracts-upgradeable/access/AccessControlUpgradeable.sol\":4275:4282  account */\n      dup3\n        /* \"@openzeppelin/contracts-upgradeable/access/AccessControlUpgradeable.sol\":4261:4268  hasRole */\n      tag_114\n        /* \"@openzeppelin/contracts-upgradeable/access/AccessControlUpgradeable.sol\":4261:4283  hasRole(role, account) */\n      jump\t// in\n    tag_399:\n        /* \"@openzeppelin/contracts-upgradeable/access/AccessControlUpgradeable.sol\":4256:4668  if (!hasRole(role, account)) {... */\n      tag_204\n      jumpi\n        /* \"@openzeppelin/contracts-upgradeable/access/AccessControlUpgradeable.sol\":4444:4483  StringsUpgradeable.toHexString(account) */\n      tag_401\n        /* \"@openzeppelin/contracts-upgradeable/access/AccessControlUpgradeable.sol\":4475:4482  account */\n      dup2\n        /* \"@openzeppelin/contracts-upgradeable/access/AccessControlUpgradeable.sol\":4444:4474  StringsUpgradeable.toHexString */\n      tag_402\n        /* \"@openzeppelin/contracts-upgradeable/access/AccessControlUpgradeable.sol\":4444:4483  StringsUpgradeable.toHexString(account) */\n      jump\t// in\n    tag_401:\n        /* \"@openzeppelin/contracts-upgradeable/access/AccessControlUpgradeable.sol\":4554:4603  StringsUpgradeable.toHexString(uint256(role), 32) */\n      tag_403\n        /* \"@openzeppelin/contracts-upgradeable/access/AccessControlUpgradeable.sol\":4593:4597  role */\n      dup4\n        /* \"@openzeppelin/contracts-upgradeable/access/AccessControlUpgradeable.sol\":4600:4602  32 */\n      0x20\n        /* \"@openzeppelin/contracts-upgradeable/access/AccessControlUpgradeable.sol\":4554:4584  StringsUpgradeable.toHexString */\n      tag_404\n        /* \"@openzeppelin/contracts-upgradeable/access/AccessControlUpgradeable.sol\":4554:4603  StringsUpgradeable.toHexString(uint256(role), 32) */\n      jump\t// in\n    tag_403:\n        /* \"@openzeppelin/contracts-upgradeable/access/AccessControlUpgradeable.sol\":4351:4625  abi.encodePacked(... */\n      add(0x20, mload(0x40))\n      tag_405\n      swap3\n      swap2\n      swap1\n      tag_406\n      jump\t// in\n    tag_405:\n      0x40\n      dup1\n      mload\n      not(0x1f)\n      dup2\n      dup5\n      sub\n      add\n      dup2\n      mstore\n      swap1\n      dup3\n      swap1\n      mstore\n      shl(0xe5, 0x461bcd)\n        /* \"@openzeppelin/contracts-upgradeable/access/AccessControlUpgradeable.sol\":4299:4657  revert(... */\n      dup3\n      mstore\n      tag_202\n      swap2\n      0x04\n      add\n      tag_50\n      jump\t// in\n        /* \"@openzeppelin/contracts-upgradeable/token/ERC20/ERC20Upgradeable.sol\":2292:2451  function __ERC20_init_unchained(string memory name_, string memory symbol_) internal onlyInitializing {... */\n    tag_364:\n        /* \"@openzeppelin/contracts-upgradeable/proxy/utils/Initializable.sol\":5374:5387  _initializing */\n      sload(0x00)\n      0x0100\n      swap1\n      div\n      0xff\n      and\n        /* \"@openzeppelin/contracts-upgradeable/proxy/utils/Initializable.sol\":5366:5435  require(_initializing, \"Initializable: contract is not initializing\") */\n      tag_411\n      jumpi\n      mload(0x40)\n      shl(0xe5, 0x461bcd)\n      dup2\n      mstore\n      0x04\n      add\n      tag_202\n      swap1\n      tag_361\n      jump\t// in\n    tag_411:\n        /* \"@openzeppelin/contracts-upgradeable/token/ERC20/ERC20Upgradeable.sol\":2404:2409  _name */\n      0x36\n        /* \"@openzeppelin/contracts-upgradeable/token/ERC20/ERC20Upgradeable.sol\":2404:2417  _name = name_ */\n      tag_414\n        /* \"@openzeppelin/contracts-upgradeable/token/ERC20/ERC20Upgradeable.sol\":2412:2417  name_ */\n      dup4\n        /* \"@openzeppelin/contracts-upgradeable/token/ERC20/ERC20Upgradeable.sol\":2404:2409  _name */\n      dup3\n        /* \"@openzeppelin/contracts-upgradeable/token/ERC20/ERC20Upgradeable.sol\":2404:2417  _name = name_ */\n      tag_415\n      jump\t// in\n    tag_414:\n      pop\n        /* \"@openzeppelin/contracts-upgradeable/token/ERC20/ERC20Upgradeable.sol\":2427:2434  _symbol */\n      0x37\n        /* \"@openzeppelin/contracts-upgradeable/token/ERC20/ERC20Upgradeable.sol\":2427:2444  _symbol = symbol_ */\n      tag_196\n        /* \"@openzeppelin/contracts-upgradeable/token/ERC20/ERC20Upgradeable.sol\":2437:2444  symbol_ */\n      dup3\n        /* \"@openzeppelin/contracts-upgradeable/token/ERC20/ERC20Upgradeable.sol\":2427:2434  _symbol */\n      dup3\n        /* \"@openzeppelin/contracts-upgradeable/token/ERC20/ERC20Upgradeable.sol\":2427:2444  _symbol = symbol_ */\n      tag_415\n      jump\t// in\n        /* \"@openzeppelin/contracts-upgradeable/access/OwnableUpgradeable.sol\":1125:1236  function __Ownable_init_unchained() internal onlyInitializing {... */\n    tag_384:\n        /* \"@openzeppelin/contracts-upgradeable/proxy/utils/Initializable.sol\":5374:5387  _initializing */\n      sload(0x00)\n      0x0100\n      swap1\n      div\n      0xff\n      and\n        /* \"@openzeppelin/contracts-upgradeable/proxy/utils/Initializable.sol\":5366:5435  require(_initializing, \"Initializable: contract is not initializing\") */\n      tag_418\n      jumpi\n      mload(0x40)\n      shl(0xe5, 0x461bcd)\n      dup2\n      mstore\n      0x04\n      add\n      tag_202\n      swap1\n      tag_361\n      jump\t// in\n    tag_418:\n        /* \"@openzeppelin/contracts-upgradeable/access/OwnableUpgradeable.sol\":1197:1229  _transferOwnership(_msgSender()) */\n      tag_226\n        /* \"@openzeppelin/contracts-upgradeable/utils/ContextUpgradeable.sol\":965:975  msg.sender */\n      caller\n        /* \"@openzeppelin/contracts-upgradeable/access/OwnableUpgradeable.sol\":1197:1215  _transferOwnership */\n      tag_227\n        /* \"@openzeppelin/contracts-upgradeable/access/OwnableUpgradeable.sol\":1197:1229  _transferOwnership(_msgSender()) */\n      jump\t// in\n        /* \"@openzeppelin/contracts-upgradeable/utils/StringsUpgradeable.sol\":2473:2622  function toHexString(address addr) internal pure returns (string memory) {... */\n    tag_402:\n        /* \"@openzeppelin/contracts-upgradeable/utils/StringsUpgradeable.sol\":2531:2544  string memory */\n      0x60\n        /* \"@openzeppelin/contracts-upgradeable/utils/StringsUpgradeable.sol\":2563:2615  toHexString(uint256(uint160(addr)), _ADDRESS_LENGTH) */\n      tag_160\n      sub(shl(0xa0, 0x01), 0x01)\n        /* \"@openzeppelin/contracts-upgradeable/utils/StringsUpgradeable.sol\":2575:2597  uint256(uint160(addr)) */\n      dup4\n      and\n        /* \"@openzeppelin/contracts-upgradeable/utils/StringsUpgradeable.sol\":376:378  20 */\n      0x14\n        /* \"@openzeppelin/contracts-upgradeable/utils/StringsUpgradeable.sol\":1884:2321  function toHexString(uint256 value, uint256 length) internal pure returns (string memory) {... */\n    tag_404:\n        /* \"@openzeppelin/contracts-upgradeable/utils/StringsUpgradeable.sol\":1959:1972  string memory */\n      0x60\n        /* \"@openzeppelin/contracts-upgradeable/utils/StringsUpgradeable.sol\":1984:2003  bytes memory buffer */\n      0x00\n        /* \"@openzeppelin/contracts-upgradeable/utils/StringsUpgradeable.sol\":2016:2026  2 * length */\n      tag_426\n        /* \"@openzeppelin/contracts-upgradeable/utils/StringsUpgradeable.sol\":2020:2026  length */\n      dup4\n        /* \"@openzeppelin/contracts-upgradeable/utils/StringsUpgradeable.sol\":2016:2017  2 */\n      0x02\n        /* \"@openzeppelin/contracts-upgradeable/utils/StringsUpgradeable.sol\":2016:2026  2 * length */\n      tag_427\n      jump\t// in\n    tag_426:\n        /* \"@openzeppelin/contracts-upgradeable/utils/StringsUpgradeable.sol\":2016:2030  2 * length + 2 */\n      tag_428\n      swap1\n        /* \"@openzeppelin/contracts-upgradeable/utils/StringsUpgradeable.sol\":2029:2030  2 */\n      0x02\n        /* \"@openzeppelin/contracts-upgradeable/utils/StringsUpgradeable.sol\":2016:2030  2 * length + 2 */\n      tag_211\n      jump\t// in\n    tag_428:\n        /* \"@openzeppelin/contracts-upgradeable/utils/StringsUpgradeable.sol\":2006:2031  new bytes(2 * length + 2) */\n      0xffffffffffffffff\n      dup2\n      gt\n      iszero\n      tag_430\n      jumpi\n      tag_430\n      tag_431\n      jump\t// in\n    tag_430:\n      mload(0x40)\n      swap1\n      dup1\n      dup3\n      mstore\n      dup1\n      0x1f\n      add\n      not(0x1f)\n      and\n      0x20\n      add\n      dup3\n      add\n      0x40\n      mstore\n      dup1\n      iszero\n      tag_432\n      jumpi\n      0x20\n      dup3\n      add\n      dup2\n      dup1\n      calldatasize\n      dup4\n      calldatacopy\n      add\n      swap1\n      pop\n    tag_432:\n      pop\n        /* \"@openzeppelin/contracts-upgradeable/utils/StringsUpgradeable.sol\":1984:2031  bytes memory buffer = new bytes(2 * length + 2) */\n      swap1\n      pop\n      shl(0xfc, 0x03)\n        /* \"@openzeppelin/contracts-upgradeable/utils/StringsUpgradeable.sol\":2041:2047  buffer */\n      dup2\n        /* \"@openzeppelin/contracts-upgradeable/utils/StringsUpgradeable.sol\":2048:2049  0 */\n      0x00\n        /* \"@openzeppelin/contracts-upgradeable/utils/StringsUpgradeable.sol\":2041:2050  buffer[0] */\n      dup2\n      mload\n      dup2\n      lt\n      tag_434\n      jumpi\n      tag_434\n      tag_435\n      jump\t// in\n    tag_434:\n      0x20\n      add\n      add\n        /* \"@openzeppelin/contracts-upgradeable/utils/StringsUpgradeable.sol\":2041:2056  buffer[0] = \"0\" */\n      swap1\n      not(sub(shl(0xf8, 0x01), 0x01))\n      and\n      swap1\n      dup2\n      0x00\n      byte\n      swap1\n      mstore8\n      pop\n      shl(0xfb, 0x0f)\n        /* \"@openzeppelin/contracts-upgradeable/utils/StringsUpgradeable.sol\":2066:2072  buffer */\n      dup2\n        /* \"@openzeppelin/contracts-upgradeable/utils/StringsUpgradeable.sol\":2073:2074  1 */\n      0x01\n        /* \"@openzeppelin/contracts-upgradeable/utils/StringsUpgradeable.sol\":2066:2075  buffer[1] */\n      dup2\n      mload\n      dup2\n      lt\n      tag_437\n      jumpi\n      tag_437\n      tag_435\n      jump\t// in\n    tag_437:\n      0x20\n      add\n      add\n        /* \"@openzeppelin/contracts-upgradeable/utils/StringsUpgradeable.sol\":2066:2081  buffer[1] = \"x\" */\n      swap1\n      not(sub(shl(0xf8, 0x01), 0x01))\n      and\n      swap1\n      dup2\n      0x00\n      byte\n      swap1\n      mstore8\n      pop\n        /* \"@openzeppelin/contracts-upgradeable/utils/StringsUpgradeable.sol\":2096:2105  uint256 i */\n      0x00\n        /* \"@openzeppelin/contracts-upgradeable/utils/StringsUpgradeable.sol\":2108:2118  2 * length */\n      tag_441\n        /* \"@openzeppelin/contracts-upgradeable/utils/StringsUpgradeable.sol\":2112:2118  length */\n      dup5\n        /* \"@openzeppelin/contracts-upgradeable/utils/StringsUpgradeable.sol\":2108:2109  2 */\n      0x02\n        /* \"@openzeppelin/contracts-upgradeable/utils/StringsUpgradeable.sol\":2108:2118  2 * length */\n      tag_427\n      jump\t// in\n    tag_441:\n        /* \"@openzeppelin/contracts-upgradeable/utils/StringsUpgradeable.sol\":2108:2122  2 * length + 1 */\n      tag_442\n      swap1\n        /* \"@openzeppelin/contracts-upgradeable/utils/StringsUpgradeable.sol\":2121:2122  1 */\n      0x01\n        /* \"@openzeppelin/contracts-upgradeable/utils/StringsUpgradeable.sol\":2108:2122  2 * length + 1 */\n      tag_211\n      jump\t// in\n    tag_442:\n        /* \"@openzeppelin/contracts-upgradeable/utils/StringsUpgradeable.sol\":2096:2122  uint256 i = 2 * length + 1 */\n      swap1\n      pop\n        /* \"@openzeppelin/contracts-upgradeable/utils/StringsUpgradeable.sol\":2091:2219  for (uint256 i = 2 * length + 1; i > 1; --i) {... */\n    tag_438:\n        /* \"@openzeppelin/contracts-upgradeable/utils/StringsUpgradeable.sol\":2128:2129  1 */\n      0x01\n        /* \"@openzeppelin/contracts-upgradeable/utils/StringsUpgradeable.sol\":2124:2125  i */\n      dup2\n        /* \"@openzeppelin/contracts-upgradeable/utils/StringsUpgradeable.sol\":2124:2129  i > 1 */\n      gt\n        /* \"@openzeppelin/contracts-upgradeable/utils/StringsUpgradeable.sol\":2091:2219  for (uint256 i = 2 * length + 1; i > 1; --i) {... */\n      iszero\n      tag_439\n      jumpi\n      shl(0x81, 0x181899199a1a9b1b9c1cb0b131b232b3)\n        /* \"@openzeppelin/contracts-upgradeable/utils/StringsUpgradeable.sol\":2171:2176  value */\n      dup6\n        /* \"@openzeppelin/contracts-upgradeable/utils/StringsUpgradeable.sol\":2179:2182  0xf */\n      0x0f\n        /* \"@openzeppelin/contracts-upgradeable/utils/StringsUpgradeable.sol\":2171:2182  value & 0xf */\n      and\n        /* \"@openzeppelin/contracts-upgradeable/utils/StringsUpgradeable.sol\":2162:2183  _SYMBOLS[value & 0xf] */\n      0x10\n      dup2\n      lt\n      tag_444\n      jumpi\n      tag_444\n      tag_435\n      jump\t// in\n    tag_444:\n      byte\n      0xf8\n      shl\n        /* \"@openzeppelin/contracts-upgradeable/utils/StringsUpgradeable.sol\":2150:2156  buffer */\n      dup3\n        /* \"@openzeppelin/contracts-upgradeable/utils/StringsUpgradeable.sol\":2157:2158  i */\n      dup3\n        /* \"@openzeppelin/contracts-upgradeable/utils/StringsUpgradeable.sol\":2150:2159  buffer[i] */\n      dup2\n      mload\n      dup2\n      lt\n      tag_446\n      jumpi\n      tag_446\n      tag_435\n      jump\t// in\n    tag_446:\n      0x20\n      add\n      add\n        /* \"@openzeppelin/contracts-upgradeable/utils/StringsUpgradeable.sol\":2150:2183  buffer[i] = _SYMBOLS[value & 0xf] */\n      swap1\n      not(sub(shl(0xf8, 0x01), 0x01))\n      and\n      swap1\n      dup2\n      0x00\n      byte\n      swap1\n      mstore8\n      pop\n        /* \"@openzeppelin/contracts-upgradeable/utils/StringsUpgradeable.sol\":2207:2208  4 */\n      0x04\n        /* \"@openzeppelin/contracts-upgradeable/utils/StringsUpgradeable.sol\":2197:2208  value >>= 4 */\n      swap5\n      swap1\n      swap5\n      shr\n      swap4\n        /* \"@openzeppelin/contracts-upgradeable/utils/StringsUpgradeable.sol\":2131:2134  --i */\n      tag_447\n      dup2\n      tag_448\n      jump\t// in\n    tag_447:\n      swap1\n      pop\n        /* \"@openzeppelin/contracts-upgradeable/utils/StringsUpgradeable.sol\":2091:2219  for (uint256 i = 2 * length + 1; i > 1; --i) {... */\n      jump(tag_438)\n    tag_439:\n      pop\n        /* \"@openzeppelin/contracts-upgradeable/utils/StringsUpgradeable.sol\":2236:2246  value == 0 */\n      dup4\n      iszero\n        /* \"@openzeppelin/contracts-upgradeable/utils/StringsUpgradeable.sol\":2228:2283  require(value == 0, \"Strings: hex length insufficient\") */\n      tag_449\n      jumpi\n      mload(0x40)\n      shl(0xe5, 0x461bcd)\n      dup2\n      mstore\n        /* \"#utility.yul\":14776:14778   */\n      0x20\n        /* \"@openzeppelin/contracts-upgradeable/utils/StringsUpgradeable.sol\":2228:2283  require(value == 0, \"Strings: hex length insufficient\") */\n      0x04\n      dup3\n      add\n        /* \"#utility.yul\":14758:14779   */\n      dup2\n      swap1\n      mstore\n        /* \"#utility.yul\":14795:14813   */\n      0x24\n      dup3\n      add\n        /* \"#utility.yul\":14788:14818   */\n      mstore\n        /* \"#utility.yul\":14854:14888   */\n      0x537472696e67733a20686578206c656e67746820696e73756666696369656e74\n        /* \"#utility.yul\":14834:14852   */\n      0x44\n      dup3\n      add\n        /* \"#utility.yul\":14827:14889   */\n      mstore\n        /* \"#utility.yul\":14906:14924   */\n      0x64\n      add\n        /* \"@openzeppelin/contracts-upgradeable/utils/StringsUpgradeable.sol\":2228:2283  require(value == 0, \"Strings: hex length insufficient\") */\n      tag_202\n        /* \"#utility.yul\":14574:14930   */\n      jump\n        /* \"@openzeppelin/contracts-upgradeable/utils/StringsUpgradeable.sol\":2228:2283  require(value == 0, \"Strings: hex length insufficient\") */\n    tag_449:\n        /* \"@openzeppelin/contracts-upgradeable/utils/StringsUpgradeable.sol\":2307:2313  buffer */\n      swap4\n        /* \"@openzeppelin/contracts-upgradeable/utils/StringsUpgradeable.sol\":1884:2321  function toHexString(uint256 value, uint256 length) internal pure returns (string memory) {... */\n      swap3\n      pop\n      pop\n      pop\n      jump\t// out\n        /* \"#utility.yul\":14:300   */\n    tag_43:\n        /* \"#utility.yul\":72:78   */\n      0x00\n        /* \"#utility.yul\":125:127   */\n      0x20\n        /* \"#utility.yul\":113:122   */\n      dup3\n        /* \"#utility.yul\":104:111   */\n      dup5\n        /* \"#utility.yul\":100:123   */\n      sub\n        /* \"#utility.yul\":96:128   */\n      slt\n        /* \"#utility.yul\":93:145   */\n      iszero\n      tag_460\n      jumpi\n        /* \"#utility.yul\":141:142   */\n      0x00\n        /* \"#utility.yul\":138:139   */\n      0x00\n        /* \"#utility.yul\":131:143   */\n      revert\n        /* \"#utility.yul\":93:145   */\n    tag_460:\n        /* \"#utility.yul\":167:190   */\n      dup2\n      calldataload\n      not(sub(shl(0xe0, 0x01), 0x01))\n        /* \"#utility.yul\":219:251   */\n      dup2\n      and\n        /* \"#utility.yul\":209:252   */\n      dup2\n      eq\n        /* \"#utility.yul\":199:270   */\n      tag_449\n      jumpi\n        /* \"#utility.yul\":266:267   */\n      0x00\n        /* \"#utility.yul\":263:264   */\n      0x00\n        /* \"#utility.yul\":256:268   */\n      revert\n        /* \"#utility.yul\":497:915   */\n    tag_50:\n        /* \"#utility.yul\":646:648   */\n      0x20\n        /* \"#utility.yul\":635:644   */\n      dup2\n        /* \"#utility.yul\":628:649   */\n      mstore\n        /* \"#utility.yul\":609:613   */\n      0x00\n        /* \"#utility.yul\":678:684   */\n      dup3\n        /* \"#utility.yul\":672:685   */\n      mload\n        /* \"#utility.yul\":721:727   */\n      dup1\n        /* \"#utility.yul\":716:718   */\n      0x20\n        /* \"#utility.yul\":705:714   */\n      dup5\n        /* \"#utility.yul\":701:719   */\n      add\n        /* \"#utility.yul\":694:728   */\n      mstore\n        /* \"#utility.yul\":780:786   */\n      dup1\n        /* \"#utility.yul\":775:777   */\n      0x20\n        /* \"#utility.yul\":767:773   */\n      dup6\n        /* \"#utility.yul\":763:778   */\n      add\n        /* \"#utility.yul\":758:760   */\n      0x40\n        /* \"#utility.yul\":747:756   */\n      dup6\n        /* \"#utility.yul\":743:761   */\n      add\n        /* \"#utility.yul\":737:787   */\n      mcopy\n        /* \"#utility.yul\":836:837   */\n      0x00\n        /* \"#utility.yul\":831:833   */\n      0x40\n        /* \"#utility.yul\":822:828   */\n      dup3\n        /* \"#utility.yul\":811:820   */\n      dup6\n        /* \"#utility.yul\":807:829   */\n      add\n        /* \"#utility.yul\":803:834   */\n      add\n        /* \"#utility.yul\":796:838   */\n      mstore\n        /* \"#utility.yul\":906:908   */\n      0x40\n        /* \"#utility.yul\":899:901   */\n      0x1f\n        /* \"#utility.yul\":895:902   */\n      not\n        /* \"#utility.yul\":890:892   */\n      0x1f\n        /* \"#utility.yul\":882:888   */\n      dup4\n        /* \"#utility.yul\":878:893   */\n      add\n        /* \"#utility.yul\":874:903   */\n      and\n        /* \"#utility.yul\":863:872   */\n      dup5\n        /* \"#utility.yul\":859:904   */\n      add\n        /* \"#utility.yul\":855:909   */\n      add\n        /* \"#utility.yul\":847:909   */\n      swap2\n      pop\n      pop\n        /* \"#utility.yul\":497:915   */\n      swap3\n      swap2\n      pop\n      pop\n      jump\t// out\n        /* \"#utility.yul\":920:1093   */\n    tag_452:\n        /* \"#utility.yul\":988:1008   */\n      dup1\n      calldataload\n      sub(shl(0xa0, 0x01), 0x01)\n        /* \"#utility.yul\":1037:1068   */\n      dup2\n      and\n        /* \"#utility.yul\":1027:1069   */\n      dup2\n      eq\n        /* \"#utility.yul\":1017:1087   */\n      tag_465\n      jumpi\n        /* \"#utility.yul\":1083:1084   */\n      0x00\n        /* \"#utility.yul\":1080:1081   */\n      0x00\n        /* \"#utility.yul\":1073:1085   */\n      revert\n        /* \"#utility.yul\":1017:1087   */\n    tag_465:\n        /* \"#utility.yul\":920:1093   */\n      swap2\n      swap1\n      pop\n      jump\t// out\n        /* \"#utility.yul\":1098:1398   */\n    tag_53:\n        /* \"#utility.yul\":1166:1172   */\n      0x00\n        /* \"#utility.yul\":1174:1180   */\n      0x00\n        /* \"#utility.yul\":1227:1229   */\n      0x40\n        /* \"#utility.yul\":1215:1224   */\n      dup4\n        /* \"#utility.yul\":1206:1213   */\n      dup6\n        /* \"#utility.yul\":1202:1225   */\n      sub\n        /* \"#utility.yul\":1198:1230   */\n      slt\n        /* \"#utility.yul\":1195:1247   */\n      iszero\n      tag_467\n      jumpi\n        /* \"#utility.yul\":1243:1244   */\n      0x00\n        /* \"#utility.yul\":1240:1241   */\n      0x00\n        /* \"#utility.yul\":1233:1245   */\n      revert\n        /* \"#utility.yul\":1195:1247   */\n    tag_467:\n        /* \"#utility.yul\":1266:1295   */\n      tag_468\n        /* \"#utility.yul\":1285:1294   */\n      dup4\n        /* \"#utility.yul\":1266:1295   */\n      tag_452\n      jump\t// in\n    tag_468:\n        /* \"#utility.yul\":1256:1295   */\n      swap5\n        /* \"#utility.yul\":1364:1366   */\n      0x20\n        /* \"#utility.yul\":1349:1367   */\n      swap4\n      swap1\n      swap4\n      add\n        /* \"#utility.yul\":1336:1368   */\n      calldataload\n      swap4\n      pop\n      pop\n      pop\n        /* \"#utility.yul\":1098:1398   */\n      jump\t// out\n        /* \"#utility.yul\":1585:1959   */\n    tag_62:\n        /* \"#utility.yul\":1662:1668   */\n      0x00\n        /* \"#utility.yul\":1670:1676   */\n      0x00\n        /* \"#utility.yul\":1678:1684   */\n      0x00\n        /* \"#utility.yul\":1731:1733   */\n      0x60\n        /* \"#utility.yul\":1719:1728   */\n      dup5\n        /* \"#utility.yul\":1710:1717   */\n      dup7\n        /* \"#utility.yul\":1706:1729   */\n      sub\n        /* \"#utility.yul\":1702:1734   */\n      slt\n        /* \"#utility.yul\":1699:1751   */\n      iszero\n      tag_471\n      jumpi\n        /* \"#utility.yul\":1747:1748   */\n      0x00\n        /* \"#utility.yul\":1744:1745   */\n      0x00\n        /* \"#utility.yul\":1737:1749   */\n      revert\n        /* \"#utility.yul\":1699:1751   */\n    tag_471:\n        /* \"#utility.yul\":1770:1799   */\n      tag_472\n        /* \"#utility.yul\":1789:1798   */\n      dup5\n        /* \"#utility.yul\":1770:1799   */\n      tag_452\n      jump\t// in\n    tag_472:\n        /* \"#utility.yul\":1760:1799   */\n      swap3\n      pop\n        /* \"#utility.yul\":1818:1856   */\n      tag_473\n        /* \"#utility.yul\":1852:1854   */\n      0x20\n        /* \"#utility.yul\":1841:1850   */\n      dup6\n        /* \"#utility.yul\":1837:1855   */\n      add\n        /* \"#utility.yul\":1818:1856   */\n      tag_452\n      jump\t// in\n    tag_473:\n        /* \"#utility.yul\":1585:1959   */\n      swap3\n      swap6\n        /* \"#utility.yul\":1808:1856   */\n      swap3\n      swap5\n      pop\n      pop\n      pop\n        /* \"#utility.yul\":1925:1927   */\n      0x40\n        /* \"#utility.yul\":1910:1928   */\n      swap2\n      swap1\n      swap2\n      add\n        /* \"#utility.yul\":1897:1929   */\n      calldataload\n      swap1\n        /* \"#utility.yul\":1585:1959   */\n      jump\t// out\n        /* \"#utility.yul\":1964:2190   */\n    tag_67:\n        /* \"#utility.yul\":2023:2029   */\n      0x00\n        /* \"#utility.yul\":2076:2078   */\n      0x20\n        /* \"#utility.yul\":2064:2073   */\n      dup3\n        /* \"#utility.yul\":2055:2062   */\n      dup5\n        /* \"#utility.yul\":2051:2074   */\n      sub\n        /* \"#utility.yul\":2047:2079   */\n      slt\n        /* \"#utility.yul\":2044:2096   */\n      iszero\n      tag_475\n      jumpi\n        /* \"#utility.yul\":2092:2093   */\n      0x00\n        /* \"#utility.yul\":2089:2090   */\n      0x00\n        /* \"#utility.yul\":2082:2094   */\n      revert\n        /* \"#utility.yul\":2044:2096   */\n    tag_475:\n      pop\n        /* \"#utility.yul\":2137:2160   */\n      calldataload\n      swap2\n        /* \"#utility.yul\":1964:2190   */\n      swap1\n      pop\n      jump\t// out\n        /* \"#utility.yul\":2377:2677   */\n    tag_73:\n        /* \"#utility.yul\":2445:2451   */\n      0x00\n        /* \"#utility.yul\":2453:2459   */\n      0x00\n        /* \"#utility.yul\":2506:2508   */\n      0x40\n        /* \"#utility.yul\":2494:2503   */\n      dup4\n        /* \"#utility.yul\":2485:2492   */\n      dup6\n        /* \"#utility.yul\":2481:2504   */\n      sub\n        /* \"#utility.yul\":2477:2509   */\n      slt\n        /* \"#utility.yul\":2474:2526   */\n      iszero\n      tag_478\n      jumpi\n        /* \"#utility.yul\":2522:2523   */\n      0x00\n        /* \"#utility.yul\":2519:2520   */\n      0x00\n        /* \"#utility.yul\":2512:2524   */\n      revert\n        /* \"#utility.yul\":2474:2526   */\n    tag_478:\n        /* \"#utility.yul\":2567:2590   */\n      dup3\n      calldataload\n      swap2\n      pop\n        /* \"#utility.yul\":2633:2671   */\n      tag_479\n        /* \"#utility.yul\":2667:2669   */\n      0x20\n        /* \"#utility.yul\":2652:2670   */\n      dup5\n      add\n        /* \"#utility.yul\":2633:2671   */\n      tag_452\n      jump\t// in\n    tag_479:\n        /* \"#utility.yul\":2623:2671   */\n      swap1\n      pop\n        /* \"#utility.yul\":2377:2677   */\n      swap3\n      pop\n      swap3\n      swap1\n      pop\n      jump\t// out\n        /* \"#utility.yul\":3102:3288   */\n    tag_98:\n        /* \"#utility.yul\":3161:3167   */\n      0x00\n        /* \"#utility.yul\":3214:3216   */\n      0x20\n        /* \"#utility.yul\":3202:3211   */\n      dup3\n        /* \"#utility.yul\":3193:3200   */\n      dup5\n        /* \"#utility.yul\":3189:3212   */\n      sub\n        /* \"#utility.yul\":3185:3217   */\n      slt\n        /* \"#utility.yul\":3182:3234   */\n      iszero\n      tag_484\n      jumpi\n        /* \"#utility.yul\":3230:3231   */\n      0x00\n        /* \"#utility.yul\":3227:3228   */\n      0x00\n        /* \"#utility.yul\":3220:3232   */\n      revert\n        /* \"#utility.yul\":3182:3234   */\n    tag_484:\n        /* \"#utility.yul\":3253:3282   */\n      tag_449\n        /* \"#utility.yul\":3272:3281   */\n      dup3\n        /* \"#utility.yul\":3253:3282   */\n      tag_452\n      jump\t// in\n        /* \"#utility.yul\":3698:3958   */\n    tag_148:\n        /* \"#utility.yul\":3766:3772   */\n      0x00\n        /* \"#utility.yul\":3774:3780   */\n      0x00\n        /* \"#utility.yul\":3827:3829   */\n      0x40\n        /* \"#utility.yul\":3815:3824   */\n      dup4\n        /* \"#utility.yul\":3806:3813   */\n      dup6\n        /* \"#utility.yul\":3802:3825   */\n      sub\n        /* \"#utility.yul\":3798:3830   */\n      slt\n        /* \"#utility.yul\":3795:3847   */\n      iszero\n      tag_489\n      jumpi\n        /* \"#utility.yul\":3843:3844   */\n      0x00\n        /* \"#utility.yul\":3840:3841   */\n      0x00\n        /* \"#utility.yul\":3833:3845   */\n      revert\n        /* \"#utility.yul\":3795:3847   */\n    tag_489:\n        /* \"#utility.yul\":3866:3895   */\n      tag_490\n        /* \"#utility.yul\":3885:3894   */\n      dup4\n        /* \"#utility.yul\":3866:3895   */\n      tag_452\n      jump\t// in\n    tag_490:\n        /* \"#utility.yul\":3856:3895   */\n      swap2\n      pop\n        /* \"#utility.yul\":3914:3952   */\n      tag_479\n        /* \"#utility.yul\":3948:3950   */\n      0x20\n        /* \"#utility.yul\":3937:3946   */\n      dup5\n        /* \"#utility.yul\":3933:3951   */\n      add\n        /* \"#utility.yul\":3914:3952   */\n      tag_452\n      jump\t// in\n        /* \"#utility.yul\":3963:4239   */\n    tag_153:\n        /* \"#utility.yul\":4021:4027   */\n      0x00\n        /* \"#utility.yul\":4074:4076   */\n      0x20\n        /* \"#utility.yul\":4062:4071   */\n      dup3\n        /* \"#utility.yul\":4053:4060   */\n      dup5\n        /* \"#utility.yul\":4049:4072   */\n      sub\n        /* \"#utility.yul\":4045:4077   */\n      slt\n        /* \"#utility.yul\":4042:4094   */\n      iszero\n      tag_493\n      jumpi\n        /* \"#utility.yul\":4090:4091   */\n      0x00\n        /* \"#utility.yul\":4087:4088   */\n      0x00\n        /* \"#utility.yul\":4080:4092   */\n      revert\n        /* \"#utility.yul\":4042:4094   */\n    tag_493:\n        /* \"#utility.yul\":4129:4138   */\n      dup2\n        /* \"#utility.yul\":4116:4139   */\n      calldataload\n        /* \"#utility.yul\":4179:4189   */\n      0xffffffff\n        /* \"#utility.yul\":4172:4177   */\n      dup2\n        /* \"#utility.yul\":4168:4190   */\n      and\n        /* \"#utility.yul\":4161:4166   */\n      dup2\n        /* \"#utility.yul\":4158:4191   */\n      eq\n        /* \"#utility.yul\":4148:4209   */\n      tag_449\n      jumpi\n        /* \"#utility.yul\":4205:4206   */\n      0x00\n        /* \"#utility.yul\":4202:4203   */\n      0x00\n        /* \"#utility.yul\":4195:4207   */\n      revert\n        /* \"#utility.yul\":4244:4624   */\n    tag_164:\n        /* \"#utility.yul\":4323:4324   */\n      0x01\n        /* \"#utility.yul\":4319:4331   */\n      dup2\n      dup2\n      shr\n      swap1\n        /* \"#utility.yul\":4366:4378   */\n      dup3\n      and\n      dup1\n        /* \"#utility.yul\":4387:4448   */\n      tag_496\n      jumpi\n        /* \"#utility.yul\":4441:4445   */\n      0x7f\n        /* \"#utility.yul\":4433:4439   */\n      dup3\n        /* \"#utility.yul\":4429:4446   */\n      and\n        /* \"#utility.yul\":4419:4446   */\n      swap2\n      pop\n        /* \"#utility.yul\":4387:4448   */\n    tag_496:\n        /* \"#utility.yul\":4494:4496   */\n      0x20\n        /* \"#utility.yul\":4486:4492   */\n      dup3\n        /* \"#utility.yul\":4483:4497   */\n      lt\n        /* \"#utility.yul\":4463:4481   */\n      dup2\n        /* \"#utility.yul\":4460:4498   */\n      sub\n        /* \"#utility.yul\":4457:4618   */\n      tag_497\n      jumpi\n        /* \"#utility.yul\":4540:4550   */\n      0x4e487b71\n        /* \"#utility.yul\":4535:4538   */\n      0xe0\n        /* \"#utility.yul\":4531:4551   */\n      shl\n        /* \"#utility.yul\":4528:4529   */\n      0x00\n        /* \"#utility.yul\":4521:4552   */\n      mstore\n        /* \"#utility.yul\":4575:4579   */\n      0x22\n        /* \"#utility.yul\":4572:4573   */\n      0x04\n        /* \"#utility.yul\":4565:4580   */\n      mstore\n        /* \"#utility.yul\":4603:4607   */\n      0x24\n        /* \"#utility.yul\":4600:4601   */\n      0x00\n        /* \"#utility.yul\":4593:4608   */\n      revert\n        /* \"#utility.yul\":4457:4618   */\n    tag_497:\n      pop\n        /* \"#utility.yul\":4244:4624   */\n      swap2\n      swap1\n      pop\n      jump\t// out\n        /* \"#utility.yul\":5045:5172   */\n    tag_453:\n        /* \"#utility.yul\":5106:5116   */\n      0x4e487b71\n        /* \"#utility.yul\":5101:5104   */\n      0xe0\n        /* \"#utility.yul\":5097:5117   */\n      shl\n        /* \"#utility.yul\":5094:5095   */\n      0x00\n        /* \"#utility.yul\":5087:5118   */\n      mstore\n        /* \"#utility.yul\":5137:5141   */\n      0x11\n        /* \"#utility.yul\":5134:5135   */\n      0x04\n        /* \"#utility.yul\":5127:5142   */\n      mstore\n        /* \"#utility.yul\":5161:5165   */\n      0x24\n        /* \"#utility.yul\":5158:5159   */\n      0x00\n        /* \"#utility.yul\":5151:5166   */\n      revert\n        /* \"#utility.yul\":5177:5302   */\n    tag_211:\n        /* \"#utility.yul\":5242:5251   */\n      dup1\n      dup3\n      add\n        /* \"#utility.yul\":5263:5273   */\n      dup1\n      dup3\n      gt\n        /* \"#utility.yul\":5260:5296   */\n      iszero\n      tag_160\n      jumpi\n        /* \"#utility.yul\":5276:5294   */\n      tag_160\n      tag_453\n      jump\t// in\n        /* \"#utility.yul\":9426:9833   */\n    tag_361:\n        /* \"#utility.yul\":9628:9630   */\n      0x20\n        /* \"#utility.yul\":9610:9631   */\n      dup1\n      dup3\n      mstore\n        /* \"#utility.yul\":9667:9669   */\n      0x2b\n        /* \"#utility.yul\":9647:9665   */\n      swap1\n      dup3\n      add\n        /* \"#utility.yul\":9640:9670   */\n      mstore\n        /* \"#utility.yul\":9706:9740   */\n      0x496e697469616c697a61626c653a20636f6e7472616374206973206e6f742069\n        /* \"#utility.yul\":9701:9703   */\n      0x40\n        /* \"#utility.yul\":9686:9704   */\n      dup3\n      add\n        /* \"#utility.yul\":9679:9741   */\n      mstore\n      shl(0xa8, 0x6e697469616c697a696e67)\n        /* \"#utility.yul\":9772:9774   */\n      0x60\n        /* \"#utility.yul\":9757:9775   */\n      dup3\n      add\n        /* \"#utility.yul\":9750:9791   */\n      mstore\n        /* \"#utility.yul\":9823:9826   */\n      0x80\n        /* \"#utility.yul\":9808:9827   */\n      add\n      swap1\n        /* \"#utility.yul\":9426:9833   */\n      jump\t// out\n        /* \"#utility.yul\":11055:11267   */\n    tag_454:\n        /* \"#utility.yul\":11097:11100   */\n      0x00\n        /* \"#utility.yul\":11135:11140   */\n      dup2\n        /* \"#utility.yul\":11129:11141   */\n      mload\n        /* \"#utility.yul\":11179:11185   */\n      dup1\n        /* \"#utility.yul\":11172:11176   */\n      0x20\n        /* \"#utility.yul\":11165:11170   */\n      dup5\n        /* \"#utility.yul\":11161:11177   */\n      add\n        /* \"#utility.yul\":11156:11159   */\n      dup6\n        /* \"#utility.yul\":11150:11186   */\n      mcopy\n        /* \"#utility.yul\":11241:11242   */\n      0x00\n        /* \"#utility.yul\":11205:11221   */\n      swap4\n      add\n        /* \"#utility.yul\":11230:11243   */\n      swap3\n      dup4\n      mstore\n      pop\n        /* \"#utility.yul\":11205:11221   */\n      swap1\n      swap2\n        /* \"#utility.yul\":11055:11267   */\n      swap1\n      pop\n      jump\t// out\n        /* \"#utility.yul\":11272:11867   */\n    tag_406:\n        /* \"#utility.yul\":11683:11708   */\n      0x416363657373436f6e74726f6c3a206163636f756e7420000000000000000000\n        /* \"#utility.yul\":11678:11681   */\n      dup2\n        /* \"#utility.yul\":11671:11709   */\n      mstore\n        /* \"#utility.yul\":11653:11656   */\n      0x00\n        /* \"#utility.yul\":11728:11767   */\n      tag_520\n        /* \"#utility.yul\":11763:11765   */\n      0x17\n        /* \"#utility.yul\":11758:11761   */\n      dup4\n        /* \"#utility.yul\":11754:11766   */\n      add\n        /* \"#utility.yul\":11746:11752   */\n      dup6\n        /* \"#utility.yul\":11728:11767   */\n      tag_454\n      jump\t// in\n    tag_520:\n      shl(0x7d, 0x01034b99036b4b9b9b4b733903937b6329)\n        /* \"#utility.yul\":11783:11785   */\n      dup2\n        /* \"#utility.yul\":11776:11807   */\n      mstore\n        /* \"#utility.yul\":11823:11861   */\n      tag_521\n        /* \"#utility.yul\":11857:11859   */\n      0x11\n        /* \"#utility.yul\":11853:11855   */\n      dup3\n        /* \"#utility.yul\":11849:11860   */\n      add\n        /* \"#utility.yul\":11841:11847   */\n      dup6\n        /* \"#utility.yul\":11823:11861   */\n      tag_454\n      jump\t// in\n    tag_521:\n        /* \"#utility.yul\":11816:11861   */\n      swap6\n        /* \"#utility.yul\":11272:11867   */\n      swap5\n      pop\n      pop\n      pop\n      pop\n      pop\n      jump\t// out\n        /* \"#utility.yul\":11872:11999   */\n    tag_431:\n        /* \"#utility.yul\":11933:11943   */\n      0x4e487b71\n        /* \"#utility.yul\":11928:11931   */\n      0xe0\n        /* \"#utility.yul\":11924:11944   */\n      shl\n        /* \"#utility.yul\":11921:11922   */\n      0x00\n        /* \"#utility.yul\":11914:11945   */\n      mstore\n        /* \"#utility.yul\":11964:11968   */\n      0x41\n        /* \"#utility.yul\":11961:11962   */\n      0x04\n        /* \"#utility.yul\":11954:11969   */\n      mstore\n        /* \"#utility.yul\":11988:11992   */\n      0x24\n        /* \"#utility.yul\":11985:11986   */\n      0x00\n        /* \"#utility.yul\":11978:11993   */\n      revert\n        /* \"#utility.yul\":12130:12648   */\n    tag_456:\n        /* \"#utility.yul\":12232:12234   */\n      0x1f\n        /* \"#utility.yul\":12227:12230   */\n      dup3\n        /* \"#utility.yul\":12224:12235   */\n      gt\n        /* \"#utility.yul\":12221:12642   */\n      iszero\n      tag_196\n      jumpi\n        /* \"#utility.yul\":12268:12273   */\n      dup1\n        /* \"#utility.yul\":12265:12266   */\n      0x00\n        /* \"#utility.yul\":12258:12274   */\n      mstore\n        /* \"#utility.yul\":12312:12316   */\n      0x20\n        /* \"#utility.yul\":12309:12310   */\n      0x00\n        /* \"#utility.yul\":12299:12317   */\n      keccak256\n        /* \"#utility.yul\":12382:12384   */\n      0x1f\n        /* \"#utility.yul\":12370:12380   */\n      dup5\n        /* \"#utility.yul\":12366:12385   */\n      add\n        /* \"#utility.yul\":12363:12364   */\n      0x05\n        /* \"#utility.yul\":12359:12386   */\n      shr\n        /* \"#utility.yul\":12353:12357   */\n      dup2\n        /* \"#utility.yul\":12349:12387   */\n      add\n        /* \"#utility.yul\":12418:12422   */\n      0x20\n        /* \"#utility.yul\":12406:12416   */\n      dup6\n        /* \"#utility.yul\":12403:12423   */\n      lt\n        /* \"#utility.yul\":12400:12447   */\n      iszero\n      tag_526\n      jumpi\n      pop\n        /* \"#utility.yul\":12441:12445   */\n      dup1\n        /* \"#utility.yul\":12400:12447   */\n    tag_526:\n        /* \"#utility.yul\":12496:12498   */\n      0x1f\n        /* \"#utility.yul\":12491:12494   */\n      dup5\n        /* \"#utility.yul\":12487:12499   */\n      add\n        /* \"#utility.yul\":12484:12485   */\n      0x05\n        /* \"#utility.yul\":12480:12500   */\n      shr\n        /* \"#utility.yul\":12474:12478   */\n      dup3\n        /* \"#utility.yul\":12470:12501   */\n      add\n        /* \"#utility.yul\":12460:12501   */\n      swap2\n      pop\n        /* \"#utility.yul\":12551:12632   */\n    tag_527:\n        /* \"#utility.yul\":12569:12571   */\n      dup2\n        /* \"#utility.yul\":12562:12567   */\n      dup2\n        /* \"#utility.yul\":12559:12572   */\n      lt\n        /* \"#utility.yul\":12551:12632   */\n      iszero\n      tag_529\n      jumpi\n        /* \"#utility.yul\":12628:12629   */\n      0x00\n        /* \"#utility.yul\":12614:12630   */\n      dup2\n      sstore\n        /* \"#utility.yul\":12595:12596   */\n      0x01\n        /* \"#utility.yul\":12584:12597   */\n      add\n        /* \"#utility.yul\":12551:12632   */\n      jump(tag_527)\n    tag_529:\n        /* \"#utility.yul\":12555:12558   */\n      pop\n      pop\n        /* \"#utility.yul\":12130:12648   */\n      pop\n      pop\n      pop\n      jump\t// out\n        /* \"#utility.yul\":12824:14123   */\n    tag_415:\n        /* \"#utility.yul\":12950:12953   */\n      dup2\n        /* \"#utility.yul\":12944:12954   */\n      mload\n        /* \"#utility.yul\":12977:12995   */\n      0xffffffffffffffff\n        /* \"#utility.yul\":12969:12975   */\n      dup2\n        /* \"#utility.yul\":12966:12996   */\n      gt\n        /* \"#utility.yul\":12963:13019   */\n      iszero\n      tag_533\n      jumpi\n        /* \"#utility.yul\":12999:13017   */\n      tag_533\n      tag_431\n      jump\t// in\n    tag_533:\n        /* \"#utility.yul\":13028:13125   */\n      tag_534\n        /* \"#utility.yul\":13118:13124   */\n      dup2\n        /* \"#utility.yul\":13078:13116   */\n      tag_535\n        /* \"#utility.yul\":13110:13114   */\n      dup5\n        /* \"#utility.yul\":13104:13115   */\n      sload\n        /* \"#utility.yul\":13078:13116   */\n      tag_164\n      jump\t// in\n    tag_535:\n        /* \"#utility.yul\":13072:13076   */\n      dup5\n        /* \"#utility.yul\":13028:13125   */\n      tag_456\n      jump\t// in\n    tag_534:\n        /* \"#utility.yul\":13174:13178   */\n      0x20\n        /* \"#utility.yul\":13205:13207   */\n      0x1f\n        /* \"#utility.yul\":13194:13208   */\n      dup3\n      gt\n        /* \"#utility.yul\":13222:13223   */\n      0x01\n        /* \"#utility.yul\":13217:13866   */\n      dup2\n      eq\n      tag_537\n      jumpi\n        /* \"#utility.yul\":13910:13911   */\n      0x00\n        /* \"#utility.yul\":13927:13933   */\n      dup4\n        /* \"#utility.yul\":13924:14013   */\n      iszero\n      tag_538\n      jumpi\n      pop\n        /* \"#utility.yul\":13979:13998   */\n      dup5\n      dup3\n      add\n        /* \"#utility.yul\":13973:13999   */\n      mload\n        /* \"#utility.yul\":13924:14013   */\n    tag_538:\n      not(0x00)\n        /* \"#utility.yul\":12781:12782   */\n      0x03\n        /* \"#utility.yul\":12777:12788   */\n      dup6\n      swap1\n      shl\n        /* \"#utility.yul\":12773:12797   */\n      shr\n        /* \"#utility.yul\":12769:12798   */\n      not\n        /* \"#utility.yul\":12759:12799   */\n      and\n        /* \"#utility.yul\":12805:12806   */\n      0x01\n        /* \"#utility.yul\":12801:12812   */\n      dup5\n      swap1\n      shl\n        /* \"#utility.yul\":12756:12813   */\n      or\n        /* \"#utility.yul\":14026:14107   */\n      dup5\n      sstore\n        /* \"#utility.yul\":13187:14117   */\n      jump(tag_529)\n        /* \"#utility.yul\":13217:13866   */\n    tag_537:\n        /* \"#utility.yul\":12077:12078   */\n      0x00\n        /* \"#utility.yul\":12070:12084   */\n      dup5\n      dup2\n      mstore\n        /* \"#utility.yul\":12114:12118   */\n      0x20\n        /* \"#utility.yul\":12101:12119   */\n      dup2\n      keccak256\n      not(0x1f)\n        /* \"#utility.yul\":13253:13273   */\n      dup6\n      and\n      swap2\n        /* \"#utility.yul\":13371:13593   */\n    tag_541:\n        /* \"#utility.yul\":13385:13392   */\n      dup3\n        /* \"#utility.yul\":13382:13383   */\n      dup2\n        /* \"#utility.yul\":13379:13393   */\n      lt\n        /* \"#utility.yul\":13371:13593   */\n      iszero\n      tag_543\n      jumpi\n        /* \"#utility.yul\":13467:13486   */\n      dup8\n      dup6\n      add\n        /* \"#utility.yul\":13461:13487   */\n      mload\n        /* \"#utility.yul\":13446:13488   */\n      dup3\n      sstore\n        /* \"#utility.yul\":13574:13578   */\n      0x20\n        /* \"#utility.yul\":13559:13579   */\n      swap5\n      dup6\n      add\n      swap5\n        /* \"#utility.yul\":13527:13528   */\n      0x01\n        /* \"#utility.yul\":13515:13529   */\n      swap1\n      swap3\n      add\n      swap2\n        /* \"#utility.yul\":13401:13413   */\n      add\n        /* \"#utility.yul\":13371:13593   */\n      jump(tag_541)\n    tag_543:\n        /* \"#utility.yul\":13375:13378   */\n      pop\n        /* \"#utility.yul\":13621:13627   */\n      dup5\n        /* \"#utility.yul\":13612:13619   */\n      dup3\n        /* \"#utility.yul\":13609:13628   */\n      lt\n        /* \"#utility.yul\":13606:13807   */\n      iszero\n      tag_544\n      jumpi\n        /* \"#utility.yul\":13682:13701   */\n      dup7\n      dup5\n      add\n        /* \"#utility.yul\":13676:13702   */\n      mload\n      not(0x00)\n        /* \"#utility.yul\":13765:13766   */\n      0x03\n        /* \"#utility.yul\":13761:13775   */\n      dup8\n      swap1\n      shl\n        /* \"#utility.yul\":13777:13780   */\n      0xf8\n        /* \"#utility.yul\":13757:13781   */\n      and\n        /* \"#utility.yul\":13753:13790   */\n      shr\n        /* \"#utility.yul\":13749:13791   */\n      not\n        /* \"#utility.yul\":13734:13792   */\n      and\n        /* \"#utility.yul\":13719:13793   */\n      dup2\n      sstore\n        /* \"#utility.yul\":13606:13807   */\n    tag_544:\n      pop\n      pop\n      pop\n      pop\n        /* \"#utility.yul\":13853:13854   */\n      0x01\n        /* \"#utility.yul\":13837:13851   */\n      swap1\n      dup2\n      shl\n        /* \"#utility.yul\":13833:13855   */\n      add\n        /* \"#utility.yul\":13820:13856   */\n      swap1\n      sstore\n      pop\n        /* \"#utility.yul\":12824:14123   */\n      jump\t// out\n        /* \"#utility.yul\":14128:14296   */\n    tag_427:\n        /* \"#utility.yul\":14201:14210   */\n      dup1\n      dup3\n      mul\n        /* \"#utility.yul\":14232:14241   */\n      dup2\n      iszero\n        /* \"#utility.yul\":14249:14264   */\n      dup3\n      dup3\n      div\n        /* \"#utility.yul\":14243:14265   */\n      dup5\n      eq\n        /* \"#utility.yul\":14229:14266   */\n      or\n        /* \"#utility.yul\":14219:14290   */\n      tag_160\n      jumpi\n        /* \"#utility.yul\":14270:14288   */\n      tag_160\n      tag_453\n      jump\t// in\n        /* \"#utility.yul\":14301:14428   */\n    tag_435:\n        /* \"#utility.yul\":14362:14372   */\n      0x4e487b71\n        /* \"#utility.yul\":14357:14360   */\n      0xe0\n        /* \"#utility.yul\":14353:14373   */\n      shl\n        /* \"#utility.yul\":14350:14351   */\n      0x00\n        /* \"#utility.yul\":14343:14374   */\n      mstore\n        /* \"#utility.yul\":14393:14397   */\n      0x32\n        /* \"#utility.yul\":14390:14391   */\n      0x04\n        /* \"#utility.yul\":14383:14398   */\n      mstore\n        /* \"#utility.yul\":14417:14421   */\n      0x24\n        /* \"#utility.yul\":14414:14415   */\n      0x00\n        /* \"#utility.yul\":14407:14422   */\n      revert\n        /* \"#utility.yul\":14433:14569   */\n    tag_448:\n        /* \"#utility.yul\":14472:14475   */\n      0x00\n        /* \"#utility.yul\":14500:14505   */\n      dup2\n        /* \"#utility.yul\":14490:14529   */\n      tag_551\n      jumpi\n        /* \"#utility.yul\":14509:14527   */\n      tag_551\n      tag_453\n      jump\t// in\n    tag_551:\n      pop\n      not(0x00)\n        /* \"#utility.yul\":14545:14563   */\n      add\n      swap1\n        /* \"#utility.yul\":14433:14569   */\n      jump\t// out\n\n    auxdata: 0xa264697066735822122068d1b88710002b7679e654ee9c3c4ada6117129ea101befa5817c74403718dc864736f6c634300081e0033\n}\n",
				"bytecode": {
					"linkReferences": {},
					"object": "6080604052348015600e575f5ffd5b506119c38061001c5f395ff3fe608060405234801561000f575f5ffd5b50600436106101dc575f3560e01c806379cc679011610109578063a9059cbb1161009e578063d547741f1161006e578063d547741f14610443578063dd62ed3e14610456578063e90cdd1c14610469578063f2fde38b1461047c575f5ffd5b8063a9059cbb146103bc578063b930908f146103cf578063bd39a2a8146103f6578063d53913931461041c575f5ffd5b806395d89b41116100d957806395d89b41146103875780639dc29fac1461038f578063a217fddf146103a2578063a457c2d7146103a9575f5ffd5b806379cc67901461033e5780638129fc1c146103515780638da5cb5b1461035957806391d1485414610374575f5ffd5b8063313ce5671161017f57806342966c681161014f57806342966c68146102d45780634e695cca146102e757806370a082311461030e578063715018a614610336575f5ffd5b8063313ce5671461028c57806336568abe1461029b57806339509351146102ae57806340c10f19146102c1575f5ffd5b806318160ddd116101ba57806318160ddd1461023057806323b872dd14610242578063248a9ca3146102555780632f2ff15d14610277575f5ffd5b806301ffc9a7146101e057806306fdde0314610208578063095ea7b31461021d575b5f5ffd5b6101f36101ee366004611596565b61048f565b60405190151581526020015b60405180910390f35b6102106104c5565b6040516101ff91906115bd565b6101f361022b36600461160d565b610555565b6035545b6040519081526020016101ff565b6101f3610250366004611635565b61056c565b61023461026336600461166f565b5f90815260fb602052604090206001015490565b61028a610285366004611686565b610632565b005b604051601281526020016101ff565b61028a6102a9366004611686565b61065b565b6101f36102bc36600461160d565b6106de565b61028a6102cf36600461160d565b6106ff565b61028a6102e236600461166f565b610733565b6102347f2f26ac9ab74d35285b05b7b0d4a0f2ffdef33823bc15863d6299dbdd56e7b6b081565b61023461031c3660046116b0565b6001600160a01b03165f9081526033602052604090205490565b61028a610740565b61028a61034c36600461160d565b610753565b61028a610768565b6065546040516001600160a01b0390911681526020016101ff565b6101f3610382366004611686565b610908565b610210610932565b61028a61039d36600461160d565b610941565b6102345f81565b6101f36103b736600461160d565b610975565b6101f36103ca36600461160d565b6109fa565b6102347fe97b137254058bd94f28d2f3eb79e2d34074ffb488d042e3bc958e0a57d2fa2281565b61012d546104079063ffffffff1681565b60405163ffffffff90911681526020016101ff565b6102347f9f2df0fed2c77648de5860a4cc508cd0818c85b8b8a1ab4ceeef8d981c8956a681565b61028a610451366004611686565b610a07565b6102346104643660046116c9565b610a2b565b61028a6104773660046116f1565b610a55565b61028a61048a3660046116b0565b610af5565b5f6001600160e01b03198216637965db0b60e01b14806104bf57506301ffc9a760e01b6001600160e01b03198316145b92915050565b6060603680546104d490611714565b80601f016020809104026020016040519081016040528092919081815260200182805461050090611714565b801561054b5780601f106105225761010080835404028352916020019161054b565b820191905f5260205f20905b81548152906001019060200180831161052e57829003601f168201915b5050505050905090565b5f33610562818585610b6b565b5060019392505050565b61012d545f9084908490839063ffffffff161580610592575061012d5463ffffffff1642105b9050801561061c575f6105a58185610908565b806105b557506105b55f84610908565b806105c557506105c55f33610908565b9050801580156105fc57506105fa7f2f26ac9ab74d35285b05b7b0d4a0f2ffdef33823bc15863d6299dbdd56e7b6b084610908565b155b1561061a5760405163afae8e9760e01b815260040160405180910390fd5b505b610627878787610c8e565b979650505050505050565b5f82815260fb602052604090206001015461064c81610ca6565b6106568383610cb0565b505050565b6001600160a01b03811633146106d05760405162461bcd60e51b815260206004820152602f60248201527f416363657373436f6e74726f6c3a2063616e206f6e6c792072656e6f756e636560448201526e103937b632b9903337b91039b2b63360891b60648201526084015b60405180910390fd5b6106da8282610d35565b5050565b5f336105628185856106f08383610a2b565b6106fa9190611760565b610b6b565b7f9f2df0fed2c77648de5860a4cc508cd0818c85b8b8a1ab4ceeef8d981c8956a661072981610ca6565b6106568383610d9b565b61073d3382610e5a565b50565b610748610f8c565b6107515f610fe6565b565b61075e823383611037565b6106da8282610e5a565b5f54610100900460ff161580801561078657505f54600160ff909116105b8061079f5750303b15801561079f57505f5460ff166001145b6108025760405162461bcd60e51b815260206004820152602e60248201527f496e697469616c697a61626c653a20636f6e747261637420697320616c72656160448201526d191e481a5b9a5d1a585b1a5e995960921b60648201526084016106c7565b5f805460ff191660011790558015610823575f805461ff0019166101001790555b61086760405180604001604052806006815260200165416c7661726160d01b81525060405180604001604052806004815260200163414c564160e01b8152506110af565b61086f6110df565b6108b97f9f2df0fed2c77648de5860a4cc508cd0818c85b8b8a1ab4ceeef8d981c8956a67fe97b137254058bd94f28d2f3eb79e2d34074ffb488d042e3bc958e0a57d2fa22611105565b6108c1611149565b801561073d575f805461ff0019169055604051600181527f7f26b83ff96e1f2b6a682f133852f6798a09c465da95921460cefb38474024989060200160405180910390a150565b5f91825260fb602090815260408084206001600160a01b0393909316845291905290205460ff1690565b6060603780546104d490611714565b7fe97b137254058bd94f28d2f3eb79e2d34074ffb488d042e3bc958e0a57d2fa2261096b81610ca6565b6106568383610e5a565b5f33816109828286610a2b565b9050838110156109e25760405162461bcd60e51b815260206004820152602560248201527f45524332303a2064656372656173656420616c6c6f77616e63652062656c6f77604482015264207a65726f60d81b60648201526084016106c7565b6109ef8286868403610b6b565b506001949350505050565b5f33610562818585611177565b5f82815260fb6020526040902060010154610a2181610ca6565b6106568383610d35565b6001600160a01b039182165f90815260346020908152604080832093909416825291909152205490565b5f610a5f81610ca6565b61012d5463ffffffff1615801590610a80575061012d5463ffffffff164210155b15610a9e57604051636f555ee160e11b815260040160405180910390fd5b60405163ffffffff831681527f0e210431ce7e96eef28f9095d645802317660c1411f89b4d642456f027e7c8d69060200160405180910390a15061012d805463ffffffff191663ffffffff92909216919091179055565b610afd610f8c565b6001600160a01b038116610b625760405162461bcd60e51b815260206004820152602660248201527f4f776e61626c653a206e6577206f776e657220697320746865207a65726f206160448201526564647265737360d01b60648201526084016106c7565b61073d81610fe6565b6001600160a01b038316610bcd5760405162461bcd60e51b8152602060048201526024808201527f45524332303a20617070726f76652066726f6d20746865207a65726f206164646044820152637265737360e01b60648201526084016106c7565b6001600160a01b038216610c2e5760405162461bcd60e51b815260206004820152602260248201527f45524332303a20617070726f766520746f20746865207a65726f206164647265604482015261737360f01b60648201526084016106c7565b6001600160a01b038381165f8181526034602090815260408083209487168084529482529182902085905590518481527f8c5be1e5ebec7d5bd14f71427d1e84f3dd0314c0f7b2291e5b200ac8c7c3b925910160405180910390a3505050565b5f33610c9b858285611037565b6109ef858585611177565b61073d8133611320565b610cba8282610908565b6106da575f82815260fb602090815260408083206001600160a01b03851684529091529020805460ff19166001179055610cf13390565b6001600160a01b0316816001600160a01b0316837f2f8788117e7eff1d82e926ec794901d17c78024a50270940304540a733656f0d60405160405180910390a45050565b610d3f8282610908565b156106da575f82815260fb602090815260408083206001600160a01b0385168085529252808320805460ff1916905551339285917ff6391f5c32d9c69d2a47ea670b442974b53935d1edc7fd64eb21e047a839171b9190a45050565b6001600160a01b038216610df15760405162461bcd60e51b815260206004820152601f60248201527f45524332303a206d696e7420746f20746865207a65726f20616464726573730060448201526064016106c7565b8060355f828254610e029190611760565b90915550506001600160a01b0382165f818152603360209081526040808320805486019055518481527fddf252ad1be2c89b69c2b068fc378daa952ba7f163c4a11628f55a4df523b3ef910160405180910390a35050565b6001600160a01b038216610eba5760405162461bcd60e51b815260206004820152602160248201527f45524332303a206275726e2066726f6d20746865207a65726f206164647265736044820152607360f81b60648201526084016106c7565b6001600160a01b0382165f9081526033602052604090205481811015610f2d5760405162461bcd60e51b815260206004820152602260248201527f45524332303a206275726e20616d6f756e7420657863656564732062616c616e604482015261636560f01b60648201526084016106c7565b6001600160a01b0383165f8181526033602090815260408083208686039055603580548790039055518581529192917fddf252ad1be2c89b69c2b068fc378daa952ba7f163c4a11628f55a4df523b3ef910160405180910390a3505050565b6065546001600160a01b031633146107515760405162461bcd60e51b815260206004820181905260248201527f4f776e61626c653a2063616c6c6572206973206e6f7420746865206f776e657260448201526064016106c7565b606580546001600160a01b038381166001600160a01b0319831681179093556040519116919082907f8be0079c531659141344cd1fd0a4f28419497f9722a3daafe3b4186f6b6457e0905f90a35050565b5f6110428484610a2b565b90505f1981146110a9578181101561109c5760405162461bcd60e51b815260206004820152601d60248201527f45524332303a20696e73756666696369656e7420616c6c6f77616e636500000060448201526064016106c7565b6110a98484848403610b6b565b50505050565b5f54610100900460ff166110d55760405162461bcd60e51b81526004016106c790611773565b6106da8282611379565b5f54610100900460ff166107515760405162461bcd60e51b81526004016106c790611773565b5f54610100900460ff1661112b5760405162461bcd60e51b81526004016106c790611773565b6111355f33610cb0565b61113f8233610cb0565b6106da8133610cb0565b5f54610100900460ff1661116f5760405162461bcd60e51b81526004016106c790611773565b6107516113b8565b6001600160a01b0383166111db5760405162461bcd60e51b815260206004820152602560248201527f45524332303a207472616e736665722066726f6d20746865207a65726f206164604482015264647265737360d81b60648201526084016106c7565b6001600160a01b03821661123d5760405162461bcd60e51b815260206004820152602360248201527f45524332303a207472616e7366657220746f20746865207a65726f206164647260448201526265737360e81b60648201526084016106c7565b6001600160a01b0383165f90815260336020526040902054818110156112b45760405162461bcd60e51b815260206004820152602660248201527f45524332303a207472616e7366657220616d6f756e7420657863656564732062604482015265616c616e636560d01b60648201526084016106c7565b6001600160a01b038085165f8181526033602052604080822086860390559286168082529083902080548601905591517fddf252ad1be2c89b69c2b068fc378daa952ba7f163c4a11628f55a4df523b3ef906113139086815260200190565b60405180910390a36110a9565b61132a8282610908565b6106da57611337816113e7565b6113428360206113f9565b6040516020016113539291906117d5565b60408051601f198184030181529082905262461bcd60e51b82526106c7916004016115bd565b5f54610100900460ff1661139f5760405162461bcd60e51b81526004016106c790611773565b60366113ab8382611892565b5060376106568282611892565b5f54610100900460ff166113de5760405162461bcd60e51b81526004016106c790611773565b61075133610fe6565b60606104bf6001600160a01b03831660145b60605f61140783600261194d565b611412906002611760565b67ffffffffffffffff81111561142a5761142a611833565b6040519080825280601f01601f191660200182016040528015611454576020820181803683370190505b509050600360fc1b815f8151811061146e5761146e611964565b60200101906001600160f81b03191690815f1a905350600f60fb1b8160018151811061149c5761149c611964565b60200101906001600160f81b03191690815f1a9053505f6114be84600261194d565b6114c9906001611760565b90505b6001811115611540576f181899199a1a9b1b9c1cb0b131b232b360811b85600f16601081106114fd576114fd611964565b1a60f81b82828151811061151357611513611964565b60200101906001600160f81b03191690815f1a90535060049490941c9361153981611978565b90506114cc565b50831561158f5760405162461bcd60e51b815260206004820181905260248201527f537472696e67733a20686578206c656e67746820696e73756666696369656e7460448201526064016106c7565b9392505050565b5f602082840312156115a6575f5ffd5b81356001600160e01b03198116811461158f575f5ffd5b602081525f82518060208401528060208501604085015e5f604082850101526040601f19601f83011684010191505092915050565b80356001600160a01b0381168114611608575f5ffd5b919050565b5f5f6040838503121561161e575f5ffd5b611627836115f2565b946020939093013593505050565b5f5f5f60608486031215611647575f5ffd5b611650846115f2565b925061165e602085016115f2565b929592945050506040919091013590565b5f6020828403121561167f575f5ffd5b5035919050565b5f5f60408385031215611697575f5ffd5b823591506116a7602084016115f2565b90509250929050565b5f602082840312156116c0575f5ffd5b61158f826115f2565b5f5f604083850312156116da575f5ffd5b6116e3836115f2565b91506116a7602084016115f2565b5f60208284031215611701575f5ffd5b813563ffffffff8116811461158f575f5ffd5b600181811c9082168061172857607f821691505b60208210810361174657634e487b7160e01b5f52602260045260245ffd5b50919050565b634e487b7160e01b5f52601160045260245ffd5b808201808211156104bf576104bf61174c565b6020808252602b908201527f496e697469616c697a61626c653a20636f6e7472616374206973206e6f74206960408201526a6e697469616c697a696e6760a81b606082015260800190565b5f81518060208401855e5f93019283525090919050565b7f416363657373436f6e74726f6c3a206163636f756e742000000000000000000081525f61180660178301856117be565b7001034b99036b4b9b9b4b733903937b6329607d1b815261182a60118201856117be565b95945050505050565b634e487b7160e01b5f52604160045260245ffd5b601f82111561065657805f5260205f20601f840160051c8101602085101561186c5750805b601f840160051c820191505b8181101561188b575f8155600101611878565b5050505050565b815167ffffffffffffffff8111156118ac576118ac611833565b6118c0816118ba8454611714565b84611847565b6020601f8211600181146118f2575f83156118db5750848201515b5f19600385901b1c1916600184901b17845561188b565b5f84815260208120601f198516915b828110156119215787850151825560209485019460019092019101611901565b508482101561193e57868401515f19600387901b60f8161c191681555b50505050600190811b01905550565b80820281158282048414176104bf576104bf61174c565b634e487b7160e01b5f52603260045260245ffd5b5f816119865761198661174c565b505f19019056fea264697066735822122068d1b88710002b7679e654ee9c3c4ada6117129ea101befa5817c74403718dc864736f6c634300081e0033",
					"opcodes": "PUSH1 0x80 PUSH1 0x40 MSTORE CALLVALUE DUP1 ISZERO PUSH1 0xE JUMPI PUSH0 PUSH0 REVERT JUMPDEST POP PUSH2 0x19C3 DUP1 PUSH2 0x1C PUSH0 CODECOPY PUSH0 RETURN INVALID PUSH1 0x80 PUSH1 0x40 MSTORE CALLVALUE DUP1 ISZERO PUSH2 0xF JUMPI PUSH0 PUSH0 REVERT JUMPDEST POP PUSH1 0x4 CALLDATASIZE LT PUSH2 0x1DC JUMPI PUSH0 CALLDATALOAD PUSH1 0xE0 SHR DUP1 PUSH4 0x79CC6790 GT PUSH2 0x109 JUMPI DUP1 PUSH4 0xA9059CBB GT PUSH2 0x9E JUMPI DUP1 PUSH4 0xD547741F GT PUSH2 0x6E JUMPI DUP1 PUSH4 0xD547741F EQ PUSH2 0x443 JUMPI DUP1 PUSH4 0xDD62ED3E EQ PUSH2 0x456 JUMPI DUP1 PUSH4 0xE90CDD1C EQ PUSH2 0x469 JUMPI DUP1 PUSH4 0xF2FDE38B EQ PUSH2 0x47C JUMPI PUSH0 PUSH0 REVERT JUMPDEST DUP1 PUSH4 0xA9059CBB EQ PUSH2 0x3BC JUMPI DUP1 PUSH4 0xB930908F EQ PUSH2 0x3CF JUMPI DUP1 PUSH4 0xBD39A2A8 EQ PUSH2 0x3F6 JUMPI DUP1 PUSH4 0xD5391393 EQ PUSH2 0x41C JUMPI PUSH0 PUSH0 REVERT JUMPDEST DUP1 PUSH4 0x95D89B41 GT PUSH2 0xD9 JUMPI DUP1 PUSH4 0x95D89B41 EQ PUSH2 0x387 JUMPI DUP1 PUSH4 0x9DC29FAC EQ PUSH2 0x38F JUMPI DUP1 PUSH4 0xA217FDDF EQ PUSH2 0x3A2 JUMPI DUP1 PUSH4 0xA457C2D7 EQ PUSH2 0x3A9 JUMPI PUSH0 PUSH0 REVERT JUMPDEST DUP1 PUSH4 0x79CC6790 EQ PUSH2 0x33E JUMPI DUP1 PUSH4 0x8129FC1C EQ PUSH2 0x351 JUMPI DUP1 PUSH4 0x8DA5CB5B EQ PUSH2 0x359 JUMPI DUP1 PUSH4 0x91D14854 EQ PUSH2 0x374 JUMPI PUSH0 PUSH0 REVERT JUMPDEST DUP1 PUSH4 0x313CE567 GT PUSH2 0x17F JUMPI DUP1 PUSH4 0x42966C68 GT PUSH2 0x14F JUMPI DUP1 PUSH4 0x42966C68 EQ PUSH2 0x2D4 JUMPI DUP1 PUSH4 0x4E695CCA EQ PUSH2 0x2E7 JUMPI DUP1 PUSH4 0x70A08231 EQ PUSH2 0x30E JUMPI DUP1 PUSH4 0x715018A6 EQ PUSH2 0x336 JUMPI PUSH0 PUSH0 REVERT JUMPDEST DUP1 PUSH4 0x313CE567 EQ PUSH2 0x28C JUMPI DUP1 PUSH4 0x36568ABE EQ PUSH2 0x29B JUMPI DUP1 PUSH4 0x39509351 EQ PUSH2 0x2AE JUMPI DUP1 PUSH4 0x40C10F19 EQ PUSH2 0x2C1 JUMPI PUSH0 PUSH0 REVERT JUMPDEST DUP1 PUSH4 0x18160DDD GT PUSH2 0x1BA JUMPI DUP1 PUSH4 0x18160DDD EQ PUSH2 0x230 JUMPI DUP1 PUSH4 0x23B872DD EQ PUSH2 0x242 JUMPI DUP1 PUSH4 0x248A9CA3 EQ PUSH2 0x255 JUMPI DUP1 PUSH4 0x2F2FF15D EQ PUSH2 0x277 JUMPI PUSH0 PUSH0 REVERT JUMPDEST DUP1 PUSH4 0x1FFC9A7 EQ PUSH2 0x1E0 JUMPI DUP1 PUSH4 0x6FDDE03 EQ PUSH2 0x208 JUMPI DUP1 PUSH4 0x95EA7B3 EQ PUSH2 0x21D JUMPI JUMPDEST PUSH0 PUSH0 REVERT JUMPDEST PUSH2 0x1F3 PUSH2 0x1EE CALLDATASIZE PUSH1 0x4 PUSH2 0x1596 JUMP JUMPDEST PUSH2 0x48F JUMP JUMPDEST PUSH1 0x40 MLOAD SWAP1 ISZERO ISZERO DUP2 MSTORE PUSH1 0x20 ADD JUMPDEST PUSH1 0x40 MLOAD DUP1 SWAP2 SUB SWAP1 RETURN JUMPDEST PUSH2 0x210 PUSH2 0x4C5 JUMP JUMPDEST PUSH1 0x40 MLOAD PUSH2 0x1FF SWAP2 SWAP1 PUSH2 0x15BD JUMP JUMPDEST PUSH2 0x1F3 PUSH2 0x22B CALLDATASIZE PUSH1 0x4 PUSH2 0x160D JUMP JUMPDEST PUSH2 0x555 JUMP JUMPDEST PUSH1 0x35 SLOAD JUMPDEST PUSH1 0x40 MLOAD SWAP1 DUP2 MSTORE PUSH1 0x20 ADD PUSH2 0x1FF JUMP JUMPDEST PUSH2 0x1F3 PUSH2 0x250 CALLDATASIZE PUSH1 0x4 PUSH2 0x1635 JUMP JUMPDEST PUSH2 0x56C JUMP JUMPDEST PUSH2 0x234 PUSH2 0x263 CALLDATASIZE PUSH1 0x4 PUSH2 0x166F JUMP JUMPDEST PUSH0 SWAP1 DUP2 MSTORE PUSH1 0xFB PUSH1 0x20 MSTORE PUSH1 0x40 SWAP1 KECCAK256 PUSH1 0x1 ADD SLOAD SWAP1 JUMP JUMPDEST PUSH2 0x28A PUSH2 0x285 CALLDATASIZE PUSH1 0x4 PUSH2 0x1686 JUMP JUMPDEST PUSH2 0x632 JUMP JUMPDEST STOP JUMPDEST PUSH1 0x40 MLOAD PUSH1 0x12 DUP2 MSTORE PUSH1 0x20 ADD PUSH2 0x1FF JUMP JUMPDEST PUSH2 0x28A PUSH2 0x2A9 CALLDATASIZE PUSH1 0x4 PUSH2 0x1686 JUMP JUMPDEST PUSH2 0x65B JUMP JUMPDEST PUSH2 0x1F3 PUSH2 0x2BC CALLDATASIZE PUSH1 0x4 PUSH2 0x160D JUMP JUMPDEST PUSH2 0x6DE JUMP JUMPDEST PUSH2 0x28A PUSH2 0x2CF CALLDATASIZE PUSH1 0x4 PUSH2 0x160D JUMP JUMPDEST PUSH2 0x6FF JUMP JUMPDEST PUSH2 0x28A PUSH2 0x2E2 CALLDATASIZE PUSH1 0x4 PUSH2 0x166F JUMP JUMPDEST PUSH2 0x733 JUMP JUMPDEST PUSH2 0x234 PUSH32 0x2F26AC9AB74D35285B05B7B0D4A0F2FFDEF33823BC15863D6299DBDD56E7B6B0 DUP2 JUMP JUMPDEST PUSH2 0x234 PUSH2 0x31C CALLDATASIZE PUSH1 0x4 PUSH2 0x16B0 JUMP JUMPDEST PUSH1 0x1 PUSH1 0x1 PUSH1 0xA0 SHL SUB AND PUSH0 SWAP1 DUP2 MSTORE PUSH1 0x33 PUSH1 0x20 MSTORE PUSH1 0x40 SWAP1 KECCAK256 SLOAD SWAP1 JUMP JUMPDEST PUSH2 0x28A PUSH2 0x740 JUMP JUMPDEST PUSH2 0x28A PUSH2 0x34C CALLDATASIZE PUSH1 0x4 PUSH2 0x160D JUMP JUMPDEST PUSH2 0x753 JUMP JUMPDEST PUSH2 0x28A PUSH2 0x768 JUMP JUMPDEST PUSH1 0x65 SLOAD PUSH1 0x40 MLOAD PUSH1 0x1 PUSH1 0x1 PUSH1 0xA0 SHL SUB SWAP1 SWAP2 AND DUP2 MSTORE PUSH1 0x20 ADD PUSH2 0x1FF JUMP JUMPDEST PUSH2 0x1F3 PUSH2 0x382 CALLDATASIZE PUSH1 0x4 PUSH2 0x1686 JUMP JUMPDEST PUSH2 0x908 JUMP JUMPDEST PUSH2 0x210 PUSH2 0x932 JUMP JUMPDEST PUSH2 0x28A PUSH2 0x39D CALLDATASIZE PUSH1 0x4 PUSH2 0x160D JUMP JUMPDEST PUSH2 0x941 JUMP JUMPDEST PUSH2 0x234 PUSH0 DUP2 JUMP JUMPDEST PUSH2 0x1F3 PUSH2 0x3B7 CALLDATASIZE PUSH1 0x4 PUSH2 0x160D JUMP JUMPDEST PUSH2 0x975 JUMP JUMPDEST PUSH2 0x1F3 PUSH2 0x3CA CALLDATASIZE PUSH1 0x4 PUSH2 0x160D JUMP JUMPDEST PUSH2 0x9FA JUMP JUMPDEST PUSH2 0x234 PUSH32 0xE97B137254058BD94F28D2F3EB79E2D34074FFB488D042E3BC958E0A57D2FA22 DUP2 JUMP JUMPDEST PUSH2 0x12D SLOAD PUSH2 0x407 SWAP1 PUSH4 0xFFFFFFFF AND DUP2 JUMP JUMPDEST PUSH1 0x40 MLOAD PUSH4 0xFFFFFFFF SWAP1 SWAP2 AND DUP2 MSTORE PUSH1 0x20 ADD PUSH2 0x1FF JUMP JUMPDEST PUSH2 0x234 PUSH32 0x9F2DF0FED2C77648DE5860A4CC508CD0818C85B8B8A1AB4CEEEF8D981C8956A6 DUP2 JUMP JUMPDEST PUSH2 0x28A PUSH2 0x451 CALLDATASIZE PUSH1 0x4 PUSH2 0x1686 JUMP JUMPDEST PUSH2 0xA07 JUMP JUMPDEST PUSH2 0x234 PUSH2 0x464 CALLDATASIZE PUSH1 0x4 PUSH2 0x16C9 JUMP JUMPDEST PUSH2 0xA2B JUMP JUMPDEST PUSH2 0x28A PUSH2 0x477 CALLDATASIZE PUSH1 0x4 PUSH2 0x16F1 JUMP JUMPDEST PUSH2 0xA55 JUMP JUMPDEST PUSH2 0x28A PUSH2 0x48A CALLDATASIZE PUSH1 0x4 PUSH2 0x16B0 JUMP JUMPDEST PUSH2 0xAF5 JUMP JUMPDEST PUSH0 PUSH1 0x1 PUSH1 0x1 PUSH1 0xE0 SHL SUB NOT DUP3 AND PUSH4 0x7965DB0B PUSH1 0xE0 SHL EQ DUP1 PUSH2 0x4BF JUMPI POP PUSH4 0x1FFC9A7 PUSH1 0xE0 SHL PUSH1 0x1 PUSH1 0x1 PUSH1 0xE0 SHL SUB NOT DUP4 AND EQ JUMPDEST SWAP3 SWAP2 POP POP JUMP JUMPDEST PUSH1 0x60 PUSH1 0x36 DUP1 SLOAD PUSH2 0x4D4 SWAP1 PUSH2 0x1714 JUMP JUMPDEST DUP1 PUSH1 0x1F ADD PUSH1 0x20 DUP1 SWAP2 DIV MUL PUSH1 0x20 ADD PUSH1 0x40 MLOAD SWAP1 DUP2 ADD PUSH1 0x40 MSTORE DUP1 SWAP3 SWAP2 SWAP1 DUP2 DUP2 MSTORE PUSH1 0x20 ADD DUP3 DUP1 SLOAD PUSH2 0x500 SWAP1 PUSH2 0x1714 JUMP JUMPDEST DUP1 ISZERO PUSH2 0x54B JUMPI DUP1 PUSH1 0x1F LT PUSH2 0x522 JUMPI PUSH2 0x100 DUP1 DUP4 SLOAD DIV MUL DUP4 MSTORE SWAP2 PUSH1 0x20 ADD SWAP2 PUSH2 0x54B JUMP JUMPDEST DUP3 ADD SWAP2 SWAP1 PUSH0 MSTORE PUSH1 0x20 PUSH0 KECCAK256 SWAP1 JUMPDEST DUP2 SLOAD DUP2 MSTORE SWAP1 PUSH1 0x1 ADD SWAP1 PUSH1 0x20 ADD DUP1 DUP4 GT PUSH2 0x52E JUMPI DUP3 SWAP1 SUB PUSH1 0x1F AND DUP3 ADD SWAP2 JUMPDEST POP POP POP POP POP SWAP1 POP SWAP1 JUMP JUMPDEST PUSH0 CALLER PUSH2 0x562 DUP2 DUP6 DUP6 PUSH2 0xB6B JUMP JUMPDEST POP PUSH1 0x1 SWAP4 SWAP3 POP POP POP JUMP JUMPDEST PUSH2 0x12D SLOAD PUSH0 SWAP1 DUP5 SWAP1 DUP5 SWAP1 DUP4 SWAP1 PUSH4 0xFFFFFFFF AND ISZERO DUP1 PUSH2 0x592 JUMPI POP PUSH2 0x12D SLOAD PUSH4 0xFFFFFFFF AND TIMESTAMP LT JUMPDEST SWAP1 POP DUP1 ISZERO PUSH2 0x61C JUMPI PUSH0 PUSH2 0x5A5 DUP2 DUP6 PUSH2 0x908 JUMP JUMPDEST DUP1 PUSH2 0x5B5 JUMPI POP PUSH2 0x5B5 PUSH0 DUP5 PUSH2 0x908 JUMP JUMPDEST DUP1 PUSH2 0x5C5 JUMPI POP PUSH2 0x5C5 PUSH0 CALLER PUSH2 0x908 JUMP JUMPDEST SWAP1 POP DUP1 ISZERO DUP1 ISZERO PUSH2 0x5FC JUMPI POP PUSH2 0x5FA PUSH32 0x2F26AC9AB74D35285B05B7B0D4A0F2FFDEF33823BC15863D6299DBDD56E7B6B0 DUP5 PUSH2 0x908 JUMP JUMPDEST ISZERO JUMPDEST ISZERO PUSH2 0x61A JUMPI PUSH1 0x40 MLOAD PUSH4 0xAFAE8E97 PUSH1 0xE0 SHL DUP2 MSTORE PUSH1 0x4 ADD PUSH1 0x40 MLOAD DUP1 SWAP2 SUB SWAP1 REVERT JUMPDEST POP JUMPDEST PUSH2 0x627 DUP8 DUP8 DUP8 PUSH2 0xC8E JUMP JUMPDEST SWAP8 SWAP7 POP POP POP POP POP POP POP JUMP JUMPDEST PUSH0 DUP3 DUP2 MSTORE PUSH1 0xFB PUSH1 0x20 MSTORE PUSH1 0x40 SWAP1 KECCAK256 PUSH1 0x1 ADD SLOAD PUSH2 0x64C DUP2 PUSH2 0xCA6 JUMP JUMPDEST PUSH2 0x656 DUP4 DUP4 PUSH2 0xCB0 JUMP JUMPDEST POP POP POP JUMP JUMPDEST PUSH1 0x1 PUSH1 0x1 PUSH1 0xA0 SHL SUB DUP2 AND CALLER EQ PUSH2 0x6D0 JUMPI PUSH1 0x40 MLOAD PUSH3 0x461BCD PUSH1 0xE5 SHL DUP2 MSTORE PUSH1 0x20 PUSH1 0x4 DUP3 ADD MSTORE PUSH1 0x2F PUSH1 0x24 DUP3 ADD MSTORE PUSH32 0x416363657373436F6E74726F6C3A2063616E206F6E6C792072656E6F756E6365 PUSH1 0x44 DUP3 ADD MSTORE PUSH15 0x103937B632B9903337B91039B2B633 PUSH1 0x89 SHL PUSH1 0x64 DUP3 ADD MSTORE PUSH1 0x84 ADD JUMPDEST PUSH1 0x40 MLOAD DUP1 SWAP2 SUB SWAP1 REVERT JUMPDEST PUSH2 0x6DA DUP3 DUP3 PUSH2 0xD35 JUMP JUMPDEST POP POP JUMP JUMPDEST PUSH0 CALLER PUSH2 0x562 DUP2 DUP6 DUP6 PUSH2 0x6F0 DUP4 DUP4 PUSH2 0xA2B JUMP JUMPDEST PUSH2 0x6FA SWAP2 SWAP1 PUSH2 0x1760 JUMP JUMPDEST PUSH2 0xB6B JUMP JUMPDEST PUSH32 0x9F2DF0FED2C77648DE5860A4CC508CD0818C85B8B8A1AB4CEEEF8D981C8956A6 PUSH2 0x729 DUP2 PUSH2 0xCA6 JUMP JUMPDEST PUSH2 0x656 DUP4 DUP4 PUSH2 0xD9B JUMP JUMPDEST PUSH2 0x73D CALLER DUP3 PUSH2 0xE5A JUMP JUMPDEST POP JUMP JUMPDEST PUSH2 0x748 PUSH2 0xF8C JUMP JUMPDEST PUSH2 0x751 PUSH0 PUSH2 0xFE6 JUMP JUMPDEST JUMP JUMPDEST PUSH2 0x75E DUP3 CALLER DUP4 PUSH2 0x1037 JUMP JUMPDEST PUSH2 0x6DA DUP3 DUP3 PUSH2 0xE5A JUMP JUMPDEST PUSH0 SLOAD PUSH2 0x100 SWAP1 DIV PUSH1 0xFF AND ISZERO DUP1 DUP1 ISZERO PUSH2 0x786 JUMPI POP PUSH0 SLOAD PUSH1 0x1 PUSH1 0xFF SWAP1 SWAP2 AND LT JUMPDEST DUP1 PUSH2 0x79F JUMPI POP ADDRESS EXTCODESIZE ISZERO DUP1 ISZERO PUSH2 0x79F JUMPI POP PUSH0 SLOAD PUSH1 0xFF AND PUSH1 0x1 EQ JUMPDEST PUSH2 0x802 JUMPI PUSH1 0x40 MLOAD PUSH3 0x461BCD PUSH1 0xE5 SHL DUP2 MSTORE PUSH1 0x20 PUSH1 0x4 DUP3 ADD MSTORE PUSH1 0x2E PUSH1 0x24 DUP3 ADD MSTORE PUSH32 0x496E697469616C697A61626C653A20636F6E747261637420697320616C726561 PUSH1 0x44 DUP3 ADD MSTORE PUSH14 0x191E481A5B9A5D1A585B1A5E9959 PUSH1 0x92 SHL PUSH1 0x64 DUP3 ADD MSTORE PUSH1 0x84 ADD PUSH2 0x6C7 JUMP JUMPDEST PUSH0 DUP1 SLOAD PUSH1 0xFF NOT AND PUSH1 0x1 OR SWAP1 SSTORE DUP1 ISZERO PUSH2 0x823 JUMPI PUSH0 DUP1 SLOAD PUSH2 0xFF00 NOT AND PUSH2 0x100 OR SWAP1 SSTORE JUMPDEST PUSH2 0x867 PUSH1 0x40 MLOAD DUP1 PUSH1 0x40 ADD PUSH1 0x40 MSTORE DUP1 PUSH1 0x6 DUP2 MSTORE PUSH1 0x20 ADD PUSH6 0x416C76617261 PUSH1 0xD0 SHL DUP2 MSTORE POP PUSH1 0x40 MLOAD DUP1 PUSH1 0x40 ADD PUSH1 0x40 MSTORE DUP1 PUSH1 0x4 DUP2 MSTORE PUSH1 0x20 ADD PUSH4 0x414C5641 PUSH1 0xE0 SHL DUP2 MSTORE POP PUSH2 0x10AF JUMP JUMPDEST PUSH2 0x86F PUSH2 0x10DF JUMP JUMPDEST PUSH2 0x8B9 PUSH32 0x9F2DF0FED2C77648DE5860A4CC508CD0818C85B8B8A1AB4CEEEF8D981C8956A6 PUSH32 0xE97B137254058BD94F28D2F3EB79E2D34074FFB488D042E3BC958E0A57D2FA22 PUSH2 0x1105 JUMP JUMPDEST PUSH2 0x8C1 PUSH2 0x1149 JUMP JUMPDEST DUP1 ISZERO PUSH2 0x73D JUMPI PUSH0 DUP1 SLOAD PUSH2 0xFF00 NOT AND SWAP1 SSTORE PUSH1 0x40 MLOAD PUSH1 0x1 DUP2 MSTORE PUSH32 0x7F26B83FF96E1F2B6A682F133852F6798A09C465DA95921460CEFB3847402498 SWAP1 PUSH1 0x20 ADD PUSH1 0x40 MLOAD DUP1 SWAP2 SUB SWAP1 LOG1 POP JUMP JUMPDEST PUSH0 SWAP2 DUP3 MSTORE PUSH1 0xFB PUSH1 0x20 SWAP1 DUP2 MSTORE PUSH1 0x40 DUP1 DUP5 KECCAK256 PUSH1 0x1 PUSH1 0x1 PUSH1 0xA0 SHL SUB SWAP4 SWAP1 SWAP4 AND DUP5 MSTORE SWAP2 SWAP1 MSTORE SWAP1 KECCAK256 SLOAD PUSH1 0xFF AND SWAP1 JUMP JUMPDEST PUSH1 0x60 PUSH1 0x37 DUP1 SLOAD PUSH2 0x4D4 SWAP1 PUSH2 0x1714 JUMP JUMPDEST PUSH32 0xE97B137254058BD94F28D2F3EB79E2D34074FFB488D042E3BC958E0A57D2FA22 PUSH2 0x96B DUP2 PUSH2 0xCA6 JUMP JUMPDEST PUSH2 0x656 DUP4 DUP4 PUSH2 0xE5A JUMP JUMPDEST PUSH0 CALLER DUP2 PUSH2 0x982 DUP3 DUP7 PUSH2 0xA2B JUMP JUMPDEST SWAP1 POP DUP4 DUP2 LT ISZERO PUSH2 0x9E2 JUMPI PUSH1 0x40 MLOAD PUSH3 0x461BCD PUSH1 0xE5 SHL DUP2 MSTORE PUSH1 0x20 PUSH1 0x4 DUP3 ADD MSTORE PUSH1 0x25 PUSH1 0x24 DUP3 ADD MSTORE PUSH32 0x45524332303A2064656372656173656420616C6C6F77616E63652062656C6F77 PUSH1 0x44 DUP3 ADD MSTORE PUSH5 0x207A65726F PUSH1 0xD8 SHL PUSH1 0x64 DUP3 ADD MSTORE PUSH1 0x84 ADD PUSH2 0x6C7 JUMP JUMPDEST PUSH2 0x9EF DUP3 DUP7 DUP7 DUP5 SUB PUSH2 0xB6B JUMP JUMPDEST POP PUSH1 0x1 SWAP5 SWAP4 POP POP POP POP JUMP JUMPDEST PUSH0 CALLER PUSH2 0x562 DUP2 DUP6 DUP6 PUSH2 0x1177 JUMP JUMPDEST PUSH0 DUP3 DUP2 MSTORE PUSH1 0xFB PUSH1 0x20 MSTORE PUSH1 0x40 SWAP1 KECCAK256 PUSH1 0x1 ADD SLOAD PUSH2 0xA21 DUP2 PUSH2 0xCA6 JUMP JUMPDEST PUSH2 0x656 DUP4 DUP4 PUSH2 0xD35 JUMP JUMPDEST PUSH1 0x1 PUSH1 0x1 PUSH1 0xA0 SHL SUB SWAP2 DUP3 AND PUSH0 SWAP1 DUP2 MSTORE PUSH1 0x34 PUSH1 0x20 SWAP1 DUP2 MSTORE PUSH1 0x40 DUP1 DUP4 KECCAK256 SWAP4 SWAP1 SWAP5 AND DUP3 MSTORE SWAP2 SWAP1 SWAP2 MSTORE KECCAK256 SLOAD SWAP1 JUMP JUMPDEST PUSH0 PUSH2 0xA5F DUP2 PUSH2 0xCA6 JUMP JUMPDEST PUSH2 0x12D SLOAD PUSH4 0xFFFFFFFF AND ISZERO DUP1 ISZERO SWAP1 PUSH2 0xA80 JUMPI POP PUSH2 0x12D SLOAD PUSH4 0xFFFFFFFF AND TIMESTAMP LT ISZERO JUMPDEST ISZERO PUSH2 0xA9E JUMPI PUSH1 0x40 MLOAD PUSH4 0x6F555EE1 PUSH1 0xE1 SHL DUP2 MSTORE PUSH1 0x4 ADD PUSH1 0x40 MLOAD DUP1 SWAP2 SUB SWAP1 REVERT JUMPDEST PUSH1 0x40 MLOAD PUSH4 0xFFFFFFFF DUP4 AND DUP2 MSTORE PUSH32 0xE210431CE7E96EEF28F9095D645802317660C1411F89B4D642456F027E7C8D6 SWAP1 PUSH1 0x20 ADD PUSH1 0x40 MLOAD DUP1 SWAP2 SUB SWAP1 LOG1 POP PUSH2 0x12D DUP1 SLOAD PUSH4 0xFFFFFFFF NOT AND PUSH4 0xFFFFFFFF SWAP3 SWAP1 SWAP3 AND SWAP2 SWAP1 SWAP2 OR SWAP1 SSTORE JUMP JUMPDEST PUSH2 0xAFD PUSH2 0xF8C JUMP JUMPDEST PUSH1 0x1 PUSH1 0x1 PUSH1 0xA0 SHL SUB DUP2 AND PUSH2 0xB62 JUMPI PUSH1 0x40 MLOAD PUSH3 0x461BCD PUSH1 0xE5 SHL DUP2 MSTORE PUSH1 0x20 PUSH1 0x4 DUP3 ADD MSTORE PUSH1 0x26 PUSH1 0x24 DUP3 ADD MSTORE PUSH32 0x4F776E61626C653A206E6577206F776E657220697320746865207A65726F2061 PUSH1 0x44 DUP3 ADD MSTORE PUSH6 0x646472657373 PUSH1 0xD0 SHL PUSH1 0x64 DUP3 ADD MSTORE PUSH1 0x84 ADD PUSH2 0x6C7 JUMP JUMPDEST PUSH2 0x73D DUP2 PUSH2 0xFE6 JUMP JUMPDEST PUSH1 0x1 PUSH1 0x1 PUSH1 0xA0 SHL SUB DUP4 AND PUSH2 0xBCD JUMPI PUSH1 0x40 MLOAD PUSH3 0x461BCD PUSH1 0xE5 SHL DUP2 MSTORE PUSH1 0x20 PUSH1 0x4 DUP3 ADD MSTORE PUSH1 0x24 DUP1 DUP3 ADD MSTORE PUSH32 0x45524332303A20617070726F76652066726F6D20746865207A65726F20616464 PUSH1 0x44 DUP3 ADD MSTORE PUSH4 0x72657373 PUSH1 0xE0 SHL PUSH1 0x64 DUP3 ADD MSTORE PUSH1 0x84 ADD PUSH2 0x6C7 JUMP JUMPDEST PUSH1 0x1 PUSH1 0x1 PUSH1 0xA0 SHL SUB DUP3 AND PUSH2 0xC2E JUMPI PUSH1 0x40 MLOAD PUSH3 0x461BCD PUSH1 0xE5 SHL DUP2 MSTORE PUSH1 0x20 PUSH1 0x4 DUP3 ADD MSTORE PUSH1 0x22 PUSH1 0x24 DUP3 ADD MSTORE PUSH32 0x45524332303A20617070726F766520746F20746865207A65726F206164647265 PUSH1 0x44 DUP3 ADD MSTORE PUSH2 0x7373 PUSH1 0xF0 SHL PUSH1 0x64 DUP3 ADD MSTORE PUSH1 0x84 ADD PUSH2 0x6C7 JUMP JUMPDEST PUSH1 0x1 PUSH1 0x1 PUSH1 0xA0 SHL SUB DUP4 DUP2 AND PUSH0 DUP2 DUP2 MSTORE PUSH1 0x34 PUSH1 0x20 SWAP1 DUP2 MSTORE PUSH1 0x40 DUP1 DUP4 KECCAK256 SWAP5 DUP8 AND DUP1 DUP5 MSTORE SWAP5 DUP3 MSTORE SWAP2 DUP3 SWAP1 KECCAK256 DUP6 SWAP1 SSTORE SWAP1 MLOAD DUP5 DUP2 MSTORE PUSH32 0x8C5BE1E5EBEC7D5BD14F71427D1E84F3DD0314C0F7B2291E5B200AC8C7C3B925 SWAP2 ADD PUSH1 0x40 MLOAD DUP1 SWAP2 SUB SWAP1 LOG3 POP POP POP JUMP JUMPDEST PUSH0 CALLER PUSH2 0xC9B DUP6 DUP3 DUP6 PUSH2 0x1037 JUMP JUMPDEST PUSH2 0x9EF DUP6 DUP6 DUP6 PUSH2 0x1177 JUMP JUMPDEST PUSH2 0x73D DUP2 CALLER PUSH2 0x1320 JUMP JUMPDEST PUSH2 0xCBA DUP3 DUP3 PUSH2 0x908 JUMP JUMPDEST PUSH2 0x6DA JUMPI PUSH0 DUP3 DUP2 MSTORE PUSH1 0xFB PUSH1 0x20 SWAP1 DUP2 MSTORE PUSH1 0x40 DUP1 DUP4 KECCAK256 PUSH1 0x1 PUSH1 0x1 PUSH1 0xA0 SHL SUB DUP6 AND DUP5 MSTORE SWAP1 SWAP2 MSTORE SWAP1 KECCAK256 DUP1 SLOAD PUSH1 0xFF NOT AND PUSH1 0x1 OR SWAP1 SSTORE PUSH2 0xCF1 CALLER SWAP1 JUMP JUMPDEST PUSH1 0x1 PUSH1 0x1 PUSH1 0xA0 SHL SUB AND DUP2 PUSH1 0x1 PUSH1 0x1 PUSH1 0xA0 SHL SUB AND DUP4 PUSH32 0x2F8788117E7EFF1D82E926EC794901D17C78024A50270940304540A733656F0D PUSH1 0x40 MLOAD PUSH1 0x40 MLOAD DUP1 SWAP2 SUB SWAP1 LOG4 POP POP JUMP JUMPDEST PUSH2 0xD3F DUP3 DUP3 PUSH2 0x908 JUMP JUMPDEST ISZERO PUSH2 0x6DA JUMPI PUSH0 DUP3 DUP2 MSTORE PUSH1 0xFB PUSH1 0x20 SWAP1 DUP2 MSTORE PUSH1 0x40 DUP1 DUP4 KECCAK256 PUSH1 0x1 PUSH1 0x1 PUSH1 0xA0 SHL SUB DUP6 AND DUP1 DUP6 MSTORE SWAP3 MSTORE DUP1 DUP4 KECCAK256 DUP1 SLOAD PUSH1 0xFF NOT AND SWAP1 SSTORE MLOAD CALLER SWAP3 DUP6 SWAP2 PUSH32 0xF6391F5C32D9C69D2A47EA670B442974B53935D1EDC7FD64EB21E047A839171B SWAP2 SWAP1 LOG4 POP POP JUMP JUMPDEST PUSH1 0x1 PUSH1 0x1 PUSH1 0xA0 SHL SUB DUP3 AND PUSH2 0xDF1 JUMPI PUSH1 0x40 MLOAD PUSH3 0x461BCD PUSH1 0xE5 SHL DUP2 MSTORE PUSH1 0x20 PUSH1 0x4 DUP3 ADD MSTORE PUSH1 0x1F PUSH1 0x24 DUP3 ADD MSTORE PUSH32 0x45524332303A206D696E7420746F20746865207A65726F206164647265737300 PUSH1 0x44 DUP3 ADD MSTORE PUSH1 0x64 ADD PUSH2 0x6C7 JUMP JUMPDEST DUP1 PUSH1 0x35 PUSH0 DUP3 DUP3 SLOAD PUSH2 0xE02 SWAP2 SWAP1 PUSH2 0x1760 JUMP JUMPDEST SWAP1 SWAP2 SSTORE POP POP PUSH1 0x1 PUSH1 0x1 PUSH1 0xA0 SHL SUB DUP3 AND PUSH0 DUP2 DUP2 MSTORE PUSH1 0x33 PUSH1 0x20 SWAP1 DUP2 MSTORE PUSH1 0x40 DUP1 DUP4 KECCAK256 DUP1 SLOAD DUP7 ADD SWAP1 SSTORE MLOAD DUP5 DUP2 MSTORE PUSH32 0xDDF252AD1BE2C89B69C2B068FC378DAA952BA7F163C4A11628F55A4DF523B3EF SWAP2 ADD PUSH1 0x40 MLOAD DUP1 SWAP2 SUB SWAP1 LOG3 POP POP JUMP JUMPDEST PUSH1 0x1 PUSH1 0x1 PUSH1 0xA0 SHL SUB DUP3 AND PUSH2 0xEBA JUMPI PUSH1 0x40 MLOAD PUSH3 0x461BCD PUSH1 0xE5 SHL DUP2 MSTORE PUSH1 0x20 PUSH1 0x4 DUP3 ADD MSTORE PUSH1 0x21 PUSH1 0x24 DUP3 ADD MSTORE PUSH32 0x45524332303A206275726E2066726F6D20746865207A65726F20616464726573 PUSH1 0x44 DUP3 ADD MSTORE PUSH1 0x73 PUSH1 0xF8 SHL PUSH1 0x64 DUP3 ADD MSTORE PUSH1 0x84 ADD PUSH2 0x6C7 JUMP JUMPDEST PUSH1 0x1 PUSH1 0x1 PUSH1 0xA0 SHL SUB DUP3 AND PUSH0 SWAP1 DUP2 MSTORE PUSH1 0x33 PUSH1 0x20 MSTORE PUSH1 0x40 SWAP1 KECCAK256 SLOAD DUP2 DUP2 LT ISZERO PUSH2 0xF2D JUMPI PUSH1 0x40 MLOAD PUSH3 0x461BCD PUSH1 0xE5 SHL DUP2 MSTORE PUSH1 0x20 PUSH1 0x4 DUP3 ADD MSTORE PUSH1 0x22 PUSH1 0x24 DUP3 ADD MSTORE PUSH32 0x45524332303A206275726E20616D6F756E7420657863656564732062616C616E PUSH1 0x44 DUP3 ADD MSTORE PUSH2 0x6365 PUSH1 0xF0 SHL PUSH1 0x64 DUP3 ADD MSTORE PUSH1 0x84 ADD PUSH2 0x6C7 JUMP JUMPDEST PUSH1 0x1 PUSH1 0x1 PUSH1 0xA0 SHL SUB DUP4 AND PUSH0 DUP2 DUP2 MSTORE PUSH1 0x33 PUSH1 0x20 SWAP1 DUP2 MSTORE PUSH1 0x40 DUP1 DUP4 KECCAK256 DUP7 DUP7 SUB SWAP1 SSTORE PUSH1 0x35 DUP1 SLOAD DUP8 SWAP1 SUB SWAP1 SSTORE MLOAD DUP6 DUP2 MSTORE SWAP2 SWAP3 SWAP2 PUSH32 0xDDF252AD1BE2C89B69C2B068FC378DAA952BA7F163C4A11628F55A4DF523B3EF SWAP2 ADD PUSH1 0x40 MLOAD DUP1 SWAP2 SUB SWAP1 LOG3 POP POP POP JUMP JUMPDEST PUSH1 0x65 SLOAD PUSH1 0x1 PUSH1 0x1 PUSH1 0xA0 SHL SUB AND CALLER EQ PUSH2 0x751 JUMPI PUSH1 0x40 MLOAD PUSH3 0x461BCD PUSH1 0xE5 SHL DUP2 MSTORE PUSH1 0x20 PUSH1 0x4 DUP3 ADD DUP2 SWAP1 MSTORE PUSH1 0x24 DUP3 ADD MSTORE PUSH32 0x4F776E61626C653A2063616C6C6572206973206E6F7420746865206F776E6572 PUSH1 0x44 DUP3 ADD MSTORE PUSH1 0x64 ADD PUSH2 0x6C7 JUMP JUMPDEST PUSH1 0x65 DUP1 SLOAD PUSH1 0x1 PUSH1 0x1 PUSH1 0xA0 SHL SUB DUP4 DUP2 AND PUSH1 0x1 PUSH1 0x1 PUSH1 0xA0 SHL SUB NOT DUP4 AND DUP2 OR SWAP1 SWAP4 SSTORE PUSH1 0x40 MLOAD SWAP2 AND SWAP2 SWAP1 DUP3 SWAP1 PUSH32 0x8BE0079C531659141344CD1FD0A4F28419497F9722A3DAAFE3B4186F6B6457E0 SWAP1 PUSH0 SWAP1 LOG3 POP POP JUMP JUMPDEST PUSH0 PUSH2 0x1042 DUP5 DUP5 PUSH2 0xA2B JUMP JUMPDEST SWAP1 POP PUSH0 NOT DUP2 EQ PUSH2 0x10A9 JUMPI DUP2 DUP2 LT ISZERO PUSH2 0x109C JUMPI PUSH1 0x40 MLOAD PUSH3 0x461BCD PUSH1 0xE5 SHL DUP2 MSTORE PUSH1 0x20 PUSH1 0x4 DUP3 ADD MSTORE PUSH1 0x1D PUSH1 0x24 DUP3 ADD MSTORE PUSH32 0x45524332303A20696E73756666696369656E7420616C6C6F77616E6365000000 PUSH1 0x44 DUP3 ADD MSTORE PUSH1 0x64 ADD PUSH2 0x6C7 JUMP JUMPDEST PUSH2 0x10A9 DUP5 DUP5 DUP5 DUP5 SUB PUSH2 0xB6B JUMP JUMPDEST POP POP POP POP JUMP JUMPDEST PUSH0 SLOAD PUSH2 0x100 SWAP1 DIV PUSH1 0xFF AND PUSH2 0x10D5 JUMPI PUSH1 0x40 MLOAD PUSH3 0x461BCD PUSH1 0xE5 SHL DUP2 MSTORE PUSH1 0x4 ADD PUSH2 0x6C7 SWAP1 PUSH2 0x1773 JUMP JUMPDEST PUSH2 0x6DA DUP3 DUP3 PUSH2 0x1379 JUMP JUMPDEST PUSH0 SLOAD PUSH2 0x100 SWAP1 DIV PUSH1 0xFF AND PUSH2 0x751 JUMPI PUSH1 0x40 MLOAD PUSH3 0x461BCD PUSH1 0xE5 SHL DUP2 MSTORE PUSH1 0x4 ADD PUSH2 0x6C7 SWAP1 PUSH2 0x1773 JUMP JUMPDEST PUSH0 SLOAD PUSH2 0x100 SWAP1 DIV PUSH1 0xFF AND PUSH2 0x112B JUMPI PUSH1 0x40 MLOAD PUSH3 0x461BCD PUSH1 0xE5 SHL DUP2 MSTORE PUSH1 0x4 ADD PUSH2 0x6C7 SWAP1 PUSH2 0x1773 JUMP JUMPDEST PUSH2 0x1135 PUSH0 CALLER PUSH2 0xCB0 JUMP JUMPDEST PUSH2 0x113F DUP3 CALLER PUSH2 0xCB0 JUMP JUMPDEST PUSH2 0x6DA DUP2 CALLER PUSH2 0xCB0 JUMP JUMPDEST PUSH0 SLOAD PUSH2 0x100 SWAP1 DIV PUSH1 0xFF AND PUSH2 0x116F JUMPI PUSH1 0x40 MLOAD PUSH3 0x461BCD PUSH1 0xE5 SHL DUP2 MSTORE PUSH1 0x4 ADD PUSH2 0x6C7 SWAP1 PUSH2 0x1773 JUMP JUMPDEST PUSH2 0x751 PUSH2 0x13B8 JUMP JUMPDEST PUSH1 0x1 PUSH1 0x1 PUSH1 0xA0 SHL SUB DUP4 AND PUSH2 0x11DB JUMPI PUSH1 0x40 MLOAD PUSH3 0x461BCD PUSH1 0xE5 SHL DUP2 MSTORE PUSH1 0x20 PUSH1 0x4 DUP3 ADD MSTORE PUSH1 0x25 PUSH1 0x24 DUP3 ADD MSTORE PUSH32 0x45524332303A207472616E736665722066726F6D20746865207A65726F206164 PUSH1 0x44 DUP3 ADD MSTORE PUSH5 0x6472657373 PUSH1 0xD8 SHL PUSH1 0x64 DUP3 ADD MSTORE PUSH1 0x84 ADD PUSH2 0x6C7 JUMP JUMPDEST PUSH1 0x1 PUSH1 0x1 PUSH1 0xA0 SHL SUB DUP3 AND PUSH2 0x123D JUMPI PUSH1 0x40 MLOAD PUSH3 0x461BCD PUSH1 0xE5 SHL DUP2 MSTORE PUSH1 0x20 PUSH1 0x4 DUP3 ADD MSTORE PUSH1 0x23 PUSH1 0x24 DUP3 ADD MSTORE PUSH32 0x45524332303A207472616E7366657220746F20746865207A65726F2061646472 PUSH1 0x44 DUP3 ADD MSTORE PUSH3 0x657373 PUSH1 0xE8 SHL PUSH1 0x64 DUP3 ADD MSTORE PUSH1 0x84 ADD PUSH2 0x6C7 JUMP JUMPDEST PUSH1 0x1 PUSH1 0x1 PUSH1 0xA0 SHL SUB DUP4 AND PUSH0 SWAP1 DUP2 MSTORE PUSH1 0x33 PUSH1 0x20 MSTORE PUSH1 0x40 SWAP1 KECCAK256 SLOAD DUP2 DUP2 LT ISZERO PUSH2 0x12B4 JUMPI PUSH1 0x40 MLOAD PUSH3 0x461BCD PUSH1 0xE5 SHL DUP2 MSTORE PUSH1 0x20 PUSH1 0x4 DUP3 ADD MSTORE PUSH1 0x26 PUSH1 0x24 DUP3 ADD MSTORE PUSH32 0x45524332303A207472616E7366657220616D6F756E7420657863656564732062 PUSH1 0x44 DUP3 ADD MSTORE PUSH6 0x616C616E6365 PUSH1 0xD0 SHL PUSH1 0x64 DUP3 ADD MSTORE PUSH1 0x84 ADD PUSH2 0x6C7 JUMP JUMPDEST PUSH1 0x1 PUSH1 0x1 PUSH1 0xA0 SHL SUB DUP1 DUP6 AND PUSH0 DUP2 DUP2 MSTORE PUSH1 0x33 PUSH1 0x20 MSTORE PUSH1 0x40 DUP1 DUP3 KECCAK256 DUP7 DUP7 SUB SWAP1 SSTORE SWAP3 DUP7 AND DUP1 DUP3 MSTORE SWAP1 DUP4 SWAP1 KECCAK256 DUP1 SLOAD DUP7 ADD SWAP1 SSTORE SWAP2 MLOAD PUSH32 0xDDF252AD1BE2C89B69C2B068FC378DAA952BA7F163C4A11628F55A4DF523B3EF SWAP1 PUSH2 0x1313 SWAP1 DUP7 DUP2 MSTORE PUSH1 0x20 ADD SWAP1 JUMP JUMPDEST PUSH1 0x40 MLOAD DUP1 SWAP2 SUB SWAP1 LOG3 PUSH2 0x10A9 JUMP JUMPDEST PUSH2 0x132A DUP3 DUP3 PUSH2 0x908 JUMP JUMPDEST PUSH2 0x6DA JUMPI PUSH2 0x1337 DUP2 PUSH2 0x13E7 JUMP JUMPDEST PUSH2 0x1342 DUP4 PUSH1 0x20 PUSH2 0x13F9 JUMP JUMPDEST PUSH1 0x40 MLOAD PUSH1 0x20 ADD PUSH2 0x1353 SWAP3 SWAP2 SWAP1 PUSH2 0x17D5 JUMP JUMPDEST PUSH1 0x40 DUP1 MLOAD PUSH1 0x1F NOT DUP2 DUP5 SUB ADD DUP2 MSTORE SWAP1 DUP3 SWAP1 MSTORE PUSH3 0x461BCD PUSH1 0xE5 SHL DUP3 MSTORE PUSH2 0x6C7 SWAP2 PUSH1 0x4 ADD PUSH2 0x15BD JUMP JUMPDEST PUSH0 SLOAD PUSH2 0x100 SWAP1 DIV PUSH1 0xFF AND PUSH2 0x139F JUMPI PUSH1 0x40 MLOAD PUSH3 0x461BCD PUSH1 0xE5 SHL DUP2 MSTORE PUSH1 0x4 ADD PUSH2 0x6C7 SWAP1 PUSH2 0x1773 JUMP JUMPDEST PUSH1 0x36 PUSH2 0x13AB DUP4 DUP3 PUSH2 0x1892 JUMP JUMPDEST POP PUSH1 0x37 PUSH2 0x656 DUP3 DUP3 PUSH2 0x1892 JUMP JUMPDEST PUSH0 SLOAD PUSH2 0x100 SWAP1 DIV PUSH1 0xFF AND PUSH2 0x13DE JUMPI PUSH1 0x40 MLOAD PUSH3 0x461BCD PUSH1 0xE5 SHL DUP2 MSTORE PUSH1 0x4 ADD PUSH2 0x6C7 SWAP1 PUSH2 0x1773 JUMP JUMPDEST PUSH2 0x751 CALLER PUSH2 0xFE6 JUMP JUMPDEST PUSH1 0x60 PUSH2 0x4BF PUSH1 0x1 PUSH1 0x1 PUSH1 0xA0 SHL SUB DUP4 AND PUSH1 0x14 JUMPDEST PUSH1 0x60 PUSH0 PUSH2 0x1407 DUP4 PUSH1 0x2 PUSH2 0x194D JUMP JUMPDEST PUSH2 0x1412 SWAP1 PUSH1 0x2 PUSH2 0x1760 JUMP JUMPDEST PUSH8 0xFFFFFFFFFFFFFFFF DUP2 GT ISZERO PUSH2 0x142A JUMPI PUSH2 0x142A PUSH2 0x1833 JUMP JUMPDEST PUSH1 0x40 MLOAD SWAP1 DUP1 DUP3 MSTORE DUP1 PUSH1 0x1F ADD PUSH1 0x1F NOT AND PUSH1 0x20 ADD DUP3 ADD PUSH1 0x40 MSTORE DUP1 ISZERO PUSH2 0x1454 JUMPI PUSH1 0x20 DUP3 ADD DUP2 DUP1 CALLDATASIZE DUP4 CALLDATACOPY ADD SWAP1 POP JUMPDEST POP SWAP1 POP PUSH1 0x3 PUSH1 0xFC SHL DUP2 PUSH0 DUP2 MLOAD DUP2 LT PUSH2 0x146E JUMPI PUSH2 0x146E PUSH2 0x1964 JUMP JUMPDEST PUSH1 0x20 ADD ADD SWAP1 PUSH1 0x1 PUSH1 0x1 PUSH1 0xF8 SHL SUB NOT AND SWAP1 DUP2 PUSH0 BYTE SWAP1 MSTORE8 POP PUSH1 0xF PUSH1 0xFB SHL DUP2 PUSH1 0x1 DUP2 MLOAD DUP2 LT PUSH2 0x149C JUMPI PUSH2 0x149C PUSH2 0x1964 JUMP JUMPDEST PUSH1 0x20 ADD ADD SWAP1 PUSH1 0x1 PUSH1 0x1 PUSH1 0xF8 SHL SUB NOT AND SWAP1 DUP2 PUSH0 BYTE SWAP1 MSTORE8 POP PUSH0 PUSH2 0x14BE DUP5 PUSH1 0x2 PUSH2 0x194D JUMP JUMPDEST PUSH2 0x14C9 SWAP1 PUSH1 0x1 PUSH2 0x1760 JUMP JUMPDEST SWAP1 POP JUMPDEST PUSH1 0x1 DUP2 GT ISZERO PUSH2 0x1540 JUMPI PUSH16 0x181899199A1A9B1B9C1CB0B131B232B3 PUSH1 0x81 SHL DUP6 PUSH1 0xF AND PUSH1 0x10 DUP2 LT PUSH2 0x14FD JUMPI PUSH2 0x14FD PUSH2 0x1964 JUMP JUMPDEST BYTE PUSH1 0xF8 SHL DUP3 DUP3 DUP2 MLOAD DUP2 LT PUSH2 0x1513 JUMPI PUSH2 0x1513 PUSH2 0x1964 JUMP JUMPDEST PUSH1 0x20 ADD ADD SWAP1 PUSH1 0x1 PUSH1 0x1 PUSH1 0xF8 SHL SUB NOT AND SWAP1 DUP2 PUSH0 BYTE SWAP1 MSTORE8 POP PUSH1 0x4 SWAP5 SWAP1 SWAP5 SHR SWAP4 PUSH2 0x1539 DUP2 PUSH2 0x1978 JUMP JUMPDEST SWAP1 POP PUSH2 0x14CC JUMP JUMPDEST POP DUP4 ISZERO PUSH2 0x158F JUMPI PUSH1 0x40 MLOAD PUSH3 0x461BCD PUSH1 0xE5 SHL DUP2 MSTORE PUSH1 0x20 PUSH1 0x4 DUP3 ADD DUP2 SWAP1 MSTORE PUSH1 0x24 DUP3 ADD MSTORE PUSH32 0x537472696E67733A20686578206C656E67746820696E73756666696369656E74 PUSH1 0x44 DUP3 ADD MSTORE PUSH1 0x64 ADD PUSH2 0x6C7 JUMP JUMPDEST SWAP4 SWAP3 POP POP POP JUMP JUMPDEST PUSH0 PUSH1 0x20 DUP3 DUP5 SUB SLT ISZERO PUSH2 0x15A6 JUMPI PUSH0 PUSH0 REVERT JUMPDEST DUP2 CALLDATALOAD PUSH1 0x1 PUSH1 0x1 PUSH1 0xE0 SHL SUB NOT DUP2 AND DUP2 EQ PUSH2 0x158F JUMPI PUSH0 PUSH0 REVERT JUMPDEST PUSH1 0x20 DUP2 MSTORE PUSH0 DUP3 MLOAD DUP1 PUSH1 0x20 DUP5 ADD MSTORE DUP1 PUSH1 0x20 DUP6 ADD PUSH1 0x40 DUP6 ADD MCOPY PUSH0 PUSH1 0x40 DUP3 DUP6 ADD ADD MSTORE PUSH1 0x40 PUSH1 0x1F NOT PUSH1 0x1F DUP4 ADD AND DUP5 ADD ADD SWAP2 POP POP SWAP3 SWAP2 POP POP JUMP JUMPDEST DUP1 CALLDATALOAD PUSH1 0x1 PUSH1 0x1 PUSH1 0xA0 SHL SUB DUP2 AND DUP2 EQ PUSH2 0x1608 JUMPI PUSH0 PUSH0 REVERT JUMPDEST SWAP2 SWAP1 POP JUMP JUMPDEST PUSH0 PUSH0 PUSH1 0x40 DUP4 DUP6 SUB SLT ISZERO PUSH2 0x161E JUMPI PUSH0 PUSH0 REVERT JUMPDEST PUSH2 0x1627 DUP4 PUSH2 0x15F2 JUMP JUMPDEST SWAP5 PUSH1 0x20 SWAP4 SWAP1 SWAP4 ADD CALLDATALOAD SWAP4 POP POP POP JUMP JUMPDEST PUSH0 PUSH0 PUSH0 PUSH1 0x60 DUP5 DUP7 SUB SLT ISZERO PUSH2 0x1647 JUMPI PUSH0 PUSH0 REVERT JUMPDEST PUSH2 0x1650 DUP5 PUSH2 0x15F2 JUMP JUMPDEST SWAP3 POP PUSH2 0x165E PUSH1 0x20 DUP6 ADD PUSH2 0x15F2 JUMP JUMPDEST SWAP3 SWAP6 SWAP3 SWAP5 POP POP POP PUSH1 0x40 SWAP2 SWAP1 SWAP2 ADD CALLDATALOAD SWAP1 JUMP JUMPDEST PUSH0 PUSH1 0x20 DUP3 DUP5 SUB SLT ISZERO PUSH2 0x167F JUMPI PUSH0 PUSH0 REVERT JUMPDEST POP CALLDATALOAD SWAP2 SWAP1 POP JUMP JUMPDEST PUSH0 PUSH0 PUSH1 0x40 DUP4 DUP6 SUB SLT ISZERO PUSH2 0x1697 JUMPI PUSH0 PUSH0 REVERT JUMPDEST DUP3 CALLDATALOAD SWAP2 POP PUSH2 0x16A7 PUSH1 0x20 DUP5 ADD PUSH2 0x15F2 JUMP JUMPDEST SWAP1 POP SWAP3 POP SWAP3 SWAP1 POP JUMP JUMPDEST PUSH0 PUSH1 0x20 DUP3 DUP5 SUB SLT ISZERO PUSH2 0x16C0 JUMPI PUSH0 PUSH0 REVERT JUMPDEST PUSH2 0x158F DUP3 PUSH2 0x15F2 JUMP JUMPDEST PUSH0 PUSH0 PUSH1 0x40 DUP4 DUP6 SUB SLT ISZERO PUSH2 0x16DA JUMPI PUSH0 PUSH0 REVERT JUMPDEST PUSH2 0x16E3 DUP4 PUSH2 0x15F2 JUMP JUMPDEST SWAP2 POP PUSH2 0x16A7 PUSH1 0x20 DUP5 ADD PUSH2 0x15F2 JUMP JUMPDEST PUSH0 PUSH1 0x20 DUP3 DUP5 SUB SLT ISZERO PUSH2 0x1701 JUMPI PUSH0 PUSH0 REVERT JUMPDEST DUP2 CALLDATALOAD PUSH4 0xFFFFFFFF DUP2 AND DUP2 EQ PUSH2 0x158F JUMPI PUSH0 PUSH0 REVERT JUMPDEST PUSH1 0x1 DUP2 DUP2 SHR SWAP1 DUP3 AND DUP1 PUSH2 0x1728 JUMPI PUSH1 0x7F DUP3 AND SWAP2 POP JUMPDEST PUSH1 0x20 DUP3 LT DUP2 SUB PUSH2 0x1746 JUMPI PUSH4 0x4E487B71 PUSH1 0xE0 SHL PUSH0 MSTORE PUSH1 0x22 PUSH1 0x4 MSTORE PUSH1 0x24 PUSH0 REVERT JUMPDEST POP SWAP2 SWAP1 POP JUMP JUMPDEST PUSH4 0x4E487B71 PUSH1 0xE0 SHL PUSH0 MSTORE PUSH1 0x11 PUSH1 0x4 MSTORE PUSH1 0x24 PUSH0 REVERT JUMPDEST DUP1 DUP3 ADD DUP1 DUP3 GT ISZERO PUSH2 0x4BF JUMPI PUSH2 0x4BF PUSH2 0x174C JUMP JUMPDEST PUSH1 0x20 DUP1 DUP3 MSTORE PUSH1 0x2B SWAP1 DUP3 ADD MSTORE PUSH32 0x496E697469616C697A61626C653A20636F6E7472616374206973206E6F742069 PUSH1 0x40 DUP3 ADD MSTORE PUSH11 0x6E697469616C697A696E67 PUSH1 0xA8 SHL PUSH1 0x60 DUP3 ADD MSTORE PUSH1 0x80 ADD SWAP1 JUMP JUMPDEST PUSH0 DUP2 MLOAD DUP1 PUSH1 0x20 DUP5 ADD DUP6 MCOPY PUSH0 SWAP4 ADD SWAP3 DUP4 MSTORE POP SWAP1 SWAP2 SWAP1 POP JUMP JUMPDEST PUSH32 0x416363657373436F6E74726F6C3A206163636F756E7420000000000000000000 DUP2 MSTORE PUSH0 PUSH2 0x1806 PUSH1 0x17 DUP4 ADD DUP6 PUSH2 0x17BE JUMP JUMPDEST PUSH17 0x1034B99036B4B9B9B4B733903937B6329 PUSH1 0x7D SHL DUP2 MSTORE PUSH2 0x182A PUSH1 0x11 DUP3 ADD DUP6 PUSH2 0x17BE JUMP JUMPDEST SWAP6 SWAP5 POP POP POP POP POP JUMP JUMPDEST PUSH4 0x4E487B71 PUSH1 0xE0 SHL PUSH0 MSTORE PUSH1 0x41 PUSH1 0x4 MSTORE PUSH1 0x24 PUSH0 REVERT JUMPDEST PUSH1 0x1F DUP3 GT ISZERO PUSH2 0x656 JUMPI DUP1 PUSH0 MSTORE PUSH1 0x20 PUSH0 KECCAK256 PUSH1 0x1F DUP5 ADD PUSH1 0x5 SHR DUP2 ADD PUSH1 0x20 DUP6 LT ISZERO PUSH2 0x186C JUMPI POP DUP1 JUMPDEST PUSH1 0x1F DUP5 ADD PUSH1 0x5 SHR DUP3 ADD SWAP2 POP JUMPDEST DUP2 DUP2 LT ISZERO PUSH2 0x188B JUMPI PUSH0 DUP2 SSTORE PUSH1 0x1 ADD PUSH2 0x1878 JUMP JUMPDEST POP POP POP POP POP JUMP JUMPDEST DUP2 MLOAD PUSH8 0xFFFFFFFFFFFFFFFF DUP2 GT ISZERO PUSH2 0x18AC JUMPI PUSH2 0x18AC PUSH2 0x1833 JUMP JUMPDEST PUSH2 0x18C0 DUP2 PUSH2 0x18BA DUP5 SLOAD PUSH2 0x1714 JUMP JUMPDEST DUP5 PUSH2 0x1847 JUMP JUMPDEST PUSH1 0x20 PUSH1 0x1F DUP3 GT PUSH1 0x1 DUP2 EQ PUSH2 0x18F2 JUMPI PUSH0 DUP4 ISZERO PUSH2 0x18DB JUMPI POP DUP5 DUP3 ADD MLOAD JUMPDEST PUSH0 NOT PUSH1 0x3 DUP6 SWAP1 SHL SHR NOT AND PUSH1 0x1 DUP5 SWAP1 SHL OR DUP5 SSTORE PUSH2 0x188B JUMP JUMPDEST PUSH0 DUP5 DUP2 MSTORE PUSH1 0x20 DUP2 KECCAK256 PUSH1 0x1F NOT DUP6 AND SWAP2 JUMPDEST DUP3 DUP2 LT ISZERO PUSH2 0x1921 JUMPI DUP8 DUP6 ADD MLOAD DUP3 SSTORE PUSH1 0x20 SWAP5 DUP6 ADD SWAP5 PUSH1 0x1 SWAP1 SWAP3 ADD SWAP2 ADD PUSH2 0x1901 JUMP JUMPDEST POP DUP5 DUP3 LT ISZERO PUSH2 0x193E JUMPI DUP7 DUP5 ADD MLOAD PUSH0 NOT PUSH1 0x3 DUP8 SWAP1 SHL PUSH1 0xF8 AND SHR NOT AND DUP2 SSTORE JUMPDEST POP POP POP POP PUSH1 0x1 SWAP1 DUP2 SHL ADD SWAP1 SSTORE POP JUMP JUMPDEST DUP1 DUP3 MUL DUP2 ISZERO DUP3 DUP3 DIV DUP5 EQ OR PUSH2 0x4BF JUMPI PUSH2 0x4BF PUSH2 0x174C JUMP JUMPDEST PUSH4 0x4E487B71 PUSH1 0xE0 SHL PUSH0 MSTORE PUSH1 0x32 PUSH1 0x4 MSTORE PUSH1 0x24 PUSH0 REVERT JUMPDEST PUSH0 DUP2 PUSH2 0x1986 JUMPI PUSH2 0x1986 PUSH2 0x174C JUMP JUMPDEST POP PUSH0 NOT ADD SWAP1 JUMP INVALID LOG2 PUSH5 0x6970667358 0x22 SLT KECCAK256 PUSH9 0xD1B88710002B7679E6 SLOAD RETURNCONTRACT 0x9C EXTCODECOPY BLOBBASEFEE 0xDA PUSH2 0x1712 SWAP15 LOG1 ADD 0xBE STATICCALL PC OR 0xC7 PREVRANDAO SUB PUSH18 0x8DC864736F6C634300081E00330000000000 "
				},
				"gasEstimates": {
					"creation": {
						"codeDepositCost": "1319000",
						"executionCost": "1374",
						"totalCost": "1320374"
					},
					"external": {
						"ALLOWED_TRANSFER_FROM_ROLE()": "261",
						"BURN_ROLE()": "261",
						"DEFAULT_ADMIN_ROLE()": "282",
						"MINTER_ROLE()": "305",
						"allowance(address,address)": "infinite",
						"approve(address,uint256)": "24676",
						"balanceOf(address)": "2623",
						"burn(address,uint256)": "infinite",
						"burn(uint256)": "50789",
						"burnFrom(address,uint256)": "77495",
						"decimals()": "222",
						"decreaseAllowance(address,uint256)": "27044",
						"getRoleAdmin(bytes32)": "2531",
						"grantRole(bytes32,address)": "infinite",
						"hasRole(bytes32,address)": "2762",
						"increaseAllowance(address,uint256)": "27056",
						"initialize()": "infinite",
						"listingTimestamp()": "2401",
						"mint(address,uint256)": "53299",
						"name()": "infinite",
						"owner()": "2390",
						"renounceOwnership()": "infinite",
						"renounceRole(bytes32,address)": "29064",
						"revokeRole(bytes32,address)": "infinite",
						"setListingTimestamp(uint32)": "infinite",
						"supportsInterface(bytes4)": "470",
						"symbol()": "infinite",
						"totalSupply()": "2326",
						"transfer(address,uint256)": "51083",
						"transferFrom(address,address,uint256)": "infinite",
						"transferOwnership(address)": "28443"
					}
				},
				"methodIdentifiers": {
					"ALLOWED_TRANSFER_FROM_ROLE()": "4e695cca",
					"BURN_ROLE()": "b930908f",
					"DEFAULT_ADMIN_ROLE()": "a217fddf",
					"MINTER_ROLE()": "d5391393",
					"allowance(address,address)": "dd62ed3e",
					"approve(address,uint256)": "095ea7b3",
					"balanceOf(address)": "70a08231",
					"burn(address,uint256)": "9dc29fac",
					"burn(uint256)": "42966c68",
					"burnFrom(address,uint256)": "79cc6790",
					"decimals()": "313ce567",
					"decreaseAllowance(address,uint256)": "a457c2d7",
					"getRoleAdmin(bytes32)": "248a9ca3",
					"grantRole(bytes32,address)": "2f2ff15d",
					"hasRole(bytes32,address)": "91d14854",
					"increaseAllowance(address,uint256)": "39509351",
					"initialize()": "8129fc1c",
					"listingTimestamp()": "bd39a2a8",
					"mint(address,uint256)": "40c10f19",
					"name()": "06fdde03",
					"owner()": "8da5cb5b",
					"renounceOwnership()": "715018a6",
					"renounceRole(bytes32,address)": "36568abe",
					"revokeRole(bytes32,address)": "d547741f",
					"setListingTimestamp(uint32)": "e90cdd1c",
					"supportsInterface(bytes4)": "01ffc9a7",
					"symbol()": "95d89b41",
					"totalSupply()": "18160ddd",
					"transfer(address,uint256)": "a9059cbb",
					"transferFrom(address,address,uint256)": "23b872dd",
					"transferOwnership(address)": "f2fde38b"
				}
			},
			"storageLayout": {
				"storage": [
					{
						"astId": 549,
						"contract": "contracts/tokens/AlvaraAvax.sol:AlvaraAvax",
						"label": "_initialized",
						"offset": 0,
						"slot": "0",
						"type": "t_uint8"
					},
					{
						"astId": 552,
						"contract": "contracts/tokens/AlvaraAvax.sol:AlvaraAvax",
						"label": "_initializing",
						"offset": 1,
						"slot": "0",
						"type": "t_bool"
					},
					{
						"astId": 1872,
						"contract": "contracts/tokens/AlvaraAvax.sol:AlvaraAvax",
						"label": "__gap",
						"offset": 0,
						"slot": "1",
						"type": "t_array(t_uint256)50_storage"
					},
					{
						"astId": 731,
						"contract": "contracts/tokens/AlvaraAvax.sol:AlvaraAvax",
						"label": "_balances",
						"offset": 0,
						"slot": "51",
						"type": "t_mapping(t_address,t_uint256)"
					},
					{
						"astId": 737,
						"contract": "contracts/tokens/AlvaraAvax.sol:AlvaraAvax",
						"label": "_allowances",
						"offset": 0,
						"slot": "52",
						"type": "t_mapping(t_address,t_mapping(t_address,t_uint256))"
					},
					{
						"astId": 739,
						"contract": "contracts/tokens/AlvaraAvax.sol:AlvaraAvax",
						"label": "_totalSupply",
						"offset": 0,
						"slot": "53",
						"type": "t_uint256"
					},
					{
						"astId": 741,
						"contract": "contracts/tokens/AlvaraAvax.sol:AlvaraAvax",
						"label": "_name",
						"offset": 0,
						"slot": "54",
						"type": "t_string_storage"
					},
					{
						"astId": 743,
						"contract": "contracts/tokens/AlvaraAvax.sol:AlvaraAvax",
						"label": "_symbol",
						"offset": 0,
						"slot": "55",
						"type": "t_string_storage"
					},
					{
						"astId": 1323,
						"contract": "contracts/tokens/AlvaraAvax.sol:AlvaraAvax",
						"label": "__gap",
						"offset": 0,
						"slot": "56",
						"type": "t_array(t_uint256)45_storage"
					},
					{
						"astId": 421,
						"contract": "contracts/tokens/AlvaraAvax.sol:AlvaraAvax",
						"label": "_owner",
						"offset": 0,
						"slot": "101",
						"type": "t_address"
					},
					{
						"astId": 541,
						"contract": "contracts/tokens/AlvaraAvax.sol:AlvaraAvax",
						"label": "__gap",
						"offset": 0,
						"slot": "102",
						"type": "t_array(t_uint256)49_storage"
					},
					{
						"astId": 1466,
						"contract": "contracts/tokens/AlvaraAvax.sol:AlvaraAvax",
						"label": "__gap",
						"offset": 0,
						"slot": "151",
						"type": "t_array(t_uint256)50_storage"
					},
					{
						"astId": 2146,
						"contract": "contracts/tokens/AlvaraAvax.sol:AlvaraAvax",
						"label": "__gap",
						"offset": 0,
						"slot": "201",
						"type": "t_array(t_uint256)50_storage"
					},
					{
						"astId": 28,
						"contract": "contracts/tokens/AlvaraAvax.sol:AlvaraAvax",
						"label": "_roles",
						"offset": 0,
						"slot": "251",
						"type": "t_mapping(t_bytes32,t_struct(RoleData)23_storage)"
					},
					{
						"astId": 335,
						"contract": "contracts/tokens/AlvaraAvax.sol:AlvaraAvax",
						"label": "__gap",
						"offset": 0,
						"slot": "252",
						"type": "t_array(t_uint256)49_storage"
					},
					{
						"astId": 3266,
						"contract": "contracts/tokens/AlvaraAvax.sol:AlvaraAvax",
						"label": "listingTimestamp",
						"offset": 0,
						"slot": "301",
						"type": "t_uint32"
					}
				],
				"types": {
					"t_address": {
						"encoding": "inplace",
						"label": "address",
						"numberOfBytes": "20"
					},
					"t_array(t_uint256)45_storage": {
						"base": "t_uint256",
						"encoding": "inplace",
						"label": "uint256[45]",
						"numberOfBytes": "1440"
					},
					"t_array(t_uint256)49_storage": {
						"base": "t_uint256",
						"encoding": "inplace",
						"label": "uint256[49]",
						"numberOfBytes": "1568"
					},
					"t_array(t_uint256)50_storage": {
						"base": "t_uint256",
						"encoding": "inplace",
						"label": "uint256[50]",
						"numberOfBytes": "1600"
					},
					"t_bool": {
						"encoding": "inplace",
						"label": "bool",
						"numberOfBytes": "1"
					},
					"t_bytes32": {
						"encoding": "inplace",
						"label": "bytes32",
						"numberOfBytes": "32"
					},
					"t_mapping(t_address,t_bool)": {
						"encoding": "mapping",
						"key": "t_address",
						"label": "mapping(address => bool)",
						"numberOfBytes": "32",
						"value": "t_bool"
					},
					"t_mapping(t_address,t_mapping(t_address,t_uint256))": {
						"encoding": "mapping",
						"key": "t_address",
						"label": "mapping(address => mapping(address => uint256))",
						"numberOfBytes": "32",
						"value": "t_mapping(t_address,t_uint256)"
					},
					"t_mapping(t_address,t_uint256)": {
						"encoding": "mapping",
						"key": "t_address",
						"label": "mapping(address => uint256)",
						"numberOfBytes": "32",
						"value": "t_uint256"
					},
					"t_mapping(t_bytes32,t_struct(RoleData)23_storage)": {
						"encoding": "mapping",
						"key": "t_bytes32",
						"label": "mapping(bytes32 => struct AccessControlUpgradeable.RoleData)",
						"numberOfBytes": "32",
						"value": "t_struct(RoleData)23_storage"
					},
					"t_string_storage": {
						"encoding": "bytes",
						"label": "string",
						"numberOfBytes": "32"
					},
					"t_struct(RoleData)23_storage": {
						"encoding": "inplace",
						"label": "struct AccessControlUpgradeable.RoleData",
						"members": [
							{
								"astId": 20,
								"contract": "contracts/tokens/AlvaraAvax.sol:AlvaraAvax",
								"label": "members",
								"offset": 0,
								"slot": "0",
								"type": "t_mapping(t_address,t_bool)"
							},
							{
								"astId": 22,
								"contract": "contracts/tokens/AlvaraAvax.sol:AlvaraAvax",
								"label": "adminRole",
								"offset": 0,
								"slot": "1",
								"type": "t_bytes32"
							}
						],
						"numberOfBytes": "64"
					},
					"t_uint256": {
						"encoding": "inplace",
						"label": "uint256",
						"numberOfBytes": "32"
					},
					"t_uint32": {
						"encoding": "inplace",
						"label": "uint32",
						"numberOfBytes": "4"
					},
					"t_uint8": {
						"encoding": "inplace",
						"label": "uint8",
						"numberOfBytes": "1"
					}
				}
			},
			"userdoc": {
				"events": {
					"ListingTimestampUpdated(uint32)": {
						"notice": "Called every time the listing timestamp is updated for easy off-chain tracking."
					}
				},
				"kind": "user",
				"methods": {
					"setListingTimestamp(uint32)": {
						"notice": "Allows the admin to specify when the token should become tradeable. Once the token is tradeable, transferFrom can never be supervised again."
					}
				},
				"version": 1
			}
		}
	}
}