{
	"data": {
		"bytecode": {
			"linkReferences": {},
			"object": "6080604052348015600e575f5ffd5b506141678061001c5f395ff3fe608060405234801561000f575f5ffd5b50600436106102b0575f3560e01c8063744f90a71161017b578063c86a0d16116100e4578063df3100d41161009e578063f327af1811610079578063f327af18146106a1578063f9f16788146106b4578063ff7ca16f146106bd578063fff9e9171461073e575f5ffd5b8063df3100d41461067c578063e27c8ad514610685578063e7e4e1f71461068e575f5ffd5b8063c86a0d16146105fc578063d3f52d001461060f578063d547741f14610622578063dba3a27d14610635578063dbf768351461063e578063de2ca1ee1461065d575f5ffd5b8063b0d2d01111610135578063b0d2d011146105a9578063b397e572146105b2578063b6334aee146105c5578063bbbeff8c146105ce578063c38474c0146105e1578063c517841c146105e9575f5ffd5b8063744f90a71461051157806378e979251461052457806381a00f831461052d57806391d148541461057c578063a217fddf1461058f578063abd8a03314610596575f5ffd5b8063372500ab1161021d5780635bae5e54116101d75780635bae5e541461046e5780635c5c0d60146104b85780635c975abb146104cb5780635d1dccb1146104d6578063720b3ad3146104de57806373dfccca146104f1575f5ffd5b8063372500ab146103d457806343cdab57146103dc57806345434445146103ef5780634e5335721461041d578063507f1305146104485780635ab2d62f1461045b575f5ffd5b8063248a9ca31161026e578063248a9ca31461034d57806327c1a8121461036f5780632b6fdc7e1461039d5780632def6620146103a65780632f2ff15d146103ae57806336568abe146103c1575f5ffd5b80620a74be146102b457806301ffc9a7146102e657806302e4923c146103095780631254eb931461031c57806315500991146103255780631bd067c514610338575b5f5ffd5b6102d36102c23660046137fd565b60d76020525f908152604090205481565b6040519081526020015b60405180910390f35b6102f96102f4366004613816565b610751565b60405190151581526020016102dd565b6102d36103173660046137fd565b610787565b6102d360cc5481565b6102d36103333660046137fd565b610871565b61034b61034636600461383d565b610935565b005b6102d361035b36600461383d565b5f9081526097602052604090206001015490565b6102d361037d366004613854565b5f91825260da60209081526040808420928452600b909201905290205490565b6102d360d35481565b61034b6109b2565b61034b6103bc366004613874565b610bd2565b61034b6103cf366004613874565b610bfb565b61034b610c79565b61034b6103ea36600461383d565b610d36565b6104026103fd366004613854565b610dc3565b604080519384526020840192909252908201526060016102dd565b61043061042b36600461383d565b610ee1565b6040516102dd9c9b9a999897969594939291906138cc565b61034b610456366004613941565b610fcb565b6102d36104693660046137fd565b6111ba565b6104a361047c3660046137fd565b6001600160a01b03165f90815260d5602090815260408083205460d4909252909120549091565b604080519283526020830191909152016102dd565b61034b6104c6366004613a1e565b6113bd565b60335460ff166102f9565b61034b6114dd565b61034b6104ec366004613a61565b6119eb565b6105046104ff36600461383d565b611d47565b6040516102dd9190613aa4565b61040261051f366004613a61565b611ded565b6102d360d25481565b61055f61053b36600461383d565b60db6020525f908152604090208054600182015460029092015460ff909116919083565b6040805193151584526020840192909252908201526060016102dd565b6102f961058a366004613874565b611e90565b6102d35f81565b61034b6105a436600461383d565b611eba565b6102d360cf5481565b6102d36105c0366004613a61565b611f2a565b6102d360ce5481565b61034b6105dc36600461383d565b60d255565b6102d3611f6e565b6102d36105f7366004613ab6565b611f8f565b61034b61060a366004613ade565b611fba565b61034b61061d36600461383d565b612130565b61034b610630366004613874565b61214d565b61034b5f60cd55565b6102d361064c3660046137fd565b60d66020525f908152604090205481565b6102d361066b3660046137fd565b60d86020525f908152604090205481565b6102d360d15481565b6102d360d05481565b61034b61069c366004613a61565b612171565b6102d36106af366004613ab6565b6121af565b6102d360cd5481565b61070f6106cb366004613af9565b805160208183018101805160d98252928201919093012091528054600182015460028301546003840154600485015460059095015460ff9094169492939192909186565b6040805196151587526020870195909552938501929092526060840152608083015260a082015260c0016102dd565b61034b61074c366004613c34565b6121c8565b5f6001600160e01b03198216637965db0b60e01b148061078157506301ffc9a760e01b6001600160e01b03198316145b92915050565b5f5f61079283610871565b5f81815260da60205260409020600681015460049091015491925090156108375760ce545f83815260da60205260408120600401549091906107d49042613d59565b6107de9190613d6c565b60ce545f85815260da6020526040812060030154929350916108009190613d6c565b90508181111561083057806108158382613d59565b61081f9085613d8b565b6108299190613d6c565b9250610834565b5f92505b50505b6001600160a01b0384165f90815260d86020908152604080832054835260da9091529020600601546108699082613da2565b949350505050565b6001600160a01b0381165f90815260d46020526040812054801561092f576001600160a01b0383165f90815260d46020526040812060da91906108b5600185613d59565b815481106108c5576108c5613db5565b905f5260205f20015481526020019081526020015f2060020160019054906101000a900460ff161561092f576001600160a01b0383165f90815260d460205260409020610913600183613d59565b8154811061092357610923613db5565b905f5260205f20015491505b50919050565b5f5160206141125f395f51905f5261094c816126e0565b60018210156109ac5760405162461bcd60e51b815260206004820152602160248201527f4d696e696d756d20616d6f756e74206d757374206265206174206c65617374206044820152603160f81b60648201526084015b60405180910390fd5b5060cf55565b6109ba6126ed565b5f6109c433610871565b9050805f03610a0c5760405162461bcd60e51b8152602060048201526014602482015273139bc81858dd1a5d99481b1bd8dac8199bdd5b9960621b60448201526064016109a3565b5f81815260da60205260409020600501544211610a7b5760405162461bcd60e51b815260206004820152602760248201527f43616e6e6f7420756e7374616b65206265666f726520746865206c6f636b20656044820152666e642074696d6560c81b60648201526084016109a3565b60c9545f82815260da60205260409081902060010154905163a9059cbb60e01b815233600482015260248101919091526001600160a01b039091169063a9059cbb906044016020604051808303815f875af1158015610adc573d5f5f3e3d5ffd5b505050506040513d601f19601f82011682018060405250810190610b009190613dc9565b5060ca545f82815260da6020526040908190206006015490516306888c6760e11b815233600482015260248101919091526001600160a01b0390911690630d1118ce906044015f604051808303815f87803b158015610b5d575f5ffd5b505af1158015610b6f573d5f5f3e3d5ffd5b5050505f82815260da60205260409081902060028101805461ff001916905560050154905183925033917f92ccf450a286a957af52509bc1c9939d1a6a481783e142e41e2499f0bb66ebc691610bc791815260200190565b60405180910390a350565b5f82815260976020526040902060010154610bec816126e0565b610bf68383612735565b505050565b6001600160a01b0381163314610c6b5760405162461bcd60e51b815260206004820152602f60248201527f416363657373436f6e74726f6c3a2063616e206f6e6c792072656e6f756e636560448201526e103937b632b9903337b91039b2b63360891b60648201526084016109a3565b610c7582826127ba565b5050565b610c816126ed565b5f610c8a612820565b60c95460405163a9059cbb60e01b8152336004820152602481018390529192506001600160a01b03169063a9059cbb906044016020604051808303815f875af1158015610cd9573d5f5f3e3d5ffd5b505050506040513d601f19601f82011682018060405250810190610cfd9190613dc9565b5060405181815233907ffc30cddea38e2bf4d6ea7d3f9ed3b6ad7f176419f4963bd81318067a4aee73fe9060200160405180910390a250565b5f5160206141125f395f51905f52610d4d816126e0565b5f82118015610d5f575062093a808211155b610dbd5760405162461bcd60e51b815260206004820152602960248201527f496e74657276616c2073686f756c642062652077697468696e207468652076616044820152686c69642072616e676560b81b60648201526084016109a3565b5060ce55565b5f82815260da60205260408120600181015482918291610e175760405162461bcd60e51b815260206004820152600f60248201526e125b9d985b1a5908131bd8dac81259608a1b60448201526064016109a3565b60028101545f9060ff16610e2f578160090154610e33565b60cd545b6008830154945090505f610e478786613da2565b5f868152600b85016020526040902054945090505b8481118015610e6a57508482115b15610ed7575f85815260db602052604090206001015415610ed757610e908589866128ff565b610e9a9087613da2565b5f868152600b8501602052604090205490965015610ec5575f858152600b8401602052604090205493505b84610ecf81613de4565b955050610e5c565b5050509250925092565b60da6020525f9081526040902080548190610efb90613dfc565b80601f0160208091040260200160405190810160405280929190818152602001828054610f2790613dfc565b8015610f725780601f10610f4957610100808354040283529160200191610f72565b820191905f5260205f20905b815481529060010190602001808311610f5557829003601f168201915b50505060018401546002850154600386015460048701546005880154600689015460078a015460088b015460098c0154600a909c01549a9b979a60ff8089169b506101009098049097169850949693959294919390928c565b610fd36126ed565b5f811561106e5750335f90815260d860205260408120549081900361100a5760405162461bcd60e51b81526004016109a390613e2e565b60c95460405163079cc67960e41b8152336004820152602481018590526001600160a01b03909116906379cc6790906044015f604051808303815f87803b158015611053575f5ffd5b505af1158015611065573d5f5f3e3d5ffd5b50505050611155565b61107733610871565b9050801580159061109757505f81815260da602052604090206005015442105b6110db5760405162461bcd60e51b81526020600482015260156024820152744e6f20416374697665206c6f636b2065786973747360581b60448201526064016109a3565b60c9546040516323b872dd60e01b8152336004820152306024820152604481018590526001600160a01b03909116906323b872dd906064016020604051808303815f875af115801561112f573d5f5f3e3d5ffd5b505050506040513d601f19601f820116820180604052508101906111539190613dc9565b505b61115f8382612a72565b5f81815260da6020908152604091829020600181015460069091015483519182529181019190915282917f7975828cb9027121837d9d3a5eda3d9bf35a6582d2ec4684b110ae0b553bb4f691015b60405180910390a2505050565b6001600160a01b0381165f90815260d66020526040812054819081905b6001600160a01b0385165f90815260d560205260409020548110156112f4576001600160a01b0385165f90815260d56020526040812080546112d991908490811061122457611224613db5565b905f5260205f20015460da5f60d55f8b6001600160a01b03166001600160a01b031681526020019081526020015f20868154811061126457611264613db5565b905f5260205f20015481526020019081526020015f206008015460da5f60d55f8c6001600160a01b03166001600160a01b031681526020019081526020015f2087815481106112b5576112b5613db5565b905f5260205f20015481526020019081526020015f20600901546103fd9190613d59565b5050905080846112e99190613da2565b9350506001016111d7565b6001600160a01b0385165f90815260d860205260409020541580159061134257506001600160a01b0385165f90815260d86020908152604080832054835260da90915290206008015460cd54115b15611388576001600160a01b0385165f90815260d8602090815260408083205480845260da9092529091206008015460cd5461138292916103fd91613d59565b50909250505b6001600160a01b0385165f90815260d760205260409020546113aa8385613da2565b6113b49190613da2565b95945050505050565b5f5160206141125f395f51905f526113d4816126e0565b60cb545f90815b8181101561146157856040516020016113f49190613e8f565b6040516020818303038152906040528051906020012060cb828154811061141d5761141d613db5565b905f5260205f20016040516020016114359190613e9a565b60405160208183030381529060405280519060200120036114595760019250611461565b6001016113db565b50816114a55760405162461bcd60e51b8152602060048201526013602482015272141bdbdb08191bd95cc81b9bdd08195e1a5cdd606a1b60448201526064016109a3565b8360d9866040516114b69190613e8f565b908152604051908190036020019020805491151560ff199092169190911790555050505050565b6114e56126ed565b60d15460c9546040516370a0823160e01b81523360048201525f92629896809290916001600160a01b03909116906370a0823190602401602060405180830381865afa158015611537573d5f5f3e3d5ffd5b505050506040513d601f19601f8201168201806040525081019061155b9190613f0b565b6115659190613d8b565b61156f9190613d6c565b905060d0548110156115d65760405162461bcd60e51b815260206004820152602a60248201527f526577617264206d757374206265206174206c6561737420746865206d696e696044820152691b5d5b48185b5bdd5b9d60b21b60648201526084016109a3565b60cd546115e1611f6e565b811061162f5760405162461bcd60e51b815260206004820152601a60248201527f43616e6e6f742070726f63657373206265666f72652074696d6500000000000060448201526064016109a3565b60c9546040516323b872dd60e01b8152336004820152306024820152604481018490526001600160a01b03909116906323b872dd906064016020604051808303815f875af1158015611683573d5f5f3e3d5ffd5b505050506040513d601f19601f820116820180604052508101906116a79190613dc9565b5060d3546116b58184613da2565b5f83815260db60205260408120600201829055909350905061012c6116db836001613da2565b6116e59190613d8b565b60d2546116f29190613da2565b5f83815260db60205260408120600101919091555b60cb548110156119805760db5f8481526020019081526020015f2060040160cb828154811061173857611738613db5565b905f5260205f200160405161174d9190613e9a565b90815260200160405180910390205460d960cb838154811061177157611771613db5565b905f5260205f20016040516117869190613e9a565b90815260200160405180910390206004015f8282546117a59190613da2565b9091555050801561184a5760db5f8481526020019081526020015f2060050160cb82815481106117d7576117d7613db5565b905f5260205f20016040516117ec9190613e9a565b90815260200160405180910390205460d960cb838154811061181057611810613db5565b905f5260205f20016040516118259190613e9a565b90815260200160405180910390206004015f8282546118449190613d59565b90915550505b60d960cb828154811061185f5761185f613db5565b905f5260205f20016040516118749190613e9a565b90815260200160405180910390206004015460db5f8581526020019081526020015f2060030160cb83815481106118ad576118ad613db5565b905f5260205f20016040516118c29190613e9a565b90815260200160405180910390208190555060d960cb82815481106118e9576118e9613db5565b905f5260205f20016040516118fe9190613e9a565b9081526020016040518091039020600401545f03611978576298968060d960cb838154811061192f5761192f613db5565b905f5260205f20016040516119449190613e9a565b908152602001604051809103902060020154856119619190613d8b565b61196b9190613d6c565b6119759083613da2565b91505b600101611707565b5060d381905560405183815282907f40df43107e8b4d467127964bd3c966687c0a6a39aaede970755397fd09535e989060200160405180910390a25f82815260db60205260408120805460ff1916600117905560cd8054916119e183613de4565b9190505550505050565b6119f36126ed565b5f6119fd33610871565b90508015801590611a1d57505f81815260da602052604090206005015442105b611a605760405162461bcd60e51b8152602060048201526014602482015273139bc81858dd1a5d99481b1bd8dac8199bdd5b9960621b60448201526064016109a3565b5f81815260da60205260409081902060030154905160d990611a83908590613e8f565b9081526020016040518091039020600301541015611afb5760405162461bcd60e51b815260206004820152602f60248201527f4c6f636b206475726174696f6e2063616e6e6f74206265206c6573732074686160448201526e6e206578697374696e67206c6f636b60881b60648201526084016109a3565b5f81815260da602052604081206001810154815490929190611b1c90613dfc565b80601f0160208091040260200160405190810160405280929190818152602001828054611b4890613dfc565b8015611b935780601f10611b6a57610100808354040283529160200191611b93565b820191905f5260205f20905b815481529060010190602001808311611b7657829003601f168201915b5050505f86815260da6020526040812060028101805461ff001916905542600590910155929350611bc69150611f6e9050565b5f85815260da6020526040902060090154909150811015611cf2575f84815260da6020908152604080832060090154835260db909152908190209051849160050190611c13908590613e8f565b90815260200160405180910390205f828254611c2f9190613d59565b90915550505f84815260da6020908152604080832060090184905583835260db909152908190209051849160050190611c69908590613e8f565b90815260200160405180910390205f828254611c859190613da2565b90915550505f84815260da602052604090206009810154600890910154148015611cbc5750335f90815260d5602052604090205415155b15611cf257335f90815260d560205260409020805480611cde57611cde613f22565b600190038181905f5260205f20015f905590555b5f84815260da6020526040902060060154611d1290879085908885612dfc565b60cc5460405185907f49b2ada88c09d45d501a352ddd16f0b8baba46034a2b243bfa8e215e2745f233905f90a3505050505050565b60cb8181548110611d56575f80fd5b905f5260205f20015f915090508054611d6e90613dfc565b80601f0160208091040260200160405190810160405280929190818152602001828054611d9a90613dfc565b8015611de55780601f10611dbc57610100808354040283529160200191611de5565b820191905f5260205f20905b815481529060010190602001808311611dc857829003601f168201915b505050505081565b5f5f5f60db5f8681526020019081526020015f2060030184604051611e129190613e8f565b90815260200160405180910390205460db5f8781526020019081526020015f2060040185604051611e439190613e8f565b90815260200160405180910390205460db5f8881526020019081526020015f2060050186604051611e749190613e8f565b9081526020016040518091039020549250925092509250925092565b5f9182526097602090815260408084206001600160a01b0393909316845291905290205460ff1690565b5f5160206141125f395f51905f52611ed1816126e0565b62989680821115611f245760405162461bcd60e51b815260206004820152601860248201527f496e76616c69642070657263656e746167652076616c7565000000000000000060448201526064016109a3565b5060d155565b5f6305f5e10060d983604051611f409190613e8f565b90815260200160405180910390206001015484611f5d9190613d8b565b611f679190613d6c565b9392505050565b5f61012c60d25442611f809190613d59565b611f8a9190613d6c565b905090565b60d4602052815f5260405f208181548110611fa8575f80fd5b905f5260205f20015f91509150505481565b611fc26126ed565b5f611fcb612820565b90505f82156120625750335f90815260d86020526040812054908190036120045760405162461bcd60e51b81526004016109a390613e2e565b60c954604051630852cd8d60e31b8152600481018490526001600160a01b03909116906342966c68906024015f604051808303815f87803b158015612047575f5ffd5b505af1158015612059573d5f5f3e3d5ffd5b505050506120cf565b61206b33610871565b9050801580159061208b57505f81815260da602052604090206005015442105b6120cf5760405162461bcd60e51b81526020600482015260156024820152744e6f20416374697665206c6f636b2065786973747360581b60448201526064016109a3565b6120d98282612a72565b5f81815260da6020908152604091829020600181015460069091015483519182529181018590529182015281907f4e2cc4951f3eeabdd9e423f93eba5e634644ff5fc64b2e59c2486c23a305dd8e906060016111ad565b5f5160206141125f395f51905f52612147816126e0565b5060d055565b5f82815260976020526040902060010154612167816126e0565b610bf683836127ba565b6121796126ed565b60cf5482101561219b5760405162461bcd60e51b81526004016109a390613f36565b610c75825f5f846121aa611f6e565b612dfc565b60d5602052815f5260405f208181548110611fa8575f80fd5b5f54610100900460ff16158080156121e657505f54600160ff909116105b806121ff5750303b1580156121ff57505f5460ff166001145b6122625760405162461bcd60e51b815260206004820152602e60248201527f496e697469616c697a61626c653a20636f6e747261637420697320616c72656160448201526d191e481a5b9a5d1a585b1a5e995960921b60648201526084016109a3565b5f805460ff191660011790558015612283575f805461ff0019166101001790555b6001600160a01b038a166122d95760405162461bcd60e51b815260206004820152601a60248201527f496e76616c696420414c564120746f6b656e206164647265737300000000000060448201526064016109a3565b6001600160a01b03891661232f5760405162461bcd60e51b815260206004820152601c60248201527f496e76616c6964207665414c564120746f6b656e20616464726573730000000060448201526064016109a3565b60c980546001600160a01b03808d166001600160a01b03199283161790925560ca8054928c169290911691909117905560ce88905560d2879055600160cf5561271060d055624c4b4060d1556123855f33612735565b6123af7f65d7a28e3265b37a6474929f336521b332c1681b933f6cb9f3376673440d862a33612735565b6123c65f5160206141125f395f51905f5233612735565b6123f07f4c716a0ebd1cfd3e93ca0db9b9f8a0a9cb7c1d4cc18b52950e1f5528cc73cb5d33612735565b825f8151811061240257612402613db5565b60200260200101515f1461244c5760405162461bcd60e51b8152602060048201526011602482015270496e76616c6964204475726174696f6e7360781b60448201526064016109a3565b85515f906124619060cb9060208a019061372c565b505f5b87518110156126495785818151811061247f5761247f613db5565b602002602001015160d989838151811061249b5761249b613db5565b60200260200101516040516124b09190613e8f565b9081526020016040518091039020600101819055508681815181106124d7576124d7613db5565b602002602001015160d98983815181106124f3576124f3613db5565b60200260200101516040516125089190613e8f565b90815260200160405180910390206002018190555084818151811061252f5761252f613db5565b602002602001015160d989838151811061254b5761254b613db5565b60200260200101516040516125609190613e8f565b908152602001604051809103902060030181905550600160d989838151811061258b5761258b613db5565b60200260200101516040516125a09190613e8f565b908152604051908190036020019020805491151560ff1990921691909117905583518490829081106125d4576125d4613db5565b602002602001015160d98983815181106125f0576125f0613db5565b60200260200101516040516126059190613e8f565b90815260200160405180910390206005018190555086818151811061262c5761262c613db5565b60200260200101518261263f9190613da2565b9150600101612464565b5062989680811461268e5760405162461bcd60e51b815260206004820152600f60248201526e496e76616c6964205265776172647360881b60448201526064016109a3565b5080156126d4575f805461ff0019169055604051600181527f7f26b83ff96e1f2b6a682f133852f6798a09c465da95921460cefb38474024989060200160405180910390a15b50505050505050505050565b6126ea813361338b565b50565b60335460ff16156127335760405162461bcd60e51b815260206004820152601060248201526f14185d5cd8589b194e881c185d5cd95960821b60448201526064016109a3565b565b61273f8282611e90565b610c75575f8281526097602090815260408083206001600160a01b03851684529091529020805460ff191660011790556127763390565b6001600160a01b0316816001600160a01b0316837f2f8788117e7eff1d82e926ec794901d17c78024a50270940304540a733656f0d60405160405180910390a45050565b6127c48282611e90565b15610c75575f8281526097602090815260408083206001600160a01b0385168085529252808320805460ff1916905551339285917ff6391f5c32d9c69d2a47ea670b442974b53935d1edc7fd64eb21e047a839171b9190a45050565b335f90815260d6602090815260408083205460d5909252822054111561287e57335f90815260d56020908152604080832060d690925290912054815461287e929190811061287057612870613db5565b905f5260205f2001546133e4565b6128866134c6565b50335f90815260d76020526040902054806128ed5760405162461bcd60e51b815260206004820152602160248201527f4e6f207265776172647320617661696c61626c6520666f7220636c61696d696e6044820152606760f81b60648201526084016109a3565b335f90815260d7602052604081205590565b5f82815260da60205260408120805482919061291a90613dfc565b80601f016020809104026020016040519081016040528092919081815260200182805461294690613dfc565b80156129915780601f1061296857610100808354040283529160200191612991565b820191905f5260205f20905b81548152906001019060200180831161297457829003601f168201915b5050505f87815260da60205260408120600a0154939450926129b69250869150613d59565b5f86815260da60205260409020600101546129d19190613d59565b90506298968060db5f8881526020019081526020015f20600301836040516129f99190613e8f565b9081526020016040518091039020548260d985604051612a199190613e8f565b90815260200160405180910390206002015460db5f8b81526020019081526020015f2060020154612a4a9190613d8b565b612a549190613d8b565b612a5e9190613d6c565b612a689190613d6c565b9695505050505050565b60cf54821015612a945760405162461bcd60e51b81526004016109a390613f36565b5f81815260da602052604081208054612aac90613dfc565b80601f0160208091040260200160405190810160405280929190818152602001828054612ad890613dfc565b8015612b235780601f10612afa57610100808354040283529160200191612b23565b820191905f5260205f20905b815481529060010190602001808311612b0657829003601f168201915b5050505050905060d981604051612b3a9190613e8f565b9081526040519081900360200190205460ff16612b995760405162461bcd60e51b815260206004820152601a60248201527f506f6f6c2069732063757272656e746c792064697361626c656400000000000060448201526064016109a3565b5f82815260da602052604090206002015460ff1615612bbf57612bba6134c6565b612bc8565b612bc8826133e4565b5f612bd38483611f2a565b60ca546040516340c10f1960e01b8152336004820152602481018390529192506001600160a01b0316906340c10f19906044015f604051808303815f87803b158015612c1d575f5ffd5b505af1158015612c2f573d5f5f3e3d5ffd5b5050505f84815260da602052604081206001018054879350909190612c55908490613da2565b90915550505f83815260da602052604081206006018054839290612c7a908490613da2565b90915550505f83815260da60205260408120600a018054869290612c9f908490613da2565b909155505f9050612cae611f6e565b5f85815260da60205260409020600981015460089091018290559091508181101580612cea57505f85815260da602052604090206002015460ff165b15612dd1578560db5f8481526020019081526020015f2060040185604051612d129190613e8f565b90815260200160405180910390205f828254612d2e9190613da2565b90915550505f81815260db6020526040908190209051879160050190612d55908790613e8f565b90815260200160405180910390205f828254612d719190613da2565b90915550505f82815260db602052604090205460ff1615612dd1578560db5f8481526020019081526020015f2060030185604051612daf9190613e8f565b90815260200160405180910390205f828254612dcb9190613da2565b90915550505b505f93845260da60209081526040808620600a810154938752600b0190915290932092909255505050565b60d982604051612e0c9190613e8f565b9081526040519081900360200190205460ff16612e7e5760405162461bcd60e51b815260206004820152602a60248201527f546865205f706f6f6c4e616d65206973206e6f7420617661696c61626c6520666044820152696f72207374616b696e6760b01b60648201526084016109a3565b60cc8054905f612e8d83613de4565b91905055505f60d983604051612ea39190613e8f565b90815260200160405180910390206005015482612ec09190613da2565b90505f612ecd8688613da2565b90505f612eda8286611f2a565b905085811115612f5a5760ca546001600160a01b03166340c10f1933612f008985613d59565b6040516001600160e01b031960e085901b1681526001600160a01b03909216600483015260248201526044015f604051808303815f87803b158015612f43575f5ffd5b505af1158015612f55573d5f5f3e3d5ffd5b505050505b60d985604051612f6a9190613e8f565b9081526020016040518091039020600301545f1461311757612f8b33610871565b15612fd85760405162461bcd60e51b815260206004820152601c60248201527f54696d6562617365206c6f636b20616c7265616479206578697374730000000060448201526064016109a3565b335f90815260d46020908152604080832060cc54815460018101835591855292842001919091555160d99061300e908890613e8f565b908152602001604051809103902060020154111561304d57335f90815260d560209081526040822060cc54815460018101835591845291909220909101555b87156130cd5760c9546040516323b872dd60e01b8152336004820152306024820152604481018a90526001600160a01b03909116906323b872dd906064016020604051808303815f875af11580156130a7573d5f5f3e3d5ffd5b505050506040513d601f19601f820116820180604052508101906130cb9190613dc9565b505b8160db5f8581526020019081526020015f20600501866040516130f09190613e8f565b90815260200160405180910390205f82825461310c9190613da2565b909155506132039050565b335f90815260d86020526040902054156131735760405162461bcd60e51b815260206004820152601b60248201527f466f7265766572206c6f636b20616c726561647920657869737473000000000060448201526064016109a3565b60cc54335f81815260d86020908152604080832085905593825260da9052829020600201805460ff1916600117905560c954915163079cc67960e41b81526004810191909152602481018490526001600160a01b03909116906379cc6790906044015f604051808303815f87803b1580156131ec575f5ffd5b505af11580156131fe573d5f5f3e3d5ffd5b505050505b60cc545f90815260da6020526040902061321d8682613fc5565b5060cc545f90815260da6020526040908190206001018390555160d990613245908790613e8f565b90815260408051918290036020908101832060039081015460cc80545f90815260da90945284842090920155548152204260049091015560d99061328a908790613e8f565b908152602001604051809103902060030154426132a79190613da2565b60cc80545f90815260da60209081526040808320600501949094558254825283822060060185905582548252838220600201805461ff001916610100179055825482528382206008018890559154815282812060090186905586815260db909152819020905183916004019061331e908890613e8f565b90815260200160405180910390205f82825461333a9190613da2565b909155505060cc546040513391907f0e11027f9e3d7aa31b5d23503be35faede305799d8c9ab6c5b06fe0f28589906906133799086908a90879061407f565b60405180910390a35050505050505050565b6133958282611e90565b610c75576133a281613585565b6133ad836020613597565b6040516020016133be9291906140a7565b60408051601f198184030181529082905262461bcd60e51b82526109a391600401613aa4565b801580159061340857505f81815260da602052604090206009810154600890910154105b156126ea575f5f61341a83600a610dc3565b5f86815260da60205260408120600881019390935560079092018054939550909350849290919061344c908490613da2565b9091555050335f90815260d760205260408120805484929061346f908490613da2565b90915550505f83815260da602081815260408084206008810180548652600b8201845291852086905593879052919052600990910154905403610bf657335f90815260d6602052604081208054916119e183613de4565b335f90815260d8602052604090205480158015906134f5575060cd545f82815260da6020526040902060080154105b156126ea575f5f61350783600a610dc3565b5f86815260da602052604081206008810193909355600790920180549395509093508492909190613539908490613da2565b9091555050335f90815260d760205260408120805484929061355c908490613da2565b90915550505f83815260da6020908152604080832060088101548452600b019091529020555050565b60606107816001600160a01b03831660145b60605f6135a5836002613d8b565b6135b0906002613da2565b6001600160401b038111156135c7576135c761396f565b6040519080825280601f01601f1916602001820160405280156135f1576020820181803683370190505b509050600360fc1b815f8151811061360b5761360b613db5565b60200101906001600160f81b03191690815f1a905350600f60fb1b8160018151811061363957613639613db5565b60200101906001600160f81b03191690815f1a9053505f61365b846002613d8b565b613666906001613da2565b90505b60018111156136dd576f181899199a1a9b1b9c1cb0b131b232b360811b85600f166010811061369a5761369a613db5565b1a60f81b8282815181106136b0576136b0613db5565b60200101906001600160f81b03191690815f1a90535060049490941c936136d6816140fc565b9050613669565b508315611f675760405162461bcd60e51b815260206004820181905260248201527f537472696e67733a20686578206c656e67746820696e73756666696369656e7460448201526064016109a3565b828054828255905f5260205f20908101928215613770579160200282015b8281111561377057825182906137609082613fc5565b509160200191906001019061374a565b5061377c929150613780565b5090565b8082111561377c575f613793828261379c565b50600101613780565b5080546137a890613dfc565b5f825580601f106137b7575050565b601f0160209004905f5260205f20908101906126ea91905b8082111561377c575f81556001016137cf565b80356001600160a01b03811681146137f8575f5ffd5b919050565b5f6020828403121561380d575f5ffd5b611f67826137e2565b5f60208284031215613826575f5ffd5b81356001600160e01b031981168114611f67575f5ffd5b5f6020828403121561384d575f5ffd5b5035919050565b5f5f60408385031215613865575f5ffd5b50508035926020909101359150565b5f5f60408385031215613885575f5ffd5b82359150613895602084016137e2565b90509250929050565b5f81518084528060208401602086015e5f602082860101526020601f19601f83011685010191505092915050565b61018081525f6138e061018083018f61389e565b602083019d909d525099151560408b015297151560608a0152608089019690965260a088019490945260c087019290925260e086015261010085015261012084015261014083015261016090910152919050565b80151581146126ea575f5ffd5b5f5f60408385031215613952575f5ffd5b82359150602083013561396481613934565b809150509250929050565b634e487b7160e01b5f52604160045260245ffd5b604051601f8201601f191681016001600160401b03811182821017156139ab576139ab61396f565b604052919050565b5f82601f8301126139c2575f5ffd5b81356001600160401b038111156139db576139db61396f565b6139ee601f8201601f1916602001613983565b818152846020838601011115613a02575f5ffd5b816020850160208301375f918101602001919091529392505050565b5f5f60408385031215613a2f575f5ffd5b82356001600160401b03811115613a44575f5ffd5b613a50858286016139b3565b925050602083013561396481613934565b5f5f60408385031215613a72575f5ffd5b8235915060208301356001600160401b03811115613a8e575f5ffd5b613a9a858286016139b3565b9150509250929050565b602081525f611f67602083018461389e565b5f5f60408385031215613ac7575f5ffd5b613ad0836137e2565b946020939093013593505050565b5f60208284031215613aee575f5ffd5b8135611f6781613934565b5f60208284031215613b09575f5ffd5b81356001600160401b03811115613b1e575f5ffd5b610869848285016139b3565b5f6001600160401b03821115613b4257613b4261396f565b5060051b60200190565b5f82601f830112613b5b575f5ffd5b8135613b6e613b6982613b2a565b613983565b8082825260208201915060208360051b860101925085831115613b8f575f5ffd5b602085015b83811015613bcf5780356001600160401b03811115613bb1575f5ffd5b613bc0886020838a01016139b3565b84525060209283019201613b94565b5095945050505050565b5f82601f830112613be8575f5ffd5b8135613bf6613b6982613b2a565b8082825260208201915060208360051b860101925085831115613c17575f5ffd5b602085015b83811015613bcf578035835260209283019201613c1c565b5f5f5f5f5f5f5f5f5f6101208a8c031215613c4d575f5ffd5b613c568a6137e2565b9850613c6460208b016137e2565b975060408a0135965060608a0135955060808a01356001600160401b03811115613c8c575f5ffd5b613c988c828d01613b4c565b95505060a08a01356001600160401b03811115613cb3575f5ffd5b613cbf8c828d01613bd9565b94505060c08a01356001600160401b03811115613cda575f5ffd5b613ce68c828d01613bd9565b93505060e08a01356001600160401b03811115613d01575f5ffd5b613d0d8c828d01613bd9565b9250506101008a01356001600160401b03811115613d29575f5ffd5b613d358c828d01613bd9565b9150509295985092959850929598565b634e487b7160e01b5f52601160045260245ffd5b8181038181111561078157610781613d45565b5f82613d8657634e487b7160e01b5f52601260045260245ffd5b500490565b808202811582820484141761078157610781613d45565b8082018082111561078157610781613d45565b634e487b7160e01b5f52603260045260245ffd5b5f60208284031215613dd9575f5ffd5b8151611f6781613934565b5f60018201613df557613df5613d45565b5060010190565b600181811c90821680613e1057607f821691505b60208210810361092f57634e487b7160e01b5f52602260045260245ffd5b6020808252602a908201527f4e6f2061637469766520666f7265766572206c6f636b2065786973747320666f60408201526939103a3432903ab9b2b960b11b606082015260800190565b5f81518060208401855e5f93019283525090919050565b5f611f678284613e78565b5f5f8354613ea781613dfc565b600182168015613ebe5760018114613ed357613f00565b60ff1983168652811515820286019350613f00565b865f5260205f205f5b83811015613ef857815488820152600190910190602001613edc565b505081860193505b509195945050505050565b5f60208284031215613f1b575f5ffd5b5051919050565b634e487b7160e01b5f52603160045260245ffd5b60208082526024908201527f416d6f756e742069732062656c6f7720746865206d696e696d756d20726571756040820152631a5c995960e21b606082015260800190565b601f821115610bf657805f5260205f20601f840160051c81016020851015613f9f5750805b601f840160051c820191505b81811015613fbe575f8155600101613fab565b5050505050565b81516001600160401b03811115613fde57613fde61396f565b613ff281613fec8454613dfc565b84613f7a565b6020601f821160018114614024575f831561400d5750848201515b5f19600385901b1c1916600184901b178455613fbe565b5f84815260208120601f198516915b828110156140535787850151825560209485019460019092019101614033565b508482101561407057868401515f19600387901b60f8161c191681555b50505050600190811b01905550565b838152606060208201525f614097606083018561389e565b9050826040830152949350505050565b7f416363657373436f6e74726f6c3a206163636f756e742000000000000000000081525f6140d86017830185613e78565b7001034b99036b4b9b9b4b733903937b6329607d1b81526113b46011820185613e78565b5f8161410a5761410a613d45565b505f19019056fea49807205ce4d355092ef5a8a18f56e8913cf4a201fbe287825b095693c21775a26469706673582212207bebb05e8b40aca8283ec0b6de1674b4c044e5d6517e3370e35f6fcd1defe0fa64736f6c634300081e0033",
			"opcodes": "PUSH1 0x80 PUSH1 0x40 MSTORE CALLVALUE DUP1 ISZERO PUSH1 0xE JUMPI PUSH0 PUSH0 REVERT JUMPDEST POP PUSH2 0x4167 DUP1 PUSH2 0x1C PUSH0 CODECOPY PUSH0 RETURN INVALID PUSH1 0x80 PUSH1 0x40 MSTORE CALLVALUE DUP1 ISZERO PUSH2 0xF JUMPI PUSH0 PUSH0 REVERT JUMPDEST POP PUSH1 0x4 CALLDATASIZE LT PUSH2 0x2B0 JUMPI PUSH0 CALLDATALOAD PUSH1 0xE0 SHR DUP1 PUSH4 0x744F90A7 GT PUSH2 0x17B JUMPI DUP1 PUSH4 0xC86A0D16 GT PUSH2 0xE4 JUMPI DUP1 PUSH4 0xDF3100D4 GT PUSH2 0x9E JUMPI DUP1 PUSH4 0xF327AF18 GT PUSH2 0x79 JUMPI DUP1 PUSH4 0xF327AF18 EQ PUSH2 0x6A1 JUMPI DUP1 PUSH4 0xF9F16788 EQ PUSH2 0x6B4 JUMPI DUP1 PUSH4 0xFF7CA16F EQ PUSH2 0x6BD JUMPI DUP1 PUSH4 0xFFF9E917 EQ PUSH2 0x73E JUMPI PUSH0 PUSH0 REVERT JUMPDEST DUP1 PUSH4 0xDF3100D4 EQ PUSH2 0x67C JUMPI DUP1 PUSH4 0xE27C8AD5 EQ PUSH2 0x685 JUMPI DUP1 PUSH4 0xE7E4E1F7 EQ PUSH2 0x68E JUMPI PUSH0 PUSH0 REVERT JUMPDEST DUP1 PUSH4 0xC86A0D16 EQ PUSH2 0x5FC JUMPI DUP1 PUSH4 0xD3F52D00 EQ PUSH2 0x60F JUMPI DUP1 PUSH4 0xD547741F EQ PUSH2 0x622 JUMPI DUP1 PUSH4 0xDBA3A27D EQ PUSH2 0x635 JUMPI DUP1 PUSH4 0xDBF76835 EQ PUSH2 0x63E JUMPI DUP1 PUSH4 0xDE2CA1EE EQ PUSH2 0x65D JUMPI PUSH0 PUSH0 REVERT JUMPDEST DUP1 PUSH4 0xB0D2D011 GT PUSH2 0x135 JUMPI DUP1 PUSH4 0xB0D2D011 EQ PUSH2 0x5A9 JUMPI DUP1 PUSH4 0xB397E572 EQ PUSH2 0x5B2 JUMPI DUP1 PUSH4 0xB6334AEE EQ PUSH2 0x5C5 JUMPI DUP1 PUSH4 0xBBBEFF8C EQ PUSH2 0x5CE JUMPI DUP1 PUSH4 0xC38474C0 EQ PUSH2 0x5E1 JUMPI DUP1 PUSH4 0xC517841C EQ PUSH2 0x5E9 JUMPI PUSH0 PUSH0 REVERT JUMPDEST DUP1 PUSH4 0x744F90A7 EQ PUSH2 0x511 JUMPI DUP1 PUSH4 0x78E97925 EQ PUSH2 0x524 JUMPI DUP1 PUSH4 0x81A00F83 EQ PUSH2 0x52D JUMPI DUP1 PUSH4 0x91D14854 EQ PUSH2 0x57C JUMPI DUP1 PUSH4 0xA217FDDF EQ PUSH2 0x58F JUMPI DUP1 PUSH4 0xABD8A033 EQ PUSH2 0x596 JUMPI PUSH0 PUSH0 REVERT JUMPDEST DUP1 PUSH4 0x372500AB GT PUSH2 0x21D JUMPI DUP1 PUSH4 0x5BAE5E54 GT PUSH2 0x1D7 JUMPI DUP1 PUSH4 0x5BAE5E54 EQ PUSH2 0x46E JUMPI DUP1 PUSH4 0x5C5C0D60 EQ PUSH2 0x4B8 JUMPI DUP1 PUSH4 0x5C975ABB EQ PUSH2 0x4CB JUMPI DUP1 PUSH4 0x5D1DCCB1 EQ PUSH2 0x4D6 JUMPI DUP1 PUSH4 0x720B3AD3 EQ PUSH2 0x4DE JUMPI DUP1 PUSH4 0x73DFCCCA EQ PUSH2 0x4F1 JUMPI PUSH0 PUSH0 REVERT JUMPDEST DUP1 PUSH4 0x372500AB EQ PUSH2 0x3D4 JUMPI DUP1 PUSH4 0x43CDAB57 EQ PUSH2 0x3DC JUMPI DUP1 PUSH4 0x45434445 EQ PUSH2 0x3EF JUMPI DUP1 PUSH4 0x4E533572 EQ PUSH2 0x41D JUMPI DUP1 PUSH4 0x507F1305 EQ PUSH2 0x448 JUMPI DUP1 PUSH4 0x5AB2D62F EQ PUSH2 0x45B JUMPI PUSH0 PUSH0 REVERT JUMPDEST DUP1 PUSH4 0x248A9CA3 GT PUSH2 0x26E JUMPI DUP1 PUSH4 0x248A9CA3 EQ PUSH2 0x34D JUMPI DUP1 PUSH4 0x27C1A812 EQ PUSH2 0x36F JUMPI DUP1 PUSH4 0x2B6FDC7E EQ PUSH2 0x39D JUMPI DUP1 PUSH4 0x2DEF6620 EQ PUSH2 0x3A6 JUMPI DUP1 PUSH4 0x2F2FF15D EQ PUSH2 0x3AE JUMPI DUP1 PUSH4 0x36568ABE EQ PUSH2 0x3C1 JUMPI PUSH0 PUSH0 REVERT JUMPDEST DUP1 PUSH3 0xA74BE EQ PUSH2 0x2B4 JUMPI DUP1 PUSH4 0x1FFC9A7 EQ PUSH2 0x2E6 JUMPI DUP1 PUSH4 0x2E4923C EQ PUSH2 0x309 JUMPI DUP1 PUSH4 0x1254EB93 EQ PUSH2 0x31C JUMPI DUP1 PUSH4 0x15500991 EQ PUSH2 0x325 JUMPI DUP1 PUSH4 0x1BD067C5 EQ PUSH2 0x338 JUMPI JUMPDEST PUSH0 PUSH0 REVERT JUMPDEST PUSH2 0x2D3 PUSH2 0x2C2 CALLDATASIZE PUSH1 0x4 PUSH2 0x37FD JUMP JUMPDEST PUSH1 0xD7 PUSH1 0x20 MSTORE PUSH0 SWAP1 DUP2 MSTORE PUSH1 0x40 SWAP1 KECCAK256 SLOAD DUP2 JUMP JUMPDEST PUSH1 0x40 MLOAD SWAP1 DUP2 MSTORE PUSH1 0x20 ADD JUMPDEST PUSH1 0x40 MLOAD DUP1 SWAP2 SUB SWAP1 RETURN JUMPDEST PUSH2 0x2F9 PUSH2 0x2F4 CALLDATASIZE PUSH1 0x4 PUSH2 0x3816 JUMP JUMPDEST PUSH2 0x751 JUMP JUMPDEST PUSH1 0x40 MLOAD SWAP1 ISZERO ISZERO DUP2 MSTORE PUSH1 0x20 ADD PUSH2 0x2DD JUMP JUMPDEST PUSH2 0x2D3 PUSH2 0x317 CALLDATASIZE PUSH1 0x4 PUSH2 0x37FD JUMP JUMPDEST PUSH2 0x787 JUMP JUMPDEST PUSH2 0x2D3 PUSH1 0xCC SLOAD DUP2 JUMP JUMPDEST PUSH2 0x2D3 PUSH2 0x333 CALLDATASIZE PUSH1 0x4 PUSH2 0x37FD JUMP JUMPDEST PUSH2 0x871 JUMP JUMPDEST PUSH2 0x34B PUSH2 0x346 CALLDATASIZE PUSH1 0x4 PUSH2 0x383D JUMP JUMPDEST PUSH2 0x935 JUMP JUMPDEST STOP JUMPDEST PUSH2 0x2D3 PUSH2 0x35B CALLDATASIZE PUSH1 0x4 PUSH2 0x383D JUMP JUMPDEST PUSH0 SWAP1 DUP2 MSTORE PUSH1 0x97 PUSH1 0x20 MSTORE PUSH1 0x40 SWAP1 KECCAK256 PUSH1 0x1 ADD SLOAD SWAP1 JUMP JUMPDEST PUSH2 0x2D3 PUSH2 0x37D CALLDATASIZE PUSH1 0x4 PUSH2 0x3854 JUMP JUMPDEST PUSH0 SWAP2 DUP3 MSTORE PUSH1 0xDA PUSH1 0x20 SWAP1 DUP2 MSTORE PUSH1 0x40 DUP1 DUP5 KECCAK256 SWAP3 DUP5 MSTORE PUSH1 0xB SWAP1 SWAP3 ADD SWAP1 MSTORE SWAP1 KECCAK256 SLOAD SWAP1 JUMP JUMPDEST PUSH2 0x2D3 PUSH1 0xD3 SLOAD DUP2 JUMP JUMPDEST PUSH2 0x34B PUSH2 0x9B2 JUMP JUMPDEST PUSH2 0x34B PUSH2 0x3BC CALLDATASIZE PUSH1 0x4 PUSH2 0x3874 JUMP JUMPDEST PUSH2 0xBD2 JUMP JUMPDEST PUSH2 0x34B PUSH2 0x3CF CALLDATASIZE PUSH1 0x4 PUSH2 0x3874 JUMP JUMPDEST PUSH2 0xBFB JUMP JUMPDEST PUSH2 0x34B PUSH2 0xC79 JUMP JUMPDEST PUSH2 0x34B PUSH2 0x3EA CALLDATASIZE PUSH1 0x4 PUSH2 0x383D JUMP JUMPDEST PUSH2 0xD36 JUMP JUMPDEST PUSH2 0x402 PUSH2 0x3FD CALLDATASIZE PUSH1 0x4 PUSH2 0x3854 JUMP JUMPDEST PUSH2 0xDC3 JUMP JUMPDEST PUSH1 0x40 DUP1 MLOAD SWAP4 DUP5 MSTORE PUSH1 0x20 DUP5 ADD SWAP3 SWAP1 SWAP3 MSTORE SWAP1 DUP3 ADD MSTORE PUSH1 0x60 ADD PUSH2 0x2DD JUMP JUMPDEST PUSH2 0x430 PUSH2 0x42B CALLDATASIZE PUSH1 0x4 PUSH2 0x383D JUMP JUMPDEST PUSH2 0xEE1 JUMP JUMPDEST PUSH1 0x40 MLOAD PUSH2 0x2DD SWAP13 SWAP12 SWAP11 SWAP10 SWAP9 SWAP8 SWAP7 SWAP6 SWAP5 SWAP4 SWAP3 SWAP2 SWAP1 PUSH2 0x38CC JUMP JUMPDEST PUSH2 0x34B PUSH2 0x456 CALLDATASIZE PUSH1 0x4 PUSH2 0x3941 JUMP JUMPDEST PUSH2 0xFCB JUMP JUMPDEST PUSH2 0x2D3 PUSH2 0x469 CALLDATASIZE PUSH1 0x4 PUSH2 0x37FD JUMP JUMPDEST PUSH2 0x11BA JUMP JUMPDEST PUSH2 0x4A3 PUSH2 0x47C CALLDATASIZE PUSH1 0x4 PUSH2 0x37FD JUMP JUMPDEST PUSH1 0x1 PUSH1 0x1 PUSH1 0xA0 SHL SUB AND PUSH0 SWAP1 DUP2 MSTORE PUSH1 0xD5 PUSH1 0x20 SWAP1 DUP2 MSTORE PUSH1 0x40 DUP1 DUP4 KECCAK256 SLOAD PUSH1 0xD4 SWAP1 SWAP3 MSTORE SWAP1 SWAP2 KECCAK256 SLOAD SWAP1 SWAP2 JUMP JUMPDEST PUSH1 0x40 DUP1 MLOAD SWAP3 DUP4 MSTORE PUSH1 0x20 DUP4 ADD SWAP2 SWAP1 SWAP2 MSTORE ADD PUSH2 0x2DD JUMP JUMPDEST PUSH2 0x34B PUSH2 0x4C6 CALLDATASIZE PUSH1 0x4 PUSH2 0x3A1E JUMP JUMPDEST PUSH2 0x13BD JUMP JUMPDEST PUSH1 0x33 SLOAD PUSH1 0xFF AND PUSH2 0x2F9 JUMP JUMPDEST PUSH2 0x34B PUSH2 0x14DD JUMP JUMPDEST PUSH2 0x34B PUSH2 0x4EC CALLDATASIZE PUSH1 0x4 PUSH2 0x3A61 JUMP JUMPDEST PUSH2 0x19EB JUMP JUMPDEST PUSH2 0x504 PUSH2 0x4FF CALLDATASIZE PUSH1 0x4 PUSH2 0x383D JUMP JUMPDEST PUSH2 0x1D47 JUMP JUMPDEST PUSH1 0x40 MLOAD PUSH2 0x2DD SWAP2 SWAP1 PUSH2 0x3AA4 JUMP JUMPDEST PUSH2 0x402 PUSH2 0x51F CALLDATASIZE PUSH1 0x4 PUSH2 0x3A61 JUMP JUMPDEST PUSH2 0x1DED JUMP JUMPDEST PUSH2 0x2D3 PUSH1 0xD2 SLOAD DUP2 JUMP JUMPDEST PUSH2 0x55F PUSH2 0x53B CALLDATASIZE PUSH1 0x4 PUSH2 0x383D JUMP JUMPDEST PUSH1 0xDB PUSH1 0x20 MSTORE PUSH0 SWAP1 DUP2 MSTORE PUSH1 0x40 SWAP1 KECCAK256 DUP1 SLOAD PUSH1 0x1 DUP3 ADD SLOAD PUSH1 0x2 SWAP1 SWAP3 ADD SLOAD PUSH1 0xFF SWAP1 SWAP2 AND SWAP2 SWAP1 DUP4 JUMP JUMPDEST PUSH1 0x40 DUP1 MLOAD SWAP4 ISZERO ISZERO DUP5 MSTORE PUSH1 0x20 DUP5 ADD SWAP3 SWAP1 SWAP3 MSTORE SWAP1 DUP3 ADD MSTORE PUSH1 0x60 ADD PUSH2 0x2DD JUMP JUMPDEST PUSH2 0x2F9 PUSH2 0x58A CALLDATASIZE PUSH1 0x4 PUSH2 0x3874 JUMP JUMPDEST PUSH2 0x1E90 JUMP JUMPDEST PUSH2 0x2D3 PUSH0 DUP2 JUMP JUMPDEST PUSH2 0x34B PUSH2 0x5A4 CALLDATASIZE PUSH1 0x4 PUSH2 0x383D JUMP JUMPDEST PUSH2 0x1EBA JUMP JUMPDEST PUSH2 0x2D3 PUSH1 0xCF SLOAD DUP2 JUMP JUMPDEST PUSH2 0x2D3 PUSH2 0x5C0 CALLDATASIZE PUSH1 0x4 PUSH2 0x3A61 JUMP JUMPDEST PUSH2 0x1F2A JUMP JUMPDEST PUSH2 0x2D3 PUSH1 0xCE SLOAD DUP2 JUMP JUMPDEST PUSH2 0x34B PUSH2 0x5DC CALLDATASIZE PUSH1 0x4 PUSH2 0x383D JUMP JUMPDEST PUSH1 0xD2 SSTORE JUMP JUMPDEST PUSH2 0x2D3 PUSH2 0x1F6E JUMP JUMPDEST PUSH2 0x2D3 PUSH2 0x5F7 CALLDATASIZE PUSH1 0x4 PUSH2 0x3AB6 JUMP JUMPDEST PUSH2 0x1F8F JUMP JUMPDEST PUSH2 0x34B PUSH2 0x60A CALLDATASIZE PUSH1 0x4 PUSH2 0x3ADE JUMP JUMPDEST PUSH2 0x1FBA JUMP JUMPDEST PUSH2 0x34B PUSH2 0x61D CALLDATASIZE PUSH1 0x4 PUSH2 0x383D JUMP JUMPDEST PUSH2 0x2130 JUMP JUMPDEST PUSH2 0x34B PUSH2 0x630 CALLDATASIZE PUSH1 0x4 PUSH2 0x3874 JUMP JUMPDEST PUSH2 0x214D JUMP JUMPDEST PUSH2 0x34B PUSH0 PUSH1 0xCD SSTORE JUMP JUMPDEST PUSH2 0x2D3 PUSH2 0x64C CALLDATASIZE PUSH1 0x4 PUSH2 0x37FD JUMP JUMPDEST PUSH1 0xD6 PUSH1 0x20 MSTORE PUSH0 SWAP1 DUP2 MSTORE PUSH1 0x40 SWAP1 KECCAK256 SLOAD DUP2 JUMP JUMPDEST PUSH2 0x2D3 PUSH2 0x66B CALLDATASIZE PUSH1 0x4 PUSH2 0x37FD JUMP JUMPDEST PUSH1 0xD8 PUSH1 0x20 MSTORE PUSH0 SWAP1 DUP2 MSTORE PUSH1 0x40 SWAP1 KECCAK256 SLOAD DUP2 JUMP JUMPDEST PUSH2 0x2D3 PUSH1 0xD1 SLOAD DUP2 JUMP JUMPDEST PUSH2 0x2D3 PUSH1 0xD0 SLOAD DUP2 JUMP JUMPDEST PUSH2 0x34B PUSH2 0x69C CALLDATASIZE PUSH1 0x4 PUSH2 0x3A61 JUMP JUMPDEST PUSH2 0x2171 JUMP JUMPDEST PUSH2 0x2D3 PUSH2 0x6AF CALLDATASIZE PUSH1 0x4 PUSH2 0x3AB6 JUMP JUMPDEST PUSH2 0x21AF JUMP JUMPDEST PUSH2 0x2D3 PUSH1 0xCD SLOAD DUP2 JUMP JUMPDEST PUSH2 0x70F PUSH2 0x6CB CALLDATASIZE PUSH1 0x4 PUSH2 0x3AF9 JUMP JUMPDEST DUP1 MLOAD PUSH1 0x20 DUP2 DUP4 ADD DUP2 ADD DUP1 MLOAD PUSH1 0xD9 DUP3 MSTORE SWAP3 DUP3 ADD SWAP2 SWAP1 SWAP4 ADD KECCAK256 SWAP2 MSTORE DUP1 SLOAD PUSH1 0x1 DUP3 ADD SLOAD PUSH1 0x2 DUP4 ADD SLOAD PUSH1 0x3 DUP5 ADD SLOAD PUSH1 0x4 DUP6 ADD SLOAD PUSH1 0x5 SWAP1 SWAP6 ADD SLOAD PUSH1 0xFF SWAP1 SWAP5 AND SWAP5 SWAP3 SWAP4 SWAP2 SWAP3 SWAP1 SWAP2 DUP7 JUMP JUMPDEST PUSH1 0x40 DUP1 MLOAD SWAP7 ISZERO ISZERO DUP8 MSTORE PUSH1 0x20 DUP8 ADD SWAP6 SWAP1 SWAP6 MSTORE SWAP4 DUP6 ADD SWAP3 SWAP1 SWAP3 MSTORE PUSH1 0x60 DUP5 ADD MSTORE PUSH1 0x80 DUP4 ADD MSTORE PUSH1 0xA0 DUP3 ADD MSTORE PUSH1 0xC0 ADD PUSH2 0x2DD JUMP JUMPDEST PUSH2 0x34B PUSH2 0x74C CALLDATASIZE PUSH1 0x4 PUSH2 0x3C34 JUMP JUMPDEST PUSH2 0x21C8 JUMP JUMPDEST PUSH0 PUSH1 0x1 PUSH1 0x1 PUSH1 0xE0 SHL SUB NOT DUP3 AND PUSH4 0x7965DB0B PUSH1 0xE0 SHL EQ DUP1 PUSH2 0x781 JUMPI POP PUSH4 0x1FFC9A7 PUSH1 0xE0 SHL PUSH1 0x1 PUSH1 0x1 PUSH1 0xE0 SHL SUB NOT DUP4 AND EQ JUMPDEST SWAP3 SWAP2 POP POP JUMP JUMPDEST PUSH0 PUSH0 PUSH2 0x792 DUP4 PUSH2 0x871 JUMP JUMPDEST PUSH0 DUP2 DUP2 MSTORE PUSH1 0xDA PUSH1 0x20 MSTORE PUSH1 0x40 SWAP1 KECCAK256 PUSH1 0x6 DUP2 ADD SLOAD PUSH1 0x4 SWAP1 SWAP2 ADD SLOAD SWAP2 SWAP3 POP SWAP1 ISZERO PUSH2 0x837 JUMPI PUSH1 0xCE SLOAD PUSH0 DUP4 DUP2 MSTORE PUSH1 0xDA PUSH1 0x20 MSTORE PUSH1 0x40 DUP2 KECCAK256 PUSH1 0x4 ADD SLOAD SWAP1 SWAP2 SWAP1 PUSH2 0x7D4 SWAP1 TIMESTAMP PUSH2 0x3D59 JUMP JUMPDEST PUSH2 0x7DE SWAP2 SWAP1 PUSH2 0x3D6C JUMP JUMPDEST PUSH1 0xCE SLOAD PUSH0 DUP6 DUP2 MSTORE PUSH1 0xDA PUSH1 0x20 MSTORE PUSH1 0x40 DUP2 KECCAK256 PUSH1 0x3 ADD SLOAD SWAP3 SWAP4 POP SWAP2 PUSH2 0x800 SWAP2 SWAP1 PUSH2 0x3D6C JUMP JUMPDEST SWAP1 POP DUP2 DUP2 GT ISZERO PUSH2 0x830 JUMPI DUP1 PUSH2 0x815 DUP4 DUP3 PUSH2 0x3D59 JUMP JUMPDEST PUSH2 0x81F SWAP1 DUP6 PUSH2 0x3D8B JUMP JUMPDEST PUSH2 0x829 SWAP2 SWAP1 PUSH2 0x3D6C JUMP JUMPDEST SWAP3 POP PUSH2 0x834 JUMP JUMPDEST PUSH0 SWAP3 POP JUMPDEST POP POP JUMPDEST PUSH1 0x1 PUSH1 0x1 PUSH1 0xA0 SHL SUB DUP5 AND PUSH0 SWAP1 DUP2 MSTORE PUSH1 0xD8 PUSH1 0x20 SWAP1 DUP2 MSTORE PUSH1 0x40 DUP1 DUP4 KECCAK256 SLOAD DUP4 MSTORE PUSH1 0xDA SWAP1 SWAP2 MSTORE SWAP1 KECCAK256 PUSH1 0x6 ADD SLOAD PUSH2 0x869 SWAP1 DUP3 PUSH2 0x3DA2 JUMP JUMPDEST SWAP5 SWAP4 POP POP POP POP JUMP JUMPDEST PUSH1 0x1 PUSH1 0x1 PUSH1 0xA0 SHL SUB DUP2 AND PUSH0 SWAP1 DUP2 MSTORE PUSH1 0xD4 PUSH1 0x20 MSTORE PUSH1 0x40 DUP2 KECCAK256 SLOAD DUP1 ISZERO PUSH2 0x92F JUMPI PUSH1 0x1 PUSH1 0x1 PUSH1 0xA0 SHL SUB DUP4 AND PUSH0 SWAP1 DUP2 MSTORE PUSH1 0xD4 PUSH1 0x20 MSTORE PUSH1 0x40 DUP2 KECCAK256 PUSH1 0xDA SWAP2 SWAP1 PUSH2 0x8B5 PUSH1 0x1 DUP6 PUSH2 0x3D59 JUMP JUMPDEST DUP2 SLOAD DUP2 LT PUSH2 0x8C5 JUMPI PUSH2 0x8C5 PUSH2 0x3DB5 JUMP JUMPDEST SWAP1 PUSH0 MSTORE PUSH1 0x20 PUSH0 KECCAK256 ADD SLOAD DUP2 MSTORE PUSH1 0x20 ADD SWAP1 DUP2 MSTORE PUSH1 0x20 ADD PUSH0 KECCAK256 PUSH1 0x2 ADD PUSH1 0x1 SWAP1 SLOAD SWAP1 PUSH2 0x100 EXP SWAP1 DIV PUSH1 0xFF AND ISZERO PUSH2 0x92F JUMPI PUSH1 0x1 PUSH1 0x1 PUSH1 0xA0 SHL SUB DUP4 AND PUSH0 SWAP1 DUP2 MSTORE PUSH1 0xD4 PUSH1 0x20 MSTORE PUSH1 0x40 SWAP1 KECCAK256 PUSH2 0x913 PUSH1 0x1 DUP4 PUSH2 0x3D59 JUMP JUMPDEST DUP2 SLOAD DUP2 LT PUSH2 0x923 JUMPI PUSH2 0x923 PUSH2 0x3DB5 JUMP JUMPDEST SWAP1 PUSH0 MSTORE PUSH1 0x20 PUSH0 KECCAK256 ADD SLOAD SWAP2 POP JUMPDEST POP SWAP2 SWAP1 POP JUMP JUMPDEST PUSH0 MLOAD PUSH1 0x20 PUSH2 0x4112 PUSH0 CODECOPY PUSH0 MLOAD SWAP1 PUSH0 MSTORE PUSH2 0x94C DUP2 PUSH2 0x26E0 JUMP JUMPDEST PUSH1 0x1 DUP3 LT ISZERO PUSH2 0x9AC JUMPI PUSH1 0x40 MLOAD PUSH3 0x461BCD PUSH1 0xE5 SHL DUP2 MSTORE PUSH1 0x20 PUSH1 0x4 DUP3 ADD MSTORE PUSH1 0x21 PUSH1 0x24 DUP3 ADD MSTORE PUSH32 0x4D696E696D756D20616D6F756E74206D757374206265206174206C6561737420 PUSH1 0x44 DUP3 ADD MSTORE PUSH1 0x31 PUSH1 0xF8 SHL PUSH1 0x64 DUP3 ADD MSTORE PUSH1 0x84 ADD JUMPDEST PUSH1 0x40 MLOAD DUP1 SWAP2 SUB SWAP1 REVERT JUMPDEST POP PUSH1 0xCF SSTORE JUMP JUMPDEST PUSH2 0x9BA PUSH2 0x26ED JUMP JUMPDEST PUSH0 PUSH2 0x9C4 CALLER PUSH2 0x871 JUMP JUMPDEST SWAP1 POP DUP1 PUSH0 SUB PUSH2 0xA0C JUMPI PUSH1 0x40 MLOAD PUSH3 0x461BCD PUSH1 0xE5 SHL DUP2 MSTORE PUSH1 0x20 PUSH1 0x4 DUP3 ADD MSTORE PUSH1 0x14 PUSH1 0x24 DUP3 ADD MSTORE PUSH20 0x139BC81858DD1A5D99481B1BD8DAC8199BDD5B99 PUSH1 0x62 SHL PUSH1 0x44 DUP3 ADD MSTORE PUSH1 0x64 ADD PUSH2 0x9A3 JUMP JUMPDEST PUSH0 DUP2 DUP2 MSTORE PUSH1 0xDA PUSH1 0x20 MSTORE PUSH1 0x40 SWAP1 KECCAK256 PUSH1 0x5 ADD SLOAD TIMESTAMP GT PUSH2 0xA7B JUMPI PUSH1 0x40 MLOAD PUSH3 0x461BCD PUSH1 0xE5 SHL DUP2 MSTORE PUSH1 0x20 PUSH1 0x4 DUP3 ADD MSTORE PUSH1 0x27 PUSH1 0x24 DUP3 ADD MSTORE PUSH32 0x43616E6E6F7420756E7374616B65206265666F726520746865206C6F636B2065 PUSH1 0x44 DUP3 ADD MSTORE PUSH7 0x6E642074696D65 PUSH1 0xC8 SHL PUSH1 0x64 DUP3 ADD MSTORE PUSH1 0x84 ADD PUSH2 0x9A3 JUMP JUMPDEST PUSH1 0xC9 SLOAD PUSH0 DUP3 DUP2 MSTORE PUSH1 0xDA PUSH1 0x20 MSTORE PUSH1 0x40 SWAP1 DUP2 SWAP1 KECCAK256 PUSH1 0x1 ADD SLOAD SWAP1 MLOAD PUSH4 0xA9059CBB PUSH1 0xE0 SHL DUP2 MSTORE CALLER PUSH1 0x4 DUP3 ADD MSTORE PUSH1 0x24 DUP2 ADD SWAP2 SWAP1 SWAP2 MSTORE PUSH1 0x1 PUSH1 0x1 PUSH1 0xA0 SHL SUB SWAP1 SWAP2 AND SWAP1 PUSH4 0xA9059CBB SWAP1 PUSH1 0x44 ADD PUSH1 0x20 PUSH1 0x40 MLOAD DUP1 DUP4 SUB DUP2 PUSH0 DUP8 GAS CALL ISZERO DUP1 ISZERO PUSH2 0xADC JUMPI RETURNDATASIZE PUSH0 PUSH0 RETURNDATACOPY RETURNDATASIZE PUSH0 REVERT JUMPDEST POP POP POP POP PUSH1 0x40 MLOAD RETURNDATASIZE PUSH1 0x1F NOT PUSH1 0x1F DUP3 ADD AND DUP3 ADD DUP1 PUSH1 0x40 MSTORE POP DUP2 ADD SWAP1 PUSH2 0xB00 SWAP2 SWAP1 PUSH2 0x3DC9 JUMP JUMPDEST POP PUSH1 0xCA SLOAD PUSH0 DUP3 DUP2 MSTORE PUSH1 0xDA PUSH1 0x20 MSTORE PUSH1 0x40 SWAP1 DUP2 SWAP1 KECCAK256 PUSH1 0x6 ADD SLOAD SWAP1 MLOAD PUSH4 0x6888C67 PUSH1 0xE1 SHL DUP2 MSTORE CALLER PUSH1 0x4 DUP3 ADD MSTORE PUSH1 0x24 DUP2 ADD SWAP2 SWAP1 SWAP2 MSTORE PUSH1 0x1 PUSH1 0x1 PUSH1 0xA0 SHL SUB SWAP1 SWAP2 AND SWAP1 PUSH4 0xD1118CE SWAP1 PUSH1 0x44 ADD PUSH0 PUSH1 0x40 MLOAD DUP1 DUP4 SUB DUP2 PUSH0 DUP8 DUP1 EXTCODESIZE ISZERO DUP1 ISZERO PUSH2 0xB5D JUMPI PUSH0 PUSH0 REVERT JUMPDEST POP GAS CALL ISZERO DUP1 ISZERO PUSH2 0xB6F JUMPI RETURNDATASIZE PUSH0 PUSH0 RETURNDATACOPY RETURNDATASIZE PUSH0 REVERT JUMPDEST POP POP POP PUSH0 DUP3 DUP2 MSTORE PUSH1 0xDA PUSH1 0x20 MSTORE PUSH1 0x40 SWAP1 DUP2 SWAP1 KECCAK256 PUSH1 0x2 DUP2 ADD DUP1 SLOAD PUSH2 0xFF00 NOT AND SWAP1 SSTORE PUSH1 0x5 ADD SLOAD SWAP1 MLOAD DUP4 SWAP3 POP CALLER SWAP2 PUSH32 0x92CCF450A286A957AF52509BC1C9939D1A6A481783E142E41E2499F0BB66EBC6 SWAP2 PUSH2 0xBC7 SWAP2 DUP2 MSTORE PUSH1 0x20 ADD SWAP1 JUMP JUMPDEST PUSH1 0x40 MLOAD DUP1 SWAP2 SUB SWAP1 LOG3 POP JUMP JUMPDEST PUSH0 DUP3 DUP2 MSTORE PUSH1 0x97 PUSH1 0x20 MSTORE PUSH1 0x40 SWAP1 KECCAK256 PUSH1 0x1 ADD SLOAD PUSH2 0xBEC DUP2 PUSH2 0x26E0 JUMP JUMPDEST PUSH2 0xBF6 DUP4 DUP4 PUSH2 0x2735 JUMP JUMPDEST POP POP POP JUMP JUMPDEST PUSH1 0x1 PUSH1 0x1 PUSH1 0xA0 SHL SUB DUP2 AND CALLER EQ PUSH2 0xC6B JUMPI PUSH1 0x40 MLOAD PUSH3 0x461BCD PUSH1 0xE5 SHL DUP2 MSTORE PUSH1 0x20 PUSH1 0x4 DUP3 ADD MSTORE PUSH1 0x2F PUSH1 0x24 DUP3 ADD MSTORE PUSH32 0x416363657373436F6E74726F6C3A2063616E206F6E6C792072656E6F756E6365 PUSH1 0x44 DUP3 ADD MSTORE PUSH15 0x103937B632B9903337B91039B2B633 PUSH1 0x89 SHL PUSH1 0x64 DUP3 ADD MSTORE PUSH1 0x84 ADD PUSH2 0x9A3 JUMP JUMPDEST PUSH2 0xC75 DUP3 DUP3 PUSH2 0x27BA JUMP JUMPDEST POP POP JUMP JUMPDEST PUSH2 0xC81 PUSH2 0x26ED JUMP JUMPDEST PUSH0 PUSH2 0xC8A PUSH2 0x2820 JUMP JUMPDEST PUSH1 0xC9 SLOAD PUSH1 0x40 MLOAD PUSH4 0xA9059CBB PUSH1 0xE0 SHL DUP2 MSTORE CALLER PUSH1 0x4 DUP3 ADD MSTORE PUSH1 0x24 DUP2 ADD DUP4 SWAP1 MSTORE SWAP2 SWAP3 POP PUSH1 0x1 PUSH1 0x1 PUSH1 0xA0 SHL SUB AND SWAP1 PUSH4 0xA9059CBB SWAP1 PUSH1 0x44 ADD PUSH1 0x20 PUSH1 0x40 MLOAD DUP1 DUP4 SUB DUP2 PUSH0 DUP8 GAS CALL ISZERO DUP1 ISZERO PUSH2 0xCD9 JUMPI RETURNDATASIZE PUSH0 PUSH0 RETURNDATACOPY RETURNDATASIZE PUSH0 REVERT JUMPDEST POP POP POP POP PUSH1 0x40 MLOAD RETURNDATASIZE PUSH1 0x1F NOT PUSH1 0x1F DUP3 ADD AND DUP3 ADD DUP1 PUSH1 0x40 MSTORE POP DUP2 ADD SWAP1 PUSH2 0xCFD SWAP2 SWAP1 PUSH2 0x3DC9 JUMP JUMPDEST POP PUSH1 0x40 MLOAD DUP2 DUP2 MSTORE CALLER SWAP1 PUSH32 0xFC30CDDEA38E2BF4D6EA7D3F9ED3B6AD7F176419F4963BD81318067A4AEE73FE SWAP1 PUSH1 0x20 ADD PUSH1 0x40 MLOAD DUP1 SWAP2 SUB SWAP1 LOG2 POP JUMP JUMPDEST PUSH0 MLOAD PUSH1 0x20 PUSH2 0x4112 PUSH0 CODECOPY PUSH0 MLOAD SWAP1 PUSH0 MSTORE PUSH2 0xD4D DUP2 PUSH2 0x26E0 JUMP JUMPDEST PUSH0 DUP3 GT DUP1 ISZERO PUSH2 0xD5F JUMPI POP PUSH3 0x93A80 DUP3 GT ISZERO JUMPDEST PUSH2 0xDBD JUMPI PUSH1 0x40 MLOAD PUSH3 0x461BCD PUSH1 0xE5 SHL DUP2 MSTORE PUSH1 0x20 PUSH1 0x4 DUP3 ADD MSTORE PUSH1 0x29 PUSH1 0x24 DUP3 ADD MSTORE PUSH32 0x496E74657276616C2073686F756C642062652077697468696E20746865207661 PUSH1 0x44 DUP3 ADD MSTORE PUSH9 0x6C69642072616E6765 PUSH1 0xB8 SHL PUSH1 0x64 DUP3 ADD MSTORE PUSH1 0x84 ADD PUSH2 0x9A3 JUMP JUMPDEST POP PUSH1 0xCE SSTORE JUMP JUMPDEST PUSH0 DUP3 DUP2 MSTORE PUSH1 0xDA PUSH1 0x20 MSTORE PUSH1 0x40 DUP2 KECCAK256 PUSH1 0x1 DUP2 ADD SLOAD DUP3 SWAP2 DUP3 SWAP2 PUSH2 0xE17 JUMPI PUSH1 0x40 MLOAD PUSH3 0x461BCD PUSH1 0xE5 SHL DUP2 MSTORE PUSH1 0x20 PUSH1 0x4 DUP3 ADD MSTORE PUSH1 0xF PUSH1 0x24 DUP3 ADD MSTORE PUSH15 0x125B9D985B1A5908131BD8DAC81259 PUSH1 0x8A SHL PUSH1 0x44 DUP3 ADD MSTORE PUSH1 0x64 ADD PUSH2 0x9A3 JUMP JUMPDEST PUSH1 0x2 DUP2 ADD SLOAD PUSH0 SWAP1 PUSH1 0xFF AND PUSH2 0xE2F JUMPI DUP2 PUSH1 0x9 ADD SLOAD PUSH2 0xE33 JUMP JUMPDEST PUSH1 0xCD SLOAD JUMPDEST PUSH1 0x8 DUP4 ADD SLOAD SWAP5 POP SWAP1 POP PUSH0 PUSH2 0xE47 DUP8 DUP7 PUSH2 0x3DA2 JUMP JUMPDEST PUSH0 DUP7 DUP2 MSTORE PUSH1 0xB DUP6 ADD PUSH1 0x20 MSTORE PUSH1 0x40 SWAP1 KECCAK256 SLOAD SWAP5 POP SWAP1 POP JUMPDEST DUP5 DUP2 GT DUP1 ISZERO PUSH2 0xE6A JUMPI POP DUP5 DUP3 GT JUMPDEST ISZERO PUSH2 0xED7 JUMPI PUSH0 DUP6 DUP2 MSTORE PUSH1 0xDB PUSH1 0x20 MSTORE PUSH1 0x40 SWAP1 KECCAK256 PUSH1 0x1 ADD SLOAD ISZERO PUSH2 0xED7 JUMPI PUSH2 0xE90 DUP6 DUP10 DUP7 PUSH2 0x28FF JUMP JUMPDEST PUSH2 0xE9A SWAP1 DUP8 PUSH2 0x3DA2 JUMP JUMPDEST PUSH0 DUP7 DUP2 MSTORE PUSH1 0xB DUP6 ADD PUSH1 0x20 MSTORE PUSH1 0x40 SWAP1 KECCAK256 SLOAD SWAP1 SWAP7 POP ISZERO PUSH2 0xEC5 JUMPI PUSH0 DUP6 DUP2 MSTORE PUSH1 0xB DUP5 ADD PUSH1 0x20 MSTORE PUSH1 0x40 SWAP1 KECCAK256 SLOAD SWAP4 POP JUMPDEST DUP5 PUSH2 0xECF DUP2 PUSH2 0x3DE4 JUMP JUMPDEST SWAP6 POP POP PUSH2 0xE5C JUMP JUMPDEST POP POP POP SWAP3 POP SWAP3 POP SWAP3 JUMP JUMPDEST PUSH1 0xDA PUSH1 0x20 MSTORE PUSH0 SWAP1 DUP2 MSTORE PUSH1 0x40 SWAP1 KECCAK256 DUP1 SLOAD DUP2 SWAP1 PUSH2 0xEFB SWAP1 PUSH2 0x3DFC JUMP JUMPDEST DUP1 PUSH1 0x1F ADD PUSH1 0x20 DUP1 SWAP2 DIV MUL PUSH1 0x20 ADD PUSH1 0x40 MLOAD SWAP1 DUP2 ADD PUSH1 0x40 MSTORE DUP1 SWAP3 SWAP2 SWAP1 DUP2 DUP2 MSTORE PUSH1 0x20 ADD DUP3 DUP1 SLOAD PUSH2 0xF27 SWAP1 PUSH2 0x3DFC JUMP JUMPDEST DUP1 ISZERO PUSH2 0xF72 JUMPI DUP1 PUSH1 0x1F LT PUSH2 0xF49 JUMPI PUSH2 0x100 DUP1 DUP4 SLOAD DIV MUL DUP4 MSTORE SWAP2 PUSH1 0x20 ADD SWAP2 PUSH2 0xF72 JUMP JUMPDEST DUP3 ADD SWAP2 SWAP1 PUSH0 MSTORE PUSH1 0x20 PUSH0 KECCAK256 SWAP1 JUMPDEST DUP2 SLOAD DUP2 MSTORE SWAP1 PUSH1 0x1 ADD SWAP1 PUSH1 0x20 ADD DUP1 DUP4 GT PUSH2 0xF55 JUMPI DUP3 SWAP1 SUB PUSH1 0x1F AND DUP3 ADD SWAP2 JUMPDEST POP POP POP PUSH1 0x1 DUP5 ADD SLOAD PUSH1 0x2 DUP6 ADD SLOAD PUSH1 0x3 DUP7 ADD SLOAD PUSH1 0x4 DUP8 ADD SLOAD PUSH1 0x5 DUP9 ADD SLOAD PUSH1 0x6 DUP10 ADD SLOAD PUSH1 0x7 DUP11 ADD SLOAD PUSH1 0x8 DUP12 ADD SLOAD PUSH1 0x9 DUP13 ADD SLOAD PUSH1 0xA SWAP1 SWAP13 ADD SLOAD SWAP11 SWAP12 SWAP8 SWAP11 PUSH1 0xFF DUP1 DUP10 AND SWAP12 POP PUSH2 0x100 SWAP1 SWAP9 DIV SWAP1 SWAP8 AND SWAP9 POP SWAP5 SWAP7 SWAP4 SWAP6 SWAP3 SWAP5 SWAP2 SWAP4 SWAP1 SWAP3 DUP13 JUMP JUMPDEST PUSH2 0xFD3 PUSH2 0x26ED JUMP JUMPDEST PUSH0 DUP2 ISZERO PUSH2 0x106E JUMPI POP CALLER PUSH0 SWAP1 DUP2 MSTORE PUSH1 0xD8 PUSH1 0x20 MSTORE PUSH1 0x40 DUP2 KECCAK256 SLOAD SWAP1 DUP2 SWAP1 SUB PUSH2 0x100A JUMPI PUSH1 0x40 MLOAD PUSH3 0x461BCD PUSH1 0xE5 SHL DUP2 MSTORE PUSH1 0x4 ADD PUSH2 0x9A3 SWAP1 PUSH2 0x3E2E JUMP JUMPDEST PUSH1 0xC9 SLOAD PUSH1 0x40 MLOAD PUSH4 0x79CC679 PUSH1 0xE4 SHL DUP2 MSTORE CALLER PUSH1 0x4 DUP3 ADD MSTORE PUSH1 0x24 DUP2 ADD DUP6 SWAP1 MSTORE PUSH1 0x1 PUSH1 0x1 PUSH1 0xA0 SHL SUB SWAP1 SWAP2 AND SWAP1 PUSH4 0x79CC6790 SWAP1 PUSH1 0x44 ADD PUSH0 PUSH1 0x40 MLOAD DUP1 DUP4 SUB DUP2 PUSH0 DUP8 DUP1 EXTCODESIZE ISZERO DUP1 ISZERO PUSH2 0x1053 JUMPI PUSH0 PUSH0 REVERT JUMPDEST POP GAS CALL ISZERO DUP1 ISZERO PUSH2 0x1065 JUMPI RETURNDATASIZE PUSH0 PUSH0 RETURNDATACOPY RETURNDATASIZE PUSH0 REVERT JUMPDEST POP POP POP POP PUSH2 0x1155 JUMP JUMPDEST PUSH2 0x1077 CALLER PUSH2 0x871 JUMP JUMPDEST SWAP1 POP DUP1 ISZERO DUP1 ISZERO SWAP1 PUSH2 0x1097 JUMPI POP PUSH0 DUP2 DUP2 MSTORE PUSH1 0xDA PUSH1 0x20 MSTORE PUSH1 0x40 SWAP1 KECCAK256 PUSH1 0x5 ADD SLOAD TIMESTAMP LT JUMPDEST PUSH2 0x10DB JUMPI PUSH1 0x40 MLOAD PUSH3 0x461BCD PUSH1 0xE5 SHL DUP2 MSTORE PUSH1 0x20 PUSH1 0x4 DUP3 ADD MSTORE PUSH1 0x15 PUSH1 0x24 DUP3 ADD MSTORE PUSH21 0x4E6F20416374697665206C6F636B20657869737473 PUSH1 0x58 SHL PUSH1 0x44 DUP3 ADD MSTORE PUSH1 0x64 ADD PUSH2 0x9A3 JUMP JUMPDEST PUSH1 0xC9 SLOAD PUSH1 0x40 MLOAD PUSH4 0x23B872DD PUSH1 0xE0 SHL DUP2 MSTORE CALLER PUSH1 0x4 DUP3 ADD MSTORE ADDRESS PUSH1 0x24 DUP3 ADD MSTORE PUSH1 0x44 DUP2 ADD DUP6 SWAP1 MSTORE PUSH1 0x1 PUSH1 0x1 PUSH1 0xA0 SHL SUB SWAP1 SWAP2 AND SWAP1 PUSH4 0x23B872DD SWAP1 PUSH1 0x64 ADD PUSH1 0x20 PUSH1 0x40 MLOAD DUP1 DUP4 SUB DUP2 PUSH0 DUP8 GAS CALL ISZERO DUP1 ISZERO PUSH2 0x112F JUMPI RETURNDATASIZE PUSH0 PUSH0 RETURNDATACOPY RETURNDATASIZE PUSH0 REVERT JUMPDEST POP POP POP POP PUSH1 0x40 MLOAD RETURNDATASIZE PUSH1 0x1F NOT PUSH1 0x1F DUP3 ADD AND DUP3 ADD DUP1 PUSH1 0x40 MSTORE POP DUP2 ADD SWAP1 PUSH2 0x1153 SWAP2 SWAP1 PUSH2 0x3DC9 JUMP JUMPDEST POP JUMPDEST PUSH2 0x115F DUP4 DUP3 PUSH2 0x2A72 JUMP JUMPDEST PUSH0 DUP2 DUP2 MSTORE PUSH1 0xDA PUSH1 0x20 SWAP1 DUP2 MSTORE PUSH1 0x40 SWAP2 DUP3 SWAP1 KECCAK256 PUSH1 0x1 DUP2 ADD SLOAD PUSH1 0x6 SWAP1 SWAP2 ADD SLOAD DUP4 MLOAD SWAP2 DUP3 MSTORE SWAP2 DUP2 ADD SWAP2 SWAP1 SWAP2 MSTORE DUP3 SWAP2 PUSH32 0x7975828CB9027121837D9D3A5EDA3D9BF35A6582D2EC4684B110AE0B553BB4F6 SWAP2 ADD JUMPDEST PUSH1 0x40 MLOAD DUP1 SWAP2 SUB SWAP1 LOG2 POP POP POP JUMP JUMPDEST PUSH1 0x1 PUSH1 0x1 PUSH1 0xA0 SHL SUB DUP2 AND PUSH0 SWAP1 DUP2 MSTORE PUSH1 0xD6 PUSH1 0x20 MSTORE PUSH1 0x40 DUP2 KECCAK256 SLOAD DUP2 SWAP1 DUP2 SWAP1 JUMPDEST PUSH1 0x1 PUSH1 0x1 PUSH1 0xA0 SHL SUB DUP6 AND PUSH0 SWAP1 DUP2 MSTORE PUSH1 0xD5 PUSH1 0x20 MSTORE PUSH1 0x40 SWAP1 KECCAK256 SLOAD DUP2 LT ISZERO PUSH2 0x12F4 JUMPI PUSH1 0x1 PUSH1 0x1 PUSH1 0xA0 SHL SUB DUP6 AND PUSH0 SWAP1 DUP2 MSTORE PUSH1 0xD5 PUSH1 0x20 MSTORE PUSH1 0x40 DUP2 KECCAK256 DUP1 SLOAD PUSH2 0x12D9 SWAP2 SWAP1 DUP5 SWAP1 DUP2 LT PUSH2 0x1224 JUMPI PUSH2 0x1224 PUSH2 0x3DB5 JUMP JUMPDEST SWAP1 PUSH0 MSTORE PUSH1 0x20 PUSH0 KECCAK256 ADD SLOAD PUSH1 0xDA PUSH0 PUSH1 0xD5 PUSH0 DUP12 PUSH1 0x1 PUSH1 0x1 PUSH1 0xA0 SHL SUB AND PUSH1 0x1 PUSH1 0x1 PUSH1 0xA0 SHL SUB AND DUP2 MSTORE PUSH1 0x20 ADD SWAP1 DUP2 MSTORE PUSH1 0x20 ADD PUSH0 KECCAK256 DUP7 DUP2 SLOAD DUP2 LT PUSH2 0x1264 JUMPI PUSH2 0x1264 PUSH2 0x3DB5 JUMP JUMPDEST SWAP1 PUSH0 MSTORE PUSH1 0x20 PUSH0 KECCAK256 ADD SLOAD DUP2 MSTORE PUSH1 0x20 ADD SWAP1 DUP2 MSTORE PUSH1 0x20 ADD PUSH0 KECCAK256 PUSH1 0x8 ADD SLOAD PUSH1 0xDA PUSH0 PUSH1 0xD5 PUSH0 DUP13 PUSH1 0x1 PUSH1 0x1 PUSH1 0xA0 SHL SUB AND PUSH1 0x1 PUSH1 0x1 PUSH1 0xA0 SHL SUB AND DUP2 MSTORE PUSH1 0x20 ADD SWAP1 DUP2 MSTORE PUSH1 0x20 ADD PUSH0 KECCAK256 DUP8 DUP2 SLOAD DUP2 LT PUSH2 0x12B5 JUMPI PUSH2 0x12B5 PUSH2 0x3DB5 JUMP JUMPDEST SWAP1 PUSH0 MSTORE PUSH1 0x20 PUSH0 KECCAK256 ADD SLOAD DUP2 MSTORE PUSH1 0x20 ADD SWAP1 DUP2 MSTORE PUSH1 0x20 ADD PUSH0 KECCAK256 PUSH1 0x9 ADD SLOAD PUSH2 0x3FD SWAP2 SWAP1 PUSH2 0x3D59 JUMP JUMPDEST POP POP SWAP1 POP DUP1 DUP5 PUSH2 0x12E9 SWAP2 SWAP1 PUSH2 0x3DA2 JUMP JUMPDEST SWAP4 POP POP PUSH1 0x1 ADD PUSH2 0x11D7 JUMP JUMPDEST PUSH1 0x1 PUSH1 0x1 PUSH1 0xA0 SHL SUB DUP6 AND PUSH0 SWAP1 DUP2 MSTORE PUSH1 0xD8 PUSH1 0x20 MSTORE PUSH1 0x40 SWAP1 KECCAK256 SLOAD ISZERO DUP1 ISZERO SWAP1 PUSH2 0x1342 JUMPI POP PUSH1 0x1 PUSH1 0x1 PUSH1 0xA0 SHL SUB DUP6 AND PUSH0 SWAP1 DUP2 MSTORE PUSH1 0xD8 PUSH1 0x20 SWAP1 DUP2 MSTORE PUSH1 0x40 DUP1 DUP4 KECCAK256 SLOAD DUP4 MSTORE PUSH1 0xDA SWAP1 SWAP2 MSTORE SWAP1 KECCAK256 PUSH1 0x8 ADD SLOAD PUSH1 0xCD SLOAD GT JUMPDEST ISZERO PUSH2 0x1388 JUMPI PUSH1 0x1 PUSH1 0x1 PUSH1 0xA0 SHL SUB DUP6 AND PUSH0 SWAP1 DUP2 MSTORE PUSH1 0xD8 PUSH1 0x20 SWAP1 DUP2 MSTORE PUSH1 0x40 DUP1 DUP4 KECCAK256 SLOAD DUP1 DUP5 MSTORE PUSH1 0xDA SWAP1 SWAP3 MSTORE SWAP1 SWAP2 KECCAK256 PUSH1 0x8 ADD SLOAD PUSH1 0xCD SLOAD PUSH2 0x1382 SWAP3 SWAP2 PUSH2 0x3FD SWAP2 PUSH2 0x3D59 JUMP JUMPDEST POP SWAP1 SWAP3 POP POP JUMPDEST PUSH1 0x1 PUSH1 0x1 PUSH1 0xA0 SHL SUB DUP6 AND PUSH0 SWAP1 DUP2 MSTORE PUSH1 0xD7 PUSH1 0x20 MSTORE PUSH1 0x40 SWAP1 KECCAK256 SLOAD PUSH2 0x13AA DUP4 DUP6 PUSH2 0x3DA2 JUMP JUMPDEST PUSH2 0x13B4 SWAP2 SWAP1 PUSH2 0x3DA2 JUMP JUMPDEST SWAP6 SWAP5 POP POP POP POP POP JUMP JUMPDEST PUSH0 MLOAD PUSH1 0x20 PUSH2 0x4112 PUSH0 CODECOPY PUSH0 MLOAD SWAP1 PUSH0 MSTORE PUSH2 0x13D4 DUP2 PUSH2 0x26E0 JUMP JUMPDEST PUSH1 0xCB SLOAD PUSH0 SWAP1 DUP2 JUMPDEST DUP2 DUP2 LT ISZERO PUSH2 0x1461 JUMPI DUP6 PUSH1 0x40 MLOAD PUSH1 0x20 ADD PUSH2 0x13F4 SWAP2 SWAP1 PUSH2 0x3E8F JUMP JUMPDEST PUSH1 0x40 MLOAD PUSH1 0x20 DUP2 DUP4 SUB SUB DUP2 MSTORE SWAP1 PUSH1 0x40 MSTORE DUP1 MLOAD SWAP1 PUSH1 0x20 ADD KECCAK256 PUSH1 0xCB DUP3 DUP2 SLOAD DUP2 LT PUSH2 0x141D JUMPI PUSH2 0x141D PUSH2 0x3DB5 JUMP JUMPDEST SWAP1 PUSH0 MSTORE PUSH1 0x20 PUSH0 KECCAK256 ADD PUSH1 0x40 MLOAD PUSH1 0x20 ADD PUSH2 0x1435 SWAP2 SWAP1 PUSH2 0x3E9A JUMP JUMPDEST PUSH1 0x40 MLOAD PUSH1 0x20 DUP2 DUP4 SUB SUB DUP2 MSTORE SWAP1 PUSH1 0x40 MSTORE DUP1 MLOAD SWAP1 PUSH1 0x20 ADD KECCAK256 SUB PUSH2 0x1459 JUMPI PUSH1 0x1 SWAP3 POP PUSH2 0x1461 JUMP JUMPDEST PUSH1 0x1 ADD PUSH2 0x13DB JUMP JUMPDEST POP DUP2 PUSH2 0x14A5 JUMPI PUSH1 0x40 MLOAD PUSH3 0x461BCD PUSH1 0xE5 SHL DUP2 MSTORE PUSH1 0x20 PUSH1 0x4 DUP3 ADD MSTORE PUSH1 0x13 PUSH1 0x24 DUP3 ADD MSTORE PUSH19 0x141BDBDB08191BD95CC81B9BDD08195E1A5CDD PUSH1 0x6A SHL PUSH1 0x44 DUP3 ADD MSTORE PUSH1 0x64 ADD PUSH2 0x9A3 JUMP JUMPDEST DUP4 PUSH1 0xD9 DUP7 PUSH1 0x40 MLOAD PUSH2 0x14B6 SWAP2 SWAP1 PUSH2 0x3E8F JUMP JUMPDEST SWAP1 DUP2 MSTORE PUSH1 0x40 MLOAD SWAP1 DUP2 SWAP1 SUB PUSH1 0x20 ADD SWAP1 KECCAK256 DUP1 SLOAD SWAP2 ISZERO ISZERO PUSH1 0xFF NOT SWAP1 SWAP3 AND SWAP2 SWAP1 SWAP2 OR SWAP1 SSTORE POP POP POP POP POP JUMP JUMPDEST PUSH2 0x14E5 PUSH2 0x26ED JUMP JUMPDEST PUSH1 0xD1 SLOAD PUSH1 0xC9 SLOAD PUSH1 0x40 MLOAD PUSH4 0x70A08231 PUSH1 0xE0 SHL DUP2 MSTORE CALLER PUSH1 0x4 DUP3 ADD MSTORE PUSH0 SWAP3 PUSH3 0x989680 SWAP3 SWAP1 SWAP2 PUSH1 0x1 PUSH1 0x1 PUSH1 0xA0 SHL SUB SWAP1 SWAP2 AND SWAP1 PUSH4 0x70A08231 SWAP1 PUSH1 0x24 ADD PUSH1 0x20 PUSH1 0x40 MLOAD DUP1 DUP4 SUB DUP2 DUP7 GAS STATICCALL ISZERO DUP1 ISZERO PUSH2 0x1537 JUMPI RETURNDATASIZE PUSH0 PUSH0 RETURNDATACOPY RETURNDATASIZE PUSH0 REVERT JUMPDEST POP POP POP POP PUSH1 0x40 MLOAD RETURNDATASIZE PUSH1 0x1F NOT PUSH1 0x1F DUP3 ADD AND DUP3 ADD DUP1 PUSH1 0x40 MSTORE POP DUP2 ADD SWAP1 PUSH2 0x155B SWAP2 SWAP1 PUSH2 0x3F0B JUMP JUMPDEST PUSH2 0x1565 SWAP2 SWAP1 PUSH2 0x3D8B JUMP JUMPDEST PUSH2 0x156F SWAP2 SWAP1 PUSH2 0x3D6C JUMP JUMPDEST SWAP1 POP PUSH1 0xD0 SLOAD DUP2 LT ISZERO PUSH2 0x15D6 JUMPI PUSH1 0x40 MLOAD PUSH3 0x461BCD PUSH1 0xE5 SHL DUP2 MSTORE PUSH1 0x20 PUSH1 0x4 DUP3 ADD MSTORE PUSH1 0x2A PUSH1 0x24 DUP3 ADD MSTORE PUSH32 0x526577617264206D757374206265206174206C6561737420746865206D696E69 PUSH1 0x44 DUP3 ADD MSTORE PUSH10 0x1B5D5B48185B5BDD5B9D PUSH1 0xB2 SHL PUSH1 0x64 DUP3 ADD MSTORE PUSH1 0x84 ADD PUSH2 0x9A3 JUMP JUMPDEST PUSH1 0xCD SLOAD PUSH2 0x15E1 PUSH2 0x1F6E JUMP JUMPDEST DUP2 LT PUSH2 0x162F JUMPI PUSH1 0x40 MLOAD PUSH3 0x461BCD PUSH1 0xE5 SHL DUP2 MSTORE PUSH1 0x20 PUSH1 0x4 DUP3 ADD MSTORE PUSH1 0x1A PUSH1 0x24 DUP3 ADD MSTORE PUSH32 0x43616E6E6F742070726F63657373206265666F72652074696D65000000000000 PUSH1 0x44 DUP3 ADD MSTORE PUSH1 0x64 ADD PUSH2 0x9A3 JUMP JUMPDEST PUSH1 0xC9 SLOAD PUSH1 0x40 MLOAD PUSH4 0x23B872DD PUSH1 0xE0 SHL DUP2 MSTORE CALLER PUSH1 0x4 DUP3 ADD MSTORE ADDRESS PUSH1 0x24 DUP3 ADD MSTORE PUSH1 0x44 DUP2 ADD DUP5 SWAP1 MSTORE PUSH1 0x1 PUSH1 0x1 PUSH1 0xA0 SHL SUB SWAP1 SWAP2 AND SWAP1 PUSH4 0x23B872DD SWAP1 PUSH1 0x64 ADD PUSH1 0x20 PUSH1 0x40 MLOAD DUP1 DUP4 SUB DUP2 PUSH0 DUP8 GAS CALL ISZERO DUP1 ISZERO PUSH2 0x1683 JUMPI RETURNDATASIZE PUSH0 PUSH0 RETURNDATACOPY RETURNDATASIZE PUSH0 REVERT JUMPDEST POP POP POP POP PUSH1 0x40 MLOAD RETURNDATASIZE PUSH1 0x1F NOT PUSH1 0x1F DUP3 ADD AND DUP3 ADD DUP1 PUSH1 0x40 MSTORE POP DUP2 ADD SWAP1 PUSH2 0x16A7 SWAP2 SWAP1 PUSH2 0x3DC9 JUMP JUMPDEST POP PUSH1 0xD3 SLOAD PUSH2 0x16B5 DUP2 DUP5 PUSH2 0x3DA2 JUMP JUMPDEST PUSH0 DUP4 DUP2 MSTORE PUSH1 0xDB PUSH1 0x20 MSTORE PUSH1 0x40 DUP2 KECCAK256 PUSH1 0x2 ADD DUP3 SWAP1 SSTORE SWAP1 SWAP4 POP SWAP1 POP PUSH2 0x12C PUSH2 0x16DB DUP4 PUSH1 0x1 PUSH2 0x3DA2 JUMP JUMPDEST PUSH2 0x16E5 SWAP2 SWAP1 PUSH2 0x3D8B JUMP JUMPDEST PUSH1 0xD2 SLOAD PUSH2 0x16F2 SWAP2 SWAP1 PUSH2 0x3DA2 JUMP JUMPDEST PUSH0 DUP4 DUP2 MSTORE PUSH1 0xDB PUSH1 0x20 MSTORE PUSH1 0x40 DUP2 KECCAK256 PUSH1 0x1 ADD SWAP2 SWAP1 SWAP2 SSTORE JUMPDEST PUSH1 0xCB SLOAD DUP2 LT ISZERO PUSH2 0x1980 JUMPI PUSH1 0xDB PUSH0 DUP5 DUP2 MSTORE PUSH1 0x20 ADD SWAP1 DUP2 MSTORE PUSH1 0x20 ADD PUSH0 KECCAK256 PUSH1 0x4 ADD PUSH1 0xCB DUP3 DUP2 SLOAD DUP2 LT PUSH2 0x1738 JUMPI PUSH2 0x1738 PUSH2 0x3DB5 JUMP JUMPDEST SWAP1 PUSH0 MSTORE PUSH1 0x20 PUSH0 KECCAK256 ADD PUSH1 0x40 MLOAD PUSH2 0x174D SWAP2 SWAP1 PUSH2 0x3E9A JUMP JUMPDEST SWAP1 DUP2 MSTORE PUSH1 0x20 ADD PUSH1 0x40 MLOAD DUP1 SWAP2 SUB SWAP1 KECCAK256 SLOAD PUSH1 0xD9 PUSH1 0xCB DUP4 DUP2 SLOAD DUP2 LT PUSH2 0x1771 JUMPI PUSH2 0x1771 PUSH2 0x3DB5 JUMP JUMPDEST SWAP1 PUSH0 MSTORE PUSH1 0x20 PUSH0 KECCAK256 ADD PUSH1 0x40 MLOAD PUSH2 0x1786 SWAP2 SWAP1 PUSH2 0x3E9A JUMP JUMPDEST SWAP1 DUP2 MSTORE PUSH1 0x20 ADD PUSH1 0x40 MLOAD DUP1 SWAP2 SUB SWAP1 KECCAK256 PUSH1 0x4 ADD PUSH0 DUP3 DUP3 SLOAD PUSH2 0x17A5 SWAP2 SWAP1 PUSH2 0x3DA2 JUMP JUMPDEST SWAP1 SWAP2 SSTORE POP POP DUP1 ISZERO PUSH2 0x184A JUMPI PUSH1 0xDB PUSH0 DUP5 DUP2 MSTORE PUSH1 0x20 ADD SWAP1 DUP2 MSTORE PUSH1 0x20 ADD PUSH0 KECCAK256 PUSH1 0x5 ADD PUSH1 0xCB DUP3 DUP2 SLOAD DUP2 LT PUSH2 0x17D7 JUMPI PUSH2 0x17D7 PUSH2 0x3DB5 JUMP JUMPDEST SWAP1 PUSH0 MSTORE PUSH1 0x20 PUSH0 KECCAK256 ADD PUSH1 0x40 MLOAD PUSH2 0x17EC SWAP2 SWAP1 PUSH2 0x3E9A JUMP JUMPDEST SWAP1 DUP2 MSTORE PUSH1 0x20 ADD PUSH1 0x40 MLOAD DUP1 SWAP2 SUB SWAP1 KECCAK256 SLOAD PUSH1 0xD9 PUSH1 0xCB DUP4 DUP2 SLOAD DUP2 LT PUSH2 0x1810 JUMPI PUSH2 0x1810 PUSH2 0x3DB5 JUMP JUMPDEST SWAP1 PUSH0 MSTORE PUSH1 0x20 PUSH0 KECCAK256 ADD PUSH1 0x40 MLOAD PUSH2 0x1825 SWAP2 SWAP1 PUSH2 0x3E9A JUMP JUMPDEST SWAP1 DUP2 MSTORE PUSH1 0x20 ADD PUSH1 0x40 MLOAD DUP1 SWAP2 SUB SWAP1 KECCAK256 PUSH1 0x4 ADD PUSH0 DUP3 DUP3 SLOAD PUSH2 0x1844 SWAP2 SWAP1 PUSH2 0x3D59 JUMP JUMPDEST SWAP1 SWAP2 SSTORE POP POP JUMPDEST PUSH1 0xD9 PUSH1 0xCB DUP3 DUP2 SLOAD DUP2 LT PUSH2 0x185F JUMPI PUSH2 0x185F PUSH2 0x3DB5 JUMP JUMPDEST SWAP1 PUSH0 MSTORE PUSH1 0x20 PUSH0 KECCAK256 ADD PUSH1 0x40 MLOAD PUSH2 0x1874 SWAP2 SWAP1 PUSH2 0x3E9A JUMP JUMPDEST SWAP1 DUP2 MSTORE PUSH1 0x20 ADD PUSH1 0x40 MLOAD DUP1 SWAP2 SUB SWAP1 KECCAK256 PUSH1 0x4 ADD SLOAD PUSH1 0xDB PUSH0 DUP6 DUP2 MSTORE PUSH1 0x20 ADD SWAP1 DUP2 MSTORE PUSH1 0x20 ADD PUSH0 KECCAK256 PUSH1 0x3 ADD PUSH1 0xCB DUP4 DUP2 SLOAD DUP2 LT PUSH2 0x18AD JUMPI PUSH2 0x18AD PUSH2 0x3DB5 JUMP JUMPDEST SWAP1 PUSH0 MSTORE PUSH1 0x20 PUSH0 KECCAK256 ADD PUSH1 0x40 MLOAD PUSH2 0x18C2 SWAP2 SWAP1 PUSH2 0x3E9A JUMP JUMPDEST SWAP1 DUP2 MSTORE PUSH1 0x20 ADD PUSH1 0x40 MLOAD DUP1 SWAP2 SUB SWAP1 KECCAK256 DUP2 SWAP1 SSTORE POP PUSH1 0xD9 PUSH1 0xCB DUP3 DUP2 SLOAD DUP2 LT PUSH2 0x18E9 JUMPI PUSH2 0x18E9 PUSH2 0x3DB5 JUMP JUMPDEST SWAP1 PUSH0 MSTORE PUSH1 0x20 PUSH0 KECCAK256 ADD PUSH1 0x40 MLOAD PUSH2 0x18FE SWAP2 SWAP1 PUSH2 0x3E9A JUMP JUMPDEST SWAP1 DUP2 MSTORE PUSH1 0x20 ADD PUSH1 0x40 MLOAD DUP1 SWAP2 SUB SWAP1 KECCAK256 PUSH1 0x4 ADD SLOAD PUSH0 SUB PUSH2 0x1978 JUMPI PUSH3 0x989680 PUSH1 0xD9 PUSH1 0xCB DUP4 DUP2 SLOAD DUP2 LT PUSH2 0x192F JUMPI PUSH2 0x192F PUSH2 0x3DB5 JUMP JUMPDEST SWAP1 PUSH0 MSTORE PUSH1 0x20 PUSH0 KECCAK256 ADD PUSH1 0x40 MLOAD PUSH2 0x1944 SWAP2 SWAP1 PUSH2 0x3E9A JUMP JUMPDEST SWAP1 DUP2 MSTORE PUSH1 0x20 ADD PUSH1 0x40 MLOAD DUP1 SWAP2 SUB SWAP1 KECCAK256 PUSH1 0x2 ADD SLOAD DUP6 PUSH2 0x1961 SWAP2 SWAP1 PUSH2 0x3D8B JUMP JUMPDEST PUSH2 0x196B SWAP2 SWAP1 PUSH2 0x3D6C JUMP JUMPDEST PUSH2 0x1975 SWAP1 DUP4 PUSH2 0x3DA2 JUMP JUMPDEST SWAP2 POP JUMPDEST PUSH1 0x1 ADD PUSH2 0x1707 JUMP JUMPDEST POP PUSH1 0xD3 DUP2 SWAP1 SSTORE PUSH1 0x40 MLOAD DUP4 DUP2 MSTORE DUP3 SWAP1 PUSH32 0x40DF43107E8B4D467127964BD3C966687C0A6A39AAEDE970755397FD09535E98 SWAP1 PUSH1 0x20 ADD PUSH1 0x40 MLOAD DUP1 SWAP2 SUB SWAP1 LOG2 PUSH0 DUP3 DUP2 MSTORE PUSH1 0xDB PUSH1 0x20 MSTORE PUSH1 0x40 DUP2 KECCAK256 DUP1 SLOAD PUSH1 0xFF NOT AND PUSH1 0x1 OR SWAP1 SSTORE PUSH1 0xCD DUP1 SLOAD SWAP2 PUSH2 0x19E1 DUP4 PUSH2 0x3DE4 JUMP JUMPDEST SWAP2 SWAP1 POP SSTORE POP POP POP POP JUMP JUMPDEST PUSH2 0x19F3 PUSH2 0x26ED JUMP JUMPDEST PUSH0 PUSH2 0x19FD CALLER PUSH2 0x871 JUMP JUMPDEST SWAP1 POP DUP1 ISZERO DUP1 ISZERO SWAP1 PUSH2 0x1A1D JUMPI POP PUSH0 DUP2 DUP2 MSTORE PUSH1 0xDA PUSH1 0x20 MSTORE PUSH1 0x40 SWAP1 KECCAK256 PUSH1 0x5 ADD SLOAD TIMESTAMP LT JUMPDEST PUSH2 0x1A60 JUMPI PUSH1 0x40 MLOAD PUSH3 0x461BCD PUSH1 0xE5 SHL DUP2 MSTORE PUSH1 0x20 PUSH1 0x4 DUP3 ADD MSTORE PUSH1 0x14 PUSH1 0x24 DUP3 ADD MSTORE PUSH20 0x139BC81858DD1A5D99481B1BD8DAC8199BDD5B99 PUSH1 0x62 SHL PUSH1 0x44 DUP3 ADD MSTORE PUSH1 0x64 ADD PUSH2 0x9A3 JUMP JUMPDEST PUSH0 DUP2 DUP2 MSTORE PUSH1 0xDA PUSH1 0x20 MSTORE PUSH1 0x40 SWAP1 DUP2 SWAP1 KECCAK256 PUSH1 0x3 ADD SLOAD SWAP1 MLOAD PUSH1 0xD9 SWAP1 PUSH2 0x1A83 SWAP1 DUP6 SWAP1 PUSH2 0x3E8F JUMP JUMPDEST SWAP1 DUP2 MSTORE PUSH1 0x20 ADD PUSH1 0x40 MLOAD DUP1 SWAP2 SUB SWAP1 KECCAK256 PUSH1 0x3 ADD SLOAD LT ISZERO PUSH2 0x1AFB JUMPI PUSH1 0x40 MLOAD PUSH3 0x461BCD PUSH1 0xE5 SHL DUP2 MSTORE PUSH1 0x20 PUSH1 0x4 DUP3 ADD MSTORE PUSH1 0x2F PUSH1 0x24 DUP3 ADD MSTORE PUSH32 0x4C6F636B206475726174696F6E2063616E6E6F74206265206C65737320746861 PUSH1 0x44 DUP3 ADD MSTORE PUSH15 0x6E206578697374696E67206C6F636B PUSH1 0x88 SHL PUSH1 0x64 DUP3 ADD MSTORE PUSH1 0x84 ADD PUSH2 0x9A3 JUMP JUMPDEST PUSH0 DUP2 DUP2 MSTORE PUSH1 0xDA PUSH1 0x20 MSTORE PUSH1 0x40 DUP2 KECCAK256 PUSH1 0x1 DUP2 ADD SLOAD DUP2 SLOAD SWAP1 SWAP3 SWAP2 SWAP1 PUSH2 0x1B1C SWAP1 PUSH2 0x3DFC JUMP JUMPDEST DUP1 PUSH1 0x1F ADD PUSH1 0x20 DUP1 SWAP2 DIV MUL PUSH1 0x20 ADD PUSH1 0x40 MLOAD SWAP1 DUP2 ADD PUSH1 0x40 MSTORE DUP1 SWAP3 SWAP2 SWAP1 DUP2 DUP2 MSTORE PUSH1 0x20 ADD DUP3 DUP1 SLOAD PUSH2 0x1B48 SWAP1 PUSH2 0x3DFC JUMP JUMPDEST DUP1 ISZERO PUSH2 0x1B93 JUMPI DUP1 PUSH1 0x1F LT PUSH2 0x1B6A JUMPI PUSH2 0x100 DUP1 DUP4 SLOAD DIV MUL DUP4 MSTORE SWAP2 PUSH1 0x20 ADD SWAP2 PUSH2 0x1B93 JUMP JUMPDEST DUP3 ADD SWAP2 SWAP1 PUSH0 MSTORE PUSH1 0x20 PUSH0 KECCAK256 SWAP1 JUMPDEST DUP2 SLOAD DUP2 MSTORE SWAP1 PUSH1 0x1 ADD SWAP1 PUSH1 0x20 ADD DUP1 DUP4 GT PUSH2 0x1B76 JUMPI DUP3 SWAP1 SUB PUSH1 0x1F AND DUP3 ADD SWAP2 JUMPDEST POP POP POP PUSH0 DUP7 DUP2 MSTORE PUSH1 0xDA PUSH1 0x20 MSTORE PUSH1 0x40 DUP2 KECCAK256 PUSH1 0x2 DUP2 ADD DUP1 SLOAD PUSH2 0xFF00 NOT AND SWAP1 SSTORE TIMESTAMP PUSH1 0x5 SWAP1 SWAP2 ADD SSTORE SWAP3 SWAP4 POP PUSH2 0x1BC6 SWAP2 POP PUSH2 0x1F6E SWAP1 POP JUMP JUMPDEST PUSH0 DUP6 DUP2 MSTORE PUSH1 0xDA PUSH1 0x20 MSTORE PUSH1 0x40 SWAP1 KECCAK256 PUSH1 0x9 ADD SLOAD SWAP1 SWAP2 POP DUP2 LT ISZERO PUSH2 0x1CF2 JUMPI PUSH0 DUP5 DUP2 MSTORE PUSH1 0xDA PUSH1 0x20 SWAP1 DUP2 MSTORE PUSH1 0x40 DUP1 DUP4 KECCAK256 PUSH1 0x9 ADD SLOAD DUP4 MSTORE PUSH1 0xDB SWAP1 SWAP2 MSTORE SWAP1 DUP2 SWAP1 KECCAK256 SWAP1 MLOAD DUP5 SWAP2 PUSH1 0x5 ADD SWAP1 PUSH2 0x1C13 SWAP1 DUP6 SWAP1 PUSH2 0x3E8F JUMP JUMPDEST SWAP1 DUP2 MSTORE PUSH1 0x20 ADD PUSH1 0x40 MLOAD DUP1 SWAP2 SUB SWAP1 KECCAK256 PUSH0 DUP3 DUP3 SLOAD PUSH2 0x1C2F SWAP2 SWAP1 PUSH2 0x3D59 JUMP JUMPDEST SWAP1 SWAP2 SSTORE POP POP PUSH0 DUP5 DUP2 MSTORE PUSH1 0xDA PUSH1 0x20 SWAP1 DUP2 MSTORE PUSH1 0x40 DUP1 DUP4 KECCAK256 PUSH1 0x9 ADD DUP5 SWAP1 SSTORE DUP4 DUP4 MSTORE PUSH1 0xDB SWAP1 SWAP2 MSTORE SWAP1 DUP2 SWAP1 KECCAK256 SWAP1 MLOAD DUP5 SWAP2 PUSH1 0x5 ADD SWAP1 PUSH2 0x1C69 SWAP1 DUP6 SWAP1 PUSH2 0x3E8F JUMP JUMPDEST SWAP1 DUP2 MSTORE PUSH1 0x20 ADD PUSH1 0x40 MLOAD DUP1 SWAP2 SUB SWAP1 KECCAK256 PUSH0 DUP3 DUP3 SLOAD PUSH2 0x1C85 SWAP2 SWAP1 PUSH2 0x3DA2 JUMP JUMPDEST SWAP1 SWAP2 SSTORE POP POP PUSH0 DUP5 DUP2 MSTORE PUSH1 0xDA PUSH1 0x20 MSTORE PUSH1 0x40 SWAP1 KECCAK256 PUSH1 0x9 DUP2 ADD SLOAD PUSH1 0x8 SWAP1 SWAP2 ADD SLOAD EQ DUP1 ISZERO PUSH2 0x1CBC JUMPI POP CALLER PUSH0 SWAP1 DUP2 MSTORE PUSH1 0xD5 PUSH1 0x20 MSTORE PUSH1 0x40 SWAP1 KECCAK256 SLOAD ISZERO ISZERO JUMPDEST ISZERO PUSH2 0x1CF2 JUMPI CALLER PUSH0 SWAP1 DUP2 MSTORE PUSH1 0xD5 PUSH1 0x20 MSTORE PUSH1 0x40 SWAP1 KECCAK256 DUP1 SLOAD DUP1 PUSH2 0x1CDE JUMPI PUSH2 0x1CDE PUSH2 0x3F22 JUMP JUMPDEST PUSH1 0x1 SWAP1 SUB DUP2 DUP2 SWAP1 PUSH0 MSTORE PUSH1 0x20 PUSH0 KECCAK256 ADD PUSH0 SWAP1 SSTORE SWAP1 SSTORE JUMPDEST PUSH0 DUP5 DUP2 MSTORE PUSH1 0xDA PUSH1 0x20 MSTORE PUSH1 0x40 SWAP1 KECCAK256 PUSH1 0x6 ADD SLOAD PUSH2 0x1D12 SWAP1 DUP8 SWAP1 DUP6 SWAP1 DUP9 DUP6 PUSH2 0x2DFC JUMP JUMPDEST PUSH1 0xCC SLOAD PUSH1 0x40 MLOAD DUP6 SWAP1 PUSH32 0x49B2ADA88C09D45D501A352DDD16F0B8BABA46034A2B243BFA8E215E2745F233 SWAP1 PUSH0 SWAP1 LOG3 POP POP POP POP POP POP JUMP JUMPDEST PUSH1 0xCB DUP2 DUP2 SLOAD DUP2 LT PUSH2 0x1D56 JUMPI PUSH0 DUP1 REVERT JUMPDEST SWAP1 PUSH0 MSTORE PUSH1 0x20 PUSH0 KECCAK256 ADD PUSH0 SWAP2 POP SWAP1 POP DUP1 SLOAD PUSH2 0x1D6E SWAP1 PUSH2 0x3DFC JUMP JUMPDEST DUP1 PUSH1 0x1F ADD PUSH1 0x20 DUP1 SWAP2 DIV MUL PUSH1 0x20 ADD PUSH1 0x40 MLOAD SWAP1 DUP2 ADD PUSH1 0x40 MSTORE DUP1 SWAP3 SWAP2 SWAP1 DUP2 DUP2 MSTORE PUSH1 0x20 ADD DUP3 DUP1 SLOAD PUSH2 0x1D9A SWAP1 PUSH2 0x3DFC JUMP JUMPDEST DUP1 ISZERO PUSH2 0x1DE5 JUMPI DUP1 PUSH1 0x1F LT PUSH2 0x1DBC JUMPI PUSH2 0x100 DUP1 DUP4 SLOAD DIV MUL DUP4 MSTORE SWAP2 PUSH1 0x20 ADD SWAP2 PUSH2 0x1DE5 JUMP JUMPDEST DUP3 ADD SWAP2 SWAP1 PUSH0 MSTORE PUSH1 0x20 PUSH0 KECCAK256 SWAP1 JUMPDEST DUP2 SLOAD DUP2 MSTORE SWAP1 PUSH1 0x1 ADD SWAP1 PUSH1 0x20 ADD DUP1 DUP4 GT PUSH2 0x1DC8 JUMPI DUP3 SWAP1 SUB PUSH1 0x1F AND DUP3 ADD SWAP2 JUMPDEST POP POP POP POP POP DUP2 JUMP JUMPDEST PUSH0 PUSH0 PUSH0 PUSH1 0xDB PUSH0 DUP7 DUP2 MSTORE PUSH1 0x20 ADD SWAP1 DUP2 MSTORE PUSH1 0x20 ADD PUSH0 KECCAK256 PUSH1 0x3 ADD DUP5 PUSH1 0x40 MLOAD PUSH2 0x1E12 SWAP2 SWAP1 PUSH2 0x3E8F JUMP JUMPDEST SWAP1 DUP2 MSTORE PUSH1 0x20 ADD PUSH1 0x40 MLOAD DUP1 SWAP2 SUB SWAP1 KECCAK256 SLOAD PUSH1 0xDB PUSH0 DUP8 DUP2 MSTORE PUSH1 0x20 ADD SWAP1 DUP2 MSTORE PUSH1 0x20 ADD PUSH0 KECCAK256 PUSH1 0x4 ADD DUP6 PUSH1 0x40 MLOAD PUSH2 0x1E43 SWAP2 SWAP1 PUSH2 0x3E8F JUMP JUMPDEST SWAP1 DUP2 MSTORE PUSH1 0x20 ADD PUSH1 0x40 MLOAD DUP1 SWAP2 SUB SWAP1 KECCAK256 SLOAD PUSH1 0xDB PUSH0 DUP9 DUP2 MSTORE PUSH1 0x20 ADD SWAP1 DUP2 MSTORE PUSH1 0x20 ADD PUSH0 KECCAK256 PUSH1 0x5 ADD DUP7 PUSH1 0x40 MLOAD PUSH2 0x1E74 SWAP2 SWAP1 PUSH2 0x3E8F JUMP JUMPDEST SWAP1 DUP2 MSTORE PUSH1 0x20 ADD PUSH1 0x40 MLOAD DUP1 SWAP2 SUB SWAP1 KECCAK256 SLOAD SWAP3 POP SWAP3 POP SWAP3 POP SWAP3 POP SWAP3 POP SWAP3 JUMP JUMPDEST PUSH0 SWAP2 DUP3 MSTORE PUSH1 0x97 PUSH1 0x20 SWAP1 DUP2 MSTORE PUSH1 0x40 DUP1 DUP5 KECCAK256 PUSH1 0x1 PUSH1 0x1 PUSH1 0xA0 SHL SUB SWAP4 SWAP1 SWAP4 AND DUP5 MSTORE SWAP2 SWAP1 MSTORE SWAP1 KECCAK256 SLOAD PUSH1 0xFF AND SWAP1 JUMP JUMPDEST PUSH0 MLOAD PUSH1 0x20 PUSH2 0x4112 PUSH0 CODECOPY PUSH0 MLOAD SWAP1 PUSH0 MSTORE PUSH2 0x1ED1 DUP2 PUSH2 0x26E0 JUMP JUMPDEST PUSH3 0x989680 DUP3 GT ISZERO PUSH2 0x1F24 JUMPI PUSH1 0x40 MLOAD PUSH3 0x461BCD PUSH1 0xE5 SHL DUP2 MSTORE PUSH1 0x20 PUSH1 0x4 DUP3 ADD MSTORE PUSH1 0x18 PUSH1 0x24 DUP3 ADD MSTORE PUSH32 0x496E76616C69642070657263656E746167652076616C75650000000000000000 PUSH1 0x44 DUP3 ADD MSTORE PUSH1 0x64 ADD PUSH2 0x9A3 JUMP JUMPDEST POP PUSH1 0xD1 SSTORE JUMP JUMPDEST PUSH0 PUSH4 0x5F5E100 PUSH1 0xD9 DUP4 PUSH1 0x40 MLOAD PUSH2 0x1F40 SWAP2 SWAP1 PUSH2 0x3E8F JUMP JUMPDEST SWAP1 DUP2 MSTORE PUSH1 0x20 ADD PUSH1 0x40 MLOAD DUP1 SWAP2 SUB SWAP1 KECCAK256 PUSH1 0x1 ADD SLOAD DUP5 PUSH2 0x1F5D SWAP2 SWAP1 PUSH2 0x3D8B JUMP JUMPDEST PUSH2 0x1F67 SWAP2 SWAP1 PUSH2 0x3D6C JUMP JUMPDEST SWAP4 SWAP3 POP POP POP JUMP JUMPDEST PUSH0 PUSH2 0x12C PUSH1 0xD2 SLOAD TIMESTAMP PUSH2 0x1F80 SWAP2 SWAP1 PUSH2 0x3D59 JUMP JUMPDEST PUSH2 0x1F8A SWAP2 SWAP1 PUSH2 0x3D6C JUMP JUMPDEST SWAP1 POP SWAP1 JUMP JUMPDEST PUSH1 0xD4 PUSH1 0x20 MSTORE DUP2 PUSH0 MSTORE PUSH1 0x40 PUSH0 KECCAK256 DUP2 DUP2 SLOAD DUP2 LT PUSH2 0x1FA8 JUMPI PUSH0 DUP1 REVERT JUMPDEST SWAP1 PUSH0 MSTORE PUSH1 0x20 PUSH0 KECCAK256 ADD PUSH0 SWAP2 POP SWAP2 POP POP SLOAD DUP2 JUMP JUMPDEST PUSH2 0x1FC2 PUSH2 0x26ED JUMP JUMPDEST PUSH0 PUSH2 0x1FCB PUSH2 0x2820 JUMP JUMPDEST SWAP1 POP PUSH0 DUP3 ISZERO PUSH2 0x2062 JUMPI POP CALLER PUSH0 SWAP1 DUP2 MSTORE PUSH1 0xD8 PUSH1 0x20 MSTORE PUSH1 0x40 DUP2 KECCAK256 SLOAD SWAP1 DUP2 SWAP1 SUB PUSH2 0x2004 JUMPI PUSH1 0x40 MLOAD PUSH3 0x461BCD PUSH1 0xE5 SHL DUP2 MSTORE PUSH1 0x4 ADD PUSH2 0x9A3 SWAP1 PUSH2 0x3E2E JUMP JUMPDEST PUSH1 0xC9 SLOAD PUSH1 0x40 MLOAD PUSH4 0x852CD8D PUSH1 0xE3 SHL DUP2 MSTORE PUSH1 0x4 DUP2 ADD DUP5 SWAP1 MSTORE PUSH1 0x1 PUSH1 0x1 PUSH1 0xA0 SHL SUB SWAP1 SWAP2 AND SWAP1 PUSH4 0x42966C68 SWAP1 PUSH1 0x24 ADD PUSH0 PUSH1 0x40 MLOAD DUP1 DUP4 SUB DUP2 PUSH0 DUP8 DUP1 EXTCODESIZE ISZERO DUP1 ISZERO PUSH2 0x2047 JUMPI PUSH0 PUSH0 REVERT JUMPDEST POP GAS CALL ISZERO DUP1 ISZERO PUSH2 0x2059 JUMPI RETURNDATASIZE PUSH0 PUSH0 RETURNDATACOPY RETURNDATASIZE PUSH0 REVERT JUMPDEST POP POP POP POP PUSH2 0x20CF JUMP JUMPDEST PUSH2 0x206B CALLER PUSH2 0x871 JUMP JUMPDEST SWAP1 POP DUP1 ISZERO DUP1 ISZERO SWAP1 PUSH2 0x208B JUMPI POP PUSH0 DUP2 DUP2 MSTORE PUSH1 0xDA PUSH1 0x20 MSTORE PUSH1 0x40 SWAP1 KECCAK256 PUSH1 0x5 ADD SLOAD TIMESTAMP LT JUMPDEST PUSH2 0x20CF JUMPI PUSH1 0x40 MLOAD PUSH3 0x461BCD PUSH1 0xE5 SHL DUP2 MSTORE PUSH1 0x20 PUSH1 0x4 DUP3 ADD MSTORE PUSH1 0x15 PUSH1 0x24 DUP3 ADD MSTORE PUSH21 0x4E6F20416374697665206C6F636B20657869737473 PUSH1 0x58 SHL PUSH1 0x44 DUP3 ADD MSTORE PUSH1 0x64 ADD PUSH2 0x9A3 JUMP JUMPDEST PUSH2 0x20D9 DUP3 DUP3 PUSH2 0x2A72 JUMP JUMPDEST PUSH0 DUP2 DUP2 MSTORE PUSH1 0xDA PUSH1 0x20 SWAP1 DUP2 MSTORE PUSH1 0x40 SWAP2 DUP3 SWAP1 KECCAK256 PUSH1 0x1 DUP2 ADD SLOAD PUSH1 0x6 SWAP1 SWAP2 ADD SLOAD DUP4 MLOAD SWAP2 DUP3 MSTORE SWAP2 DUP2 ADD DUP6 SWAP1 MSTORE SWAP2 DUP3 ADD MSTORE DUP2 SWAP1 PUSH32 0x4E2CC4951F3EEABDD9E423F93EBA5E634644FF5FC64B2E59C2486C23A305DD8E SWAP1 PUSH1 0x60 ADD PUSH2 0x11AD JUMP JUMPDEST PUSH0 MLOAD PUSH1 0x20 PUSH2 0x4112 PUSH0 CODECOPY PUSH0 MLOAD SWAP1 PUSH0 MSTORE PUSH2 0x2147 DUP2 PUSH2 0x26E0 JUMP JUMPDEST POP PUSH1 0xD0 SSTORE JUMP JUMPDEST PUSH0 DUP3 DUP2 MSTORE PUSH1 0x97 PUSH1 0x20 MSTORE PUSH1 0x40 SWAP1 KECCAK256 PUSH1 0x1 ADD SLOAD PUSH2 0x2167 DUP2 PUSH2 0x26E0 JUMP JUMPDEST PUSH2 0xBF6 DUP4 DUP4 PUSH2 0x27BA JUMP JUMPDEST PUSH2 0x2179 PUSH2 0x26ED JUMP JUMPDEST PUSH1 0xCF SLOAD DUP3 LT ISZERO PUSH2 0x219B JUMPI PUSH1 0x40 MLOAD PUSH3 0x461BCD PUSH1 0xE5 SHL DUP2 MSTORE PUSH1 0x4 ADD PUSH2 0x9A3 SWAP1 PUSH2 0x3F36 JUMP JUMPDEST PUSH2 0xC75 DUP3 PUSH0 PUSH0 DUP5 PUSH2 0x21AA PUSH2 0x1F6E JUMP JUMPDEST PUSH2 0x2DFC JUMP JUMPDEST PUSH1 0xD5 PUSH1 0x20 MSTORE DUP2 PUSH0 MSTORE PUSH1 0x40 PUSH0 KECCAK256 DUP2 DUP2 SLOAD DUP2 LT PUSH2 0x1FA8 JUMPI PUSH0 DUP1 REVERT JUMPDEST PUSH0 SLOAD PUSH2 0x100 SWAP1 DIV PUSH1 0xFF AND ISZERO DUP1 DUP1 ISZERO PUSH2 0x21E6 JUMPI POP PUSH0 SLOAD PUSH1 0x1 PUSH1 0xFF SWAP1 SWAP2 AND LT JUMPDEST DUP1 PUSH2 0x21FF JUMPI POP ADDRESS EXTCODESIZE ISZERO DUP1 ISZERO PUSH2 0x21FF JUMPI POP PUSH0 SLOAD PUSH1 0xFF AND PUSH1 0x1 EQ JUMPDEST PUSH2 0x2262 JUMPI PUSH1 0x40 MLOAD PUSH3 0x461BCD PUSH1 0xE5 SHL DUP2 MSTORE PUSH1 0x20 PUSH1 0x4 DUP3 ADD MSTORE PUSH1 0x2E PUSH1 0x24 DUP3 ADD MSTORE PUSH32 0x496E697469616C697A61626C653A20636F6E747261637420697320616C726561 PUSH1 0x44 DUP3 ADD MSTORE PUSH14 0x191E481A5B9A5D1A585B1A5E9959 PUSH1 0x92 SHL PUSH1 0x64 DUP3 ADD MSTORE PUSH1 0x84 ADD PUSH2 0x9A3 JUMP JUMPDEST PUSH0 DUP1 SLOAD PUSH1 0xFF NOT AND PUSH1 0x1 OR SWAP1 SSTORE DUP1 ISZERO PUSH2 0x2283 JUMPI PUSH0 DUP1 SLOAD PUSH2 0xFF00 NOT AND PUSH2 0x100 OR SWAP1 SSTORE JUMPDEST PUSH1 0x1 PUSH1 0x1 PUSH1 0xA0 SHL SUB DUP11 AND PUSH2 0x22D9 JUMPI PUSH1 0x40 MLOAD PUSH3 0x461BCD PUSH1 0xE5 SHL DUP2 MSTORE PUSH1 0x20 PUSH1 0x4 DUP3 ADD MSTORE PUSH1 0x1A PUSH1 0x24 DUP3 ADD MSTORE PUSH32 0x496E76616C696420414C564120746F6B656E2061646472657373000000000000 PUSH1 0x44 DUP3 ADD MSTORE PUSH1 0x64 ADD PUSH2 0x9A3 JUMP JUMPDEST PUSH1 0x1 PUSH1 0x1 PUSH1 0xA0 SHL SUB DUP10 AND PUSH2 0x232F JUMPI PUSH1 0x40 MLOAD PUSH3 0x461BCD PUSH1 0xE5 SHL DUP2 MSTORE PUSH1 0x20 PUSH1 0x4 DUP3 ADD MSTORE PUSH1 0x1C PUSH1 0x24 DUP3 ADD MSTORE PUSH32 0x496E76616C6964207665414C564120746F6B656E206164647265737300000000 PUSH1 0x44 DUP3 ADD MSTORE PUSH1 0x64 ADD PUSH2 0x9A3 JUMP JUMPDEST PUSH1 0xC9 DUP1 SLOAD PUSH1 0x1 PUSH1 0x1 PUSH1 0xA0 SHL SUB DUP1 DUP14 AND PUSH1 0x1 PUSH1 0x1 PUSH1 0xA0 SHL SUB NOT SWAP3 DUP4 AND OR SWAP1 SWAP3 SSTORE PUSH1 0xCA DUP1 SLOAD SWAP3 DUP13 AND SWAP3 SWAP1 SWAP2 AND SWAP2 SWAP1 SWAP2 OR SWAP1 SSTORE PUSH1 0xCE DUP9 SWAP1 SSTORE PUSH1 0xD2 DUP8 SWAP1 SSTORE PUSH1 0x1 PUSH1 0xCF SSTORE PUSH2 0x2710 PUSH1 0xD0 SSTORE PUSH3 0x4C4B40 PUSH1 0xD1 SSTORE PUSH2 0x2385 PUSH0 CALLER PUSH2 0x2735 JUMP JUMPDEST PUSH2 0x23AF PUSH32 0x65D7A28E3265B37A6474929F336521B332C1681B933F6CB9F3376673440D862A CALLER PUSH2 0x2735 JUMP JUMPDEST PUSH2 0x23C6 PUSH0 MLOAD PUSH1 0x20 PUSH2 0x4112 PUSH0 CODECOPY PUSH0 MLOAD SWAP1 PUSH0 MSTORE CALLER PUSH2 0x2735 JUMP JUMPDEST PUSH2 0x23F0 PUSH32 0x4C716A0EBD1CFD3E93CA0DB9B9F8A0A9CB7C1D4CC18B52950E1F5528CC73CB5D CALLER PUSH2 0x2735 JUMP JUMPDEST DUP3 PUSH0 DUP2 MLOAD DUP2 LT PUSH2 0x2402 JUMPI PUSH2 0x2402 PUSH2 0x3DB5 JUMP JUMPDEST PUSH1 0x20 MUL PUSH1 0x20 ADD ADD MLOAD PUSH0 EQ PUSH2 0x244C JUMPI PUSH1 0x40 MLOAD PUSH3 0x461BCD PUSH1 0xE5 SHL DUP2 MSTORE PUSH1 0x20 PUSH1 0x4 DUP3 ADD MSTORE PUSH1 0x11 PUSH1 0x24 DUP3 ADD MSTORE PUSH17 0x496E76616C6964204475726174696F6E73 PUSH1 0x78 SHL PUSH1 0x44 DUP3 ADD MSTORE PUSH1 0x64 ADD PUSH2 0x9A3 JUMP JUMPDEST DUP6 MLOAD PUSH0 SWAP1 PUSH2 0x2461 SWAP1 PUSH1 0xCB SWAP1 PUSH1 0x20 DUP11 ADD SWAP1 PUSH2 0x372C JUMP JUMPDEST POP PUSH0 JUMPDEST DUP8 MLOAD DUP2 LT ISZERO PUSH2 0x2649 JUMPI DUP6 DUP2 DUP2 MLOAD DUP2 LT PUSH2 0x247F JUMPI PUSH2 0x247F PUSH2 0x3DB5 JUMP JUMPDEST PUSH1 0x20 MUL PUSH1 0x20 ADD ADD MLOAD PUSH1 0xD9 DUP10 DUP4 DUP2 MLOAD DUP2 LT PUSH2 0x249B JUMPI PUSH2 0x249B PUSH2 0x3DB5 JUMP JUMPDEST PUSH1 0x20 MUL PUSH1 0x20 ADD ADD MLOAD PUSH1 0x40 MLOAD PUSH2 0x24B0 SWAP2 SWAP1 PUSH2 0x3E8F JUMP JUMPDEST SWAP1 DUP2 MSTORE PUSH1 0x20 ADD PUSH1 0x40 MLOAD DUP1 SWAP2 SUB SWAP1 KECCAK256 PUSH1 0x1 ADD DUP2 SWAP1 SSTORE POP DUP7 DUP2 DUP2 MLOAD DUP2 LT PUSH2 0x24D7 JUMPI PUSH2 0x24D7 PUSH2 0x3DB5 JUMP JUMPDEST PUSH1 0x20 MUL PUSH1 0x20 ADD ADD MLOAD PUSH1 0xD9 DUP10 DUP4 DUP2 MLOAD DUP2 LT PUSH2 0x24F3 JUMPI PUSH2 0x24F3 PUSH2 0x3DB5 JUMP JUMPDEST PUSH1 0x20 MUL PUSH1 0x20 ADD ADD MLOAD PUSH1 0x40 MLOAD PUSH2 0x2508 SWAP2 SWAP1 PUSH2 0x3E8F JUMP JUMPDEST SWAP1 DUP2 MSTORE PUSH1 0x20 ADD PUSH1 0x40 MLOAD DUP1 SWAP2 SUB SWAP1 KECCAK256 PUSH1 0x2 ADD DUP2 SWAP1 SSTORE POP DUP5 DUP2 DUP2 MLOAD DUP2 LT PUSH2 0x252F JUMPI PUSH2 0x252F PUSH2 0x3DB5 JUMP JUMPDEST PUSH1 0x20 MUL PUSH1 0x20 ADD ADD MLOAD PUSH1 0xD9 DUP10 DUP4 DUP2 MLOAD DUP2 LT PUSH2 0x254B JUMPI PUSH2 0x254B PUSH2 0x3DB5 JUMP JUMPDEST PUSH1 0x20 MUL PUSH1 0x20 ADD ADD MLOAD PUSH1 0x40 MLOAD PUSH2 0x2560 SWAP2 SWAP1 PUSH2 0x3E8F JUMP JUMPDEST SWAP1 DUP2 MSTORE PUSH1 0x20 ADD PUSH1 0x40 MLOAD DUP1 SWAP2 SUB SWAP1 KECCAK256 PUSH1 0x3 ADD DUP2 SWAP1 SSTORE POP PUSH1 0x1 PUSH1 0xD9 DUP10 DUP4 DUP2 MLOAD DUP2 LT PUSH2 0x258B JUMPI PUSH2 0x258B PUSH2 0x3DB5 JUMP JUMPDEST PUSH1 0x20 MUL PUSH1 0x20 ADD ADD MLOAD PUSH1 0x40 MLOAD PUSH2 0x25A0 SWAP2 SWAP1 PUSH2 0x3E8F JUMP JUMPDEST SWAP1 DUP2 MSTORE PUSH1 0x40 MLOAD SWAP1 DUP2 SWAP1 SUB PUSH1 0x20 ADD SWAP1 KECCAK256 DUP1 SLOAD SWAP2 ISZERO ISZERO PUSH1 0xFF NOT SWAP1 SWAP3 AND SWAP2 SWAP1 SWAP2 OR SWAP1 SSTORE DUP4 MLOAD DUP5 SWAP1 DUP3 SWAP1 DUP2 LT PUSH2 0x25D4 JUMPI PUSH2 0x25D4 PUSH2 0x3DB5 JUMP JUMPDEST PUSH1 0x20 MUL PUSH1 0x20 ADD ADD MLOAD PUSH1 0xD9 DUP10 DUP4 DUP2 MLOAD DUP2 LT PUSH2 0x25F0 JUMPI PUSH2 0x25F0 PUSH2 0x3DB5 JUMP JUMPDEST PUSH1 0x20 MUL PUSH1 0x20 ADD ADD MLOAD PUSH1 0x40 MLOAD PUSH2 0x2605 SWAP2 SWAP1 PUSH2 0x3E8F JUMP JUMPDEST SWAP1 DUP2 MSTORE PUSH1 0x20 ADD PUSH1 0x40 MLOAD DUP1 SWAP2 SUB SWAP1 KECCAK256 PUSH1 0x5 ADD DUP2 SWAP1 SSTORE POP DUP7 DUP2 DUP2 MLOAD DUP2 LT PUSH2 0x262C JUMPI PUSH2 0x262C PUSH2 0x3DB5 JUMP JUMPDEST PUSH1 0x20 MUL PUSH1 0x20 ADD ADD MLOAD DUP3 PUSH2 0x263F SWAP2 SWAP1 PUSH2 0x3DA2 JUMP JUMPDEST SWAP2 POP PUSH1 0x1 ADD PUSH2 0x2464 JUMP JUMPDEST POP PUSH3 0x989680 DUP2 EQ PUSH2 0x268E JUMPI PUSH1 0x40 MLOAD PUSH3 0x461BCD PUSH1 0xE5 SHL DUP2 MSTORE PUSH1 0x20 PUSH1 0x4 DUP3 ADD MSTORE PUSH1 0xF PUSH1 0x24 DUP3 ADD MSTORE PUSH15 0x496E76616C69642052657761726473 PUSH1 0x88 SHL PUSH1 0x44 DUP3 ADD MSTORE PUSH1 0x64 ADD PUSH2 0x9A3 JUMP JUMPDEST POP DUP1 ISZERO PUSH2 0x26D4 JUMPI PUSH0 DUP1 SLOAD PUSH2 0xFF00 NOT AND SWAP1 SSTORE PUSH1 0x40 MLOAD PUSH1 0x1 DUP2 MSTORE PUSH32 0x7F26B83FF96E1F2B6A682F133852F6798A09C465DA95921460CEFB3847402498 SWAP1 PUSH1 0x20 ADD PUSH1 0x40 MLOAD DUP1 SWAP2 SUB SWAP1 LOG1 JUMPDEST POP POP POP POP POP POP POP POP POP POP JUMP JUMPDEST PUSH2 0x26EA DUP2 CALLER PUSH2 0x338B JUMP JUMPDEST POP JUMP JUMPDEST PUSH1 0x33 SLOAD PUSH1 0xFF AND ISZERO PUSH2 0x2733 JUMPI PUSH1 0x40 MLOAD PUSH3 0x461BCD PUSH1 0xE5 SHL DUP2 MSTORE PUSH1 0x20 PUSH1 0x4 DUP3 ADD MSTORE PUSH1 0x10 PUSH1 0x24 DUP3 ADD MSTORE PUSH16 0x14185D5CD8589B194E881C185D5CD959 PUSH1 0x82 SHL PUSH1 0x44 DUP3 ADD MSTORE PUSH1 0x64 ADD PUSH2 0x9A3 JUMP JUMPDEST JUMP JUMPDEST PUSH2 0x273F DUP3 DUP3 PUSH2 0x1E90 JUMP JUMPDEST PUSH2 0xC75 JUMPI PUSH0 DUP3 DUP2 MSTORE PUSH1 0x97 PUSH1 0x20 SWAP1 DUP2 MSTORE PUSH1 0x40 DUP1 DUP4 KECCAK256 PUSH1 0x1 PUSH1 0x1 PUSH1 0xA0 SHL SUB DUP6 AND DUP5 MSTORE SWAP1 SWAP2 MSTORE SWAP1 KECCAK256 DUP1 SLOAD PUSH1 0xFF NOT AND PUSH1 0x1 OR SWAP1 SSTORE PUSH2 0x2776 CALLER SWAP1 JUMP JUMPDEST PUSH1 0x1 PUSH1 0x1 PUSH1 0xA0 SHL SUB AND DUP2 PUSH1 0x1 PUSH1 0x1 PUSH1 0xA0 SHL SUB AND DUP4 PUSH32 0x2F8788117E7EFF1D82E926EC794901D17C78024A50270940304540A733656F0D PUSH1 0x40 MLOAD PUSH1 0x40 MLOAD DUP1 SWAP2 SUB SWAP1 LOG4 POP POP JUMP JUMPDEST PUSH2 0x27C4 DUP3 DUP3 PUSH2 0x1E90 JUMP JUMPDEST ISZERO PUSH2 0xC75 JUMPI PUSH0 DUP3 DUP2 MSTORE PUSH1 0x97 PUSH1 0x20 SWAP1 DUP2 MSTORE PUSH1 0x40 DUP1 DUP4 KECCAK256 PUSH1 0x1 PUSH1 0x1 PUSH1 0xA0 SHL SUB DUP6 AND DUP1 DUP6 MSTORE SWAP3 MSTORE DUP1 DUP4 KECCAK256 DUP1 SLOAD PUSH1 0xFF NOT AND SWAP1 SSTORE MLOAD CALLER SWAP3 DUP6 SWAP2 PUSH32 0xF6391F5C32D9C69D2A47EA670B442974B53935D1EDC7FD64EB21E047A839171B SWAP2 SWAP1 LOG4 POP POP JUMP JUMPDEST CALLER PUSH0 SWAP1 DUP2 MSTORE PUSH1 0xD6 PUSH1 0x20 SWAP1 DUP2 MSTORE PUSH1 0x40 DUP1 DUP4 KECCAK256 SLOAD PUSH1 0xD5 SWAP1 SWAP3 MSTORE DUP3 KECCAK256 SLOAD GT ISZERO PUSH2 0x287E JUMPI CALLER PUSH0 SWAP1 DUP2 MSTORE PUSH1 0xD5 PUSH1 0x20 SWAP1 DUP2 MSTORE PUSH1 0x40 DUP1 DUP4 KECCAK256 PUSH1 0xD6 SWAP1 SWAP3 MSTORE SWAP1 SWAP2 KECCAK256 SLOAD DUP2 SLOAD PUSH2 0x287E SWAP3 SWAP2 SWAP1 DUP2 LT PUSH2 0x2870 JUMPI PUSH2 0x2870 PUSH2 0x3DB5 JUMP JUMPDEST SWAP1 PUSH0 MSTORE PUSH1 0x20 PUSH0 KECCAK256 ADD SLOAD PUSH2 0x33E4 JUMP JUMPDEST PUSH2 0x2886 PUSH2 0x34C6 JUMP JUMPDEST POP CALLER PUSH0 SWAP1 DUP2 MSTORE PUSH1 0xD7 PUSH1 0x20 MSTORE PUSH1 0x40 SWAP1 KECCAK256 SLOAD DUP1 PUSH2 0x28ED JUMPI PUSH1 0x40 MLOAD PUSH3 0x461BCD PUSH1 0xE5 SHL DUP2 MSTORE PUSH1 0x20 PUSH1 0x4 DUP3 ADD MSTORE PUSH1 0x21 PUSH1 0x24 DUP3 ADD MSTORE PUSH32 0x4E6F207265776172647320617661696C61626C6520666F7220636C61696D696E PUSH1 0x44 DUP3 ADD MSTORE PUSH1 0x67 PUSH1 0xF8 SHL PUSH1 0x64 DUP3 ADD MSTORE PUSH1 0x84 ADD PUSH2 0x9A3 JUMP JUMPDEST CALLER PUSH0 SWAP1 DUP2 MSTORE PUSH1 0xD7 PUSH1 0x20 MSTORE PUSH1 0x40 DUP2 KECCAK256 SSTORE SWAP1 JUMP JUMPDEST PUSH0 DUP3 DUP2 MSTORE PUSH1 0xDA PUSH1 0x20 MSTORE PUSH1 0x40 DUP2 KECCAK256 DUP1 SLOAD DUP3 SWAP2 SWAP1 PUSH2 0x291A SWAP1 PUSH2 0x3DFC JUMP JUMPDEST DUP1 PUSH1 0x1F ADD PUSH1 0x20 DUP1 SWAP2 DIV MUL PUSH1 0x20 ADD PUSH1 0x40 MLOAD SWAP1 DUP2 ADD PUSH1 0x40 MSTORE DUP1 SWAP3 SWAP2 SWAP1 DUP2 DUP2 MSTORE PUSH1 0x20 ADD DUP3 DUP1 SLOAD PUSH2 0x2946 SWAP1 PUSH2 0x3DFC JUMP JUMPDEST DUP1 ISZERO PUSH2 0x2991 JUMPI DUP1 PUSH1 0x1F LT PUSH2 0x2968 JUMPI PUSH2 0x100 DUP1 DUP4 SLOAD DIV MUL DUP4 MSTORE SWAP2 PUSH1 0x20 ADD SWAP2 PUSH2 0x2991 JUMP JUMPDEST DUP3 ADD SWAP2 SWAP1 PUSH0 MSTORE PUSH1 0x20 PUSH0 KECCAK256 SWAP1 JUMPDEST DUP2 SLOAD DUP2 MSTORE SWAP1 PUSH1 0x1 ADD SWAP1 PUSH1 0x20 ADD DUP1 DUP4 GT PUSH2 0x2974 JUMPI DUP3 SWAP1 SUB PUSH1 0x1F AND DUP3 ADD SWAP2 JUMPDEST POP POP POP PUSH0 DUP8 DUP2 MSTORE PUSH1 0xDA PUSH1 0x20 MSTORE PUSH1 0x40 DUP2 KECCAK256 PUSH1 0xA ADD SLOAD SWAP4 SWAP5 POP SWAP3 PUSH2 0x29B6 SWAP3 POP DUP7 SWAP2 POP PUSH2 0x3D59 JUMP JUMPDEST PUSH0 DUP7 DUP2 MSTORE PUSH1 0xDA PUSH1 0x20 MSTORE PUSH1 0x40 SWAP1 KECCAK256 PUSH1 0x1 ADD SLOAD PUSH2 0x29D1 SWAP2 SWAP1 PUSH2 0x3D59 JUMP JUMPDEST SWAP1 POP PUSH3 0x989680 PUSH1 0xDB PUSH0 DUP9 DUP2 MSTORE PUSH1 0x20 ADD SWAP1 DUP2 MSTORE PUSH1 0x20 ADD PUSH0 KECCAK256 PUSH1 0x3 ADD DUP4 PUSH1 0x40 MLOAD PUSH2 0x29F9 SWAP2 SWAP1 PUSH2 0x3E8F JUMP JUMPDEST SWAP1 DUP2 MSTORE PUSH1 0x20 ADD PUSH1 0x40 MLOAD DUP1 SWAP2 SUB SWAP1 KECCAK256 SLOAD DUP3 PUSH1 0xD9 DUP6 PUSH1 0x40 MLOAD PUSH2 0x2A19 SWAP2 SWAP1 PUSH2 0x3E8F JUMP JUMPDEST SWAP1 DUP2 MSTORE PUSH1 0x20 ADD PUSH1 0x40 MLOAD DUP1 SWAP2 SUB SWAP1 KECCAK256 PUSH1 0x2 ADD SLOAD PUSH1 0xDB PUSH0 DUP12 DUP2 MSTORE PUSH1 0x20 ADD SWAP1 DUP2 MSTORE PUSH1 0x20 ADD PUSH0 KECCAK256 PUSH1 0x2 ADD SLOAD PUSH2 0x2A4A SWAP2 SWAP1 PUSH2 0x3D8B JUMP JUMPDEST PUSH2 0x2A54 SWAP2 SWAP1 PUSH2 0x3D8B JUMP JUMPDEST PUSH2 0x2A5E SWAP2 SWAP1 PUSH2 0x3D6C JUMP JUMPDEST PUSH2 0x2A68 SWAP2 SWAP1 PUSH2 0x3D6C JUMP JUMPDEST SWAP7 SWAP6 POP POP POP POP POP POP JUMP JUMPDEST PUSH1 0xCF SLOAD DUP3 LT ISZERO PUSH2 0x2A94 JUMPI PUSH1 0x40 MLOAD PUSH3 0x461BCD PUSH1 0xE5 SHL DUP2 MSTORE PUSH1 0x4 ADD PUSH2 0x9A3 SWAP1 PUSH2 0x3F36 JUMP JUMPDEST PUSH0 DUP2 DUP2 MSTORE PUSH1 0xDA PUSH1 0x20 MSTORE PUSH1 0x40 DUP2 KECCAK256 DUP1 SLOAD PUSH2 0x2AAC SWAP1 PUSH2 0x3DFC JUMP JUMPDEST DUP1 PUSH1 0x1F ADD PUSH1 0x20 DUP1 SWAP2 DIV MUL PUSH1 0x20 ADD PUSH1 0x40 MLOAD SWAP1 DUP2 ADD PUSH1 0x40 MSTORE DUP1 SWAP3 SWAP2 SWAP1 DUP2 DUP2 MSTORE PUSH1 0x20 ADD DUP3 DUP1 SLOAD PUSH2 0x2AD8 SWAP1 PUSH2 0x3DFC JUMP JUMPDEST DUP1 ISZERO PUSH2 0x2B23 JUMPI DUP1 PUSH1 0x1F LT PUSH2 0x2AFA JUMPI PUSH2 0x100 DUP1 DUP4 SLOAD DIV MUL DUP4 MSTORE SWAP2 PUSH1 0x20 ADD SWAP2 PUSH2 0x2B23 JUMP JUMPDEST DUP3 ADD SWAP2 SWAP1 PUSH0 MSTORE PUSH1 0x20 PUSH0 KECCAK256 SWAP1 JUMPDEST DUP2 SLOAD DUP2 MSTORE SWAP1 PUSH1 0x1 ADD SWAP1 PUSH1 0x20 ADD DUP1 DUP4 GT PUSH2 0x2B06 JUMPI DUP3 SWAP1 SUB PUSH1 0x1F AND DUP3 ADD SWAP2 JUMPDEST POP POP POP POP POP SWAP1 POP PUSH1 0xD9 DUP2 PUSH1 0x40 MLOAD PUSH2 0x2B3A SWAP2 SWAP1 PUSH2 0x3E8F JUMP JUMPDEST SWAP1 DUP2 MSTORE PUSH1 0x40 MLOAD SWAP1 DUP2 SWAP1 SUB PUSH1 0x20 ADD SWAP1 KECCAK256 SLOAD PUSH1 0xFF AND PUSH2 0x2B99 JUMPI PUSH1 0x40 MLOAD PUSH3 0x461BCD PUSH1 0xE5 SHL DUP2 MSTORE PUSH1 0x20 PUSH1 0x4 DUP3 ADD MSTORE PUSH1 0x1A PUSH1 0x24 DUP3 ADD MSTORE PUSH32 0x506F6F6C2069732063757272656E746C792064697361626C6564000000000000 PUSH1 0x44 DUP3 ADD MSTORE PUSH1 0x64 ADD PUSH2 0x9A3 JUMP JUMPDEST PUSH0 DUP3 DUP2 MSTORE PUSH1 0xDA PUSH1 0x20 MSTORE PUSH1 0x40 SWAP1 KECCAK256 PUSH1 0x2 ADD SLOAD PUSH1 0xFF AND ISZERO PUSH2 0x2BBF JUMPI PUSH2 0x2BBA PUSH2 0x34C6 JUMP JUMPDEST PUSH2 0x2BC8 JUMP JUMPDEST PUSH2 0x2BC8 DUP3 PUSH2 0x33E4 JUMP JUMPDEST PUSH0 PUSH2 0x2BD3 DUP5 DUP4 PUSH2 0x1F2A JUMP JUMPDEST PUSH1 0xCA SLOAD PUSH1 0x40 MLOAD PUSH4 0x40C10F19 PUSH1 0xE0 SHL DUP2 MSTORE CALLER PUSH1 0x4 DUP3 ADD MSTORE PUSH1 0x24 DUP2 ADD DUP4 SWAP1 MSTORE SWAP2 SWAP3 POP PUSH1 0x1 PUSH1 0x1 PUSH1 0xA0 SHL SUB AND SWAP1 PUSH4 0x40C10F19 SWAP1 PUSH1 0x44 ADD PUSH0 PUSH1 0x40 MLOAD DUP1 DUP4 SUB DUP2 PUSH0 DUP8 DUP1 EXTCODESIZE ISZERO DUP1 ISZERO PUSH2 0x2C1D JUMPI PUSH0 PUSH0 REVERT JUMPDEST POP GAS CALL ISZERO DUP1 ISZERO PUSH2 0x2C2F JUMPI RETURNDATASIZE PUSH0 PUSH0 RETURNDATACOPY RETURNDATASIZE PUSH0 REVERT JUMPDEST POP POP POP PUSH0 DUP5 DUP2 MSTORE PUSH1 0xDA PUSH1 0x20 MSTORE PUSH1 0x40 DUP2 KECCAK256 PUSH1 0x1 ADD DUP1 SLOAD DUP8 SWAP4 POP SWAP1 SWAP2 SWAP1 PUSH2 0x2C55 SWAP1 DUP5 SWAP1 PUSH2 0x3DA2 JUMP JUMPDEST SWAP1 SWAP2 SSTORE POP POP PUSH0 DUP4 DUP2 MSTORE PUSH1 0xDA PUSH1 0x20 MSTORE PUSH1 0x40 DUP2 KECCAK256 PUSH1 0x6 ADD DUP1 SLOAD DUP4 SWAP3 SWAP1 PUSH2 0x2C7A SWAP1 DUP5 SWAP1 PUSH2 0x3DA2 JUMP JUMPDEST SWAP1 SWAP2 SSTORE POP POP PUSH0 DUP4 DUP2 MSTORE PUSH1 0xDA PUSH1 0x20 MSTORE PUSH1 0x40 DUP2 KECCAK256 PUSH1 0xA ADD DUP1 SLOAD DUP7 SWAP3 SWAP1 PUSH2 0x2C9F SWAP1 DUP5 SWAP1 PUSH2 0x3DA2 JUMP JUMPDEST SWAP1 SWAP2 SSTORE POP PUSH0 SWAP1 POP PUSH2 0x2CAE PUSH2 0x1F6E JUMP JUMPDEST PUSH0 DUP6 DUP2 MSTORE PUSH1 0xDA PUSH1 0x20 MSTORE PUSH1 0x40 SWAP1 KECCAK256 PUSH1 0x9 DUP2 ADD SLOAD PUSH1 0x8 SWAP1 SWAP2 ADD DUP3 SWAP1 SSTORE SWAP1 SWAP2 POP DUP2 DUP2 LT ISZERO DUP1 PUSH2 0x2CEA JUMPI POP PUSH0 DUP6 DUP2 MSTORE PUSH1 0xDA PUSH1 0x20 MSTORE PUSH1 0x40 SWAP1 KECCAK256 PUSH1 0x2 ADD SLOAD PUSH1 0xFF AND JUMPDEST ISZERO PUSH2 0x2DD1 JUMPI DUP6 PUSH1 0xDB PUSH0 DUP5 DUP2 MSTORE PUSH1 0x20 ADD SWAP1 DUP2 MSTORE PUSH1 0x20 ADD PUSH0 KECCAK256 PUSH1 0x4 ADD DUP6 PUSH1 0x40 MLOAD PUSH2 0x2D12 SWAP2 SWAP1 PUSH2 0x3E8F JUMP JUMPDEST SWAP1 DUP2 MSTORE PUSH1 0x20 ADD PUSH1 0x40 MLOAD DUP1 SWAP2 SUB SWAP1 KECCAK256 PUSH0 DUP3 DUP3 SLOAD PUSH2 0x2D2E SWAP2 SWAP1 PUSH2 0x3DA2 JUMP JUMPDEST SWAP1 SWAP2 SSTORE POP POP PUSH0 DUP2 DUP2 MSTORE PUSH1 0xDB PUSH1 0x20 MSTORE PUSH1 0x40 SWAP1 DUP2 SWAP1 KECCAK256 SWAP1 MLOAD DUP8 SWAP2 PUSH1 0x5 ADD SWAP1 PUSH2 0x2D55 SWAP1 DUP8 SWAP1 PUSH2 0x3E8F JUMP JUMPDEST SWAP1 DUP2 MSTORE PUSH1 0x20 ADD PUSH1 0x40 MLOAD DUP1 SWAP2 SUB SWAP1 KECCAK256 PUSH0 DUP3 DUP3 SLOAD PUSH2 0x2D71 SWAP2 SWAP1 PUSH2 0x3DA2 JUMP JUMPDEST SWAP1 SWAP2 SSTORE POP POP PUSH0 DUP3 DUP2 MSTORE PUSH1 0xDB PUSH1 0x20 MSTORE PUSH1 0x40 SWAP1 KECCAK256 SLOAD PUSH1 0xFF AND ISZERO PUSH2 0x2DD1 JUMPI DUP6 PUSH1 0xDB PUSH0 DUP5 DUP2 MSTORE PUSH1 0x20 ADD SWAP1 DUP2 MSTORE PUSH1 0x20 ADD PUSH0 KECCAK256 PUSH1 0x3 ADD DUP6 PUSH1 0x40 MLOAD PUSH2 0x2DAF SWAP2 SWAP1 PUSH2 0x3E8F JUMP JUMPDEST SWAP1 DUP2 MSTORE PUSH1 0x20 ADD PUSH1 0x40 MLOAD DUP1 SWAP2 SUB SWAP1 KECCAK256 PUSH0 DUP3 DUP3 SLOAD PUSH2 0x2DCB SWAP2 SWAP1 PUSH2 0x3DA2 JUMP JUMPDEST SWAP1 SWAP2 SSTORE POP POP JUMPDEST POP PUSH0 SWAP4 DUP5 MSTORE PUSH1 0xDA PUSH1 0x20 SWAP1 DUP2 MSTORE PUSH1 0x40 DUP1 DUP7 KECCAK256 PUSH1 0xA DUP2 ADD SLOAD SWAP4 DUP8 MSTORE PUSH1 0xB ADD SWAP1 SWAP2 MSTORE SWAP1 SWAP4 KECCAK256 SWAP3 SWAP1 SWAP3 SSTORE POP POP POP JUMP JUMPDEST PUSH1 0xD9 DUP3 PUSH1 0x40 MLOAD PUSH2 0x2E0C SWAP2 SWAP1 PUSH2 0x3E8F JUMP JUMPDEST SWAP1 DUP2 MSTORE PUSH1 0x40 MLOAD SWAP1 DUP2 SWAP1 SUB PUSH1 0x20 ADD SWAP1 KECCAK256 SLOAD PUSH1 0xFF AND PUSH2 0x2E7E JUMPI PUSH1 0x40 MLOAD PUSH3 0x461BCD PUSH1 0xE5 SHL DUP2 MSTORE PUSH1 0x20 PUSH1 0x4 DUP3 ADD MSTORE PUSH1 0x2A PUSH1 0x24 DUP3 ADD MSTORE PUSH32 0x546865205F706F6F6C4E616D65206973206E6F7420617661696C61626C652066 PUSH1 0x44 DUP3 ADD MSTORE PUSH10 0x6F72207374616B696E67 PUSH1 0xB0 SHL PUSH1 0x64 DUP3 ADD MSTORE PUSH1 0x84 ADD PUSH2 0x9A3 JUMP JUMPDEST PUSH1 0xCC DUP1 SLOAD SWAP1 PUSH0 PUSH2 0x2E8D DUP4 PUSH2 0x3DE4 JUMP JUMPDEST SWAP2 SWAP1 POP SSTORE POP PUSH0 PUSH1 0xD9 DUP4 PUSH1 0x40 MLOAD PUSH2 0x2EA3 SWAP2 SWAP1 PUSH2 0x3E8F JUMP JUMPDEST SWAP1 DUP2 MSTORE PUSH1 0x20 ADD PUSH1 0x40 MLOAD DUP1 SWAP2 SUB SWAP1 KECCAK256 PUSH1 0x5 ADD SLOAD DUP3 PUSH2 0x2EC0 SWAP2 SWAP1 PUSH2 0x3DA2 JUMP JUMPDEST SWAP1 POP PUSH0 PUSH2 0x2ECD DUP7 DUP9 PUSH2 0x3DA2 JUMP JUMPDEST SWAP1 POP PUSH0 PUSH2 0x2EDA DUP3 DUP7 PUSH2 0x1F2A JUMP JUMPDEST SWAP1 POP DUP6 DUP2 GT ISZERO PUSH2 0x2F5A JUMPI PUSH1 0xCA SLOAD PUSH1 0x1 PUSH1 0x1 PUSH1 0xA0 SHL SUB AND PUSH4 0x40C10F19 CALLER PUSH2 0x2F00 DUP10 DUP6 PUSH2 0x3D59 JUMP JUMPDEST PUSH1 0x40 MLOAD PUSH1 0x1 PUSH1 0x1 PUSH1 0xE0 SHL SUB NOT PUSH1 0xE0 DUP6 SWAP1 SHL AND DUP2 MSTORE PUSH1 0x1 PUSH1 0x1 PUSH1 0xA0 SHL SUB SWAP1 SWAP3 AND PUSH1 0x4 DUP4 ADD MSTORE PUSH1 0x24 DUP3 ADD MSTORE PUSH1 0x44 ADD PUSH0 PUSH1 0x40 MLOAD DUP1 DUP4 SUB DUP2 PUSH0 DUP8 DUP1 EXTCODESIZE ISZERO DUP1 ISZERO PUSH2 0x2F43 JUMPI PUSH0 PUSH0 REVERT JUMPDEST POP GAS CALL ISZERO DUP1 ISZERO PUSH2 0x2F55 JUMPI RETURNDATASIZE PUSH0 PUSH0 RETURNDATACOPY RETURNDATASIZE PUSH0 REVERT JUMPDEST POP POP POP POP JUMPDEST PUSH1 0xD9 DUP6 PUSH1 0x40 MLOAD PUSH2 0x2F6A SWAP2 SWAP1 PUSH2 0x3E8F JUMP JUMPDEST SWAP1 DUP2 MSTORE PUSH1 0x20 ADD PUSH1 0x40 MLOAD DUP1 SWAP2 SUB SWAP1 KECCAK256 PUSH1 0x3 ADD SLOAD PUSH0 EQ PUSH2 0x3117 JUMPI PUSH2 0x2F8B CALLER PUSH2 0x871 JUMP JUMPDEST ISZERO PUSH2 0x2FD8 JUMPI PUSH1 0x40 MLOAD PUSH3 0x461BCD PUSH1 0xE5 SHL DUP2 MSTORE PUSH1 0x20 PUSH1 0x4 DUP3 ADD MSTORE PUSH1 0x1C PUSH1 0x24 DUP3 ADD MSTORE PUSH32 0x54696D6562617365206C6F636B20616C72656164792065786973747300000000 PUSH1 0x44 DUP3 ADD MSTORE PUSH1 0x64 ADD PUSH2 0x9A3 JUMP JUMPDEST CALLER PUSH0 SWAP1 DUP2 MSTORE PUSH1 0xD4 PUSH1 0x20 SWAP1 DUP2 MSTORE PUSH1 0x40 DUP1 DUP4 KECCAK256 PUSH1 0xCC SLOAD DUP2 SLOAD PUSH1 0x1 DUP2 ADD DUP4 SSTORE SWAP2 DUP6 MSTORE SWAP3 DUP5 KECCAK256 ADD SWAP2 SWAP1 SWAP2 SSTORE MLOAD PUSH1 0xD9 SWAP1 PUSH2 0x300E SWAP1 DUP9 SWAP1 PUSH2 0x3E8F JUMP JUMPDEST SWAP1 DUP2 MSTORE PUSH1 0x20 ADD PUSH1 0x40 MLOAD DUP1 SWAP2 SUB SWAP1 KECCAK256 PUSH1 0x2 ADD SLOAD GT ISZERO PUSH2 0x304D JUMPI CALLER PUSH0 SWAP1 DUP2 MSTORE PUSH1 0xD5 PUSH1 0x20 SWAP1 DUP2 MSTORE PUSH1 0x40 DUP3 KECCAK256 PUSH1 0xCC SLOAD DUP2 SLOAD PUSH1 0x1 DUP2 ADD DUP4 SSTORE SWAP2 DUP5 MSTORE SWAP2 SWAP1 SWAP3 KECCAK256 SWAP1 SWAP2 ADD SSTORE JUMPDEST DUP8 ISZERO PUSH2 0x30CD JUMPI PUSH1 0xC9 SLOAD PUSH1 0x40 MLOAD PUSH4 0x23B872DD PUSH1 0xE0 SHL DUP2 MSTORE CALLER PUSH1 0x4 DUP3 ADD MSTORE ADDRESS PUSH1 0x24 DUP3 ADD MSTORE PUSH1 0x44 DUP2 ADD DUP11 SWAP1 MSTORE PUSH1 0x1 PUSH1 0x1 PUSH1 0xA0 SHL SUB SWAP1 SWAP2 AND SWAP1 PUSH4 0x23B872DD SWAP1 PUSH1 0x64 ADD PUSH1 0x20 PUSH1 0x40 MLOAD DUP1 DUP4 SUB DUP2 PUSH0 DUP8 GAS CALL ISZERO DUP1 ISZERO PUSH2 0x30A7 JUMPI RETURNDATASIZE PUSH0 PUSH0 RETURNDATACOPY RETURNDATASIZE PUSH0 REVERT JUMPDEST POP POP POP POP PUSH1 0x40 MLOAD RETURNDATASIZE PUSH1 0x1F NOT PUSH1 0x1F DUP3 ADD AND DUP3 ADD DUP1 PUSH1 0x40 MSTORE POP DUP2 ADD SWAP1 PUSH2 0x30CB SWAP2 SWAP1 PUSH2 0x3DC9 JUMP JUMPDEST POP JUMPDEST DUP2 PUSH1 0xDB PUSH0 DUP6 DUP2 MSTORE PUSH1 0x20 ADD SWAP1 DUP2 MSTORE PUSH1 0x20 ADD PUSH0 KECCAK256 PUSH1 0x5 ADD DUP7 PUSH1 0x40 MLOAD PUSH2 0x30F0 SWAP2 SWAP1 PUSH2 0x3E8F JUMP JUMPDEST SWAP1 DUP2 MSTORE PUSH1 0x20 ADD PUSH1 0x40 MLOAD DUP1 SWAP2 SUB SWAP1 KECCAK256 PUSH0 DUP3 DUP3 SLOAD PUSH2 0x310C SWAP2 SWAP1 PUSH2 0x3DA2 JUMP JUMPDEST SWAP1 SWAP2 SSTORE POP PUSH2 0x3203 SWAP1 POP JUMP JUMPDEST CALLER PUSH0 SWAP1 DUP2 MSTORE PUSH1 0xD8 PUSH1 0x20 MSTORE PUSH1 0x40 SWAP1 KECCAK256 SLOAD ISZERO PUSH2 0x3173 JUMPI PUSH1 0x40 MLOAD PUSH3 0x461BCD PUSH1 0xE5 SHL DUP2 MSTORE PUSH1 0x20 PUSH1 0x4 DUP3 ADD MSTORE PUSH1 0x1B PUSH1 0x24 DUP3 ADD MSTORE PUSH32 0x466F7265766572206C6F636B20616C7265616479206578697374730000000000 PUSH1 0x44 DUP3 ADD MSTORE PUSH1 0x64 ADD PUSH2 0x9A3 JUMP JUMPDEST PUSH1 0xCC SLOAD CALLER PUSH0 DUP2 DUP2 MSTORE PUSH1 0xD8 PUSH1 0x20 SWAP1 DUP2 MSTORE PUSH1 0x40 DUP1 DUP4 KECCAK256 DUP6 SWAP1 SSTORE SWAP4 DUP3 MSTORE PUSH1 0xDA SWAP1 MSTORE DUP3 SWAP1 KECCAK256 PUSH1 0x2 ADD DUP1 SLOAD PUSH1 0xFF NOT AND PUSH1 0x1 OR SWAP1 SSTORE PUSH1 0xC9 SLOAD SWAP2 MLOAD PUSH4 0x79CC679 PUSH1 0xE4 SHL DUP2 MSTORE PUSH1 0x4 DUP2 ADD SWAP2 SWAP1 SWAP2 MSTORE PUSH1 0x24 DUP2 ADD DUP5 SWAP1 MSTORE PUSH1 0x1 PUSH1 0x1 PUSH1 0xA0 SHL SUB SWAP1 SWAP2 AND SWAP1 PUSH4 0x79CC6790 SWAP1 PUSH1 0x44 ADD PUSH0 PUSH1 0x40 MLOAD DUP1 DUP4 SUB DUP2 PUSH0 DUP8 DUP1 EXTCODESIZE ISZERO DUP1 ISZERO PUSH2 0x31EC JUMPI PUSH0 PUSH0 REVERT JUMPDEST POP GAS CALL ISZERO DUP1 ISZERO PUSH2 0x31FE JUMPI RETURNDATASIZE PUSH0 PUSH0 RETURNDATACOPY RETURNDATASIZE PUSH0 REVERT JUMPDEST POP POP POP POP JUMPDEST PUSH1 0xCC SLOAD PUSH0 SWAP1 DUP2 MSTORE PUSH1 0xDA PUSH1 0x20 MSTORE PUSH1 0x40 SWAP1 KECCAK256 PUSH2 0x321D DUP7 DUP3 PUSH2 0x3FC5 JUMP JUMPDEST POP PUSH1 0xCC SLOAD PUSH0 SWAP1 DUP2 MSTORE PUSH1 0xDA PUSH1 0x20 MSTORE PUSH1 0x40 SWAP1 DUP2 SWAP1 KECCAK256 PUSH1 0x1 ADD DUP4 SWAP1 SSTORE MLOAD PUSH1 0xD9 SWAP1 PUSH2 0x3245 SWAP1 DUP8 SWAP1 PUSH2 0x3E8F JUMP JUMPDEST SWAP1 DUP2 MSTORE PUSH1 0x40 DUP1 MLOAD SWAP2 DUP3 SWAP1 SUB PUSH1 0x20 SWAP1 DUP2 ADD DUP4 KECCAK256 PUSH1 0x3 SWAP1 DUP2 ADD SLOAD PUSH1 0xCC DUP1 SLOAD PUSH0 SWAP1 DUP2 MSTORE PUSH1 0xDA SWAP1 SWAP5 MSTORE DUP5 DUP5 KECCAK256 SWAP1 SWAP3 ADD SSTORE SLOAD DUP2 MSTORE KECCAK256 TIMESTAMP PUSH1 0x4 SWAP1 SWAP2 ADD SSTORE PUSH1 0xD9 SWAP1 PUSH2 0x328A SWAP1 DUP8 SWAP1 PUSH2 0x3E8F JUMP JUMPDEST SWAP1 DUP2 MSTORE PUSH1 0x20 ADD PUSH1 0x40 MLOAD DUP1 SWAP2 SUB SWAP1 KECCAK256 PUSH1 0x3 ADD SLOAD TIMESTAMP PUSH2 0x32A7 SWAP2 SWAP1 PUSH2 0x3DA2 JUMP JUMPDEST PUSH1 0xCC DUP1 SLOAD PUSH0 SWAP1 DUP2 MSTORE PUSH1 0xDA PUSH1 0x20 SWAP1 DUP2 MSTORE PUSH1 0x40 DUP1 DUP4 KECCAK256 PUSH1 0x5 ADD SWAP5 SWAP1 SWAP5 SSTORE DUP3 SLOAD DUP3 MSTORE DUP4 DUP3 KECCAK256 PUSH1 0x6 ADD DUP6 SWAP1 SSTORE DUP3 SLOAD DUP3 MSTORE DUP4 DUP3 KECCAK256 PUSH1 0x2 ADD DUP1 SLOAD PUSH2 0xFF00 NOT AND PUSH2 0x100 OR SWAP1 SSTORE DUP3 SLOAD DUP3 MSTORE DUP4 DUP3 KECCAK256 PUSH1 0x8 ADD DUP9 SWAP1 SSTORE SWAP2 SLOAD DUP2 MSTORE DUP3 DUP2 KECCAK256 PUSH1 0x9 ADD DUP7 SWAP1 SSTORE DUP7 DUP2 MSTORE PUSH1 0xDB SWAP1 SWAP2 MSTORE DUP2 SWAP1 KECCAK256 SWAP1 MLOAD DUP4 SWAP2 PUSH1 0x4 ADD SWAP1 PUSH2 0x331E SWAP1 DUP9 SWAP1 PUSH2 0x3E8F JUMP JUMPDEST SWAP1 DUP2 MSTORE PUSH1 0x20 ADD PUSH1 0x40 MLOAD DUP1 SWAP2 SUB SWAP1 KECCAK256 PUSH0 DUP3 DUP3 SLOAD PUSH2 0x333A SWAP2 SWAP1 PUSH2 0x3DA2 JUMP JUMPDEST SWAP1 SWAP2 SSTORE POP POP PUSH1 0xCC SLOAD PUSH1 0x40 MLOAD CALLER SWAP2 SWAP1 PUSH32 0xE11027F9E3D7AA31B5D23503BE35FAEDE305799D8C9AB6C5B06FE0F28589906 SWAP1 PUSH2 0x3379 SWAP1 DUP7 SWAP1 DUP11 SWAP1 DUP8 SWAP1 PUSH2 0x407F JUMP JUMPDEST PUSH1 0x40 MLOAD DUP1 SWAP2 SUB SWAP1 LOG3 POP POP POP POP POP POP POP POP JUMP JUMPDEST PUSH2 0x3395 DUP3 DUP3 PUSH2 0x1E90 JUMP JUMPDEST PUSH2 0xC75 JUMPI PUSH2 0x33A2 DUP2 PUSH2 0x3585 JUMP JUMPDEST PUSH2 0x33AD DUP4 PUSH1 0x20 PUSH2 0x3597 JUMP JUMPDEST PUSH1 0x40 MLOAD PUSH1 0x20 ADD PUSH2 0x33BE SWAP3 SWAP2 SWAP1 PUSH2 0x40A7 JUMP JUMPDEST PUSH1 0x40 DUP1 MLOAD PUSH1 0x1F NOT DUP2 DUP5 SUB ADD DUP2 MSTORE SWAP1 DUP3 SWAP1 MSTORE PUSH3 0x461BCD PUSH1 0xE5 SHL DUP3 MSTORE PUSH2 0x9A3 SWAP2 PUSH1 0x4 ADD PUSH2 0x3AA4 JUMP JUMPDEST DUP1 ISZERO DUP1 ISZERO SWAP1 PUSH2 0x3408 JUMPI POP PUSH0 DUP2 DUP2 MSTORE PUSH1 0xDA PUSH1 0x20 MSTORE PUSH1 0x40 SWAP1 KECCAK256 PUSH1 0x9 DUP2 ADD SLOAD PUSH1 0x8 SWAP1 SWAP2 ADD SLOAD LT JUMPDEST ISZERO PUSH2 0x26EA JUMPI PUSH0 PUSH0 PUSH2 0x341A DUP4 PUSH1 0xA PUSH2 0xDC3 JUMP JUMPDEST PUSH0 DUP7 DUP2 MSTORE PUSH1 0xDA PUSH1 0x20 MSTORE PUSH1 0x40 DUP2 KECCAK256 PUSH1 0x8 DUP2 ADD SWAP4 SWAP1 SWAP4 SSTORE PUSH1 0x7 SWAP1 SWAP3 ADD DUP1 SLOAD SWAP4 SWAP6 POP SWAP1 SWAP4 POP DUP5 SWAP3 SWAP1 SWAP2 SWAP1 PUSH2 0x344C SWAP1 DUP5 SWAP1 PUSH2 0x3DA2 JUMP JUMPDEST SWAP1 SWAP2 SSTORE POP POP CALLER PUSH0 SWAP1 DUP2 MSTORE PUSH1 0xD7 PUSH1 0x20 MSTORE PUSH1 0x40 DUP2 KECCAK256 DUP1 SLOAD DUP5 SWAP3 SWAP1 PUSH2 0x346F SWAP1 DUP5 SWAP1 PUSH2 0x3DA2 JUMP JUMPDEST SWAP1 SWAP2 SSTORE POP POP PUSH0 DUP4 DUP2 MSTORE PUSH1 0xDA PUSH1 0x20 DUP2 DUP2 MSTORE PUSH1 0x40 DUP1 DUP5 KECCAK256 PUSH1 0x8 DUP2 ADD DUP1 SLOAD DUP7 MSTORE PUSH1 0xB DUP3 ADD DUP5 MSTORE SWAP2 DUP6 KECCAK256 DUP7 SWAP1 SSTORE SWAP4 DUP8 SWAP1 MSTORE SWAP2 SWAP1 MSTORE PUSH1 0x9 SWAP1 SWAP2 ADD SLOAD SWAP1 SLOAD SUB PUSH2 0xBF6 JUMPI CALLER PUSH0 SWAP1 DUP2 MSTORE PUSH1 0xD6 PUSH1 0x20 MSTORE PUSH1 0x40 DUP2 KECCAK256 DUP1 SLOAD SWAP2 PUSH2 0x19E1 DUP4 PUSH2 0x3DE4 JUMP JUMPDEST CALLER PUSH0 SWAP1 DUP2 MSTORE PUSH1 0xD8 PUSH1 0x20 MSTORE PUSH1 0x40 SWAP1 KECCAK256 SLOAD DUP1 ISZERO DUP1 ISZERO SWAP1 PUSH2 0x34F5 JUMPI POP PUSH1 0xCD SLOAD PUSH0 DUP3 DUP2 MSTORE PUSH1 0xDA PUSH1 0x20 MSTORE PUSH1 0x40 SWAP1 KECCAK256 PUSH1 0x8 ADD SLOAD LT JUMPDEST ISZERO PUSH2 0x26EA JUMPI PUSH0 PUSH0 PUSH2 0x3507 DUP4 PUSH1 0xA PUSH2 0xDC3 JUMP JUMPDEST PUSH0 DUP7 DUP2 MSTORE PUSH1 0xDA PUSH1 0x20 MSTORE PUSH1 0x40 DUP2 KECCAK256 PUSH1 0x8 DUP2 ADD SWAP4 SWAP1 SWAP4 SSTORE PUSH1 0x7 SWAP1 SWAP3 ADD DUP1 SLOAD SWAP4 SWAP6 POP SWAP1 SWAP4 POP DUP5 SWAP3 SWAP1 SWAP2 SWAP1 PUSH2 0x3539 SWAP1 DUP5 SWAP1 PUSH2 0x3DA2 JUMP JUMPDEST SWAP1 SWAP2 SSTORE POP POP CALLER PUSH0 SWAP1 DUP2 MSTORE PUSH1 0xD7 PUSH1 0x20 MSTORE PUSH1 0x40 DUP2 KECCAK256 DUP1 SLOAD DUP5 SWAP3 SWAP1 PUSH2 0x355C SWAP1 DUP5 SWAP1 PUSH2 0x3DA2 JUMP JUMPDEST SWAP1 SWAP2 SSTORE POP POP PUSH0 DUP4 DUP2 MSTORE PUSH1 0xDA PUSH1 0x20 SWAP1 DUP2 MSTORE PUSH1 0x40 DUP1 DUP4 KECCAK256 PUSH1 0x8 DUP2 ADD SLOAD DUP5 MSTORE PUSH1 0xB ADD SWAP1 SWAP2 MSTORE SWAP1 KECCAK256 SSTORE POP POP JUMP JUMPDEST PUSH1 0x60 PUSH2 0x781 PUSH1 0x1 PUSH1 0x1 PUSH1 0xA0 SHL SUB DUP4 AND PUSH1 0x14 JUMPDEST PUSH1 0x60 PUSH0 PUSH2 0x35A5 DUP4 PUSH1 0x2 PUSH2 0x3D8B JUMP JUMPDEST PUSH2 0x35B0 SWAP1 PUSH1 0x2 PUSH2 0x3DA2 JUMP JUMPDEST PUSH1 0x1 PUSH1 0x1 PUSH1 0x40 SHL SUB DUP2 GT ISZERO PUSH2 0x35C7 JUMPI PUSH2 0x35C7 PUSH2 0x396F JUMP JUMPDEST PUSH1 0x40 MLOAD SWAP1 DUP1 DUP3 MSTORE DUP1 PUSH1 0x1F ADD PUSH1 0x1F NOT AND PUSH1 0x20 ADD DUP3 ADD PUSH1 0x40 MSTORE DUP1 ISZERO PUSH2 0x35F1 JUMPI PUSH1 0x20 DUP3 ADD DUP2 DUP1 CALLDATASIZE DUP4 CALLDATACOPY ADD SWAP1 POP JUMPDEST POP SWAP1 POP PUSH1 0x3 PUSH1 0xFC SHL DUP2 PUSH0 DUP2 MLOAD DUP2 LT PUSH2 0x360B JUMPI PUSH2 0x360B PUSH2 0x3DB5 JUMP JUMPDEST PUSH1 0x20 ADD ADD SWAP1 PUSH1 0x1 PUSH1 0x1 PUSH1 0xF8 SHL SUB NOT AND SWAP1 DUP2 PUSH0 BYTE SWAP1 MSTORE8 POP PUSH1 0xF PUSH1 0xFB SHL DUP2 PUSH1 0x1 DUP2 MLOAD DUP2 LT PUSH2 0x3639 JUMPI PUSH2 0x3639 PUSH2 0x3DB5 JUMP JUMPDEST PUSH1 0x20 ADD ADD SWAP1 PUSH1 0x1 PUSH1 0x1 PUSH1 0xF8 SHL SUB NOT AND SWAP1 DUP2 PUSH0 BYTE SWAP1 MSTORE8 POP PUSH0 PUSH2 0x365B DUP5 PUSH1 0x2 PUSH2 0x3D8B JUMP JUMPDEST PUSH2 0x3666 SWAP1 PUSH1 0x1 PUSH2 0x3DA2 JUMP JUMPDEST SWAP1 POP JUMPDEST PUSH1 0x1 DUP2 GT ISZERO PUSH2 0x36DD JUMPI PUSH16 0x181899199A1A9B1B9C1CB0B131B232B3 PUSH1 0x81 SHL DUP6 PUSH1 0xF AND PUSH1 0x10 DUP2 LT PUSH2 0x369A JUMPI PUSH2 0x369A PUSH2 0x3DB5 JUMP JUMPDEST BYTE PUSH1 0xF8 SHL DUP3 DUP3 DUP2 MLOAD DUP2 LT PUSH2 0x36B0 JUMPI PUSH2 0x36B0 PUSH2 0x3DB5 JUMP JUMPDEST PUSH1 0x20 ADD ADD SWAP1 PUSH1 0x1 PUSH1 0x1 PUSH1 0xF8 SHL SUB NOT AND SWAP1 DUP2 PUSH0 BYTE SWAP1 MSTORE8 POP PUSH1 0x4 SWAP5 SWAP1 SWAP5 SHR SWAP4 PUSH2 0x36D6 DUP2 PUSH2 0x40FC JUMP JUMPDEST SWAP1 POP PUSH2 0x3669 JUMP JUMPDEST POP DUP4 ISZERO PUSH2 0x1F67 JUMPI PUSH1 0x40 MLOAD PUSH3 0x461BCD PUSH1 0xE5 SHL DUP2 MSTORE PUSH1 0x20 PUSH1 0x4 DUP3 ADD DUP2 SWAP1 MSTORE PUSH1 0x24 DUP3 ADD MSTORE PUSH32 0x537472696E67733A20686578206C656E67746820696E73756666696369656E74 PUSH1 0x44 DUP3 ADD MSTORE PUSH1 0x64 ADD PUSH2 0x9A3 JUMP JUMPDEST DUP3 DUP1 SLOAD DUP3 DUP3 SSTORE SWAP1 PUSH0 MSTORE PUSH1 0x20 PUSH0 KECCAK256 SWAP1 DUP2 ADD SWAP3 DUP3 ISZERO PUSH2 0x3770 JUMPI SWAP2 PUSH1 0x20 MUL DUP3 ADD JUMPDEST DUP3 DUP2 GT ISZERO PUSH2 0x3770 JUMPI DUP3 MLOAD DUP3 SWAP1 PUSH2 0x3760 SWAP1 DUP3 PUSH2 0x3FC5 JUMP JUMPDEST POP SWAP2 PUSH1 0x20 ADD SWAP2 SWAP1 PUSH1 0x1 ADD SWAP1 PUSH2 0x374A JUMP JUMPDEST POP PUSH2 0x377C SWAP3 SWAP2 POP PUSH2 0x3780 JUMP JUMPDEST POP SWAP1 JUMP JUMPDEST DUP1 DUP3 GT ISZERO PUSH2 0x377C JUMPI PUSH0 PUSH2 0x3793 DUP3 DUP3 PUSH2 0x379C JUMP JUMPDEST POP PUSH1 0x1 ADD PUSH2 0x3780 JUMP JUMPDEST POP DUP1 SLOAD PUSH2 0x37A8 SWAP1 PUSH2 0x3DFC JUMP JUMPDEST PUSH0 DUP3 SSTORE DUP1 PUSH1 0x1F LT PUSH2 0x37B7 JUMPI POP POP JUMP JUMPDEST PUSH1 0x1F ADD PUSH1 0x20 SWAP1 DIV SWAP1 PUSH0 MSTORE PUSH1 0x20 PUSH0 KECCAK256 SWAP1 DUP2 ADD SWAP1 PUSH2 0x26EA SWAP2 SWAP1 JUMPDEST DUP1 DUP3 GT ISZERO PUSH2 0x377C JUMPI PUSH0 DUP2 SSTORE PUSH1 0x1 ADD PUSH2 0x37CF JUMP JUMPDEST DUP1 CALLDATALOAD PUSH1 0x1 PUSH1 0x1 PUSH1 0xA0 SHL SUB DUP2 AND DUP2 EQ PUSH2 0x37F8 JUMPI PUSH0 PUSH0 REVERT JUMPDEST SWAP2 SWAP1 POP JUMP JUMPDEST PUSH0 PUSH1 0x20 DUP3 DUP5 SUB SLT ISZERO PUSH2 0x380D JUMPI PUSH0 PUSH0 REVERT JUMPDEST PUSH2 0x1F67 DUP3 PUSH2 0x37E2 JUMP JUMPDEST PUSH0 PUSH1 0x20 DUP3 DUP5 SUB SLT ISZERO PUSH2 0x3826 JUMPI PUSH0 PUSH0 REVERT JUMPDEST DUP2 CALLDATALOAD PUSH1 0x1 PUSH1 0x1 PUSH1 0xE0 SHL SUB NOT DUP2 AND DUP2 EQ PUSH2 0x1F67 JUMPI PUSH0 PUSH0 REVERT JUMPDEST PUSH0 PUSH1 0x20 DUP3 DUP5 SUB SLT ISZERO PUSH2 0x384D JUMPI PUSH0 PUSH0 REVERT JUMPDEST POP CALLDATALOAD SWAP2 SWAP1 POP JUMP JUMPDEST PUSH0 PUSH0 PUSH1 0x40 DUP4 DUP6 SUB SLT ISZERO PUSH2 0x3865 JUMPI PUSH0 PUSH0 REVERT JUMPDEST POP POP DUP1 CALLDATALOAD SWAP3 PUSH1 0x20 SWAP1 SWAP2 ADD CALLDATALOAD SWAP2 POP JUMP JUMPDEST PUSH0 PUSH0 PUSH1 0x40 DUP4 DUP6 SUB SLT ISZERO PUSH2 0x3885 JUMPI PUSH0 PUSH0 REVERT JUMPDEST DUP3 CALLDATALOAD SWAP2 POP PUSH2 0x3895 PUSH1 0x20 DUP5 ADD PUSH2 0x37E2 JUMP JUMPDEST SWAP1 POP SWAP3 POP SWAP3 SWAP1 POP JUMP JUMPDEST PUSH0 DUP2 MLOAD DUP1 DUP5 MSTORE DUP1 PUSH1 0x20 DUP5 ADD PUSH1 0x20 DUP7 ADD MCOPY PUSH0 PUSH1 0x20 DUP3 DUP7 ADD ADD MSTORE PUSH1 0x20 PUSH1 0x1F NOT PUSH1 0x1F DUP4 ADD AND DUP6 ADD ADD SWAP2 POP POP SWAP3 SWAP2 POP POP JUMP JUMPDEST PUSH2 0x180 DUP2 MSTORE PUSH0 PUSH2 0x38E0 PUSH2 0x180 DUP4 ADD DUP16 PUSH2 0x389E JUMP JUMPDEST PUSH1 0x20 DUP4 ADD SWAP14 SWAP1 SWAP14 MSTORE POP SWAP10 ISZERO ISZERO PUSH1 0x40 DUP12 ADD MSTORE SWAP8 ISZERO ISZERO PUSH1 0x60 DUP11 ADD MSTORE PUSH1 0x80 DUP10 ADD SWAP7 SWAP1 SWAP7 MSTORE PUSH1 0xA0 DUP9 ADD SWAP5 SWAP1 SWAP5 MSTORE PUSH1 0xC0 DUP8 ADD SWAP3 SWAP1 SWAP3 MSTORE PUSH1 0xE0 DUP7 ADD MSTORE PUSH2 0x100 DUP6 ADD MSTORE PUSH2 0x120 DUP5 ADD MSTORE PUSH2 0x140 DUP4 ADD MSTORE PUSH2 0x160 SWAP1 SWAP2 ADD MSTORE SWAP2 SWAP1 POP JUMP JUMPDEST DUP1 ISZERO ISZERO DUP2 EQ PUSH2 0x26EA JUMPI PUSH0 PUSH0 REVERT JUMPDEST PUSH0 PUSH0 PUSH1 0x40 DUP4 DUP6 SUB SLT ISZERO PUSH2 0x3952 JUMPI PUSH0 PUSH0 REVERT JUMPDEST DUP3 CALLDATALOAD SWAP2 POP PUSH1 0x20 DUP4 ADD CALLDATALOAD PUSH2 0x3964 DUP2 PUSH2 0x3934 JUMP JUMPDEST DUP1 SWAP2 POP POP SWAP3 POP SWAP3 SWAP1 POP JUMP JUMPDEST PUSH4 0x4E487B71 PUSH1 0xE0 SHL PUSH0 MSTORE PUSH1 0x41 PUSH1 0x4 MSTORE PUSH1 0x24 PUSH0 REVERT JUMPDEST PUSH1 0x40 MLOAD PUSH1 0x1F DUP3 ADD PUSH1 0x1F NOT AND DUP2 ADD PUSH1 0x1 PUSH1 0x1 PUSH1 0x40 SHL SUB DUP2 GT DUP3 DUP3 LT OR ISZERO PUSH2 0x39AB JUMPI PUSH2 0x39AB PUSH2 0x396F JUMP JUMPDEST PUSH1 0x40 MSTORE SWAP2 SWAP1 POP JUMP JUMPDEST PUSH0 DUP3 PUSH1 0x1F DUP4 ADD SLT PUSH2 0x39C2 JUMPI PUSH0 PUSH0 REVERT JUMPDEST DUP2 CALLDATALOAD PUSH1 0x1 PUSH1 0x1 PUSH1 0x40 SHL SUB DUP2 GT ISZERO PUSH2 0x39DB JUMPI PUSH2 0x39DB PUSH2 0x396F JUMP JUMPDEST PUSH2 0x39EE PUSH1 0x1F DUP3 ADD PUSH1 0x1F NOT AND PUSH1 0x20 ADD PUSH2 0x3983 JUMP JUMPDEST DUP2 DUP2 MSTORE DUP5 PUSH1 0x20 DUP4 DUP7 ADD ADD GT ISZERO PUSH2 0x3A02 JUMPI PUSH0 PUSH0 REVERT JUMPDEST DUP2 PUSH1 0x20 DUP6 ADD PUSH1 0x20 DUP4 ADD CALLDATACOPY PUSH0 SWAP2 DUP2 ADD PUSH1 0x20 ADD SWAP2 SWAP1 SWAP2 MSTORE SWAP4 SWAP3 POP POP POP JUMP JUMPDEST PUSH0 PUSH0 PUSH1 0x40 DUP4 DUP6 SUB SLT ISZERO PUSH2 0x3A2F JUMPI PUSH0 PUSH0 REVERT JUMPDEST DUP3 CALLDATALOAD PUSH1 0x1 PUSH1 0x1 PUSH1 0x40 SHL SUB DUP2 GT ISZERO PUSH2 0x3A44 JUMPI PUSH0 PUSH0 REVERT JUMPDEST PUSH2 0x3A50 DUP6 DUP3 DUP7 ADD PUSH2 0x39B3 JUMP JUMPDEST SWAP3 POP POP PUSH1 0x20 DUP4 ADD CALLDATALOAD PUSH2 0x3964 DUP2 PUSH2 0x3934 JUMP JUMPDEST PUSH0 PUSH0 PUSH1 0x40 DUP4 DUP6 SUB SLT ISZERO PUSH2 0x3A72 JUMPI PUSH0 PUSH0 REVERT JUMPDEST DUP3 CALLDATALOAD SWAP2 POP PUSH1 0x20 DUP4 ADD CALLDATALOAD PUSH1 0x1 PUSH1 0x1 PUSH1 0x40 SHL SUB DUP2 GT ISZERO PUSH2 0x3A8E JUMPI PUSH0 PUSH0 REVERT JUMPDEST PUSH2 0x3A9A DUP6 DUP3 DUP7 ADD PUSH2 0x39B3 JUMP JUMPDEST SWAP2 POP POP SWAP3 POP SWAP3 SWAP1 POP JUMP JUMPDEST PUSH1 0x20 DUP2 MSTORE PUSH0 PUSH2 0x1F67 PUSH1 0x20 DUP4 ADD DUP5 PUSH2 0x389E JUMP JUMPDEST PUSH0 PUSH0 PUSH1 0x40 DUP4 DUP6 SUB SLT ISZERO PUSH2 0x3AC7 JUMPI PUSH0 PUSH0 REVERT JUMPDEST PUSH2 0x3AD0 DUP4 PUSH2 0x37E2 JUMP JUMPDEST SWAP5 PUSH1 0x20 SWAP4 SWAP1 SWAP4 ADD CALLDATALOAD SWAP4 POP POP POP JUMP JUMPDEST PUSH0 PUSH1 0x20 DUP3 DUP5 SUB SLT ISZERO PUSH2 0x3AEE JUMPI PUSH0 PUSH0 REVERT JUMPDEST DUP2 CALLDATALOAD PUSH2 0x1F67 DUP2 PUSH2 0x3934 JUMP JUMPDEST PUSH0 PUSH1 0x20 DUP3 DUP5 SUB SLT ISZERO PUSH2 0x3B09 JUMPI PUSH0 PUSH0 REVERT JUMPDEST DUP2 CALLDATALOAD PUSH1 0x1 PUSH1 0x1 PUSH1 0x40 SHL SUB DUP2 GT ISZERO PUSH2 0x3B1E JUMPI PUSH0 PUSH0 REVERT JUMPDEST PUSH2 0x869 DUP5 DUP3 DUP6 ADD PUSH2 0x39B3 JUMP JUMPDEST PUSH0 PUSH1 0x1 PUSH1 0x1 PUSH1 0x40 SHL SUB DUP3 GT ISZERO PUSH2 0x3B42 JUMPI PUSH2 0x3B42 PUSH2 0x396F JUMP JUMPDEST POP PUSH1 0x5 SHL PUSH1 0x20 ADD SWAP1 JUMP JUMPDEST PUSH0 DUP3 PUSH1 0x1F DUP4 ADD SLT PUSH2 0x3B5B JUMPI PUSH0 PUSH0 REVERT JUMPDEST DUP2 CALLDATALOAD PUSH2 0x3B6E PUSH2 0x3B69 DUP3 PUSH2 0x3B2A JUMP JUMPDEST PUSH2 0x3983 JUMP JUMPDEST DUP1 DUP3 DUP3 MSTORE PUSH1 0x20 DUP3 ADD SWAP2 POP PUSH1 0x20 DUP4 PUSH1 0x5 SHL DUP7 ADD ADD SWAP3 POP DUP6 DUP4 GT ISZERO PUSH2 0x3B8F JUMPI PUSH0 PUSH0 REVERT JUMPDEST PUSH1 0x20 DUP6 ADD JUMPDEST DUP4 DUP2 LT ISZERO PUSH2 0x3BCF JUMPI DUP1 CALLDATALOAD PUSH1 0x1 PUSH1 0x1 PUSH1 0x40 SHL SUB DUP2 GT ISZERO PUSH2 0x3BB1 JUMPI PUSH0 PUSH0 REVERT JUMPDEST PUSH2 0x3BC0 DUP9 PUSH1 0x20 DUP4 DUP11 ADD ADD PUSH2 0x39B3 JUMP JUMPDEST DUP5 MSTORE POP PUSH1 0x20 SWAP3 DUP4 ADD SWAP3 ADD PUSH2 0x3B94 JUMP JUMPDEST POP SWAP6 SWAP5 POP POP POP POP POP JUMP JUMPDEST PUSH0 DUP3 PUSH1 0x1F DUP4 ADD SLT PUSH2 0x3BE8 JUMPI PUSH0 PUSH0 REVERT JUMPDEST DUP2 CALLDATALOAD PUSH2 0x3BF6 PUSH2 0x3B69 DUP3 PUSH2 0x3B2A JUMP JUMPDEST DUP1 DUP3 DUP3 MSTORE PUSH1 0x20 DUP3 ADD SWAP2 POP PUSH1 0x20 DUP4 PUSH1 0x5 SHL DUP7 ADD ADD SWAP3 POP DUP6 DUP4 GT ISZERO PUSH2 0x3C17 JUMPI PUSH0 PUSH0 REVERT JUMPDEST PUSH1 0x20 DUP6 ADD JUMPDEST DUP4 DUP2 LT ISZERO PUSH2 0x3BCF JUMPI DUP1 CALLDATALOAD DUP4 MSTORE PUSH1 0x20 SWAP3 DUP4 ADD SWAP3 ADD PUSH2 0x3C1C JUMP JUMPDEST PUSH0 PUSH0 PUSH0 PUSH0 PUSH0 PUSH0 PUSH0 PUSH0 PUSH0 PUSH2 0x120 DUP11 DUP13 SUB SLT ISZERO PUSH2 0x3C4D JUMPI PUSH0 PUSH0 REVERT JUMPDEST PUSH2 0x3C56 DUP11 PUSH2 0x37E2 JUMP JUMPDEST SWAP9 POP PUSH2 0x3C64 PUSH1 0x20 DUP12 ADD PUSH2 0x37E2 JUMP JUMPDEST SWAP8 POP PUSH1 0x40 DUP11 ADD CALLDATALOAD SWAP7 POP PUSH1 0x60 DUP11 ADD CALLDATALOAD SWAP6 POP PUSH1 0x80 DUP11 ADD CALLDATALOAD PUSH1 0x1 PUSH1 0x1 PUSH1 0x40 SHL SUB DUP2 GT ISZERO PUSH2 0x3C8C JUMPI PUSH0 PUSH0 REVERT JUMPDEST PUSH2 0x3C98 DUP13 DUP3 DUP14 ADD PUSH2 0x3B4C JUMP JUMPDEST SWAP6 POP POP PUSH1 0xA0 DUP11 ADD CALLDATALOAD PUSH1 0x1 PUSH1 0x1 PUSH1 0x40 SHL SUB DUP2 GT ISZERO PUSH2 0x3CB3 JUMPI PUSH0 PUSH0 REVERT JUMPDEST PUSH2 0x3CBF DUP13 DUP3 DUP14 ADD PUSH2 0x3BD9 JUMP JUMPDEST SWAP5 POP POP PUSH1 0xC0 DUP11 ADD CALLDATALOAD PUSH1 0x1 PUSH1 0x1 PUSH1 0x40 SHL SUB DUP2 GT ISZERO PUSH2 0x3CDA JUMPI PUSH0 PUSH0 REVERT JUMPDEST PUSH2 0x3CE6 DUP13 DUP3 DUP14 ADD PUSH2 0x3BD9 JUMP JUMPDEST SWAP4 POP POP PUSH1 0xE0 DUP11 ADD CALLDATALOAD PUSH1 0x1 PUSH1 0x1 PUSH1 0x40 SHL SUB DUP2 GT ISZERO PUSH2 0x3D01 JUMPI PUSH0 PUSH0 REVERT JUMPDEST PUSH2 0x3D0D DUP13 DUP3 DUP14 ADD PUSH2 0x3BD9 JUMP JUMPDEST SWAP3 POP POP PUSH2 0x100 DUP11 ADD CALLDATALOAD PUSH1 0x1 PUSH1 0x1 PUSH1 0x40 SHL SUB DUP2 GT ISZERO PUSH2 0x3D29 JUMPI PUSH0 PUSH0 REVERT JUMPDEST PUSH2 0x3D35 DUP13 DUP3 DUP14 ADD PUSH2 0x3BD9 JUMP JUMPDEST SWAP2 POP POP SWAP3 SWAP6 SWAP9 POP SWAP3 SWAP6 SWAP9 POP SWAP3 SWAP6 SWAP9 JUMP JUMPDEST PUSH4 0x4E487B71 PUSH1 0xE0 SHL PUSH0 MSTORE PUSH1 0x11 PUSH1 0x4 MSTORE PUSH1 0x24 PUSH0 REVERT JUMPDEST DUP2 DUP2 SUB DUP2 DUP2 GT ISZERO PUSH2 0x781 JUMPI PUSH2 0x781 PUSH2 0x3D45 JUMP JUMPDEST PUSH0 DUP3 PUSH2 0x3D86 JUMPI PUSH4 0x4E487B71 PUSH1 0xE0 SHL PUSH0 MSTORE PUSH1 0x12 PUSH1 0x4 MSTORE PUSH1 0x24 PUSH0 REVERT JUMPDEST POP DIV SWAP1 JUMP JUMPDEST DUP1 DUP3 MUL DUP2 ISZERO DUP3 DUP3 DIV DUP5 EQ OR PUSH2 0x781 JUMPI PUSH2 0x781 PUSH2 0x3D45 JUMP JUMPDEST DUP1 DUP3 ADD DUP1 DUP3 GT ISZERO PUSH2 0x781 JUMPI PUSH2 0x781 PUSH2 0x3D45 JUMP JUMPDEST PUSH4 0x4E487B71 PUSH1 0xE0 SHL PUSH0 MSTORE PUSH1 0x32 PUSH1 0x4 MSTORE PUSH1 0x24 PUSH0 REVERT JUMPDEST PUSH0 PUSH1 0x20 DUP3 DUP5 SUB SLT ISZERO PUSH2 0x3DD9 JUMPI PUSH0 PUSH0 REVERT JUMPDEST DUP2 MLOAD PUSH2 0x1F67 DUP2 PUSH2 0x3934 JUMP JUMPDEST PUSH0 PUSH1 0x1 DUP3 ADD PUSH2 0x3DF5 JUMPI PUSH2 0x3DF5 PUSH2 0x3D45 JUMP JUMPDEST POP PUSH1 0x1 ADD SWAP1 JUMP JUMPDEST PUSH1 0x1 DUP2 DUP2 SHR SWAP1 DUP3 AND DUP1 PUSH2 0x3E10 JUMPI PUSH1 0x7F DUP3 AND SWAP2 POP JUMPDEST PUSH1 0x20 DUP3 LT DUP2 SUB PUSH2 0x92F JUMPI PUSH4 0x4E487B71 PUSH1 0xE0 SHL PUSH0 MSTORE PUSH1 0x22 PUSH1 0x4 MSTORE PUSH1 0x24 PUSH0 REVERT JUMPDEST PUSH1 0x20 DUP1 DUP3 MSTORE PUSH1 0x2A SWAP1 DUP3 ADD MSTORE PUSH32 0x4E6F2061637469766520666F7265766572206C6F636B2065786973747320666F PUSH1 0x40 DUP3 ADD MSTORE PUSH10 0x39103A3432903AB9B2B9 PUSH1 0xB1 SHL PUSH1 0x60 DUP3 ADD MSTORE PUSH1 0x80 ADD SWAP1 JUMP JUMPDEST PUSH0 DUP2 MLOAD DUP1 PUSH1 0x20 DUP5 ADD DUP6 MCOPY PUSH0 SWAP4 ADD SWAP3 DUP4 MSTORE POP SWAP1 SWAP2 SWAP1 POP JUMP JUMPDEST PUSH0 PUSH2 0x1F67 DUP3 DUP5 PUSH2 0x3E78 JUMP JUMPDEST PUSH0 PUSH0 DUP4 SLOAD PUSH2 0x3EA7 DUP2 PUSH2 0x3DFC JUMP JUMPDEST PUSH1 0x1 DUP3 AND DUP1 ISZERO PUSH2 0x3EBE JUMPI PUSH1 0x1 DUP2 EQ PUSH2 0x3ED3 JUMPI PUSH2 0x3F00 JUMP JUMPDEST PUSH1 0xFF NOT DUP4 AND DUP7 MSTORE DUP2 ISZERO ISZERO DUP3 MUL DUP7 ADD SWAP4 POP PUSH2 0x3F00 JUMP JUMPDEST DUP7 PUSH0 MSTORE PUSH1 0x20 PUSH0 KECCAK256 PUSH0 JUMPDEST DUP4 DUP2 LT ISZERO PUSH2 0x3EF8 JUMPI DUP2 SLOAD DUP9 DUP3 ADD MSTORE PUSH1 0x1 SWAP1 SWAP2 ADD SWAP1 PUSH1 0x20 ADD PUSH2 0x3EDC JUMP JUMPDEST POP POP DUP2 DUP7 ADD SWAP4 POP JUMPDEST POP SWAP2 SWAP6 SWAP5 POP POP POP POP POP JUMP JUMPDEST PUSH0 PUSH1 0x20 DUP3 DUP5 SUB SLT ISZERO PUSH2 0x3F1B JUMPI PUSH0 PUSH0 REVERT JUMPDEST POP MLOAD SWAP2 SWAP1 POP JUMP JUMPDEST PUSH4 0x4E487B71 PUSH1 0xE0 SHL PUSH0 MSTORE PUSH1 0x31 PUSH1 0x4 MSTORE PUSH1 0x24 PUSH0 REVERT JUMPDEST PUSH1 0x20 DUP1 DUP3 MSTORE PUSH1 0x24 SWAP1 DUP3 ADD MSTORE PUSH32 0x416D6F756E742069732062656C6F7720746865206D696E696D756D2072657175 PUSH1 0x40 DUP3 ADD MSTORE PUSH4 0x1A5C9959 PUSH1 0xE2 SHL PUSH1 0x60 DUP3 ADD MSTORE PUSH1 0x80 ADD SWAP1 JUMP JUMPDEST PUSH1 0x1F DUP3 GT ISZERO PUSH2 0xBF6 JUMPI DUP1 PUSH0 MSTORE PUSH1 0x20 PUSH0 KECCAK256 PUSH1 0x1F DUP5 ADD PUSH1 0x5 SHR DUP2 ADD PUSH1 0x20 DUP6 LT ISZERO PUSH2 0x3F9F JUMPI POP DUP1 JUMPDEST PUSH1 0x1F DUP5 ADD PUSH1 0x5 SHR DUP3 ADD SWAP2 POP JUMPDEST DUP2 DUP2 LT ISZERO PUSH2 0x3FBE JUMPI PUSH0 DUP2 SSTORE PUSH1 0x1 ADD PUSH2 0x3FAB JUMP JUMPDEST POP POP POP POP POP JUMP JUMPDEST DUP2 MLOAD PUSH1 0x1 PUSH1 0x1 PUSH1 0x40 SHL SUB DUP2 GT ISZERO PUSH2 0x3FDE JUMPI PUSH2 0x3FDE PUSH2 0x396F JUMP JUMPDEST PUSH2 0x3FF2 DUP2 PUSH2 0x3FEC DUP5 SLOAD PUSH2 0x3DFC JUMP JUMPDEST DUP5 PUSH2 0x3F7A JUMP JUMPDEST PUSH1 0x20 PUSH1 0x1F DUP3 GT PUSH1 0x1 DUP2 EQ PUSH2 0x4024 JUMPI PUSH0 DUP4 ISZERO PUSH2 0x400D JUMPI POP DUP5 DUP3 ADD MLOAD JUMPDEST PUSH0 NOT PUSH1 0x3 DUP6 SWAP1 SHL SHR NOT AND PUSH1 0x1 DUP5 SWAP1 SHL OR DUP5 SSTORE PUSH2 0x3FBE JUMP JUMPDEST PUSH0 DUP5 DUP2 MSTORE PUSH1 0x20 DUP2 KECCAK256 PUSH1 0x1F NOT DUP6 AND SWAP2 JUMPDEST DUP3 DUP2 LT ISZERO PUSH2 0x4053 JUMPI DUP8 DUP6 ADD MLOAD DUP3 SSTORE PUSH1 0x20 SWAP5 DUP6 ADD SWAP5 PUSH1 0x1 SWAP1 SWAP3 ADD SWAP2 ADD PUSH2 0x4033 JUMP JUMPDEST POP DUP5 DUP3 LT ISZERO PUSH2 0x4070 JUMPI DUP7 DUP5 ADD MLOAD PUSH0 NOT PUSH1 0x3 DUP8 SWAP1 SHL PUSH1 0xF8 AND SHR NOT AND DUP2 SSTORE JUMPDEST POP POP POP POP PUSH1 0x1 SWAP1 DUP2 SHL ADD SWAP1 SSTORE POP JUMP JUMPDEST DUP4 DUP2 MSTORE PUSH1 0x60 PUSH1 0x20 DUP3 ADD MSTORE PUSH0 PUSH2 0x4097 PUSH1 0x60 DUP4 ADD DUP6 PUSH2 0x389E JUMP JUMPDEST SWAP1 POP DUP3 PUSH1 0x40 DUP4 ADD MSTORE SWAP5 SWAP4 POP POP POP POP JUMP JUMPDEST PUSH32 0x416363657373436F6E74726F6C3A206163636F756E7420000000000000000000 DUP2 MSTORE PUSH0 PUSH2 0x40D8 PUSH1 0x17 DUP4 ADD DUP6 PUSH2 0x3E78 JUMP JUMPDEST PUSH17 0x1034B99036B4B9B9B4B733903937B6329 PUSH1 0x7D SHL DUP2 MSTORE PUSH2 0x13B4 PUSH1 0x11 DUP3 ADD DUP6 PUSH2 0x3E78 JUMP JUMPDEST PUSH0 DUP2 PUSH2 0x410A JUMPI PUSH2 0x410A PUSH2 0x3D45 JUMP JUMPDEST POP PUSH0 NOT ADD SWAP1 JUMP INVALID LOG4 SWAP9 SMOD KECCAK256 TLOAD RETF 0xD3 SSTORE MULMOD 0x2E CREATE2 0xA8 LOG1 DUP16 JUMP 0xE8 SWAP2 EXTCODECOPY DELEGATECALL LOG2 ADD EXTSTATICCALL 0xE2 DUP8 DUP3 JUMPDEST MULMOD JUMP SWAP4 0xC2 OR PUSH22 0xA26469706673582212207BEBB05E8B40ACA8283EC0B6 0xDE AND PUSH21 0xB4C044E5D6517E3370E35F6FCD1DEFE0FA64736F6C PUSH4 0x4300081E STOP CALLER "
		},
		"gasEstimates": {
			"creation": {
				"codeDepositCost": "3348600",
				"executionCost": "3729",
				"totalCost": "3352329"
			},
			"external": {
				"DEFAULT_ADMIN_ROLE()": "316",
				"Pools(uint256)": "infinite",
				"claimRewards()": "infinite",
				"claimedRewardId(address)": "2638",
				"compoundRewards(bool)": "infinite",
				"countRewards(uint256,uint256)": "infinite",
				"currentIdRewards()": "2371",
				"decayInterval()": "2372",
				"foreverStakeId(address)": "2660",
				"getActiveLockId(address)": "infinite",
				"getIncrementedAmount(uint256,uint256)": "2595",
				"getPoolDataByRewardId(uint256,string)": "infinite",
				"getRewardsPending(address)": "infinite",
				"getRoleAdmin(bytes32)": "2476",
				"getTotalLocks(address)": "4775",
				"getveAlvaAmount(uint256,string)": "infinite",
				"grantRole(bytes32,address)": "infinite",
				"hasRole(bytes32,address)": "2773",
				"increaseAmount(uint256,bool)": "infinite",
				"initialize(address,address,uint256,uint256,string[],uint256[],uint256[],uint256[],uint256[])": "infinite",
				"minimumRewardAmount()": "2372",
				"minimumStakingAmount()": "2328",
				"paused()": "2392",
				"poolInfo(string)": "infinite",
				"renewStaking(uint256,string)": "infinite",
				"renounceRole(bytes32,address)": "29152",
				"resetRewardID()": "5247",
				"resetStarttime(uint256)": "22421",
				"revokeRole(bytes32,address)": "infinite",
				"rewardEligibleIds(address,uint256)": "4791",
				"rewardInfo(uint256)": "6815",
				"rewardPeriodCount()": "2574",
				"stake(uint256,string)": "infinite",
				"stakeId()": "2396",
				"stakeInfo(uint256)": "infinite",
				"startTime()": "2351",
				"supportsInterface(bytes4)": "503",
				"topUpRewards()": "infinite",
				"unallocatedRewards()": "2373",
				"unstake()": "infinite",
				"updateDecayInterval(uint256)": "infinite",
				"updateMinStakingAmount(uint256)": "infinite",
				"updateMinimumRewardAmount(uint256)": "infinite",
				"updatePoolStatus(string,bool)": "infinite",
				"updateWithdrawalPercentage(uint256)": "infinite",
				"userReward(address)": "2552",
				"userStakeIds(address,uint256)": "4880",
				"vaultWithdrawalPercentage()": "2350",
				"veAlvaBalance(address)": "11460"
			},
			"internal": {
				"_calculateRewards(uint256,uint256,uint256)": "infinite",
				"_claimRewards()": "infinite",
				"_finalizeForeverLockRewards()": "infinite",
				"_finalizeTimeBaseRewards(uint256)": "infinite",
				"_increaseAmount(uint256,uint256)": "infinite",
				"_stake(uint256,uint256,uint256,string memory,uint256)": "infinite"
			}
		},
		"methodIdentifiers": {
			"DEFAULT_ADMIN_ROLE()": "a217fddf",
			"Pools(uint256)": "73dfccca",
			"claimRewards()": "372500ab",
			"claimedRewardId(address)": "dbf76835",
			"compoundRewards(bool)": "c86a0d16",
			"countRewards(uint256,uint256)": "45434445",
			"currentIdRewards()": "f9f16788",
			"decayInterval()": "b6334aee",
			"foreverStakeId(address)": "de2ca1ee",
			"getActiveLockId(address)": "15500991",
			"getIncrementedAmount(uint256,uint256)": "27c1a812",
			"getPoolDataByRewardId(uint256,string)": "744f90a7",
			"getRewardsPending(address)": "5ab2d62f",
			"getRoleAdmin(bytes32)": "248a9ca3",
			"getTotalLocks(address)": "5bae5e54",
			"getveAlvaAmount(uint256,string)": "b397e572",
			"grantRole(bytes32,address)": "2f2ff15d",
			"hasRole(bytes32,address)": "91d14854",
			"increaseAmount(uint256,bool)": "507f1305",
			"initialize(address,address,uint256,uint256,string[],uint256[],uint256[],uint256[],uint256[])": "fff9e917",
			"minimumRewardAmount()": "e27c8ad5",
			"minimumStakingAmount()": "b0d2d011",
			"paused()": "5c975abb",
			"poolInfo(string)": "ff7ca16f",
			"renewStaking(uint256,string)": "720b3ad3",
			"renounceRole(bytes32,address)": "36568abe",
			"resetRewardID()": "dba3a27d",
			"resetStarttime(uint256)": "bbbeff8c",
			"revokeRole(bytes32,address)": "d547741f",
			"rewardEligibleIds(address,uint256)": "f327af18",
			"rewardInfo(uint256)": "81a00f83",
			"rewardPeriodCount()": "c38474c0",
			"stake(uint256,string)": "e7e4e1f7",
			"stakeId()": "1254eb93",
			"stakeInfo(uint256)": "4e533572",
			"startTime()": "78e97925",
			"supportsInterface(bytes4)": "01ffc9a7",
			"topUpRewards()": "5d1dccb1",
			"unallocatedRewards()": "2b6fdc7e",
			"unstake()": "2def6620",
			"updateDecayInterval(uint256)": "43cdab57",
			"updateMinStakingAmount(uint256)": "1bd067c5",
			"updateMinimumRewardAmount(uint256)": "d3f52d00",
			"updatePoolStatus(string,bool)": "5c5c0d60",
			"updateWithdrawalPercentage(uint256)": "abd8a033",
			"userReward(address)": "000a74be",
			"userStakeIds(address,uint256)": "c517841c",
			"vaultWithdrawalPercentage()": "df3100d4",
			"veAlvaBalance(address)": "02e4923c"
		}
	},
	"abi": [
		{
			"inputs": [],
			"stateMutability": "nonpayable",
			"type": "constructor"
		},
		{
			"anonymous": false,
			"inputs": [
				{
					"indexed": true,
					"internalType": "uint256",
					"name": "_stakeId",
					"type": "uint256"
				},
				{
					"indexed": false,
					"internalType": "uint256",
					"name": "amount",
					"type": "uint256"
				},
				{
					"indexed": false,
					"internalType": "uint256",
					"name": "rewardAmount",
					"type": "uint256"
				},
				{
					"indexed": false,
					"internalType": "uint256",
					"name": "veAlva",
					"type": "uint256"
				}
			],
			"name": "Compounded",
			"type": "event"
		},
		{
			"anonymous": false,
			"inputs": [
				{
					"indexed": false,
					"internalType": "uint8",
					"name": "version",
					"type": "uint8"
				}
			],
			"name": "Initialized",
			"type": "event"
		},
		{
			"anonymous": false,
			"inputs": [
				{
					"indexed": true,
					"internalType": "uint256",
					"name": "previousLockId",
					"type": "uint256"
				},
				{
					"indexed": true,
					"internalType": "uint256",
					"name": "newLockId",
					"type": "uint256"
				}
			],
			"name": "LockRenewed",
			"type": "event"
		},
		{
			"anonymous": false,
			"inputs": [
				{
					"indexed": false,
					"internalType": "address",
					"name": "account",
					"type": "address"
				}
			],
			"name": "Paused",
			"type": "event"
		},
		{
			"anonymous": false,
			"inputs": [
				{
					"indexed": true,
					"internalType": "uint256",
					"name": "rewardId",
					"type": "uint256"
				},
				{
					"indexed": false,
					"internalType": "uint256",
					"name": "amount",
					"type": "uint256"
				}
			],
			"name": "RewardsAdded",
			"type": "event"
		},
		{
			"anonymous": false,
			"inputs": [
				{
					"indexed": true,
					"internalType": "address",
					"name": "account",
					"type": "address"
				},
				{
					"indexed": false,
					"internalType": "uint256",
					"name": "rewardAmount",
					"type": "uint256"
				}
			],
			"name": "RewardsClaimed",
			"type": "event"
		},
		{
			"anonymous": false,
			"inputs": [
				{
					"indexed": true,
					"internalType": "address",
					"name": "account",
					"type": "address"
				},
				{
					"indexed": false,
					"internalType": "uint256",
					"name": "rewardAmount",
					"type": "uint256"
				}
			],
			"name": "RewardsCorrected",
			"type": "event"
		},
		{
			"anonymous": false,
			"inputs": [
				{
					"indexed": true,
					"internalType": "bytes32",
					"name": "role",
					"type": "bytes32"
				},
				{
					"indexed": true,
					"internalType": "bytes32",
					"name": "previousAdminRole",
					"type": "bytes32"
				},
				{
					"indexed": true,
					"internalType": "bytes32",
					"name": "newAdminRole",
					"type": "bytes32"
				}
			],
			"name": "RoleAdminChanged",
			"type": "event"
		},
		{
			"anonymous": false,
			"inputs": [
				{
					"indexed": true,
					"internalType": "bytes32",
					"name": "role",
					"type": "bytes32"
				},
				{
					"indexed": true,
					"internalType": "address",
					"name": "account",
					"type": "address"
				},
				{
					"indexed": true,
					"internalType": "address",
					"name": "sender",
					"type": "address"
				}
			],
			"name": "RoleGranted",
			"type": "event"
		},
		{
			"anonymous": false,
			"inputs": [
				{
					"indexed": true,
					"internalType": "bytes32",
					"name": "role",
					"type": "bytes32"
				},
				{
					"indexed": true,
					"internalType": "address",
					"name": "account",
					"type": "address"
				},
				{
					"indexed": true,
					"internalType": "address",
					"name": "sender",
					"type": "address"
				}
			],
			"name": "RoleRevoked",
			"type": "event"
		},
		{
			"anonymous": false,
			"inputs": [
				{
					"indexed": true,
					"internalType": "uint256",
					"name": "_stakeId",
					"type": "uint256"
				},
				{
					"indexed": false,
					"internalType": "uint256",
					"name": "amount",
					"type": "uint256"
				},
				{
					"indexed": false,
					"internalType": "uint256",
					"name": "veAlva",
					"type": "uint256"
				}
			],
			"name": "StakedAmountIncreased",
			"type": "event"
		},
		{
			"anonymous": false,
			"inputs": [
				{
					"indexed": true,
					"internalType": "uint256",
					"name": "_stakeId",
					"type": "uint256"
				},
				{
					"indexed": true,
					"internalType": "address",
					"name": "account",
					"type": "address"
				},
				{
					"indexed": false,
					"internalType": "uint256",
					"name": "amount",
					"type": "uint256"
				},
				{
					"indexed": false,
					"internalType": "string",
					"name": "pool",
					"type": "string"
				},
				{
					"indexed": false,
					"internalType": "uint256",
					"name": "veAlva",
					"type": "uint256"
				}
			],
			"name": "TokensStaked",
			"type": "event"
		},
		{
			"anonymous": false,
			"inputs": [
				{
					"indexed": false,
					"internalType": "address",
					"name": "account",
					"type": "address"
				}
			],
			"name": "Unpaused",
			"type": "event"
		},
		{
			"anonymous": false,
			"inputs": [
				{
					"indexed": true,
					"internalType": "address",
					"name": "account",
					"type": "address"
				},
				{
					"indexed": true,
					"internalType": "uint256",
					"name": "_stakeId",
					"type": "uint256"
				},
				{
					"indexed": false,
					"internalType": "uint256",
					"name": "endTime",
					"type": "uint256"
				}
			],
			"name": "Withdrawn",
			"type": "event"
		},
		{
			"inputs": [],
			"name": "DEFAULT_ADMIN_ROLE",
			"outputs": [
				{
					"internalType": "bytes32",
					"name": "",
					"type": "bytes32"
				}
			],
			"stateMutability": "view",
			"type": "function"
		},
		{
			"inputs": [
				{
					"internalType": "uint256",
					"name": "",
					"type": "uint256"
				}
			],
			"name": "Pools",
			"outputs": [
				{
					"internalType": "string",
					"name": "",
					"type": "string"
				}
			],
			"stateMutability": "view",
			"type": "function"
		},
		{
			"inputs": [],
			"name": "claimRewards",
			"outputs": [],
			"stateMutability": "nonpayable",
			"type": "function"
		},
		{
			"inputs": [
				{
					"internalType": "address",
					"name": "",
					"type": "address"
				}
			],
			"name": "claimedRewardId",
			"outputs": [
				{
					"internalType": "uint256",
					"name": "",
					"type": "uint256"
				}
			],
			"stateMutability": "view",
			"type": "function"
		},
		{
			"inputs": [
				{
					"internalType": "bool",
					"name": "isForever",
					"type": "bool"
				}
			],
			"name": "compoundRewards",
			"outputs": [],
			"stateMutability": "nonpayable",
			"type": "function"
		},
		{
			"inputs": [
				{
					"internalType": "uint256",
					"name": "_stakeId",
					"type": "uint256"
				},
				{
					"internalType": "uint256",
					"name": "batchSize",
					"type": "uint256"
				}
			],
			"name": "countRewards",
			"outputs": [
				{
					"internalType": "uint256",
					"name": "rewardAmount",
					"type": "uint256"
				},
				{
					"internalType": "uint256",
					"name": "openingRewardId",
					"type": "uint256"
				},
				{
					"internalType": "uint256",
					"name": "incrementedAmount",
					"type": "uint256"
				}
			],
			"stateMutability": "view",
			"type": "function"
		},
		{
			"inputs": [],
			"name": "currentIdRewards",
			"outputs": [
				{
					"internalType": "uint256",
					"name": "",
					"type": "uint256"
				}
			],
			"stateMutability": "view",
			"type": "function"
		},
		{
			"inputs": [],
			"name": "decayInterval",
			"outputs": [
				{
					"internalType": "uint256",
					"name": "",
					"type": "uint256"
				}
			],
			"stateMutability": "view",
			"type": "function"
		},
		{
			"inputs": [
				{
					"internalType": "address",
					"name": "",
					"type": "address"
				}
			],
			"name": "foreverStakeId",
			"outputs": [
				{
					"internalType": "uint256",
					"name": "",
					"type": "uint256"
				}
			],
			"stateMutability": "view",
			"type": "function"
		},
		{
			"inputs": [
				{
					"internalType": "address",
					"name": "account",
					"type": "address"
				}
			],
			"name": "getActiveLockId",
			"outputs": [
				{
					"internalType": "uint256",
					"name": "timebaseId",
					"type": "uint256"
				}
			],
			"stateMutability": "view",
			"type": "function"
		},
		{
			"inputs": [
				{
					"internalType": "uint256",
					"name": "_stakeId",
					"type": "uint256"
				},
				{
					"internalType": "uint256",
					"name": "rewardId",
					"type": "uint256"
				}
			],
			"name": "getIncrementedAmount",
			"outputs": [
				{
					"internalType": "uint256",
					"name": "amount",
					"type": "uint256"
				}
			],
			"stateMutability": "view",
			"type": "function"
		},
		{
			"inputs": [
				{
					"internalType": "uint256",
					"name": "rewardId",
					"type": "uint256"
				},
				{
					"internalType": "string",
					"name": "pool",
					"type": "string"
				}
			],
			"name": "getPoolDataByRewardId",
			"outputs": [
				{
					"internalType": "uint256",
					"name": "poolToAmountLocked",
					"type": "uint256"
				},
				{
					"internalType": "uint256",
					"name": "poolToNewAmount",
					"type": "uint256"
				},
				{
					"internalType": "uint256",
					"name": "poolToExpiredAmount",
					"type": "uint256"
				}
			],
			"stateMutability": "view",
			"type": "function"
		},
		{
			"inputs": [
				{
					"internalType": "address",
					"name": "account",
					"type": "address"
				}
			],
			"name": "getRewardsPending",
			"outputs": [
				{
					"internalType": "uint256",
					"name": "totalReward",
					"type": "uint256"
				}
			],
			"stateMutability": "view",
			"type": "function"
		},
		{
			"inputs": [
				{
					"internalType": "bytes32",
					"name": "role",
					"type": "bytes32"
				}
			],
			"name": "getRoleAdmin",
			"outputs": [
				{
					"internalType": "bytes32",
					"name": "",
					"type": "bytes32"
				}
			],
			"stateMutability": "view",
			"type": "function"
		},
		{
			"inputs": [
				{
					"internalType": "address",
					"name": "account",
					"type": "address"
				}
			],
			"name": "getTotalLocks",
			"outputs": [
				{
					"internalType": "uint256",
					"name": "userLocksTotal",
					"type": "uint256"
				},
				{
					"internalType": "uint256",
					"name": "userRewardEligibleLocks",
					"type": "uint256"
				}
			],
			"stateMutability": "view",
			"type": "function"
		},
		{
			"inputs": [
				{
					"internalType": "uint256",
					"name": "amount",
					"type": "uint256"
				},
				{
					"internalType": "string",
					"name": "pool",
					"type": "string"
				}
			],
			"name": "getveAlvaAmount",
			"outputs": [
				{
					"internalType": "uint256",
					"name": "",
					"type": "uint256"
				}
			],
			"stateMutability": "view",
			"type": "function"
		},
		{
			"inputs": [
				{
					"internalType": "bytes32",
					"name": "role",
					"type": "bytes32"
				},
				{
					"internalType": "address",
					"name": "account",
					"type": "address"
				}
			],
			"name": "grantRole",
			"outputs": [],
			"stateMutability": "nonpayable",
			"type": "function"
		},
		{
			"inputs": [
				{
					"internalType": "bytes32",
					"name": "role",
					"type": "bytes32"
				},
				{
					"internalType": "address",
					"name": "account",
					"type": "address"
				}
			],
			"name": "hasRole",
			"outputs": [
				{
					"internalType": "bool",
					"name": "",
					"type": "bool"
				}
			],
			"stateMutability": "view",
			"type": "function"
		},
		{
			"inputs": [
				{
					"internalType": "uint256",
					"name": "amount",
					"type": "uint256"
				},
				{
					"internalType": "bool",
					"name": "isForever",
					"type": "bool"
				}
			],
			"name": "increaseAmount",
			"outputs": [],
			"stateMutability": "nonpayable",
			"type": "function"
		},
		{
			"inputs": [
				{
					"internalType": "address",
					"name": "_alva",
					"type": "address"
				},
				{
					"internalType": "address",
					"name": "_veAlva",
					"type": "address"
				},
				{
					"internalType": "uint256",
					"name": "_decayInterval",
					"type": "uint256"
				},
				{
					"internalType": "uint256",
					"name": "_startTime",
					"type": "uint256"
				},
				{
					"internalType": "string[]",
					"name": "_pools",
					"type": "string[]"
				},
				{
					"internalType": "uint256[]",
					"name": "rewards",
					"type": "uint256[]"
				},
				{
					"internalType": "uint256[]",
					"name": "veTokenRatio",
					"type": "uint256[]"
				},
				{
					"internalType": "uint256[]",
					"name": "duration",
					"type": "uint256[]"
				},
				{
					"internalType": "uint256[]",
					"name": "rewardPeriods",
					"type": "uint256[]"
				}
			],
			"name": "initialize",
			"outputs": [],
			"stateMutability": "nonpayable",
			"type": "function"
		},
		{
			"inputs": [],
			"name": "minimumRewardAmount",
			"outputs": [
				{
					"internalType": "uint256",
					"name": "",
					"type": "uint256"
				}
			],
			"stateMutability": "view",
			"type": "function"
		},
		{
			"inputs": [],
			"name": "minimumStakingAmount",
			"outputs": [
				{
					"internalType": "uint256",
					"name": "",
					"type": "uint256"
				}
			],
			"stateMutability": "view",
			"type": "function"
		},
		{
			"inputs": [],
			"name": "paused",
			"outputs": [
				{
					"internalType": "bool",
					"name": "",
					"type": "bool"
				}
			],
			"stateMutability": "view",
			"type": "function"
		},
		{
			"inputs": [
				{
					"internalType": "string",
					"name": "",
					"type": "string"
				}
			],
			"name": "poolInfo",
			"outputs": [
				{
					"internalType": "bool",
					"name": "status",
					"type": "bool"
				},
				{
					"internalType": "uint256",
					"name": "veAlvaRatio",
					"type": "uint256"
				},
				{
					"internalType": "uint256",
					"name": "poolPercentage",
					"type": "uint256"
				},
				{
					"internalType": "uint256",
					"name": "duration",
					"type": "uint256"
				},
				{
					"internalType": "uint256",
					"name": "amountLocked",
					"type": "uint256"
				},
				{
					"internalType": "uint256",
					"name": "rewardPeriods",
					"type": "uint256"
				}
			],
			"stateMutability": "view",
			"type": "function"
		},
		{
			"inputs": [
				{
					"internalType": "uint256",
					"name": "amount",
					"type": "uint256"
				},
				{
					"internalType": "string",
					"name": "pool",
					"type": "string"
				}
			],
			"name": "renewStaking",
			"outputs": [],
			"stateMutability": "nonpayable",
			"type": "function"
		},
		{
			"inputs": [
				{
					"internalType": "bytes32",
					"name": "role",
					"type": "bytes32"
				},
				{
					"internalType": "address",
					"name": "account",
					"type": "address"
				}
			],
			"name": "renounceRole",
			"outputs": [],
			"stateMutability": "nonpayable",
			"type": "function"
		},
		{
			"inputs": [],
			"name": "resetRewardID",
			"outputs": [],
			"stateMutability": "nonpayable",
			"type": "function"
		},
		{
			"inputs": [
				{
					"internalType": "uint256",
					"name": "time",
					"type": "uint256"
				}
			],
			"name": "resetStarttime",
			"outputs": [],
			"stateMutability": "nonpayable",
			"type": "function"
		},
		{
			"inputs": [
				{
					"internalType": "bytes32",
					"name": "role",
					"type": "bytes32"
				},
				{
					"internalType": "address",
					"name": "account",
					"type": "address"
				}
			],
			"name": "revokeRole",
			"outputs": [],
			"stateMutability": "nonpayable",
			"type": "function"
		},
		{
			"inputs": [
				{
					"internalType": "address",
					"name": "",
					"type": "address"
				},
				{
					"internalType": "uint256",
					"name": "",
					"type": "uint256"
				}
			],
			"name": "rewardEligibleIds",
			"outputs": [
				{
					"internalType": "uint256",
					"name": "",
					"type": "uint256"
				}
			],
			"stateMutability": "view",
			"type": "function"
		},
		{
			"inputs": [
				{
					"internalType": "uint256",
					"name": "",
					"type": "uint256"
				}
			],
			"name": "rewardInfo",
			"outputs": [
				{
					"internalType": "bool",
					"name": "isProcessed",
					"type": "bool"
				},
				{
					"internalType": "uint256",
					"name": "timestamp",
					"type": "uint256"
				},
				{
					"internalType": "uint256",
					"name": "amount",
					"type": "uint256"
				}
			],
			"stateMutability": "view",
			"type": "function"
		},
		{
			"inputs": [],
			"name": "rewardPeriodCount",
			"outputs": [
				{
					"internalType": "uint256",
					"name": "",
					"type": "uint256"
				}
			],
			"stateMutability": "view",
			"type": "function"
		},
		{
			"inputs": [
				{
					"internalType": "uint256",
					"name": "amount",
					"type": "uint256"
				},
				{
					"internalType": "string",
					"name": "_poolName",
					"type": "string"
				}
			],
			"name": "stake",
			"outputs": [],
			"stateMutability": "nonpayable",
			"type": "function"
		},
		{
			"inputs": [],
			"name": "stakeId",
			"outputs": [
				{
					"internalType": "uint256",
					"name": "",
					"type": "uint256"
				}
			],
			"stateMutability": "view",
			"type": "function"
		},
		{
			"inputs": [
				{
					"internalType": "uint256",
					"name": "",
					"type": "uint256"
				}
			],
			"name": "stakeInfo",
			"outputs": [
				{
					"internalType": "string",
					"name": "pool",
					"type": "string"
				},
				{
					"internalType": "uint256",
					"name": "amount",
					"type": "uint256"
				},
				{
					"internalType": "bool",
					"name": "isForever",
					"type": "bool"
				},
				{
					"internalType": "bool",
					"name": "isActive",
					"type": "bool"
				},
				{
					"internalType": "uint256",
					"name": "duration",
					"type": "uint256"
				},
				{
					"internalType": "uint256",
					"name": "startTime",
					"type": "uint256"
				},
				{
					"internalType": "uint256",
					"name": "endTime",
					"type": "uint256"
				},
				{
					"internalType": "uint256",
					"name": "votingPower",
					"type": "uint256"
				},
				{
					"internalType": "uint256",
					"name": "rewardsCurrent",
					"type": "uint256"
				},
				{
					"internalType": "uint256",
					"name": "openingRewardId",
					"type": "uint256"
				},
				{
					"internalType": "uint256",
					"name": "closingRewardId",
					"type": "uint256"
				},
				{
					"internalType": "uint256",
					"name": "totalIncremented",
					"type": "uint256"
				}
			],
			"stateMutability": "view",
			"type": "function"
		},
		{
			"inputs": [],
			"name": "startTime",
			"outputs": [
				{
					"internalType": "uint256",
					"name": "",
					"type": "uint256"
				}
			],
			"stateMutability": "view",
			"type": "function"
		},
		{
			"inputs": [
				{
					"internalType": "bytes4",
					"name": "interfaceId",
					"type": "bytes4"
				}
			],
			"name": "supportsInterface",
			"outputs": [
				{
					"internalType": "bool",
					"name": "",
					"type": "bool"
				}
			],
			"stateMutability": "view",
			"type": "function"
		},
		{
			"inputs": [],
			"name": "topUpRewards",
			"outputs": [],
			"stateMutability": "nonpayable",
			"type": "function"
		},
		{
			"inputs": [],
			"name": "unallocatedRewards",
			"outputs": [
				{
					"internalType": "uint256",
					"name": "",
					"type": "uint256"
				}
			],
			"stateMutability": "view",
			"type": "function"
		},
		{
			"inputs": [],
			"name": "unstake",
			"outputs": [],
			"stateMutability": "nonpayable",
			"type": "function"
		},
		{
			"inputs": [
				{
					"internalType": "uint256",
					"name": "newInterval",
					"type": "uint256"
				}
			],
			"name": "updateDecayInterval",
			"outputs": [],
			"stateMutability": "nonpayable",
			"type": "function"
		},
		{
			"inputs": [
				{
					"internalType": "uint256",
					"name": "amount",
					"type": "uint256"
				}
			],
			"name": "updateMinStakingAmount",
			"outputs": [],
			"stateMutability": "nonpayable",
			"type": "function"
		},
		{
			"inputs": [
				{
					"internalType": "uint256",
					"name": "amount",
					"type": "uint256"
				}
			],
			"name": "updateMinimumRewardAmount",
			"outputs": [],
			"stateMutability": "nonpayable",
			"type": "function"
		},
		{
			"inputs": [
				{
					"internalType": "string",
					"name": "pool",
					"type": "string"
				},
				{
					"internalType": "bool",
					"name": "status",
					"type": "bool"
				}
			],
			"name": "updatePoolStatus",
			"outputs": [],
			"stateMutability": "nonpayable",
			"type": "function"
		},
		{
			"inputs": [
				{
					"internalType": "uint256",
					"name": "amount",
					"type": "uint256"
				}
			],
			"name": "updateWithdrawalPercentage",
			"outputs": [],
			"stateMutability": "nonpayable",
			"type": "function"
		},
		{
			"inputs": [
				{
					"internalType": "address",
					"name": "",
					"type": "address"
				}
			],
			"name": "userReward",
			"outputs": [
				{
					"internalType": "uint256",
					"name": "",
					"type": "uint256"
				}
			],
			"stateMutability": "view",
			"type": "function"
		},
		{
			"inputs": [
				{
					"internalType": "address",
					"name": "",
					"type": "address"
				},
				{
					"internalType": "uint256",
					"name": "",
					"type": "uint256"
				}
			],
			"name": "userStakeIds",
			"outputs": [
				{
					"internalType": "uint256",
					"name": "",
					"type": "uint256"
				}
			],
			"stateMutability": "view",
			"type": "function"
		},
		{
			"inputs": [],
			"name": "vaultWithdrawalPercentage",
			"outputs": [
				{
					"internalType": "uint256",
					"name": "",
					"type": "uint256"
				}
			],
			"stateMutability": "view",
			"type": "function"
		},
		{
			"inputs": [
				{
					"internalType": "address",
					"name": "account",
					"type": "address"
				}
			],
			"name": "veAlvaBalance",
			"outputs": [
				{
					"internalType": "uint256",
					"name": "",
					"type": "uint256"
				}
			],
			"stateMutability": "view",
			"type": "function"
		}
	]
}