{
	"data": {
		"bytecode": {
			"linkReferences": {},
			"object": "6080604052348015600e575f5ffd5b5060156019565b60d3565b5f54610100900460ff161560835760405162461bcd60e51b815260206004820152602760248201527f496e697469616c697a61626c653a20636f6e747261637420697320696e697469604482015266616c697a696e6760c81b606482015260840160405180910390fd5b5f5460ff9081161460d1575f805460ff191660ff9081179091556040519081527f7f26b83ff96e1f2b6a682f133852f6798a09c465da95921460cefb38474024989060200160405180910390a15b565b61438d806100e05f395ff3fe608060405234801561000f575f5ffd5b5060043610610372575f3560e01c806375b238fc116101d4578063c142d98811610109578063e27c8ad5116100a9578063eee7f41c11610079578063eee7f41c14610859578063efb810311461086c578063f9f1678814610897578063fff9e917146108a0575f5ffd5b8063e27c8ad51461081f578063e63ab1e914610828578063e7e4e1f71461083c578063ee01e5e71461084f575f5ffd5b8063d3f52d00116100e4578063d3f52d00146107e5578063d547741f146107f8578063d8bbd46c1461080b578063df3100d414610816575f5ffd5b8063c142d98814610749578063c38474c0146107ca578063c86a0d16146107d2575f5ffd5b8063a0b80db411610174578063b0d2d0111161014f578063b0d2d01114610711578063b397e5721461071a578063b44c4fef1461072d578063b6334aee14610740575f5ffd5b8063a0b80db4146106ee578063a217fddf146106f7578063abd8a033146106fe575f5ffd5b80637f53243b116101af5780637f53243b146106a15780638456cb59146106b45780638b2d0ccf146106bc57806391d14854146106db575f5ffd5b806375b238fc1461063557806378e97925146106495780637c83e6c814610652575f5ffd5b80633f4ba83a116102aa5780635c5c0d601161024a57806366ff9f801161022557806366ff9f80146105d0578063720b3ad3146105ef57806373dfccca14610602578063744f90a714610622575f5ffd5b80635c5c0d60146105aa5780635c975abb146105bd5780635d1dccb1146105c8575f5ffd5b8063507f130511610285578063507f13051461051357806358a13b3a146105265780635ab2d62f1461054d5780635bae5e5414610560575f5ffd5b80633f4ba83a146104ca57806343cdab57146104d257806345434445146104e5575f5ffd5b80632b6fdc7e116103155780632f57c174116102f05780632f57c1741461047d578063323bf9f01461049c57806336568abe146104af578063372500ab146104c2575f5ffd5b80632b6fdc7e146104595780632def6620146104625780632f2ff15d1461046a575f5ffd5b80631698fe76116103505780631698fe76146103c95780631bd067c5146103f4578063248a9ca31461040957806327c1a8121461042b575f5ffd5b806301ffc9a71461037657806302e4923c1461039e5780630a171df8146103bf575b5f5ffd5b6103896103843660046139df565b6108b3565b60405190151581526020015b60405180910390f35b6103b16103ac366004613a21565b6108e9565b604051908152602001610395565b6103b162093a8081565b60ca546103dc906001600160a01b031681565b6040516001600160a01b039091168152602001610395565b610407610402366004613a3a565b6109d3565b005b6103b1610417366004613a3a565b5f9081526097602052604090206001015490565b6103b1610439366004613a51565b5f91825260da60209081526040808420928452600b909201905290205490565b6103b160d35481565b610407610a50565b610407610478366004613a71565b610c70565b6103b161048b366004613a21565b60d66020525f908152604090205481565b60c9546103dc906001600160a01b031681565b6104076104bd366004613a71565b610c99565b610407610d17565b610407610dd4565b6104076104e0366004613a3a565b610df6565b6104f86104f3366004613a51565b610e83565b60408051938452602084019290925290820152606001610395565b610407610521366004613aa8565b610fa1565b6103b17f4c716a0ebd1cfd3e93ca0db9b9f8a0a9cb7c1d4cc18b52950e1f5528cc73cb5d81565b6103b161055b366004613a21565b611190565b61059561056e366004613a21565b6001600160a01b03165f90815260d5602090815260408083205460d4909252909120549091565b60408051928352602083019190915201610395565b6104076105b8366004613b85565b61138b565b60335460ff16610389565b6104076114ab565b6103b16105de366004613a21565b60d86020525f908152604090205481565b6104076105fd366004613bc8565b6119e5565b610615610610366004613a3a565b611d41565b6040516103959190613c39565b6104f8610630366004613bc8565b611de7565b6103b15f5160206143385f395f51905f5281565b6103b160d25481565b610684610660366004613a3a565b60db6020525f908152604090208054600182015460029092015460ff909116919083565b604080519315158452602084019290925290820152606001610395565b6103b16106af366004613c4b565b611e8a565b610407611eb5565b6103b16106ca366004613a21565b60d76020525f908152604090205481565b6103896106e9366004613a71565b611ed4565b6103b160cc5481565b6103b15f81565b61040761070c366004613a3a565b611efe565b6103b160cf5481565b6103b1610728366004613bc8565b611f6e565b6103b161073b366004613a21565b611fb2565b6103b160ce5481565b61079b610757366004613c73565b805160208183018101805160d98252928201919093012091528054600182015460028301546003840154600485015460059095015460ff9094169492939192909186565b6040805196151587526020870195909552938501929092526060840152608083015260a082015260c001610395565b6103b1612076565b6104076107e0366004613ca4565b612098565b6104076107f3366004613a3a565b61220e565b610407610806366004613a71565b61222b565b6103b16305f5e10081565b6103b160d15481565b6103b160d05481565b6103b15f5160206143185f395f51905f5281565b61040761084a366004613bc8565b61224f565b6103b16298968081565b6103b1610867366004613c4b565b61228d565b61087f61087a366004613a3a565b6122a6565b6040516103959c9b9a99989796959493929190613cbf565b6103b160cd5481565b6104076108ae366004613e31565b612390565b5f6001600160e01b03198216637965db0b60e01b14806108e357506301ffc9a760e01b6001600160e01b03198316145b92915050565b5f5f6108f483611fb2565b5f81815260da60205260409020600681015460049091015491925090156109995760ce545f83815260da60205260408120600401549091906109369042613f56565b6109409190613f69565b60ce545f85815260da6020526040812060030154929350916109629190613f69565b90508181111561099257806109778382613f56565b6109819085613f88565b61098b9190613f69565b9250610996565b5f92505b50505b6001600160a01b0384165f90815260d86020908152604080832054835260da9091529020600601546109cb9082613f9f565b949350505050565b5f5160206143385f395f51905f526109ea81612895565b6001821015610a4a5760405162461bcd60e51b815260206004820152602160248201527f4d696e696d756d20616d6f756e74206d757374206265206174206c65617374206044820152603160f81b60648201526084015b60405180910390fd5b5060cf55565b610a5861289f565b5f610a6233611fb2565b9050805f03610aaa5760405162461bcd60e51b8152602060048201526014602482015273139bc81858dd1a5d99481b1bd8dac8199bdd5b9960621b6044820152606401610a41565b5f81815260da60205260409020600501544211610b195760405162461bcd60e51b815260206004820152602760248201527f43616e6e6f7420756e7374616b65206265666f726520746865206c6f636b20656044820152666e642074696d6560c81b6064820152608401610a41565b60c9545f82815260da60205260409081902060010154905163a9059cbb60e01b815233600482015260248101919091526001600160a01b039091169063a9059cbb906044016020604051808303815f875af1158015610b7a573d5f5f3e3d5ffd5b505050506040513d601f19601f82011682018060405250810190610b9e9190613fb2565b5060ca545f82815260da6020526040908190206006015490516306888c6760e11b815233600482015260248101919091526001600160a01b0390911690630d1118ce906044015f604051808303815f87803b158015610bfb575f5ffd5b505af1158015610c0d573d5f5f3e3d5ffd5b5050505f82815260da60205260409081902060028101805461ff001916905560050154905183925033917f92ccf450a286a957af52509bc1c9939d1a6a481783e142e41e2499f0bb66ebc691610c6591815260200190565b60405180910390a350565b5f82815260976020526040902060010154610c8a81612895565b610c9483836128e7565b505050565b6001600160a01b0381163314610d095760405162461bcd60e51b815260206004820152602f60248201527f416363657373436f6e74726f6c3a2063616e206f6e6c792072656e6f756e636560448201526e103937b632b9903337b91039b2b63360891b6064820152608401610a41565b610d13828261296c565b5050565b610d1f61289f565b5f610d286129d2565b60c95460405163a9059cbb60e01b8152336004820152602481018390529192506001600160a01b03169063a9059cbb906044016020604051808303815f875af1158015610d77573d5f5f3e3d5ffd5b505050506040513d601f19601f82011682018060405250810190610d9b9190613fb2565b5060405181815233907ffc30cddea38e2bf4d6ea7d3f9ed3b6ad7f176419f4963bd81318067a4aee73fe9060200160405180910390a250565b5f5160206143185f395f51905f52610deb81612895565b610df3612ab1565b50565b5f5160206143385f395f51905f52610e0d81612895565b5f82118015610e1f575062093a808211155b610e7d5760405162461bcd60e51b815260206004820152602960248201527f496e74657276616c2073686f756c642062652077697468696e207468652076616044820152686c69642072616e676560b81b6064820152608401610a41565b5060ce55565b5f82815260da60205260408120600181015482918291610ed75760405162461bcd60e51b815260206004820152600f60248201526e125b9d985b1a5908131bd8dac81259608a1b6044820152606401610a41565b60028101545f9060ff16610eef578160090154610ef3565b60cd545b6008830154945090505f610f078786613f9f565b5f868152600b85016020526040902054945090505b8481118015610f2a57508482115b15610f97575f85815260db602052604090206001015415610f9757610f50858986612b03565b610f5a9087613f9f565b5f868152600b8501602052604090205490965015610f85575f858152600b8401602052604090205493505b84610f8f81613fcd565b955050610f1c565b5050509250925092565b610fa961289f565b5f81156110445750335f90815260d8602052604081205490819003610fe05760405162461bcd60e51b8152600401610a4190613fe5565b60c95460405163079cc67960e41b8152336004820152602481018590526001600160a01b03909116906379cc6790906044015f604051808303815f87803b158015611029575f5ffd5b505af115801561103b573d5f5f3e3d5ffd5b5050505061112b565b61104d33611fb2565b9050801580159061106d57505f81815260da602052604090206005015442105b6110b15760405162461bcd60e51b81526020600482015260156024820152744e6f20416374697665206c6f636b2065786973747360581b6044820152606401610a41565b60c9546040516323b872dd60e01b8152336004820152306024820152604481018590526001600160a01b03909116906323b872dd906064016020604051808303815f875af1158015611105573d5f5f3e3d5ffd5b505050506040513d601f19601f820116820180604052508101906111299190613fb2565b505b6111358382612c76565b5f81815260da6020908152604091829020600181015460069091015483519182529181019190915282917f7975828cb9027121837d9d3a5eda3d9bf35a6582d2ec4684b110ae0b553bb4f691015b60405180910390a2505050565b6001600160a01b0381165f90815260d66020526040812054819081905b6001600160a01b0385165f90815260d560205260409020548110156112ca576001600160a01b0385165f90815260d56020526040812080546112af9190849081106111fa576111fa61402f565b905f5260205f20015460da5f60d55f8b6001600160a01b03166001600160a01b031681526020019081526020015f20868154811061123a5761123a61402f565b905f5260205f20015481526020019081526020015f206008015460da5f60d55f8c6001600160a01b03166001600160a01b031681526020019081526020015f20878154811061128b5761128b61402f565b905f5260205f20015481526020019081526020015f20600901546104f39190613f56565b5050905080846112bf9190613f9f565b9350506001016111ad565b506001600160a01b0384165f90815260d860205260409020541580159061131957506001600160a01b0384165f90815260d86020908152604080832054835260da90915290206008015460cd54115b1561135f576001600160a01b0384165f90815260d8602090815260408083205480845260da9092529091206008015460cd5461135992916104f391613f56565b50909150505b6001600160a01b0384165f90815260d760205260409020546113818284613f9f565b6109cb9190613f9f565b5f5160206143385f395f51905f526113a281612895565b60cb545f90815b8181101561142f57856040516020016113c2919061405a565b6040516020818303038152906040528051906020012060cb82815481106113eb576113eb61402f565b905f5260205f20016040516020016114039190614097565b6040516020818303038152906040528051906020012003611427576001925061142f565b6001016113a9565b50816114735760405162461bcd60e51b8152602060048201526013602482015272141bdbdb08191bd95cc81b9bdd08195e1a5cdd606a1b6044820152606401610a41565b8360d986604051611484919061405a565b908152604051908190036020019020805491151560ff199092169190911790555050505050565b7f4c716a0ebd1cfd3e93ca0db9b9f8a0a9cb7c1d4cc18b52950e1f5528cc73cb5d6114d581612895565b6114dd61289f565b60d15460c9546040516370a0823160e01b81523360048201525f92629896809290916001600160a01b03909116906370a0823190602401602060405180830381865afa15801561152f573d5f5f3e3d5ffd5b505050506040513d601f19601f820116820180604052508101906115539190614108565b61155d9190613f88565b6115679190613f69565b905060d0548110156115ce5760405162461bcd60e51b815260206004820152602a60248201527f526577617264206d757374206265206174206c6561737420746865206d696e696044820152691b5d5b48185b5bdd5b9d60b21b6064820152608401610a41565b60cd546115d9612076565b81106116275760405162461bcd60e51b815260206004820152601a60248201527f43616e6e6f742070726f63657373206265666f72652074696d650000000000006044820152606401610a41565b60c9546040516323b872dd60e01b8152336004820152306024820152604481018490526001600160a01b03909116906323b872dd906064016020604051808303815f875af115801561167b573d5f5f3e3d5ffd5b505050506040513d601f19601f8201168201806040525081019061169f9190613fb2565b5060d3546116ad8184613f9f565b5f83815260db60205260408120600201829055909350905062093a806116d4836001613f9f565b6116de9190613f88565b60d2546116eb9190613f9f565b5f83815260db60205260408120600101919091555b60cb548110156119795760db5f8481526020019081526020015f2060040160cb82815481106117315761173161402f565b905f5260205f20016040516117469190614097565b90815260200160405180910390205460d960cb838154811061176a5761176a61402f565b905f5260205f200160405161177f9190614097565b90815260200160405180910390206004015f82825461179e9190613f9f565b909155505080156118435760db5f8481526020019081526020015f2060050160cb82815481106117d0576117d061402f565b905f5260205f20016040516117e59190614097565b90815260200160405180910390205460d960cb83815481106118095761180961402f565b905f5260205f200160405161181e9190614097565b90815260200160405180910390206004015f82825461183d9190613f56565b90915550505b60d960cb82815481106118585761185861402f565b905f5260205f200160405161186d9190614097565b90815260200160405180910390206004015460db5f8581526020019081526020015f2060030160cb83815481106118a6576118a661402f565b905f5260205f20016040516118bb9190614097565b90815260200160405180910390208190555060d960cb82815481106118e2576118e261402f565b905f5260205f20016040516118f79190614097565b9081526020016040518091039020600401545f03611971576298968060d960cb83815481106119285761192861402f565b905f5260205f200160405161193d9190614097565b9081526020016040518091039020600201548561195a9190613f88565b6119649190613f69565b61196e9083613f9f565b91505b600101611700565b5060d381905560405183815282907f40df43107e8b4d467127964bd3c966687c0a6a39aaede970755397fd09535e989060200160405180910390a25f82815260db60205260408120805460ff1916600117905560cd8054916119da83613fcd565b919050555050505050565b6119ed61289f565b5f6119f733611fb2565b90508015801590611a1757505f81815260da602052604090206005015442105b611a5a5760405162461bcd60e51b8152602060048201526014602482015273139bc81858dd1a5d99481b1bd8dac8199bdd5b9960621b6044820152606401610a41565b5f81815260da60205260409081902060030154905160d990611a7d90859061405a565b9081526020016040518091039020600301541015611af55760405162461bcd60e51b815260206004820152602f60248201527f4c6f636b206475726174696f6e2063616e6e6f74206265206c6573732074686160448201526e6e206578697374696e67206c6f636b60881b6064820152608401610a41565b5f81815260da602052604081206001810154815490929190611b1690614065565b80601f0160208091040260200160405190810160405280929190818152602001828054611b4290614065565b8015611b8d5780601f10611b6457610100808354040283529160200191611b8d565b820191905f5260205f20905b815481529060010190602001808311611b7057829003601f168201915b5050505f86815260da6020526040812060028101805461ff001916905542600590910155929350611bc091506120769050565b5f85815260da6020526040902060090154909150811015611cec575f84815260da6020908152604080832060090154835260db909152908190209051849160050190611c0d90859061405a565b90815260200160405180910390205f828254611c299190613f56565b90915550505f84815260da6020908152604080832060090184905583835260db909152908190209051849160050190611c6390859061405a565b90815260200160405180910390205f828254611c7f9190613f9f565b90915550505f84815260da602052604090206009810154600890910154148015611cb65750335f90815260d5602052604090205415155b15611cec57335f90815260d560205260409020805480611cd857611cd861411f565b600190038181905f5260205f20015f905590555b5f84815260da6020526040902060060154611d0c90879085908885612f6e565b60cc5460405185907f49b2ada88c09d45d501a352ddd16f0b8baba46034a2b243bfa8e215e2745f233905f90a3505050505050565b60cb8181548110611d50575f80fd5b905f5260205f20015f915090508054611d6890614065565b80601f0160208091040260200160405190810160405280929190818152602001828054611d9490614065565b8015611ddf5780601f10611db657610100808354040283529160200191611ddf565b820191905f5260205f20905b815481529060010190602001808311611dc257829003601f168201915b505050505081565b5f5f5f60db5f8681526020019081526020015f2060030184604051611e0c919061405a565b90815260200160405180910390205460db5f8781526020019081526020015f2060040185604051611e3d919061405a565b90815260200160405180910390205460db5f8881526020019081526020015f2060050186604051611e6e919061405a565b9081526020016040518091039020549250925092509250925092565b60d5602052815f5260405f208181548110611ea3575f80fd5b905f5260205f20015f91509150505481565b5f5160206143185f395f51905f52611ecc81612895565b610df36134f8565b5f9182526097602090815260408084206001600160a01b0393909316845291905290205460ff1690565b5f5160206143385f395f51905f52611f1581612895565b62989680821115611f685760405162461bcd60e51b815260206004820152601860248201527f496e76616c69642070657263656e746167652076616c756500000000000000006044820152606401610a41565b5060d155565b5f6305f5e10060d983604051611f84919061405a565b90815260200160405180910390206001015484611fa19190613f88565b611fab9190613f69565b9392505050565b6001600160a01b0381165f90815260d460205260408120548015612070576001600160a01b0383165f90815260d46020526040812060da9190611ff6600185613f56565b815481106120065761200661402f565b905f5260205f20015481526020019081526020015f2060020160019054906101000a900460ff1615612070576001600160a01b0383165f90815260d460205260409020612054600183613f56565b815481106120645761206461402f565b905f5260205f20015491505b50919050565b5f62093a8060d254426120899190613f56565b6120939190613f69565b905090565b6120a061289f565b5f6120a96129d2565b90505f82156121405750335f90815260d86020526040812054908190036120e25760405162461bcd60e51b8152600401610a4190613fe5565b60c954604051630852cd8d60e31b8152600481018490526001600160a01b03909116906342966c68906024015f604051808303815f87803b158015612125575f5ffd5b505af1158015612137573d5f5f3e3d5ffd5b505050506121ad565b61214933611fb2565b9050801580159061216957505f81815260da602052604090206005015442105b6121ad5760405162461bcd60e51b81526020600482015260156024820152744e6f20416374697665206c6f636b2065786973747360581b6044820152606401610a41565b6121b78282612c76565b5f81815260da6020908152604091829020600181015460069091015483519182529181018590529182015281907f4e2cc4951f3eeabdd9e423f93eba5e634644ff5fc64b2e59c2486c23a305dd8e90606001611183565b5f5160206143385f395f51905f5261222581612895565b5060d055565b5f8281526097602052604090206001015461224581612895565b610c94838361296c565b61225761289f565b60cf548210156122795760405162461bcd60e51b8152600401610a4190614133565b610d13825f5f84612288612076565b612f6e565b60d4602052815f5260405f208181548110611ea3575f80fd5b60da6020525f90815260409020805481906122c090614065565b80601f01602080910402602001604051908101604052809291908181526020018280546122ec90614065565b80156123375780601f1061230e57610100808354040283529160200191612337565b820191905f5260205f20905b81548152906001019060200180831161231a57829003601f168201915b50505060018401546002850154600386015460048701546005880154600689015460078a015460088b015460098c0154600a909c01549a9b979a60ff8089169b506101009098049097169850949693959294919390928c565b5f54610100900460ff16158080156123ae57505f54600160ff909116105b806123c75750303b1580156123c757505f5460ff166001145b61242a5760405162461bcd60e51b815260206004820152602e60248201527f496e697469616c697a61626c653a20636f6e747261637420697320616c72656160448201526d191e481a5b9a5d1a585b1a5e995960921b6064820152608401610a41565b5f805460ff19166001179055801561244b575f805461ff0019166101001790555b6001600160a01b038a166124a15760405162461bcd60e51b815260206004820152601a60248201527f496e76616c696420414c564120746f6b656e20616464726573730000000000006044820152606401610a41565b6001600160a01b0389166124f75760405162461bcd60e51b815260206004820152601c60248201527f496e76616c6964207665414c564120746f6b656e2061646472657373000000006044820152606401610a41565b60c980546001600160a01b03808d166001600160a01b03199283161790925560ca8054928c169290911691909117905560ce88905560d2879055600160cf5561271060d055624c4b4060d15561254d5f336128e7565b6125645f5160206143185f395f51905f52336128e7565b61257b5f5160206143385f395f51905f52336128e7565b6125a57f4c716a0ebd1cfd3e93ca0db9b9f8a0a9cb7c1d4cc18b52950e1f5528cc73cb5d336128e7565b825f815181106125b7576125b761402f565b60200260200101515f146126015760405162461bcd60e51b8152602060048201526011602482015270496e76616c6964204475726174696f6e7360781b6044820152606401610a41565b85515f906126169060cb9060208a0190613929565b505f5b87518110156127fe578581815181106126345761263461402f565b602002602001015160d98983815181106126505761265061402f565b6020026020010151604051612665919061405a565b90815260200160405180910390206001018190555086818151811061268c5761268c61402f565b602002602001015160d98983815181106126a8576126a861402f565b60200260200101516040516126bd919061405a565b9081526020016040518091039020600201819055508481815181106126e4576126e461402f565b602002602001015160d98983815181106127005761270061402f565b6020026020010151604051612715919061405a565b908152602001604051809103902060030181905550600160d98983815181106127405761274061402f565b6020026020010151604051612755919061405a565b908152604051908190036020019020805491151560ff1990921691909117905583518490829081106127895761278961402f565b602002602001015160d98983815181106127a5576127a561402f565b60200260200101516040516127ba919061405a565b9081526020016040518091039020600501819055508681815181106127e1576127e161402f565b6020026020010151826127f49190613f9f565b9150600101612619565b506298968081146128435760405162461bcd60e51b815260206004820152600f60248201526e496e76616c6964205265776172647360881b6044820152606401610a41565b508015612889575f805461ff0019169055604051600181527f7f26b83ff96e1f2b6a682f133852f6798a09c465da95921460cefb38474024989060200160405180910390a15b50505050505050505050565b610df38133613535565b60335460ff16156128e55760405162461bcd60e51b815260206004820152601060248201526f14185d5cd8589b194e881c185d5cd95960821b6044820152606401610a41565b565b6128f18282611ed4565b610d13575f8281526097602090815260408083206001600160a01b03851684529091529020805460ff191660011790556129283390565b6001600160a01b0316816001600160a01b0316837f2f8788117e7eff1d82e926ec794901d17c78024a50270940304540a733656f0d60405160405180910390a45050565b6129768282611ed4565b15610d13575f8281526097602090815260408083206001600160a01b0385168085529252808320805460ff1916905551339285917ff6391f5c32d9c69d2a47ea670b442974b53935d1edc7fd64eb21e047a839171b9190a45050565b335f90815260d6602090815260408083205460d59092528220541115612a3057335f90815260d56020908152604080832060d6909252909120548154612a309291908110612a2257612a2261402f565b905f5260205f20015461358e565b612a3861367a565b50335f90815260d7602052604090205480612a9f5760405162461bcd60e51b815260206004820152602160248201527f4e6f207265776172647320617661696c61626c6520666f7220636c61696d696e6044820152606760f81b6064820152608401610a41565b335f90815260d7602052604081205590565b612ab9613739565b6033805460ff191690557f5db9ee0a495bf2e6ff9c91a7834c1ba4fdd244a5e8aa4e537bd38aeae4b073aa335b6040516001600160a01b03909116815260200160405180910390a1565b5f82815260da602052604081208054829190612b1e90614065565b80601f0160208091040260200160405190810160405280929190818152602001828054612b4a90614065565b8015612b955780601f10612b6c57610100808354040283529160200191612b95565b820191905f5260205f20905b815481529060010190602001808311612b7857829003601f168201915b5050505f87815260da60205260408120600a015493945092612bba9250869150613f56565b5f86815260da6020526040902060010154612bd59190613f56565b90506298968060db5f8881526020019081526020015f2060030183604051612bfd919061405a565b9081526020016040518091039020548260d985604051612c1d919061405a565b90815260200160405180910390206002015460db5f8b81526020019081526020015f2060020154612c4e9190613f88565b612c589190613f88565b612c629190613f69565b612c6c9190613f69565b9695505050505050565b60cf54821015612c985760405162461bcd60e51b8152600401610a4190614133565b5f81815260da602052604081208054612cb090614065565b80601f0160208091040260200160405190810160405280929190818152602001828054612cdc90614065565b8015612d275780601f10612cfe57610100808354040283529160200191612d27565b820191905f5260205f20905b815481529060010190602001808311612d0a57829003601f168201915b5050505050905060d981604051612d3e919061405a565b9081526040519081900360200190205460ff16612d9d5760405162461bcd60e51b815260206004820152601a60248201527f506f6f6c2069732063757272656e746c792064697361626c65640000000000006044820152606401610a41565b5f612da88483611f6e565b60ca546040516340c10f1960e01b8152336004820152602481018390529192506001600160a01b0316906340c10f19906044015f604051808303815f87803b158015612df2575f5ffd5b505af1158015612e04573d5f5f3e3d5ffd5b5050505f84815260da602052604081206001018054879350909190612e2a908490613f9f565b90915550505f83815260da602052604081206006018054839290612e4f908490613f9f565b909155505f9050612e5e612076565b5f85815260da60205260409020600901549091508181101580612e9157505f85815260da602052604090206002015460ff165b15612f1e578560db5f8481526020019081526020015f2060040185604051612eb9919061405a565b90815260200160405180910390205f828254612ed59190613f9f565b90915550505f81815260db6020526040908190209051879160050190612efc90879061405a565b90815260200160405180910390205f828254612f189190613f9f565b90915550505b5f85815260da60205260408120600a018054889290612f3e908490613f9f565b9091555050505f93845260da60209081526040808620600a810154938752600b0190915290932092909255505050565b60d982604051612f7e919061405a565b9081526040519081900360200190205460ff16612feb5760405162461bcd60e51b815260206004820152602560248201527f54686520706f6f6c206973206e6f7420617661696c61626c6520666f72207374604482015264616b696e6760d81b6064820152608401610a41565b60cc8054905f612ffa83613fcd565b91905055505f60d983604051613010919061405a565b9081526020016040518091039020600501548261302d9190613f9f565b90505f61303a8688613f9f565b90505f6130478286611f6e565b9050858111156130c75760ca546001600160a01b03166340c10f193361306d8985613f56565b6040516001600160e01b031960e085901b1681526001600160a01b03909216600483015260248201526044015f604051808303815f87803b1580156130b0575f5ffd5b505af11580156130c2573d5f5f3e3d5ffd5b505050505b60d9856040516130d7919061405a565b9081526020016040518091039020600301545f14613284576130f833611fb2565b156131455760405162461bcd60e51b815260206004820152601c60248201527f54696d6562617365206c6f636b20616c726561647920657869737473000000006044820152606401610a41565b335f90815260d46020908152604080832060cc54815460018101835591855292842001919091555160d99061317b90889061405a565b90815260200160405180910390206002015411156131ba57335f90815260d560209081526040822060cc54815460018101835591845291909220909101555b871561323a5760c9546040516323b872dd60e01b8152336004820152306024820152604481018a90526001600160a01b03909116906323b872dd906064016020604051808303815f875af1158015613214573d5f5f3e3d5ffd5b505050506040513d601f19601f820116820180604052508101906132389190613fb2565b505b8160db5f8581526020019081526020015f206005018660405161325d919061405a565b90815260200160405180910390205f8282546132799190613f9f565b909155506133709050565b335f90815260d86020526040902054156132e05760405162461bcd60e51b815260206004820152601b60248201527f466f7265766572206c6f636b20616c72656164792065786973747300000000006044820152606401610a41565b60cc54335f81815260d86020908152604080832085905593825260da9052829020600201805460ff1916600117905560c954915163079cc67960e41b81526004810191909152602481018490526001600160a01b03909116906379cc6790906044015f604051808303815f87803b158015613359575f5ffd5b505af115801561336b573d5f5f3e3d5ffd5b505050505b60cc545f90815260da6020526040902061338a86826141c2565b5060cc545f90815260da6020526040908190206001018390555160d9906133b290879061405a565b90815260408051918290036020908101832060039081015460cc80545f90815260da90945284842090920155548152204260049091015560d9906133f790879061405a565b908152602001604051809103902060030154426134149190613f9f565b60cc80545f90815260da60209081526040808320600501949094558254825283822060060185905582548252838220600201805461ff001916610100179055825482528382206008018890559154815282812060090186905586815260db909152819020905183916004019061348b90889061405a565b90815260200160405180910390205f8282546134a79190613f9f565b909155505060cc546040513391907f0e11027f9e3d7aa31b5d23503be35faede305799d8c9ab6c5b06fe0f28589906906134e69086908a90879061427c565b60405180910390a35050505050505050565b61350061289f565b6033805460ff191660011790557f62e78cea01bee320cd4e420270b5ea74000d11b0c9f74754ebdbfc544b05a258612ae63390565b61353f8282611ed4565b610d135761354c81613782565b613557836020613794565b6040516020016135689291906142a4565b60408051601f198184030181529082905262461bcd60e51b8252610a4191600401613c39565b80158015906135b257505f81815260da602052604090206009810154600890910154105b15610df3575f5f6135c483600a610e83565b5f86815260da6020526040812060088101939093556007909201805493955090935084929091906135f6908490613f9f565b9091555050335f90815260d7602052604081208054849290613619908490613f9f565b90915550505f83815260da602081815260408084206008810180548652600b8201845291852086905593879052919052600990910154905403610c9457335f90815260d66020526040812080549161367083613fcd565b9190505550505050565b335f90815260d8602052604090205480158015906136a9575060cd545f82815260da6020526040902060080154105b15610df3575f5f6136bb83600a610e83565b5f86815260da6020526040812060088101939093556007909201805493955090935084929091906136ed908490613f9f565b9091555050335f90815260d7602052604081208054849290613710908490613f9f565b90915550505f83815260da6020908152604080832060088101548452600b019091529020555050565b60335460ff166128e55760405162461bcd60e51b815260206004820152601460248201527314185d5cd8589b194e881b9bdd081c185d5cd95960621b6044820152606401610a41565b60606108e36001600160a01b03831660145b60605f6137a2836002613f88565b6137ad906002613f9f565b6001600160401b038111156137c4576137c4613ad6565b6040519080825280601f01601f1916602001820160405280156137ee576020820181803683370190505b509050600360fc1b815f815181106138085761380861402f565b60200101906001600160f81b03191690815f1a905350600f60fb1b816001815181106138365761383661402f565b60200101906001600160f81b03191690815f1a9053505f613858846002613f88565b613863906001613f9f565b90505b60018111156138da576f181899199a1a9b1b9c1cb0b131b232b360811b85600f16601081106138975761389761402f565b1a60f81b8282815181106138ad576138ad61402f565b60200101906001600160f81b03191690815f1a90535060049490941c936138d381614302565b9050613866565b508315611fab5760405162461bcd60e51b815260206004820181905260248201527f537472696e67733a20686578206c656e67746820696e73756666696369656e746044820152606401610a41565b828054828255905f5260205f2090810192821561396d579160200282015b8281111561396d578251829061395d90826141c2565b5091602001919060010190613947565b5061397992915061397d565b5090565b80821115613979575f6139908282613999565b5060010161397d565b5080546139a590614065565b5f825580601f106139b4575050565b601f0160209004905f5260205f2090810190610df391905b80821115613979575f81556001016139cc565b5f602082840312156139ef575f5ffd5b81356001600160e01b031981168114611fab575f5ffd5b80356001600160a01b0381168114613a1c575f5ffd5b919050565b5f60208284031215613a31575f5ffd5b611fab82613a06565b5f60208284031215613a4a575f5ffd5b5035919050565b5f5f60408385031215613a62575f5ffd5b50508035926020909101359150565b5f5f60408385031215613a82575f5ffd5b82359150613a9260208401613a06565b90509250929050565b8015158114610df3575f5ffd5b5f5f60408385031215613ab9575f5ffd5b823591506020830135613acb81613a9b565b809150509250929050565b634e487b7160e01b5f52604160045260245ffd5b604051601f8201601f191681016001600160401b0381118282101715613b1257613b12613ad6565b604052919050565b5f82601f830112613b29575f5ffd5b81356001600160401b03811115613b4257613b42613ad6565b613b55601f8201601f1916602001613aea565b818152846020838601011115613b69575f5ffd5b816020850160208301375f918101602001919091529392505050565b5f5f60408385031215613b96575f5ffd5b82356001600160401b03811115613bab575f5ffd5b613bb785828601613b1a565b9250506020830135613acb81613a9b565b5f5f60408385031215613bd9575f5ffd5b8235915060208301356001600160401b03811115613bf5575f5ffd5b613c0185828601613b1a565b9150509250929050565b5f81518084528060208401602086015e5f602082860101526020601f19601f83011685010191505092915050565b602081525f611fab6020830184613c0b565b5f5f60408385031215613c5c575f5ffd5b613c6583613a06565b946020939093013593505050565b5f60208284031215613c83575f5ffd5b81356001600160401b03811115613c98575f5ffd5b6109cb84828501613b1a565b5f60208284031215613cb4575f5ffd5b8135611fab81613a9b565b61018081525f613cd361018083018f613c0b565b602083019d909d525099151560408b015297151560608a0152608089019690965260a088019490945260c087019290925260e086015261010085015261012084015261014083015261016090910152919050565b5f6001600160401b03821115613d3f57613d3f613ad6565b5060051b60200190565b5f82601f830112613d58575f5ffd5b8135613d6b613d6682613d27565b613aea565b8082825260208201915060208360051b860101925085831115613d8c575f5ffd5b602085015b83811015613dcc5780356001600160401b03811115613dae575f5ffd5b613dbd886020838a0101613b1a565b84525060209283019201613d91565b5095945050505050565b5f82601f830112613de5575f5ffd5b8135613df3613d6682613d27565b8082825260208201915060208360051b860101925085831115613e14575f5ffd5b602085015b83811015613dcc578035835260209283019201613e19565b5f5f5f5f5f5f5f5f5f6101208a8c031215613e4a575f5ffd5b613e538a613a06565b9850613e6160208b01613a06565b975060408a0135965060608a0135955060808a01356001600160401b03811115613e89575f5ffd5b613e958c828d01613d49565b95505060a08a01356001600160401b03811115613eb0575f5ffd5b613ebc8c828d01613dd6565b94505060c08a01356001600160401b03811115613ed7575f5ffd5b613ee38c828d01613dd6565b93505060e08a01356001600160401b03811115613efe575f5ffd5b613f0a8c828d01613dd6565b9250506101008a01356001600160401b03811115613f26575f5ffd5b613f328c828d01613dd6565b9150509295985092959850929598565b634e487b7160e01b5f52601160045260245ffd5b818103818111156108e3576108e3613f42565b5f82613f8357634e487b7160e01b5f52601260045260245ffd5b500490565b80820281158282048414176108e3576108e3613f42565b808201808211156108e3576108e3613f42565b5f60208284031215613fc2575f5ffd5b8151611fab81613a9b565b5f60018201613fde57613fde613f42565b5060010190565b6020808252602a908201527f4e6f2061637469766520666f7265766572206c6f636b2065786973747320666f60408201526939103a3432903ab9b2b960b11b606082015260800190565b634e487b7160e01b5f52603260045260245ffd5b5f81518060208401855e5f93019283525090919050565b5f611fab8284614043565b600181811c9082168061407957607f821691505b60208210810361207057634e487b7160e01b5f52602260045260245ffd5b5f5f83546140a481614065565b6001821680156140bb57600181146140d0576140fd565b60ff19831686528115158202860193506140fd565b865f5260205f205f5b838110156140f5578154888201526001909101906020016140d9565b505081860193505b509195945050505050565b5f60208284031215614118575f5ffd5b5051919050565b634e487b7160e01b5f52603160045260245ffd5b60208082526024908201527f416d6f756e742069732062656c6f7720746865206d696e696d756d20726571756040820152631a5c995960e21b606082015260800190565b601f821115610c9457805f5260205f20601f840160051c8101602085101561419c5750805b601f840160051c820191505b818110156141bb575f81556001016141a8565b5050505050565b81516001600160401b038111156141db576141db613ad6565b6141ef816141e98454614065565b84614177565b6020601f821160018114614221575f831561420a5750848201515b5f19600385901b1c1916600184901b1784556141bb565b5f84815260208120601f198516915b828110156142505787850151825560209485019460019092019101614230565b508482101561426d57868401515f19600387901b60f8161c191681555b50505050600190811b01905550565b838152606060208201525f6142946060830185613c0b565b9050826040830152949350505050565b7f416363657373436f6e74726f6c3a206163636f756e742000000000000000000081525f6142d56017830185614043565b7001034b99036b4b9b9b4b733903937b6329607d1b81526142f96011820185614043565b95945050505050565b5f8161431057614310613f42565b505f19019056fe65d7a28e3265b37a6474929f336521b332c1681b933f6cb9f3376673440d862aa49807205ce4d355092ef5a8a18f56e8913cf4a201fbe287825b095693c21775a2646970667358221220e85379902123cc0cd4a090238b679476e713c53e0018d1ded31709e915db57c364736f6c634300081e0033",
			"opcodes": "PUSH1 0x80 PUSH1 0x40 MSTORE CALLVALUE DUP1 ISZERO PUSH1 0xE JUMPI PUSH0 PUSH0 REVERT JUMPDEST POP PUSH1 0x15 PUSH1 0x19 JUMP JUMPDEST PUSH1 0xD3 JUMP JUMPDEST PUSH0 SLOAD PUSH2 0x100 SWAP1 DIV PUSH1 0xFF AND ISZERO PUSH1 0x83 JUMPI PUSH1 0x40 MLOAD PUSH3 0x461BCD PUSH1 0xE5 SHL DUP2 MSTORE PUSH1 0x20 PUSH1 0x4 DUP3 ADD MSTORE PUSH1 0x27 PUSH1 0x24 DUP3 ADD MSTORE PUSH32 0x496E697469616C697A61626C653A20636F6E747261637420697320696E697469 PUSH1 0x44 DUP3 ADD MSTORE PUSH7 0x616C697A696E67 PUSH1 0xC8 SHL PUSH1 0x64 DUP3 ADD MSTORE PUSH1 0x84 ADD PUSH1 0x40 MLOAD DUP1 SWAP2 SUB SWAP1 REVERT JUMPDEST PUSH0 SLOAD PUSH1 0xFF SWAP1 DUP2 AND EQ PUSH1 0xD1 JUMPI PUSH0 DUP1 SLOAD PUSH1 0xFF NOT AND PUSH1 0xFF SWAP1 DUP2 OR SWAP1 SWAP2 SSTORE PUSH1 0x40 MLOAD SWAP1 DUP2 MSTORE PUSH32 0x7F26B83FF96E1F2B6A682F133852F6798A09C465DA95921460CEFB3847402498 SWAP1 PUSH1 0x20 ADD PUSH1 0x40 MLOAD DUP1 SWAP2 SUB SWAP1 LOG1 JUMPDEST JUMP JUMPDEST PUSH2 0x438D DUP1 PUSH2 0xE0 PUSH0 CODECOPY PUSH0 RETURN INVALID PUSH1 0x80 PUSH1 0x40 MSTORE CALLVALUE DUP1 ISZERO PUSH2 0xF JUMPI PUSH0 PUSH0 REVERT JUMPDEST POP PUSH1 0x4 CALLDATASIZE LT PUSH2 0x372 JUMPI PUSH0 CALLDATALOAD PUSH1 0xE0 SHR DUP1 PUSH4 0x75B238FC GT PUSH2 0x1D4 JUMPI DUP1 PUSH4 0xC142D988 GT PUSH2 0x109 JUMPI DUP1 PUSH4 0xE27C8AD5 GT PUSH2 0xA9 JUMPI DUP1 PUSH4 0xEEE7F41C GT PUSH2 0x79 JUMPI DUP1 PUSH4 0xEEE7F41C EQ PUSH2 0x859 JUMPI DUP1 PUSH4 0xEFB81031 EQ PUSH2 0x86C JUMPI DUP1 PUSH4 0xF9F16788 EQ PUSH2 0x897 JUMPI DUP1 PUSH4 0xFFF9E917 EQ PUSH2 0x8A0 JUMPI PUSH0 PUSH0 REVERT JUMPDEST DUP1 PUSH4 0xE27C8AD5 EQ PUSH2 0x81F JUMPI DUP1 PUSH4 0xE63AB1E9 EQ PUSH2 0x828 JUMPI DUP1 PUSH4 0xE7E4E1F7 EQ PUSH2 0x83C JUMPI DUP1 PUSH4 0xEE01E5E7 EQ PUSH2 0x84F JUMPI PUSH0 PUSH0 REVERT JUMPDEST DUP1 PUSH4 0xD3F52D00 GT PUSH2 0xE4 JUMPI DUP1 PUSH4 0xD3F52D00 EQ PUSH2 0x7E5 JUMPI DUP1 PUSH4 0xD547741F EQ PUSH2 0x7F8 JUMPI DUP1 PUSH4 0xD8BBD46C EQ PUSH2 0x80B JUMPI DUP1 PUSH4 0xDF3100D4 EQ PUSH2 0x816 JUMPI PUSH0 PUSH0 REVERT JUMPDEST DUP1 PUSH4 0xC142D988 EQ PUSH2 0x749 JUMPI DUP1 PUSH4 0xC38474C0 EQ PUSH2 0x7CA JUMPI DUP1 PUSH4 0xC86A0D16 EQ PUSH2 0x7D2 JUMPI PUSH0 PUSH0 REVERT JUMPDEST DUP1 PUSH4 0xA0B80DB4 GT PUSH2 0x174 JUMPI DUP1 PUSH4 0xB0D2D011 GT PUSH2 0x14F JUMPI DUP1 PUSH4 0xB0D2D011 EQ PUSH2 0x711 JUMPI DUP1 PUSH4 0xB397E572 EQ PUSH2 0x71A JUMPI DUP1 PUSH4 0xB44C4FEF EQ PUSH2 0x72D JUMPI DUP1 PUSH4 0xB6334AEE EQ PUSH2 0x740 JUMPI PUSH0 PUSH0 REVERT JUMPDEST DUP1 PUSH4 0xA0B80DB4 EQ PUSH2 0x6EE JUMPI DUP1 PUSH4 0xA217FDDF EQ PUSH2 0x6F7 JUMPI DUP1 PUSH4 0xABD8A033 EQ PUSH2 0x6FE JUMPI PUSH0 PUSH0 REVERT JUMPDEST DUP1 PUSH4 0x7F53243B GT PUSH2 0x1AF JUMPI DUP1 PUSH4 0x7F53243B EQ PUSH2 0x6A1 JUMPI DUP1 PUSH4 0x8456CB59 EQ PUSH2 0x6B4 JUMPI DUP1 PUSH4 0x8B2D0CCF EQ PUSH2 0x6BC JUMPI DUP1 PUSH4 0x91D14854 EQ PUSH2 0x6DB JUMPI PUSH0 PUSH0 REVERT JUMPDEST DUP1 PUSH4 0x75B238FC EQ PUSH2 0x635 JUMPI DUP1 PUSH4 0x78E97925 EQ PUSH2 0x649 JUMPI DUP1 PUSH4 0x7C83E6C8 EQ PUSH2 0x652 JUMPI PUSH0 PUSH0 REVERT JUMPDEST DUP1 PUSH4 0x3F4BA83A GT PUSH2 0x2AA JUMPI DUP1 PUSH4 0x5C5C0D60 GT PUSH2 0x24A JUMPI DUP1 PUSH4 0x66FF9F80 GT PUSH2 0x225 JUMPI DUP1 PUSH4 0x66FF9F80 EQ PUSH2 0x5D0 JUMPI DUP1 PUSH4 0x720B3AD3 EQ PUSH2 0x5EF JUMPI DUP1 PUSH4 0x73DFCCCA EQ PUSH2 0x602 JUMPI DUP1 PUSH4 0x744F90A7 EQ PUSH2 0x622 JUMPI PUSH0 PUSH0 REVERT JUMPDEST DUP1 PUSH4 0x5C5C0D60 EQ PUSH2 0x5AA JUMPI DUP1 PUSH4 0x5C975ABB EQ PUSH2 0x5BD JUMPI DUP1 PUSH4 0x5D1DCCB1 EQ PUSH2 0x5C8 JUMPI PUSH0 PUSH0 REVERT JUMPDEST DUP1 PUSH4 0x507F1305 GT PUSH2 0x285 JUMPI DUP1 PUSH4 0x507F1305 EQ PUSH2 0x513 JUMPI DUP1 PUSH4 0x58A13B3A EQ PUSH2 0x526 JUMPI DUP1 PUSH4 0x5AB2D62F EQ PUSH2 0x54D JUMPI DUP1 PUSH4 0x5BAE5E54 EQ PUSH2 0x560 JUMPI PUSH0 PUSH0 REVERT JUMPDEST DUP1 PUSH4 0x3F4BA83A EQ PUSH2 0x4CA JUMPI DUP1 PUSH4 0x43CDAB57 EQ PUSH2 0x4D2 JUMPI DUP1 PUSH4 0x45434445 EQ PUSH2 0x4E5 JUMPI PUSH0 PUSH0 REVERT JUMPDEST DUP1 PUSH4 0x2B6FDC7E GT PUSH2 0x315 JUMPI DUP1 PUSH4 0x2F57C174 GT PUSH2 0x2F0 JUMPI DUP1 PUSH4 0x2F57C174 EQ PUSH2 0x47D JUMPI DUP1 PUSH4 0x323BF9F0 EQ PUSH2 0x49C JUMPI DUP1 PUSH4 0x36568ABE EQ PUSH2 0x4AF JUMPI DUP1 PUSH4 0x372500AB EQ PUSH2 0x4C2 JUMPI PUSH0 PUSH0 REVERT JUMPDEST DUP1 PUSH4 0x2B6FDC7E EQ PUSH2 0x459 JUMPI DUP1 PUSH4 0x2DEF6620 EQ PUSH2 0x462 JUMPI DUP1 PUSH4 0x2F2FF15D EQ PUSH2 0x46A JUMPI PUSH0 PUSH0 REVERT JUMPDEST DUP1 PUSH4 0x1698FE76 GT PUSH2 0x350 JUMPI DUP1 PUSH4 0x1698FE76 EQ PUSH2 0x3C9 JUMPI DUP1 PUSH4 0x1BD067C5 EQ PUSH2 0x3F4 JUMPI DUP1 PUSH4 0x248A9CA3 EQ PUSH2 0x409 JUMPI DUP1 PUSH4 0x27C1A812 EQ PUSH2 0x42B JUMPI PUSH0 PUSH0 REVERT JUMPDEST DUP1 PUSH4 0x1FFC9A7 EQ PUSH2 0x376 JUMPI DUP1 PUSH4 0x2E4923C EQ PUSH2 0x39E JUMPI DUP1 PUSH4 0xA171DF8 EQ PUSH2 0x3BF JUMPI JUMPDEST PUSH0 PUSH0 REVERT JUMPDEST PUSH2 0x389 PUSH2 0x384 CALLDATASIZE PUSH1 0x4 PUSH2 0x39DF JUMP JUMPDEST PUSH2 0x8B3 JUMP JUMPDEST PUSH1 0x40 MLOAD SWAP1 ISZERO ISZERO DUP2 MSTORE PUSH1 0x20 ADD JUMPDEST PUSH1 0x40 MLOAD DUP1 SWAP2 SUB SWAP1 RETURN JUMPDEST PUSH2 0x3B1 PUSH2 0x3AC CALLDATASIZE PUSH1 0x4 PUSH2 0x3A21 JUMP JUMPDEST PUSH2 0x8E9 JUMP JUMPDEST PUSH1 0x40 MLOAD SWAP1 DUP2 MSTORE PUSH1 0x20 ADD PUSH2 0x395 JUMP JUMPDEST PUSH2 0x3B1 PUSH3 0x93A80 DUP2 JUMP JUMPDEST PUSH1 0xCA SLOAD PUSH2 0x3DC SWAP1 PUSH1 0x1 PUSH1 0x1 PUSH1 0xA0 SHL SUB AND DUP2 JUMP JUMPDEST PUSH1 0x40 MLOAD PUSH1 0x1 PUSH1 0x1 PUSH1 0xA0 SHL SUB SWAP1 SWAP2 AND DUP2 MSTORE PUSH1 0x20 ADD PUSH2 0x395 JUMP JUMPDEST PUSH2 0x407 PUSH2 0x402 CALLDATASIZE PUSH1 0x4 PUSH2 0x3A3A JUMP JUMPDEST PUSH2 0x9D3 JUMP JUMPDEST STOP JUMPDEST PUSH2 0x3B1 PUSH2 0x417 CALLDATASIZE PUSH1 0x4 PUSH2 0x3A3A JUMP JUMPDEST PUSH0 SWAP1 DUP2 MSTORE PUSH1 0x97 PUSH1 0x20 MSTORE PUSH1 0x40 SWAP1 KECCAK256 PUSH1 0x1 ADD SLOAD SWAP1 JUMP JUMPDEST PUSH2 0x3B1 PUSH2 0x439 CALLDATASIZE PUSH1 0x4 PUSH2 0x3A51 JUMP JUMPDEST PUSH0 SWAP2 DUP3 MSTORE PUSH1 0xDA PUSH1 0x20 SWAP1 DUP2 MSTORE PUSH1 0x40 DUP1 DUP5 KECCAK256 SWAP3 DUP5 MSTORE PUSH1 0xB SWAP1 SWAP3 ADD SWAP1 MSTORE SWAP1 KECCAK256 SLOAD SWAP1 JUMP JUMPDEST PUSH2 0x3B1 PUSH1 0xD3 SLOAD DUP2 JUMP JUMPDEST PUSH2 0x407 PUSH2 0xA50 JUMP JUMPDEST PUSH2 0x407 PUSH2 0x478 CALLDATASIZE PUSH1 0x4 PUSH2 0x3A71 JUMP JUMPDEST PUSH2 0xC70 JUMP JUMPDEST PUSH2 0x3B1 PUSH2 0x48B CALLDATASIZE PUSH1 0x4 PUSH2 0x3A21 JUMP JUMPDEST PUSH1 0xD6 PUSH1 0x20 MSTORE PUSH0 SWAP1 DUP2 MSTORE PUSH1 0x40 SWAP1 KECCAK256 SLOAD DUP2 JUMP JUMPDEST PUSH1 0xC9 SLOAD PUSH2 0x3DC SWAP1 PUSH1 0x1 PUSH1 0x1 PUSH1 0xA0 SHL SUB AND DUP2 JUMP JUMPDEST PUSH2 0x407 PUSH2 0x4BD CALLDATASIZE PUSH1 0x4 PUSH2 0x3A71 JUMP JUMPDEST PUSH2 0xC99 JUMP JUMPDEST PUSH2 0x407 PUSH2 0xD17 JUMP JUMPDEST PUSH2 0x407 PUSH2 0xDD4 JUMP JUMPDEST PUSH2 0x407 PUSH2 0x4E0 CALLDATASIZE PUSH1 0x4 PUSH2 0x3A3A JUMP JUMPDEST PUSH2 0xDF6 JUMP JUMPDEST PUSH2 0x4F8 PUSH2 0x4F3 CALLDATASIZE PUSH1 0x4 PUSH2 0x3A51 JUMP JUMPDEST PUSH2 0xE83 JUMP JUMPDEST PUSH1 0x40 DUP1 MLOAD SWAP4 DUP5 MSTORE PUSH1 0x20 DUP5 ADD SWAP3 SWAP1 SWAP3 MSTORE SWAP1 DUP3 ADD MSTORE PUSH1 0x60 ADD PUSH2 0x395 JUMP JUMPDEST PUSH2 0x407 PUSH2 0x521 CALLDATASIZE PUSH1 0x4 PUSH2 0x3AA8 JUMP JUMPDEST PUSH2 0xFA1 JUMP JUMPDEST PUSH2 0x3B1 PUSH32 0x4C716A0EBD1CFD3E93CA0DB9B9F8A0A9CB7C1D4CC18B52950E1F5528CC73CB5D DUP2 JUMP JUMPDEST PUSH2 0x3B1 PUSH2 0x55B CALLDATASIZE PUSH1 0x4 PUSH2 0x3A21 JUMP JUMPDEST PUSH2 0x1190 JUMP JUMPDEST PUSH2 0x595 PUSH2 0x56E CALLDATASIZE PUSH1 0x4 PUSH2 0x3A21 JUMP JUMPDEST PUSH1 0x1 PUSH1 0x1 PUSH1 0xA0 SHL SUB AND PUSH0 SWAP1 DUP2 MSTORE PUSH1 0xD5 PUSH1 0x20 SWAP1 DUP2 MSTORE PUSH1 0x40 DUP1 DUP4 KECCAK256 SLOAD PUSH1 0xD4 SWAP1 SWAP3 MSTORE SWAP1 SWAP2 KECCAK256 SLOAD SWAP1 SWAP2 JUMP JUMPDEST PUSH1 0x40 DUP1 MLOAD SWAP3 DUP4 MSTORE PUSH1 0x20 DUP4 ADD SWAP2 SWAP1 SWAP2 MSTORE ADD PUSH2 0x395 JUMP JUMPDEST PUSH2 0x407 PUSH2 0x5B8 CALLDATASIZE PUSH1 0x4 PUSH2 0x3B85 JUMP JUMPDEST PUSH2 0x138B JUMP JUMPDEST PUSH1 0x33 SLOAD PUSH1 0xFF AND PUSH2 0x389 JUMP JUMPDEST PUSH2 0x407 PUSH2 0x14AB JUMP JUMPDEST PUSH2 0x3B1 PUSH2 0x5DE CALLDATASIZE PUSH1 0x4 PUSH2 0x3A21 JUMP JUMPDEST PUSH1 0xD8 PUSH1 0x20 MSTORE PUSH0 SWAP1 DUP2 MSTORE PUSH1 0x40 SWAP1 KECCAK256 SLOAD DUP2 JUMP JUMPDEST PUSH2 0x407 PUSH2 0x5FD CALLDATASIZE PUSH1 0x4 PUSH2 0x3BC8 JUMP JUMPDEST PUSH2 0x19E5 JUMP JUMPDEST PUSH2 0x615 PUSH2 0x610 CALLDATASIZE PUSH1 0x4 PUSH2 0x3A3A JUMP JUMPDEST PUSH2 0x1D41 JUMP JUMPDEST PUSH1 0x40 MLOAD PUSH2 0x395 SWAP2 SWAP1 PUSH2 0x3C39 JUMP JUMPDEST PUSH2 0x4F8 PUSH2 0x630 CALLDATASIZE PUSH1 0x4 PUSH2 0x3BC8 JUMP JUMPDEST PUSH2 0x1DE7 JUMP JUMPDEST PUSH2 0x3B1 PUSH0 MLOAD PUSH1 0x20 PUSH2 0x4338 PUSH0 CODECOPY PUSH0 MLOAD SWAP1 PUSH0 MSTORE DUP2 JUMP JUMPDEST PUSH2 0x3B1 PUSH1 0xD2 SLOAD DUP2 JUMP JUMPDEST PUSH2 0x684 PUSH2 0x660 CALLDATASIZE PUSH1 0x4 PUSH2 0x3A3A JUMP JUMPDEST PUSH1 0xDB PUSH1 0x20 MSTORE PUSH0 SWAP1 DUP2 MSTORE PUSH1 0x40 SWAP1 KECCAK256 DUP1 SLOAD PUSH1 0x1 DUP3 ADD SLOAD PUSH1 0x2 SWAP1 SWAP3 ADD SLOAD PUSH1 0xFF SWAP1 SWAP2 AND SWAP2 SWAP1 DUP4 JUMP JUMPDEST PUSH1 0x40 DUP1 MLOAD SWAP4 ISZERO ISZERO DUP5 MSTORE PUSH1 0x20 DUP5 ADD SWAP3 SWAP1 SWAP3 MSTORE SWAP1 DUP3 ADD MSTORE PUSH1 0x60 ADD PUSH2 0x395 JUMP JUMPDEST PUSH2 0x3B1 PUSH2 0x6AF CALLDATASIZE PUSH1 0x4 PUSH2 0x3C4B JUMP JUMPDEST PUSH2 0x1E8A JUMP JUMPDEST PUSH2 0x407 PUSH2 0x1EB5 JUMP JUMPDEST PUSH2 0x3B1 PUSH2 0x6CA CALLDATASIZE PUSH1 0x4 PUSH2 0x3A21 JUMP JUMPDEST PUSH1 0xD7 PUSH1 0x20 MSTORE PUSH0 SWAP1 DUP2 MSTORE PUSH1 0x40 SWAP1 KECCAK256 SLOAD DUP2 JUMP JUMPDEST PUSH2 0x389 PUSH2 0x6E9 CALLDATASIZE PUSH1 0x4 PUSH2 0x3A71 JUMP JUMPDEST PUSH2 0x1ED4 JUMP JUMPDEST PUSH2 0x3B1 PUSH1 0xCC SLOAD DUP2 JUMP JUMPDEST PUSH2 0x3B1 PUSH0 DUP2 JUMP JUMPDEST PUSH2 0x407 PUSH2 0x70C CALLDATASIZE PUSH1 0x4 PUSH2 0x3A3A JUMP JUMPDEST PUSH2 0x1EFE JUMP JUMPDEST PUSH2 0x3B1 PUSH1 0xCF SLOAD DUP2 JUMP JUMPDEST PUSH2 0x3B1 PUSH2 0x728 CALLDATASIZE PUSH1 0x4 PUSH2 0x3BC8 JUMP JUMPDEST PUSH2 0x1F6E JUMP JUMPDEST PUSH2 0x3B1 PUSH2 0x73B CALLDATASIZE PUSH1 0x4 PUSH2 0x3A21 JUMP JUMPDEST PUSH2 0x1FB2 JUMP JUMPDEST PUSH2 0x3B1 PUSH1 0xCE SLOAD DUP2 JUMP JUMPDEST PUSH2 0x79B PUSH2 0x757 CALLDATASIZE PUSH1 0x4 PUSH2 0x3C73 JUMP JUMPDEST DUP1 MLOAD PUSH1 0x20 DUP2 DUP4 ADD DUP2 ADD DUP1 MLOAD PUSH1 0xD9 DUP3 MSTORE SWAP3 DUP3 ADD SWAP2 SWAP1 SWAP4 ADD KECCAK256 SWAP2 MSTORE DUP1 SLOAD PUSH1 0x1 DUP3 ADD SLOAD PUSH1 0x2 DUP4 ADD SLOAD PUSH1 0x3 DUP5 ADD SLOAD PUSH1 0x4 DUP6 ADD SLOAD PUSH1 0x5 SWAP1 SWAP6 ADD SLOAD PUSH1 0xFF SWAP1 SWAP5 AND SWAP5 SWAP3 SWAP4 SWAP2 SWAP3 SWAP1 SWAP2 DUP7 JUMP JUMPDEST PUSH1 0x40 DUP1 MLOAD SWAP7 ISZERO ISZERO DUP8 MSTORE PUSH1 0x20 DUP8 ADD SWAP6 SWAP1 SWAP6 MSTORE SWAP4 DUP6 ADD SWAP3 SWAP1 SWAP3 MSTORE PUSH1 0x60 DUP5 ADD MSTORE PUSH1 0x80 DUP4 ADD MSTORE PUSH1 0xA0 DUP3 ADD MSTORE PUSH1 0xC0 ADD PUSH2 0x395 JUMP JUMPDEST PUSH2 0x3B1 PUSH2 0x2076 JUMP JUMPDEST PUSH2 0x407 PUSH2 0x7E0 CALLDATASIZE PUSH1 0x4 PUSH2 0x3CA4 JUMP JUMPDEST PUSH2 0x2098 JUMP JUMPDEST PUSH2 0x407 PUSH2 0x7F3 CALLDATASIZE PUSH1 0x4 PUSH2 0x3A3A JUMP JUMPDEST PUSH2 0x220E JUMP JUMPDEST PUSH2 0x407 PUSH2 0x806 CALLDATASIZE PUSH1 0x4 PUSH2 0x3A71 JUMP JUMPDEST PUSH2 0x222B JUMP JUMPDEST PUSH2 0x3B1 PUSH4 0x5F5E100 DUP2 JUMP JUMPDEST PUSH2 0x3B1 PUSH1 0xD1 SLOAD DUP2 JUMP JUMPDEST PUSH2 0x3B1 PUSH1 0xD0 SLOAD DUP2 JUMP JUMPDEST PUSH2 0x3B1 PUSH0 MLOAD PUSH1 0x20 PUSH2 0x4318 PUSH0 CODECOPY PUSH0 MLOAD SWAP1 PUSH0 MSTORE DUP2 JUMP JUMPDEST PUSH2 0x407 PUSH2 0x84A CALLDATASIZE PUSH1 0x4 PUSH2 0x3BC8 JUMP JUMPDEST PUSH2 0x224F JUMP JUMPDEST PUSH2 0x3B1 PUSH3 0x989680 DUP2 JUMP JUMPDEST PUSH2 0x3B1 PUSH2 0x867 CALLDATASIZE PUSH1 0x4 PUSH2 0x3C4B JUMP JUMPDEST PUSH2 0x228D JUMP JUMPDEST PUSH2 0x87F PUSH2 0x87A CALLDATASIZE PUSH1 0x4 PUSH2 0x3A3A JUMP JUMPDEST PUSH2 0x22A6 JUMP JUMPDEST PUSH1 0x40 MLOAD PUSH2 0x395 SWAP13 SWAP12 SWAP11 SWAP10 SWAP9 SWAP8 SWAP7 SWAP6 SWAP5 SWAP4 SWAP3 SWAP2 SWAP1 PUSH2 0x3CBF JUMP JUMPDEST PUSH2 0x3B1 PUSH1 0xCD SLOAD DUP2 JUMP JUMPDEST PUSH2 0x407 PUSH2 0x8AE CALLDATASIZE PUSH1 0x4 PUSH2 0x3E31 JUMP JUMPDEST PUSH2 0x2390 JUMP JUMPDEST PUSH0 PUSH1 0x1 PUSH1 0x1 PUSH1 0xE0 SHL SUB NOT DUP3 AND PUSH4 0x7965DB0B PUSH1 0xE0 SHL EQ DUP1 PUSH2 0x8E3 JUMPI POP PUSH4 0x1FFC9A7 PUSH1 0xE0 SHL PUSH1 0x1 PUSH1 0x1 PUSH1 0xE0 SHL SUB NOT DUP4 AND EQ JUMPDEST SWAP3 SWAP2 POP POP JUMP JUMPDEST PUSH0 PUSH0 PUSH2 0x8F4 DUP4 PUSH2 0x1FB2 JUMP JUMPDEST PUSH0 DUP2 DUP2 MSTORE PUSH1 0xDA PUSH1 0x20 MSTORE PUSH1 0x40 SWAP1 KECCAK256 PUSH1 0x6 DUP2 ADD SLOAD PUSH1 0x4 SWAP1 SWAP2 ADD SLOAD SWAP2 SWAP3 POP SWAP1 ISZERO PUSH2 0x999 JUMPI PUSH1 0xCE SLOAD PUSH0 DUP4 DUP2 MSTORE PUSH1 0xDA PUSH1 0x20 MSTORE PUSH1 0x40 DUP2 KECCAK256 PUSH1 0x4 ADD SLOAD SWAP1 SWAP2 SWAP1 PUSH2 0x936 SWAP1 TIMESTAMP PUSH2 0x3F56 JUMP JUMPDEST PUSH2 0x940 SWAP2 SWAP1 PUSH2 0x3F69 JUMP JUMPDEST PUSH1 0xCE SLOAD PUSH0 DUP6 DUP2 MSTORE PUSH1 0xDA PUSH1 0x20 MSTORE PUSH1 0x40 DUP2 KECCAK256 PUSH1 0x3 ADD SLOAD SWAP3 SWAP4 POP SWAP2 PUSH2 0x962 SWAP2 SWAP1 PUSH2 0x3F69 JUMP JUMPDEST SWAP1 POP DUP2 DUP2 GT ISZERO PUSH2 0x992 JUMPI DUP1 PUSH2 0x977 DUP4 DUP3 PUSH2 0x3F56 JUMP JUMPDEST PUSH2 0x981 SWAP1 DUP6 PUSH2 0x3F88 JUMP JUMPDEST PUSH2 0x98B SWAP2 SWAP1 PUSH2 0x3F69 JUMP JUMPDEST SWAP3 POP PUSH2 0x996 JUMP JUMPDEST PUSH0 SWAP3 POP JUMPDEST POP POP JUMPDEST PUSH1 0x1 PUSH1 0x1 PUSH1 0xA0 SHL SUB DUP5 AND PUSH0 SWAP1 DUP2 MSTORE PUSH1 0xD8 PUSH1 0x20 SWAP1 DUP2 MSTORE PUSH1 0x40 DUP1 DUP4 KECCAK256 SLOAD DUP4 MSTORE PUSH1 0xDA SWAP1 SWAP2 MSTORE SWAP1 KECCAK256 PUSH1 0x6 ADD SLOAD PUSH2 0x9CB SWAP1 DUP3 PUSH2 0x3F9F JUMP JUMPDEST SWAP5 SWAP4 POP POP POP POP JUMP JUMPDEST PUSH0 MLOAD PUSH1 0x20 PUSH2 0x4338 PUSH0 CODECOPY PUSH0 MLOAD SWAP1 PUSH0 MSTORE PUSH2 0x9EA DUP2 PUSH2 0x2895 JUMP JUMPDEST PUSH1 0x1 DUP3 LT ISZERO PUSH2 0xA4A JUMPI PUSH1 0x40 MLOAD PUSH3 0x461BCD PUSH1 0xE5 SHL DUP2 MSTORE PUSH1 0x20 PUSH1 0x4 DUP3 ADD MSTORE PUSH1 0x21 PUSH1 0x24 DUP3 ADD MSTORE PUSH32 0x4D696E696D756D20616D6F756E74206D757374206265206174206C6561737420 PUSH1 0x44 DUP3 ADD MSTORE PUSH1 0x31 PUSH1 0xF8 SHL PUSH1 0x64 DUP3 ADD MSTORE PUSH1 0x84 ADD JUMPDEST PUSH1 0x40 MLOAD DUP1 SWAP2 SUB SWAP1 REVERT JUMPDEST POP PUSH1 0xCF SSTORE JUMP JUMPDEST PUSH2 0xA58 PUSH2 0x289F JUMP JUMPDEST PUSH0 PUSH2 0xA62 CALLER PUSH2 0x1FB2 JUMP JUMPDEST SWAP1 POP DUP1 PUSH0 SUB PUSH2 0xAAA JUMPI PUSH1 0x40 MLOAD PUSH3 0x461BCD PUSH1 0xE5 SHL DUP2 MSTORE PUSH1 0x20 PUSH1 0x4 DUP3 ADD MSTORE PUSH1 0x14 PUSH1 0x24 DUP3 ADD MSTORE PUSH20 0x139BC81858DD1A5D99481B1BD8DAC8199BDD5B99 PUSH1 0x62 SHL PUSH1 0x44 DUP3 ADD MSTORE PUSH1 0x64 ADD PUSH2 0xA41 JUMP JUMPDEST PUSH0 DUP2 DUP2 MSTORE PUSH1 0xDA PUSH1 0x20 MSTORE PUSH1 0x40 SWAP1 KECCAK256 PUSH1 0x5 ADD SLOAD TIMESTAMP GT PUSH2 0xB19 JUMPI PUSH1 0x40 MLOAD PUSH3 0x461BCD PUSH1 0xE5 SHL DUP2 MSTORE PUSH1 0x20 PUSH1 0x4 DUP3 ADD MSTORE PUSH1 0x27 PUSH1 0x24 DUP3 ADD MSTORE PUSH32 0x43616E6E6F7420756E7374616B65206265666F726520746865206C6F636B2065 PUSH1 0x44 DUP3 ADD MSTORE PUSH7 0x6E642074696D65 PUSH1 0xC8 SHL PUSH1 0x64 DUP3 ADD MSTORE PUSH1 0x84 ADD PUSH2 0xA41 JUMP JUMPDEST PUSH1 0xC9 SLOAD PUSH0 DUP3 DUP2 MSTORE PUSH1 0xDA PUSH1 0x20 MSTORE PUSH1 0x40 SWAP1 DUP2 SWAP1 KECCAK256 PUSH1 0x1 ADD SLOAD SWAP1 MLOAD PUSH4 0xA9059CBB PUSH1 0xE0 SHL DUP2 MSTORE CALLER PUSH1 0x4 DUP3 ADD MSTORE PUSH1 0x24 DUP2 ADD SWAP2 SWAP1 SWAP2 MSTORE PUSH1 0x1 PUSH1 0x1 PUSH1 0xA0 SHL SUB SWAP1 SWAP2 AND SWAP1 PUSH4 0xA9059CBB SWAP1 PUSH1 0x44 ADD PUSH1 0x20 PUSH1 0x40 MLOAD DUP1 DUP4 SUB DUP2 PUSH0 DUP8 GAS CALL ISZERO DUP1 ISZERO PUSH2 0xB7A JUMPI RETURNDATASIZE PUSH0 PUSH0 RETURNDATACOPY RETURNDATASIZE PUSH0 REVERT JUMPDEST POP POP POP POP PUSH1 0x40 MLOAD RETURNDATASIZE PUSH1 0x1F NOT PUSH1 0x1F DUP3 ADD AND DUP3 ADD DUP1 PUSH1 0x40 MSTORE POP DUP2 ADD SWAP1 PUSH2 0xB9E SWAP2 SWAP1 PUSH2 0x3FB2 JUMP JUMPDEST POP PUSH1 0xCA SLOAD PUSH0 DUP3 DUP2 MSTORE PUSH1 0xDA PUSH1 0x20 MSTORE PUSH1 0x40 SWAP1 DUP2 SWAP1 KECCAK256 PUSH1 0x6 ADD SLOAD SWAP1 MLOAD PUSH4 0x6888C67 PUSH1 0xE1 SHL DUP2 MSTORE CALLER PUSH1 0x4 DUP3 ADD MSTORE PUSH1 0x24 DUP2 ADD SWAP2 SWAP1 SWAP2 MSTORE PUSH1 0x1 PUSH1 0x1 PUSH1 0xA0 SHL SUB SWAP1 SWAP2 AND SWAP1 PUSH4 0xD1118CE SWAP1 PUSH1 0x44 ADD PUSH0 PUSH1 0x40 MLOAD DUP1 DUP4 SUB DUP2 PUSH0 DUP8 DUP1 EXTCODESIZE ISZERO DUP1 ISZERO PUSH2 0xBFB JUMPI PUSH0 PUSH0 REVERT JUMPDEST POP GAS CALL ISZERO DUP1 ISZERO PUSH2 0xC0D JUMPI RETURNDATASIZE PUSH0 PUSH0 RETURNDATACOPY RETURNDATASIZE PUSH0 REVERT JUMPDEST POP POP POP PUSH0 DUP3 DUP2 MSTORE PUSH1 0xDA PUSH1 0x20 MSTORE PUSH1 0x40 SWAP1 DUP2 SWAP1 KECCAK256 PUSH1 0x2 DUP2 ADD DUP1 SLOAD PUSH2 0xFF00 NOT AND SWAP1 SSTORE PUSH1 0x5 ADD SLOAD SWAP1 MLOAD DUP4 SWAP3 POP CALLER SWAP2 PUSH32 0x92CCF450A286A957AF52509BC1C9939D1A6A481783E142E41E2499F0BB66EBC6 SWAP2 PUSH2 0xC65 SWAP2 DUP2 MSTORE PUSH1 0x20 ADD SWAP1 JUMP JUMPDEST PUSH1 0x40 MLOAD DUP1 SWAP2 SUB SWAP1 LOG3 POP JUMP JUMPDEST PUSH0 DUP3 DUP2 MSTORE PUSH1 0x97 PUSH1 0x20 MSTORE PUSH1 0x40 SWAP1 KECCAK256 PUSH1 0x1 ADD SLOAD PUSH2 0xC8A DUP2 PUSH2 0x2895 JUMP JUMPDEST PUSH2 0xC94 DUP4 DUP4 PUSH2 0x28E7 JUMP JUMPDEST POP POP POP JUMP JUMPDEST PUSH1 0x1 PUSH1 0x1 PUSH1 0xA0 SHL SUB DUP2 AND CALLER EQ PUSH2 0xD09 JUMPI PUSH1 0x40 MLOAD PUSH3 0x461BCD PUSH1 0xE5 SHL DUP2 MSTORE PUSH1 0x20 PUSH1 0x4 DUP3 ADD MSTORE PUSH1 0x2F PUSH1 0x24 DUP3 ADD MSTORE PUSH32 0x416363657373436F6E74726F6C3A2063616E206F6E6C792072656E6F756E6365 PUSH1 0x44 DUP3 ADD MSTORE PUSH15 0x103937B632B9903337B91039B2B633 PUSH1 0x89 SHL PUSH1 0x64 DUP3 ADD MSTORE PUSH1 0x84 ADD PUSH2 0xA41 JUMP JUMPDEST PUSH2 0xD13 DUP3 DUP3 PUSH2 0x296C JUMP JUMPDEST POP POP JUMP JUMPDEST PUSH2 0xD1F PUSH2 0x289F JUMP JUMPDEST PUSH0 PUSH2 0xD28 PUSH2 0x29D2 JUMP JUMPDEST PUSH1 0xC9 SLOAD PUSH1 0x40 MLOAD PUSH4 0xA9059CBB PUSH1 0xE0 SHL DUP2 MSTORE CALLER PUSH1 0x4 DUP3 ADD MSTORE PUSH1 0x24 DUP2 ADD DUP4 SWAP1 MSTORE SWAP2 SWAP3 POP PUSH1 0x1 PUSH1 0x1 PUSH1 0xA0 SHL SUB AND SWAP1 PUSH4 0xA9059CBB SWAP1 PUSH1 0x44 ADD PUSH1 0x20 PUSH1 0x40 MLOAD DUP1 DUP4 SUB DUP2 PUSH0 DUP8 GAS CALL ISZERO DUP1 ISZERO PUSH2 0xD77 JUMPI RETURNDATASIZE PUSH0 PUSH0 RETURNDATACOPY RETURNDATASIZE PUSH0 REVERT JUMPDEST POP POP POP POP PUSH1 0x40 MLOAD RETURNDATASIZE PUSH1 0x1F NOT PUSH1 0x1F DUP3 ADD AND DUP3 ADD DUP1 PUSH1 0x40 MSTORE POP DUP2 ADD SWAP1 PUSH2 0xD9B SWAP2 SWAP1 PUSH2 0x3FB2 JUMP JUMPDEST POP PUSH1 0x40 MLOAD DUP2 DUP2 MSTORE CALLER SWAP1 PUSH32 0xFC30CDDEA38E2BF4D6EA7D3F9ED3B6AD7F176419F4963BD81318067A4AEE73FE SWAP1 PUSH1 0x20 ADD PUSH1 0x40 MLOAD DUP1 SWAP2 SUB SWAP1 LOG2 POP JUMP JUMPDEST PUSH0 MLOAD PUSH1 0x20 PUSH2 0x4318 PUSH0 CODECOPY PUSH0 MLOAD SWAP1 PUSH0 MSTORE PUSH2 0xDEB DUP2 PUSH2 0x2895 JUMP JUMPDEST PUSH2 0xDF3 PUSH2 0x2AB1 JUMP JUMPDEST POP JUMP JUMPDEST PUSH0 MLOAD PUSH1 0x20 PUSH2 0x4338 PUSH0 CODECOPY PUSH0 MLOAD SWAP1 PUSH0 MSTORE PUSH2 0xE0D DUP2 PUSH2 0x2895 JUMP JUMPDEST PUSH0 DUP3 GT DUP1 ISZERO PUSH2 0xE1F JUMPI POP PUSH3 0x93A80 DUP3 GT ISZERO JUMPDEST PUSH2 0xE7D JUMPI PUSH1 0x40 MLOAD PUSH3 0x461BCD PUSH1 0xE5 SHL DUP2 MSTORE PUSH1 0x20 PUSH1 0x4 DUP3 ADD MSTORE PUSH1 0x29 PUSH1 0x24 DUP3 ADD MSTORE PUSH32 0x496E74657276616C2073686F756C642062652077697468696E20746865207661 PUSH1 0x44 DUP3 ADD MSTORE PUSH9 0x6C69642072616E6765 PUSH1 0xB8 SHL PUSH1 0x64 DUP3 ADD MSTORE PUSH1 0x84 ADD PUSH2 0xA41 JUMP JUMPDEST POP PUSH1 0xCE SSTORE JUMP JUMPDEST PUSH0 DUP3 DUP2 MSTORE PUSH1 0xDA PUSH1 0x20 MSTORE PUSH1 0x40 DUP2 KECCAK256 PUSH1 0x1 DUP2 ADD SLOAD DUP3 SWAP2 DUP3 SWAP2 PUSH2 0xED7 JUMPI PUSH1 0x40 MLOAD PUSH3 0x461BCD PUSH1 0xE5 SHL DUP2 MSTORE PUSH1 0x20 PUSH1 0x4 DUP3 ADD MSTORE PUSH1 0xF PUSH1 0x24 DUP3 ADD MSTORE PUSH15 0x125B9D985B1A5908131BD8DAC81259 PUSH1 0x8A SHL PUSH1 0x44 DUP3 ADD MSTORE PUSH1 0x64 ADD PUSH2 0xA41 JUMP JUMPDEST PUSH1 0x2 DUP2 ADD SLOAD PUSH0 SWAP1 PUSH1 0xFF AND PUSH2 0xEEF JUMPI DUP2 PUSH1 0x9 ADD SLOAD PUSH2 0xEF3 JUMP JUMPDEST PUSH1 0xCD SLOAD JUMPDEST PUSH1 0x8 DUP4 ADD SLOAD SWAP5 POP SWAP1 POP PUSH0 PUSH2 0xF07 DUP8 DUP7 PUSH2 0x3F9F JUMP JUMPDEST PUSH0 DUP7 DUP2 MSTORE PUSH1 0xB DUP6 ADD PUSH1 0x20 MSTORE PUSH1 0x40 SWAP1 KECCAK256 SLOAD SWAP5 POP SWAP1 POP JUMPDEST DUP5 DUP2 GT DUP1 ISZERO PUSH2 0xF2A JUMPI POP DUP5 DUP3 GT JUMPDEST ISZERO PUSH2 0xF97 JUMPI PUSH0 DUP6 DUP2 MSTORE PUSH1 0xDB PUSH1 0x20 MSTORE PUSH1 0x40 SWAP1 KECCAK256 PUSH1 0x1 ADD SLOAD ISZERO PUSH2 0xF97 JUMPI PUSH2 0xF50 DUP6 DUP10 DUP7 PUSH2 0x2B03 JUMP JUMPDEST PUSH2 0xF5A SWAP1 DUP8 PUSH2 0x3F9F JUMP JUMPDEST PUSH0 DUP7 DUP2 MSTORE PUSH1 0xB DUP6 ADD PUSH1 0x20 MSTORE PUSH1 0x40 SWAP1 KECCAK256 SLOAD SWAP1 SWAP7 POP ISZERO PUSH2 0xF85 JUMPI PUSH0 DUP6 DUP2 MSTORE PUSH1 0xB DUP5 ADD PUSH1 0x20 MSTORE PUSH1 0x40 SWAP1 KECCAK256 SLOAD SWAP4 POP JUMPDEST DUP5 PUSH2 0xF8F DUP2 PUSH2 0x3FCD JUMP JUMPDEST SWAP6 POP POP PUSH2 0xF1C JUMP JUMPDEST POP POP POP SWAP3 POP SWAP3 POP SWAP3 JUMP JUMPDEST PUSH2 0xFA9 PUSH2 0x289F JUMP JUMPDEST PUSH0 DUP2 ISZERO PUSH2 0x1044 JUMPI POP CALLER PUSH0 SWAP1 DUP2 MSTORE PUSH1 0xD8 PUSH1 0x20 MSTORE PUSH1 0x40 DUP2 KECCAK256 SLOAD SWAP1 DUP2 SWAP1 SUB PUSH2 0xFE0 JUMPI PUSH1 0x40 MLOAD PUSH3 0x461BCD PUSH1 0xE5 SHL DUP2 MSTORE PUSH1 0x4 ADD PUSH2 0xA41 SWAP1 PUSH2 0x3FE5 JUMP JUMPDEST PUSH1 0xC9 SLOAD PUSH1 0x40 MLOAD PUSH4 0x79CC679 PUSH1 0xE4 SHL DUP2 MSTORE CALLER PUSH1 0x4 DUP3 ADD MSTORE PUSH1 0x24 DUP2 ADD DUP6 SWAP1 MSTORE PUSH1 0x1 PUSH1 0x1 PUSH1 0xA0 SHL SUB SWAP1 SWAP2 AND SWAP1 PUSH4 0x79CC6790 SWAP1 PUSH1 0x44 ADD PUSH0 PUSH1 0x40 MLOAD DUP1 DUP4 SUB DUP2 PUSH0 DUP8 DUP1 EXTCODESIZE ISZERO DUP1 ISZERO PUSH2 0x1029 JUMPI PUSH0 PUSH0 REVERT JUMPDEST POP GAS CALL ISZERO DUP1 ISZERO PUSH2 0x103B JUMPI RETURNDATASIZE PUSH0 PUSH0 RETURNDATACOPY RETURNDATASIZE PUSH0 REVERT JUMPDEST POP POP POP POP PUSH2 0x112B JUMP JUMPDEST PUSH2 0x104D CALLER PUSH2 0x1FB2 JUMP JUMPDEST SWAP1 POP DUP1 ISZERO DUP1 ISZERO SWAP1 PUSH2 0x106D JUMPI POP PUSH0 DUP2 DUP2 MSTORE PUSH1 0xDA PUSH1 0x20 MSTORE PUSH1 0x40 SWAP1 KECCAK256 PUSH1 0x5 ADD SLOAD TIMESTAMP LT JUMPDEST PUSH2 0x10B1 JUMPI PUSH1 0x40 MLOAD PUSH3 0x461BCD PUSH1 0xE5 SHL DUP2 MSTORE PUSH1 0x20 PUSH1 0x4 DUP3 ADD MSTORE PUSH1 0x15 PUSH1 0x24 DUP3 ADD MSTORE PUSH21 0x4E6F20416374697665206C6F636B20657869737473 PUSH1 0x58 SHL PUSH1 0x44 DUP3 ADD MSTORE PUSH1 0x64 ADD PUSH2 0xA41 JUMP JUMPDEST PUSH1 0xC9 SLOAD PUSH1 0x40 MLOAD PUSH4 0x23B872DD PUSH1 0xE0 SHL DUP2 MSTORE CALLER PUSH1 0x4 DUP3 ADD MSTORE ADDRESS PUSH1 0x24 DUP3 ADD MSTORE PUSH1 0x44 DUP2 ADD DUP6 SWAP1 MSTORE PUSH1 0x1 PUSH1 0x1 PUSH1 0xA0 SHL SUB SWAP1 SWAP2 AND SWAP1 PUSH4 0x23B872DD SWAP1 PUSH1 0x64 ADD PUSH1 0x20 PUSH1 0x40 MLOAD DUP1 DUP4 SUB DUP2 PUSH0 DUP8 GAS CALL ISZERO DUP1 ISZERO PUSH2 0x1105 JUMPI RETURNDATASIZE PUSH0 PUSH0 RETURNDATACOPY RETURNDATASIZE PUSH0 REVERT JUMPDEST POP POP POP POP PUSH1 0x40 MLOAD RETURNDATASIZE PUSH1 0x1F NOT PUSH1 0x1F DUP3 ADD AND DUP3 ADD DUP1 PUSH1 0x40 MSTORE POP DUP2 ADD SWAP1 PUSH2 0x1129 SWAP2 SWAP1 PUSH2 0x3FB2 JUMP JUMPDEST POP JUMPDEST PUSH2 0x1135 DUP4 DUP3 PUSH2 0x2C76 JUMP JUMPDEST PUSH0 DUP2 DUP2 MSTORE PUSH1 0xDA PUSH1 0x20 SWAP1 DUP2 MSTORE PUSH1 0x40 SWAP2 DUP3 SWAP1 KECCAK256 PUSH1 0x1 DUP2 ADD SLOAD PUSH1 0x6 SWAP1 SWAP2 ADD SLOAD DUP4 MLOAD SWAP2 DUP3 MSTORE SWAP2 DUP2 ADD SWAP2 SWAP1 SWAP2 MSTORE DUP3 SWAP2 PUSH32 0x7975828CB9027121837D9D3A5EDA3D9BF35A6582D2EC4684B110AE0B553BB4F6 SWAP2 ADD JUMPDEST PUSH1 0x40 MLOAD DUP1 SWAP2 SUB SWAP1 LOG2 POP POP POP JUMP JUMPDEST PUSH1 0x1 PUSH1 0x1 PUSH1 0xA0 SHL SUB DUP2 AND PUSH0 SWAP1 DUP2 MSTORE PUSH1 0xD6 PUSH1 0x20 MSTORE PUSH1 0x40 DUP2 KECCAK256 SLOAD DUP2 SWAP1 DUP2 SWAP1 JUMPDEST PUSH1 0x1 PUSH1 0x1 PUSH1 0xA0 SHL SUB DUP6 AND PUSH0 SWAP1 DUP2 MSTORE PUSH1 0xD5 PUSH1 0x20 MSTORE PUSH1 0x40 SWAP1 KECCAK256 SLOAD DUP2 LT ISZERO PUSH2 0x12CA JUMPI PUSH1 0x1 PUSH1 0x1 PUSH1 0xA0 SHL SUB DUP6 AND PUSH0 SWAP1 DUP2 MSTORE PUSH1 0xD5 PUSH1 0x20 MSTORE PUSH1 0x40 DUP2 KECCAK256 DUP1 SLOAD PUSH2 0x12AF SWAP2 SWAP1 DUP5 SWAP1 DUP2 LT PUSH2 0x11FA JUMPI PUSH2 0x11FA PUSH2 0x402F JUMP JUMPDEST SWAP1 PUSH0 MSTORE PUSH1 0x20 PUSH0 KECCAK256 ADD SLOAD PUSH1 0xDA PUSH0 PUSH1 0xD5 PUSH0 DUP12 PUSH1 0x1 PUSH1 0x1 PUSH1 0xA0 SHL SUB AND PUSH1 0x1 PUSH1 0x1 PUSH1 0xA0 SHL SUB AND DUP2 MSTORE PUSH1 0x20 ADD SWAP1 DUP2 MSTORE PUSH1 0x20 ADD PUSH0 KECCAK256 DUP7 DUP2 SLOAD DUP2 LT PUSH2 0x123A JUMPI PUSH2 0x123A PUSH2 0x402F JUMP JUMPDEST SWAP1 PUSH0 MSTORE PUSH1 0x20 PUSH0 KECCAK256 ADD SLOAD DUP2 MSTORE PUSH1 0x20 ADD SWAP1 DUP2 MSTORE PUSH1 0x20 ADD PUSH0 KECCAK256 PUSH1 0x8 ADD SLOAD PUSH1 0xDA PUSH0 PUSH1 0xD5 PUSH0 DUP13 PUSH1 0x1 PUSH1 0x1 PUSH1 0xA0 SHL SUB AND PUSH1 0x1 PUSH1 0x1 PUSH1 0xA0 SHL SUB AND DUP2 MSTORE PUSH1 0x20 ADD SWAP1 DUP2 MSTORE PUSH1 0x20 ADD PUSH0 KECCAK256 DUP8 DUP2 SLOAD DUP2 LT PUSH2 0x128B JUMPI PUSH2 0x128B PUSH2 0x402F JUMP JUMPDEST SWAP1 PUSH0 MSTORE PUSH1 0x20 PUSH0 KECCAK256 ADD SLOAD DUP2 MSTORE PUSH1 0x20 ADD SWAP1 DUP2 MSTORE PUSH1 0x20 ADD PUSH0 KECCAK256 PUSH1 0x9 ADD SLOAD PUSH2 0x4F3 SWAP2 SWAP1 PUSH2 0x3F56 JUMP JUMPDEST POP POP SWAP1 POP DUP1 DUP5 PUSH2 0x12BF SWAP2 SWAP1 PUSH2 0x3F9F JUMP JUMPDEST SWAP4 POP POP PUSH1 0x1 ADD PUSH2 0x11AD JUMP JUMPDEST POP PUSH1 0x1 PUSH1 0x1 PUSH1 0xA0 SHL SUB DUP5 AND PUSH0 SWAP1 DUP2 MSTORE PUSH1 0xD8 PUSH1 0x20 MSTORE PUSH1 0x40 SWAP1 KECCAK256 SLOAD ISZERO DUP1 ISZERO SWAP1 PUSH2 0x1319 JUMPI POP PUSH1 0x1 PUSH1 0x1 PUSH1 0xA0 SHL SUB DUP5 AND PUSH0 SWAP1 DUP2 MSTORE PUSH1 0xD8 PUSH1 0x20 SWAP1 DUP2 MSTORE PUSH1 0x40 DUP1 DUP4 KECCAK256 SLOAD DUP4 MSTORE PUSH1 0xDA SWAP1 SWAP2 MSTORE SWAP1 KECCAK256 PUSH1 0x8 ADD SLOAD PUSH1 0xCD SLOAD GT JUMPDEST ISZERO PUSH2 0x135F JUMPI PUSH1 0x1 PUSH1 0x1 PUSH1 0xA0 SHL SUB DUP5 AND PUSH0 SWAP1 DUP2 MSTORE PUSH1 0xD8 PUSH1 0x20 SWAP1 DUP2 MSTORE PUSH1 0x40 DUP1 DUP4 KECCAK256 SLOAD DUP1 DUP5 MSTORE PUSH1 0xDA SWAP1 SWAP3 MSTORE SWAP1 SWAP2 KECCAK256 PUSH1 0x8 ADD SLOAD PUSH1 0xCD SLOAD PUSH2 0x1359 SWAP3 SWAP2 PUSH2 0x4F3 SWAP2 PUSH2 0x3F56 JUMP JUMPDEST POP SWAP1 SWAP2 POP POP JUMPDEST PUSH1 0x1 PUSH1 0x1 PUSH1 0xA0 SHL SUB DUP5 AND PUSH0 SWAP1 DUP2 MSTORE PUSH1 0xD7 PUSH1 0x20 MSTORE PUSH1 0x40 SWAP1 KECCAK256 SLOAD PUSH2 0x1381 DUP3 DUP5 PUSH2 0x3F9F JUMP JUMPDEST PUSH2 0x9CB SWAP2 SWAP1 PUSH2 0x3F9F JUMP JUMPDEST PUSH0 MLOAD PUSH1 0x20 PUSH2 0x4338 PUSH0 CODECOPY PUSH0 MLOAD SWAP1 PUSH0 MSTORE PUSH2 0x13A2 DUP2 PUSH2 0x2895 JUMP JUMPDEST PUSH1 0xCB SLOAD PUSH0 SWAP1 DUP2 JUMPDEST DUP2 DUP2 LT ISZERO PUSH2 0x142F JUMPI DUP6 PUSH1 0x40 MLOAD PUSH1 0x20 ADD PUSH2 0x13C2 SWAP2 SWAP1 PUSH2 0x405A JUMP JUMPDEST PUSH1 0x40 MLOAD PUSH1 0x20 DUP2 DUP4 SUB SUB DUP2 MSTORE SWAP1 PUSH1 0x40 MSTORE DUP1 MLOAD SWAP1 PUSH1 0x20 ADD KECCAK256 PUSH1 0xCB DUP3 DUP2 SLOAD DUP2 LT PUSH2 0x13EB JUMPI PUSH2 0x13EB PUSH2 0x402F JUMP JUMPDEST SWAP1 PUSH0 MSTORE PUSH1 0x20 PUSH0 KECCAK256 ADD PUSH1 0x40 MLOAD PUSH1 0x20 ADD PUSH2 0x1403 SWAP2 SWAP1 PUSH2 0x4097 JUMP JUMPDEST PUSH1 0x40 MLOAD PUSH1 0x20 DUP2 DUP4 SUB SUB DUP2 MSTORE SWAP1 PUSH1 0x40 MSTORE DUP1 MLOAD SWAP1 PUSH1 0x20 ADD KECCAK256 SUB PUSH2 0x1427 JUMPI PUSH1 0x1 SWAP3 POP PUSH2 0x142F JUMP JUMPDEST PUSH1 0x1 ADD PUSH2 0x13A9 JUMP JUMPDEST POP DUP2 PUSH2 0x1473 JUMPI PUSH1 0x40 MLOAD PUSH3 0x461BCD PUSH1 0xE5 SHL DUP2 MSTORE PUSH1 0x20 PUSH1 0x4 DUP3 ADD MSTORE PUSH1 0x13 PUSH1 0x24 DUP3 ADD MSTORE PUSH19 0x141BDBDB08191BD95CC81B9BDD08195E1A5CDD PUSH1 0x6A SHL PUSH1 0x44 DUP3 ADD MSTORE PUSH1 0x64 ADD PUSH2 0xA41 JUMP JUMPDEST DUP4 PUSH1 0xD9 DUP7 PUSH1 0x40 MLOAD PUSH2 0x1484 SWAP2 SWAP1 PUSH2 0x405A JUMP JUMPDEST SWAP1 DUP2 MSTORE PUSH1 0x40 MLOAD SWAP1 DUP2 SWAP1 SUB PUSH1 0x20 ADD SWAP1 KECCAK256 DUP1 SLOAD SWAP2 ISZERO ISZERO PUSH1 0xFF NOT SWAP1 SWAP3 AND SWAP2 SWAP1 SWAP2 OR SWAP1 SSTORE POP POP POP POP POP JUMP JUMPDEST PUSH32 0x4C716A0EBD1CFD3E93CA0DB9B9F8A0A9CB7C1D4CC18B52950E1F5528CC73CB5D PUSH2 0x14D5 DUP2 PUSH2 0x2895 JUMP JUMPDEST PUSH2 0x14DD PUSH2 0x289F JUMP JUMPDEST PUSH1 0xD1 SLOAD PUSH1 0xC9 SLOAD PUSH1 0x40 MLOAD PUSH4 0x70A08231 PUSH1 0xE0 SHL DUP2 MSTORE CALLER PUSH1 0x4 DUP3 ADD MSTORE PUSH0 SWAP3 PUSH3 0x989680 SWAP3 SWAP1 SWAP2 PUSH1 0x1 PUSH1 0x1 PUSH1 0xA0 SHL SUB SWAP1 SWAP2 AND SWAP1 PUSH4 0x70A08231 SWAP1 PUSH1 0x24 ADD PUSH1 0x20 PUSH1 0x40 MLOAD DUP1 DUP4 SUB DUP2 DUP7 GAS STATICCALL ISZERO DUP1 ISZERO PUSH2 0x152F JUMPI RETURNDATASIZE PUSH0 PUSH0 RETURNDATACOPY RETURNDATASIZE PUSH0 REVERT JUMPDEST POP POP POP POP PUSH1 0x40 MLOAD RETURNDATASIZE PUSH1 0x1F NOT PUSH1 0x1F DUP3 ADD AND DUP3 ADD DUP1 PUSH1 0x40 MSTORE POP DUP2 ADD SWAP1 PUSH2 0x1553 SWAP2 SWAP1 PUSH2 0x4108 JUMP JUMPDEST PUSH2 0x155D SWAP2 SWAP1 PUSH2 0x3F88 JUMP JUMPDEST PUSH2 0x1567 SWAP2 SWAP1 PUSH2 0x3F69 JUMP JUMPDEST SWAP1 POP PUSH1 0xD0 SLOAD DUP2 LT ISZERO PUSH2 0x15CE JUMPI PUSH1 0x40 MLOAD PUSH3 0x461BCD PUSH1 0xE5 SHL DUP2 MSTORE PUSH1 0x20 PUSH1 0x4 DUP3 ADD MSTORE PUSH1 0x2A PUSH1 0x24 DUP3 ADD MSTORE PUSH32 0x526577617264206D757374206265206174206C6561737420746865206D696E69 PUSH1 0x44 DUP3 ADD MSTORE PUSH10 0x1B5D5B48185B5BDD5B9D PUSH1 0xB2 SHL PUSH1 0x64 DUP3 ADD MSTORE PUSH1 0x84 ADD PUSH2 0xA41 JUMP JUMPDEST PUSH1 0xCD SLOAD PUSH2 0x15D9 PUSH2 0x2076 JUMP JUMPDEST DUP2 LT PUSH2 0x1627 JUMPI PUSH1 0x40 MLOAD PUSH3 0x461BCD PUSH1 0xE5 SHL DUP2 MSTORE PUSH1 0x20 PUSH1 0x4 DUP3 ADD MSTORE PUSH1 0x1A PUSH1 0x24 DUP3 ADD MSTORE PUSH32 0x43616E6E6F742070726F63657373206265666F72652074696D65000000000000 PUSH1 0x44 DUP3 ADD MSTORE PUSH1 0x64 ADD PUSH2 0xA41 JUMP JUMPDEST PUSH1 0xC9 SLOAD PUSH1 0x40 MLOAD PUSH4 0x23B872DD PUSH1 0xE0 SHL DUP2 MSTORE CALLER PUSH1 0x4 DUP3 ADD MSTORE ADDRESS PUSH1 0x24 DUP3 ADD MSTORE PUSH1 0x44 DUP2 ADD DUP5 SWAP1 MSTORE PUSH1 0x1 PUSH1 0x1 PUSH1 0xA0 SHL SUB SWAP1 SWAP2 AND SWAP1 PUSH4 0x23B872DD SWAP1 PUSH1 0x64 ADD PUSH1 0x20 PUSH1 0x40 MLOAD DUP1 DUP4 SUB DUP2 PUSH0 DUP8 GAS CALL ISZERO DUP1 ISZERO PUSH2 0x167B JUMPI RETURNDATASIZE PUSH0 PUSH0 RETURNDATACOPY RETURNDATASIZE PUSH0 REVERT JUMPDEST POP POP POP POP PUSH1 0x40 MLOAD RETURNDATASIZE PUSH1 0x1F NOT PUSH1 0x1F DUP3 ADD AND DUP3 ADD DUP1 PUSH1 0x40 MSTORE POP DUP2 ADD SWAP1 PUSH2 0x169F SWAP2 SWAP1 PUSH2 0x3FB2 JUMP JUMPDEST POP PUSH1 0xD3 SLOAD PUSH2 0x16AD DUP2 DUP5 PUSH2 0x3F9F JUMP JUMPDEST PUSH0 DUP4 DUP2 MSTORE PUSH1 0xDB PUSH1 0x20 MSTORE PUSH1 0x40 DUP2 KECCAK256 PUSH1 0x2 ADD DUP3 SWAP1 SSTORE SWAP1 SWAP4 POP SWAP1 POP PUSH3 0x93A80 PUSH2 0x16D4 DUP4 PUSH1 0x1 PUSH2 0x3F9F JUMP JUMPDEST PUSH2 0x16DE SWAP2 SWAP1 PUSH2 0x3F88 JUMP JUMPDEST PUSH1 0xD2 SLOAD PUSH2 0x16EB SWAP2 SWAP1 PUSH2 0x3F9F JUMP JUMPDEST PUSH0 DUP4 DUP2 MSTORE PUSH1 0xDB PUSH1 0x20 MSTORE PUSH1 0x40 DUP2 KECCAK256 PUSH1 0x1 ADD SWAP2 SWAP1 SWAP2 SSTORE JUMPDEST PUSH1 0xCB SLOAD DUP2 LT ISZERO PUSH2 0x1979 JUMPI PUSH1 0xDB PUSH0 DUP5 DUP2 MSTORE PUSH1 0x20 ADD SWAP1 DUP2 MSTORE PUSH1 0x20 ADD PUSH0 KECCAK256 PUSH1 0x4 ADD PUSH1 0xCB DUP3 DUP2 SLOAD DUP2 LT PUSH2 0x1731 JUMPI PUSH2 0x1731 PUSH2 0x402F JUMP JUMPDEST SWAP1 PUSH0 MSTORE PUSH1 0x20 PUSH0 KECCAK256 ADD PUSH1 0x40 MLOAD PUSH2 0x1746 SWAP2 SWAP1 PUSH2 0x4097 JUMP JUMPDEST SWAP1 DUP2 MSTORE PUSH1 0x20 ADD PUSH1 0x40 MLOAD DUP1 SWAP2 SUB SWAP1 KECCAK256 SLOAD PUSH1 0xD9 PUSH1 0xCB DUP4 DUP2 SLOAD DUP2 LT PUSH2 0x176A JUMPI PUSH2 0x176A PUSH2 0x402F JUMP JUMPDEST SWAP1 PUSH0 MSTORE PUSH1 0x20 PUSH0 KECCAK256 ADD PUSH1 0x40 MLOAD PUSH2 0x177F SWAP2 SWAP1 PUSH2 0x4097 JUMP JUMPDEST SWAP1 DUP2 MSTORE PUSH1 0x20 ADD PUSH1 0x40 MLOAD DUP1 SWAP2 SUB SWAP1 KECCAK256 PUSH1 0x4 ADD PUSH0 DUP3 DUP3 SLOAD PUSH2 0x179E SWAP2 SWAP1 PUSH2 0x3F9F JUMP JUMPDEST SWAP1 SWAP2 SSTORE POP POP DUP1 ISZERO PUSH2 0x1843 JUMPI PUSH1 0xDB PUSH0 DUP5 DUP2 MSTORE PUSH1 0x20 ADD SWAP1 DUP2 MSTORE PUSH1 0x20 ADD PUSH0 KECCAK256 PUSH1 0x5 ADD PUSH1 0xCB DUP3 DUP2 SLOAD DUP2 LT PUSH2 0x17D0 JUMPI PUSH2 0x17D0 PUSH2 0x402F JUMP JUMPDEST SWAP1 PUSH0 MSTORE PUSH1 0x20 PUSH0 KECCAK256 ADD PUSH1 0x40 MLOAD PUSH2 0x17E5 SWAP2 SWAP1 PUSH2 0x4097 JUMP JUMPDEST SWAP1 DUP2 MSTORE PUSH1 0x20 ADD PUSH1 0x40 MLOAD DUP1 SWAP2 SUB SWAP1 KECCAK256 SLOAD PUSH1 0xD9 PUSH1 0xCB DUP4 DUP2 SLOAD DUP2 LT PUSH2 0x1809 JUMPI PUSH2 0x1809 PUSH2 0x402F JUMP JUMPDEST SWAP1 PUSH0 MSTORE PUSH1 0x20 PUSH0 KECCAK256 ADD PUSH1 0x40 MLOAD PUSH2 0x181E SWAP2 SWAP1 PUSH2 0x4097 JUMP JUMPDEST SWAP1 DUP2 MSTORE PUSH1 0x20 ADD PUSH1 0x40 MLOAD DUP1 SWAP2 SUB SWAP1 KECCAK256 PUSH1 0x4 ADD PUSH0 DUP3 DUP3 SLOAD PUSH2 0x183D SWAP2 SWAP1 PUSH2 0x3F56 JUMP JUMPDEST SWAP1 SWAP2 SSTORE POP POP JUMPDEST PUSH1 0xD9 PUSH1 0xCB DUP3 DUP2 SLOAD DUP2 LT PUSH2 0x1858 JUMPI PUSH2 0x1858 PUSH2 0x402F JUMP JUMPDEST SWAP1 PUSH0 MSTORE PUSH1 0x20 PUSH0 KECCAK256 ADD PUSH1 0x40 MLOAD PUSH2 0x186D SWAP2 SWAP1 PUSH2 0x4097 JUMP JUMPDEST SWAP1 DUP2 MSTORE PUSH1 0x20 ADD PUSH1 0x40 MLOAD DUP1 SWAP2 SUB SWAP1 KECCAK256 PUSH1 0x4 ADD SLOAD PUSH1 0xDB PUSH0 DUP6 DUP2 MSTORE PUSH1 0x20 ADD SWAP1 DUP2 MSTORE PUSH1 0x20 ADD PUSH0 KECCAK256 PUSH1 0x3 ADD PUSH1 0xCB DUP4 DUP2 SLOAD DUP2 LT PUSH2 0x18A6 JUMPI PUSH2 0x18A6 PUSH2 0x402F JUMP JUMPDEST SWAP1 PUSH0 MSTORE PUSH1 0x20 PUSH0 KECCAK256 ADD PUSH1 0x40 MLOAD PUSH2 0x18BB SWAP2 SWAP1 PUSH2 0x4097 JUMP JUMPDEST SWAP1 DUP2 MSTORE PUSH1 0x20 ADD PUSH1 0x40 MLOAD DUP1 SWAP2 SUB SWAP1 KECCAK256 DUP2 SWAP1 SSTORE POP PUSH1 0xD9 PUSH1 0xCB DUP3 DUP2 SLOAD DUP2 LT PUSH2 0x18E2 JUMPI PUSH2 0x18E2 PUSH2 0x402F JUMP JUMPDEST SWAP1 PUSH0 MSTORE PUSH1 0x20 PUSH0 KECCAK256 ADD PUSH1 0x40 MLOAD PUSH2 0x18F7 SWAP2 SWAP1 PUSH2 0x4097 JUMP JUMPDEST SWAP1 DUP2 MSTORE PUSH1 0x20 ADD PUSH1 0x40 MLOAD DUP1 SWAP2 SUB SWAP1 KECCAK256 PUSH1 0x4 ADD SLOAD PUSH0 SUB PUSH2 0x1971 JUMPI PUSH3 0x989680 PUSH1 0xD9 PUSH1 0xCB DUP4 DUP2 SLOAD DUP2 LT PUSH2 0x1928 JUMPI PUSH2 0x1928 PUSH2 0x402F JUMP JUMPDEST SWAP1 PUSH0 MSTORE PUSH1 0x20 PUSH0 KECCAK256 ADD PUSH1 0x40 MLOAD PUSH2 0x193D SWAP2 SWAP1 PUSH2 0x4097 JUMP JUMPDEST SWAP1 DUP2 MSTORE PUSH1 0x20 ADD PUSH1 0x40 MLOAD DUP1 SWAP2 SUB SWAP1 KECCAK256 PUSH1 0x2 ADD SLOAD DUP6 PUSH2 0x195A SWAP2 SWAP1 PUSH2 0x3F88 JUMP JUMPDEST PUSH2 0x1964 SWAP2 SWAP1 PUSH2 0x3F69 JUMP JUMPDEST PUSH2 0x196E SWAP1 DUP4 PUSH2 0x3F9F JUMP JUMPDEST SWAP2 POP JUMPDEST PUSH1 0x1 ADD PUSH2 0x1700 JUMP JUMPDEST POP PUSH1 0xD3 DUP2 SWAP1 SSTORE PUSH1 0x40 MLOAD DUP4 DUP2 MSTORE DUP3 SWAP1 PUSH32 0x40DF43107E8B4D467127964BD3C966687C0A6A39AAEDE970755397FD09535E98 SWAP1 PUSH1 0x20 ADD PUSH1 0x40 MLOAD DUP1 SWAP2 SUB SWAP1 LOG2 PUSH0 DUP3 DUP2 MSTORE PUSH1 0xDB PUSH1 0x20 MSTORE PUSH1 0x40 DUP2 KECCAK256 DUP1 SLOAD PUSH1 0xFF NOT AND PUSH1 0x1 OR SWAP1 SSTORE PUSH1 0xCD DUP1 SLOAD SWAP2 PUSH2 0x19DA DUP4 PUSH2 0x3FCD JUMP JUMPDEST SWAP2 SWAP1 POP SSTORE POP POP POP POP POP JUMP JUMPDEST PUSH2 0x19ED PUSH2 0x289F JUMP JUMPDEST PUSH0 PUSH2 0x19F7 CALLER PUSH2 0x1FB2 JUMP JUMPDEST SWAP1 POP DUP1 ISZERO DUP1 ISZERO SWAP1 PUSH2 0x1A17 JUMPI POP PUSH0 DUP2 DUP2 MSTORE PUSH1 0xDA PUSH1 0x20 MSTORE PUSH1 0x40 SWAP1 KECCAK256 PUSH1 0x5 ADD SLOAD TIMESTAMP LT JUMPDEST PUSH2 0x1A5A JUMPI PUSH1 0x40 MLOAD PUSH3 0x461BCD PUSH1 0xE5 SHL DUP2 MSTORE PUSH1 0x20 PUSH1 0x4 DUP3 ADD MSTORE PUSH1 0x14 PUSH1 0x24 DUP3 ADD MSTORE PUSH20 0x139BC81858DD1A5D99481B1BD8DAC8199BDD5B99 PUSH1 0x62 SHL PUSH1 0x44 DUP3 ADD MSTORE PUSH1 0x64 ADD PUSH2 0xA41 JUMP JUMPDEST PUSH0 DUP2 DUP2 MSTORE PUSH1 0xDA PUSH1 0x20 MSTORE PUSH1 0x40 SWAP1 DUP2 SWAP1 KECCAK256 PUSH1 0x3 ADD SLOAD SWAP1 MLOAD PUSH1 0xD9 SWAP1 PUSH2 0x1A7D SWAP1 DUP6 SWAP1 PUSH2 0x405A JUMP JUMPDEST SWAP1 DUP2 MSTORE PUSH1 0x20 ADD PUSH1 0x40 MLOAD DUP1 SWAP2 SUB SWAP1 KECCAK256 PUSH1 0x3 ADD SLOAD LT ISZERO PUSH2 0x1AF5 JUMPI PUSH1 0x40 MLOAD PUSH3 0x461BCD PUSH1 0xE5 SHL DUP2 MSTORE PUSH1 0x20 PUSH1 0x4 DUP3 ADD MSTORE PUSH1 0x2F PUSH1 0x24 DUP3 ADD MSTORE PUSH32 0x4C6F636B206475726174696F6E2063616E6E6F74206265206C65737320746861 PUSH1 0x44 DUP3 ADD MSTORE PUSH15 0x6E206578697374696E67206C6F636B PUSH1 0x88 SHL PUSH1 0x64 DUP3 ADD MSTORE PUSH1 0x84 ADD PUSH2 0xA41 JUMP JUMPDEST PUSH0 DUP2 DUP2 MSTORE PUSH1 0xDA PUSH1 0x20 MSTORE PUSH1 0x40 DUP2 KECCAK256 PUSH1 0x1 DUP2 ADD SLOAD DUP2 SLOAD SWAP1 SWAP3 SWAP2 SWAP1 PUSH2 0x1B16 SWAP1 PUSH2 0x4065 JUMP JUMPDEST DUP1 PUSH1 0x1F ADD PUSH1 0x20 DUP1 SWAP2 DIV MUL PUSH1 0x20 ADD PUSH1 0x40 MLOAD SWAP1 DUP2 ADD PUSH1 0x40 MSTORE DUP1 SWAP3 SWAP2 SWAP1 DUP2 DUP2 MSTORE PUSH1 0x20 ADD DUP3 DUP1 SLOAD PUSH2 0x1B42 SWAP1 PUSH2 0x4065 JUMP JUMPDEST DUP1 ISZERO PUSH2 0x1B8D JUMPI DUP1 PUSH1 0x1F LT PUSH2 0x1B64 JUMPI PUSH2 0x100 DUP1 DUP4 SLOAD DIV MUL DUP4 MSTORE SWAP2 PUSH1 0x20 ADD SWAP2 PUSH2 0x1B8D JUMP JUMPDEST DUP3 ADD SWAP2 SWAP1 PUSH0 MSTORE PUSH1 0x20 PUSH0 KECCAK256 SWAP1 JUMPDEST DUP2 SLOAD DUP2 MSTORE SWAP1 PUSH1 0x1 ADD SWAP1 PUSH1 0x20 ADD DUP1 DUP4 GT PUSH2 0x1B70 JUMPI DUP3 SWAP1 SUB PUSH1 0x1F AND DUP3 ADD SWAP2 JUMPDEST POP POP POP PUSH0 DUP7 DUP2 MSTORE PUSH1 0xDA PUSH1 0x20 MSTORE PUSH1 0x40 DUP2 KECCAK256 PUSH1 0x2 DUP2 ADD DUP1 SLOAD PUSH2 0xFF00 NOT AND SWAP1 SSTORE TIMESTAMP PUSH1 0x5 SWAP1 SWAP2 ADD SSTORE SWAP3 SWAP4 POP PUSH2 0x1BC0 SWAP2 POP PUSH2 0x2076 SWAP1 POP JUMP JUMPDEST PUSH0 DUP6 DUP2 MSTORE PUSH1 0xDA PUSH1 0x20 MSTORE PUSH1 0x40 SWAP1 KECCAK256 PUSH1 0x9 ADD SLOAD SWAP1 SWAP2 POP DUP2 LT ISZERO PUSH2 0x1CEC JUMPI PUSH0 DUP5 DUP2 MSTORE PUSH1 0xDA PUSH1 0x20 SWAP1 DUP2 MSTORE PUSH1 0x40 DUP1 DUP4 KECCAK256 PUSH1 0x9 ADD SLOAD DUP4 MSTORE PUSH1 0xDB SWAP1 SWAP2 MSTORE SWAP1 DUP2 SWAP1 KECCAK256 SWAP1 MLOAD DUP5 SWAP2 PUSH1 0x5 ADD SWAP1 PUSH2 0x1C0D SWAP1 DUP6 SWAP1 PUSH2 0x405A JUMP JUMPDEST SWAP1 DUP2 MSTORE PUSH1 0x20 ADD PUSH1 0x40 MLOAD DUP1 SWAP2 SUB SWAP1 KECCAK256 PUSH0 DUP3 DUP3 SLOAD PUSH2 0x1C29 SWAP2 SWAP1 PUSH2 0x3F56 JUMP JUMPDEST SWAP1 SWAP2 SSTORE POP POP PUSH0 DUP5 DUP2 MSTORE PUSH1 0xDA PUSH1 0x20 SWAP1 DUP2 MSTORE PUSH1 0x40 DUP1 DUP4 KECCAK256 PUSH1 0x9 ADD DUP5 SWAP1 SSTORE DUP4 DUP4 MSTORE PUSH1 0xDB SWAP1 SWAP2 MSTORE SWAP1 DUP2 SWAP1 KECCAK256 SWAP1 MLOAD DUP5 SWAP2 PUSH1 0x5 ADD SWAP1 PUSH2 0x1C63 SWAP1 DUP6 SWAP1 PUSH2 0x405A JUMP JUMPDEST SWAP1 DUP2 MSTORE PUSH1 0x20 ADD PUSH1 0x40 MLOAD DUP1 SWAP2 SUB SWAP1 KECCAK256 PUSH0 DUP3 DUP3 SLOAD PUSH2 0x1C7F SWAP2 SWAP1 PUSH2 0x3F9F JUMP JUMPDEST SWAP1 SWAP2 SSTORE POP POP PUSH0 DUP5 DUP2 MSTORE PUSH1 0xDA PUSH1 0x20 MSTORE PUSH1 0x40 SWAP1 KECCAK256 PUSH1 0x9 DUP2 ADD SLOAD PUSH1 0x8 SWAP1 SWAP2 ADD SLOAD EQ DUP1 ISZERO PUSH2 0x1CB6 JUMPI POP CALLER PUSH0 SWAP1 DUP2 MSTORE PUSH1 0xD5 PUSH1 0x20 MSTORE PUSH1 0x40 SWAP1 KECCAK256 SLOAD ISZERO ISZERO JUMPDEST ISZERO PUSH2 0x1CEC JUMPI CALLER PUSH0 SWAP1 DUP2 MSTORE PUSH1 0xD5 PUSH1 0x20 MSTORE PUSH1 0x40 SWAP1 KECCAK256 DUP1 SLOAD DUP1 PUSH2 0x1CD8 JUMPI PUSH2 0x1CD8 PUSH2 0x411F JUMP JUMPDEST PUSH1 0x1 SWAP1 SUB DUP2 DUP2 SWAP1 PUSH0 MSTORE PUSH1 0x20 PUSH0 KECCAK256 ADD PUSH0 SWAP1 SSTORE SWAP1 SSTORE JUMPDEST PUSH0 DUP5 DUP2 MSTORE PUSH1 0xDA PUSH1 0x20 MSTORE PUSH1 0x40 SWAP1 KECCAK256 PUSH1 0x6 ADD SLOAD PUSH2 0x1D0C SWAP1 DUP8 SWAP1 DUP6 SWAP1 DUP9 DUP6 PUSH2 0x2F6E JUMP JUMPDEST PUSH1 0xCC SLOAD PUSH1 0x40 MLOAD DUP6 SWAP1 PUSH32 0x49B2ADA88C09D45D501A352DDD16F0B8BABA46034A2B243BFA8E215E2745F233 SWAP1 PUSH0 SWAP1 LOG3 POP POP POP POP POP POP JUMP JUMPDEST PUSH1 0xCB DUP2 DUP2 SLOAD DUP2 LT PUSH2 0x1D50 JUMPI PUSH0 DUP1 REVERT JUMPDEST SWAP1 PUSH0 MSTORE PUSH1 0x20 PUSH0 KECCAK256 ADD PUSH0 SWAP2 POP SWAP1 POP DUP1 SLOAD PUSH2 0x1D68 SWAP1 PUSH2 0x4065 JUMP JUMPDEST DUP1 PUSH1 0x1F ADD PUSH1 0x20 DUP1 SWAP2 DIV MUL PUSH1 0x20 ADD PUSH1 0x40 MLOAD SWAP1 DUP2 ADD PUSH1 0x40 MSTORE DUP1 SWAP3 SWAP2 SWAP1 DUP2 DUP2 MSTORE PUSH1 0x20 ADD DUP3 DUP1 SLOAD PUSH2 0x1D94 SWAP1 PUSH2 0x4065 JUMP JUMPDEST DUP1 ISZERO PUSH2 0x1DDF JUMPI DUP1 PUSH1 0x1F LT PUSH2 0x1DB6 JUMPI PUSH2 0x100 DUP1 DUP4 SLOAD DIV MUL DUP4 MSTORE SWAP2 PUSH1 0x20 ADD SWAP2 PUSH2 0x1DDF JUMP JUMPDEST DUP3 ADD SWAP2 SWAP1 PUSH0 MSTORE PUSH1 0x20 PUSH0 KECCAK256 SWAP1 JUMPDEST DUP2 SLOAD DUP2 MSTORE SWAP1 PUSH1 0x1 ADD SWAP1 PUSH1 0x20 ADD DUP1 DUP4 GT PUSH2 0x1DC2 JUMPI DUP3 SWAP1 SUB PUSH1 0x1F AND DUP3 ADD SWAP2 JUMPDEST POP POP POP POP POP DUP2 JUMP JUMPDEST PUSH0 PUSH0 PUSH0 PUSH1 0xDB PUSH0 DUP7 DUP2 MSTORE PUSH1 0x20 ADD SWAP1 DUP2 MSTORE PUSH1 0x20 ADD PUSH0 KECCAK256 PUSH1 0x3 ADD DUP5 PUSH1 0x40 MLOAD PUSH2 0x1E0C SWAP2 SWAP1 PUSH2 0x405A JUMP JUMPDEST SWAP1 DUP2 MSTORE PUSH1 0x20 ADD PUSH1 0x40 MLOAD DUP1 SWAP2 SUB SWAP1 KECCAK256 SLOAD PUSH1 0xDB PUSH0 DUP8 DUP2 MSTORE PUSH1 0x20 ADD SWAP1 DUP2 MSTORE PUSH1 0x20 ADD PUSH0 KECCAK256 PUSH1 0x4 ADD DUP6 PUSH1 0x40 MLOAD PUSH2 0x1E3D SWAP2 SWAP1 PUSH2 0x405A JUMP JUMPDEST SWAP1 DUP2 MSTORE PUSH1 0x20 ADD PUSH1 0x40 MLOAD DUP1 SWAP2 SUB SWAP1 KECCAK256 SLOAD PUSH1 0xDB PUSH0 DUP9 DUP2 MSTORE PUSH1 0x20 ADD SWAP1 DUP2 MSTORE PUSH1 0x20 ADD PUSH0 KECCAK256 PUSH1 0x5 ADD DUP7 PUSH1 0x40 MLOAD PUSH2 0x1E6E SWAP2 SWAP1 PUSH2 0x405A JUMP JUMPDEST SWAP1 DUP2 MSTORE PUSH1 0x20 ADD PUSH1 0x40 MLOAD DUP1 SWAP2 SUB SWAP1 KECCAK256 SLOAD SWAP3 POP SWAP3 POP SWAP3 POP SWAP3 POP SWAP3 POP SWAP3 JUMP JUMPDEST PUSH1 0xD5 PUSH1 0x20 MSTORE DUP2 PUSH0 MSTORE PUSH1 0x40 PUSH0 KECCAK256 DUP2 DUP2 SLOAD DUP2 LT PUSH2 0x1EA3 JUMPI PUSH0 DUP1 REVERT JUMPDEST SWAP1 PUSH0 MSTORE PUSH1 0x20 PUSH0 KECCAK256 ADD PUSH0 SWAP2 POP SWAP2 POP POP SLOAD DUP2 JUMP JUMPDEST PUSH0 MLOAD PUSH1 0x20 PUSH2 0x4318 PUSH0 CODECOPY PUSH0 MLOAD SWAP1 PUSH0 MSTORE PUSH2 0x1ECC DUP2 PUSH2 0x2895 JUMP JUMPDEST PUSH2 0xDF3 PUSH2 0x34F8 JUMP JUMPDEST PUSH0 SWAP2 DUP3 MSTORE PUSH1 0x97 PUSH1 0x20 SWAP1 DUP2 MSTORE PUSH1 0x40 DUP1 DUP5 KECCAK256 PUSH1 0x1 PUSH1 0x1 PUSH1 0xA0 SHL SUB SWAP4 SWAP1 SWAP4 AND DUP5 MSTORE SWAP2 SWAP1 MSTORE SWAP1 KECCAK256 SLOAD PUSH1 0xFF AND SWAP1 JUMP JUMPDEST PUSH0 MLOAD PUSH1 0x20 PUSH2 0x4338 PUSH0 CODECOPY PUSH0 MLOAD SWAP1 PUSH0 MSTORE PUSH2 0x1F15 DUP2 PUSH2 0x2895 JUMP JUMPDEST PUSH3 0x989680 DUP3 GT ISZERO PUSH2 0x1F68 JUMPI PUSH1 0x40 MLOAD PUSH3 0x461BCD PUSH1 0xE5 SHL DUP2 MSTORE PUSH1 0x20 PUSH1 0x4 DUP3 ADD MSTORE PUSH1 0x18 PUSH1 0x24 DUP3 ADD MSTORE PUSH32 0x496E76616C69642070657263656E746167652076616C75650000000000000000 PUSH1 0x44 DUP3 ADD MSTORE PUSH1 0x64 ADD PUSH2 0xA41 JUMP JUMPDEST POP PUSH1 0xD1 SSTORE JUMP JUMPDEST PUSH0 PUSH4 0x5F5E100 PUSH1 0xD9 DUP4 PUSH1 0x40 MLOAD PUSH2 0x1F84 SWAP2 SWAP1 PUSH2 0x405A JUMP JUMPDEST SWAP1 DUP2 MSTORE PUSH1 0x20 ADD PUSH1 0x40 MLOAD DUP1 SWAP2 SUB SWAP1 KECCAK256 PUSH1 0x1 ADD SLOAD DUP5 PUSH2 0x1FA1 SWAP2 SWAP1 PUSH2 0x3F88 JUMP JUMPDEST PUSH2 0x1FAB SWAP2 SWAP1 PUSH2 0x3F69 JUMP JUMPDEST SWAP4 SWAP3 POP POP POP JUMP JUMPDEST PUSH1 0x1 PUSH1 0x1 PUSH1 0xA0 SHL SUB DUP2 AND PUSH0 SWAP1 DUP2 MSTORE PUSH1 0xD4 PUSH1 0x20 MSTORE PUSH1 0x40 DUP2 KECCAK256 SLOAD DUP1 ISZERO PUSH2 0x2070 JUMPI PUSH1 0x1 PUSH1 0x1 PUSH1 0xA0 SHL SUB DUP4 AND PUSH0 SWAP1 DUP2 MSTORE PUSH1 0xD4 PUSH1 0x20 MSTORE PUSH1 0x40 DUP2 KECCAK256 PUSH1 0xDA SWAP2 SWAP1 PUSH2 0x1FF6 PUSH1 0x1 DUP6 PUSH2 0x3F56 JUMP JUMPDEST DUP2 SLOAD DUP2 LT PUSH2 0x2006 JUMPI PUSH2 0x2006 PUSH2 0x402F JUMP JUMPDEST SWAP1 PUSH0 MSTORE PUSH1 0x20 PUSH0 KECCAK256 ADD SLOAD DUP2 MSTORE PUSH1 0x20 ADD SWAP1 DUP2 MSTORE PUSH1 0x20 ADD PUSH0 KECCAK256 PUSH1 0x2 ADD PUSH1 0x1 SWAP1 SLOAD SWAP1 PUSH2 0x100 EXP SWAP1 DIV PUSH1 0xFF AND ISZERO PUSH2 0x2070 JUMPI PUSH1 0x1 PUSH1 0x1 PUSH1 0xA0 SHL SUB DUP4 AND PUSH0 SWAP1 DUP2 MSTORE PUSH1 0xD4 PUSH1 0x20 MSTORE PUSH1 0x40 SWAP1 KECCAK256 PUSH2 0x2054 PUSH1 0x1 DUP4 PUSH2 0x3F56 JUMP JUMPDEST DUP2 SLOAD DUP2 LT PUSH2 0x2064 JUMPI PUSH2 0x2064 PUSH2 0x402F JUMP JUMPDEST SWAP1 PUSH0 MSTORE PUSH1 0x20 PUSH0 KECCAK256 ADD SLOAD SWAP2 POP JUMPDEST POP SWAP2 SWAP1 POP JUMP JUMPDEST PUSH0 PUSH3 0x93A80 PUSH1 0xD2 SLOAD TIMESTAMP PUSH2 0x2089 SWAP2 SWAP1 PUSH2 0x3F56 JUMP JUMPDEST PUSH2 0x2093 SWAP2 SWAP1 PUSH2 0x3F69 JUMP JUMPDEST SWAP1 POP SWAP1 JUMP JUMPDEST PUSH2 0x20A0 PUSH2 0x289F JUMP JUMPDEST PUSH0 PUSH2 0x20A9 PUSH2 0x29D2 JUMP JUMPDEST SWAP1 POP PUSH0 DUP3 ISZERO PUSH2 0x2140 JUMPI POP CALLER PUSH0 SWAP1 DUP2 MSTORE PUSH1 0xD8 PUSH1 0x20 MSTORE PUSH1 0x40 DUP2 KECCAK256 SLOAD SWAP1 DUP2 SWAP1 SUB PUSH2 0x20E2 JUMPI PUSH1 0x40 MLOAD PUSH3 0x461BCD PUSH1 0xE5 SHL DUP2 MSTORE PUSH1 0x4 ADD PUSH2 0xA41 SWAP1 PUSH2 0x3FE5 JUMP JUMPDEST PUSH1 0xC9 SLOAD PUSH1 0x40 MLOAD PUSH4 0x852CD8D PUSH1 0xE3 SHL DUP2 MSTORE PUSH1 0x4 DUP2 ADD DUP5 SWAP1 MSTORE PUSH1 0x1 PUSH1 0x1 PUSH1 0xA0 SHL SUB SWAP1 SWAP2 AND SWAP1 PUSH4 0x42966C68 SWAP1 PUSH1 0x24 ADD PUSH0 PUSH1 0x40 MLOAD DUP1 DUP4 SUB DUP2 PUSH0 DUP8 DUP1 EXTCODESIZE ISZERO DUP1 ISZERO PUSH2 0x2125 JUMPI PUSH0 PUSH0 REVERT JUMPDEST POP GAS CALL ISZERO DUP1 ISZERO PUSH2 0x2137 JUMPI RETURNDATASIZE PUSH0 PUSH0 RETURNDATACOPY RETURNDATASIZE PUSH0 REVERT JUMPDEST POP POP POP POP PUSH2 0x21AD JUMP JUMPDEST PUSH2 0x2149 CALLER PUSH2 0x1FB2 JUMP JUMPDEST SWAP1 POP DUP1 ISZERO DUP1 ISZERO SWAP1 PUSH2 0x2169 JUMPI POP PUSH0 DUP2 DUP2 MSTORE PUSH1 0xDA PUSH1 0x20 MSTORE PUSH1 0x40 SWAP1 KECCAK256 PUSH1 0x5 ADD SLOAD TIMESTAMP LT JUMPDEST PUSH2 0x21AD JUMPI PUSH1 0x40 MLOAD PUSH3 0x461BCD PUSH1 0xE5 SHL DUP2 MSTORE PUSH1 0x20 PUSH1 0x4 DUP3 ADD MSTORE PUSH1 0x15 PUSH1 0x24 DUP3 ADD MSTORE PUSH21 0x4E6F20416374697665206C6F636B20657869737473 PUSH1 0x58 SHL PUSH1 0x44 DUP3 ADD MSTORE PUSH1 0x64 ADD PUSH2 0xA41 JUMP JUMPDEST PUSH2 0x21B7 DUP3 DUP3 PUSH2 0x2C76 JUMP JUMPDEST PUSH0 DUP2 DUP2 MSTORE PUSH1 0xDA PUSH1 0x20 SWAP1 DUP2 MSTORE PUSH1 0x40 SWAP2 DUP3 SWAP1 KECCAK256 PUSH1 0x1 DUP2 ADD SLOAD PUSH1 0x6 SWAP1 SWAP2 ADD SLOAD DUP4 MLOAD SWAP2 DUP3 MSTORE SWAP2 DUP2 ADD DUP6 SWAP1 MSTORE SWAP2 DUP3 ADD MSTORE DUP2 SWAP1 PUSH32 0x4E2CC4951F3EEABDD9E423F93EBA5E634644FF5FC64B2E59C2486C23A305DD8E SWAP1 PUSH1 0x60 ADD PUSH2 0x1183 JUMP JUMPDEST PUSH0 MLOAD PUSH1 0x20 PUSH2 0x4338 PUSH0 CODECOPY PUSH0 MLOAD SWAP1 PUSH0 MSTORE PUSH2 0x2225 DUP2 PUSH2 0x2895 JUMP JUMPDEST POP PUSH1 0xD0 SSTORE JUMP JUMPDEST PUSH0 DUP3 DUP2 MSTORE PUSH1 0x97 PUSH1 0x20 MSTORE PUSH1 0x40 SWAP1 KECCAK256 PUSH1 0x1 ADD SLOAD PUSH2 0x2245 DUP2 PUSH2 0x2895 JUMP JUMPDEST PUSH2 0xC94 DUP4 DUP4 PUSH2 0x296C JUMP JUMPDEST PUSH2 0x2257 PUSH2 0x289F JUMP JUMPDEST PUSH1 0xCF SLOAD DUP3 LT ISZERO PUSH2 0x2279 JUMPI PUSH1 0x40 MLOAD PUSH3 0x461BCD PUSH1 0xE5 SHL DUP2 MSTORE PUSH1 0x4 ADD PUSH2 0xA41 SWAP1 PUSH2 0x4133 JUMP JUMPDEST PUSH2 0xD13 DUP3 PUSH0 PUSH0 DUP5 PUSH2 0x2288 PUSH2 0x2076 JUMP JUMPDEST PUSH2 0x2F6E JUMP JUMPDEST PUSH1 0xD4 PUSH1 0x20 MSTORE DUP2 PUSH0 MSTORE PUSH1 0x40 PUSH0 KECCAK256 DUP2 DUP2 SLOAD DUP2 LT PUSH2 0x1EA3 JUMPI PUSH0 DUP1 REVERT JUMPDEST PUSH1 0xDA PUSH1 0x20 MSTORE PUSH0 SWAP1 DUP2 MSTORE PUSH1 0x40 SWAP1 KECCAK256 DUP1 SLOAD DUP2 SWAP1 PUSH2 0x22C0 SWAP1 PUSH2 0x4065 JUMP JUMPDEST DUP1 PUSH1 0x1F ADD PUSH1 0x20 DUP1 SWAP2 DIV MUL PUSH1 0x20 ADD PUSH1 0x40 MLOAD SWAP1 DUP2 ADD PUSH1 0x40 MSTORE DUP1 SWAP3 SWAP2 SWAP1 DUP2 DUP2 MSTORE PUSH1 0x20 ADD DUP3 DUP1 SLOAD PUSH2 0x22EC SWAP1 PUSH2 0x4065 JUMP JUMPDEST DUP1 ISZERO PUSH2 0x2337 JUMPI DUP1 PUSH1 0x1F LT PUSH2 0x230E JUMPI PUSH2 0x100 DUP1 DUP4 SLOAD DIV MUL DUP4 MSTORE SWAP2 PUSH1 0x20 ADD SWAP2 PUSH2 0x2337 JUMP JUMPDEST DUP3 ADD SWAP2 SWAP1 PUSH0 MSTORE PUSH1 0x20 PUSH0 KECCAK256 SWAP1 JUMPDEST DUP2 SLOAD DUP2 MSTORE SWAP1 PUSH1 0x1 ADD SWAP1 PUSH1 0x20 ADD DUP1 DUP4 GT PUSH2 0x231A JUMPI DUP3 SWAP1 SUB PUSH1 0x1F AND DUP3 ADD SWAP2 JUMPDEST POP POP POP PUSH1 0x1 DUP5 ADD SLOAD PUSH1 0x2 DUP6 ADD SLOAD PUSH1 0x3 DUP7 ADD SLOAD PUSH1 0x4 DUP8 ADD SLOAD PUSH1 0x5 DUP9 ADD SLOAD PUSH1 0x6 DUP10 ADD SLOAD PUSH1 0x7 DUP11 ADD SLOAD PUSH1 0x8 DUP12 ADD SLOAD PUSH1 0x9 DUP13 ADD SLOAD PUSH1 0xA SWAP1 SWAP13 ADD SLOAD SWAP11 SWAP12 SWAP8 SWAP11 PUSH1 0xFF DUP1 DUP10 AND SWAP12 POP PUSH2 0x100 SWAP1 SWAP9 DIV SWAP1 SWAP8 AND SWAP9 POP SWAP5 SWAP7 SWAP4 SWAP6 SWAP3 SWAP5 SWAP2 SWAP4 SWAP1 SWAP3 DUP13 JUMP JUMPDEST PUSH0 SLOAD PUSH2 0x100 SWAP1 DIV PUSH1 0xFF AND ISZERO DUP1 DUP1 ISZERO PUSH2 0x23AE JUMPI POP PUSH0 SLOAD PUSH1 0x1 PUSH1 0xFF SWAP1 SWAP2 AND LT JUMPDEST DUP1 PUSH2 0x23C7 JUMPI POP ADDRESS EXTCODESIZE ISZERO DUP1 ISZERO PUSH2 0x23C7 JUMPI POP PUSH0 SLOAD PUSH1 0xFF AND PUSH1 0x1 EQ JUMPDEST PUSH2 0x242A JUMPI PUSH1 0x40 MLOAD PUSH3 0x461BCD PUSH1 0xE5 SHL DUP2 MSTORE PUSH1 0x20 PUSH1 0x4 DUP3 ADD MSTORE PUSH1 0x2E PUSH1 0x24 DUP3 ADD MSTORE PUSH32 0x496E697469616C697A61626C653A20636F6E747261637420697320616C726561 PUSH1 0x44 DUP3 ADD MSTORE PUSH14 0x191E481A5B9A5D1A585B1A5E9959 PUSH1 0x92 SHL PUSH1 0x64 DUP3 ADD MSTORE PUSH1 0x84 ADD PUSH2 0xA41 JUMP JUMPDEST PUSH0 DUP1 SLOAD PUSH1 0xFF NOT AND PUSH1 0x1 OR SWAP1 SSTORE DUP1 ISZERO PUSH2 0x244B JUMPI PUSH0 DUP1 SLOAD PUSH2 0xFF00 NOT AND PUSH2 0x100 OR SWAP1 SSTORE JUMPDEST PUSH1 0x1 PUSH1 0x1 PUSH1 0xA0 SHL SUB DUP11 AND PUSH2 0x24A1 JUMPI PUSH1 0x40 MLOAD PUSH3 0x461BCD PUSH1 0xE5 SHL DUP2 MSTORE PUSH1 0x20 PUSH1 0x4 DUP3 ADD MSTORE PUSH1 0x1A PUSH1 0x24 DUP3 ADD MSTORE PUSH32 0x496E76616C696420414C564120746F6B656E2061646472657373000000000000 PUSH1 0x44 DUP3 ADD MSTORE PUSH1 0x64 ADD PUSH2 0xA41 JUMP JUMPDEST PUSH1 0x1 PUSH1 0x1 PUSH1 0xA0 SHL SUB DUP10 AND PUSH2 0x24F7 JUMPI PUSH1 0x40 MLOAD PUSH3 0x461BCD PUSH1 0xE5 SHL DUP2 MSTORE PUSH1 0x20 PUSH1 0x4 DUP3 ADD MSTORE PUSH1 0x1C PUSH1 0x24 DUP3 ADD MSTORE PUSH32 0x496E76616C6964207665414C564120746F6B656E206164647265737300000000 PUSH1 0x44 DUP3 ADD MSTORE PUSH1 0x64 ADD PUSH2 0xA41 JUMP JUMPDEST PUSH1 0xC9 DUP1 SLOAD PUSH1 0x1 PUSH1 0x1 PUSH1 0xA0 SHL SUB DUP1 DUP14 AND PUSH1 0x1 PUSH1 0x1 PUSH1 0xA0 SHL SUB NOT SWAP3 DUP4 AND OR SWAP1 SWAP3 SSTORE PUSH1 0xCA DUP1 SLOAD SWAP3 DUP13 AND SWAP3 SWAP1 SWAP2 AND SWAP2 SWAP1 SWAP2 OR SWAP1 SSTORE PUSH1 0xCE DUP9 SWAP1 SSTORE PUSH1 0xD2 DUP8 SWAP1 SSTORE PUSH1 0x1 PUSH1 0xCF SSTORE PUSH2 0x2710 PUSH1 0xD0 SSTORE PUSH3 0x4C4B40 PUSH1 0xD1 SSTORE PUSH2 0x254D PUSH0 CALLER PUSH2 0x28E7 JUMP JUMPDEST PUSH2 0x2564 PUSH0 MLOAD PUSH1 0x20 PUSH2 0x4318 PUSH0 CODECOPY PUSH0 MLOAD SWAP1 PUSH0 MSTORE CALLER PUSH2 0x28E7 JUMP JUMPDEST PUSH2 0x257B PUSH0 MLOAD PUSH1 0x20 PUSH2 0x4338 PUSH0 CODECOPY PUSH0 MLOAD SWAP1 PUSH0 MSTORE CALLER PUSH2 0x28E7 JUMP JUMPDEST PUSH2 0x25A5 PUSH32 0x4C716A0EBD1CFD3E93CA0DB9B9F8A0A9CB7C1D4CC18B52950E1F5528CC73CB5D CALLER PUSH2 0x28E7 JUMP JUMPDEST DUP3 PUSH0 DUP2 MLOAD DUP2 LT PUSH2 0x25B7 JUMPI PUSH2 0x25B7 PUSH2 0x402F JUMP JUMPDEST PUSH1 0x20 MUL PUSH1 0x20 ADD ADD MLOAD PUSH0 EQ PUSH2 0x2601 JUMPI PUSH1 0x40 MLOAD PUSH3 0x461BCD PUSH1 0xE5 SHL DUP2 MSTORE PUSH1 0x20 PUSH1 0x4 DUP3 ADD MSTORE PUSH1 0x11 PUSH1 0x24 DUP3 ADD MSTORE PUSH17 0x496E76616C6964204475726174696F6E73 PUSH1 0x78 SHL PUSH1 0x44 DUP3 ADD MSTORE PUSH1 0x64 ADD PUSH2 0xA41 JUMP JUMPDEST DUP6 MLOAD PUSH0 SWAP1 PUSH2 0x2616 SWAP1 PUSH1 0xCB SWAP1 PUSH1 0x20 DUP11 ADD SWAP1 PUSH2 0x3929 JUMP JUMPDEST POP PUSH0 JUMPDEST DUP8 MLOAD DUP2 LT ISZERO PUSH2 0x27FE JUMPI DUP6 DUP2 DUP2 MLOAD DUP2 LT PUSH2 0x2634 JUMPI PUSH2 0x2634 PUSH2 0x402F JUMP JUMPDEST PUSH1 0x20 MUL PUSH1 0x20 ADD ADD MLOAD PUSH1 0xD9 DUP10 DUP4 DUP2 MLOAD DUP2 LT PUSH2 0x2650 JUMPI PUSH2 0x2650 PUSH2 0x402F JUMP JUMPDEST PUSH1 0x20 MUL PUSH1 0x20 ADD ADD MLOAD PUSH1 0x40 MLOAD PUSH2 0x2665 SWAP2 SWAP1 PUSH2 0x405A JUMP JUMPDEST SWAP1 DUP2 MSTORE PUSH1 0x20 ADD PUSH1 0x40 MLOAD DUP1 SWAP2 SUB SWAP1 KECCAK256 PUSH1 0x1 ADD DUP2 SWAP1 SSTORE POP DUP7 DUP2 DUP2 MLOAD DUP2 LT PUSH2 0x268C JUMPI PUSH2 0x268C PUSH2 0x402F JUMP JUMPDEST PUSH1 0x20 MUL PUSH1 0x20 ADD ADD MLOAD PUSH1 0xD9 DUP10 DUP4 DUP2 MLOAD DUP2 LT PUSH2 0x26A8 JUMPI PUSH2 0x26A8 PUSH2 0x402F JUMP JUMPDEST PUSH1 0x20 MUL PUSH1 0x20 ADD ADD MLOAD PUSH1 0x40 MLOAD PUSH2 0x26BD SWAP2 SWAP1 PUSH2 0x405A JUMP JUMPDEST SWAP1 DUP2 MSTORE PUSH1 0x20 ADD PUSH1 0x40 MLOAD DUP1 SWAP2 SUB SWAP1 KECCAK256 PUSH1 0x2 ADD DUP2 SWAP1 SSTORE POP DUP5 DUP2 DUP2 MLOAD DUP2 LT PUSH2 0x26E4 JUMPI PUSH2 0x26E4 PUSH2 0x402F JUMP JUMPDEST PUSH1 0x20 MUL PUSH1 0x20 ADD ADD MLOAD PUSH1 0xD9 DUP10 DUP4 DUP2 MLOAD DUP2 LT PUSH2 0x2700 JUMPI PUSH2 0x2700 PUSH2 0x402F JUMP JUMPDEST PUSH1 0x20 MUL PUSH1 0x20 ADD ADD MLOAD PUSH1 0x40 MLOAD PUSH2 0x2715 SWAP2 SWAP1 PUSH2 0x405A JUMP JUMPDEST SWAP1 DUP2 MSTORE PUSH1 0x20 ADD PUSH1 0x40 MLOAD DUP1 SWAP2 SUB SWAP1 KECCAK256 PUSH1 0x3 ADD DUP2 SWAP1 SSTORE POP PUSH1 0x1 PUSH1 0xD9 DUP10 DUP4 DUP2 MLOAD DUP2 LT PUSH2 0x2740 JUMPI PUSH2 0x2740 PUSH2 0x402F JUMP JUMPDEST PUSH1 0x20 MUL PUSH1 0x20 ADD ADD MLOAD PUSH1 0x40 MLOAD PUSH2 0x2755 SWAP2 SWAP1 PUSH2 0x405A JUMP JUMPDEST SWAP1 DUP2 MSTORE PUSH1 0x40 MLOAD SWAP1 DUP2 SWAP1 SUB PUSH1 0x20 ADD SWAP1 KECCAK256 DUP1 SLOAD SWAP2 ISZERO ISZERO PUSH1 0xFF NOT SWAP1 SWAP3 AND SWAP2 SWAP1 SWAP2 OR SWAP1 SSTORE DUP4 MLOAD DUP5 SWAP1 DUP3 SWAP1 DUP2 LT PUSH2 0x2789 JUMPI PUSH2 0x2789 PUSH2 0x402F JUMP JUMPDEST PUSH1 0x20 MUL PUSH1 0x20 ADD ADD MLOAD PUSH1 0xD9 DUP10 DUP4 DUP2 MLOAD DUP2 LT PUSH2 0x27A5 JUMPI PUSH2 0x27A5 PUSH2 0x402F JUMP JUMPDEST PUSH1 0x20 MUL PUSH1 0x20 ADD ADD MLOAD PUSH1 0x40 MLOAD PUSH2 0x27BA SWAP2 SWAP1 PUSH2 0x405A JUMP JUMPDEST SWAP1 DUP2 MSTORE PUSH1 0x20 ADD PUSH1 0x40 MLOAD DUP1 SWAP2 SUB SWAP1 KECCAK256 PUSH1 0x5 ADD DUP2 SWAP1 SSTORE POP DUP7 DUP2 DUP2 MLOAD DUP2 LT PUSH2 0x27E1 JUMPI PUSH2 0x27E1 PUSH2 0x402F JUMP JUMPDEST PUSH1 0x20 MUL PUSH1 0x20 ADD ADD MLOAD DUP3 PUSH2 0x27F4 SWAP2 SWAP1 PUSH2 0x3F9F JUMP JUMPDEST SWAP2 POP PUSH1 0x1 ADD PUSH2 0x2619 JUMP JUMPDEST POP PUSH3 0x989680 DUP2 EQ PUSH2 0x2843 JUMPI PUSH1 0x40 MLOAD PUSH3 0x461BCD PUSH1 0xE5 SHL DUP2 MSTORE PUSH1 0x20 PUSH1 0x4 DUP3 ADD MSTORE PUSH1 0xF PUSH1 0x24 DUP3 ADD MSTORE PUSH15 0x496E76616C69642052657761726473 PUSH1 0x88 SHL PUSH1 0x44 DUP3 ADD MSTORE PUSH1 0x64 ADD PUSH2 0xA41 JUMP JUMPDEST POP DUP1 ISZERO PUSH2 0x2889 JUMPI PUSH0 DUP1 SLOAD PUSH2 0xFF00 NOT AND SWAP1 SSTORE PUSH1 0x40 MLOAD PUSH1 0x1 DUP2 MSTORE PUSH32 0x7F26B83FF96E1F2B6A682F133852F6798A09C465DA95921460CEFB3847402498 SWAP1 PUSH1 0x20 ADD PUSH1 0x40 MLOAD DUP1 SWAP2 SUB SWAP1 LOG1 JUMPDEST POP POP POP POP POP POP POP POP POP POP JUMP JUMPDEST PUSH2 0xDF3 DUP2 CALLER PUSH2 0x3535 JUMP JUMPDEST PUSH1 0x33 SLOAD PUSH1 0xFF AND ISZERO PUSH2 0x28E5 JUMPI PUSH1 0x40 MLOAD PUSH3 0x461BCD PUSH1 0xE5 SHL DUP2 MSTORE PUSH1 0x20 PUSH1 0x4 DUP3 ADD MSTORE PUSH1 0x10 PUSH1 0x24 DUP3 ADD MSTORE PUSH16 0x14185D5CD8589B194E881C185D5CD959 PUSH1 0x82 SHL PUSH1 0x44 DUP3 ADD MSTORE PUSH1 0x64 ADD PUSH2 0xA41 JUMP JUMPDEST JUMP JUMPDEST PUSH2 0x28F1 DUP3 DUP3 PUSH2 0x1ED4 JUMP JUMPDEST PUSH2 0xD13 JUMPI PUSH0 DUP3 DUP2 MSTORE PUSH1 0x97 PUSH1 0x20 SWAP1 DUP2 MSTORE PUSH1 0x40 DUP1 DUP4 KECCAK256 PUSH1 0x1 PUSH1 0x1 PUSH1 0xA0 SHL SUB DUP6 AND DUP5 MSTORE SWAP1 SWAP2 MSTORE SWAP1 KECCAK256 DUP1 SLOAD PUSH1 0xFF NOT AND PUSH1 0x1 OR SWAP1 SSTORE PUSH2 0x2928 CALLER SWAP1 JUMP JUMPDEST PUSH1 0x1 PUSH1 0x1 PUSH1 0xA0 SHL SUB AND DUP2 PUSH1 0x1 PUSH1 0x1 PUSH1 0xA0 SHL SUB AND DUP4 PUSH32 0x2F8788117E7EFF1D82E926EC794901D17C78024A50270940304540A733656F0D PUSH1 0x40 MLOAD PUSH1 0x40 MLOAD DUP1 SWAP2 SUB SWAP1 LOG4 POP POP JUMP JUMPDEST PUSH2 0x2976 DUP3 DUP3 PUSH2 0x1ED4 JUMP JUMPDEST ISZERO PUSH2 0xD13 JUMPI PUSH0 DUP3 DUP2 MSTORE PUSH1 0x97 PUSH1 0x20 SWAP1 DUP2 MSTORE PUSH1 0x40 DUP1 DUP4 KECCAK256 PUSH1 0x1 PUSH1 0x1 PUSH1 0xA0 SHL SUB DUP6 AND DUP1 DUP6 MSTORE SWAP3 MSTORE DUP1 DUP4 KECCAK256 DUP1 SLOAD PUSH1 0xFF NOT AND SWAP1 SSTORE MLOAD CALLER SWAP3 DUP6 SWAP2 PUSH32 0xF6391F5C32D9C69D2A47EA670B442974B53935D1EDC7FD64EB21E047A839171B SWAP2 SWAP1 LOG4 POP POP JUMP JUMPDEST CALLER PUSH0 SWAP1 DUP2 MSTORE PUSH1 0xD6 PUSH1 0x20 SWAP1 DUP2 MSTORE PUSH1 0x40 DUP1 DUP4 KECCAK256 SLOAD PUSH1 0xD5 SWAP1 SWAP3 MSTORE DUP3 KECCAK256 SLOAD GT ISZERO PUSH2 0x2A30 JUMPI CALLER PUSH0 SWAP1 DUP2 MSTORE PUSH1 0xD5 PUSH1 0x20 SWAP1 DUP2 MSTORE PUSH1 0x40 DUP1 DUP4 KECCAK256 PUSH1 0xD6 SWAP1 SWAP3 MSTORE SWAP1 SWAP2 KECCAK256 SLOAD DUP2 SLOAD PUSH2 0x2A30 SWAP3 SWAP2 SWAP1 DUP2 LT PUSH2 0x2A22 JUMPI PUSH2 0x2A22 PUSH2 0x402F JUMP JUMPDEST SWAP1 PUSH0 MSTORE PUSH1 0x20 PUSH0 KECCAK256 ADD SLOAD PUSH2 0x358E JUMP JUMPDEST PUSH2 0x2A38 PUSH2 0x367A JUMP JUMPDEST POP CALLER PUSH0 SWAP1 DUP2 MSTORE PUSH1 0xD7 PUSH1 0x20 MSTORE PUSH1 0x40 SWAP1 KECCAK256 SLOAD DUP1 PUSH2 0x2A9F JUMPI PUSH1 0x40 MLOAD PUSH3 0x461BCD PUSH1 0xE5 SHL DUP2 MSTORE PUSH1 0x20 PUSH1 0x4 DUP3 ADD MSTORE PUSH1 0x21 PUSH1 0x24 DUP3 ADD MSTORE PUSH32 0x4E6F207265776172647320617661696C61626C6520666F7220636C61696D696E PUSH1 0x44 DUP3 ADD MSTORE PUSH1 0x67 PUSH1 0xF8 SHL PUSH1 0x64 DUP3 ADD MSTORE PUSH1 0x84 ADD PUSH2 0xA41 JUMP JUMPDEST CALLER PUSH0 SWAP1 DUP2 MSTORE PUSH1 0xD7 PUSH1 0x20 MSTORE PUSH1 0x40 DUP2 KECCAK256 SSTORE SWAP1 JUMP JUMPDEST PUSH2 0x2AB9 PUSH2 0x3739 JUMP JUMPDEST PUSH1 0x33 DUP1 SLOAD PUSH1 0xFF NOT AND SWAP1 SSTORE PUSH32 0x5DB9EE0A495BF2E6FF9C91A7834C1BA4FDD244A5E8AA4E537BD38AEAE4B073AA CALLER JUMPDEST PUSH1 0x40 MLOAD PUSH1 0x1 PUSH1 0x1 PUSH1 0xA0 SHL SUB SWAP1 SWAP2 AND DUP2 MSTORE PUSH1 0x20 ADD PUSH1 0x40 MLOAD DUP1 SWAP2 SUB SWAP1 LOG1 JUMP JUMPDEST PUSH0 DUP3 DUP2 MSTORE PUSH1 0xDA PUSH1 0x20 MSTORE PUSH1 0x40 DUP2 KECCAK256 DUP1 SLOAD DUP3 SWAP2 SWAP1 PUSH2 0x2B1E SWAP1 PUSH2 0x4065 JUMP JUMPDEST DUP1 PUSH1 0x1F ADD PUSH1 0x20 DUP1 SWAP2 DIV MUL PUSH1 0x20 ADD PUSH1 0x40 MLOAD SWAP1 DUP2 ADD PUSH1 0x40 MSTORE DUP1 SWAP3 SWAP2 SWAP1 DUP2 DUP2 MSTORE PUSH1 0x20 ADD DUP3 DUP1 SLOAD PUSH2 0x2B4A SWAP1 PUSH2 0x4065 JUMP JUMPDEST DUP1 ISZERO PUSH2 0x2B95 JUMPI DUP1 PUSH1 0x1F LT PUSH2 0x2B6C JUMPI PUSH2 0x100 DUP1 DUP4 SLOAD DIV MUL DUP4 MSTORE SWAP2 PUSH1 0x20 ADD SWAP2 PUSH2 0x2B95 JUMP JUMPDEST DUP3 ADD SWAP2 SWAP1 PUSH0 MSTORE PUSH1 0x20 PUSH0 KECCAK256 SWAP1 JUMPDEST DUP2 SLOAD DUP2 MSTORE SWAP1 PUSH1 0x1 ADD SWAP1 PUSH1 0x20 ADD DUP1 DUP4 GT PUSH2 0x2B78 JUMPI DUP3 SWAP1 SUB PUSH1 0x1F AND DUP3 ADD SWAP2 JUMPDEST POP POP POP PUSH0 DUP8 DUP2 MSTORE PUSH1 0xDA PUSH1 0x20 MSTORE PUSH1 0x40 DUP2 KECCAK256 PUSH1 0xA ADD SLOAD SWAP4 SWAP5 POP SWAP3 PUSH2 0x2BBA SWAP3 POP DUP7 SWAP2 POP PUSH2 0x3F56 JUMP JUMPDEST PUSH0 DUP7 DUP2 MSTORE PUSH1 0xDA PUSH1 0x20 MSTORE PUSH1 0x40 SWAP1 KECCAK256 PUSH1 0x1 ADD SLOAD PUSH2 0x2BD5 SWAP2 SWAP1 PUSH2 0x3F56 JUMP JUMPDEST SWAP1 POP PUSH3 0x989680 PUSH1 0xDB PUSH0 DUP9 DUP2 MSTORE PUSH1 0x20 ADD SWAP1 DUP2 MSTORE PUSH1 0x20 ADD PUSH0 KECCAK256 PUSH1 0x3 ADD DUP4 PUSH1 0x40 MLOAD PUSH2 0x2BFD SWAP2 SWAP1 PUSH2 0x405A JUMP JUMPDEST SWAP1 DUP2 MSTORE PUSH1 0x20 ADD PUSH1 0x40 MLOAD DUP1 SWAP2 SUB SWAP1 KECCAK256 SLOAD DUP3 PUSH1 0xD9 DUP6 PUSH1 0x40 MLOAD PUSH2 0x2C1D SWAP2 SWAP1 PUSH2 0x405A JUMP JUMPDEST SWAP1 DUP2 MSTORE PUSH1 0x20 ADD PUSH1 0x40 MLOAD DUP1 SWAP2 SUB SWAP1 KECCAK256 PUSH1 0x2 ADD SLOAD PUSH1 0xDB PUSH0 DUP12 DUP2 MSTORE PUSH1 0x20 ADD SWAP1 DUP2 MSTORE PUSH1 0x20 ADD PUSH0 KECCAK256 PUSH1 0x2 ADD SLOAD PUSH2 0x2C4E SWAP2 SWAP1 PUSH2 0x3F88 JUMP JUMPDEST PUSH2 0x2C58 SWAP2 SWAP1 PUSH2 0x3F88 JUMP JUMPDEST PUSH2 0x2C62 SWAP2 SWAP1 PUSH2 0x3F69 JUMP JUMPDEST PUSH2 0x2C6C SWAP2 SWAP1 PUSH2 0x3F69 JUMP JUMPDEST SWAP7 SWAP6 POP POP POP POP POP POP JUMP JUMPDEST PUSH1 0xCF SLOAD DUP3 LT ISZERO PUSH2 0x2C98 JUMPI PUSH1 0x40 MLOAD PUSH3 0x461BCD PUSH1 0xE5 SHL DUP2 MSTORE PUSH1 0x4 ADD PUSH2 0xA41 SWAP1 PUSH2 0x4133 JUMP JUMPDEST PUSH0 DUP2 DUP2 MSTORE PUSH1 0xDA PUSH1 0x20 MSTORE PUSH1 0x40 DUP2 KECCAK256 DUP1 SLOAD PUSH2 0x2CB0 SWAP1 PUSH2 0x4065 JUMP JUMPDEST DUP1 PUSH1 0x1F ADD PUSH1 0x20 DUP1 SWAP2 DIV MUL PUSH1 0x20 ADD PUSH1 0x40 MLOAD SWAP1 DUP2 ADD PUSH1 0x40 MSTORE DUP1 SWAP3 SWAP2 SWAP1 DUP2 DUP2 MSTORE PUSH1 0x20 ADD DUP3 DUP1 SLOAD PUSH2 0x2CDC SWAP1 PUSH2 0x4065 JUMP JUMPDEST DUP1 ISZERO PUSH2 0x2D27 JUMPI DUP1 PUSH1 0x1F LT PUSH2 0x2CFE JUMPI PUSH2 0x100 DUP1 DUP4 SLOAD DIV MUL DUP4 MSTORE SWAP2 PUSH1 0x20 ADD SWAP2 PUSH2 0x2D27 JUMP JUMPDEST DUP3 ADD SWAP2 SWAP1 PUSH0 MSTORE PUSH1 0x20 PUSH0 KECCAK256 SWAP1 JUMPDEST DUP2 SLOAD DUP2 MSTORE SWAP1 PUSH1 0x1 ADD SWAP1 PUSH1 0x20 ADD DUP1 DUP4 GT PUSH2 0x2D0A JUMPI DUP3 SWAP1 SUB PUSH1 0x1F AND DUP3 ADD SWAP2 JUMPDEST POP POP POP POP POP SWAP1 POP PUSH1 0xD9 DUP2 PUSH1 0x40 MLOAD PUSH2 0x2D3E SWAP2 SWAP1 PUSH2 0x405A JUMP JUMPDEST SWAP1 DUP2 MSTORE PUSH1 0x40 MLOAD SWAP1 DUP2 SWAP1 SUB PUSH1 0x20 ADD SWAP1 KECCAK256 SLOAD PUSH1 0xFF AND PUSH2 0x2D9D JUMPI PUSH1 0x40 MLOAD PUSH3 0x461BCD PUSH1 0xE5 SHL DUP2 MSTORE PUSH1 0x20 PUSH1 0x4 DUP3 ADD MSTORE PUSH1 0x1A PUSH1 0x24 DUP3 ADD MSTORE PUSH32 0x506F6F6C2069732063757272656E746C792064697361626C6564000000000000 PUSH1 0x44 DUP3 ADD MSTORE PUSH1 0x64 ADD PUSH2 0xA41 JUMP JUMPDEST PUSH0 PUSH2 0x2DA8 DUP5 DUP4 PUSH2 0x1F6E JUMP JUMPDEST PUSH1 0xCA SLOAD PUSH1 0x40 MLOAD PUSH4 0x40C10F19 PUSH1 0xE0 SHL DUP2 MSTORE CALLER PUSH1 0x4 DUP3 ADD MSTORE PUSH1 0x24 DUP2 ADD DUP4 SWAP1 MSTORE SWAP2 SWAP3 POP PUSH1 0x1 PUSH1 0x1 PUSH1 0xA0 SHL SUB AND SWAP1 PUSH4 0x40C10F19 SWAP1 PUSH1 0x44 ADD PUSH0 PUSH1 0x40 MLOAD DUP1 DUP4 SUB DUP2 PUSH0 DUP8 DUP1 EXTCODESIZE ISZERO DUP1 ISZERO PUSH2 0x2DF2 JUMPI PUSH0 PUSH0 REVERT JUMPDEST POP GAS CALL ISZERO DUP1 ISZERO PUSH2 0x2E04 JUMPI RETURNDATASIZE PUSH0 PUSH0 RETURNDATACOPY RETURNDATASIZE PUSH0 REVERT JUMPDEST POP POP POP PUSH0 DUP5 DUP2 MSTORE PUSH1 0xDA PUSH1 0x20 MSTORE PUSH1 0x40 DUP2 KECCAK256 PUSH1 0x1 ADD DUP1 SLOAD DUP8 SWAP4 POP SWAP1 SWAP2 SWAP1 PUSH2 0x2E2A SWAP1 DUP5 SWAP1 PUSH2 0x3F9F JUMP JUMPDEST SWAP1 SWAP2 SSTORE POP POP PUSH0 DUP4 DUP2 MSTORE PUSH1 0xDA PUSH1 0x20 MSTORE PUSH1 0x40 DUP2 KECCAK256 PUSH1 0x6 ADD DUP1 SLOAD DUP4 SWAP3 SWAP1 PUSH2 0x2E4F SWAP1 DUP5 SWAP1 PUSH2 0x3F9F JUMP JUMPDEST SWAP1 SWAP2 SSTORE POP PUSH0 SWAP1 POP PUSH2 0x2E5E PUSH2 0x2076 JUMP JUMPDEST PUSH0 DUP6 DUP2 MSTORE PUSH1 0xDA PUSH1 0x20 MSTORE PUSH1 0x40 SWAP1 KECCAK256 PUSH1 0x9 ADD SLOAD SWAP1 SWAP2 POP DUP2 DUP2 LT ISZERO DUP1 PUSH2 0x2E91 JUMPI POP PUSH0 DUP6 DUP2 MSTORE PUSH1 0xDA PUSH1 0x20 MSTORE PUSH1 0x40 SWAP1 KECCAK256 PUSH1 0x2 ADD SLOAD PUSH1 0xFF AND JUMPDEST ISZERO PUSH2 0x2F1E JUMPI DUP6 PUSH1 0xDB PUSH0 DUP5 DUP2 MSTORE PUSH1 0x20 ADD SWAP1 DUP2 MSTORE PUSH1 0x20 ADD PUSH0 KECCAK256 PUSH1 0x4 ADD DUP6 PUSH1 0x40 MLOAD PUSH2 0x2EB9 SWAP2 SWAP1 PUSH2 0x405A JUMP JUMPDEST SWAP1 DUP2 MSTORE PUSH1 0x20 ADD PUSH1 0x40 MLOAD DUP1 SWAP2 SUB SWAP1 KECCAK256 PUSH0 DUP3 DUP3 SLOAD PUSH2 0x2ED5 SWAP2 SWAP1 PUSH2 0x3F9F JUMP JUMPDEST SWAP1 SWAP2 SSTORE POP POP PUSH0 DUP2 DUP2 MSTORE PUSH1 0xDB PUSH1 0x20 MSTORE PUSH1 0x40 SWAP1 DUP2 SWAP1 KECCAK256 SWAP1 MLOAD DUP8 SWAP2 PUSH1 0x5 ADD SWAP1 PUSH2 0x2EFC SWAP1 DUP8 SWAP1 PUSH2 0x405A JUMP JUMPDEST SWAP1 DUP2 MSTORE PUSH1 0x20 ADD PUSH1 0x40 MLOAD DUP1 SWAP2 SUB SWAP1 KECCAK256 PUSH0 DUP3 DUP3 SLOAD PUSH2 0x2F18 SWAP2 SWAP1 PUSH2 0x3F9F JUMP JUMPDEST SWAP1 SWAP2 SSTORE POP POP JUMPDEST PUSH0 DUP6 DUP2 MSTORE PUSH1 0xDA PUSH1 0x20 MSTORE PUSH1 0x40 DUP2 KECCAK256 PUSH1 0xA ADD DUP1 SLOAD DUP9 SWAP3 SWAP1 PUSH2 0x2F3E SWAP1 DUP5 SWAP1 PUSH2 0x3F9F JUMP JUMPDEST SWAP1 SWAP2 SSTORE POP POP POP PUSH0 SWAP4 DUP5 MSTORE PUSH1 0xDA PUSH1 0x20 SWAP1 DUP2 MSTORE PUSH1 0x40 DUP1 DUP7 KECCAK256 PUSH1 0xA DUP2 ADD SLOAD SWAP4 DUP8 MSTORE PUSH1 0xB ADD SWAP1 SWAP2 MSTORE SWAP1 SWAP4 KECCAK256 SWAP3 SWAP1 SWAP3 SSTORE POP POP POP JUMP JUMPDEST PUSH1 0xD9 DUP3 PUSH1 0x40 MLOAD PUSH2 0x2F7E SWAP2 SWAP1 PUSH2 0x405A JUMP JUMPDEST SWAP1 DUP2 MSTORE PUSH1 0x40 MLOAD SWAP1 DUP2 SWAP1 SUB PUSH1 0x20 ADD SWAP1 KECCAK256 SLOAD PUSH1 0xFF AND PUSH2 0x2FEB JUMPI PUSH1 0x40 MLOAD PUSH3 0x461BCD PUSH1 0xE5 SHL DUP2 MSTORE PUSH1 0x20 PUSH1 0x4 DUP3 ADD MSTORE PUSH1 0x25 PUSH1 0x24 DUP3 ADD MSTORE PUSH32 0x54686520706F6F6C206973206E6F7420617661696C61626C6520666F72207374 PUSH1 0x44 DUP3 ADD MSTORE PUSH5 0x616B696E67 PUSH1 0xD8 SHL PUSH1 0x64 DUP3 ADD MSTORE PUSH1 0x84 ADD PUSH2 0xA41 JUMP JUMPDEST PUSH1 0xCC DUP1 SLOAD SWAP1 PUSH0 PUSH2 0x2FFA DUP4 PUSH2 0x3FCD JUMP JUMPDEST SWAP2 SWAP1 POP SSTORE POP PUSH0 PUSH1 0xD9 DUP4 PUSH1 0x40 MLOAD PUSH2 0x3010 SWAP2 SWAP1 PUSH2 0x405A JUMP JUMPDEST SWAP1 DUP2 MSTORE PUSH1 0x20 ADD PUSH1 0x40 MLOAD DUP1 SWAP2 SUB SWAP1 KECCAK256 PUSH1 0x5 ADD SLOAD DUP3 PUSH2 0x302D SWAP2 SWAP1 PUSH2 0x3F9F JUMP JUMPDEST SWAP1 POP PUSH0 PUSH2 0x303A DUP7 DUP9 PUSH2 0x3F9F JUMP JUMPDEST SWAP1 POP PUSH0 PUSH2 0x3047 DUP3 DUP7 PUSH2 0x1F6E JUMP JUMPDEST SWAP1 POP DUP6 DUP2 GT ISZERO PUSH2 0x30C7 JUMPI PUSH1 0xCA SLOAD PUSH1 0x1 PUSH1 0x1 PUSH1 0xA0 SHL SUB AND PUSH4 0x40C10F19 CALLER PUSH2 0x306D DUP10 DUP6 PUSH2 0x3F56 JUMP JUMPDEST PUSH1 0x40 MLOAD PUSH1 0x1 PUSH1 0x1 PUSH1 0xE0 SHL SUB NOT PUSH1 0xE0 DUP6 SWAP1 SHL AND DUP2 MSTORE PUSH1 0x1 PUSH1 0x1 PUSH1 0xA0 SHL SUB SWAP1 SWAP3 AND PUSH1 0x4 DUP4 ADD MSTORE PUSH1 0x24 DUP3 ADD MSTORE PUSH1 0x44 ADD PUSH0 PUSH1 0x40 MLOAD DUP1 DUP4 SUB DUP2 PUSH0 DUP8 DUP1 EXTCODESIZE ISZERO DUP1 ISZERO PUSH2 0x30B0 JUMPI PUSH0 PUSH0 REVERT JUMPDEST POP GAS CALL ISZERO DUP1 ISZERO PUSH2 0x30C2 JUMPI RETURNDATASIZE PUSH0 PUSH0 RETURNDATACOPY RETURNDATASIZE PUSH0 REVERT JUMPDEST POP POP POP POP JUMPDEST PUSH1 0xD9 DUP6 PUSH1 0x40 MLOAD PUSH2 0x30D7 SWAP2 SWAP1 PUSH2 0x405A JUMP JUMPDEST SWAP1 DUP2 MSTORE PUSH1 0x20 ADD PUSH1 0x40 MLOAD DUP1 SWAP2 SUB SWAP1 KECCAK256 PUSH1 0x3 ADD SLOAD PUSH0 EQ PUSH2 0x3284 JUMPI PUSH2 0x30F8 CALLER PUSH2 0x1FB2 JUMP JUMPDEST ISZERO PUSH2 0x3145 JUMPI PUSH1 0x40 MLOAD PUSH3 0x461BCD PUSH1 0xE5 SHL DUP2 MSTORE PUSH1 0x20 PUSH1 0x4 DUP3 ADD MSTORE PUSH1 0x1C PUSH1 0x24 DUP3 ADD MSTORE PUSH32 0x54696D6562617365206C6F636B20616C72656164792065786973747300000000 PUSH1 0x44 DUP3 ADD MSTORE PUSH1 0x64 ADD PUSH2 0xA41 JUMP JUMPDEST CALLER PUSH0 SWAP1 DUP2 MSTORE PUSH1 0xD4 PUSH1 0x20 SWAP1 DUP2 MSTORE PUSH1 0x40 DUP1 DUP4 KECCAK256 PUSH1 0xCC SLOAD DUP2 SLOAD PUSH1 0x1 DUP2 ADD DUP4 SSTORE SWAP2 DUP6 MSTORE SWAP3 DUP5 KECCAK256 ADD SWAP2 SWAP1 SWAP2 SSTORE MLOAD PUSH1 0xD9 SWAP1 PUSH2 0x317B SWAP1 DUP9 SWAP1 PUSH2 0x405A JUMP JUMPDEST SWAP1 DUP2 MSTORE PUSH1 0x20 ADD PUSH1 0x40 MLOAD DUP1 SWAP2 SUB SWAP1 KECCAK256 PUSH1 0x2 ADD SLOAD GT ISZERO PUSH2 0x31BA JUMPI CALLER PUSH0 SWAP1 DUP2 MSTORE PUSH1 0xD5 PUSH1 0x20 SWAP1 DUP2 MSTORE PUSH1 0x40 DUP3 KECCAK256 PUSH1 0xCC SLOAD DUP2 SLOAD PUSH1 0x1 DUP2 ADD DUP4 SSTORE SWAP2 DUP5 MSTORE SWAP2 SWAP1 SWAP3 KECCAK256 SWAP1 SWAP2 ADD SSTORE JUMPDEST DUP8 ISZERO PUSH2 0x323A JUMPI PUSH1 0xC9 SLOAD PUSH1 0x40 MLOAD PUSH4 0x23B872DD PUSH1 0xE0 SHL DUP2 MSTORE CALLER PUSH1 0x4 DUP3 ADD MSTORE ADDRESS PUSH1 0x24 DUP3 ADD MSTORE PUSH1 0x44 DUP2 ADD DUP11 SWAP1 MSTORE PUSH1 0x1 PUSH1 0x1 PUSH1 0xA0 SHL SUB SWAP1 SWAP2 AND SWAP1 PUSH4 0x23B872DD SWAP1 PUSH1 0x64 ADD PUSH1 0x20 PUSH1 0x40 MLOAD DUP1 DUP4 SUB DUP2 PUSH0 DUP8 GAS CALL ISZERO DUP1 ISZERO PUSH2 0x3214 JUMPI RETURNDATASIZE PUSH0 PUSH0 RETURNDATACOPY RETURNDATASIZE PUSH0 REVERT JUMPDEST POP POP POP POP PUSH1 0x40 MLOAD RETURNDATASIZE PUSH1 0x1F NOT PUSH1 0x1F DUP3 ADD AND DUP3 ADD DUP1 PUSH1 0x40 MSTORE POP DUP2 ADD SWAP1 PUSH2 0x3238 SWAP2 SWAP1 PUSH2 0x3FB2 JUMP JUMPDEST POP JUMPDEST DUP2 PUSH1 0xDB PUSH0 DUP6 DUP2 MSTORE PUSH1 0x20 ADD SWAP1 DUP2 MSTORE PUSH1 0x20 ADD PUSH0 KECCAK256 PUSH1 0x5 ADD DUP7 PUSH1 0x40 MLOAD PUSH2 0x325D SWAP2 SWAP1 PUSH2 0x405A JUMP JUMPDEST SWAP1 DUP2 MSTORE PUSH1 0x20 ADD PUSH1 0x40 MLOAD DUP1 SWAP2 SUB SWAP1 KECCAK256 PUSH0 DUP3 DUP3 SLOAD PUSH2 0x3279 SWAP2 SWAP1 PUSH2 0x3F9F JUMP JUMPDEST SWAP1 SWAP2 SSTORE POP PUSH2 0x3370 SWAP1 POP JUMP JUMPDEST CALLER PUSH0 SWAP1 DUP2 MSTORE PUSH1 0xD8 PUSH1 0x20 MSTORE PUSH1 0x40 SWAP1 KECCAK256 SLOAD ISZERO PUSH2 0x32E0 JUMPI PUSH1 0x40 MLOAD PUSH3 0x461BCD PUSH1 0xE5 SHL DUP2 MSTORE PUSH1 0x20 PUSH1 0x4 DUP3 ADD MSTORE PUSH1 0x1B PUSH1 0x24 DUP3 ADD MSTORE PUSH32 0x466F7265766572206C6F636B20616C7265616479206578697374730000000000 PUSH1 0x44 DUP3 ADD MSTORE PUSH1 0x64 ADD PUSH2 0xA41 JUMP JUMPDEST PUSH1 0xCC SLOAD CALLER PUSH0 DUP2 DUP2 MSTORE PUSH1 0xD8 PUSH1 0x20 SWAP1 DUP2 MSTORE PUSH1 0x40 DUP1 DUP4 KECCAK256 DUP6 SWAP1 SSTORE SWAP4 DUP3 MSTORE PUSH1 0xDA SWAP1 MSTORE DUP3 SWAP1 KECCAK256 PUSH1 0x2 ADD DUP1 SLOAD PUSH1 0xFF NOT AND PUSH1 0x1 OR SWAP1 SSTORE PUSH1 0xC9 SLOAD SWAP2 MLOAD PUSH4 0x79CC679 PUSH1 0xE4 SHL DUP2 MSTORE PUSH1 0x4 DUP2 ADD SWAP2 SWAP1 SWAP2 MSTORE PUSH1 0x24 DUP2 ADD DUP5 SWAP1 MSTORE PUSH1 0x1 PUSH1 0x1 PUSH1 0xA0 SHL SUB SWAP1 SWAP2 AND SWAP1 PUSH4 0x79CC6790 SWAP1 PUSH1 0x44 ADD PUSH0 PUSH1 0x40 MLOAD DUP1 DUP4 SUB DUP2 PUSH0 DUP8 DUP1 EXTCODESIZE ISZERO DUP1 ISZERO PUSH2 0x3359 JUMPI PUSH0 PUSH0 REVERT JUMPDEST POP GAS CALL ISZERO DUP1 ISZERO PUSH2 0x336B JUMPI RETURNDATASIZE PUSH0 PUSH0 RETURNDATACOPY RETURNDATASIZE PUSH0 REVERT JUMPDEST POP POP POP POP JUMPDEST PUSH1 0xCC SLOAD PUSH0 SWAP1 DUP2 MSTORE PUSH1 0xDA PUSH1 0x20 MSTORE PUSH1 0x40 SWAP1 KECCAK256 PUSH2 0x338A DUP7 DUP3 PUSH2 0x41C2 JUMP JUMPDEST POP PUSH1 0xCC SLOAD PUSH0 SWAP1 DUP2 MSTORE PUSH1 0xDA PUSH1 0x20 MSTORE PUSH1 0x40 SWAP1 DUP2 SWAP1 KECCAK256 PUSH1 0x1 ADD DUP4 SWAP1 SSTORE MLOAD PUSH1 0xD9 SWAP1 PUSH2 0x33B2 SWAP1 DUP8 SWAP1 PUSH2 0x405A JUMP JUMPDEST SWAP1 DUP2 MSTORE PUSH1 0x40 DUP1 MLOAD SWAP2 DUP3 SWAP1 SUB PUSH1 0x20 SWAP1 DUP2 ADD DUP4 KECCAK256 PUSH1 0x3 SWAP1 DUP2 ADD SLOAD PUSH1 0xCC DUP1 SLOAD PUSH0 SWAP1 DUP2 MSTORE PUSH1 0xDA SWAP1 SWAP5 MSTORE DUP5 DUP5 KECCAK256 SWAP1 SWAP3 ADD SSTORE SLOAD DUP2 MSTORE KECCAK256 TIMESTAMP PUSH1 0x4 SWAP1 SWAP2 ADD SSTORE PUSH1 0xD9 SWAP1 PUSH2 0x33F7 SWAP1 DUP8 SWAP1 PUSH2 0x405A JUMP JUMPDEST SWAP1 DUP2 MSTORE PUSH1 0x20 ADD PUSH1 0x40 MLOAD DUP1 SWAP2 SUB SWAP1 KECCAK256 PUSH1 0x3 ADD SLOAD TIMESTAMP PUSH2 0x3414 SWAP2 SWAP1 PUSH2 0x3F9F JUMP JUMPDEST PUSH1 0xCC DUP1 SLOAD PUSH0 SWAP1 DUP2 MSTORE PUSH1 0xDA PUSH1 0x20 SWAP1 DUP2 MSTORE PUSH1 0x40 DUP1 DUP4 KECCAK256 PUSH1 0x5 ADD SWAP5 SWAP1 SWAP5 SSTORE DUP3 SLOAD DUP3 MSTORE DUP4 DUP3 KECCAK256 PUSH1 0x6 ADD DUP6 SWAP1 SSTORE DUP3 SLOAD DUP3 MSTORE DUP4 DUP3 KECCAK256 PUSH1 0x2 ADD DUP1 SLOAD PUSH2 0xFF00 NOT AND PUSH2 0x100 OR SWAP1 SSTORE DUP3 SLOAD DUP3 MSTORE DUP4 DUP3 KECCAK256 PUSH1 0x8 ADD DUP9 SWAP1 SSTORE SWAP2 SLOAD DUP2 MSTORE DUP3 DUP2 KECCAK256 PUSH1 0x9 ADD DUP7 SWAP1 SSTORE DUP7 DUP2 MSTORE PUSH1 0xDB SWAP1 SWAP2 MSTORE DUP2 SWAP1 KECCAK256 SWAP1 MLOAD DUP4 SWAP2 PUSH1 0x4 ADD SWAP1 PUSH2 0x348B SWAP1 DUP9 SWAP1 PUSH2 0x405A JUMP JUMPDEST SWAP1 DUP2 MSTORE PUSH1 0x20 ADD PUSH1 0x40 MLOAD DUP1 SWAP2 SUB SWAP1 KECCAK256 PUSH0 DUP3 DUP3 SLOAD PUSH2 0x34A7 SWAP2 SWAP1 PUSH2 0x3F9F JUMP JUMPDEST SWAP1 SWAP2 SSTORE POP POP PUSH1 0xCC SLOAD PUSH1 0x40 MLOAD CALLER SWAP2 SWAP1 PUSH32 0xE11027F9E3D7AA31B5D23503BE35FAEDE305799D8C9AB6C5B06FE0F28589906 SWAP1 PUSH2 0x34E6 SWAP1 DUP7 SWAP1 DUP11 SWAP1 DUP8 SWAP1 PUSH2 0x427C JUMP JUMPDEST PUSH1 0x40 MLOAD DUP1 SWAP2 SUB SWAP1 LOG3 POP POP POP POP POP POP POP POP JUMP JUMPDEST PUSH2 0x3500 PUSH2 0x289F JUMP JUMPDEST PUSH1 0x33 DUP1 SLOAD PUSH1 0xFF NOT AND PUSH1 0x1 OR SWAP1 SSTORE PUSH32 0x62E78CEA01BEE320CD4E420270B5EA74000D11B0C9F74754EBDBFC544B05A258 PUSH2 0x2AE6 CALLER SWAP1 JUMP JUMPDEST PUSH2 0x353F DUP3 DUP3 PUSH2 0x1ED4 JUMP JUMPDEST PUSH2 0xD13 JUMPI PUSH2 0x354C DUP2 PUSH2 0x3782 JUMP JUMPDEST PUSH2 0x3557 DUP4 PUSH1 0x20 PUSH2 0x3794 JUMP JUMPDEST PUSH1 0x40 MLOAD PUSH1 0x20 ADD PUSH2 0x3568 SWAP3 SWAP2 SWAP1 PUSH2 0x42A4 JUMP JUMPDEST PUSH1 0x40 DUP1 MLOAD PUSH1 0x1F NOT DUP2 DUP5 SUB ADD DUP2 MSTORE SWAP1 DUP3 SWAP1 MSTORE PUSH3 0x461BCD PUSH1 0xE5 SHL DUP3 MSTORE PUSH2 0xA41 SWAP2 PUSH1 0x4 ADD PUSH2 0x3C39 JUMP JUMPDEST DUP1 ISZERO DUP1 ISZERO SWAP1 PUSH2 0x35B2 JUMPI POP PUSH0 DUP2 DUP2 MSTORE PUSH1 0xDA PUSH1 0x20 MSTORE PUSH1 0x40 SWAP1 KECCAK256 PUSH1 0x9 DUP2 ADD SLOAD PUSH1 0x8 SWAP1 SWAP2 ADD SLOAD LT JUMPDEST ISZERO PUSH2 0xDF3 JUMPI PUSH0 PUSH0 PUSH2 0x35C4 DUP4 PUSH1 0xA PUSH2 0xE83 JUMP JUMPDEST PUSH0 DUP7 DUP2 MSTORE PUSH1 0xDA PUSH1 0x20 MSTORE PUSH1 0x40 DUP2 KECCAK256 PUSH1 0x8 DUP2 ADD SWAP4 SWAP1 SWAP4 SSTORE PUSH1 0x7 SWAP1 SWAP3 ADD DUP1 SLOAD SWAP4 SWAP6 POP SWAP1 SWAP4 POP DUP5 SWAP3 SWAP1 SWAP2 SWAP1 PUSH2 0x35F6 SWAP1 DUP5 SWAP1 PUSH2 0x3F9F JUMP JUMPDEST SWAP1 SWAP2 SSTORE POP POP CALLER PUSH0 SWAP1 DUP2 MSTORE PUSH1 0xD7 PUSH1 0x20 MSTORE PUSH1 0x40 DUP2 KECCAK256 DUP1 SLOAD DUP5 SWAP3 SWAP1 PUSH2 0x3619 SWAP1 DUP5 SWAP1 PUSH2 0x3F9F JUMP JUMPDEST SWAP1 SWAP2 SSTORE POP POP PUSH0 DUP4 DUP2 MSTORE PUSH1 0xDA PUSH1 0x20 DUP2 DUP2 MSTORE PUSH1 0x40 DUP1 DUP5 KECCAK256 PUSH1 0x8 DUP2 ADD DUP1 SLOAD DUP7 MSTORE PUSH1 0xB DUP3 ADD DUP5 MSTORE SWAP2 DUP6 KECCAK256 DUP7 SWAP1 SSTORE SWAP4 DUP8 SWAP1 MSTORE SWAP2 SWAP1 MSTORE PUSH1 0x9 SWAP1 SWAP2 ADD SLOAD SWAP1 SLOAD SUB PUSH2 0xC94 JUMPI CALLER PUSH0 SWAP1 DUP2 MSTORE PUSH1 0xD6 PUSH1 0x20 MSTORE PUSH1 0x40 DUP2 KECCAK256 DUP1 SLOAD SWAP2 PUSH2 0x3670 DUP4 PUSH2 0x3FCD JUMP JUMPDEST SWAP2 SWAP1 POP SSTORE POP POP POP POP JUMP JUMPDEST CALLER PUSH0 SWAP1 DUP2 MSTORE PUSH1 0xD8 PUSH1 0x20 MSTORE PUSH1 0x40 SWAP1 KECCAK256 SLOAD DUP1 ISZERO DUP1 ISZERO SWAP1 PUSH2 0x36A9 JUMPI POP PUSH1 0xCD SLOAD PUSH0 DUP3 DUP2 MSTORE PUSH1 0xDA PUSH1 0x20 MSTORE PUSH1 0x40 SWAP1 KECCAK256 PUSH1 0x8 ADD SLOAD LT JUMPDEST ISZERO PUSH2 0xDF3 JUMPI PUSH0 PUSH0 PUSH2 0x36BB DUP4 PUSH1 0xA PUSH2 0xE83 JUMP JUMPDEST PUSH0 DUP7 DUP2 MSTORE PUSH1 0xDA PUSH1 0x20 MSTORE PUSH1 0x40 DUP2 KECCAK256 PUSH1 0x8 DUP2 ADD SWAP4 SWAP1 SWAP4 SSTORE PUSH1 0x7 SWAP1 SWAP3 ADD DUP1 SLOAD SWAP4 SWAP6 POP SWAP1 SWAP4 POP DUP5 SWAP3 SWAP1 SWAP2 SWAP1 PUSH2 0x36ED SWAP1 DUP5 SWAP1 PUSH2 0x3F9F JUMP JUMPDEST SWAP1 SWAP2 SSTORE POP POP CALLER PUSH0 SWAP1 DUP2 MSTORE PUSH1 0xD7 PUSH1 0x20 MSTORE PUSH1 0x40 DUP2 KECCAK256 DUP1 SLOAD DUP5 SWAP3 SWAP1 PUSH2 0x3710 SWAP1 DUP5 SWAP1 PUSH2 0x3F9F JUMP JUMPDEST SWAP1 SWAP2 SSTORE POP POP PUSH0 DUP4 DUP2 MSTORE PUSH1 0xDA PUSH1 0x20 SWAP1 DUP2 MSTORE PUSH1 0x40 DUP1 DUP4 KECCAK256 PUSH1 0x8 DUP2 ADD SLOAD DUP5 MSTORE PUSH1 0xB ADD SWAP1 SWAP2 MSTORE SWAP1 KECCAK256 SSTORE POP POP JUMP JUMPDEST PUSH1 0x33 SLOAD PUSH1 0xFF AND PUSH2 0x28E5 JUMPI PUSH1 0x40 MLOAD PUSH3 0x461BCD PUSH1 0xE5 SHL DUP2 MSTORE PUSH1 0x20 PUSH1 0x4 DUP3 ADD MSTORE PUSH1 0x14 PUSH1 0x24 DUP3 ADD MSTORE PUSH20 0x14185D5CD8589B194E881B9BDD081C185D5CD959 PUSH1 0x62 SHL PUSH1 0x44 DUP3 ADD MSTORE PUSH1 0x64 ADD PUSH2 0xA41 JUMP JUMPDEST PUSH1 0x60 PUSH2 0x8E3 PUSH1 0x1 PUSH1 0x1 PUSH1 0xA0 SHL SUB DUP4 AND PUSH1 0x14 JUMPDEST PUSH1 0x60 PUSH0 PUSH2 0x37A2 DUP4 PUSH1 0x2 PUSH2 0x3F88 JUMP JUMPDEST PUSH2 0x37AD SWAP1 PUSH1 0x2 PUSH2 0x3F9F JUMP JUMPDEST PUSH1 0x1 PUSH1 0x1 PUSH1 0x40 SHL SUB DUP2 GT ISZERO PUSH2 0x37C4 JUMPI PUSH2 0x37C4 PUSH2 0x3AD6 JUMP JUMPDEST PUSH1 0x40 MLOAD SWAP1 DUP1 DUP3 MSTORE DUP1 PUSH1 0x1F ADD PUSH1 0x1F NOT AND PUSH1 0x20 ADD DUP3 ADD PUSH1 0x40 MSTORE DUP1 ISZERO PUSH2 0x37EE JUMPI PUSH1 0x20 DUP3 ADD DUP2 DUP1 CALLDATASIZE DUP4 CALLDATACOPY ADD SWAP1 POP JUMPDEST POP SWAP1 POP PUSH1 0x3 PUSH1 0xFC SHL DUP2 PUSH0 DUP2 MLOAD DUP2 LT PUSH2 0x3808 JUMPI PUSH2 0x3808 PUSH2 0x402F JUMP JUMPDEST PUSH1 0x20 ADD ADD SWAP1 PUSH1 0x1 PUSH1 0x1 PUSH1 0xF8 SHL SUB NOT AND SWAP1 DUP2 PUSH0 BYTE SWAP1 MSTORE8 POP PUSH1 0xF PUSH1 0xFB SHL DUP2 PUSH1 0x1 DUP2 MLOAD DUP2 LT PUSH2 0x3836 JUMPI PUSH2 0x3836 PUSH2 0x402F JUMP JUMPDEST PUSH1 0x20 ADD ADD SWAP1 PUSH1 0x1 PUSH1 0x1 PUSH1 0xF8 SHL SUB NOT AND SWAP1 DUP2 PUSH0 BYTE SWAP1 MSTORE8 POP PUSH0 PUSH2 0x3858 DUP5 PUSH1 0x2 PUSH2 0x3F88 JUMP JUMPDEST PUSH2 0x3863 SWAP1 PUSH1 0x1 PUSH2 0x3F9F JUMP JUMPDEST SWAP1 POP JUMPDEST PUSH1 0x1 DUP2 GT ISZERO PUSH2 0x38DA JUMPI PUSH16 0x181899199A1A9B1B9C1CB0B131B232B3 PUSH1 0x81 SHL DUP6 PUSH1 0xF AND PUSH1 0x10 DUP2 LT PUSH2 0x3897 JUMPI PUSH2 0x3897 PUSH2 0x402F JUMP JUMPDEST BYTE PUSH1 0xF8 SHL DUP3 DUP3 DUP2 MLOAD DUP2 LT PUSH2 0x38AD JUMPI PUSH2 0x38AD PUSH2 0x402F JUMP JUMPDEST PUSH1 0x20 ADD ADD SWAP1 PUSH1 0x1 PUSH1 0x1 PUSH1 0xF8 SHL SUB NOT AND SWAP1 DUP2 PUSH0 BYTE SWAP1 MSTORE8 POP PUSH1 0x4 SWAP5 SWAP1 SWAP5 SHR SWAP4 PUSH2 0x38D3 DUP2 PUSH2 0x4302 JUMP JUMPDEST SWAP1 POP PUSH2 0x3866 JUMP JUMPDEST POP DUP4 ISZERO PUSH2 0x1FAB JUMPI PUSH1 0x40 MLOAD PUSH3 0x461BCD PUSH1 0xE5 SHL DUP2 MSTORE PUSH1 0x20 PUSH1 0x4 DUP3 ADD DUP2 SWAP1 MSTORE PUSH1 0x24 DUP3 ADD MSTORE PUSH32 0x537472696E67733A20686578206C656E67746820696E73756666696369656E74 PUSH1 0x44 DUP3 ADD MSTORE PUSH1 0x64 ADD PUSH2 0xA41 JUMP JUMPDEST DUP3 DUP1 SLOAD DUP3 DUP3 SSTORE SWAP1 PUSH0 MSTORE PUSH1 0x20 PUSH0 KECCAK256 SWAP1 DUP2 ADD SWAP3 DUP3 ISZERO PUSH2 0x396D JUMPI SWAP2 PUSH1 0x20 MUL DUP3 ADD JUMPDEST DUP3 DUP2 GT ISZERO PUSH2 0x396D JUMPI DUP3 MLOAD DUP3 SWAP1 PUSH2 0x395D SWAP1 DUP3 PUSH2 0x41C2 JUMP JUMPDEST POP SWAP2 PUSH1 0x20 ADD SWAP2 SWAP1 PUSH1 0x1 ADD SWAP1 PUSH2 0x3947 JUMP JUMPDEST POP PUSH2 0x3979 SWAP3 SWAP2 POP PUSH2 0x397D JUMP JUMPDEST POP SWAP1 JUMP JUMPDEST DUP1 DUP3 GT ISZERO PUSH2 0x3979 JUMPI PUSH0 PUSH2 0x3990 DUP3 DUP3 PUSH2 0x3999 JUMP JUMPDEST POP PUSH1 0x1 ADD PUSH2 0x397D JUMP JUMPDEST POP DUP1 SLOAD PUSH2 0x39A5 SWAP1 PUSH2 0x4065 JUMP JUMPDEST PUSH0 DUP3 SSTORE DUP1 PUSH1 0x1F LT PUSH2 0x39B4 JUMPI POP POP JUMP JUMPDEST PUSH1 0x1F ADD PUSH1 0x20 SWAP1 DIV SWAP1 PUSH0 MSTORE PUSH1 0x20 PUSH0 KECCAK256 SWAP1 DUP2 ADD SWAP1 PUSH2 0xDF3 SWAP2 SWAP1 JUMPDEST DUP1 DUP3 GT ISZERO PUSH2 0x3979 JUMPI PUSH0 DUP2 SSTORE PUSH1 0x1 ADD PUSH2 0x39CC JUMP JUMPDEST PUSH0 PUSH1 0x20 DUP3 DUP5 SUB SLT ISZERO PUSH2 0x39EF JUMPI PUSH0 PUSH0 REVERT JUMPDEST DUP2 CALLDATALOAD PUSH1 0x1 PUSH1 0x1 PUSH1 0xE0 SHL SUB NOT DUP2 AND DUP2 EQ PUSH2 0x1FAB JUMPI PUSH0 PUSH0 REVERT JUMPDEST DUP1 CALLDATALOAD PUSH1 0x1 PUSH1 0x1 PUSH1 0xA0 SHL SUB DUP2 AND DUP2 EQ PUSH2 0x3A1C JUMPI PUSH0 PUSH0 REVERT JUMPDEST SWAP2 SWAP1 POP JUMP JUMPDEST PUSH0 PUSH1 0x20 DUP3 DUP5 SUB SLT ISZERO PUSH2 0x3A31 JUMPI PUSH0 PUSH0 REVERT JUMPDEST PUSH2 0x1FAB DUP3 PUSH2 0x3A06 JUMP JUMPDEST PUSH0 PUSH1 0x20 DUP3 DUP5 SUB SLT ISZERO PUSH2 0x3A4A JUMPI PUSH0 PUSH0 REVERT JUMPDEST POP CALLDATALOAD SWAP2 SWAP1 POP JUMP JUMPDEST PUSH0 PUSH0 PUSH1 0x40 DUP4 DUP6 SUB SLT ISZERO PUSH2 0x3A62 JUMPI PUSH0 PUSH0 REVERT JUMPDEST POP POP DUP1 CALLDATALOAD SWAP3 PUSH1 0x20 SWAP1 SWAP2 ADD CALLDATALOAD SWAP2 POP JUMP JUMPDEST PUSH0 PUSH0 PUSH1 0x40 DUP4 DUP6 SUB SLT ISZERO PUSH2 0x3A82 JUMPI PUSH0 PUSH0 REVERT JUMPDEST DUP3 CALLDATALOAD SWAP2 POP PUSH2 0x3A92 PUSH1 0x20 DUP5 ADD PUSH2 0x3A06 JUMP JUMPDEST SWAP1 POP SWAP3 POP SWAP3 SWAP1 POP JUMP JUMPDEST DUP1 ISZERO ISZERO DUP2 EQ PUSH2 0xDF3 JUMPI PUSH0 PUSH0 REVERT JUMPDEST PUSH0 PUSH0 PUSH1 0x40 DUP4 DUP6 SUB SLT ISZERO PUSH2 0x3AB9 JUMPI PUSH0 PUSH0 REVERT JUMPDEST DUP3 CALLDATALOAD SWAP2 POP PUSH1 0x20 DUP4 ADD CALLDATALOAD PUSH2 0x3ACB DUP2 PUSH2 0x3A9B JUMP JUMPDEST DUP1 SWAP2 POP POP SWAP3 POP SWAP3 SWAP1 POP JUMP JUMPDEST PUSH4 0x4E487B71 PUSH1 0xE0 SHL PUSH0 MSTORE PUSH1 0x41 PUSH1 0x4 MSTORE PUSH1 0x24 PUSH0 REVERT JUMPDEST PUSH1 0x40 MLOAD PUSH1 0x1F DUP3 ADD PUSH1 0x1F NOT AND DUP2 ADD PUSH1 0x1 PUSH1 0x1 PUSH1 0x40 SHL SUB DUP2 GT DUP3 DUP3 LT OR ISZERO PUSH2 0x3B12 JUMPI PUSH2 0x3B12 PUSH2 0x3AD6 JUMP JUMPDEST PUSH1 0x40 MSTORE SWAP2 SWAP1 POP JUMP JUMPDEST PUSH0 DUP3 PUSH1 0x1F DUP4 ADD SLT PUSH2 0x3B29 JUMPI PUSH0 PUSH0 REVERT JUMPDEST DUP2 CALLDATALOAD PUSH1 0x1 PUSH1 0x1 PUSH1 0x40 SHL SUB DUP2 GT ISZERO PUSH2 0x3B42 JUMPI PUSH2 0x3B42 PUSH2 0x3AD6 JUMP JUMPDEST PUSH2 0x3B55 PUSH1 0x1F DUP3 ADD PUSH1 0x1F NOT AND PUSH1 0x20 ADD PUSH2 0x3AEA JUMP JUMPDEST DUP2 DUP2 MSTORE DUP5 PUSH1 0x20 DUP4 DUP7 ADD ADD GT ISZERO PUSH2 0x3B69 JUMPI PUSH0 PUSH0 REVERT JUMPDEST DUP2 PUSH1 0x20 DUP6 ADD PUSH1 0x20 DUP4 ADD CALLDATACOPY PUSH0 SWAP2 DUP2 ADD PUSH1 0x20 ADD SWAP2 SWAP1 SWAP2 MSTORE SWAP4 SWAP3 POP POP POP JUMP JUMPDEST PUSH0 PUSH0 PUSH1 0x40 DUP4 DUP6 SUB SLT ISZERO PUSH2 0x3B96 JUMPI PUSH0 PUSH0 REVERT JUMPDEST DUP3 CALLDATALOAD PUSH1 0x1 PUSH1 0x1 PUSH1 0x40 SHL SUB DUP2 GT ISZERO PUSH2 0x3BAB JUMPI PUSH0 PUSH0 REVERT JUMPDEST PUSH2 0x3BB7 DUP6 DUP3 DUP7 ADD PUSH2 0x3B1A JUMP JUMPDEST SWAP3 POP POP PUSH1 0x20 DUP4 ADD CALLDATALOAD PUSH2 0x3ACB DUP2 PUSH2 0x3A9B JUMP JUMPDEST PUSH0 PUSH0 PUSH1 0x40 DUP4 DUP6 SUB SLT ISZERO PUSH2 0x3BD9 JUMPI PUSH0 PUSH0 REVERT JUMPDEST DUP3 CALLDATALOAD SWAP2 POP PUSH1 0x20 DUP4 ADD CALLDATALOAD PUSH1 0x1 PUSH1 0x1 PUSH1 0x40 SHL SUB DUP2 GT ISZERO PUSH2 0x3BF5 JUMPI PUSH0 PUSH0 REVERT JUMPDEST PUSH2 0x3C01 DUP6 DUP3 DUP7 ADD PUSH2 0x3B1A JUMP JUMPDEST SWAP2 POP POP SWAP3 POP SWAP3 SWAP1 POP JUMP JUMPDEST PUSH0 DUP2 MLOAD DUP1 DUP5 MSTORE DUP1 PUSH1 0x20 DUP5 ADD PUSH1 0x20 DUP7 ADD MCOPY PUSH0 PUSH1 0x20 DUP3 DUP7 ADD ADD MSTORE PUSH1 0x20 PUSH1 0x1F NOT PUSH1 0x1F DUP4 ADD AND DUP6 ADD ADD SWAP2 POP POP SWAP3 SWAP2 POP POP JUMP JUMPDEST PUSH1 0x20 DUP2 MSTORE PUSH0 PUSH2 0x1FAB PUSH1 0x20 DUP4 ADD DUP5 PUSH2 0x3C0B JUMP JUMPDEST PUSH0 PUSH0 PUSH1 0x40 DUP4 DUP6 SUB SLT ISZERO PUSH2 0x3C5C JUMPI PUSH0 PUSH0 REVERT JUMPDEST PUSH2 0x3C65 DUP4 PUSH2 0x3A06 JUMP JUMPDEST SWAP5 PUSH1 0x20 SWAP4 SWAP1 SWAP4 ADD CALLDATALOAD SWAP4 POP POP POP JUMP JUMPDEST PUSH0 PUSH1 0x20 DUP3 DUP5 SUB SLT ISZERO PUSH2 0x3C83 JUMPI PUSH0 PUSH0 REVERT JUMPDEST DUP2 CALLDATALOAD PUSH1 0x1 PUSH1 0x1 PUSH1 0x40 SHL SUB DUP2 GT ISZERO PUSH2 0x3C98 JUMPI PUSH0 PUSH0 REVERT JUMPDEST PUSH2 0x9CB DUP5 DUP3 DUP6 ADD PUSH2 0x3B1A JUMP JUMPDEST PUSH0 PUSH1 0x20 DUP3 DUP5 SUB SLT ISZERO PUSH2 0x3CB4 JUMPI PUSH0 PUSH0 REVERT JUMPDEST DUP2 CALLDATALOAD PUSH2 0x1FAB DUP2 PUSH2 0x3A9B JUMP JUMPDEST PUSH2 0x180 DUP2 MSTORE PUSH0 PUSH2 0x3CD3 PUSH2 0x180 DUP4 ADD DUP16 PUSH2 0x3C0B JUMP JUMPDEST PUSH1 0x20 DUP4 ADD SWAP14 SWAP1 SWAP14 MSTORE POP SWAP10 ISZERO ISZERO PUSH1 0x40 DUP12 ADD MSTORE SWAP8 ISZERO ISZERO PUSH1 0x60 DUP11 ADD MSTORE PUSH1 0x80 DUP10 ADD SWAP7 SWAP1 SWAP7 MSTORE PUSH1 0xA0 DUP9 ADD SWAP5 SWAP1 SWAP5 MSTORE PUSH1 0xC0 DUP8 ADD SWAP3 SWAP1 SWAP3 MSTORE PUSH1 0xE0 DUP7 ADD MSTORE PUSH2 0x100 DUP6 ADD MSTORE PUSH2 0x120 DUP5 ADD MSTORE PUSH2 0x140 DUP4 ADD MSTORE PUSH2 0x160 SWAP1 SWAP2 ADD MSTORE SWAP2 SWAP1 POP JUMP JUMPDEST PUSH0 PUSH1 0x1 PUSH1 0x1 PUSH1 0x40 SHL SUB DUP3 GT ISZERO PUSH2 0x3D3F JUMPI PUSH2 0x3D3F PUSH2 0x3AD6 JUMP JUMPDEST POP PUSH1 0x5 SHL PUSH1 0x20 ADD SWAP1 JUMP JUMPDEST PUSH0 DUP3 PUSH1 0x1F DUP4 ADD SLT PUSH2 0x3D58 JUMPI PUSH0 PUSH0 REVERT JUMPDEST DUP2 CALLDATALOAD PUSH2 0x3D6B PUSH2 0x3D66 DUP3 PUSH2 0x3D27 JUMP JUMPDEST PUSH2 0x3AEA JUMP JUMPDEST DUP1 DUP3 DUP3 MSTORE PUSH1 0x20 DUP3 ADD SWAP2 POP PUSH1 0x20 DUP4 PUSH1 0x5 SHL DUP7 ADD ADD SWAP3 POP DUP6 DUP4 GT ISZERO PUSH2 0x3D8C JUMPI PUSH0 PUSH0 REVERT JUMPDEST PUSH1 0x20 DUP6 ADD JUMPDEST DUP4 DUP2 LT ISZERO PUSH2 0x3DCC JUMPI DUP1 CALLDATALOAD PUSH1 0x1 PUSH1 0x1 PUSH1 0x40 SHL SUB DUP2 GT ISZERO PUSH2 0x3DAE JUMPI PUSH0 PUSH0 REVERT JUMPDEST PUSH2 0x3DBD DUP9 PUSH1 0x20 DUP4 DUP11 ADD ADD PUSH2 0x3B1A JUMP JUMPDEST DUP5 MSTORE POP PUSH1 0x20 SWAP3 DUP4 ADD SWAP3 ADD PUSH2 0x3D91 JUMP JUMPDEST POP SWAP6 SWAP5 POP POP POP POP POP JUMP JUMPDEST PUSH0 DUP3 PUSH1 0x1F DUP4 ADD SLT PUSH2 0x3DE5 JUMPI PUSH0 PUSH0 REVERT JUMPDEST DUP2 CALLDATALOAD PUSH2 0x3DF3 PUSH2 0x3D66 DUP3 PUSH2 0x3D27 JUMP JUMPDEST DUP1 DUP3 DUP3 MSTORE PUSH1 0x20 DUP3 ADD SWAP2 POP PUSH1 0x20 DUP4 PUSH1 0x5 SHL DUP7 ADD ADD SWAP3 POP DUP6 DUP4 GT ISZERO PUSH2 0x3E14 JUMPI PUSH0 PUSH0 REVERT JUMPDEST PUSH1 0x20 DUP6 ADD JUMPDEST DUP4 DUP2 LT ISZERO PUSH2 0x3DCC JUMPI DUP1 CALLDATALOAD DUP4 MSTORE PUSH1 0x20 SWAP3 DUP4 ADD SWAP3 ADD PUSH2 0x3E19 JUMP JUMPDEST PUSH0 PUSH0 PUSH0 PUSH0 PUSH0 PUSH0 PUSH0 PUSH0 PUSH0 PUSH2 0x120 DUP11 DUP13 SUB SLT ISZERO PUSH2 0x3E4A JUMPI PUSH0 PUSH0 REVERT JUMPDEST PUSH2 0x3E53 DUP11 PUSH2 0x3A06 JUMP JUMPDEST SWAP9 POP PUSH2 0x3E61 PUSH1 0x20 DUP12 ADD PUSH2 0x3A06 JUMP JUMPDEST SWAP8 POP PUSH1 0x40 DUP11 ADD CALLDATALOAD SWAP7 POP PUSH1 0x60 DUP11 ADD CALLDATALOAD SWAP6 POP PUSH1 0x80 DUP11 ADD CALLDATALOAD PUSH1 0x1 PUSH1 0x1 PUSH1 0x40 SHL SUB DUP2 GT ISZERO PUSH2 0x3E89 JUMPI PUSH0 PUSH0 REVERT JUMPDEST PUSH2 0x3E95 DUP13 DUP3 DUP14 ADD PUSH2 0x3D49 JUMP JUMPDEST SWAP6 POP POP PUSH1 0xA0 DUP11 ADD CALLDATALOAD PUSH1 0x1 PUSH1 0x1 PUSH1 0x40 SHL SUB DUP2 GT ISZERO PUSH2 0x3EB0 JUMPI PUSH0 PUSH0 REVERT JUMPDEST PUSH2 0x3EBC DUP13 DUP3 DUP14 ADD PUSH2 0x3DD6 JUMP JUMPDEST SWAP5 POP POP PUSH1 0xC0 DUP11 ADD CALLDATALOAD PUSH1 0x1 PUSH1 0x1 PUSH1 0x40 SHL SUB DUP2 GT ISZERO PUSH2 0x3ED7 JUMPI PUSH0 PUSH0 REVERT JUMPDEST PUSH2 0x3EE3 DUP13 DUP3 DUP14 ADD PUSH2 0x3DD6 JUMP JUMPDEST SWAP4 POP POP PUSH1 0xE0 DUP11 ADD CALLDATALOAD PUSH1 0x1 PUSH1 0x1 PUSH1 0x40 SHL SUB DUP2 GT ISZERO PUSH2 0x3EFE JUMPI PUSH0 PUSH0 REVERT JUMPDEST PUSH2 0x3F0A DUP13 DUP3 DUP14 ADD PUSH2 0x3DD6 JUMP JUMPDEST SWAP3 POP POP PUSH2 0x100 DUP11 ADD CALLDATALOAD PUSH1 0x1 PUSH1 0x1 PUSH1 0x40 SHL SUB DUP2 GT ISZERO PUSH2 0x3F26 JUMPI PUSH0 PUSH0 REVERT JUMPDEST PUSH2 0x3F32 DUP13 DUP3 DUP14 ADD PUSH2 0x3DD6 JUMP JUMPDEST SWAP2 POP POP SWAP3 SWAP6 SWAP9 POP SWAP3 SWAP6 SWAP9 POP SWAP3 SWAP6 SWAP9 JUMP JUMPDEST PUSH4 0x4E487B71 PUSH1 0xE0 SHL PUSH0 MSTORE PUSH1 0x11 PUSH1 0x4 MSTORE PUSH1 0x24 PUSH0 REVERT JUMPDEST DUP2 DUP2 SUB DUP2 DUP2 GT ISZERO PUSH2 0x8E3 JUMPI PUSH2 0x8E3 PUSH2 0x3F42 JUMP JUMPDEST PUSH0 DUP3 PUSH2 0x3F83 JUMPI PUSH4 0x4E487B71 PUSH1 0xE0 SHL PUSH0 MSTORE PUSH1 0x12 PUSH1 0x4 MSTORE PUSH1 0x24 PUSH0 REVERT JUMPDEST POP DIV SWAP1 JUMP JUMPDEST DUP1 DUP3 MUL DUP2 ISZERO DUP3 DUP3 DIV DUP5 EQ OR PUSH2 0x8E3 JUMPI PUSH2 0x8E3 PUSH2 0x3F42 JUMP JUMPDEST DUP1 DUP3 ADD DUP1 DUP3 GT ISZERO PUSH2 0x8E3 JUMPI PUSH2 0x8E3 PUSH2 0x3F42 JUMP JUMPDEST PUSH0 PUSH1 0x20 DUP3 DUP5 SUB SLT ISZERO PUSH2 0x3FC2 JUMPI PUSH0 PUSH0 REVERT JUMPDEST DUP2 MLOAD PUSH2 0x1FAB DUP2 PUSH2 0x3A9B JUMP JUMPDEST PUSH0 PUSH1 0x1 DUP3 ADD PUSH2 0x3FDE JUMPI PUSH2 0x3FDE PUSH2 0x3F42 JUMP JUMPDEST POP PUSH1 0x1 ADD SWAP1 JUMP JUMPDEST PUSH1 0x20 DUP1 DUP3 MSTORE PUSH1 0x2A SWAP1 DUP3 ADD MSTORE PUSH32 0x4E6F2061637469766520666F7265766572206C6F636B2065786973747320666F PUSH1 0x40 DUP3 ADD MSTORE PUSH10 0x39103A3432903AB9B2B9 PUSH1 0xB1 SHL PUSH1 0x60 DUP3 ADD MSTORE PUSH1 0x80 ADD SWAP1 JUMP JUMPDEST PUSH4 0x4E487B71 PUSH1 0xE0 SHL PUSH0 MSTORE PUSH1 0x32 PUSH1 0x4 MSTORE PUSH1 0x24 PUSH0 REVERT JUMPDEST PUSH0 DUP2 MLOAD DUP1 PUSH1 0x20 DUP5 ADD DUP6 MCOPY PUSH0 SWAP4 ADD SWAP3 DUP4 MSTORE POP SWAP1 SWAP2 SWAP1 POP JUMP JUMPDEST PUSH0 PUSH2 0x1FAB DUP3 DUP5 PUSH2 0x4043 JUMP JUMPDEST PUSH1 0x1 DUP2 DUP2 SHR SWAP1 DUP3 AND DUP1 PUSH2 0x4079 JUMPI PUSH1 0x7F DUP3 AND SWAP2 POP JUMPDEST PUSH1 0x20 DUP3 LT DUP2 SUB PUSH2 0x2070 JUMPI PUSH4 0x4E487B71 PUSH1 0xE0 SHL PUSH0 MSTORE PUSH1 0x22 PUSH1 0x4 MSTORE PUSH1 0x24 PUSH0 REVERT JUMPDEST PUSH0 PUSH0 DUP4 SLOAD PUSH2 0x40A4 DUP2 PUSH2 0x4065 JUMP JUMPDEST PUSH1 0x1 DUP3 AND DUP1 ISZERO PUSH2 0x40BB JUMPI PUSH1 0x1 DUP2 EQ PUSH2 0x40D0 JUMPI PUSH2 0x40FD JUMP JUMPDEST PUSH1 0xFF NOT DUP4 AND DUP7 MSTORE DUP2 ISZERO ISZERO DUP3 MUL DUP7 ADD SWAP4 POP PUSH2 0x40FD JUMP JUMPDEST DUP7 PUSH0 MSTORE PUSH1 0x20 PUSH0 KECCAK256 PUSH0 JUMPDEST DUP4 DUP2 LT ISZERO PUSH2 0x40F5 JUMPI DUP2 SLOAD DUP9 DUP3 ADD MSTORE PUSH1 0x1 SWAP1 SWAP2 ADD SWAP1 PUSH1 0x20 ADD PUSH2 0x40D9 JUMP JUMPDEST POP POP DUP2 DUP7 ADD SWAP4 POP JUMPDEST POP SWAP2 SWAP6 SWAP5 POP POP POP POP POP JUMP JUMPDEST PUSH0 PUSH1 0x20 DUP3 DUP5 SUB SLT ISZERO PUSH2 0x4118 JUMPI PUSH0 PUSH0 REVERT JUMPDEST POP MLOAD SWAP2 SWAP1 POP JUMP JUMPDEST PUSH4 0x4E487B71 PUSH1 0xE0 SHL PUSH0 MSTORE PUSH1 0x31 PUSH1 0x4 MSTORE PUSH1 0x24 PUSH0 REVERT JUMPDEST PUSH1 0x20 DUP1 DUP3 MSTORE PUSH1 0x24 SWAP1 DUP3 ADD MSTORE PUSH32 0x416D6F756E742069732062656C6F7720746865206D696E696D756D2072657175 PUSH1 0x40 DUP3 ADD MSTORE PUSH4 0x1A5C9959 PUSH1 0xE2 SHL PUSH1 0x60 DUP3 ADD MSTORE PUSH1 0x80 ADD SWAP1 JUMP JUMPDEST PUSH1 0x1F DUP3 GT ISZERO PUSH2 0xC94 JUMPI DUP1 PUSH0 MSTORE PUSH1 0x20 PUSH0 KECCAK256 PUSH1 0x1F DUP5 ADD PUSH1 0x5 SHR DUP2 ADD PUSH1 0x20 DUP6 LT ISZERO PUSH2 0x419C JUMPI POP DUP1 JUMPDEST PUSH1 0x1F DUP5 ADD PUSH1 0x5 SHR DUP3 ADD SWAP2 POP JUMPDEST DUP2 DUP2 LT ISZERO PUSH2 0x41BB JUMPI PUSH0 DUP2 SSTORE PUSH1 0x1 ADD PUSH2 0x41A8 JUMP JUMPDEST POP POP POP POP POP JUMP JUMPDEST DUP2 MLOAD PUSH1 0x1 PUSH1 0x1 PUSH1 0x40 SHL SUB DUP2 GT ISZERO PUSH2 0x41DB JUMPI PUSH2 0x41DB PUSH2 0x3AD6 JUMP JUMPDEST PUSH2 0x41EF DUP2 PUSH2 0x41E9 DUP5 SLOAD PUSH2 0x4065 JUMP JUMPDEST DUP5 PUSH2 0x4177 JUMP JUMPDEST PUSH1 0x20 PUSH1 0x1F DUP3 GT PUSH1 0x1 DUP2 EQ PUSH2 0x4221 JUMPI PUSH0 DUP4 ISZERO PUSH2 0x420A JUMPI POP DUP5 DUP3 ADD MLOAD JUMPDEST PUSH0 NOT PUSH1 0x3 DUP6 SWAP1 SHL SHR NOT AND PUSH1 0x1 DUP5 SWAP1 SHL OR DUP5 SSTORE PUSH2 0x41BB JUMP JUMPDEST PUSH0 DUP5 DUP2 MSTORE PUSH1 0x20 DUP2 KECCAK256 PUSH1 0x1F NOT DUP6 AND SWAP2 JUMPDEST DUP3 DUP2 LT ISZERO PUSH2 0x4250 JUMPI DUP8 DUP6 ADD MLOAD DUP3 SSTORE PUSH1 0x20 SWAP5 DUP6 ADD SWAP5 PUSH1 0x1 SWAP1 SWAP3 ADD SWAP2 ADD PUSH2 0x4230 JUMP JUMPDEST POP DUP5 DUP3 LT ISZERO PUSH2 0x426D JUMPI DUP7 DUP5 ADD MLOAD PUSH0 NOT PUSH1 0x3 DUP8 SWAP1 SHL PUSH1 0xF8 AND SHR NOT AND DUP2 SSTORE JUMPDEST POP POP POP POP PUSH1 0x1 SWAP1 DUP2 SHL ADD SWAP1 SSTORE POP JUMP JUMPDEST DUP4 DUP2 MSTORE PUSH1 0x60 PUSH1 0x20 DUP3 ADD MSTORE PUSH0 PUSH2 0x4294 PUSH1 0x60 DUP4 ADD DUP6 PUSH2 0x3C0B JUMP JUMPDEST SWAP1 POP DUP3 PUSH1 0x40 DUP4 ADD MSTORE SWAP5 SWAP4 POP POP POP POP JUMP JUMPDEST PUSH32 0x416363657373436F6E74726F6C3A206163636F756E7420000000000000000000 DUP2 MSTORE PUSH0 PUSH2 0x42D5 PUSH1 0x17 DUP4 ADD DUP6 PUSH2 0x4043 JUMP JUMPDEST PUSH17 0x1034B99036B4B9B9B4B733903937B6329 PUSH1 0x7D SHL DUP2 MSTORE PUSH2 0x42F9 PUSH1 0x11 DUP3 ADD DUP6 PUSH2 0x4043 JUMP JUMPDEST SWAP6 SWAP5 POP POP POP POP POP JUMP JUMPDEST PUSH0 DUP2 PUSH2 0x4310 JUMPI PUSH2 0x4310 PUSH2 0x3F42 JUMP JUMPDEST POP PUSH0 NOT ADD SWAP1 JUMP INVALID PUSH6 0xD7A28E3265B3 PUSH27 0x6474929F336521B332C1681B933F6CB9F3376673440D862AA49807 KECCAK256 TLOAD RETF 0xD3 SSTORE MULMOD 0x2E CREATE2 0xA8 LOG1 DUP16 JUMP 0xE8 SWAP2 EXTCODECOPY DELEGATECALL LOG2 ADD EXTSTATICCALL 0xE2 DUP8 DUP3 JUMPDEST MULMOD JUMP SWAP4 0xC2 OR PUSH22 0xA2646970667358221220E85379902123CC0CD4A09023 DUP12 PUSH8 0x9476E713C53E0018 DATALOADN 0xDED3 OR MULMOD 0xE9 ISZERO 0xDB JUMPI 0xC3 PUSH5 0x736F6C6343 STOP ADDMOD 0x1E STOP CALLER "
		},
		"gasEstimates": {
			"creation": {
				"codeDepositCost": "3458600",
				"executionCost": "33452",
				"totalCost": "3492052"
			},
			"external": {
				"ADMIN_ROLE()": "infinite",
				"ALVA()": "2426",
				"DEFAULT_ADMIN_ROLE()": "283",
				"PAUSER_ROLE()": "infinite",
				"PERCENTAGE_FACTOR()": "327",
				"Pools(uint256)": "infinite",
				"RATIO_FACTOR()": "305",
				"REWARDS_ALLOCATOR_ROLE()": "284",
				"REWARD_PERIOD()": "308",
				"accountToForeverId(address)": "2583",
				"accountToIdFinalized(address)": "2584",
				"accountToLockIds(address,uint256)": "4802",
				"accountTocalculatedRewards(address)": "2628",
				"claimRewards()": "infinite",
				"compoundRewards(bool)": "infinite",
				"countRewards(uint256,uint256)": "infinite",
				"currentIdLock()": "2362",
				"currentIdRewards()": "2404",
				"decayInterval()": "2427",
				"getActiveTimeBaseLock(address)": "infinite",
				"getIncrementedAmount(uint256,uint256)": "2673",
				"getPoolDataByRewardId(uint256,string)": "infinite",
				"getRewardsPending(address)": "infinite",
				"getRoleAdmin(bytes32)": "2554",
				"getTotalLocks(address)": "4864",
				"getveAlvaAmount(uint256,string)": "infinite",
				"grantRole(bytes32,address)": "infinite",
				"hasRole(bytes32,address)": "2784",
				"increaseAmount(uint256,bool)": "infinite",
				"initialize(address,address,uint256,uint256,string[],uint256[],uint256[],uint256[],uint256[])": "infinite",
				"lockIdToLockData(uint256)": "infinite",
				"minimumRewardAmount()": "2361",
				"minimumStakingAmount()": "2361",
				"pause()": "infinite",
				"paused()": "2382",
				"poolToPoolData(string)": "infinite",
				"renewStaking(uint256,string)": "infinite",
				"renounceRole(bytes32,address)": "29108",
				"revokeRole(bytes32,address)": "infinite",
				"rewardEligibleLocks(address,uint256)": "4804",
				"rewardIdToRewardData(uint256)": "6838",
				"rewardPeriodCount()": "2542",
				"stake(uint256,string)": "infinite",
				"startTime()": "2385",
				"supportsInterface(bytes4)": "493",
				"topUpRewards()": "infinite",
				"unallocatedRewards()": "2363",
				"unpause()": "infinite",
				"unstake()": "infinite",
				"updateDecayInterval(uint256)": "infinite",
				"updateMinStakingAmount(uint256)": "infinite",
				"updateMinimumRewardAmount(uint256)": "infinite",
				"updatePoolStatus(string,bool)": "infinite",
				"updateWithdrawalPercentage(uint256)": "infinite",
				"vaultWithdrawalPercentage()": "2427",
				"veALVA()": "2405",
				"veAlvaBalance(address)": "11472"
			},
			"internal": {
				"_calculateRewards(uint256,uint256,uint256)": "infinite",
				"_claimRewards()": "infinite",
				"_finalizeForeverLockRewards()": "infinite",
				"_finalizeTimeBaseRewards(uint256)": "infinite",
				"_increaseAmount(uint256,uint256)": "infinite",
				"_stake(uint256,uint256,uint256,string memory,uint256)": "infinite"
			}
		},
		"methodIdentifiers": {
			"ADMIN_ROLE()": "75b238fc",
			"ALVA()": "323bf9f0",
			"DEFAULT_ADMIN_ROLE()": "a217fddf",
			"PAUSER_ROLE()": "e63ab1e9",
			"PERCENTAGE_FACTOR()": "ee01e5e7",
			"Pools(uint256)": "73dfccca",
			"RATIO_FACTOR()": "d8bbd46c",
			"REWARDS_ALLOCATOR_ROLE()": "58a13b3a",
			"REWARD_PERIOD()": "0a171df8",
			"accountToForeverId(address)": "66ff9f80",
			"accountToIdFinalized(address)": "2f57c174",
			"accountToLockIds(address,uint256)": "eee7f41c",
			"accountTocalculatedRewards(address)": "8b2d0ccf",
			"claimRewards()": "372500ab",
			"compoundRewards(bool)": "c86a0d16",
			"countRewards(uint256,uint256)": "45434445",
			"currentIdLock()": "a0b80db4",
			"currentIdRewards()": "f9f16788",
			"decayInterval()": "b6334aee",
			"getActiveTimeBaseLock(address)": "b44c4fef",
			"getIncrementedAmount(uint256,uint256)": "27c1a812",
			"getPoolDataByRewardId(uint256,string)": "744f90a7",
			"getRewardsPending(address)": "5ab2d62f",
			"getRoleAdmin(bytes32)": "248a9ca3",
			"getTotalLocks(address)": "5bae5e54",
			"getveAlvaAmount(uint256,string)": "b397e572",
			"grantRole(bytes32,address)": "2f2ff15d",
			"hasRole(bytes32,address)": "91d14854",
			"increaseAmount(uint256,bool)": "507f1305",
			"initialize(address,address,uint256,uint256,string[],uint256[],uint256[],uint256[],uint256[])": "fff9e917",
			"lockIdToLockData(uint256)": "efb81031",
			"minimumRewardAmount()": "e27c8ad5",
			"minimumStakingAmount()": "b0d2d011",
			"pause()": "8456cb59",
			"paused()": "5c975abb",
			"poolToPoolData(string)": "c142d988",
			"renewStaking(uint256,string)": "720b3ad3",
			"renounceRole(bytes32,address)": "36568abe",
			"revokeRole(bytes32,address)": "d547741f",
			"rewardEligibleLocks(address,uint256)": "7f53243b",
			"rewardIdToRewardData(uint256)": "7c83e6c8",
			"rewardPeriodCount()": "c38474c0",
			"stake(uint256,string)": "e7e4e1f7",
			"startTime()": "78e97925",
			"supportsInterface(bytes4)": "01ffc9a7",
			"topUpRewards()": "5d1dccb1",
			"unallocatedRewards()": "2b6fdc7e",
			"unpause()": "3f4ba83a",
			"unstake()": "2def6620",
			"updateDecayInterval(uint256)": "43cdab57",
			"updateMinStakingAmount(uint256)": "1bd067c5",
			"updateMinimumRewardAmount(uint256)": "d3f52d00",
			"updatePoolStatus(string,bool)": "5c5c0d60",
			"updateWithdrawalPercentage(uint256)": "abd8a033",
			"vaultWithdrawalPercentage()": "df3100d4",
			"veALVA()": "1698fe76",
			"veAlvaBalance(address)": "02e4923c"
		}
	},
	"abi": [
		{
			"inputs": [],
			"stateMutability": "nonpayable",
			"type": "constructor"
		},
		{
			"anonymous": false,
			"inputs": [
				{
					"indexed": true,
					"internalType": "uint256",
					"name": "lockId",
					"type": "uint256"
				},
				{
					"indexed": false,
					"internalType": "uint256",
					"name": "amount",
					"type": "uint256"
				},
				{
					"indexed": false,
					"internalType": "uint256",
					"name": "rewardAmount",
					"type": "uint256"
				},
				{
					"indexed": false,
					"internalType": "uint256",
					"name": "veAlva",
					"type": "uint256"
				}
			],
			"name": "Compounded",
			"type": "event"
		},
		{
			"anonymous": false,
			"inputs": [
				{
					"indexed": false,
					"internalType": "uint8",
					"name": "version",
					"type": "uint8"
				}
			],
			"name": "Initialized",
			"type": "event"
		},
		{
			"anonymous": false,
			"inputs": [
				{
					"indexed": true,
					"internalType": "uint256",
					"name": "previousLockId",
					"type": "uint256"
				},
				{
					"indexed": true,
					"internalType": "uint256",
					"name": "newLockId",
					"type": "uint256"
				}
			],
			"name": "LockRenewed",
			"type": "event"
		},
		{
			"anonymous": false,
			"inputs": [
				{
					"indexed": false,
					"internalType": "address",
					"name": "account",
					"type": "address"
				}
			],
			"name": "Paused",
			"type": "event"
		},
		{
			"anonymous": false,
			"inputs": [
				{
					"indexed": true,
					"internalType": "uint256",
					"name": "rewardId",
					"type": "uint256"
				},
				{
					"indexed": false,
					"internalType": "uint256",
					"name": "amount",
					"type": "uint256"
				}
			],
			"name": "RewardsAdded",
			"type": "event"
		},
		{
			"anonymous": false,
			"inputs": [
				{
					"indexed": true,
					"internalType": "address",
					"name": "account",
					"type": "address"
				},
				{
					"indexed": false,
					"internalType": "uint256",
					"name": "rewardAmount",
					"type": "uint256"
				}
			],
			"name": "RewardsClaimed",
			"type": "event"
		},
		{
			"anonymous": false,
			"inputs": [
				{
					"indexed": true,
					"internalType": "bytes32",
					"name": "role",
					"type": "bytes32"
				},
				{
					"indexed": true,
					"internalType": "bytes32",
					"name": "previousAdminRole",
					"type": "bytes32"
				},
				{
					"indexed": true,
					"internalType": "bytes32",
					"name": "newAdminRole",
					"type": "bytes32"
				}
			],
			"name": "RoleAdminChanged",
			"type": "event"
		},
		{
			"anonymous": false,
			"inputs": [
				{
					"indexed": true,
					"internalType": "bytes32",
					"name": "role",
					"type": "bytes32"
				},
				{
					"indexed": true,
					"internalType": "address",
					"name": "account",
					"type": "address"
				},
				{
					"indexed": true,
					"internalType": "address",
					"name": "sender",
					"type": "address"
				}
			],
			"name": "RoleGranted",
			"type": "event"
		},
		{
			"anonymous": false,
			"inputs": [
				{
					"indexed": true,
					"internalType": "bytes32",
					"name": "role",
					"type": "bytes32"
				},
				{
					"indexed": true,
					"internalType": "address",
					"name": "account",
					"type": "address"
				},
				{
					"indexed": true,
					"internalType": "address",
					"name": "sender",
					"type": "address"
				}
			],
			"name": "RoleRevoked",
			"type": "event"
		},
		{
			"anonymous": false,
			"inputs": [
				{
					"indexed": true,
					"internalType": "uint256",
					"name": "lockId",
					"type": "uint256"
				},
				{
					"indexed": false,
					"internalType": "uint256",
					"name": "amount",
					"type": "uint256"
				},
				{
					"indexed": false,
					"internalType": "uint256",
					"name": "veAlva",
					"type": "uint256"
				}
			],
			"name": "StakedAmountIncreased",
			"type": "event"
		},
		{
			"anonymous": false,
			"inputs": [
				{
					"indexed": true,
					"internalType": "uint256",
					"name": "lockId",
					"type": "uint256"
				},
				{
					"indexed": true,
					"internalType": "address",
					"name": "account",
					"type": "address"
				},
				{
					"indexed": false,
					"internalType": "uint256",
					"name": "amount",
					"type": "uint256"
				},
				{
					"indexed": false,
					"internalType": "string",
					"name": "pool",
					"type": "string"
				},
				{
					"indexed": false,
					"internalType": "uint256",
					"name": "veAlva",
					"type": "uint256"
				}
			],
			"name": "TokensStaked",
			"type": "event"
		},
		{
			"anonymous": false,
			"inputs": [
				{
					"indexed": false,
					"internalType": "address",
					"name": "account",
					"type": "address"
				}
			],
			"name": "Unpaused",
			"type": "event"
		},
		{
			"anonymous": false,
			"inputs": [
				{
					"indexed": true,
					"internalType": "address",
					"name": "account",
					"type": "address"
				},
				{
					"indexed": true,
					"internalType": "uint256",
					"name": "lockId",
					"type": "uint256"
				},
				{
					"indexed": false,
					"internalType": "uint256",
					"name": "endTime",
					"type": "uint256"
				}
			],
			"name": "Withdrawn",
			"type": "event"
		},
		{
			"inputs": [],
			"name": "ADMIN_ROLE",
			"outputs": [
				{
					"internalType": "bytes32",
					"name": "",
					"type": "bytes32"
				}
			],
			"stateMutability": "view",
			"type": "function"
		},
		{
			"inputs": [],
			"name": "ALVA",
			"outputs": [
				{
					"internalType": "contract IERC20",
					"name": "",
					"type": "address"
				}
			],
			"stateMutability": "view",
			"type": "function"
		},
		{
			"inputs": [],
			"name": "DEFAULT_ADMIN_ROLE",
			"outputs": [
				{
					"internalType": "bytes32",
					"name": "",
					"type": "bytes32"
				}
			],
			"stateMutability": "view",
			"type": "function"
		},
		{
			"inputs": [],
			"name": "PAUSER_ROLE",
			"outputs": [
				{
					"internalType": "bytes32",
					"name": "",
					"type": "bytes32"
				}
			],
			"stateMutability": "view",
			"type": "function"
		},
		{
			"inputs": [],
			"name": "PERCENTAGE_FACTOR",
			"outputs": [
				{
					"internalType": "uint256",
					"name": "",
					"type": "uint256"
				}
			],
			"stateMutability": "view",
			"type": "function"
		},
		{
			"inputs": [
				{
					"internalType": "uint256",
					"name": "",
					"type": "uint256"
				}
			],
			"name": "Pools",
			"outputs": [
				{
					"internalType": "string",
					"name": "",
					"type": "string"
				}
			],
			"stateMutability": "view",
			"type": "function"
		},
		{
			"inputs": [],
			"name": "RATIO_FACTOR",
			"outputs": [
				{
					"internalType": "uint256",
					"name": "",
					"type": "uint256"
				}
			],
			"stateMutability": "view",
			"type": "function"
		},
		{
			"inputs": [],
			"name": "REWARDS_ALLOCATOR_ROLE",
			"outputs": [
				{
					"internalType": "bytes32",
					"name": "",
					"type": "bytes32"
				}
			],
			"stateMutability": "view",
			"type": "function"
		},
		{
			"inputs": [],
			"name": "REWARD_PERIOD",
			"outputs": [
				{
					"internalType": "uint256",
					"name": "",
					"type": "uint256"
				}
			],
			"stateMutability": "view",
			"type": "function"
		},
		{
			"inputs": [
				{
					"internalType": "address",
					"name": "",
					"type": "address"
				}
			],
			"name": "accountToForeverId",
			"outputs": [
				{
					"internalType": "uint256",
					"name": "",
					"type": "uint256"
				}
			],
			"stateMutability": "view",
			"type": "function"
		},
		{
			"inputs": [
				{
					"internalType": "address",
					"name": "",
					"type": "address"
				}
			],
			"name": "accountToIdFinalized",
			"outputs": [
				{
					"internalType": "uint256",
					"name": "",
					"type": "uint256"
				}
			],
			"stateMutability": "view",
			"type": "function"
		},
		{
			"inputs": [
				{
					"internalType": "address",
					"name": "",
					"type": "address"
				},
				{
					"internalType": "uint256",
					"name": "",
					"type": "uint256"
				}
			],
			"name": "accountToLockIds",
			"outputs": [
				{
					"internalType": "uint256",
					"name": "",
					"type": "uint256"
				}
			],
			"stateMutability": "view",
			"type": "function"
		},
		{
			"inputs": [
				{
					"internalType": "address",
					"name": "",
					"type": "address"
				}
			],
			"name": "accountTocalculatedRewards",
			"outputs": [
				{
					"internalType": "uint256",
					"name": "",
					"type": "uint256"
				}
			],
			"stateMutability": "view",
			"type": "function"
		},
		{
			"inputs": [],
			"name": "claimRewards",
			"outputs": [],
			"stateMutability": "nonpayable",
			"type": "function"
		},
		{
			"inputs": [
				{
					"internalType": "bool",
					"name": "isForever",
					"type": "bool"
				}
			],
			"name": "compoundRewards",
			"outputs": [],
			"stateMutability": "nonpayable",
			"type": "function"
		},
		{
			"inputs": [
				{
					"internalType": "uint256",
					"name": "lockId",
					"type": "uint256"
				},
				{
					"internalType": "uint256",
					"name": "batchSize",
					"type": "uint256"
				}
			],
			"name": "countRewards",
			"outputs": [
				{
					"internalType": "uint256",
					"name": "pendingCurrent",
					"type": "uint256"
				},
				{
					"internalType": "uint256",
					"name": "openingRewardId",
					"type": "uint256"
				},
				{
					"internalType": "uint256",
					"name": "incrementedAmount",
					"type": "uint256"
				}
			],
			"stateMutability": "view",
			"type": "function"
		},
		{
			"inputs": [],
			"name": "currentIdLock",
			"outputs": [
				{
					"internalType": "uint256",
					"name": "",
					"type": "uint256"
				}
			],
			"stateMutability": "view",
			"type": "function"
		},
		{
			"inputs": [],
			"name": "currentIdRewards",
			"outputs": [
				{
					"internalType": "uint256",
					"name": "",
					"type": "uint256"
				}
			],
			"stateMutability": "view",
			"type": "function"
		},
		{
			"inputs": [],
			"name": "decayInterval",
			"outputs": [
				{
					"internalType": "uint256",
					"name": "",
					"type": "uint256"
				}
			],
			"stateMutability": "view",
			"type": "function"
		},
		{
			"inputs": [
				{
					"internalType": "address",
					"name": "account",
					"type": "address"
				}
			],
			"name": "getActiveTimeBaseLock",
			"outputs": [
				{
					"internalType": "uint256",
					"name": "timebaseId",
					"type": "uint256"
				}
			],
			"stateMutability": "view",
			"type": "function"
		},
		{
			"inputs": [
				{
					"internalType": "uint256",
					"name": "lockId",
					"type": "uint256"
				},
				{
					"internalType": "uint256",
					"name": "rewardId",
					"type": "uint256"
				}
			],
			"name": "getIncrementedAmount",
			"outputs": [
				{
					"internalType": "uint256",
					"name": "amount",
					"type": "uint256"
				}
			],
			"stateMutability": "view",
			"type": "function"
		},
		{
			"inputs": [
				{
					"internalType": "uint256",
					"name": "rewardId",
					"type": "uint256"
				},
				{
					"internalType": "string",
					"name": "pool",
					"type": "string"
				}
			],
			"name": "getPoolDataByRewardId",
			"outputs": [
				{
					"internalType": "uint256",
					"name": "",
					"type": "uint256"
				},
				{
					"internalType": "uint256",
					"name": "",
					"type": "uint256"
				},
				{
					"internalType": "uint256",
					"name": "",
					"type": "uint256"
				}
			],
			"stateMutability": "view",
			"type": "function"
		},
		{
			"inputs": [
				{
					"internalType": "address",
					"name": "account",
					"type": "address"
				}
			],
			"name": "getRewardsPending",
			"outputs": [
				{
					"internalType": "uint256",
					"name": "totalReward",
					"type": "uint256"
				}
			],
			"stateMutability": "view",
			"type": "function"
		},
		{
			"inputs": [
				{
					"internalType": "bytes32",
					"name": "role",
					"type": "bytes32"
				}
			],
			"name": "getRoleAdmin",
			"outputs": [
				{
					"internalType": "bytes32",
					"name": "",
					"type": "bytes32"
				}
			],
			"stateMutability": "view",
			"type": "function"
		},
		{
			"inputs": [
				{
					"internalType": "address",
					"name": "account",
					"type": "address"
				}
			],
			"name": "getTotalLocks",
			"outputs": [
				{
					"internalType": "uint256",
					"name": "userLocksTotal",
					"type": "uint256"
				},
				{
					"internalType": "uint256",
					"name": "userRewardEligibleLocks",
					"type": "uint256"
				}
			],
			"stateMutability": "view",
			"type": "function"
		},
		{
			"inputs": [
				{
					"internalType": "uint256",
					"name": "amount",
					"type": "uint256"
				},
				{
					"internalType": "string",
					"name": "pool",
					"type": "string"
				}
			],
			"name": "getveAlvaAmount",
			"outputs": [
				{
					"internalType": "uint256",
					"name": "",
					"type": "uint256"
				}
			],
			"stateMutability": "view",
			"type": "function"
		},
		{
			"inputs": [
				{
					"internalType": "bytes32",
					"name": "role",
					"type": "bytes32"
				},
				{
					"internalType": "address",
					"name": "account",
					"type": "address"
				}
			],
			"name": "grantRole",
			"outputs": [],
			"stateMutability": "nonpayable",
			"type": "function"
		},
		{
			"inputs": [
				{
					"internalType": "bytes32",
					"name": "role",
					"type": "bytes32"
				},
				{
					"internalType": "address",
					"name": "account",
					"type": "address"
				}
			],
			"name": "hasRole",
			"outputs": [
				{
					"internalType": "bool",
					"name": "",
					"type": "bool"
				}
			],
			"stateMutability": "view",
			"type": "function"
		},
		{
			"inputs": [
				{
					"internalType": "uint256",
					"name": "amount",
					"type": "uint256"
				},
				{
					"internalType": "bool",
					"name": "isForever",
					"type": "bool"
				}
			],
			"name": "increaseAmount",
			"outputs": [],
			"stateMutability": "nonpayable",
			"type": "function"
		},
		{
			"inputs": [
				{
					"internalType": "address",
					"name": "_alva",
					"type": "address"
				},
				{
					"internalType": "address",
					"name": "_veAlva",
					"type": "address"
				},
				{
					"internalType": "uint256",
					"name": "_decayInterval",
					"type": "uint256"
				},
				{
					"internalType": "uint256",
					"name": "_startTime",
					"type": "uint256"
				},
				{
					"internalType": "string[]",
					"name": "_pools",
					"type": "string[]"
				},
				{
					"internalType": "uint256[]",
					"name": "rewards",
					"type": "uint256[]"
				},
				{
					"internalType": "uint256[]",
					"name": "veTokenRatio",
					"type": "uint256[]"
				},
				{
					"internalType": "uint256[]",
					"name": "duration",
					"type": "uint256[]"
				},
				{
					"internalType": "uint256[]",
					"name": "rewardPeriods",
					"type": "uint256[]"
				}
			],
			"name": "initialize",
			"outputs": [],
			"stateMutability": "nonpayable",
			"type": "function"
		},
		{
			"inputs": [
				{
					"internalType": "uint256",
					"name": "",
					"type": "uint256"
				}
			],
			"name": "lockIdToLockData",
			"outputs": [
				{
					"internalType": "string",
					"name": "pool",
					"type": "string"
				},
				{
					"internalType": "uint256",
					"name": "amount",
					"type": "uint256"
				},
				{
					"internalType": "bool",
					"name": "isForever",
					"type": "bool"
				},
				{
					"internalType": "bool",
					"name": "isActive",
					"type": "bool"
				},
				{
					"internalType": "uint256",
					"name": "duration",
					"type": "uint256"
				},
				{
					"internalType": "uint256",
					"name": "startTime",
					"type": "uint256"
				},
				{
					"internalType": "uint256",
					"name": "endTime",
					"type": "uint256"
				},
				{
					"internalType": "uint256",
					"name": "votingPower",
					"type": "uint256"
				},
				{
					"internalType": "uint256",
					"name": "rewardsCurrent",
					"type": "uint256"
				},
				{
					"internalType": "uint256",
					"name": "openingRewardId",
					"type": "uint256"
				},
				{
					"internalType": "uint256",
					"name": "closingRewardId",
					"type": "uint256"
				},
				{
					"internalType": "uint256",
					"name": "totalIncremented",
					"type": "uint256"
				}
			],
			"stateMutability": "view",
			"type": "function"
		},
		{
			"inputs": [],
			"name": "minimumRewardAmount",
			"outputs": [
				{
					"internalType": "uint256",
					"name": "",
					"type": "uint256"
				}
			],
			"stateMutability": "view",
			"type": "function"
		},
		{
			"inputs": [],
			"name": "minimumStakingAmount",
			"outputs": [
				{
					"internalType": "uint256",
					"name": "",
					"type": "uint256"
				}
			],
			"stateMutability": "view",
			"type": "function"
		},
		{
			"inputs": [],
			"name": "pause",
			"outputs": [],
			"stateMutability": "nonpayable",
			"type": "function"
		},
		{
			"inputs": [],
			"name": "paused",
			"outputs": [
				{
					"internalType": "bool",
					"name": "",
					"type": "bool"
				}
			],
			"stateMutability": "view",
			"type": "function"
		},
		{
			"inputs": [
				{
					"internalType": "string",
					"name": "",
					"type": "string"
				}
			],
			"name": "poolToPoolData",
			"outputs": [
				{
					"internalType": "bool",
					"name": "status",
					"type": "bool"
				},
				{
					"internalType": "uint256",
					"name": "veAlvaRatio",
					"type": "uint256"
				},
				{
					"internalType": "uint256",
					"name": "poolPercentage",
					"type": "uint256"
				},
				{
					"internalType": "uint256",
					"name": "duration",
					"type": "uint256"
				},
				{
					"internalType": "uint256",
					"name": "amountLocked",
					"type": "uint256"
				},
				{
					"internalType": "uint256",
					"name": "rewardPeriods",
					"type": "uint256"
				}
			],
			"stateMutability": "view",
			"type": "function"
		},
		{
			"inputs": [
				{
					"internalType": "uint256",
					"name": "amount",
					"type": "uint256"
				},
				{
					"internalType": "string",
					"name": "pool",
					"type": "string"
				}
			],
			"name": "renewStaking",
			"outputs": [],
			"stateMutability": "nonpayable",
			"type": "function"
		},
		{
			"inputs": [
				{
					"internalType": "bytes32",
					"name": "role",
					"type": "bytes32"
				},
				{
					"internalType": "address",
					"name": "account",
					"type": "address"
				}
			],
			"name": "renounceRole",
			"outputs": [],
			"stateMutability": "nonpayable",
			"type": "function"
		},
		{
			"inputs": [
				{
					"internalType": "bytes32",
					"name": "role",
					"type": "bytes32"
				},
				{
					"internalType": "address",
					"name": "account",
					"type": "address"
				}
			],
			"name": "revokeRole",
			"outputs": [],
			"stateMutability": "nonpayable",
			"type": "function"
		},
		{
			"inputs": [
				{
					"internalType": "address",
					"name": "",
					"type": "address"
				},
				{
					"internalType": "uint256",
					"name": "",
					"type": "uint256"
				}
			],
			"name": "rewardEligibleLocks",
			"outputs": [
				{
					"internalType": "uint256",
					"name": "",
					"type": "uint256"
				}
			],
			"stateMutability": "view",
			"type": "function"
		},
		{
			"inputs": [
				{
					"internalType": "uint256",
					"name": "",
					"type": "uint256"
				}
			],
			"name": "rewardIdToRewardData",
			"outputs": [
				{
					"internalType": "bool",
					"name": "isProcessed",
					"type": "bool"
				},
				{
					"internalType": "uint256",
					"name": "timestamp",
					"type": "uint256"
				},
				{
					"internalType": "uint256",
					"name": "amount",
					"type": "uint256"
				}
			],
			"stateMutability": "view",
			"type": "function"
		},
		{
			"inputs": [],
			"name": "rewardPeriodCount",
			"outputs": [
				{
					"internalType": "uint256",
					"name": "",
					"type": "uint256"
				}
			],
			"stateMutability": "view",
			"type": "function"
		},
		{
			"inputs": [
				{
					"internalType": "uint256",
					"name": "amount",
					"type": "uint256"
				},
				{
					"internalType": "string",
					"name": "pool",
					"type": "string"
				}
			],
			"name": "stake",
			"outputs": [],
			"stateMutability": "nonpayable",
			"type": "function"
		},
		{
			"inputs": [],
			"name": "startTime",
			"outputs": [
				{
					"internalType": "uint256",
					"name": "",
					"type": "uint256"
				}
			],
			"stateMutability": "view",
			"type": "function"
		},
		{
			"inputs": [
				{
					"internalType": "bytes4",
					"name": "interfaceId",
					"type": "bytes4"
				}
			],
			"name": "supportsInterface",
			"outputs": [
				{
					"internalType": "bool",
					"name": "",
					"type": "bool"
				}
			],
			"stateMutability": "view",
			"type": "function"
		},
		{
			"inputs": [],
			"name": "topUpRewards",
			"outputs": [],
			"stateMutability": "nonpayable",
			"type": "function"
		},
		{
			"inputs": [],
			"name": "unallocatedRewards",
			"outputs": [
				{
					"internalType": "uint256",
					"name": "",
					"type": "uint256"
				}
			],
			"stateMutability": "view",
			"type": "function"
		},
		{
			"inputs": [],
			"name": "unpause",
			"outputs": [],
			"stateMutability": "nonpayable",
			"type": "function"
		},
		{
			"inputs": [],
			"name": "unstake",
			"outputs": [],
			"stateMutability": "nonpayable",
			"type": "function"
		},
		{
			"inputs": [
				{
					"internalType": "uint256",
					"name": "newInterval",
					"type": "uint256"
				}
			],
			"name": "updateDecayInterval",
			"outputs": [],
			"stateMutability": "nonpayable",
			"type": "function"
		},
		{
			"inputs": [
				{
					"internalType": "uint256",
					"name": "amount",
					"type": "uint256"
				}
			],
			"name": "updateMinStakingAmount",
			"outputs": [],
			"stateMutability": "nonpayable",
			"type": "function"
		},
		{
			"inputs": [
				{
					"internalType": "uint256",
					"name": "amount",
					"type": "uint256"
				}
			],
			"name": "updateMinimumRewardAmount",
			"outputs": [],
			"stateMutability": "nonpayable",
			"type": "function"
		},
		{
			"inputs": [
				{
					"internalType": "string",
					"name": "pool",
					"type": "string"
				},
				{
					"internalType": "bool",
					"name": "status",
					"type": "bool"
				}
			],
			"name": "updatePoolStatus",
			"outputs": [],
			"stateMutability": "nonpayable",
			"type": "function"
		},
		{
			"inputs": [
				{
					"internalType": "uint256",
					"name": "amount",
					"type": "uint256"
				}
			],
			"name": "updateWithdrawalPercentage",
			"outputs": [],
			"stateMutability": "nonpayable",
			"type": "function"
		},
		{
			"inputs": [],
			"name": "vaultWithdrawalPercentage",
			"outputs": [
				{
					"internalType": "uint256",
					"name": "",
					"type": "uint256"
				}
			],
			"stateMutability": "view",
			"type": "function"
		},
		{
			"inputs": [],
			"name": "veALVA",
			"outputs": [
				{
					"internalType": "contract IERC20",
					"name": "",
					"type": "address"
				}
			],
			"stateMutability": "view",
			"type": "function"
		},
		{
			"inputs": [
				{
					"internalType": "address",
					"name": "account",
					"type": "address"
				}
			],
			"name": "veAlvaBalance",
			"outputs": [
				{
					"internalType": "uint256",
					"name": "",
					"type": "uint256"
				}
			],
			"stateMutability": "view",
			"type": "function"
		}
	]
}