{
	"data": {
		"bytecode": {
			"linkReferences": {},
			"object": "6080604052348015600e575f5ffd5b506140988061001c5f395ff3fe608060405234801561000f575f5ffd5b506004361061028b575f3560e01c806373dfccca11610161578063c86a0d16116100ca578063e27c8ad511610084578063e27c8ad514610644578063e7e4e1f71461064d578063f327af1814610660578063f9f1678814610673578063ff7ca16f1461067c578063fff9e917146106fd575f5ffd5b8063c86a0d16146105c4578063d3f52d00146105d7578063d547741f146105ea578063dbf76835146105fd578063de2ca1ee1461061c578063df3100d41461063b575f5ffd5b8063abd8a0331161011b578063abd8a03314610571578063b0d2d01114610584578063b397e5721461058d578063b6334aee146105a0578063c38474c0146105a9578063c517841c146105b1575f5ffd5b806373dfccca146104cc578063744f90a7146104ec57806378e97925146104ff57806381a00f831461050857806391d1485414610557578063a217fddf1461056a575f5ffd5b806336568abe116102035780635ab2d62f116101bd5780635ab2d62f146104365780635bae5e54146104495780635c5c0d60146104935780635c975abb146104a65780635d1dccb1146104b1578063720b3ad3146104b9575f5ffd5b806336568abe1461039c578063372500ab146103af57806343cdab57146103b757806345434445146103ca5780634e533572146103f8578063507f130514610423575f5ffd5b80631bd067c5116102545780631bd067c514610313578063248a9ca31461032857806327c1a8121461034a5780632b6fdc7e146103785780632def6620146103815780632f2ff15d14610389575f5ffd5b80620a74be1461028f57806301ffc9a7146102c157806302e4923c146102e45780631254eb93146102f75780631550099114610300575b5f5ffd5b6102ae61029d36600461372e565b60d76020525f908152604090205481565b6040519081526020015b60405180910390f35b6102d46102cf366004613747565b610710565b60405190151581526020016102b8565b6102ae6102f236600461372e565b610746565b6102ae60cc5481565b6102ae61030e36600461372e565b610830565b61032661032136600461376e565b6108f4565b005b6102ae61033636600461376e565b5f9081526097602052604090206001015490565b6102ae610358366004613785565b5f91825260da60209081526040808420928452600b909201905290205490565b6102ae60d35481565b610326610971565b6103266103973660046137a5565b610b91565b6103266103aa3660046137a5565b610bba565b610326610c38565b6103266103c536600461376e565b610cf5565b6103dd6103d8366004613785565b610d82565b604080519384526020840192909252908201526060016102b8565b61040b61040636600461376e565b610ea0565b6040516102b89c9b9a999897969594939291906137fd565b610326610431366004613872565b610f8a565b6102ae61044436600461372e565b61111a565b61047e61045736600461372e565b6001600160a01b03165f90815260d5602090815260408083205460d4909252909120549091565b604080519283526020830191909152016102b8565b6103266104a136600461394f565b61131d565b60335460ff166102d4565b61032661143d565b6103266104c7366004613992565b611975565b6104df6104da36600461376e565b611cd1565b6040516102b891906139d5565b6103dd6104fa366004613992565b611d77565b6102ae60d25481565b61053a61051636600461376e565b60db6020525f908152604090208054600182015460029092015460ff909116919083565b6040805193151584526020840192909252908201526060016102b8565b6102d46105653660046137a5565b611e1a565b6102ae5f81565b61032661057f36600461376e565b611e44565b6102ae60cf5481565b6102ae61059b366004613992565b611eb4565b6102ae60ce5481565b6102ae611ef8565b6102ae6105bf3660046139e7565b611f18565b6103266105d2366004613a0f565b611f43565b6103266105e536600461376e565b6120b9565b6103266105f83660046137a5565b6120d6565b6102ae61060b36600461372e565b60d66020525f908152604090205481565b6102ae61062a36600461372e565b60d86020525f908152604090205481565b6102ae60d15481565b6102ae60d05481565b61032661065b366004613992565b6120fa565b6102ae61066e3660046139e7565b612138565b6102ae60cd5481565b6106ce61068a366004613a2a565b805160208183018101805160d98252928201919093012091528054600182015460028301546003840154600485015460059095015460ff9094169492939192909186565b6040805196151587526020870195909552938501929092526060840152608083015260a082015260c0016102b8565b61032661070b366004613b65565b612151565b5f6001600160e01b03198216637965db0b60e01b148061074057506301ffc9a760e01b6001600160e01b03198316145b92915050565b5f5f61075183610830565b5f81815260da60205260409020600681015460049091015491925090156107f65760ce545f83815260da60205260408120600401549091906107939042613c8a565b61079d9190613c9d565b60ce545f85815260da6020526040812060030154929350916107bf9190613c9d565b9050818111156107ef57806107d48382613c8a565b6107de9085613cbc565b6107e89190613c9d565b92506107f3565b5f92505b50505b6001600160a01b0384165f90815260d86020908152604080832054835260da9091529020600601546108289082613cd3565b949350505050565b6001600160a01b0381165f90815260d4602052604081205480156108ee576001600160a01b0383165f90815260d46020526040812060da9190610874600185613c8a565b8154811061088457610884613ce6565b905f5260205f20015481526020019081526020015f2060020160019054906101000a900460ff16156108ee576001600160a01b0383165f90815260d4602052604090206108d2600183613c8a565b815481106108e2576108e2613ce6565b905f5260205f20015491505b50919050565b5f5160206140435f395f51905f5261090b81612669565b600182101561096b5760405162461bcd60e51b815260206004820152602160248201527f4d696e696d756d20616d6f756e74206d757374206265206174206c65617374206044820152603160f81b60648201526084015b60405180910390fd5b5060cf55565b610979612676565b5f61098333610830565b9050805f036109cb5760405162461bcd60e51b8152602060048201526014602482015273139bc81858dd1a5d99481b1bd8dac8199bdd5b9960621b6044820152606401610962565b5f81815260da60205260409020600501544211610a3a5760405162461bcd60e51b815260206004820152602760248201527f43616e6e6f7420756e7374616b65206265666f726520746865206c6f636b20656044820152666e642074696d6560c81b6064820152608401610962565b60c9545f82815260da60205260409081902060010154905163a9059cbb60e01b815233600482015260248101919091526001600160a01b039091169063a9059cbb906044016020604051808303815f875af1158015610a9b573d5f5f3e3d5ffd5b505050506040513d601f19601f82011682018060405250810190610abf9190613cfa565b5060ca545f82815260da6020526040908190206006015490516306888c6760e11b815233600482015260248101919091526001600160a01b0390911690630d1118ce906044015f604051808303815f87803b158015610b1c575f5ffd5b505af1158015610b2e573d5f5f3e3d5ffd5b5050505f82815260da60205260409081902060028101805461ff001916905560050154905183925033917f92ccf450a286a957af52509bc1c9939d1a6a481783e142e41e2499f0bb66ebc691610b8691815260200190565b60405180910390a350565b5f82815260976020526040902060010154610bab81612669565b610bb583836126be565b505050565b6001600160a01b0381163314610c2a5760405162461bcd60e51b815260206004820152602f60248201527f416363657373436f6e74726f6c3a2063616e206f6e6c792072656e6f756e636560448201526e103937b632b9903337b91039b2b63360891b6064820152608401610962565b610c348282612743565b5050565b610c40612676565b5f610c496127a9565b60c95460405163a9059cbb60e01b8152336004820152602481018390529192506001600160a01b03169063a9059cbb906044016020604051808303815f875af1158015610c98573d5f5f3e3d5ffd5b505050506040513d601f19601f82011682018060405250810190610cbc9190613cfa565b5060405181815233907ffc30cddea38e2bf4d6ea7d3f9ed3b6ad7f176419f4963bd81318067a4aee73fe9060200160405180910390a250565b5f5160206140435f395f51905f52610d0c81612669565b5f82118015610d1e575062093a808211155b610d7c5760405162461bcd60e51b815260206004820152602960248201527f496e74657276616c2073686f756c642062652077697468696e207468652076616044820152686c69642072616e676560b81b6064820152608401610962565b5060ce55565b5f82815260da60205260408120600181015482918291610dd65760405162461bcd60e51b815260206004820152600f60248201526e125b9d985b1a5908131bd8dac81259608a1b6044820152606401610962565b60028101545f9060ff16610dee578160090154610df2565b60cd545b6008830154945090505f610e068786613cd3565b5f868152600b85016020526040902054945090505b8481118015610e2957508482115b15610e96575f85815260db602052604090206001015415610e9657610e4f858986612888565b610e599087613cd3565b5f868152600b8501602052604090205490965015610e84575f858152600b8401602052604090205493505b84610e8e81613d15565b955050610e1b565b5050509250925092565b60da6020525f9081526040902080548190610eba90613d2d565b80601f0160208091040260200160405190810160405280929190818152602001828054610ee690613d2d565b8015610f315780601f10610f0857610100808354040283529160200191610f31565b820191905f5260205f20905b815481529060010190602001808311610f1457829003601f168201915b50505060018401546002850154600386015460048701546005880154600689015460078a015460088b015460098c0154600a909c01549a9b979a60ff8089169b506101009098049097169850949693959294919390928c565b610f92612676565b5f8115610fce5750335f90815260d8602052604081205490819003610fc95760405162461bcd60e51b815260040161096290613d5f565b6110b5565b610fd733610830565b90508015801590610ff757505f81815260da602052604090206005015442105b61103b5760405162461bcd60e51b81526020600482015260156024820152744e6f20416374697665206c6f636b2065786973747360581b6044820152606401610962565b60c9546040516323b872dd60e01b8152336004820152306024820152604481018590526001600160a01b03909116906323b872dd906064016020604051808303815f875af115801561108f573d5f5f3e3d5ffd5b505050506040513d601f19601f820116820180604052508101906110b39190613cfa565b505b6110bf83826129fb565b5f81815260da6020908152604091829020600181015460069091015483519182529181019190915282917f7975828cb9027121837d9d3a5eda3d9bf35a6582d2ec4684b110ae0b553bb4f691015b60405180910390a2505050565b6001600160a01b0381165f90815260d66020526040812054819081905b6001600160a01b0385165f90815260d56020526040902054811015611254576001600160a01b0385165f90815260d560205260408120805461123991908490811061118457611184613ce6565b905f5260205f20015460da5f60d55f8b6001600160a01b03166001600160a01b031681526020019081526020015f2086815481106111c4576111c4613ce6565b905f5260205f20015481526020019081526020015f206008015460da5f60d55f8c6001600160a01b03166001600160a01b031681526020019081526020015f20878154811061121557611215613ce6565b905f5260205f20015481526020019081526020015f20600901546103d89190613c8a565b5050905080846112499190613cd3565b935050600101611137565b6001600160a01b0385165f90815260d86020526040902054158015906112a257506001600160a01b0385165f90815260d86020908152604080832054835260da90915290206008015460cd54115b156112e8576001600160a01b0385165f90815260d8602090815260408083205480845260da9092529091206008015460cd546112e292916103d891613c8a565b50909250505b6001600160a01b0385165f90815260d7602052604090205461130a8385613cd3565b6113149190613cd3565b95945050505050565b5f5160206140435f395f51905f5261133481612669565b60cb545f90815b818110156113c157856040516020016113549190613dc0565b6040516020818303038152906040528051906020012060cb828154811061137d5761137d613ce6565b905f5260205f20016040516020016113959190613dcb565b60405160208183030381529060405280519060200120036113b957600192506113c1565b60010161133b565b50816114055760405162461bcd60e51b8152602060048201526013602482015272141bdbdb08191bd95cc81b9bdd08195e1a5cdd606a1b6044820152606401610962565b8360d9866040516114169190613dc0565b908152604051908190036020019020805491151560ff199092169190911790555050505050565b7f4c716a0ebd1cfd3e93ca0db9b9f8a0a9cb7c1d4cc18b52950e1f5528cc73cb5d61146781612669565b61146f612676565b60d15460c9546040516370a0823160e01b81523360048201525f92629896809290916001600160a01b03909116906370a0823190602401602060405180830381865afa1580156114c1573d5f5f3e3d5ffd5b505050506040513d601f19601f820116820180604052508101906114e59190613e3c565b6114ef9190613cbc565b6114f99190613c9d565b905060d0548110156115605760405162461bcd60e51b815260206004820152602a60248201527f526577617264206d757374206265206174206c6561737420746865206d696e696044820152691b5d5b48185b5bdd5b9d60b21b6064820152608401610962565b60cd5461156b611ef8565b81106115b95760405162461bcd60e51b815260206004820152601a60248201527f43616e6e6f742070726f63657373206265666f72652074696d650000000000006044820152606401610962565b60c9546040516323b872dd60e01b8152336004820152306024820152604481018490526001600160a01b03909116906323b872dd906064016020604051808303815f875af115801561160d573d5f5f3e3d5ffd5b505050506040513d601f19601f820116820180604052508101906116319190613cfa565b5060d35461163f8184613cd3565b5f83815260db60205260408120600201829055909350905060b4611664836001613cd3565b61166e9190613cbc565b60d25461167b9190613cd3565b5f83815260db60205260408120600101919091555b60cb548110156119095760db5f8481526020019081526020015f2060040160cb82815481106116c1576116c1613ce6565b905f5260205f20016040516116d69190613dcb565b90815260200160405180910390205460d960cb83815481106116fa576116fa613ce6565b905f5260205f200160405161170f9190613dcb565b90815260200160405180910390206004015f82825461172e9190613cd3565b909155505080156117d35760db5f8481526020019081526020015f2060050160cb828154811061176057611760613ce6565b905f5260205f20016040516117759190613dcb565b90815260200160405180910390205460d960cb838154811061179957611799613ce6565b905f5260205f20016040516117ae9190613dcb565b90815260200160405180910390206004015f8282546117cd9190613c8a565b90915550505b60d960cb82815481106117e8576117e8613ce6565b905f5260205f20016040516117fd9190613dcb565b90815260200160405180910390206004015460db5f8581526020019081526020015f2060030160cb838154811061183657611836613ce6565b905f5260205f200160405161184b9190613dcb565b90815260200160405180910390208190555060d960cb828154811061187257611872613ce6565b905f5260205f20016040516118879190613dcb565b9081526020016040518091039020600401545f03611901576298968060d960cb83815481106118b8576118b8613ce6565b905f5260205f20016040516118cd9190613dcb565b908152602001604051809103902060020154856118ea9190613cbc565b6118f49190613c9d565b6118fe9083613cd3565b91505b600101611690565b5060d381905560405183815282907f40df43107e8b4d467127964bd3c966687c0a6a39aaede970755397fd09535e989060200160405180910390a25f82815260db60205260408120805460ff1916600117905560cd80549161196a83613d15565b919050555050505050565b61197d612676565b5f61198733610830565b905080158015906119a757505f81815260da602052604090206005015442105b6119ea5760405162461bcd60e51b8152602060048201526014602482015273139bc81858dd1a5d99481b1bd8dac8199bdd5b9960621b6044820152606401610962565b5f81815260da60205260409081902060030154905160d990611a0d908590613dc0565b9081526020016040518091039020600301541015611a855760405162461bcd60e51b815260206004820152602f60248201527f4c6f636b206475726174696f6e2063616e6e6f74206265206c6573732074686160448201526e6e206578697374696e67206c6f636b60881b6064820152608401610962565b5f81815260da602052604081206001810154815490929190611aa690613d2d565b80601f0160208091040260200160405190810160405280929190818152602001828054611ad290613d2d565b8015611b1d5780601f10611af457610100808354040283529160200191611b1d565b820191905f5260205f20905b815481529060010190602001808311611b0057829003601f168201915b5050505f86815260da6020526040812060028101805461ff001916905542600590910155929350611b509150611ef89050565b5f85815260da6020526040902060090154909150811015611c7c575f84815260da6020908152604080832060090154835260db909152908190209051849160050190611b9d908590613dc0565b90815260200160405180910390205f828254611bb99190613c8a565b90915550505f84815260da6020908152604080832060090184905583835260db909152908190209051849160050190611bf3908590613dc0565b90815260200160405180910390205f828254611c0f9190613cd3565b90915550505f84815260da602052604090206009810154600890910154148015611c465750335f90815260d5602052604090205415155b15611c7c57335f90815260d560205260409020805480611c6857611c68613e53565b600190038181905f5260205f20015f905590555b5f84815260da6020526040902060060154611c9c90879085908885612d85565b60cc5460405185907f49b2ada88c09d45d501a352ddd16f0b8baba46034a2b243bfa8e215e2745f233905f90a3505050505050565b60cb8181548110611ce0575f80fd5b905f5260205f20015f915090508054611cf890613d2d565b80601f0160208091040260200160405190810160405280929190818152602001828054611d2490613d2d565b8015611d6f5780601f10611d4657610100808354040283529160200191611d6f565b820191905f5260205f20905b815481529060010190602001808311611d5257829003601f168201915b505050505081565b5f5f5f60db5f8681526020019081526020015f2060030184604051611d9c9190613dc0565b90815260200160405180910390205460db5f8781526020019081526020015f2060040185604051611dcd9190613dc0565b90815260200160405180910390205460db5f8881526020019081526020015f2060050186604051611dfe9190613dc0565b9081526020016040518091039020549250925092509250925092565b5f9182526097602090815260408084206001600160a01b0393909316845291905290205460ff1690565b5f5160206140435f395f51905f52611e5b81612669565b62989680821115611eae5760405162461bcd60e51b815260206004820152601860248201527f496e76616c69642070657263656e746167652076616c756500000000000000006044820152606401610962565b5060d155565b5f6305f5e10060d983604051611eca9190613dc0565b90815260200160405180910390206001015484611ee79190613cbc565b611ef19190613c9d565b9392505050565b5f60b460d25442611f099190613c8a565b611f139190613c9d565b905090565b60d4602052815f5260405f208181548110611f31575f80fd5b905f5260205f20015f91509150505481565b611f4b612676565b5f611f546127a9565b90505f8215611feb5750335f90815260d8602052604081205490819003611f8d5760405162461bcd60e51b815260040161096290613d5f565b60c954604051630852cd8d60e31b8152600481018490526001600160a01b03909116906342966c68906024015f604051808303815f87803b158015611fd0575f5ffd5b505af1158015611fe2573d5f5f3e3d5ffd5b50505050612058565b611ff433610830565b9050801580159061201457505f81815260da602052604090206005015442105b6120585760405162461bcd60e51b81526020600482015260156024820152744e6f20416374697665206c6f636b2065786973747360581b6044820152606401610962565b61206282826129fb565b5f81815260da6020908152604091829020600181015460069091015483519182529181018590529182015281907f4e2cc4951f3eeabdd9e423f93eba5e634644ff5fc64b2e59c2486c23a305dd8e9060600161110d565b5f5160206140435f395f51905f526120d081612669565b5060d055565b5f828152609760205260409020600101546120f081612669565b610bb58383612743565b612102612676565b60cf548210156121245760405162461bcd60e51b815260040161096290613e67565b610c34825f5f84612133611ef8565b612d85565b60d5602052815f5260405f208181548110611f31575f80fd5b5f54610100900460ff161580801561216f57505f54600160ff909116105b806121885750303b15801561218857505f5460ff166001145b6121eb5760405162461bcd60e51b815260206004820152602e60248201527f496e697469616c697a61626c653a20636f6e747261637420697320616c72656160448201526d191e481a5b9a5d1a585b1a5e995960921b6064820152608401610962565b5f805460ff19166001179055801561220c575f805461ff0019166101001790555b6001600160a01b038a166122625760405162461bcd60e51b815260206004820152601a60248201527f496e76616c696420414c564120746f6b656e20616464726573730000000000006044820152606401610962565b6001600160a01b0389166122b85760405162461bcd60e51b815260206004820152601c60248201527f496e76616c6964207665414c564120746f6b656e2061646472657373000000006044820152606401610962565b60c980546001600160a01b03808d166001600160a01b03199283161790925560ca8054928c169290911691909117905560ce88905560d2879055600160cf5561271060d055624c4b4060d15561230e5f336126be565b6123387f65d7a28e3265b37a6474929f336521b332c1681b933f6cb9f3376673440d862a336126be565b61234f5f5160206140435f395f51905f52336126be565b6123797f4c716a0ebd1cfd3e93ca0db9b9f8a0a9cb7c1d4cc18b52950e1f5528cc73cb5d336126be565b825f8151811061238b5761238b613ce6565b60200260200101515f146123d55760405162461bcd60e51b8152602060048201526011602482015270496e76616c6964204475726174696f6e7360781b6044820152606401610962565b85515f906123ea9060cb9060208a019061365d565b505f5b87518110156125d25785818151811061240857612408613ce6565b602002602001015160d989838151811061242457612424613ce6565b60200260200101516040516124399190613dc0565b90815260200160405180910390206001018190555086818151811061246057612460613ce6565b602002602001015160d989838151811061247c5761247c613ce6565b60200260200101516040516124919190613dc0565b9081526020016040518091039020600201819055508481815181106124b8576124b8613ce6565b602002602001015160d98983815181106124d4576124d4613ce6565b60200260200101516040516124e99190613dc0565b908152602001604051809103902060030181905550600160d989838151811061251457612514613ce6565b60200260200101516040516125299190613dc0565b908152604051908190036020019020805491151560ff19909216919091179055835184908290811061255d5761255d613ce6565b602002602001015160d989838151811061257957612579613ce6565b602002602001015160405161258e9190613dc0565b9081526020016040518091039020600501819055508681815181106125b5576125b5613ce6565b6020026020010151826125c89190613cd3565b91506001016123ed565b506298968081146126175760405162461bcd60e51b815260206004820152600f60248201526e496e76616c6964205265776172647360881b6044820152606401610962565b50801561265d575f805461ff0019169055604051600181527f7f26b83ff96e1f2b6a682f133852f6798a09c465da95921460cefb38474024989060200160405180910390a15b50505050505050505050565b61267381336132b2565b50565b60335460ff16156126bc5760405162461bcd60e51b815260206004820152601060248201526f14185d5cd8589b194e881c185d5cd95960821b6044820152606401610962565b565b6126c88282611e1a565b610c34575f8281526097602090815260408083206001600160a01b03851684529091529020805460ff191660011790556126ff3390565b6001600160a01b0316816001600160a01b0316837f2f8788117e7eff1d82e926ec794901d17c78024a50270940304540a733656f0d60405160405180910390a45050565b61274d8282611e1a565b15610c34575f8281526097602090815260408083206001600160a01b0385168085529252808320805460ff1916905551339285917ff6391f5c32d9c69d2a47ea670b442974b53935d1edc7fd64eb21e047a839171b9190a45050565b335f90815260d6602090815260408083205460d5909252822054111561280757335f90815260d56020908152604080832060d690925290912054815461280792919081106127f9576127f9613ce6565b905f5260205f20015461330b565b61280f6133f7565b50335f90815260d76020526040902054806128765760405162461bcd60e51b815260206004820152602160248201527f4e6f207265776172647320617661696c61626c6520666f7220636c61696d696e6044820152606760f81b6064820152608401610962565b335f90815260d7602052604081205590565b5f82815260da6020526040812080548291906128a390613d2d565b80601f01602080910402602001604051908101604052809291908181526020018280546128cf90613d2d565b801561291a5780601f106128f15761010080835404028352916020019161291a565b820191905f5260205f20905b8154815290600101906020018083116128fd57829003601f168201915b5050505f87815260da60205260408120600a01549394509261293f9250869150613c8a565b5f86815260da602052604090206001015461295a9190613c8a565b90506298968060db5f8881526020019081526020015f20600301836040516129829190613dc0565b9081526020016040518091039020548260d9856040516129a29190613dc0565b90815260200160405180910390206002015460db5f8b81526020019081526020015f20600201546129d39190613cbc565b6129dd9190613cbc565b6129e79190613c9d565b6129f19190613c9d565b9695505050505050565b60cf54821015612a1d5760405162461bcd60e51b815260040161096290613e67565b5f81815260da602052604081208054612a3590613d2d565b80601f0160208091040260200160405190810160405280929190818152602001828054612a6190613d2d565b8015612aac5780601f10612a8357610100808354040283529160200191612aac565b820191905f5260205f20905b815481529060010190602001808311612a8f57829003601f168201915b5050505050905060d981604051612ac39190613dc0565b9081526040519081900360200190205460ff16612b225760405162461bcd60e51b815260206004820152601a60248201527f506f6f6c2069732063757272656e746c792064697361626c65640000000000006044820152606401610962565b5f82815260da602052604090206002015460ff1615612b4857612b436133f7565b612b51565b612b518261330b565b5f612b5c8483611eb4565b60ca546040516340c10f1960e01b8152336004820152602481018390529192506001600160a01b0316906340c10f19906044015f604051808303815f87803b158015612ba6575f5ffd5b505af1158015612bb8573d5f5f3e3d5ffd5b5050505f84815260da602052604081206001018054879350909190612bde908490613cd3565b90915550505f83815260da602052604081206006018054839290612c03908490613cd3565b90915550505f83815260da60205260408120600a018054869290612c28908490613cd3565b909155505f9050612c37611ef8565b5f85815260da60205260409020600981015460089091018290559091508181101580612c7357505f85815260da602052604090206002015460ff165b15612d5a578560db5f8481526020019081526020015f2060040185604051612c9b9190613dc0565b90815260200160405180910390205f828254612cb79190613cd3565b90915550505f81815260db6020526040908190209051879160050190612cde908790613dc0565b90815260200160405180910390205f828254612cfa9190613cd3565b90915550505f82815260db602052604090205460ff1615612d5a578560db5f8481526020019081526020015f2060030185604051612d389190613dc0565b90815260200160405180910390205f828254612d549190613cd3565b90915550505b505f93845260da60209081526040808620600a810154938752600b0190915290932092909255505050565b60d982604051612d959190613dc0565b9081526040519081900360200190205460ff16612e075760405162461bcd60e51b815260206004820152602a60248201527f546865205f706f6f6c4e616d65206973206e6f7420617661696c61626c6520666044820152696f72207374616b696e6760b01b6064820152608401610962565b60cc8054905f612e1683613d15565b91905055505f60d983604051612e2c9190613dc0565b90815260200160405180910390206005015482612e499190613cd3565b90505f612e568688613cd3565b90505f612e638286611eb4565b905085811115612ee35760ca546001600160a01b03166340c10f1933612e898985613c8a565b6040516001600160e01b031960e085901b1681526001600160a01b03909216600483015260248201526044015f604051808303815f87803b158015612ecc575f5ffd5b505af1158015612ede573d5f5f3e3d5ffd5b505050505b60d985604051612ef39190613dc0565b9081526020016040518091039020600301545f146130a057612f1433610830565b15612f615760405162461bcd60e51b815260206004820152601c60248201527f54696d6562617365206c6f636b20616c726561647920657869737473000000006044820152606401610962565b335f90815260d46020908152604080832060cc54815460018101835591855292842001919091555160d990612f97908890613dc0565b9081526020016040518091039020600201541115612fd657335f90815260d560209081526040822060cc54815460018101835591845291909220909101555b87156130565760c9546040516323b872dd60e01b8152336004820152306024820152604481018a90526001600160a01b03909116906323b872dd906064016020604051808303815f875af1158015613030573d5f5f3e3d5ffd5b505050506040513d601f19601f820116820180604052508101906130549190613cfa565b505b8160db5f8581526020019081526020015f20600501866040516130799190613dc0565b90815260200160405180910390205f8282546130959190613cd3565b9091555061312a9050565b335f90815260d86020526040902054156130fc5760405162461bcd60e51b815260206004820152601b60248201527f466f7265766572206c6f636b20616c72656164792065786973747300000000006044820152606401610962565b60cc54335f90815260d86020908152604080832084905592825260da905220600201805460ff191660011790555b60cc545f90815260da602052604090206131448682613ef6565b5060cc545f90815260da6020526040908190206001018390555160d99061316c908790613dc0565b90815260408051918290036020908101832060039081015460cc80545f90815260da90945284842090920155548152204260049091015560d9906131b1908790613dc0565b908152602001604051809103902060030154426131ce9190613cd3565b60cc80545f90815260da60209081526040808320600501949094558254825283822060060185905582548252838220600201805461ff001916610100179055825482528382206008018890559154815282812060090186905586815260db9091528190209051839160040190613245908890613dc0565b90815260200160405180910390205f8282546132619190613cd3565b909155505060cc546040513391907f0e11027f9e3d7aa31b5d23503be35faede305799d8c9ab6c5b06fe0f28589906906132a09086908a908790613fb0565b60405180910390a35050505050505050565b6132bc8282611e1a565b610c34576132c9816134b6565b6132d48360206134c8565b6040516020016132e5929190613fd8565b60408051601f198184030181529082905262461bcd60e51b8252610962916004016139d5565b801580159061332f57505f81815260da602052604090206009810154600890910154105b15612673575f5f61334183600a610d82565b5f86815260da602052604081206008810193909355600790920180549395509093508492909190613373908490613cd3565b9091555050335f90815260d7602052604081208054849290613396908490613cd3565b90915550505f83815260da602081815260408084206008810180548652600b8201845291852086905593879052919052600990910154905403610bb557335f90815260d6602052604081208054916133ed83613d15565b9190505550505050565b335f90815260d860205260409020548015801590613426575060cd545f82815260da6020526040902060080154105b15612673575f5f61343883600a610d82565b5f86815260da60205260408120600881019390935560079092018054939550909350849290919061346a908490613cd3565b9091555050335f90815260d760205260408120805484929061348d908490613cd3565b90915550505f83815260da6020908152604080832060088101548452600b019091529020555050565b60606107406001600160a01b03831660145b60605f6134d6836002613cbc565b6134e1906002613cd3565b6001600160401b038111156134f8576134f86138a0565b6040519080825280601f01601f191660200182016040528015613522576020820181803683370190505b509050600360fc1b815f8151811061353c5761353c613ce6565b60200101906001600160f81b03191690815f1a905350600f60fb1b8160018151811061356a5761356a613ce6565b60200101906001600160f81b03191690815f1a9053505f61358c846002613cbc565b613597906001613cd3565b90505b600181111561360e576f181899199a1a9b1b9c1cb0b131b232b360811b85600f16601081106135cb576135cb613ce6565b1a60f81b8282815181106135e1576135e1613ce6565b60200101906001600160f81b03191690815f1a90535060049490941c936136078161402d565b905061359a565b508315611ef15760405162461bcd60e51b815260206004820181905260248201527f537472696e67733a20686578206c656e67746820696e73756666696369656e746044820152606401610962565b828054828255905f5260205f209081019282156136a1579160200282015b828111156136a157825182906136919082613ef6565b509160200191906001019061367b565b506136ad9291506136b1565b5090565b808211156136ad575f6136c482826136cd565b506001016136b1565b5080546136d990613d2d565b5f825580601f106136e8575050565b601f0160209004905f5260205f209081019061267391905b808211156136ad575f8155600101613700565b80356001600160a01b0381168114613729575f5ffd5b919050565b5f6020828403121561373e575f5ffd5b611ef182613713565b5f60208284031215613757575f5ffd5b81356001600160e01b031981168114611ef1575f5ffd5b5f6020828403121561377e575f5ffd5b5035919050565b5f5f60408385031215613796575f5ffd5b50508035926020909101359150565b5f5f604083850312156137b6575f5ffd5b823591506137c660208401613713565b90509250929050565b5f81518084528060208401602086015e5f602082860101526020601f19601f83011685010191505092915050565b61018081525f61381161018083018f6137cf565b602083019d909d525099151560408b015297151560608a0152608089019690965260a088019490945260c087019290925260e086015261010085015261012084015261014083015261016090910152919050565b8015158114612673575f5ffd5b5f5f60408385031215613883575f5ffd5b82359150602083013561389581613865565b809150509250929050565b634e487b7160e01b5f52604160045260245ffd5b604051601f8201601f191681016001600160401b03811182821017156138dc576138dc6138a0565b604052919050565b5f82601f8301126138f3575f5ffd5b81356001600160401b0381111561390c5761390c6138a0565b61391f601f8201601f19166020016138b4565b818152846020838601011115613933575f5ffd5b816020850160208301375f918101602001919091529392505050565b5f5f60408385031215613960575f5ffd5b82356001600160401b03811115613975575f5ffd5b613981858286016138e4565b925050602083013561389581613865565b5f5f604083850312156139a3575f5ffd5b8235915060208301356001600160401b038111156139bf575f5ffd5b6139cb858286016138e4565b9150509250929050565b602081525f611ef160208301846137cf565b5f5f604083850312156139f8575f5ffd5b613a0183613713565b946020939093013593505050565b5f60208284031215613a1f575f5ffd5b8135611ef181613865565b5f60208284031215613a3a575f5ffd5b81356001600160401b03811115613a4f575f5ffd5b610828848285016138e4565b5f6001600160401b03821115613a7357613a736138a0565b5060051b60200190565b5f82601f830112613a8c575f5ffd5b8135613a9f613a9a82613a5b565b6138b4565b8082825260208201915060208360051b860101925085831115613ac0575f5ffd5b602085015b83811015613b005780356001600160401b03811115613ae2575f5ffd5b613af1886020838a01016138e4565b84525060209283019201613ac5565b5095945050505050565b5f82601f830112613b19575f5ffd5b8135613b27613a9a82613a5b565b8082825260208201915060208360051b860101925085831115613b48575f5ffd5b602085015b83811015613b00578035835260209283019201613b4d565b5f5f5f5f5f5f5f5f5f6101208a8c031215613b7e575f5ffd5b613b878a613713565b9850613b9560208b01613713565b975060408a0135965060608a0135955060808a01356001600160401b03811115613bbd575f5ffd5b613bc98c828d01613a7d565b95505060a08a01356001600160401b03811115613be4575f5ffd5b613bf08c828d01613b0a565b94505060c08a01356001600160401b03811115613c0b575f5ffd5b613c178c828d01613b0a565b93505060e08a01356001600160401b03811115613c32575f5ffd5b613c3e8c828d01613b0a565b9250506101008a01356001600160401b03811115613c5a575f5ffd5b613c668c828d01613b0a565b9150509295985092959850929598565b634e487b7160e01b5f52601160045260245ffd5b8181038181111561074057610740613c76565b5f82613cb757634e487b7160e01b5f52601260045260245ffd5b500490565b808202811582820484141761074057610740613c76565b8082018082111561074057610740613c76565b634e487b7160e01b5f52603260045260245ffd5b5f60208284031215613d0a575f5ffd5b8151611ef181613865565b5f60018201613d2657613d26613c76565b5060010190565b600181811c90821680613d4157607f821691505b6020821081036108ee57634e487b7160e01b5f52602260045260245ffd5b6020808252602a908201527f4e6f2061637469766520666f7265766572206c6f636b2065786973747320666f60408201526939103a3432903ab9b2b960b11b606082015260800190565b5f81518060208401855e5f93019283525090919050565b5f611ef18284613da9565b5f5f8354613dd881613d2d565b600182168015613def5760018114613e0457613e31565b60ff1983168652811515820286019350613e31565b865f5260205f205f5b83811015613e2957815488820152600190910190602001613e0d565b505081860193505b509195945050505050565b5f60208284031215613e4c575f5ffd5b5051919050565b634e487b7160e01b5f52603160045260245ffd5b60208082526024908201527f416d6f756e742069732062656c6f7720746865206d696e696d756d20726571756040820152631a5c995960e21b606082015260800190565b601f821115610bb557805f5260205f20601f840160051c81016020851015613ed05750805b601f840160051c820191505b81811015613eef575f8155600101613edc565b5050505050565b81516001600160401b03811115613f0f57613f0f6138a0565b613f2381613f1d8454613d2d565b84613eab565b6020601f821160018114613f55575f8315613f3e5750848201515b5f19600385901b1c1916600184901b178455613eef565b5f84815260208120601f198516915b82811015613f845787850151825560209485019460019092019101613f64565b5084821015613fa157868401515f19600387901b60f8161c191681555b50505050600190811b01905550565b838152606060208201525f613fc860608301856137cf565b9050826040830152949350505050565b7f416363657373436f6e74726f6c3a206163636f756e742000000000000000000081525f6140096017830185613da9565b7001034b99036b4b9b9b4b733903937b6329607d1b81526113146011820185613da9565b5f8161403b5761403b613c76565b505f19019056fea49807205ce4d355092ef5a8a18f56e8913cf4a201fbe287825b095693c21775a2646970667358221220a9fdb2cdbe66544e4d427d372b27f8c6cb512950e0c7ceb303228972972f792864736f6c634300081c0033",
			"opcodes": "PUSH1 0x80 PUSH1 0x40 MSTORE CALLVALUE DUP1 ISZERO PUSH1 0xE JUMPI PUSH0 PUSH0 REVERT JUMPDEST POP PUSH2 0x4098 DUP1 PUSH2 0x1C PUSH0 CODECOPY PUSH0 RETURN INVALID PUSH1 0x80 PUSH1 0x40 MSTORE CALLVALUE DUP1 ISZERO PUSH2 0xF JUMPI PUSH0 PUSH0 REVERT JUMPDEST POP PUSH1 0x4 CALLDATASIZE LT PUSH2 0x28B JUMPI PUSH0 CALLDATALOAD PUSH1 0xE0 SHR DUP1 PUSH4 0x73DFCCCA GT PUSH2 0x161 JUMPI DUP1 PUSH4 0xC86A0D16 GT PUSH2 0xCA JUMPI DUP1 PUSH4 0xE27C8AD5 GT PUSH2 0x84 JUMPI DUP1 PUSH4 0xE27C8AD5 EQ PUSH2 0x644 JUMPI DUP1 PUSH4 0xE7E4E1F7 EQ PUSH2 0x64D JUMPI DUP1 PUSH4 0xF327AF18 EQ PUSH2 0x660 JUMPI DUP1 PUSH4 0xF9F16788 EQ PUSH2 0x673 JUMPI DUP1 PUSH4 0xFF7CA16F EQ PUSH2 0x67C JUMPI DUP1 PUSH4 0xFFF9E917 EQ PUSH2 0x6FD JUMPI PUSH0 PUSH0 REVERT JUMPDEST DUP1 PUSH4 0xC86A0D16 EQ PUSH2 0x5C4 JUMPI DUP1 PUSH4 0xD3F52D00 EQ PUSH2 0x5D7 JUMPI DUP1 PUSH4 0xD547741F EQ PUSH2 0x5EA JUMPI DUP1 PUSH4 0xDBF76835 EQ PUSH2 0x5FD JUMPI DUP1 PUSH4 0xDE2CA1EE EQ PUSH2 0x61C JUMPI DUP1 PUSH4 0xDF3100D4 EQ PUSH2 0x63B JUMPI PUSH0 PUSH0 REVERT JUMPDEST DUP1 PUSH4 0xABD8A033 GT PUSH2 0x11B JUMPI DUP1 PUSH4 0xABD8A033 EQ PUSH2 0x571 JUMPI DUP1 PUSH4 0xB0D2D011 EQ PUSH2 0x584 JUMPI DUP1 PUSH4 0xB397E572 EQ PUSH2 0x58D JUMPI DUP1 PUSH4 0xB6334AEE EQ PUSH2 0x5A0 JUMPI DUP1 PUSH4 0xC38474C0 EQ PUSH2 0x5A9 JUMPI DUP1 PUSH4 0xC517841C EQ PUSH2 0x5B1 JUMPI PUSH0 PUSH0 REVERT JUMPDEST DUP1 PUSH4 0x73DFCCCA EQ PUSH2 0x4CC JUMPI DUP1 PUSH4 0x744F90A7 EQ PUSH2 0x4EC JUMPI DUP1 PUSH4 0x78E97925 EQ PUSH2 0x4FF JUMPI DUP1 PUSH4 0x81A00F83 EQ PUSH2 0x508 JUMPI DUP1 PUSH4 0x91D14854 EQ PUSH2 0x557 JUMPI DUP1 PUSH4 0xA217FDDF EQ PUSH2 0x56A JUMPI PUSH0 PUSH0 REVERT JUMPDEST DUP1 PUSH4 0x36568ABE GT PUSH2 0x203 JUMPI DUP1 PUSH4 0x5AB2D62F GT PUSH2 0x1BD JUMPI DUP1 PUSH4 0x5AB2D62F EQ PUSH2 0x436 JUMPI DUP1 PUSH4 0x5BAE5E54 EQ PUSH2 0x449 JUMPI DUP1 PUSH4 0x5C5C0D60 EQ PUSH2 0x493 JUMPI DUP1 PUSH4 0x5C975ABB EQ PUSH2 0x4A6 JUMPI DUP1 PUSH4 0x5D1DCCB1 EQ PUSH2 0x4B1 JUMPI DUP1 PUSH4 0x720B3AD3 EQ PUSH2 0x4B9 JUMPI PUSH0 PUSH0 REVERT JUMPDEST DUP1 PUSH4 0x36568ABE EQ PUSH2 0x39C JUMPI DUP1 PUSH4 0x372500AB EQ PUSH2 0x3AF JUMPI DUP1 PUSH4 0x43CDAB57 EQ PUSH2 0x3B7 JUMPI DUP1 PUSH4 0x45434445 EQ PUSH2 0x3CA JUMPI DUP1 PUSH4 0x4E533572 EQ PUSH2 0x3F8 JUMPI DUP1 PUSH4 0x507F1305 EQ PUSH2 0x423 JUMPI PUSH0 PUSH0 REVERT JUMPDEST DUP1 PUSH4 0x1BD067C5 GT PUSH2 0x254 JUMPI DUP1 PUSH4 0x1BD067C5 EQ PUSH2 0x313 JUMPI DUP1 PUSH4 0x248A9CA3 EQ PUSH2 0x328 JUMPI DUP1 PUSH4 0x27C1A812 EQ PUSH2 0x34A JUMPI DUP1 PUSH4 0x2B6FDC7E EQ PUSH2 0x378 JUMPI DUP1 PUSH4 0x2DEF6620 EQ PUSH2 0x381 JUMPI DUP1 PUSH4 0x2F2FF15D EQ PUSH2 0x389 JUMPI PUSH0 PUSH0 REVERT JUMPDEST DUP1 PUSH3 0xA74BE EQ PUSH2 0x28F JUMPI DUP1 PUSH4 0x1FFC9A7 EQ PUSH2 0x2C1 JUMPI DUP1 PUSH4 0x2E4923C EQ PUSH2 0x2E4 JUMPI DUP1 PUSH4 0x1254EB93 EQ PUSH2 0x2F7 JUMPI DUP1 PUSH4 0x15500991 EQ PUSH2 0x300 JUMPI JUMPDEST PUSH0 PUSH0 REVERT JUMPDEST PUSH2 0x2AE PUSH2 0x29D CALLDATASIZE PUSH1 0x4 PUSH2 0x372E JUMP JUMPDEST PUSH1 0xD7 PUSH1 0x20 MSTORE PUSH0 SWAP1 DUP2 MSTORE PUSH1 0x40 SWAP1 KECCAK256 SLOAD DUP2 JUMP JUMPDEST PUSH1 0x40 MLOAD SWAP1 DUP2 MSTORE PUSH1 0x20 ADD JUMPDEST PUSH1 0x40 MLOAD DUP1 SWAP2 SUB SWAP1 RETURN JUMPDEST PUSH2 0x2D4 PUSH2 0x2CF CALLDATASIZE PUSH1 0x4 PUSH2 0x3747 JUMP JUMPDEST PUSH2 0x710 JUMP JUMPDEST PUSH1 0x40 MLOAD SWAP1 ISZERO ISZERO DUP2 MSTORE PUSH1 0x20 ADD PUSH2 0x2B8 JUMP JUMPDEST PUSH2 0x2AE PUSH2 0x2F2 CALLDATASIZE PUSH1 0x4 PUSH2 0x372E JUMP JUMPDEST PUSH2 0x746 JUMP JUMPDEST PUSH2 0x2AE PUSH1 0xCC SLOAD DUP2 JUMP JUMPDEST PUSH2 0x2AE PUSH2 0x30E CALLDATASIZE PUSH1 0x4 PUSH2 0x372E JUMP JUMPDEST PUSH2 0x830 JUMP JUMPDEST PUSH2 0x326 PUSH2 0x321 CALLDATASIZE PUSH1 0x4 PUSH2 0x376E JUMP JUMPDEST PUSH2 0x8F4 JUMP JUMPDEST STOP JUMPDEST PUSH2 0x2AE PUSH2 0x336 CALLDATASIZE PUSH1 0x4 PUSH2 0x376E JUMP JUMPDEST PUSH0 SWAP1 DUP2 MSTORE PUSH1 0x97 PUSH1 0x20 MSTORE PUSH1 0x40 SWAP1 KECCAK256 PUSH1 0x1 ADD SLOAD SWAP1 JUMP JUMPDEST PUSH2 0x2AE PUSH2 0x358 CALLDATASIZE PUSH1 0x4 PUSH2 0x3785 JUMP JUMPDEST PUSH0 SWAP2 DUP3 MSTORE PUSH1 0xDA PUSH1 0x20 SWAP1 DUP2 MSTORE PUSH1 0x40 DUP1 DUP5 KECCAK256 SWAP3 DUP5 MSTORE PUSH1 0xB SWAP1 SWAP3 ADD SWAP1 MSTORE SWAP1 KECCAK256 SLOAD SWAP1 JUMP JUMPDEST PUSH2 0x2AE PUSH1 0xD3 SLOAD DUP2 JUMP JUMPDEST PUSH2 0x326 PUSH2 0x971 JUMP JUMPDEST PUSH2 0x326 PUSH2 0x397 CALLDATASIZE PUSH1 0x4 PUSH2 0x37A5 JUMP JUMPDEST PUSH2 0xB91 JUMP JUMPDEST PUSH2 0x326 PUSH2 0x3AA CALLDATASIZE PUSH1 0x4 PUSH2 0x37A5 JUMP JUMPDEST PUSH2 0xBBA JUMP JUMPDEST PUSH2 0x326 PUSH2 0xC38 JUMP JUMPDEST PUSH2 0x326 PUSH2 0x3C5 CALLDATASIZE PUSH1 0x4 PUSH2 0x376E JUMP JUMPDEST PUSH2 0xCF5 JUMP JUMPDEST PUSH2 0x3DD PUSH2 0x3D8 CALLDATASIZE PUSH1 0x4 PUSH2 0x3785 JUMP JUMPDEST PUSH2 0xD82 JUMP JUMPDEST PUSH1 0x40 DUP1 MLOAD SWAP4 DUP5 MSTORE PUSH1 0x20 DUP5 ADD SWAP3 SWAP1 SWAP3 MSTORE SWAP1 DUP3 ADD MSTORE PUSH1 0x60 ADD PUSH2 0x2B8 JUMP JUMPDEST PUSH2 0x40B PUSH2 0x406 CALLDATASIZE PUSH1 0x4 PUSH2 0x376E JUMP JUMPDEST PUSH2 0xEA0 JUMP JUMPDEST PUSH1 0x40 MLOAD PUSH2 0x2B8 SWAP13 SWAP12 SWAP11 SWAP10 SWAP9 SWAP8 SWAP7 SWAP6 SWAP5 SWAP4 SWAP3 SWAP2 SWAP1 PUSH2 0x37FD JUMP JUMPDEST PUSH2 0x326 PUSH2 0x431 CALLDATASIZE PUSH1 0x4 PUSH2 0x3872 JUMP JUMPDEST PUSH2 0xF8A JUMP JUMPDEST PUSH2 0x2AE PUSH2 0x444 CALLDATASIZE PUSH1 0x4 PUSH2 0x372E JUMP JUMPDEST PUSH2 0x111A JUMP JUMPDEST PUSH2 0x47E PUSH2 0x457 CALLDATASIZE PUSH1 0x4 PUSH2 0x372E JUMP JUMPDEST PUSH1 0x1 PUSH1 0x1 PUSH1 0xA0 SHL SUB AND PUSH0 SWAP1 DUP2 MSTORE PUSH1 0xD5 PUSH1 0x20 SWAP1 DUP2 MSTORE PUSH1 0x40 DUP1 DUP4 KECCAK256 SLOAD PUSH1 0xD4 SWAP1 SWAP3 MSTORE SWAP1 SWAP2 KECCAK256 SLOAD SWAP1 SWAP2 JUMP JUMPDEST PUSH1 0x40 DUP1 MLOAD SWAP3 DUP4 MSTORE PUSH1 0x20 DUP4 ADD SWAP2 SWAP1 SWAP2 MSTORE ADD PUSH2 0x2B8 JUMP JUMPDEST PUSH2 0x326 PUSH2 0x4A1 CALLDATASIZE PUSH1 0x4 PUSH2 0x394F JUMP JUMPDEST PUSH2 0x131D JUMP JUMPDEST PUSH1 0x33 SLOAD PUSH1 0xFF AND PUSH2 0x2D4 JUMP JUMPDEST PUSH2 0x326 PUSH2 0x143D JUMP JUMPDEST PUSH2 0x326 PUSH2 0x4C7 CALLDATASIZE PUSH1 0x4 PUSH2 0x3992 JUMP JUMPDEST PUSH2 0x1975 JUMP JUMPDEST PUSH2 0x4DF PUSH2 0x4DA CALLDATASIZE PUSH1 0x4 PUSH2 0x376E JUMP JUMPDEST PUSH2 0x1CD1 JUMP JUMPDEST PUSH1 0x40 MLOAD PUSH2 0x2B8 SWAP2 SWAP1 PUSH2 0x39D5 JUMP JUMPDEST PUSH2 0x3DD PUSH2 0x4FA CALLDATASIZE PUSH1 0x4 PUSH2 0x3992 JUMP JUMPDEST PUSH2 0x1D77 JUMP JUMPDEST PUSH2 0x2AE PUSH1 0xD2 SLOAD DUP2 JUMP JUMPDEST PUSH2 0x53A PUSH2 0x516 CALLDATASIZE PUSH1 0x4 PUSH2 0x376E JUMP JUMPDEST PUSH1 0xDB PUSH1 0x20 MSTORE PUSH0 SWAP1 DUP2 MSTORE PUSH1 0x40 SWAP1 KECCAK256 DUP1 SLOAD PUSH1 0x1 DUP3 ADD SLOAD PUSH1 0x2 SWAP1 SWAP3 ADD SLOAD PUSH1 0xFF SWAP1 SWAP2 AND SWAP2 SWAP1 DUP4 JUMP JUMPDEST PUSH1 0x40 DUP1 MLOAD SWAP4 ISZERO ISZERO DUP5 MSTORE PUSH1 0x20 DUP5 ADD SWAP3 SWAP1 SWAP3 MSTORE SWAP1 DUP3 ADD MSTORE PUSH1 0x60 ADD PUSH2 0x2B8 JUMP JUMPDEST PUSH2 0x2D4 PUSH2 0x565 CALLDATASIZE PUSH1 0x4 PUSH2 0x37A5 JUMP JUMPDEST PUSH2 0x1E1A JUMP JUMPDEST PUSH2 0x2AE PUSH0 DUP2 JUMP JUMPDEST PUSH2 0x326 PUSH2 0x57F CALLDATASIZE PUSH1 0x4 PUSH2 0x376E JUMP JUMPDEST PUSH2 0x1E44 JUMP JUMPDEST PUSH2 0x2AE PUSH1 0xCF SLOAD DUP2 JUMP JUMPDEST PUSH2 0x2AE PUSH2 0x59B CALLDATASIZE PUSH1 0x4 PUSH2 0x3992 JUMP JUMPDEST PUSH2 0x1EB4 JUMP JUMPDEST PUSH2 0x2AE PUSH1 0xCE SLOAD DUP2 JUMP JUMPDEST PUSH2 0x2AE PUSH2 0x1EF8 JUMP JUMPDEST PUSH2 0x2AE PUSH2 0x5BF CALLDATASIZE PUSH1 0x4 PUSH2 0x39E7 JUMP JUMPDEST PUSH2 0x1F18 JUMP JUMPDEST PUSH2 0x326 PUSH2 0x5D2 CALLDATASIZE PUSH1 0x4 PUSH2 0x3A0F JUMP JUMPDEST PUSH2 0x1F43 JUMP JUMPDEST PUSH2 0x326 PUSH2 0x5E5 CALLDATASIZE PUSH1 0x4 PUSH2 0x376E JUMP JUMPDEST PUSH2 0x20B9 JUMP JUMPDEST PUSH2 0x326 PUSH2 0x5F8 CALLDATASIZE PUSH1 0x4 PUSH2 0x37A5 JUMP JUMPDEST PUSH2 0x20D6 JUMP JUMPDEST PUSH2 0x2AE PUSH2 0x60B CALLDATASIZE PUSH1 0x4 PUSH2 0x372E JUMP JUMPDEST PUSH1 0xD6 PUSH1 0x20 MSTORE PUSH0 SWAP1 DUP2 MSTORE PUSH1 0x40 SWAP1 KECCAK256 SLOAD DUP2 JUMP JUMPDEST PUSH2 0x2AE PUSH2 0x62A CALLDATASIZE PUSH1 0x4 PUSH2 0x372E JUMP JUMPDEST PUSH1 0xD8 PUSH1 0x20 MSTORE PUSH0 SWAP1 DUP2 MSTORE PUSH1 0x40 SWAP1 KECCAK256 SLOAD DUP2 JUMP JUMPDEST PUSH2 0x2AE PUSH1 0xD1 SLOAD DUP2 JUMP JUMPDEST PUSH2 0x2AE PUSH1 0xD0 SLOAD DUP2 JUMP JUMPDEST PUSH2 0x326 PUSH2 0x65B CALLDATASIZE PUSH1 0x4 PUSH2 0x3992 JUMP JUMPDEST PUSH2 0x20FA JUMP JUMPDEST PUSH2 0x2AE PUSH2 0x66E CALLDATASIZE PUSH1 0x4 PUSH2 0x39E7 JUMP JUMPDEST PUSH2 0x2138 JUMP JUMPDEST PUSH2 0x2AE PUSH1 0xCD SLOAD DUP2 JUMP JUMPDEST PUSH2 0x6CE PUSH2 0x68A CALLDATASIZE PUSH1 0x4 PUSH2 0x3A2A JUMP JUMPDEST DUP1 MLOAD PUSH1 0x20 DUP2 DUP4 ADD DUP2 ADD DUP1 MLOAD PUSH1 0xD9 DUP3 MSTORE SWAP3 DUP3 ADD SWAP2 SWAP1 SWAP4 ADD KECCAK256 SWAP2 MSTORE DUP1 SLOAD PUSH1 0x1 DUP3 ADD SLOAD PUSH1 0x2 DUP4 ADD SLOAD PUSH1 0x3 DUP5 ADD SLOAD PUSH1 0x4 DUP6 ADD SLOAD PUSH1 0x5 SWAP1 SWAP6 ADD SLOAD PUSH1 0xFF SWAP1 SWAP5 AND SWAP5 SWAP3 SWAP4 SWAP2 SWAP3 SWAP1 SWAP2 DUP7 JUMP JUMPDEST PUSH1 0x40 DUP1 MLOAD SWAP7 ISZERO ISZERO DUP8 MSTORE PUSH1 0x20 DUP8 ADD SWAP6 SWAP1 SWAP6 MSTORE SWAP4 DUP6 ADD SWAP3 SWAP1 SWAP3 MSTORE PUSH1 0x60 DUP5 ADD MSTORE PUSH1 0x80 DUP4 ADD MSTORE PUSH1 0xA0 DUP3 ADD MSTORE PUSH1 0xC0 ADD PUSH2 0x2B8 JUMP JUMPDEST PUSH2 0x326 PUSH2 0x70B CALLDATASIZE PUSH1 0x4 PUSH2 0x3B65 JUMP JUMPDEST PUSH2 0x2151 JUMP JUMPDEST PUSH0 PUSH1 0x1 PUSH1 0x1 PUSH1 0xE0 SHL SUB NOT DUP3 AND PUSH4 0x7965DB0B PUSH1 0xE0 SHL EQ DUP1 PUSH2 0x740 JUMPI POP PUSH4 0x1FFC9A7 PUSH1 0xE0 SHL PUSH1 0x1 PUSH1 0x1 PUSH1 0xE0 SHL SUB NOT DUP4 AND EQ JUMPDEST SWAP3 SWAP2 POP POP JUMP JUMPDEST PUSH0 PUSH0 PUSH2 0x751 DUP4 PUSH2 0x830 JUMP JUMPDEST PUSH0 DUP2 DUP2 MSTORE PUSH1 0xDA PUSH1 0x20 MSTORE PUSH1 0x40 SWAP1 KECCAK256 PUSH1 0x6 DUP2 ADD SLOAD PUSH1 0x4 SWAP1 SWAP2 ADD SLOAD SWAP2 SWAP3 POP SWAP1 ISZERO PUSH2 0x7F6 JUMPI PUSH1 0xCE SLOAD PUSH0 DUP4 DUP2 MSTORE PUSH1 0xDA PUSH1 0x20 MSTORE PUSH1 0x40 DUP2 KECCAK256 PUSH1 0x4 ADD SLOAD SWAP1 SWAP2 SWAP1 PUSH2 0x793 SWAP1 TIMESTAMP PUSH2 0x3C8A JUMP JUMPDEST PUSH2 0x79D SWAP2 SWAP1 PUSH2 0x3C9D JUMP JUMPDEST PUSH1 0xCE SLOAD PUSH0 DUP6 DUP2 MSTORE PUSH1 0xDA PUSH1 0x20 MSTORE PUSH1 0x40 DUP2 KECCAK256 PUSH1 0x3 ADD SLOAD SWAP3 SWAP4 POP SWAP2 PUSH2 0x7BF SWAP2 SWAP1 PUSH2 0x3C9D JUMP JUMPDEST SWAP1 POP DUP2 DUP2 GT ISZERO PUSH2 0x7EF JUMPI DUP1 PUSH2 0x7D4 DUP4 DUP3 PUSH2 0x3C8A JUMP JUMPDEST PUSH2 0x7DE SWAP1 DUP6 PUSH2 0x3CBC JUMP JUMPDEST PUSH2 0x7E8 SWAP2 SWAP1 PUSH2 0x3C9D JUMP JUMPDEST SWAP3 POP PUSH2 0x7F3 JUMP JUMPDEST PUSH0 SWAP3 POP JUMPDEST POP POP JUMPDEST PUSH1 0x1 PUSH1 0x1 PUSH1 0xA0 SHL SUB DUP5 AND PUSH0 SWAP1 DUP2 MSTORE PUSH1 0xD8 PUSH1 0x20 SWAP1 DUP2 MSTORE PUSH1 0x40 DUP1 DUP4 KECCAK256 SLOAD DUP4 MSTORE PUSH1 0xDA SWAP1 SWAP2 MSTORE SWAP1 KECCAK256 PUSH1 0x6 ADD SLOAD PUSH2 0x828 SWAP1 DUP3 PUSH2 0x3CD3 JUMP JUMPDEST SWAP5 SWAP4 POP POP POP POP JUMP JUMPDEST PUSH1 0x1 PUSH1 0x1 PUSH1 0xA0 SHL SUB DUP2 AND PUSH0 SWAP1 DUP2 MSTORE PUSH1 0xD4 PUSH1 0x20 MSTORE PUSH1 0x40 DUP2 KECCAK256 SLOAD DUP1 ISZERO PUSH2 0x8EE JUMPI PUSH1 0x1 PUSH1 0x1 PUSH1 0xA0 SHL SUB DUP4 AND PUSH0 SWAP1 DUP2 MSTORE PUSH1 0xD4 PUSH1 0x20 MSTORE PUSH1 0x40 DUP2 KECCAK256 PUSH1 0xDA SWAP2 SWAP1 PUSH2 0x874 PUSH1 0x1 DUP6 PUSH2 0x3C8A JUMP JUMPDEST DUP2 SLOAD DUP2 LT PUSH2 0x884 JUMPI PUSH2 0x884 PUSH2 0x3CE6 JUMP JUMPDEST SWAP1 PUSH0 MSTORE PUSH1 0x20 PUSH0 KECCAK256 ADD SLOAD DUP2 MSTORE PUSH1 0x20 ADD SWAP1 DUP2 MSTORE PUSH1 0x20 ADD PUSH0 KECCAK256 PUSH1 0x2 ADD PUSH1 0x1 SWAP1 SLOAD SWAP1 PUSH2 0x100 EXP SWAP1 DIV PUSH1 0xFF AND ISZERO PUSH2 0x8EE JUMPI PUSH1 0x1 PUSH1 0x1 PUSH1 0xA0 SHL SUB DUP4 AND PUSH0 SWAP1 DUP2 MSTORE PUSH1 0xD4 PUSH1 0x20 MSTORE PUSH1 0x40 SWAP1 KECCAK256 PUSH2 0x8D2 PUSH1 0x1 DUP4 PUSH2 0x3C8A JUMP JUMPDEST DUP2 SLOAD DUP2 LT PUSH2 0x8E2 JUMPI PUSH2 0x8E2 PUSH2 0x3CE6 JUMP JUMPDEST SWAP1 PUSH0 MSTORE PUSH1 0x20 PUSH0 KECCAK256 ADD SLOAD SWAP2 POP JUMPDEST POP SWAP2 SWAP1 POP JUMP JUMPDEST PUSH0 MLOAD PUSH1 0x20 PUSH2 0x4043 PUSH0 CODECOPY PUSH0 MLOAD SWAP1 PUSH0 MSTORE PUSH2 0x90B DUP2 PUSH2 0x2669 JUMP JUMPDEST PUSH1 0x1 DUP3 LT ISZERO PUSH2 0x96B JUMPI PUSH1 0x40 MLOAD PUSH3 0x461BCD PUSH1 0xE5 SHL DUP2 MSTORE PUSH1 0x20 PUSH1 0x4 DUP3 ADD MSTORE PUSH1 0x21 PUSH1 0x24 DUP3 ADD MSTORE PUSH32 0x4D696E696D756D20616D6F756E74206D757374206265206174206C6561737420 PUSH1 0x44 DUP3 ADD MSTORE PUSH1 0x31 PUSH1 0xF8 SHL PUSH1 0x64 DUP3 ADD MSTORE PUSH1 0x84 ADD JUMPDEST PUSH1 0x40 MLOAD DUP1 SWAP2 SUB SWAP1 REVERT JUMPDEST POP PUSH1 0xCF SSTORE JUMP JUMPDEST PUSH2 0x979 PUSH2 0x2676 JUMP JUMPDEST PUSH0 PUSH2 0x983 CALLER PUSH2 0x830 JUMP JUMPDEST SWAP1 POP DUP1 PUSH0 SUB PUSH2 0x9CB JUMPI PUSH1 0x40 MLOAD PUSH3 0x461BCD PUSH1 0xE5 SHL DUP2 MSTORE PUSH1 0x20 PUSH1 0x4 DUP3 ADD MSTORE PUSH1 0x14 PUSH1 0x24 DUP3 ADD MSTORE PUSH20 0x139BC81858DD1A5D99481B1BD8DAC8199BDD5B99 PUSH1 0x62 SHL PUSH1 0x44 DUP3 ADD MSTORE PUSH1 0x64 ADD PUSH2 0x962 JUMP JUMPDEST PUSH0 DUP2 DUP2 MSTORE PUSH1 0xDA PUSH1 0x20 MSTORE PUSH1 0x40 SWAP1 KECCAK256 PUSH1 0x5 ADD SLOAD TIMESTAMP GT PUSH2 0xA3A JUMPI PUSH1 0x40 MLOAD PUSH3 0x461BCD PUSH1 0xE5 SHL DUP2 MSTORE PUSH1 0x20 PUSH1 0x4 DUP3 ADD MSTORE PUSH1 0x27 PUSH1 0x24 DUP3 ADD MSTORE PUSH32 0x43616E6E6F7420756E7374616B65206265666F726520746865206C6F636B2065 PUSH1 0x44 DUP3 ADD MSTORE PUSH7 0x6E642074696D65 PUSH1 0xC8 SHL PUSH1 0x64 DUP3 ADD MSTORE PUSH1 0x84 ADD PUSH2 0x962 JUMP JUMPDEST PUSH1 0xC9 SLOAD PUSH0 DUP3 DUP2 MSTORE PUSH1 0xDA PUSH1 0x20 MSTORE PUSH1 0x40 SWAP1 DUP2 SWAP1 KECCAK256 PUSH1 0x1 ADD SLOAD SWAP1 MLOAD PUSH4 0xA9059CBB PUSH1 0xE0 SHL DUP2 MSTORE CALLER PUSH1 0x4 DUP3 ADD MSTORE PUSH1 0x24 DUP2 ADD SWAP2 SWAP1 SWAP2 MSTORE PUSH1 0x1 PUSH1 0x1 PUSH1 0xA0 SHL SUB SWAP1 SWAP2 AND SWAP1 PUSH4 0xA9059CBB SWAP1 PUSH1 0x44 ADD PUSH1 0x20 PUSH1 0x40 MLOAD DUP1 DUP4 SUB DUP2 PUSH0 DUP8 GAS CALL ISZERO DUP1 ISZERO PUSH2 0xA9B JUMPI RETURNDATASIZE PUSH0 PUSH0 RETURNDATACOPY RETURNDATASIZE PUSH0 REVERT JUMPDEST POP POP POP POP PUSH1 0x40 MLOAD RETURNDATASIZE PUSH1 0x1F NOT PUSH1 0x1F DUP3 ADD AND DUP3 ADD DUP1 PUSH1 0x40 MSTORE POP DUP2 ADD SWAP1 PUSH2 0xABF SWAP2 SWAP1 PUSH2 0x3CFA JUMP JUMPDEST POP PUSH1 0xCA SLOAD PUSH0 DUP3 DUP2 MSTORE PUSH1 0xDA PUSH1 0x20 MSTORE PUSH1 0x40 SWAP1 DUP2 SWAP1 KECCAK256 PUSH1 0x6 ADD SLOAD SWAP1 MLOAD PUSH4 0x6888C67 PUSH1 0xE1 SHL DUP2 MSTORE CALLER PUSH1 0x4 DUP3 ADD MSTORE PUSH1 0x24 DUP2 ADD SWAP2 SWAP1 SWAP2 MSTORE PUSH1 0x1 PUSH1 0x1 PUSH1 0xA0 SHL SUB SWAP1 SWAP2 AND SWAP1 PUSH4 0xD1118CE SWAP1 PUSH1 0x44 ADD PUSH0 PUSH1 0x40 MLOAD DUP1 DUP4 SUB DUP2 PUSH0 DUP8 DUP1 EXTCODESIZE ISZERO DUP1 ISZERO PUSH2 0xB1C JUMPI PUSH0 PUSH0 REVERT JUMPDEST POP GAS CALL ISZERO DUP1 ISZERO PUSH2 0xB2E JUMPI RETURNDATASIZE PUSH0 PUSH0 RETURNDATACOPY RETURNDATASIZE PUSH0 REVERT JUMPDEST POP POP POP PUSH0 DUP3 DUP2 MSTORE PUSH1 0xDA PUSH1 0x20 MSTORE PUSH1 0x40 SWAP1 DUP2 SWAP1 KECCAK256 PUSH1 0x2 DUP2 ADD DUP1 SLOAD PUSH2 0xFF00 NOT AND SWAP1 SSTORE PUSH1 0x5 ADD SLOAD SWAP1 MLOAD DUP4 SWAP3 POP CALLER SWAP2 PUSH32 0x92CCF450A286A957AF52509BC1C9939D1A6A481783E142E41E2499F0BB66EBC6 SWAP2 PUSH2 0xB86 SWAP2 DUP2 MSTORE PUSH1 0x20 ADD SWAP1 JUMP JUMPDEST PUSH1 0x40 MLOAD DUP1 SWAP2 SUB SWAP1 LOG3 POP JUMP JUMPDEST PUSH0 DUP3 DUP2 MSTORE PUSH1 0x97 PUSH1 0x20 MSTORE PUSH1 0x40 SWAP1 KECCAK256 PUSH1 0x1 ADD SLOAD PUSH2 0xBAB DUP2 PUSH2 0x2669 JUMP JUMPDEST PUSH2 0xBB5 DUP4 DUP4 PUSH2 0x26BE JUMP JUMPDEST POP POP POP JUMP JUMPDEST PUSH1 0x1 PUSH1 0x1 PUSH1 0xA0 SHL SUB DUP2 AND CALLER EQ PUSH2 0xC2A JUMPI PUSH1 0x40 MLOAD PUSH3 0x461BCD PUSH1 0xE5 SHL DUP2 MSTORE PUSH1 0x20 PUSH1 0x4 DUP3 ADD MSTORE PUSH1 0x2F PUSH1 0x24 DUP3 ADD MSTORE PUSH32 0x416363657373436F6E74726F6C3A2063616E206F6E6C792072656E6F756E6365 PUSH1 0x44 DUP3 ADD MSTORE PUSH15 0x103937B632B9903337B91039B2B633 PUSH1 0x89 SHL PUSH1 0x64 DUP3 ADD MSTORE PUSH1 0x84 ADD PUSH2 0x962 JUMP JUMPDEST PUSH2 0xC34 DUP3 DUP3 PUSH2 0x2743 JUMP JUMPDEST POP POP JUMP JUMPDEST PUSH2 0xC40 PUSH2 0x2676 JUMP JUMPDEST PUSH0 PUSH2 0xC49 PUSH2 0x27A9 JUMP JUMPDEST PUSH1 0xC9 SLOAD PUSH1 0x40 MLOAD PUSH4 0xA9059CBB PUSH1 0xE0 SHL DUP2 MSTORE CALLER PUSH1 0x4 DUP3 ADD MSTORE PUSH1 0x24 DUP2 ADD DUP4 SWAP1 MSTORE SWAP2 SWAP3 POP PUSH1 0x1 PUSH1 0x1 PUSH1 0xA0 SHL SUB AND SWAP1 PUSH4 0xA9059CBB SWAP1 PUSH1 0x44 ADD PUSH1 0x20 PUSH1 0x40 MLOAD DUP1 DUP4 SUB DUP2 PUSH0 DUP8 GAS CALL ISZERO DUP1 ISZERO PUSH2 0xC98 JUMPI RETURNDATASIZE PUSH0 PUSH0 RETURNDATACOPY RETURNDATASIZE PUSH0 REVERT JUMPDEST POP POP POP POP PUSH1 0x40 MLOAD RETURNDATASIZE PUSH1 0x1F NOT PUSH1 0x1F DUP3 ADD AND DUP3 ADD DUP1 PUSH1 0x40 MSTORE POP DUP2 ADD SWAP1 PUSH2 0xCBC SWAP2 SWAP1 PUSH2 0x3CFA JUMP JUMPDEST POP PUSH1 0x40 MLOAD DUP2 DUP2 MSTORE CALLER SWAP1 PUSH32 0xFC30CDDEA38E2BF4D6EA7D3F9ED3B6AD7F176419F4963BD81318067A4AEE73FE SWAP1 PUSH1 0x20 ADD PUSH1 0x40 MLOAD DUP1 SWAP2 SUB SWAP1 LOG2 POP JUMP JUMPDEST PUSH0 MLOAD PUSH1 0x20 PUSH2 0x4043 PUSH0 CODECOPY PUSH0 MLOAD SWAP1 PUSH0 MSTORE PUSH2 0xD0C DUP2 PUSH2 0x2669 JUMP JUMPDEST PUSH0 DUP3 GT DUP1 ISZERO PUSH2 0xD1E JUMPI POP PUSH3 0x93A80 DUP3 GT ISZERO JUMPDEST PUSH2 0xD7C JUMPI PUSH1 0x40 MLOAD PUSH3 0x461BCD PUSH1 0xE5 SHL DUP2 MSTORE PUSH1 0x20 PUSH1 0x4 DUP3 ADD MSTORE PUSH1 0x29 PUSH1 0x24 DUP3 ADD MSTORE PUSH32 0x496E74657276616C2073686F756C642062652077697468696E20746865207661 PUSH1 0x44 DUP3 ADD MSTORE PUSH9 0x6C69642072616E6765 PUSH1 0xB8 SHL PUSH1 0x64 DUP3 ADD MSTORE PUSH1 0x84 ADD PUSH2 0x962 JUMP JUMPDEST POP PUSH1 0xCE SSTORE JUMP JUMPDEST PUSH0 DUP3 DUP2 MSTORE PUSH1 0xDA PUSH1 0x20 MSTORE PUSH1 0x40 DUP2 KECCAK256 PUSH1 0x1 DUP2 ADD SLOAD DUP3 SWAP2 DUP3 SWAP2 PUSH2 0xDD6 JUMPI PUSH1 0x40 MLOAD PUSH3 0x461BCD PUSH1 0xE5 SHL DUP2 MSTORE PUSH1 0x20 PUSH1 0x4 DUP3 ADD MSTORE PUSH1 0xF PUSH1 0x24 DUP3 ADD MSTORE PUSH15 0x125B9D985B1A5908131BD8DAC81259 PUSH1 0x8A SHL PUSH1 0x44 DUP3 ADD MSTORE PUSH1 0x64 ADD PUSH2 0x962 JUMP JUMPDEST PUSH1 0x2 DUP2 ADD SLOAD PUSH0 SWAP1 PUSH1 0xFF AND PUSH2 0xDEE JUMPI DUP2 PUSH1 0x9 ADD SLOAD PUSH2 0xDF2 JUMP JUMPDEST PUSH1 0xCD SLOAD JUMPDEST PUSH1 0x8 DUP4 ADD SLOAD SWAP5 POP SWAP1 POP PUSH0 PUSH2 0xE06 DUP8 DUP7 PUSH2 0x3CD3 JUMP JUMPDEST PUSH0 DUP7 DUP2 MSTORE PUSH1 0xB DUP6 ADD PUSH1 0x20 MSTORE PUSH1 0x40 SWAP1 KECCAK256 SLOAD SWAP5 POP SWAP1 POP JUMPDEST DUP5 DUP2 GT DUP1 ISZERO PUSH2 0xE29 JUMPI POP DUP5 DUP3 GT JUMPDEST ISZERO PUSH2 0xE96 JUMPI PUSH0 DUP6 DUP2 MSTORE PUSH1 0xDB PUSH1 0x20 MSTORE PUSH1 0x40 SWAP1 KECCAK256 PUSH1 0x1 ADD SLOAD ISZERO PUSH2 0xE96 JUMPI PUSH2 0xE4F DUP6 DUP10 DUP7 PUSH2 0x2888 JUMP JUMPDEST PUSH2 0xE59 SWAP1 DUP8 PUSH2 0x3CD3 JUMP JUMPDEST PUSH0 DUP7 DUP2 MSTORE PUSH1 0xB DUP6 ADD PUSH1 0x20 MSTORE PUSH1 0x40 SWAP1 KECCAK256 SLOAD SWAP1 SWAP7 POP ISZERO PUSH2 0xE84 JUMPI PUSH0 DUP6 DUP2 MSTORE PUSH1 0xB DUP5 ADD PUSH1 0x20 MSTORE PUSH1 0x40 SWAP1 KECCAK256 SLOAD SWAP4 POP JUMPDEST DUP5 PUSH2 0xE8E DUP2 PUSH2 0x3D15 JUMP JUMPDEST SWAP6 POP POP PUSH2 0xE1B JUMP JUMPDEST POP POP POP SWAP3 POP SWAP3 POP SWAP3 JUMP JUMPDEST PUSH1 0xDA PUSH1 0x20 MSTORE PUSH0 SWAP1 DUP2 MSTORE PUSH1 0x40 SWAP1 KECCAK256 DUP1 SLOAD DUP2 SWAP1 PUSH2 0xEBA SWAP1 PUSH2 0x3D2D JUMP JUMPDEST DUP1 PUSH1 0x1F ADD PUSH1 0x20 DUP1 SWAP2 DIV MUL PUSH1 0x20 ADD PUSH1 0x40 MLOAD SWAP1 DUP2 ADD PUSH1 0x40 MSTORE DUP1 SWAP3 SWAP2 SWAP1 DUP2 DUP2 MSTORE PUSH1 0x20 ADD DUP3 DUP1 SLOAD PUSH2 0xEE6 SWAP1 PUSH2 0x3D2D JUMP JUMPDEST DUP1 ISZERO PUSH2 0xF31 JUMPI DUP1 PUSH1 0x1F LT PUSH2 0xF08 JUMPI PUSH2 0x100 DUP1 DUP4 SLOAD DIV MUL DUP4 MSTORE SWAP2 PUSH1 0x20 ADD SWAP2 PUSH2 0xF31 JUMP JUMPDEST DUP3 ADD SWAP2 SWAP1 PUSH0 MSTORE PUSH1 0x20 PUSH0 KECCAK256 SWAP1 JUMPDEST DUP2 SLOAD DUP2 MSTORE SWAP1 PUSH1 0x1 ADD SWAP1 PUSH1 0x20 ADD DUP1 DUP4 GT PUSH2 0xF14 JUMPI DUP3 SWAP1 SUB PUSH1 0x1F AND DUP3 ADD SWAP2 JUMPDEST POP POP POP PUSH1 0x1 DUP5 ADD SLOAD PUSH1 0x2 DUP6 ADD SLOAD PUSH1 0x3 DUP7 ADD SLOAD PUSH1 0x4 DUP8 ADD SLOAD PUSH1 0x5 DUP9 ADD SLOAD PUSH1 0x6 DUP10 ADD SLOAD PUSH1 0x7 DUP11 ADD SLOAD PUSH1 0x8 DUP12 ADD SLOAD PUSH1 0x9 DUP13 ADD SLOAD PUSH1 0xA SWAP1 SWAP13 ADD SLOAD SWAP11 SWAP12 SWAP8 SWAP11 PUSH1 0xFF DUP1 DUP10 AND SWAP12 POP PUSH2 0x100 SWAP1 SWAP9 DIV SWAP1 SWAP8 AND SWAP9 POP SWAP5 SWAP7 SWAP4 SWAP6 SWAP3 SWAP5 SWAP2 SWAP4 SWAP1 SWAP3 DUP13 JUMP JUMPDEST PUSH2 0xF92 PUSH2 0x2676 JUMP JUMPDEST PUSH0 DUP2 ISZERO PUSH2 0xFCE JUMPI POP CALLER PUSH0 SWAP1 DUP2 MSTORE PUSH1 0xD8 PUSH1 0x20 MSTORE PUSH1 0x40 DUP2 KECCAK256 SLOAD SWAP1 DUP2 SWAP1 SUB PUSH2 0xFC9 JUMPI PUSH1 0x40 MLOAD PUSH3 0x461BCD PUSH1 0xE5 SHL DUP2 MSTORE PUSH1 0x4 ADD PUSH2 0x962 SWAP1 PUSH2 0x3D5F JUMP JUMPDEST PUSH2 0x10B5 JUMP JUMPDEST PUSH2 0xFD7 CALLER PUSH2 0x830 JUMP JUMPDEST SWAP1 POP DUP1 ISZERO DUP1 ISZERO SWAP1 PUSH2 0xFF7 JUMPI POP PUSH0 DUP2 DUP2 MSTORE PUSH1 0xDA PUSH1 0x20 MSTORE PUSH1 0x40 SWAP1 KECCAK256 PUSH1 0x5 ADD SLOAD TIMESTAMP LT JUMPDEST PUSH2 0x103B JUMPI PUSH1 0x40 MLOAD PUSH3 0x461BCD PUSH1 0xE5 SHL DUP2 MSTORE PUSH1 0x20 PUSH1 0x4 DUP3 ADD MSTORE PUSH1 0x15 PUSH1 0x24 DUP3 ADD MSTORE PUSH21 0x4E6F20416374697665206C6F636B20657869737473 PUSH1 0x58 SHL PUSH1 0x44 DUP3 ADD MSTORE PUSH1 0x64 ADD PUSH2 0x962 JUMP JUMPDEST PUSH1 0xC9 SLOAD PUSH1 0x40 MLOAD PUSH4 0x23B872DD PUSH1 0xE0 SHL DUP2 MSTORE CALLER PUSH1 0x4 DUP3 ADD MSTORE ADDRESS PUSH1 0x24 DUP3 ADD MSTORE PUSH1 0x44 DUP2 ADD DUP6 SWAP1 MSTORE PUSH1 0x1 PUSH1 0x1 PUSH1 0xA0 SHL SUB SWAP1 SWAP2 AND SWAP1 PUSH4 0x23B872DD SWAP1 PUSH1 0x64 ADD PUSH1 0x20 PUSH1 0x40 MLOAD DUP1 DUP4 SUB DUP2 PUSH0 DUP8 GAS CALL ISZERO DUP1 ISZERO PUSH2 0x108F JUMPI RETURNDATASIZE PUSH0 PUSH0 RETURNDATACOPY RETURNDATASIZE PUSH0 REVERT JUMPDEST POP POP POP POP PUSH1 0x40 MLOAD RETURNDATASIZE PUSH1 0x1F NOT PUSH1 0x1F DUP3 ADD AND DUP3 ADD DUP1 PUSH1 0x40 MSTORE POP DUP2 ADD SWAP1 PUSH2 0x10B3 SWAP2 SWAP1 PUSH2 0x3CFA JUMP JUMPDEST POP JUMPDEST PUSH2 0x10BF DUP4 DUP3 PUSH2 0x29FB JUMP JUMPDEST PUSH0 DUP2 DUP2 MSTORE PUSH1 0xDA PUSH1 0x20 SWAP1 DUP2 MSTORE PUSH1 0x40 SWAP2 DUP3 SWAP1 KECCAK256 PUSH1 0x1 DUP2 ADD SLOAD PUSH1 0x6 SWAP1 SWAP2 ADD SLOAD DUP4 MLOAD SWAP2 DUP3 MSTORE SWAP2 DUP2 ADD SWAP2 SWAP1 SWAP2 MSTORE DUP3 SWAP2 PUSH32 0x7975828CB9027121837D9D3A5EDA3D9BF35A6582D2EC4684B110AE0B553BB4F6 SWAP2 ADD JUMPDEST PUSH1 0x40 MLOAD DUP1 SWAP2 SUB SWAP1 LOG2 POP POP POP JUMP JUMPDEST PUSH1 0x1 PUSH1 0x1 PUSH1 0xA0 SHL SUB DUP2 AND PUSH0 SWAP1 DUP2 MSTORE PUSH1 0xD6 PUSH1 0x20 MSTORE PUSH1 0x40 DUP2 KECCAK256 SLOAD DUP2 SWAP1 DUP2 SWAP1 JUMPDEST PUSH1 0x1 PUSH1 0x1 PUSH1 0xA0 SHL SUB DUP6 AND PUSH0 SWAP1 DUP2 MSTORE PUSH1 0xD5 PUSH1 0x20 MSTORE PUSH1 0x40 SWAP1 KECCAK256 SLOAD DUP2 LT ISZERO PUSH2 0x1254 JUMPI PUSH1 0x1 PUSH1 0x1 PUSH1 0xA0 SHL SUB DUP6 AND PUSH0 SWAP1 DUP2 MSTORE PUSH1 0xD5 PUSH1 0x20 MSTORE PUSH1 0x40 DUP2 KECCAK256 DUP1 SLOAD PUSH2 0x1239 SWAP2 SWAP1 DUP5 SWAP1 DUP2 LT PUSH2 0x1184 JUMPI PUSH2 0x1184 PUSH2 0x3CE6 JUMP JUMPDEST SWAP1 PUSH0 MSTORE PUSH1 0x20 PUSH0 KECCAK256 ADD SLOAD PUSH1 0xDA PUSH0 PUSH1 0xD5 PUSH0 DUP12 PUSH1 0x1 PUSH1 0x1 PUSH1 0xA0 SHL SUB AND PUSH1 0x1 PUSH1 0x1 PUSH1 0xA0 SHL SUB AND DUP2 MSTORE PUSH1 0x20 ADD SWAP1 DUP2 MSTORE PUSH1 0x20 ADD PUSH0 KECCAK256 DUP7 DUP2 SLOAD DUP2 LT PUSH2 0x11C4 JUMPI PUSH2 0x11C4 PUSH2 0x3CE6 JUMP JUMPDEST SWAP1 PUSH0 MSTORE PUSH1 0x20 PUSH0 KECCAK256 ADD SLOAD DUP2 MSTORE PUSH1 0x20 ADD SWAP1 DUP2 MSTORE PUSH1 0x20 ADD PUSH0 KECCAK256 PUSH1 0x8 ADD SLOAD PUSH1 0xDA PUSH0 PUSH1 0xD5 PUSH0 DUP13 PUSH1 0x1 PUSH1 0x1 PUSH1 0xA0 SHL SUB AND PUSH1 0x1 PUSH1 0x1 PUSH1 0xA0 SHL SUB AND DUP2 MSTORE PUSH1 0x20 ADD SWAP1 DUP2 MSTORE PUSH1 0x20 ADD PUSH0 KECCAK256 DUP8 DUP2 SLOAD DUP2 LT PUSH2 0x1215 JUMPI PUSH2 0x1215 PUSH2 0x3CE6 JUMP JUMPDEST SWAP1 PUSH0 MSTORE PUSH1 0x20 PUSH0 KECCAK256 ADD SLOAD DUP2 MSTORE PUSH1 0x20 ADD SWAP1 DUP2 MSTORE PUSH1 0x20 ADD PUSH0 KECCAK256 PUSH1 0x9 ADD SLOAD PUSH2 0x3D8 SWAP2 SWAP1 PUSH2 0x3C8A JUMP JUMPDEST POP POP SWAP1 POP DUP1 DUP5 PUSH2 0x1249 SWAP2 SWAP1 PUSH2 0x3CD3 JUMP JUMPDEST SWAP4 POP POP PUSH1 0x1 ADD PUSH2 0x1137 JUMP JUMPDEST PUSH1 0x1 PUSH1 0x1 PUSH1 0xA0 SHL SUB DUP6 AND PUSH0 SWAP1 DUP2 MSTORE PUSH1 0xD8 PUSH1 0x20 MSTORE PUSH1 0x40 SWAP1 KECCAK256 SLOAD ISZERO DUP1 ISZERO SWAP1 PUSH2 0x12A2 JUMPI POP PUSH1 0x1 PUSH1 0x1 PUSH1 0xA0 SHL SUB DUP6 AND PUSH0 SWAP1 DUP2 MSTORE PUSH1 0xD8 PUSH1 0x20 SWAP1 DUP2 MSTORE PUSH1 0x40 DUP1 DUP4 KECCAK256 SLOAD DUP4 MSTORE PUSH1 0xDA SWAP1 SWAP2 MSTORE SWAP1 KECCAK256 PUSH1 0x8 ADD SLOAD PUSH1 0xCD SLOAD GT JUMPDEST ISZERO PUSH2 0x12E8 JUMPI PUSH1 0x1 PUSH1 0x1 PUSH1 0xA0 SHL SUB DUP6 AND PUSH0 SWAP1 DUP2 MSTORE PUSH1 0xD8 PUSH1 0x20 SWAP1 DUP2 MSTORE PUSH1 0x40 DUP1 DUP4 KECCAK256 SLOAD DUP1 DUP5 MSTORE PUSH1 0xDA SWAP1 SWAP3 MSTORE SWAP1 SWAP2 KECCAK256 PUSH1 0x8 ADD SLOAD PUSH1 0xCD SLOAD PUSH2 0x12E2 SWAP3 SWAP2 PUSH2 0x3D8 SWAP2 PUSH2 0x3C8A JUMP JUMPDEST POP SWAP1 SWAP3 POP POP JUMPDEST PUSH1 0x1 PUSH1 0x1 PUSH1 0xA0 SHL SUB DUP6 AND PUSH0 SWAP1 DUP2 MSTORE PUSH1 0xD7 PUSH1 0x20 MSTORE PUSH1 0x40 SWAP1 KECCAK256 SLOAD PUSH2 0x130A DUP4 DUP6 PUSH2 0x3CD3 JUMP JUMPDEST PUSH2 0x1314 SWAP2 SWAP1 PUSH2 0x3CD3 JUMP JUMPDEST SWAP6 SWAP5 POP POP POP POP POP JUMP JUMPDEST PUSH0 MLOAD PUSH1 0x20 PUSH2 0x4043 PUSH0 CODECOPY PUSH0 MLOAD SWAP1 PUSH0 MSTORE PUSH2 0x1334 DUP2 PUSH2 0x2669 JUMP JUMPDEST PUSH1 0xCB SLOAD PUSH0 SWAP1 DUP2 JUMPDEST DUP2 DUP2 LT ISZERO PUSH2 0x13C1 JUMPI DUP6 PUSH1 0x40 MLOAD PUSH1 0x20 ADD PUSH2 0x1354 SWAP2 SWAP1 PUSH2 0x3DC0 JUMP JUMPDEST PUSH1 0x40 MLOAD PUSH1 0x20 DUP2 DUP4 SUB SUB DUP2 MSTORE SWAP1 PUSH1 0x40 MSTORE DUP1 MLOAD SWAP1 PUSH1 0x20 ADD KECCAK256 PUSH1 0xCB DUP3 DUP2 SLOAD DUP2 LT PUSH2 0x137D JUMPI PUSH2 0x137D PUSH2 0x3CE6 JUMP JUMPDEST SWAP1 PUSH0 MSTORE PUSH1 0x20 PUSH0 KECCAK256 ADD PUSH1 0x40 MLOAD PUSH1 0x20 ADD PUSH2 0x1395 SWAP2 SWAP1 PUSH2 0x3DCB JUMP JUMPDEST PUSH1 0x40 MLOAD PUSH1 0x20 DUP2 DUP4 SUB SUB DUP2 MSTORE SWAP1 PUSH1 0x40 MSTORE DUP1 MLOAD SWAP1 PUSH1 0x20 ADD KECCAK256 SUB PUSH2 0x13B9 JUMPI PUSH1 0x1 SWAP3 POP PUSH2 0x13C1 JUMP JUMPDEST PUSH1 0x1 ADD PUSH2 0x133B JUMP JUMPDEST POP DUP2 PUSH2 0x1405 JUMPI PUSH1 0x40 MLOAD PUSH3 0x461BCD PUSH1 0xE5 SHL DUP2 MSTORE PUSH1 0x20 PUSH1 0x4 DUP3 ADD MSTORE PUSH1 0x13 PUSH1 0x24 DUP3 ADD MSTORE PUSH19 0x141BDBDB08191BD95CC81B9BDD08195E1A5CDD PUSH1 0x6A SHL PUSH1 0x44 DUP3 ADD MSTORE PUSH1 0x64 ADD PUSH2 0x962 JUMP JUMPDEST DUP4 PUSH1 0xD9 DUP7 PUSH1 0x40 MLOAD PUSH2 0x1416 SWAP2 SWAP1 PUSH2 0x3DC0 JUMP JUMPDEST SWAP1 DUP2 MSTORE PUSH1 0x40 MLOAD SWAP1 DUP2 SWAP1 SUB PUSH1 0x20 ADD SWAP1 KECCAK256 DUP1 SLOAD SWAP2 ISZERO ISZERO PUSH1 0xFF NOT SWAP1 SWAP3 AND SWAP2 SWAP1 SWAP2 OR SWAP1 SSTORE POP POP POP POP POP JUMP JUMPDEST PUSH32 0x4C716A0EBD1CFD3E93CA0DB9B9F8A0A9CB7C1D4CC18B52950E1F5528CC73CB5D PUSH2 0x1467 DUP2 PUSH2 0x2669 JUMP JUMPDEST PUSH2 0x146F PUSH2 0x2676 JUMP JUMPDEST PUSH1 0xD1 SLOAD PUSH1 0xC9 SLOAD PUSH1 0x40 MLOAD PUSH4 0x70A08231 PUSH1 0xE0 SHL DUP2 MSTORE CALLER PUSH1 0x4 DUP3 ADD MSTORE PUSH0 SWAP3 PUSH3 0x989680 SWAP3 SWAP1 SWAP2 PUSH1 0x1 PUSH1 0x1 PUSH1 0xA0 SHL SUB SWAP1 SWAP2 AND SWAP1 PUSH4 0x70A08231 SWAP1 PUSH1 0x24 ADD PUSH1 0x20 PUSH1 0x40 MLOAD DUP1 DUP4 SUB DUP2 DUP7 GAS STATICCALL ISZERO DUP1 ISZERO PUSH2 0x14C1 JUMPI RETURNDATASIZE PUSH0 PUSH0 RETURNDATACOPY RETURNDATASIZE PUSH0 REVERT JUMPDEST POP POP POP POP PUSH1 0x40 MLOAD RETURNDATASIZE PUSH1 0x1F NOT PUSH1 0x1F DUP3 ADD AND DUP3 ADD DUP1 PUSH1 0x40 MSTORE POP DUP2 ADD SWAP1 PUSH2 0x14E5 SWAP2 SWAP1 PUSH2 0x3E3C JUMP JUMPDEST PUSH2 0x14EF SWAP2 SWAP1 PUSH2 0x3CBC JUMP JUMPDEST PUSH2 0x14F9 SWAP2 SWAP1 PUSH2 0x3C9D JUMP JUMPDEST SWAP1 POP PUSH1 0xD0 SLOAD DUP2 LT ISZERO PUSH2 0x1560 JUMPI PUSH1 0x40 MLOAD PUSH3 0x461BCD PUSH1 0xE5 SHL DUP2 MSTORE PUSH1 0x20 PUSH1 0x4 DUP3 ADD MSTORE PUSH1 0x2A PUSH1 0x24 DUP3 ADD MSTORE PUSH32 0x526577617264206D757374206265206174206C6561737420746865206D696E69 PUSH1 0x44 DUP3 ADD MSTORE PUSH10 0x1B5D5B48185B5BDD5B9D PUSH1 0xB2 SHL PUSH1 0x64 DUP3 ADD MSTORE PUSH1 0x84 ADD PUSH2 0x962 JUMP JUMPDEST PUSH1 0xCD SLOAD PUSH2 0x156B PUSH2 0x1EF8 JUMP JUMPDEST DUP2 LT PUSH2 0x15B9 JUMPI PUSH1 0x40 MLOAD PUSH3 0x461BCD PUSH1 0xE5 SHL DUP2 MSTORE PUSH1 0x20 PUSH1 0x4 DUP3 ADD MSTORE PUSH1 0x1A PUSH1 0x24 DUP3 ADD MSTORE PUSH32 0x43616E6E6F742070726F63657373206265666F72652074696D65000000000000 PUSH1 0x44 DUP3 ADD MSTORE PUSH1 0x64 ADD PUSH2 0x962 JUMP JUMPDEST PUSH1 0xC9 SLOAD PUSH1 0x40 MLOAD PUSH4 0x23B872DD PUSH1 0xE0 SHL DUP2 MSTORE CALLER PUSH1 0x4 DUP3 ADD MSTORE ADDRESS PUSH1 0x24 DUP3 ADD MSTORE PUSH1 0x44 DUP2 ADD DUP5 SWAP1 MSTORE PUSH1 0x1 PUSH1 0x1 PUSH1 0xA0 SHL SUB SWAP1 SWAP2 AND SWAP1 PUSH4 0x23B872DD SWAP1 PUSH1 0x64 ADD PUSH1 0x20 PUSH1 0x40 MLOAD DUP1 DUP4 SUB DUP2 PUSH0 DUP8 GAS CALL ISZERO DUP1 ISZERO PUSH2 0x160D JUMPI RETURNDATASIZE PUSH0 PUSH0 RETURNDATACOPY RETURNDATASIZE PUSH0 REVERT JUMPDEST POP POP POP POP PUSH1 0x40 MLOAD RETURNDATASIZE PUSH1 0x1F NOT PUSH1 0x1F DUP3 ADD AND DUP3 ADD DUP1 PUSH1 0x40 MSTORE POP DUP2 ADD SWAP1 PUSH2 0x1631 SWAP2 SWAP1 PUSH2 0x3CFA JUMP JUMPDEST POP PUSH1 0xD3 SLOAD PUSH2 0x163F DUP2 DUP5 PUSH2 0x3CD3 JUMP JUMPDEST PUSH0 DUP4 DUP2 MSTORE PUSH1 0xDB PUSH1 0x20 MSTORE PUSH1 0x40 DUP2 KECCAK256 PUSH1 0x2 ADD DUP3 SWAP1 SSTORE SWAP1 SWAP4 POP SWAP1 POP PUSH1 0xB4 PUSH2 0x1664 DUP4 PUSH1 0x1 PUSH2 0x3CD3 JUMP JUMPDEST PUSH2 0x166E SWAP2 SWAP1 PUSH2 0x3CBC JUMP JUMPDEST PUSH1 0xD2 SLOAD PUSH2 0x167B SWAP2 SWAP1 PUSH2 0x3CD3 JUMP JUMPDEST PUSH0 DUP4 DUP2 MSTORE PUSH1 0xDB PUSH1 0x20 MSTORE PUSH1 0x40 DUP2 KECCAK256 PUSH1 0x1 ADD SWAP2 SWAP1 SWAP2 SSTORE JUMPDEST PUSH1 0xCB SLOAD DUP2 LT ISZERO PUSH2 0x1909 JUMPI PUSH1 0xDB PUSH0 DUP5 DUP2 MSTORE PUSH1 0x20 ADD SWAP1 DUP2 MSTORE PUSH1 0x20 ADD PUSH0 KECCAK256 PUSH1 0x4 ADD PUSH1 0xCB DUP3 DUP2 SLOAD DUP2 LT PUSH2 0x16C1 JUMPI PUSH2 0x16C1 PUSH2 0x3CE6 JUMP JUMPDEST SWAP1 PUSH0 MSTORE PUSH1 0x20 PUSH0 KECCAK256 ADD PUSH1 0x40 MLOAD PUSH2 0x16D6 SWAP2 SWAP1 PUSH2 0x3DCB JUMP JUMPDEST SWAP1 DUP2 MSTORE PUSH1 0x20 ADD PUSH1 0x40 MLOAD DUP1 SWAP2 SUB SWAP1 KECCAK256 SLOAD PUSH1 0xD9 PUSH1 0xCB DUP4 DUP2 SLOAD DUP2 LT PUSH2 0x16FA JUMPI PUSH2 0x16FA PUSH2 0x3CE6 JUMP JUMPDEST SWAP1 PUSH0 MSTORE PUSH1 0x20 PUSH0 KECCAK256 ADD PUSH1 0x40 MLOAD PUSH2 0x170F SWAP2 SWAP1 PUSH2 0x3DCB JUMP JUMPDEST SWAP1 DUP2 MSTORE PUSH1 0x20 ADD PUSH1 0x40 MLOAD DUP1 SWAP2 SUB SWAP1 KECCAK256 PUSH1 0x4 ADD PUSH0 DUP3 DUP3 SLOAD PUSH2 0x172E SWAP2 SWAP1 PUSH2 0x3CD3 JUMP JUMPDEST SWAP1 SWAP2 SSTORE POP POP DUP1 ISZERO PUSH2 0x17D3 JUMPI PUSH1 0xDB PUSH0 DUP5 DUP2 MSTORE PUSH1 0x20 ADD SWAP1 DUP2 MSTORE PUSH1 0x20 ADD PUSH0 KECCAK256 PUSH1 0x5 ADD PUSH1 0xCB DUP3 DUP2 SLOAD DUP2 LT PUSH2 0x1760 JUMPI PUSH2 0x1760 PUSH2 0x3CE6 JUMP JUMPDEST SWAP1 PUSH0 MSTORE PUSH1 0x20 PUSH0 KECCAK256 ADD PUSH1 0x40 MLOAD PUSH2 0x1775 SWAP2 SWAP1 PUSH2 0x3DCB JUMP JUMPDEST SWAP1 DUP2 MSTORE PUSH1 0x20 ADD PUSH1 0x40 MLOAD DUP1 SWAP2 SUB SWAP1 KECCAK256 SLOAD PUSH1 0xD9 PUSH1 0xCB DUP4 DUP2 SLOAD DUP2 LT PUSH2 0x1799 JUMPI PUSH2 0x1799 PUSH2 0x3CE6 JUMP JUMPDEST SWAP1 PUSH0 MSTORE PUSH1 0x20 PUSH0 KECCAK256 ADD PUSH1 0x40 MLOAD PUSH2 0x17AE SWAP2 SWAP1 PUSH2 0x3DCB JUMP JUMPDEST SWAP1 DUP2 MSTORE PUSH1 0x20 ADD PUSH1 0x40 MLOAD DUP1 SWAP2 SUB SWAP1 KECCAK256 PUSH1 0x4 ADD PUSH0 DUP3 DUP3 SLOAD PUSH2 0x17CD SWAP2 SWAP1 PUSH2 0x3C8A JUMP JUMPDEST SWAP1 SWAP2 SSTORE POP POP JUMPDEST PUSH1 0xD9 PUSH1 0xCB DUP3 DUP2 SLOAD DUP2 LT PUSH2 0x17E8 JUMPI PUSH2 0x17E8 PUSH2 0x3CE6 JUMP JUMPDEST SWAP1 PUSH0 MSTORE PUSH1 0x20 PUSH0 KECCAK256 ADD PUSH1 0x40 MLOAD PUSH2 0x17FD SWAP2 SWAP1 PUSH2 0x3DCB JUMP JUMPDEST SWAP1 DUP2 MSTORE PUSH1 0x20 ADD PUSH1 0x40 MLOAD DUP1 SWAP2 SUB SWAP1 KECCAK256 PUSH1 0x4 ADD SLOAD PUSH1 0xDB PUSH0 DUP6 DUP2 MSTORE PUSH1 0x20 ADD SWAP1 DUP2 MSTORE PUSH1 0x20 ADD PUSH0 KECCAK256 PUSH1 0x3 ADD PUSH1 0xCB DUP4 DUP2 SLOAD DUP2 LT PUSH2 0x1836 JUMPI PUSH2 0x1836 PUSH2 0x3CE6 JUMP JUMPDEST SWAP1 PUSH0 MSTORE PUSH1 0x20 PUSH0 KECCAK256 ADD PUSH1 0x40 MLOAD PUSH2 0x184B SWAP2 SWAP1 PUSH2 0x3DCB JUMP JUMPDEST SWAP1 DUP2 MSTORE PUSH1 0x20 ADD PUSH1 0x40 MLOAD DUP1 SWAP2 SUB SWAP1 KECCAK256 DUP2 SWAP1 SSTORE POP PUSH1 0xD9 PUSH1 0xCB DUP3 DUP2 SLOAD DUP2 LT PUSH2 0x1872 JUMPI PUSH2 0x1872 PUSH2 0x3CE6 JUMP JUMPDEST SWAP1 PUSH0 MSTORE PUSH1 0x20 PUSH0 KECCAK256 ADD PUSH1 0x40 MLOAD PUSH2 0x1887 SWAP2 SWAP1 PUSH2 0x3DCB JUMP JUMPDEST SWAP1 DUP2 MSTORE PUSH1 0x20 ADD PUSH1 0x40 MLOAD DUP1 SWAP2 SUB SWAP1 KECCAK256 PUSH1 0x4 ADD SLOAD PUSH0 SUB PUSH2 0x1901 JUMPI PUSH3 0x989680 PUSH1 0xD9 PUSH1 0xCB DUP4 DUP2 SLOAD DUP2 LT PUSH2 0x18B8 JUMPI PUSH2 0x18B8 PUSH2 0x3CE6 JUMP JUMPDEST SWAP1 PUSH0 MSTORE PUSH1 0x20 PUSH0 KECCAK256 ADD PUSH1 0x40 MLOAD PUSH2 0x18CD SWAP2 SWAP1 PUSH2 0x3DCB JUMP JUMPDEST SWAP1 DUP2 MSTORE PUSH1 0x20 ADD PUSH1 0x40 MLOAD DUP1 SWAP2 SUB SWAP1 KECCAK256 PUSH1 0x2 ADD SLOAD DUP6 PUSH2 0x18EA SWAP2 SWAP1 PUSH2 0x3CBC JUMP JUMPDEST PUSH2 0x18F4 SWAP2 SWAP1 PUSH2 0x3C9D JUMP JUMPDEST PUSH2 0x18FE SWAP1 DUP4 PUSH2 0x3CD3 JUMP JUMPDEST SWAP2 POP JUMPDEST PUSH1 0x1 ADD PUSH2 0x1690 JUMP JUMPDEST POP PUSH1 0xD3 DUP2 SWAP1 SSTORE PUSH1 0x40 MLOAD DUP4 DUP2 MSTORE DUP3 SWAP1 PUSH32 0x40DF43107E8B4D467127964BD3C966687C0A6A39AAEDE970755397FD09535E98 SWAP1 PUSH1 0x20 ADD PUSH1 0x40 MLOAD DUP1 SWAP2 SUB SWAP1 LOG2 PUSH0 DUP3 DUP2 MSTORE PUSH1 0xDB PUSH1 0x20 MSTORE PUSH1 0x40 DUP2 KECCAK256 DUP1 SLOAD PUSH1 0xFF NOT AND PUSH1 0x1 OR SWAP1 SSTORE PUSH1 0xCD DUP1 SLOAD SWAP2 PUSH2 0x196A DUP4 PUSH2 0x3D15 JUMP JUMPDEST SWAP2 SWAP1 POP SSTORE POP POP POP POP POP JUMP JUMPDEST PUSH2 0x197D PUSH2 0x2676 JUMP JUMPDEST PUSH0 PUSH2 0x1987 CALLER PUSH2 0x830 JUMP JUMPDEST SWAP1 POP DUP1 ISZERO DUP1 ISZERO SWAP1 PUSH2 0x19A7 JUMPI POP PUSH0 DUP2 DUP2 MSTORE PUSH1 0xDA PUSH1 0x20 MSTORE PUSH1 0x40 SWAP1 KECCAK256 PUSH1 0x5 ADD SLOAD TIMESTAMP LT JUMPDEST PUSH2 0x19EA JUMPI PUSH1 0x40 MLOAD PUSH3 0x461BCD PUSH1 0xE5 SHL DUP2 MSTORE PUSH1 0x20 PUSH1 0x4 DUP3 ADD MSTORE PUSH1 0x14 PUSH1 0x24 DUP3 ADD MSTORE PUSH20 0x139BC81858DD1A5D99481B1BD8DAC8199BDD5B99 PUSH1 0x62 SHL PUSH1 0x44 DUP3 ADD MSTORE PUSH1 0x64 ADD PUSH2 0x962 JUMP JUMPDEST PUSH0 DUP2 DUP2 MSTORE PUSH1 0xDA PUSH1 0x20 MSTORE PUSH1 0x40 SWAP1 DUP2 SWAP1 KECCAK256 PUSH1 0x3 ADD SLOAD SWAP1 MLOAD PUSH1 0xD9 SWAP1 PUSH2 0x1A0D SWAP1 DUP6 SWAP1 PUSH2 0x3DC0 JUMP JUMPDEST SWAP1 DUP2 MSTORE PUSH1 0x20 ADD PUSH1 0x40 MLOAD DUP1 SWAP2 SUB SWAP1 KECCAK256 PUSH1 0x3 ADD SLOAD LT ISZERO PUSH2 0x1A85 JUMPI PUSH1 0x40 MLOAD PUSH3 0x461BCD PUSH1 0xE5 SHL DUP2 MSTORE PUSH1 0x20 PUSH1 0x4 DUP3 ADD MSTORE PUSH1 0x2F PUSH1 0x24 DUP3 ADD MSTORE PUSH32 0x4C6F636B206475726174696F6E2063616E6E6F74206265206C65737320746861 PUSH1 0x44 DUP3 ADD MSTORE PUSH15 0x6E206578697374696E67206C6F636B PUSH1 0x88 SHL PUSH1 0x64 DUP3 ADD MSTORE PUSH1 0x84 ADD PUSH2 0x962 JUMP JUMPDEST PUSH0 DUP2 DUP2 MSTORE PUSH1 0xDA PUSH1 0x20 MSTORE PUSH1 0x40 DUP2 KECCAK256 PUSH1 0x1 DUP2 ADD SLOAD DUP2 SLOAD SWAP1 SWAP3 SWAP2 SWAP1 PUSH2 0x1AA6 SWAP1 PUSH2 0x3D2D JUMP JUMPDEST DUP1 PUSH1 0x1F ADD PUSH1 0x20 DUP1 SWAP2 DIV MUL PUSH1 0x20 ADD PUSH1 0x40 MLOAD SWAP1 DUP2 ADD PUSH1 0x40 MSTORE DUP1 SWAP3 SWAP2 SWAP1 DUP2 DUP2 MSTORE PUSH1 0x20 ADD DUP3 DUP1 SLOAD PUSH2 0x1AD2 SWAP1 PUSH2 0x3D2D JUMP JUMPDEST DUP1 ISZERO PUSH2 0x1B1D JUMPI DUP1 PUSH1 0x1F LT PUSH2 0x1AF4 JUMPI PUSH2 0x100 DUP1 DUP4 SLOAD DIV MUL DUP4 MSTORE SWAP2 PUSH1 0x20 ADD SWAP2 PUSH2 0x1B1D JUMP JUMPDEST DUP3 ADD SWAP2 SWAP1 PUSH0 MSTORE PUSH1 0x20 PUSH0 KECCAK256 SWAP1 JUMPDEST DUP2 SLOAD DUP2 MSTORE SWAP1 PUSH1 0x1 ADD SWAP1 PUSH1 0x20 ADD DUP1 DUP4 GT PUSH2 0x1B00 JUMPI DUP3 SWAP1 SUB PUSH1 0x1F AND DUP3 ADD SWAP2 JUMPDEST POP POP POP PUSH0 DUP7 DUP2 MSTORE PUSH1 0xDA PUSH1 0x20 MSTORE PUSH1 0x40 DUP2 KECCAK256 PUSH1 0x2 DUP2 ADD DUP1 SLOAD PUSH2 0xFF00 NOT AND SWAP1 SSTORE TIMESTAMP PUSH1 0x5 SWAP1 SWAP2 ADD SSTORE SWAP3 SWAP4 POP PUSH2 0x1B50 SWAP2 POP PUSH2 0x1EF8 SWAP1 POP JUMP JUMPDEST PUSH0 DUP6 DUP2 MSTORE PUSH1 0xDA PUSH1 0x20 MSTORE PUSH1 0x40 SWAP1 KECCAK256 PUSH1 0x9 ADD SLOAD SWAP1 SWAP2 POP DUP2 LT ISZERO PUSH2 0x1C7C JUMPI PUSH0 DUP5 DUP2 MSTORE PUSH1 0xDA PUSH1 0x20 SWAP1 DUP2 MSTORE PUSH1 0x40 DUP1 DUP4 KECCAK256 PUSH1 0x9 ADD SLOAD DUP4 MSTORE PUSH1 0xDB SWAP1 SWAP2 MSTORE SWAP1 DUP2 SWAP1 KECCAK256 SWAP1 MLOAD DUP5 SWAP2 PUSH1 0x5 ADD SWAP1 PUSH2 0x1B9D SWAP1 DUP6 SWAP1 PUSH2 0x3DC0 JUMP JUMPDEST SWAP1 DUP2 MSTORE PUSH1 0x20 ADD PUSH1 0x40 MLOAD DUP1 SWAP2 SUB SWAP1 KECCAK256 PUSH0 DUP3 DUP3 SLOAD PUSH2 0x1BB9 SWAP2 SWAP1 PUSH2 0x3C8A JUMP JUMPDEST SWAP1 SWAP2 SSTORE POP POP PUSH0 DUP5 DUP2 MSTORE PUSH1 0xDA PUSH1 0x20 SWAP1 DUP2 MSTORE PUSH1 0x40 DUP1 DUP4 KECCAK256 PUSH1 0x9 ADD DUP5 SWAP1 SSTORE DUP4 DUP4 MSTORE PUSH1 0xDB SWAP1 SWAP2 MSTORE SWAP1 DUP2 SWAP1 KECCAK256 SWAP1 MLOAD DUP5 SWAP2 PUSH1 0x5 ADD SWAP1 PUSH2 0x1BF3 SWAP1 DUP6 SWAP1 PUSH2 0x3DC0 JUMP JUMPDEST SWAP1 DUP2 MSTORE PUSH1 0x20 ADD PUSH1 0x40 MLOAD DUP1 SWAP2 SUB SWAP1 KECCAK256 PUSH0 DUP3 DUP3 SLOAD PUSH2 0x1C0F SWAP2 SWAP1 PUSH2 0x3CD3 JUMP JUMPDEST SWAP1 SWAP2 SSTORE POP POP PUSH0 DUP5 DUP2 MSTORE PUSH1 0xDA PUSH1 0x20 MSTORE PUSH1 0x40 SWAP1 KECCAK256 PUSH1 0x9 DUP2 ADD SLOAD PUSH1 0x8 SWAP1 SWAP2 ADD SLOAD EQ DUP1 ISZERO PUSH2 0x1C46 JUMPI POP CALLER PUSH0 SWAP1 DUP2 MSTORE PUSH1 0xD5 PUSH1 0x20 MSTORE PUSH1 0x40 SWAP1 KECCAK256 SLOAD ISZERO ISZERO JUMPDEST ISZERO PUSH2 0x1C7C JUMPI CALLER PUSH0 SWAP1 DUP2 MSTORE PUSH1 0xD5 PUSH1 0x20 MSTORE PUSH1 0x40 SWAP1 KECCAK256 DUP1 SLOAD DUP1 PUSH2 0x1C68 JUMPI PUSH2 0x1C68 PUSH2 0x3E53 JUMP JUMPDEST PUSH1 0x1 SWAP1 SUB DUP2 DUP2 SWAP1 PUSH0 MSTORE PUSH1 0x20 PUSH0 KECCAK256 ADD PUSH0 SWAP1 SSTORE SWAP1 SSTORE JUMPDEST PUSH0 DUP5 DUP2 MSTORE PUSH1 0xDA PUSH1 0x20 MSTORE PUSH1 0x40 SWAP1 KECCAK256 PUSH1 0x6 ADD SLOAD PUSH2 0x1C9C SWAP1 DUP8 SWAP1 DUP6 SWAP1 DUP9 DUP6 PUSH2 0x2D85 JUMP JUMPDEST PUSH1 0xCC SLOAD PUSH1 0x40 MLOAD DUP6 SWAP1 PUSH32 0x49B2ADA88C09D45D501A352DDD16F0B8BABA46034A2B243BFA8E215E2745F233 SWAP1 PUSH0 SWAP1 LOG3 POP POP POP POP POP POP JUMP JUMPDEST PUSH1 0xCB DUP2 DUP2 SLOAD DUP2 LT PUSH2 0x1CE0 JUMPI PUSH0 DUP1 REVERT JUMPDEST SWAP1 PUSH0 MSTORE PUSH1 0x20 PUSH0 KECCAK256 ADD PUSH0 SWAP2 POP SWAP1 POP DUP1 SLOAD PUSH2 0x1CF8 SWAP1 PUSH2 0x3D2D JUMP JUMPDEST DUP1 PUSH1 0x1F ADD PUSH1 0x20 DUP1 SWAP2 DIV MUL PUSH1 0x20 ADD PUSH1 0x40 MLOAD SWAP1 DUP2 ADD PUSH1 0x40 MSTORE DUP1 SWAP3 SWAP2 SWAP1 DUP2 DUP2 MSTORE PUSH1 0x20 ADD DUP3 DUP1 SLOAD PUSH2 0x1D24 SWAP1 PUSH2 0x3D2D JUMP JUMPDEST DUP1 ISZERO PUSH2 0x1D6F JUMPI DUP1 PUSH1 0x1F LT PUSH2 0x1D46 JUMPI PUSH2 0x100 DUP1 DUP4 SLOAD DIV MUL DUP4 MSTORE SWAP2 PUSH1 0x20 ADD SWAP2 PUSH2 0x1D6F JUMP JUMPDEST DUP3 ADD SWAP2 SWAP1 PUSH0 MSTORE PUSH1 0x20 PUSH0 KECCAK256 SWAP1 JUMPDEST DUP2 SLOAD DUP2 MSTORE SWAP1 PUSH1 0x1 ADD SWAP1 PUSH1 0x20 ADD DUP1 DUP4 GT PUSH2 0x1D52 JUMPI DUP3 SWAP1 SUB PUSH1 0x1F AND DUP3 ADD SWAP2 JUMPDEST POP POP POP POP POP DUP2 JUMP JUMPDEST PUSH0 PUSH0 PUSH0 PUSH1 0xDB PUSH0 DUP7 DUP2 MSTORE PUSH1 0x20 ADD SWAP1 DUP2 MSTORE PUSH1 0x20 ADD PUSH0 KECCAK256 PUSH1 0x3 ADD DUP5 PUSH1 0x40 MLOAD PUSH2 0x1D9C SWAP2 SWAP1 PUSH2 0x3DC0 JUMP JUMPDEST SWAP1 DUP2 MSTORE PUSH1 0x20 ADD PUSH1 0x40 MLOAD DUP1 SWAP2 SUB SWAP1 KECCAK256 SLOAD PUSH1 0xDB PUSH0 DUP8 DUP2 MSTORE PUSH1 0x20 ADD SWAP1 DUP2 MSTORE PUSH1 0x20 ADD PUSH0 KECCAK256 PUSH1 0x4 ADD DUP6 PUSH1 0x40 MLOAD PUSH2 0x1DCD SWAP2 SWAP1 PUSH2 0x3DC0 JUMP JUMPDEST SWAP1 DUP2 MSTORE PUSH1 0x20 ADD PUSH1 0x40 MLOAD DUP1 SWAP2 SUB SWAP1 KECCAK256 SLOAD PUSH1 0xDB PUSH0 DUP9 DUP2 MSTORE PUSH1 0x20 ADD SWAP1 DUP2 MSTORE PUSH1 0x20 ADD PUSH0 KECCAK256 PUSH1 0x5 ADD DUP7 PUSH1 0x40 MLOAD PUSH2 0x1DFE SWAP2 SWAP1 PUSH2 0x3DC0 JUMP JUMPDEST SWAP1 DUP2 MSTORE PUSH1 0x20 ADD PUSH1 0x40 MLOAD DUP1 SWAP2 SUB SWAP1 KECCAK256 SLOAD SWAP3 POP SWAP3 POP SWAP3 POP SWAP3 POP SWAP3 POP SWAP3 JUMP JUMPDEST PUSH0 SWAP2 DUP3 MSTORE PUSH1 0x97 PUSH1 0x20 SWAP1 DUP2 MSTORE PUSH1 0x40 DUP1 DUP5 KECCAK256 PUSH1 0x1 PUSH1 0x1 PUSH1 0xA0 SHL SUB SWAP4 SWAP1 SWAP4 AND DUP5 MSTORE SWAP2 SWAP1 MSTORE SWAP1 KECCAK256 SLOAD PUSH1 0xFF AND SWAP1 JUMP JUMPDEST PUSH0 MLOAD PUSH1 0x20 PUSH2 0x4043 PUSH0 CODECOPY PUSH0 MLOAD SWAP1 PUSH0 MSTORE PUSH2 0x1E5B DUP2 PUSH2 0x2669 JUMP JUMPDEST PUSH3 0x989680 DUP3 GT ISZERO PUSH2 0x1EAE JUMPI PUSH1 0x40 MLOAD PUSH3 0x461BCD PUSH1 0xE5 SHL DUP2 MSTORE PUSH1 0x20 PUSH1 0x4 DUP3 ADD MSTORE PUSH1 0x18 PUSH1 0x24 DUP3 ADD MSTORE PUSH32 0x496E76616C69642070657263656E746167652076616C75650000000000000000 PUSH1 0x44 DUP3 ADD MSTORE PUSH1 0x64 ADD PUSH2 0x962 JUMP JUMPDEST POP PUSH1 0xD1 SSTORE JUMP JUMPDEST PUSH0 PUSH4 0x5F5E100 PUSH1 0xD9 DUP4 PUSH1 0x40 MLOAD PUSH2 0x1ECA SWAP2 SWAP1 PUSH2 0x3DC0 JUMP JUMPDEST SWAP1 DUP2 MSTORE PUSH1 0x20 ADD PUSH1 0x40 MLOAD DUP1 SWAP2 SUB SWAP1 KECCAK256 PUSH1 0x1 ADD SLOAD DUP5 PUSH2 0x1EE7 SWAP2 SWAP1 PUSH2 0x3CBC JUMP JUMPDEST PUSH2 0x1EF1 SWAP2 SWAP1 PUSH2 0x3C9D JUMP JUMPDEST SWAP4 SWAP3 POP POP POP JUMP JUMPDEST PUSH0 PUSH1 0xB4 PUSH1 0xD2 SLOAD TIMESTAMP PUSH2 0x1F09 SWAP2 SWAP1 PUSH2 0x3C8A JUMP JUMPDEST PUSH2 0x1F13 SWAP2 SWAP1 PUSH2 0x3C9D JUMP JUMPDEST SWAP1 POP SWAP1 JUMP JUMPDEST PUSH1 0xD4 PUSH1 0x20 MSTORE DUP2 PUSH0 MSTORE PUSH1 0x40 PUSH0 KECCAK256 DUP2 DUP2 SLOAD DUP2 LT PUSH2 0x1F31 JUMPI PUSH0 DUP1 REVERT JUMPDEST SWAP1 PUSH0 MSTORE PUSH1 0x20 PUSH0 KECCAK256 ADD PUSH0 SWAP2 POP SWAP2 POP POP SLOAD DUP2 JUMP JUMPDEST PUSH2 0x1F4B PUSH2 0x2676 JUMP JUMPDEST PUSH0 PUSH2 0x1F54 PUSH2 0x27A9 JUMP JUMPDEST SWAP1 POP PUSH0 DUP3 ISZERO PUSH2 0x1FEB JUMPI POP CALLER PUSH0 SWAP1 DUP2 MSTORE PUSH1 0xD8 PUSH1 0x20 MSTORE PUSH1 0x40 DUP2 KECCAK256 SLOAD SWAP1 DUP2 SWAP1 SUB PUSH2 0x1F8D JUMPI PUSH1 0x40 MLOAD PUSH3 0x461BCD PUSH1 0xE5 SHL DUP2 MSTORE PUSH1 0x4 ADD PUSH2 0x962 SWAP1 PUSH2 0x3D5F JUMP JUMPDEST PUSH1 0xC9 SLOAD PUSH1 0x40 MLOAD PUSH4 0x852CD8D PUSH1 0xE3 SHL DUP2 MSTORE PUSH1 0x4 DUP2 ADD DUP5 SWAP1 MSTORE PUSH1 0x1 PUSH1 0x1 PUSH1 0xA0 SHL SUB SWAP1 SWAP2 AND SWAP1 PUSH4 0x42966C68 SWAP1 PUSH1 0x24 ADD PUSH0 PUSH1 0x40 MLOAD DUP1 DUP4 SUB DUP2 PUSH0 DUP8 DUP1 EXTCODESIZE ISZERO DUP1 ISZERO PUSH2 0x1FD0 JUMPI PUSH0 PUSH0 REVERT JUMPDEST POP GAS CALL ISZERO DUP1 ISZERO PUSH2 0x1FE2 JUMPI RETURNDATASIZE PUSH0 PUSH0 RETURNDATACOPY RETURNDATASIZE PUSH0 REVERT JUMPDEST POP POP POP POP PUSH2 0x2058 JUMP JUMPDEST PUSH2 0x1FF4 CALLER PUSH2 0x830 JUMP JUMPDEST SWAP1 POP DUP1 ISZERO DUP1 ISZERO SWAP1 PUSH2 0x2014 JUMPI POP PUSH0 DUP2 DUP2 MSTORE PUSH1 0xDA PUSH1 0x20 MSTORE PUSH1 0x40 SWAP1 KECCAK256 PUSH1 0x5 ADD SLOAD TIMESTAMP LT JUMPDEST PUSH2 0x2058 JUMPI PUSH1 0x40 MLOAD PUSH3 0x461BCD PUSH1 0xE5 SHL DUP2 MSTORE PUSH1 0x20 PUSH1 0x4 DUP3 ADD MSTORE PUSH1 0x15 PUSH1 0x24 DUP3 ADD MSTORE PUSH21 0x4E6F20416374697665206C6F636B20657869737473 PUSH1 0x58 SHL PUSH1 0x44 DUP3 ADD MSTORE PUSH1 0x64 ADD PUSH2 0x962 JUMP JUMPDEST PUSH2 0x2062 DUP3 DUP3 PUSH2 0x29FB JUMP JUMPDEST PUSH0 DUP2 DUP2 MSTORE PUSH1 0xDA PUSH1 0x20 SWAP1 DUP2 MSTORE PUSH1 0x40 SWAP2 DUP3 SWAP1 KECCAK256 PUSH1 0x1 DUP2 ADD SLOAD PUSH1 0x6 SWAP1 SWAP2 ADD SLOAD DUP4 MLOAD SWAP2 DUP3 MSTORE SWAP2 DUP2 ADD DUP6 SWAP1 MSTORE SWAP2 DUP3 ADD MSTORE DUP2 SWAP1 PUSH32 0x4E2CC4951F3EEABDD9E423F93EBA5E634644FF5FC64B2E59C2486C23A305DD8E SWAP1 PUSH1 0x60 ADD PUSH2 0x110D JUMP JUMPDEST PUSH0 MLOAD PUSH1 0x20 PUSH2 0x4043 PUSH0 CODECOPY PUSH0 MLOAD SWAP1 PUSH0 MSTORE PUSH2 0x20D0 DUP2 PUSH2 0x2669 JUMP JUMPDEST POP PUSH1 0xD0 SSTORE JUMP JUMPDEST PUSH0 DUP3 DUP2 MSTORE PUSH1 0x97 PUSH1 0x20 MSTORE PUSH1 0x40 SWAP1 KECCAK256 PUSH1 0x1 ADD SLOAD PUSH2 0x20F0 DUP2 PUSH2 0x2669 JUMP JUMPDEST PUSH2 0xBB5 DUP4 DUP4 PUSH2 0x2743 JUMP JUMPDEST PUSH2 0x2102 PUSH2 0x2676 JUMP JUMPDEST PUSH1 0xCF SLOAD DUP3 LT ISZERO PUSH2 0x2124 JUMPI PUSH1 0x40 MLOAD PUSH3 0x461BCD PUSH1 0xE5 SHL DUP2 MSTORE PUSH1 0x4 ADD PUSH2 0x962 SWAP1 PUSH2 0x3E67 JUMP JUMPDEST PUSH2 0xC34 DUP3 PUSH0 PUSH0 DUP5 PUSH2 0x2133 PUSH2 0x1EF8 JUMP JUMPDEST PUSH2 0x2D85 JUMP JUMPDEST PUSH1 0xD5 PUSH1 0x20 MSTORE DUP2 PUSH0 MSTORE PUSH1 0x40 PUSH0 KECCAK256 DUP2 DUP2 SLOAD DUP2 LT PUSH2 0x1F31 JUMPI PUSH0 DUP1 REVERT JUMPDEST PUSH0 SLOAD PUSH2 0x100 SWAP1 DIV PUSH1 0xFF AND ISZERO DUP1 DUP1 ISZERO PUSH2 0x216F JUMPI POP PUSH0 SLOAD PUSH1 0x1 PUSH1 0xFF SWAP1 SWAP2 AND LT JUMPDEST DUP1 PUSH2 0x2188 JUMPI POP ADDRESS EXTCODESIZE ISZERO DUP1 ISZERO PUSH2 0x2188 JUMPI POP PUSH0 SLOAD PUSH1 0xFF AND PUSH1 0x1 EQ JUMPDEST PUSH2 0x21EB JUMPI PUSH1 0x40 MLOAD PUSH3 0x461BCD PUSH1 0xE5 SHL DUP2 MSTORE PUSH1 0x20 PUSH1 0x4 DUP3 ADD MSTORE PUSH1 0x2E PUSH1 0x24 DUP3 ADD MSTORE PUSH32 0x496E697469616C697A61626C653A20636F6E747261637420697320616C726561 PUSH1 0x44 DUP3 ADD MSTORE PUSH14 0x191E481A5B9A5D1A585B1A5E9959 PUSH1 0x92 SHL PUSH1 0x64 DUP3 ADD MSTORE PUSH1 0x84 ADD PUSH2 0x962 JUMP JUMPDEST PUSH0 DUP1 SLOAD PUSH1 0xFF NOT AND PUSH1 0x1 OR SWAP1 SSTORE DUP1 ISZERO PUSH2 0x220C JUMPI PUSH0 DUP1 SLOAD PUSH2 0xFF00 NOT AND PUSH2 0x100 OR SWAP1 SSTORE JUMPDEST PUSH1 0x1 PUSH1 0x1 PUSH1 0xA0 SHL SUB DUP11 AND PUSH2 0x2262 JUMPI PUSH1 0x40 MLOAD PUSH3 0x461BCD PUSH1 0xE5 SHL DUP2 MSTORE PUSH1 0x20 PUSH1 0x4 DUP3 ADD MSTORE PUSH1 0x1A PUSH1 0x24 DUP3 ADD MSTORE PUSH32 0x496E76616C696420414C564120746F6B656E2061646472657373000000000000 PUSH1 0x44 DUP3 ADD MSTORE PUSH1 0x64 ADD PUSH2 0x962 JUMP JUMPDEST PUSH1 0x1 PUSH1 0x1 PUSH1 0xA0 SHL SUB DUP10 AND PUSH2 0x22B8 JUMPI PUSH1 0x40 MLOAD PUSH3 0x461BCD PUSH1 0xE5 SHL DUP2 MSTORE PUSH1 0x20 PUSH1 0x4 DUP3 ADD MSTORE PUSH1 0x1C PUSH1 0x24 DUP3 ADD MSTORE PUSH32 0x496E76616C6964207665414C564120746F6B656E206164647265737300000000 PUSH1 0x44 DUP3 ADD MSTORE PUSH1 0x64 ADD PUSH2 0x962 JUMP JUMPDEST PUSH1 0xC9 DUP1 SLOAD PUSH1 0x1 PUSH1 0x1 PUSH1 0xA0 SHL SUB DUP1 DUP14 AND PUSH1 0x1 PUSH1 0x1 PUSH1 0xA0 SHL SUB NOT SWAP3 DUP4 AND OR SWAP1 SWAP3 SSTORE PUSH1 0xCA DUP1 SLOAD SWAP3 DUP13 AND SWAP3 SWAP1 SWAP2 AND SWAP2 SWAP1 SWAP2 OR SWAP1 SSTORE PUSH1 0xCE DUP9 SWAP1 SSTORE PUSH1 0xD2 DUP8 SWAP1 SSTORE PUSH1 0x1 PUSH1 0xCF SSTORE PUSH2 0x2710 PUSH1 0xD0 SSTORE PUSH3 0x4C4B40 PUSH1 0xD1 SSTORE PUSH2 0x230E PUSH0 CALLER PUSH2 0x26BE JUMP JUMPDEST PUSH2 0x2338 PUSH32 0x65D7A28E3265B37A6474929F336521B332C1681B933F6CB9F3376673440D862A CALLER PUSH2 0x26BE JUMP JUMPDEST PUSH2 0x234F PUSH0 MLOAD PUSH1 0x20 PUSH2 0x4043 PUSH0 CODECOPY PUSH0 MLOAD SWAP1 PUSH0 MSTORE CALLER PUSH2 0x26BE JUMP JUMPDEST PUSH2 0x2379 PUSH32 0x4C716A0EBD1CFD3E93CA0DB9B9F8A0A9CB7C1D4CC18B52950E1F5528CC73CB5D CALLER PUSH2 0x26BE JUMP JUMPDEST DUP3 PUSH0 DUP2 MLOAD DUP2 LT PUSH2 0x238B JUMPI PUSH2 0x238B PUSH2 0x3CE6 JUMP JUMPDEST PUSH1 0x20 MUL PUSH1 0x20 ADD ADD MLOAD PUSH0 EQ PUSH2 0x23D5 JUMPI PUSH1 0x40 MLOAD PUSH3 0x461BCD PUSH1 0xE5 SHL DUP2 MSTORE PUSH1 0x20 PUSH1 0x4 DUP3 ADD MSTORE PUSH1 0x11 PUSH1 0x24 DUP3 ADD MSTORE PUSH17 0x496E76616C6964204475726174696F6E73 PUSH1 0x78 SHL PUSH1 0x44 DUP3 ADD MSTORE PUSH1 0x64 ADD PUSH2 0x962 JUMP JUMPDEST DUP6 MLOAD PUSH0 SWAP1 PUSH2 0x23EA SWAP1 PUSH1 0xCB SWAP1 PUSH1 0x20 DUP11 ADD SWAP1 PUSH2 0x365D JUMP JUMPDEST POP PUSH0 JUMPDEST DUP8 MLOAD DUP2 LT ISZERO PUSH2 0x25D2 JUMPI DUP6 DUP2 DUP2 MLOAD DUP2 LT PUSH2 0x2408 JUMPI PUSH2 0x2408 PUSH2 0x3CE6 JUMP JUMPDEST PUSH1 0x20 MUL PUSH1 0x20 ADD ADD MLOAD PUSH1 0xD9 DUP10 DUP4 DUP2 MLOAD DUP2 LT PUSH2 0x2424 JUMPI PUSH2 0x2424 PUSH2 0x3CE6 JUMP JUMPDEST PUSH1 0x20 MUL PUSH1 0x20 ADD ADD MLOAD PUSH1 0x40 MLOAD PUSH2 0x2439 SWAP2 SWAP1 PUSH2 0x3DC0 JUMP JUMPDEST SWAP1 DUP2 MSTORE PUSH1 0x20 ADD PUSH1 0x40 MLOAD DUP1 SWAP2 SUB SWAP1 KECCAK256 PUSH1 0x1 ADD DUP2 SWAP1 SSTORE POP DUP7 DUP2 DUP2 MLOAD DUP2 LT PUSH2 0x2460 JUMPI PUSH2 0x2460 PUSH2 0x3CE6 JUMP JUMPDEST PUSH1 0x20 MUL PUSH1 0x20 ADD ADD MLOAD PUSH1 0xD9 DUP10 DUP4 DUP2 MLOAD DUP2 LT PUSH2 0x247C JUMPI PUSH2 0x247C PUSH2 0x3CE6 JUMP JUMPDEST PUSH1 0x20 MUL PUSH1 0x20 ADD ADD MLOAD PUSH1 0x40 MLOAD PUSH2 0x2491 SWAP2 SWAP1 PUSH2 0x3DC0 JUMP JUMPDEST SWAP1 DUP2 MSTORE PUSH1 0x20 ADD PUSH1 0x40 MLOAD DUP1 SWAP2 SUB SWAP1 KECCAK256 PUSH1 0x2 ADD DUP2 SWAP1 SSTORE POP DUP5 DUP2 DUP2 MLOAD DUP2 LT PUSH2 0x24B8 JUMPI PUSH2 0x24B8 PUSH2 0x3CE6 JUMP JUMPDEST PUSH1 0x20 MUL PUSH1 0x20 ADD ADD MLOAD PUSH1 0xD9 DUP10 DUP4 DUP2 MLOAD DUP2 LT PUSH2 0x24D4 JUMPI PUSH2 0x24D4 PUSH2 0x3CE6 JUMP JUMPDEST PUSH1 0x20 MUL PUSH1 0x20 ADD ADD MLOAD PUSH1 0x40 MLOAD PUSH2 0x24E9 SWAP2 SWAP1 PUSH2 0x3DC0 JUMP JUMPDEST SWAP1 DUP2 MSTORE PUSH1 0x20 ADD PUSH1 0x40 MLOAD DUP1 SWAP2 SUB SWAP1 KECCAK256 PUSH1 0x3 ADD DUP2 SWAP1 SSTORE POP PUSH1 0x1 PUSH1 0xD9 DUP10 DUP4 DUP2 MLOAD DUP2 LT PUSH2 0x2514 JUMPI PUSH2 0x2514 PUSH2 0x3CE6 JUMP JUMPDEST PUSH1 0x20 MUL PUSH1 0x20 ADD ADD MLOAD PUSH1 0x40 MLOAD PUSH2 0x2529 SWAP2 SWAP1 PUSH2 0x3DC0 JUMP JUMPDEST SWAP1 DUP2 MSTORE PUSH1 0x40 MLOAD SWAP1 DUP2 SWAP1 SUB PUSH1 0x20 ADD SWAP1 KECCAK256 DUP1 SLOAD SWAP2 ISZERO ISZERO PUSH1 0xFF NOT SWAP1 SWAP3 AND SWAP2 SWAP1 SWAP2 OR SWAP1 SSTORE DUP4 MLOAD DUP5 SWAP1 DUP3 SWAP1 DUP2 LT PUSH2 0x255D JUMPI PUSH2 0x255D PUSH2 0x3CE6 JUMP JUMPDEST PUSH1 0x20 MUL PUSH1 0x20 ADD ADD MLOAD PUSH1 0xD9 DUP10 DUP4 DUP2 MLOAD DUP2 LT PUSH2 0x2579 JUMPI PUSH2 0x2579 PUSH2 0x3CE6 JUMP JUMPDEST PUSH1 0x20 MUL PUSH1 0x20 ADD ADD MLOAD PUSH1 0x40 MLOAD PUSH2 0x258E SWAP2 SWAP1 PUSH2 0x3DC0 JUMP JUMPDEST SWAP1 DUP2 MSTORE PUSH1 0x20 ADD PUSH1 0x40 MLOAD DUP1 SWAP2 SUB SWAP1 KECCAK256 PUSH1 0x5 ADD DUP2 SWAP1 SSTORE POP DUP7 DUP2 DUP2 MLOAD DUP2 LT PUSH2 0x25B5 JUMPI PUSH2 0x25B5 PUSH2 0x3CE6 JUMP JUMPDEST PUSH1 0x20 MUL PUSH1 0x20 ADD ADD MLOAD DUP3 PUSH2 0x25C8 SWAP2 SWAP1 PUSH2 0x3CD3 JUMP JUMPDEST SWAP2 POP PUSH1 0x1 ADD PUSH2 0x23ED JUMP JUMPDEST POP PUSH3 0x989680 DUP2 EQ PUSH2 0x2617 JUMPI PUSH1 0x40 MLOAD PUSH3 0x461BCD PUSH1 0xE5 SHL DUP2 MSTORE PUSH1 0x20 PUSH1 0x4 DUP3 ADD MSTORE PUSH1 0xF PUSH1 0x24 DUP3 ADD MSTORE PUSH15 0x496E76616C69642052657761726473 PUSH1 0x88 SHL PUSH1 0x44 DUP3 ADD MSTORE PUSH1 0x64 ADD PUSH2 0x962 JUMP JUMPDEST POP DUP1 ISZERO PUSH2 0x265D JUMPI PUSH0 DUP1 SLOAD PUSH2 0xFF00 NOT AND SWAP1 SSTORE PUSH1 0x40 MLOAD PUSH1 0x1 DUP2 MSTORE PUSH32 0x7F26B83FF96E1F2B6A682F133852F6798A09C465DA95921460CEFB3847402498 SWAP1 PUSH1 0x20 ADD PUSH1 0x40 MLOAD DUP1 SWAP2 SUB SWAP1 LOG1 JUMPDEST POP POP POP POP POP POP POP POP POP POP JUMP JUMPDEST PUSH2 0x2673 DUP2 CALLER PUSH2 0x32B2 JUMP JUMPDEST POP JUMP JUMPDEST PUSH1 0x33 SLOAD PUSH1 0xFF AND ISZERO PUSH2 0x26BC JUMPI PUSH1 0x40 MLOAD PUSH3 0x461BCD PUSH1 0xE5 SHL DUP2 MSTORE PUSH1 0x20 PUSH1 0x4 DUP3 ADD MSTORE PUSH1 0x10 PUSH1 0x24 DUP3 ADD MSTORE PUSH16 0x14185D5CD8589B194E881C185D5CD959 PUSH1 0x82 SHL PUSH1 0x44 DUP3 ADD MSTORE PUSH1 0x64 ADD PUSH2 0x962 JUMP JUMPDEST JUMP JUMPDEST PUSH2 0x26C8 DUP3 DUP3 PUSH2 0x1E1A JUMP JUMPDEST PUSH2 0xC34 JUMPI PUSH0 DUP3 DUP2 MSTORE PUSH1 0x97 PUSH1 0x20 SWAP1 DUP2 MSTORE PUSH1 0x40 DUP1 DUP4 KECCAK256 PUSH1 0x1 PUSH1 0x1 PUSH1 0xA0 SHL SUB DUP6 AND DUP5 MSTORE SWAP1 SWAP2 MSTORE SWAP1 KECCAK256 DUP1 SLOAD PUSH1 0xFF NOT AND PUSH1 0x1 OR SWAP1 SSTORE PUSH2 0x26FF CALLER SWAP1 JUMP JUMPDEST PUSH1 0x1 PUSH1 0x1 PUSH1 0xA0 SHL SUB AND DUP2 PUSH1 0x1 PUSH1 0x1 PUSH1 0xA0 SHL SUB AND DUP4 PUSH32 0x2F8788117E7EFF1D82E926EC794901D17C78024A50270940304540A733656F0D PUSH1 0x40 MLOAD PUSH1 0x40 MLOAD DUP1 SWAP2 SUB SWAP1 LOG4 POP POP JUMP JUMPDEST PUSH2 0x274D DUP3 DUP3 PUSH2 0x1E1A JUMP JUMPDEST ISZERO PUSH2 0xC34 JUMPI PUSH0 DUP3 DUP2 MSTORE PUSH1 0x97 PUSH1 0x20 SWAP1 DUP2 MSTORE PUSH1 0x40 DUP1 DUP4 KECCAK256 PUSH1 0x1 PUSH1 0x1 PUSH1 0xA0 SHL SUB DUP6 AND DUP1 DUP6 MSTORE SWAP3 MSTORE DUP1 DUP4 KECCAK256 DUP1 SLOAD PUSH1 0xFF NOT AND SWAP1 SSTORE MLOAD CALLER SWAP3 DUP6 SWAP2 PUSH32 0xF6391F5C32D9C69D2A47EA670B442974B53935D1EDC7FD64EB21E047A839171B SWAP2 SWAP1 LOG4 POP POP JUMP JUMPDEST CALLER PUSH0 SWAP1 DUP2 MSTORE PUSH1 0xD6 PUSH1 0x20 SWAP1 DUP2 MSTORE PUSH1 0x40 DUP1 DUP4 KECCAK256 SLOAD PUSH1 0xD5 SWAP1 SWAP3 MSTORE DUP3 KECCAK256 SLOAD GT ISZERO PUSH2 0x2807 JUMPI CALLER PUSH0 SWAP1 DUP2 MSTORE PUSH1 0xD5 PUSH1 0x20 SWAP1 DUP2 MSTORE PUSH1 0x40 DUP1 DUP4 KECCAK256 PUSH1 0xD6 SWAP1 SWAP3 MSTORE SWAP1 SWAP2 KECCAK256 SLOAD DUP2 SLOAD PUSH2 0x2807 SWAP3 SWAP2 SWAP1 DUP2 LT PUSH2 0x27F9 JUMPI PUSH2 0x27F9 PUSH2 0x3CE6 JUMP JUMPDEST SWAP1 PUSH0 MSTORE PUSH1 0x20 PUSH0 KECCAK256 ADD SLOAD PUSH2 0x330B JUMP JUMPDEST PUSH2 0x280F PUSH2 0x33F7 JUMP JUMPDEST POP CALLER PUSH0 SWAP1 DUP2 MSTORE PUSH1 0xD7 PUSH1 0x20 MSTORE PUSH1 0x40 SWAP1 KECCAK256 SLOAD DUP1 PUSH2 0x2876 JUMPI PUSH1 0x40 MLOAD PUSH3 0x461BCD PUSH1 0xE5 SHL DUP2 MSTORE PUSH1 0x20 PUSH1 0x4 DUP3 ADD MSTORE PUSH1 0x21 PUSH1 0x24 DUP3 ADD MSTORE PUSH32 0x4E6F207265776172647320617661696C61626C6520666F7220636C61696D696E PUSH1 0x44 DUP3 ADD MSTORE PUSH1 0x67 PUSH1 0xF8 SHL PUSH1 0x64 DUP3 ADD MSTORE PUSH1 0x84 ADD PUSH2 0x962 JUMP JUMPDEST CALLER PUSH0 SWAP1 DUP2 MSTORE PUSH1 0xD7 PUSH1 0x20 MSTORE PUSH1 0x40 DUP2 KECCAK256 SSTORE SWAP1 JUMP JUMPDEST PUSH0 DUP3 DUP2 MSTORE PUSH1 0xDA PUSH1 0x20 MSTORE PUSH1 0x40 DUP2 KECCAK256 DUP1 SLOAD DUP3 SWAP2 SWAP1 PUSH2 0x28A3 SWAP1 PUSH2 0x3D2D JUMP JUMPDEST DUP1 PUSH1 0x1F ADD PUSH1 0x20 DUP1 SWAP2 DIV MUL PUSH1 0x20 ADD PUSH1 0x40 MLOAD SWAP1 DUP2 ADD PUSH1 0x40 MSTORE DUP1 SWAP3 SWAP2 SWAP1 DUP2 DUP2 MSTORE PUSH1 0x20 ADD DUP3 DUP1 SLOAD PUSH2 0x28CF SWAP1 PUSH2 0x3D2D JUMP JUMPDEST DUP1 ISZERO PUSH2 0x291A JUMPI DUP1 PUSH1 0x1F LT PUSH2 0x28F1 JUMPI PUSH2 0x100 DUP1 DUP4 SLOAD DIV MUL DUP4 MSTORE SWAP2 PUSH1 0x20 ADD SWAP2 PUSH2 0x291A JUMP JUMPDEST DUP3 ADD SWAP2 SWAP1 PUSH0 MSTORE PUSH1 0x20 PUSH0 KECCAK256 SWAP1 JUMPDEST DUP2 SLOAD DUP2 MSTORE SWAP1 PUSH1 0x1 ADD SWAP1 PUSH1 0x20 ADD DUP1 DUP4 GT PUSH2 0x28FD JUMPI DUP3 SWAP1 SUB PUSH1 0x1F AND DUP3 ADD SWAP2 JUMPDEST POP POP POP PUSH0 DUP8 DUP2 MSTORE PUSH1 0xDA PUSH1 0x20 MSTORE PUSH1 0x40 DUP2 KECCAK256 PUSH1 0xA ADD SLOAD SWAP4 SWAP5 POP SWAP3 PUSH2 0x293F SWAP3 POP DUP7 SWAP2 POP PUSH2 0x3C8A JUMP JUMPDEST PUSH0 DUP7 DUP2 MSTORE PUSH1 0xDA PUSH1 0x20 MSTORE PUSH1 0x40 SWAP1 KECCAK256 PUSH1 0x1 ADD SLOAD PUSH2 0x295A SWAP2 SWAP1 PUSH2 0x3C8A JUMP JUMPDEST SWAP1 POP PUSH3 0x989680 PUSH1 0xDB PUSH0 DUP9 DUP2 MSTORE PUSH1 0x20 ADD SWAP1 DUP2 MSTORE PUSH1 0x20 ADD PUSH0 KECCAK256 PUSH1 0x3 ADD DUP4 PUSH1 0x40 MLOAD PUSH2 0x2982 SWAP2 SWAP1 PUSH2 0x3DC0 JUMP JUMPDEST SWAP1 DUP2 MSTORE PUSH1 0x20 ADD PUSH1 0x40 MLOAD DUP1 SWAP2 SUB SWAP1 KECCAK256 SLOAD DUP3 PUSH1 0xD9 DUP6 PUSH1 0x40 MLOAD PUSH2 0x29A2 SWAP2 SWAP1 PUSH2 0x3DC0 JUMP JUMPDEST SWAP1 DUP2 MSTORE PUSH1 0x20 ADD PUSH1 0x40 MLOAD DUP1 SWAP2 SUB SWAP1 KECCAK256 PUSH1 0x2 ADD SLOAD PUSH1 0xDB PUSH0 DUP12 DUP2 MSTORE PUSH1 0x20 ADD SWAP1 DUP2 MSTORE PUSH1 0x20 ADD PUSH0 KECCAK256 PUSH1 0x2 ADD SLOAD PUSH2 0x29D3 SWAP2 SWAP1 PUSH2 0x3CBC JUMP JUMPDEST PUSH2 0x29DD SWAP2 SWAP1 PUSH2 0x3CBC JUMP JUMPDEST PUSH2 0x29E7 SWAP2 SWAP1 PUSH2 0x3C9D JUMP JUMPDEST PUSH2 0x29F1 SWAP2 SWAP1 PUSH2 0x3C9D JUMP JUMPDEST SWAP7 SWAP6 POP POP POP POP POP POP JUMP JUMPDEST PUSH1 0xCF SLOAD DUP3 LT ISZERO PUSH2 0x2A1D JUMPI PUSH1 0x40 MLOAD PUSH3 0x461BCD PUSH1 0xE5 SHL DUP2 MSTORE PUSH1 0x4 ADD PUSH2 0x962 SWAP1 PUSH2 0x3E67 JUMP JUMPDEST PUSH0 DUP2 DUP2 MSTORE PUSH1 0xDA PUSH1 0x20 MSTORE PUSH1 0x40 DUP2 KECCAK256 DUP1 SLOAD PUSH2 0x2A35 SWAP1 PUSH2 0x3D2D JUMP JUMPDEST DUP1 PUSH1 0x1F ADD PUSH1 0x20 DUP1 SWAP2 DIV MUL PUSH1 0x20 ADD PUSH1 0x40 MLOAD SWAP1 DUP2 ADD PUSH1 0x40 MSTORE DUP1 SWAP3 SWAP2 SWAP1 DUP2 DUP2 MSTORE PUSH1 0x20 ADD DUP3 DUP1 SLOAD PUSH2 0x2A61 SWAP1 PUSH2 0x3D2D JUMP JUMPDEST DUP1 ISZERO PUSH2 0x2AAC JUMPI DUP1 PUSH1 0x1F LT PUSH2 0x2A83 JUMPI PUSH2 0x100 DUP1 DUP4 SLOAD DIV MUL DUP4 MSTORE SWAP2 PUSH1 0x20 ADD SWAP2 PUSH2 0x2AAC JUMP JUMPDEST DUP3 ADD SWAP2 SWAP1 PUSH0 MSTORE PUSH1 0x20 PUSH0 KECCAK256 SWAP1 JUMPDEST DUP2 SLOAD DUP2 MSTORE SWAP1 PUSH1 0x1 ADD SWAP1 PUSH1 0x20 ADD DUP1 DUP4 GT PUSH2 0x2A8F JUMPI DUP3 SWAP1 SUB PUSH1 0x1F AND DUP3 ADD SWAP2 JUMPDEST POP POP POP POP POP SWAP1 POP PUSH1 0xD9 DUP2 PUSH1 0x40 MLOAD PUSH2 0x2AC3 SWAP2 SWAP1 PUSH2 0x3DC0 JUMP JUMPDEST SWAP1 DUP2 MSTORE PUSH1 0x40 MLOAD SWAP1 DUP2 SWAP1 SUB PUSH1 0x20 ADD SWAP1 KECCAK256 SLOAD PUSH1 0xFF AND PUSH2 0x2B22 JUMPI PUSH1 0x40 MLOAD PUSH3 0x461BCD PUSH1 0xE5 SHL DUP2 MSTORE PUSH1 0x20 PUSH1 0x4 DUP3 ADD MSTORE PUSH1 0x1A PUSH1 0x24 DUP3 ADD MSTORE PUSH32 0x506F6F6C2069732063757272656E746C792064697361626C6564000000000000 PUSH1 0x44 DUP3 ADD MSTORE PUSH1 0x64 ADD PUSH2 0x962 JUMP JUMPDEST PUSH0 DUP3 DUP2 MSTORE PUSH1 0xDA PUSH1 0x20 MSTORE PUSH1 0x40 SWAP1 KECCAK256 PUSH1 0x2 ADD SLOAD PUSH1 0xFF AND ISZERO PUSH2 0x2B48 JUMPI PUSH2 0x2B43 PUSH2 0x33F7 JUMP JUMPDEST PUSH2 0x2B51 JUMP JUMPDEST PUSH2 0x2B51 DUP3 PUSH2 0x330B JUMP JUMPDEST PUSH0 PUSH2 0x2B5C DUP5 DUP4 PUSH2 0x1EB4 JUMP JUMPDEST PUSH1 0xCA SLOAD PUSH1 0x40 MLOAD PUSH4 0x40C10F19 PUSH1 0xE0 SHL DUP2 MSTORE CALLER PUSH1 0x4 DUP3 ADD MSTORE PUSH1 0x24 DUP2 ADD DUP4 SWAP1 MSTORE SWAP2 SWAP3 POP PUSH1 0x1 PUSH1 0x1 PUSH1 0xA0 SHL SUB AND SWAP1 PUSH4 0x40C10F19 SWAP1 PUSH1 0x44 ADD PUSH0 PUSH1 0x40 MLOAD DUP1 DUP4 SUB DUP2 PUSH0 DUP8 DUP1 EXTCODESIZE ISZERO DUP1 ISZERO PUSH2 0x2BA6 JUMPI PUSH0 PUSH0 REVERT JUMPDEST POP GAS CALL ISZERO DUP1 ISZERO PUSH2 0x2BB8 JUMPI RETURNDATASIZE PUSH0 PUSH0 RETURNDATACOPY RETURNDATASIZE PUSH0 REVERT JUMPDEST POP POP POP PUSH0 DUP5 DUP2 MSTORE PUSH1 0xDA PUSH1 0x20 MSTORE PUSH1 0x40 DUP2 KECCAK256 PUSH1 0x1 ADD DUP1 SLOAD DUP8 SWAP4 POP SWAP1 SWAP2 SWAP1 PUSH2 0x2BDE SWAP1 DUP5 SWAP1 PUSH2 0x3CD3 JUMP JUMPDEST SWAP1 SWAP2 SSTORE POP POP PUSH0 DUP4 DUP2 MSTORE PUSH1 0xDA PUSH1 0x20 MSTORE PUSH1 0x40 DUP2 KECCAK256 PUSH1 0x6 ADD DUP1 SLOAD DUP4 SWAP3 SWAP1 PUSH2 0x2C03 SWAP1 DUP5 SWAP1 PUSH2 0x3CD3 JUMP JUMPDEST SWAP1 SWAP2 SSTORE POP POP PUSH0 DUP4 DUP2 MSTORE PUSH1 0xDA PUSH1 0x20 MSTORE PUSH1 0x40 DUP2 KECCAK256 PUSH1 0xA ADD DUP1 SLOAD DUP7 SWAP3 SWAP1 PUSH2 0x2C28 SWAP1 DUP5 SWAP1 PUSH2 0x3CD3 JUMP JUMPDEST SWAP1 SWAP2 SSTORE POP PUSH0 SWAP1 POP PUSH2 0x2C37 PUSH2 0x1EF8 JUMP JUMPDEST PUSH0 DUP6 DUP2 MSTORE PUSH1 0xDA PUSH1 0x20 MSTORE PUSH1 0x40 SWAP1 KECCAK256 PUSH1 0x9 DUP2 ADD SLOAD PUSH1 0x8 SWAP1 SWAP2 ADD DUP3 SWAP1 SSTORE SWAP1 SWAP2 POP DUP2 DUP2 LT ISZERO DUP1 PUSH2 0x2C73 JUMPI POP PUSH0 DUP6 DUP2 MSTORE PUSH1 0xDA PUSH1 0x20 MSTORE PUSH1 0x40 SWAP1 KECCAK256 PUSH1 0x2 ADD SLOAD PUSH1 0xFF AND JUMPDEST ISZERO PUSH2 0x2D5A JUMPI DUP6 PUSH1 0xDB PUSH0 DUP5 DUP2 MSTORE PUSH1 0x20 ADD SWAP1 DUP2 MSTORE PUSH1 0x20 ADD PUSH0 KECCAK256 PUSH1 0x4 ADD DUP6 PUSH1 0x40 MLOAD PUSH2 0x2C9B SWAP2 SWAP1 PUSH2 0x3DC0 JUMP JUMPDEST SWAP1 DUP2 MSTORE PUSH1 0x20 ADD PUSH1 0x40 MLOAD DUP1 SWAP2 SUB SWAP1 KECCAK256 PUSH0 DUP3 DUP3 SLOAD PUSH2 0x2CB7 SWAP2 SWAP1 PUSH2 0x3CD3 JUMP JUMPDEST SWAP1 SWAP2 SSTORE POP POP PUSH0 DUP2 DUP2 MSTORE PUSH1 0xDB PUSH1 0x20 MSTORE PUSH1 0x40 SWAP1 DUP2 SWAP1 KECCAK256 SWAP1 MLOAD DUP8 SWAP2 PUSH1 0x5 ADD SWAP1 PUSH2 0x2CDE SWAP1 DUP8 SWAP1 PUSH2 0x3DC0 JUMP JUMPDEST SWAP1 DUP2 MSTORE PUSH1 0x20 ADD PUSH1 0x40 MLOAD DUP1 SWAP2 SUB SWAP1 KECCAK256 PUSH0 DUP3 DUP3 SLOAD PUSH2 0x2CFA SWAP2 SWAP1 PUSH2 0x3CD3 JUMP JUMPDEST SWAP1 SWAP2 SSTORE POP POP PUSH0 DUP3 DUP2 MSTORE PUSH1 0xDB PUSH1 0x20 MSTORE PUSH1 0x40 SWAP1 KECCAK256 SLOAD PUSH1 0xFF AND ISZERO PUSH2 0x2D5A JUMPI DUP6 PUSH1 0xDB PUSH0 DUP5 DUP2 MSTORE PUSH1 0x20 ADD SWAP1 DUP2 MSTORE PUSH1 0x20 ADD PUSH0 KECCAK256 PUSH1 0x3 ADD DUP6 PUSH1 0x40 MLOAD PUSH2 0x2D38 SWAP2 SWAP1 PUSH2 0x3DC0 JUMP JUMPDEST SWAP1 DUP2 MSTORE PUSH1 0x20 ADD PUSH1 0x40 MLOAD DUP1 SWAP2 SUB SWAP1 KECCAK256 PUSH0 DUP3 DUP3 SLOAD PUSH2 0x2D54 SWAP2 SWAP1 PUSH2 0x3CD3 JUMP JUMPDEST SWAP1 SWAP2 SSTORE POP POP JUMPDEST POP PUSH0 SWAP4 DUP5 MSTORE PUSH1 0xDA PUSH1 0x20 SWAP1 DUP2 MSTORE PUSH1 0x40 DUP1 DUP7 KECCAK256 PUSH1 0xA DUP2 ADD SLOAD SWAP4 DUP8 MSTORE PUSH1 0xB ADD SWAP1 SWAP2 MSTORE SWAP1 SWAP4 KECCAK256 SWAP3 SWAP1 SWAP3 SSTORE POP POP POP JUMP JUMPDEST PUSH1 0xD9 DUP3 PUSH1 0x40 MLOAD PUSH2 0x2D95 SWAP2 SWAP1 PUSH2 0x3DC0 JUMP JUMPDEST SWAP1 DUP2 MSTORE PUSH1 0x40 MLOAD SWAP1 DUP2 SWAP1 SUB PUSH1 0x20 ADD SWAP1 KECCAK256 SLOAD PUSH1 0xFF AND PUSH2 0x2E07 JUMPI PUSH1 0x40 MLOAD PUSH3 0x461BCD PUSH1 0xE5 SHL DUP2 MSTORE PUSH1 0x20 PUSH1 0x4 DUP3 ADD MSTORE PUSH1 0x2A PUSH1 0x24 DUP3 ADD MSTORE PUSH32 0x546865205F706F6F6C4E616D65206973206E6F7420617661696C61626C652066 PUSH1 0x44 DUP3 ADD MSTORE PUSH10 0x6F72207374616B696E67 PUSH1 0xB0 SHL PUSH1 0x64 DUP3 ADD MSTORE PUSH1 0x84 ADD PUSH2 0x962 JUMP JUMPDEST PUSH1 0xCC DUP1 SLOAD SWAP1 PUSH0 PUSH2 0x2E16 DUP4 PUSH2 0x3D15 JUMP JUMPDEST SWAP2 SWAP1 POP SSTORE POP PUSH0 PUSH1 0xD9 DUP4 PUSH1 0x40 MLOAD PUSH2 0x2E2C SWAP2 SWAP1 PUSH2 0x3DC0 JUMP JUMPDEST SWAP1 DUP2 MSTORE PUSH1 0x20 ADD PUSH1 0x40 MLOAD DUP1 SWAP2 SUB SWAP1 KECCAK256 PUSH1 0x5 ADD SLOAD DUP3 PUSH2 0x2E49 SWAP2 SWAP1 PUSH2 0x3CD3 JUMP JUMPDEST SWAP1 POP PUSH0 PUSH2 0x2E56 DUP7 DUP9 PUSH2 0x3CD3 JUMP JUMPDEST SWAP1 POP PUSH0 PUSH2 0x2E63 DUP3 DUP7 PUSH2 0x1EB4 JUMP JUMPDEST SWAP1 POP DUP6 DUP2 GT ISZERO PUSH2 0x2EE3 JUMPI PUSH1 0xCA SLOAD PUSH1 0x1 PUSH1 0x1 PUSH1 0xA0 SHL SUB AND PUSH4 0x40C10F19 CALLER PUSH2 0x2E89 DUP10 DUP6 PUSH2 0x3C8A JUMP JUMPDEST PUSH1 0x40 MLOAD PUSH1 0x1 PUSH1 0x1 PUSH1 0xE0 SHL SUB NOT PUSH1 0xE0 DUP6 SWAP1 SHL AND DUP2 MSTORE PUSH1 0x1 PUSH1 0x1 PUSH1 0xA0 SHL SUB SWAP1 SWAP3 AND PUSH1 0x4 DUP4 ADD MSTORE PUSH1 0x24 DUP3 ADD MSTORE PUSH1 0x44 ADD PUSH0 PUSH1 0x40 MLOAD DUP1 DUP4 SUB DUP2 PUSH0 DUP8 DUP1 EXTCODESIZE ISZERO DUP1 ISZERO PUSH2 0x2ECC JUMPI PUSH0 PUSH0 REVERT JUMPDEST POP GAS CALL ISZERO DUP1 ISZERO PUSH2 0x2EDE JUMPI RETURNDATASIZE PUSH0 PUSH0 RETURNDATACOPY RETURNDATASIZE PUSH0 REVERT JUMPDEST POP POP POP POP JUMPDEST PUSH1 0xD9 DUP6 PUSH1 0x40 MLOAD PUSH2 0x2EF3 SWAP2 SWAP1 PUSH2 0x3DC0 JUMP JUMPDEST SWAP1 DUP2 MSTORE PUSH1 0x20 ADD PUSH1 0x40 MLOAD DUP1 SWAP2 SUB SWAP1 KECCAK256 PUSH1 0x3 ADD SLOAD PUSH0 EQ PUSH2 0x30A0 JUMPI PUSH2 0x2F14 CALLER PUSH2 0x830 JUMP JUMPDEST ISZERO PUSH2 0x2F61 JUMPI PUSH1 0x40 MLOAD PUSH3 0x461BCD PUSH1 0xE5 SHL DUP2 MSTORE PUSH1 0x20 PUSH1 0x4 DUP3 ADD MSTORE PUSH1 0x1C PUSH1 0x24 DUP3 ADD MSTORE PUSH32 0x54696D6562617365206C6F636B20616C72656164792065786973747300000000 PUSH1 0x44 DUP3 ADD MSTORE PUSH1 0x64 ADD PUSH2 0x962 JUMP JUMPDEST CALLER PUSH0 SWAP1 DUP2 MSTORE PUSH1 0xD4 PUSH1 0x20 SWAP1 DUP2 MSTORE PUSH1 0x40 DUP1 DUP4 KECCAK256 PUSH1 0xCC SLOAD DUP2 SLOAD PUSH1 0x1 DUP2 ADD DUP4 SSTORE SWAP2 DUP6 MSTORE SWAP3 DUP5 KECCAK256 ADD SWAP2 SWAP1 SWAP2 SSTORE MLOAD PUSH1 0xD9 SWAP1 PUSH2 0x2F97 SWAP1 DUP9 SWAP1 PUSH2 0x3DC0 JUMP JUMPDEST SWAP1 DUP2 MSTORE PUSH1 0x20 ADD PUSH1 0x40 MLOAD DUP1 SWAP2 SUB SWAP1 KECCAK256 PUSH1 0x2 ADD SLOAD GT ISZERO PUSH2 0x2FD6 JUMPI CALLER PUSH0 SWAP1 DUP2 MSTORE PUSH1 0xD5 PUSH1 0x20 SWAP1 DUP2 MSTORE PUSH1 0x40 DUP3 KECCAK256 PUSH1 0xCC SLOAD DUP2 SLOAD PUSH1 0x1 DUP2 ADD DUP4 SSTORE SWAP2 DUP5 MSTORE SWAP2 SWAP1 SWAP3 KECCAK256 SWAP1 SWAP2 ADD SSTORE JUMPDEST DUP8 ISZERO PUSH2 0x3056 JUMPI PUSH1 0xC9 SLOAD PUSH1 0x40 MLOAD PUSH4 0x23B872DD PUSH1 0xE0 SHL DUP2 MSTORE CALLER PUSH1 0x4 DUP3 ADD MSTORE ADDRESS PUSH1 0x24 DUP3 ADD MSTORE PUSH1 0x44 DUP2 ADD DUP11 SWAP1 MSTORE PUSH1 0x1 PUSH1 0x1 PUSH1 0xA0 SHL SUB SWAP1 SWAP2 AND SWAP1 PUSH4 0x23B872DD SWAP1 PUSH1 0x64 ADD PUSH1 0x20 PUSH1 0x40 MLOAD DUP1 DUP4 SUB DUP2 PUSH0 DUP8 GAS CALL ISZERO DUP1 ISZERO PUSH2 0x3030 JUMPI RETURNDATASIZE PUSH0 PUSH0 RETURNDATACOPY RETURNDATASIZE PUSH0 REVERT JUMPDEST POP POP POP POP PUSH1 0x40 MLOAD RETURNDATASIZE PUSH1 0x1F NOT PUSH1 0x1F DUP3 ADD AND DUP3 ADD DUP1 PUSH1 0x40 MSTORE POP DUP2 ADD SWAP1 PUSH2 0x3054 SWAP2 SWAP1 PUSH2 0x3CFA JUMP JUMPDEST POP JUMPDEST DUP2 PUSH1 0xDB PUSH0 DUP6 DUP2 MSTORE PUSH1 0x20 ADD SWAP1 DUP2 MSTORE PUSH1 0x20 ADD PUSH0 KECCAK256 PUSH1 0x5 ADD DUP7 PUSH1 0x40 MLOAD PUSH2 0x3079 SWAP2 SWAP1 PUSH2 0x3DC0 JUMP JUMPDEST SWAP1 DUP2 MSTORE PUSH1 0x20 ADD PUSH1 0x40 MLOAD DUP1 SWAP2 SUB SWAP1 KECCAK256 PUSH0 DUP3 DUP3 SLOAD PUSH2 0x3095 SWAP2 SWAP1 PUSH2 0x3CD3 JUMP JUMPDEST SWAP1 SWAP2 SSTORE POP PUSH2 0x312A SWAP1 POP JUMP JUMPDEST CALLER PUSH0 SWAP1 DUP2 MSTORE PUSH1 0xD8 PUSH1 0x20 MSTORE PUSH1 0x40 SWAP1 KECCAK256 SLOAD ISZERO PUSH2 0x30FC JUMPI PUSH1 0x40 MLOAD PUSH3 0x461BCD PUSH1 0xE5 SHL DUP2 MSTORE PUSH1 0x20 PUSH1 0x4 DUP3 ADD MSTORE PUSH1 0x1B PUSH1 0x24 DUP3 ADD MSTORE PUSH32 0x466F7265766572206C6F636B20616C7265616479206578697374730000000000 PUSH1 0x44 DUP3 ADD MSTORE PUSH1 0x64 ADD PUSH2 0x962 JUMP JUMPDEST PUSH1 0xCC SLOAD CALLER PUSH0 SWAP1 DUP2 MSTORE PUSH1 0xD8 PUSH1 0x20 SWAP1 DUP2 MSTORE PUSH1 0x40 DUP1 DUP4 KECCAK256 DUP5 SWAP1 SSTORE SWAP3 DUP3 MSTORE PUSH1 0xDA SWAP1 MSTORE KECCAK256 PUSH1 0x2 ADD DUP1 SLOAD PUSH1 0xFF NOT AND PUSH1 0x1 OR SWAP1 SSTORE JUMPDEST PUSH1 0xCC SLOAD PUSH0 SWAP1 DUP2 MSTORE PUSH1 0xDA PUSH1 0x20 MSTORE PUSH1 0x40 SWAP1 KECCAK256 PUSH2 0x3144 DUP7 DUP3 PUSH2 0x3EF6 JUMP JUMPDEST POP PUSH1 0xCC SLOAD PUSH0 SWAP1 DUP2 MSTORE PUSH1 0xDA PUSH1 0x20 MSTORE PUSH1 0x40 SWAP1 DUP2 SWAP1 KECCAK256 PUSH1 0x1 ADD DUP4 SWAP1 SSTORE MLOAD PUSH1 0xD9 SWAP1 PUSH2 0x316C SWAP1 DUP8 SWAP1 PUSH2 0x3DC0 JUMP JUMPDEST SWAP1 DUP2 MSTORE PUSH1 0x40 DUP1 MLOAD SWAP2 DUP3 SWAP1 SUB PUSH1 0x20 SWAP1 DUP2 ADD DUP4 KECCAK256 PUSH1 0x3 SWAP1 DUP2 ADD SLOAD PUSH1 0xCC DUP1 SLOAD PUSH0 SWAP1 DUP2 MSTORE PUSH1 0xDA SWAP1 SWAP5 MSTORE DUP5 DUP5 KECCAK256 SWAP1 SWAP3 ADD SSTORE SLOAD DUP2 MSTORE KECCAK256 TIMESTAMP PUSH1 0x4 SWAP1 SWAP2 ADD SSTORE PUSH1 0xD9 SWAP1 PUSH2 0x31B1 SWAP1 DUP8 SWAP1 PUSH2 0x3DC0 JUMP JUMPDEST SWAP1 DUP2 MSTORE PUSH1 0x20 ADD PUSH1 0x40 MLOAD DUP1 SWAP2 SUB SWAP1 KECCAK256 PUSH1 0x3 ADD SLOAD TIMESTAMP PUSH2 0x31CE SWAP2 SWAP1 PUSH2 0x3CD3 JUMP JUMPDEST PUSH1 0xCC DUP1 SLOAD PUSH0 SWAP1 DUP2 MSTORE PUSH1 0xDA PUSH1 0x20 SWAP1 DUP2 MSTORE PUSH1 0x40 DUP1 DUP4 KECCAK256 PUSH1 0x5 ADD SWAP5 SWAP1 SWAP5 SSTORE DUP3 SLOAD DUP3 MSTORE DUP4 DUP3 KECCAK256 PUSH1 0x6 ADD DUP6 SWAP1 SSTORE DUP3 SLOAD DUP3 MSTORE DUP4 DUP3 KECCAK256 PUSH1 0x2 ADD DUP1 SLOAD PUSH2 0xFF00 NOT AND PUSH2 0x100 OR SWAP1 SSTORE DUP3 SLOAD DUP3 MSTORE DUP4 DUP3 KECCAK256 PUSH1 0x8 ADD DUP9 SWAP1 SSTORE SWAP2 SLOAD DUP2 MSTORE DUP3 DUP2 KECCAK256 PUSH1 0x9 ADD DUP7 SWAP1 SSTORE DUP7 DUP2 MSTORE PUSH1 0xDB SWAP1 SWAP2 MSTORE DUP2 SWAP1 KECCAK256 SWAP1 MLOAD DUP4 SWAP2 PUSH1 0x4 ADD SWAP1 PUSH2 0x3245 SWAP1 DUP9 SWAP1 PUSH2 0x3DC0 JUMP JUMPDEST SWAP1 DUP2 MSTORE PUSH1 0x20 ADD PUSH1 0x40 MLOAD DUP1 SWAP2 SUB SWAP1 KECCAK256 PUSH0 DUP3 DUP3 SLOAD PUSH2 0x3261 SWAP2 SWAP1 PUSH2 0x3CD3 JUMP JUMPDEST SWAP1 SWAP2 SSTORE POP POP PUSH1 0xCC SLOAD PUSH1 0x40 MLOAD CALLER SWAP2 SWAP1 PUSH32 0xE11027F9E3D7AA31B5D23503BE35FAEDE305799D8C9AB6C5B06FE0F28589906 SWAP1 PUSH2 0x32A0 SWAP1 DUP7 SWAP1 DUP11 SWAP1 DUP8 SWAP1 PUSH2 0x3FB0 JUMP JUMPDEST PUSH1 0x40 MLOAD DUP1 SWAP2 SUB SWAP1 LOG3 POP POP POP POP POP POP POP POP JUMP JUMPDEST PUSH2 0x32BC DUP3 DUP3 PUSH2 0x1E1A JUMP JUMPDEST PUSH2 0xC34 JUMPI PUSH2 0x32C9 DUP2 PUSH2 0x34B6 JUMP JUMPDEST PUSH2 0x32D4 DUP4 PUSH1 0x20 PUSH2 0x34C8 JUMP JUMPDEST PUSH1 0x40 MLOAD PUSH1 0x20 ADD PUSH2 0x32E5 SWAP3 SWAP2 SWAP1 PUSH2 0x3FD8 JUMP JUMPDEST PUSH1 0x40 DUP1 MLOAD PUSH1 0x1F NOT DUP2 DUP5 SUB ADD DUP2 MSTORE SWAP1 DUP3 SWAP1 MSTORE PUSH3 0x461BCD PUSH1 0xE5 SHL DUP3 MSTORE PUSH2 0x962 SWAP2 PUSH1 0x4 ADD PUSH2 0x39D5 JUMP JUMPDEST DUP1 ISZERO DUP1 ISZERO SWAP1 PUSH2 0x332F JUMPI POP PUSH0 DUP2 DUP2 MSTORE PUSH1 0xDA PUSH1 0x20 MSTORE PUSH1 0x40 SWAP1 KECCAK256 PUSH1 0x9 DUP2 ADD SLOAD PUSH1 0x8 SWAP1 SWAP2 ADD SLOAD LT JUMPDEST ISZERO PUSH2 0x2673 JUMPI PUSH0 PUSH0 PUSH2 0x3341 DUP4 PUSH1 0xA PUSH2 0xD82 JUMP JUMPDEST PUSH0 DUP7 DUP2 MSTORE PUSH1 0xDA PUSH1 0x20 MSTORE PUSH1 0x40 DUP2 KECCAK256 PUSH1 0x8 DUP2 ADD SWAP4 SWAP1 SWAP4 SSTORE PUSH1 0x7 SWAP1 SWAP3 ADD DUP1 SLOAD SWAP4 SWAP6 POP SWAP1 SWAP4 POP DUP5 SWAP3 SWAP1 SWAP2 SWAP1 PUSH2 0x3373 SWAP1 DUP5 SWAP1 PUSH2 0x3CD3 JUMP JUMPDEST SWAP1 SWAP2 SSTORE POP POP CALLER PUSH0 SWAP1 DUP2 MSTORE PUSH1 0xD7 PUSH1 0x20 MSTORE PUSH1 0x40 DUP2 KECCAK256 DUP1 SLOAD DUP5 SWAP3 SWAP1 PUSH2 0x3396 SWAP1 DUP5 SWAP1 PUSH2 0x3CD3 JUMP JUMPDEST SWAP1 SWAP2 SSTORE POP POP PUSH0 DUP4 DUP2 MSTORE PUSH1 0xDA PUSH1 0x20 DUP2 DUP2 MSTORE PUSH1 0x40 DUP1 DUP5 KECCAK256 PUSH1 0x8 DUP2 ADD DUP1 SLOAD DUP7 MSTORE PUSH1 0xB DUP3 ADD DUP5 MSTORE SWAP2 DUP6 KECCAK256 DUP7 SWAP1 SSTORE SWAP4 DUP8 SWAP1 MSTORE SWAP2 SWAP1 MSTORE PUSH1 0x9 SWAP1 SWAP2 ADD SLOAD SWAP1 SLOAD SUB PUSH2 0xBB5 JUMPI CALLER PUSH0 SWAP1 DUP2 MSTORE PUSH1 0xD6 PUSH1 0x20 MSTORE PUSH1 0x40 DUP2 KECCAK256 DUP1 SLOAD SWAP2 PUSH2 0x33ED DUP4 PUSH2 0x3D15 JUMP JUMPDEST SWAP2 SWAP1 POP SSTORE POP POP POP POP JUMP JUMPDEST CALLER PUSH0 SWAP1 DUP2 MSTORE PUSH1 0xD8 PUSH1 0x20 MSTORE PUSH1 0x40 SWAP1 KECCAK256 SLOAD DUP1 ISZERO DUP1 ISZERO SWAP1 PUSH2 0x3426 JUMPI POP PUSH1 0xCD SLOAD PUSH0 DUP3 DUP2 MSTORE PUSH1 0xDA PUSH1 0x20 MSTORE PUSH1 0x40 SWAP1 KECCAK256 PUSH1 0x8 ADD SLOAD LT JUMPDEST ISZERO PUSH2 0x2673 JUMPI PUSH0 PUSH0 PUSH2 0x3438 DUP4 PUSH1 0xA PUSH2 0xD82 JUMP JUMPDEST PUSH0 DUP7 DUP2 MSTORE PUSH1 0xDA PUSH1 0x20 MSTORE PUSH1 0x40 DUP2 KECCAK256 PUSH1 0x8 DUP2 ADD SWAP4 SWAP1 SWAP4 SSTORE PUSH1 0x7 SWAP1 SWAP3 ADD DUP1 SLOAD SWAP4 SWAP6 POP SWAP1 SWAP4 POP DUP5 SWAP3 SWAP1 SWAP2 SWAP1 PUSH2 0x346A SWAP1 DUP5 SWAP1 PUSH2 0x3CD3 JUMP JUMPDEST SWAP1 SWAP2 SSTORE POP POP CALLER PUSH0 SWAP1 DUP2 MSTORE PUSH1 0xD7 PUSH1 0x20 MSTORE PUSH1 0x40 DUP2 KECCAK256 DUP1 SLOAD DUP5 SWAP3 SWAP1 PUSH2 0x348D SWAP1 DUP5 SWAP1 PUSH2 0x3CD3 JUMP JUMPDEST SWAP1 SWAP2 SSTORE POP POP PUSH0 DUP4 DUP2 MSTORE PUSH1 0xDA PUSH1 0x20 SWAP1 DUP2 MSTORE PUSH1 0x40 DUP1 DUP4 KECCAK256 PUSH1 0x8 DUP2 ADD SLOAD DUP5 MSTORE PUSH1 0xB ADD SWAP1 SWAP2 MSTORE SWAP1 KECCAK256 SSTORE POP POP JUMP JUMPDEST PUSH1 0x60 PUSH2 0x740 PUSH1 0x1 PUSH1 0x1 PUSH1 0xA0 SHL SUB DUP4 AND PUSH1 0x14 JUMPDEST PUSH1 0x60 PUSH0 PUSH2 0x34D6 DUP4 PUSH1 0x2 PUSH2 0x3CBC JUMP JUMPDEST PUSH2 0x34E1 SWAP1 PUSH1 0x2 PUSH2 0x3CD3 JUMP JUMPDEST PUSH1 0x1 PUSH1 0x1 PUSH1 0x40 SHL SUB DUP2 GT ISZERO PUSH2 0x34F8 JUMPI PUSH2 0x34F8 PUSH2 0x38A0 JUMP JUMPDEST PUSH1 0x40 MLOAD SWAP1 DUP1 DUP3 MSTORE DUP1 PUSH1 0x1F ADD PUSH1 0x1F NOT AND PUSH1 0x20 ADD DUP3 ADD PUSH1 0x40 MSTORE DUP1 ISZERO PUSH2 0x3522 JUMPI PUSH1 0x20 DUP3 ADD DUP2 DUP1 CALLDATASIZE DUP4 CALLDATACOPY ADD SWAP1 POP JUMPDEST POP SWAP1 POP PUSH1 0x3 PUSH1 0xFC SHL DUP2 PUSH0 DUP2 MLOAD DUP2 LT PUSH2 0x353C JUMPI PUSH2 0x353C PUSH2 0x3CE6 JUMP JUMPDEST PUSH1 0x20 ADD ADD SWAP1 PUSH1 0x1 PUSH1 0x1 PUSH1 0xF8 SHL SUB NOT AND SWAP1 DUP2 PUSH0 BYTE SWAP1 MSTORE8 POP PUSH1 0xF PUSH1 0xFB SHL DUP2 PUSH1 0x1 DUP2 MLOAD DUP2 LT PUSH2 0x356A JUMPI PUSH2 0x356A PUSH2 0x3CE6 JUMP JUMPDEST PUSH1 0x20 ADD ADD SWAP1 PUSH1 0x1 PUSH1 0x1 PUSH1 0xF8 SHL SUB NOT AND SWAP1 DUP2 PUSH0 BYTE SWAP1 MSTORE8 POP PUSH0 PUSH2 0x358C DUP5 PUSH1 0x2 PUSH2 0x3CBC JUMP JUMPDEST PUSH2 0x3597 SWAP1 PUSH1 0x1 PUSH2 0x3CD3 JUMP JUMPDEST SWAP1 POP JUMPDEST PUSH1 0x1 DUP2 GT ISZERO PUSH2 0x360E JUMPI PUSH16 0x181899199A1A9B1B9C1CB0B131B232B3 PUSH1 0x81 SHL DUP6 PUSH1 0xF AND PUSH1 0x10 DUP2 LT PUSH2 0x35CB JUMPI PUSH2 0x35CB PUSH2 0x3CE6 JUMP JUMPDEST BYTE PUSH1 0xF8 SHL DUP3 DUP3 DUP2 MLOAD DUP2 LT PUSH2 0x35E1 JUMPI PUSH2 0x35E1 PUSH2 0x3CE6 JUMP JUMPDEST PUSH1 0x20 ADD ADD SWAP1 PUSH1 0x1 PUSH1 0x1 PUSH1 0xF8 SHL SUB NOT AND SWAP1 DUP2 PUSH0 BYTE SWAP1 MSTORE8 POP PUSH1 0x4 SWAP5 SWAP1 SWAP5 SHR SWAP4 PUSH2 0x3607 DUP2 PUSH2 0x402D JUMP JUMPDEST SWAP1 POP PUSH2 0x359A JUMP JUMPDEST POP DUP4 ISZERO PUSH2 0x1EF1 JUMPI PUSH1 0x40 MLOAD PUSH3 0x461BCD PUSH1 0xE5 SHL DUP2 MSTORE PUSH1 0x20 PUSH1 0x4 DUP3 ADD DUP2 SWAP1 MSTORE PUSH1 0x24 DUP3 ADD MSTORE PUSH32 0x537472696E67733A20686578206C656E67746820696E73756666696369656E74 PUSH1 0x44 DUP3 ADD MSTORE PUSH1 0x64 ADD PUSH2 0x962 JUMP JUMPDEST DUP3 DUP1 SLOAD DUP3 DUP3 SSTORE SWAP1 PUSH0 MSTORE PUSH1 0x20 PUSH0 KECCAK256 SWAP1 DUP2 ADD SWAP3 DUP3 ISZERO PUSH2 0x36A1 JUMPI SWAP2 PUSH1 0x20 MUL DUP3 ADD JUMPDEST DUP3 DUP2 GT ISZERO PUSH2 0x36A1 JUMPI DUP3 MLOAD DUP3 SWAP1 PUSH2 0x3691 SWAP1 DUP3 PUSH2 0x3EF6 JUMP JUMPDEST POP SWAP2 PUSH1 0x20 ADD SWAP2 SWAP1 PUSH1 0x1 ADD SWAP1 PUSH2 0x367B JUMP JUMPDEST POP PUSH2 0x36AD SWAP3 SWAP2 POP PUSH2 0x36B1 JUMP JUMPDEST POP SWAP1 JUMP JUMPDEST DUP1 DUP3 GT ISZERO PUSH2 0x36AD JUMPI PUSH0 PUSH2 0x36C4 DUP3 DUP3 PUSH2 0x36CD JUMP JUMPDEST POP PUSH1 0x1 ADD PUSH2 0x36B1 JUMP JUMPDEST POP DUP1 SLOAD PUSH2 0x36D9 SWAP1 PUSH2 0x3D2D JUMP JUMPDEST PUSH0 DUP3 SSTORE DUP1 PUSH1 0x1F LT PUSH2 0x36E8 JUMPI POP POP JUMP JUMPDEST PUSH1 0x1F ADD PUSH1 0x20 SWAP1 DIV SWAP1 PUSH0 MSTORE PUSH1 0x20 PUSH0 KECCAK256 SWAP1 DUP2 ADD SWAP1 PUSH2 0x2673 SWAP2 SWAP1 JUMPDEST DUP1 DUP3 GT ISZERO PUSH2 0x36AD JUMPI PUSH0 DUP2 SSTORE PUSH1 0x1 ADD PUSH2 0x3700 JUMP JUMPDEST DUP1 CALLDATALOAD PUSH1 0x1 PUSH1 0x1 PUSH1 0xA0 SHL SUB DUP2 AND DUP2 EQ PUSH2 0x3729 JUMPI PUSH0 PUSH0 REVERT JUMPDEST SWAP2 SWAP1 POP JUMP JUMPDEST PUSH0 PUSH1 0x20 DUP3 DUP5 SUB SLT ISZERO PUSH2 0x373E JUMPI PUSH0 PUSH0 REVERT JUMPDEST PUSH2 0x1EF1 DUP3 PUSH2 0x3713 JUMP JUMPDEST PUSH0 PUSH1 0x20 DUP3 DUP5 SUB SLT ISZERO PUSH2 0x3757 JUMPI PUSH0 PUSH0 REVERT JUMPDEST DUP2 CALLDATALOAD PUSH1 0x1 PUSH1 0x1 PUSH1 0xE0 SHL SUB NOT DUP2 AND DUP2 EQ PUSH2 0x1EF1 JUMPI PUSH0 PUSH0 REVERT JUMPDEST PUSH0 PUSH1 0x20 DUP3 DUP5 SUB SLT ISZERO PUSH2 0x377E JUMPI PUSH0 PUSH0 REVERT JUMPDEST POP CALLDATALOAD SWAP2 SWAP1 POP JUMP JUMPDEST PUSH0 PUSH0 PUSH1 0x40 DUP4 DUP6 SUB SLT ISZERO PUSH2 0x3796 JUMPI PUSH0 PUSH0 REVERT JUMPDEST POP POP DUP1 CALLDATALOAD SWAP3 PUSH1 0x20 SWAP1 SWAP2 ADD CALLDATALOAD SWAP2 POP JUMP JUMPDEST PUSH0 PUSH0 PUSH1 0x40 DUP4 DUP6 SUB SLT ISZERO PUSH2 0x37B6 JUMPI PUSH0 PUSH0 REVERT JUMPDEST DUP3 CALLDATALOAD SWAP2 POP PUSH2 0x37C6 PUSH1 0x20 DUP5 ADD PUSH2 0x3713 JUMP JUMPDEST SWAP1 POP SWAP3 POP SWAP3 SWAP1 POP JUMP JUMPDEST PUSH0 DUP2 MLOAD DUP1 DUP5 MSTORE DUP1 PUSH1 0x20 DUP5 ADD PUSH1 0x20 DUP7 ADD MCOPY PUSH0 PUSH1 0x20 DUP3 DUP7 ADD ADD MSTORE PUSH1 0x20 PUSH1 0x1F NOT PUSH1 0x1F DUP4 ADD AND DUP6 ADD ADD SWAP2 POP POP SWAP3 SWAP2 POP POP JUMP JUMPDEST PUSH2 0x180 DUP2 MSTORE PUSH0 PUSH2 0x3811 PUSH2 0x180 DUP4 ADD DUP16 PUSH2 0x37CF JUMP JUMPDEST PUSH1 0x20 DUP4 ADD SWAP14 SWAP1 SWAP14 MSTORE POP SWAP10 ISZERO ISZERO PUSH1 0x40 DUP12 ADD MSTORE SWAP8 ISZERO ISZERO PUSH1 0x60 DUP11 ADD MSTORE PUSH1 0x80 DUP10 ADD SWAP7 SWAP1 SWAP7 MSTORE PUSH1 0xA0 DUP9 ADD SWAP5 SWAP1 SWAP5 MSTORE PUSH1 0xC0 DUP8 ADD SWAP3 SWAP1 SWAP3 MSTORE PUSH1 0xE0 DUP7 ADD MSTORE PUSH2 0x100 DUP6 ADD MSTORE PUSH2 0x120 DUP5 ADD MSTORE PUSH2 0x140 DUP4 ADD MSTORE PUSH2 0x160 SWAP1 SWAP2 ADD MSTORE SWAP2 SWAP1 POP JUMP JUMPDEST DUP1 ISZERO ISZERO DUP2 EQ PUSH2 0x2673 JUMPI PUSH0 PUSH0 REVERT JUMPDEST PUSH0 PUSH0 PUSH1 0x40 DUP4 DUP6 SUB SLT ISZERO PUSH2 0x3883 JUMPI PUSH0 PUSH0 REVERT JUMPDEST DUP3 CALLDATALOAD SWAP2 POP PUSH1 0x20 DUP4 ADD CALLDATALOAD PUSH2 0x3895 DUP2 PUSH2 0x3865 JUMP JUMPDEST DUP1 SWAP2 POP POP SWAP3 POP SWAP3 SWAP1 POP JUMP JUMPDEST PUSH4 0x4E487B71 PUSH1 0xE0 SHL PUSH0 MSTORE PUSH1 0x41 PUSH1 0x4 MSTORE PUSH1 0x24 PUSH0 REVERT JUMPDEST PUSH1 0x40 MLOAD PUSH1 0x1F DUP3 ADD PUSH1 0x1F NOT AND DUP2 ADD PUSH1 0x1 PUSH1 0x1 PUSH1 0x40 SHL SUB DUP2 GT DUP3 DUP3 LT OR ISZERO PUSH2 0x38DC JUMPI PUSH2 0x38DC PUSH2 0x38A0 JUMP JUMPDEST PUSH1 0x40 MSTORE SWAP2 SWAP1 POP JUMP JUMPDEST PUSH0 DUP3 PUSH1 0x1F DUP4 ADD SLT PUSH2 0x38F3 JUMPI PUSH0 PUSH0 REVERT JUMPDEST DUP2 CALLDATALOAD PUSH1 0x1 PUSH1 0x1 PUSH1 0x40 SHL SUB DUP2 GT ISZERO PUSH2 0x390C JUMPI PUSH2 0x390C PUSH2 0x38A0 JUMP JUMPDEST PUSH2 0x391F PUSH1 0x1F DUP3 ADD PUSH1 0x1F NOT AND PUSH1 0x20 ADD PUSH2 0x38B4 JUMP JUMPDEST DUP2 DUP2 MSTORE DUP5 PUSH1 0x20 DUP4 DUP7 ADD ADD GT ISZERO PUSH2 0x3933 JUMPI PUSH0 PUSH0 REVERT JUMPDEST DUP2 PUSH1 0x20 DUP6 ADD PUSH1 0x20 DUP4 ADD CALLDATACOPY PUSH0 SWAP2 DUP2 ADD PUSH1 0x20 ADD SWAP2 SWAP1 SWAP2 MSTORE SWAP4 SWAP3 POP POP POP JUMP JUMPDEST PUSH0 PUSH0 PUSH1 0x40 DUP4 DUP6 SUB SLT ISZERO PUSH2 0x3960 JUMPI PUSH0 PUSH0 REVERT JUMPDEST DUP3 CALLDATALOAD PUSH1 0x1 PUSH1 0x1 PUSH1 0x40 SHL SUB DUP2 GT ISZERO PUSH2 0x3975 JUMPI PUSH0 PUSH0 REVERT JUMPDEST PUSH2 0x3981 DUP6 DUP3 DUP7 ADD PUSH2 0x38E4 JUMP JUMPDEST SWAP3 POP POP PUSH1 0x20 DUP4 ADD CALLDATALOAD PUSH2 0x3895 DUP2 PUSH2 0x3865 JUMP JUMPDEST PUSH0 PUSH0 PUSH1 0x40 DUP4 DUP6 SUB SLT ISZERO PUSH2 0x39A3 JUMPI PUSH0 PUSH0 REVERT JUMPDEST DUP3 CALLDATALOAD SWAP2 POP PUSH1 0x20 DUP4 ADD CALLDATALOAD PUSH1 0x1 PUSH1 0x1 PUSH1 0x40 SHL SUB DUP2 GT ISZERO PUSH2 0x39BF JUMPI PUSH0 PUSH0 REVERT JUMPDEST PUSH2 0x39CB DUP6 DUP3 DUP7 ADD PUSH2 0x38E4 JUMP JUMPDEST SWAP2 POP POP SWAP3 POP SWAP3 SWAP1 POP JUMP JUMPDEST PUSH1 0x20 DUP2 MSTORE PUSH0 PUSH2 0x1EF1 PUSH1 0x20 DUP4 ADD DUP5 PUSH2 0x37CF JUMP JUMPDEST PUSH0 PUSH0 PUSH1 0x40 DUP4 DUP6 SUB SLT ISZERO PUSH2 0x39F8 JUMPI PUSH0 PUSH0 REVERT JUMPDEST PUSH2 0x3A01 DUP4 PUSH2 0x3713 JUMP JUMPDEST SWAP5 PUSH1 0x20 SWAP4 SWAP1 SWAP4 ADD CALLDATALOAD SWAP4 POP POP POP JUMP JUMPDEST PUSH0 PUSH1 0x20 DUP3 DUP5 SUB SLT ISZERO PUSH2 0x3A1F JUMPI PUSH0 PUSH0 REVERT JUMPDEST DUP2 CALLDATALOAD PUSH2 0x1EF1 DUP2 PUSH2 0x3865 JUMP JUMPDEST PUSH0 PUSH1 0x20 DUP3 DUP5 SUB SLT ISZERO PUSH2 0x3A3A JUMPI PUSH0 PUSH0 REVERT JUMPDEST DUP2 CALLDATALOAD PUSH1 0x1 PUSH1 0x1 PUSH1 0x40 SHL SUB DUP2 GT ISZERO PUSH2 0x3A4F JUMPI PUSH0 PUSH0 REVERT JUMPDEST PUSH2 0x828 DUP5 DUP3 DUP6 ADD PUSH2 0x38E4 JUMP JUMPDEST PUSH0 PUSH1 0x1 PUSH1 0x1 PUSH1 0x40 SHL SUB DUP3 GT ISZERO PUSH2 0x3A73 JUMPI PUSH2 0x3A73 PUSH2 0x38A0 JUMP JUMPDEST POP PUSH1 0x5 SHL PUSH1 0x20 ADD SWAP1 JUMP JUMPDEST PUSH0 DUP3 PUSH1 0x1F DUP4 ADD SLT PUSH2 0x3A8C JUMPI PUSH0 PUSH0 REVERT JUMPDEST DUP2 CALLDATALOAD PUSH2 0x3A9F PUSH2 0x3A9A DUP3 PUSH2 0x3A5B JUMP JUMPDEST PUSH2 0x38B4 JUMP JUMPDEST DUP1 DUP3 DUP3 MSTORE PUSH1 0x20 DUP3 ADD SWAP2 POP PUSH1 0x20 DUP4 PUSH1 0x5 SHL DUP7 ADD ADD SWAP3 POP DUP6 DUP4 GT ISZERO PUSH2 0x3AC0 JUMPI PUSH0 PUSH0 REVERT JUMPDEST PUSH1 0x20 DUP6 ADD JUMPDEST DUP4 DUP2 LT ISZERO PUSH2 0x3B00 JUMPI DUP1 CALLDATALOAD PUSH1 0x1 PUSH1 0x1 PUSH1 0x40 SHL SUB DUP2 GT ISZERO PUSH2 0x3AE2 JUMPI PUSH0 PUSH0 REVERT JUMPDEST PUSH2 0x3AF1 DUP9 PUSH1 0x20 DUP4 DUP11 ADD ADD PUSH2 0x38E4 JUMP JUMPDEST DUP5 MSTORE POP PUSH1 0x20 SWAP3 DUP4 ADD SWAP3 ADD PUSH2 0x3AC5 JUMP JUMPDEST POP SWAP6 SWAP5 POP POP POP POP POP JUMP JUMPDEST PUSH0 DUP3 PUSH1 0x1F DUP4 ADD SLT PUSH2 0x3B19 JUMPI PUSH0 PUSH0 REVERT JUMPDEST DUP2 CALLDATALOAD PUSH2 0x3B27 PUSH2 0x3A9A DUP3 PUSH2 0x3A5B JUMP JUMPDEST DUP1 DUP3 DUP3 MSTORE PUSH1 0x20 DUP3 ADD SWAP2 POP PUSH1 0x20 DUP4 PUSH1 0x5 SHL DUP7 ADD ADD SWAP3 POP DUP6 DUP4 GT ISZERO PUSH2 0x3B48 JUMPI PUSH0 PUSH0 REVERT JUMPDEST PUSH1 0x20 DUP6 ADD JUMPDEST DUP4 DUP2 LT ISZERO PUSH2 0x3B00 JUMPI DUP1 CALLDATALOAD DUP4 MSTORE PUSH1 0x20 SWAP3 DUP4 ADD SWAP3 ADD PUSH2 0x3B4D JUMP JUMPDEST PUSH0 PUSH0 PUSH0 PUSH0 PUSH0 PUSH0 PUSH0 PUSH0 PUSH0 PUSH2 0x120 DUP11 DUP13 SUB SLT ISZERO PUSH2 0x3B7E JUMPI PUSH0 PUSH0 REVERT JUMPDEST PUSH2 0x3B87 DUP11 PUSH2 0x3713 JUMP JUMPDEST SWAP9 POP PUSH2 0x3B95 PUSH1 0x20 DUP12 ADD PUSH2 0x3713 JUMP JUMPDEST SWAP8 POP PUSH1 0x40 DUP11 ADD CALLDATALOAD SWAP7 POP PUSH1 0x60 DUP11 ADD CALLDATALOAD SWAP6 POP PUSH1 0x80 DUP11 ADD CALLDATALOAD PUSH1 0x1 PUSH1 0x1 PUSH1 0x40 SHL SUB DUP2 GT ISZERO PUSH2 0x3BBD JUMPI PUSH0 PUSH0 REVERT JUMPDEST PUSH2 0x3BC9 DUP13 DUP3 DUP14 ADD PUSH2 0x3A7D JUMP JUMPDEST SWAP6 POP POP PUSH1 0xA0 DUP11 ADD CALLDATALOAD PUSH1 0x1 PUSH1 0x1 PUSH1 0x40 SHL SUB DUP2 GT ISZERO PUSH2 0x3BE4 JUMPI PUSH0 PUSH0 REVERT JUMPDEST PUSH2 0x3BF0 DUP13 DUP3 DUP14 ADD PUSH2 0x3B0A JUMP JUMPDEST SWAP5 POP POP PUSH1 0xC0 DUP11 ADD CALLDATALOAD PUSH1 0x1 PUSH1 0x1 PUSH1 0x40 SHL SUB DUP2 GT ISZERO PUSH2 0x3C0B JUMPI PUSH0 PUSH0 REVERT JUMPDEST PUSH2 0x3C17 DUP13 DUP3 DUP14 ADD PUSH2 0x3B0A JUMP JUMPDEST SWAP4 POP POP PUSH1 0xE0 DUP11 ADD CALLDATALOAD PUSH1 0x1 PUSH1 0x1 PUSH1 0x40 SHL SUB DUP2 GT ISZERO PUSH2 0x3C32 JUMPI PUSH0 PUSH0 REVERT JUMPDEST PUSH2 0x3C3E DUP13 DUP3 DUP14 ADD PUSH2 0x3B0A JUMP JUMPDEST SWAP3 POP POP PUSH2 0x100 DUP11 ADD CALLDATALOAD PUSH1 0x1 PUSH1 0x1 PUSH1 0x40 SHL SUB DUP2 GT ISZERO PUSH2 0x3C5A JUMPI PUSH0 PUSH0 REVERT JUMPDEST PUSH2 0x3C66 DUP13 DUP3 DUP14 ADD PUSH2 0x3B0A JUMP JUMPDEST SWAP2 POP POP SWAP3 SWAP6 SWAP9 POP SWAP3 SWAP6 SWAP9 POP SWAP3 SWAP6 SWAP9 JUMP JUMPDEST PUSH4 0x4E487B71 PUSH1 0xE0 SHL PUSH0 MSTORE PUSH1 0x11 PUSH1 0x4 MSTORE PUSH1 0x24 PUSH0 REVERT JUMPDEST DUP2 DUP2 SUB DUP2 DUP2 GT ISZERO PUSH2 0x740 JUMPI PUSH2 0x740 PUSH2 0x3C76 JUMP JUMPDEST PUSH0 DUP3 PUSH2 0x3CB7 JUMPI PUSH4 0x4E487B71 PUSH1 0xE0 SHL PUSH0 MSTORE PUSH1 0x12 PUSH1 0x4 MSTORE PUSH1 0x24 PUSH0 REVERT JUMPDEST POP DIV SWAP1 JUMP JUMPDEST DUP1 DUP3 MUL DUP2 ISZERO DUP3 DUP3 DIV DUP5 EQ OR PUSH2 0x740 JUMPI PUSH2 0x740 PUSH2 0x3C76 JUMP JUMPDEST DUP1 DUP3 ADD DUP1 DUP3 GT ISZERO PUSH2 0x740 JUMPI PUSH2 0x740 PUSH2 0x3C76 JUMP JUMPDEST PUSH4 0x4E487B71 PUSH1 0xE0 SHL PUSH0 MSTORE PUSH1 0x32 PUSH1 0x4 MSTORE PUSH1 0x24 PUSH0 REVERT JUMPDEST PUSH0 PUSH1 0x20 DUP3 DUP5 SUB SLT ISZERO PUSH2 0x3D0A JUMPI PUSH0 PUSH0 REVERT JUMPDEST DUP2 MLOAD PUSH2 0x1EF1 DUP2 PUSH2 0x3865 JUMP JUMPDEST PUSH0 PUSH1 0x1 DUP3 ADD PUSH2 0x3D26 JUMPI PUSH2 0x3D26 PUSH2 0x3C76 JUMP JUMPDEST POP PUSH1 0x1 ADD SWAP1 JUMP JUMPDEST PUSH1 0x1 DUP2 DUP2 SHR SWAP1 DUP3 AND DUP1 PUSH2 0x3D41 JUMPI PUSH1 0x7F DUP3 AND SWAP2 POP JUMPDEST PUSH1 0x20 DUP3 LT DUP2 SUB PUSH2 0x8EE JUMPI PUSH4 0x4E487B71 PUSH1 0xE0 SHL PUSH0 MSTORE PUSH1 0x22 PUSH1 0x4 MSTORE PUSH1 0x24 PUSH0 REVERT JUMPDEST PUSH1 0x20 DUP1 DUP3 MSTORE PUSH1 0x2A SWAP1 DUP3 ADD MSTORE PUSH32 0x4E6F2061637469766520666F7265766572206C6F636B2065786973747320666F PUSH1 0x40 DUP3 ADD MSTORE PUSH10 0x39103A3432903AB9B2B9 PUSH1 0xB1 SHL PUSH1 0x60 DUP3 ADD MSTORE PUSH1 0x80 ADD SWAP1 JUMP JUMPDEST PUSH0 DUP2 MLOAD DUP1 PUSH1 0x20 DUP5 ADD DUP6 MCOPY PUSH0 SWAP4 ADD SWAP3 DUP4 MSTORE POP SWAP1 SWAP2 SWAP1 POP JUMP JUMPDEST PUSH0 PUSH2 0x1EF1 DUP3 DUP5 PUSH2 0x3DA9 JUMP JUMPDEST PUSH0 PUSH0 DUP4 SLOAD PUSH2 0x3DD8 DUP2 PUSH2 0x3D2D JUMP JUMPDEST PUSH1 0x1 DUP3 AND DUP1 ISZERO PUSH2 0x3DEF JUMPI PUSH1 0x1 DUP2 EQ PUSH2 0x3E04 JUMPI PUSH2 0x3E31 JUMP JUMPDEST PUSH1 0xFF NOT DUP4 AND DUP7 MSTORE DUP2 ISZERO ISZERO DUP3 MUL DUP7 ADD SWAP4 POP PUSH2 0x3E31 JUMP JUMPDEST DUP7 PUSH0 MSTORE PUSH1 0x20 PUSH0 KECCAK256 PUSH0 JUMPDEST DUP4 DUP2 LT ISZERO PUSH2 0x3E29 JUMPI DUP2 SLOAD DUP9 DUP3 ADD MSTORE PUSH1 0x1 SWAP1 SWAP2 ADD SWAP1 PUSH1 0x20 ADD PUSH2 0x3E0D JUMP JUMPDEST POP POP DUP2 DUP7 ADD SWAP4 POP JUMPDEST POP SWAP2 SWAP6 SWAP5 POP POP POP POP POP JUMP JUMPDEST PUSH0 PUSH1 0x20 DUP3 DUP5 SUB SLT ISZERO PUSH2 0x3E4C JUMPI PUSH0 PUSH0 REVERT JUMPDEST POP MLOAD SWAP2 SWAP1 POP JUMP JUMPDEST PUSH4 0x4E487B71 PUSH1 0xE0 SHL PUSH0 MSTORE PUSH1 0x31 PUSH1 0x4 MSTORE PUSH1 0x24 PUSH0 REVERT JUMPDEST PUSH1 0x20 DUP1 DUP3 MSTORE PUSH1 0x24 SWAP1 DUP3 ADD MSTORE PUSH32 0x416D6F756E742069732062656C6F7720746865206D696E696D756D2072657175 PUSH1 0x40 DUP3 ADD MSTORE PUSH4 0x1A5C9959 PUSH1 0xE2 SHL PUSH1 0x60 DUP3 ADD MSTORE PUSH1 0x80 ADD SWAP1 JUMP JUMPDEST PUSH1 0x1F DUP3 GT ISZERO PUSH2 0xBB5 JUMPI DUP1 PUSH0 MSTORE PUSH1 0x20 PUSH0 KECCAK256 PUSH1 0x1F DUP5 ADD PUSH1 0x5 SHR DUP2 ADD PUSH1 0x20 DUP6 LT ISZERO PUSH2 0x3ED0 JUMPI POP DUP1 JUMPDEST PUSH1 0x1F DUP5 ADD PUSH1 0x5 SHR DUP3 ADD SWAP2 POP JUMPDEST DUP2 DUP2 LT ISZERO PUSH2 0x3EEF JUMPI PUSH0 DUP2 SSTORE PUSH1 0x1 ADD PUSH2 0x3EDC JUMP JUMPDEST POP POP POP POP POP JUMP JUMPDEST DUP2 MLOAD PUSH1 0x1 PUSH1 0x1 PUSH1 0x40 SHL SUB DUP2 GT ISZERO PUSH2 0x3F0F JUMPI PUSH2 0x3F0F PUSH2 0x38A0 JUMP JUMPDEST PUSH2 0x3F23 DUP2 PUSH2 0x3F1D DUP5 SLOAD PUSH2 0x3D2D JUMP JUMPDEST DUP5 PUSH2 0x3EAB JUMP JUMPDEST PUSH1 0x20 PUSH1 0x1F DUP3 GT PUSH1 0x1 DUP2 EQ PUSH2 0x3F55 JUMPI PUSH0 DUP4 ISZERO PUSH2 0x3F3E JUMPI POP DUP5 DUP3 ADD MLOAD JUMPDEST PUSH0 NOT PUSH1 0x3 DUP6 SWAP1 SHL SHR NOT AND PUSH1 0x1 DUP5 SWAP1 SHL OR DUP5 SSTORE PUSH2 0x3EEF JUMP JUMPDEST PUSH0 DUP5 DUP2 MSTORE PUSH1 0x20 DUP2 KECCAK256 PUSH1 0x1F NOT DUP6 AND SWAP2 JUMPDEST DUP3 DUP2 LT ISZERO PUSH2 0x3F84 JUMPI DUP8 DUP6 ADD MLOAD DUP3 SSTORE PUSH1 0x20 SWAP5 DUP6 ADD SWAP5 PUSH1 0x1 SWAP1 SWAP3 ADD SWAP2 ADD PUSH2 0x3F64 JUMP JUMPDEST POP DUP5 DUP3 LT ISZERO PUSH2 0x3FA1 JUMPI DUP7 DUP5 ADD MLOAD PUSH0 NOT PUSH1 0x3 DUP8 SWAP1 SHL PUSH1 0xF8 AND SHR NOT AND DUP2 SSTORE JUMPDEST POP POP POP POP PUSH1 0x1 SWAP1 DUP2 SHL ADD SWAP1 SSTORE POP JUMP JUMPDEST DUP4 DUP2 MSTORE PUSH1 0x60 PUSH1 0x20 DUP3 ADD MSTORE PUSH0 PUSH2 0x3FC8 PUSH1 0x60 DUP4 ADD DUP6 PUSH2 0x37CF JUMP JUMPDEST SWAP1 POP DUP3 PUSH1 0x40 DUP4 ADD MSTORE SWAP5 SWAP4 POP POP POP POP JUMP JUMPDEST PUSH32 0x416363657373436F6E74726F6C3A206163636F756E7420000000000000000000 DUP2 MSTORE PUSH0 PUSH2 0x4009 PUSH1 0x17 DUP4 ADD DUP6 PUSH2 0x3DA9 JUMP JUMPDEST PUSH17 0x1034B99036B4B9B9B4B733903937B6329 PUSH1 0x7D SHL DUP2 MSTORE PUSH2 0x1314 PUSH1 0x11 DUP3 ADD DUP6 PUSH2 0x3DA9 JUMP JUMPDEST PUSH0 DUP2 PUSH2 0x403B JUMPI PUSH2 0x403B PUSH2 0x3C76 JUMP JUMPDEST POP PUSH0 NOT ADD SWAP1 JUMP INVALID LOG4 SWAP9 SMOD KECCAK256 TLOAD 0xE4 0xD3 SSTORE MULMOD 0x2E CREATE2 0xA8 LOG1 DUP16 JUMP 0xE8 SWAP2 EXTCODECOPY DELEGATECALL LOG2 ADD 0xFB 0xE2 DUP8 DUP3 JUMPDEST MULMOD JUMP SWAP4 0xC2 OR PUSH22 0xA2646970667358221220A9FDB2CDBE66544E4D427D37 0x2B 0x27 0xF8 0xC6 0xCB MLOAD 0x29 POP 0xE0 0xC7 0xCE 0xB3 SUB 0x22 DUP10 PUSH19 0x972F792864736F6C634300081C003300000000 "
		},
		"gasEstimates": {
			"creation": {
				"codeDepositCost": "3307200",
				"executionCost": "3673",
				"totalCost": "3310873"
			},
			"external": {
				"DEFAULT_ADMIN_ROLE()": "338",
				"Pools(uint256)": "infinite",
				"claimRewards()": "infinite",
				"claimedRewardId(address)": "2616",
				"compoundRewards(bool)": "infinite",
				"countRewards(uint256,uint256)": "infinite",
				"currentIdRewards()": "2393",
				"decayInterval()": "2394",
				"foreverStakeId(address)": "2638",
				"getActiveLockId(address)": "infinite",
				"getIncrementedAmount(uint256,uint256)": "2617",
				"getPoolDataByRewardId(uint256,string)": "infinite",
				"getRewardsPending(address)": "infinite",
				"getRoleAdmin(bytes32)": "2498",
				"getTotalLocks(address)": "4797",
				"getveAlvaAmount(uint256,string)": "infinite",
				"grantRole(bytes32,address)": "infinite",
				"hasRole(bytes32,address)": "2795",
				"increaseAmount(uint256,bool)": "infinite",
				"initialize(address,address,uint256,uint256,string[],uint256[],uint256[],uint256[],uint256[])": "infinite",
				"minimumRewardAmount()": "2327",
				"minimumStakingAmount()": "2350",
				"paused()": "2414",
				"poolInfo(string)": "infinite",
				"renewStaking(uint256,string)": "infinite",
				"renounceRole(bytes32,address)": "29042",
				"revokeRole(bytes32,address)": "infinite",
				"rewardEligibleIds(address,uint256)": "4813",
				"rewardInfo(uint256)": "6837",
				"rewardPeriodCount()": "2574",
				"stake(uint256,string)": "infinite",
				"stakeId()": "2396",
				"stakeInfo(uint256)": "infinite",
				"startTime()": "2373",
				"supportsInterface(bytes4)": "503",
				"topUpRewards()": "infinite",
				"unallocatedRewards()": "2395",
				"unstake()": "infinite",
				"updateDecayInterval(uint256)": "infinite",
				"updateMinStakingAmount(uint256)": "infinite",
				"updateMinimumRewardAmount(uint256)": "infinite",
				"updatePoolStatus(string,bool)": "infinite",
				"updateWithdrawalPercentage(uint256)": "infinite",
				"userReward(address)": "2552",
				"userStakeIds(address,uint256)": "4880",
				"vaultWithdrawalPercentage()": "2438",
				"veAlvaBalance(address)": "11460"
			},
			"internal": {
				"_calculateRewards(uint256,uint256,uint256)": "infinite",
				"_claimRewards()": "infinite",
				"_finalizeForeverLockRewards()": "infinite",
				"_finalizeTimeBaseRewards(uint256)": "infinite",
				"_increaseAmount(uint256,uint256)": "infinite",
				"_stake(uint256,uint256,uint256,string memory,uint256)": "infinite"
			}
		},
		"methodIdentifiers": {
			"DEFAULT_ADMIN_ROLE()": "a217fddf",
			"Pools(uint256)": "73dfccca",
			"claimRewards()": "372500ab",
			"claimedRewardId(address)": "dbf76835",
			"compoundRewards(bool)": "c86a0d16",
			"countRewards(uint256,uint256)": "45434445",
			"currentIdRewards()": "f9f16788",
			"decayInterval()": "b6334aee",
			"foreverStakeId(address)": "de2ca1ee",
			"getActiveLockId(address)": "15500991",
			"getIncrementedAmount(uint256,uint256)": "27c1a812",
			"getPoolDataByRewardId(uint256,string)": "744f90a7",
			"getRewardsPending(address)": "5ab2d62f",
			"getRoleAdmin(bytes32)": "248a9ca3",
			"getTotalLocks(address)": "5bae5e54",
			"getveAlvaAmount(uint256,string)": "b397e572",
			"grantRole(bytes32,address)": "2f2ff15d",
			"hasRole(bytes32,address)": "91d14854",
			"increaseAmount(uint256,bool)": "507f1305",
			"initialize(address,address,uint256,uint256,string[],uint256[],uint256[],uint256[],uint256[])": "fff9e917",
			"minimumRewardAmount()": "e27c8ad5",
			"minimumStakingAmount()": "b0d2d011",
			"paused()": "5c975abb",
			"poolInfo(string)": "ff7ca16f",
			"renewStaking(uint256,string)": "720b3ad3",
			"renounceRole(bytes32,address)": "36568abe",
			"revokeRole(bytes32,address)": "d547741f",
			"rewardEligibleIds(address,uint256)": "f327af18",
			"rewardInfo(uint256)": "81a00f83",
			"rewardPeriodCount()": "c38474c0",
			"stake(uint256,string)": "e7e4e1f7",
			"stakeId()": "1254eb93",
			"stakeInfo(uint256)": "4e533572",
			"startTime()": "78e97925",
			"supportsInterface(bytes4)": "01ffc9a7",
			"topUpRewards()": "5d1dccb1",
			"unallocatedRewards()": "2b6fdc7e",
			"unstake()": "2def6620",
			"updateDecayInterval(uint256)": "43cdab57",
			"updateMinStakingAmount(uint256)": "1bd067c5",
			"updateMinimumRewardAmount(uint256)": "d3f52d00",
			"updatePoolStatus(string,bool)": "5c5c0d60",
			"updateWithdrawalPercentage(uint256)": "abd8a033",
			"userReward(address)": "000a74be",
			"userStakeIds(address,uint256)": "c517841c",
			"vaultWithdrawalPercentage()": "df3100d4",
			"veAlvaBalance(address)": "02e4923c"
		}
	},
	"abi": [
		{
			"inputs": [],
			"stateMutability": "nonpayable",
			"type": "constructor"
		},
		{
			"anonymous": false,
			"inputs": [
				{
					"indexed": true,
					"internalType": "uint256",
					"name": "_stakeId",
					"type": "uint256"
				},
				{
					"indexed": false,
					"internalType": "uint256",
					"name": "amount",
					"type": "uint256"
				},
				{
					"indexed": false,
					"internalType": "uint256",
					"name": "rewardAmount",
					"type": "uint256"
				},
				{
					"indexed": false,
					"internalType": "uint256",
					"name": "veAlva",
					"type": "uint256"
				}
			],
			"name": "Compounded",
			"type": "event"
		},
		{
			"anonymous": false,
			"inputs": [
				{
					"indexed": false,
					"internalType": "uint8",
					"name": "version",
					"type": "uint8"
				}
			],
			"name": "Initialized",
			"type": "event"
		},
		{
			"anonymous": false,
			"inputs": [
				{
					"indexed": true,
					"internalType": "uint256",
					"name": "previousLockId",
					"type": "uint256"
				},
				{
					"indexed": true,
					"internalType": "uint256",
					"name": "newLockId",
					"type": "uint256"
				}
			],
			"name": "LockRenewed",
			"type": "event"
		},
		{
			"anonymous": false,
			"inputs": [
				{
					"indexed": false,
					"internalType": "address",
					"name": "account",
					"type": "address"
				}
			],
			"name": "Paused",
			"type": "event"
		},
		{
			"anonymous": false,
			"inputs": [
				{
					"indexed": true,
					"internalType": "uint256",
					"name": "rewardId",
					"type": "uint256"
				},
				{
					"indexed": false,
					"internalType": "uint256",
					"name": "amount",
					"type": "uint256"
				}
			],
			"name": "RewardsAdded",
			"type": "event"
		},
		{
			"anonymous": false,
			"inputs": [
				{
					"indexed": true,
					"internalType": "address",
					"name": "account",
					"type": "address"
				},
				{
					"indexed": false,
					"internalType": "uint256",
					"name": "rewardAmount",
					"type": "uint256"
				}
			],
			"name": "RewardsClaimed",
			"type": "event"
		},
		{
			"anonymous": false,
			"inputs": [
				{
					"indexed": true,
					"internalType": "address",
					"name": "account",
					"type": "address"
				},
				{
					"indexed": false,
					"internalType": "uint256",
					"name": "rewardAmount",
					"type": "uint256"
				}
			],
			"name": "RewardsCorrected",
			"type": "event"
		},
		{
			"anonymous": false,
			"inputs": [
				{
					"indexed": true,
					"internalType": "bytes32",
					"name": "role",
					"type": "bytes32"
				},
				{
					"indexed": true,
					"internalType": "bytes32",
					"name": "previousAdminRole",
					"type": "bytes32"
				},
				{
					"indexed": true,
					"internalType": "bytes32",
					"name": "newAdminRole",
					"type": "bytes32"
				}
			],
			"name": "RoleAdminChanged",
			"type": "event"
		},
		{
			"anonymous": false,
			"inputs": [
				{
					"indexed": true,
					"internalType": "bytes32",
					"name": "role",
					"type": "bytes32"
				},
				{
					"indexed": true,
					"internalType": "address",
					"name": "account",
					"type": "address"
				},
				{
					"indexed": true,
					"internalType": "address",
					"name": "sender",
					"type": "address"
				}
			],
			"name": "RoleGranted",
			"type": "event"
		},
		{
			"anonymous": false,
			"inputs": [
				{
					"indexed": true,
					"internalType": "bytes32",
					"name": "role",
					"type": "bytes32"
				},
				{
					"indexed": true,
					"internalType": "address",
					"name": "account",
					"type": "address"
				},
				{
					"indexed": true,
					"internalType": "address",
					"name": "sender",
					"type": "address"
				}
			],
			"name": "RoleRevoked",
			"type": "event"
		},
		{
			"anonymous": false,
			"inputs": [
				{
					"indexed": true,
					"internalType": "uint256",
					"name": "_stakeId",
					"type": "uint256"
				},
				{
					"indexed": false,
					"internalType": "uint256",
					"name": "amount",
					"type": "uint256"
				},
				{
					"indexed": false,
					"internalType": "uint256",
					"name": "veAlva",
					"type": "uint256"
				}
			],
			"name": "StakedAmountIncreased",
			"type": "event"
		},
		{
			"anonymous": false,
			"inputs": [
				{
					"indexed": true,
					"internalType": "uint256",
					"name": "_stakeId",
					"type": "uint256"
				},
				{
					"indexed": true,
					"internalType": "address",
					"name": "account",
					"type": "address"
				},
				{
					"indexed": false,
					"internalType": "uint256",
					"name": "amount",
					"type": "uint256"
				},
				{
					"indexed": false,
					"internalType": "string",
					"name": "pool",
					"type": "string"
				},
				{
					"indexed": false,
					"internalType": "uint256",
					"name": "veAlva",
					"type": "uint256"
				}
			],
			"name": "TokensStaked",
			"type": "event"
		},
		{
			"anonymous": false,
			"inputs": [
				{
					"indexed": false,
					"internalType": "address",
					"name": "account",
					"type": "address"
				}
			],
			"name": "Unpaused",
			"type": "event"
		},
		{
			"anonymous": false,
			"inputs": [
				{
					"indexed": true,
					"internalType": "address",
					"name": "account",
					"type": "address"
				},
				{
					"indexed": true,
					"internalType": "uint256",
					"name": "_stakeId",
					"type": "uint256"
				},
				{
					"indexed": false,
					"internalType": "uint256",
					"name": "endTime",
					"type": "uint256"
				}
			],
			"name": "Withdrawn",
			"type": "event"
		},
		{
			"inputs": [],
			"name": "DEFAULT_ADMIN_ROLE",
			"outputs": [
				{
					"internalType": "bytes32",
					"name": "",
					"type": "bytes32"
				}
			],
			"stateMutability": "view",
			"type": "function"
		},
		{
			"inputs": [
				{
					"internalType": "uint256",
					"name": "",
					"type": "uint256"
				}
			],
			"name": "Pools",
			"outputs": [
				{
					"internalType": "string",
					"name": "",
					"type": "string"
				}
			],
			"stateMutability": "view",
			"type": "function"
		},
		{
			"inputs": [],
			"name": "claimRewards",
			"outputs": [],
			"stateMutability": "nonpayable",
			"type": "function"
		},
		{
			"inputs": [
				{
					"internalType": "address",
					"name": "",
					"type": "address"
				}
			],
			"name": "claimedRewardId",
			"outputs": [
				{
					"internalType": "uint256",
					"name": "",
					"type": "uint256"
				}
			],
			"stateMutability": "view",
			"type": "function"
		},
		{
			"inputs": [
				{
					"internalType": "bool",
					"name": "isForever",
					"type": "bool"
				}
			],
			"name": "compoundRewards",
			"outputs": [],
			"stateMutability": "nonpayable",
			"type": "function"
		},
		{
			"inputs": [
				{
					"internalType": "uint256",
					"name": "_stakeId",
					"type": "uint256"
				},
				{
					"internalType": "uint256",
					"name": "batchSize",
					"type": "uint256"
				}
			],
			"name": "countRewards",
			"outputs": [
				{
					"internalType": "uint256",
					"name": "rewardAmount",
					"type": "uint256"
				},
				{
					"internalType": "uint256",
					"name": "openingRewardId",
					"type": "uint256"
				},
				{
					"internalType": "uint256",
					"name": "incrementedAmount",
					"type": "uint256"
				}
			],
			"stateMutability": "view",
			"type": "function"
		},
		{
			"inputs": [],
			"name": "currentIdRewards",
			"outputs": [
				{
					"internalType": "uint256",
					"name": "",
					"type": "uint256"
				}
			],
			"stateMutability": "view",
			"type": "function"
		},
		{
			"inputs": [],
			"name": "decayInterval",
			"outputs": [
				{
					"internalType": "uint256",
					"name": "",
					"type": "uint256"
				}
			],
			"stateMutability": "view",
			"type": "function"
		},
		{
			"inputs": [
				{
					"internalType": "address",
					"name": "",
					"type": "address"
				}
			],
			"name": "foreverStakeId",
			"outputs": [
				{
					"internalType": "uint256",
					"name": "",
					"type": "uint256"
				}
			],
			"stateMutability": "view",
			"type": "function"
		},
		{
			"inputs": [
				{
					"internalType": "address",
					"name": "account",
					"type": "address"
				}
			],
			"name": "getActiveLockId",
			"outputs": [
				{
					"internalType": "uint256",
					"name": "timebaseId",
					"type": "uint256"
				}
			],
			"stateMutability": "view",
			"type": "function"
		},
		{
			"inputs": [
				{
					"internalType": "uint256",
					"name": "_stakeId",
					"type": "uint256"
				},
				{
					"internalType": "uint256",
					"name": "rewardId",
					"type": "uint256"
				}
			],
			"name": "getIncrementedAmount",
			"outputs": [
				{
					"internalType": "uint256",
					"name": "amount",
					"type": "uint256"
				}
			],
			"stateMutability": "view",
			"type": "function"
		},
		{
			"inputs": [
				{
					"internalType": "uint256",
					"name": "rewardId",
					"type": "uint256"
				},
				{
					"internalType": "string",
					"name": "pool",
					"type": "string"
				}
			],
			"name": "getPoolDataByRewardId",
			"outputs": [
				{
					"internalType": "uint256",
					"name": "poolToAmountLocked",
					"type": "uint256"
				},
				{
					"internalType": "uint256",
					"name": "poolToNewAmount",
					"type": "uint256"
				},
				{
					"internalType": "uint256",
					"name": "poolToExpiredAmount",
					"type": "uint256"
				}
			],
			"stateMutability": "view",
			"type": "function"
		},
		{
			"inputs": [
				{
					"internalType": "address",
					"name": "account",
					"type": "address"
				}
			],
			"name": "getRewardsPending",
			"outputs": [
				{
					"internalType": "uint256",
					"name": "totalReward",
					"type": "uint256"
				}
			],
			"stateMutability": "view",
			"type": "function"
		},
		{
			"inputs": [
				{
					"internalType": "bytes32",
					"name": "role",
					"type": "bytes32"
				}
			],
			"name": "getRoleAdmin",
			"outputs": [
				{
					"internalType": "bytes32",
					"name": "",
					"type": "bytes32"
				}
			],
			"stateMutability": "view",
			"type": "function"
		},
		{
			"inputs": [
				{
					"internalType": "address",
					"name": "account",
					"type": "address"
				}
			],
			"name": "getTotalLocks",
			"outputs": [
				{
					"internalType": "uint256",
					"name": "userLocksTotal",
					"type": "uint256"
				},
				{
					"internalType": "uint256",
					"name": "userRewardEligibleLocks",
					"type": "uint256"
				}
			],
			"stateMutability": "view",
			"type": "function"
		},
		{
			"inputs": [
				{
					"internalType": "uint256",
					"name": "amount",
					"type": "uint256"
				},
				{
					"internalType": "string",
					"name": "pool",
					"type": "string"
				}
			],
			"name": "getveAlvaAmount",
			"outputs": [
				{
					"internalType": "uint256",
					"name": "",
					"type": "uint256"
				}
			],
			"stateMutability": "view",
			"type": "function"
		},
		{
			"inputs": [
				{
					"internalType": "bytes32",
					"name": "role",
					"type": "bytes32"
				},
				{
					"internalType": "address",
					"name": "account",
					"type": "address"
				}
			],
			"name": "grantRole",
			"outputs": [],
			"stateMutability": "nonpayable",
			"type": "function"
		},
		{
			"inputs": [
				{
					"internalType": "bytes32",
					"name": "role",
					"type": "bytes32"
				},
				{
					"internalType": "address",
					"name": "account",
					"type": "address"
				}
			],
			"name": "hasRole",
			"outputs": [
				{
					"internalType": "bool",
					"name": "",
					"type": "bool"
				}
			],
			"stateMutability": "view",
			"type": "function"
		},
		{
			"inputs": [
				{
					"internalType": "uint256",
					"name": "amount",
					"type": "uint256"
				},
				{
					"internalType": "bool",
					"name": "isForever",
					"type": "bool"
				}
			],
			"name": "increaseAmount",
			"outputs": [],
			"stateMutability": "nonpayable",
			"type": "function"
		},
		{
			"inputs": [
				{
					"internalType": "address",
					"name": "_alva",
					"type": "address"
				},
				{
					"internalType": "address",
					"name": "_veAlva",
					"type": "address"
				},
				{
					"internalType": "uint256",
					"name": "_decayInterval",
					"type": "uint256"
				},
				{
					"internalType": "uint256",
					"name": "_startTime",
					"type": "uint256"
				},
				{
					"internalType": "string[]",
					"name": "_pools",
					"type": "string[]"
				},
				{
					"internalType": "uint256[]",
					"name": "rewards",
					"type": "uint256[]"
				},
				{
					"internalType": "uint256[]",
					"name": "veTokenRatio",
					"type": "uint256[]"
				},
				{
					"internalType": "uint256[]",
					"name": "duration",
					"type": "uint256[]"
				},
				{
					"internalType": "uint256[]",
					"name": "rewardPeriods",
					"type": "uint256[]"
				}
			],
			"name": "initialize",
			"outputs": [],
			"stateMutability": "nonpayable",
			"type": "function"
		},
		{
			"inputs": [],
			"name": "minimumRewardAmount",
			"outputs": [
				{
					"internalType": "uint256",
					"name": "",
					"type": "uint256"
				}
			],
			"stateMutability": "view",
			"type": "function"
		},
		{
			"inputs": [],
			"name": "minimumStakingAmount",
			"outputs": [
				{
					"internalType": "uint256",
					"name": "",
					"type": "uint256"
				}
			],
			"stateMutability": "view",
			"type": "function"
		},
		{
			"inputs": [],
			"name": "paused",
			"outputs": [
				{
					"internalType": "bool",
					"name": "",
					"type": "bool"
				}
			],
			"stateMutability": "view",
			"type": "function"
		},
		{
			"inputs": [
				{
					"internalType": "string",
					"name": "",
					"type": "string"
				}
			],
			"name": "poolInfo",
			"outputs": [
				{
					"internalType": "bool",
					"name": "status",
					"type": "bool"
				},
				{
					"internalType": "uint256",
					"name": "veAlvaRatio",
					"type": "uint256"
				},
				{
					"internalType": "uint256",
					"name": "poolPercentage",
					"type": "uint256"
				},
				{
					"internalType": "uint256",
					"name": "duration",
					"type": "uint256"
				},
				{
					"internalType": "uint256",
					"name": "amountLocked",
					"type": "uint256"
				},
				{
					"internalType": "uint256",
					"name": "rewardPeriods",
					"type": "uint256"
				}
			],
			"stateMutability": "view",
			"type": "function"
		},
		{
			"inputs": [
				{
					"internalType": "uint256",
					"name": "amount",
					"type": "uint256"
				},
				{
					"internalType": "string",
					"name": "pool",
					"type": "string"
				}
			],
			"name": "renewStaking",
			"outputs": [],
			"stateMutability": "nonpayable",
			"type": "function"
		},
		{
			"inputs": [
				{
					"internalType": "bytes32",
					"name": "role",
					"type": "bytes32"
				},
				{
					"internalType": "address",
					"name": "account",
					"type": "address"
				}
			],
			"name": "renounceRole",
			"outputs": [],
			"stateMutability": "nonpayable",
			"type": "function"
		},
		{
			"inputs": [
				{
					"internalType": "bytes32",
					"name": "role",
					"type": "bytes32"
				},
				{
					"internalType": "address",
					"name": "account",
					"type": "address"
				}
			],
			"name": "revokeRole",
			"outputs": [],
			"stateMutability": "nonpayable",
			"type": "function"
		},
		{
			"inputs": [
				{
					"internalType": "address",
					"name": "",
					"type": "address"
				},
				{
					"internalType": "uint256",
					"name": "",
					"type": "uint256"
				}
			],
			"name": "rewardEligibleIds",
			"outputs": [
				{
					"internalType": "uint256",
					"name": "",
					"type": "uint256"
				}
			],
			"stateMutability": "view",
			"type": "function"
		},
		{
			"inputs": [
				{
					"internalType": "uint256",
					"name": "",
					"type": "uint256"
				}
			],
			"name": "rewardInfo",
			"outputs": [
				{
					"internalType": "bool",
					"name": "isProcessed",
					"type": "bool"
				},
				{
					"internalType": "uint256",
					"name": "timestamp",
					"type": "uint256"
				},
				{
					"internalType": "uint256",
					"name": "amount",
					"type": "uint256"
				}
			],
			"stateMutability": "view",
			"type": "function"
		},
		{
			"inputs": [],
			"name": "rewardPeriodCount",
			"outputs": [
				{
					"internalType": "uint256",
					"name": "",
					"type": "uint256"
				}
			],
			"stateMutability": "view",
			"type": "function"
		},
		{
			"inputs": [
				{
					"internalType": "uint256",
					"name": "amount",
					"type": "uint256"
				},
				{
					"internalType": "string",
					"name": "_poolName",
					"type": "string"
				}
			],
			"name": "stake",
			"outputs": [],
			"stateMutability": "nonpayable",
			"type": "function"
		},
		{
			"inputs": [],
			"name": "stakeId",
			"outputs": [
				{
					"internalType": "uint256",
					"name": "",
					"type": "uint256"
				}
			],
			"stateMutability": "view",
			"type": "function"
		},
		{
			"inputs": [
				{
					"internalType": "uint256",
					"name": "",
					"type": "uint256"
				}
			],
			"name": "stakeInfo",
			"outputs": [
				{
					"internalType": "string",
					"name": "pool",
					"type": "string"
				},
				{
					"internalType": "uint256",
					"name": "amount",
					"type": "uint256"
				},
				{
					"internalType": "bool",
					"name": "isForever",
					"type": "bool"
				},
				{
					"internalType": "bool",
					"name": "isActive",
					"type": "bool"
				},
				{
					"internalType": "uint256",
					"name": "duration",
					"type": "uint256"
				},
				{
					"internalType": "uint256",
					"name": "startTime",
					"type": "uint256"
				},
				{
					"internalType": "uint256",
					"name": "endTime",
					"type": "uint256"
				},
				{
					"internalType": "uint256",
					"name": "votingPower",
					"type": "uint256"
				},
				{
					"internalType": "uint256",
					"name": "rewardsCurrent",
					"type": "uint256"
				},
				{
					"internalType": "uint256",
					"name": "openingRewardId",
					"type": "uint256"
				},
				{
					"internalType": "uint256",
					"name": "closingRewardId",
					"type": "uint256"
				},
				{
					"internalType": "uint256",
					"name": "totalIncremented",
					"type": "uint256"
				}
			],
			"stateMutability": "view",
			"type": "function"
		},
		{
			"inputs": [],
			"name": "startTime",
			"outputs": [
				{
					"internalType": "uint256",
					"name": "",
					"type": "uint256"
				}
			],
			"stateMutability": "view",
			"type": "function"
		},
		{
			"inputs": [
				{
					"internalType": "bytes4",
					"name": "interfaceId",
					"type": "bytes4"
				}
			],
			"name": "supportsInterface",
			"outputs": [
				{
					"internalType": "bool",
					"name": "",
					"type": "bool"
				}
			],
			"stateMutability": "view",
			"type": "function"
		},
		{
			"inputs": [],
			"name": "topUpRewards",
			"outputs": [],
			"stateMutability": "nonpayable",
			"type": "function"
		},
		{
			"inputs": [],
			"name": "unallocatedRewards",
			"outputs": [
				{
					"internalType": "uint256",
					"name": "",
					"type": "uint256"
				}
			],
			"stateMutability": "view",
			"type": "function"
		},
		{
			"inputs": [],
			"name": "unstake",
			"outputs": [],
			"stateMutability": "nonpayable",
			"type": "function"
		},
		{
			"inputs": [
				{
					"internalType": "uint256",
					"name": "newInterval",
					"type": "uint256"
				}
			],
			"name": "updateDecayInterval",
			"outputs": [],
			"stateMutability": "nonpayable",
			"type": "function"
		},
		{
			"inputs": [
				{
					"internalType": "uint256",
					"name": "amount",
					"type": "uint256"
				}
			],
			"name": "updateMinStakingAmount",
			"outputs": [],
			"stateMutability": "nonpayable",
			"type": "function"
		},
		{
			"inputs": [
				{
					"internalType": "uint256",
					"name": "amount",
					"type": "uint256"
				}
			],
			"name": "updateMinimumRewardAmount",
			"outputs": [],
			"stateMutability": "nonpayable",
			"type": "function"
		},
		{
			"inputs": [
				{
					"internalType": "string",
					"name": "pool",
					"type": "string"
				},
				{
					"internalType": "bool",
					"name": "status",
					"type": "bool"
				}
			],
			"name": "updatePoolStatus",
			"outputs": [],
			"stateMutability": "nonpayable",
			"type": "function"
		},
		{
			"inputs": [
				{
					"internalType": "uint256",
					"name": "amount",
					"type": "uint256"
				}
			],
			"name": "updateWithdrawalPercentage",
			"outputs": [],
			"stateMutability": "nonpayable",
			"type": "function"
		},
		{
			"inputs": [
				{
					"internalType": "address",
					"name": "",
					"type": "address"
				}
			],
			"name": "userReward",
			"outputs": [
				{
					"internalType": "uint256",
					"name": "",
					"type": "uint256"
				}
			],
			"stateMutability": "view",
			"type": "function"
		},
		{
			"inputs": [
				{
					"internalType": "address",
					"name": "",
					"type": "address"
				},
				{
					"internalType": "uint256",
					"name": "",
					"type": "uint256"
				}
			],
			"name": "userStakeIds",
			"outputs": [
				{
					"internalType": "uint256",
					"name": "",
					"type": "uint256"
				}
			],
			"stateMutability": "view",
			"type": "function"
		},
		{
			"inputs": [],
			"name": "vaultWithdrawalPercentage",
			"outputs": [
				{
					"internalType": "uint256",
					"name": "",
					"type": "uint256"
				}
			],
			"stateMutability": "view",
			"type": "function"
		},
		{
			"inputs": [
				{
					"internalType": "address",
					"name": "account",
					"type": "address"
				}
			],
			"name": "veAlvaBalance",
			"outputs": [
				{
					"internalType": "uint256",
					"name": "",
					"type": "uint256"
				}
			],
			"stateMutability": "view",
			"type": "function"
		}
	]
}