{
	"data": {
		"bytecode": {
			"linkReferences": {},
			"object": "6080604052348015600e575f5ffd5b506143728061001c5f395ff3fe608060405234801561000f575f5ffd5b5060043610610372575f3560e01c806375b238fc116101d4578063c142d98811610109578063e27c8ad5116100a9578063eee7f41c11610079578063eee7f41c14610858578063efb810311461086b578063f9f1678814610896578063fff9e9171461089f575f5ffd5b8063e27c8ad51461081e578063e63ab1e914610827578063e7e4e1f71461083b578063ee01e5e71461084e575f5ffd5b8063d3f52d00116100e4578063d3f52d00146107e4578063d547741f146107f7578063d8bbd46c1461080a578063df3100d414610815575f5ffd5b8063c142d98814610748578063c38474c0146107c9578063c86a0d16146107d1575f5ffd5b8063a0b80db411610174578063b0d2d0111161014f578063b0d2d01114610710578063b397e57214610719578063b44c4fef1461072c578063b6334aee1461073f575f5ffd5b8063a0b80db4146106ed578063a217fddf146106f6578063abd8a033146106fd575f5ffd5b80637f53243b116101af5780637f53243b146106a05780638456cb59146106b35780638b2d0ccf146106bb57806391d14854146106da575f5ffd5b806375b238fc1461063457806378e97925146106485780637c83e6c814610651575f5ffd5b80633f4ba83a116102aa5780635c5c0d601161024a57806366ff9f801161022557806366ff9f80146105cf578063720b3ad3146105ee57806373dfccca14610601578063744f90a714610621575f5ffd5b80635c5c0d60146105a95780635c975abb146105bc5780635d1dccb1146105c7575f5ffd5b8063507f130511610285578063507f13051461051257806358a13b3a146105255780635ab2d62f1461054c5780635bae5e541461055f575f5ffd5b80633f4ba83a146104c957806343cdab57146104d157806345434445146104e4575f5ffd5b80632b6fdc7e116103155780632f57c174116102f05780632f57c1741461047c578063323bf9f01461049b57806336568abe146104ae578063372500ab146104c1575f5ffd5b80632b6fdc7e146104585780632def6620146104615780632f2ff15d14610469575f5ffd5b80631698fe76116103505780631698fe76146103c85780631bd067c5146103f3578063248a9ca31461040857806327c1a8121461042a575f5ffd5b806301ffc9a71461037657806302e4923c1461039e5780630a171df8146103bf575b5f5ffd5b6103896103843660046139c4565b6108b2565b60405190151581526020015b60405180910390f35b6103b16103ac366004613a06565b6108e8565b604051908152602001610395565b6103b161025881565b60ca546103db906001600160a01b031681565b6040516001600160a01b039091168152602001610395565b610406610401366004613a1f565b6109d2565b005b6103b1610416366004613a1f565b5f9081526097602052604090206001015490565b6103b1610438366004613a36565b5f91825260da60209081526040808420928452600b909201905290205490565b6103b160d35481565b610406610a4f565b610406610477366004613a56565b610c6f565b6103b161048a366004613a06565b60d66020525f908152604090205481565b60c9546103db906001600160a01b031681565b6104066104bc366004613a56565b610c98565b610406610d16565b610406610dd3565b6104066104df366004613a1f565b610df5565b6104f76104f2366004613a36565b610e82565b60408051938452602084019290925290820152606001610395565b610406610520366004613a8d565b610fbd565b6103b17f4c716a0ebd1cfd3e93ca0db9b9f8a0a9cb7c1d4cc18b52950e1f5528cc73cb5d81565b6103b161055a366004613a06565b6111ac565b61059461056d366004613a06565b6001600160a01b03165f90815260d5602090815260408083205460d4909252909120549091565b60408051928352602083019190915201610395565b6104066105b7366004613b6a565b6113a7565b60335460ff16610389565b6104066114c7565b6103b16105dd366004613a06565b60d86020525f908152604090205481565b6104066105fc366004613bad565b6119d5565b61061461060f366004613a1f565b611d31565b6040516103959190613c1e565b6104f761062f366004613bad565b611dd7565b6103b15f51602061431d5f395f51905f5281565b6103b160d25481565b61068361065f366004613a1f565b60db6020525f908152604090208054600182015460029092015460ff909116919083565b604080519315158452602084019290925290820152606001610395565b6103b16106ae366004613c30565b611e7a565b610406611ea5565b6103b16106c9366004613a06565b60d76020525f908152604090205481565b6103896106e8366004613a56565b611ec4565b6103b160cc5481565b6103b15f81565b61040661070b366004613a1f565b611eee565b6103b160cf5481565b6103b1610727366004613bad565b611f5e565b6103b161073a366004613a06565b611fa2565b6103b160ce5481565b61079a610756366004613c58565b805160208183018101805160d98252928201919093012091528054600182015460028301546003840154600485015460059095015460ff9094169492939192909186565b6040805196151587526020870195909552938501929092526060840152608083015260a082015260c001610395565b6103b1612066565b6104066107df366004613c89565b612087565b6104066107f2366004613a1f565b6121fd565b610406610805366004613a56565b61221a565b6103b16305f5e10081565b6103b160d15481565b6103b160d05481565b6103b15f5160206142fd5f395f51905f5281565b610406610849366004613bad565b61223e565b6103b16298968081565b6103b1610866366004613c30565b61227c565b61087e610879366004613a1f565b612295565b6040516103959c9b9a99989796959493929190613ca4565b6103b160cd5481565b6104066108ad366004613e16565b61237f565b5f6001600160e01b03198216637965db0b60e01b14806108e257506301ffc9a760e01b6001600160e01b03198316145b92915050565b5f5f6108f383611fa2565b5f81815260da60205260409020600681015460049091015491925090156109985760ce545f83815260da60205260408120600401549091906109359042613f3b565b61093f9190613f4e565b60ce545f85815260da6020526040812060030154929350916109619190613f4e565b90508181111561099157806109768382613f3b565b6109809085613f6d565b61098a9190613f4e565b9250610995565b5f92505b50505b6001600160a01b0384165f90815260d86020908152604080832054835260da9091529020600601546109ca9082613f84565b949350505050565b5f51602061431d5f395f51905f526109e981612884565b6001821015610a495760405162461bcd60e51b815260206004820152602160248201527f4d696e696d756d20616d6f756e74206d757374206265206174206c65617374206044820152603160f81b60648201526084015b60405180910390fd5b5060cf55565b610a5761288e565b5f610a6133611fa2565b9050805f03610aa95760405162461bcd60e51b8152602060048201526014602482015273139bc81858dd1a5d99481b1bd8dac8199bdd5b9960621b6044820152606401610a40565b5f81815260da60205260409020600501544211610b185760405162461bcd60e51b815260206004820152602760248201527f43616e6e6f7420756e7374616b65206265666f726520746865206c6f636b20656044820152666e642074696d6560c81b6064820152608401610a40565b60c9545f82815260da60205260409081902060010154905163a9059cbb60e01b815233600482015260248101919091526001600160a01b039091169063a9059cbb906044016020604051808303815f875af1158015610b79573d5f5f3e3d5ffd5b505050506040513d601f19601f82011682018060405250810190610b9d9190613f97565b5060ca545f82815260da6020526040908190206006015490516306888c6760e11b815233600482015260248101919091526001600160a01b0390911690630d1118ce906044015f604051808303815f87803b158015610bfa575f5ffd5b505af1158015610c0c573d5f5f3e3d5ffd5b5050505f82815260da60205260409081902060028101805461ff001916905560050154905183925033917f92ccf450a286a957af52509bc1c9939d1a6a481783e142e41e2499f0bb66ebc691610c6491815260200190565b60405180910390a350565b5f82815260976020526040902060010154610c8981612884565b610c9383836128d6565b505050565b6001600160a01b0381163314610d085760405162461bcd60e51b815260206004820152602f60248201527f416363657373436f6e74726f6c3a2063616e206f6e6c792072656e6f756e636560448201526e103937b632b9903337b91039b2b63360891b6064820152608401610a40565b610d12828261295b565b5050565b610d1e61288e565b5f610d276129c1565b60c95460405163a9059cbb60e01b8152336004820152602481018390529192506001600160a01b03169063a9059cbb906044016020604051808303815f875af1158015610d76573d5f5f3e3d5ffd5b505050506040513d601f19601f82011682018060405250810190610d9a9190613f97565b5060405181815233907ffc30cddea38e2bf4d6ea7d3f9ed3b6ad7f176419f4963bd81318067a4aee73fe9060200160405180910390a250565b5f5160206142fd5f395f51905f52610dea81612884565b610df2612aa0565b50565b5f51602061431d5f395f51905f52610e0c81612884565b5f82118015610e1e575062093a808211155b610e7c5760405162461bcd60e51b815260206004820152602960248201527f496e74657276616c2073686f756c642062652077697468696e207468652076616044820152686c69642072616e676560b81b6064820152608401610a40565b5060ce55565b5f82815260da60205260408120600181015482918291610ed65760405162461bcd60e51b815260206004820152600f60248201526e125b9d985b1a5908131bd8dac81259608a1b6044820152606401610a40565b60028101545f9060ff16610eee578160090154610ef2565b60cd545b6008830154945090505f610f068786613f84565b5f868152600b85016020526040902054945090505b8481118015610f2957508482115b15610fb3575f85815260db602052604090206001015415610fb357610f4f858986612af2565b610f599087613f84565b95505f600b840181610f6c886001613f84565b81526020019081526020015f20541115610fa157600b83015f610f90876001613f84565b81526020019081526020015f205493505b84610fab81613fb2565b955050610f1b565b5050509250925092565b610fc561288e565b5f81156110605750335f90815260d8602052604081205490819003610ffc5760405162461bcd60e51b8152600401610a4090613fca565b60c95460405163079cc67960e41b8152336004820152602481018590526001600160a01b03909116906379cc6790906044015f604051808303815f87803b158015611045575f5ffd5b505af1158015611057573d5f5f3e3d5ffd5b50505050611147565b61106933611fa2565b9050801580159061108957505f81815260da602052604090206005015442105b6110cd5760405162461bcd60e51b81526020600482015260156024820152744e6f20416374697665206c6f636b2065786973747360581b6044820152606401610a40565b60c9546040516323b872dd60e01b8152336004820152306024820152604481018590526001600160a01b03909116906323b872dd906064016020604051808303815f875af1158015611121573d5f5f3e3d5ffd5b505050506040513d601f19601f820116820180604052508101906111459190613f97565b505b6111518382612c65565b5f81815260da6020908152604091829020600181015460069091015483519182529181019190915282917f7975828cb9027121837d9d3a5eda3d9bf35a6582d2ec4684b110ae0b553bb4f691015b60405180910390a2505050565b6001600160a01b0381165f90815260d66020526040812054819081905b6001600160a01b0385165f90815260d560205260409020548110156112e6576001600160a01b0385165f90815260d56020526040812080546112cb91908490811061121657611216614014565b905f5260205f20015460da5f60d55f8b6001600160a01b03166001600160a01b031681526020019081526020015f20868154811061125657611256614014565b905f5260205f20015481526020019081526020015f206008015460da5f60d55f8c6001600160a01b03166001600160a01b031681526020019081526020015f2087815481106112a7576112a7614014565b905f5260205f20015481526020019081526020015f20600901546104f29190613f3b565b5050905080846112db9190613f84565b9350506001016111c9565b506001600160a01b0384165f90815260d860205260409020541580159061133557506001600160a01b0384165f90815260d86020908152604080832054835260da90915290206008015460cd54115b1561137b576001600160a01b0384165f90815260d8602090815260408083205480845260da9092529091206008015460cd5461137592916104f291613f3b565b50909150505b6001600160a01b0384165f90815260d7602052604090205461139d8284613f84565b6109ca9190613f84565b5f51602061431d5f395f51905f526113be81612884565b60cb545f90815b8181101561144b57856040516020016113de919061403f565b6040516020818303038152906040528051906020012060cb828154811061140757611407614014565b905f5260205f200160405160200161141f919061407c565b6040516020818303038152906040528051906020012003611443576001925061144b565b6001016113c5565b508161148f5760405162461bcd60e51b8152602060048201526013602482015272141bdbdb08191bd95cc81b9bdd08195e1a5cdd606a1b6044820152606401610a40565b8360d9866040516114a0919061403f565b908152604051908190036020019020805491151560ff199092169190911790555050505050565b6114cf61288e565b60d15460c9546040516370a0823160e01b81523360048201525f92629896809290916001600160a01b03909116906370a0823190602401602060405180830381865afa158015611521573d5f5f3e3d5ffd5b505050506040513d601f19601f8201168201806040525081019061154591906140ed565b61154f9190613f6d565b6115599190613f4e565b905060d0548110156115c05760405162461bcd60e51b815260206004820152602a60248201527f526577617264206d757374206265206174206c6561737420746865206d696e696044820152691b5d5b48185b5bdd5b9d60b21b6064820152608401610a40565b60cd546115cb612066565b81106116195760405162461bcd60e51b815260206004820152601a60248201527f43616e6e6f742070726f63657373206265666f72652074696d650000000000006044820152606401610a40565b60c9546040516323b872dd60e01b8152336004820152306024820152604481018490526001600160a01b03909116906323b872dd906064016020604051808303815f875af115801561166d573d5f5f3e3d5ffd5b505050506040513d601f19601f820116820180604052508101906116919190613f97565b5060d35461169f8184613f84565b5f83815260db6020526040812060020182905590935090506102586116c5836001613f84565b6116cf9190613f6d565b60d2546116dc9190613f84565b5f83815260db60205260408120600101919091555b60cb5481101561196a5760db5f8481526020019081526020015f2060040160cb828154811061172257611722614014565b905f5260205f2001604051611737919061407c565b90815260200160405180910390205460d960cb838154811061175b5761175b614014565b905f5260205f2001604051611770919061407c565b90815260200160405180910390206004015f82825461178f9190613f84565b909155505080156118345760db5f8481526020019081526020015f2060050160cb82815481106117c1576117c1614014565b905f5260205f20016040516117d6919061407c565b90815260200160405180910390205460d960cb83815481106117fa576117fa614014565b905f5260205f200160405161180f919061407c565b90815260200160405180910390206004015f82825461182e9190613f3b565b90915550505b60d960cb828154811061184957611849614014565b905f5260205f200160405161185e919061407c565b90815260200160405180910390206004015460db5f8581526020019081526020015f2060030160cb838154811061189757611897614014565b905f5260205f20016040516118ac919061407c565b90815260200160405180910390208190555060d960cb82815481106118d3576118d3614014565b905f5260205f20016040516118e8919061407c565b9081526020016040518091039020600401545f03611962576298968060d960cb838154811061191957611919614014565b905f5260205f200160405161192e919061407c565b9081526020016040518091039020600201548561194b9190613f6d565b6119559190613f4e565b61195f9083613f84565b91505b6001016116f1565b5060d381905560405183815282907f40df43107e8b4d467127964bd3c966687c0a6a39aaede970755397fd09535e989060200160405180910390a25f82815260db60205260408120805460ff1916600117905560cd8054916119cb83613fb2565b9190505550505050565b6119dd61288e565b5f6119e733611fa2565b90508015801590611a0757505f81815260da602052604090206005015442105b611a4a5760405162461bcd60e51b8152602060048201526014602482015273139bc81858dd1a5d99481b1bd8dac8199bdd5b9960621b6044820152606401610a40565b5f81815260da60205260409081902060030154905160d990611a6d90859061403f565b9081526020016040518091039020600301541015611ae55760405162461bcd60e51b815260206004820152602f60248201527f4c6f636b206475726174696f6e2063616e6e6f74206265206c6573732074686160448201526e6e206578697374696e67206c6f636b60881b6064820152608401610a40565b5f81815260da602052604081206001810154815490929190611b069061404a565b80601f0160208091040260200160405190810160405280929190818152602001828054611b329061404a565b8015611b7d5780601f10611b5457610100808354040283529160200191611b7d565b820191905f5260205f20905b815481529060010190602001808311611b6057829003601f168201915b5050505f86815260da6020526040812060028101805461ff001916905542600590910155929350611bb091506120669050565b5f85815260da6020526040902060090154909150811015611cdc575f84815260da6020908152604080832060090154835260db909152908190209051849160050190611bfd90859061403f565b90815260200160405180910390205f828254611c199190613f3b565b90915550505f84815260da6020908152604080832060090184905583835260db909152908190209051849160050190611c5390859061403f565b90815260200160405180910390205f828254611c6f9190613f84565b90915550505f84815260da602052604090206009810154600890910154148015611ca65750335f90815260d5602052604090205415155b15611cdc57335f90815260d560205260409020805480611cc857611cc8614104565b600190038181905f5260205f20015f905590555b5f84815260da6020526040902060060154611cfc90879085908885612f5d565b60cc5460405185907f49b2ada88c09d45d501a352ddd16f0b8baba46034a2b243bfa8e215e2745f233905f90a3505050505050565b60cb8181548110611d40575f80fd5b905f5260205f20015f915090508054611d589061404a565b80601f0160208091040260200160405190810160405280929190818152602001828054611d849061404a565b8015611dcf5780601f10611da657610100808354040283529160200191611dcf565b820191905f5260205f20905b815481529060010190602001808311611db257829003601f168201915b505050505081565b5f5f5f60db5f8681526020019081526020015f2060030184604051611dfc919061403f565b90815260200160405180910390205460db5f8781526020019081526020015f2060040185604051611e2d919061403f565b90815260200160405180910390205460db5f8881526020019081526020015f2060050186604051611e5e919061403f565b9081526020016040518091039020549250925092509250925092565b60d5602052815f5260405f208181548110611e93575f80fd5b905f5260205f20015f91509150505481565b5f5160206142fd5f395f51905f52611ebc81612884565b610df26134e7565b5f9182526097602090815260408084206001600160a01b0393909316845291905290205460ff1690565b5f51602061431d5f395f51905f52611f0581612884565b62989680821115611f585760405162461bcd60e51b815260206004820152601860248201527f496e76616c69642070657263656e746167652076616c756500000000000000006044820152606401610a40565b5060d155565b5f6305f5e10060d983604051611f74919061403f565b90815260200160405180910390206001015484611f919190613f6d565b611f9b9190613f4e565b9392505050565b6001600160a01b0381165f90815260d460205260408120548015612060576001600160a01b0383165f90815260d46020526040812060da9190611fe6600185613f3b565b81548110611ff657611ff6614014565b905f5260205f20015481526020019081526020015f2060020160019054906101000a900460ff1615612060576001600160a01b0383165f90815260d460205260409020612044600183613f3b565b8154811061205457612054614014565b905f5260205f20015491505b50919050565b5f61025860d254426120789190613f3b565b6120829190613f4e565b905090565b61208f61288e565b5f6120986129c1565b90505f821561212f5750335f90815260d86020526040812054908190036120d15760405162461bcd60e51b8152600401610a4090613fca565b60c954604051630852cd8d60e31b8152600481018490526001600160a01b03909116906342966c68906024015f604051808303815f87803b158015612114575f5ffd5b505af1158015612126573d5f5f3e3d5ffd5b5050505061219c565b61213833611fa2565b9050801580159061215857505f81815260da602052604090206005015442105b61219c5760405162461bcd60e51b81526020600482015260156024820152744e6f20416374697665206c6f636b2065786973747360581b6044820152606401610a40565b6121a68282612c65565b5f81815260da6020908152604091829020600181015460069091015483519182529181018590529182015281907f4e2cc4951f3eeabdd9e423f93eba5e634644ff5fc64b2e59c2486c23a305dd8e9060600161119f565b5f51602061431d5f395f51905f5261221481612884565b5060d055565b5f8281526097602052604090206001015461223481612884565b610c93838361295b565b61224661288e565b60cf548210156122685760405162461bcd60e51b8152600401610a4090614118565b610d12825f5f84612277612066565b612f5d565b60d4602052815f5260405f208181548110611e93575f80fd5b60da6020525f90815260409020805481906122af9061404a565b80601f01602080910402602001604051908101604052809291908181526020018280546122db9061404a565b80156123265780601f106122fd57610100808354040283529160200191612326565b820191905f5260205f20905b81548152906001019060200180831161230957829003601f168201915b50505060018401546002850154600386015460048701546005880154600689015460078a015460088b015460098c0154600a909c01549a9b979a60ff8089169b506101009098049097169850949693959294919390928c565b5f54610100900460ff161580801561239d57505f54600160ff909116105b806123b65750303b1580156123b657505f5460ff166001145b6124195760405162461bcd60e51b815260206004820152602e60248201527f496e697469616c697a61626c653a20636f6e747261637420697320616c72656160448201526d191e481a5b9a5d1a585b1a5e995960921b6064820152608401610a40565b5f805460ff19166001179055801561243a575f805461ff0019166101001790555b6001600160a01b038a166124905760405162461bcd60e51b815260206004820152601a60248201527f496e76616c696420414c564120746f6b656e20616464726573730000000000006044820152606401610a40565b6001600160a01b0389166124e65760405162461bcd60e51b815260206004820152601c60248201527f496e76616c6964207665414c564120746f6b656e2061646472657373000000006044820152606401610a40565b60c980546001600160a01b03808d166001600160a01b03199283161790925560ca8054928c169290911691909117905560ce88905560d2879055600160cf5561271060d055624c4b4060d15561253c5f336128d6565b6125535f5160206142fd5f395f51905f52336128d6565b61256a5f51602061431d5f395f51905f52336128d6565b6125947f4c716a0ebd1cfd3e93ca0db9b9f8a0a9cb7c1d4cc18b52950e1f5528cc73cb5d336128d6565b825f815181106125a6576125a6614014565b60200260200101515f146125f05760405162461bcd60e51b8152602060048201526011602482015270496e76616c6964204475726174696f6e7360781b6044820152606401610a40565b85515f906126059060cb9060208a019061390e565b505f5b87518110156127ed5785818151811061262357612623614014565b602002602001015160d989838151811061263f5761263f614014565b6020026020010151604051612654919061403f565b90815260200160405180910390206001018190555086818151811061267b5761267b614014565b602002602001015160d989838151811061269757612697614014565b60200260200101516040516126ac919061403f565b9081526020016040518091039020600201819055508481815181106126d3576126d3614014565b602002602001015160d98983815181106126ef576126ef614014565b6020026020010151604051612704919061403f565b908152602001604051809103902060030181905550600160d989838151811061272f5761272f614014565b6020026020010151604051612744919061403f565b908152604051908190036020019020805491151560ff19909216919091179055835184908290811061277857612778614014565b602002602001015160d989838151811061279457612794614014565b60200260200101516040516127a9919061403f565b9081526020016040518091039020600501819055508681815181106127d0576127d0614014565b6020026020010151826127e39190613f84565b9150600101612608565b506298968081146128325760405162461bcd60e51b815260206004820152600f60248201526e496e76616c6964205265776172647360881b6044820152606401610a40565b508015612878575f805461ff0019169055604051600181527f7f26b83ff96e1f2b6a682f133852f6798a09c465da95921460cefb38474024989060200160405180910390a15b50505050505050505050565b610df28133613524565b60335460ff16156128d45760405162461bcd60e51b815260206004820152601060248201526f14185d5cd8589b194e881c185d5cd95960821b6044820152606401610a40565b565b6128e08282611ec4565b610d12575f8281526097602090815260408083206001600160a01b03851684529091529020805460ff191660011790556129173390565b6001600160a01b0316816001600160a01b0316837f2f8788117e7eff1d82e926ec794901d17c78024a50270940304540a733656f0d60405160405180910390a45050565b6129658282611ec4565b15610d12575f8281526097602090815260408083206001600160a01b0385168085529252808320805460ff1916905551339285917ff6391f5c32d9c69d2a47ea670b442974b53935d1edc7fd64eb21e047a839171b9190a45050565b335f90815260d6602090815260408083205460d59092528220541115612a1f57335f90815260d56020908152604080832060d6909252909120548154612a1f9291908110612a1157612a11614014565b905f5260205f20015461357d565b612a2761365f565b50335f90815260d7602052604090205480612a8e5760405162461bcd60e51b815260206004820152602160248201527f4e6f207265776172647320617661696c61626c6520666f7220636c61696d696e6044820152606760f81b6064820152608401610a40565b335f90815260d7602052604081205590565b612aa861371e565b6033805460ff191690557f5db9ee0a495bf2e6ff9c91a7834c1ba4fdd244a5e8aa4e537bd38aeae4b073aa335b6040516001600160a01b03909116815260200160405180910390a1565b5f82815260da602052604081208054829190612b0d9061404a565b80601f0160208091040260200160405190810160405280929190818152602001828054612b399061404a565b8015612b845780601f10612b5b57610100808354040283529160200191612b84565b820191905f5260205f20905b815481529060010190602001808311612b6757829003601f168201915b5050505f87815260da60205260408120600a015493945092612ba99250869150613f3b565b5f86815260da6020526040902060010154612bc49190613f3b565b90506298968060db5f8881526020019081526020015f2060030183604051612bec919061403f565b9081526020016040518091039020548260d985604051612c0c919061403f565b90815260200160405180910390206002015460db5f8b81526020019081526020015f2060020154612c3d9190613f6d565b612c479190613f6d565b612c519190613f4e565b612c5b9190613f4e565b9695505050505050565b60cf54821015612c875760405162461bcd60e51b8152600401610a4090614118565b5f81815260da602052604081208054612c9f9061404a565b80601f0160208091040260200160405190810160405280929190818152602001828054612ccb9061404a565b8015612d165780601f10612ced57610100808354040283529160200191612d16565b820191905f5260205f20905b815481529060010190602001808311612cf957829003601f168201915b5050505050905060d981604051612d2d919061403f565b9081526040519081900360200190205460ff16612d8c5760405162461bcd60e51b815260206004820152601a60248201527f506f6f6c2069732063757272656e746c792064697361626c65640000000000006044820152606401610a40565b5f612d978483611f5e565b60ca546040516340c10f1960e01b8152336004820152602481018390529192506001600160a01b0316906340c10f19906044015f604051808303815f87803b158015612de1575f5ffd5b505af1158015612df3573d5f5f3e3d5ffd5b5050505f84815260da602052604081206001018054879350909190612e19908490613f84565b90915550505f83815260da602052604081206006018054839290612e3e908490613f84565b909155505f9050612e4d612066565b5f85815260da60205260409020600901549091508181101580612e8057505f85815260da602052604090206002015460ff165b15612f0d578560db5f8481526020019081526020015f2060040185604051612ea8919061403f565b90815260200160405180910390205f828254612ec49190613f84565b90915550505f81815260db6020526040908190209051879160050190612eeb90879061403f565b90815260200160405180910390205f828254612f079190613f84565b90915550505b5f85815260da60205260408120600a018054889290612f2d908490613f84565b9091555050505f93845260da60209081526040808620600a810154938752600b0190915290932092909255505050565b60d982604051612f6d919061403f565b9081526040519081900360200190205460ff16612fda5760405162461bcd60e51b815260206004820152602560248201527f54686520706f6f6c206973206e6f7420617661696c61626c6520666f72207374604482015264616b696e6760d81b6064820152608401610a40565b60cc8054905f612fe983613fb2565b91905055505f60d983604051612fff919061403f565b9081526020016040518091039020600501548261301c9190613f84565b90505f6130298688613f84565b90505f6130368286611f5e565b9050858111156130b65760ca546001600160a01b03166340c10f193361305c8985613f3b565b6040516001600160e01b031960e085901b1681526001600160a01b03909216600483015260248201526044015f604051808303815f87803b15801561309f575f5ffd5b505af11580156130b1573d5f5f3e3d5ffd5b505050505b60d9856040516130c6919061403f565b9081526020016040518091039020600301545f14613273576130e733611fa2565b156131345760405162461bcd60e51b815260206004820152601c60248201527f54696d6562617365206c6f636b20616c726561647920657869737473000000006044820152606401610a40565b335f90815260d46020908152604080832060cc54815460018101835591855292842001919091555160d99061316a90889061403f565b90815260200160405180910390206002015411156131a957335f90815260d560209081526040822060cc54815460018101835591845291909220909101555b87156132295760c9546040516323b872dd60e01b8152336004820152306024820152604481018a90526001600160a01b03909116906323b872dd906064016020604051808303815f875af1158015613203573d5f5f3e3d5ffd5b505050506040513d601f19601f820116820180604052508101906132279190613f97565b505b8160db5f8581526020019081526020015f206005018660405161324c919061403f565b90815260200160405180910390205f8282546132689190613f84565b9091555061335f9050565b335f90815260d86020526040902054156132cf5760405162461bcd60e51b815260206004820152601b60248201527f466f7265766572206c6f636b20616c72656164792065786973747300000000006044820152606401610a40565b60cc54335f81815260d86020908152604080832085905593825260da9052829020600201805460ff1916600117905560c954915163079cc67960e41b81526004810191909152602481018490526001600160a01b03909116906379cc6790906044015f604051808303815f87803b158015613348575f5ffd5b505af115801561335a573d5f5f3e3d5ffd5b505050505b60cc545f90815260da6020526040902061337986826141a7565b5060cc545f90815260da6020526040908190206001018390555160d9906133a190879061403f565b90815260408051918290036020908101832060039081015460cc80545f90815260da90945284842090920155548152204260049091015560d9906133e690879061403f565b908152602001604051809103902060030154426134039190613f84565b60cc80545f90815260da60209081526040808320600501949094558254825283822060060185905582548252838220600201805461ff001916610100179055825482528382206008018890559154815282812060090186905586815260db909152819020905183916004019061347a90889061403f565b90815260200160405180910390205f8282546134969190613f84565b909155505060cc546040513391907f0e11027f9e3d7aa31b5d23503be35faede305799d8c9ab6c5b06fe0f28589906906134d59086908a908790614261565b60405180910390a35050505050505050565b6134ef61288e565b6033805460ff191660011790557f62e78cea01bee320cd4e420270b5ea74000d11b0c9f74754ebdbfc544b05a258612ad53390565b61352e8282611ec4565b610d125761353b81613767565b613546836020613779565b604051602001613557929190614289565b60408051601f198184030181529082905262461bcd60e51b8252610a4091600401613c1e565b80158015906135a157505f81815260da602052604090206009810154600890910154105b15610df2575f5f6135b383600a610e82565b5f86815260da6020526040812060088101939093556007909201805493955090935084929091906135e5908490613f84565b9091555050335f90815260d7602052604081208054849290613608908490613f84565b90915550505f83815260da602081815260408084206008810180548652600b8201845291852086905593879052919052600990910154905403610c9357335f90815260d6602052604081208054916119cb83613fb2565b335f90815260d86020526040902054801580159061368e575060cd545f82815260da6020526040902060080154105b15610df2575f5f6136a083600a610e82565b5f86815260da6020526040812060088101939093556007909201805493955090935084929091906136d2908490613f84565b9091555050335f90815260d76020526040812080548492906136f5908490613f84565b90915550505f83815260da6020908152604080832060088101548452600b019091529020555050565b60335460ff166128d45760405162461bcd60e51b815260206004820152601460248201527314185d5cd8589b194e881b9bdd081c185d5cd95960621b6044820152606401610a40565b60606108e26001600160a01b03831660145b60605f613787836002613f6d565b613792906002613f84565b6001600160401b038111156137a9576137a9613abb565b6040519080825280601f01601f1916602001820160405280156137d3576020820181803683370190505b509050600360fc1b815f815181106137ed576137ed614014565b60200101906001600160f81b03191690815f1a905350600f60fb1b8160018151811061381b5761381b614014565b60200101906001600160f81b03191690815f1a9053505f61383d846002613f6d565b613848906001613f84565b90505b60018111156138bf576f181899199a1a9b1b9c1cb0b131b232b360811b85600f166010811061387c5761387c614014565b1a60f81b82828151811061389257613892614014565b60200101906001600160f81b03191690815f1a90535060049490941c936138b8816142e7565b905061384b565b508315611f9b5760405162461bcd60e51b815260206004820181905260248201527f537472696e67733a20686578206c656e67746820696e73756666696369656e746044820152606401610a40565b828054828255905f5260205f20908101928215613952579160200282015b82811115613952578251829061394290826141a7565b509160200191906001019061392c565b5061395e929150613962565b5090565b8082111561395e575f613975828261397e565b50600101613962565b50805461398a9061404a565b5f825580601f10613999575050565b601f0160209004905f5260205f2090810190610df291905b8082111561395e575f81556001016139b1565b5f602082840312156139d4575f5ffd5b81356001600160e01b031981168114611f9b575f5ffd5b80356001600160a01b0381168114613a01575f5ffd5b919050565b5f60208284031215613a16575f5ffd5b611f9b826139eb565b5f60208284031215613a2f575f5ffd5b5035919050565b5f5f60408385031215613a47575f5ffd5b50508035926020909101359150565b5f5f60408385031215613a67575f5ffd5b82359150613a77602084016139eb565b90509250929050565b8015158114610df2575f5ffd5b5f5f60408385031215613a9e575f5ffd5b823591506020830135613ab081613a80565b809150509250929050565b634e487b7160e01b5f52604160045260245ffd5b604051601f8201601f191681016001600160401b0381118282101715613af757613af7613abb565b604052919050565b5f82601f830112613b0e575f5ffd5b81356001600160401b03811115613b2757613b27613abb565b613b3a601f8201601f1916602001613acf565b818152846020838601011115613b4e575f5ffd5b816020850160208301375f918101602001919091529392505050565b5f5f60408385031215613b7b575f5ffd5b82356001600160401b03811115613b90575f5ffd5b613b9c85828601613aff565b9250506020830135613ab081613a80565b5f5f60408385031215613bbe575f5ffd5b8235915060208301356001600160401b03811115613bda575f5ffd5b613be685828601613aff565b9150509250929050565b5f81518084528060208401602086015e5f602082860101526020601f19601f83011685010191505092915050565b602081525f611f9b6020830184613bf0565b5f5f60408385031215613c41575f5ffd5b613c4a836139eb565b946020939093013593505050565b5f60208284031215613c68575f5ffd5b81356001600160401b03811115613c7d575f5ffd5b6109ca84828501613aff565b5f60208284031215613c99575f5ffd5b8135611f9b81613a80565b61018081525f613cb861018083018f613bf0565b602083019d909d525099151560408b015297151560608a0152608089019690965260a088019490945260c087019290925260e086015261010085015261012084015261014083015261016090910152919050565b5f6001600160401b03821115613d2457613d24613abb565b5060051b60200190565b5f82601f830112613d3d575f5ffd5b8135613d50613d4b82613d0c565b613acf565b8082825260208201915060208360051b860101925085831115613d71575f5ffd5b602085015b83811015613db15780356001600160401b03811115613d93575f5ffd5b613da2886020838a0101613aff565b84525060209283019201613d76565b5095945050505050565b5f82601f830112613dca575f5ffd5b8135613dd8613d4b82613d0c565b8082825260208201915060208360051b860101925085831115613df9575f5ffd5b602085015b83811015613db1578035835260209283019201613dfe565b5f5f5f5f5f5f5f5f5f6101208a8c031215613e2f575f5ffd5b613e388a6139eb565b9850613e4660208b016139eb565b975060408a0135965060608a0135955060808a01356001600160401b03811115613e6e575f5ffd5b613e7a8c828d01613d2e565b95505060a08a01356001600160401b03811115613e95575f5ffd5b613ea18c828d01613dbb565b94505060c08a01356001600160401b03811115613ebc575f5ffd5b613ec88c828d01613dbb565b93505060e08a01356001600160401b03811115613ee3575f5ffd5b613eef8c828d01613dbb565b9250506101008a01356001600160401b03811115613f0b575f5ffd5b613f178c828d01613dbb565b9150509295985092959850929598565b634e487b7160e01b5f52601160045260245ffd5b818103818111156108e2576108e2613f27565b5f82613f6857634e487b7160e01b5f52601260045260245ffd5b500490565b80820281158282048414176108e2576108e2613f27565b808201808211156108e2576108e2613f27565b5f60208284031215613fa7575f5ffd5b8151611f9b81613a80565b5f60018201613fc357613fc3613f27565b5060010190565b6020808252602a908201527f4e6f2061637469766520666f7265766572206c6f636b2065786973747320666f60408201526939103a3432903ab9b2b960b11b606082015260800190565b634e487b7160e01b5f52603260045260245ffd5b5f81518060208401855e5f93019283525090919050565b5f611f9b8284614028565b600181811c9082168061405e57607f821691505b60208210810361206057634e487b7160e01b5f52602260045260245ffd5b5f5f83546140898161404a565b6001821680156140a057600181146140b5576140e2565b60ff19831686528115158202860193506140e2565b865f5260205f205f5b838110156140da578154888201526001909101906020016140be565b505081860193505b509195945050505050565b5f602082840312156140fd575f5ffd5b5051919050565b634e487b7160e01b5f52603160045260245ffd5b60208082526024908201527f416d6f756e742069732062656c6f7720746865206d696e696d756d20726571756040820152631a5c995960e21b606082015260800190565b601f821115610c9357805f5260205f20601f840160051c810160208510156141815750805b601f840160051c820191505b818110156141a0575f815560010161418d565b5050505050565b81516001600160401b038111156141c0576141c0613abb565b6141d4816141ce845461404a565b8461415c565b6020601f821160018114614206575f83156141ef5750848201515b5f19600385901b1c1916600184901b1784556141a0565b5f84815260208120601f198516915b828110156142355787850151825560209485019460019092019101614215565b508482101561425257868401515f19600387901b60f8161c191681555b50505050600190811b01905550565b838152606060208201525f6142796060830185613bf0565b9050826040830152949350505050565b7f416363657373436f6e74726f6c3a206163636f756e742000000000000000000081525f6142ba6017830185614028565b7001034b99036b4b9b9b4b733903937b6329607d1b81526142de6011820185614028565b95945050505050565b5f816142f5576142f5613f27565b505f19019056fe65d7a28e3265b37a6474929f336521b332c1681b933f6cb9f3376673440d862aa49807205ce4d355092ef5a8a18f56e8913cf4a201fbe287825b095693c21775a2646970667358221220d319d92c7d4d34128b901ff0dc28aced1970f825fc66330e48f973f9a83c867364736f6c634300081e0033",
			"opcodes": "PUSH1 0x80 PUSH1 0x40 MSTORE CALLVALUE DUP1 ISZERO PUSH1 0xE JUMPI PUSH0 PUSH0 REVERT JUMPDEST POP PUSH2 0x4372 DUP1 PUSH2 0x1C PUSH0 CODECOPY PUSH0 RETURN INVALID PUSH1 0x80 PUSH1 0x40 MSTORE CALLVALUE DUP1 ISZERO PUSH2 0xF JUMPI PUSH0 PUSH0 REVERT JUMPDEST POP PUSH1 0x4 CALLDATASIZE LT PUSH2 0x372 JUMPI PUSH0 CALLDATALOAD PUSH1 0xE0 SHR DUP1 PUSH4 0x75B238FC GT PUSH2 0x1D4 JUMPI DUP1 PUSH4 0xC142D988 GT PUSH2 0x109 JUMPI DUP1 PUSH4 0xE27C8AD5 GT PUSH2 0xA9 JUMPI DUP1 PUSH4 0xEEE7F41C GT PUSH2 0x79 JUMPI DUP1 PUSH4 0xEEE7F41C EQ PUSH2 0x858 JUMPI DUP1 PUSH4 0xEFB81031 EQ PUSH2 0x86B JUMPI DUP1 PUSH4 0xF9F16788 EQ PUSH2 0x896 JUMPI DUP1 PUSH4 0xFFF9E917 EQ PUSH2 0x89F JUMPI PUSH0 PUSH0 REVERT JUMPDEST DUP1 PUSH4 0xE27C8AD5 EQ PUSH2 0x81E JUMPI DUP1 PUSH4 0xE63AB1E9 EQ PUSH2 0x827 JUMPI DUP1 PUSH4 0xE7E4E1F7 EQ PUSH2 0x83B JUMPI DUP1 PUSH4 0xEE01E5E7 EQ PUSH2 0x84E JUMPI PUSH0 PUSH0 REVERT JUMPDEST DUP1 PUSH4 0xD3F52D00 GT PUSH2 0xE4 JUMPI DUP1 PUSH4 0xD3F52D00 EQ PUSH2 0x7E4 JUMPI DUP1 PUSH4 0xD547741F EQ PUSH2 0x7F7 JUMPI DUP1 PUSH4 0xD8BBD46C EQ PUSH2 0x80A JUMPI DUP1 PUSH4 0xDF3100D4 EQ PUSH2 0x815 JUMPI PUSH0 PUSH0 REVERT JUMPDEST DUP1 PUSH4 0xC142D988 EQ PUSH2 0x748 JUMPI DUP1 PUSH4 0xC38474C0 EQ PUSH2 0x7C9 JUMPI DUP1 PUSH4 0xC86A0D16 EQ PUSH2 0x7D1 JUMPI PUSH0 PUSH0 REVERT JUMPDEST DUP1 PUSH4 0xA0B80DB4 GT PUSH2 0x174 JUMPI DUP1 PUSH4 0xB0D2D011 GT PUSH2 0x14F JUMPI DUP1 PUSH4 0xB0D2D011 EQ PUSH2 0x710 JUMPI DUP1 PUSH4 0xB397E572 EQ PUSH2 0x719 JUMPI DUP1 PUSH4 0xB44C4FEF EQ PUSH2 0x72C JUMPI DUP1 PUSH4 0xB6334AEE EQ PUSH2 0x73F JUMPI PUSH0 PUSH0 REVERT JUMPDEST DUP1 PUSH4 0xA0B80DB4 EQ PUSH2 0x6ED JUMPI DUP1 PUSH4 0xA217FDDF EQ PUSH2 0x6F6 JUMPI DUP1 PUSH4 0xABD8A033 EQ PUSH2 0x6FD JUMPI PUSH0 PUSH0 REVERT JUMPDEST DUP1 PUSH4 0x7F53243B GT PUSH2 0x1AF JUMPI DUP1 PUSH4 0x7F53243B EQ PUSH2 0x6A0 JUMPI DUP1 PUSH4 0x8456CB59 EQ PUSH2 0x6B3 JUMPI DUP1 PUSH4 0x8B2D0CCF EQ PUSH2 0x6BB JUMPI DUP1 PUSH4 0x91D14854 EQ PUSH2 0x6DA JUMPI PUSH0 PUSH0 REVERT JUMPDEST DUP1 PUSH4 0x75B238FC EQ PUSH2 0x634 JUMPI DUP1 PUSH4 0x78E97925 EQ PUSH2 0x648 JUMPI DUP1 PUSH4 0x7C83E6C8 EQ PUSH2 0x651 JUMPI PUSH0 PUSH0 REVERT JUMPDEST DUP1 PUSH4 0x3F4BA83A GT PUSH2 0x2AA JUMPI DUP1 PUSH4 0x5C5C0D60 GT PUSH2 0x24A JUMPI DUP1 PUSH4 0x66FF9F80 GT PUSH2 0x225 JUMPI DUP1 PUSH4 0x66FF9F80 EQ PUSH2 0x5CF JUMPI DUP1 PUSH4 0x720B3AD3 EQ PUSH2 0x5EE JUMPI DUP1 PUSH4 0x73DFCCCA EQ PUSH2 0x601 JUMPI DUP1 PUSH4 0x744F90A7 EQ PUSH2 0x621 JUMPI PUSH0 PUSH0 REVERT JUMPDEST DUP1 PUSH4 0x5C5C0D60 EQ PUSH2 0x5A9 JUMPI DUP1 PUSH4 0x5C975ABB EQ PUSH2 0x5BC JUMPI DUP1 PUSH4 0x5D1DCCB1 EQ PUSH2 0x5C7 JUMPI PUSH0 PUSH0 REVERT JUMPDEST DUP1 PUSH4 0x507F1305 GT PUSH2 0x285 JUMPI DUP1 PUSH4 0x507F1305 EQ PUSH2 0x512 JUMPI DUP1 PUSH4 0x58A13B3A EQ PUSH2 0x525 JUMPI DUP1 PUSH4 0x5AB2D62F EQ PUSH2 0x54C JUMPI DUP1 PUSH4 0x5BAE5E54 EQ PUSH2 0x55F JUMPI PUSH0 PUSH0 REVERT JUMPDEST DUP1 PUSH4 0x3F4BA83A EQ PUSH2 0x4C9 JUMPI DUP1 PUSH4 0x43CDAB57 EQ PUSH2 0x4D1 JUMPI DUP1 PUSH4 0x45434445 EQ PUSH2 0x4E4 JUMPI PUSH0 PUSH0 REVERT JUMPDEST DUP1 PUSH4 0x2B6FDC7E GT PUSH2 0x315 JUMPI DUP1 PUSH4 0x2F57C174 GT PUSH2 0x2F0 JUMPI DUP1 PUSH4 0x2F57C174 EQ PUSH2 0x47C JUMPI DUP1 PUSH4 0x323BF9F0 EQ PUSH2 0x49B JUMPI DUP1 PUSH4 0x36568ABE EQ PUSH2 0x4AE JUMPI DUP1 PUSH4 0x372500AB EQ PUSH2 0x4C1 JUMPI PUSH0 PUSH0 REVERT JUMPDEST DUP1 PUSH4 0x2B6FDC7E EQ PUSH2 0x458 JUMPI DUP1 PUSH4 0x2DEF6620 EQ PUSH2 0x461 JUMPI DUP1 PUSH4 0x2F2FF15D EQ PUSH2 0x469 JUMPI PUSH0 PUSH0 REVERT JUMPDEST DUP1 PUSH4 0x1698FE76 GT PUSH2 0x350 JUMPI DUP1 PUSH4 0x1698FE76 EQ PUSH2 0x3C8 JUMPI DUP1 PUSH4 0x1BD067C5 EQ PUSH2 0x3F3 JUMPI DUP1 PUSH4 0x248A9CA3 EQ PUSH2 0x408 JUMPI DUP1 PUSH4 0x27C1A812 EQ PUSH2 0x42A JUMPI PUSH0 PUSH0 REVERT JUMPDEST DUP1 PUSH4 0x1FFC9A7 EQ PUSH2 0x376 JUMPI DUP1 PUSH4 0x2E4923C EQ PUSH2 0x39E JUMPI DUP1 PUSH4 0xA171DF8 EQ PUSH2 0x3BF JUMPI JUMPDEST PUSH0 PUSH0 REVERT JUMPDEST PUSH2 0x389 PUSH2 0x384 CALLDATASIZE PUSH1 0x4 PUSH2 0x39C4 JUMP JUMPDEST PUSH2 0x8B2 JUMP JUMPDEST PUSH1 0x40 MLOAD SWAP1 ISZERO ISZERO DUP2 MSTORE PUSH1 0x20 ADD JUMPDEST PUSH1 0x40 MLOAD DUP1 SWAP2 SUB SWAP1 RETURN JUMPDEST PUSH2 0x3B1 PUSH2 0x3AC CALLDATASIZE PUSH1 0x4 PUSH2 0x3A06 JUMP JUMPDEST PUSH2 0x8E8 JUMP JUMPDEST PUSH1 0x40 MLOAD SWAP1 DUP2 MSTORE PUSH1 0x20 ADD PUSH2 0x395 JUMP JUMPDEST PUSH2 0x3B1 PUSH2 0x258 DUP2 JUMP JUMPDEST PUSH1 0xCA SLOAD PUSH2 0x3DB SWAP1 PUSH1 0x1 PUSH1 0x1 PUSH1 0xA0 SHL SUB AND DUP2 JUMP JUMPDEST PUSH1 0x40 MLOAD PUSH1 0x1 PUSH1 0x1 PUSH1 0xA0 SHL SUB SWAP1 SWAP2 AND DUP2 MSTORE PUSH1 0x20 ADD PUSH2 0x395 JUMP JUMPDEST PUSH2 0x406 PUSH2 0x401 CALLDATASIZE PUSH1 0x4 PUSH2 0x3A1F JUMP JUMPDEST PUSH2 0x9D2 JUMP JUMPDEST STOP JUMPDEST PUSH2 0x3B1 PUSH2 0x416 CALLDATASIZE PUSH1 0x4 PUSH2 0x3A1F JUMP JUMPDEST PUSH0 SWAP1 DUP2 MSTORE PUSH1 0x97 PUSH1 0x20 MSTORE PUSH1 0x40 SWAP1 KECCAK256 PUSH1 0x1 ADD SLOAD SWAP1 JUMP JUMPDEST PUSH2 0x3B1 PUSH2 0x438 CALLDATASIZE PUSH1 0x4 PUSH2 0x3A36 JUMP JUMPDEST PUSH0 SWAP2 DUP3 MSTORE PUSH1 0xDA PUSH1 0x20 SWAP1 DUP2 MSTORE PUSH1 0x40 DUP1 DUP5 KECCAK256 SWAP3 DUP5 MSTORE PUSH1 0xB SWAP1 SWAP3 ADD SWAP1 MSTORE SWAP1 KECCAK256 SLOAD SWAP1 JUMP JUMPDEST PUSH2 0x3B1 PUSH1 0xD3 SLOAD DUP2 JUMP JUMPDEST PUSH2 0x406 PUSH2 0xA4F JUMP JUMPDEST PUSH2 0x406 PUSH2 0x477 CALLDATASIZE PUSH1 0x4 PUSH2 0x3A56 JUMP JUMPDEST PUSH2 0xC6F JUMP JUMPDEST PUSH2 0x3B1 PUSH2 0x48A CALLDATASIZE PUSH1 0x4 PUSH2 0x3A06 JUMP JUMPDEST PUSH1 0xD6 PUSH1 0x20 MSTORE PUSH0 SWAP1 DUP2 MSTORE PUSH1 0x40 SWAP1 KECCAK256 SLOAD DUP2 JUMP JUMPDEST PUSH1 0xC9 SLOAD PUSH2 0x3DB SWAP1 PUSH1 0x1 PUSH1 0x1 PUSH1 0xA0 SHL SUB AND DUP2 JUMP JUMPDEST PUSH2 0x406 PUSH2 0x4BC CALLDATASIZE PUSH1 0x4 PUSH2 0x3A56 JUMP JUMPDEST PUSH2 0xC98 JUMP JUMPDEST PUSH2 0x406 PUSH2 0xD16 JUMP JUMPDEST PUSH2 0x406 PUSH2 0xDD3 JUMP JUMPDEST PUSH2 0x406 PUSH2 0x4DF CALLDATASIZE PUSH1 0x4 PUSH2 0x3A1F JUMP JUMPDEST PUSH2 0xDF5 JUMP JUMPDEST PUSH2 0x4F7 PUSH2 0x4F2 CALLDATASIZE PUSH1 0x4 PUSH2 0x3A36 JUMP JUMPDEST PUSH2 0xE82 JUMP JUMPDEST PUSH1 0x40 DUP1 MLOAD SWAP4 DUP5 MSTORE PUSH1 0x20 DUP5 ADD SWAP3 SWAP1 SWAP3 MSTORE SWAP1 DUP3 ADD MSTORE PUSH1 0x60 ADD PUSH2 0x395 JUMP JUMPDEST PUSH2 0x406 PUSH2 0x520 CALLDATASIZE PUSH1 0x4 PUSH2 0x3A8D JUMP JUMPDEST PUSH2 0xFBD JUMP JUMPDEST PUSH2 0x3B1 PUSH32 0x4C716A0EBD1CFD3E93CA0DB9B9F8A0A9CB7C1D4CC18B52950E1F5528CC73CB5D DUP2 JUMP JUMPDEST PUSH2 0x3B1 PUSH2 0x55A CALLDATASIZE PUSH1 0x4 PUSH2 0x3A06 JUMP JUMPDEST PUSH2 0x11AC JUMP JUMPDEST PUSH2 0x594 PUSH2 0x56D CALLDATASIZE PUSH1 0x4 PUSH2 0x3A06 JUMP JUMPDEST PUSH1 0x1 PUSH1 0x1 PUSH1 0xA0 SHL SUB AND PUSH0 SWAP1 DUP2 MSTORE PUSH1 0xD5 PUSH1 0x20 SWAP1 DUP2 MSTORE PUSH1 0x40 DUP1 DUP4 KECCAK256 SLOAD PUSH1 0xD4 SWAP1 SWAP3 MSTORE SWAP1 SWAP2 KECCAK256 SLOAD SWAP1 SWAP2 JUMP JUMPDEST PUSH1 0x40 DUP1 MLOAD SWAP3 DUP4 MSTORE PUSH1 0x20 DUP4 ADD SWAP2 SWAP1 SWAP2 MSTORE ADD PUSH2 0x395 JUMP JUMPDEST PUSH2 0x406 PUSH2 0x5B7 CALLDATASIZE PUSH1 0x4 PUSH2 0x3B6A JUMP JUMPDEST PUSH2 0x13A7 JUMP JUMPDEST PUSH1 0x33 SLOAD PUSH1 0xFF AND PUSH2 0x389 JUMP JUMPDEST PUSH2 0x406 PUSH2 0x14C7 JUMP JUMPDEST PUSH2 0x3B1 PUSH2 0x5DD CALLDATASIZE PUSH1 0x4 PUSH2 0x3A06 JUMP JUMPDEST PUSH1 0xD8 PUSH1 0x20 MSTORE PUSH0 SWAP1 DUP2 MSTORE PUSH1 0x40 SWAP1 KECCAK256 SLOAD DUP2 JUMP JUMPDEST PUSH2 0x406 PUSH2 0x5FC CALLDATASIZE PUSH1 0x4 PUSH2 0x3BAD JUMP JUMPDEST PUSH2 0x19D5 JUMP JUMPDEST PUSH2 0x614 PUSH2 0x60F CALLDATASIZE PUSH1 0x4 PUSH2 0x3A1F JUMP JUMPDEST PUSH2 0x1D31 JUMP JUMPDEST PUSH1 0x40 MLOAD PUSH2 0x395 SWAP2 SWAP1 PUSH2 0x3C1E JUMP JUMPDEST PUSH2 0x4F7 PUSH2 0x62F CALLDATASIZE PUSH1 0x4 PUSH2 0x3BAD JUMP JUMPDEST PUSH2 0x1DD7 JUMP JUMPDEST PUSH2 0x3B1 PUSH0 MLOAD PUSH1 0x20 PUSH2 0x431D PUSH0 CODECOPY PUSH0 MLOAD SWAP1 PUSH0 MSTORE DUP2 JUMP JUMPDEST PUSH2 0x3B1 PUSH1 0xD2 SLOAD DUP2 JUMP JUMPDEST PUSH2 0x683 PUSH2 0x65F CALLDATASIZE PUSH1 0x4 PUSH2 0x3A1F JUMP JUMPDEST PUSH1 0xDB PUSH1 0x20 MSTORE PUSH0 SWAP1 DUP2 MSTORE PUSH1 0x40 SWAP1 KECCAK256 DUP1 SLOAD PUSH1 0x1 DUP3 ADD SLOAD PUSH1 0x2 SWAP1 SWAP3 ADD SLOAD PUSH1 0xFF SWAP1 SWAP2 AND SWAP2 SWAP1 DUP4 JUMP JUMPDEST PUSH1 0x40 DUP1 MLOAD SWAP4 ISZERO ISZERO DUP5 MSTORE PUSH1 0x20 DUP5 ADD SWAP3 SWAP1 SWAP3 MSTORE SWAP1 DUP3 ADD MSTORE PUSH1 0x60 ADD PUSH2 0x395 JUMP JUMPDEST PUSH2 0x3B1 PUSH2 0x6AE CALLDATASIZE PUSH1 0x4 PUSH2 0x3C30 JUMP JUMPDEST PUSH2 0x1E7A JUMP JUMPDEST PUSH2 0x406 PUSH2 0x1EA5 JUMP JUMPDEST PUSH2 0x3B1 PUSH2 0x6C9 CALLDATASIZE PUSH1 0x4 PUSH2 0x3A06 JUMP JUMPDEST PUSH1 0xD7 PUSH1 0x20 MSTORE PUSH0 SWAP1 DUP2 MSTORE PUSH1 0x40 SWAP1 KECCAK256 SLOAD DUP2 JUMP JUMPDEST PUSH2 0x389 PUSH2 0x6E8 CALLDATASIZE PUSH1 0x4 PUSH2 0x3A56 JUMP JUMPDEST PUSH2 0x1EC4 JUMP JUMPDEST PUSH2 0x3B1 PUSH1 0xCC SLOAD DUP2 JUMP JUMPDEST PUSH2 0x3B1 PUSH0 DUP2 JUMP JUMPDEST PUSH2 0x406 PUSH2 0x70B CALLDATASIZE PUSH1 0x4 PUSH2 0x3A1F JUMP JUMPDEST PUSH2 0x1EEE JUMP JUMPDEST PUSH2 0x3B1 PUSH1 0xCF SLOAD DUP2 JUMP JUMPDEST PUSH2 0x3B1 PUSH2 0x727 CALLDATASIZE PUSH1 0x4 PUSH2 0x3BAD JUMP JUMPDEST PUSH2 0x1F5E JUMP JUMPDEST PUSH2 0x3B1 PUSH2 0x73A CALLDATASIZE PUSH1 0x4 PUSH2 0x3A06 JUMP JUMPDEST PUSH2 0x1FA2 JUMP JUMPDEST PUSH2 0x3B1 PUSH1 0xCE SLOAD DUP2 JUMP JUMPDEST PUSH2 0x79A PUSH2 0x756 CALLDATASIZE PUSH1 0x4 PUSH2 0x3C58 JUMP JUMPDEST DUP1 MLOAD PUSH1 0x20 DUP2 DUP4 ADD DUP2 ADD DUP1 MLOAD PUSH1 0xD9 DUP3 MSTORE SWAP3 DUP3 ADD SWAP2 SWAP1 SWAP4 ADD KECCAK256 SWAP2 MSTORE DUP1 SLOAD PUSH1 0x1 DUP3 ADD SLOAD PUSH1 0x2 DUP4 ADD SLOAD PUSH1 0x3 DUP5 ADD SLOAD PUSH1 0x4 DUP6 ADD SLOAD PUSH1 0x5 SWAP1 SWAP6 ADD SLOAD PUSH1 0xFF SWAP1 SWAP5 AND SWAP5 SWAP3 SWAP4 SWAP2 SWAP3 SWAP1 SWAP2 DUP7 JUMP JUMPDEST PUSH1 0x40 DUP1 MLOAD SWAP7 ISZERO ISZERO DUP8 MSTORE PUSH1 0x20 DUP8 ADD SWAP6 SWAP1 SWAP6 MSTORE SWAP4 DUP6 ADD SWAP3 SWAP1 SWAP3 MSTORE PUSH1 0x60 DUP5 ADD MSTORE PUSH1 0x80 DUP4 ADD MSTORE PUSH1 0xA0 DUP3 ADD MSTORE PUSH1 0xC0 ADD PUSH2 0x395 JUMP JUMPDEST PUSH2 0x3B1 PUSH2 0x2066 JUMP JUMPDEST PUSH2 0x406 PUSH2 0x7DF CALLDATASIZE PUSH1 0x4 PUSH2 0x3C89 JUMP JUMPDEST PUSH2 0x2087 JUMP JUMPDEST PUSH2 0x406 PUSH2 0x7F2 CALLDATASIZE PUSH1 0x4 PUSH2 0x3A1F JUMP JUMPDEST PUSH2 0x21FD JUMP JUMPDEST PUSH2 0x406 PUSH2 0x805 CALLDATASIZE PUSH1 0x4 PUSH2 0x3A56 JUMP JUMPDEST PUSH2 0x221A JUMP JUMPDEST PUSH2 0x3B1 PUSH4 0x5F5E100 DUP2 JUMP JUMPDEST PUSH2 0x3B1 PUSH1 0xD1 SLOAD DUP2 JUMP JUMPDEST PUSH2 0x3B1 PUSH1 0xD0 SLOAD DUP2 JUMP JUMPDEST PUSH2 0x3B1 PUSH0 MLOAD PUSH1 0x20 PUSH2 0x42FD PUSH0 CODECOPY PUSH0 MLOAD SWAP1 PUSH0 MSTORE DUP2 JUMP JUMPDEST PUSH2 0x406 PUSH2 0x849 CALLDATASIZE PUSH1 0x4 PUSH2 0x3BAD JUMP JUMPDEST PUSH2 0x223E JUMP JUMPDEST PUSH2 0x3B1 PUSH3 0x989680 DUP2 JUMP JUMPDEST PUSH2 0x3B1 PUSH2 0x866 CALLDATASIZE PUSH1 0x4 PUSH2 0x3C30 JUMP JUMPDEST PUSH2 0x227C JUMP JUMPDEST PUSH2 0x87E PUSH2 0x879 CALLDATASIZE PUSH1 0x4 PUSH2 0x3A1F JUMP JUMPDEST PUSH2 0x2295 JUMP JUMPDEST PUSH1 0x40 MLOAD PUSH2 0x395 SWAP13 SWAP12 SWAP11 SWAP10 SWAP9 SWAP8 SWAP7 SWAP6 SWAP5 SWAP4 SWAP3 SWAP2 SWAP1 PUSH2 0x3CA4 JUMP JUMPDEST PUSH2 0x3B1 PUSH1 0xCD SLOAD DUP2 JUMP JUMPDEST PUSH2 0x406 PUSH2 0x8AD CALLDATASIZE PUSH1 0x4 PUSH2 0x3E16 JUMP JUMPDEST PUSH2 0x237F JUMP JUMPDEST PUSH0 PUSH1 0x1 PUSH1 0x1 PUSH1 0xE0 SHL SUB NOT DUP3 AND PUSH4 0x7965DB0B PUSH1 0xE0 SHL EQ DUP1 PUSH2 0x8E2 JUMPI POP PUSH4 0x1FFC9A7 PUSH1 0xE0 SHL PUSH1 0x1 PUSH1 0x1 PUSH1 0xE0 SHL SUB NOT DUP4 AND EQ JUMPDEST SWAP3 SWAP2 POP POP JUMP JUMPDEST PUSH0 PUSH0 PUSH2 0x8F3 DUP4 PUSH2 0x1FA2 JUMP JUMPDEST PUSH0 DUP2 DUP2 MSTORE PUSH1 0xDA PUSH1 0x20 MSTORE PUSH1 0x40 SWAP1 KECCAK256 PUSH1 0x6 DUP2 ADD SLOAD PUSH1 0x4 SWAP1 SWAP2 ADD SLOAD SWAP2 SWAP3 POP SWAP1 ISZERO PUSH2 0x998 JUMPI PUSH1 0xCE SLOAD PUSH0 DUP4 DUP2 MSTORE PUSH1 0xDA PUSH1 0x20 MSTORE PUSH1 0x40 DUP2 KECCAK256 PUSH1 0x4 ADD SLOAD SWAP1 SWAP2 SWAP1 PUSH2 0x935 SWAP1 TIMESTAMP PUSH2 0x3F3B JUMP JUMPDEST PUSH2 0x93F SWAP2 SWAP1 PUSH2 0x3F4E JUMP JUMPDEST PUSH1 0xCE SLOAD PUSH0 DUP6 DUP2 MSTORE PUSH1 0xDA PUSH1 0x20 MSTORE PUSH1 0x40 DUP2 KECCAK256 PUSH1 0x3 ADD SLOAD SWAP3 SWAP4 POP SWAP2 PUSH2 0x961 SWAP2 SWAP1 PUSH2 0x3F4E JUMP JUMPDEST SWAP1 POP DUP2 DUP2 GT ISZERO PUSH2 0x991 JUMPI DUP1 PUSH2 0x976 DUP4 DUP3 PUSH2 0x3F3B JUMP JUMPDEST PUSH2 0x980 SWAP1 DUP6 PUSH2 0x3F6D JUMP JUMPDEST PUSH2 0x98A SWAP2 SWAP1 PUSH2 0x3F4E JUMP JUMPDEST SWAP3 POP PUSH2 0x995 JUMP JUMPDEST PUSH0 SWAP3 POP JUMPDEST POP POP JUMPDEST PUSH1 0x1 PUSH1 0x1 PUSH1 0xA0 SHL SUB DUP5 AND PUSH0 SWAP1 DUP2 MSTORE PUSH1 0xD8 PUSH1 0x20 SWAP1 DUP2 MSTORE PUSH1 0x40 DUP1 DUP4 KECCAK256 SLOAD DUP4 MSTORE PUSH1 0xDA SWAP1 SWAP2 MSTORE SWAP1 KECCAK256 PUSH1 0x6 ADD SLOAD PUSH2 0x9CA SWAP1 DUP3 PUSH2 0x3F84 JUMP JUMPDEST SWAP5 SWAP4 POP POP POP POP JUMP JUMPDEST PUSH0 MLOAD PUSH1 0x20 PUSH2 0x431D PUSH0 CODECOPY PUSH0 MLOAD SWAP1 PUSH0 MSTORE PUSH2 0x9E9 DUP2 PUSH2 0x2884 JUMP JUMPDEST PUSH1 0x1 DUP3 LT ISZERO PUSH2 0xA49 JUMPI PUSH1 0x40 MLOAD PUSH3 0x461BCD PUSH1 0xE5 SHL DUP2 MSTORE PUSH1 0x20 PUSH1 0x4 DUP3 ADD MSTORE PUSH1 0x21 PUSH1 0x24 DUP3 ADD MSTORE PUSH32 0x4D696E696D756D20616D6F756E74206D757374206265206174206C6561737420 PUSH1 0x44 DUP3 ADD MSTORE PUSH1 0x31 PUSH1 0xF8 SHL PUSH1 0x64 DUP3 ADD MSTORE PUSH1 0x84 ADD JUMPDEST PUSH1 0x40 MLOAD DUP1 SWAP2 SUB SWAP1 REVERT JUMPDEST POP PUSH1 0xCF SSTORE JUMP JUMPDEST PUSH2 0xA57 PUSH2 0x288E JUMP JUMPDEST PUSH0 PUSH2 0xA61 CALLER PUSH2 0x1FA2 JUMP JUMPDEST SWAP1 POP DUP1 PUSH0 SUB PUSH2 0xAA9 JUMPI PUSH1 0x40 MLOAD PUSH3 0x461BCD PUSH1 0xE5 SHL DUP2 MSTORE PUSH1 0x20 PUSH1 0x4 DUP3 ADD MSTORE PUSH1 0x14 PUSH1 0x24 DUP3 ADD MSTORE PUSH20 0x139BC81858DD1A5D99481B1BD8DAC8199BDD5B99 PUSH1 0x62 SHL PUSH1 0x44 DUP3 ADD MSTORE PUSH1 0x64 ADD PUSH2 0xA40 JUMP JUMPDEST PUSH0 DUP2 DUP2 MSTORE PUSH1 0xDA PUSH1 0x20 MSTORE PUSH1 0x40 SWAP1 KECCAK256 PUSH1 0x5 ADD SLOAD TIMESTAMP GT PUSH2 0xB18 JUMPI PUSH1 0x40 MLOAD PUSH3 0x461BCD PUSH1 0xE5 SHL DUP2 MSTORE PUSH1 0x20 PUSH1 0x4 DUP3 ADD MSTORE PUSH1 0x27 PUSH1 0x24 DUP3 ADD MSTORE PUSH32 0x43616E6E6F7420756E7374616B65206265666F726520746865206C6F636B2065 PUSH1 0x44 DUP3 ADD MSTORE PUSH7 0x6E642074696D65 PUSH1 0xC8 SHL PUSH1 0x64 DUP3 ADD MSTORE PUSH1 0x84 ADD PUSH2 0xA40 JUMP JUMPDEST PUSH1 0xC9 SLOAD PUSH0 DUP3 DUP2 MSTORE PUSH1 0xDA PUSH1 0x20 MSTORE PUSH1 0x40 SWAP1 DUP2 SWAP1 KECCAK256 PUSH1 0x1 ADD SLOAD SWAP1 MLOAD PUSH4 0xA9059CBB PUSH1 0xE0 SHL DUP2 MSTORE CALLER PUSH1 0x4 DUP3 ADD MSTORE PUSH1 0x24 DUP2 ADD SWAP2 SWAP1 SWAP2 MSTORE PUSH1 0x1 PUSH1 0x1 PUSH1 0xA0 SHL SUB SWAP1 SWAP2 AND SWAP1 PUSH4 0xA9059CBB SWAP1 PUSH1 0x44 ADD PUSH1 0x20 PUSH1 0x40 MLOAD DUP1 DUP4 SUB DUP2 PUSH0 DUP8 GAS CALL ISZERO DUP1 ISZERO PUSH2 0xB79 JUMPI RETURNDATASIZE PUSH0 PUSH0 RETURNDATACOPY RETURNDATASIZE PUSH0 REVERT JUMPDEST POP POP POP POP PUSH1 0x40 MLOAD RETURNDATASIZE PUSH1 0x1F NOT PUSH1 0x1F DUP3 ADD AND DUP3 ADD DUP1 PUSH1 0x40 MSTORE POP DUP2 ADD SWAP1 PUSH2 0xB9D SWAP2 SWAP1 PUSH2 0x3F97 JUMP JUMPDEST POP PUSH1 0xCA SLOAD PUSH0 DUP3 DUP2 MSTORE PUSH1 0xDA PUSH1 0x20 MSTORE PUSH1 0x40 SWAP1 DUP2 SWAP1 KECCAK256 PUSH1 0x6 ADD SLOAD SWAP1 MLOAD PUSH4 0x6888C67 PUSH1 0xE1 SHL DUP2 MSTORE CALLER PUSH1 0x4 DUP3 ADD MSTORE PUSH1 0x24 DUP2 ADD SWAP2 SWAP1 SWAP2 MSTORE PUSH1 0x1 PUSH1 0x1 PUSH1 0xA0 SHL SUB SWAP1 SWAP2 AND SWAP1 PUSH4 0xD1118CE SWAP1 PUSH1 0x44 ADD PUSH0 PUSH1 0x40 MLOAD DUP1 DUP4 SUB DUP2 PUSH0 DUP8 DUP1 EXTCODESIZE ISZERO DUP1 ISZERO PUSH2 0xBFA JUMPI PUSH0 PUSH0 REVERT JUMPDEST POP GAS CALL ISZERO DUP1 ISZERO PUSH2 0xC0C JUMPI RETURNDATASIZE PUSH0 PUSH0 RETURNDATACOPY RETURNDATASIZE PUSH0 REVERT JUMPDEST POP POP POP PUSH0 DUP3 DUP2 MSTORE PUSH1 0xDA PUSH1 0x20 MSTORE PUSH1 0x40 SWAP1 DUP2 SWAP1 KECCAK256 PUSH1 0x2 DUP2 ADD DUP1 SLOAD PUSH2 0xFF00 NOT AND SWAP1 SSTORE PUSH1 0x5 ADD SLOAD SWAP1 MLOAD DUP4 SWAP3 POP CALLER SWAP2 PUSH32 0x92CCF450A286A957AF52509BC1C9939D1A6A481783E142E41E2499F0BB66EBC6 SWAP2 PUSH2 0xC64 SWAP2 DUP2 MSTORE PUSH1 0x20 ADD SWAP1 JUMP JUMPDEST PUSH1 0x40 MLOAD DUP1 SWAP2 SUB SWAP1 LOG3 POP JUMP JUMPDEST PUSH0 DUP3 DUP2 MSTORE PUSH1 0x97 PUSH1 0x20 MSTORE PUSH1 0x40 SWAP1 KECCAK256 PUSH1 0x1 ADD SLOAD PUSH2 0xC89 DUP2 PUSH2 0x2884 JUMP JUMPDEST PUSH2 0xC93 DUP4 DUP4 PUSH2 0x28D6 JUMP JUMPDEST POP POP POP JUMP JUMPDEST PUSH1 0x1 PUSH1 0x1 PUSH1 0xA0 SHL SUB DUP2 AND CALLER EQ PUSH2 0xD08 JUMPI PUSH1 0x40 MLOAD PUSH3 0x461BCD PUSH1 0xE5 SHL DUP2 MSTORE PUSH1 0x20 PUSH1 0x4 DUP3 ADD MSTORE PUSH1 0x2F PUSH1 0x24 DUP3 ADD MSTORE PUSH32 0x416363657373436F6E74726F6C3A2063616E206F6E6C792072656E6F756E6365 PUSH1 0x44 DUP3 ADD MSTORE PUSH15 0x103937B632B9903337B91039B2B633 PUSH1 0x89 SHL PUSH1 0x64 DUP3 ADD MSTORE PUSH1 0x84 ADD PUSH2 0xA40 JUMP JUMPDEST PUSH2 0xD12 DUP3 DUP3 PUSH2 0x295B JUMP JUMPDEST POP POP JUMP JUMPDEST PUSH2 0xD1E PUSH2 0x288E JUMP JUMPDEST PUSH0 PUSH2 0xD27 PUSH2 0x29C1 JUMP JUMPDEST PUSH1 0xC9 SLOAD PUSH1 0x40 MLOAD PUSH4 0xA9059CBB PUSH1 0xE0 SHL DUP2 MSTORE CALLER PUSH1 0x4 DUP3 ADD MSTORE PUSH1 0x24 DUP2 ADD DUP4 SWAP1 MSTORE SWAP2 SWAP3 POP PUSH1 0x1 PUSH1 0x1 PUSH1 0xA0 SHL SUB AND SWAP1 PUSH4 0xA9059CBB SWAP1 PUSH1 0x44 ADD PUSH1 0x20 PUSH1 0x40 MLOAD DUP1 DUP4 SUB DUP2 PUSH0 DUP8 GAS CALL ISZERO DUP1 ISZERO PUSH2 0xD76 JUMPI RETURNDATASIZE PUSH0 PUSH0 RETURNDATACOPY RETURNDATASIZE PUSH0 REVERT JUMPDEST POP POP POP POP PUSH1 0x40 MLOAD RETURNDATASIZE PUSH1 0x1F NOT PUSH1 0x1F DUP3 ADD AND DUP3 ADD DUP1 PUSH1 0x40 MSTORE POP DUP2 ADD SWAP1 PUSH2 0xD9A SWAP2 SWAP1 PUSH2 0x3F97 JUMP JUMPDEST POP PUSH1 0x40 MLOAD DUP2 DUP2 MSTORE CALLER SWAP1 PUSH32 0xFC30CDDEA38E2BF4D6EA7D3F9ED3B6AD7F176419F4963BD81318067A4AEE73FE SWAP1 PUSH1 0x20 ADD PUSH1 0x40 MLOAD DUP1 SWAP2 SUB SWAP1 LOG2 POP JUMP JUMPDEST PUSH0 MLOAD PUSH1 0x20 PUSH2 0x42FD PUSH0 CODECOPY PUSH0 MLOAD SWAP1 PUSH0 MSTORE PUSH2 0xDEA DUP2 PUSH2 0x2884 JUMP JUMPDEST PUSH2 0xDF2 PUSH2 0x2AA0 JUMP JUMPDEST POP JUMP JUMPDEST PUSH0 MLOAD PUSH1 0x20 PUSH2 0x431D PUSH0 CODECOPY PUSH0 MLOAD SWAP1 PUSH0 MSTORE PUSH2 0xE0C DUP2 PUSH2 0x2884 JUMP JUMPDEST PUSH0 DUP3 GT DUP1 ISZERO PUSH2 0xE1E JUMPI POP PUSH3 0x93A80 DUP3 GT ISZERO JUMPDEST PUSH2 0xE7C JUMPI PUSH1 0x40 MLOAD PUSH3 0x461BCD PUSH1 0xE5 SHL DUP2 MSTORE PUSH1 0x20 PUSH1 0x4 DUP3 ADD MSTORE PUSH1 0x29 PUSH1 0x24 DUP3 ADD MSTORE PUSH32 0x496E74657276616C2073686F756C642062652077697468696E20746865207661 PUSH1 0x44 DUP3 ADD MSTORE PUSH9 0x6C69642072616E6765 PUSH1 0xB8 SHL PUSH1 0x64 DUP3 ADD MSTORE PUSH1 0x84 ADD PUSH2 0xA40 JUMP JUMPDEST POP PUSH1 0xCE SSTORE JUMP JUMPDEST PUSH0 DUP3 DUP2 MSTORE PUSH1 0xDA PUSH1 0x20 MSTORE PUSH1 0x40 DUP2 KECCAK256 PUSH1 0x1 DUP2 ADD SLOAD DUP3 SWAP2 DUP3 SWAP2 PUSH2 0xED6 JUMPI PUSH1 0x40 MLOAD PUSH3 0x461BCD PUSH1 0xE5 SHL DUP2 MSTORE PUSH1 0x20 PUSH1 0x4 DUP3 ADD MSTORE PUSH1 0xF PUSH1 0x24 DUP3 ADD MSTORE PUSH15 0x125B9D985B1A5908131BD8DAC81259 PUSH1 0x8A SHL PUSH1 0x44 DUP3 ADD MSTORE PUSH1 0x64 ADD PUSH2 0xA40 JUMP JUMPDEST PUSH1 0x2 DUP2 ADD SLOAD PUSH0 SWAP1 PUSH1 0xFF AND PUSH2 0xEEE JUMPI DUP2 PUSH1 0x9 ADD SLOAD PUSH2 0xEF2 JUMP JUMPDEST PUSH1 0xCD SLOAD JUMPDEST PUSH1 0x8 DUP4 ADD SLOAD SWAP5 POP SWAP1 POP PUSH0 PUSH2 0xF06 DUP8 DUP7 PUSH2 0x3F84 JUMP JUMPDEST PUSH0 DUP7 DUP2 MSTORE PUSH1 0xB DUP6 ADD PUSH1 0x20 MSTORE PUSH1 0x40 SWAP1 KECCAK256 SLOAD SWAP5 POP SWAP1 POP JUMPDEST DUP5 DUP2 GT DUP1 ISZERO PUSH2 0xF29 JUMPI POP DUP5 DUP3 GT JUMPDEST ISZERO PUSH2 0xFB3 JUMPI PUSH0 DUP6 DUP2 MSTORE PUSH1 0xDB PUSH1 0x20 MSTORE PUSH1 0x40 SWAP1 KECCAK256 PUSH1 0x1 ADD SLOAD ISZERO PUSH2 0xFB3 JUMPI PUSH2 0xF4F DUP6 DUP10 DUP7 PUSH2 0x2AF2 JUMP JUMPDEST PUSH2 0xF59 SWAP1 DUP8 PUSH2 0x3F84 JUMP JUMPDEST SWAP6 POP PUSH0 PUSH1 0xB DUP5 ADD DUP2 PUSH2 0xF6C DUP9 PUSH1 0x1 PUSH2 0x3F84 JUMP JUMPDEST DUP2 MSTORE PUSH1 0x20 ADD SWAP1 DUP2 MSTORE PUSH1 0x20 ADD PUSH0 KECCAK256 SLOAD GT ISZERO PUSH2 0xFA1 JUMPI PUSH1 0xB DUP4 ADD PUSH0 PUSH2 0xF90 DUP8 PUSH1 0x1 PUSH2 0x3F84 JUMP JUMPDEST DUP2 MSTORE PUSH1 0x20 ADD SWAP1 DUP2 MSTORE PUSH1 0x20 ADD PUSH0 KECCAK256 SLOAD SWAP4 POP JUMPDEST DUP5 PUSH2 0xFAB DUP2 PUSH2 0x3FB2 JUMP JUMPDEST SWAP6 POP POP PUSH2 0xF1B JUMP JUMPDEST POP POP POP SWAP3 POP SWAP3 POP SWAP3 JUMP JUMPDEST PUSH2 0xFC5 PUSH2 0x288E JUMP JUMPDEST PUSH0 DUP2 ISZERO PUSH2 0x1060 JUMPI POP CALLER PUSH0 SWAP1 DUP2 MSTORE PUSH1 0xD8 PUSH1 0x20 MSTORE PUSH1 0x40 DUP2 KECCAK256 SLOAD SWAP1 DUP2 SWAP1 SUB PUSH2 0xFFC JUMPI PUSH1 0x40 MLOAD PUSH3 0x461BCD PUSH1 0xE5 SHL DUP2 MSTORE PUSH1 0x4 ADD PUSH2 0xA40 SWAP1 PUSH2 0x3FCA JUMP JUMPDEST PUSH1 0xC9 SLOAD PUSH1 0x40 MLOAD PUSH4 0x79CC679 PUSH1 0xE4 SHL DUP2 MSTORE CALLER PUSH1 0x4 DUP3 ADD MSTORE PUSH1 0x24 DUP2 ADD DUP6 SWAP1 MSTORE PUSH1 0x1 PUSH1 0x1 PUSH1 0xA0 SHL SUB SWAP1 SWAP2 AND SWAP1 PUSH4 0x79CC6790 SWAP1 PUSH1 0x44 ADD PUSH0 PUSH1 0x40 MLOAD DUP1 DUP4 SUB DUP2 PUSH0 DUP8 DUP1 EXTCODESIZE ISZERO DUP1 ISZERO PUSH2 0x1045 JUMPI PUSH0 PUSH0 REVERT JUMPDEST POP GAS CALL ISZERO DUP1 ISZERO PUSH2 0x1057 JUMPI RETURNDATASIZE PUSH0 PUSH0 RETURNDATACOPY RETURNDATASIZE PUSH0 REVERT JUMPDEST POP POP POP POP PUSH2 0x1147 JUMP JUMPDEST PUSH2 0x1069 CALLER PUSH2 0x1FA2 JUMP JUMPDEST SWAP1 POP DUP1 ISZERO DUP1 ISZERO SWAP1 PUSH2 0x1089 JUMPI POP PUSH0 DUP2 DUP2 MSTORE PUSH1 0xDA PUSH1 0x20 MSTORE PUSH1 0x40 SWAP1 KECCAK256 PUSH1 0x5 ADD SLOAD TIMESTAMP LT JUMPDEST PUSH2 0x10CD JUMPI PUSH1 0x40 MLOAD PUSH3 0x461BCD PUSH1 0xE5 SHL DUP2 MSTORE PUSH1 0x20 PUSH1 0x4 DUP3 ADD MSTORE PUSH1 0x15 PUSH1 0x24 DUP3 ADD MSTORE PUSH21 0x4E6F20416374697665206C6F636B20657869737473 PUSH1 0x58 SHL PUSH1 0x44 DUP3 ADD MSTORE PUSH1 0x64 ADD PUSH2 0xA40 JUMP JUMPDEST PUSH1 0xC9 SLOAD PUSH1 0x40 MLOAD PUSH4 0x23B872DD PUSH1 0xE0 SHL DUP2 MSTORE CALLER PUSH1 0x4 DUP3 ADD MSTORE ADDRESS PUSH1 0x24 DUP3 ADD MSTORE PUSH1 0x44 DUP2 ADD DUP6 SWAP1 MSTORE PUSH1 0x1 PUSH1 0x1 PUSH1 0xA0 SHL SUB SWAP1 SWAP2 AND SWAP1 PUSH4 0x23B872DD SWAP1 PUSH1 0x64 ADD PUSH1 0x20 PUSH1 0x40 MLOAD DUP1 DUP4 SUB DUP2 PUSH0 DUP8 GAS CALL ISZERO DUP1 ISZERO PUSH2 0x1121 JUMPI RETURNDATASIZE PUSH0 PUSH0 RETURNDATACOPY RETURNDATASIZE PUSH0 REVERT JUMPDEST POP POP POP POP PUSH1 0x40 MLOAD RETURNDATASIZE PUSH1 0x1F NOT PUSH1 0x1F DUP3 ADD AND DUP3 ADD DUP1 PUSH1 0x40 MSTORE POP DUP2 ADD SWAP1 PUSH2 0x1145 SWAP2 SWAP1 PUSH2 0x3F97 JUMP JUMPDEST POP JUMPDEST PUSH2 0x1151 DUP4 DUP3 PUSH2 0x2C65 JUMP JUMPDEST PUSH0 DUP2 DUP2 MSTORE PUSH1 0xDA PUSH1 0x20 SWAP1 DUP2 MSTORE PUSH1 0x40 SWAP2 DUP3 SWAP1 KECCAK256 PUSH1 0x1 DUP2 ADD SLOAD PUSH1 0x6 SWAP1 SWAP2 ADD SLOAD DUP4 MLOAD SWAP2 DUP3 MSTORE SWAP2 DUP2 ADD SWAP2 SWAP1 SWAP2 MSTORE DUP3 SWAP2 PUSH32 0x7975828CB9027121837D9D3A5EDA3D9BF35A6582D2EC4684B110AE0B553BB4F6 SWAP2 ADD JUMPDEST PUSH1 0x40 MLOAD DUP1 SWAP2 SUB SWAP1 LOG2 POP POP POP JUMP JUMPDEST PUSH1 0x1 PUSH1 0x1 PUSH1 0xA0 SHL SUB DUP2 AND PUSH0 SWAP1 DUP2 MSTORE PUSH1 0xD6 PUSH1 0x20 MSTORE PUSH1 0x40 DUP2 KECCAK256 SLOAD DUP2 SWAP1 DUP2 SWAP1 JUMPDEST PUSH1 0x1 PUSH1 0x1 PUSH1 0xA0 SHL SUB DUP6 AND PUSH0 SWAP1 DUP2 MSTORE PUSH1 0xD5 PUSH1 0x20 MSTORE PUSH1 0x40 SWAP1 KECCAK256 SLOAD DUP2 LT ISZERO PUSH2 0x12E6 JUMPI PUSH1 0x1 PUSH1 0x1 PUSH1 0xA0 SHL SUB DUP6 AND PUSH0 SWAP1 DUP2 MSTORE PUSH1 0xD5 PUSH1 0x20 MSTORE PUSH1 0x40 DUP2 KECCAK256 DUP1 SLOAD PUSH2 0x12CB SWAP2 SWAP1 DUP5 SWAP1 DUP2 LT PUSH2 0x1216 JUMPI PUSH2 0x1216 PUSH2 0x4014 JUMP JUMPDEST SWAP1 PUSH0 MSTORE PUSH1 0x20 PUSH0 KECCAK256 ADD SLOAD PUSH1 0xDA PUSH0 PUSH1 0xD5 PUSH0 DUP12 PUSH1 0x1 PUSH1 0x1 PUSH1 0xA0 SHL SUB AND PUSH1 0x1 PUSH1 0x1 PUSH1 0xA0 SHL SUB AND DUP2 MSTORE PUSH1 0x20 ADD SWAP1 DUP2 MSTORE PUSH1 0x20 ADD PUSH0 KECCAK256 DUP7 DUP2 SLOAD DUP2 LT PUSH2 0x1256 JUMPI PUSH2 0x1256 PUSH2 0x4014 JUMP JUMPDEST SWAP1 PUSH0 MSTORE PUSH1 0x20 PUSH0 KECCAK256 ADD SLOAD DUP2 MSTORE PUSH1 0x20 ADD SWAP1 DUP2 MSTORE PUSH1 0x20 ADD PUSH0 KECCAK256 PUSH1 0x8 ADD SLOAD PUSH1 0xDA PUSH0 PUSH1 0xD5 PUSH0 DUP13 PUSH1 0x1 PUSH1 0x1 PUSH1 0xA0 SHL SUB AND PUSH1 0x1 PUSH1 0x1 PUSH1 0xA0 SHL SUB AND DUP2 MSTORE PUSH1 0x20 ADD SWAP1 DUP2 MSTORE PUSH1 0x20 ADD PUSH0 KECCAK256 DUP8 DUP2 SLOAD DUP2 LT PUSH2 0x12A7 JUMPI PUSH2 0x12A7 PUSH2 0x4014 JUMP JUMPDEST SWAP1 PUSH0 MSTORE PUSH1 0x20 PUSH0 KECCAK256 ADD SLOAD DUP2 MSTORE PUSH1 0x20 ADD SWAP1 DUP2 MSTORE PUSH1 0x20 ADD PUSH0 KECCAK256 PUSH1 0x9 ADD SLOAD PUSH2 0x4F2 SWAP2 SWAP1 PUSH2 0x3F3B JUMP JUMPDEST POP POP SWAP1 POP DUP1 DUP5 PUSH2 0x12DB SWAP2 SWAP1 PUSH2 0x3F84 JUMP JUMPDEST SWAP4 POP POP PUSH1 0x1 ADD PUSH2 0x11C9 JUMP JUMPDEST POP PUSH1 0x1 PUSH1 0x1 PUSH1 0xA0 SHL SUB DUP5 AND PUSH0 SWAP1 DUP2 MSTORE PUSH1 0xD8 PUSH1 0x20 MSTORE PUSH1 0x40 SWAP1 KECCAK256 SLOAD ISZERO DUP1 ISZERO SWAP1 PUSH2 0x1335 JUMPI POP PUSH1 0x1 PUSH1 0x1 PUSH1 0xA0 SHL SUB DUP5 AND PUSH0 SWAP1 DUP2 MSTORE PUSH1 0xD8 PUSH1 0x20 SWAP1 DUP2 MSTORE PUSH1 0x40 DUP1 DUP4 KECCAK256 SLOAD DUP4 MSTORE PUSH1 0xDA SWAP1 SWAP2 MSTORE SWAP1 KECCAK256 PUSH1 0x8 ADD SLOAD PUSH1 0xCD SLOAD GT JUMPDEST ISZERO PUSH2 0x137B JUMPI PUSH1 0x1 PUSH1 0x1 PUSH1 0xA0 SHL SUB DUP5 AND PUSH0 SWAP1 DUP2 MSTORE PUSH1 0xD8 PUSH1 0x20 SWAP1 DUP2 MSTORE PUSH1 0x40 DUP1 DUP4 KECCAK256 SLOAD DUP1 DUP5 MSTORE PUSH1 0xDA SWAP1 SWAP3 MSTORE SWAP1 SWAP2 KECCAK256 PUSH1 0x8 ADD SLOAD PUSH1 0xCD SLOAD PUSH2 0x1375 SWAP3 SWAP2 PUSH2 0x4F2 SWAP2 PUSH2 0x3F3B JUMP JUMPDEST POP SWAP1 SWAP2 POP POP JUMPDEST PUSH1 0x1 PUSH1 0x1 PUSH1 0xA0 SHL SUB DUP5 AND PUSH0 SWAP1 DUP2 MSTORE PUSH1 0xD7 PUSH1 0x20 MSTORE PUSH1 0x40 SWAP1 KECCAK256 SLOAD PUSH2 0x139D DUP3 DUP5 PUSH2 0x3F84 JUMP JUMPDEST PUSH2 0x9CA SWAP2 SWAP1 PUSH2 0x3F84 JUMP JUMPDEST PUSH0 MLOAD PUSH1 0x20 PUSH2 0x431D PUSH0 CODECOPY PUSH0 MLOAD SWAP1 PUSH0 MSTORE PUSH2 0x13BE DUP2 PUSH2 0x2884 JUMP JUMPDEST PUSH1 0xCB SLOAD PUSH0 SWAP1 DUP2 JUMPDEST DUP2 DUP2 LT ISZERO PUSH2 0x144B JUMPI DUP6 PUSH1 0x40 MLOAD PUSH1 0x20 ADD PUSH2 0x13DE SWAP2 SWAP1 PUSH2 0x403F JUMP JUMPDEST PUSH1 0x40 MLOAD PUSH1 0x20 DUP2 DUP4 SUB SUB DUP2 MSTORE SWAP1 PUSH1 0x40 MSTORE DUP1 MLOAD SWAP1 PUSH1 0x20 ADD KECCAK256 PUSH1 0xCB DUP3 DUP2 SLOAD DUP2 LT PUSH2 0x1407 JUMPI PUSH2 0x1407 PUSH2 0x4014 JUMP JUMPDEST SWAP1 PUSH0 MSTORE PUSH1 0x20 PUSH0 KECCAK256 ADD PUSH1 0x40 MLOAD PUSH1 0x20 ADD PUSH2 0x141F SWAP2 SWAP1 PUSH2 0x407C JUMP JUMPDEST PUSH1 0x40 MLOAD PUSH1 0x20 DUP2 DUP4 SUB SUB DUP2 MSTORE SWAP1 PUSH1 0x40 MSTORE DUP1 MLOAD SWAP1 PUSH1 0x20 ADD KECCAK256 SUB PUSH2 0x1443 JUMPI PUSH1 0x1 SWAP3 POP PUSH2 0x144B JUMP JUMPDEST PUSH1 0x1 ADD PUSH2 0x13C5 JUMP JUMPDEST POP DUP2 PUSH2 0x148F JUMPI PUSH1 0x40 MLOAD PUSH3 0x461BCD PUSH1 0xE5 SHL DUP2 MSTORE PUSH1 0x20 PUSH1 0x4 DUP3 ADD MSTORE PUSH1 0x13 PUSH1 0x24 DUP3 ADD MSTORE PUSH19 0x141BDBDB08191BD95CC81B9BDD08195E1A5CDD PUSH1 0x6A SHL PUSH1 0x44 DUP3 ADD MSTORE PUSH1 0x64 ADD PUSH2 0xA40 JUMP JUMPDEST DUP4 PUSH1 0xD9 DUP7 PUSH1 0x40 MLOAD PUSH2 0x14A0 SWAP2 SWAP1 PUSH2 0x403F JUMP JUMPDEST SWAP1 DUP2 MSTORE PUSH1 0x40 MLOAD SWAP1 DUP2 SWAP1 SUB PUSH1 0x20 ADD SWAP1 KECCAK256 DUP1 SLOAD SWAP2 ISZERO ISZERO PUSH1 0xFF NOT SWAP1 SWAP3 AND SWAP2 SWAP1 SWAP2 OR SWAP1 SSTORE POP POP POP POP POP JUMP JUMPDEST PUSH2 0x14CF PUSH2 0x288E JUMP JUMPDEST PUSH1 0xD1 SLOAD PUSH1 0xC9 SLOAD PUSH1 0x40 MLOAD PUSH4 0x70A08231 PUSH1 0xE0 SHL DUP2 MSTORE CALLER PUSH1 0x4 DUP3 ADD MSTORE PUSH0 SWAP3 PUSH3 0x989680 SWAP3 SWAP1 SWAP2 PUSH1 0x1 PUSH1 0x1 PUSH1 0xA0 SHL SUB SWAP1 SWAP2 AND SWAP1 PUSH4 0x70A08231 SWAP1 PUSH1 0x24 ADD PUSH1 0x20 PUSH1 0x40 MLOAD DUP1 DUP4 SUB DUP2 DUP7 GAS STATICCALL ISZERO DUP1 ISZERO PUSH2 0x1521 JUMPI RETURNDATASIZE PUSH0 PUSH0 RETURNDATACOPY RETURNDATASIZE PUSH0 REVERT JUMPDEST POP POP POP POP PUSH1 0x40 MLOAD RETURNDATASIZE PUSH1 0x1F NOT PUSH1 0x1F DUP3 ADD AND DUP3 ADD DUP1 PUSH1 0x40 MSTORE POP DUP2 ADD SWAP1 PUSH2 0x1545 SWAP2 SWAP1 PUSH2 0x40ED JUMP JUMPDEST PUSH2 0x154F SWAP2 SWAP1 PUSH2 0x3F6D JUMP JUMPDEST PUSH2 0x1559 SWAP2 SWAP1 PUSH2 0x3F4E JUMP JUMPDEST SWAP1 POP PUSH1 0xD0 SLOAD DUP2 LT ISZERO PUSH2 0x15C0 JUMPI PUSH1 0x40 MLOAD PUSH3 0x461BCD PUSH1 0xE5 SHL DUP2 MSTORE PUSH1 0x20 PUSH1 0x4 DUP3 ADD MSTORE PUSH1 0x2A PUSH1 0x24 DUP3 ADD MSTORE PUSH32 0x526577617264206D757374206265206174206C6561737420746865206D696E69 PUSH1 0x44 DUP3 ADD MSTORE PUSH10 0x1B5D5B48185B5BDD5B9D PUSH1 0xB2 SHL PUSH1 0x64 DUP3 ADD MSTORE PUSH1 0x84 ADD PUSH2 0xA40 JUMP JUMPDEST PUSH1 0xCD SLOAD PUSH2 0x15CB PUSH2 0x2066 JUMP JUMPDEST DUP2 LT PUSH2 0x1619 JUMPI PUSH1 0x40 MLOAD PUSH3 0x461BCD PUSH1 0xE5 SHL DUP2 MSTORE PUSH1 0x20 PUSH1 0x4 DUP3 ADD MSTORE PUSH1 0x1A PUSH1 0x24 DUP3 ADD MSTORE PUSH32 0x43616E6E6F742070726F63657373206265666F72652074696D65000000000000 PUSH1 0x44 DUP3 ADD MSTORE PUSH1 0x64 ADD PUSH2 0xA40 JUMP JUMPDEST PUSH1 0xC9 SLOAD PUSH1 0x40 MLOAD PUSH4 0x23B872DD PUSH1 0xE0 SHL DUP2 MSTORE CALLER PUSH1 0x4 DUP3 ADD MSTORE ADDRESS PUSH1 0x24 DUP3 ADD MSTORE PUSH1 0x44 DUP2 ADD DUP5 SWAP1 MSTORE PUSH1 0x1 PUSH1 0x1 PUSH1 0xA0 SHL SUB SWAP1 SWAP2 AND SWAP1 PUSH4 0x23B872DD SWAP1 PUSH1 0x64 ADD PUSH1 0x20 PUSH1 0x40 MLOAD DUP1 DUP4 SUB DUP2 PUSH0 DUP8 GAS CALL ISZERO DUP1 ISZERO PUSH2 0x166D JUMPI RETURNDATASIZE PUSH0 PUSH0 RETURNDATACOPY RETURNDATASIZE PUSH0 REVERT JUMPDEST POP POP POP POP PUSH1 0x40 MLOAD RETURNDATASIZE PUSH1 0x1F NOT PUSH1 0x1F DUP3 ADD AND DUP3 ADD DUP1 PUSH1 0x40 MSTORE POP DUP2 ADD SWAP1 PUSH2 0x1691 SWAP2 SWAP1 PUSH2 0x3F97 JUMP JUMPDEST POP PUSH1 0xD3 SLOAD PUSH2 0x169F DUP2 DUP5 PUSH2 0x3F84 JUMP JUMPDEST PUSH0 DUP4 DUP2 MSTORE PUSH1 0xDB PUSH1 0x20 MSTORE PUSH1 0x40 DUP2 KECCAK256 PUSH1 0x2 ADD DUP3 SWAP1 SSTORE SWAP1 SWAP4 POP SWAP1 POP PUSH2 0x258 PUSH2 0x16C5 DUP4 PUSH1 0x1 PUSH2 0x3F84 JUMP JUMPDEST PUSH2 0x16CF SWAP2 SWAP1 PUSH2 0x3F6D JUMP JUMPDEST PUSH1 0xD2 SLOAD PUSH2 0x16DC SWAP2 SWAP1 PUSH2 0x3F84 JUMP JUMPDEST PUSH0 DUP4 DUP2 MSTORE PUSH1 0xDB PUSH1 0x20 MSTORE PUSH1 0x40 DUP2 KECCAK256 PUSH1 0x1 ADD SWAP2 SWAP1 SWAP2 SSTORE JUMPDEST PUSH1 0xCB SLOAD DUP2 LT ISZERO PUSH2 0x196A JUMPI PUSH1 0xDB PUSH0 DUP5 DUP2 MSTORE PUSH1 0x20 ADD SWAP1 DUP2 MSTORE PUSH1 0x20 ADD PUSH0 KECCAK256 PUSH1 0x4 ADD PUSH1 0xCB DUP3 DUP2 SLOAD DUP2 LT PUSH2 0x1722 JUMPI PUSH2 0x1722 PUSH2 0x4014 JUMP JUMPDEST SWAP1 PUSH0 MSTORE PUSH1 0x20 PUSH0 KECCAK256 ADD PUSH1 0x40 MLOAD PUSH2 0x1737 SWAP2 SWAP1 PUSH2 0x407C JUMP JUMPDEST SWAP1 DUP2 MSTORE PUSH1 0x20 ADD PUSH1 0x40 MLOAD DUP1 SWAP2 SUB SWAP1 KECCAK256 SLOAD PUSH1 0xD9 PUSH1 0xCB DUP4 DUP2 SLOAD DUP2 LT PUSH2 0x175B JUMPI PUSH2 0x175B PUSH2 0x4014 JUMP JUMPDEST SWAP1 PUSH0 MSTORE PUSH1 0x20 PUSH0 KECCAK256 ADD PUSH1 0x40 MLOAD PUSH2 0x1770 SWAP2 SWAP1 PUSH2 0x407C JUMP JUMPDEST SWAP1 DUP2 MSTORE PUSH1 0x20 ADD PUSH1 0x40 MLOAD DUP1 SWAP2 SUB SWAP1 KECCAK256 PUSH1 0x4 ADD PUSH0 DUP3 DUP3 SLOAD PUSH2 0x178F SWAP2 SWAP1 PUSH2 0x3F84 JUMP JUMPDEST SWAP1 SWAP2 SSTORE POP POP DUP1 ISZERO PUSH2 0x1834 JUMPI PUSH1 0xDB PUSH0 DUP5 DUP2 MSTORE PUSH1 0x20 ADD SWAP1 DUP2 MSTORE PUSH1 0x20 ADD PUSH0 KECCAK256 PUSH1 0x5 ADD PUSH1 0xCB DUP3 DUP2 SLOAD DUP2 LT PUSH2 0x17C1 JUMPI PUSH2 0x17C1 PUSH2 0x4014 JUMP JUMPDEST SWAP1 PUSH0 MSTORE PUSH1 0x20 PUSH0 KECCAK256 ADD PUSH1 0x40 MLOAD PUSH2 0x17D6 SWAP2 SWAP1 PUSH2 0x407C JUMP JUMPDEST SWAP1 DUP2 MSTORE PUSH1 0x20 ADD PUSH1 0x40 MLOAD DUP1 SWAP2 SUB SWAP1 KECCAK256 SLOAD PUSH1 0xD9 PUSH1 0xCB DUP4 DUP2 SLOAD DUP2 LT PUSH2 0x17FA JUMPI PUSH2 0x17FA PUSH2 0x4014 JUMP JUMPDEST SWAP1 PUSH0 MSTORE PUSH1 0x20 PUSH0 KECCAK256 ADD PUSH1 0x40 MLOAD PUSH2 0x180F SWAP2 SWAP1 PUSH2 0x407C JUMP JUMPDEST SWAP1 DUP2 MSTORE PUSH1 0x20 ADD PUSH1 0x40 MLOAD DUP1 SWAP2 SUB SWAP1 KECCAK256 PUSH1 0x4 ADD PUSH0 DUP3 DUP3 SLOAD PUSH2 0x182E SWAP2 SWAP1 PUSH2 0x3F3B JUMP JUMPDEST SWAP1 SWAP2 SSTORE POP POP JUMPDEST PUSH1 0xD9 PUSH1 0xCB DUP3 DUP2 SLOAD DUP2 LT PUSH2 0x1849 JUMPI PUSH2 0x1849 PUSH2 0x4014 JUMP JUMPDEST SWAP1 PUSH0 MSTORE PUSH1 0x20 PUSH0 KECCAK256 ADD PUSH1 0x40 MLOAD PUSH2 0x185E SWAP2 SWAP1 PUSH2 0x407C JUMP JUMPDEST SWAP1 DUP2 MSTORE PUSH1 0x20 ADD PUSH1 0x40 MLOAD DUP1 SWAP2 SUB SWAP1 KECCAK256 PUSH1 0x4 ADD SLOAD PUSH1 0xDB PUSH0 DUP6 DUP2 MSTORE PUSH1 0x20 ADD SWAP1 DUP2 MSTORE PUSH1 0x20 ADD PUSH0 KECCAK256 PUSH1 0x3 ADD PUSH1 0xCB DUP4 DUP2 SLOAD DUP2 LT PUSH2 0x1897 JUMPI PUSH2 0x1897 PUSH2 0x4014 JUMP JUMPDEST SWAP1 PUSH0 MSTORE PUSH1 0x20 PUSH0 KECCAK256 ADD PUSH1 0x40 MLOAD PUSH2 0x18AC SWAP2 SWAP1 PUSH2 0x407C JUMP JUMPDEST SWAP1 DUP2 MSTORE PUSH1 0x20 ADD PUSH1 0x40 MLOAD DUP1 SWAP2 SUB SWAP1 KECCAK256 DUP2 SWAP1 SSTORE POP PUSH1 0xD9 PUSH1 0xCB DUP3 DUP2 SLOAD DUP2 LT PUSH2 0x18D3 JUMPI PUSH2 0x18D3 PUSH2 0x4014 JUMP JUMPDEST SWAP1 PUSH0 MSTORE PUSH1 0x20 PUSH0 KECCAK256 ADD PUSH1 0x40 MLOAD PUSH2 0x18E8 SWAP2 SWAP1 PUSH2 0x407C JUMP JUMPDEST SWAP1 DUP2 MSTORE PUSH1 0x20 ADD PUSH1 0x40 MLOAD DUP1 SWAP2 SUB SWAP1 KECCAK256 PUSH1 0x4 ADD SLOAD PUSH0 SUB PUSH2 0x1962 JUMPI PUSH3 0x989680 PUSH1 0xD9 PUSH1 0xCB DUP4 DUP2 SLOAD DUP2 LT PUSH2 0x1919 JUMPI PUSH2 0x1919 PUSH2 0x4014 JUMP JUMPDEST SWAP1 PUSH0 MSTORE PUSH1 0x20 PUSH0 KECCAK256 ADD PUSH1 0x40 MLOAD PUSH2 0x192E SWAP2 SWAP1 PUSH2 0x407C JUMP JUMPDEST SWAP1 DUP2 MSTORE PUSH1 0x20 ADD PUSH1 0x40 MLOAD DUP1 SWAP2 SUB SWAP1 KECCAK256 PUSH1 0x2 ADD SLOAD DUP6 PUSH2 0x194B SWAP2 SWAP1 PUSH2 0x3F6D JUMP JUMPDEST PUSH2 0x1955 SWAP2 SWAP1 PUSH2 0x3F4E JUMP JUMPDEST PUSH2 0x195F SWAP1 DUP4 PUSH2 0x3F84 JUMP JUMPDEST SWAP2 POP JUMPDEST PUSH1 0x1 ADD PUSH2 0x16F1 JUMP JUMPDEST POP PUSH1 0xD3 DUP2 SWAP1 SSTORE PUSH1 0x40 MLOAD DUP4 DUP2 MSTORE DUP3 SWAP1 PUSH32 0x40DF43107E8B4D467127964BD3C966687C0A6A39AAEDE970755397FD09535E98 SWAP1 PUSH1 0x20 ADD PUSH1 0x40 MLOAD DUP1 SWAP2 SUB SWAP1 LOG2 PUSH0 DUP3 DUP2 MSTORE PUSH1 0xDB PUSH1 0x20 MSTORE PUSH1 0x40 DUP2 KECCAK256 DUP1 SLOAD PUSH1 0xFF NOT AND PUSH1 0x1 OR SWAP1 SSTORE PUSH1 0xCD DUP1 SLOAD SWAP2 PUSH2 0x19CB DUP4 PUSH2 0x3FB2 JUMP JUMPDEST SWAP2 SWAP1 POP SSTORE POP POP POP POP JUMP JUMPDEST PUSH2 0x19DD PUSH2 0x288E JUMP JUMPDEST PUSH0 PUSH2 0x19E7 CALLER PUSH2 0x1FA2 JUMP JUMPDEST SWAP1 POP DUP1 ISZERO DUP1 ISZERO SWAP1 PUSH2 0x1A07 JUMPI POP PUSH0 DUP2 DUP2 MSTORE PUSH1 0xDA PUSH1 0x20 MSTORE PUSH1 0x40 SWAP1 KECCAK256 PUSH1 0x5 ADD SLOAD TIMESTAMP LT JUMPDEST PUSH2 0x1A4A JUMPI PUSH1 0x40 MLOAD PUSH3 0x461BCD PUSH1 0xE5 SHL DUP2 MSTORE PUSH1 0x20 PUSH1 0x4 DUP3 ADD MSTORE PUSH1 0x14 PUSH1 0x24 DUP3 ADD MSTORE PUSH20 0x139BC81858DD1A5D99481B1BD8DAC8199BDD5B99 PUSH1 0x62 SHL PUSH1 0x44 DUP3 ADD MSTORE PUSH1 0x64 ADD PUSH2 0xA40 JUMP JUMPDEST PUSH0 DUP2 DUP2 MSTORE PUSH1 0xDA PUSH1 0x20 MSTORE PUSH1 0x40 SWAP1 DUP2 SWAP1 KECCAK256 PUSH1 0x3 ADD SLOAD SWAP1 MLOAD PUSH1 0xD9 SWAP1 PUSH2 0x1A6D SWAP1 DUP6 SWAP1 PUSH2 0x403F JUMP JUMPDEST SWAP1 DUP2 MSTORE PUSH1 0x20 ADD PUSH1 0x40 MLOAD DUP1 SWAP2 SUB SWAP1 KECCAK256 PUSH1 0x3 ADD SLOAD LT ISZERO PUSH2 0x1AE5 JUMPI PUSH1 0x40 MLOAD PUSH3 0x461BCD PUSH1 0xE5 SHL DUP2 MSTORE PUSH1 0x20 PUSH1 0x4 DUP3 ADD MSTORE PUSH1 0x2F PUSH1 0x24 DUP3 ADD MSTORE PUSH32 0x4C6F636B206475726174696F6E2063616E6E6F74206265206C65737320746861 PUSH1 0x44 DUP3 ADD MSTORE PUSH15 0x6E206578697374696E67206C6F636B PUSH1 0x88 SHL PUSH1 0x64 DUP3 ADD MSTORE PUSH1 0x84 ADD PUSH2 0xA40 JUMP JUMPDEST PUSH0 DUP2 DUP2 MSTORE PUSH1 0xDA PUSH1 0x20 MSTORE PUSH1 0x40 DUP2 KECCAK256 PUSH1 0x1 DUP2 ADD SLOAD DUP2 SLOAD SWAP1 SWAP3 SWAP2 SWAP1 PUSH2 0x1B06 SWAP1 PUSH2 0x404A JUMP JUMPDEST DUP1 PUSH1 0x1F ADD PUSH1 0x20 DUP1 SWAP2 DIV MUL PUSH1 0x20 ADD PUSH1 0x40 MLOAD SWAP1 DUP2 ADD PUSH1 0x40 MSTORE DUP1 SWAP3 SWAP2 SWAP1 DUP2 DUP2 MSTORE PUSH1 0x20 ADD DUP3 DUP1 SLOAD PUSH2 0x1B32 SWAP1 PUSH2 0x404A JUMP JUMPDEST DUP1 ISZERO PUSH2 0x1B7D JUMPI DUP1 PUSH1 0x1F LT PUSH2 0x1B54 JUMPI PUSH2 0x100 DUP1 DUP4 SLOAD DIV MUL DUP4 MSTORE SWAP2 PUSH1 0x20 ADD SWAP2 PUSH2 0x1B7D JUMP JUMPDEST DUP3 ADD SWAP2 SWAP1 PUSH0 MSTORE PUSH1 0x20 PUSH0 KECCAK256 SWAP1 JUMPDEST DUP2 SLOAD DUP2 MSTORE SWAP1 PUSH1 0x1 ADD SWAP1 PUSH1 0x20 ADD DUP1 DUP4 GT PUSH2 0x1B60 JUMPI DUP3 SWAP1 SUB PUSH1 0x1F AND DUP3 ADD SWAP2 JUMPDEST POP POP POP PUSH0 DUP7 DUP2 MSTORE PUSH1 0xDA PUSH1 0x20 MSTORE PUSH1 0x40 DUP2 KECCAK256 PUSH1 0x2 DUP2 ADD DUP1 SLOAD PUSH2 0xFF00 NOT AND SWAP1 SSTORE TIMESTAMP PUSH1 0x5 SWAP1 SWAP2 ADD SSTORE SWAP3 SWAP4 POP PUSH2 0x1BB0 SWAP2 POP PUSH2 0x2066 SWAP1 POP JUMP JUMPDEST PUSH0 DUP6 DUP2 MSTORE PUSH1 0xDA PUSH1 0x20 MSTORE PUSH1 0x40 SWAP1 KECCAK256 PUSH1 0x9 ADD SLOAD SWAP1 SWAP2 POP DUP2 LT ISZERO PUSH2 0x1CDC JUMPI PUSH0 DUP5 DUP2 MSTORE PUSH1 0xDA PUSH1 0x20 SWAP1 DUP2 MSTORE PUSH1 0x40 DUP1 DUP4 KECCAK256 PUSH1 0x9 ADD SLOAD DUP4 MSTORE PUSH1 0xDB SWAP1 SWAP2 MSTORE SWAP1 DUP2 SWAP1 KECCAK256 SWAP1 MLOAD DUP5 SWAP2 PUSH1 0x5 ADD SWAP1 PUSH2 0x1BFD SWAP1 DUP6 SWAP1 PUSH2 0x403F JUMP JUMPDEST SWAP1 DUP2 MSTORE PUSH1 0x20 ADD PUSH1 0x40 MLOAD DUP1 SWAP2 SUB SWAP1 KECCAK256 PUSH0 DUP3 DUP3 SLOAD PUSH2 0x1C19 SWAP2 SWAP1 PUSH2 0x3F3B JUMP JUMPDEST SWAP1 SWAP2 SSTORE POP POP PUSH0 DUP5 DUP2 MSTORE PUSH1 0xDA PUSH1 0x20 SWAP1 DUP2 MSTORE PUSH1 0x40 DUP1 DUP4 KECCAK256 PUSH1 0x9 ADD DUP5 SWAP1 SSTORE DUP4 DUP4 MSTORE PUSH1 0xDB SWAP1 SWAP2 MSTORE SWAP1 DUP2 SWAP1 KECCAK256 SWAP1 MLOAD DUP5 SWAP2 PUSH1 0x5 ADD SWAP1 PUSH2 0x1C53 SWAP1 DUP6 SWAP1 PUSH2 0x403F JUMP JUMPDEST SWAP1 DUP2 MSTORE PUSH1 0x20 ADD PUSH1 0x40 MLOAD DUP1 SWAP2 SUB SWAP1 KECCAK256 PUSH0 DUP3 DUP3 SLOAD PUSH2 0x1C6F SWAP2 SWAP1 PUSH2 0x3F84 JUMP JUMPDEST SWAP1 SWAP2 SSTORE POP POP PUSH0 DUP5 DUP2 MSTORE PUSH1 0xDA PUSH1 0x20 MSTORE PUSH1 0x40 SWAP1 KECCAK256 PUSH1 0x9 DUP2 ADD SLOAD PUSH1 0x8 SWAP1 SWAP2 ADD SLOAD EQ DUP1 ISZERO PUSH2 0x1CA6 JUMPI POP CALLER PUSH0 SWAP1 DUP2 MSTORE PUSH1 0xD5 PUSH1 0x20 MSTORE PUSH1 0x40 SWAP1 KECCAK256 SLOAD ISZERO ISZERO JUMPDEST ISZERO PUSH2 0x1CDC JUMPI CALLER PUSH0 SWAP1 DUP2 MSTORE PUSH1 0xD5 PUSH1 0x20 MSTORE PUSH1 0x40 SWAP1 KECCAK256 DUP1 SLOAD DUP1 PUSH2 0x1CC8 JUMPI PUSH2 0x1CC8 PUSH2 0x4104 JUMP JUMPDEST PUSH1 0x1 SWAP1 SUB DUP2 DUP2 SWAP1 PUSH0 MSTORE PUSH1 0x20 PUSH0 KECCAK256 ADD PUSH0 SWAP1 SSTORE SWAP1 SSTORE JUMPDEST PUSH0 DUP5 DUP2 MSTORE PUSH1 0xDA PUSH1 0x20 MSTORE PUSH1 0x40 SWAP1 KECCAK256 PUSH1 0x6 ADD SLOAD PUSH2 0x1CFC SWAP1 DUP8 SWAP1 DUP6 SWAP1 DUP9 DUP6 PUSH2 0x2F5D JUMP JUMPDEST PUSH1 0xCC SLOAD PUSH1 0x40 MLOAD DUP6 SWAP1 PUSH32 0x49B2ADA88C09D45D501A352DDD16F0B8BABA46034A2B243BFA8E215E2745F233 SWAP1 PUSH0 SWAP1 LOG3 POP POP POP POP POP POP JUMP JUMPDEST PUSH1 0xCB DUP2 DUP2 SLOAD DUP2 LT PUSH2 0x1D40 JUMPI PUSH0 DUP1 REVERT JUMPDEST SWAP1 PUSH0 MSTORE PUSH1 0x20 PUSH0 KECCAK256 ADD PUSH0 SWAP2 POP SWAP1 POP DUP1 SLOAD PUSH2 0x1D58 SWAP1 PUSH2 0x404A JUMP JUMPDEST DUP1 PUSH1 0x1F ADD PUSH1 0x20 DUP1 SWAP2 DIV MUL PUSH1 0x20 ADD PUSH1 0x40 MLOAD SWAP1 DUP2 ADD PUSH1 0x40 MSTORE DUP1 SWAP3 SWAP2 SWAP1 DUP2 DUP2 MSTORE PUSH1 0x20 ADD DUP3 DUP1 SLOAD PUSH2 0x1D84 SWAP1 PUSH2 0x404A JUMP JUMPDEST DUP1 ISZERO PUSH2 0x1DCF JUMPI DUP1 PUSH1 0x1F LT PUSH2 0x1DA6 JUMPI PUSH2 0x100 DUP1 DUP4 SLOAD DIV MUL DUP4 MSTORE SWAP2 PUSH1 0x20 ADD SWAP2 PUSH2 0x1DCF JUMP JUMPDEST DUP3 ADD SWAP2 SWAP1 PUSH0 MSTORE PUSH1 0x20 PUSH0 KECCAK256 SWAP1 JUMPDEST DUP2 SLOAD DUP2 MSTORE SWAP1 PUSH1 0x1 ADD SWAP1 PUSH1 0x20 ADD DUP1 DUP4 GT PUSH2 0x1DB2 JUMPI DUP3 SWAP1 SUB PUSH1 0x1F AND DUP3 ADD SWAP2 JUMPDEST POP POP POP POP POP DUP2 JUMP JUMPDEST PUSH0 PUSH0 PUSH0 PUSH1 0xDB PUSH0 DUP7 DUP2 MSTORE PUSH1 0x20 ADD SWAP1 DUP2 MSTORE PUSH1 0x20 ADD PUSH0 KECCAK256 PUSH1 0x3 ADD DUP5 PUSH1 0x40 MLOAD PUSH2 0x1DFC SWAP2 SWAP1 PUSH2 0x403F JUMP JUMPDEST SWAP1 DUP2 MSTORE PUSH1 0x20 ADD PUSH1 0x40 MLOAD DUP1 SWAP2 SUB SWAP1 KECCAK256 SLOAD PUSH1 0xDB PUSH0 DUP8 DUP2 MSTORE PUSH1 0x20 ADD SWAP1 DUP2 MSTORE PUSH1 0x20 ADD PUSH0 KECCAK256 PUSH1 0x4 ADD DUP6 PUSH1 0x40 MLOAD PUSH2 0x1E2D SWAP2 SWAP1 PUSH2 0x403F JUMP JUMPDEST SWAP1 DUP2 MSTORE PUSH1 0x20 ADD PUSH1 0x40 MLOAD DUP1 SWAP2 SUB SWAP1 KECCAK256 SLOAD PUSH1 0xDB PUSH0 DUP9 DUP2 MSTORE PUSH1 0x20 ADD SWAP1 DUP2 MSTORE PUSH1 0x20 ADD PUSH0 KECCAK256 PUSH1 0x5 ADD DUP7 PUSH1 0x40 MLOAD PUSH2 0x1E5E SWAP2 SWAP1 PUSH2 0x403F JUMP JUMPDEST SWAP1 DUP2 MSTORE PUSH1 0x20 ADD PUSH1 0x40 MLOAD DUP1 SWAP2 SUB SWAP1 KECCAK256 SLOAD SWAP3 POP SWAP3 POP SWAP3 POP SWAP3 POP SWAP3 POP SWAP3 JUMP JUMPDEST PUSH1 0xD5 PUSH1 0x20 MSTORE DUP2 PUSH0 MSTORE PUSH1 0x40 PUSH0 KECCAK256 DUP2 DUP2 SLOAD DUP2 LT PUSH2 0x1E93 JUMPI PUSH0 DUP1 REVERT JUMPDEST SWAP1 PUSH0 MSTORE PUSH1 0x20 PUSH0 KECCAK256 ADD PUSH0 SWAP2 POP SWAP2 POP POP SLOAD DUP2 JUMP JUMPDEST PUSH0 MLOAD PUSH1 0x20 PUSH2 0x42FD PUSH0 CODECOPY PUSH0 MLOAD SWAP1 PUSH0 MSTORE PUSH2 0x1EBC DUP2 PUSH2 0x2884 JUMP JUMPDEST PUSH2 0xDF2 PUSH2 0x34E7 JUMP JUMPDEST PUSH0 SWAP2 DUP3 MSTORE PUSH1 0x97 PUSH1 0x20 SWAP1 DUP2 MSTORE PUSH1 0x40 DUP1 DUP5 KECCAK256 PUSH1 0x1 PUSH1 0x1 PUSH1 0xA0 SHL SUB SWAP4 SWAP1 SWAP4 AND DUP5 MSTORE SWAP2 SWAP1 MSTORE SWAP1 KECCAK256 SLOAD PUSH1 0xFF AND SWAP1 JUMP JUMPDEST PUSH0 MLOAD PUSH1 0x20 PUSH2 0x431D PUSH0 CODECOPY PUSH0 MLOAD SWAP1 PUSH0 MSTORE PUSH2 0x1F05 DUP2 PUSH2 0x2884 JUMP JUMPDEST PUSH3 0x989680 DUP3 GT ISZERO PUSH2 0x1F58 JUMPI PUSH1 0x40 MLOAD PUSH3 0x461BCD PUSH1 0xE5 SHL DUP2 MSTORE PUSH1 0x20 PUSH1 0x4 DUP3 ADD MSTORE PUSH1 0x18 PUSH1 0x24 DUP3 ADD MSTORE PUSH32 0x496E76616C69642070657263656E746167652076616C75650000000000000000 PUSH1 0x44 DUP3 ADD MSTORE PUSH1 0x64 ADD PUSH2 0xA40 JUMP JUMPDEST POP PUSH1 0xD1 SSTORE JUMP JUMPDEST PUSH0 PUSH4 0x5F5E100 PUSH1 0xD9 DUP4 PUSH1 0x40 MLOAD PUSH2 0x1F74 SWAP2 SWAP1 PUSH2 0x403F JUMP JUMPDEST SWAP1 DUP2 MSTORE PUSH1 0x20 ADD PUSH1 0x40 MLOAD DUP1 SWAP2 SUB SWAP1 KECCAK256 PUSH1 0x1 ADD SLOAD DUP5 PUSH2 0x1F91 SWAP2 SWAP1 PUSH2 0x3F6D JUMP JUMPDEST PUSH2 0x1F9B SWAP2 SWAP1 PUSH2 0x3F4E JUMP JUMPDEST SWAP4 SWAP3 POP POP POP JUMP JUMPDEST PUSH1 0x1 PUSH1 0x1 PUSH1 0xA0 SHL SUB DUP2 AND PUSH0 SWAP1 DUP2 MSTORE PUSH1 0xD4 PUSH1 0x20 MSTORE PUSH1 0x40 DUP2 KECCAK256 SLOAD DUP1 ISZERO PUSH2 0x2060 JUMPI PUSH1 0x1 PUSH1 0x1 PUSH1 0xA0 SHL SUB DUP4 AND PUSH0 SWAP1 DUP2 MSTORE PUSH1 0xD4 PUSH1 0x20 MSTORE PUSH1 0x40 DUP2 KECCAK256 PUSH1 0xDA SWAP2 SWAP1 PUSH2 0x1FE6 PUSH1 0x1 DUP6 PUSH2 0x3F3B JUMP JUMPDEST DUP2 SLOAD DUP2 LT PUSH2 0x1FF6 JUMPI PUSH2 0x1FF6 PUSH2 0x4014 JUMP JUMPDEST SWAP1 PUSH0 MSTORE PUSH1 0x20 PUSH0 KECCAK256 ADD SLOAD DUP2 MSTORE PUSH1 0x20 ADD SWAP1 DUP2 MSTORE PUSH1 0x20 ADD PUSH0 KECCAK256 PUSH1 0x2 ADD PUSH1 0x1 SWAP1 SLOAD SWAP1 PUSH2 0x100 EXP SWAP1 DIV PUSH1 0xFF AND ISZERO PUSH2 0x2060 JUMPI PUSH1 0x1 PUSH1 0x1 PUSH1 0xA0 SHL SUB DUP4 AND PUSH0 SWAP1 DUP2 MSTORE PUSH1 0xD4 PUSH1 0x20 MSTORE PUSH1 0x40 SWAP1 KECCAK256 PUSH2 0x2044 PUSH1 0x1 DUP4 PUSH2 0x3F3B JUMP JUMPDEST DUP2 SLOAD DUP2 LT PUSH2 0x2054 JUMPI PUSH2 0x2054 PUSH2 0x4014 JUMP JUMPDEST SWAP1 PUSH0 MSTORE PUSH1 0x20 PUSH0 KECCAK256 ADD SLOAD SWAP2 POP JUMPDEST POP SWAP2 SWAP1 POP JUMP JUMPDEST PUSH0 PUSH2 0x258 PUSH1 0xD2 SLOAD TIMESTAMP PUSH2 0x2078 SWAP2 SWAP1 PUSH2 0x3F3B JUMP JUMPDEST PUSH2 0x2082 SWAP2 SWAP1 PUSH2 0x3F4E JUMP JUMPDEST SWAP1 POP SWAP1 JUMP JUMPDEST PUSH2 0x208F PUSH2 0x288E JUMP JUMPDEST PUSH0 PUSH2 0x2098 PUSH2 0x29C1 JUMP JUMPDEST SWAP1 POP PUSH0 DUP3 ISZERO PUSH2 0x212F JUMPI POP CALLER PUSH0 SWAP1 DUP2 MSTORE PUSH1 0xD8 PUSH1 0x20 MSTORE PUSH1 0x40 DUP2 KECCAK256 SLOAD SWAP1 DUP2 SWAP1 SUB PUSH2 0x20D1 JUMPI PUSH1 0x40 MLOAD PUSH3 0x461BCD PUSH1 0xE5 SHL DUP2 MSTORE PUSH1 0x4 ADD PUSH2 0xA40 SWAP1 PUSH2 0x3FCA JUMP JUMPDEST PUSH1 0xC9 SLOAD PUSH1 0x40 MLOAD PUSH4 0x852CD8D PUSH1 0xE3 SHL DUP2 MSTORE PUSH1 0x4 DUP2 ADD DUP5 SWAP1 MSTORE PUSH1 0x1 PUSH1 0x1 PUSH1 0xA0 SHL SUB SWAP1 SWAP2 AND SWAP1 PUSH4 0x42966C68 SWAP1 PUSH1 0x24 ADD PUSH0 PUSH1 0x40 MLOAD DUP1 DUP4 SUB DUP2 PUSH0 DUP8 DUP1 EXTCODESIZE ISZERO DUP1 ISZERO PUSH2 0x2114 JUMPI PUSH0 PUSH0 REVERT JUMPDEST POP GAS CALL ISZERO DUP1 ISZERO PUSH2 0x2126 JUMPI RETURNDATASIZE PUSH0 PUSH0 RETURNDATACOPY RETURNDATASIZE PUSH0 REVERT JUMPDEST POP POP POP POP PUSH2 0x219C JUMP JUMPDEST PUSH2 0x2138 CALLER PUSH2 0x1FA2 JUMP JUMPDEST SWAP1 POP DUP1 ISZERO DUP1 ISZERO SWAP1 PUSH2 0x2158 JUMPI POP PUSH0 DUP2 DUP2 MSTORE PUSH1 0xDA PUSH1 0x20 MSTORE PUSH1 0x40 SWAP1 KECCAK256 PUSH1 0x5 ADD SLOAD TIMESTAMP LT JUMPDEST PUSH2 0x219C JUMPI PUSH1 0x40 MLOAD PUSH3 0x461BCD PUSH1 0xE5 SHL DUP2 MSTORE PUSH1 0x20 PUSH1 0x4 DUP3 ADD MSTORE PUSH1 0x15 PUSH1 0x24 DUP3 ADD MSTORE PUSH21 0x4E6F20416374697665206C6F636B20657869737473 PUSH1 0x58 SHL PUSH1 0x44 DUP3 ADD MSTORE PUSH1 0x64 ADD PUSH2 0xA40 JUMP JUMPDEST PUSH2 0x21A6 DUP3 DUP3 PUSH2 0x2C65 JUMP JUMPDEST PUSH0 DUP2 DUP2 MSTORE PUSH1 0xDA PUSH1 0x20 SWAP1 DUP2 MSTORE PUSH1 0x40 SWAP2 DUP3 SWAP1 KECCAK256 PUSH1 0x1 DUP2 ADD SLOAD PUSH1 0x6 SWAP1 SWAP2 ADD SLOAD DUP4 MLOAD SWAP2 DUP3 MSTORE SWAP2 DUP2 ADD DUP6 SWAP1 MSTORE SWAP2 DUP3 ADD MSTORE DUP2 SWAP1 PUSH32 0x4E2CC4951F3EEABDD9E423F93EBA5E634644FF5FC64B2E59C2486C23A305DD8E SWAP1 PUSH1 0x60 ADD PUSH2 0x119F JUMP JUMPDEST PUSH0 MLOAD PUSH1 0x20 PUSH2 0x431D PUSH0 CODECOPY PUSH0 MLOAD SWAP1 PUSH0 MSTORE PUSH2 0x2214 DUP2 PUSH2 0x2884 JUMP JUMPDEST POP PUSH1 0xD0 SSTORE JUMP JUMPDEST PUSH0 DUP3 DUP2 MSTORE PUSH1 0x97 PUSH1 0x20 MSTORE PUSH1 0x40 SWAP1 KECCAK256 PUSH1 0x1 ADD SLOAD PUSH2 0x2234 DUP2 PUSH2 0x2884 JUMP JUMPDEST PUSH2 0xC93 DUP4 DUP4 PUSH2 0x295B JUMP JUMPDEST PUSH2 0x2246 PUSH2 0x288E JUMP JUMPDEST PUSH1 0xCF SLOAD DUP3 LT ISZERO PUSH2 0x2268 JUMPI PUSH1 0x40 MLOAD PUSH3 0x461BCD PUSH1 0xE5 SHL DUP2 MSTORE PUSH1 0x4 ADD PUSH2 0xA40 SWAP1 PUSH2 0x4118 JUMP JUMPDEST PUSH2 0xD12 DUP3 PUSH0 PUSH0 DUP5 PUSH2 0x2277 PUSH2 0x2066 JUMP JUMPDEST PUSH2 0x2F5D JUMP JUMPDEST PUSH1 0xD4 PUSH1 0x20 MSTORE DUP2 PUSH0 MSTORE PUSH1 0x40 PUSH0 KECCAK256 DUP2 DUP2 SLOAD DUP2 LT PUSH2 0x1E93 JUMPI PUSH0 DUP1 REVERT JUMPDEST PUSH1 0xDA PUSH1 0x20 MSTORE PUSH0 SWAP1 DUP2 MSTORE PUSH1 0x40 SWAP1 KECCAK256 DUP1 SLOAD DUP2 SWAP1 PUSH2 0x22AF SWAP1 PUSH2 0x404A JUMP JUMPDEST DUP1 PUSH1 0x1F ADD PUSH1 0x20 DUP1 SWAP2 DIV MUL PUSH1 0x20 ADD PUSH1 0x40 MLOAD SWAP1 DUP2 ADD PUSH1 0x40 MSTORE DUP1 SWAP3 SWAP2 SWAP1 DUP2 DUP2 MSTORE PUSH1 0x20 ADD DUP3 DUP1 SLOAD PUSH2 0x22DB SWAP1 PUSH2 0x404A JUMP JUMPDEST DUP1 ISZERO PUSH2 0x2326 JUMPI DUP1 PUSH1 0x1F LT PUSH2 0x22FD JUMPI PUSH2 0x100 DUP1 DUP4 SLOAD DIV MUL DUP4 MSTORE SWAP2 PUSH1 0x20 ADD SWAP2 PUSH2 0x2326 JUMP JUMPDEST DUP3 ADD SWAP2 SWAP1 PUSH0 MSTORE PUSH1 0x20 PUSH0 KECCAK256 SWAP1 JUMPDEST DUP2 SLOAD DUP2 MSTORE SWAP1 PUSH1 0x1 ADD SWAP1 PUSH1 0x20 ADD DUP1 DUP4 GT PUSH2 0x2309 JUMPI DUP3 SWAP1 SUB PUSH1 0x1F AND DUP3 ADD SWAP2 JUMPDEST POP POP POP PUSH1 0x1 DUP5 ADD SLOAD PUSH1 0x2 DUP6 ADD SLOAD PUSH1 0x3 DUP7 ADD SLOAD PUSH1 0x4 DUP8 ADD SLOAD PUSH1 0x5 DUP9 ADD SLOAD PUSH1 0x6 DUP10 ADD SLOAD PUSH1 0x7 DUP11 ADD SLOAD PUSH1 0x8 DUP12 ADD SLOAD PUSH1 0x9 DUP13 ADD SLOAD PUSH1 0xA SWAP1 SWAP13 ADD SLOAD SWAP11 SWAP12 SWAP8 SWAP11 PUSH1 0xFF DUP1 DUP10 AND SWAP12 POP PUSH2 0x100 SWAP1 SWAP9 DIV SWAP1 SWAP8 AND SWAP9 POP SWAP5 SWAP7 SWAP4 SWAP6 SWAP3 SWAP5 SWAP2 SWAP4 SWAP1 SWAP3 DUP13 JUMP JUMPDEST PUSH0 SLOAD PUSH2 0x100 SWAP1 DIV PUSH1 0xFF AND ISZERO DUP1 DUP1 ISZERO PUSH2 0x239D JUMPI POP PUSH0 SLOAD PUSH1 0x1 PUSH1 0xFF SWAP1 SWAP2 AND LT JUMPDEST DUP1 PUSH2 0x23B6 JUMPI POP ADDRESS EXTCODESIZE ISZERO DUP1 ISZERO PUSH2 0x23B6 JUMPI POP PUSH0 SLOAD PUSH1 0xFF AND PUSH1 0x1 EQ JUMPDEST PUSH2 0x2419 JUMPI PUSH1 0x40 MLOAD PUSH3 0x461BCD PUSH1 0xE5 SHL DUP2 MSTORE PUSH1 0x20 PUSH1 0x4 DUP3 ADD MSTORE PUSH1 0x2E PUSH1 0x24 DUP3 ADD MSTORE PUSH32 0x496E697469616C697A61626C653A20636F6E747261637420697320616C726561 PUSH1 0x44 DUP3 ADD MSTORE PUSH14 0x191E481A5B9A5D1A585B1A5E9959 PUSH1 0x92 SHL PUSH1 0x64 DUP3 ADD MSTORE PUSH1 0x84 ADD PUSH2 0xA40 JUMP JUMPDEST PUSH0 DUP1 SLOAD PUSH1 0xFF NOT AND PUSH1 0x1 OR SWAP1 SSTORE DUP1 ISZERO PUSH2 0x243A JUMPI PUSH0 DUP1 SLOAD PUSH2 0xFF00 NOT AND PUSH2 0x100 OR SWAP1 SSTORE JUMPDEST PUSH1 0x1 PUSH1 0x1 PUSH1 0xA0 SHL SUB DUP11 AND PUSH2 0x2490 JUMPI PUSH1 0x40 MLOAD PUSH3 0x461BCD PUSH1 0xE5 SHL DUP2 MSTORE PUSH1 0x20 PUSH1 0x4 DUP3 ADD MSTORE PUSH1 0x1A PUSH1 0x24 DUP3 ADD MSTORE PUSH32 0x496E76616C696420414C564120746F6B656E2061646472657373000000000000 PUSH1 0x44 DUP3 ADD MSTORE PUSH1 0x64 ADD PUSH2 0xA40 JUMP JUMPDEST PUSH1 0x1 PUSH1 0x1 PUSH1 0xA0 SHL SUB DUP10 AND PUSH2 0x24E6 JUMPI PUSH1 0x40 MLOAD PUSH3 0x461BCD PUSH1 0xE5 SHL DUP2 MSTORE PUSH1 0x20 PUSH1 0x4 DUP3 ADD MSTORE PUSH1 0x1C PUSH1 0x24 DUP3 ADD MSTORE PUSH32 0x496E76616C6964207665414C564120746F6B656E206164647265737300000000 PUSH1 0x44 DUP3 ADD MSTORE PUSH1 0x64 ADD PUSH2 0xA40 JUMP JUMPDEST PUSH1 0xC9 DUP1 SLOAD PUSH1 0x1 PUSH1 0x1 PUSH1 0xA0 SHL SUB DUP1 DUP14 AND PUSH1 0x1 PUSH1 0x1 PUSH1 0xA0 SHL SUB NOT SWAP3 DUP4 AND OR SWAP1 SWAP3 SSTORE PUSH1 0xCA DUP1 SLOAD SWAP3 DUP13 AND SWAP3 SWAP1 SWAP2 AND SWAP2 SWAP1 SWAP2 OR SWAP1 SSTORE PUSH1 0xCE DUP9 SWAP1 SSTORE PUSH1 0xD2 DUP8 SWAP1 SSTORE PUSH1 0x1 PUSH1 0xCF SSTORE PUSH2 0x2710 PUSH1 0xD0 SSTORE PUSH3 0x4C4B40 PUSH1 0xD1 SSTORE PUSH2 0x253C PUSH0 CALLER PUSH2 0x28D6 JUMP JUMPDEST PUSH2 0x2553 PUSH0 MLOAD PUSH1 0x20 PUSH2 0x42FD PUSH0 CODECOPY PUSH0 MLOAD SWAP1 PUSH0 MSTORE CALLER PUSH2 0x28D6 JUMP JUMPDEST PUSH2 0x256A PUSH0 MLOAD PUSH1 0x20 PUSH2 0x431D PUSH0 CODECOPY PUSH0 MLOAD SWAP1 PUSH0 MSTORE CALLER PUSH2 0x28D6 JUMP JUMPDEST PUSH2 0x2594 PUSH32 0x4C716A0EBD1CFD3E93CA0DB9B9F8A0A9CB7C1D4CC18B52950E1F5528CC73CB5D CALLER PUSH2 0x28D6 JUMP JUMPDEST DUP3 PUSH0 DUP2 MLOAD DUP2 LT PUSH2 0x25A6 JUMPI PUSH2 0x25A6 PUSH2 0x4014 JUMP JUMPDEST PUSH1 0x20 MUL PUSH1 0x20 ADD ADD MLOAD PUSH0 EQ PUSH2 0x25F0 JUMPI PUSH1 0x40 MLOAD PUSH3 0x461BCD PUSH1 0xE5 SHL DUP2 MSTORE PUSH1 0x20 PUSH1 0x4 DUP3 ADD MSTORE PUSH1 0x11 PUSH1 0x24 DUP3 ADD MSTORE PUSH17 0x496E76616C6964204475726174696F6E73 PUSH1 0x78 SHL PUSH1 0x44 DUP3 ADD MSTORE PUSH1 0x64 ADD PUSH2 0xA40 JUMP JUMPDEST DUP6 MLOAD PUSH0 SWAP1 PUSH2 0x2605 SWAP1 PUSH1 0xCB SWAP1 PUSH1 0x20 DUP11 ADD SWAP1 PUSH2 0x390E JUMP JUMPDEST POP PUSH0 JUMPDEST DUP8 MLOAD DUP2 LT ISZERO PUSH2 0x27ED JUMPI DUP6 DUP2 DUP2 MLOAD DUP2 LT PUSH2 0x2623 JUMPI PUSH2 0x2623 PUSH2 0x4014 JUMP JUMPDEST PUSH1 0x20 MUL PUSH1 0x20 ADD ADD MLOAD PUSH1 0xD9 DUP10 DUP4 DUP2 MLOAD DUP2 LT PUSH2 0x263F JUMPI PUSH2 0x263F PUSH2 0x4014 JUMP JUMPDEST PUSH1 0x20 MUL PUSH1 0x20 ADD ADD MLOAD PUSH1 0x40 MLOAD PUSH2 0x2654 SWAP2 SWAP1 PUSH2 0x403F JUMP JUMPDEST SWAP1 DUP2 MSTORE PUSH1 0x20 ADD PUSH1 0x40 MLOAD DUP1 SWAP2 SUB SWAP1 KECCAK256 PUSH1 0x1 ADD DUP2 SWAP1 SSTORE POP DUP7 DUP2 DUP2 MLOAD DUP2 LT PUSH2 0x267B JUMPI PUSH2 0x267B PUSH2 0x4014 JUMP JUMPDEST PUSH1 0x20 MUL PUSH1 0x20 ADD ADD MLOAD PUSH1 0xD9 DUP10 DUP4 DUP2 MLOAD DUP2 LT PUSH2 0x2697 JUMPI PUSH2 0x2697 PUSH2 0x4014 JUMP JUMPDEST PUSH1 0x20 MUL PUSH1 0x20 ADD ADD MLOAD PUSH1 0x40 MLOAD PUSH2 0x26AC SWAP2 SWAP1 PUSH2 0x403F JUMP JUMPDEST SWAP1 DUP2 MSTORE PUSH1 0x20 ADD PUSH1 0x40 MLOAD DUP1 SWAP2 SUB SWAP1 KECCAK256 PUSH1 0x2 ADD DUP2 SWAP1 SSTORE POP DUP5 DUP2 DUP2 MLOAD DUP2 LT PUSH2 0x26D3 JUMPI PUSH2 0x26D3 PUSH2 0x4014 JUMP JUMPDEST PUSH1 0x20 MUL PUSH1 0x20 ADD ADD MLOAD PUSH1 0xD9 DUP10 DUP4 DUP2 MLOAD DUP2 LT PUSH2 0x26EF JUMPI PUSH2 0x26EF PUSH2 0x4014 JUMP JUMPDEST PUSH1 0x20 MUL PUSH1 0x20 ADD ADD MLOAD PUSH1 0x40 MLOAD PUSH2 0x2704 SWAP2 SWAP1 PUSH2 0x403F JUMP JUMPDEST SWAP1 DUP2 MSTORE PUSH1 0x20 ADD PUSH1 0x40 MLOAD DUP1 SWAP2 SUB SWAP1 KECCAK256 PUSH1 0x3 ADD DUP2 SWAP1 SSTORE POP PUSH1 0x1 PUSH1 0xD9 DUP10 DUP4 DUP2 MLOAD DUP2 LT PUSH2 0x272F JUMPI PUSH2 0x272F PUSH2 0x4014 JUMP JUMPDEST PUSH1 0x20 MUL PUSH1 0x20 ADD ADD MLOAD PUSH1 0x40 MLOAD PUSH2 0x2744 SWAP2 SWAP1 PUSH2 0x403F JUMP JUMPDEST SWAP1 DUP2 MSTORE PUSH1 0x40 MLOAD SWAP1 DUP2 SWAP1 SUB PUSH1 0x20 ADD SWAP1 KECCAK256 DUP1 SLOAD SWAP2 ISZERO ISZERO PUSH1 0xFF NOT SWAP1 SWAP3 AND SWAP2 SWAP1 SWAP2 OR SWAP1 SSTORE DUP4 MLOAD DUP5 SWAP1 DUP3 SWAP1 DUP2 LT PUSH2 0x2778 JUMPI PUSH2 0x2778 PUSH2 0x4014 JUMP JUMPDEST PUSH1 0x20 MUL PUSH1 0x20 ADD ADD MLOAD PUSH1 0xD9 DUP10 DUP4 DUP2 MLOAD DUP2 LT PUSH2 0x2794 JUMPI PUSH2 0x2794 PUSH2 0x4014 JUMP JUMPDEST PUSH1 0x20 MUL PUSH1 0x20 ADD ADD MLOAD PUSH1 0x40 MLOAD PUSH2 0x27A9 SWAP2 SWAP1 PUSH2 0x403F JUMP JUMPDEST SWAP1 DUP2 MSTORE PUSH1 0x20 ADD PUSH1 0x40 MLOAD DUP1 SWAP2 SUB SWAP1 KECCAK256 PUSH1 0x5 ADD DUP2 SWAP1 SSTORE POP DUP7 DUP2 DUP2 MLOAD DUP2 LT PUSH2 0x27D0 JUMPI PUSH2 0x27D0 PUSH2 0x4014 JUMP JUMPDEST PUSH1 0x20 MUL PUSH1 0x20 ADD ADD MLOAD DUP3 PUSH2 0x27E3 SWAP2 SWAP1 PUSH2 0x3F84 JUMP JUMPDEST SWAP2 POP PUSH1 0x1 ADD PUSH2 0x2608 JUMP JUMPDEST POP PUSH3 0x989680 DUP2 EQ PUSH2 0x2832 JUMPI PUSH1 0x40 MLOAD PUSH3 0x461BCD PUSH1 0xE5 SHL DUP2 MSTORE PUSH1 0x20 PUSH1 0x4 DUP3 ADD MSTORE PUSH1 0xF PUSH1 0x24 DUP3 ADD MSTORE PUSH15 0x496E76616C69642052657761726473 PUSH1 0x88 SHL PUSH1 0x44 DUP3 ADD MSTORE PUSH1 0x64 ADD PUSH2 0xA40 JUMP JUMPDEST POP DUP1 ISZERO PUSH2 0x2878 JUMPI PUSH0 DUP1 SLOAD PUSH2 0xFF00 NOT AND SWAP1 SSTORE PUSH1 0x40 MLOAD PUSH1 0x1 DUP2 MSTORE PUSH32 0x7F26B83FF96E1F2B6A682F133852F6798A09C465DA95921460CEFB3847402498 SWAP1 PUSH1 0x20 ADD PUSH1 0x40 MLOAD DUP1 SWAP2 SUB SWAP1 LOG1 JUMPDEST POP POP POP POP POP POP POP POP POP POP JUMP JUMPDEST PUSH2 0xDF2 DUP2 CALLER PUSH2 0x3524 JUMP JUMPDEST PUSH1 0x33 SLOAD PUSH1 0xFF AND ISZERO PUSH2 0x28D4 JUMPI PUSH1 0x40 MLOAD PUSH3 0x461BCD PUSH1 0xE5 SHL DUP2 MSTORE PUSH1 0x20 PUSH1 0x4 DUP3 ADD MSTORE PUSH1 0x10 PUSH1 0x24 DUP3 ADD MSTORE PUSH16 0x14185D5CD8589B194E881C185D5CD959 PUSH1 0x82 SHL PUSH1 0x44 DUP3 ADD MSTORE PUSH1 0x64 ADD PUSH2 0xA40 JUMP JUMPDEST JUMP JUMPDEST PUSH2 0x28E0 DUP3 DUP3 PUSH2 0x1EC4 JUMP JUMPDEST PUSH2 0xD12 JUMPI PUSH0 DUP3 DUP2 MSTORE PUSH1 0x97 PUSH1 0x20 SWAP1 DUP2 MSTORE PUSH1 0x40 DUP1 DUP4 KECCAK256 PUSH1 0x1 PUSH1 0x1 PUSH1 0xA0 SHL SUB DUP6 AND DUP5 MSTORE SWAP1 SWAP2 MSTORE SWAP1 KECCAK256 DUP1 SLOAD PUSH1 0xFF NOT AND PUSH1 0x1 OR SWAP1 SSTORE PUSH2 0x2917 CALLER SWAP1 JUMP JUMPDEST PUSH1 0x1 PUSH1 0x1 PUSH1 0xA0 SHL SUB AND DUP2 PUSH1 0x1 PUSH1 0x1 PUSH1 0xA0 SHL SUB AND DUP4 PUSH32 0x2F8788117E7EFF1D82E926EC794901D17C78024A50270940304540A733656F0D PUSH1 0x40 MLOAD PUSH1 0x40 MLOAD DUP1 SWAP2 SUB SWAP1 LOG4 POP POP JUMP JUMPDEST PUSH2 0x2965 DUP3 DUP3 PUSH2 0x1EC4 JUMP JUMPDEST ISZERO PUSH2 0xD12 JUMPI PUSH0 DUP3 DUP2 MSTORE PUSH1 0x97 PUSH1 0x20 SWAP1 DUP2 MSTORE PUSH1 0x40 DUP1 DUP4 KECCAK256 PUSH1 0x1 PUSH1 0x1 PUSH1 0xA0 SHL SUB DUP6 AND DUP1 DUP6 MSTORE SWAP3 MSTORE DUP1 DUP4 KECCAK256 DUP1 SLOAD PUSH1 0xFF NOT AND SWAP1 SSTORE MLOAD CALLER SWAP3 DUP6 SWAP2 PUSH32 0xF6391F5C32D9C69D2A47EA670B442974B53935D1EDC7FD64EB21E047A839171B SWAP2 SWAP1 LOG4 POP POP JUMP JUMPDEST CALLER PUSH0 SWAP1 DUP2 MSTORE PUSH1 0xD6 PUSH1 0x20 SWAP1 DUP2 MSTORE PUSH1 0x40 DUP1 DUP4 KECCAK256 SLOAD PUSH1 0xD5 SWAP1 SWAP3 MSTORE DUP3 KECCAK256 SLOAD GT ISZERO PUSH2 0x2A1F JUMPI CALLER PUSH0 SWAP1 DUP2 MSTORE PUSH1 0xD5 PUSH1 0x20 SWAP1 DUP2 MSTORE PUSH1 0x40 DUP1 DUP4 KECCAK256 PUSH1 0xD6 SWAP1 SWAP3 MSTORE SWAP1 SWAP2 KECCAK256 SLOAD DUP2 SLOAD PUSH2 0x2A1F SWAP3 SWAP2 SWAP1 DUP2 LT PUSH2 0x2A11 JUMPI PUSH2 0x2A11 PUSH2 0x4014 JUMP JUMPDEST SWAP1 PUSH0 MSTORE PUSH1 0x20 PUSH0 KECCAK256 ADD SLOAD PUSH2 0x357D JUMP JUMPDEST PUSH2 0x2A27 PUSH2 0x365F JUMP JUMPDEST POP CALLER PUSH0 SWAP1 DUP2 MSTORE PUSH1 0xD7 PUSH1 0x20 MSTORE PUSH1 0x40 SWAP1 KECCAK256 SLOAD DUP1 PUSH2 0x2A8E JUMPI PUSH1 0x40 MLOAD PUSH3 0x461BCD PUSH1 0xE5 SHL DUP2 MSTORE PUSH1 0x20 PUSH1 0x4 DUP3 ADD MSTORE PUSH1 0x21 PUSH1 0x24 DUP3 ADD MSTORE PUSH32 0x4E6F207265776172647320617661696C61626C6520666F7220636C61696D696E PUSH1 0x44 DUP3 ADD MSTORE PUSH1 0x67 PUSH1 0xF8 SHL PUSH1 0x64 DUP3 ADD MSTORE PUSH1 0x84 ADD PUSH2 0xA40 JUMP JUMPDEST CALLER PUSH0 SWAP1 DUP2 MSTORE PUSH1 0xD7 PUSH1 0x20 MSTORE PUSH1 0x40 DUP2 KECCAK256 SSTORE SWAP1 JUMP JUMPDEST PUSH2 0x2AA8 PUSH2 0x371E JUMP JUMPDEST PUSH1 0x33 DUP1 SLOAD PUSH1 0xFF NOT AND SWAP1 SSTORE PUSH32 0x5DB9EE0A495BF2E6FF9C91A7834C1BA4FDD244A5E8AA4E537BD38AEAE4B073AA CALLER JUMPDEST PUSH1 0x40 MLOAD PUSH1 0x1 PUSH1 0x1 PUSH1 0xA0 SHL SUB SWAP1 SWAP2 AND DUP2 MSTORE PUSH1 0x20 ADD PUSH1 0x40 MLOAD DUP1 SWAP2 SUB SWAP1 LOG1 JUMP JUMPDEST PUSH0 DUP3 DUP2 MSTORE PUSH1 0xDA PUSH1 0x20 MSTORE PUSH1 0x40 DUP2 KECCAK256 DUP1 SLOAD DUP3 SWAP2 SWAP1 PUSH2 0x2B0D SWAP1 PUSH2 0x404A JUMP JUMPDEST DUP1 PUSH1 0x1F ADD PUSH1 0x20 DUP1 SWAP2 DIV MUL PUSH1 0x20 ADD PUSH1 0x40 MLOAD SWAP1 DUP2 ADD PUSH1 0x40 MSTORE DUP1 SWAP3 SWAP2 SWAP1 DUP2 DUP2 MSTORE PUSH1 0x20 ADD DUP3 DUP1 SLOAD PUSH2 0x2B39 SWAP1 PUSH2 0x404A JUMP JUMPDEST DUP1 ISZERO PUSH2 0x2B84 JUMPI DUP1 PUSH1 0x1F LT PUSH2 0x2B5B JUMPI PUSH2 0x100 DUP1 DUP4 SLOAD DIV MUL DUP4 MSTORE SWAP2 PUSH1 0x20 ADD SWAP2 PUSH2 0x2B84 JUMP JUMPDEST DUP3 ADD SWAP2 SWAP1 PUSH0 MSTORE PUSH1 0x20 PUSH0 KECCAK256 SWAP1 JUMPDEST DUP2 SLOAD DUP2 MSTORE SWAP1 PUSH1 0x1 ADD SWAP1 PUSH1 0x20 ADD DUP1 DUP4 GT PUSH2 0x2B67 JUMPI DUP3 SWAP1 SUB PUSH1 0x1F AND DUP3 ADD SWAP2 JUMPDEST POP POP POP PUSH0 DUP8 DUP2 MSTORE PUSH1 0xDA PUSH1 0x20 MSTORE PUSH1 0x40 DUP2 KECCAK256 PUSH1 0xA ADD SLOAD SWAP4 SWAP5 POP SWAP3 PUSH2 0x2BA9 SWAP3 POP DUP7 SWAP2 POP PUSH2 0x3F3B JUMP JUMPDEST PUSH0 DUP7 DUP2 MSTORE PUSH1 0xDA PUSH1 0x20 MSTORE PUSH1 0x40 SWAP1 KECCAK256 PUSH1 0x1 ADD SLOAD PUSH2 0x2BC4 SWAP2 SWAP1 PUSH2 0x3F3B JUMP JUMPDEST SWAP1 POP PUSH3 0x989680 PUSH1 0xDB PUSH0 DUP9 DUP2 MSTORE PUSH1 0x20 ADD SWAP1 DUP2 MSTORE PUSH1 0x20 ADD PUSH0 KECCAK256 PUSH1 0x3 ADD DUP4 PUSH1 0x40 MLOAD PUSH2 0x2BEC SWAP2 SWAP1 PUSH2 0x403F JUMP JUMPDEST SWAP1 DUP2 MSTORE PUSH1 0x20 ADD PUSH1 0x40 MLOAD DUP1 SWAP2 SUB SWAP1 KECCAK256 SLOAD DUP3 PUSH1 0xD9 DUP6 PUSH1 0x40 MLOAD PUSH2 0x2C0C SWAP2 SWAP1 PUSH2 0x403F JUMP JUMPDEST SWAP1 DUP2 MSTORE PUSH1 0x20 ADD PUSH1 0x40 MLOAD DUP1 SWAP2 SUB SWAP1 KECCAK256 PUSH1 0x2 ADD SLOAD PUSH1 0xDB PUSH0 DUP12 DUP2 MSTORE PUSH1 0x20 ADD SWAP1 DUP2 MSTORE PUSH1 0x20 ADD PUSH0 KECCAK256 PUSH1 0x2 ADD SLOAD PUSH2 0x2C3D SWAP2 SWAP1 PUSH2 0x3F6D JUMP JUMPDEST PUSH2 0x2C47 SWAP2 SWAP1 PUSH2 0x3F6D JUMP JUMPDEST PUSH2 0x2C51 SWAP2 SWAP1 PUSH2 0x3F4E JUMP JUMPDEST PUSH2 0x2C5B SWAP2 SWAP1 PUSH2 0x3F4E JUMP JUMPDEST SWAP7 SWAP6 POP POP POP POP POP POP JUMP JUMPDEST PUSH1 0xCF SLOAD DUP3 LT ISZERO PUSH2 0x2C87 JUMPI PUSH1 0x40 MLOAD PUSH3 0x461BCD PUSH1 0xE5 SHL DUP2 MSTORE PUSH1 0x4 ADD PUSH2 0xA40 SWAP1 PUSH2 0x4118 JUMP JUMPDEST PUSH0 DUP2 DUP2 MSTORE PUSH1 0xDA PUSH1 0x20 MSTORE PUSH1 0x40 DUP2 KECCAK256 DUP1 SLOAD PUSH2 0x2C9F SWAP1 PUSH2 0x404A JUMP JUMPDEST DUP1 PUSH1 0x1F ADD PUSH1 0x20 DUP1 SWAP2 DIV MUL PUSH1 0x20 ADD PUSH1 0x40 MLOAD SWAP1 DUP2 ADD PUSH1 0x40 MSTORE DUP1 SWAP3 SWAP2 SWAP1 DUP2 DUP2 MSTORE PUSH1 0x20 ADD DUP3 DUP1 SLOAD PUSH2 0x2CCB SWAP1 PUSH2 0x404A JUMP JUMPDEST DUP1 ISZERO PUSH2 0x2D16 JUMPI DUP1 PUSH1 0x1F LT PUSH2 0x2CED JUMPI PUSH2 0x100 DUP1 DUP4 SLOAD DIV MUL DUP4 MSTORE SWAP2 PUSH1 0x20 ADD SWAP2 PUSH2 0x2D16 JUMP JUMPDEST DUP3 ADD SWAP2 SWAP1 PUSH0 MSTORE PUSH1 0x20 PUSH0 KECCAK256 SWAP1 JUMPDEST DUP2 SLOAD DUP2 MSTORE SWAP1 PUSH1 0x1 ADD SWAP1 PUSH1 0x20 ADD DUP1 DUP4 GT PUSH2 0x2CF9 JUMPI DUP3 SWAP1 SUB PUSH1 0x1F AND DUP3 ADD SWAP2 JUMPDEST POP POP POP POP POP SWAP1 POP PUSH1 0xD9 DUP2 PUSH1 0x40 MLOAD PUSH2 0x2D2D SWAP2 SWAP1 PUSH2 0x403F JUMP JUMPDEST SWAP1 DUP2 MSTORE PUSH1 0x40 MLOAD SWAP1 DUP2 SWAP1 SUB PUSH1 0x20 ADD SWAP1 KECCAK256 SLOAD PUSH1 0xFF AND PUSH2 0x2D8C JUMPI PUSH1 0x40 MLOAD PUSH3 0x461BCD PUSH1 0xE5 SHL DUP2 MSTORE PUSH1 0x20 PUSH1 0x4 DUP3 ADD MSTORE PUSH1 0x1A PUSH1 0x24 DUP3 ADD MSTORE PUSH32 0x506F6F6C2069732063757272656E746C792064697361626C6564000000000000 PUSH1 0x44 DUP3 ADD MSTORE PUSH1 0x64 ADD PUSH2 0xA40 JUMP JUMPDEST PUSH0 PUSH2 0x2D97 DUP5 DUP4 PUSH2 0x1F5E JUMP JUMPDEST PUSH1 0xCA SLOAD PUSH1 0x40 MLOAD PUSH4 0x40C10F19 PUSH1 0xE0 SHL DUP2 MSTORE CALLER PUSH1 0x4 DUP3 ADD MSTORE PUSH1 0x24 DUP2 ADD DUP4 SWAP1 MSTORE SWAP2 SWAP3 POP PUSH1 0x1 PUSH1 0x1 PUSH1 0xA0 SHL SUB AND SWAP1 PUSH4 0x40C10F19 SWAP1 PUSH1 0x44 ADD PUSH0 PUSH1 0x40 MLOAD DUP1 DUP4 SUB DUP2 PUSH0 DUP8 DUP1 EXTCODESIZE ISZERO DUP1 ISZERO PUSH2 0x2DE1 JUMPI PUSH0 PUSH0 REVERT JUMPDEST POP GAS CALL ISZERO DUP1 ISZERO PUSH2 0x2DF3 JUMPI RETURNDATASIZE PUSH0 PUSH0 RETURNDATACOPY RETURNDATASIZE PUSH0 REVERT JUMPDEST POP POP POP PUSH0 DUP5 DUP2 MSTORE PUSH1 0xDA PUSH1 0x20 MSTORE PUSH1 0x40 DUP2 KECCAK256 PUSH1 0x1 ADD DUP1 SLOAD DUP8 SWAP4 POP SWAP1 SWAP2 SWAP1 PUSH2 0x2E19 SWAP1 DUP5 SWAP1 PUSH2 0x3F84 JUMP JUMPDEST SWAP1 SWAP2 SSTORE POP POP PUSH0 DUP4 DUP2 MSTORE PUSH1 0xDA PUSH1 0x20 MSTORE PUSH1 0x40 DUP2 KECCAK256 PUSH1 0x6 ADD DUP1 SLOAD DUP4 SWAP3 SWAP1 PUSH2 0x2E3E SWAP1 DUP5 SWAP1 PUSH2 0x3F84 JUMP JUMPDEST SWAP1 SWAP2 SSTORE POP PUSH0 SWAP1 POP PUSH2 0x2E4D PUSH2 0x2066 JUMP JUMPDEST PUSH0 DUP6 DUP2 MSTORE PUSH1 0xDA PUSH1 0x20 MSTORE PUSH1 0x40 SWAP1 KECCAK256 PUSH1 0x9 ADD SLOAD SWAP1 SWAP2 POP DUP2 DUP2 LT ISZERO DUP1 PUSH2 0x2E80 JUMPI POP PUSH0 DUP6 DUP2 MSTORE PUSH1 0xDA PUSH1 0x20 MSTORE PUSH1 0x40 SWAP1 KECCAK256 PUSH1 0x2 ADD SLOAD PUSH1 0xFF AND JUMPDEST ISZERO PUSH2 0x2F0D JUMPI DUP6 PUSH1 0xDB PUSH0 DUP5 DUP2 MSTORE PUSH1 0x20 ADD SWAP1 DUP2 MSTORE PUSH1 0x20 ADD PUSH0 KECCAK256 PUSH1 0x4 ADD DUP6 PUSH1 0x40 MLOAD PUSH2 0x2EA8 SWAP2 SWAP1 PUSH2 0x403F JUMP JUMPDEST SWAP1 DUP2 MSTORE PUSH1 0x20 ADD PUSH1 0x40 MLOAD DUP1 SWAP2 SUB SWAP1 KECCAK256 PUSH0 DUP3 DUP3 SLOAD PUSH2 0x2EC4 SWAP2 SWAP1 PUSH2 0x3F84 JUMP JUMPDEST SWAP1 SWAP2 SSTORE POP POP PUSH0 DUP2 DUP2 MSTORE PUSH1 0xDB PUSH1 0x20 MSTORE PUSH1 0x40 SWAP1 DUP2 SWAP1 KECCAK256 SWAP1 MLOAD DUP8 SWAP2 PUSH1 0x5 ADD SWAP1 PUSH2 0x2EEB SWAP1 DUP8 SWAP1 PUSH2 0x403F JUMP JUMPDEST SWAP1 DUP2 MSTORE PUSH1 0x20 ADD PUSH1 0x40 MLOAD DUP1 SWAP2 SUB SWAP1 KECCAK256 PUSH0 DUP3 DUP3 SLOAD PUSH2 0x2F07 SWAP2 SWAP1 PUSH2 0x3F84 JUMP JUMPDEST SWAP1 SWAP2 SSTORE POP POP JUMPDEST PUSH0 DUP6 DUP2 MSTORE PUSH1 0xDA PUSH1 0x20 MSTORE PUSH1 0x40 DUP2 KECCAK256 PUSH1 0xA ADD DUP1 SLOAD DUP9 SWAP3 SWAP1 PUSH2 0x2F2D SWAP1 DUP5 SWAP1 PUSH2 0x3F84 JUMP JUMPDEST SWAP1 SWAP2 SSTORE POP POP POP PUSH0 SWAP4 DUP5 MSTORE PUSH1 0xDA PUSH1 0x20 SWAP1 DUP2 MSTORE PUSH1 0x40 DUP1 DUP7 KECCAK256 PUSH1 0xA DUP2 ADD SLOAD SWAP4 DUP8 MSTORE PUSH1 0xB ADD SWAP1 SWAP2 MSTORE SWAP1 SWAP4 KECCAK256 SWAP3 SWAP1 SWAP3 SSTORE POP POP POP JUMP JUMPDEST PUSH1 0xD9 DUP3 PUSH1 0x40 MLOAD PUSH2 0x2F6D SWAP2 SWAP1 PUSH2 0x403F JUMP JUMPDEST SWAP1 DUP2 MSTORE PUSH1 0x40 MLOAD SWAP1 DUP2 SWAP1 SUB PUSH1 0x20 ADD SWAP1 KECCAK256 SLOAD PUSH1 0xFF AND PUSH2 0x2FDA JUMPI PUSH1 0x40 MLOAD PUSH3 0x461BCD PUSH1 0xE5 SHL DUP2 MSTORE PUSH1 0x20 PUSH1 0x4 DUP3 ADD MSTORE PUSH1 0x25 PUSH1 0x24 DUP3 ADD MSTORE PUSH32 0x54686520706F6F6C206973206E6F7420617661696C61626C6520666F72207374 PUSH1 0x44 DUP3 ADD MSTORE PUSH5 0x616B696E67 PUSH1 0xD8 SHL PUSH1 0x64 DUP3 ADD MSTORE PUSH1 0x84 ADD PUSH2 0xA40 JUMP JUMPDEST PUSH1 0xCC DUP1 SLOAD SWAP1 PUSH0 PUSH2 0x2FE9 DUP4 PUSH2 0x3FB2 JUMP JUMPDEST SWAP2 SWAP1 POP SSTORE POP PUSH0 PUSH1 0xD9 DUP4 PUSH1 0x40 MLOAD PUSH2 0x2FFF SWAP2 SWAP1 PUSH2 0x403F JUMP JUMPDEST SWAP1 DUP2 MSTORE PUSH1 0x20 ADD PUSH1 0x40 MLOAD DUP1 SWAP2 SUB SWAP1 KECCAK256 PUSH1 0x5 ADD SLOAD DUP3 PUSH2 0x301C SWAP2 SWAP1 PUSH2 0x3F84 JUMP JUMPDEST SWAP1 POP PUSH0 PUSH2 0x3029 DUP7 DUP9 PUSH2 0x3F84 JUMP JUMPDEST SWAP1 POP PUSH0 PUSH2 0x3036 DUP3 DUP7 PUSH2 0x1F5E JUMP JUMPDEST SWAP1 POP DUP6 DUP2 GT ISZERO PUSH2 0x30B6 JUMPI PUSH1 0xCA SLOAD PUSH1 0x1 PUSH1 0x1 PUSH1 0xA0 SHL SUB AND PUSH4 0x40C10F19 CALLER PUSH2 0x305C DUP10 DUP6 PUSH2 0x3F3B JUMP JUMPDEST PUSH1 0x40 MLOAD PUSH1 0x1 PUSH1 0x1 PUSH1 0xE0 SHL SUB NOT PUSH1 0xE0 DUP6 SWAP1 SHL AND DUP2 MSTORE PUSH1 0x1 PUSH1 0x1 PUSH1 0xA0 SHL SUB SWAP1 SWAP3 AND PUSH1 0x4 DUP4 ADD MSTORE PUSH1 0x24 DUP3 ADD MSTORE PUSH1 0x44 ADD PUSH0 PUSH1 0x40 MLOAD DUP1 DUP4 SUB DUP2 PUSH0 DUP8 DUP1 EXTCODESIZE ISZERO DUP1 ISZERO PUSH2 0x309F JUMPI PUSH0 PUSH0 REVERT JUMPDEST POP GAS CALL ISZERO DUP1 ISZERO PUSH2 0x30B1 JUMPI RETURNDATASIZE PUSH0 PUSH0 RETURNDATACOPY RETURNDATASIZE PUSH0 REVERT JUMPDEST POP POP POP POP JUMPDEST PUSH1 0xD9 DUP6 PUSH1 0x40 MLOAD PUSH2 0x30C6 SWAP2 SWAP1 PUSH2 0x403F JUMP JUMPDEST SWAP1 DUP2 MSTORE PUSH1 0x20 ADD PUSH1 0x40 MLOAD DUP1 SWAP2 SUB SWAP1 KECCAK256 PUSH1 0x3 ADD SLOAD PUSH0 EQ PUSH2 0x3273 JUMPI PUSH2 0x30E7 CALLER PUSH2 0x1FA2 JUMP JUMPDEST ISZERO PUSH2 0x3134 JUMPI PUSH1 0x40 MLOAD PUSH3 0x461BCD PUSH1 0xE5 SHL DUP2 MSTORE PUSH1 0x20 PUSH1 0x4 DUP3 ADD MSTORE PUSH1 0x1C PUSH1 0x24 DUP3 ADD MSTORE PUSH32 0x54696D6562617365206C6F636B20616C72656164792065786973747300000000 PUSH1 0x44 DUP3 ADD MSTORE PUSH1 0x64 ADD PUSH2 0xA40 JUMP JUMPDEST CALLER PUSH0 SWAP1 DUP2 MSTORE PUSH1 0xD4 PUSH1 0x20 SWAP1 DUP2 MSTORE PUSH1 0x40 DUP1 DUP4 KECCAK256 PUSH1 0xCC SLOAD DUP2 SLOAD PUSH1 0x1 DUP2 ADD DUP4 SSTORE SWAP2 DUP6 MSTORE SWAP3 DUP5 KECCAK256 ADD SWAP2 SWAP1 SWAP2 SSTORE MLOAD PUSH1 0xD9 SWAP1 PUSH2 0x316A SWAP1 DUP9 SWAP1 PUSH2 0x403F JUMP JUMPDEST SWAP1 DUP2 MSTORE PUSH1 0x20 ADD PUSH1 0x40 MLOAD DUP1 SWAP2 SUB SWAP1 KECCAK256 PUSH1 0x2 ADD SLOAD GT ISZERO PUSH2 0x31A9 JUMPI CALLER PUSH0 SWAP1 DUP2 MSTORE PUSH1 0xD5 PUSH1 0x20 SWAP1 DUP2 MSTORE PUSH1 0x40 DUP3 KECCAK256 PUSH1 0xCC SLOAD DUP2 SLOAD PUSH1 0x1 DUP2 ADD DUP4 SSTORE SWAP2 DUP5 MSTORE SWAP2 SWAP1 SWAP3 KECCAK256 SWAP1 SWAP2 ADD SSTORE JUMPDEST DUP8 ISZERO PUSH2 0x3229 JUMPI PUSH1 0xC9 SLOAD PUSH1 0x40 MLOAD PUSH4 0x23B872DD PUSH1 0xE0 SHL DUP2 MSTORE CALLER PUSH1 0x4 DUP3 ADD MSTORE ADDRESS PUSH1 0x24 DUP3 ADD MSTORE PUSH1 0x44 DUP2 ADD DUP11 SWAP1 MSTORE PUSH1 0x1 PUSH1 0x1 PUSH1 0xA0 SHL SUB SWAP1 SWAP2 AND SWAP1 PUSH4 0x23B872DD SWAP1 PUSH1 0x64 ADD PUSH1 0x20 PUSH1 0x40 MLOAD DUP1 DUP4 SUB DUP2 PUSH0 DUP8 GAS CALL ISZERO DUP1 ISZERO PUSH2 0x3203 JUMPI RETURNDATASIZE PUSH0 PUSH0 RETURNDATACOPY RETURNDATASIZE PUSH0 REVERT JUMPDEST POP POP POP POP PUSH1 0x40 MLOAD RETURNDATASIZE PUSH1 0x1F NOT PUSH1 0x1F DUP3 ADD AND DUP3 ADD DUP1 PUSH1 0x40 MSTORE POP DUP2 ADD SWAP1 PUSH2 0x3227 SWAP2 SWAP1 PUSH2 0x3F97 JUMP JUMPDEST POP JUMPDEST DUP2 PUSH1 0xDB PUSH0 DUP6 DUP2 MSTORE PUSH1 0x20 ADD SWAP1 DUP2 MSTORE PUSH1 0x20 ADD PUSH0 KECCAK256 PUSH1 0x5 ADD DUP7 PUSH1 0x40 MLOAD PUSH2 0x324C SWAP2 SWAP1 PUSH2 0x403F JUMP JUMPDEST SWAP1 DUP2 MSTORE PUSH1 0x20 ADD PUSH1 0x40 MLOAD DUP1 SWAP2 SUB SWAP1 KECCAK256 PUSH0 DUP3 DUP3 SLOAD PUSH2 0x3268 SWAP2 SWAP1 PUSH2 0x3F84 JUMP JUMPDEST SWAP1 SWAP2 SSTORE POP PUSH2 0x335F SWAP1 POP JUMP JUMPDEST CALLER PUSH0 SWAP1 DUP2 MSTORE PUSH1 0xD8 PUSH1 0x20 MSTORE PUSH1 0x40 SWAP1 KECCAK256 SLOAD ISZERO PUSH2 0x32CF JUMPI PUSH1 0x40 MLOAD PUSH3 0x461BCD PUSH1 0xE5 SHL DUP2 MSTORE PUSH1 0x20 PUSH1 0x4 DUP3 ADD MSTORE PUSH1 0x1B PUSH1 0x24 DUP3 ADD MSTORE PUSH32 0x466F7265766572206C6F636B20616C7265616479206578697374730000000000 PUSH1 0x44 DUP3 ADD MSTORE PUSH1 0x64 ADD PUSH2 0xA40 JUMP JUMPDEST PUSH1 0xCC SLOAD CALLER PUSH0 DUP2 DUP2 MSTORE PUSH1 0xD8 PUSH1 0x20 SWAP1 DUP2 MSTORE PUSH1 0x40 DUP1 DUP4 KECCAK256 DUP6 SWAP1 SSTORE SWAP4 DUP3 MSTORE PUSH1 0xDA SWAP1 MSTORE DUP3 SWAP1 KECCAK256 PUSH1 0x2 ADD DUP1 SLOAD PUSH1 0xFF NOT AND PUSH1 0x1 OR SWAP1 SSTORE PUSH1 0xC9 SLOAD SWAP2 MLOAD PUSH4 0x79CC679 PUSH1 0xE4 SHL DUP2 MSTORE PUSH1 0x4 DUP2 ADD SWAP2 SWAP1 SWAP2 MSTORE PUSH1 0x24 DUP2 ADD DUP5 SWAP1 MSTORE PUSH1 0x1 PUSH1 0x1 PUSH1 0xA0 SHL SUB SWAP1 SWAP2 AND SWAP1 PUSH4 0x79CC6790 SWAP1 PUSH1 0x44 ADD PUSH0 PUSH1 0x40 MLOAD DUP1 DUP4 SUB DUP2 PUSH0 DUP8 DUP1 EXTCODESIZE ISZERO DUP1 ISZERO PUSH2 0x3348 JUMPI PUSH0 PUSH0 REVERT JUMPDEST POP GAS CALL ISZERO DUP1 ISZERO PUSH2 0x335A JUMPI RETURNDATASIZE PUSH0 PUSH0 RETURNDATACOPY RETURNDATASIZE PUSH0 REVERT JUMPDEST POP POP POP POP JUMPDEST PUSH1 0xCC SLOAD PUSH0 SWAP1 DUP2 MSTORE PUSH1 0xDA PUSH1 0x20 MSTORE PUSH1 0x40 SWAP1 KECCAK256 PUSH2 0x3379 DUP7 DUP3 PUSH2 0x41A7 JUMP JUMPDEST POP PUSH1 0xCC SLOAD PUSH0 SWAP1 DUP2 MSTORE PUSH1 0xDA PUSH1 0x20 MSTORE PUSH1 0x40 SWAP1 DUP2 SWAP1 KECCAK256 PUSH1 0x1 ADD DUP4 SWAP1 SSTORE MLOAD PUSH1 0xD9 SWAP1 PUSH2 0x33A1 SWAP1 DUP8 SWAP1 PUSH2 0x403F JUMP JUMPDEST SWAP1 DUP2 MSTORE PUSH1 0x40 DUP1 MLOAD SWAP2 DUP3 SWAP1 SUB PUSH1 0x20 SWAP1 DUP2 ADD DUP4 KECCAK256 PUSH1 0x3 SWAP1 DUP2 ADD SLOAD PUSH1 0xCC DUP1 SLOAD PUSH0 SWAP1 DUP2 MSTORE PUSH1 0xDA SWAP1 SWAP5 MSTORE DUP5 DUP5 KECCAK256 SWAP1 SWAP3 ADD SSTORE SLOAD DUP2 MSTORE KECCAK256 TIMESTAMP PUSH1 0x4 SWAP1 SWAP2 ADD SSTORE PUSH1 0xD9 SWAP1 PUSH2 0x33E6 SWAP1 DUP8 SWAP1 PUSH2 0x403F JUMP JUMPDEST SWAP1 DUP2 MSTORE PUSH1 0x20 ADD PUSH1 0x40 MLOAD DUP1 SWAP2 SUB SWAP1 KECCAK256 PUSH1 0x3 ADD SLOAD TIMESTAMP PUSH2 0x3403 SWAP2 SWAP1 PUSH2 0x3F84 JUMP JUMPDEST PUSH1 0xCC DUP1 SLOAD PUSH0 SWAP1 DUP2 MSTORE PUSH1 0xDA PUSH1 0x20 SWAP1 DUP2 MSTORE PUSH1 0x40 DUP1 DUP4 KECCAK256 PUSH1 0x5 ADD SWAP5 SWAP1 SWAP5 SSTORE DUP3 SLOAD DUP3 MSTORE DUP4 DUP3 KECCAK256 PUSH1 0x6 ADD DUP6 SWAP1 SSTORE DUP3 SLOAD DUP3 MSTORE DUP4 DUP3 KECCAK256 PUSH1 0x2 ADD DUP1 SLOAD PUSH2 0xFF00 NOT AND PUSH2 0x100 OR SWAP1 SSTORE DUP3 SLOAD DUP3 MSTORE DUP4 DUP3 KECCAK256 PUSH1 0x8 ADD DUP9 SWAP1 SSTORE SWAP2 SLOAD DUP2 MSTORE DUP3 DUP2 KECCAK256 PUSH1 0x9 ADD DUP7 SWAP1 SSTORE DUP7 DUP2 MSTORE PUSH1 0xDB SWAP1 SWAP2 MSTORE DUP2 SWAP1 KECCAK256 SWAP1 MLOAD DUP4 SWAP2 PUSH1 0x4 ADD SWAP1 PUSH2 0x347A SWAP1 DUP9 SWAP1 PUSH2 0x403F JUMP JUMPDEST SWAP1 DUP2 MSTORE PUSH1 0x20 ADD PUSH1 0x40 MLOAD DUP1 SWAP2 SUB SWAP1 KECCAK256 PUSH0 DUP3 DUP3 SLOAD PUSH2 0x3496 SWAP2 SWAP1 PUSH2 0x3F84 JUMP JUMPDEST SWAP1 SWAP2 SSTORE POP POP PUSH1 0xCC SLOAD PUSH1 0x40 MLOAD CALLER SWAP2 SWAP1 PUSH32 0xE11027F9E3D7AA31B5D23503BE35FAEDE305799D8C9AB6C5B06FE0F28589906 SWAP1 PUSH2 0x34D5 SWAP1 DUP7 SWAP1 DUP11 SWAP1 DUP8 SWAP1 PUSH2 0x4261 JUMP JUMPDEST PUSH1 0x40 MLOAD DUP1 SWAP2 SUB SWAP1 LOG3 POP POP POP POP POP POP POP POP JUMP JUMPDEST PUSH2 0x34EF PUSH2 0x288E JUMP JUMPDEST PUSH1 0x33 DUP1 SLOAD PUSH1 0xFF NOT AND PUSH1 0x1 OR SWAP1 SSTORE PUSH32 0x62E78CEA01BEE320CD4E420270B5EA74000D11B0C9F74754EBDBFC544B05A258 PUSH2 0x2AD5 CALLER SWAP1 JUMP JUMPDEST PUSH2 0x352E DUP3 DUP3 PUSH2 0x1EC4 JUMP JUMPDEST PUSH2 0xD12 JUMPI PUSH2 0x353B DUP2 PUSH2 0x3767 JUMP JUMPDEST PUSH2 0x3546 DUP4 PUSH1 0x20 PUSH2 0x3779 JUMP JUMPDEST PUSH1 0x40 MLOAD PUSH1 0x20 ADD PUSH2 0x3557 SWAP3 SWAP2 SWAP1 PUSH2 0x4289 JUMP JUMPDEST PUSH1 0x40 DUP1 MLOAD PUSH1 0x1F NOT DUP2 DUP5 SUB ADD DUP2 MSTORE SWAP1 DUP3 SWAP1 MSTORE PUSH3 0x461BCD PUSH1 0xE5 SHL DUP3 MSTORE PUSH2 0xA40 SWAP2 PUSH1 0x4 ADD PUSH2 0x3C1E JUMP JUMPDEST DUP1 ISZERO DUP1 ISZERO SWAP1 PUSH2 0x35A1 JUMPI POP PUSH0 DUP2 DUP2 MSTORE PUSH1 0xDA PUSH1 0x20 MSTORE PUSH1 0x40 SWAP1 KECCAK256 PUSH1 0x9 DUP2 ADD SLOAD PUSH1 0x8 SWAP1 SWAP2 ADD SLOAD LT JUMPDEST ISZERO PUSH2 0xDF2 JUMPI PUSH0 PUSH0 PUSH2 0x35B3 DUP4 PUSH1 0xA PUSH2 0xE82 JUMP JUMPDEST PUSH0 DUP7 DUP2 MSTORE PUSH1 0xDA PUSH1 0x20 MSTORE PUSH1 0x40 DUP2 KECCAK256 PUSH1 0x8 DUP2 ADD SWAP4 SWAP1 SWAP4 SSTORE PUSH1 0x7 SWAP1 SWAP3 ADD DUP1 SLOAD SWAP4 SWAP6 POP SWAP1 SWAP4 POP DUP5 SWAP3 SWAP1 SWAP2 SWAP1 PUSH2 0x35E5 SWAP1 DUP5 SWAP1 PUSH2 0x3F84 JUMP JUMPDEST SWAP1 SWAP2 SSTORE POP POP CALLER PUSH0 SWAP1 DUP2 MSTORE PUSH1 0xD7 PUSH1 0x20 MSTORE PUSH1 0x40 DUP2 KECCAK256 DUP1 SLOAD DUP5 SWAP3 SWAP1 PUSH2 0x3608 SWAP1 DUP5 SWAP1 PUSH2 0x3F84 JUMP JUMPDEST SWAP1 SWAP2 SSTORE POP POP PUSH0 DUP4 DUP2 MSTORE PUSH1 0xDA PUSH1 0x20 DUP2 DUP2 MSTORE PUSH1 0x40 DUP1 DUP5 KECCAK256 PUSH1 0x8 DUP2 ADD DUP1 SLOAD DUP7 MSTORE PUSH1 0xB DUP3 ADD DUP5 MSTORE SWAP2 DUP6 KECCAK256 DUP7 SWAP1 SSTORE SWAP4 DUP8 SWAP1 MSTORE SWAP2 SWAP1 MSTORE PUSH1 0x9 SWAP1 SWAP2 ADD SLOAD SWAP1 SLOAD SUB PUSH2 0xC93 JUMPI CALLER PUSH0 SWAP1 DUP2 MSTORE PUSH1 0xD6 PUSH1 0x20 MSTORE PUSH1 0x40 DUP2 KECCAK256 DUP1 SLOAD SWAP2 PUSH2 0x19CB DUP4 PUSH2 0x3FB2 JUMP JUMPDEST CALLER PUSH0 SWAP1 DUP2 MSTORE PUSH1 0xD8 PUSH1 0x20 MSTORE PUSH1 0x40 SWAP1 KECCAK256 SLOAD DUP1 ISZERO DUP1 ISZERO SWAP1 PUSH2 0x368E JUMPI POP PUSH1 0xCD SLOAD PUSH0 DUP3 DUP2 MSTORE PUSH1 0xDA PUSH1 0x20 MSTORE PUSH1 0x40 SWAP1 KECCAK256 PUSH1 0x8 ADD SLOAD LT JUMPDEST ISZERO PUSH2 0xDF2 JUMPI PUSH0 PUSH0 PUSH2 0x36A0 DUP4 PUSH1 0xA PUSH2 0xE82 JUMP JUMPDEST PUSH0 DUP7 DUP2 MSTORE PUSH1 0xDA PUSH1 0x20 MSTORE PUSH1 0x40 DUP2 KECCAK256 PUSH1 0x8 DUP2 ADD SWAP4 SWAP1 SWAP4 SSTORE PUSH1 0x7 SWAP1 SWAP3 ADD DUP1 SLOAD SWAP4 SWAP6 POP SWAP1 SWAP4 POP DUP5 SWAP3 SWAP1 SWAP2 SWAP1 PUSH2 0x36D2 SWAP1 DUP5 SWAP1 PUSH2 0x3F84 JUMP JUMPDEST SWAP1 SWAP2 SSTORE POP POP CALLER PUSH0 SWAP1 DUP2 MSTORE PUSH1 0xD7 PUSH1 0x20 MSTORE PUSH1 0x40 DUP2 KECCAK256 DUP1 SLOAD DUP5 SWAP3 SWAP1 PUSH2 0x36F5 SWAP1 DUP5 SWAP1 PUSH2 0x3F84 JUMP JUMPDEST SWAP1 SWAP2 SSTORE POP POP PUSH0 DUP4 DUP2 MSTORE PUSH1 0xDA PUSH1 0x20 SWAP1 DUP2 MSTORE PUSH1 0x40 DUP1 DUP4 KECCAK256 PUSH1 0x8 DUP2 ADD SLOAD DUP5 MSTORE PUSH1 0xB ADD SWAP1 SWAP2 MSTORE SWAP1 KECCAK256 SSTORE POP POP JUMP JUMPDEST PUSH1 0x33 SLOAD PUSH1 0xFF AND PUSH2 0x28D4 JUMPI PUSH1 0x40 MLOAD PUSH3 0x461BCD PUSH1 0xE5 SHL DUP2 MSTORE PUSH1 0x20 PUSH1 0x4 DUP3 ADD MSTORE PUSH1 0x14 PUSH1 0x24 DUP3 ADD MSTORE PUSH20 0x14185D5CD8589B194E881B9BDD081C185D5CD959 PUSH1 0x62 SHL PUSH1 0x44 DUP3 ADD MSTORE PUSH1 0x64 ADD PUSH2 0xA40 JUMP JUMPDEST PUSH1 0x60 PUSH2 0x8E2 PUSH1 0x1 PUSH1 0x1 PUSH1 0xA0 SHL SUB DUP4 AND PUSH1 0x14 JUMPDEST PUSH1 0x60 PUSH0 PUSH2 0x3787 DUP4 PUSH1 0x2 PUSH2 0x3F6D JUMP JUMPDEST PUSH2 0x3792 SWAP1 PUSH1 0x2 PUSH2 0x3F84 JUMP JUMPDEST PUSH1 0x1 PUSH1 0x1 PUSH1 0x40 SHL SUB DUP2 GT ISZERO PUSH2 0x37A9 JUMPI PUSH2 0x37A9 PUSH2 0x3ABB JUMP JUMPDEST PUSH1 0x40 MLOAD SWAP1 DUP1 DUP3 MSTORE DUP1 PUSH1 0x1F ADD PUSH1 0x1F NOT AND PUSH1 0x20 ADD DUP3 ADD PUSH1 0x40 MSTORE DUP1 ISZERO PUSH2 0x37D3 JUMPI PUSH1 0x20 DUP3 ADD DUP2 DUP1 CALLDATASIZE DUP4 CALLDATACOPY ADD SWAP1 POP JUMPDEST POP SWAP1 POP PUSH1 0x3 PUSH1 0xFC SHL DUP2 PUSH0 DUP2 MLOAD DUP2 LT PUSH2 0x37ED JUMPI PUSH2 0x37ED PUSH2 0x4014 JUMP JUMPDEST PUSH1 0x20 ADD ADD SWAP1 PUSH1 0x1 PUSH1 0x1 PUSH1 0xF8 SHL SUB NOT AND SWAP1 DUP2 PUSH0 BYTE SWAP1 MSTORE8 POP PUSH1 0xF PUSH1 0xFB SHL DUP2 PUSH1 0x1 DUP2 MLOAD DUP2 LT PUSH2 0x381B JUMPI PUSH2 0x381B PUSH2 0x4014 JUMP JUMPDEST PUSH1 0x20 ADD ADD SWAP1 PUSH1 0x1 PUSH1 0x1 PUSH1 0xF8 SHL SUB NOT AND SWAP1 DUP2 PUSH0 BYTE SWAP1 MSTORE8 POP PUSH0 PUSH2 0x383D DUP5 PUSH1 0x2 PUSH2 0x3F6D JUMP JUMPDEST PUSH2 0x3848 SWAP1 PUSH1 0x1 PUSH2 0x3F84 JUMP JUMPDEST SWAP1 POP JUMPDEST PUSH1 0x1 DUP2 GT ISZERO PUSH2 0x38BF JUMPI PUSH16 0x181899199A1A9B1B9C1CB0B131B232B3 PUSH1 0x81 SHL DUP6 PUSH1 0xF AND PUSH1 0x10 DUP2 LT PUSH2 0x387C JUMPI PUSH2 0x387C PUSH2 0x4014 JUMP JUMPDEST BYTE PUSH1 0xF8 SHL DUP3 DUP3 DUP2 MLOAD DUP2 LT PUSH2 0x3892 JUMPI PUSH2 0x3892 PUSH2 0x4014 JUMP JUMPDEST PUSH1 0x20 ADD ADD SWAP1 PUSH1 0x1 PUSH1 0x1 PUSH1 0xF8 SHL SUB NOT AND SWAP1 DUP2 PUSH0 BYTE SWAP1 MSTORE8 POP PUSH1 0x4 SWAP5 SWAP1 SWAP5 SHR SWAP4 PUSH2 0x38B8 DUP2 PUSH2 0x42E7 JUMP JUMPDEST SWAP1 POP PUSH2 0x384B JUMP JUMPDEST POP DUP4 ISZERO PUSH2 0x1F9B JUMPI PUSH1 0x40 MLOAD PUSH3 0x461BCD PUSH1 0xE5 SHL DUP2 MSTORE PUSH1 0x20 PUSH1 0x4 DUP3 ADD DUP2 SWAP1 MSTORE PUSH1 0x24 DUP3 ADD MSTORE PUSH32 0x537472696E67733A20686578206C656E67746820696E73756666696369656E74 PUSH1 0x44 DUP3 ADD MSTORE PUSH1 0x64 ADD PUSH2 0xA40 JUMP JUMPDEST DUP3 DUP1 SLOAD DUP3 DUP3 SSTORE SWAP1 PUSH0 MSTORE PUSH1 0x20 PUSH0 KECCAK256 SWAP1 DUP2 ADD SWAP3 DUP3 ISZERO PUSH2 0x3952 JUMPI SWAP2 PUSH1 0x20 MUL DUP3 ADD JUMPDEST DUP3 DUP2 GT ISZERO PUSH2 0x3952 JUMPI DUP3 MLOAD DUP3 SWAP1 PUSH2 0x3942 SWAP1 DUP3 PUSH2 0x41A7 JUMP JUMPDEST POP SWAP2 PUSH1 0x20 ADD SWAP2 SWAP1 PUSH1 0x1 ADD SWAP1 PUSH2 0x392C JUMP JUMPDEST POP PUSH2 0x395E SWAP3 SWAP2 POP PUSH2 0x3962 JUMP JUMPDEST POP SWAP1 JUMP JUMPDEST DUP1 DUP3 GT ISZERO PUSH2 0x395E JUMPI PUSH0 PUSH2 0x3975 DUP3 DUP3 PUSH2 0x397E JUMP JUMPDEST POP PUSH1 0x1 ADD PUSH2 0x3962 JUMP JUMPDEST POP DUP1 SLOAD PUSH2 0x398A SWAP1 PUSH2 0x404A JUMP JUMPDEST PUSH0 DUP3 SSTORE DUP1 PUSH1 0x1F LT PUSH2 0x3999 JUMPI POP POP JUMP JUMPDEST PUSH1 0x1F ADD PUSH1 0x20 SWAP1 DIV SWAP1 PUSH0 MSTORE PUSH1 0x20 PUSH0 KECCAK256 SWAP1 DUP2 ADD SWAP1 PUSH2 0xDF2 SWAP2 SWAP1 JUMPDEST DUP1 DUP3 GT ISZERO PUSH2 0x395E JUMPI PUSH0 DUP2 SSTORE PUSH1 0x1 ADD PUSH2 0x39B1 JUMP JUMPDEST PUSH0 PUSH1 0x20 DUP3 DUP5 SUB SLT ISZERO PUSH2 0x39D4 JUMPI PUSH0 PUSH0 REVERT JUMPDEST DUP2 CALLDATALOAD PUSH1 0x1 PUSH1 0x1 PUSH1 0xE0 SHL SUB NOT DUP2 AND DUP2 EQ PUSH2 0x1F9B JUMPI PUSH0 PUSH0 REVERT JUMPDEST DUP1 CALLDATALOAD PUSH1 0x1 PUSH1 0x1 PUSH1 0xA0 SHL SUB DUP2 AND DUP2 EQ PUSH2 0x3A01 JUMPI PUSH0 PUSH0 REVERT JUMPDEST SWAP2 SWAP1 POP JUMP JUMPDEST PUSH0 PUSH1 0x20 DUP3 DUP5 SUB SLT ISZERO PUSH2 0x3A16 JUMPI PUSH0 PUSH0 REVERT JUMPDEST PUSH2 0x1F9B DUP3 PUSH2 0x39EB JUMP JUMPDEST PUSH0 PUSH1 0x20 DUP3 DUP5 SUB SLT ISZERO PUSH2 0x3A2F JUMPI PUSH0 PUSH0 REVERT JUMPDEST POP CALLDATALOAD SWAP2 SWAP1 POP JUMP JUMPDEST PUSH0 PUSH0 PUSH1 0x40 DUP4 DUP6 SUB SLT ISZERO PUSH2 0x3A47 JUMPI PUSH0 PUSH0 REVERT JUMPDEST POP POP DUP1 CALLDATALOAD SWAP3 PUSH1 0x20 SWAP1 SWAP2 ADD CALLDATALOAD SWAP2 POP JUMP JUMPDEST PUSH0 PUSH0 PUSH1 0x40 DUP4 DUP6 SUB SLT ISZERO PUSH2 0x3A67 JUMPI PUSH0 PUSH0 REVERT JUMPDEST DUP3 CALLDATALOAD SWAP2 POP PUSH2 0x3A77 PUSH1 0x20 DUP5 ADD PUSH2 0x39EB JUMP JUMPDEST SWAP1 POP SWAP3 POP SWAP3 SWAP1 POP JUMP JUMPDEST DUP1 ISZERO ISZERO DUP2 EQ PUSH2 0xDF2 JUMPI PUSH0 PUSH0 REVERT JUMPDEST PUSH0 PUSH0 PUSH1 0x40 DUP4 DUP6 SUB SLT ISZERO PUSH2 0x3A9E JUMPI PUSH0 PUSH0 REVERT JUMPDEST DUP3 CALLDATALOAD SWAP2 POP PUSH1 0x20 DUP4 ADD CALLDATALOAD PUSH2 0x3AB0 DUP2 PUSH2 0x3A80 JUMP JUMPDEST DUP1 SWAP2 POP POP SWAP3 POP SWAP3 SWAP1 POP JUMP JUMPDEST PUSH4 0x4E487B71 PUSH1 0xE0 SHL PUSH0 MSTORE PUSH1 0x41 PUSH1 0x4 MSTORE PUSH1 0x24 PUSH0 REVERT JUMPDEST PUSH1 0x40 MLOAD PUSH1 0x1F DUP3 ADD PUSH1 0x1F NOT AND DUP2 ADD PUSH1 0x1 PUSH1 0x1 PUSH1 0x40 SHL SUB DUP2 GT DUP3 DUP3 LT OR ISZERO PUSH2 0x3AF7 JUMPI PUSH2 0x3AF7 PUSH2 0x3ABB JUMP JUMPDEST PUSH1 0x40 MSTORE SWAP2 SWAP1 POP JUMP JUMPDEST PUSH0 DUP3 PUSH1 0x1F DUP4 ADD SLT PUSH2 0x3B0E JUMPI PUSH0 PUSH0 REVERT JUMPDEST DUP2 CALLDATALOAD PUSH1 0x1 PUSH1 0x1 PUSH1 0x40 SHL SUB DUP2 GT ISZERO PUSH2 0x3B27 JUMPI PUSH2 0x3B27 PUSH2 0x3ABB JUMP JUMPDEST PUSH2 0x3B3A PUSH1 0x1F DUP3 ADD PUSH1 0x1F NOT AND PUSH1 0x20 ADD PUSH2 0x3ACF JUMP JUMPDEST DUP2 DUP2 MSTORE DUP5 PUSH1 0x20 DUP4 DUP7 ADD ADD GT ISZERO PUSH2 0x3B4E JUMPI PUSH0 PUSH0 REVERT JUMPDEST DUP2 PUSH1 0x20 DUP6 ADD PUSH1 0x20 DUP4 ADD CALLDATACOPY PUSH0 SWAP2 DUP2 ADD PUSH1 0x20 ADD SWAP2 SWAP1 SWAP2 MSTORE SWAP4 SWAP3 POP POP POP JUMP JUMPDEST PUSH0 PUSH0 PUSH1 0x40 DUP4 DUP6 SUB SLT ISZERO PUSH2 0x3B7B JUMPI PUSH0 PUSH0 REVERT JUMPDEST DUP3 CALLDATALOAD PUSH1 0x1 PUSH1 0x1 PUSH1 0x40 SHL SUB DUP2 GT ISZERO PUSH2 0x3B90 JUMPI PUSH0 PUSH0 REVERT JUMPDEST PUSH2 0x3B9C DUP6 DUP3 DUP7 ADD PUSH2 0x3AFF JUMP JUMPDEST SWAP3 POP POP PUSH1 0x20 DUP4 ADD CALLDATALOAD PUSH2 0x3AB0 DUP2 PUSH2 0x3A80 JUMP JUMPDEST PUSH0 PUSH0 PUSH1 0x40 DUP4 DUP6 SUB SLT ISZERO PUSH2 0x3BBE JUMPI PUSH0 PUSH0 REVERT JUMPDEST DUP3 CALLDATALOAD SWAP2 POP PUSH1 0x20 DUP4 ADD CALLDATALOAD PUSH1 0x1 PUSH1 0x1 PUSH1 0x40 SHL SUB DUP2 GT ISZERO PUSH2 0x3BDA JUMPI PUSH0 PUSH0 REVERT JUMPDEST PUSH2 0x3BE6 DUP6 DUP3 DUP7 ADD PUSH2 0x3AFF JUMP JUMPDEST SWAP2 POP POP SWAP3 POP SWAP3 SWAP1 POP JUMP JUMPDEST PUSH0 DUP2 MLOAD DUP1 DUP5 MSTORE DUP1 PUSH1 0x20 DUP5 ADD PUSH1 0x20 DUP7 ADD MCOPY PUSH0 PUSH1 0x20 DUP3 DUP7 ADD ADD MSTORE PUSH1 0x20 PUSH1 0x1F NOT PUSH1 0x1F DUP4 ADD AND DUP6 ADD ADD SWAP2 POP POP SWAP3 SWAP2 POP POP JUMP JUMPDEST PUSH1 0x20 DUP2 MSTORE PUSH0 PUSH2 0x1F9B PUSH1 0x20 DUP4 ADD DUP5 PUSH2 0x3BF0 JUMP JUMPDEST PUSH0 PUSH0 PUSH1 0x40 DUP4 DUP6 SUB SLT ISZERO PUSH2 0x3C41 JUMPI PUSH0 PUSH0 REVERT JUMPDEST PUSH2 0x3C4A DUP4 PUSH2 0x39EB JUMP JUMPDEST SWAP5 PUSH1 0x20 SWAP4 SWAP1 SWAP4 ADD CALLDATALOAD SWAP4 POP POP POP JUMP JUMPDEST PUSH0 PUSH1 0x20 DUP3 DUP5 SUB SLT ISZERO PUSH2 0x3C68 JUMPI PUSH0 PUSH0 REVERT JUMPDEST DUP2 CALLDATALOAD PUSH1 0x1 PUSH1 0x1 PUSH1 0x40 SHL SUB DUP2 GT ISZERO PUSH2 0x3C7D JUMPI PUSH0 PUSH0 REVERT JUMPDEST PUSH2 0x9CA DUP5 DUP3 DUP6 ADD PUSH2 0x3AFF JUMP JUMPDEST PUSH0 PUSH1 0x20 DUP3 DUP5 SUB SLT ISZERO PUSH2 0x3C99 JUMPI PUSH0 PUSH0 REVERT JUMPDEST DUP2 CALLDATALOAD PUSH2 0x1F9B DUP2 PUSH2 0x3A80 JUMP JUMPDEST PUSH2 0x180 DUP2 MSTORE PUSH0 PUSH2 0x3CB8 PUSH2 0x180 DUP4 ADD DUP16 PUSH2 0x3BF0 JUMP JUMPDEST PUSH1 0x20 DUP4 ADD SWAP14 SWAP1 SWAP14 MSTORE POP SWAP10 ISZERO ISZERO PUSH1 0x40 DUP12 ADD MSTORE SWAP8 ISZERO ISZERO PUSH1 0x60 DUP11 ADD MSTORE PUSH1 0x80 DUP10 ADD SWAP7 SWAP1 SWAP7 MSTORE PUSH1 0xA0 DUP9 ADD SWAP5 SWAP1 SWAP5 MSTORE PUSH1 0xC0 DUP8 ADD SWAP3 SWAP1 SWAP3 MSTORE PUSH1 0xE0 DUP7 ADD MSTORE PUSH2 0x100 DUP6 ADD MSTORE PUSH2 0x120 DUP5 ADD MSTORE PUSH2 0x140 DUP4 ADD MSTORE PUSH2 0x160 SWAP1 SWAP2 ADD MSTORE SWAP2 SWAP1 POP JUMP JUMPDEST PUSH0 PUSH1 0x1 PUSH1 0x1 PUSH1 0x40 SHL SUB DUP3 GT ISZERO PUSH2 0x3D24 JUMPI PUSH2 0x3D24 PUSH2 0x3ABB JUMP JUMPDEST POP PUSH1 0x5 SHL PUSH1 0x20 ADD SWAP1 JUMP JUMPDEST PUSH0 DUP3 PUSH1 0x1F DUP4 ADD SLT PUSH2 0x3D3D JUMPI PUSH0 PUSH0 REVERT JUMPDEST DUP2 CALLDATALOAD PUSH2 0x3D50 PUSH2 0x3D4B DUP3 PUSH2 0x3D0C JUMP JUMPDEST PUSH2 0x3ACF JUMP JUMPDEST DUP1 DUP3 DUP3 MSTORE PUSH1 0x20 DUP3 ADD SWAP2 POP PUSH1 0x20 DUP4 PUSH1 0x5 SHL DUP7 ADD ADD SWAP3 POP DUP6 DUP4 GT ISZERO PUSH2 0x3D71 JUMPI PUSH0 PUSH0 REVERT JUMPDEST PUSH1 0x20 DUP6 ADD JUMPDEST DUP4 DUP2 LT ISZERO PUSH2 0x3DB1 JUMPI DUP1 CALLDATALOAD PUSH1 0x1 PUSH1 0x1 PUSH1 0x40 SHL SUB DUP2 GT ISZERO PUSH2 0x3D93 JUMPI PUSH0 PUSH0 REVERT JUMPDEST PUSH2 0x3DA2 DUP9 PUSH1 0x20 DUP4 DUP11 ADD ADD PUSH2 0x3AFF JUMP JUMPDEST DUP5 MSTORE POP PUSH1 0x20 SWAP3 DUP4 ADD SWAP3 ADD PUSH2 0x3D76 JUMP JUMPDEST POP SWAP6 SWAP5 POP POP POP POP POP JUMP JUMPDEST PUSH0 DUP3 PUSH1 0x1F DUP4 ADD SLT PUSH2 0x3DCA JUMPI PUSH0 PUSH0 REVERT JUMPDEST DUP2 CALLDATALOAD PUSH2 0x3DD8 PUSH2 0x3D4B DUP3 PUSH2 0x3D0C JUMP JUMPDEST DUP1 DUP3 DUP3 MSTORE PUSH1 0x20 DUP3 ADD SWAP2 POP PUSH1 0x20 DUP4 PUSH1 0x5 SHL DUP7 ADD ADD SWAP3 POP DUP6 DUP4 GT ISZERO PUSH2 0x3DF9 JUMPI PUSH0 PUSH0 REVERT JUMPDEST PUSH1 0x20 DUP6 ADD JUMPDEST DUP4 DUP2 LT ISZERO PUSH2 0x3DB1 JUMPI DUP1 CALLDATALOAD DUP4 MSTORE PUSH1 0x20 SWAP3 DUP4 ADD SWAP3 ADD PUSH2 0x3DFE JUMP JUMPDEST PUSH0 PUSH0 PUSH0 PUSH0 PUSH0 PUSH0 PUSH0 PUSH0 PUSH0 PUSH2 0x120 DUP11 DUP13 SUB SLT ISZERO PUSH2 0x3E2F JUMPI PUSH0 PUSH0 REVERT JUMPDEST PUSH2 0x3E38 DUP11 PUSH2 0x39EB JUMP JUMPDEST SWAP9 POP PUSH2 0x3E46 PUSH1 0x20 DUP12 ADD PUSH2 0x39EB JUMP JUMPDEST SWAP8 POP PUSH1 0x40 DUP11 ADD CALLDATALOAD SWAP7 POP PUSH1 0x60 DUP11 ADD CALLDATALOAD SWAP6 POP PUSH1 0x80 DUP11 ADD CALLDATALOAD PUSH1 0x1 PUSH1 0x1 PUSH1 0x40 SHL SUB DUP2 GT ISZERO PUSH2 0x3E6E JUMPI PUSH0 PUSH0 REVERT JUMPDEST PUSH2 0x3E7A DUP13 DUP3 DUP14 ADD PUSH2 0x3D2E JUMP JUMPDEST SWAP6 POP POP PUSH1 0xA0 DUP11 ADD CALLDATALOAD PUSH1 0x1 PUSH1 0x1 PUSH1 0x40 SHL SUB DUP2 GT ISZERO PUSH2 0x3E95 JUMPI PUSH0 PUSH0 REVERT JUMPDEST PUSH2 0x3EA1 DUP13 DUP3 DUP14 ADD PUSH2 0x3DBB JUMP JUMPDEST SWAP5 POP POP PUSH1 0xC0 DUP11 ADD CALLDATALOAD PUSH1 0x1 PUSH1 0x1 PUSH1 0x40 SHL SUB DUP2 GT ISZERO PUSH2 0x3EBC JUMPI PUSH0 PUSH0 REVERT JUMPDEST PUSH2 0x3EC8 DUP13 DUP3 DUP14 ADD PUSH2 0x3DBB JUMP JUMPDEST SWAP4 POP POP PUSH1 0xE0 DUP11 ADD CALLDATALOAD PUSH1 0x1 PUSH1 0x1 PUSH1 0x40 SHL SUB DUP2 GT ISZERO PUSH2 0x3EE3 JUMPI PUSH0 PUSH0 REVERT JUMPDEST PUSH2 0x3EEF DUP13 DUP3 DUP14 ADD PUSH2 0x3DBB JUMP JUMPDEST SWAP3 POP POP PUSH2 0x100 DUP11 ADD CALLDATALOAD PUSH1 0x1 PUSH1 0x1 PUSH1 0x40 SHL SUB DUP2 GT ISZERO PUSH2 0x3F0B JUMPI PUSH0 PUSH0 REVERT JUMPDEST PUSH2 0x3F17 DUP13 DUP3 DUP14 ADD PUSH2 0x3DBB JUMP JUMPDEST SWAP2 POP POP SWAP3 SWAP6 SWAP9 POP SWAP3 SWAP6 SWAP9 POP SWAP3 SWAP6 SWAP9 JUMP JUMPDEST PUSH4 0x4E487B71 PUSH1 0xE0 SHL PUSH0 MSTORE PUSH1 0x11 PUSH1 0x4 MSTORE PUSH1 0x24 PUSH0 REVERT JUMPDEST DUP2 DUP2 SUB DUP2 DUP2 GT ISZERO PUSH2 0x8E2 JUMPI PUSH2 0x8E2 PUSH2 0x3F27 JUMP JUMPDEST PUSH0 DUP3 PUSH2 0x3F68 JUMPI PUSH4 0x4E487B71 PUSH1 0xE0 SHL PUSH0 MSTORE PUSH1 0x12 PUSH1 0x4 MSTORE PUSH1 0x24 PUSH0 REVERT JUMPDEST POP DIV SWAP1 JUMP JUMPDEST DUP1 DUP3 MUL DUP2 ISZERO DUP3 DUP3 DIV DUP5 EQ OR PUSH2 0x8E2 JUMPI PUSH2 0x8E2 PUSH2 0x3F27 JUMP JUMPDEST DUP1 DUP3 ADD DUP1 DUP3 GT ISZERO PUSH2 0x8E2 JUMPI PUSH2 0x8E2 PUSH2 0x3F27 JUMP JUMPDEST PUSH0 PUSH1 0x20 DUP3 DUP5 SUB SLT ISZERO PUSH2 0x3FA7 JUMPI PUSH0 PUSH0 REVERT JUMPDEST DUP2 MLOAD PUSH2 0x1F9B DUP2 PUSH2 0x3A80 JUMP JUMPDEST PUSH0 PUSH1 0x1 DUP3 ADD PUSH2 0x3FC3 JUMPI PUSH2 0x3FC3 PUSH2 0x3F27 JUMP JUMPDEST POP PUSH1 0x1 ADD SWAP1 JUMP JUMPDEST PUSH1 0x20 DUP1 DUP3 MSTORE PUSH1 0x2A SWAP1 DUP3 ADD MSTORE PUSH32 0x4E6F2061637469766520666F7265766572206C6F636B2065786973747320666F PUSH1 0x40 DUP3 ADD MSTORE PUSH10 0x39103A3432903AB9B2B9 PUSH1 0xB1 SHL PUSH1 0x60 DUP3 ADD MSTORE PUSH1 0x80 ADD SWAP1 JUMP JUMPDEST PUSH4 0x4E487B71 PUSH1 0xE0 SHL PUSH0 MSTORE PUSH1 0x32 PUSH1 0x4 MSTORE PUSH1 0x24 PUSH0 REVERT JUMPDEST PUSH0 DUP2 MLOAD DUP1 PUSH1 0x20 DUP5 ADD DUP6 MCOPY PUSH0 SWAP4 ADD SWAP3 DUP4 MSTORE POP SWAP1 SWAP2 SWAP1 POP JUMP JUMPDEST PUSH0 PUSH2 0x1F9B DUP3 DUP5 PUSH2 0x4028 JUMP JUMPDEST PUSH1 0x1 DUP2 DUP2 SHR SWAP1 DUP3 AND DUP1 PUSH2 0x405E JUMPI PUSH1 0x7F DUP3 AND SWAP2 POP JUMPDEST PUSH1 0x20 DUP3 LT DUP2 SUB PUSH2 0x2060 JUMPI PUSH4 0x4E487B71 PUSH1 0xE0 SHL PUSH0 MSTORE PUSH1 0x22 PUSH1 0x4 MSTORE PUSH1 0x24 PUSH0 REVERT JUMPDEST PUSH0 PUSH0 DUP4 SLOAD PUSH2 0x4089 DUP2 PUSH2 0x404A JUMP JUMPDEST PUSH1 0x1 DUP3 AND DUP1 ISZERO PUSH2 0x40A0 JUMPI PUSH1 0x1 DUP2 EQ PUSH2 0x40B5 JUMPI PUSH2 0x40E2 JUMP JUMPDEST PUSH1 0xFF NOT DUP4 AND DUP7 MSTORE DUP2 ISZERO ISZERO DUP3 MUL DUP7 ADD SWAP4 POP PUSH2 0x40E2 JUMP JUMPDEST DUP7 PUSH0 MSTORE PUSH1 0x20 PUSH0 KECCAK256 PUSH0 JUMPDEST DUP4 DUP2 LT ISZERO PUSH2 0x40DA JUMPI DUP2 SLOAD DUP9 DUP3 ADD MSTORE PUSH1 0x1 SWAP1 SWAP2 ADD SWAP1 PUSH1 0x20 ADD PUSH2 0x40BE JUMP JUMPDEST POP POP DUP2 DUP7 ADD SWAP4 POP JUMPDEST POP SWAP2 SWAP6 SWAP5 POP POP POP POP POP JUMP JUMPDEST PUSH0 PUSH1 0x20 DUP3 DUP5 SUB SLT ISZERO PUSH2 0x40FD JUMPI PUSH0 PUSH0 REVERT JUMPDEST POP MLOAD SWAP2 SWAP1 POP JUMP JUMPDEST PUSH4 0x4E487B71 PUSH1 0xE0 SHL PUSH0 MSTORE PUSH1 0x31 PUSH1 0x4 MSTORE PUSH1 0x24 PUSH0 REVERT JUMPDEST PUSH1 0x20 DUP1 DUP3 MSTORE PUSH1 0x24 SWAP1 DUP3 ADD MSTORE PUSH32 0x416D6F756E742069732062656C6F7720746865206D696E696D756D2072657175 PUSH1 0x40 DUP3 ADD MSTORE PUSH4 0x1A5C9959 PUSH1 0xE2 SHL PUSH1 0x60 DUP3 ADD MSTORE PUSH1 0x80 ADD SWAP1 JUMP JUMPDEST PUSH1 0x1F DUP3 GT ISZERO PUSH2 0xC93 JUMPI DUP1 PUSH0 MSTORE PUSH1 0x20 PUSH0 KECCAK256 PUSH1 0x1F DUP5 ADD PUSH1 0x5 SHR DUP2 ADD PUSH1 0x20 DUP6 LT ISZERO PUSH2 0x4181 JUMPI POP DUP1 JUMPDEST PUSH1 0x1F DUP5 ADD PUSH1 0x5 SHR DUP3 ADD SWAP2 POP JUMPDEST DUP2 DUP2 LT ISZERO PUSH2 0x41A0 JUMPI PUSH0 DUP2 SSTORE PUSH1 0x1 ADD PUSH2 0x418D JUMP JUMPDEST POP POP POP POP POP JUMP JUMPDEST DUP2 MLOAD PUSH1 0x1 PUSH1 0x1 PUSH1 0x40 SHL SUB DUP2 GT ISZERO PUSH2 0x41C0 JUMPI PUSH2 0x41C0 PUSH2 0x3ABB JUMP JUMPDEST PUSH2 0x41D4 DUP2 PUSH2 0x41CE DUP5 SLOAD PUSH2 0x404A JUMP JUMPDEST DUP5 PUSH2 0x415C JUMP JUMPDEST PUSH1 0x20 PUSH1 0x1F DUP3 GT PUSH1 0x1 DUP2 EQ PUSH2 0x4206 JUMPI PUSH0 DUP4 ISZERO PUSH2 0x41EF JUMPI POP DUP5 DUP3 ADD MLOAD JUMPDEST PUSH0 NOT PUSH1 0x3 DUP6 SWAP1 SHL SHR NOT AND PUSH1 0x1 DUP5 SWAP1 SHL OR DUP5 SSTORE PUSH2 0x41A0 JUMP JUMPDEST PUSH0 DUP5 DUP2 MSTORE PUSH1 0x20 DUP2 KECCAK256 PUSH1 0x1F NOT DUP6 AND SWAP2 JUMPDEST DUP3 DUP2 LT ISZERO PUSH2 0x4235 JUMPI DUP8 DUP6 ADD MLOAD DUP3 SSTORE PUSH1 0x20 SWAP5 DUP6 ADD SWAP5 PUSH1 0x1 SWAP1 SWAP3 ADD SWAP2 ADD PUSH2 0x4215 JUMP JUMPDEST POP DUP5 DUP3 LT ISZERO PUSH2 0x4252 JUMPI DUP7 DUP5 ADD MLOAD PUSH0 NOT PUSH1 0x3 DUP8 SWAP1 SHL PUSH1 0xF8 AND SHR NOT AND DUP2 SSTORE JUMPDEST POP POP POP POP PUSH1 0x1 SWAP1 DUP2 SHL ADD SWAP1 SSTORE POP JUMP JUMPDEST DUP4 DUP2 MSTORE PUSH1 0x60 PUSH1 0x20 DUP3 ADD MSTORE PUSH0 PUSH2 0x4279 PUSH1 0x60 DUP4 ADD DUP6 PUSH2 0x3BF0 JUMP JUMPDEST SWAP1 POP DUP3 PUSH1 0x40 DUP4 ADD MSTORE SWAP5 SWAP4 POP POP POP POP JUMP JUMPDEST PUSH32 0x416363657373436F6E74726F6C3A206163636F756E7420000000000000000000 DUP2 MSTORE PUSH0 PUSH2 0x42BA PUSH1 0x17 DUP4 ADD DUP6 PUSH2 0x4028 JUMP JUMPDEST PUSH17 0x1034B99036B4B9B9B4B733903937B6329 PUSH1 0x7D SHL DUP2 MSTORE PUSH2 0x42DE PUSH1 0x11 DUP3 ADD DUP6 PUSH2 0x4028 JUMP JUMPDEST SWAP6 SWAP5 POP POP POP POP POP JUMP JUMPDEST PUSH0 DUP2 PUSH2 0x42F5 JUMPI PUSH2 0x42F5 PUSH2 0x3F27 JUMP JUMPDEST POP PUSH0 NOT ADD SWAP1 JUMP INVALID PUSH6 0xD7A28E3265B3 PUSH27 0x6474929F336521B332C1681B933F6CB9F3376673440D862AA49807 KECCAK256 TLOAD RETF 0xD3 SSTORE MULMOD 0x2E CREATE2 0xA8 LOG1 DUP16 JUMP 0xE8 SWAP2 EXTCODECOPY DELEGATECALL LOG2 ADD EXTSTATICCALL 0xE2 DUP8 DUP3 JUMPDEST MULMOD JUMP SWAP4 0xC2 OR PUSH22 0xA2646970667358221220D319D92C7D4D34128B901FF0 0xDC 0x28 0xAC 0xED NOT PUSH17 0xF825FC66330E48F973F9A83C867364736F PUSH13 0x634300081E0033000000000000 "
		},
		"gasEstimates": {
			"creation": {
				"codeDepositCost": "3453200",
				"executionCost": "3858",
				"totalCost": "3457058"
			},
			"external": {
				"ADMIN_ROLE()": "infinite",
				"ALVA()": "2426",
				"DEFAULT_ADMIN_ROLE()": "283",
				"PAUSER_ROLE()": "infinite",
				"PERCENTAGE_FACTOR()": "327",
				"Pools(uint256)": "infinite",
				"RATIO_FACTOR()": "305",
				"REWARDS_ALLOCATOR_ROLE()": "284",
				"REWARD_PERIOD()": "308",
				"accountToForeverId(address)": "2583",
				"accountToIdFinalized(address)": "2584",
				"accountToLockIds(address,uint256)": "4802",
				"accountTocalculatedRewards(address)": "2628",
				"claimRewards()": "infinite",
				"compoundRewards(bool)": "infinite",
				"countRewards(uint256,uint256)": "infinite",
				"currentIdLock()": "2362",
				"currentIdRewards()": "2404",
				"decayInterval()": "2427",
				"getActiveTimeBaseLock(address)": "infinite",
				"getIncrementedAmount(uint256,uint256)": "2673",
				"getPoolDataByRewardId(uint256,string)": "infinite",
				"getRewardsPending(address)": "infinite",
				"getRoleAdmin(bytes32)": "2554",
				"getTotalLocks(address)": "4864",
				"getveAlvaAmount(uint256,string)": "infinite",
				"grantRole(bytes32,address)": "infinite",
				"hasRole(bytes32,address)": "2784",
				"increaseAmount(uint256,bool)": "infinite",
				"initialize(address,address,uint256,uint256,string[],uint256[],uint256[],uint256[],uint256[])": "infinite",
				"lockIdToLockData(uint256)": "infinite",
				"minimumRewardAmount()": "2361",
				"minimumStakingAmount()": "2361",
				"pause()": "infinite",
				"paused()": "2382",
				"poolToPoolData(string)": "infinite",
				"renewStaking(uint256,string)": "infinite",
				"renounceRole(bytes32,address)": "29108",
				"revokeRole(bytes32,address)": "infinite",
				"rewardEligibleLocks(address,uint256)": "4804",
				"rewardIdToRewardData(uint256)": "6838",
				"rewardPeriodCount()": "2542",
				"stake(uint256,string)": "infinite",
				"startTime()": "2385",
				"supportsInterface(bytes4)": "493",
				"topUpRewards()": "infinite",
				"unallocatedRewards()": "2363",
				"unpause()": "infinite",
				"unstake()": "infinite",
				"updateDecayInterval(uint256)": "infinite",
				"updateMinStakingAmount(uint256)": "infinite",
				"updateMinimumRewardAmount(uint256)": "infinite",
				"updatePoolStatus(string,bool)": "infinite",
				"updateWithdrawalPercentage(uint256)": "infinite",
				"vaultWithdrawalPercentage()": "2427",
				"veALVA()": "2405",
				"veAlvaBalance(address)": "11472"
			},
			"internal": {
				"_calculateRewards(uint256,uint256,uint256)": "infinite",
				"_claimRewards()": "infinite",
				"_finalizeForeverLockRewards()": "infinite",
				"_finalizeTimeBaseRewards(uint256)": "infinite",
				"_increaseAmount(uint256,uint256)": "infinite",
				"_stake(uint256,uint256,uint256,string memory,uint256)": "infinite"
			}
		},
		"methodIdentifiers": {
			"ADMIN_ROLE()": "75b238fc",
			"ALVA()": "323bf9f0",
			"DEFAULT_ADMIN_ROLE()": "a217fddf",
			"PAUSER_ROLE()": "e63ab1e9",
			"PERCENTAGE_FACTOR()": "ee01e5e7",
			"Pools(uint256)": "73dfccca",
			"RATIO_FACTOR()": "d8bbd46c",
			"REWARDS_ALLOCATOR_ROLE()": "58a13b3a",
			"REWARD_PERIOD()": "0a171df8",
			"accountToForeverId(address)": "66ff9f80",
			"accountToIdFinalized(address)": "2f57c174",
			"accountToLockIds(address,uint256)": "eee7f41c",
			"accountTocalculatedRewards(address)": "8b2d0ccf",
			"claimRewards()": "372500ab",
			"compoundRewards(bool)": "c86a0d16",
			"countRewards(uint256,uint256)": "45434445",
			"currentIdLock()": "a0b80db4",
			"currentIdRewards()": "f9f16788",
			"decayInterval()": "b6334aee",
			"getActiveTimeBaseLock(address)": "b44c4fef",
			"getIncrementedAmount(uint256,uint256)": "27c1a812",
			"getPoolDataByRewardId(uint256,string)": "744f90a7",
			"getRewardsPending(address)": "5ab2d62f",
			"getRoleAdmin(bytes32)": "248a9ca3",
			"getTotalLocks(address)": "5bae5e54",
			"getveAlvaAmount(uint256,string)": "b397e572",
			"grantRole(bytes32,address)": "2f2ff15d",
			"hasRole(bytes32,address)": "91d14854",
			"increaseAmount(uint256,bool)": "507f1305",
			"initialize(address,address,uint256,uint256,string[],uint256[],uint256[],uint256[],uint256[])": "fff9e917",
			"lockIdToLockData(uint256)": "efb81031",
			"minimumRewardAmount()": "e27c8ad5",
			"minimumStakingAmount()": "b0d2d011",
			"pause()": "8456cb59",
			"paused()": "5c975abb",
			"poolToPoolData(string)": "c142d988",
			"renewStaking(uint256,string)": "720b3ad3",
			"renounceRole(bytes32,address)": "36568abe",
			"revokeRole(bytes32,address)": "d547741f",
			"rewardEligibleLocks(address,uint256)": "7f53243b",
			"rewardIdToRewardData(uint256)": "7c83e6c8",
			"rewardPeriodCount()": "c38474c0",
			"stake(uint256,string)": "e7e4e1f7",
			"startTime()": "78e97925",
			"supportsInterface(bytes4)": "01ffc9a7",
			"topUpRewards()": "5d1dccb1",
			"unallocatedRewards()": "2b6fdc7e",
			"unpause()": "3f4ba83a",
			"unstake()": "2def6620",
			"updateDecayInterval(uint256)": "43cdab57",
			"updateMinStakingAmount(uint256)": "1bd067c5",
			"updateMinimumRewardAmount(uint256)": "d3f52d00",
			"updatePoolStatus(string,bool)": "5c5c0d60",
			"updateWithdrawalPercentage(uint256)": "abd8a033",
			"vaultWithdrawalPercentage()": "df3100d4",
			"veALVA()": "1698fe76",
			"veAlvaBalance(address)": "02e4923c"
		}
	},
	"abi": [
		{
			"inputs": [],
			"stateMutability": "nonpayable",
			"type": "constructor"
		},
		{
			"anonymous": false,
			"inputs": [
				{
					"indexed": true,
					"internalType": "uint256",
					"name": "lockId",
					"type": "uint256"
				},
				{
					"indexed": false,
					"internalType": "uint256",
					"name": "amount",
					"type": "uint256"
				},
				{
					"indexed": false,
					"internalType": "uint256",
					"name": "rewardAmount",
					"type": "uint256"
				},
				{
					"indexed": false,
					"internalType": "uint256",
					"name": "veAlva",
					"type": "uint256"
				}
			],
			"name": "Compounded",
			"type": "event"
		},
		{
			"anonymous": false,
			"inputs": [
				{
					"indexed": false,
					"internalType": "uint8",
					"name": "version",
					"type": "uint8"
				}
			],
			"name": "Initialized",
			"type": "event"
		},
		{
			"anonymous": false,
			"inputs": [
				{
					"indexed": true,
					"internalType": "uint256",
					"name": "previousLockId",
					"type": "uint256"
				},
				{
					"indexed": true,
					"internalType": "uint256",
					"name": "newLockId",
					"type": "uint256"
				}
			],
			"name": "LockRenewed",
			"type": "event"
		},
		{
			"anonymous": false,
			"inputs": [
				{
					"indexed": false,
					"internalType": "address",
					"name": "account",
					"type": "address"
				}
			],
			"name": "Paused",
			"type": "event"
		},
		{
			"anonymous": false,
			"inputs": [
				{
					"indexed": true,
					"internalType": "uint256",
					"name": "rewardId",
					"type": "uint256"
				},
				{
					"indexed": false,
					"internalType": "uint256",
					"name": "amount",
					"type": "uint256"
				}
			],
			"name": "RewardsAdded",
			"type": "event"
		},
		{
			"anonymous": false,
			"inputs": [
				{
					"indexed": true,
					"internalType": "address",
					"name": "account",
					"type": "address"
				},
				{
					"indexed": false,
					"internalType": "uint256",
					"name": "rewardAmount",
					"type": "uint256"
				}
			],
			"name": "RewardsClaimed",
			"type": "event"
		},
		{
			"anonymous": false,
			"inputs": [
				{
					"indexed": true,
					"internalType": "bytes32",
					"name": "role",
					"type": "bytes32"
				},
				{
					"indexed": true,
					"internalType": "bytes32",
					"name": "previousAdminRole",
					"type": "bytes32"
				},
				{
					"indexed": true,
					"internalType": "bytes32",
					"name": "newAdminRole",
					"type": "bytes32"
				}
			],
			"name": "RoleAdminChanged",
			"type": "event"
		},
		{
			"anonymous": false,
			"inputs": [
				{
					"indexed": true,
					"internalType": "bytes32",
					"name": "role",
					"type": "bytes32"
				},
				{
					"indexed": true,
					"internalType": "address",
					"name": "account",
					"type": "address"
				},
				{
					"indexed": true,
					"internalType": "address",
					"name": "sender",
					"type": "address"
				}
			],
			"name": "RoleGranted",
			"type": "event"
		},
		{
			"anonymous": false,
			"inputs": [
				{
					"indexed": true,
					"internalType": "bytes32",
					"name": "role",
					"type": "bytes32"
				},
				{
					"indexed": true,
					"internalType": "address",
					"name": "account",
					"type": "address"
				},
				{
					"indexed": true,
					"internalType": "address",
					"name": "sender",
					"type": "address"
				}
			],
			"name": "RoleRevoked",
			"type": "event"
		},
		{
			"anonymous": false,
			"inputs": [
				{
					"indexed": true,
					"internalType": "uint256",
					"name": "lockId",
					"type": "uint256"
				},
				{
					"indexed": false,
					"internalType": "uint256",
					"name": "amount",
					"type": "uint256"
				},
				{
					"indexed": false,
					"internalType": "uint256",
					"name": "veAlva",
					"type": "uint256"
				}
			],
			"name": "StakedAmountIncreased",
			"type": "event"
		},
		{
			"anonymous": false,
			"inputs": [
				{
					"indexed": true,
					"internalType": "uint256",
					"name": "lockId",
					"type": "uint256"
				},
				{
					"indexed": true,
					"internalType": "address",
					"name": "account",
					"type": "address"
				},
				{
					"indexed": false,
					"internalType": "uint256",
					"name": "amount",
					"type": "uint256"
				},
				{
					"indexed": false,
					"internalType": "string",
					"name": "pool",
					"type": "string"
				},
				{
					"indexed": false,
					"internalType": "uint256",
					"name": "veAlva",
					"type": "uint256"
				}
			],
			"name": "TokensStaked",
			"type": "event"
		},
		{
			"anonymous": false,
			"inputs": [
				{
					"indexed": false,
					"internalType": "address",
					"name": "account",
					"type": "address"
				}
			],
			"name": "Unpaused",
			"type": "event"
		},
		{
			"anonymous": false,
			"inputs": [
				{
					"indexed": true,
					"internalType": "address",
					"name": "account",
					"type": "address"
				},
				{
					"indexed": true,
					"internalType": "uint256",
					"name": "lockId",
					"type": "uint256"
				},
				{
					"indexed": false,
					"internalType": "uint256",
					"name": "endTime",
					"type": "uint256"
				}
			],
			"name": "Withdrawn",
			"type": "event"
		},
		{
			"inputs": [],
			"name": "ADMIN_ROLE",
			"outputs": [
				{
					"internalType": "bytes32",
					"name": "",
					"type": "bytes32"
				}
			],
			"stateMutability": "view",
			"type": "function"
		},
		{
			"inputs": [],
			"name": "ALVA",
			"outputs": [
				{
					"internalType": "contract IERC20",
					"name": "",
					"type": "address"
				}
			],
			"stateMutability": "view",
			"type": "function"
		},
		{
			"inputs": [],
			"name": "DEFAULT_ADMIN_ROLE",
			"outputs": [
				{
					"internalType": "bytes32",
					"name": "",
					"type": "bytes32"
				}
			],
			"stateMutability": "view",
			"type": "function"
		},
		{
			"inputs": [],
			"name": "PAUSER_ROLE",
			"outputs": [
				{
					"internalType": "bytes32",
					"name": "",
					"type": "bytes32"
				}
			],
			"stateMutability": "view",
			"type": "function"
		},
		{
			"inputs": [],
			"name": "PERCENTAGE_FACTOR",
			"outputs": [
				{
					"internalType": "uint256",
					"name": "",
					"type": "uint256"
				}
			],
			"stateMutability": "view",
			"type": "function"
		},
		{
			"inputs": [
				{
					"internalType": "uint256",
					"name": "",
					"type": "uint256"
				}
			],
			"name": "Pools",
			"outputs": [
				{
					"internalType": "string",
					"name": "",
					"type": "string"
				}
			],
			"stateMutability": "view",
			"type": "function"
		},
		{
			"inputs": [],
			"name": "RATIO_FACTOR",
			"outputs": [
				{
					"internalType": "uint256",
					"name": "",
					"type": "uint256"
				}
			],
			"stateMutability": "view",
			"type": "function"
		},
		{
			"inputs": [],
			"name": "REWARDS_ALLOCATOR_ROLE",
			"outputs": [
				{
					"internalType": "bytes32",
					"name": "",
					"type": "bytes32"
				}
			],
			"stateMutability": "view",
			"type": "function"
		},
		{
			"inputs": [],
			"name": "REWARD_PERIOD",
			"outputs": [
				{
					"internalType": "uint256",
					"name": "",
					"type": "uint256"
				}
			],
			"stateMutability": "view",
			"type": "function"
		},
		{
			"inputs": [
				{
					"internalType": "address",
					"name": "",
					"type": "address"
				}
			],
			"name": "accountToForeverId",
			"outputs": [
				{
					"internalType": "uint256",
					"name": "",
					"type": "uint256"
				}
			],
			"stateMutability": "view",
			"type": "function"
		},
		{
			"inputs": [
				{
					"internalType": "address",
					"name": "",
					"type": "address"
				}
			],
			"name": "accountToIdFinalized",
			"outputs": [
				{
					"internalType": "uint256",
					"name": "",
					"type": "uint256"
				}
			],
			"stateMutability": "view",
			"type": "function"
		},
		{
			"inputs": [
				{
					"internalType": "address",
					"name": "",
					"type": "address"
				},
				{
					"internalType": "uint256",
					"name": "",
					"type": "uint256"
				}
			],
			"name": "accountToLockIds",
			"outputs": [
				{
					"internalType": "uint256",
					"name": "",
					"type": "uint256"
				}
			],
			"stateMutability": "view",
			"type": "function"
		},
		{
			"inputs": [
				{
					"internalType": "address",
					"name": "",
					"type": "address"
				}
			],
			"name": "accountTocalculatedRewards",
			"outputs": [
				{
					"internalType": "uint256",
					"name": "",
					"type": "uint256"
				}
			],
			"stateMutability": "view",
			"type": "function"
		},
		{
			"inputs": [],
			"name": "claimRewards",
			"outputs": [],
			"stateMutability": "nonpayable",
			"type": "function"
		},
		{
			"inputs": [
				{
					"internalType": "bool",
					"name": "isForever",
					"type": "bool"
				}
			],
			"name": "compoundRewards",
			"outputs": [],
			"stateMutability": "nonpayable",
			"type": "function"
		},
		{
			"inputs": [
				{
					"internalType": "uint256",
					"name": "lockId",
					"type": "uint256"
				},
				{
					"internalType": "uint256",
					"name": "batchSize",
					"type": "uint256"
				}
			],
			"name": "countRewards",
			"outputs": [
				{
					"internalType": "uint256",
					"name": "pendingCurrent",
					"type": "uint256"
				},
				{
					"internalType": "uint256",
					"name": "openingRewardId",
					"type": "uint256"
				},
				{
					"internalType": "uint256",
					"name": "incrementedAmount",
					"type": "uint256"
				}
			],
			"stateMutability": "view",
			"type": "function"
		},
		{
			"inputs": [],
			"name": "currentIdLock",
			"outputs": [
				{
					"internalType": "uint256",
					"name": "",
					"type": "uint256"
				}
			],
			"stateMutability": "view",
			"type": "function"
		},
		{
			"inputs": [],
			"name": "currentIdRewards",
			"outputs": [
				{
					"internalType": "uint256",
					"name": "",
					"type": "uint256"
				}
			],
			"stateMutability": "view",
			"type": "function"
		},
		{
			"inputs": [],
			"name": "decayInterval",
			"outputs": [
				{
					"internalType": "uint256",
					"name": "",
					"type": "uint256"
				}
			],
			"stateMutability": "view",
			"type": "function"
		},
		{
			"inputs": [
				{
					"internalType": "address",
					"name": "account",
					"type": "address"
				}
			],
			"name": "getActiveTimeBaseLock",
			"outputs": [
				{
					"internalType": "uint256",
					"name": "timebaseId",
					"type": "uint256"
				}
			],
			"stateMutability": "view",
			"type": "function"
		},
		{
			"inputs": [
				{
					"internalType": "uint256",
					"name": "lockId",
					"type": "uint256"
				},
				{
					"internalType": "uint256",
					"name": "rewardId",
					"type": "uint256"
				}
			],
			"name": "getIncrementedAmount",
			"outputs": [
				{
					"internalType": "uint256",
					"name": "amount",
					"type": "uint256"
				}
			],
			"stateMutability": "view",
			"type": "function"
		},
		{
			"inputs": [
				{
					"internalType": "uint256",
					"name": "rewardId",
					"type": "uint256"
				},
				{
					"internalType": "string",
					"name": "pool",
					"type": "string"
				}
			],
			"name": "getPoolDataByRewardId",
			"outputs": [
				{
					"internalType": "uint256",
					"name": "",
					"type": "uint256"
				},
				{
					"internalType": "uint256",
					"name": "",
					"type": "uint256"
				},
				{
					"internalType": "uint256",
					"name": "",
					"type": "uint256"
				}
			],
			"stateMutability": "view",
			"type": "function"
		},
		{
			"inputs": [
				{
					"internalType": "address",
					"name": "account",
					"type": "address"
				}
			],
			"name": "getRewardsPending",
			"outputs": [
				{
					"internalType": "uint256",
					"name": "totalReward",
					"type": "uint256"
				}
			],
			"stateMutability": "view",
			"type": "function"
		},
		{
			"inputs": [
				{
					"internalType": "bytes32",
					"name": "role",
					"type": "bytes32"
				}
			],
			"name": "getRoleAdmin",
			"outputs": [
				{
					"internalType": "bytes32",
					"name": "",
					"type": "bytes32"
				}
			],
			"stateMutability": "view",
			"type": "function"
		},
		{
			"inputs": [
				{
					"internalType": "address",
					"name": "account",
					"type": "address"
				}
			],
			"name": "getTotalLocks",
			"outputs": [
				{
					"internalType": "uint256",
					"name": "userLocksTotal",
					"type": "uint256"
				},
				{
					"internalType": "uint256",
					"name": "userRewardEligibleLocks",
					"type": "uint256"
				}
			],
			"stateMutability": "view",
			"type": "function"
		},
		{
			"inputs": [
				{
					"internalType": "uint256",
					"name": "amount",
					"type": "uint256"
				},
				{
					"internalType": "string",
					"name": "pool",
					"type": "string"
				}
			],
			"name": "getveAlvaAmount",
			"outputs": [
				{
					"internalType": "uint256",
					"name": "",
					"type": "uint256"
				}
			],
			"stateMutability": "view",
			"type": "function"
		},
		{
			"inputs": [
				{
					"internalType": "bytes32",
					"name": "role",
					"type": "bytes32"
				},
				{
					"internalType": "address",
					"name": "account",
					"type": "address"
				}
			],
			"name": "grantRole",
			"outputs": [],
			"stateMutability": "nonpayable",
			"type": "function"
		},
		{
			"inputs": [
				{
					"internalType": "bytes32",
					"name": "role",
					"type": "bytes32"
				},
				{
					"internalType": "address",
					"name": "account",
					"type": "address"
				}
			],
			"name": "hasRole",
			"outputs": [
				{
					"internalType": "bool",
					"name": "",
					"type": "bool"
				}
			],
			"stateMutability": "view",
			"type": "function"
		},
		{
			"inputs": [
				{
					"internalType": "uint256",
					"name": "amount",
					"type": "uint256"
				},
				{
					"internalType": "bool",
					"name": "isForever",
					"type": "bool"
				}
			],
			"name": "increaseAmount",
			"outputs": [],
			"stateMutability": "nonpayable",
			"type": "function"
		},
		{
			"inputs": [
				{
					"internalType": "address",
					"name": "_alva",
					"type": "address"
				},
				{
					"internalType": "address",
					"name": "_veAlva",
					"type": "address"
				},
				{
					"internalType": "uint256",
					"name": "_decayInterval",
					"type": "uint256"
				},
				{
					"internalType": "uint256",
					"name": "_startTime",
					"type": "uint256"
				},
				{
					"internalType": "string[]",
					"name": "_pools",
					"type": "string[]"
				},
				{
					"internalType": "uint256[]",
					"name": "rewards",
					"type": "uint256[]"
				},
				{
					"internalType": "uint256[]",
					"name": "veTokenRatio",
					"type": "uint256[]"
				},
				{
					"internalType": "uint256[]",
					"name": "duration",
					"type": "uint256[]"
				},
				{
					"internalType": "uint256[]",
					"name": "rewardPeriods",
					"type": "uint256[]"
				}
			],
			"name": "initialize",
			"outputs": [],
			"stateMutability": "nonpayable",
			"type": "function"
		},
		{
			"inputs": [
				{
					"internalType": "uint256",
					"name": "",
					"type": "uint256"
				}
			],
			"name": "lockIdToLockData",
			"outputs": [
				{
					"internalType": "string",
					"name": "pool",
					"type": "string"
				},
				{
					"internalType": "uint256",
					"name": "amount",
					"type": "uint256"
				},
				{
					"internalType": "bool",
					"name": "isForever",
					"type": "bool"
				},
				{
					"internalType": "bool",
					"name": "isActive",
					"type": "bool"
				},
				{
					"internalType": "uint256",
					"name": "duration",
					"type": "uint256"
				},
				{
					"internalType": "uint256",
					"name": "startTime",
					"type": "uint256"
				},
				{
					"internalType": "uint256",
					"name": "endTime",
					"type": "uint256"
				},
				{
					"internalType": "uint256",
					"name": "votingPower",
					"type": "uint256"
				},
				{
					"internalType": "uint256",
					"name": "rewardsCurrent",
					"type": "uint256"
				},
				{
					"internalType": "uint256",
					"name": "openingRewardId",
					"type": "uint256"
				},
				{
					"internalType": "uint256",
					"name": "closingRewardId",
					"type": "uint256"
				},
				{
					"internalType": "uint256",
					"name": "totalIncremented",
					"type": "uint256"
				}
			],
			"stateMutability": "view",
			"type": "function"
		},
		{
			"inputs": [],
			"name": "minimumRewardAmount",
			"outputs": [
				{
					"internalType": "uint256",
					"name": "",
					"type": "uint256"
				}
			],
			"stateMutability": "view",
			"type": "function"
		},
		{
			"inputs": [],
			"name": "minimumStakingAmount",
			"outputs": [
				{
					"internalType": "uint256",
					"name": "",
					"type": "uint256"
				}
			],
			"stateMutability": "view",
			"type": "function"
		},
		{
			"inputs": [],
			"name": "pause",
			"outputs": [],
			"stateMutability": "nonpayable",
			"type": "function"
		},
		{
			"inputs": [],
			"name": "paused",
			"outputs": [
				{
					"internalType": "bool",
					"name": "",
					"type": "bool"
				}
			],
			"stateMutability": "view",
			"type": "function"
		},
		{
			"inputs": [
				{
					"internalType": "string",
					"name": "",
					"type": "string"
				}
			],
			"name": "poolToPoolData",
			"outputs": [
				{
					"internalType": "bool",
					"name": "status",
					"type": "bool"
				},
				{
					"internalType": "uint256",
					"name": "veAlvaRatio",
					"type": "uint256"
				},
				{
					"internalType": "uint256",
					"name": "poolPercentage",
					"type": "uint256"
				},
				{
					"internalType": "uint256",
					"name": "duration",
					"type": "uint256"
				},
				{
					"internalType": "uint256",
					"name": "amountLocked",
					"type": "uint256"
				},
				{
					"internalType": "uint256",
					"name": "rewardPeriods",
					"type": "uint256"
				}
			],
			"stateMutability": "view",
			"type": "function"
		},
		{
			"inputs": [
				{
					"internalType": "uint256",
					"name": "amount",
					"type": "uint256"
				},
				{
					"internalType": "string",
					"name": "pool",
					"type": "string"
				}
			],
			"name": "renewStaking",
			"outputs": [],
			"stateMutability": "nonpayable",
			"type": "function"
		},
		{
			"inputs": [
				{
					"internalType": "bytes32",
					"name": "role",
					"type": "bytes32"
				},
				{
					"internalType": "address",
					"name": "account",
					"type": "address"
				}
			],
			"name": "renounceRole",
			"outputs": [],
			"stateMutability": "nonpayable",
			"type": "function"
		},
		{
			"inputs": [
				{
					"internalType": "bytes32",
					"name": "role",
					"type": "bytes32"
				},
				{
					"internalType": "address",
					"name": "account",
					"type": "address"
				}
			],
			"name": "revokeRole",
			"outputs": [],
			"stateMutability": "nonpayable",
			"type": "function"
		},
		{
			"inputs": [
				{
					"internalType": "address",
					"name": "",
					"type": "address"
				},
				{
					"internalType": "uint256",
					"name": "",
					"type": "uint256"
				}
			],
			"name": "rewardEligibleLocks",
			"outputs": [
				{
					"internalType": "uint256",
					"name": "",
					"type": "uint256"
				}
			],
			"stateMutability": "view",
			"type": "function"
		},
		{
			"inputs": [
				{
					"internalType": "uint256",
					"name": "",
					"type": "uint256"
				}
			],
			"name": "rewardIdToRewardData",
			"outputs": [
				{
					"internalType": "bool",
					"name": "isProcessed",
					"type": "bool"
				},
				{
					"internalType": "uint256",
					"name": "timestamp",
					"type": "uint256"
				},
				{
					"internalType": "uint256",
					"name": "amount",
					"type": "uint256"
				}
			],
			"stateMutability": "view",
			"type": "function"
		},
		{
			"inputs": [],
			"name": "rewardPeriodCount",
			"outputs": [
				{
					"internalType": "uint256",
					"name": "",
					"type": "uint256"
				}
			],
			"stateMutability": "view",
			"type": "function"
		},
		{
			"inputs": [
				{
					"internalType": "uint256",
					"name": "amount",
					"type": "uint256"
				},
				{
					"internalType": "string",
					"name": "pool",
					"type": "string"
				}
			],
			"name": "stake",
			"outputs": [],
			"stateMutability": "nonpayable",
			"type": "function"
		},
		{
			"inputs": [],
			"name": "startTime",
			"outputs": [
				{
					"internalType": "uint256",
					"name": "",
					"type": "uint256"
				}
			],
			"stateMutability": "view",
			"type": "function"
		},
		{
			"inputs": [
				{
					"internalType": "bytes4",
					"name": "interfaceId",
					"type": "bytes4"
				}
			],
			"name": "supportsInterface",
			"outputs": [
				{
					"internalType": "bool",
					"name": "",
					"type": "bool"
				}
			],
			"stateMutability": "view",
			"type": "function"
		},
		{
			"inputs": [],
			"name": "topUpRewards",
			"outputs": [],
			"stateMutability": "nonpayable",
			"type": "function"
		},
		{
			"inputs": [],
			"name": "unallocatedRewards",
			"outputs": [
				{
					"internalType": "uint256",
					"name": "",
					"type": "uint256"
				}
			],
			"stateMutability": "view",
			"type": "function"
		},
		{
			"inputs": [],
			"name": "unpause",
			"outputs": [],
			"stateMutability": "nonpayable",
			"type": "function"
		},
		{
			"inputs": [],
			"name": "unstake",
			"outputs": [],
			"stateMutability": "nonpayable",
			"type": "function"
		},
		{
			"inputs": [
				{
					"internalType": "uint256",
					"name": "newInterval",
					"type": "uint256"
				}
			],
			"name": "updateDecayInterval",
			"outputs": [],
			"stateMutability": "nonpayable",
			"type": "function"
		},
		{
			"inputs": [
				{
					"internalType": "uint256",
					"name": "amount",
					"type": "uint256"
				}
			],
			"name": "updateMinStakingAmount",
			"outputs": [],
			"stateMutability": "nonpayable",
			"type": "function"
		},
		{
			"inputs": [
				{
					"internalType": "uint256",
					"name": "amount",
					"type": "uint256"
				}
			],
			"name": "updateMinimumRewardAmount",
			"outputs": [],
			"stateMutability": "nonpayable",
			"type": "function"
		},
		{
			"inputs": [
				{
					"internalType": "string",
					"name": "pool",
					"type": "string"
				},
				{
					"internalType": "bool",
					"name": "status",
					"type": "bool"
				}
			],
			"name": "updatePoolStatus",
			"outputs": [],
			"stateMutability": "nonpayable",
			"type": "function"
		},
		{
			"inputs": [
				{
					"internalType": "uint256",
					"name": "amount",
					"type": "uint256"
				}
			],
			"name": "updateWithdrawalPercentage",
			"outputs": [],
			"stateMutability": "nonpayable",
			"type": "function"
		},
		{
			"inputs": [],
			"name": "vaultWithdrawalPercentage",
			"outputs": [
				{
					"internalType": "uint256",
					"name": "",
					"type": "uint256"
				}
			],
			"stateMutability": "view",
			"type": "function"
		},
		{
			"inputs": [],
			"name": "veALVA",
			"outputs": [
				{
					"internalType": "contract IERC20",
					"name": "",
					"type": "address"
				}
			],
			"stateMutability": "view",
			"type": "function"
		},
		{
			"inputs": [
				{
					"internalType": "address",
					"name": "account",
					"type": "address"
				}
			],
			"name": "veAlvaBalance",
			"outputs": [
				{
					"internalType": "uint256",
					"name": "",
					"type": "uint256"
				}
			],
			"stateMutability": "view",
			"type": "function"
		}
	]
}