{
	"data": {
		"bytecode": {
			"linkReferences": {},
			"object": "6080604052348015600e575f5ffd5b506151c28061001c5f395ff3fe6080604052600436106101d3575f3560e01c8063893d20e8116100fd578063c45a015511610092578063e8a3d48511610062578063e8a3d4851461055f578063e985e9c514610573578063ff332ab714610592578063ffe8e372146105b4575f5ffd5b8063c45a0155146104e3578063c87b56dd14610502578063d32429ce14610521578063df7a106114610540575f5ffd5b8063a22cb465116100cd578063a22cb46514610472578063af640d0f14610491578063b88d4fde146104a5578063c1e03728146104c4575f5ffd5b8063893d20e8146104185780638c5909171461042c57806395d89b411461043f5780639ff253f914610453575f5ffd5b806342842e0e1161017357806370a082311161014357806370a08231146103b15780637284e416146103d05780637e1c0c09146103e457806387244b9c146103f9575f5ffd5b806342842e0e14610335578063478ecd90146103545780634c306528146103735780636352211e14610392575f5ffd5b8063083c01f3116101ae578063083c01f314610297578063095ea7b3146102b957806323b872dd146102d85780632a55205a146102f7575f5ffd5b806301ffc9a71461020b57806306fdde031461023f578063081812fc14610260575f5ffd5b36610207576101e1336105c9565b61020557604051633fcc3f1760e01b81523360048201526024015b60405180910390fd5b005b5f5ffd5b348015610216575f5ffd5b5061022a61022536600461447f565b6105de565b60405190151581526020015b60405180910390f35b34801561024a575f5ffd5b5061025361060e565b60405161023691906144c8565b34801561026b575f5ffd5b5061027f61027a3660046144da565b61069e565b6040516001600160a01b039091168152602001610236565b3480156102a2575f5ffd5b506102ab6106c3565b604051908152602001610236565b3480156102c4575f5ffd5b506102056102d3366004614505565b6108e3565b3480156102e3575f5ffd5b506102056102f236600461452f565b610994565b348015610302575f5ffd5b5061031661031136600461456d565b610a47565b604080516001600160a01b039093168352602083019190915201610236565b348015610340575f5ffd5b5061020561034f36600461452f565b610b6e565b34801561035f575f5ffd5b5061020561036e36600461458d565b610c1b565b34801561037e575f5ffd5b5061020561038d3660046145c4565b610fc8565b34801561039d575f5ffd5b5061027f6103ac3660046144da565b61120d565b3480156103bc575f5ffd5b506102ab6103cb3660046145ed565b61126c565b3480156103db575f5ffd5b506102536112f0565b3480156103ef575f5ffd5b50610100546102ab565b348015610404575f5ffd5b506102056104133660046145c4565b61137c565b348015610423575f5ffd5b5061027f611607565b61020561043a36600461456d565b611616565b34801561044a575f5ffd5b506102536117d8565b34801561045e575f5ffd5b5061020561046d36600461464f565b6117e7565b34801561047d575f5ffd5b5061020561048c3660046146d7565b6118cc565b34801561049c575f5ffd5b50610253611982565b3480156104b0575f5ffd5b506102056104bf366004614778565b61198f565b3480156104cf575f5ffd5b506103166104de3660046144da565b611a44565b3480156104ee575f5ffd5b5060fc5461027f906001600160a01b031681565b34801561050d575f5ffd5b5061025361051c3660046144da565b611aca565b34801561052c575f5ffd5b5061020561053b36600461464f565b611bd4565b34801561054b575f5ffd5b5060fb5461027f906001600160a01b031681565b34801561056a575f5ffd5b50610253611cb4565b34801561057e575f5ffd5b5061022a61058d36600461481f565b611d29565b34801561059d575f5ffd5b506105a6611d56565b6040516102369291906148be565b3480156105bf575f5ffd5b506102ab61271081565b5f6001600160a01b0382163b15155b92915050565b5f6105e882611e16565b806105d85750506001600160e01b0319165f90815260ff60208190526040909120541690565b60606065805461061d906148eb565b80601f0160208091040260200160405190810160405280929190818152602001828054610649906148eb565b80156106945780601f1061066b57610100808354040283529160200191610694565b820191905f5260205f20905b81548152906001019060200180831161067757829003601f168201915b5050505050905090565b5f6106a882611e3a565b505f908152606960205260409020546001600160a01b031690565b5f5f6106d760fc546001600160a01b031690565b90505f816001600160a01b0316633fc8cef36040518163ffffffff1660e01b8152600401602060405180830381865afa158015610716573d5f5f3e3d5ffd5b505050506040513d601f19601f8201168201806040525081019061073a9190614923565b610100549091505f5b818110156108dc575f6101005f0182815481106107625761076261493e565b5f91825260208220015460fb5460405163239cfc6d60e21b8152600481018690526001600160a01b039283169450911690638e73f1b490602401602060405180830381865afa1580156107b7573d5f5f3e3d5ffd5b505050506040513d601f19601f820116820180604052508101906107db9190614952565b60405163d88e3e3b60e01b81526001600160a01b03848116600483015287811660248301529192505f9188169063d88e3e3b906044015f60405180830381865afa15801561082b573d5f5f3e3d5ffd5b505050506040513d5f823e601f3d908101601f19168201604052610852919081019061498b565b60405163d06ca61f60e01b81529091506001600160a01b0388169063d06ca61f906108839085908590600401614a24565b602060405180830381865afa15801561089e573d5f5f3e3d5ffd5b505050506040513d601f19601f820116820180604052508101906108c29190614952565b6108cc9089614a50565b9750836001019350505050610743565b5050505090565b816108ed816105c9565b156109855760fc546001600160a01b0316604051633b9589a960e01b81526001600160a01b0383811660048301529190911690633b9589a990602401602060405180830381865afa158015610944573d5f5f3e3d5ffd5b505050506040513d601f19601f820116820180604052508101906109689190614a63565b61098557604051632ff3629f60e21b815260040160405180910390fd5b61098f8383611e9b565b505050565b8161099e816105c9565b15610a365760fc546001600160a01b0316604051633b9589a960e01b81526001600160a01b0383811660048301529190911690633b9589a990602401602060405180830381865afa1580156109f5573d5f5f3e3d5ffd5b505050506040513d601f19601f82011682018060405250810190610a199190614a63565b610a3657604051632ff3629f60e21b815260040160405180910390fd5b610a41848484611faa565b50505050565b5f5f610a5b60fc546001600160a01b031690565b6001600160a01b0316639fbc87136040518163ffffffff1660e01b8152600401602060405180830381865afa158015610a96573d5f5f3e3d5ffd5b505050506040513d601f19601f82011682018060405250810190610aba9190614923565b91505f610acf60fc546001600160a01b031690565b6001600160a01b0316638a71bb2d6040518163ffffffff1660e01b8152600401602060405180830381865afa158015610b0a573d5f5f3e3d5ffd5b505050506040513d601f19601f82011682018060405250810190610b2e9190614952565b90505f81118015610b4757506001600160a01b03831615155b15610b6657612710610b598286614a7e565b610b639190614a95565b91505b509250929050565b81610b78816105c9565b15610c105760fc546001600160a01b0316604051633b9589a960e01b81526001600160a01b0383811660048301529190911690633b9589a990602401602060405180830381865afa158015610bcf573d5f5f3e3d5ffd5b505050506040513d601f19601f82011682018060405250810190610bf39190614a63565b610c1057604051632ff3629f60e21b815260040160405180910390fd5b610a41848484611fdb565b610c286080820182614ab4565b9050610c3760a0830183614ab4565b90508082141580610c46575081155b80610c4f575080155b15610c6d5760405163251f56a160e21b815260040160405180910390fd5b5f54610100900460ff1615808015610c8b57505f54600160ff909116105b80610ca45750303b158015610ca457505f5460ff166001145b610d075760405162461bcd60e51b815260206004820152602e60248201527f496e697469616c697a61626c653a20636f6e747261637420697320616c72656160448201526d191e481a5b9a5d1a585b1a5e995960921b60648201526084016101fc565b5f805460ff191660011790558015610d28575f805461ff0019166101001790555b610daf610d358580614af9565b8080601f0160208091040260200160405190810160405280939291908181526020018383808284375f92019190915250610d76925050506020870187614af9565b8080601f0160208091040260200160405190810160405280939291908181526020018383808284375f92019190915250611ff592505050565b610dbf63152a902d60e11b612025565b610dc7612074565b610dd760808501606086016145ed565b60fc80546001600160a01b0319166001600160a01b0392909216919091179055610e05610100850185614af9565b60fd91610e13919083614b7f565b50610e98610e246080860186614ab4565b808060200260200160405190810160405280939291908181526020018383602002808284375f92019190915250610e629250505060a0870187614ab4565b808060200260200160405190810160405280939291908181526020018383602002808284375f920191909152506120a492505050565b610ea860e0850160c086016145ed565b60fb80546001600160a01b0319166001600160a01b0392909216919091179055610ed56080850185614ab4565b610ee29161010091614330565b50610ef060a0850185614ab4565b610efd9161010191614391565b50610f0c610120850185614af9565b60fe91610f1a919083614b7f565b50610f34610f2e60608601604087016145ed565b5f6123c0565b610f7e5f610f4560e0870187614af9565b8080601f0160208091040260200160405190810160405280939291908181526020018383808284375f920191909152506123d992505050565b8015610a41575f805461ff0019169055604051600181527f7f26b83ff96e1f2b6a682f133852f6798a09c465da95921460cefb38474024989060200160405180910390a150505050565b33610fd1611607565b6001600160a01b031614610ff8576040516349e27cff60e01b815260040160405180910390fd5b81158061100757506113888210155b1561103757604051631818d2a760e31b8152600481018390526001602482015261138760448201526064016101fc565b5f61104a60fc546001600160a01b031690565b905060fb5f9054906101000a90046001600160a01b03166001600160a01b031663b4b93c8c6040518163ffffffff1660e01b81526004015f604051808303815f87803b158015611098575f5ffd5b505af11580156110aa573d5f5f3e3d5ffd5b505060fb5460405163a9059cbb60e01b81526001600160a01b039091166004820181905260248201889052925063a9059cbb91506044016020604051808303815f875af11580156110fd573d5f5f3e3d5ffd5b505050506040513d601f19601f820116820180604052508101906111219190614a63565b5060fb5460405163226bf2d160e21b81523060048201525f916001600160a01b0316906389afcb44906024015f604051808303815f875af1158015611168573d5f5f3e3d5ffd5b505050506040513d5f823e601f3d908101601f1916820160405261118f9190810190614c38565b90505f6111a6838361119f611607565b88886124a2565b90506111b0611607565b6001600160a01b0316306001600160a01b03167f2ee827557318e24ad8fdb9f616bbfd73b44656ea23439623780d719c369f0c1d88846040516111fd929190918252602082015260400190565b60405180910390a3505050505050565b5f818152606760205260408120546001600160a01b0316806105d85760405162461bcd60e51b8152602060048201526018602482015277115490cdcc8c4e881a5b9d985b1a59081d1bdad95b88125160421b60448201526064016101fc565b5f6001600160a01b0382166112d55760405162461bcd60e51b815260206004820152602960248201527f4552433732313a2061646472657373207a65726f206973206e6f7420612076616044820152683634b21037bbb732b960b91b60648201526084016101fc565b506001600160a01b03165f9081526068602052604090205490565b60fe80546112fd906148eb565b80601f0160208091040260200160405190810160405280929190818152602001828054611329906148eb565b80156113745780601f1061134b57610100808354040283529160200191611374565b820191905f5260205f20905b81548152906001019060200180831161135757829003601f168201915b505050505081565b6113846127b6565b825f61139860fc546001600160a01b031690565b6001600160a01b0316636dbd5d2a6040518163ffffffff1660e01b8152600401602060405180830381865afa1580156113d3573d5f5f3e3d5ffd5b505050506040513d601f19601f820116820180604052508101906113f79190614952565b90508082101561141a57604051639abc749160e01b815260040160405180910390fd5b83158061142957506113888410155b1561145957604051631818d2a760e31b8152600481018590526001602482015261138760448201526064016101fc565b5f61146c60fc546001600160a01b031690565b90505f5f826001600160a01b031663c4e994a06040518163ffffffff1660e01b8152600401608060405180830381865afa1580156114ac573d5f5f3e3d5ffd5b505050506040513d601f19601f820116820180604052508101906114d09190614cd4565b61ffff91909116945092505f915089905081841561159a576127106114f5868d614a7e565b6114ff9190614a95565b925061150b838c614d27565b91505f611518843061280f565b90506115278782878e8e6124a2565b9150846001600160a01b03167f72cd57b8de25c52a120a25de816c33ef7193ff5985d2106cf9d4269edc0b705583886040516115909291909182526020820152606060408201819052600b908201526a0eed2e8d0c8e4c2ee8aa8960ab1b608082015260a00190565b60405180910390a2505b5f6115a5833061280f565b90505f6115b58883338f8f6124a2565b604080513081526020810183905291925033917fc37266ec9deff1378fe090bdd905a5dd26816731036ee0c294fb664059e1cf57910160405180910390a25050505050505050505061098f600160c955565b5f6116115f61120d565b905090565b61161e6127b6565b6116288282612928565b5f5f5f5f5f6116356129aa565b9398509196509450925090505f805b83811015611716575f61010060010182815481106116645761166461493e565b5f918252602082200154915061167b600187614d27565b83036116925761168b848a614d27565b90506116b8565b61271061169f838b614a7e565b6116a99190614a95565b90506116b58185614a50565b93505b6116ef816101005f0185815481106116d2576116d261493e565b5f918252602090912001546001600160a01b03168a8a8f8f612b65565b8584815181106117015761170161493e565b60209081029190910101525050600101611644565b5060fb5460405163de836ebd60e01b81526001600160a01b039091169063de836ebd906117499033908690600401614d3a565b6020604051808303815f875af1158015611765573d5f5f3e3d5ffd5b505050506040513d601f19601f820116820180604052508101906117899190614952565b506040805130815234602082015233917f766bd5671bde75c1f4c74cf7d8f8d8b3ef53ef5c1c7a5bcbc1074a0cf5651360910160405180910390a25050505050506117d4600160c955565b5050565b60606066805461061d906148eb565b336117f0611607565b6001600160a01b031614611817576040516349e27cff60e01b815260040160405180910390fd5b81158061182657506113888210155b1561185657604051631818d2a760e31b8152600481018390526001602482015261138760448201526064016101fc565b6118c48686808060200260200160405190810160405280939291908181526020018383602002808284375f9201919091525050604080516020808a028281018201909352898252909350899250889182918501908490808284375f9201829052508893509150869050612de2565b505050505050565b8015611978576118db826105c9565b801561195a575060fc546001600160a01b0316604051633b9589a960e01b81526001600160a01b0384811660048301529190911690633b9589a990602401602060405180830381865afa158015611934573d5f5f3e3d5ffd5b505050506040513d601f19601f820116820180604052508101906119589190614a63565b155b1561197857604051632ff3629f60e21b815260040160405180910390fd5b6117d4828261304b565b60fd80546112fd906148eb565b82611999816105c9565b15611a315760fc546001600160a01b0316604051633b9589a960e01b81526001600160a01b0383811660048301529190911690633b9589a990602401602060405180830381865afa1580156119f0573d5f5f3e3d5ffd5b505050506040513d601f19601f82011682018060405250810190611a149190614a63565b611a3157604051632ff3629f60e21b815260040160405180910390fd5b611a3d85858585613056565b5050505050565b610100545f908190808410611a7657604051635a2e95f960e01b815260048101859052602481018290526044016101fc565b610100805485908110611a8b57611a8b61493e565b5f9182526020909120015461010180546001600160a01b0390921694509085908110611ab957611ab961493e565b905f5260205f200154915050915091565b6060611ad582611e3a565b5f8281526097602052604081208054611aed906148eb565b80601f0160208091040260200160405190810160405280929190818152602001828054611b19906148eb565b8015611b645780601f10611b3b57610100808354040283529160200191611b64565b820191905f5260205f20905b815481529060010190602001808311611b4757829003601f168201915b505050505090505f611b8060408051602081019091525f815290565b905080515f03611b91575092915050565b815115611bc3578082604051602001611bab929190614d74565b60405160208183030381529060405292505050919050565b611bcc84613088565b949350505050565b33611bdd611607565b6001600160a01b031614611c04576040516349e27cff60e01b815260040160405180910390fd5b811580611c1357506113888210155b15611c4357604051631818d2a760e31b8152600481018390526001602482015261138760448201526064016101fc565b6118c48686808060200260200160405190810160405280939291908181526020018383602002808284375f9201919091525050604080516020808a028281018201909352898252909350899250889182918501908490808284375f9201919091525087925060019150869050612de2565b6060611cc860fc546001600160a01b031690565b6001600160a01b03166337929eb46040518163ffffffff1660e01b81526004015f60405180830381865afa158015611d02573d5f5f3e3d5ffd5b505050506040513d5f823e601f3d908101601f191682016040526116119190810190614d88565b6001600160a01b039182165f908152606a6020908152604080832093909416825291909152205460ff1690565b6060806101005f0161010060010181805480602002602001604051908101604052809291908181526020018280548015611db757602002820191905f5260205f20905b81546001600160a01b03168152600190910190602001808311611d99575b5050505050915080805480602002602001604051908101604052809291908181526020018280548015611e0757602002820191905f5260205f20905b815481526020019060010190808311611df3575b50505050509050915091509091565b5f6001600160e01b03198216632483248360e11b14806105d857506105d8826130f7565b5f818152606760205260409020546001600160a01b0316611e985760405162461bcd60e51b8152602060048201526018602482015277115490cdcc8c4e881a5b9d985b1a59081d1bdad95b88125160421b60448201526064016101fc565b50565b5f611ea58261120d565b9050806001600160a01b0316836001600160a01b031603611f125760405162461bcd60e51b815260206004820152602160248201527f4552433732313a20617070726f76616c20746f2063757272656e74206f776e656044820152603960f91b60648201526084016101fc565b336001600160a01b0382161480611f2e5750611f2e8133611d29565b611fa05760405162461bcd60e51b815260206004820152603d60248201527f4552433732313a20617070726f76652063616c6c6572206973206e6f7420746f60448201527f6b656e206f776e6572206f7220617070726f76656420666f7220616c6c00000060648201526084016101fc565b61098f8383613146565b611fb433826131b3565b611fd05760405162461bcd60e51b81526004016101fc90614dfc565b61098f838383613210565b61098f83838360405180602001604052805f81525061198f565b5f54610100900460ff1661201b5760405162461bcd60e51b81526004016101fc90614e49565b6117d48282613372565b6001600160e01b03198082169003612050576040516309b5e76560e31b815260040160405180910390fd5b6001600160e01b0319165f90815260ff60205260409020805460ff19166001179055565b5f54610100900460ff1661209a5760405162461bcd60e51b81526004016101fc90614e49565b6120a26133b1565b565b5f80806120b960fc546001600160a01b031690565b6001600160a01b031663b28775cd6040518163ffffffff1660e01b8152600401602060405180830381865afa1580156120f4573d5f5f3e3d5ffd5b505050506040513d601f19601f820116820180604052508101906121189190614923565b90505f5b855181101561237f5761214786828151811061213a5761213a61493e565b60200260200101516105c9565b61218e5785818151811061215d5761215d61493e565b60200260200101516040516319bb402960e01b81526004016101fc91906001600160a01b0391909116815260200190565b6121be868783815181106121a4576121a461493e565b60200260200101518360016121b99190614a50565b6133d7565b1580156121e457508481815181106121d8576121d861493e565b60200260200101515f14155b1561232557816001600160a01b03168682815181106122055761220561493e565b60200260200101516001600160a01b0316036122f957600192505f61223260fc546001600160a01b031690565b6001600160a01b03166301c4aebe6040518163ffffffff1660e01b8152600401602060405180830381865afa15801561226d573d5f5f3e3d5ffd5b505050506040513d601f19601f820116820180604052508101906122919190614e94565b61ffff169050808683815181106122aa576122aa61493e565b602002602001015110156122f7578582815181106122ca576122ca61493e565b60200260200101518160405163540fcb0760e11b81526004016101fc929190918252602082015260400190565b505b84818151811061230b5761230b61493e565b60200260200101518461231e9190614a50565b9350612377565b8481815181106123375761233761493e565b60200260200101515f0361235e576040516309ae9a4d60e01b815260040160405180910390fd5b60405163c1ab6dc160e01b815260040160405180910390fd5b60010161211c565b508161239e57604051633ca4618760e01b815260040160405180910390fd5b6127108314611a3d5760405163585b926360e01b815260040160405180910390fd5b6117d4828260405180602001604052805f81525061344a565b5f828152606760205260409020546001600160a01b03166124535760405162461bcd60e51b815260206004820152602e60248201527f45524337323155524953746f726167653a2055524920736574206f66206e6f6e60448201526d32bc34b9ba32b73a103a37b5b2b760911b60648201526084016101fc565b5f82815260976020526040902061246a8282614ead565b506040518281527ff8e1a15aba9398e019f0b49df1a4fde98ee17ae345cb5f6b5e2c27f5033e8ce79060200160405180910390a15050565b5f4282116124c6576040516318db49c560e21b8152600481018390526024016101fc565b5f866001600160a01b0316633fc8cef36040518163ffffffff1660e01b8152600401602060405180830381865afa158015612503573d5f5f3e3d5ffd5b505050506040513d601f19601f820116820180604052508101906125279190614923565b90505f876001600160a01b031663f887ea406040518163ffffffff1660e01b8152600401602060405180830381865afa158015612566573d5f5f3e3d5ffd5b505050506040513d601f19601f8201168201806040525081019061258a9190614923565b90505f805b885181101561268f575f8982815181106125ab576125ab61493e565b6020026020010151111561268757836001600160a01b03166101005f0182815481106125d9576125d961493e565b5f918252602090912001546001600160a01b03160361261e578881815181106126045761260461493e565b6020026020010151826126179190614a50565b9150612687565b5f6126776101005f0183815481106126385761263861493e565b905f5260205f20015f9054906101000a90046001600160a01b031686868d86815181106126675761266761493e565b6020026020010151308d8d61347c565b90506126838184614a50565b9250505b60010161258f565b5080156127aa57604051632e1a7d4d60e01b8152600481018290526001600160a01b03841690632e1a7d4d906024015f604051808303815f87803b1580156126d5575f5ffd5b505af11580156126e7573d5f5f3e3d5ffd5b505050505f876001600160a01b0316826040515f6040518083038185875af1925050503d805f8114612734576040519150601f19603f3d011682016040523d82523d5f602084013e612739565b606091505b50509050806127a55760405162461bcd60e51b815260206004820152603260248201527f4661696c656420746f20756e7772617020616e64207472616e736665722057456044820152712a24103a37903a3432903932b1b2b4bb32b960711b60648201526084016101fc565b819450505b50505095945050505050565b600260c954036128085760405162461bcd60e51b815260206004820152601f60248201527f5265656e7472616e637947756172643a207265656e7472616e742063616c6c0060448201526064016101fc565b600260c955565b6060825f0361283157604051639abc749160e01b815260040160405180910390fd5b60fb546040516323b872dd60e01b81523360048201526001600160a01b039091166024820181905260448201859052906323b872dd906064016020604051808303815f875af1158015612886573d5f5f3e3d5ffd5b505050506040513d601f19601f820116820180604052508101906128aa9190614a63565b5060fb5460405163226bf2d160e21b81526001600160a01b038481166004830152909116906389afcb44906024015f604051808303815f875af11580156128f3573d5f5f3e3d5ffd5b505050506040513d5f823e601f3d908101601f1916820160405261291a9190810190614c38565b9392505050565b600160c955565b81158061293757506113888210155b1561296757604051631818d2a760e31b8152600481018390526001602482015261138760448201526064016101fc565b345f03612987576040516328d07cef60e11b815260040160405180910390fd5b4281116117d4576040516318db49c560e21b8152600481018290526024016101fc565b5f5f5f5f60605f6129c360fc546001600160a01b031690565b90505f5f826001600160a01b031663c4e994a06040518163ffffffff1660e01b8152600401608060405180830381865afa158015612a03573d5f5f3e3d5ffd5b505050506040513d601f19601f82011682018060405250810190612a279190614cd4565b93505061ffff169250505f612a3d83833461373a565b9050612a498134614d27565b9850836001600160a01b0316633fc8cef36040518163ffffffff1660e01b8152600401602060405180830381865afa158015612a87573d5f5f3e3d5ffd5b505050506040513d601f19601f82011682018060405250810190612aab9190614923565b9750836001600160a01b031663f887ea406040518163ffffffff1660e01b8152600401602060405180830381865afa158015612ae9573d5f5f3e3d5ffd5b505050506040513d601f19601f82011682018060405250810190612b0d9190614923565b610100549097509550856001600160401b03811115612b2e57612b2e61470e565b604051908082528060200260200182016040528015612b57578160200160208202803683370190505b509450505050509091929394565b5f5f612b7960fc546001600160a01b031690565b60405163d88e3e3b60e01b81526001600160a01b0388811660048301528981166024830152919091169063d88e3e3b906044015f60405180830381865afa158015612bc6573d5f5f3e3d5ffd5b505050506040513d5f823e601f3d908101601f19168201604052612bed919081019061498b565b90505f612710612bfd8682614d27565b60fc5460405163d06ca61f60e01b81526001600160a01b039091169063d06ca61f90612c2f908e908890600401614a24565b602060405180830381865afa158015612c4a573d5f5f3e3d5ffd5b505050506040513d601f19601f82011682018060405250810190612c6e9190614952565b612c789190614a7e565b612c829190614a95565b60fb546040516370a0823160e01b81526001600160a01b0391821660048201529192505f91908a16906370a0823190602401602060405180830381865afa158015612ccf573d5f5f3e3d5ffd5b505050506040513d601f19601f82011682018060405250810190612cf39190614952565b60fb5460405163b6f9de9560e01b81529192506001600160a01b03808a169263b6f9de95928e92612d2e9288928a9216908c90600401614f67565b5f604051808303818588803b158015612d45575f5ffd5b505af1158015612d57573d5f5f3e3d5ffd5b505060fb546040516370a0823160e01b81526001600160a01b039182166004820152859450908d1692506370a082319150602401602060405180830381865afa158015612da6573d5f5f3e3d5ffd5b505050506040513d601f19601f82011682018060405250810190612dca9190614952565b612dd49190614d27565b9a9950505050505050505050565b845184518082141580612df3575081155b80612dfc575080155b15612e1a5760405163251f56a160e21b815260040160405180910390fd5b838015612e2957508651600214155b15612e4757604051631ec0e68160e11b815260040160405180910390fd5b428311612e6a576040516318db49c560e21b8152600481018490526024016101fc565b612e7487876120a4565b60fb5460405163ba6ba38560e01b8152600160048201526001600160a01b039091169063ba6ba385906024015f604051808303815f87803b158015612eb7575f5ffd5b505af1158015612ec9573d5f5f3e3d5ffd5b5050505060fb5f9054906101000a90046001600160a01b03166001600160a01b031663a7c7fdeb6040518163ffffffff1660e01b81526004015f604051808303815f87803b158015612f19575f5ffd5b505af1158015612f2b573d5f5f3e3d5ffd5b505050505f612f4260fc546001600160a01b031690565b6001600160a01b0316633fc8cef36040518163ffffffff1660e01b8152600401602060405180830381865afa158015612f7d573d5f5f3e3d5ffd5b505050506040513d601f19601f82011682018060405250810190612fa19190614923565b90505f612fb660fc546001600160a01b031690565b6001600160a01b031663f887ea406040518163ffffffff1660e01b8152600401602060405180830381865afa158015612ff1573d5f5f3e3d5ffd5b505050506040513d601f19601f820116820180604052508101906130159190614923565b90505f61302483838a8961387b565b9050613035818b8b86868d8c61394e565b61303f8a8a613a01565b50505050505050505050565b6117d4338383613b20565b61306033836131b3565b61307c5760405162461bcd60e51b81526004016101fc90614dfc565b610a4184848484613bed565b606061309382611e3a565b5f6130a860408051602081019091525f815290565b90505f8151116130c65760405180602001604052805f81525061291a565b806130d084613c20565b6040516020016130e1929190614d74565b6040516020818303038152906040529392505050565b5f6001600160e01b031982166380ac58cd60e01b148061312757506001600160e01b03198216635b5e139f60e01b145b806105d857506301ffc9a760e01b6001600160e01b03198316146105d8565b5f81815260696020526040902080546001600160a01b0319166001600160a01b038416908117909155819061317a8261120d565b6001600160a01b03167f8c5be1e5ebec7d5bd14f71427d1e84f3dd0314c0f7b2291e5b200ac8c7c3b92560405160405180910390a45050565b5f5f6131be8361120d565b9050806001600160a01b0316846001600160a01b031614806131e557506131e58185611d29565b80611bcc5750836001600160a01b03166131fe8461069e565b6001600160a01b031614949350505050565b826001600160a01b03166132238261120d565b6001600160a01b0316146132495760405162461bcd60e51b81526004016101fc90614f9b565b6001600160a01b0382166132ab5760405162461bcd60e51b8152602060048201526024808201527f4552433732313a207472616e7366657220746f20746865207a65726f206164646044820152637265737360e01b60648201526084016101fc565b826001600160a01b03166132be8261120d565b6001600160a01b0316146132e45760405162461bcd60e51b81526004016101fc90614f9b565b5f81815260696020908152604080832080546001600160a01b03199081169091556001600160a01b038781168086526068855283862080545f1901905590871680865283862080546001019055868652606790945282852080549092168417909155905184937fddf252ad1be2c89b69c2b068fc378daa952ba7f163c4a11628f55a4df523b3ef91a4505050565b5f54610100900460ff166133985760405162461bcd60e51b81526004016101fc90614e49565b60656133a48382614ead565b50606661098f8282614ead565b5f54610100900460ff166129215760405162461bcd60e51b81526004016101fc90614e49565b5f818451111561344157815b845181101561343f57836001600160a01b03168582815181106134085761340861493e565b60200260200101516001600160a01b031603613437576040516323271fb560e11b815260040160405180910390fd5b6001016133e3565b505b505f9392505050565b6134548383613caf565b6134605f848484613e37565b61098f5760405162461bcd60e51b81526004016101fc90614fe0565b5f6134916001600160a01b0389168783613f34565b6134a56001600160a01b0389168787613f34565b5f6134b860fc546001600160a01b031690565b60405163d88e3e3b60e01b81526001600160a01b038b811660048301528a81166024830152919091169063d88e3e3b906044015f60405180830381865afa158015613505573d5f5f3e3d5ffd5b505050506040513d5f823e601f3d908101601f1916820160405261352c919081019061498b565b905080516002146135505760405163251f56a160e21b815260040160405180910390fd5b5f61271061355e8682614d27565b60fc5460405163d06ca61f60e01b81526001600160a01b039091169063d06ca61f90613590908c908890600401614a24565b602060405180830381865afa1580156135ab573d5f5f3e3d5ffd5b505050506040513d601f19601f820116820180604052508101906135cf9190614952565b6135d99190614a7e565b6135e39190614a95565b6040516370a0823160e01b81526001600160a01b0388811660048301529192505f918b16906370a0823190602401602060405180830381865afa15801561362c573d5f5f3e3d5ffd5b505050506040513d601f19601f820116820180604052508101906136509190614952565b604051635c11d79560e01b81529091506001600160a01b038a1690635c11d79590613687908b90869088908d908c90600401615032565b5f604051808303815f87803b15801561369e575f5ffd5b505af11580156136b0573d5f5f3e3d5ffd5b50506040516370a0823160e01b81526001600160a01b038a811660048301525f93508d1691506370a0823190602401602060405180830381865afa1580156136fa573d5f5f3e3d5ffd5b505050506040513d601f19601f8201168201806040525081019061371e9190614952565b905061372a8282614d27565b9c9b505050505050505050505050565b5f808415611bcc5761271061374f8685614a7e565b6137599190614a95565b90505f846001600160a01b0316826040515f6040518083038185875af1925050503d805f81146137a4576040519150601f19603f3d011682016040523d82523d5f602084013e6137a9565b606091505b50509050806138045760405162461bcd60e51b815260206004820152602160248201527f4661696c656420746f2064656475637420436f6e747269627574696f6e2046656044820152606560f81b60648201526084016101fc565b846001600160a01b03167f72cd57b8de25c52a120a25de816c33ef7193ff5985d2106cf9d4269edc0b7055838860405161386a9291909182526020820152606060408201819052600a9082015269636f6e7472696275746560b01b608082015260a00190565b60405180910390a250949350505050565b610100545f90815b81811015613944575f6101005f0182815481106138a2576138a261493e565b5f9182526020822001546040516370a0823160e01b81523060048201526001600160a01b03909116925082906370a0823190602401602060405180830381865afa1580156138f2573d5f5f3e3d5ffd5b505050506040513d601f19601f820116820180604052508101906139169190614952565b9050801561393a5761392d828a8a84308c8c61347c565b6139379086614a50565b94505b5050600101613883565b5050949350505050565b84515f805b8281101561303f575f613967600185614d27565b820361397e57613977838c614d27565b90506139bf565b6127108983815181106139935761399361493e565b60200260200101518c6139a69190614a7e565b6139b09190614a95565b90506139bc8184614a50565b92505b6139f7888b84815181106139d5576139d561493e565b602090810291909101015160fb548a9085906001600160a01b03168b8b61347c565b5050600101613953565b60405130907fe4f61cf83acd10ece084c8f8f7d63510f8189631a159bb904672d84ea0104e2590613a3d906101009061010190879087906150a0565b60405180910390a260fb546040516337905a4760e21b81526001600160a01b039091169063de41691c90613a75908590600401615122565b5f604051808303815f87803b158015613a8c575f5ffd5b505af1158015613a9e573d5f5f3e3d5ffd5b50508351613ab69250610100915060208501906143ca565b508051613acb9061010190602084019061441d565b5060fb5460405163ba6ba38560e01b81525f60048201526001600160a01b039091169063ba6ba385906024015f604051808303815f87803b158015613b0e575f5ffd5b505af11580156118c4573d5f5f3e3d5ffd5b816001600160a01b0316836001600160a01b031603613b815760405162461bcd60e51b815260206004820152601960248201527f4552433732313a20617070726f766520746f2063616c6c65720000000000000060448201526064016101fc565b6001600160a01b038381165f818152606a6020908152604080832094871680845294825291829020805460ff191686151590811790915591519182527f17307eab39ab6107e8899845ad3d59bd9653f200f220920489ca2b5937696c31910160405180910390a3505050565b613bf8848484613210565b613c0484848484613e37565b610a415760405162461bcd60e51b81526004016101fc90614fe0565b60605f613c2c83614069565b60010190505f816001600160401b03811115613c4a57613c4a61470e565b6040519080825280601f01601f191660200182016040528015613c74576020820181803683370190505b5090508181016020015b5f19016f181899199a1a9b1b9c1cb0b131b232b360811b600a86061a8153600a8504945084613c7e57509392505050565b6001600160a01b038216613d055760405162461bcd60e51b815260206004820181905260248201527f4552433732313a206d696e7420746f20746865207a65726f206164647265737360448201526064016101fc565b5f818152606760205260409020546001600160a01b031615613d695760405162461bcd60e51b815260206004820152601c60248201527f4552433732313a20746f6b656e20616c7265616479206d696e7465640000000060448201526064016101fc565b5f818152606760205260409020546001600160a01b031615613dcd5760405162461bcd60e51b815260206004820152601c60248201527f4552433732313a20746f6b656e20616c7265616479206d696e7465640000000060448201526064016101fc565b6001600160a01b0382165f81815260686020908152604080832080546001019055848352606790915280822080546001600160a01b0319168417905551839291907fddf252ad1be2c89b69c2b068fc378daa952ba7f163c4a11628f55a4df523b3ef908290a45050565b5f6001600160a01b0384163b15613f2957604051630a85bd0160e11b81526001600160a01b0385169063150b7a0290613e7a903390899088908890600401615134565b6020604051808303815f875af1925050508015613eb4575060408051601f3d908101601f19168201909252613eb191810190615166565b60015b613f0f573d808015613ee1576040519150601f19603f3d011682016040523d82523d5f602084013e613ee6565b606091505b5080515f03613f075760405162461bcd60e51b81526004016101fc90614fe0565b805181602001fd5b6001600160e01b031916630a85bd0160e11b149050611bcc565b506001949350505050565b801580613fac5750604051636eb1769f60e11b81523060048201526001600160a01b03838116602483015284169063dd62ed3e90604401602060405180830381865afa158015613f86573d5f5f3e3d5ffd5b505050506040513d601f19601f82011682018060405250810190613faa9190614952565b155b6140175760405162461bcd60e51b815260206004820152603660248201527f5361666545524332303a20617070726f76652066726f6d206e6f6e2d7a65726f60448201527520746f206e6f6e2d7a65726f20616c6c6f77616e636560501b60648201526084016101fc565b604080516001600160a01b038416602482015260448082018490528251808303909101815260649091019091526020810180516001600160e01b031663095ea7b360e01b17905261098f908490614140565b5f8072184f03e93ff9f4daa797ed6e38ed64bf6a1f0160401b83106140a75772184f03e93ff9f4daa797ed6e38ed64bf6a1f0160401b830492506040015b6d04ee2d6d415b85acef810000000083106140d3576d04ee2d6d415b85acef8100000000830492506020015b662386f26fc1000083106140f157662386f26fc10000830492506010015b6305f5e1008310614109576305f5e100830492506008015b612710831061411d57612710830492506004015b6064831061412f576064830492506002015b600a83106105d85760010192915050565b5f614194826040518060400160405280602081526020017f5361666545524332303a206c6f772d6c6576656c2063616c6c206661696c6564815250856001600160a01b03166142139092919063ffffffff16565b905080515f14806141b45750808060200190518101906141b49190614a63565b61098f5760405162461bcd60e51b815260206004820152602a60248201527f5361666545524332303a204552433230206f7065726174696f6e20646964206e6044820152691bdd081cdd58d8d9595960b21b60648201526084016101fc565b6060611bcc84845f85855f5f866001600160a01b031685876040516142389190615181565b5f6040518083038185875af1925050503d805f8114614272576040519150601f19603f3d011682016040523d82523d5f602084013e614277565b606091505b509150915061428887838387614293565b979650505050505050565b606083156143015782515f036142fa576001600160a01b0385163b6142fa5760405162461bcd60e51b815260206004820152601d60248201527f416464726573733a2063616c6c20746f206e6f6e2d636f6e747261637400000060448201526064016101fc565b5081611bcc565b611bcc83838151156143165781518083602001fd5b8060405162461bcd60e51b81526004016101fc91906144c8565b828054828255905f5260205f20908101928215614381579160200282015b828111156143815781546001600160a01b0319166001600160a01b0384351617825560209092019160019091019061434e565b5061438d929150614456565b5090565b828054828255905f5260205f20908101928215614381579160200282015b828111156143815782358255916020019190600101906143af565b828054828255905f5260205f20908101928215614381579160200282015b8281111561438157825182546001600160a01b0319166001600160a01b039091161782556020909201916001909101906143e8565b828054828255905f5260205f20908101928215614381579160200282015b8281111561438157825182559160200191906001019061443b565b5b8082111561438d575f8155600101614457565b6001600160e01b031981168114611e98575f5ffd5b5f6020828403121561448f575f5ffd5b813561291a8161446a565b5f81518084528060208401602086015e5f602082860101526020601f19601f83011685010191505092915050565b602081525f61291a602083018461449a565b5f602082840312156144ea575f5ffd5b5035919050565b6001600160a01b0381168114611e98575f5ffd5b5f5f60408385031215614516575f5ffd5b8235614521816144f1565b946020939093013593505050565b5f5f5f60608486031215614541575f5ffd5b833561454c816144f1565b9250602084013561455c816144f1565b929592945050506040919091013590565b5f5f6040838503121561457e575f5ffd5b50508035926020909101359150565b5f6020828403121561459d575f5ffd5b81356001600160401b038111156145b2575f5ffd5b8201610140818503121561291a575f5ffd5b5f5f5f606084860312156145d6575f5ffd5b505081359360208301359350604090920135919050565b5f602082840312156145fd575f5ffd5b813561291a816144f1565b5f5f83601f840112614618575f5ffd5b5081356001600160401b0381111561462e575f5ffd5b6020830191508360208260051b8501011115614648575f5ffd5b9250929050565b5f5f5f5f5f5f60808789031215614664575f5ffd5b86356001600160401b03811115614679575f5ffd5b61468589828a01614608565b90975095505060208701356001600160401b038111156146a3575f5ffd5b6146af89828a01614608565b979a9699509760408101359660609091013595509350505050565b8015158114611e98575f5ffd5b5f5f604083850312156146e8575f5ffd5b82356146f3816144f1565b91506020830135614703816146ca565b809150509250929050565b634e487b7160e01b5f52604160045260245ffd5b604051601f8201601f191681016001600160401b038111828210171561474a5761474a61470e565b604052919050565b5f6001600160401b0382111561476a5761476a61470e565b50601f01601f191660200190565b5f5f5f5f6080858703121561478b575f5ffd5b8435614796816144f1565b935060208501356147a6816144f1565b92506040850135915060608501356001600160401b038111156147c7575f5ffd5b8501601f810187136147d7575f5ffd5b80356147ea6147e582614752565b614722565b8181528860208385010111156147fe575f5ffd5b816020840160208301375f6020838301015280935050505092959194509250565b5f5f60408385031215614830575f5ffd5b823561483b816144f1565b91506020830135614703816144f1565b5f8151808452602084019350602083015f5b828110156148845781516001600160a01b031686526020958601959091019060010161485d565b5093949350505050565b5f8151808452602084019350602083015f5b828110156148845781518652602095860195909101906001016148a0565b604081525f6148d0604083018561484b565b82810360208401526148e2818561488e565b95945050505050565b600181811c908216806148ff57607f821691505b60208210810361491d57634e487b7160e01b5f52602260045260245ffd5b50919050565b5f60208284031215614933575f5ffd5b815161291a816144f1565b634e487b7160e01b5f52603260045260245ffd5b5f60208284031215614962575f5ffd5b5051919050565b5f6001600160401b038211156149815761498161470e565b5060051b60200190565b5f6020828403121561499b575f5ffd5b81516001600160401b038111156149b0575f5ffd5b8201601f810184136149c0575f5ffd5b80516149ce6147e582614969565b8082825260208201915060208360051b8501019250868311156149ef575f5ffd5b6020840193505b82841015614a1a578351614a09816144f1565b8252602093840193909101906149f6565b9695505050505050565b828152604060208201525f611bcc604083018461484b565b634e487b7160e01b5f52601160045260245ffd5b808201808211156105d8576105d8614a3c565b5f60208284031215614a73575f5ffd5b815161291a816146ca565b80820281158282048414176105d8576105d8614a3c565b5f82614aaf57634e487b7160e01b5f52601260045260245ffd5b500490565b5f5f8335601e19843603018112614ac9575f5ffd5b8301803591506001600160401b03821115614ae2575f5ffd5b6020019150600581901b3603821315614648575f5ffd5b5f5f8335601e19843603018112614b0e575f5ffd5b8301803591506001600160401b03821115614b27575f5ffd5b602001915036819003821315614648575f5ffd5b601f82111561098f57805f5260205f20601f840160051c81016020851015614b605750805b601f840160051c820191505b81811015611a3d575f8155600101614b6c565b6001600160401b03831115614b9657614b9661470e565b614baa83614ba483546148eb565b83614b3b565b5f601f841160018114614bdb575f8515614bc45750838201355b5f19600387901b1c1916600186901b178355611a3d565b5f83815260208120601f198716915b82811015614c0a5786850135825560209485019460019092019101614bea565b5086821015614c26575f1960f88860031b161c19848701351681555b505060018560011b0183555050505050565b5f60208284031215614c48575f5ffd5b81516001600160401b03811115614c5d575f5ffd5b8201601f81018413614c6d575f5ffd5b8051614c7b6147e582614969565b8082825260208201915060208360051b850101925086831115614c9c575f5ffd5b6020840193505b82841015614a1a578351825260209384019390910190614ca3565b805161ffff81168114614ccf575f5ffd5b919050565b5f5f5f5f60808587031215614ce7575f5ffd5b614cf085614cbe565b9350614cfe60208601614cbe565b9250614d0c60408601614cbe565b91506060850151614d1c816144f1565b939692955090935050565b818103818111156105d8576105d8614a3c565b6001600160a01b03831681526040602082018190525f90611bcc9083018461488e565b5f81518060208401855e5f93019283525090919050565b5f611bcc614d828386614d5d565b84614d5d565b5f60208284031215614d98575f5ffd5b81516001600160401b03811115614dad575f5ffd5b8201601f81018413614dbd575f5ffd5b8051614dcb6147e582614752565b818152856020838501011115614ddf575f5ffd5b8160208401602083015e5f91810160200191909152949350505050565b6020808252602d908201527f4552433732313a2063616c6c6572206973206e6f7420746f6b656e206f776e6560408201526c1c881bdc88185c1c1c9bdd9959609a1b606082015260800190565b6020808252602b908201527f496e697469616c697a61626c653a20636f6e7472616374206973206e6f74206960408201526a6e697469616c697a696e6760a81b606082015260800190565b5f60208284031215614ea4575f5ffd5b61291a82614cbe565b81516001600160401b03811115614ec657614ec661470e565b614eda81614ed484546148eb565b84614b3b565b6020601f821160018114614f0c575f8315614ef55750848201515b5f19600385901b1c1916600184901b178455611a3d565b5f84815260208120601f198516915b82811015614f3b5787850151825560209485019460019092019101614f1b565b5084821015614f5857868401515f19600387901b60f8161c191681555b50505050600190811b01905550565b848152608060208201525f614f7f608083018661484b565b6001600160a01b03949094166040830152506060015292915050565b60208082526025908201527f4552433732313a207472616e736665722066726f6d20696e636f72726563742060408201526437bbb732b960d91b606082015260800190565b60208082526032908201527f4552433732313a207472616e7366657220746f206e6f6e20455243373231526560408201527131b2b4bb32b91034b6b83632b6b2b73a32b960711b606082015260800190565b85815284602082015260a060408201525f61505060a083018661484b565b6001600160a01b0394909416606083015250608001529392505050565b5f8154808452602084019350825f5260205f205f5b82811015614884578154865260209095019460019182019101615082565b608080825285549082018190525f86815260208120909160a0840190835b818110156150e55783546001600160a01b03168352600193840193602090930192016150be565b505083810360208501526150f9818861506d565b915050828103604084015261510e818661484b565b90508281036060840152614288818561488e565b602081525f61291a602083018461484b565b6001600160a01b03858116825284166020820152604081018390526080606082018190525f90614a1a9083018461449a565b5f60208284031215615176575f5ffd5b815161291a8161446a565b5f61291a8284614d5d56fea264697066735822122093490b07df8e8015667cb58a887180ce0d71ed9364dfc08e155d2fc9a66edea364736f6c634300081e0033",
			"opcodes": "PUSH1 0x80 PUSH1 0x40 MSTORE CALLVALUE DUP1 ISZERO PUSH1 0xE JUMPI PUSH0 PUSH0 REVERT JUMPDEST POP PUSH2 0x51C2 DUP1 PUSH2 0x1C PUSH0 CODECOPY PUSH0 RETURN INVALID PUSH1 0x80 PUSH1 0x40 MSTORE PUSH1 0x4 CALLDATASIZE LT PUSH2 0x1D3 JUMPI PUSH0 CALLDATALOAD PUSH1 0xE0 SHR DUP1 PUSH4 0x893D20E8 GT PUSH2 0xFD JUMPI DUP1 PUSH4 0xC45A0155 GT PUSH2 0x92 JUMPI DUP1 PUSH4 0xE8A3D485 GT PUSH2 0x62 JUMPI DUP1 PUSH4 0xE8A3D485 EQ PUSH2 0x55F JUMPI DUP1 PUSH4 0xE985E9C5 EQ PUSH2 0x573 JUMPI DUP1 PUSH4 0xFF332AB7 EQ PUSH2 0x592 JUMPI DUP1 PUSH4 0xFFE8E372 EQ PUSH2 0x5B4 JUMPI PUSH0 PUSH0 REVERT JUMPDEST DUP1 PUSH4 0xC45A0155 EQ PUSH2 0x4E3 JUMPI DUP1 PUSH4 0xC87B56DD EQ PUSH2 0x502 JUMPI DUP1 PUSH4 0xD32429CE EQ PUSH2 0x521 JUMPI DUP1 PUSH4 0xDF7A1061 EQ PUSH2 0x540 JUMPI PUSH0 PUSH0 REVERT JUMPDEST DUP1 PUSH4 0xA22CB465 GT PUSH2 0xCD JUMPI DUP1 PUSH4 0xA22CB465 EQ PUSH2 0x472 JUMPI DUP1 PUSH4 0xAF640D0F EQ PUSH2 0x491 JUMPI DUP1 PUSH4 0xB88D4FDE EQ PUSH2 0x4A5 JUMPI DUP1 PUSH4 0xC1E03728 EQ PUSH2 0x4C4 JUMPI PUSH0 PUSH0 REVERT JUMPDEST DUP1 PUSH4 0x893D20E8 EQ PUSH2 0x418 JUMPI DUP1 PUSH4 0x8C590917 EQ PUSH2 0x42C JUMPI DUP1 PUSH4 0x95D89B41 EQ PUSH2 0x43F JUMPI DUP1 PUSH4 0x9FF253F9 EQ PUSH2 0x453 JUMPI PUSH0 PUSH0 REVERT JUMPDEST DUP1 PUSH4 0x42842E0E GT PUSH2 0x173 JUMPI DUP1 PUSH4 0x70A08231 GT PUSH2 0x143 JUMPI DUP1 PUSH4 0x70A08231 EQ PUSH2 0x3B1 JUMPI DUP1 PUSH4 0x7284E416 EQ PUSH2 0x3D0 JUMPI DUP1 PUSH4 0x7E1C0C09 EQ PUSH2 0x3E4 JUMPI DUP1 PUSH4 0x87244B9C EQ PUSH2 0x3F9 JUMPI PUSH0 PUSH0 REVERT JUMPDEST DUP1 PUSH4 0x42842E0E EQ PUSH2 0x335 JUMPI DUP1 PUSH4 0x478ECD90 EQ PUSH2 0x354 JUMPI DUP1 PUSH4 0x4C306528 EQ PUSH2 0x373 JUMPI DUP1 PUSH4 0x6352211E EQ PUSH2 0x392 JUMPI PUSH0 PUSH0 REVERT JUMPDEST DUP1 PUSH4 0x83C01F3 GT PUSH2 0x1AE JUMPI DUP1 PUSH4 0x83C01F3 EQ PUSH2 0x297 JUMPI DUP1 PUSH4 0x95EA7B3 EQ PUSH2 0x2B9 JUMPI DUP1 PUSH4 0x23B872DD EQ PUSH2 0x2D8 JUMPI DUP1 PUSH4 0x2A55205A EQ PUSH2 0x2F7 JUMPI PUSH0 PUSH0 REVERT JUMPDEST DUP1 PUSH4 0x1FFC9A7 EQ PUSH2 0x20B JUMPI DUP1 PUSH4 0x6FDDE03 EQ PUSH2 0x23F JUMPI DUP1 PUSH4 0x81812FC EQ PUSH2 0x260 JUMPI PUSH0 PUSH0 REVERT JUMPDEST CALLDATASIZE PUSH2 0x207 JUMPI PUSH2 0x1E1 CALLER PUSH2 0x5C9 JUMP JUMPDEST PUSH2 0x205 JUMPI PUSH1 0x40 MLOAD PUSH4 0x3FCC3F17 PUSH1 0xE0 SHL DUP2 MSTORE CALLER PUSH1 0x4 DUP3 ADD MSTORE PUSH1 0x24 ADD JUMPDEST PUSH1 0x40 MLOAD DUP1 SWAP2 SUB SWAP1 REVERT JUMPDEST STOP JUMPDEST PUSH0 PUSH0 REVERT JUMPDEST CALLVALUE DUP1 ISZERO PUSH2 0x216 JUMPI PUSH0 PUSH0 REVERT JUMPDEST POP PUSH2 0x22A PUSH2 0x225 CALLDATASIZE PUSH1 0x4 PUSH2 0x447F JUMP JUMPDEST PUSH2 0x5DE JUMP JUMPDEST PUSH1 0x40 MLOAD SWAP1 ISZERO ISZERO DUP2 MSTORE PUSH1 0x20 ADD JUMPDEST PUSH1 0x40 MLOAD DUP1 SWAP2 SUB SWAP1 RETURN JUMPDEST CALLVALUE DUP1 ISZERO PUSH2 0x24A JUMPI PUSH0 PUSH0 REVERT JUMPDEST POP PUSH2 0x253 PUSH2 0x60E JUMP JUMPDEST PUSH1 0x40 MLOAD PUSH2 0x236 SWAP2 SWAP1 PUSH2 0x44C8 JUMP JUMPDEST CALLVALUE DUP1 ISZERO PUSH2 0x26B JUMPI PUSH0 PUSH0 REVERT JUMPDEST POP PUSH2 0x27F PUSH2 0x27A CALLDATASIZE PUSH1 0x4 PUSH2 0x44DA JUMP JUMPDEST PUSH2 0x69E JUMP JUMPDEST PUSH1 0x40 MLOAD PUSH1 0x1 PUSH1 0x1 PUSH1 0xA0 SHL SUB SWAP1 SWAP2 AND DUP2 MSTORE PUSH1 0x20 ADD PUSH2 0x236 JUMP JUMPDEST CALLVALUE DUP1 ISZERO PUSH2 0x2A2 JUMPI PUSH0 PUSH0 REVERT JUMPDEST POP PUSH2 0x2AB PUSH2 0x6C3 JUMP JUMPDEST PUSH1 0x40 MLOAD SWAP1 DUP2 MSTORE PUSH1 0x20 ADD PUSH2 0x236 JUMP JUMPDEST CALLVALUE DUP1 ISZERO PUSH2 0x2C4 JUMPI PUSH0 PUSH0 REVERT JUMPDEST POP PUSH2 0x205 PUSH2 0x2D3 CALLDATASIZE PUSH1 0x4 PUSH2 0x4505 JUMP JUMPDEST PUSH2 0x8E3 JUMP JUMPDEST CALLVALUE DUP1 ISZERO PUSH2 0x2E3 JUMPI PUSH0 PUSH0 REVERT JUMPDEST POP PUSH2 0x205 PUSH2 0x2F2 CALLDATASIZE PUSH1 0x4 PUSH2 0x452F JUMP JUMPDEST PUSH2 0x994 JUMP JUMPDEST CALLVALUE DUP1 ISZERO PUSH2 0x302 JUMPI PUSH0 PUSH0 REVERT JUMPDEST POP PUSH2 0x316 PUSH2 0x311 CALLDATASIZE PUSH1 0x4 PUSH2 0x456D JUMP JUMPDEST PUSH2 0xA47 JUMP JUMPDEST PUSH1 0x40 DUP1 MLOAD PUSH1 0x1 PUSH1 0x1 PUSH1 0xA0 SHL SUB SWAP1 SWAP4 AND DUP4 MSTORE PUSH1 0x20 DUP4 ADD SWAP2 SWAP1 SWAP2 MSTORE ADD PUSH2 0x236 JUMP JUMPDEST CALLVALUE DUP1 ISZERO PUSH2 0x340 JUMPI PUSH0 PUSH0 REVERT JUMPDEST POP PUSH2 0x205 PUSH2 0x34F CALLDATASIZE PUSH1 0x4 PUSH2 0x452F JUMP JUMPDEST PUSH2 0xB6E JUMP JUMPDEST CALLVALUE DUP1 ISZERO PUSH2 0x35F JUMPI PUSH0 PUSH0 REVERT JUMPDEST POP PUSH2 0x205 PUSH2 0x36E CALLDATASIZE PUSH1 0x4 PUSH2 0x458D JUMP JUMPDEST PUSH2 0xC1B JUMP JUMPDEST CALLVALUE DUP1 ISZERO PUSH2 0x37E JUMPI PUSH0 PUSH0 REVERT JUMPDEST POP PUSH2 0x205 PUSH2 0x38D CALLDATASIZE PUSH1 0x4 PUSH2 0x45C4 JUMP JUMPDEST PUSH2 0xFC8 JUMP JUMPDEST CALLVALUE DUP1 ISZERO PUSH2 0x39D JUMPI PUSH0 PUSH0 REVERT JUMPDEST POP PUSH2 0x27F PUSH2 0x3AC CALLDATASIZE PUSH1 0x4 PUSH2 0x44DA JUMP JUMPDEST PUSH2 0x120D JUMP JUMPDEST CALLVALUE DUP1 ISZERO PUSH2 0x3BC JUMPI PUSH0 PUSH0 REVERT JUMPDEST POP PUSH2 0x2AB PUSH2 0x3CB CALLDATASIZE PUSH1 0x4 PUSH2 0x45ED JUMP JUMPDEST PUSH2 0x126C JUMP JUMPDEST CALLVALUE DUP1 ISZERO PUSH2 0x3DB JUMPI PUSH0 PUSH0 REVERT JUMPDEST POP PUSH2 0x253 PUSH2 0x12F0 JUMP JUMPDEST CALLVALUE DUP1 ISZERO PUSH2 0x3EF JUMPI PUSH0 PUSH0 REVERT JUMPDEST POP PUSH2 0x100 SLOAD PUSH2 0x2AB JUMP JUMPDEST CALLVALUE DUP1 ISZERO PUSH2 0x404 JUMPI PUSH0 PUSH0 REVERT JUMPDEST POP PUSH2 0x205 PUSH2 0x413 CALLDATASIZE PUSH1 0x4 PUSH2 0x45C4 JUMP JUMPDEST PUSH2 0x137C JUMP JUMPDEST CALLVALUE DUP1 ISZERO PUSH2 0x423 JUMPI PUSH0 PUSH0 REVERT JUMPDEST POP PUSH2 0x27F PUSH2 0x1607 JUMP JUMPDEST PUSH2 0x205 PUSH2 0x43A CALLDATASIZE PUSH1 0x4 PUSH2 0x456D JUMP JUMPDEST PUSH2 0x1616 JUMP JUMPDEST CALLVALUE DUP1 ISZERO PUSH2 0x44A JUMPI PUSH0 PUSH0 REVERT JUMPDEST POP PUSH2 0x253 PUSH2 0x17D8 JUMP JUMPDEST CALLVALUE DUP1 ISZERO PUSH2 0x45E JUMPI PUSH0 PUSH0 REVERT JUMPDEST POP PUSH2 0x205 PUSH2 0x46D CALLDATASIZE PUSH1 0x4 PUSH2 0x464F JUMP JUMPDEST PUSH2 0x17E7 JUMP JUMPDEST CALLVALUE DUP1 ISZERO PUSH2 0x47D JUMPI PUSH0 PUSH0 REVERT JUMPDEST POP PUSH2 0x205 PUSH2 0x48C CALLDATASIZE PUSH1 0x4 PUSH2 0x46D7 JUMP JUMPDEST PUSH2 0x18CC JUMP JUMPDEST CALLVALUE DUP1 ISZERO PUSH2 0x49C JUMPI PUSH0 PUSH0 REVERT JUMPDEST POP PUSH2 0x253 PUSH2 0x1982 JUMP JUMPDEST CALLVALUE DUP1 ISZERO PUSH2 0x4B0 JUMPI PUSH0 PUSH0 REVERT JUMPDEST POP PUSH2 0x205 PUSH2 0x4BF CALLDATASIZE PUSH1 0x4 PUSH2 0x4778 JUMP JUMPDEST PUSH2 0x198F JUMP JUMPDEST CALLVALUE DUP1 ISZERO PUSH2 0x4CF JUMPI PUSH0 PUSH0 REVERT JUMPDEST POP PUSH2 0x316 PUSH2 0x4DE CALLDATASIZE PUSH1 0x4 PUSH2 0x44DA JUMP JUMPDEST PUSH2 0x1A44 JUMP JUMPDEST CALLVALUE DUP1 ISZERO PUSH2 0x4EE JUMPI PUSH0 PUSH0 REVERT JUMPDEST POP PUSH1 0xFC SLOAD PUSH2 0x27F SWAP1 PUSH1 0x1 PUSH1 0x1 PUSH1 0xA0 SHL SUB AND DUP2 JUMP JUMPDEST CALLVALUE DUP1 ISZERO PUSH2 0x50D JUMPI PUSH0 PUSH0 REVERT JUMPDEST POP PUSH2 0x253 PUSH2 0x51C CALLDATASIZE PUSH1 0x4 PUSH2 0x44DA JUMP JUMPDEST PUSH2 0x1ACA JUMP JUMPDEST CALLVALUE DUP1 ISZERO PUSH2 0x52C JUMPI PUSH0 PUSH0 REVERT JUMPDEST POP PUSH2 0x205 PUSH2 0x53B CALLDATASIZE PUSH1 0x4 PUSH2 0x464F JUMP JUMPDEST PUSH2 0x1BD4 JUMP JUMPDEST CALLVALUE DUP1 ISZERO PUSH2 0x54B JUMPI PUSH0 PUSH0 REVERT JUMPDEST POP PUSH1 0xFB SLOAD PUSH2 0x27F SWAP1 PUSH1 0x1 PUSH1 0x1 PUSH1 0xA0 SHL SUB AND DUP2 JUMP JUMPDEST CALLVALUE DUP1 ISZERO PUSH2 0x56A JUMPI PUSH0 PUSH0 REVERT JUMPDEST POP PUSH2 0x253 PUSH2 0x1CB4 JUMP JUMPDEST CALLVALUE DUP1 ISZERO PUSH2 0x57E JUMPI PUSH0 PUSH0 REVERT JUMPDEST POP PUSH2 0x22A PUSH2 0x58D CALLDATASIZE PUSH1 0x4 PUSH2 0x481F JUMP JUMPDEST PUSH2 0x1D29 JUMP JUMPDEST CALLVALUE DUP1 ISZERO PUSH2 0x59D JUMPI PUSH0 PUSH0 REVERT JUMPDEST POP PUSH2 0x5A6 PUSH2 0x1D56 JUMP JUMPDEST PUSH1 0x40 MLOAD PUSH2 0x236 SWAP3 SWAP2 SWAP1 PUSH2 0x48BE JUMP JUMPDEST CALLVALUE DUP1 ISZERO PUSH2 0x5BF JUMPI PUSH0 PUSH0 REVERT JUMPDEST POP PUSH2 0x2AB PUSH2 0x2710 DUP2 JUMP JUMPDEST PUSH0 PUSH1 0x1 PUSH1 0x1 PUSH1 0xA0 SHL SUB DUP3 AND EXTCODESIZE ISZERO ISZERO JUMPDEST SWAP3 SWAP2 POP POP JUMP JUMPDEST PUSH0 PUSH2 0x5E8 DUP3 PUSH2 0x1E16 JUMP JUMPDEST DUP1 PUSH2 0x5D8 JUMPI POP POP PUSH1 0x1 PUSH1 0x1 PUSH1 0xE0 SHL SUB NOT AND PUSH0 SWAP1 DUP2 MSTORE PUSH1 0xFF PUSH1 0x20 DUP2 SWAP1 MSTORE PUSH1 0x40 SWAP1 SWAP2 KECCAK256 SLOAD AND SWAP1 JUMP JUMPDEST PUSH1 0x60 PUSH1 0x65 DUP1 SLOAD PUSH2 0x61D SWAP1 PUSH2 0x48EB JUMP JUMPDEST DUP1 PUSH1 0x1F ADD PUSH1 0x20 DUP1 SWAP2 DIV MUL PUSH1 0x20 ADD PUSH1 0x40 MLOAD SWAP1 DUP2 ADD PUSH1 0x40 MSTORE DUP1 SWAP3 SWAP2 SWAP1 DUP2 DUP2 MSTORE PUSH1 0x20 ADD DUP3 DUP1 SLOAD PUSH2 0x649 SWAP1 PUSH2 0x48EB JUMP JUMPDEST DUP1 ISZERO PUSH2 0x694 JUMPI DUP1 PUSH1 0x1F LT PUSH2 0x66B JUMPI PUSH2 0x100 DUP1 DUP4 SLOAD DIV MUL DUP4 MSTORE SWAP2 PUSH1 0x20 ADD SWAP2 PUSH2 0x694 JUMP JUMPDEST DUP3 ADD SWAP2 SWAP1 PUSH0 MSTORE PUSH1 0x20 PUSH0 KECCAK256 SWAP1 JUMPDEST DUP2 SLOAD DUP2 MSTORE SWAP1 PUSH1 0x1 ADD SWAP1 PUSH1 0x20 ADD DUP1 DUP4 GT PUSH2 0x677 JUMPI DUP3 SWAP1 SUB PUSH1 0x1F AND DUP3 ADD SWAP2 JUMPDEST POP POP POP POP POP SWAP1 POP SWAP1 JUMP JUMPDEST PUSH0 PUSH2 0x6A8 DUP3 PUSH2 0x1E3A JUMP JUMPDEST POP PUSH0 SWAP1 DUP2 MSTORE PUSH1 0x69 PUSH1 0x20 MSTORE PUSH1 0x40 SWAP1 KECCAK256 SLOAD PUSH1 0x1 PUSH1 0x1 PUSH1 0xA0 SHL SUB AND SWAP1 JUMP JUMPDEST PUSH0 PUSH0 PUSH2 0x6D7 PUSH1 0xFC SLOAD PUSH1 0x1 PUSH1 0x1 PUSH1 0xA0 SHL SUB AND SWAP1 JUMP JUMPDEST SWAP1 POP PUSH0 DUP2 PUSH1 0x1 PUSH1 0x1 PUSH1 0xA0 SHL SUB AND PUSH4 0x3FC8CEF3 PUSH1 0x40 MLOAD DUP2 PUSH4 0xFFFFFFFF AND PUSH1 0xE0 SHL DUP2 MSTORE PUSH1 0x4 ADD PUSH1 0x20 PUSH1 0x40 MLOAD DUP1 DUP4 SUB DUP2 DUP7 GAS STATICCALL ISZERO DUP1 ISZERO PUSH2 0x716 JUMPI RETURNDATASIZE PUSH0 PUSH0 RETURNDATACOPY RETURNDATASIZE PUSH0 REVERT JUMPDEST POP POP POP POP PUSH1 0x40 MLOAD RETURNDATASIZE PUSH1 0x1F NOT PUSH1 0x1F DUP3 ADD AND DUP3 ADD DUP1 PUSH1 0x40 MSTORE POP DUP2 ADD SWAP1 PUSH2 0x73A SWAP2 SWAP1 PUSH2 0x4923 JUMP JUMPDEST PUSH2 0x100 SLOAD SWAP1 SWAP2 POP PUSH0 JUMPDEST DUP2 DUP2 LT ISZERO PUSH2 0x8DC JUMPI PUSH0 PUSH2 0x100 PUSH0 ADD DUP3 DUP2 SLOAD DUP2 LT PUSH2 0x762 JUMPI PUSH2 0x762 PUSH2 0x493E JUMP JUMPDEST PUSH0 SWAP2 DUP3 MSTORE PUSH1 0x20 DUP3 KECCAK256 ADD SLOAD PUSH1 0xFB SLOAD PUSH1 0x40 MLOAD PUSH4 0x239CFC6D PUSH1 0xE2 SHL DUP2 MSTORE PUSH1 0x4 DUP2 ADD DUP7 SWAP1 MSTORE PUSH1 0x1 PUSH1 0x1 PUSH1 0xA0 SHL SUB SWAP3 DUP4 AND SWAP5 POP SWAP2 AND SWAP1 PUSH4 0x8E73F1B4 SWAP1 PUSH1 0x24 ADD PUSH1 0x20 PUSH1 0x40 MLOAD DUP1 DUP4 SUB DUP2 DUP7 GAS STATICCALL ISZERO DUP1 ISZERO PUSH2 0x7B7 JUMPI RETURNDATASIZE PUSH0 PUSH0 RETURNDATACOPY RETURNDATASIZE PUSH0 REVERT JUMPDEST POP POP POP POP PUSH1 0x40 MLOAD RETURNDATASIZE PUSH1 0x1F NOT PUSH1 0x1F DUP3 ADD AND DUP3 ADD DUP1 PUSH1 0x40 MSTORE POP DUP2 ADD SWAP1 PUSH2 0x7DB SWAP2 SWAP1 PUSH2 0x4952 JUMP JUMPDEST PUSH1 0x40 MLOAD PUSH4 0xD88E3E3B PUSH1 0xE0 SHL DUP2 MSTORE PUSH1 0x1 PUSH1 0x1 PUSH1 0xA0 SHL SUB DUP5 DUP2 AND PUSH1 0x4 DUP4 ADD MSTORE DUP8 DUP2 AND PUSH1 0x24 DUP4 ADD MSTORE SWAP2 SWAP3 POP PUSH0 SWAP2 DUP9 AND SWAP1 PUSH4 0xD88E3E3B SWAP1 PUSH1 0x44 ADD PUSH0 PUSH1 0x40 MLOAD DUP1 DUP4 SUB DUP2 DUP7 GAS STATICCALL ISZERO DUP1 ISZERO PUSH2 0x82B JUMPI RETURNDATASIZE PUSH0 PUSH0 RETURNDATACOPY RETURNDATASIZE PUSH0 REVERT JUMPDEST POP POP POP POP PUSH1 0x40 MLOAD RETURNDATASIZE PUSH0 DUP3 RETURNDATACOPY PUSH1 0x1F RETURNDATASIZE SWAP1 DUP2 ADD PUSH1 0x1F NOT AND DUP3 ADD PUSH1 0x40 MSTORE PUSH2 0x852 SWAP2 SWAP1 DUP2 ADD SWAP1 PUSH2 0x498B JUMP JUMPDEST PUSH1 0x40 MLOAD PUSH4 0xD06CA61F PUSH1 0xE0 SHL DUP2 MSTORE SWAP1 SWAP2 POP PUSH1 0x1 PUSH1 0x1 PUSH1 0xA0 SHL SUB DUP9 AND SWAP1 PUSH4 0xD06CA61F SWAP1 PUSH2 0x883 SWAP1 DUP6 SWAP1 DUP6 SWAP1 PUSH1 0x4 ADD PUSH2 0x4A24 JUMP JUMPDEST PUSH1 0x20 PUSH1 0x40 MLOAD DUP1 DUP4 SUB DUP2 DUP7 GAS STATICCALL ISZERO DUP1 ISZERO PUSH2 0x89E JUMPI RETURNDATASIZE PUSH0 PUSH0 RETURNDATACOPY RETURNDATASIZE PUSH0 REVERT JUMPDEST POP POP POP POP PUSH1 0x40 MLOAD RETURNDATASIZE PUSH1 0x1F NOT PUSH1 0x1F DUP3 ADD AND DUP3 ADD DUP1 PUSH1 0x40 MSTORE POP DUP2 ADD SWAP1 PUSH2 0x8C2 SWAP2 SWAP1 PUSH2 0x4952 JUMP JUMPDEST PUSH2 0x8CC SWAP1 DUP10 PUSH2 0x4A50 JUMP JUMPDEST SWAP8 POP DUP4 PUSH1 0x1 ADD SWAP4 POP POP POP POP PUSH2 0x743 JUMP JUMPDEST POP POP POP POP SWAP1 JUMP JUMPDEST DUP2 PUSH2 0x8ED DUP2 PUSH2 0x5C9 JUMP JUMPDEST ISZERO PUSH2 0x985 JUMPI PUSH1 0xFC SLOAD PUSH1 0x1 PUSH1 0x1 PUSH1 0xA0 SHL SUB AND PUSH1 0x40 MLOAD PUSH4 0x3B9589A9 PUSH1 0xE0 SHL DUP2 MSTORE PUSH1 0x1 PUSH1 0x1 PUSH1 0xA0 SHL SUB DUP4 DUP2 AND PUSH1 0x4 DUP4 ADD MSTORE SWAP2 SWAP1 SWAP2 AND SWAP1 PUSH4 0x3B9589A9 SWAP1 PUSH1 0x24 ADD PUSH1 0x20 PUSH1 0x40 MLOAD DUP1 DUP4 SUB DUP2 DUP7 GAS STATICCALL ISZERO DUP1 ISZERO PUSH2 0x944 JUMPI RETURNDATASIZE PUSH0 PUSH0 RETURNDATACOPY RETURNDATASIZE PUSH0 REVERT JUMPDEST POP POP POP POP PUSH1 0x40 MLOAD RETURNDATASIZE PUSH1 0x1F NOT PUSH1 0x1F DUP3 ADD AND DUP3 ADD DUP1 PUSH1 0x40 MSTORE POP DUP2 ADD SWAP1 PUSH2 0x968 SWAP2 SWAP1 PUSH2 0x4A63 JUMP JUMPDEST PUSH2 0x985 JUMPI PUSH1 0x40 MLOAD PUSH4 0x2FF3629F PUSH1 0xE2 SHL DUP2 MSTORE PUSH1 0x4 ADD PUSH1 0x40 MLOAD DUP1 SWAP2 SUB SWAP1 REVERT JUMPDEST PUSH2 0x98F DUP4 DUP4 PUSH2 0x1E9B JUMP JUMPDEST POP POP POP JUMP JUMPDEST DUP2 PUSH2 0x99E DUP2 PUSH2 0x5C9 JUMP JUMPDEST ISZERO PUSH2 0xA36 JUMPI PUSH1 0xFC SLOAD PUSH1 0x1 PUSH1 0x1 PUSH1 0xA0 SHL SUB AND PUSH1 0x40 MLOAD PUSH4 0x3B9589A9 PUSH1 0xE0 SHL DUP2 MSTORE PUSH1 0x1 PUSH1 0x1 PUSH1 0xA0 SHL SUB DUP4 DUP2 AND PUSH1 0x4 DUP4 ADD MSTORE SWAP2 SWAP1 SWAP2 AND SWAP1 PUSH4 0x3B9589A9 SWAP1 PUSH1 0x24 ADD PUSH1 0x20 PUSH1 0x40 MLOAD DUP1 DUP4 SUB DUP2 DUP7 GAS STATICCALL ISZERO DUP1 ISZERO PUSH2 0x9F5 JUMPI RETURNDATASIZE PUSH0 PUSH0 RETURNDATACOPY RETURNDATASIZE PUSH0 REVERT JUMPDEST POP POP POP POP PUSH1 0x40 MLOAD RETURNDATASIZE PUSH1 0x1F NOT PUSH1 0x1F DUP3 ADD AND DUP3 ADD DUP1 PUSH1 0x40 MSTORE POP DUP2 ADD SWAP1 PUSH2 0xA19 SWAP2 SWAP1 PUSH2 0x4A63 JUMP JUMPDEST PUSH2 0xA36 JUMPI PUSH1 0x40 MLOAD PUSH4 0x2FF3629F PUSH1 0xE2 SHL DUP2 MSTORE PUSH1 0x4 ADD PUSH1 0x40 MLOAD DUP1 SWAP2 SUB SWAP1 REVERT JUMPDEST PUSH2 0xA41 DUP5 DUP5 DUP5 PUSH2 0x1FAA JUMP JUMPDEST POP POP POP POP JUMP JUMPDEST PUSH0 PUSH0 PUSH2 0xA5B PUSH1 0xFC SLOAD PUSH1 0x1 PUSH1 0x1 PUSH1 0xA0 SHL SUB AND SWAP1 JUMP JUMPDEST PUSH1 0x1 PUSH1 0x1 PUSH1 0xA0 SHL SUB AND PUSH4 0x9FBC8713 PUSH1 0x40 MLOAD DUP2 PUSH4 0xFFFFFFFF AND PUSH1 0xE0 SHL DUP2 MSTORE PUSH1 0x4 ADD PUSH1 0x20 PUSH1 0x40 MLOAD DUP1 DUP4 SUB DUP2 DUP7 GAS STATICCALL ISZERO DUP1 ISZERO PUSH2 0xA96 JUMPI RETURNDATASIZE PUSH0 PUSH0 RETURNDATACOPY RETURNDATASIZE PUSH0 REVERT JUMPDEST POP POP POP POP PUSH1 0x40 MLOAD RETURNDATASIZE PUSH1 0x1F NOT PUSH1 0x1F DUP3 ADD AND DUP3 ADD DUP1 PUSH1 0x40 MSTORE POP DUP2 ADD SWAP1 PUSH2 0xABA SWAP2 SWAP1 PUSH2 0x4923 JUMP JUMPDEST SWAP2 POP PUSH0 PUSH2 0xACF PUSH1 0xFC SLOAD PUSH1 0x1 PUSH1 0x1 PUSH1 0xA0 SHL SUB AND SWAP1 JUMP JUMPDEST PUSH1 0x1 PUSH1 0x1 PUSH1 0xA0 SHL SUB AND PUSH4 0x8A71BB2D PUSH1 0x40 MLOAD DUP2 PUSH4 0xFFFFFFFF AND PUSH1 0xE0 SHL DUP2 MSTORE PUSH1 0x4 ADD PUSH1 0x20 PUSH1 0x40 MLOAD DUP1 DUP4 SUB DUP2 DUP7 GAS STATICCALL ISZERO DUP1 ISZERO PUSH2 0xB0A JUMPI RETURNDATASIZE PUSH0 PUSH0 RETURNDATACOPY RETURNDATASIZE PUSH0 REVERT JUMPDEST POP POP POP POP PUSH1 0x40 MLOAD RETURNDATASIZE PUSH1 0x1F NOT PUSH1 0x1F DUP3 ADD AND DUP3 ADD DUP1 PUSH1 0x40 MSTORE POP DUP2 ADD SWAP1 PUSH2 0xB2E SWAP2 SWAP1 PUSH2 0x4952 JUMP JUMPDEST SWAP1 POP PUSH0 DUP2 GT DUP1 ISZERO PUSH2 0xB47 JUMPI POP PUSH1 0x1 PUSH1 0x1 PUSH1 0xA0 SHL SUB DUP4 AND ISZERO ISZERO JUMPDEST ISZERO PUSH2 0xB66 JUMPI PUSH2 0x2710 PUSH2 0xB59 DUP3 DUP7 PUSH2 0x4A7E JUMP JUMPDEST PUSH2 0xB63 SWAP2 SWAP1 PUSH2 0x4A95 JUMP JUMPDEST SWAP2 POP JUMPDEST POP SWAP3 POP SWAP3 SWAP1 POP JUMP JUMPDEST DUP2 PUSH2 0xB78 DUP2 PUSH2 0x5C9 JUMP JUMPDEST ISZERO PUSH2 0xC10 JUMPI PUSH1 0xFC SLOAD PUSH1 0x1 PUSH1 0x1 PUSH1 0xA0 SHL SUB AND PUSH1 0x40 MLOAD PUSH4 0x3B9589A9 PUSH1 0xE0 SHL DUP2 MSTORE PUSH1 0x1 PUSH1 0x1 PUSH1 0xA0 SHL SUB DUP4 DUP2 AND PUSH1 0x4 DUP4 ADD MSTORE SWAP2 SWAP1 SWAP2 AND SWAP1 PUSH4 0x3B9589A9 SWAP1 PUSH1 0x24 ADD PUSH1 0x20 PUSH1 0x40 MLOAD DUP1 DUP4 SUB DUP2 DUP7 GAS STATICCALL ISZERO DUP1 ISZERO PUSH2 0xBCF JUMPI RETURNDATASIZE PUSH0 PUSH0 RETURNDATACOPY RETURNDATASIZE PUSH0 REVERT JUMPDEST POP POP POP POP PUSH1 0x40 MLOAD RETURNDATASIZE PUSH1 0x1F NOT PUSH1 0x1F DUP3 ADD AND DUP3 ADD DUP1 PUSH1 0x40 MSTORE POP DUP2 ADD SWAP1 PUSH2 0xBF3 SWAP2 SWAP1 PUSH2 0x4A63 JUMP JUMPDEST PUSH2 0xC10 JUMPI PUSH1 0x40 MLOAD PUSH4 0x2FF3629F PUSH1 0xE2 SHL DUP2 MSTORE PUSH1 0x4 ADD PUSH1 0x40 MLOAD DUP1 SWAP2 SUB SWAP1 REVERT JUMPDEST PUSH2 0xA41 DUP5 DUP5 DUP5 PUSH2 0x1FDB JUMP JUMPDEST PUSH2 0xC28 PUSH1 0x80 DUP3 ADD DUP3 PUSH2 0x4AB4 JUMP JUMPDEST SWAP1 POP PUSH2 0xC37 PUSH1 0xA0 DUP4 ADD DUP4 PUSH2 0x4AB4 JUMP JUMPDEST SWAP1 POP DUP1 DUP3 EQ ISZERO DUP1 PUSH2 0xC46 JUMPI POP DUP2 ISZERO JUMPDEST DUP1 PUSH2 0xC4F JUMPI POP DUP1 ISZERO JUMPDEST ISZERO PUSH2 0xC6D JUMPI PUSH1 0x40 MLOAD PUSH4 0x251F56A1 PUSH1 0xE2 SHL DUP2 MSTORE PUSH1 0x4 ADD PUSH1 0x40 MLOAD DUP1 SWAP2 SUB SWAP1 REVERT JUMPDEST PUSH0 SLOAD PUSH2 0x100 SWAP1 DIV PUSH1 0xFF AND ISZERO DUP1 DUP1 ISZERO PUSH2 0xC8B JUMPI POP PUSH0 SLOAD PUSH1 0x1 PUSH1 0xFF SWAP1 SWAP2 AND LT JUMPDEST DUP1 PUSH2 0xCA4 JUMPI POP ADDRESS EXTCODESIZE ISZERO DUP1 ISZERO PUSH2 0xCA4 JUMPI POP PUSH0 SLOAD PUSH1 0xFF AND PUSH1 0x1 EQ JUMPDEST PUSH2 0xD07 JUMPI PUSH1 0x40 MLOAD PUSH3 0x461BCD PUSH1 0xE5 SHL DUP2 MSTORE PUSH1 0x20 PUSH1 0x4 DUP3 ADD MSTORE PUSH1 0x2E PUSH1 0x24 DUP3 ADD MSTORE PUSH32 0x496E697469616C697A61626C653A20636F6E747261637420697320616C726561 PUSH1 0x44 DUP3 ADD MSTORE PUSH14 0x191E481A5B9A5D1A585B1A5E9959 PUSH1 0x92 SHL PUSH1 0x64 DUP3 ADD MSTORE PUSH1 0x84 ADD PUSH2 0x1FC JUMP JUMPDEST PUSH0 DUP1 SLOAD PUSH1 0xFF NOT AND PUSH1 0x1 OR SWAP1 SSTORE DUP1 ISZERO PUSH2 0xD28 JUMPI PUSH0 DUP1 SLOAD PUSH2 0xFF00 NOT AND PUSH2 0x100 OR SWAP1 SSTORE JUMPDEST PUSH2 0xDAF PUSH2 0xD35 DUP6 DUP1 PUSH2 0x4AF9 JUMP JUMPDEST DUP1 DUP1 PUSH1 0x1F ADD PUSH1 0x20 DUP1 SWAP2 DIV MUL PUSH1 0x20 ADD PUSH1 0x40 MLOAD SWAP1 DUP2 ADD PUSH1 0x40 MSTORE DUP1 SWAP4 SWAP3 SWAP2 SWAP1 DUP2 DUP2 MSTORE PUSH1 0x20 ADD DUP4 DUP4 DUP1 DUP3 DUP5 CALLDATACOPY PUSH0 SWAP3 ADD SWAP2 SWAP1 SWAP2 MSTORE POP PUSH2 0xD76 SWAP3 POP POP POP PUSH1 0x20 DUP8 ADD DUP8 PUSH2 0x4AF9 JUMP JUMPDEST DUP1 DUP1 PUSH1 0x1F ADD PUSH1 0x20 DUP1 SWAP2 DIV MUL PUSH1 0x20 ADD PUSH1 0x40 MLOAD SWAP1 DUP2 ADD PUSH1 0x40 MSTORE DUP1 SWAP4 SWAP3 SWAP2 SWAP1 DUP2 DUP2 MSTORE PUSH1 0x20 ADD DUP4 DUP4 DUP1 DUP3 DUP5 CALLDATACOPY PUSH0 SWAP3 ADD SWAP2 SWAP1 SWAP2 MSTORE POP PUSH2 0x1FF5 SWAP3 POP POP POP JUMP JUMPDEST PUSH2 0xDBF PUSH4 0x152A902D PUSH1 0xE1 SHL PUSH2 0x2025 JUMP JUMPDEST PUSH2 0xDC7 PUSH2 0x2074 JUMP JUMPDEST PUSH2 0xDD7 PUSH1 0x80 DUP6 ADD PUSH1 0x60 DUP7 ADD PUSH2 0x45ED JUMP JUMPDEST PUSH1 0xFC DUP1 SLOAD PUSH1 0x1 PUSH1 0x1 PUSH1 0xA0 SHL SUB NOT AND PUSH1 0x1 PUSH1 0x1 PUSH1 0xA0 SHL SUB SWAP3 SWAP1 SWAP3 AND SWAP2 SWAP1 SWAP2 OR SWAP1 SSTORE PUSH2 0xE05 PUSH2 0x100 DUP6 ADD DUP6 PUSH2 0x4AF9 JUMP JUMPDEST PUSH1 0xFD SWAP2 PUSH2 0xE13 SWAP2 SWAP1 DUP4 PUSH2 0x4B7F JUMP JUMPDEST POP PUSH2 0xE98 PUSH2 0xE24 PUSH1 0x80 DUP7 ADD DUP7 PUSH2 0x4AB4 JUMP JUMPDEST DUP1 DUP1 PUSH1 0x20 MUL PUSH1 0x20 ADD PUSH1 0x40 MLOAD SWAP1 DUP2 ADD PUSH1 0x40 MSTORE DUP1 SWAP4 SWAP3 SWAP2 SWAP1 DUP2 DUP2 MSTORE PUSH1 0x20 ADD DUP4 DUP4 PUSH1 0x20 MUL DUP1 DUP3 DUP5 CALLDATACOPY PUSH0 SWAP3 ADD SWAP2 SWAP1 SWAP2 MSTORE POP PUSH2 0xE62 SWAP3 POP POP POP PUSH1 0xA0 DUP8 ADD DUP8 PUSH2 0x4AB4 JUMP JUMPDEST DUP1 DUP1 PUSH1 0x20 MUL PUSH1 0x20 ADD PUSH1 0x40 MLOAD SWAP1 DUP2 ADD PUSH1 0x40 MSTORE DUP1 SWAP4 SWAP3 SWAP2 SWAP1 DUP2 DUP2 MSTORE PUSH1 0x20 ADD DUP4 DUP4 PUSH1 0x20 MUL DUP1 DUP3 DUP5 CALLDATACOPY PUSH0 SWAP3 ADD SWAP2 SWAP1 SWAP2 MSTORE POP PUSH2 0x20A4 SWAP3 POP POP POP JUMP JUMPDEST PUSH2 0xEA8 PUSH1 0xE0 DUP6 ADD PUSH1 0xC0 DUP7 ADD PUSH2 0x45ED JUMP JUMPDEST PUSH1 0xFB DUP1 SLOAD PUSH1 0x1 PUSH1 0x1 PUSH1 0xA0 SHL SUB NOT AND PUSH1 0x1 PUSH1 0x1 PUSH1 0xA0 SHL SUB SWAP3 SWAP1 SWAP3 AND SWAP2 SWAP1 SWAP2 OR SWAP1 SSTORE PUSH2 0xED5 PUSH1 0x80 DUP6 ADD DUP6 PUSH2 0x4AB4 JUMP JUMPDEST PUSH2 0xEE2 SWAP2 PUSH2 0x100 SWAP2 PUSH2 0x4330 JUMP JUMPDEST POP PUSH2 0xEF0 PUSH1 0xA0 DUP6 ADD DUP6 PUSH2 0x4AB4 JUMP JUMPDEST PUSH2 0xEFD SWAP2 PUSH2 0x101 SWAP2 PUSH2 0x4391 JUMP JUMPDEST POP PUSH2 0xF0C PUSH2 0x120 DUP6 ADD DUP6 PUSH2 0x4AF9 JUMP JUMPDEST PUSH1 0xFE SWAP2 PUSH2 0xF1A SWAP2 SWAP1 DUP4 PUSH2 0x4B7F JUMP JUMPDEST POP PUSH2 0xF34 PUSH2 0xF2E PUSH1 0x60 DUP7 ADD PUSH1 0x40 DUP8 ADD PUSH2 0x45ED JUMP JUMPDEST PUSH0 PUSH2 0x23C0 JUMP JUMPDEST PUSH2 0xF7E PUSH0 PUSH2 0xF45 PUSH1 0xE0 DUP8 ADD DUP8 PUSH2 0x4AF9 JUMP JUMPDEST DUP1 DUP1 PUSH1 0x1F ADD PUSH1 0x20 DUP1 SWAP2 DIV MUL PUSH1 0x20 ADD PUSH1 0x40 MLOAD SWAP1 DUP2 ADD PUSH1 0x40 MSTORE DUP1 SWAP4 SWAP3 SWAP2 SWAP1 DUP2 DUP2 MSTORE PUSH1 0x20 ADD DUP4 DUP4 DUP1 DUP3 DUP5 CALLDATACOPY PUSH0 SWAP3 ADD SWAP2 SWAP1 SWAP2 MSTORE POP PUSH2 0x23D9 SWAP3 POP POP POP JUMP JUMPDEST DUP1 ISZERO PUSH2 0xA41 JUMPI PUSH0 DUP1 SLOAD PUSH2 0xFF00 NOT AND SWAP1 SSTORE PUSH1 0x40 MLOAD PUSH1 0x1 DUP2 MSTORE PUSH32 0x7F26B83FF96E1F2B6A682F133852F6798A09C465DA95921460CEFB3847402498 SWAP1 PUSH1 0x20 ADD PUSH1 0x40 MLOAD DUP1 SWAP2 SUB SWAP1 LOG1 POP POP POP POP JUMP JUMPDEST CALLER PUSH2 0xFD1 PUSH2 0x1607 JUMP JUMPDEST PUSH1 0x1 PUSH1 0x1 PUSH1 0xA0 SHL SUB AND EQ PUSH2 0xFF8 JUMPI PUSH1 0x40 MLOAD PUSH4 0x49E27CFF PUSH1 0xE0 SHL DUP2 MSTORE PUSH1 0x4 ADD PUSH1 0x40 MLOAD DUP1 SWAP2 SUB SWAP1 REVERT JUMPDEST DUP2 ISZERO DUP1 PUSH2 0x1007 JUMPI POP PUSH2 0x1388 DUP3 LT ISZERO JUMPDEST ISZERO PUSH2 0x1037 JUMPI PUSH1 0x40 MLOAD PUSH4 0x1818D2A7 PUSH1 0xE3 SHL DUP2 MSTORE PUSH1 0x4 DUP2 ADD DUP4 SWAP1 MSTORE PUSH1 0x1 PUSH1 0x24 DUP3 ADD MSTORE PUSH2 0x1387 PUSH1 0x44 DUP3 ADD MSTORE PUSH1 0x64 ADD PUSH2 0x1FC JUMP JUMPDEST PUSH0 PUSH2 0x104A PUSH1 0xFC SLOAD PUSH1 0x1 PUSH1 0x1 PUSH1 0xA0 SHL SUB AND SWAP1 JUMP JUMPDEST SWAP1 POP PUSH1 0xFB PUSH0 SWAP1 SLOAD SWAP1 PUSH2 0x100 EXP SWAP1 DIV PUSH1 0x1 PUSH1 0x1 PUSH1 0xA0 SHL SUB AND PUSH1 0x1 PUSH1 0x1 PUSH1 0xA0 SHL SUB AND PUSH4 0xB4B93C8C PUSH1 0x40 MLOAD DUP2 PUSH4 0xFFFFFFFF AND PUSH1 0xE0 SHL DUP2 MSTORE PUSH1 0x4 ADD PUSH0 PUSH1 0x40 MLOAD DUP1 DUP4 SUB DUP2 PUSH0 DUP8 DUP1 EXTCODESIZE ISZERO DUP1 ISZERO PUSH2 0x1098 JUMPI PUSH0 PUSH0 REVERT JUMPDEST POP GAS CALL ISZERO DUP1 ISZERO PUSH2 0x10AA JUMPI RETURNDATASIZE PUSH0 PUSH0 RETURNDATACOPY RETURNDATASIZE PUSH0 REVERT JUMPDEST POP POP PUSH1 0xFB SLOAD PUSH1 0x40 MLOAD PUSH4 0xA9059CBB PUSH1 0xE0 SHL DUP2 MSTORE PUSH1 0x1 PUSH1 0x1 PUSH1 0xA0 SHL SUB SWAP1 SWAP2 AND PUSH1 0x4 DUP3 ADD DUP2 SWAP1 MSTORE PUSH1 0x24 DUP3 ADD DUP9 SWAP1 MSTORE SWAP3 POP PUSH4 0xA9059CBB SWAP2 POP PUSH1 0x44 ADD PUSH1 0x20 PUSH1 0x40 MLOAD DUP1 DUP4 SUB DUP2 PUSH0 DUP8 GAS CALL ISZERO DUP1 ISZERO PUSH2 0x10FD JUMPI RETURNDATASIZE PUSH0 PUSH0 RETURNDATACOPY RETURNDATASIZE PUSH0 REVERT JUMPDEST POP POP POP POP PUSH1 0x40 MLOAD RETURNDATASIZE PUSH1 0x1F NOT PUSH1 0x1F DUP3 ADD AND DUP3 ADD DUP1 PUSH1 0x40 MSTORE POP DUP2 ADD SWAP1 PUSH2 0x1121 SWAP2 SWAP1 PUSH2 0x4A63 JUMP JUMPDEST POP PUSH1 0xFB SLOAD PUSH1 0x40 MLOAD PUSH4 0x226BF2D1 PUSH1 0xE2 SHL DUP2 MSTORE ADDRESS PUSH1 0x4 DUP3 ADD MSTORE PUSH0 SWAP2 PUSH1 0x1 PUSH1 0x1 PUSH1 0xA0 SHL SUB AND SWAP1 PUSH4 0x89AFCB44 SWAP1 PUSH1 0x24 ADD PUSH0 PUSH1 0x40 MLOAD DUP1 DUP4 SUB DUP2 PUSH0 DUP8 GAS CALL ISZERO DUP1 ISZERO PUSH2 0x1168 JUMPI RETURNDATASIZE PUSH0 PUSH0 RETURNDATACOPY RETURNDATASIZE PUSH0 REVERT JUMPDEST POP POP POP POP PUSH1 0x40 MLOAD RETURNDATASIZE PUSH0 DUP3 RETURNDATACOPY PUSH1 0x1F RETURNDATASIZE SWAP1 DUP2 ADD PUSH1 0x1F NOT AND DUP3 ADD PUSH1 0x40 MSTORE PUSH2 0x118F SWAP2 SWAP1 DUP2 ADD SWAP1 PUSH2 0x4C38 JUMP JUMPDEST SWAP1 POP PUSH0 PUSH2 0x11A6 DUP4 DUP4 PUSH2 0x119F PUSH2 0x1607 JUMP JUMPDEST DUP9 DUP9 PUSH2 0x24A2 JUMP JUMPDEST SWAP1 POP PUSH2 0x11B0 PUSH2 0x1607 JUMP JUMPDEST PUSH1 0x1 PUSH1 0x1 PUSH1 0xA0 SHL SUB AND ADDRESS PUSH1 0x1 PUSH1 0x1 PUSH1 0xA0 SHL SUB AND PUSH32 0x2EE827557318E24AD8FDB9F616BBFD73B44656EA23439623780D719C369F0C1D DUP9 DUP5 PUSH1 0x40 MLOAD PUSH2 0x11FD SWAP3 SWAP2 SWAP1 SWAP2 DUP3 MSTORE PUSH1 0x20 DUP3 ADD MSTORE PUSH1 0x40 ADD SWAP1 JUMP JUMPDEST PUSH1 0x40 MLOAD DUP1 SWAP2 SUB SWAP1 LOG3 POP POP POP POP POP POP JUMP JUMPDEST PUSH0 DUP2 DUP2 MSTORE PUSH1 0x67 PUSH1 0x20 MSTORE PUSH1 0x40 DUP2 KECCAK256 SLOAD PUSH1 0x1 PUSH1 0x1 PUSH1 0xA0 SHL SUB AND DUP1 PUSH2 0x5D8 JUMPI PUSH1 0x40 MLOAD PUSH3 0x461BCD PUSH1 0xE5 SHL DUP2 MSTORE PUSH1 0x20 PUSH1 0x4 DUP3 ADD MSTORE PUSH1 0x18 PUSH1 0x24 DUP3 ADD MSTORE PUSH24 0x115490CDCC8C4E881A5B9D985B1A59081D1BDAD95B881251 PUSH1 0x42 SHL PUSH1 0x44 DUP3 ADD MSTORE PUSH1 0x64 ADD PUSH2 0x1FC JUMP JUMPDEST PUSH0 PUSH1 0x1 PUSH1 0x1 PUSH1 0xA0 SHL SUB DUP3 AND PUSH2 0x12D5 JUMPI PUSH1 0x40 MLOAD PUSH3 0x461BCD PUSH1 0xE5 SHL DUP2 MSTORE PUSH1 0x20 PUSH1 0x4 DUP3 ADD MSTORE PUSH1 0x29 PUSH1 0x24 DUP3 ADD MSTORE PUSH32 0x4552433732313A2061646472657373207A65726F206973206E6F742061207661 PUSH1 0x44 DUP3 ADD MSTORE PUSH9 0x3634B21037BBB732B9 PUSH1 0xB9 SHL PUSH1 0x64 DUP3 ADD MSTORE PUSH1 0x84 ADD PUSH2 0x1FC JUMP JUMPDEST POP PUSH1 0x1 PUSH1 0x1 PUSH1 0xA0 SHL SUB AND PUSH0 SWAP1 DUP2 MSTORE PUSH1 0x68 PUSH1 0x20 MSTORE PUSH1 0x40 SWAP1 KECCAK256 SLOAD SWAP1 JUMP JUMPDEST PUSH1 0xFE DUP1 SLOAD PUSH2 0x12FD SWAP1 PUSH2 0x48EB JUMP JUMPDEST DUP1 PUSH1 0x1F ADD PUSH1 0x20 DUP1 SWAP2 DIV MUL PUSH1 0x20 ADD PUSH1 0x40 MLOAD SWAP1 DUP2 ADD PUSH1 0x40 MSTORE DUP1 SWAP3 SWAP2 SWAP1 DUP2 DUP2 MSTORE PUSH1 0x20 ADD DUP3 DUP1 SLOAD PUSH2 0x1329 SWAP1 PUSH2 0x48EB JUMP JUMPDEST DUP1 ISZERO PUSH2 0x1374 JUMPI DUP1 PUSH1 0x1F LT PUSH2 0x134B JUMPI PUSH2 0x100 DUP1 DUP4 SLOAD DIV MUL DUP4 MSTORE SWAP2 PUSH1 0x20 ADD SWAP2 PUSH2 0x1374 JUMP JUMPDEST DUP3 ADD SWAP2 SWAP1 PUSH0 MSTORE PUSH1 0x20 PUSH0 KECCAK256 SWAP1 JUMPDEST DUP2 SLOAD DUP2 MSTORE SWAP1 PUSH1 0x1 ADD SWAP1 PUSH1 0x20 ADD DUP1 DUP4 GT PUSH2 0x1357 JUMPI DUP3 SWAP1 SUB PUSH1 0x1F AND DUP3 ADD SWAP2 JUMPDEST POP POP POP POP POP DUP2 JUMP JUMPDEST PUSH2 0x1384 PUSH2 0x27B6 JUMP JUMPDEST DUP3 PUSH0 PUSH2 0x1398 PUSH1 0xFC SLOAD PUSH1 0x1 PUSH1 0x1 PUSH1 0xA0 SHL SUB AND SWAP1 JUMP JUMPDEST PUSH1 0x1 PUSH1 0x1 PUSH1 0xA0 SHL SUB AND PUSH4 0x6DBD5D2A PUSH1 0x40 MLOAD DUP2 PUSH4 0xFFFFFFFF AND PUSH1 0xE0 SHL DUP2 MSTORE PUSH1 0x4 ADD PUSH1 0x20 PUSH1 0x40 MLOAD DUP1 DUP4 SUB DUP2 DUP7 GAS STATICCALL ISZERO DUP1 ISZERO PUSH2 0x13D3 JUMPI RETURNDATASIZE PUSH0 PUSH0 RETURNDATACOPY RETURNDATASIZE PUSH0 REVERT JUMPDEST POP POP POP POP PUSH1 0x40 MLOAD RETURNDATASIZE PUSH1 0x1F NOT PUSH1 0x1F DUP3 ADD AND DUP3 ADD DUP1 PUSH1 0x40 MSTORE POP DUP2 ADD SWAP1 PUSH2 0x13F7 SWAP2 SWAP1 PUSH2 0x4952 JUMP JUMPDEST SWAP1 POP DUP1 DUP3 LT ISZERO PUSH2 0x141A JUMPI PUSH1 0x40 MLOAD PUSH4 0x9ABC7491 PUSH1 0xE0 SHL DUP2 MSTORE PUSH1 0x4 ADD PUSH1 0x40 MLOAD DUP1 SWAP2 SUB SWAP1 REVERT JUMPDEST DUP4 ISZERO DUP1 PUSH2 0x1429 JUMPI POP PUSH2 0x1388 DUP5 LT ISZERO JUMPDEST ISZERO PUSH2 0x1459 JUMPI PUSH1 0x40 MLOAD PUSH4 0x1818D2A7 PUSH1 0xE3 SHL DUP2 MSTORE PUSH1 0x4 DUP2 ADD DUP6 SWAP1 MSTORE PUSH1 0x1 PUSH1 0x24 DUP3 ADD MSTORE PUSH2 0x1387 PUSH1 0x44 DUP3 ADD MSTORE PUSH1 0x64 ADD PUSH2 0x1FC JUMP JUMPDEST PUSH0 PUSH2 0x146C PUSH1 0xFC SLOAD PUSH1 0x1 PUSH1 0x1 PUSH1 0xA0 SHL SUB AND SWAP1 JUMP JUMPDEST SWAP1 POP PUSH0 PUSH0 DUP3 PUSH1 0x1 PUSH1 0x1 PUSH1 0xA0 SHL SUB AND PUSH4 0xC4E994A0 PUSH1 0x40 MLOAD DUP2 PUSH4 0xFFFFFFFF AND PUSH1 0xE0 SHL DUP2 MSTORE PUSH1 0x4 ADD PUSH1 0x80 PUSH1 0x40 MLOAD DUP1 DUP4 SUB DUP2 DUP7 GAS STATICCALL ISZERO DUP1 ISZERO PUSH2 0x14AC JUMPI RETURNDATASIZE PUSH0 PUSH0 RETURNDATACOPY RETURNDATASIZE PUSH0 REVERT JUMPDEST POP POP POP POP PUSH1 0x40 MLOAD RETURNDATASIZE PUSH1 0x1F NOT PUSH1 0x1F DUP3 ADD AND DUP3 ADD DUP1 PUSH1 0x40 MSTORE POP DUP2 ADD SWAP1 PUSH2 0x14D0 SWAP2 SWAP1 PUSH2 0x4CD4 JUMP JUMPDEST PUSH2 0xFFFF SWAP2 SWAP1 SWAP2 AND SWAP5 POP SWAP3 POP PUSH0 SWAP2 POP DUP10 SWAP1 POP DUP2 DUP5 ISZERO PUSH2 0x159A JUMPI PUSH2 0x2710 PUSH2 0x14F5 DUP7 DUP14 PUSH2 0x4A7E JUMP JUMPDEST PUSH2 0x14FF SWAP2 SWAP1 PUSH2 0x4A95 JUMP JUMPDEST SWAP3 POP PUSH2 0x150B DUP4 DUP13 PUSH2 0x4D27 JUMP JUMPDEST SWAP2 POP PUSH0 PUSH2 0x1518 DUP5 ADDRESS PUSH2 0x280F JUMP JUMPDEST SWAP1 POP PUSH2 0x1527 DUP8 DUP3 DUP8 DUP15 DUP15 PUSH2 0x24A2 JUMP JUMPDEST SWAP2 POP DUP5 PUSH1 0x1 PUSH1 0x1 PUSH1 0xA0 SHL SUB AND PUSH32 0x72CD57B8DE25C52A120A25DE816C33EF7193FF5985D2106CF9D4269EDC0B7055 DUP4 DUP9 PUSH1 0x40 MLOAD PUSH2 0x1590 SWAP3 SWAP2 SWAP1 SWAP2 DUP3 MSTORE PUSH1 0x20 DUP3 ADD MSTORE PUSH1 0x60 PUSH1 0x40 DUP3 ADD DUP2 SWAP1 MSTORE PUSH1 0xB SWAP1 DUP3 ADD MSTORE PUSH11 0xEED2E8D0C8E4C2EE8AA89 PUSH1 0xAB SHL PUSH1 0x80 DUP3 ADD MSTORE PUSH1 0xA0 ADD SWAP1 JUMP JUMPDEST PUSH1 0x40 MLOAD DUP1 SWAP2 SUB SWAP1 LOG2 POP JUMPDEST PUSH0 PUSH2 0x15A5 DUP4 ADDRESS PUSH2 0x280F JUMP JUMPDEST SWAP1 POP PUSH0 PUSH2 0x15B5 DUP9 DUP4 CALLER DUP16 DUP16 PUSH2 0x24A2 JUMP JUMPDEST PUSH1 0x40 DUP1 MLOAD ADDRESS DUP2 MSTORE PUSH1 0x20 DUP2 ADD DUP4 SWAP1 MSTORE SWAP2 SWAP3 POP CALLER SWAP2 PUSH32 0xC37266EC9DEFF1378FE090BDD905A5DD26816731036EE0C294FB664059E1CF57 SWAP2 ADD PUSH1 0x40 MLOAD DUP1 SWAP2 SUB SWAP1 LOG2 POP POP POP POP POP POP POP POP POP POP PUSH2 0x98F PUSH1 0x1 PUSH1 0xC9 SSTORE JUMP JUMPDEST PUSH0 PUSH2 0x1611 PUSH0 PUSH2 0x120D JUMP JUMPDEST SWAP1 POP SWAP1 JUMP JUMPDEST PUSH2 0x161E PUSH2 0x27B6 JUMP JUMPDEST PUSH2 0x1628 DUP3 DUP3 PUSH2 0x2928 JUMP JUMPDEST PUSH0 PUSH0 PUSH0 PUSH0 PUSH0 PUSH2 0x1635 PUSH2 0x29AA JUMP JUMPDEST SWAP4 SWAP9 POP SWAP2 SWAP7 POP SWAP5 POP SWAP3 POP SWAP1 POP PUSH0 DUP1 JUMPDEST DUP4 DUP2 LT ISZERO PUSH2 0x1716 JUMPI PUSH0 PUSH2 0x100 PUSH1 0x1 ADD DUP3 DUP2 SLOAD DUP2 LT PUSH2 0x1664 JUMPI PUSH2 0x1664 PUSH2 0x493E JUMP JUMPDEST PUSH0 SWAP2 DUP3 MSTORE PUSH1 0x20 DUP3 KECCAK256 ADD SLOAD SWAP2 POP PUSH2 0x167B PUSH1 0x1 DUP8 PUSH2 0x4D27 JUMP JUMPDEST DUP4 SUB PUSH2 0x1692 JUMPI PUSH2 0x168B DUP5 DUP11 PUSH2 0x4D27 JUMP JUMPDEST SWAP1 POP PUSH2 0x16B8 JUMP JUMPDEST PUSH2 0x2710 PUSH2 0x169F DUP4 DUP12 PUSH2 0x4A7E JUMP JUMPDEST PUSH2 0x16A9 SWAP2 SWAP1 PUSH2 0x4A95 JUMP JUMPDEST SWAP1 POP PUSH2 0x16B5 DUP2 DUP6 PUSH2 0x4A50 JUMP JUMPDEST SWAP4 POP JUMPDEST PUSH2 0x16EF DUP2 PUSH2 0x100 PUSH0 ADD DUP6 DUP2 SLOAD DUP2 LT PUSH2 0x16D2 JUMPI PUSH2 0x16D2 PUSH2 0x493E JUMP JUMPDEST PUSH0 SWAP2 DUP3 MSTORE PUSH1 0x20 SWAP1 SWAP2 KECCAK256 ADD SLOAD PUSH1 0x1 PUSH1 0x1 PUSH1 0xA0 SHL SUB AND DUP11 DUP11 DUP16 DUP16 PUSH2 0x2B65 JUMP JUMPDEST DUP6 DUP5 DUP2 MLOAD DUP2 LT PUSH2 0x1701 JUMPI PUSH2 0x1701 PUSH2 0x493E JUMP JUMPDEST PUSH1 0x20 SWAP1 DUP2 MUL SWAP2 SWAP1 SWAP2 ADD ADD MSTORE POP POP PUSH1 0x1 ADD PUSH2 0x1644 JUMP JUMPDEST POP PUSH1 0xFB SLOAD PUSH1 0x40 MLOAD PUSH4 0xDE836EBD PUSH1 0xE0 SHL DUP2 MSTORE PUSH1 0x1 PUSH1 0x1 PUSH1 0xA0 SHL SUB SWAP1 SWAP2 AND SWAP1 PUSH4 0xDE836EBD SWAP1 PUSH2 0x1749 SWAP1 CALLER SWAP1 DUP7 SWAP1 PUSH1 0x4 ADD PUSH2 0x4D3A JUMP JUMPDEST PUSH1 0x20 PUSH1 0x40 MLOAD DUP1 DUP4 SUB DUP2 PUSH0 DUP8 GAS CALL ISZERO DUP1 ISZERO PUSH2 0x1765 JUMPI RETURNDATASIZE PUSH0 PUSH0 RETURNDATACOPY RETURNDATASIZE PUSH0 REVERT JUMPDEST POP POP POP POP PUSH1 0x40 MLOAD RETURNDATASIZE PUSH1 0x1F NOT PUSH1 0x1F DUP3 ADD AND DUP3 ADD DUP1 PUSH1 0x40 MSTORE POP DUP2 ADD SWAP1 PUSH2 0x1789 SWAP2 SWAP1 PUSH2 0x4952 JUMP JUMPDEST POP PUSH1 0x40 DUP1 MLOAD ADDRESS DUP2 MSTORE CALLVALUE PUSH1 0x20 DUP3 ADD MSTORE CALLER SWAP2 PUSH32 0x766BD5671BDE75C1F4C74CF7D8F8D8B3EF53EF5C1C7A5BCBC1074A0CF5651360 SWAP2 ADD PUSH1 0x40 MLOAD DUP1 SWAP2 SUB SWAP1 LOG2 POP POP POP POP POP POP PUSH2 0x17D4 PUSH1 0x1 PUSH1 0xC9 SSTORE JUMP JUMPDEST POP POP JUMP JUMPDEST PUSH1 0x60 PUSH1 0x66 DUP1 SLOAD PUSH2 0x61D SWAP1 PUSH2 0x48EB JUMP JUMPDEST CALLER PUSH2 0x17F0 PUSH2 0x1607 JUMP JUMPDEST PUSH1 0x1 PUSH1 0x1 PUSH1 0xA0 SHL SUB AND EQ PUSH2 0x1817 JUMPI PUSH1 0x40 MLOAD PUSH4 0x49E27CFF PUSH1 0xE0 SHL DUP2 MSTORE PUSH1 0x4 ADD PUSH1 0x40 MLOAD DUP1 SWAP2 SUB SWAP1 REVERT JUMPDEST DUP2 ISZERO DUP1 PUSH2 0x1826 JUMPI POP PUSH2 0x1388 DUP3 LT ISZERO JUMPDEST ISZERO PUSH2 0x1856 JUMPI PUSH1 0x40 MLOAD PUSH4 0x1818D2A7 PUSH1 0xE3 SHL DUP2 MSTORE PUSH1 0x4 DUP2 ADD DUP4 SWAP1 MSTORE PUSH1 0x1 PUSH1 0x24 DUP3 ADD MSTORE PUSH2 0x1387 PUSH1 0x44 DUP3 ADD MSTORE PUSH1 0x64 ADD PUSH2 0x1FC JUMP JUMPDEST PUSH2 0x18C4 DUP7 DUP7 DUP1 DUP1 PUSH1 0x20 MUL PUSH1 0x20 ADD PUSH1 0x40 MLOAD SWAP1 DUP2 ADD PUSH1 0x40 MSTORE DUP1 SWAP4 SWAP3 SWAP2 SWAP1 DUP2 DUP2 MSTORE PUSH1 0x20 ADD DUP4 DUP4 PUSH1 0x20 MUL DUP1 DUP3 DUP5 CALLDATACOPY PUSH0 SWAP3 ADD SWAP2 SWAP1 SWAP2 MSTORE POP POP PUSH1 0x40 DUP1 MLOAD PUSH1 0x20 DUP1 DUP11 MUL DUP3 DUP2 ADD DUP3 ADD SWAP1 SWAP4 MSTORE DUP10 DUP3 MSTORE SWAP1 SWAP4 POP DUP10 SWAP3 POP DUP9 SWAP2 DUP3 SWAP2 DUP6 ADD SWAP1 DUP5 SWAP1 DUP1 DUP3 DUP5 CALLDATACOPY PUSH0 SWAP3 ADD DUP3 SWAP1 MSTORE POP DUP9 SWAP4 POP SWAP2 POP DUP7 SWAP1 POP PUSH2 0x2DE2 JUMP JUMPDEST POP POP POP POP POP POP JUMP JUMPDEST DUP1 ISZERO PUSH2 0x1978 JUMPI PUSH2 0x18DB DUP3 PUSH2 0x5C9 JUMP JUMPDEST DUP1 ISZERO PUSH2 0x195A JUMPI POP PUSH1 0xFC SLOAD PUSH1 0x1 PUSH1 0x1 PUSH1 0xA0 SHL SUB AND PUSH1 0x40 MLOAD PUSH4 0x3B9589A9 PUSH1 0xE0 SHL DUP2 MSTORE PUSH1 0x1 PUSH1 0x1 PUSH1 0xA0 SHL SUB DUP5 DUP2 AND PUSH1 0x4 DUP4 ADD MSTORE SWAP2 SWAP1 SWAP2 AND SWAP1 PUSH4 0x3B9589A9 SWAP1 PUSH1 0x24 ADD PUSH1 0x20 PUSH1 0x40 MLOAD DUP1 DUP4 SUB DUP2 DUP7 GAS STATICCALL ISZERO DUP1 ISZERO PUSH2 0x1934 JUMPI RETURNDATASIZE PUSH0 PUSH0 RETURNDATACOPY RETURNDATASIZE PUSH0 REVERT JUMPDEST POP POP POP POP PUSH1 0x40 MLOAD RETURNDATASIZE PUSH1 0x1F NOT PUSH1 0x1F DUP3 ADD AND DUP3 ADD DUP1 PUSH1 0x40 MSTORE POP DUP2 ADD SWAP1 PUSH2 0x1958 SWAP2 SWAP1 PUSH2 0x4A63 JUMP JUMPDEST ISZERO JUMPDEST ISZERO PUSH2 0x1978 JUMPI PUSH1 0x40 MLOAD PUSH4 0x2FF3629F PUSH1 0xE2 SHL DUP2 MSTORE PUSH1 0x4 ADD PUSH1 0x40 MLOAD DUP1 SWAP2 SUB SWAP1 REVERT JUMPDEST PUSH2 0x17D4 DUP3 DUP3 PUSH2 0x304B JUMP JUMPDEST PUSH1 0xFD DUP1 SLOAD PUSH2 0x12FD SWAP1 PUSH2 0x48EB JUMP JUMPDEST DUP3 PUSH2 0x1999 DUP2 PUSH2 0x5C9 JUMP JUMPDEST ISZERO PUSH2 0x1A31 JUMPI PUSH1 0xFC SLOAD PUSH1 0x1 PUSH1 0x1 PUSH1 0xA0 SHL SUB AND PUSH1 0x40 MLOAD PUSH4 0x3B9589A9 PUSH1 0xE0 SHL DUP2 MSTORE PUSH1 0x1 PUSH1 0x1 PUSH1 0xA0 SHL SUB DUP4 DUP2 AND PUSH1 0x4 DUP4 ADD MSTORE SWAP2 SWAP1 SWAP2 AND SWAP1 PUSH4 0x3B9589A9 SWAP1 PUSH1 0x24 ADD PUSH1 0x20 PUSH1 0x40 MLOAD DUP1 DUP4 SUB DUP2 DUP7 GAS STATICCALL ISZERO DUP1 ISZERO PUSH2 0x19F0 JUMPI RETURNDATASIZE PUSH0 PUSH0 RETURNDATACOPY RETURNDATASIZE PUSH0 REVERT JUMPDEST POP POP POP POP PUSH1 0x40 MLOAD RETURNDATASIZE PUSH1 0x1F NOT PUSH1 0x1F DUP3 ADD AND DUP3 ADD DUP1 PUSH1 0x40 MSTORE POP DUP2 ADD SWAP1 PUSH2 0x1A14 SWAP2 SWAP1 PUSH2 0x4A63 JUMP JUMPDEST PUSH2 0x1A31 JUMPI PUSH1 0x40 MLOAD PUSH4 0x2FF3629F PUSH1 0xE2 SHL DUP2 MSTORE PUSH1 0x4 ADD PUSH1 0x40 MLOAD DUP1 SWAP2 SUB SWAP1 REVERT JUMPDEST PUSH2 0x1A3D DUP6 DUP6 DUP6 DUP6 PUSH2 0x3056 JUMP JUMPDEST POP POP POP POP POP JUMP JUMPDEST PUSH2 0x100 SLOAD PUSH0 SWAP1 DUP2 SWAP1 DUP1 DUP5 LT PUSH2 0x1A76 JUMPI PUSH1 0x40 MLOAD PUSH4 0x5A2E95F9 PUSH1 0xE0 SHL DUP2 MSTORE PUSH1 0x4 DUP2 ADD DUP6 SWAP1 MSTORE PUSH1 0x24 DUP2 ADD DUP3 SWAP1 MSTORE PUSH1 0x44 ADD PUSH2 0x1FC JUMP JUMPDEST PUSH2 0x100 DUP1 SLOAD DUP6 SWAP1 DUP2 LT PUSH2 0x1A8B JUMPI PUSH2 0x1A8B PUSH2 0x493E JUMP JUMPDEST PUSH0 SWAP2 DUP3 MSTORE PUSH1 0x20 SWAP1 SWAP2 KECCAK256 ADD SLOAD PUSH2 0x101 DUP1 SLOAD PUSH1 0x1 PUSH1 0x1 PUSH1 0xA0 SHL SUB SWAP1 SWAP3 AND SWAP5 POP SWAP1 DUP6 SWAP1 DUP2 LT PUSH2 0x1AB9 JUMPI PUSH2 0x1AB9 PUSH2 0x493E JUMP JUMPDEST SWAP1 PUSH0 MSTORE PUSH1 0x20 PUSH0 KECCAK256 ADD SLOAD SWAP2 POP POP SWAP2 POP SWAP2 JUMP JUMPDEST PUSH1 0x60 PUSH2 0x1AD5 DUP3 PUSH2 0x1E3A JUMP JUMPDEST PUSH0 DUP3 DUP2 MSTORE PUSH1 0x97 PUSH1 0x20 MSTORE PUSH1 0x40 DUP2 KECCAK256 DUP1 SLOAD PUSH2 0x1AED SWAP1 PUSH2 0x48EB JUMP JUMPDEST DUP1 PUSH1 0x1F ADD PUSH1 0x20 DUP1 SWAP2 DIV MUL PUSH1 0x20 ADD PUSH1 0x40 MLOAD SWAP1 DUP2 ADD PUSH1 0x40 MSTORE DUP1 SWAP3 SWAP2 SWAP1 DUP2 DUP2 MSTORE PUSH1 0x20 ADD DUP3 DUP1 SLOAD PUSH2 0x1B19 SWAP1 PUSH2 0x48EB JUMP JUMPDEST DUP1 ISZERO PUSH2 0x1B64 JUMPI DUP1 PUSH1 0x1F LT PUSH2 0x1B3B JUMPI PUSH2 0x100 DUP1 DUP4 SLOAD DIV MUL DUP4 MSTORE SWAP2 PUSH1 0x20 ADD SWAP2 PUSH2 0x1B64 JUMP JUMPDEST DUP3 ADD SWAP2 SWAP1 PUSH0 MSTORE PUSH1 0x20 PUSH0 KECCAK256 SWAP1 JUMPDEST DUP2 SLOAD DUP2 MSTORE SWAP1 PUSH1 0x1 ADD SWAP1 PUSH1 0x20 ADD DUP1 DUP4 GT PUSH2 0x1B47 JUMPI DUP3 SWAP1 SUB PUSH1 0x1F AND DUP3 ADD SWAP2 JUMPDEST POP POP POP POP POP SWAP1 POP PUSH0 PUSH2 0x1B80 PUSH1 0x40 DUP1 MLOAD PUSH1 0x20 DUP2 ADD SWAP1 SWAP2 MSTORE PUSH0 DUP2 MSTORE SWAP1 JUMP JUMPDEST SWAP1 POP DUP1 MLOAD PUSH0 SUB PUSH2 0x1B91 JUMPI POP SWAP3 SWAP2 POP POP JUMP JUMPDEST DUP2 MLOAD ISZERO PUSH2 0x1BC3 JUMPI DUP1 DUP3 PUSH1 0x40 MLOAD PUSH1 0x20 ADD PUSH2 0x1BAB SWAP3 SWAP2 SWAP1 PUSH2 0x4D74 JUMP JUMPDEST PUSH1 0x40 MLOAD PUSH1 0x20 DUP2 DUP4 SUB SUB DUP2 MSTORE SWAP1 PUSH1 0x40 MSTORE SWAP3 POP POP POP SWAP2 SWAP1 POP JUMP JUMPDEST PUSH2 0x1BCC DUP5 PUSH2 0x3088 JUMP JUMPDEST SWAP5 SWAP4 POP POP POP POP JUMP JUMPDEST CALLER PUSH2 0x1BDD PUSH2 0x1607 JUMP JUMPDEST PUSH1 0x1 PUSH1 0x1 PUSH1 0xA0 SHL SUB AND EQ PUSH2 0x1C04 JUMPI PUSH1 0x40 MLOAD PUSH4 0x49E27CFF PUSH1 0xE0 SHL DUP2 MSTORE PUSH1 0x4 ADD PUSH1 0x40 MLOAD DUP1 SWAP2 SUB SWAP1 REVERT JUMPDEST DUP2 ISZERO DUP1 PUSH2 0x1C13 JUMPI POP PUSH2 0x1388 DUP3 LT ISZERO JUMPDEST ISZERO PUSH2 0x1C43 JUMPI PUSH1 0x40 MLOAD PUSH4 0x1818D2A7 PUSH1 0xE3 SHL DUP2 MSTORE PUSH1 0x4 DUP2 ADD DUP4 SWAP1 MSTORE PUSH1 0x1 PUSH1 0x24 DUP3 ADD MSTORE PUSH2 0x1387 PUSH1 0x44 DUP3 ADD MSTORE PUSH1 0x64 ADD PUSH2 0x1FC JUMP JUMPDEST PUSH2 0x18C4 DUP7 DUP7 DUP1 DUP1 PUSH1 0x20 MUL PUSH1 0x20 ADD PUSH1 0x40 MLOAD SWAP1 DUP2 ADD PUSH1 0x40 MSTORE DUP1 SWAP4 SWAP3 SWAP2 SWAP1 DUP2 DUP2 MSTORE PUSH1 0x20 ADD DUP4 DUP4 PUSH1 0x20 MUL DUP1 DUP3 DUP5 CALLDATACOPY PUSH0 SWAP3 ADD SWAP2 SWAP1 SWAP2 MSTORE POP POP PUSH1 0x40 DUP1 MLOAD PUSH1 0x20 DUP1 DUP11 MUL DUP3 DUP2 ADD DUP3 ADD SWAP1 SWAP4 MSTORE DUP10 DUP3 MSTORE SWAP1 SWAP4 POP DUP10 SWAP3 POP DUP9 SWAP2 DUP3 SWAP2 DUP6 ADD SWAP1 DUP5 SWAP1 DUP1 DUP3 DUP5 CALLDATACOPY PUSH0 SWAP3 ADD SWAP2 SWAP1 SWAP2 MSTORE POP DUP8 SWAP3 POP PUSH1 0x1 SWAP2 POP DUP7 SWAP1 POP PUSH2 0x2DE2 JUMP JUMPDEST PUSH1 0x60 PUSH2 0x1CC8 PUSH1 0xFC SLOAD PUSH1 0x1 PUSH1 0x1 PUSH1 0xA0 SHL SUB AND SWAP1 JUMP JUMPDEST PUSH1 0x1 PUSH1 0x1 PUSH1 0xA0 SHL SUB AND PUSH4 0x37929EB4 PUSH1 0x40 MLOAD DUP2 PUSH4 0xFFFFFFFF AND PUSH1 0xE0 SHL DUP2 MSTORE PUSH1 0x4 ADD PUSH0 PUSH1 0x40 MLOAD DUP1 DUP4 SUB DUP2 DUP7 GAS STATICCALL ISZERO DUP1 ISZERO PUSH2 0x1D02 JUMPI RETURNDATASIZE PUSH0 PUSH0 RETURNDATACOPY RETURNDATASIZE PUSH0 REVERT JUMPDEST POP POP POP POP PUSH1 0x40 MLOAD RETURNDATASIZE PUSH0 DUP3 RETURNDATACOPY PUSH1 0x1F RETURNDATASIZE SWAP1 DUP2 ADD PUSH1 0x1F NOT AND DUP3 ADD PUSH1 0x40 MSTORE PUSH2 0x1611 SWAP2 SWAP1 DUP2 ADD SWAP1 PUSH2 0x4D88 JUMP JUMPDEST PUSH1 0x1 PUSH1 0x1 PUSH1 0xA0 SHL SUB SWAP2 DUP3 AND PUSH0 SWAP1 DUP2 MSTORE PUSH1 0x6A PUSH1 0x20 SWAP1 DUP2 MSTORE PUSH1 0x40 DUP1 DUP4 KECCAK256 SWAP4 SWAP1 SWAP5 AND DUP3 MSTORE SWAP2 SWAP1 SWAP2 MSTORE KECCAK256 SLOAD PUSH1 0xFF AND SWAP1 JUMP JUMPDEST PUSH1 0x60 DUP1 PUSH2 0x100 PUSH0 ADD PUSH2 0x100 PUSH1 0x1 ADD DUP2 DUP1 SLOAD DUP1 PUSH1 0x20 MUL PUSH1 0x20 ADD PUSH1 0x40 MLOAD SWAP1 DUP2 ADD PUSH1 0x40 MSTORE DUP1 SWAP3 SWAP2 SWAP1 DUP2 DUP2 MSTORE PUSH1 0x20 ADD DUP3 DUP1 SLOAD DUP1 ISZERO PUSH2 0x1DB7 JUMPI PUSH1 0x20 MUL DUP3 ADD SWAP2 SWAP1 PUSH0 MSTORE PUSH1 0x20 PUSH0 KECCAK256 SWAP1 JUMPDEST DUP2 SLOAD PUSH1 0x1 PUSH1 0x1 PUSH1 0xA0 SHL SUB AND DUP2 MSTORE PUSH1 0x1 SWAP1 SWAP2 ADD SWAP1 PUSH1 0x20 ADD DUP1 DUP4 GT PUSH2 0x1D99 JUMPI JUMPDEST POP POP POP POP POP SWAP2 POP DUP1 DUP1 SLOAD DUP1 PUSH1 0x20 MUL PUSH1 0x20 ADD PUSH1 0x40 MLOAD SWAP1 DUP2 ADD PUSH1 0x40 MSTORE DUP1 SWAP3 SWAP2 SWAP1 DUP2 DUP2 MSTORE PUSH1 0x20 ADD DUP3 DUP1 SLOAD DUP1 ISZERO PUSH2 0x1E07 JUMPI PUSH1 0x20 MUL DUP3 ADD SWAP2 SWAP1 PUSH0 MSTORE PUSH1 0x20 PUSH0 KECCAK256 SWAP1 JUMPDEST DUP2 SLOAD DUP2 MSTORE PUSH1 0x20 ADD SWAP1 PUSH1 0x1 ADD SWAP1 DUP1 DUP4 GT PUSH2 0x1DF3 JUMPI JUMPDEST POP POP POP POP POP SWAP1 POP SWAP2 POP SWAP2 POP SWAP1 SWAP2 JUMP JUMPDEST PUSH0 PUSH1 0x1 PUSH1 0x1 PUSH1 0xE0 SHL SUB NOT DUP3 AND PUSH4 0x24832483 PUSH1 0xE1 SHL EQ DUP1 PUSH2 0x5D8 JUMPI POP PUSH2 0x5D8 DUP3 PUSH2 0x30F7 JUMP JUMPDEST PUSH0 DUP2 DUP2 MSTORE PUSH1 0x67 PUSH1 0x20 MSTORE PUSH1 0x40 SWAP1 KECCAK256 SLOAD PUSH1 0x1 PUSH1 0x1 PUSH1 0xA0 SHL SUB AND PUSH2 0x1E98 JUMPI PUSH1 0x40 MLOAD PUSH3 0x461BCD PUSH1 0xE5 SHL DUP2 MSTORE PUSH1 0x20 PUSH1 0x4 DUP3 ADD MSTORE PUSH1 0x18 PUSH1 0x24 DUP3 ADD MSTORE PUSH24 0x115490CDCC8C4E881A5B9D985B1A59081D1BDAD95B881251 PUSH1 0x42 SHL PUSH1 0x44 DUP3 ADD MSTORE PUSH1 0x64 ADD PUSH2 0x1FC JUMP JUMPDEST POP JUMP JUMPDEST PUSH0 PUSH2 0x1EA5 DUP3 PUSH2 0x120D JUMP JUMPDEST SWAP1 POP DUP1 PUSH1 0x1 PUSH1 0x1 PUSH1 0xA0 SHL SUB AND DUP4 PUSH1 0x1 PUSH1 0x1 PUSH1 0xA0 SHL SUB AND SUB PUSH2 0x1F12 JUMPI PUSH1 0x40 MLOAD PUSH3 0x461BCD PUSH1 0xE5 SHL DUP2 MSTORE PUSH1 0x20 PUSH1 0x4 DUP3 ADD MSTORE PUSH1 0x21 PUSH1 0x24 DUP3 ADD MSTORE PUSH32 0x4552433732313A20617070726F76616C20746F2063757272656E74206F776E65 PUSH1 0x44 DUP3 ADD MSTORE PUSH1 0x39 PUSH1 0xF9 SHL PUSH1 0x64 DUP3 ADD MSTORE PUSH1 0x84 ADD PUSH2 0x1FC JUMP JUMPDEST CALLER PUSH1 0x1 PUSH1 0x1 PUSH1 0xA0 SHL SUB DUP3 AND EQ DUP1 PUSH2 0x1F2E JUMPI POP PUSH2 0x1F2E DUP2 CALLER PUSH2 0x1D29 JUMP JUMPDEST PUSH2 0x1FA0 JUMPI PUSH1 0x40 MLOAD PUSH3 0x461BCD PUSH1 0xE5 SHL DUP2 MSTORE PUSH1 0x20 PUSH1 0x4 DUP3 ADD MSTORE PUSH1 0x3D PUSH1 0x24 DUP3 ADD MSTORE PUSH32 0x4552433732313A20617070726F76652063616C6C6572206973206E6F7420746F PUSH1 0x44 DUP3 ADD MSTORE PUSH32 0x6B656E206F776E6572206F7220617070726F76656420666F7220616C6C000000 PUSH1 0x64 DUP3 ADD MSTORE PUSH1 0x84 ADD PUSH2 0x1FC JUMP JUMPDEST PUSH2 0x98F DUP4 DUP4 PUSH2 0x3146 JUMP JUMPDEST PUSH2 0x1FB4 CALLER DUP3 PUSH2 0x31B3 JUMP JUMPDEST PUSH2 0x1FD0 JUMPI PUSH1 0x40 MLOAD PUSH3 0x461BCD PUSH1 0xE5 SHL DUP2 MSTORE PUSH1 0x4 ADD PUSH2 0x1FC SWAP1 PUSH2 0x4DFC JUMP JUMPDEST PUSH2 0x98F DUP4 DUP4 DUP4 PUSH2 0x3210 JUMP JUMPDEST PUSH2 0x98F DUP4 DUP4 DUP4 PUSH1 0x40 MLOAD DUP1 PUSH1 0x20 ADD PUSH1 0x40 MSTORE DUP1 PUSH0 DUP2 MSTORE POP PUSH2 0x198F JUMP JUMPDEST PUSH0 SLOAD PUSH2 0x100 SWAP1 DIV PUSH1 0xFF AND PUSH2 0x201B JUMPI PUSH1 0x40 MLOAD PUSH3 0x461BCD PUSH1 0xE5 SHL DUP2 MSTORE PUSH1 0x4 ADD PUSH2 0x1FC SWAP1 PUSH2 0x4E49 JUMP JUMPDEST PUSH2 0x17D4 DUP3 DUP3 PUSH2 0x3372 JUMP JUMPDEST PUSH1 0x1 PUSH1 0x1 PUSH1 0xE0 SHL SUB NOT DUP1 DUP3 AND SWAP1 SUB PUSH2 0x2050 JUMPI PUSH1 0x40 MLOAD PUSH4 0x9B5E765 PUSH1 0xE3 SHL DUP2 MSTORE PUSH1 0x4 ADD PUSH1 0x40 MLOAD DUP1 SWAP2 SUB SWAP1 REVERT JUMPDEST PUSH1 0x1 PUSH1 0x1 PUSH1 0xE0 SHL SUB NOT AND PUSH0 SWAP1 DUP2 MSTORE PUSH1 0xFF PUSH1 0x20 MSTORE PUSH1 0x40 SWAP1 KECCAK256 DUP1 SLOAD PUSH1 0xFF NOT AND PUSH1 0x1 OR SWAP1 SSTORE JUMP JUMPDEST PUSH0 SLOAD PUSH2 0x100 SWAP1 DIV PUSH1 0xFF AND PUSH2 0x209A JUMPI PUSH1 0x40 MLOAD PUSH3 0x461BCD PUSH1 0xE5 SHL DUP2 MSTORE PUSH1 0x4 ADD PUSH2 0x1FC SWAP1 PUSH2 0x4E49 JUMP JUMPDEST PUSH2 0x20A2 PUSH2 0x33B1 JUMP JUMPDEST JUMP JUMPDEST PUSH0 DUP1 DUP1 PUSH2 0x20B9 PUSH1 0xFC SLOAD PUSH1 0x1 PUSH1 0x1 PUSH1 0xA0 SHL SUB AND SWAP1 JUMP JUMPDEST PUSH1 0x1 PUSH1 0x1 PUSH1 0xA0 SHL SUB AND PUSH4 0xB28775CD PUSH1 0x40 MLOAD DUP2 PUSH4 0xFFFFFFFF AND PUSH1 0xE0 SHL DUP2 MSTORE PUSH1 0x4 ADD PUSH1 0x20 PUSH1 0x40 MLOAD DUP1 DUP4 SUB DUP2 DUP7 GAS STATICCALL ISZERO DUP1 ISZERO PUSH2 0x20F4 JUMPI RETURNDATASIZE PUSH0 PUSH0 RETURNDATACOPY RETURNDATASIZE PUSH0 REVERT JUMPDEST POP POP POP POP PUSH1 0x40 MLOAD RETURNDATASIZE PUSH1 0x1F NOT PUSH1 0x1F DUP3 ADD AND DUP3 ADD DUP1 PUSH1 0x40 MSTORE POP DUP2 ADD SWAP1 PUSH2 0x2118 SWAP2 SWAP1 PUSH2 0x4923 JUMP JUMPDEST SWAP1 POP PUSH0 JUMPDEST DUP6 MLOAD DUP2 LT ISZERO PUSH2 0x237F JUMPI PUSH2 0x2147 DUP7 DUP3 DUP2 MLOAD DUP2 LT PUSH2 0x213A JUMPI PUSH2 0x213A PUSH2 0x493E JUMP JUMPDEST PUSH1 0x20 MUL PUSH1 0x20 ADD ADD MLOAD PUSH2 0x5C9 JUMP JUMPDEST PUSH2 0x218E JUMPI DUP6 DUP2 DUP2 MLOAD DUP2 LT PUSH2 0x215D JUMPI PUSH2 0x215D PUSH2 0x493E JUMP JUMPDEST PUSH1 0x20 MUL PUSH1 0x20 ADD ADD MLOAD PUSH1 0x40 MLOAD PUSH4 0x19BB4029 PUSH1 0xE0 SHL DUP2 MSTORE PUSH1 0x4 ADD PUSH2 0x1FC SWAP2 SWAP1 PUSH1 0x1 PUSH1 0x1 PUSH1 0xA0 SHL SUB SWAP2 SWAP1 SWAP2 AND DUP2 MSTORE PUSH1 0x20 ADD SWAP1 JUMP JUMPDEST PUSH2 0x21BE DUP7 DUP8 DUP4 DUP2 MLOAD DUP2 LT PUSH2 0x21A4 JUMPI PUSH2 0x21A4 PUSH2 0x493E JUMP JUMPDEST PUSH1 0x20 MUL PUSH1 0x20 ADD ADD MLOAD DUP4 PUSH1 0x1 PUSH2 0x21B9 SWAP2 SWAP1 PUSH2 0x4A50 JUMP JUMPDEST PUSH2 0x33D7 JUMP JUMPDEST ISZERO DUP1 ISZERO PUSH2 0x21E4 JUMPI POP DUP5 DUP2 DUP2 MLOAD DUP2 LT PUSH2 0x21D8 JUMPI PUSH2 0x21D8 PUSH2 0x493E JUMP JUMPDEST PUSH1 0x20 MUL PUSH1 0x20 ADD ADD MLOAD PUSH0 EQ ISZERO JUMPDEST ISZERO PUSH2 0x2325 JUMPI DUP2 PUSH1 0x1 PUSH1 0x1 PUSH1 0xA0 SHL SUB AND DUP7 DUP3 DUP2 MLOAD DUP2 LT PUSH2 0x2205 JUMPI PUSH2 0x2205 PUSH2 0x493E JUMP JUMPDEST PUSH1 0x20 MUL PUSH1 0x20 ADD ADD MLOAD PUSH1 0x1 PUSH1 0x1 PUSH1 0xA0 SHL SUB AND SUB PUSH2 0x22F9 JUMPI PUSH1 0x1 SWAP3 POP PUSH0 PUSH2 0x2232 PUSH1 0xFC SLOAD PUSH1 0x1 PUSH1 0x1 PUSH1 0xA0 SHL SUB AND SWAP1 JUMP JUMPDEST PUSH1 0x1 PUSH1 0x1 PUSH1 0xA0 SHL SUB AND PUSH4 0x1C4AEBE PUSH1 0x40 MLOAD DUP2 PUSH4 0xFFFFFFFF AND PUSH1 0xE0 SHL DUP2 MSTORE PUSH1 0x4 ADD PUSH1 0x20 PUSH1 0x40 MLOAD DUP1 DUP4 SUB DUP2 DUP7 GAS STATICCALL ISZERO DUP1 ISZERO PUSH2 0x226D JUMPI RETURNDATASIZE PUSH0 PUSH0 RETURNDATACOPY RETURNDATASIZE PUSH0 REVERT JUMPDEST POP POP POP POP PUSH1 0x40 MLOAD RETURNDATASIZE PUSH1 0x1F NOT PUSH1 0x1F DUP3 ADD AND DUP3 ADD DUP1 PUSH1 0x40 MSTORE POP DUP2 ADD SWAP1 PUSH2 0x2291 SWAP2 SWAP1 PUSH2 0x4E94 JUMP JUMPDEST PUSH2 0xFFFF AND SWAP1 POP DUP1 DUP7 DUP4 DUP2 MLOAD DUP2 LT PUSH2 0x22AA JUMPI PUSH2 0x22AA PUSH2 0x493E JUMP JUMPDEST PUSH1 0x20 MUL PUSH1 0x20 ADD ADD MLOAD LT ISZERO PUSH2 0x22F7 JUMPI DUP6 DUP3 DUP2 MLOAD DUP2 LT PUSH2 0x22CA JUMPI PUSH2 0x22CA PUSH2 0x493E JUMP JUMPDEST PUSH1 0x20 MUL PUSH1 0x20 ADD ADD MLOAD DUP2 PUSH1 0x40 MLOAD PUSH4 0x540FCB07 PUSH1 0xE1 SHL DUP2 MSTORE PUSH1 0x4 ADD PUSH2 0x1FC SWAP3 SWAP2 SWAP1 SWAP2 DUP3 MSTORE PUSH1 0x20 DUP3 ADD MSTORE PUSH1 0x40 ADD SWAP1 JUMP JUMPDEST POP JUMPDEST DUP5 DUP2 DUP2 MLOAD DUP2 LT PUSH2 0x230B JUMPI PUSH2 0x230B PUSH2 0x493E JUMP JUMPDEST PUSH1 0x20 MUL PUSH1 0x20 ADD ADD MLOAD DUP5 PUSH2 0x231E SWAP2 SWAP1 PUSH2 0x4A50 JUMP JUMPDEST SWAP4 POP PUSH2 0x2377 JUMP JUMPDEST DUP5 DUP2 DUP2 MLOAD DUP2 LT PUSH2 0x2337 JUMPI PUSH2 0x2337 PUSH2 0x493E JUMP JUMPDEST PUSH1 0x20 MUL PUSH1 0x20 ADD ADD MLOAD PUSH0 SUB PUSH2 0x235E JUMPI PUSH1 0x40 MLOAD PUSH4 0x9AE9A4D PUSH1 0xE0 SHL DUP2 MSTORE PUSH1 0x4 ADD PUSH1 0x40 MLOAD DUP1 SWAP2 SUB SWAP1 REVERT JUMPDEST PUSH1 0x40 MLOAD PUSH4 0xC1AB6DC1 PUSH1 0xE0 SHL DUP2 MSTORE PUSH1 0x4 ADD PUSH1 0x40 MLOAD DUP1 SWAP2 SUB SWAP1 REVERT JUMPDEST PUSH1 0x1 ADD PUSH2 0x211C JUMP JUMPDEST POP DUP2 PUSH2 0x239E JUMPI PUSH1 0x40 MLOAD PUSH4 0x3CA46187 PUSH1 0xE0 SHL DUP2 MSTORE PUSH1 0x4 ADD PUSH1 0x40 MLOAD DUP1 SWAP2 SUB SWAP1 REVERT JUMPDEST PUSH2 0x2710 DUP4 EQ PUSH2 0x1A3D JUMPI PUSH1 0x40 MLOAD PUSH4 0x585B9263 PUSH1 0xE0 SHL DUP2 MSTORE PUSH1 0x4 ADD PUSH1 0x40 MLOAD DUP1 SWAP2 SUB SWAP1 REVERT JUMPDEST PUSH2 0x17D4 DUP3 DUP3 PUSH1 0x40 MLOAD DUP1 PUSH1 0x20 ADD PUSH1 0x40 MSTORE DUP1 PUSH0 DUP2 MSTORE POP PUSH2 0x344A JUMP JUMPDEST PUSH0 DUP3 DUP2 MSTORE PUSH1 0x67 PUSH1 0x20 MSTORE PUSH1 0x40 SWAP1 KECCAK256 SLOAD PUSH1 0x1 PUSH1 0x1 PUSH1 0xA0 SHL SUB AND PUSH2 0x2453 JUMPI PUSH1 0x40 MLOAD PUSH3 0x461BCD PUSH1 0xE5 SHL DUP2 MSTORE PUSH1 0x20 PUSH1 0x4 DUP3 ADD MSTORE PUSH1 0x2E PUSH1 0x24 DUP3 ADD MSTORE PUSH32 0x45524337323155524953746F726167653A2055524920736574206F66206E6F6E PUSH1 0x44 DUP3 ADD MSTORE PUSH14 0x32BC34B9BA32B73A103A37B5B2B7 PUSH1 0x91 SHL PUSH1 0x64 DUP3 ADD MSTORE PUSH1 0x84 ADD PUSH2 0x1FC JUMP JUMPDEST PUSH0 DUP3 DUP2 MSTORE PUSH1 0x97 PUSH1 0x20 MSTORE PUSH1 0x40 SWAP1 KECCAK256 PUSH2 0x246A DUP3 DUP3 PUSH2 0x4EAD JUMP JUMPDEST POP PUSH1 0x40 MLOAD DUP3 DUP2 MSTORE PUSH32 0xF8E1A15ABA9398E019F0B49DF1A4FDE98EE17AE345CB5F6B5E2C27F5033E8CE7 SWAP1 PUSH1 0x20 ADD PUSH1 0x40 MLOAD DUP1 SWAP2 SUB SWAP1 LOG1 POP POP JUMP JUMPDEST PUSH0 TIMESTAMP DUP3 GT PUSH2 0x24C6 JUMPI PUSH1 0x40 MLOAD PUSH4 0x18DB49C5 PUSH1 0xE2 SHL DUP2 MSTORE PUSH1 0x4 DUP2 ADD DUP4 SWAP1 MSTORE PUSH1 0x24 ADD PUSH2 0x1FC JUMP JUMPDEST PUSH0 DUP7 PUSH1 0x1 PUSH1 0x1 PUSH1 0xA0 SHL SUB AND PUSH4 0x3FC8CEF3 PUSH1 0x40 MLOAD DUP2 PUSH4 0xFFFFFFFF AND PUSH1 0xE0 SHL DUP2 MSTORE PUSH1 0x4 ADD PUSH1 0x20 PUSH1 0x40 MLOAD DUP1 DUP4 SUB DUP2 DUP7 GAS STATICCALL ISZERO DUP1 ISZERO PUSH2 0x2503 JUMPI RETURNDATASIZE PUSH0 PUSH0 RETURNDATACOPY RETURNDATASIZE PUSH0 REVERT JUMPDEST POP POP POP POP PUSH1 0x40 MLOAD RETURNDATASIZE PUSH1 0x1F NOT PUSH1 0x1F DUP3 ADD AND DUP3 ADD DUP1 PUSH1 0x40 MSTORE POP DUP2 ADD SWAP1 PUSH2 0x2527 SWAP2 SWAP1 PUSH2 0x4923 JUMP JUMPDEST SWAP1 POP PUSH0 DUP8 PUSH1 0x1 PUSH1 0x1 PUSH1 0xA0 SHL SUB AND PUSH4 0xF887EA40 PUSH1 0x40 MLOAD DUP2 PUSH4 0xFFFFFFFF AND PUSH1 0xE0 SHL DUP2 MSTORE PUSH1 0x4 ADD PUSH1 0x20 PUSH1 0x40 MLOAD DUP1 DUP4 SUB DUP2 DUP7 GAS STATICCALL ISZERO DUP1 ISZERO PUSH2 0x2566 JUMPI RETURNDATASIZE PUSH0 PUSH0 RETURNDATACOPY RETURNDATASIZE PUSH0 REVERT JUMPDEST POP POP POP POP PUSH1 0x40 MLOAD RETURNDATASIZE PUSH1 0x1F NOT PUSH1 0x1F DUP3 ADD AND DUP3 ADD DUP1 PUSH1 0x40 MSTORE POP DUP2 ADD SWAP1 PUSH2 0x258A SWAP2 SWAP1 PUSH2 0x4923 JUMP JUMPDEST SWAP1 POP PUSH0 DUP1 JUMPDEST DUP9 MLOAD DUP2 LT ISZERO PUSH2 0x268F JUMPI PUSH0 DUP10 DUP3 DUP2 MLOAD DUP2 LT PUSH2 0x25AB JUMPI PUSH2 0x25AB PUSH2 0x493E JUMP JUMPDEST PUSH1 0x20 MUL PUSH1 0x20 ADD ADD MLOAD GT ISZERO PUSH2 0x2687 JUMPI DUP4 PUSH1 0x1 PUSH1 0x1 PUSH1 0xA0 SHL SUB AND PUSH2 0x100 PUSH0 ADD DUP3 DUP2 SLOAD DUP2 LT PUSH2 0x25D9 JUMPI PUSH2 0x25D9 PUSH2 0x493E JUMP JUMPDEST PUSH0 SWAP2 DUP3 MSTORE PUSH1 0x20 SWAP1 SWAP2 KECCAK256 ADD SLOAD PUSH1 0x1 PUSH1 0x1 PUSH1 0xA0 SHL SUB AND SUB PUSH2 0x261E JUMPI DUP9 DUP2 DUP2 MLOAD DUP2 LT PUSH2 0x2604 JUMPI PUSH2 0x2604 PUSH2 0x493E JUMP JUMPDEST PUSH1 0x20 MUL PUSH1 0x20 ADD ADD MLOAD DUP3 PUSH2 0x2617 SWAP2 SWAP1 PUSH2 0x4A50 JUMP JUMPDEST SWAP2 POP PUSH2 0x2687 JUMP JUMPDEST PUSH0 PUSH2 0x2677 PUSH2 0x100 PUSH0 ADD DUP4 DUP2 SLOAD DUP2 LT PUSH2 0x2638 JUMPI PUSH2 0x2638 PUSH2 0x493E JUMP JUMPDEST SWAP1 PUSH0 MSTORE PUSH1 0x20 PUSH0 KECCAK256 ADD PUSH0 SWAP1 SLOAD SWAP1 PUSH2 0x100 EXP SWAP1 DIV PUSH1 0x1 PUSH1 0x1 PUSH1 0xA0 SHL SUB AND DUP7 DUP7 DUP14 DUP7 DUP2 MLOAD DUP2 LT PUSH2 0x2667 JUMPI PUSH2 0x2667 PUSH2 0x493E JUMP JUMPDEST PUSH1 0x20 MUL PUSH1 0x20 ADD ADD MLOAD ADDRESS DUP14 DUP14 PUSH2 0x347C JUMP JUMPDEST SWAP1 POP PUSH2 0x2683 DUP2 DUP5 PUSH2 0x4A50 JUMP JUMPDEST SWAP3 POP POP JUMPDEST PUSH1 0x1 ADD PUSH2 0x258F JUMP JUMPDEST POP DUP1 ISZERO PUSH2 0x27AA JUMPI PUSH1 0x40 MLOAD PUSH4 0x2E1A7D4D PUSH1 0xE0 SHL DUP2 MSTORE PUSH1 0x4 DUP2 ADD DUP3 SWAP1 MSTORE PUSH1 0x1 PUSH1 0x1 PUSH1 0xA0 SHL SUB DUP5 AND SWAP1 PUSH4 0x2E1A7D4D SWAP1 PUSH1 0x24 ADD PUSH0 PUSH1 0x40 MLOAD DUP1 DUP4 SUB DUP2 PUSH0 DUP8 DUP1 EXTCODESIZE ISZERO DUP1 ISZERO PUSH2 0x26D5 JUMPI PUSH0 PUSH0 REVERT JUMPDEST POP GAS CALL ISZERO DUP1 ISZERO PUSH2 0x26E7 JUMPI RETURNDATASIZE PUSH0 PUSH0 RETURNDATACOPY RETURNDATASIZE PUSH0 REVERT JUMPDEST POP POP POP POP PUSH0 DUP8 PUSH1 0x1 PUSH1 0x1 PUSH1 0xA0 SHL SUB AND DUP3 PUSH1 0x40 MLOAD PUSH0 PUSH1 0x40 MLOAD DUP1 DUP4 SUB DUP2 DUP6 DUP8 GAS CALL SWAP3 POP POP POP RETURNDATASIZE DUP1 PUSH0 DUP2 EQ PUSH2 0x2734 JUMPI PUSH1 0x40 MLOAD SWAP2 POP PUSH1 0x1F NOT PUSH1 0x3F RETURNDATASIZE ADD AND DUP3 ADD PUSH1 0x40 MSTORE RETURNDATASIZE DUP3 MSTORE RETURNDATASIZE PUSH0 PUSH1 0x20 DUP5 ADD RETURNDATACOPY PUSH2 0x2739 JUMP JUMPDEST PUSH1 0x60 SWAP2 POP JUMPDEST POP POP SWAP1 POP DUP1 PUSH2 0x27A5 JUMPI PUSH1 0x40 MLOAD PUSH3 0x461BCD PUSH1 0xE5 SHL DUP2 MSTORE PUSH1 0x20 PUSH1 0x4 DUP3 ADD MSTORE PUSH1 0x32 PUSH1 0x24 DUP3 ADD MSTORE PUSH32 0x4661696C656420746F20756E7772617020616E64207472616E73666572205745 PUSH1 0x44 DUP3 ADD MSTORE PUSH18 0x2A24103A37903A3432903932B1B2B4BB32B9 PUSH1 0x71 SHL PUSH1 0x64 DUP3 ADD MSTORE PUSH1 0x84 ADD PUSH2 0x1FC JUMP JUMPDEST DUP2 SWAP5 POP POP JUMPDEST POP POP POP SWAP6 SWAP5 POP POP POP POP POP JUMP JUMPDEST PUSH1 0x2 PUSH1 0xC9 SLOAD SUB PUSH2 0x2808 JUMPI PUSH1 0x40 MLOAD PUSH3 0x461BCD PUSH1 0xE5 SHL DUP2 MSTORE PUSH1 0x20 PUSH1 0x4 DUP3 ADD MSTORE PUSH1 0x1F PUSH1 0x24 DUP3 ADD MSTORE PUSH32 0x5265656E7472616E637947756172643A207265656E7472616E742063616C6C00 PUSH1 0x44 DUP3 ADD MSTORE PUSH1 0x64 ADD PUSH2 0x1FC JUMP JUMPDEST PUSH1 0x2 PUSH1 0xC9 SSTORE JUMP JUMPDEST PUSH1 0x60 DUP3 PUSH0 SUB PUSH2 0x2831 JUMPI PUSH1 0x40 MLOAD PUSH4 0x9ABC7491 PUSH1 0xE0 SHL DUP2 MSTORE PUSH1 0x4 ADD PUSH1 0x40 MLOAD DUP1 SWAP2 SUB SWAP1 REVERT JUMPDEST PUSH1 0xFB SLOAD PUSH1 0x40 MLOAD PUSH4 0x23B872DD PUSH1 0xE0 SHL DUP2 MSTORE CALLER PUSH1 0x4 DUP3 ADD MSTORE PUSH1 0x1 PUSH1 0x1 PUSH1 0xA0 SHL SUB SWAP1 SWAP2 AND PUSH1 0x24 DUP3 ADD DUP2 SWAP1 MSTORE PUSH1 0x44 DUP3 ADD DUP6 SWAP1 MSTORE SWAP1 PUSH4 0x23B872DD SWAP1 PUSH1 0x64 ADD PUSH1 0x20 PUSH1 0x40 MLOAD DUP1 DUP4 SUB DUP2 PUSH0 DUP8 GAS CALL ISZERO DUP1 ISZERO PUSH2 0x2886 JUMPI RETURNDATASIZE PUSH0 PUSH0 RETURNDATACOPY RETURNDATASIZE PUSH0 REVERT JUMPDEST POP POP POP POP PUSH1 0x40 MLOAD RETURNDATASIZE PUSH1 0x1F NOT PUSH1 0x1F DUP3 ADD AND DUP3 ADD DUP1 PUSH1 0x40 MSTORE POP DUP2 ADD SWAP1 PUSH2 0x28AA SWAP2 SWAP1 PUSH2 0x4A63 JUMP JUMPDEST POP PUSH1 0xFB SLOAD PUSH1 0x40 MLOAD PUSH4 0x226BF2D1 PUSH1 0xE2 SHL DUP2 MSTORE PUSH1 0x1 PUSH1 0x1 PUSH1 0xA0 SHL SUB DUP5 DUP2 AND PUSH1 0x4 DUP4 ADD MSTORE SWAP1 SWAP2 AND SWAP1 PUSH4 0x89AFCB44 SWAP1 PUSH1 0x24 ADD PUSH0 PUSH1 0x40 MLOAD DUP1 DUP4 SUB DUP2 PUSH0 DUP8 GAS CALL ISZERO DUP1 ISZERO PUSH2 0x28F3 JUMPI RETURNDATASIZE PUSH0 PUSH0 RETURNDATACOPY RETURNDATASIZE PUSH0 REVERT JUMPDEST POP POP POP POP PUSH1 0x40 MLOAD RETURNDATASIZE PUSH0 DUP3 RETURNDATACOPY PUSH1 0x1F RETURNDATASIZE SWAP1 DUP2 ADD PUSH1 0x1F NOT AND DUP3 ADD PUSH1 0x40 MSTORE PUSH2 0x291A SWAP2 SWAP1 DUP2 ADD SWAP1 PUSH2 0x4C38 JUMP JUMPDEST SWAP4 SWAP3 POP POP POP JUMP JUMPDEST PUSH1 0x1 PUSH1 0xC9 SSTORE JUMP JUMPDEST DUP2 ISZERO DUP1 PUSH2 0x2937 JUMPI POP PUSH2 0x1388 DUP3 LT ISZERO JUMPDEST ISZERO PUSH2 0x2967 JUMPI PUSH1 0x40 MLOAD PUSH4 0x1818D2A7 PUSH1 0xE3 SHL DUP2 MSTORE PUSH1 0x4 DUP2 ADD DUP4 SWAP1 MSTORE PUSH1 0x1 PUSH1 0x24 DUP3 ADD MSTORE PUSH2 0x1387 PUSH1 0x44 DUP3 ADD MSTORE PUSH1 0x64 ADD PUSH2 0x1FC JUMP JUMPDEST CALLVALUE PUSH0 SUB PUSH2 0x2987 JUMPI PUSH1 0x40 MLOAD PUSH4 0x28D07CEF PUSH1 0xE1 SHL DUP2 MSTORE PUSH1 0x4 ADD PUSH1 0x40 MLOAD DUP1 SWAP2 SUB SWAP1 REVERT JUMPDEST TIMESTAMP DUP2 GT PUSH2 0x17D4 JUMPI PUSH1 0x40 MLOAD PUSH4 0x18DB49C5 PUSH1 0xE2 SHL DUP2 MSTORE PUSH1 0x4 DUP2 ADD DUP3 SWAP1 MSTORE PUSH1 0x24 ADD PUSH2 0x1FC JUMP JUMPDEST PUSH0 PUSH0 PUSH0 PUSH0 PUSH1 0x60 PUSH0 PUSH2 0x29C3 PUSH1 0xFC SLOAD PUSH1 0x1 PUSH1 0x1 PUSH1 0xA0 SHL SUB AND SWAP1 JUMP JUMPDEST SWAP1 POP PUSH0 PUSH0 DUP3 PUSH1 0x1 PUSH1 0x1 PUSH1 0xA0 SHL SUB AND PUSH4 0xC4E994A0 PUSH1 0x40 MLOAD DUP2 PUSH4 0xFFFFFFFF AND PUSH1 0xE0 SHL DUP2 MSTORE PUSH1 0x4 ADD PUSH1 0x80 PUSH1 0x40 MLOAD DUP1 DUP4 SUB DUP2 DUP7 GAS STATICCALL ISZERO DUP1 ISZERO PUSH2 0x2A03 JUMPI RETURNDATASIZE PUSH0 PUSH0 RETURNDATACOPY RETURNDATASIZE PUSH0 REVERT JUMPDEST POP POP POP POP PUSH1 0x40 MLOAD RETURNDATASIZE PUSH1 0x1F NOT PUSH1 0x1F DUP3 ADD AND DUP3 ADD DUP1 PUSH1 0x40 MSTORE POP DUP2 ADD SWAP1 PUSH2 0x2A27 SWAP2 SWAP1 PUSH2 0x4CD4 JUMP JUMPDEST SWAP4 POP POP PUSH2 0xFFFF AND SWAP3 POP POP PUSH0 PUSH2 0x2A3D DUP4 DUP4 CALLVALUE PUSH2 0x373A JUMP JUMPDEST SWAP1 POP PUSH2 0x2A49 DUP2 CALLVALUE PUSH2 0x4D27 JUMP JUMPDEST SWAP9 POP DUP4 PUSH1 0x1 PUSH1 0x1 PUSH1 0xA0 SHL SUB AND PUSH4 0x3FC8CEF3 PUSH1 0x40 MLOAD DUP2 PUSH4 0xFFFFFFFF AND PUSH1 0xE0 SHL DUP2 MSTORE PUSH1 0x4 ADD PUSH1 0x20 PUSH1 0x40 MLOAD DUP1 DUP4 SUB DUP2 DUP7 GAS STATICCALL ISZERO DUP1 ISZERO PUSH2 0x2A87 JUMPI RETURNDATASIZE PUSH0 PUSH0 RETURNDATACOPY RETURNDATASIZE PUSH0 REVERT JUMPDEST POP POP POP POP PUSH1 0x40 MLOAD RETURNDATASIZE PUSH1 0x1F NOT PUSH1 0x1F DUP3 ADD AND DUP3 ADD DUP1 PUSH1 0x40 MSTORE POP DUP2 ADD SWAP1 PUSH2 0x2AAB SWAP2 SWAP1 PUSH2 0x4923 JUMP JUMPDEST SWAP8 POP DUP4 PUSH1 0x1 PUSH1 0x1 PUSH1 0xA0 SHL SUB AND PUSH4 0xF887EA40 PUSH1 0x40 MLOAD DUP2 PUSH4 0xFFFFFFFF AND PUSH1 0xE0 SHL DUP2 MSTORE PUSH1 0x4 ADD PUSH1 0x20 PUSH1 0x40 MLOAD DUP1 DUP4 SUB DUP2 DUP7 GAS STATICCALL ISZERO DUP1 ISZERO PUSH2 0x2AE9 JUMPI RETURNDATASIZE PUSH0 PUSH0 RETURNDATACOPY RETURNDATASIZE PUSH0 REVERT JUMPDEST POP POP POP POP PUSH1 0x40 MLOAD RETURNDATASIZE PUSH1 0x1F NOT PUSH1 0x1F DUP3 ADD AND DUP3 ADD DUP1 PUSH1 0x40 MSTORE POP DUP2 ADD SWAP1 PUSH2 0x2B0D SWAP2 SWAP1 PUSH2 0x4923 JUMP JUMPDEST PUSH2 0x100 SLOAD SWAP1 SWAP8 POP SWAP6 POP DUP6 PUSH1 0x1 PUSH1 0x1 PUSH1 0x40 SHL SUB DUP2 GT ISZERO PUSH2 0x2B2E JUMPI PUSH2 0x2B2E PUSH2 0x470E JUMP JUMPDEST PUSH1 0x40 MLOAD SWAP1 DUP1 DUP3 MSTORE DUP1 PUSH1 0x20 MUL PUSH1 0x20 ADD DUP3 ADD PUSH1 0x40 MSTORE DUP1 ISZERO PUSH2 0x2B57 JUMPI DUP2 PUSH1 0x20 ADD PUSH1 0x20 DUP3 MUL DUP1 CALLDATASIZE DUP4 CALLDATACOPY ADD SWAP1 POP JUMPDEST POP SWAP5 POP POP POP POP POP SWAP1 SWAP2 SWAP3 SWAP4 SWAP5 JUMP JUMPDEST PUSH0 PUSH0 PUSH2 0x2B79 PUSH1 0xFC SLOAD PUSH1 0x1 PUSH1 0x1 PUSH1 0xA0 SHL SUB AND SWAP1 JUMP JUMPDEST PUSH1 0x40 MLOAD PUSH4 0xD88E3E3B PUSH1 0xE0 SHL DUP2 MSTORE PUSH1 0x1 PUSH1 0x1 PUSH1 0xA0 SHL SUB DUP9 DUP2 AND PUSH1 0x4 DUP4 ADD MSTORE DUP10 DUP2 AND PUSH1 0x24 DUP4 ADD MSTORE SWAP2 SWAP1 SWAP2 AND SWAP1 PUSH4 0xD88E3E3B SWAP1 PUSH1 0x44 ADD PUSH0 PUSH1 0x40 MLOAD DUP1 DUP4 SUB DUP2 DUP7 GAS STATICCALL ISZERO DUP1 ISZERO PUSH2 0x2BC6 JUMPI RETURNDATASIZE PUSH0 PUSH0 RETURNDATACOPY RETURNDATASIZE PUSH0 REVERT JUMPDEST POP POP POP POP PUSH1 0x40 MLOAD RETURNDATASIZE PUSH0 DUP3 RETURNDATACOPY PUSH1 0x1F RETURNDATASIZE SWAP1 DUP2 ADD PUSH1 0x1F NOT AND DUP3 ADD PUSH1 0x40 MSTORE PUSH2 0x2BED SWAP2 SWAP1 DUP2 ADD SWAP1 PUSH2 0x498B JUMP JUMPDEST SWAP1 POP PUSH0 PUSH2 0x2710 PUSH2 0x2BFD DUP7 DUP3 PUSH2 0x4D27 JUMP JUMPDEST PUSH1 0xFC SLOAD PUSH1 0x40 MLOAD PUSH4 0xD06CA61F PUSH1 0xE0 SHL DUP2 MSTORE PUSH1 0x1 PUSH1 0x1 PUSH1 0xA0 SHL SUB SWAP1 SWAP2 AND SWAP1 PUSH4 0xD06CA61F SWAP1 PUSH2 0x2C2F SWAP1 DUP15 SWAP1 DUP9 SWAP1 PUSH1 0x4 ADD PUSH2 0x4A24 JUMP JUMPDEST PUSH1 0x20 PUSH1 0x40 MLOAD DUP1 DUP4 SUB DUP2 DUP7 GAS STATICCALL ISZERO DUP1 ISZERO PUSH2 0x2C4A JUMPI RETURNDATASIZE PUSH0 PUSH0 RETURNDATACOPY RETURNDATASIZE PUSH0 REVERT JUMPDEST POP POP POP POP PUSH1 0x40 MLOAD RETURNDATASIZE PUSH1 0x1F NOT PUSH1 0x1F DUP3 ADD AND DUP3 ADD DUP1 PUSH1 0x40 MSTORE POP DUP2 ADD SWAP1 PUSH2 0x2C6E SWAP2 SWAP1 PUSH2 0x4952 JUMP JUMPDEST PUSH2 0x2C78 SWAP2 SWAP1 PUSH2 0x4A7E JUMP JUMPDEST PUSH2 0x2C82 SWAP2 SWAP1 PUSH2 0x4A95 JUMP JUMPDEST PUSH1 0xFB SLOAD PUSH1 0x40 MLOAD PUSH4 0x70A08231 PUSH1 0xE0 SHL DUP2 MSTORE PUSH1 0x1 PUSH1 0x1 PUSH1 0xA0 SHL SUB SWAP2 DUP3 AND PUSH1 0x4 DUP3 ADD MSTORE SWAP2 SWAP3 POP PUSH0 SWAP2 SWAP1 DUP11 AND SWAP1 PUSH4 0x70A08231 SWAP1 PUSH1 0x24 ADD PUSH1 0x20 PUSH1 0x40 MLOAD DUP1 DUP4 SUB DUP2 DUP7 GAS STATICCALL ISZERO DUP1 ISZERO PUSH2 0x2CCF JUMPI RETURNDATASIZE PUSH0 PUSH0 RETURNDATACOPY RETURNDATASIZE PUSH0 REVERT JUMPDEST POP POP POP POP PUSH1 0x40 MLOAD RETURNDATASIZE PUSH1 0x1F NOT PUSH1 0x1F DUP3 ADD AND DUP3 ADD DUP1 PUSH1 0x40 MSTORE POP DUP2 ADD SWAP1 PUSH2 0x2CF3 SWAP2 SWAP1 PUSH2 0x4952 JUMP JUMPDEST PUSH1 0xFB SLOAD PUSH1 0x40 MLOAD PUSH4 0xB6F9DE95 PUSH1 0xE0 SHL DUP2 MSTORE SWAP2 SWAP3 POP PUSH1 0x1 PUSH1 0x1 PUSH1 0xA0 SHL SUB DUP1 DUP11 AND SWAP3 PUSH4 0xB6F9DE95 SWAP3 DUP15 SWAP3 PUSH2 0x2D2E SWAP3 DUP9 SWAP3 DUP11 SWAP3 AND SWAP1 DUP13 SWAP1 PUSH1 0x4 ADD PUSH2 0x4F67 JUMP JUMPDEST PUSH0 PUSH1 0x40 MLOAD DUP1 DUP4 SUB DUP2 DUP6 DUP9 DUP1 EXTCODESIZE ISZERO DUP1 ISZERO PUSH2 0x2D45 JUMPI PUSH0 PUSH0 REVERT JUMPDEST POP GAS CALL ISZERO DUP1 ISZERO PUSH2 0x2D57 JUMPI RETURNDATASIZE PUSH0 PUSH0 RETURNDATACOPY RETURNDATASIZE PUSH0 REVERT JUMPDEST POP POP PUSH1 0xFB SLOAD PUSH1 0x40 MLOAD PUSH4 0x70A08231 PUSH1 0xE0 SHL DUP2 MSTORE PUSH1 0x1 PUSH1 0x1 PUSH1 0xA0 SHL SUB SWAP2 DUP3 AND PUSH1 0x4 DUP3 ADD MSTORE DUP6 SWAP5 POP SWAP1 DUP14 AND SWAP3 POP PUSH4 0x70A08231 SWAP2 POP PUSH1 0x24 ADD PUSH1 0x20 PUSH1 0x40 MLOAD DUP1 DUP4 SUB DUP2 DUP7 GAS STATICCALL ISZERO DUP1 ISZERO PUSH2 0x2DA6 JUMPI RETURNDATASIZE PUSH0 PUSH0 RETURNDATACOPY RETURNDATASIZE PUSH0 REVERT JUMPDEST POP POP POP POP PUSH1 0x40 MLOAD RETURNDATASIZE PUSH1 0x1F NOT PUSH1 0x1F DUP3 ADD AND DUP3 ADD DUP1 PUSH1 0x40 MSTORE POP DUP2 ADD SWAP1 PUSH2 0x2DCA SWAP2 SWAP1 PUSH2 0x4952 JUMP JUMPDEST PUSH2 0x2DD4 SWAP2 SWAP1 PUSH2 0x4D27 JUMP JUMPDEST SWAP11 SWAP10 POP POP POP POP POP POP POP POP POP POP JUMP JUMPDEST DUP5 MLOAD DUP5 MLOAD DUP1 DUP3 EQ ISZERO DUP1 PUSH2 0x2DF3 JUMPI POP DUP2 ISZERO JUMPDEST DUP1 PUSH2 0x2DFC JUMPI POP DUP1 ISZERO JUMPDEST ISZERO PUSH2 0x2E1A JUMPI PUSH1 0x40 MLOAD PUSH4 0x251F56A1 PUSH1 0xE2 SHL DUP2 MSTORE PUSH1 0x4 ADD PUSH1 0x40 MLOAD DUP1 SWAP2 SUB SWAP1 REVERT JUMPDEST DUP4 DUP1 ISZERO PUSH2 0x2E29 JUMPI POP DUP7 MLOAD PUSH1 0x2 EQ ISZERO JUMPDEST ISZERO PUSH2 0x2E47 JUMPI PUSH1 0x40 MLOAD PUSH4 0x1EC0E681 PUSH1 0xE1 SHL DUP2 MSTORE PUSH1 0x4 ADD PUSH1 0x40 MLOAD DUP1 SWAP2 SUB SWAP1 REVERT JUMPDEST TIMESTAMP DUP4 GT PUSH2 0x2E6A JUMPI PUSH1 0x40 MLOAD PUSH4 0x18DB49C5 PUSH1 0xE2 SHL DUP2 MSTORE PUSH1 0x4 DUP2 ADD DUP5 SWAP1 MSTORE PUSH1 0x24 ADD PUSH2 0x1FC JUMP JUMPDEST PUSH2 0x2E74 DUP8 DUP8 PUSH2 0x20A4 JUMP JUMPDEST PUSH1 0xFB SLOAD PUSH1 0x40 MLOAD PUSH4 0xBA6BA385 PUSH1 0xE0 SHL DUP2 MSTORE PUSH1 0x1 PUSH1 0x4 DUP3 ADD MSTORE PUSH1 0x1 PUSH1 0x1 PUSH1 0xA0 SHL SUB SWAP1 SWAP2 AND SWAP1 PUSH4 0xBA6BA385 SWAP1 PUSH1 0x24 ADD PUSH0 PUSH1 0x40 MLOAD DUP1 DUP4 SUB DUP2 PUSH0 DUP8 DUP1 EXTCODESIZE ISZERO DUP1 ISZERO PUSH2 0x2EB7 JUMPI PUSH0 PUSH0 REVERT JUMPDEST POP GAS CALL ISZERO DUP1 ISZERO PUSH2 0x2EC9 JUMPI RETURNDATASIZE PUSH0 PUSH0 RETURNDATACOPY RETURNDATASIZE PUSH0 REVERT JUMPDEST POP POP POP POP PUSH1 0xFB PUSH0 SWAP1 SLOAD SWAP1 PUSH2 0x100 EXP SWAP1 DIV PUSH1 0x1 PUSH1 0x1 PUSH1 0xA0 SHL SUB AND PUSH1 0x1 PUSH1 0x1 PUSH1 0xA0 SHL SUB AND PUSH4 0xA7C7FDEB PUSH1 0x40 MLOAD DUP2 PUSH4 0xFFFFFFFF AND PUSH1 0xE0 SHL DUP2 MSTORE PUSH1 0x4 ADD PUSH0 PUSH1 0x40 MLOAD DUP1 DUP4 SUB DUP2 PUSH0 DUP8 DUP1 EXTCODESIZE ISZERO DUP1 ISZERO PUSH2 0x2F19 JUMPI PUSH0 PUSH0 REVERT JUMPDEST POP GAS CALL ISZERO DUP1 ISZERO PUSH2 0x2F2B JUMPI RETURNDATASIZE PUSH0 PUSH0 RETURNDATACOPY RETURNDATASIZE PUSH0 REVERT JUMPDEST POP POP POP POP PUSH0 PUSH2 0x2F42 PUSH1 0xFC SLOAD PUSH1 0x1 PUSH1 0x1 PUSH1 0xA0 SHL SUB AND SWAP1 JUMP JUMPDEST PUSH1 0x1 PUSH1 0x1 PUSH1 0xA0 SHL SUB AND PUSH4 0x3FC8CEF3 PUSH1 0x40 MLOAD DUP2 PUSH4 0xFFFFFFFF AND PUSH1 0xE0 SHL DUP2 MSTORE PUSH1 0x4 ADD PUSH1 0x20 PUSH1 0x40 MLOAD DUP1 DUP4 SUB DUP2 DUP7 GAS STATICCALL ISZERO DUP1 ISZERO PUSH2 0x2F7D JUMPI RETURNDATASIZE PUSH0 PUSH0 RETURNDATACOPY RETURNDATASIZE PUSH0 REVERT JUMPDEST POP POP POP POP PUSH1 0x40 MLOAD RETURNDATASIZE PUSH1 0x1F NOT PUSH1 0x1F DUP3 ADD AND DUP3 ADD DUP1 PUSH1 0x40 MSTORE POP DUP2 ADD SWAP1 PUSH2 0x2FA1 SWAP2 SWAP1 PUSH2 0x4923 JUMP JUMPDEST SWAP1 POP PUSH0 PUSH2 0x2FB6 PUSH1 0xFC SLOAD PUSH1 0x1 PUSH1 0x1 PUSH1 0xA0 SHL SUB AND SWAP1 JUMP JUMPDEST PUSH1 0x1 PUSH1 0x1 PUSH1 0xA0 SHL SUB AND PUSH4 0xF887EA40 PUSH1 0x40 MLOAD DUP2 PUSH4 0xFFFFFFFF AND PUSH1 0xE0 SHL DUP2 MSTORE PUSH1 0x4 ADD PUSH1 0x20 PUSH1 0x40 MLOAD DUP1 DUP4 SUB DUP2 DUP7 GAS STATICCALL ISZERO DUP1 ISZERO PUSH2 0x2FF1 JUMPI RETURNDATASIZE PUSH0 PUSH0 RETURNDATACOPY RETURNDATASIZE PUSH0 REVERT JUMPDEST POP POP POP POP PUSH1 0x40 MLOAD RETURNDATASIZE PUSH1 0x1F NOT PUSH1 0x1F DUP3 ADD AND DUP3 ADD DUP1 PUSH1 0x40 MSTORE POP DUP2 ADD SWAP1 PUSH2 0x3015 SWAP2 SWAP1 PUSH2 0x4923 JUMP JUMPDEST SWAP1 POP PUSH0 PUSH2 0x3024 DUP4 DUP4 DUP11 DUP10 PUSH2 0x387B JUMP JUMPDEST SWAP1 POP PUSH2 0x3035 DUP2 DUP12 DUP12 DUP7 DUP7 DUP14 DUP13 PUSH2 0x394E JUMP JUMPDEST PUSH2 0x303F DUP11 DUP11 PUSH2 0x3A01 JUMP JUMPDEST POP POP POP POP POP POP POP POP POP POP JUMP JUMPDEST PUSH2 0x17D4 CALLER DUP4 DUP4 PUSH2 0x3B20 JUMP JUMPDEST PUSH2 0x3060 CALLER DUP4 PUSH2 0x31B3 JUMP JUMPDEST PUSH2 0x307C JUMPI PUSH1 0x40 MLOAD PUSH3 0x461BCD PUSH1 0xE5 SHL DUP2 MSTORE PUSH1 0x4 ADD PUSH2 0x1FC SWAP1 PUSH2 0x4DFC JUMP JUMPDEST PUSH2 0xA41 DUP5 DUP5 DUP5 DUP5 PUSH2 0x3BED JUMP JUMPDEST PUSH1 0x60 PUSH2 0x3093 DUP3 PUSH2 0x1E3A JUMP JUMPDEST PUSH0 PUSH2 0x30A8 PUSH1 0x40 DUP1 MLOAD PUSH1 0x20 DUP2 ADD SWAP1 SWAP2 MSTORE PUSH0 DUP2 MSTORE SWAP1 JUMP JUMPDEST SWAP1 POP PUSH0 DUP2 MLOAD GT PUSH2 0x30C6 JUMPI PUSH1 0x40 MLOAD DUP1 PUSH1 0x20 ADD PUSH1 0x40 MSTORE DUP1 PUSH0 DUP2 MSTORE POP PUSH2 0x291A JUMP JUMPDEST DUP1 PUSH2 0x30D0 DUP5 PUSH2 0x3C20 JUMP JUMPDEST PUSH1 0x40 MLOAD PUSH1 0x20 ADD PUSH2 0x30E1 SWAP3 SWAP2 SWAP1 PUSH2 0x4D74 JUMP JUMPDEST PUSH1 0x40 MLOAD PUSH1 0x20 DUP2 DUP4 SUB SUB DUP2 MSTORE SWAP1 PUSH1 0x40 MSTORE SWAP4 SWAP3 POP POP POP JUMP JUMPDEST PUSH0 PUSH1 0x1 PUSH1 0x1 PUSH1 0xE0 SHL SUB NOT DUP3 AND PUSH4 0x80AC58CD PUSH1 0xE0 SHL EQ DUP1 PUSH2 0x3127 JUMPI POP PUSH1 0x1 PUSH1 0x1 PUSH1 0xE0 SHL SUB NOT DUP3 AND PUSH4 0x5B5E139F PUSH1 0xE0 SHL EQ JUMPDEST DUP1 PUSH2 0x5D8 JUMPI POP PUSH4 0x1FFC9A7 PUSH1 0xE0 SHL PUSH1 0x1 PUSH1 0x1 PUSH1 0xE0 SHL SUB NOT DUP4 AND EQ PUSH2 0x5D8 JUMP JUMPDEST PUSH0 DUP2 DUP2 MSTORE PUSH1 0x69 PUSH1 0x20 MSTORE PUSH1 0x40 SWAP1 KECCAK256 DUP1 SLOAD PUSH1 0x1 PUSH1 0x1 PUSH1 0xA0 SHL SUB NOT AND PUSH1 0x1 PUSH1 0x1 PUSH1 0xA0 SHL SUB DUP5 AND SWAP1 DUP2 OR SWAP1 SWAP2 SSTORE DUP2 SWAP1 PUSH2 0x317A DUP3 PUSH2 0x120D JUMP JUMPDEST PUSH1 0x1 PUSH1 0x1 PUSH1 0xA0 SHL SUB AND PUSH32 0x8C5BE1E5EBEC7D5BD14F71427D1E84F3DD0314C0F7B2291E5B200AC8C7C3B925 PUSH1 0x40 MLOAD PUSH1 0x40 MLOAD DUP1 SWAP2 SUB SWAP1 LOG4 POP POP JUMP JUMPDEST PUSH0 PUSH0 PUSH2 0x31BE DUP4 PUSH2 0x120D JUMP JUMPDEST SWAP1 POP DUP1 PUSH1 0x1 PUSH1 0x1 PUSH1 0xA0 SHL SUB AND DUP5 PUSH1 0x1 PUSH1 0x1 PUSH1 0xA0 SHL SUB AND EQ DUP1 PUSH2 0x31E5 JUMPI POP PUSH2 0x31E5 DUP2 DUP6 PUSH2 0x1D29 JUMP JUMPDEST DUP1 PUSH2 0x1BCC JUMPI POP DUP4 PUSH1 0x1 PUSH1 0x1 PUSH1 0xA0 SHL SUB AND PUSH2 0x31FE DUP5 PUSH2 0x69E JUMP JUMPDEST PUSH1 0x1 PUSH1 0x1 PUSH1 0xA0 SHL SUB AND EQ SWAP5 SWAP4 POP POP POP POP JUMP JUMPDEST DUP3 PUSH1 0x1 PUSH1 0x1 PUSH1 0xA0 SHL SUB AND PUSH2 0x3223 DUP3 PUSH2 0x120D JUMP JUMPDEST PUSH1 0x1 PUSH1 0x1 PUSH1 0xA0 SHL SUB AND EQ PUSH2 0x3249 JUMPI PUSH1 0x40 MLOAD PUSH3 0x461BCD PUSH1 0xE5 SHL DUP2 MSTORE PUSH1 0x4 ADD PUSH2 0x1FC SWAP1 PUSH2 0x4F9B JUMP JUMPDEST PUSH1 0x1 PUSH1 0x1 PUSH1 0xA0 SHL SUB DUP3 AND PUSH2 0x32AB JUMPI PUSH1 0x40 MLOAD PUSH3 0x461BCD PUSH1 0xE5 SHL DUP2 MSTORE PUSH1 0x20 PUSH1 0x4 DUP3 ADD MSTORE PUSH1 0x24 DUP1 DUP3 ADD MSTORE PUSH32 0x4552433732313A207472616E7366657220746F20746865207A65726F20616464 PUSH1 0x44 DUP3 ADD MSTORE PUSH4 0x72657373 PUSH1 0xE0 SHL PUSH1 0x64 DUP3 ADD MSTORE PUSH1 0x84 ADD PUSH2 0x1FC JUMP JUMPDEST DUP3 PUSH1 0x1 PUSH1 0x1 PUSH1 0xA0 SHL SUB AND PUSH2 0x32BE DUP3 PUSH2 0x120D JUMP JUMPDEST PUSH1 0x1 PUSH1 0x1 PUSH1 0xA0 SHL SUB AND EQ PUSH2 0x32E4 JUMPI PUSH1 0x40 MLOAD PUSH3 0x461BCD PUSH1 0xE5 SHL DUP2 MSTORE PUSH1 0x4 ADD PUSH2 0x1FC SWAP1 PUSH2 0x4F9B JUMP JUMPDEST PUSH0 DUP2 DUP2 MSTORE PUSH1 0x69 PUSH1 0x20 SWAP1 DUP2 MSTORE PUSH1 0x40 DUP1 DUP4 KECCAK256 DUP1 SLOAD PUSH1 0x1 PUSH1 0x1 PUSH1 0xA0 SHL SUB NOT SWAP1 DUP2 AND SWAP1 SWAP2 SSTORE PUSH1 0x1 PUSH1 0x1 PUSH1 0xA0 SHL SUB DUP8 DUP2 AND DUP1 DUP7 MSTORE PUSH1 0x68 DUP6 MSTORE DUP4 DUP7 KECCAK256 DUP1 SLOAD PUSH0 NOT ADD SWAP1 SSTORE SWAP1 DUP8 AND DUP1 DUP7 MSTORE DUP4 DUP7 KECCAK256 DUP1 SLOAD PUSH1 0x1 ADD SWAP1 SSTORE DUP7 DUP7 MSTORE PUSH1 0x67 SWAP1 SWAP5 MSTORE DUP3 DUP6 KECCAK256 DUP1 SLOAD SWAP1 SWAP3 AND DUP5 OR SWAP1 SWAP2 SSTORE SWAP1 MLOAD DUP5 SWAP4 PUSH32 0xDDF252AD1BE2C89B69C2B068FC378DAA952BA7F163C4A11628F55A4DF523B3EF SWAP2 LOG4 POP POP POP JUMP JUMPDEST PUSH0 SLOAD PUSH2 0x100 SWAP1 DIV PUSH1 0xFF AND PUSH2 0x3398 JUMPI PUSH1 0x40 MLOAD PUSH3 0x461BCD PUSH1 0xE5 SHL DUP2 MSTORE PUSH1 0x4 ADD PUSH2 0x1FC SWAP1 PUSH2 0x4E49 JUMP JUMPDEST PUSH1 0x65 PUSH2 0x33A4 DUP4 DUP3 PUSH2 0x4EAD JUMP JUMPDEST POP PUSH1 0x66 PUSH2 0x98F DUP3 DUP3 PUSH2 0x4EAD JUMP JUMPDEST PUSH0 SLOAD PUSH2 0x100 SWAP1 DIV PUSH1 0xFF AND PUSH2 0x2921 JUMPI PUSH1 0x40 MLOAD PUSH3 0x461BCD PUSH1 0xE5 SHL DUP2 MSTORE PUSH1 0x4 ADD PUSH2 0x1FC SWAP1 PUSH2 0x4E49 JUMP JUMPDEST PUSH0 DUP2 DUP5 MLOAD GT ISZERO PUSH2 0x3441 JUMPI DUP2 JUMPDEST DUP5 MLOAD DUP2 LT ISZERO PUSH2 0x343F JUMPI DUP4 PUSH1 0x1 PUSH1 0x1 PUSH1 0xA0 SHL SUB AND DUP6 DUP3 DUP2 MLOAD DUP2 LT PUSH2 0x3408 JUMPI PUSH2 0x3408 PUSH2 0x493E JUMP JUMPDEST PUSH1 0x20 MUL PUSH1 0x20 ADD ADD MLOAD PUSH1 0x1 PUSH1 0x1 PUSH1 0xA0 SHL SUB AND SUB PUSH2 0x3437 JUMPI PUSH1 0x40 MLOAD PUSH4 0x23271FB5 PUSH1 0xE1 SHL DUP2 MSTORE PUSH1 0x4 ADD PUSH1 0x40 MLOAD DUP1 SWAP2 SUB SWAP1 REVERT JUMPDEST PUSH1 0x1 ADD PUSH2 0x33E3 JUMP JUMPDEST POP JUMPDEST POP PUSH0 SWAP4 SWAP3 POP POP POP JUMP JUMPDEST PUSH2 0x3454 DUP4 DUP4 PUSH2 0x3CAF JUMP JUMPDEST PUSH2 0x3460 PUSH0 DUP5 DUP5 DUP5 PUSH2 0x3E37 JUMP JUMPDEST PUSH2 0x98F JUMPI PUSH1 0x40 MLOAD PUSH3 0x461BCD PUSH1 0xE5 SHL DUP2 MSTORE PUSH1 0x4 ADD PUSH2 0x1FC SWAP1 PUSH2 0x4FE0 JUMP JUMPDEST PUSH0 PUSH2 0x3491 PUSH1 0x1 PUSH1 0x1 PUSH1 0xA0 SHL SUB DUP10 AND DUP8 DUP4 PUSH2 0x3F34 JUMP JUMPDEST PUSH2 0x34A5 PUSH1 0x1 PUSH1 0x1 PUSH1 0xA0 SHL SUB DUP10 AND DUP8 DUP8 PUSH2 0x3F34 JUMP JUMPDEST PUSH0 PUSH2 0x34B8 PUSH1 0xFC SLOAD PUSH1 0x1 PUSH1 0x1 PUSH1 0xA0 SHL SUB AND SWAP1 JUMP JUMPDEST PUSH1 0x40 MLOAD PUSH4 0xD88E3E3B PUSH1 0xE0 SHL DUP2 MSTORE PUSH1 0x1 PUSH1 0x1 PUSH1 0xA0 SHL SUB DUP12 DUP2 AND PUSH1 0x4 DUP4 ADD MSTORE DUP11 DUP2 AND PUSH1 0x24 DUP4 ADD MSTORE SWAP2 SWAP1 SWAP2 AND SWAP1 PUSH4 0xD88E3E3B SWAP1 PUSH1 0x44 ADD PUSH0 PUSH1 0x40 MLOAD DUP1 DUP4 SUB DUP2 DUP7 GAS STATICCALL ISZERO DUP1 ISZERO PUSH2 0x3505 JUMPI RETURNDATASIZE PUSH0 PUSH0 RETURNDATACOPY RETURNDATASIZE PUSH0 REVERT JUMPDEST POP POP POP POP PUSH1 0x40 MLOAD RETURNDATASIZE PUSH0 DUP3 RETURNDATACOPY PUSH1 0x1F RETURNDATASIZE SWAP1 DUP2 ADD PUSH1 0x1F NOT AND DUP3 ADD PUSH1 0x40 MSTORE PUSH2 0x352C SWAP2 SWAP1 DUP2 ADD SWAP1 PUSH2 0x498B JUMP JUMPDEST SWAP1 POP DUP1 MLOAD PUSH1 0x2 EQ PUSH2 0x3550 JUMPI PUSH1 0x40 MLOAD PUSH4 0x251F56A1 PUSH1 0xE2 SHL DUP2 MSTORE PUSH1 0x4 ADD PUSH1 0x40 MLOAD DUP1 SWAP2 SUB SWAP1 REVERT JUMPDEST PUSH0 PUSH2 0x2710 PUSH2 0x355E DUP7 DUP3 PUSH2 0x4D27 JUMP JUMPDEST PUSH1 0xFC SLOAD PUSH1 0x40 MLOAD PUSH4 0xD06CA61F PUSH1 0xE0 SHL DUP2 MSTORE PUSH1 0x1 PUSH1 0x1 PUSH1 0xA0 SHL SUB SWAP1 SWAP2 AND SWAP1 PUSH4 0xD06CA61F SWAP1 PUSH2 0x3590 SWAP1 DUP13 SWAP1 DUP9 SWAP1 PUSH1 0x4 ADD PUSH2 0x4A24 JUMP JUMPDEST PUSH1 0x20 PUSH1 0x40 MLOAD DUP1 DUP4 SUB DUP2 DUP7 GAS STATICCALL ISZERO DUP1 ISZERO PUSH2 0x35AB JUMPI RETURNDATASIZE PUSH0 PUSH0 RETURNDATACOPY RETURNDATASIZE PUSH0 REVERT JUMPDEST POP POP POP POP PUSH1 0x40 MLOAD RETURNDATASIZE PUSH1 0x1F NOT PUSH1 0x1F DUP3 ADD AND DUP3 ADD DUP1 PUSH1 0x40 MSTORE POP DUP2 ADD SWAP1 PUSH2 0x35CF SWAP2 SWAP1 PUSH2 0x4952 JUMP JUMPDEST PUSH2 0x35D9 SWAP2 SWAP1 PUSH2 0x4A7E JUMP JUMPDEST PUSH2 0x35E3 SWAP2 SWAP1 PUSH2 0x4A95 JUMP JUMPDEST PUSH1 0x40 MLOAD PUSH4 0x70A08231 PUSH1 0xE0 SHL DUP2 MSTORE PUSH1 0x1 PUSH1 0x1 PUSH1 0xA0 SHL SUB DUP9 DUP2 AND PUSH1 0x4 DUP4 ADD MSTORE SWAP2 SWAP3 POP PUSH0 SWAP2 DUP12 AND SWAP1 PUSH4 0x70A08231 SWAP1 PUSH1 0x24 ADD PUSH1 0x20 PUSH1 0x40 MLOAD DUP1 DUP4 SUB DUP2 DUP7 GAS STATICCALL ISZERO DUP1 ISZERO PUSH2 0x362C JUMPI RETURNDATASIZE PUSH0 PUSH0 RETURNDATACOPY RETURNDATASIZE PUSH0 REVERT JUMPDEST POP POP POP POP PUSH1 0x40 MLOAD RETURNDATASIZE PUSH1 0x1F NOT PUSH1 0x1F DUP3 ADD AND DUP3 ADD DUP1 PUSH1 0x40 MSTORE POP DUP2 ADD SWAP1 PUSH2 0x3650 SWAP2 SWAP1 PUSH2 0x4952 JUMP JUMPDEST PUSH1 0x40 MLOAD PUSH4 0x5C11D795 PUSH1 0xE0 SHL DUP2 MSTORE SWAP1 SWAP2 POP PUSH1 0x1 PUSH1 0x1 PUSH1 0xA0 SHL SUB DUP11 AND SWAP1 PUSH4 0x5C11D795 SWAP1 PUSH2 0x3687 SWAP1 DUP12 SWAP1 DUP7 SWAP1 DUP9 SWAP1 DUP14 SWAP1 DUP13 SWAP1 PUSH1 0x4 ADD PUSH2 0x5032 JUMP JUMPDEST PUSH0 PUSH1 0x40 MLOAD DUP1 DUP4 SUB DUP2 PUSH0 DUP8 DUP1 EXTCODESIZE ISZERO DUP1 ISZERO PUSH2 0x369E JUMPI PUSH0 PUSH0 REVERT JUMPDEST POP GAS CALL ISZERO DUP1 ISZERO PUSH2 0x36B0 JUMPI RETURNDATASIZE PUSH0 PUSH0 RETURNDATACOPY RETURNDATASIZE PUSH0 REVERT JUMPDEST POP POP PUSH1 0x40 MLOAD PUSH4 0x70A08231 PUSH1 0xE0 SHL DUP2 MSTORE PUSH1 0x1 PUSH1 0x1 PUSH1 0xA0 SHL SUB DUP11 DUP2 AND PUSH1 0x4 DUP4 ADD MSTORE PUSH0 SWAP4 POP DUP14 AND SWAP2 POP PUSH4 0x70A08231 SWAP1 PUSH1 0x24 ADD PUSH1 0x20 PUSH1 0x40 MLOAD DUP1 DUP4 SUB DUP2 DUP7 GAS STATICCALL ISZERO DUP1 ISZERO PUSH2 0x36FA JUMPI RETURNDATASIZE PUSH0 PUSH0 RETURNDATACOPY RETURNDATASIZE PUSH0 REVERT JUMPDEST POP POP POP POP PUSH1 0x40 MLOAD RETURNDATASIZE PUSH1 0x1F NOT PUSH1 0x1F DUP3 ADD AND DUP3 ADD DUP1 PUSH1 0x40 MSTORE POP DUP2 ADD SWAP1 PUSH2 0x371E SWAP2 SWAP1 PUSH2 0x4952 JUMP JUMPDEST SWAP1 POP PUSH2 0x372A DUP3 DUP3 PUSH2 0x4D27 JUMP JUMPDEST SWAP13 SWAP12 POP POP POP POP POP POP POP POP POP POP POP POP JUMP JUMPDEST PUSH0 DUP1 DUP5 ISZERO PUSH2 0x1BCC JUMPI PUSH2 0x2710 PUSH2 0x374F DUP7 DUP6 PUSH2 0x4A7E JUMP JUMPDEST PUSH2 0x3759 SWAP2 SWAP1 PUSH2 0x4A95 JUMP JUMPDEST SWAP1 POP PUSH0 DUP5 PUSH1 0x1 PUSH1 0x1 PUSH1 0xA0 SHL SUB AND DUP3 PUSH1 0x40 MLOAD PUSH0 PUSH1 0x40 MLOAD DUP1 DUP4 SUB DUP2 DUP6 DUP8 GAS CALL SWAP3 POP POP POP RETURNDATASIZE DUP1 PUSH0 DUP2 EQ PUSH2 0x37A4 JUMPI PUSH1 0x40 MLOAD SWAP2 POP PUSH1 0x1F NOT PUSH1 0x3F RETURNDATASIZE ADD AND DUP3 ADD PUSH1 0x40 MSTORE RETURNDATASIZE DUP3 MSTORE RETURNDATASIZE PUSH0 PUSH1 0x20 DUP5 ADD RETURNDATACOPY PUSH2 0x37A9 JUMP JUMPDEST PUSH1 0x60 SWAP2 POP JUMPDEST POP POP SWAP1 POP DUP1 PUSH2 0x3804 JUMPI PUSH1 0x40 MLOAD PUSH3 0x461BCD PUSH1 0xE5 SHL DUP2 MSTORE PUSH1 0x20 PUSH1 0x4 DUP3 ADD MSTORE PUSH1 0x21 PUSH1 0x24 DUP3 ADD MSTORE PUSH32 0x4661696C656420746F2064656475637420436F6E747269627574696F6E204665 PUSH1 0x44 DUP3 ADD MSTORE PUSH1 0x65 PUSH1 0xF8 SHL PUSH1 0x64 DUP3 ADD MSTORE PUSH1 0x84 ADD PUSH2 0x1FC JUMP JUMPDEST DUP5 PUSH1 0x1 PUSH1 0x1 PUSH1 0xA0 SHL SUB AND PUSH32 0x72CD57B8DE25C52A120A25DE816C33EF7193FF5985D2106CF9D4269EDC0B7055 DUP4 DUP9 PUSH1 0x40 MLOAD PUSH2 0x386A SWAP3 SWAP2 SWAP1 SWAP2 DUP3 MSTORE PUSH1 0x20 DUP3 ADD MSTORE PUSH1 0x60 PUSH1 0x40 DUP3 ADD DUP2 SWAP1 MSTORE PUSH1 0xA SWAP1 DUP3 ADD MSTORE PUSH10 0x636F6E74726962757465 PUSH1 0xB0 SHL PUSH1 0x80 DUP3 ADD MSTORE PUSH1 0xA0 ADD SWAP1 JUMP JUMPDEST PUSH1 0x40 MLOAD DUP1 SWAP2 SUB SWAP1 LOG2 POP SWAP5 SWAP4 POP POP POP POP JUMP JUMPDEST PUSH2 0x100 SLOAD PUSH0 SWAP1 DUP2 JUMPDEST DUP2 DUP2 LT ISZERO PUSH2 0x3944 JUMPI PUSH0 PUSH2 0x100 PUSH0 ADD DUP3 DUP2 SLOAD DUP2 LT PUSH2 0x38A2 JUMPI PUSH2 0x38A2 PUSH2 0x493E JUMP JUMPDEST PUSH0 SWAP2 DUP3 MSTORE PUSH1 0x20 DUP3 KECCAK256 ADD SLOAD PUSH1 0x40 MLOAD PUSH4 0x70A08231 PUSH1 0xE0 SHL DUP2 MSTORE ADDRESS PUSH1 0x4 DUP3 ADD MSTORE PUSH1 0x1 PUSH1 0x1 PUSH1 0xA0 SHL SUB SWAP1 SWAP2 AND SWAP3 POP DUP3 SWAP1 PUSH4 0x70A08231 SWAP1 PUSH1 0x24 ADD PUSH1 0x20 PUSH1 0x40 MLOAD DUP1 DUP4 SUB DUP2 DUP7 GAS STATICCALL ISZERO DUP1 ISZERO PUSH2 0x38F2 JUMPI RETURNDATASIZE PUSH0 PUSH0 RETURNDATACOPY RETURNDATASIZE PUSH0 REVERT JUMPDEST POP POP POP POP PUSH1 0x40 MLOAD RETURNDATASIZE PUSH1 0x1F NOT PUSH1 0x1F DUP3 ADD AND DUP3 ADD DUP1 PUSH1 0x40 MSTORE POP DUP2 ADD SWAP1 PUSH2 0x3916 SWAP2 SWAP1 PUSH2 0x4952 JUMP JUMPDEST SWAP1 POP DUP1 ISZERO PUSH2 0x393A JUMPI PUSH2 0x392D DUP3 DUP11 DUP11 DUP5 ADDRESS DUP13 DUP13 PUSH2 0x347C JUMP JUMPDEST PUSH2 0x3937 SWAP1 DUP7 PUSH2 0x4A50 JUMP JUMPDEST SWAP5 POP JUMPDEST POP POP PUSH1 0x1 ADD PUSH2 0x3883 JUMP JUMPDEST POP POP SWAP5 SWAP4 POP POP POP POP JUMP JUMPDEST DUP5 MLOAD PUSH0 DUP1 JUMPDEST DUP3 DUP2 LT ISZERO PUSH2 0x303F JUMPI PUSH0 PUSH2 0x3967 PUSH1 0x1 DUP6 PUSH2 0x4D27 JUMP JUMPDEST DUP3 SUB PUSH2 0x397E JUMPI PUSH2 0x3977 DUP4 DUP13 PUSH2 0x4D27 JUMP JUMPDEST SWAP1 POP PUSH2 0x39BF JUMP JUMPDEST PUSH2 0x2710 DUP10 DUP4 DUP2 MLOAD DUP2 LT PUSH2 0x3993 JUMPI PUSH2 0x3993 PUSH2 0x493E JUMP JUMPDEST PUSH1 0x20 MUL PUSH1 0x20 ADD ADD MLOAD DUP13 PUSH2 0x39A6 SWAP2 SWAP1 PUSH2 0x4A7E JUMP JUMPDEST PUSH2 0x39B0 SWAP2 SWAP1 PUSH2 0x4A95 JUMP JUMPDEST SWAP1 POP PUSH2 0x39BC DUP2 DUP5 PUSH2 0x4A50 JUMP JUMPDEST SWAP3 POP JUMPDEST PUSH2 0x39F7 DUP9 DUP12 DUP5 DUP2 MLOAD DUP2 LT PUSH2 0x39D5 JUMPI PUSH2 0x39D5 PUSH2 0x493E JUMP JUMPDEST PUSH1 0x20 SWAP1 DUP2 MUL SWAP2 SWAP1 SWAP2 ADD ADD MLOAD PUSH1 0xFB SLOAD DUP11 SWAP1 DUP6 SWAP1 PUSH1 0x1 PUSH1 0x1 PUSH1 0xA0 SHL SUB AND DUP12 DUP12 PUSH2 0x347C JUMP JUMPDEST POP POP PUSH1 0x1 ADD PUSH2 0x3953 JUMP JUMPDEST PUSH1 0x40 MLOAD ADDRESS SWAP1 PUSH32 0xE4F61CF83ACD10ECE084C8F8F7D63510F8189631A159BB904672D84EA0104E25 SWAP1 PUSH2 0x3A3D SWAP1 PUSH2 0x100 SWAP1 PUSH2 0x101 SWAP1 DUP8 SWAP1 DUP8 SWAP1 PUSH2 0x50A0 JUMP JUMPDEST PUSH1 0x40 MLOAD DUP1 SWAP2 SUB SWAP1 LOG2 PUSH1 0xFB SLOAD PUSH1 0x40 MLOAD PUSH4 0x37905A47 PUSH1 0xE2 SHL DUP2 MSTORE PUSH1 0x1 PUSH1 0x1 PUSH1 0xA0 SHL SUB SWAP1 SWAP2 AND SWAP1 PUSH4 0xDE41691C SWAP1 PUSH2 0x3A75 SWAP1 DUP6 SWAP1 PUSH1 0x4 ADD PUSH2 0x5122 JUMP JUMPDEST PUSH0 PUSH1 0x40 MLOAD DUP1 DUP4 SUB DUP2 PUSH0 DUP8 DUP1 EXTCODESIZE ISZERO DUP1 ISZERO PUSH2 0x3A8C JUMPI PUSH0 PUSH0 REVERT JUMPDEST POP GAS CALL ISZERO DUP1 ISZERO PUSH2 0x3A9E JUMPI RETURNDATASIZE PUSH0 PUSH0 RETURNDATACOPY RETURNDATASIZE PUSH0 REVERT JUMPDEST POP POP DUP4 MLOAD PUSH2 0x3AB6 SWAP3 POP PUSH2 0x100 SWAP2 POP PUSH1 0x20 DUP6 ADD SWAP1 PUSH2 0x43CA JUMP JUMPDEST POP DUP1 MLOAD PUSH2 0x3ACB SWAP1 PUSH2 0x101 SWAP1 PUSH1 0x20 DUP5 ADD SWAP1 PUSH2 0x441D JUMP JUMPDEST POP PUSH1 0xFB SLOAD PUSH1 0x40 MLOAD PUSH4 0xBA6BA385 PUSH1 0xE0 SHL DUP2 MSTORE PUSH0 PUSH1 0x4 DUP3 ADD MSTORE PUSH1 0x1 PUSH1 0x1 PUSH1 0xA0 SHL SUB SWAP1 SWAP2 AND SWAP1 PUSH4 0xBA6BA385 SWAP1 PUSH1 0x24 ADD PUSH0 PUSH1 0x40 MLOAD DUP1 DUP4 SUB DUP2 PUSH0 DUP8 DUP1 EXTCODESIZE ISZERO DUP1 ISZERO PUSH2 0x3B0E JUMPI PUSH0 PUSH0 REVERT JUMPDEST POP GAS CALL ISZERO DUP1 ISZERO PUSH2 0x18C4 JUMPI RETURNDATASIZE PUSH0 PUSH0 RETURNDATACOPY RETURNDATASIZE PUSH0 REVERT JUMPDEST DUP2 PUSH1 0x1 PUSH1 0x1 PUSH1 0xA0 SHL SUB AND DUP4 PUSH1 0x1 PUSH1 0x1 PUSH1 0xA0 SHL SUB AND SUB PUSH2 0x3B81 JUMPI PUSH1 0x40 MLOAD PUSH3 0x461BCD PUSH1 0xE5 SHL DUP2 MSTORE PUSH1 0x20 PUSH1 0x4 DUP3 ADD MSTORE PUSH1 0x19 PUSH1 0x24 DUP3 ADD MSTORE PUSH32 0x4552433732313A20617070726F766520746F2063616C6C657200000000000000 PUSH1 0x44 DUP3 ADD MSTORE PUSH1 0x64 ADD PUSH2 0x1FC JUMP JUMPDEST PUSH1 0x1 PUSH1 0x1 PUSH1 0xA0 SHL SUB DUP4 DUP2 AND PUSH0 DUP2 DUP2 MSTORE PUSH1 0x6A PUSH1 0x20 SWAP1 DUP2 MSTORE PUSH1 0x40 DUP1 DUP4 KECCAK256 SWAP5 DUP8 AND DUP1 DUP5 MSTORE SWAP5 DUP3 MSTORE SWAP2 DUP3 SWAP1 KECCAK256 DUP1 SLOAD PUSH1 0xFF NOT AND DUP7 ISZERO ISZERO SWAP1 DUP2 OR SWAP1 SWAP2 SSTORE SWAP2 MLOAD SWAP2 DUP3 MSTORE PUSH32 0x17307EAB39AB6107E8899845AD3D59BD9653F200F220920489CA2B5937696C31 SWAP2 ADD PUSH1 0x40 MLOAD DUP1 SWAP2 SUB SWAP1 LOG3 POP POP POP JUMP JUMPDEST PUSH2 0x3BF8 DUP5 DUP5 DUP5 PUSH2 0x3210 JUMP JUMPDEST PUSH2 0x3C04 DUP5 DUP5 DUP5 DUP5 PUSH2 0x3E37 JUMP JUMPDEST PUSH2 0xA41 JUMPI PUSH1 0x40 MLOAD PUSH3 0x461BCD PUSH1 0xE5 SHL DUP2 MSTORE PUSH1 0x4 ADD PUSH2 0x1FC SWAP1 PUSH2 0x4FE0 JUMP JUMPDEST PUSH1 0x60 PUSH0 PUSH2 0x3C2C DUP4 PUSH2 0x4069 JUMP JUMPDEST PUSH1 0x1 ADD SWAP1 POP PUSH0 DUP2 PUSH1 0x1 PUSH1 0x1 PUSH1 0x40 SHL SUB DUP2 GT ISZERO PUSH2 0x3C4A JUMPI PUSH2 0x3C4A PUSH2 0x470E JUMP JUMPDEST PUSH1 0x40 MLOAD SWAP1 DUP1 DUP3 MSTORE DUP1 PUSH1 0x1F ADD PUSH1 0x1F NOT AND PUSH1 0x20 ADD DUP3 ADD PUSH1 0x40 MSTORE DUP1 ISZERO PUSH2 0x3C74 JUMPI PUSH1 0x20 DUP3 ADD DUP2 DUP1 CALLDATASIZE DUP4 CALLDATACOPY ADD SWAP1 POP JUMPDEST POP SWAP1 POP DUP2 DUP2 ADD PUSH1 0x20 ADD JUMPDEST PUSH0 NOT ADD PUSH16 0x181899199A1A9B1B9C1CB0B131B232B3 PUSH1 0x81 SHL PUSH1 0xA DUP7 MOD BYTE DUP2 MSTORE8 PUSH1 0xA DUP6 DIV SWAP5 POP DUP5 PUSH2 0x3C7E JUMPI POP SWAP4 SWAP3 POP POP POP JUMP JUMPDEST PUSH1 0x1 PUSH1 0x1 PUSH1 0xA0 SHL SUB DUP3 AND PUSH2 0x3D05 JUMPI PUSH1 0x40 MLOAD PUSH3 0x461BCD PUSH1 0xE5 SHL DUP2 MSTORE PUSH1 0x20 PUSH1 0x4 DUP3 ADD DUP2 SWAP1 MSTORE PUSH1 0x24 DUP3 ADD MSTORE PUSH32 0x4552433732313A206D696E7420746F20746865207A65726F2061646472657373 PUSH1 0x44 DUP3 ADD MSTORE PUSH1 0x64 ADD PUSH2 0x1FC JUMP JUMPDEST PUSH0 DUP2 DUP2 MSTORE PUSH1 0x67 PUSH1 0x20 MSTORE PUSH1 0x40 SWAP1 KECCAK256 SLOAD PUSH1 0x1 PUSH1 0x1 PUSH1 0xA0 SHL SUB AND ISZERO PUSH2 0x3D69 JUMPI PUSH1 0x40 MLOAD PUSH3 0x461BCD PUSH1 0xE5 SHL DUP2 MSTORE PUSH1 0x20 PUSH1 0x4 DUP3 ADD MSTORE PUSH1 0x1C PUSH1 0x24 DUP3 ADD MSTORE PUSH32 0x4552433732313A20746F6B656E20616C7265616479206D696E74656400000000 PUSH1 0x44 DUP3 ADD MSTORE PUSH1 0x64 ADD PUSH2 0x1FC JUMP JUMPDEST PUSH0 DUP2 DUP2 MSTORE PUSH1 0x67 PUSH1 0x20 MSTORE PUSH1 0x40 SWAP1 KECCAK256 SLOAD PUSH1 0x1 PUSH1 0x1 PUSH1 0xA0 SHL SUB AND ISZERO PUSH2 0x3DCD JUMPI PUSH1 0x40 MLOAD PUSH3 0x461BCD PUSH1 0xE5 SHL DUP2 MSTORE PUSH1 0x20 PUSH1 0x4 DUP3 ADD MSTORE PUSH1 0x1C PUSH1 0x24 DUP3 ADD MSTORE PUSH32 0x4552433732313A20746F6B656E20616C7265616479206D696E74656400000000 PUSH1 0x44 DUP3 ADD MSTORE PUSH1 0x64 ADD PUSH2 0x1FC JUMP JUMPDEST PUSH1 0x1 PUSH1 0x1 PUSH1 0xA0 SHL SUB DUP3 AND PUSH0 DUP2 DUP2 MSTORE PUSH1 0x68 PUSH1 0x20 SWAP1 DUP2 MSTORE PUSH1 0x40 DUP1 DUP4 KECCAK256 DUP1 SLOAD PUSH1 0x1 ADD SWAP1 SSTORE DUP5 DUP4 MSTORE PUSH1 0x67 SWAP1 SWAP2 MSTORE DUP1 DUP3 KECCAK256 DUP1 SLOAD PUSH1 0x1 PUSH1 0x1 PUSH1 0xA0 SHL SUB NOT AND DUP5 OR SWAP1 SSTORE MLOAD DUP4 SWAP3 SWAP2 SWAP1 PUSH32 0xDDF252AD1BE2C89B69C2B068FC378DAA952BA7F163C4A11628F55A4DF523B3EF SWAP1 DUP3 SWAP1 LOG4 POP POP JUMP JUMPDEST PUSH0 PUSH1 0x1 PUSH1 0x1 PUSH1 0xA0 SHL SUB DUP5 AND EXTCODESIZE ISZERO PUSH2 0x3F29 JUMPI PUSH1 0x40 MLOAD PUSH4 0xA85BD01 PUSH1 0xE1 SHL DUP2 MSTORE PUSH1 0x1 PUSH1 0x1 PUSH1 0xA0 SHL SUB DUP6 AND SWAP1 PUSH4 0x150B7A02 SWAP1 PUSH2 0x3E7A SWAP1 CALLER SWAP1 DUP10 SWAP1 DUP9 SWAP1 DUP9 SWAP1 PUSH1 0x4 ADD PUSH2 0x5134 JUMP JUMPDEST PUSH1 0x20 PUSH1 0x40 MLOAD DUP1 DUP4 SUB DUP2 PUSH0 DUP8 GAS CALL SWAP3 POP POP POP DUP1 ISZERO PUSH2 0x3EB4 JUMPI POP PUSH1 0x40 DUP1 MLOAD PUSH1 0x1F RETURNDATASIZE SWAP1 DUP2 ADD PUSH1 0x1F NOT AND DUP3 ADD SWAP1 SWAP3 MSTORE PUSH2 0x3EB1 SWAP2 DUP2 ADD SWAP1 PUSH2 0x5166 JUMP JUMPDEST PUSH1 0x1 JUMPDEST PUSH2 0x3F0F JUMPI RETURNDATASIZE DUP1 DUP1 ISZERO PUSH2 0x3EE1 JUMPI PUSH1 0x40 MLOAD SWAP2 POP PUSH1 0x1F NOT PUSH1 0x3F RETURNDATASIZE ADD AND DUP3 ADD PUSH1 0x40 MSTORE RETURNDATASIZE DUP3 MSTORE RETURNDATASIZE PUSH0 PUSH1 0x20 DUP5 ADD RETURNDATACOPY PUSH2 0x3EE6 JUMP JUMPDEST PUSH1 0x60 SWAP2 POP JUMPDEST POP DUP1 MLOAD PUSH0 SUB PUSH2 0x3F07 JUMPI PUSH1 0x40 MLOAD PUSH3 0x461BCD PUSH1 0xE5 SHL DUP2 MSTORE PUSH1 0x4 ADD PUSH2 0x1FC SWAP1 PUSH2 0x4FE0 JUMP JUMPDEST DUP1 MLOAD DUP2 PUSH1 0x20 ADD REVERT JUMPDEST PUSH1 0x1 PUSH1 0x1 PUSH1 0xE0 SHL SUB NOT AND PUSH4 0xA85BD01 PUSH1 0xE1 SHL EQ SWAP1 POP PUSH2 0x1BCC JUMP JUMPDEST POP PUSH1 0x1 SWAP5 SWAP4 POP POP POP POP JUMP JUMPDEST DUP1 ISZERO DUP1 PUSH2 0x3FAC JUMPI POP PUSH1 0x40 MLOAD PUSH4 0x6EB1769F PUSH1 0xE1 SHL DUP2 MSTORE ADDRESS PUSH1 0x4 DUP3 ADD MSTORE PUSH1 0x1 PUSH1 0x1 PUSH1 0xA0 SHL SUB DUP4 DUP2 AND PUSH1 0x24 DUP4 ADD MSTORE DUP5 AND SWAP1 PUSH4 0xDD62ED3E SWAP1 PUSH1 0x44 ADD PUSH1 0x20 PUSH1 0x40 MLOAD DUP1 DUP4 SUB DUP2 DUP7 GAS STATICCALL ISZERO DUP1 ISZERO PUSH2 0x3F86 JUMPI RETURNDATASIZE PUSH0 PUSH0 RETURNDATACOPY RETURNDATASIZE PUSH0 REVERT JUMPDEST POP POP POP POP PUSH1 0x40 MLOAD RETURNDATASIZE PUSH1 0x1F NOT PUSH1 0x1F DUP3 ADD AND DUP3 ADD DUP1 PUSH1 0x40 MSTORE POP DUP2 ADD SWAP1 PUSH2 0x3FAA SWAP2 SWAP1 PUSH2 0x4952 JUMP JUMPDEST ISZERO JUMPDEST PUSH2 0x4017 JUMPI PUSH1 0x40 MLOAD PUSH3 0x461BCD PUSH1 0xE5 SHL DUP2 MSTORE PUSH1 0x20 PUSH1 0x4 DUP3 ADD MSTORE PUSH1 0x36 PUSH1 0x24 DUP3 ADD MSTORE PUSH32 0x5361666545524332303A20617070726F76652066726F6D206E6F6E2D7A65726F PUSH1 0x44 DUP3 ADD MSTORE PUSH22 0x20746F206E6F6E2D7A65726F20616C6C6F77616E6365 PUSH1 0x50 SHL PUSH1 0x64 DUP3 ADD MSTORE PUSH1 0x84 ADD PUSH2 0x1FC JUMP JUMPDEST PUSH1 0x40 DUP1 MLOAD PUSH1 0x1 PUSH1 0x1 PUSH1 0xA0 SHL SUB DUP5 AND PUSH1 0x24 DUP3 ADD MSTORE PUSH1 0x44 DUP1 DUP3 ADD DUP5 SWAP1 MSTORE DUP3 MLOAD DUP1 DUP4 SUB SWAP1 SWAP2 ADD DUP2 MSTORE PUSH1 0x64 SWAP1 SWAP2 ADD SWAP1 SWAP2 MSTORE PUSH1 0x20 DUP2 ADD DUP1 MLOAD PUSH1 0x1 PUSH1 0x1 PUSH1 0xE0 SHL SUB AND PUSH4 0x95EA7B3 PUSH1 0xE0 SHL OR SWAP1 MSTORE PUSH2 0x98F SWAP1 DUP5 SWAP1 PUSH2 0x4140 JUMP JUMPDEST PUSH0 DUP1 PUSH19 0x184F03E93FF9F4DAA797ED6E38ED64BF6A1F01 PUSH1 0x40 SHL DUP4 LT PUSH2 0x40A7 JUMPI PUSH19 0x184F03E93FF9F4DAA797ED6E38ED64BF6A1F01 PUSH1 0x40 SHL DUP4 DIV SWAP3 POP PUSH1 0x40 ADD JUMPDEST PUSH14 0x4EE2D6D415B85ACEF8100000000 DUP4 LT PUSH2 0x40D3 JUMPI PUSH14 0x4EE2D6D415B85ACEF8100000000 DUP4 DIV SWAP3 POP PUSH1 0x20 ADD JUMPDEST PUSH7 0x2386F26FC10000 DUP4 LT PUSH2 0x40F1 JUMPI PUSH7 0x2386F26FC10000 DUP4 DIV SWAP3 POP PUSH1 0x10 ADD JUMPDEST PUSH4 0x5F5E100 DUP4 LT PUSH2 0x4109 JUMPI PUSH4 0x5F5E100 DUP4 DIV SWAP3 POP PUSH1 0x8 ADD JUMPDEST PUSH2 0x2710 DUP4 LT PUSH2 0x411D JUMPI PUSH2 0x2710 DUP4 DIV SWAP3 POP PUSH1 0x4 ADD JUMPDEST PUSH1 0x64 DUP4 LT PUSH2 0x412F JUMPI PUSH1 0x64 DUP4 DIV SWAP3 POP PUSH1 0x2 ADD JUMPDEST PUSH1 0xA DUP4 LT PUSH2 0x5D8 JUMPI PUSH1 0x1 ADD SWAP3 SWAP2 POP POP JUMP JUMPDEST PUSH0 PUSH2 0x4194 DUP3 PUSH1 0x40 MLOAD DUP1 PUSH1 0x40 ADD PUSH1 0x40 MSTORE DUP1 PUSH1 0x20 DUP2 MSTORE PUSH1 0x20 ADD PUSH32 0x5361666545524332303A206C6F772D6C6576656C2063616C6C206661696C6564 DUP2 MSTORE POP DUP6 PUSH1 0x1 PUSH1 0x1 PUSH1 0xA0 SHL SUB AND PUSH2 0x4213 SWAP1 SWAP3 SWAP2 SWAP1 PUSH4 0xFFFFFFFF AND JUMP JUMPDEST SWAP1 POP DUP1 MLOAD PUSH0 EQ DUP1 PUSH2 0x41B4 JUMPI POP DUP1 DUP1 PUSH1 0x20 ADD SWAP1 MLOAD DUP2 ADD SWAP1 PUSH2 0x41B4 SWAP2 SWAP1 PUSH2 0x4A63 JUMP JUMPDEST PUSH2 0x98F JUMPI PUSH1 0x40 MLOAD PUSH3 0x461BCD PUSH1 0xE5 SHL DUP2 MSTORE PUSH1 0x20 PUSH1 0x4 DUP3 ADD MSTORE PUSH1 0x2A PUSH1 0x24 DUP3 ADD MSTORE PUSH32 0x5361666545524332303A204552433230206F7065726174696F6E20646964206E PUSH1 0x44 DUP3 ADD MSTORE PUSH10 0x1BDD081CDD58D8D95959 PUSH1 0xB2 SHL PUSH1 0x64 DUP3 ADD MSTORE PUSH1 0x84 ADD PUSH2 0x1FC JUMP JUMPDEST PUSH1 0x60 PUSH2 0x1BCC DUP5 DUP5 PUSH0 DUP6 DUP6 PUSH0 PUSH0 DUP7 PUSH1 0x1 PUSH1 0x1 PUSH1 0xA0 SHL SUB AND DUP6 DUP8 PUSH1 0x40 MLOAD PUSH2 0x4238 SWAP2 SWAP1 PUSH2 0x5181 JUMP JUMPDEST PUSH0 PUSH1 0x40 MLOAD DUP1 DUP4 SUB DUP2 DUP6 DUP8 GAS CALL SWAP3 POP POP POP RETURNDATASIZE DUP1 PUSH0 DUP2 EQ PUSH2 0x4272 JUMPI PUSH1 0x40 MLOAD SWAP2 POP PUSH1 0x1F NOT PUSH1 0x3F RETURNDATASIZE ADD AND DUP3 ADD PUSH1 0x40 MSTORE RETURNDATASIZE DUP3 MSTORE RETURNDATASIZE PUSH0 PUSH1 0x20 DUP5 ADD RETURNDATACOPY PUSH2 0x4277 JUMP JUMPDEST PUSH1 0x60 SWAP2 POP JUMPDEST POP SWAP2 POP SWAP2 POP PUSH2 0x4288 DUP8 DUP4 DUP4 DUP8 PUSH2 0x4293 JUMP JUMPDEST SWAP8 SWAP7 POP POP POP POP POP POP POP JUMP JUMPDEST PUSH1 0x60 DUP4 ISZERO PUSH2 0x4301 JUMPI DUP3 MLOAD PUSH0 SUB PUSH2 0x42FA JUMPI PUSH1 0x1 PUSH1 0x1 PUSH1 0xA0 SHL SUB DUP6 AND EXTCODESIZE PUSH2 0x42FA JUMPI PUSH1 0x40 MLOAD PUSH3 0x461BCD PUSH1 0xE5 SHL DUP2 MSTORE PUSH1 0x20 PUSH1 0x4 DUP3 ADD MSTORE PUSH1 0x1D PUSH1 0x24 DUP3 ADD MSTORE PUSH32 0x416464726573733A2063616C6C20746F206E6F6E2D636F6E7472616374000000 PUSH1 0x44 DUP3 ADD MSTORE PUSH1 0x64 ADD PUSH2 0x1FC JUMP JUMPDEST POP DUP2 PUSH2 0x1BCC JUMP JUMPDEST PUSH2 0x1BCC DUP4 DUP4 DUP2 MLOAD ISZERO PUSH2 0x4316 JUMPI DUP2 MLOAD DUP1 DUP4 PUSH1 0x20 ADD REVERT JUMPDEST DUP1 PUSH1 0x40 MLOAD PUSH3 0x461BCD PUSH1 0xE5 SHL DUP2 MSTORE PUSH1 0x4 ADD PUSH2 0x1FC SWAP2 SWAP1 PUSH2 0x44C8 JUMP JUMPDEST DUP3 DUP1 SLOAD DUP3 DUP3 SSTORE SWAP1 PUSH0 MSTORE PUSH1 0x20 PUSH0 KECCAK256 SWAP1 DUP2 ADD SWAP3 DUP3 ISZERO PUSH2 0x4381 JUMPI SWAP2 PUSH1 0x20 MUL DUP3 ADD JUMPDEST DUP3 DUP2 GT ISZERO PUSH2 0x4381 JUMPI DUP2 SLOAD PUSH1 0x1 PUSH1 0x1 PUSH1 0xA0 SHL SUB NOT AND PUSH1 0x1 PUSH1 0x1 PUSH1 0xA0 SHL SUB DUP5 CALLDATALOAD AND OR DUP3 SSTORE PUSH1 0x20 SWAP1 SWAP3 ADD SWAP2 PUSH1 0x1 SWAP1 SWAP2 ADD SWAP1 PUSH2 0x434E JUMP JUMPDEST POP PUSH2 0x438D SWAP3 SWAP2 POP PUSH2 0x4456 JUMP JUMPDEST POP SWAP1 JUMP JUMPDEST DUP3 DUP1 SLOAD DUP3 DUP3 SSTORE SWAP1 PUSH0 MSTORE PUSH1 0x20 PUSH0 KECCAK256 SWAP1 DUP2 ADD SWAP3 DUP3 ISZERO PUSH2 0x4381 JUMPI SWAP2 PUSH1 0x20 MUL DUP3 ADD JUMPDEST DUP3 DUP2 GT ISZERO PUSH2 0x4381 JUMPI DUP3 CALLDATALOAD DUP3 SSTORE SWAP2 PUSH1 0x20 ADD SWAP2 SWAP1 PUSH1 0x1 ADD SWAP1 PUSH2 0x43AF JUMP JUMPDEST DUP3 DUP1 SLOAD DUP3 DUP3 SSTORE SWAP1 PUSH0 MSTORE PUSH1 0x20 PUSH0 KECCAK256 SWAP1 DUP2 ADD SWAP3 DUP3 ISZERO PUSH2 0x4381 JUMPI SWAP2 PUSH1 0x20 MUL DUP3 ADD JUMPDEST DUP3 DUP2 GT ISZERO PUSH2 0x4381 JUMPI DUP3 MLOAD DUP3 SLOAD PUSH1 0x1 PUSH1 0x1 PUSH1 0xA0 SHL SUB NOT AND PUSH1 0x1 PUSH1 0x1 PUSH1 0xA0 SHL SUB SWAP1 SWAP2 AND OR DUP3 SSTORE PUSH1 0x20 SWAP1 SWAP3 ADD SWAP2 PUSH1 0x1 SWAP1 SWAP2 ADD SWAP1 PUSH2 0x43E8 JUMP JUMPDEST DUP3 DUP1 SLOAD DUP3 DUP3 SSTORE SWAP1 PUSH0 MSTORE PUSH1 0x20 PUSH0 KECCAK256 SWAP1 DUP2 ADD SWAP3 DUP3 ISZERO PUSH2 0x4381 JUMPI SWAP2 PUSH1 0x20 MUL DUP3 ADD JUMPDEST DUP3 DUP2 GT ISZERO PUSH2 0x4381 JUMPI DUP3 MLOAD DUP3 SSTORE SWAP2 PUSH1 0x20 ADD SWAP2 SWAP1 PUSH1 0x1 ADD SWAP1 PUSH2 0x443B JUMP JUMPDEST JUMPDEST DUP1 DUP3 GT ISZERO PUSH2 0x438D JUMPI PUSH0 DUP2 SSTORE PUSH1 0x1 ADD PUSH2 0x4457 JUMP JUMPDEST PUSH1 0x1 PUSH1 0x1 PUSH1 0xE0 SHL SUB NOT DUP2 AND DUP2 EQ PUSH2 0x1E98 JUMPI PUSH0 PUSH0 REVERT JUMPDEST PUSH0 PUSH1 0x20 DUP3 DUP5 SUB SLT ISZERO PUSH2 0x448F JUMPI PUSH0 PUSH0 REVERT JUMPDEST DUP2 CALLDATALOAD PUSH2 0x291A DUP2 PUSH2 0x446A JUMP JUMPDEST PUSH0 DUP2 MLOAD DUP1 DUP5 MSTORE DUP1 PUSH1 0x20 DUP5 ADD PUSH1 0x20 DUP7 ADD MCOPY PUSH0 PUSH1 0x20 DUP3 DUP7 ADD ADD MSTORE PUSH1 0x20 PUSH1 0x1F NOT PUSH1 0x1F DUP4 ADD AND DUP6 ADD ADD SWAP2 POP POP SWAP3 SWAP2 POP POP JUMP JUMPDEST PUSH1 0x20 DUP2 MSTORE PUSH0 PUSH2 0x291A PUSH1 0x20 DUP4 ADD DUP5 PUSH2 0x449A JUMP JUMPDEST PUSH0 PUSH1 0x20 DUP3 DUP5 SUB SLT ISZERO PUSH2 0x44EA JUMPI PUSH0 PUSH0 REVERT JUMPDEST POP CALLDATALOAD SWAP2 SWAP1 POP JUMP JUMPDEST PUSH1 0x1 PUSH1 0x1 PUSH1 0xA0 SHL SUB DUP2 AND DUP2 EQ PUSH2 0x1E98 JUMPI PUSH0 PUSH0 REVERT JUMPDEST PUSH0 PUSH0 PUSH1 0x40 DUP4 DUP6 SUB SLT ISZERO PUSH2 0x4516 JUMPI PUSH0 PUSH0 REVERT JUMPDEST DUP3 CALLDATALOAD PUSH2 0x4521 DUP2 PUSH2 0x44F1 JUMP JUMPDEST SWAP5 PUSH1 0x20 SWAP4 SWAP1 SWAP4 ADD CALLDATALOAD SWAP4 POP POP POP JUMP JUMPDEST PUSH0 PUSH0 PUSH0 PUSH1 0x60 DUP5 DUP7 SUB SLT ISZERO PUSH2 0x4541 JUMPI PUSH0 PUSH0 REVERT JUMPDEST DUP4 CALLDATALOAD PUSH2 0x454C DUP2 PUSH2 0x44F1 JUMP JUMPDEST SWAP3 POP PUSH1 0x20 DUP5 ADD CALLDATALOAD PUSH2 0x455C DUP2 PUSH2 0x44F1 JUMP JUMPDEST SWAP3 SWAP6 SWAP3 SWAP5 POP POP POP PUSH1 0x40 SWAP2 SWAP1 SWAP2 ADD CALLDATALOAD SWAP1 JUMP JUMPDEST PUSH0 PUSH0 PUSH1 0x40 DUP4 DUP6 SUB SLT ISZERO PUSH2 0x457E JUMPI PUSH0 PUSH0 REVERT JUMPDEST POP POP DUP1 CALLDATALOAD SWAP3 PUSH1 0x20 SWAP1 SWAP2 ADD CALLDATALOAD SWAP2 POP JUMP JUMPDEST PUSH0 PUSH1 0x20 DUP3 DUP5 SUB SLT ISZERO PUSH2 0x459D JUMPI PUSH0 PUSH0 REVERT JUMPDEST DUP2 CALLDATALOAD PUSH1 0x1 PUSH1 0x1 PUSH1 0x40 SHL SUB DUP2 GT ISZERO PUSH2 0x45B2 JUMPI PUSH0 PUSH0 REVERT JUMPDEST DUP3 ADD PUSH2 0x140 DUP2 DUP6 SUB SLT ISZERO PUSH2 0x291A JUMPI PUSH0 PUSH0 REVERT JUMPDEST PUSH0 PUSH0 PUSH0 PUSH1 0x60 DUP5 DUP7 SUB SLT ISZERO PUSH2 0x45D6 JUMPI PUSH0 PUSH0 REVERT JUMPDEST POP POP DUP2 CALLDATALOAD SWAP4 PUSH1 0x20 DUP4 ADD CALLDATALOAD SWAP4 POP PUSH1 0x40 SWAP1 SWAP3 ADD CALLDATALOAD SWAP2 SWAP1 POP JUMP JUMPDEST PUSH0 PUSH1 0x20 DUP3 DUP5 SUB SLT ISZERO PUSH2 0x45FD JUMPI PUSH0 PUSH0 REVERT JUMPDEST DUP2 CALLDATALOAD PUSH2 0x291A DUP2 PUSH2 0x44F1 JUMP JUMPDEST PUSH0 PUSH0 DUP4 PUSH1 0x1F DUP5 ADD SLT PUSH2 0x4618 JUMPI PUSH0 PUSH0 REVERT JUMPDEST POP DUP2 CALLDATALOAD PUSH1 0x1 PUSH1 0x1 PUSH1 0x40 SHL SUB DUP2 GT ISZERO PUSH2 0x462E JUMPI PUSH0 PUSH0 REVERT JUMPDEST PUSH1 0x20 DUP4 ADD SWAP2 POP DUP4 PUSH1 0x20 DUP3 PUSH1 0x5 SHL DUP6 ADD ADD GT ISZERO PUSH2 0x4648 JUMPI PUSH0 PUSH0 REVERT JUMPDEST SWAP3 POP SWAP3 SWAP1 POP JUMP JUMPDEST PUSH0 PUSH0 PUSH0 PUSH0 PUSH0 PUSH0 PUSH1 0x80 DUP8 DUP10 SUB SLT ISZERO PUSH2 0x4664 JUMPI PUSH0 PUSH0 REVERT JUMPDEST DUP7 CALLDATALOAD PUSH1 0x1 PUSH1 0x1 PUSH1 0x40 SHL SUB DUP2 GT ISZERO PUSH2 0x4679 JUMPI PUSH0 PUSH0 REVERT JUMPDEST PUSH2 0x4685 DUP10 DUP3 DUP11 ADD PUSH2 0x4608 JUMP JUMPDEST SWAP1 SWAP8 POP SWAP6 POP POP PUSH1 0x20 DUP8 ADD CALLDATALOAD PUSH1 0x1 PUSH1 0x1 PUSH1 0x40 SHL SUB DUP2 GT ISZERO PUSH2 0x46A3 JUMPI PUSH0 PUSH0 REVERT JUMPDEST PUSH2 0x46AF DUP10 DUP3 DUP11 ADD PUSH2 0x4608 JUMP JUMPDEST SWAP8 SWAP11 SWAP7 SWAP10 POP SWAP8 PUSH1 0x40 DUP2 ADD CALLDATALOAD SWAP7 PUSH1 0x60 SWAP1 SWAP2 ADD CALLDATALOAD SWAP6 POP SWAP4 POP POP POP POP JUMP JUMPDEST DUP1 ISZERO ISZERO DUP2 EQ PUSH2 0x1E98 JUMPI PUSH0 PUSH0 REVERT JUMPDEST PUSH0 PUSH0 PUSH1 0x40 DUP4 DUP6 SUB SLT ISZERO PUSH2 0x46E8 JUMPI PUSH0 PUSH0 REVERT JUMPDEST DUP3 CALLDATALOAD PUSH2 0x46F3 DUP2 PUSH2 0x44F1 JUMP JUMPDEST SWAP2 POP PUSH1 0x20 DUP4 ADD CALLDATALOAD PUSH2 0x4703 DUP2 PUSH2 0x46CA JUMP JUMPDEST DUP1 SWAP2 POP POP SWAP3 POP SWAP3 SWAP1 POP JUMP JUMPDEST PUSH4 0x4E487B71 PUSH1 0xE0 SHL PUSH0 MSTORE PUSH1 0x41 PUSH1 0x4 MSTORE PUSH1 0x24 PUSH0 REVERT JUMPDEST PUSH1 0x40 MLOAD PUSH1 0x1F DUP3 ADD PUSH1 0x1F NOT AND DUP2 ADD PUSH1 0x1 PUSH1 0x1 PUSH1 0x40 SHL SUB DUP2 GT DUP3 DUP3 LT OR ISZERO PUSH2 0x474A JUMPI PUSH2 0x474A PUSH2 0x470E JUMP JUMPDEST PUSH1 0x40 MSTORE SWAP2 SWAP1 POP JUMP JUMPDEST PUSH0 PUSH1 0x1 PUSH1 0x1 PUSH1 0x40 SHL SUB DUP3 GT ISZERO PUSH2 0x476A JUMPI PUSH2 0x476A PUSH2 0x470E JUMP JUMPDEST POP PUSH1 0x1F ADD PUSH1 0x1F NOT AND PUSH1 0x20 ADD SWAP1 JUMP JUMPDEST PUSH0 PUSH0 PUSH0 PUSH0 PUSH1 0x80 DUP6 DUP8 SUB SLT ISZERO PUSH2 0x478B JUMPI PUSH0 PUSH0 REVERT JUMPDEST DUP5 CALLDATALOAD PUSH2 0x4796 DUP2 PUSH2 0x44F1 JUMP JUMPDEST SWAP4 POP PUSH1 0x20 DUP6 ADD CALLDATALOAD PUSH2 0x47A6 DUP2 PUSH2 0x44F1 JUMP JUMPDEST SWAP3 POP PUSH1 0x40 DUP6 ADD CALLDATALOAD SWAP2 POP PUSH1 0x60 DUP6 ADD CALLDATALOAD PUSH1 0x1 PUSH1 0x1 PUSH1 0x40 SHL SUB DUP2 GT ISZERO PUSH2 0x47C7 JUMPI PUSH0 PUSH0 REVERT JUMPDEST DUP6 ADD PUSH1 0x1F DUP2 ADD DUP8 SGT PUSH2 0x47D7 JUMPI PUSH0 PUSH0 REVERT JUMPDEST DUP1 CALLDATALOAD PUSH2 0x47EA PUSH2 0x47E5 DUP3 PUSH2 0x4752 JUMP JUMPDEST PUSH2 0x4722 JUMP JUMPDEST DUP2 DUP2 MSTORE DUP9 PUSH1 0x20 DUP4 DUP6 ADD ADD GT ISZERO PUSH2 0x47FE JUMPI PUSH0 PUSH0 REVERT JUMPDEST DUP2 PUSH1 0x20 DUP5 ADD PUSH1 0x20 DUP4 ADD CALLDATACOPY PUSH0 PUSH1 0x20 DUP4 DUP4 ADD ADD MSTORE DUP1 SWAP4 POP POP POP POP SWAP3 SWAP6 SWAP2 SWAP5 POP SWAP3 POP JUMP JUMPDEST PUSH0 PUSH0 PUSH1 0x40 DUP4 DUP6 SUB SLT ISZERO PUSH2 0x4830 JUMPI PUSH0 PUSH0 REVERT JUMPDEST DUP3 CALLDATALOAD PUSH2 0x483B DUP2 PUSH2 0x44F1 JUMP JUMPDEST SWAP2 POP PUSH1 0x20 DUP4 ADD CALLDATALOAD PUSH2 0x4703 DUP2 PUSH2 0x44F1 JUMP JUMPDEST PUSH0 DUP2 MLOAD DUP1 DUP5 MSTORE PUSH1 0x20 DUP5 ADD SWAP4 POP PUSH1 0x20 DUP4 ADD PUSH0 JUMPDEST DUP3 DUP2 LT ISZERO PUSH2 0x4884 JUMPI DUP2 MLOAD PUSH1 0x1 PUSH1 0x1 PUSH1 0xA0 SHL SUB AND DUP7 MSTORE PUSH1 0x20 SWAP6 DUP7 ADD SWAP6 SWAP1 SWAP2 ADD SWAP1 PUSH1 0x1 ADD PUSH2 0x485D JUMP JUMPDEST POP SWAP4 SWAP5 SWAP4 POP POP POP POP JUMP JUMPDEST PUSH0 DUP2 MLOAD DUP1 DUP5 MSTORE PUSH1 0x20 DUP5 ADD SWAP4 POP PUSH1 0x20 DUP4 ADD PUSH0 JUMPDEST DUP3 DUP2 LT ISZERO PUSH2 0x4884 JUMPI DUP2 MLOAD DUP7 MSTORE PUSH1 0x20 SWAP6 DUP7 ADD SWAP6 SWAP1 SWAP2 ADD SWAP1 PUSH1 0x1 ADD PUSH2 0x48A0 JUMP JUMPDEST PUSH1 0x40 DUP2 MSTORE PUSH0 PUSH2 0x48D0 PUSH1 0x40 DUP4 ADD DUP6 PUSH2 0x484B JUMP JUMPDEST DUP3 DUP2 SUB PUSH1 0x20 DUP5 ADD MSTORE PUSH2 0x48E2 DUP2 DUP6 PUSH2 0x488E JUMP JUMPDEST SWAP6 SWAP5 POP POP POP POP POP JUMP JUMPDEST PUSH1 0x1 DUP2 DUP2 SHR SWAP1 DUP3 AND DUP1 PUSH2 0x48FF JUMPI PUSH1 0x7F DUP3 AND SWAP2 POP JUMPDEST PUSH1 0x20 DUP3 LT DUP2 SUB PUSH2 0x491D JUMPI PUSH4 0x4E487B71 PUSH1 0xE0 SHL PUSH0 MSTORE PUSH1 0x22 PUSH1 0x4 MSTORE PUSH1 0x24 PUSH0 REVERT JUMPDEST POP SWAP2 SWAP1 POP JUMP JUMPDEST PUSH0 PUSH1 0x20 DUP3 DUP5 SUB SLT ISZERO PUSH2 0x4933 JUMPI PUSH0 PUSH0 REVERT JUMPDEST DUP2 MLOAD PUSH2 0x291A DUP2 PUSH2 0x44F1 JUMP JUMPDEST PUSH4 0x4E487B71 PUSH1 0xE0 SHL PUSH0 MSTORE PUSH1 0x32 PUSH1 0x4 MSTORE PUSH1 0x24 PUSH0 REVERT JUMPDEST PUSH0 PUSH1 0x20 DUP3 DUP5 SUB SLT ISZERO PUSH2 0x4962 JUMPI PUSH0 PUSH0 REVERT JUMPDEST POP MLOAD SWAP2 SWAP1 POP JUMP JUMPDEST PUSH0 PUSH1 0x1 PUSH1 0x1 PUSH1 0x40 SHL SUB DUP3 GT ISZERO PUSH2 0x4981 JUMPI PUSH2 0x4981 PUSH2 0x470E JUMP JUMPDEST POP PUSH1 0x5 SHL PUSH1 0x20 ADD SWAP1 JUMP JUMPDEST PUSH0 PUSH1 0x20 DUP3 DUP5 SUB SLT ISZERO PUSH2 0x499B JUMPI PUSH0 PUSH0 REVERT JUMPDEST DUP2 MLOAD PUSH1 0x1 PUSH1 0x1 PUSH1 0x40 SHL SUB DUP2 GT ISZERO PUSH2 0x49B0 JUMPI PUSH0 PUSH0 REVERT JUMPDEST DUP3 ADD PUSH1 0x1F DUP2 ADD DUP5 SGT PUSH2 0x49C0 JUMPI PUSH0 PUSH0 REVERT JUMPDEST DUP1 MLOAD PUSH2 0x49CE PUSH2 0x47E5 DUP3 PUSH2 0x4969 JUMP JUMPDEST DUP1 DUP3 DUP3 MSTORE PUSH1 0x20 DUP3 ADD SWAP2 POP PUSH1 0x20 DUP4 PUSH1 0x5 SHL DUP6 ADD ADD SWAP3 POP DUP7 DUP4 GT ISZERO PUSH2 0x49EF JUMPI PUSH0 PUSH0 REVERT JUMPDEST PUSH1 0x20 DUP5 ADD SWAP4 POP JUMPDEST DUP3 DUP5 LT ISZERO PUSH2 0x4A1A JUMPI DUP4 MLOAD PUSH2 0x4A09 DUP2 PUSH2 0x44F1 JUMP JUMPDEST DUP3 MSTORE PUSH1 0x20 SWAP4 DUP5 ADD SWAP4 SWAP1 SWAP2 ADD SWAP1 PUSH2 0x49F6 JUMP JUMPDEST SWAP7 SWAP6 POP POP POP POP POP POP JUMP JUMPDEST DUP3 DUP2 MSTORE PUSH1 0x40 PUSH1 0x20 DUP3 ADD MSTORE PUSH0 PUSH2 0x1BCC PUSH1 0x40 DUP4 ADD DUP5 PUSH2 0x484B JUMP JUMPDEST PUSH4 0x4E487B71 PUSH1 0xE0 SHL PUSH0 MSTORE PUSH1 0x11 PUSH1 0x4 MSTORE PUSH1 0x24 PUSH0 REVERT JUMPDEST DUP1 DUP3 ADD DUP1 DUP3 GT ISZERO PUSH2 0x5D8 JUMPI PUSH2 0x5D8 PUSH2 0x4A3C JUMP JUMPDEST PUSH0 PUSH1 0x20 DUP3 DUP5 SUB SLT ISZERO PUSH2 0x4A73 JUMPI PUSH0 PUSH0 REVERT JUMPDEST DUP2 MLOAD PUSH2 0x291A DUP2 PUSH2 0x46CA JUMP JUMPDEST DUP1 DUP3 MUL DUP2 ISZERO DUP3 DUP3 DIV DUP5 EQ OR PUSH2 0x5D8 JUMPI PUSH2 0x5D8 PUSH2 0x4A3C JUMP JUMPDEST PUSH0 DUP3 PUSH2 0x4AAF JUMPI PUSH4 0x4E487B71 PUSH1 0xE0 SHL PUSH0 MSTORE PUSH1 0x12 PUSH1 0x4 MSTORE PUSH1 0x24 PUSH0 REVERT JUMPDEST POP DIV SWAP1 JUMP JUMPDEST PUSH0 PUSH0 DUP4 CALLDATALOAD PUSH1 0x1E NOT DUP5 CALLDATASIZE SUB ADD DUP2 SLT PUSH2 0x4AC9 JUMPI PUSH0 PUSH0 REVERT JUMPDEST DUP4 ADD DUP1 CALLDATALOAD SWAP2 POP PUSH1 0x1 PUSH1 0x1 PUSH1 0x40 SHL SUB DUP3 GT ISZERO PUSH2 0x4AE2 JUMPI PUSH0 PUSH0 REVERT JUMPDEST PUSH1 0x20 ADD SWAP2 POP PUSH1 0x5 DUP2 SWAP1 SHL CALLDATASIZE SUB DUP3 SGT ISZERO PUSH2 0x4648 JUMPI PUSH0 PUSH0 REVERT JUMPDEST PUSH0 PUSH0 DUP4 CALLDATALOAD PUSH1 0x1E NOT DUP5 CALLDATASIZE SUB ADD DUP2 SLT PUSH2 0x4B0E JUMPI PUSH0 PUSH0 REVERT JUMPDEST DUP4 ADD DUP1 CALLDATALOAD SWAP2 POP PUSH1 0x1 PUSH1 0x1 PUSH1 0x40 SHL SUB DUP3 GT ISZERO PUSH2 0x4B27 JUMPI PUSH0 PUSH0 REVERT JUMPDEST PUSH1 0x20 ADD SWAP2 POP CALLDATASIZE DUP2 SWAP1 SUB DUP3 SGT ISZERO PUSH2 0x4648 JUMPI PUSH0 PUSH0 REVERT JUMPDEST PUSH1 0x1F DUP3 GT ISZERO PUSH2 0x98F JUMPI DUP1 PUSH0 MSTORE PUSH1 0x20 PUSH0 KECCAK256 PUSH1 0x1F DUP5 ADD PUSH1 0x5 SHR DUP2 ADD PUSH1 0x20 DUP6 LT ISZERO PUSH2 0x4B60 JUMPI POP DUP1 JUMPDEST PUSH1 0x1F DUP5 ADD PUSH1 0x5 SHR DUP3 ADD SWAP2 POP JUMPDEST DUP2 DUP2 LT ISZERO PUSH2 0x1A3D JUMPI PUSH0 DUP2 SSTORE PUSH1 0x1 ADD PUSH2 0x4B6C JUMP JUMPDEST PUSH1 0x1 PUSH1 0x1 PUSH1 0x40 SHL SUB DUP4 GT ISZERO PUSH2 0x4B96 JUMPI PUSH2 0x4B96 PUSH2 0x470E JUMP JUMPDEST PUSH2 0x4BAA DUP4 PUSH2 0x4BA4 DUP4 SLOAD PUSH2 0x48EB JUMP JUMPDEST DUP4 PUSH2 0x4B3B JUMP JUMPDEST PUSH0 PUSH1 0x1F DUP5 GT PUSH1 0x1 DUP2 EQ PUSH2 0x4BDB JUMPI PUSH0 DUP6 ISZERO PUSH2 0x4BC4 JUMPI POP DUP4 DUP3 ADD CALLDATALOAD JUMPDEST PUSH0 NOT PUSH1 0x3 DUP8 SWAP1 SHL SHR NOT AND PUSH1 0x1 DUP7 SWAP1 SHL OR DUP4 SSTORE PUSH2 0x1A3D JUMP JUMPDEST PUSH0 DUP4 DUP2 MSTORE PUSH1 0x20 DUP2 KECCAK256 PUSH1 0x1F NOT DUP8 AND SWAP2 JUMPDEST DUP3 DUP2 LT ISZERO PUSH2 0x4C0A JUMPI DUP7 DUP6 ADD CALLDATALOAD DUP3 SSTORE PUSH1 0x20 SWAP5 DUP6 ADD SWAP5 PUSH1 0x1 SWAP1 SWAP3 ADD SWAP2 ADD PUSH2 0x4BEA JUMP JUMPDEST POP DUP7 DUP3 LT ISZERO PUSH2 0x4C26 JUMPI PUSH0 NOT PUSH1 0xF8 DUP9 PUSH1 0x3 SHL AND SHR NOT DUP5 DUP8 ADD CALLDATALOAD AND DUP2 SSTORE JUMPDEST POP POP PUSH1 0x1 DUP6 PUSH1 0x1 SHL ADD DUP4 SSTORE POP POP POP POP POP JUMP JUMPDEST PUSH0 PUSH1 0x20 DUP3 DUP5 SUB SLT ISZERO PUSH2 0x4C48 JUMPI PUSH0 PUSH0 REVERT JUMPDEST DUP2 MLOAD PUSH1 0x1 PUSH1 0x1 PUSH1 0x40 SHL SUB DUP2 GT ISZERO PUSH2 0x4C5D JUMPI PUSH0 PUSH0 REVERT JUMPDEST DUP3 ADD PUSH1 0x1F DUP2 ADD DUP5 SGT PUSH2 0x4C6D JUMPI PUSH0 PUSH0 REVERT JUMPDEST DUP1 MLOAD PUSH2 0x4C7B PUSH2 0x47E5 DUP3 PUSH2 0x4969 JUMP JUMPDEST DUP1 DUP3 DUP3 MSTORE PUSH1 0x20 DUP3 ADD SWAP2 POP PUSH1 0x20 DUP4 PUSH1 0x5 SHL DUP6 ADD ADD SWAP3 POP DUP7 DUP4 GT ISZERO PUSH2 0x4C9C JUMPI PUSH0 PUSH0 REVERT JUMPDEST PUSH1 0x20 DUP5 ADD SWAP4 POP JUMPDEST DUP3 DUP5 LT ISZERO PUSH2 0x4A1A JUMPI DUP4 MLOAD DUP3 MSTORE PUSH1 0x20 SWAP4 DUP5 ADD SWAP4 SWAP1 SWAP2 ADD SWAP1 PUSH2 0x4CA3 JUMP JUMPDEST DUP1 MLOAD PUSH2 0xFFFF DUP2 AND DUP2 EQ PUSH2 0x4CCF JUMPI PUSH0 PUSH0 REVERT JUMPDEST SWAP2 SWAP1 POP JUMP JUMPDEST PUSH0 PUSH0 PUSH0 PUSH0 PUSH1 0x80 DUP6 DUP8 SUB SLT ISZERO PUSH2 0x4CE7 JUMPI PUSH0 PUSH0 REVERT JUMPDEST PUSH2 0x4CF0 DUP6 PUSH2 0x4CBE JUMP JUMPDEST SWAP4 POP PUSH2 0x4CFE PUSH1 0x20 DUP7 ADD PUSH2 0x4CBE JUMP JUMPDEST SWAP3 POP PUSH2 0x4D0C PUSH1 0x40 DUP7 ADD PUSH2 0x4CBE JUMP JUMPDEST SWAP2 POP PUSH1 0x60 DUP6 ADD MLOAD PUSH2 0x4D1C DUP2 PUSH2 0x44F1 JUMP JUMPDEST SWAP4 SWAP7 SWAP3 SWAP6 POP SWAP1 SWAP4 POP POP JUMP JUMPDEST DUP2 DUP2 SUB DUP2 DUP2 GT ISZERO PUSH2 0x5D8 JUMPI PUSH2 0x5D8 PUSH2 0x4A3C JUMP JUMPDEST PUSH1 0x1 PUSH1 0x1 PUSH1 0xA0 SHL SUB DUP4 AND DUP2 MSTORE PUSH1 0x40 PUSH1 0x20 DUP3 ADD DUP2 SWAP1 MSTORE PUSH0 SWAP1 PUSH2 0x1BCC SWAP1 DUP4 ADD DUP5 PUSH2 0x488E JUMP JUMPDEST PUSH0 DUP2 MLOAD DUP1 PUSH1 0x20 DUP5 ADD DUP6 MCOPY PUSH0 SWAP4 ADD SWAP3 DUP4 MSTORE POP SWAP1 SWAP2 SWAP1 POP JUMP JUMPDEST PUSH0 PUSH2 0x1BCC PUSH2 0x4D82 DUP4 DUP7 PUSH2 0x4D5D JUMP JUMPDEST DUP5 PUSH2 0x4D5D JUMP JUMPDEST PUSH0 PUSH1 0x20 DUP3 DUP5 SUB SLT ISZERO PUSH2 0x4D98 JUMPI PUSH0 PUSH0 REVERT JUMPDEST DUP2 MLOAD PUSH1 0x1 PUSH1 0x1 PUSH1 0x40 SHL SUB DUP2 GT ISZERO PUSH2 0x4DAD JUMPI PUSH0 PUSH0 REVERT JUMPDEST DUP3 ADD PUSH1 0x1F DUP2 ADD DUP5 SGT PUSH2 0x4DBD JUMPI PUSH0 PUSH0 REVERT JUMPDEST DUP1 MLOAD PUSH2 0x4DCB PUSH2 0x47E5 DUP3 PUSH2 0x4752 JUMP JUMPDEST DUP2 DUP2 MSTORE DUP6 PUSH1 0x20 DUP4 DUP6 ADD ADD GT ISZERO PUSH2 0x4DDF JUMPI PUSH0 PUSH0 REVERT JUMPDEST DUP2 PUSH1 0x20 DUP5 ADD PUSH1 0x20 DUP4 ADD MCOPY PUSH0 SWAP2 DUP2 ADD PUSH1 0x20 ADD SWAP2 SWAP1 SWAP2 MSTORE SWAP5 SWAP4 POP POP POP POP JUMP JUMPDEST PUSH1 0x20 DUP1 DUP3 MSTORE PUSH1 0x2D SWAP1 DUP3 ADD MSTORE PUSH32 0x4552433732313A2063616C6C6572206973206E6F7420746F6B656E206F776E65 PUSH1 0x40 DUP3 ADD MSTORE PUSH13 0x1C881BDC88185C1C1C9BDD9959 PUSH1 0x9A SHL PUSH1 0x60 DUP3 ADD MSTORE PUSH1 0x80 ADD SWAP1 JUMP JUMPDEST PUSH1 0x20 DUP1 DUP3 MSTORE PUSH1 0x2B SWAP1 DUP3 ADD MSTORE PUSH32 0x496E697469616C697A61626C653A20636F6E7472616374206973206E6F742069 PUSH1 0x40 DUP3 ADD MSTORE PUSH11 0x6E697469616C697A696E67 PUSH1 0xA8 SHL PUSH1 0x60 DUP3 ADD MSTORE PUSH1 0x80 ADD SWAP1 JUMP JUMPDEST PUSH0 PUSH1 0x20 DUP3 DUP5 SUB SLT ISZERO PUSH2 0x4EA4 JUMPI PUSH0 PUSH0 REVERT JUMPDEST PUSH2 0x291A DUP3 PUSH2 0x4CBE JUMP JUMPDEST DUP2 MLOAD PUSH1 0x1 PUSH1 0x1 PUSH1 0x40 SHL SUB DUP2 GT ISZERO PUSH2 0x4EC6 JUMPI PUSH2 0x4EC6 PUSH2 0x470E JUMP JUMPDEST PUSH2 0x4EDA DUP2 PUSH2 0x4ED4 DUP5 SLOAD PUSH2 0x48EB JUMP JUMPDEST DUP5 PUSH2 0x4B3B JUMP JUMPDEST PUSH1 0x20 PUSH1 0x1F DUP3 GT PUSH1 0x1 DUP2 EQ PUSH2 0x4F0C JUMPI PUSH0 DUP4 ISZERO PUSH2 0x4EF5 JUMPI POP DUP5 DUP3 ADD MLOAD JUMPDEST PUSH0 NOT PUSH1 0x3 DUP6 SWAP1 SHL SHR NOT AND PUSH1 0x1 DUP5 SWAP1 SHL OR DUP5 SSTORE PUSH2 0x1A3D JUMP JUMPDEST PUSH0 DUP5 DUP2 MSTORE PUSH1 0x20 DUP2 KECCAK256 PUSH1 0x1F NOT DUP6 AND SWAP2 JUMPDEST DUP3 DUP2 LT ISZERO PUSH2 0x4F3B JUMPI DUP8 DUP6 ADD MLOAD DUP3 SSTORE PUSH1 0x20 SWAP5 DUP6 ADD SWAP5 PUSH1 0x1 SWAP1 SWAP3 ADD SWAP2 ADD PUSH2 0x4F1B JUMP JUMPDEST POP DUP5 DUP3 LT ISZERO PUSH2 0x4F58 JUMPI DUP7 DUP5 ADD MLOAD PUSH0 NOT PUSH1 0x3 DUP8 SWAP1 SHL PUSH1 0xF8 AND SHR NOT AND DUP2 SSTORE JUMPDEST POP POP POP POP PUSH1 0x1 SWAP1 DUP2 SHL ADD SWAP1 SSTORE POP JUMP JUMPDEST DUP5 DUP2 MSTORE PUSH1 0x80 PUSH1 0x20 DUP3 ADD MSTORE PUSH0 PUSH2 0x4F7F PUSH1 0x80 DUP4 ADD DUP7 PUSH2 0x484B JUMP JUMPDEST PUSH1 0x1 PUSH1 0x1 PUSH1 0xA0 SHL SUB SWAP5 SWAP1 SWAP5 AND PUSH1 0x40 DUP4 ADD MSTORE POP PUSH1 0x60 ADD MSTORE SWAP3 SWAP2 POP POP JUMP JUMPDEST PUSH1 0x20 DUP1 DUP3 MSTORE PUSH1 0x25 SWAP1 DUP3 ADD MSTORE PUSH32 0x4552433732313A207472616E736665722066726F6D20696E636F727265637420 PUSH1 0x40 DUP3 ADD MSTORE PUSH5 0x37BBB732B9 PUSH1 0xD9 SHL PUSH1 0x60 DUP3 ADD MSTORE PUSH1 0x80 ADD SWAP1 JUMP JUMPDEST PUSH1 0x20 DUP1 DUP3 MSTORE PUSH1 0x32 SWAP1 DUP3 ADD MSTORE PUSH32 0x4552433732313A207472616E7366657220746F206E6F6E204552433732315265 PUSH1 0x40 DUP3 ADD MSTORE PUSH18 0x31B2B4BB32B91034B6B83632B6B2B73A32B9 PUSH1 0x71 SHL PUSH1 0x60 DUP3 ADD MSTORE PUSH1 0x80 ADD SWAP1 JUMP JUMPDEST DUP6 DUP2 MSTORE DUP5 PUSH1 0x20 DUP3 ADD MSTORE PUSH1 0xA0 PUSH1 0x40 DUP3 ADD MSTORE PUSH0 PUSH2 0x5050 PUSH1 0xA0 DUP4 ADD DUP7 PUSH2 0x484B JUMP JUMPDEST PUSH1 0x1 PUSH1 0x1 PUSH1 0xA0 SHL SUB SWAP5 SWAP1 SWAP5 AND PUSH1 0x60 DUP4 ADD MSTORE POP PUSH1 0x80 ADD MSTORE SWAP4 SWAP3 POP POP POP JUMP JUMPDEST PUSH0 DUP2 SLOAD DUP1 DUP5 MSTORE PUSH1 0x20 DUP5 ADD SWAP4 POP DUP3 PUSH0 MSTORE PUSH1 0x20 PUSH0 KECCAK256 PUSH0 JUMPDEST DUP3 DUP2 LT ISZERO PUSH2 0x4884 JUMPI DUP2 SLOAD DUP7 MSTORE PUSH1 0x20 SWAP1 SWAP6 ADD SWAP5 PUSH1 0x1 SWAP2 DUP3 ADD SWAP2 ADD PUSH2 0x5082 JUMP JUMPDEST PUSH1 0x80 DUP1 DUP3 MSTORE DUP6 SLOAD SWAP1 DUP3 ADD DUP2 SWAP1 MSTORE PUSH0 DUP7 DUP2 MSTORE PUSH1 0x20 DUP2 KECCAK256 SWAP1 SWAP2 PUSH1 0xA0 DUP5 ADD SWAP1 DUP4 JUMPDEST DUP2 DUP2 LT ISZERO PUSH2 0x50E5 JUMPI DUP4 SLOAD PUSH1 0x1 PUSH1 0x1 PUSH1 0xA0 SHL SUB AND DUP4 MSTORE PUSH1 0x1 SWAP4 DUP5 ADD SWAP4 PUSH1 0x20 SWAP1 SWAP4 ADD SWAP3 ADD PUSH2 0x50BE JUMP JUMPDEST POP POP DUP4 DUP2 SUB PUSH1 0x20 DUP6 ADD MSTORE PUSH2 0x50F9 DUP2 DUP9 PUSH2 0x506D JUMP JUMPDEST SWAP2 POP POP DUP3 DUP2 SUB PUSH1 0x40 DUP5 ADD MSTORE PUSH2 0x510E DUP2 DUP7 PUSH2 0x484B JUMP JUMPDEST SWAP1 POP DUP3 DUP2 SUB PUSH1 0x60 DUP5 ADD MSTORE PUSH2 0x4288 DUP2 DUP6 PUSH2 0x488E JUMP JUMPDEST PUSH1 0x20 DUP2 MSTORE PUSH0 PUSH2 0x291A PUSH1 0x20 DUP4 ADD DUP5 PUSH2 0x484B JUMP JUMPDEST PUSH1 0x1 PUSH1 0x1 PUSH1 0xA0 SHL SUB DUP6 DUP2 AND DUP3 MSTORE DUP5 AND PUSH1 0x20 DUP3 ADD MSTORE PUSH1 0x40 DUP2 ADD DUP4 SWAP1 MSTORE PUSH1 0x80 PUSH1 0x60 DUP3 ADD DUP2 SWAP1 MSTORE PUSH0 SWAP1 PUSH2 0x4A1A SWAP1 DUP4 ADD DUP5 PUSH2 0x449A JUMP JUMPDEST PUSH0 PUSH1 0x20 DUP3 DUP5 SUB SLT ISZERO PUSH2 0x5176 JUMPI PUSH0 PUSH0 REVERT JUMPDEST DUP2 MLOAD PUSH2 0x291A DUP2 PUSH2 0x446A JUMP JUMPDEST PUSH0 PUSH2 0x291A DUP3 DUP5 PUSH2 0x4D5D JUMP INVALID LOG2 PUSH5 0x6970667358 0x22 SLT KECCAK256 SWAP4 BLOBHASH SIGNEXTEND SMOD 0xDF DUP15 DUP1 ISZERO PUSH7 0x7CB58A887180CE 0xD PUSH18 0xED9364DFC08E155D2FC9A66EDEA364736F6C PUSH4 0x4300081E STOP CALLER "
		},
		"gasEstimates": {
			"creation": {
				"codeDepositCost": "4186000",
				"executionCost": "4816",
				"totalCost": "4190816"
			},
			"external": {
				"PERCENT_PRECISION()": "304",
				"approve(address,uint256)": "infinite",
				"balanceOf(address)": "2624",
				"bsktPair()": "2447",
				"claimFee(uint256,uint256,uint256)": "infinite",
				"contractURI()": "infinite",
				"contribute(uint256,uint256)": "infinite",
				"description()": "infinite",
				"emergencyStable(address[],uint256[],uint256,uint256)": "infinite",
				"factory()": "2381",
				"getApproved(uint256)": "4810",
				"getOwner()": "2524",
				"getTokenDetails()": "infinite",
				"getTokenDetails(uint256)": "11191",
				"getTokenValueByWETH()": "infinite",
				"id()": "infinite",
				"initialize((string,string,address,address,address[],uint256[],address,string,string,string))": "infinite",
				"isApprovedForAll(address,address)": "infinite",
				"name()": "infinite",
				"ownerOf(uint256)": "2647",
				"rebalance(address[],uint256[],uint256,uint256)": "infinite",
				"royaltyInfo(uint256,uint256)": "infinite",
				"safeTransferFrom(address,address,uint256)": "infinite",
				"safeTransferFrom(address,address,uint256,bytes)": "infinite",
				"setApprovalForAll(address,bool)": "infinite",
				"supportsInterface(bytes4)": "infinite",
				"symbol()": "infinite",
				"tokenURI(uint256)": "infinite",
				"totalTokens()": "2380",
				"transferFrom(address,address,uint256)": "infinite",
				"withdrawETH(uint256,uint256,uint256)": "infinite"
			},
			"internal": {
				"_allocateNewWeights(uint256,address[] memory,uint256[] memory,address,address,uint256,uint256)": "infinite",
				"_checkForDuplicateAddress(address[] memory,address,uint256)": "infinite",
				"_checkValidTokensAndWeights(address[] memory,uint256[] memory)": "infinite",
				"_deductContributionFee(uint256,address,uint256)": "infinite",
				"_factory()": "infinite",
				"_finalizeRebalance(address[] memory,uint256[] memory)": "infinite",
				"_initializeContribute()": "infinite",
				"_prepareRebalance(address,address,uint256,uint256)": "infinite",
				"_rebalance(address[] memory,uint256[] memory,uint256,bool,uint256)": "infinite",
				"_registerInterface(bytes4)": "infinite",
				"_swapEthForTokens(uint256,address,address,address,uint256,uint256)": "infinite",
				"_swapTokensForTokens(address,address,address,uint256,address,uint256,uint256)": "infinite",
				"_tokensToEth(contract IFactory,uint256[] memory,address payable,uint256,uint256)": "infinite",
				"_validateContributeInputs(uint256,uint256)": "infinite",
				"_withdraw(uint256,address)": "infinite",
				"isContractAddress(address)": "2649",
				"withdraw(uint256,uint256,uint256)": "infinite"
			}
		},
		"methodIdentifiers": {
			"PERCENT_PRECISION()": "ffe8e372",
			"approve(address,uint256)": "095ea7b3",
			"balanceOf(address)": "70a08231",
			"bsktPair()": "df7a1061",
			"claimFee(uint256,uint256,uint256)": "4c306528",
			"contractURI()": "e8a3d485",
			"contribute(uint256,uint256)": "8c590917",
			"description()": "7284e416",
			"emergencyStable(address[],uint256[],uint256,uint256)": "d32429ce",
			"factory()": "c45a0155",
			"getApproved(uint256)": "081812fc",
			"getOwner()": "893d20e8",
			"getTokenDetails()": "ff332ab7",
			"getTokenDetails(uint256)": "c1e03728",
			"getTokenValueByWETH()": "083c01f3",
			"id()": "af640d0f",
			"initialize((string,string,address,address,address[],uint256[],address,string,string,string))": "478ecd90",
			"isApprovedForAll(address,address)": "e985e9c5",
			"name()": "06fdde03",
			"ownerOf(uint256)": "6352211e",
			"rebalance(address[],uint256[],uint256,uint256)": "9ff253f9",
			"royaltyInfo(uint256,uint256)": "2a55205a",
			"safeTransferFrom(address,address,uint256)": "42842e0e",
			"safeTransferFrom(address,address,uint256,bytes)": "b88d4fde",
			"setApprovalForAll(address,bool)": "a22cb465",
			"supportsInterface(bytes4)": "01ffc9a7",
			"symbol()": "95d89b41",
			"tokenURI(uint256)": "c87b56dd",
			"totalTokens()": "7e1c0c09",
			"transferFrom(address,address,uint256)": "23b872dd",
			"withdrawETH(uint256,uint256,uint256)": "87244b9c"
		}
	},
	"abi": [
		{
			"inputs": [],
			"name": "ContractNotWhitelisted",
			"type": "error"
		},
		{
			"inputs": [
				{
					"internalType": "uint256",
					"name": "deadline",
					"type": "uint256"
				}
			],
			"name": "DeadlineInPast",
			"type": "error"
		},
		{
			"inputs": [],
			"name": "DuplicateToken",
			"type": "error"
		},
		{
			"inputs": [
				{
					"internalType": "uint256",
					"name": "provided",
					"type": "uint256"
				},
				{
					"internalType": "uint256",
					"name": "required",
					"type": "uint256"
				}
			],
			"name": "InsufficientAlvaPercentage",
			"type": "error"
		},
		{
			"inputs": [
				{
					"internalType": "uint256",
					"name": "provided",
					"type": "uint256"
				},
				{
					"internalType": "uint256",
					"name": "minRequired",
					"type": "uint256"
				},
				{
					"internalType": "uint256",
					"name": "maxAllowed",
					"type": "uint256"
				}
			],
			"name": "InvalidBuffer",
			"type": "error"
		},
		{
			"inputs": [
				{
					"internalType": "address",
					"name": "target",
					"type": "address"
				}
			],
			"name": "InvalidContractAddress",
			"type": "error"
		},
		{
			"inputs": [],
			"name": "InvalidEmergencyParams",
			"type": "error"
		},
		{
			"inputs": [],
			"name": "InvalidInterfaceId",
			"type": "error"
		},
		{
			"inputs": [],
			"name": "InvalidLength",
			"type": "error"
		},
		{
			"inputs": [],
			"name": "InvalidOwner",
			"type": "error"
		},
		{
			"inputs": [],
			"name": "InvalidToken",
			"type": "error"
		},
		{
			"inputs": [],
			"name": "InvalidWeight",
			"type": "error"
		},
		{
			"inputs": [],
			"name": "InvalidWithdrawalAmount",
			"type": "error"
		},
		{
			"inputs": [],
			"name": "NoAlvaTokenIncluded",
			"type": "error"
		},
		{
			"inputs": [
				{
					"internalType": "uint256",
					"name": "index",
					"type": "uint256"
				},
				{
					"internalType": "uint256",
					"name": "length",
					"type": "uint256"
				}
			],
			"name": "TokenIndexOutOfBounds",
			"type": "error"
		},
		{
			"inputs": [
				{
					"internalType": "address",
					"name": "sender",
					"type": "address"
				}
			],
			"name": "UnauthorizedSender",
			"type": "error"
		},
		{
			"inputs": [],
			"name": "ZeroContributionAmount",
			"type": "error"
		},
		{
			"inputs": [],
			"name": "ZeroTokenWeight",
			"type": "error"
		},
		{
			"anonymous": false,
			"inputs": [
				{
					"indexed": true,
					"internalType": "address",
					"name": "owner",
					"type": "address"
				},
				{
					"indexed": true,
					"internalType": "address",
					"name": "approved",
					"type": "address"
				},
				{
					"indexed": true,
					"internalType": "uint256",
					"name": "tokenId",
					"type": "uint256"
				}
			],
			"name": "Approval",
			"type": "event"
		},
		{
			"anonymous": false,
			"inputs": [
				{
					"indexed": true,
					"internalType": "address",
					"name": "owner",
					"type": "address"
				},
				{
					"indexed": true,
					"internalType": "address",
					"name": "operator",
					"type": "address"
				},
				{
					"indexed": false,
					"internalType": "bool",
					"name": "approved",
					"type": "bool"
				}
			],
			"name": "ApprovalForAll",
			"type": "event"
		},
		{
			"anonymous": false,
			"inputs": [
				{
					"indexed": true,
					"internalType": "address",
					"name": "bskt",
					"type": "address"
				},
				{
					"indexed": false,
					"internalType": "address[]",
					"name": "oldtokens",
					"type": "address[]"
				},
				{
					"indexed": false,
					"internalType": "uint256[]",
					"name": "oldWeights",
					"type": "uint256[]"
				},
				{
					"indexed": false,
					"internalType": "address[]",
					"name": "newTokens",
					"type": "address[]"
				},
				{
					"indexed": false,
					"internalType": "uint256[]",
					"name": "newWeights",
					"type": "uint256[]"
				}
			],
			"name": "BSKTRebalanced",
			"type": "event"
		},
		{
			"anonymous": false,
			"inputs": [
				{
					"indexed": false,
					"internalType": "uint256",
					"name": "_fromTokenId",
					"type": "uint256"
				},
				{
					"indexed": false,
					"internalType": "uint256",
					"name": "_toTokenId",
					"type": "uint256"
				}
			],
			"name": "BatchMetadataUpdate",
			"type": "event"
		},
		{
			"anonymous": false,
			"inputs": [
				{
					"indexed": false,
					"internalType": "address",
					"name": "bskt",
					"type": "address"
				},
				{
					"indexed": true,
					"internalType": "address",
					"name": "sender",
					"type": "address"
				},
				{
					"indexed": false,
					"internalType": "uint256",
					"name": "amount",
					"type": "uint256"
				}
			],
			"name": "ContributedToBSKT",
			"type": "event"
		},
		{
			"anonymous": false,
			"inputs": [
				{
					"indexed": true,
					"internalType": "address",
					"name": "bskt",
					"type": "address"
				},
				{
					"indexed": true,
					"internalType": "address",
					"name": "manager",
					"type": "address"
				},
				{
					"indexed": false,
					"internalType": "uint256",
					"name": "lpAmount",
					"type": "uint256"
				},
				{
					"indexed": false,
					"internalType": "uint256",
					"name": "ethAmount",
					"type": "uint256"
				}
			],
			"name": "FeeClaimed",
			"type": "event"
		},
		{
			"anonymous": false,
			"inputs": [
				{
					"indexed": false,
					"internalType": "uint8",
					"name": "version",
					"type": "uint8"
				}
			],
			"name": "Initialized",
			"type": "event"
		},
		{
			"anonymous": false,
			"inputs": [
				{
					"indexed": false,
					"internalType": "uint256",
					"name": "_tokenId",
					"type": "uint256"
				}
			],
			"name": "MetadataUpdate",
			"type": "event"
		},
		{
			"anonymous": false,
			"inputs": [
				{
					"indexed": false,
					"internalType": "uint256",
					"name": "feeAmount",
					"type": "uint256"
				},
				{
					"indexed": false,
					"internalType": "uint256",
					"name": "feePercent",
					"type": "uint256"
				},
				{
					"indexed": true,
					"internalType": "address",
					"name": "feeCollector",
					"type": "address"
				},
				{
					"indexed": false,
					"internalType": "string",
					"name": "action",
					"type": "string"
				}
			],
			"name": "PlatformFeeDeducted",
			"type": "event"
		},
		{
			"anonymous": false,
			"inputs": [
				{
					"indexed": true,
					"internalType": "address",
					"name": "from",
					"type": "address"
				},
				{
					"indexed": true,
					"internalType": "address",
					"name": "to",
					"type": "address"
				},
				{
					"indexed": true,
					"internalType": "uint256",
					"name": "tokenId",
					"type": "uint256"
				}
			],
			"name": "Transfer",
			"type": "event"
		},
		{
			"anonymous": false,
			"inputs": [
				{
					"indexed": false,
					"internalType": "address",
					"name": "bskt",
					"type": "address"
				},
				{
					"indexed": true,
					"internalType": "address",
					"name": "sender",
					"type": "address"
				},
				{
					"indexed": false,
					"internalType": "uint256",
					"name": "amount",
					"type": "uint256"
				}
			],
			"name": "WithdrawnETHFromBSKT",
			"type": "event"
		},
		{
			"anonymous": false,
			"inputs": [
				{
					"indexed": false,
					"internalType": "address",
					"name": "bskt",
					"type": "address"
				},
				{
					"indexed": true,
					"internalType": "address",
					"name": "sender",
					"type": "address"
				},
				{
					"indexed": false,
					"internalType": "address[]",
					"name": "tokens",
					"type": "address[]"
				},
				{
					"indexed": false,
					"internalType": "uint256[]",
					"name": "amounts",
					"type": "uint256[]"
				}
			],
			"name": "WithdrawnFromBSKT",
			"type": "event"
		},
		{
			"inputs": [],
			"name": "PERCENT_PRECISION",
			"outputs": [
				{
					"internalType": "uint256",
					"name": "",
					"type": "uint256"
				}
			],
			"stateMutability": "view",
			"type": "function"
		},
		{
			"inputs": [
				{
					"internalType": "address",
					"name": "to",
					"type": "address"
				},
				{
					"internalType": "uint256",
					"name": "tokenId",
					"type": "uint256"
				}
			],
			"name": "approve",
			"outputs": [],
			"stateMutability": "nonpayable",
			"type": "function"
		},
		{
			"inputs": [
				{
					"internalType": "address",
					"name": "owner",
					"type": "address"
				}
			],
			"name": "balanceOf",
			"outputs": [
				{
					"internalType": "uint256",
					"name": "",
					"type": "uint256"
				}
			],
			"stateMutability": "view",
			"type": "function"
		},
		{
			"inputs": [],
			"name": "bsktPair",
			"outputs": [
				{
					"internalType": "address",
					"name": "",
					"type": "address"
				}
			],
			"stateMutability": "view",
			"type": "function"
		},
		{
			"inputs": [
				{
					"internalType": "uint256",
					"name": "amount",
					"type": "uint256"
				},
				{
					"internalType": "uint256",
					"name": "_slippage",
					"type": "uint256"
				},
				{
					"internalType": "uint256",
					"name": "_deadline",
					"type": "uint256"
				}
			],
			"name": "claimFee",
			"outputs": [],
			"stateMutability": "nonpayable",
			"type": "function"
		},
		{
			"inputs": [],
			"name": "contractURI",
			"outputs": [
				{
					"internalType": "string",
					"name": "",
					"type": "string"
				}
			],
			"stateMutability": "view",
			"type": "function"
		},
		{
			"inputs": [
				{
					"internalType": "uint256",
					"name": "_slippage",
					"type": "uint256"
				},
				{
					"internalType": "uint256",
					"name": "_deadline",
					"type": "uint256"
				}
			],
			"name": "contribute",
			"outputs": [],
			"stateMutability": "payable",
			"type": "function"
		},
		{
			"inputs": [],
			"name": "description",
			"outputs": [
				{
					"internalType": "string",
					"name": "",
					"type": "string"
				}
			],
			"stateMutability": "view",
			"type": "function"
		},
		{
			"inputs": [
				{
					"internalType": "address[]",
					"name": "_newTokens",
					"type": "address[]"
				},
				{
					"internalType": "uint256[]",
					"name": "_newWeights",
					"type": "uint256[]"
				},
				{
					"internalType": "uint256",
					"name": "_slippage",
					"type": "uint256"
				},
				{
					"internalType": "uint256",
					"name": "_deadline",
					"type": "uint256"
				}
			],
			"name": "emergencyStable",
			"outputs": [],
			"stateMutability": "nonpayable",
			"type": "function"
		},
		{
			"inputs": [],
			"name": "factory",
			"outputs": [
				{
					"internalType": "address",
					"name": "",
					"type": "address"
				}
			],
			"stateMutability": "view",
			"type": "function"
		},
		{
			"inputs": [
				{
					"internalType": "uint256",
					"name": "tokenId",
					"type": "uint256"
				}
			],
			"name": "getApproved",
			"outputs": [
				{
					"internalType": "address",
					"name": "",
					"type": "address"
				}
			],
			"stateMutability": "view",
			"type": "function"
		},
		{
			"inputs": [],
			"name": "getOwner",
			"outputs": [
				{
					"internalType": "address",
					"name": "owner",
					"type": "address"
				}
			],
			"stateMutability": "view",
			"type": "function"
		},
		{
			"inputs": [
				{
					"internalType": "uint256",
					"name": "_index",
					"type": "uint256"
				}
			],
			"name": "getTokenDetails",
			"outputs": [
				{
					"internalType": "address",
					"name": "token",
					"type": "address"
				},
				{
					"internalType": "uint256",
					"name": "weight",
					"type": "uint256"
				}
			],
			"stateMutability": "view",
			"type": "function"
		},
		{
			"inputs": [],
			"name": "getTokenDetails",
			"outputs": [
				{
					"internalType": "address[]",
					"name": "tokens",
					"type": "address[]"
				},
				{
					"internalType": "uint256[]",
					"name": "weights",
					"type": "uint256[]"
				}
			],
			"stateMutability": "view",
			"type": "function"
		},
		{
			"inputs": [],
			"name": "getTokenValueByWETH",
			"outputs": [
				{
					"internalType": "uint256",
					"name": "value",
					"type": "uint256"
				}
			],
			"stateMutability": "view",
			"type": "function"
		},
		{
			"inputs": [],
			"name": "id",
			"outputs": [
				{
					"internalType": "string",
					"name": "",
					"type": "string"
				}
			],
			"stateMutability": "view",
			"type": "function"
		},
		{
			"inputs": [
				{
					"components": [
						{
							"internalType": "string",
							"name": "name",
							"type": "string"
						},
						{
							"internalType": "string",
							"name": "symbol",
							"type": "string"
						},
						{
							"internalType": "address",
							"name": "owner",
							"type": "address"
						},
						{
							"internalType": "address",
							"name": "factoryAddress",
							"type": "address"
						},
						{
							"internalType": "address[]",
							"name": "tokens",
							"type": "address[]"
						},
						{
							"internalType": "uint256[]",
							"name": "weights",
							"type": "uint256[]"
						},
						{
							"internalType": "address",
							"name": "bsktPair",
							"type": "address"
						},
						{
							"internalType": "string",
							"name": "tokenURI",
							"type": "string"
						},
						{
							"internalType": "string",
							"name": "id",
							"type": "string"
						},
						{
							"internalType": "string",
							"name": "description",
							"type": "string"
						}
					],
					"internalType": "struct IBSKT.BasketParams",
					"name": "params",
					"type": "tuple"
				}
			],
			"name": "initialize",
			"outputs": [],
			"stateMutability": "nonpayable",
			"type": "function"
		},
		{
			"inputs": [
				{
					"internalType": "address",
					"name": "owner",
					"type": "address"
				},
				{
					"internalType": "address",
					"name": "operator",
					"type": "address"
				}
			],
			"name": "isApprovedForAll",
			"outputs": [
				{
					"internalType": "bool",
					"name": "",
					"type": "bool"
				}
			],
			"stateMutability": "view",
			"type": "function"
		},
		{
			"inputs": [],
			"name": "name",
			"outputs": [
				{
					"internalType": "string",
					"name": "",
					"type": "string"
				}
			],
			"stateMutability": "view",
			"type": "function"
		},
		{
			"inputs": [
				{
					"internalType": "uint256",
					"name": "tokenId",
					"type": "uint256"
				}
			],
			"name": "ownerOf",
			"outputs": [
				{
					"internalType": "address",
					"name": "",
					"type": "address"
				}
			],
			"stateMutability": "view",
			"type": "function"
		},
		{
			"inputs": [
				{
					"internalType": "address[]",
					"name": "_newTokens",
					"type": "address[]"
				},
				{
					"internalType": "uint256[]",
					"name": "_newWeights",
					"type": "uint256[]"
				},
				{
					"internalType": "uint256",
					"name": "_slippage",
					"type": "uint256"
				},
				{
					"internalType": "uint256",
					"name": "_deadline",
					"type": "uint256"
				}
			],
			"name": "rebalance",
			"outputs": [],
			"stateMutability": "nonpayable",
			"type": "function"
		},
		{
			"inputs": [
				{
					"internalType": "uint256",
					"name": "",
					"type": "uint256"
				},
				{
					"internalType": "uint256",
					"name": "_salePrice",
					"type": "uint256"
				}
			],
			"name": "royaltyInfo",
			"outputs": [
				{
					"internalType": "address",
					"name": "receiver",
					"type": "address"
				},
				{
					"internalType": "uint256",
					"name": "royaltyAmount",
					"type": "uint256"
				}
			],
			"stateMutability": "view",
			"type": "function"
		},
		{
			"inputs": [
				{
					"internalType": "address",
					"name": "from",
					"type": "address"
				},
				{
					"internalType": "address",
					"name": "to",
					"type": "address"
				},
				{
					"internalType": "uint256",
					"name": "tokenId",
					"type": "uint256"
				}
			],
			"name": "safeTransferFrom",
			"outputs": [],
			"stateMutability": "nonpayable",
			"type": "function"
		},
		{
			"inputs": [
				{
					"internalType": "address",
					"name": "from",
					"type": "address"
				},
				{
					"internalType": "address",
					"name": "to",
					"type": "address"
				},
				{
					"internalType": "uint256",
					"name": "tokenId",
					"type": "uint256"
				},
				{
					"internalType": "bytes",
					"name": "data",
					"type": "bytes"
				}
			],
			"name": "safeTransferFrom",
			"outputs": [],
			"stateMutability": "nonpayable",
			"type": "function"
		},
		{
			"inputs": [
				{
					"internalType": "address",
					"name": "operator",
					"type": "address"
				},
				{
					"internalType": "bool",
					"name": "approved",
					"type": "bool"
				}
			],
			"name": "setApprovalForAll",
			"outputs": [],
			"stateMutability": "nonpayable",
			"type": "function"
		},
		{
			"inputs": [
				{
					"internalType": "bytes4",
					"name": "interfaceId",
					"type": "bytes4"
				}
			],
			"name": "supportsInterface",
			"outputs": [
				{
					"internalType": "bool",
					"name": "",
					"type": "bool"
				}
			],
			"stateMutability": "view",
			"type": "function"
		},
		{
			"inputs": [],
			"name": "symbol",
			"outputs": [
				{
					"internalType": "string",
					"name": "",
					"type": "string"
				}
			],
			"stateMutability": "view",
			"type": "function"
		},
		{
			"inputs": [
				{
					"internalType": "uint256",
					"name": "tokenId",
					"type": "uint256"
				}
			],
			"name": "tokenURI",
			"outputs": [
				{
					"internalType": "string",
					"name": "",
					"type": "string"
				}
			],
			"stateMutability": "view",
			"type": "function"
		},
		{
			"inputs": [],
			"name": "totalTokens",
			"outputs": [
				{
					"internalType": "uint256",
					"name": "tokenLength",
					"type": "uint256"
				}
			],
			"stateMutability": "view",
			"type": "function"
		},
		{
			"inputs": [
				{
					"internalType": "address",
					"name": "from",
					"type": "address"
				},
				{
					"internalType": "address",
					"name": "to",
					"type": "address"
				},
				{
					"internalType": "uint256",
					"name": "tokenId",
					"type": "uint256"
				}
			],
			"name": "transferFrom",
			"outputs": [],
			"stateMutability": "nonpayable",
			"type": "function"
		},
		{
			"inputs": [
				{
					"internalType": "uint256",
					"name": "_liquidity",
					"type": "uint256"
				},
				{
					"internalType": "uint256",
					"name": "_slippage",
					"type": "uint256"
				},
				{
					"internalType": "uint256",
					"name": "_deadline",
					"type": "uint256"
				}
			],
			"name": "withdrawETH",
			"outputs": [],
			"stateMutability": "nonpayable",
			"type": "function"
		},
		{
			"stateMutability": "payable",
			"type": "receive"
		}
	]
}