{
	"data": {
		"bytecode": {
			"linkReferences": {},
			"object": "6080604052348015600e575f5ffd5b50613f028061001c5f395ff3fe6080604052600436106102d9575f3560e01c80637910af6f11610189578063c4e994a0116100d8578063defcd4b311610092578063f18f9f191161006d578063f18f9f191461091d578063f72c0d8b1461093c578063f887ea401461095c578063ffe8e3721461097b575f5ffd5b8063defcd4b3146108d5578063ef1e095f146108e9578063f016498e146108fe575f5ffd5b8063c4e994a0146107e3578063c9889f6c14610839578063d06ca61f1461084c578063d23aaed31461086b578063d547741f1461088a578063d88e3e3b146108a9575f5ffd5b8063a4c05e8c11610143578063b28775cd1161011e578063b28775cd14610767578063b9e32d8614610786578063bbf75517146107a5578063c20cc665146107c4575f5ffd5b8063a4c05e8c1461070a578063aea8afe914610729578063b0ec8be914610748575f5ffd5b80637910af6f146106665780638a71bb2d1461068557806391d148541461069a5780639fbc8713146106b9578063a217fddf146106d8578063a42dce80146106eb575f5ffd5b8063391feebb11610245578063621bb669116101ff57806371500475116101da57806371500475146105e05780637295ed93146105ff57806375b238fc146106325780637618c33514610652575f5ffd5b8063621bb6691461057a578063682d07d9146105995780636dbd5d2a146105cc575f5ffd5b8063391feebb1461048c5780633b9589a9146104ba5780633fc8cef3146104f157806346704adb146105285780634fcc1def146105475780635ee70f091461055b575f5ffd5b8063248a9ca311610296578063248a9ca3146103c1578063251ae3d6146103ef57806329dc4d9b1461040e5780632f2ff15d1461042d57806336568abe1461044c57806337929eb41461046b575f5ffd5b806301c4aebe146102dd57806301ffc9a71461030f57806305db2f411461033e5780630b9421bd1461036c5780630e8603161461038d5780631aa6b19a146103a2575b5f5ffd5b3480156102e8575f5ffd5b5060d1546102f79061ffff1681565b60405161ffff90911681526020015b60405180910390f35b34801561031a575f5ffd5b5061032e610329366004612e59565b610990565b6040519015158152602001610306565b348015610349575f5ffd5b5061035e5f516020613e8d5f395f51905f5281565b604051908152602001610306565b348015610377575f5ffd5b5061038b610386366004612e9b565b6109c6565b005b348015610398575f5ffd5b5061035e60d25481565b3480156103ad575f5ffd5b5061038b6103bc366004612e9b565b610a9d565b3480156103cc575f5ffd5b5061035e6103db366004612eb4565b5f9081526065602052604090206001015490565b3480156103fa575f5ffd5b5061038b610409366004612edc565b610b3a565b348015610419575f5ffd5b5061038b610428366004612e9b565b610be8565b348015610438575f5ffd5b5061038b610447366004612ef5565b610c8a565b348015610457575f5ffd5b5061038b610466366004612ef5565b610cb3565b348015610476575f5ffd5b5061047f610d31565b6040516103069190612f4d565b348015610497575f5ffd5b5061032e6104a6366004612e9b565b60d66020525f908152604090205460ff1681565b3480156104c5575f5ffd5b5061032e6104d4366004612e9b565b6001600160a01b03165f90815260d6602052604090205460ff1690565b3480156104fc575f5ffd5b5060cc54610510906001600160a01b031681565b6040516001600160a01b039091168152602001610306565b348015610533575f5ffd5b5061038b610542366004612e9b565b610dc1565b348015610552575f5ffd5b506102f7603281565b348015610566575f5ffd5b5061038b610575366004612e9b565b610ebc565b348015610585575f5ffd5b5061038b610594366004612eb4565b610f5d565b3480156105a4575f5ffd5b5061035e7fa70a2d8710fed9f014c8c2af50c7c2f6b25748ae4cded822e03b7beed44cf3a881565b3480156105d7575f5ffd5b5060c95461035e565b3480156105eb575f5ffd5b506105106105fa366004612eb4565b611009565b34801561060a575f5ffd5b5061035e7f2a3dab589bcc9747970dd85ac3f222668741ae51f2a1bbb8f8355be28dd8a86881565b34801561063d575f5ffd5b5061035e5f516020613ead5f395f51905f5281565b34801561065d575f5ffd5b5060d55461035e565b348015610671575f5ffd5b5061038b610680366004612f5f565b61107f565b348015610690575f5ffd5b5061035e60d05481565b3480156106a5575f5ffd5b5061032e6106b4366004612ef5565b61112c565b3480156106c4575f5ffd5b5060cf54610510906001600160a01b031681565b3480156106e3575f5ffd5b5061035e5f81565b3480156106f6575f5ffd5b5061038b610705366004612e9b565b611156565b348015610715575f5ffd5b5060ce54610510906001600160a01b031681565b348015610734575f5ffd5b5061038b610743366004612eb4565b61120b565b348015610753575f5ffd5b5061038b610762366004612eb4565b61128c565b348015610772575f5ffd5b5060ca54610510906001600160a01b031681565b348015610791575f5ffd5b506105106107a0366004612eb4565b6112d8565b3480156107b0575f5ffd5b5061038b6107bf366004612fcb565b611300565b3480156107cf575f5ffd5b5061038b6107de366004612e9b565b611418565b3480156107ee575f5ffd5b5060d7546040805161ffff80841682526201000084048116602083015264010000000084041691810191909152600160301b9091046001600160a01b03166060820152608001610306565b61038b61084736600461300b565b6114b5565b348015610857575f5ffd5b5061035e6108663660046130a8565b611702565b348015610876575f5ffd5b5061035e610885366004613150565b6117a3565b348015610895575f5ffd5b5061038b6108a4366004612ef5565b611804565b3480156108b4575f5ffd5b506108c86108c3366004613170565b611828565b60405161030691906131db565b3480156108e0575f5ffd5b5061047f6118b3565b3480156108f4575f5ffd5b5061035e60d35481565b348015610909575f5ffd5b5061038b6109183660046131ed565b61193f565b348015610928575f5ffd5b5060cd54610510906001600160a01b031681565b348015610947575f5ffd5b5061035e5f516020613e6d5f395f51905f5281565b348015610967575f5ffd5b5060cb54610510906001600160a01b031681565b348015610986575f5ffd5b5061035e61271081565b5f6001600160e01b03198216637965db0b60e01b14806109c057506301ffc9a760e01b6001600160e01b03198316145b92915050565b7f2a3dab589bcc9747970dd85ac3f222668741ae51f2a1bbb8f8355be28dd8a8686109f081611cbf565b6001600160a01b0382165f90815260d6602052604090205460ff16610a54576001600160a01b0382165f81815260d660205260409081902054905163502df08d60e11b8152600481019290925260ff16151560248201526044015b60405180910390fd5b6001600160a01b0382165f81815260d66020526040808220805460ff19169055517ffb8b462bd4e3db069eb434596fcfb88044cfe688f7329d1c4bdfbb113257b1ac9190a25050565b5f516020613e6d5f395f51905f52610ab481611cbf565b6001600160a01b0382161580610ad257506001600160a01b0382163b155b15610af05760405163e6c4247b60e01b815260040160405180910390fd5b60cd80546001600160a01b0319166001600160a01b0384169081179091556040517ff9129d4eb3ecb7840baf6f4369fdada2f3e80c0ee7cf671861ebe8480648e3e7905f90a25050565b5f516020613ead5f395f51905f52610b5181611cbf565b60648261ffff161080610b6957506113888261ffff16115b15610b9c57604051632a8c162f60e01b815261ffff83166004820152606460248201819052611388604483015201610a4b565b60d1805461ffff191661ffff84169081179091556040519081527ffe5045529c08df2d94cd6c8080789955f601af1d43b24ea85774158bc8a6d8fa906020015b60405180910390a15050565b5f516020613e8d5f395f51905f52610bff81611cbf565b6001600160a01b0382161580610c22575060cf546001600160a01b038381169116145b15610c405760405163e6c4247b60e01b815260040160405180910390fd5b60cf80546001600160a01b0319166001600160a01b0384169081179091556040517fc3696c23bd17454d95c44cb489c7a0db717d6d809e238813932720cc785ad535905f90a25050565b5f82815260656020526040902060010154610ca481611cbf565b610cae8383611cc9565b505050565b6001600160a01b0381163314610d235760405162461bcd60e51b815260206004820152602f60248201527f416363657373436f6e74726f6c3a2063616e206f6e6c792072656e6f756e636560448201526e103937b632b9903337b91039b2b63360891b6064820152608401610a4b565b610d2d8282611d4e565b5050565b606060d48054610d4090613224565b80601f0160208091040260200160405190810160405280929190818152602001828054610d6c90613224565b8015610db75780601f10610d8e57610100808354040283529160200191610db7565b820191905f5260205f20905b815481529060010190602001808311610d9a57829003601f168201915b5050505050905090565b7f2a3dab589bcc9747970dd85ac3f222668741ae51f2a1bbb8f8355be28dd8a868610deb81611cbf565b6001600160a01b0382161580610e1857506001600160a01b0382165f90815260d6602052604090205460ff165b80610e2b57506001600160a01b0382163b155b15610e70576001600160a01b0382165f81815260d660205260409081902054905163502df08d60e11b8152600481019290925260ff1615156024820152604401610a4b565b6001600160a01b0382165f81815260d66020526040808220805460ff19166001179055517fb7269578552456138d47dc37471d94886205143f138387446eff0148047965f69190a25050565b5f516020613e6d5f395f51905f52610ed381611cbf565b6001600160a01b0382161580610ef157506001600160a01b0382163b155b15610f0f5760405163e6c4247b60e01b815260040160405180910390fd5b60ca80546001600160a01b0319166001600160a01b0384169081179091556040519081527fa43719df3844099648272f3b97682e96f64ebf9a001a1b1743242976d853a49790602001610bdc565b5f516020613e8d5f395f51905f52610f7481611cbf565b811580610f82575061012c82115b15610fb257604051630bdafe6960e01b8152600481018390526001602482015261012c6044820152606401610a4b565b60d0548203610fd457604051631c92687360e11b815260040160405180910390fd5b60d08290556040518281527f244ea8d7627f5a08f4299862bd5a45752842c183aee5b0fb0d1e4887bfa605b390602001610bdc565b60d5545f9082106110525760405162461bcd60e51b8152602060048201526013602482015272496e646578206f7574206f6620626f756e647360681b6044820152606401610a4b565b60d582815481106110655761106561325c565b5f918252602090912001546001600160a01b031692915050565b7fa70a2d8710fed9f014c8c2af50c7c2f6b25748ae4cded822e03b7beed44cf3a86110a981611cbf565b5f8290036110e057604051632432186360e21b815260206004820152600360248201526255524960e81b6044820152606401610a4b565b60d46110ed8385836132bb565b507f88200832d1fe27eee076bea36a10a1eb73b9d27d9e6e5e2626a83d62ffc9ae5c838360405161111f92919061339c565b60405180910390a1505050565b5f9182526065602090815260408084206001600160a01b0393909316845291905290205460ff1690565b5f516020613e8d5f395f51905f5261116d81611cbf565b6001600160a01b0382161580611197575060d7546001600160a01b03838116600160301b90920416145b156111b55760405163e6c4247b60e01b815260040160405180910390fd5b60d78054600160301b600160d01b031916600160301b6001600160a01b038516908102919091179091556040517fe5693914d19c789bdee50a362998c0bc8d035a835f9871da5d51152f0582c34f905f90a25050565b5f516020613ead5f395f51905f5261122281611cbf565b811580611230575060d25482145b1561124e5760405163162908e360e11b815260040160405180910390fd5b60d282905560405182815233907f1a838344e9d84cd77b405cb66c9ea521bf49ab3cef195f4e1ab80864e9c29e969060200160405180910390a25050565b5f516020613ead5f395f51905f526112a381611cbf565b60c98290556040518281527f53607f816c6861e86e8b444097d2359f544a8c81bf7574ea094cdd349bd6ea2a90602001610bdc565b60d581815481106112e7575f80fd5b5f918252602090912001546001600160a01b0316905081565b5f516020613e8d5f395f51905f5261131781611cbf565b603261ffff8516118061132e5750603261ffff8416115b8061133d5750603261ffff8316115b1561135b576040516358d620b360e01b815260040160405180910390fd5b6040805160808101825261ffff868116808352868216602080850182905292871684860181905260d78054600160301b8082046001600160a01b0316606098890181905263ffffffff19909216861762010000860217640100000000600160d01b0319166401000000008502600160301b600160d01b031916179102179055855192835292820152928301527f4f8ca010fe4732dd5db8b8331bb421dab5e64e4884d5a9353d7d06365ffd2677910160405180910390a150505050565b5f516020613e6d5f395f51905f5261142f81611cbf565b6001600160a01b038216158061144d57506001600160a01b0382163b155b1561146b5760405163e6c4247b60e01b815260040160405180910390fd5b60ce80546001600160a01b0319166001600160a01b0384169081179091556040517f6e694698d0af55d5f631fe4713e0bcda24d5a3ad7c6488fba117e37f9d470c07905f90a25050565b6114bd611db4565b5f6114c782611e0d565b90505f5f6114d4846121dd565b915091505f5f6114e583878761253a565b60d580546001810182555f919091527f51858de9989bf7441865ebdadbf7382c8838edbf830f5d86a9a51ac773676dd60180546001600160a01b0319166001600160a01b038881169190911790915560405163de836ebd60e01b815292945090925084169063de836ebd9061156090339085906004016133e7565b6020604051808303815f875af115801561157c573d5f5f3e3d5ffd5b505050506040513d601f19601f820116820180604052508101906115a0919061340a565b5060405163f2fde38b60e01b81526001600160a01b03858116600483015284169063f2fde38b906024015f604051808303815f87803b1580156115e1575f5ffd5b505af11580156115f3573d5f5f3e3d5ffd5b5050505084821115611618576040516309df50ff60e41b815260040160405180910390fd5b8482101561168e575f3361162c8488613435565b6040515f81818185875af1925050503d805f8114611665576040519150601f19603f3d011682016040523d82523d5f602084013e61166a565b606091505b505090508061168c576040516312171d8360e31b815260040160405180910390fd5b505b337f04cb0e92ec6885a0962dc9bab235ba214d1cb5574d251821c50d09553b3a741985858860a08b01356116c560c08d018d613448565b6116d260e08f018f613448565b8e6040516116e899989796959493929190613491565b60405180910390a250505050506116ff6001609755565b50565b60cb5460405163d06ca61f60e01b81525f916001600160a01b03169063d06ca61f9061173490869086906004016134f5565b5f60405180830381865afa15801561174e573d5f5f3e3d5ffd5b505050506040513d5f823e601f3d908101601f19168201604052611775919081019061350d565b600183516117839190613435565b815181106117935761179361325c565b6020026020010151905092915050565b5f5f60d354670de0b6b3a76400006117bb9190613435565b90505f6117ce6117cb8387612884565b90565b90505f846117e483670de0b6b3a7640000613435565b6117ee9190613593565b90506117fa82826135aa565b9695505050505050565b5f8281526065602052604090206001015461181e81611cbf565b610cae8383611d4e565b60408051600280825260608083018452925f92919060208301908036833701905050905083815f8151811061185f5761185f61325c565b60200260200101906001600160a01b031690816001600160a01b03168152505082816001815181106118935761189361325c565b6001600160a01b0390921660209283029190910190910152905092915050565b60d480546118c090613224565b80601f01602080910402602001604051908101604052809291908181526020018280546118ec90613224565b80156119375780601f1061190e57610100808354040283529160200191611937565b820191905f5260205f20905b81548152906001019060200180831161191a57829003601f168201915b505050505081565b5f54610100900460ff161580801561195d57505f54600160ff909116105b806119765750303b15801561197657505f5460ff166001145b6119d95760405162461bcd60e51b815260206004820152602e60248201527f496e697469616c697a61626c653a20636f6e747261637420697320616c72656160448201526d191e481a5b9a5d1a585b1a5e995960921b6064820152608401610a4b565b5f805460ff1916600117905580156119fa575f805461ff0019166101001790555b611a026128e8565b611a0c5f33611cc9565b611a1582612918565b611a226020830183612e9b565b60ca80546001600160a01b0319166001600160a01b0392909216919091179055611a526040830160208401612e9b565b60cd80546001600160a01b0319166001600160a01b0392909216919091179055611a826060830160408401612e9b565b60ce80546001600160a01b0319166001600160a01b0392909216919091179055611ab26080830160608401612e9b565b60cb80546001600160a01b0319166001600160a01b0392909216919091179055611ae260a0830160808401612e9b565b60cc80546001600160a01b0319166001600160a01b0392909216919091179055611b1260c0830160a08401612e9b565b60cf80546001600160a01b0319166001600160a01b0392909216919091179055611b4461012083016101008401612edc565b60d1805461ffff191661ffff9290921691909117905561012082013560d355611b71610140830183613448565b60d491611b7f9190836132bb565b5061016082013560d255604080516080810182526032808252602082018190529181019190915260608101611bba60e0850160c08601612e9b565b6001600160a01b03908116909152815160d7805460208501516040860151606090960151909416600160301b02600160301b600160d01b031961ffff9687166401000000000216640100000000600160d01b0319958716620100000263ffffffff19909316969094169590951717929092161791909117905560c860d055600160d65f611c4e610100860160e08701612e9b565b6001600160a01b0316815260208101919091526040015f20805460ff191691151591909117905564174876e80060c9558015610d2d575f805461ff0019169055604051600181527f7f26b83ff96e1f2b6a682f133852f6798a09c465da95921460cefb384740249890602001610bdc565b6116ff8133612b0c565b611cd3828261112c565b610d2d575f8281526065602090815260408083206001600160a01b03851684529091529020805460ff19166001179055611d0a3390565b6001600160a01b0316816001600160a01b0316837f2f8788117e7eff1d82e926ec794901d17c78024a50270940304540a733656f0d60405160405180910390a45050565b611d58828261112c565b15610d2d575f8281526065602090815260408083206001600160a01b0385168085529252808320805460ff1916905551339285917ff6391f5c32d9c69d2a47ea670b442974b53935d1edc7fd64eb21e047a839171b9190a45050565b600260975403611e065760405162461bcd60e51b815260206004820152601f60248201527f5265656e7472616e637947756172643a207265656e7472616e742063616c6c006044820152606401610a4b565b6002609755565b5f60d254341015611e3e5760d254604051632910024b60e11b81523460048201526024810191909152604401610a4b565b60a08201351580611e5557506113888260a0013510155b15611e8857604051631818d2a760e31b815260a08301356004820152600160248201526113876044820152606401610a4b565b4282610100013511611eb4576040516318db49c560e21b81526101008301356004820152602401610a4b565b611ebe8280613448565b90505f03611ef857604051632432186360e21b8152600401610a4b906020808252600490820152636e616d6560e01b604082015260600190565b611f056020830183613448565b90505f03611f3f57604051632432186360e21b81526020600482015260066024820152651cde5b589bdb60d21b6044820152606401610a4b565b611f4c6080830183613448565b90505f03611f8857604051632432186360e21b8152602060048201526008602482015267746f6b656e55524960c01b6044820152606401610a4b565b611f9560c0830183613448565b90505f03611fcb57604051632432186360e21b81526020600482015260026024820152611a5960f21b6044820152606401610a4b565b611fd860608301836135c9565b9050611fe760408401846135c9565b90501415806120025750611ffe60408301836135c9565b1590505b80612019575061201560608301836135c9565b1590505b1561203757604051631a31855360e21b815260040160405180910390fd5b60d7545f9061ffff1661204a575f612069565b60d7546127109061205f9061ffff1634613593565b61206991906135aa565b90506120a060405180604001604052806013815260200172031b932b0ba34b7b72332b2a0b6b7bab73a1d1606d1b81525082612b65565b348111156120c1576040516358d620b360e01b815260040160405180910390fd5b80156121cc5760d7546040515f91600160301b90046001600160a01b03169083908381818185875af1925050503d805f8114612118576040519150601f19603f3d011682016040523d82523d5f602084013e61211d565b606091505b50509050806121795760405162461bcd60e51b815260206004820152602260248201527f4661696c656420746f206465647563742042534b54204372656174696f6e2046604482015261656560f01b6064820152608401610a4b565b60d7546040805184815261ffff83166020820152600160301b9092046001600160a01b0316917f6c1c6aef6f81f33f015f6b0f806cf9f51f79d83873bfee2e930471cf78832b2d910160405180910390a2505b6121d68134613435565b9392505050565b60ce545f90819081906001600160a01b0316633a105cfb60e01b306122056020880188613448565b61221260408a018a6135c9565b60405160240161222695949392919061360e565b60408051601f198184030181529181526020820180516001600160e01b03166001600160e01b031990941693909317909252905161226390612e4c565b61226e92919061367f565b604051809103905ff080158015612287573d5f5f3e3d5ffd5b506040805161014081019091529092508291505f90806122a78780613448565b8080601f0160208091040260200160405190810160405280939291908181526020018383808284375f920191909152505050908252506020908101906122ef90880188613448565b8080601f0160208091040260200160405190810160405280939291908181526020018383808284375f9201919091525050509082525033602082015230604080830191909152606090910190612347908801886135c9565b808060200260200160405190810160405280939291908181526020018383602002808284375f9201919091525050509082525060200161238a60608801886135c9565b808060200260200160405190810160405280939291908181526020018383602002808284375f920191909152505050908252506001600160a01b03851660208201526040016123dc6080880188613448565b8080601f0160208091040260200160405190810160405280939291908181526020018383808284375f9201919091525050509082525060200161242260c0880188613448565b8080601f0160208091040260200160405190810160405280939291908181526020018383808284375f9201919091525050509082525060200161246860e0880188613448565b8080601f0160208091040260200160405190810160405280939291908181526020018383808284375f92018290525093909452505060cd5460405193945090926001600160a01b039091169150630478ecd960e41b906124cc9085906024016136a2565b60408051601f198184030181529181526020820180516001600160e01b03166001600160e01b031990941693909317909252905161250990612e4c565b61251492919061367f565b604051809103905ff08015801561252d573d5f5f3e3d5ffd5b5096939550929350505050565b5f60608161254b60408601866135c9565b90509050806001600160401b0381111561256757612567613042565b604051908082528060200260200182016040528015612590578160200160208202803683370190505b505f93509150825b81811015612873575f6125ac600184613435565b82146125f3576127106125c260608901896135c9565b848181106125d2576125d261325c565b90506020020135876125e49190613593565b6125ee91906135aa565b6125fd565b6125fd8587613435565b60cc549091505f90612644906001600160a01b031661261f60408b018b6135c9565b8681811061262f5761262f61325c565b90506020020160208101906108c39190612e9b565b90505f61271061265860a08b013582613435565b6126628585611702565b61266c9190613593565b61267691906135aa565b90505f61268660408b018b6135c9565b868181106126965761269661325c565b90506020020160208101906126ab9190612e9b565b6040516370a0823160e01b81526001600160a01b038d8116600483015291909116906370a0823190602401602060405180830381865afa1580156126f1573d5f5f3e3d5ffd5b505050506040513d601f19601f82011682018060405250810190612715919061340a565b905060cb5f9054906101000a90046001600160a01b03166001600160a01b031663b6f9de958584868f8f61010001356040518663ffffffff1660e01b815260040161276394939291906137c2565b5f604051808303818588803b15801561277a575f5ffd5b505af115801561278c573d5f5f3e3d5ffd5b5050505050838861279d91906137f6565b9750806127ad60408c018c6135c9565b878181106127bd576127bd61325c565b90506020020160208101906127d29190612e9b565b6040516370a0823160e01b81526001600160a01b038e8116600483015291909116906370a0823190602401602060405180830381865afa158015612818573d5f5f3e3d5ffd5b505050506040513d601f19601f8201168201806040525081019061283c919061340a565b6128469190613435565b8786815181106128585761285861325c565b60200260200101818152505084600101945050505050612598565b5050935093915050565b6001609755565b5f82816001841661289d57670de0b6b3a764000061289f565b815b9050600184901c93505b83156128dd576128b98283612baa565b915060018416156128d1576128ce8183612baa565b90505b600184901c93506128a9565b805b95945050505050565b5f54610100900460ff1661290e5760405162461bcd60e51b8152600401610a4b90613809565b612916612c5c565b565b5f6129266020830183612e9b565b6001600160a01b0316148061295257505f6129476040830160208401612e9b565b6001600160a01b0316145b8061297457505f6129696060830160408401612e9b565b6001600160a01b0316145b8061299657505f61298b6080830160608401612e9b565b6001600160a01b0316145b806129b857505f6129ad60a0830160808401612e9b565b6001600160a01b0316145b806129da57505f6129cf60c0830160a08401612e9b565b6001600160a01b0316145b806129fc57505f6129f160e0830160c08401612e9b565b6001600160a01b0316145b80612a1f57505f612a14610100830160e08401612e9b565b6001600160a01b0316145b15612a3d5760405163e6c4247b60e01b815260040160405180910390fd5b6064612a5161012083016101008401612edc565b61ffff161080612a775750611388612a7161012083016101008401612edc565b61ffff16115b15612abd57612a8e61012082016101008301612edc565b604051632a8c162f60e01b815261ffff9091166004820152606460248201819052611388604483015201610a4b565b612acb610140820182613448565b90505f036116ff57604051632432186360e21b815260206004820152600d60248201526c636f6c6c656374696f6e55726960981b6044820152606401610a4b565b612b16828261112c565b610d2d57612b2381612c82565b612b2e836020612c94565b604051602001612b3f92919061386b565b60408051601f198184030181529082905262461bcd60e51b8252610a4b91600401612f4d565b610d2d8282604051602401612b7b9291906138c0565b60408051601f198184030181529190526020810180516001600160e01b0316632d839cb360e21b179052612e29565b5f80805f19848609848602925082811083820303915050805f03612bdb5750670de0b6b3a7640000900490506109c0565b670de0b6b3a76400008110612c0d57604051635173648d60e01b81526004810186905260248101859052604401610a4b565b5f670de0b6b3a764000085870962040000818503049310909103600160ee1b02919091177faccb18165bd6fe31ae1cf318dc5b51eee0e1ba569b88cd74c1773b91fac106690291505092915050565b5f54610100900460ff1661287d5760405162461bcd60e51b8152600401610a4b90613809565b60606109c06001600160a01b03831660145b60605f612ca2836002613593565b612cad9060026137f6565b6001600160401b03811115612cc457612cc4613042565b6040519080825280601f01601f191660200182016040528015612cee576020820181803683370190505b509050600360fc1b815f81518110612d0857612d0861325c565b60200101906001600160f81b03191690815f1a905350600f60fb1b81600181518110612d3657612d3661325c565b60200101906001600160f81b03191690815f1a9053505f612d58846002613593565b612d639060016137f6565b90505b6001811115612dda576f181899199a1a9b1b9c1cb0b131b232b360811b85600f1660108110612d9757612d9761325c565b1a60f81b828281518110612dad57612dad61325c565b60200101906001600160f81b03191690815f1a90535060049490941c93612dd3816138e1565b9050612d66565b5083156121d65760405162461bcd60e51b815260206004820181905260248201527f537472696e67733a20686578206c656e67746820696e73756666696369656e746044820152606401610a4b565b6116ff815f6a636f6e736f6c652e6c6f6790505f5f835160208501845afa505050565b610576806138f783390190565b5f60208284031215612e69575f5ffd5b81356001600160e01b0319811681146121d6575f5ffd5b80356001600160a01b0381168114612e96575f5ffd5b919050565b5f60208284031215612eab575f5ffd5b6121d682612e80565b5f60208284031215612ec4575f5ffd5b5035919050565b803561ffff81168114612e96575f5ffd5b5f60208284031215612eec575f5ffd5b6121d682612ecb565b5f5f60408385031215612f06575f5ffd5b82359150612f1660208401612e80565b90509250929050565b5f81518084528060208401602086015e5f602082860101526020601f19601f83011685010191505092915050565b602081525f6121d66020830184612f1f565b5f5f60208385031215612f70575f5ffd5b82356001600160401b03811115612f85575f5ffd5b8301601f81018513612f95575f5ffd5b80356001600160401b03811115612faa575f5ffd5b856020828401011115612fbb575f5ffd5b6020919091019590945092505050565b5f5f5f60608486031215612fdd575f5ffd5b612fe684612ecb565b9250612ff460208501612ecb565b915061300260408501612ecb565b90509250925092565b5f6020828403121561301b575f5ffd5b81356001600160401b03811115613030575f5ffd5b820161012081850312156121d6575f5ffd5b634e487b7160e01b5f52604160045260245ffd5b604051601f8201601f191681016001600160401b038111828210171561307e5761307e613042565b604052919050565b5f6001600160401b0382111561309e5761309e613042565b5060051b60200190565b5f5f604083850312156130b9575f5ffd5b8235915060208301356001600160401b038111156130d5575f5ffd5b8301601f810185136130e5575f5ffd5b80356130f86130f382613086565b613056565b8082825260208201915060208360051b850101925087831115613119575f5ffd5b6020840193505b828410156131425761313184612e80565b825260209384019390910190613120565b809450505050509250929050565b5f5f60408385031215613161575f5ffd5b50508035926020909101359150565b5f5f60408385031215613181575f5ffd5b61318a83612e80565b9150612f1660208401612e80565b5f8151808452602084019350602083015f5b828110156131d15781516001600160a01b03168652602095860195909101906001016131aa565b5093949350505050565b602081525f6121d66020830184613198565b5f602082840312156131fd575f5ffd5b81356001600160401b03811115613212575f5ffd5b820161018081850312156121d6575f5ffd5b600181811c9082168061323857607f821691505b60208210810361325657634e487b7160e01b5f52602260045260245ffd5b50919050565b634e487b7160e01b5f52603260045260245ffd5b601f821115610cae57805f5260205f20601f840160051c810160208510156132955750805b601f840160051c820191505b818110156132b4575f81556001016132a1565b5050505050565b6001600160401b038311156132d2576132d2613042565b6132e6836132e08354613224565b83613270565b5f601f841160018114613317575f85156133005750838201355b5f19600387901b1c1916600186901b1783556132b4565b5f83815260208120601f198716915b828110156133465786850135825560209485019460019092019101613326565b5086821015613362575f1960f88860031b161c19848701351681555b505060018560011b0183555050505050565b81835281816020850137505f828201602090810191909152601f909101601f19169091010190565b602081525f6133af602083018486613374565b949350505050565b5f8151808452602084019350602083015f5b828110156131d15781518652602095860195909101906001016133c9565b6001600160a01b03831681526040602082018190525f906133af908301846133b7565b5f6020828403121561341a575f5ffd5b5051919050565b634e487b7160e01b5f52601160045260245ffd5b818103818111156109c0576109c0613421565b5f5f8335601e1984360301811261345d575f5ffd5b8301803591506001600160401b03821115613476575f5ffd5b60200191503681900382131561348a575f5ffd5b9250929050565b6001600160a01b038a8116825289166020820152604081018890526060810187905260e0608082018190525f906134cb9083018789613374565b82810360a08401526134de818688613374565b9150508260c08301529a9950505050505050505050565b828152604060208201525f6133af6040830184613198565b5f6020828403121561351d575f5ffd5b81516001600160401b03811115613532575f5ffd5b8201601f81018413613542575f5ffd5b80516135506130f382613086565b8082825260208201915060208360051b850101925086831115613571575f5ffd5b6020840193505b828410156117fa578351825260209384019390910190613578565b80820281158282048414176109c0576109c0613421565b5f826135c457634e487b7160e01b5f52601260045260245ffd5b500490565b5f5f8335601e198436030181126135de575f5ffd5b8301803591506001600160401b038211156135f7575f5ffd5b6020019150600581901b360382131561348a575f5ffd5b6001600160a01b03861681526060602082018190525f906136329083018688613374565b828103604084015283815284906020015f5b85811015613672576001600160a01b0361365d84612e80565b16825260209283019290910190600101613644565b5098975050505050505050565b6001600160a01b03831681526040602082018190525f906133af90830184612f1f565b602081525f825161014060208401526136bf610160840182612f1f565b90506020840151601f198483030160408501526136dc8282612f1f565b91505060408401516136f960608501826001600160a01b03169052565b5060608401516001600160a01b0381166080850152506080840151838203601f190160a085015261372a8282613198565b91505060a0840151601f198483030160c085015261374882826133b7565b91505060c084015161376560e08501826001600160a01b03169052565b5060e0840151838203601f19016101008501526137828282612f1f565b915050610100840151601f19848303016101208501526137a28282612f1f565b915050610120840151601f19848303016101408501526128df8282612f1f565b848152608060208201525f6137da6080830186613198565b6001600160a01b03949094166040830152506060015292915050565b808201808211156109c0576109c0613421565b6020808252602b908201527f496e697469616c697a61626c653a20636f6e7472616374206973206e6f74206960408201526a6e697469616c697a696e6760a81b606082015260800190565b5f81518060208401855e5f93019283525090919050565b7f416363657373436f6e74726f6c3a206163636f756e742000000000000000000081525f61389c6017830185613854565b7001034b99036b4b9b9b4b733903937b6329607d1b81526128df6011820185613854565b604081525f6138d26040830185612f1f565b90508260208301529392505050565b5f816138ef576138ef613421565b505f19019056fe60a060405260405161057638038061057683398101604081905261002291610353565b61002c828261003e565b506001600160a01b0316608052610444565b610047826100fb565b6040516001600160a01b038316907f1cf3b03a6cf19fa2baba4df148e9dcabedea7f8a5c07840e207e5c089be95d3e905f90a28051156100ef576100ea826001600160a01b0316635c60da1b6040518163ffffffff1660e01b8152600401602060405180830381865afa1580156100c0573d5f5f3e3d5ffd5b505050506040513d601f19601f820116820180604052508101906100e49190610415565b82610209565b505050565b6100f761027c565b5050565b806001600160a01b03163b5f0361013557604051631933b43b60e21b81526001600160a01b03821660048201526024015b60405180910390fd5b807fa3f0ad74e5423aebfd80d3ef4346578335a9a72aeaee59ff6cb3582b35133d5080546001600160a01b0319166001600160a01b0392831617905560408051635c60da1b60e01b815290515f92841691635c60da1b9160048083019260209291908290030181865afa1580156101ae573d5f5f3e3d5ffd5b505050506040513d601f19601f820116820180604052508101906101d29190610415565b9050806001600160a01b03163b5f036100f757604051634c9c8ce360e01b81526001600160a01b038216600482015260240161012c565b60605f5f846001600160a01b031684604051610225919061042e565b5f60405180830381855af49150503d805f811461025d576040519150601f19603f3d011682016040523d82523d5f602084013e610262565b606091505b50909250905061027385838361029d565b95945050505050565b341561029b5760405163b398979f60e01b815260040160405180910390fd5b565b6060826102b2576102ad826102fc565b6102f5565b81511580156102c957506001600160a01b0384163b155b156102f257604051639996b31560e01b81526001600160a01b038516600482015260240161012c565b50805b9392505050565b80511561030b57805160208201fd5b60405163d6bda27560e01b815260040160405180910390fd5b80516001600160a01b038116811461033a575f5ffd5b919050565b634e487b7160e01b5f52604160045260245ffd5b5f5f60408385031215610364575f5ffd5b61036d83610324565b60208401519092506001600160401b03811115610388575f5ffd5b8301601f81018513610398575f5ffd5b80516001600160401b038111156103b1576103b161033f565b604051601f8201601f19908116603f011681016001600160401b03811182821017156103df576103df61033f565b6040528181528282016020018710156103f6575f5ffd5b8160208401602083015e5f602083830101528093505050509250929050565b5f60208284031215610425575f5ffd5b6102f582610324565b5f82518060208501845e5f920191825250919050565b60805161011b61045b5f395f601d015261011b5ff3fe6080604052600a600c565b005b60186014601a565b609d565b565b5f7f00000000000000000000000000000000000000000000000000000000000000006001600160a01b0316635c60da1b6040518163ffffffff1660e01b8152600401602060405180830381865afa1580156076573d5f5f3e3d5ffd5b505050506040513d601f19601f820116820180604052508101906098919060ba565b905090565b365f5f375f5f365f845af43d5f5f3e80801560b6573d5ff35b3d5ffd5b5f6020828403121560c9575f5ffd5b81516001600160a01b038116811460de575f5ffd5b939250505056fea26469706673582212201af234c42e9b9834826873738a7edb566ed86c4a652a1dc0830f01b403228f4164736f6c634300081e0033189ab7a9244df0848122154315af71fe140f3db0fe014031783b0946b8c9d2e36c0757dc3e6b28b2580c03fd9e96c274acf4f99d91fbec9b418fa1d70604ff1ca49807205ce4d355092ef5a8a18f56e8913cf4a201fbe287825b095693c21775a26469706673582212209e6f15946fc56d7308a7fe9eabc2816a075457ca5ff6bd1c9fe35a9808084dd864736f6c634300081e0033",
			"opcodes": "PUSH1 0x80 PUSH1 0x40 MSTORE CALLVALUE DUP1 ISZERO PUSH1 0xE JUMPI PUSH0 PUSH0 REVERT JUMPDEST POP PUSH2 0x3F02 DUP1 PUSH2 0x1C PUSH0 CODECOPY PUSH0 RETURN INVALID PUSH1 0x80 PUSH1 0x40 MSTORE PUSH1 0x4 CALLDATASIZE LT PUSH2 0x2D9 JUMPI PUSH0 CALLDATALOAD PUSH1 0xE0 SHR DUP1 PUSH4 0x7910AF6F GT PUSH2 0x189 JUMPI DUP1 PUSH4 0xC4E994A0 GT PUSH2 0xD8 JUMPI DUP1 PUSH4 0xDEFCD4B3 GT PUSH2 0x92 JUMPI DUP1 PUSH4 0xF18F9F19 GT PUSH2 0x6D JUMPI DUP1 PUSH4 0xF18F9F19 EQ PUSH2 0x91D JUMPI DUP1 PUSH4 0xF72C0D8B EQ PUSH2 0x93C JUMPI DUP1 PUSH4 0xF887EA40 EQ PUSH2 0x95C JUMPI DUP1 PUSH4 0xFFE8E372 EQ PUSH2 0x97B JUMPI PUSH0 PUSH0 REVERT JUMPDEST DUP1 PUSH4 0xDEFCD4B3 EQ PUSH2 0x8D5 JUMPI DUP1 PUSH4 0xEF1E095F EQ PUSH2 0x8E9 JUMPI DUP1 PUSH4 0xF016498E EQ PUSH2 0x8FE JUMPI PUSH0 PUSH0 REVERT JUMPDEST DUP1 PUSH4 0xC4E994A0 EQ PUSH2 0x7E3 JUMPI DUP1 PUSH4 0xC9889F6C EQ PUSH2 0x839 JUMPI DUP1 PUSH4 0xD06CA61F EQ PUSH2 0x84C JUMPI DUP1 PUSH4 0xD23AAED3 EQ PUSH2 0x86B JUMPI DUP1 PUSH4 0xD547741F EQ PUSH2 0x88A JUMPI DUP1 PUSH4 0xD88E3E3B EQ PUSH2 0x8A9 JUMPI PUSH0 PUSH0 REVERT JUMPDEST DUP1 PUSH4 0xA4C05E8C GT PUSH2 0x143 JUMPI DUP1 PUSH4 0xB28775CD GT PUSH2 0x11E JUMPI DUP1 PUSH4 0xB28775CD EQ PUSH2 0x767 JUMPI DUP1 PUSH4 0xB9E32D86 EQ PUSH2 0x786 JUMPI DUP1 PUSH4 0xBBF75517 EQ PUSH2 0x7A5 JUMPI DUP1 PUSH4 0xC20CC665 EQ PUSH2 0x7C4 JUMPI PUSH0 PUSH0 REVERT JUMPDEST DUP1 PUSH4 0xA4C05E8C EQ PUSH2 0x70A JUMPI DUP1 PUSH4 0xAEA8AFE9 EQ PUSH2 0x729 JUMPI DUP1 PUSH4 0xB0EC8BE9 EQ PUSH2 0x748 JUMPI PUSH0 PUSH0 REVERT JUMPDEST DUP1 PUSH4 0x7910AF6F EQ PUSH2 0x666 JUMPI DUP1 PUSH4 0x8A71BB2D EQ PUSH2 0x685 JUMPI DUP1 PUSH4 0x91D14854 EQ PUSH2 0x69A JUMPI DUP1 PUSH4 0x9FBC8713 EQ PUSH2 0x6B9 JUMPI DUP1 PUSH4 0xA217FDDF EQ PUSH2 0x6D8 JUMPI DUP1 PUSH4 0xA42DCE80 EQ PUSH2 0x6EB JUMPI PUSH0 PUSH0 REVERT JUMPDEST DUP1 PUSH4 0x391FEEBB GT PUSH2 0x245 JUMPI DUP1 PUSH4 0x621BB669 GT PUSH2 0x1FF JUMPI DUP1 PUSH4 0x71500475 GT PUSH2 0x1DA JUMPI DUP1 PUSH4 0x71500475 EQ PUSH2 0x5E0 JUMPI DUP1 PUSH4 0x7295ED93 EQ PUSH2 0x5FF JUMPI DUP1 PUSH4 0x75B238FC EQ PUSH2 0x632 JUMPI DUP1 PUSH4 0x7618C335 EQ PUSH2 0x652 JUMPI PUSH0 PUSH0 REVERT JUMPDEST DUP1 PUSH4 0x621BB669 EQ PUSH2 0x57A JUMPI DUP1 PUSH4 0x682D07D9 EQ PUSH2 0x599 JUMPI DUP1 PUSH4 0x6DBD5D2A EQ PUSH2 0x5CC JUMPI PUSH0 PUSH0 REVERT JUMPDEST DUP1 PUSH4 0x391FEEBB EQ PUSH2 0x48C JUMPI DUP1 PUSH4 0x3B9589A9 EQ PUSH2 0x4BA JUMPI DUP1 PUSH4 0x3FC8CEF3 EQ PUSH2 0x4F1 JUMPI DUP1 PUSH4 0x46704ADB EQ PUSH2 0x528 JUMPI DUP1 PUSH4 0x4FCC1DEF EQ PUSH2 0x547 JUMPI DUP1 PUSH4 0x5EE70F09 EQ PUSH2 0x55B JUMPI PUSH0 PUSH0 REVERT JUMPDEST DUP1 PUSH4 0x248A9CA3 GT PUSH2 0x296 JUMPI DUP1 PUSH4 0x248A9CA3 EQ PUSH2 0x3C1 JUMPI DUP1 PUSH4 0x251AE3D6 EQ PUSH2 0x3EF JUMPI DUP1 PUSH4 0x29DC4D9B EQ PUSH2 0x40E JUMPI DUP1 PUSH4 0x2F2FF15D EQ PUSH2 0x42D JUMPI DUP1 PUSH4 0x36568ABE EQ PUSH2 0x44C JUMPI DUP1 PUSH4 0x37929EB4 EQ PUSH2 0x46B JUMPI PUSH0 PUSH0 REVERT JUMPDEST DUP1 PUSH4 0x1C4AEBE EQ PUSH2 0x2DD JUMPI DUP1 PUSH4 0x1FFC9A7 EQ PUSH2 0x30F JUMPI DUP1 PUSH4 0x5DB2F41 EQ PUSH2 0x33E JUMPI DUP1 PUSH4 0xB9421BD EQ PUSH2 0x36C JUMPI DUP1 PUSH4 0xE860316 EQ PUSH2 0x38D JUMPI DUP1 PUSH4 0x1AA6B19A EQ PUSH2 0x3A2 JUMPI JUMPDEST PUSH0 PUSH0 REVERT JUMPDEST CALLVALUE DUP1 ISZERO PUSH2 0x2E8 JUMPI PUSH0 PUSH0 REVERT JUMPDEST POP PUSH1 0xD1 SLOAD PUSH2 0x2F7 SWAP1 PUSH2 0xFFFF AND DUP2 JUMP JUMPDEST PUSH1 0x40 MLOAD PUSH2 0xFFFF SWAP1 SWAP2 AND DUP2 MSTORE PUSH1 0x20 ADD JUMPDEST PUSH1 0x40 MLOAD DUP1 SWAP2 SUB SWAP1 RETURN JUMPDEST CALLVALUE DUP1 ISZERO PUSH2 0x31A JUMPI PUSH0 PUSH0 REVERT JUMPDEST POP PUSH2 0x32E PUSH2 0x329 CALLDATASIZE PUSH1 0x4 PUSH2 0x2E59 JUMP JUMPDEST PUSH2 0x990 JUMP JUMPDEST PUSH1 0x40 MLOAD SWAP1 ISZERO ISZERO DUP2 MSTORE PUSH1 0x20 ADD PUSH2 0x306 JUMP JUMPDEST CALLVALUE DUP1 ISZERO PUSH2 0x349 JUMPI PUSH0 PUSH0 REVERT JUMPDEST POP PUSH2 0x35E PUSH0 MLOAD PUSH1 0x20 PUSH2 0x3E8D PUSH0 CODECOPY PUSH0 MLOAD SWAP1 PUSH0 MSTORE DUP2 JUMP JUMPDEST PUSH1 0x40 MLOAD SWAP1 DUP2 MSTORE PUSH1 0x20 ADD PUSH2 0x306 JUMP JUMPDEST CALLVALUE DUP1 ISZERO PUSH2 0x377 JUMPI PUSH0 PUSH0 REVERT JUMPDEST POP PUSH2 0x38B PUSH2 0x386 CALLDATASIZE PUSH1 0x4 PUSH2 0x2E9B JUMP JUMPDEST PUSH2 0x9C6 JUMP JUMPDEST STOP JUMPDEST CALLVALUE DUP1 ISZERO PUSH2 0x398 JUMPI PUSH0 PUSH0 REVERT JUMPDEST POP PUSH2 0x35E PUSH1 0xD2 SLOAD DUP2 JUMP JUMPDEST CALLVALUE DUP1 ISZERO PUSH2 0x3AD JUMPI PUSH0 PUSH0 REVERT JUMPDEST POP PUSH2 0x38B PUSH2 0x3BC CALLDATASIZE PUSH1 0x4 PUSH2 0x2E9B JUMP JUMPDEST PUSH2 0xA9D JUMP JUMPDEST CALLVALUE DUP1 ISZERO PUSH2 0x3CC JUMPI PUSH0 PUSH0 REVERT JUMPDEST POP PUSH2 0x35E PUSH2 0x3DB CALLDATASIZE PUSH1 0x4 PUSH2 0x2EB4 JUMP JUMPDEST PUSH0 SWAP1 DUP2 MSTORE PUSH1 0x65 PUSH1 0x20 MSTORE PUSH1 0x40 SWAP1 KECCAK256 PUSH1 0x1 ADD SLOAD SWAP1 JUMP JUMPDEST CALLVALUE DUP1 ISZERO PUSH2 0x3FA JUMPI PUSH0 PUSH0 REVERT JUMPDEST POP PUSH2 0x38B PUSH2 0x409 CALLDATASIZE PUSH1 0x4 PUSH2 0x2EDC JUMP JUMPDEST PUSH2 0xB3A JUMP JUMPDEST CALLVALUE DUP1 ISZERO PUSH2 0x419 JUMPI PUSH0 PUSH0 REVERT JUMPDEST POP PUSH2 0x38B PUSH2 0x428 CALLDATASIZE PUSH1 0x4 PUSH2 0x2E9B JUMP JUMPDEST PUSH2 0xBE8 JUMP JUMPDEST CALLVALUE DUP1 ISZERO PUSH2 0x438 JUMPI PUSH0 PUSH0 REVERT JUMPDEST POP PUSH2 0x38B PUSH2 0x447 CALLDATASIZE PUSH1 0x4 PUSH2 0x2EF5 JUMP JUMPDEST PUSH2 0xC8A JUMP JUMPDEST CALLVALUE DUP1 ISZERO PUSH2 0x457 JUMPI PUSH0 PUSH0 REVERT JUMPDEST POP PUSH2 0x38B PUSH2 0x466 CALLDATASIZE PUSH1 0x4 PUSH2 0x2EF5 JUMP JUMPDEST PUSH2 0xCB3 JUMP JUMPDEST CALLVALUE DUP1 ISZERO PUSH2 0x476 JUMPI PUSH0 PUSH0 REVERT JUMPDEST POP PUSH2 0x47F PUSH2 0xD31 JUMP JUMPDEST PUSH1 0x40 MLOAD PUSH2 0x306 SWAP2 SWAP1 PUSH2 0x2F4D JUMP JUMPDEST CALLVALUE DUP1 ISZERO PUSH2 0x497 JUMPI PUSH0 PUSH0 REVERT JUMPDEST POP PUSH2 0x32E PUSH2 0x4A6 CALLDATASIZE PUSH1 0x4 PUSH2 0x2E9B JUMP JUMPDEST PUSH1 0xD6 PUSH1 0x20 MSTORE PUSH0 SWAP1 DUP2 MSTORE PUSH1 0x40 SWAP1 KECCAK256 SLOAD PUSH1 0xFF AND DUP2 JUMP JUMPDEST CALLVALUE DUP1 ISZERO PUSH2 0x4C5 JUMPI PUSH0 PUSH0 REVERT JUMPDEST POP PUSH2 0x32E PUSH2 0x4D4 CALLDATASIZE PUSH1 0x4 PUSH2 0x2E9B JUMP JUMPDEST PUSH1 0x1 PUSH1 0x1 PUSH1 0xA0 SHL SUB AND PUSH0 SWAP1 DUP2 MSTORE PUSH1 0xD6 PUSH1 0x20 MSTORE PUSH1 0x40 SWAP1 KECCAK256 SLOAD PUSH1 0xFF AND SWAP1 JUMP JUMPDEST CALLVALUE DUP1 ISZERO PUSH2 0x4FC JUMPI PUSH0 PUSH0 REVERT JUMPDEST POP PUSH1 0xCC SLOAD PUSH2 0x510 SWAP1 PUSH1 0x1 PUSH1 0x1 PUSH1 0xA0 SHL SUB AND DUP2 JUMP JUMPDEST PUSH1 0x40 MLOAD PUSH1 0x1 PUSH1 0x1 PUSH1 0xA0 SHL SUB SWAP1 SWAP2 AND DUP2 MSTORE PUSH1 0x20 ADD PUSH2 0x306 JUMP JUMPDEST CALLVALUE DUP1 ISZERO PUSH2 0x533 JUMPI PUSH0 PUSH0 REVERT JUMPDEST POP PUSH2 0x38B PUSH2 0x542 CALLDATASIZE PUSH1 0x4 PUSH2 0x2E9B JUMP JUMPDEST PUSH2 0xDC1 JUMP JUMPDEST CALLVALUE DUP1 ISZERO PUSH2 0x552 JUMPI PUSH0 PUSH0 REVERT JUMPDEST POP PUSH2 0x2F7 PUSH1 0x32 DUP2 JUMP JUMPDEST CALLVALUE DUP1 ISZERO PUSH2 0x566 JUMPI PUSH0 PUSH0 REVERT JUMPDEST POP PUSH2 0x38B PUSH2 0x575 CALLDATASIZE PUSH1 0x4 PUSH2 0x2E9B JUMP JUMPDEST PUSH2 0xEBC JUMP JUMPDEST CALLVALUE DUP1 ISZERO PUSH2 0x585 JUMPI PUSH0 PUSH0 REVERT JUMPDEST POP PUSH2 0x38B PUSH2 0x594 CALLDATASIZE PUSH1 0x4 PUSH2 0x2EB4 JUMP JUMPDEST PUSH2 0xF5D JUMP JUMPDEST CALLVALUE DUP1 ISZERO PUSH2 0x5A4 JUMPI PUSH0 PUSH0 REVERT JUMPDEST POP PUSH2 0x35E PUSH32 0xA70A2D8710FED9F014C8C2AF50C7C2F6B25748AE4CDED822E03B7BEED44CF3A8 DUP2 JUMP JUMPDEST CALLVALUE DUP1 ISZERO PUSH2 0x5D7 JUMPI PUSH0 PUSH0 REVERT JUMPDEST POP PUSH1 0xC9 SLOAD PUSH2 0x35E JUMP JUMPDEST CALLVALUE DUP1 ISZERO PUSH2 0x5EB JUMPI PUSH0 PUSH0 REVERT JUMPDEST POP PUSH2 0x510 PUSH2 0x5FA CALLDATASIZE PUSH1 0x4 PUSH2 0x2EB4 JUMP JUMPDEST PUSH2 0x1009 JUMP JUMPDEST CALLVALUE DUP1 ISZERO PUSH2 0x60A JUMPI PUSH0 PUSH0 REVERT JUMPDEST POP PUSH2 0x35E PUSH32 0x2A3DAB589BCC9747970DD85AC3F222668741AE51F2A1BBB8F8355BE28DD8A868 DUP2 JUMP JUMPDEST CALLVALUE DUP1 ISZERO PUSH2 0x63D JUMPI PUSH0 PUSH0 REVERT JUMPDEST POP PUSH2 0x35E PUSH0 MLOAD PUSH1 0x20 PUSH2 0x3EAD PUSH0 CODECOPY PUSH0 MLOAD SWAP1 PUSH0 MSTORE DUP2 JUMP JUMPDEST CALLVALUE DUP1 ISZERO PUSH2 0x65D JUMPI PUSH0 PUSH0 REVERT JUMPDEST POP PUSH1 0xD5 SLOAD PUSH2 0x35E JUMP JUMPDEST CALLVALUE DUP1 ISZERO PUSH2 0x671 JUMPI PUSH0 PUSH0 REVERT JUMPDEST POP PUSH2 0x38B PUSH2 0x680 CALLDATASIZE PUSH1 0x4 PUSH2 0x2F5F JUMP JUMPDEST PUSH2 0x107F JUMP JUMPDEST CALLVALUE DUP1 ISZERO PUSH2 0x690 JUMPI PUSH0 PUSH0 REVERT JUMPDEST POP PUSH2 0x35E PUSH1 0xD0 SLOAD DUP2 JUMP JUMPDEST CALLVALUE DUP1 ISZERO PUSH2 0x6A5 JUMPI PUSH0 PUSH0 REVERT JUMPDEST POP PUSH2 0x32E PUSH2 0x6B4 CALLDATASIZE PUSH1 0x4 PUSH2 0x2EF5 JUMP JUMPDEST PUSH2 0x112C JUMP JUMPDEST CALLVALUE DUP1 ISZERO PUSH2 0x6C4 JUMPI PUSH0 PUSH0 REVERT JUMPDEST POP PUSH1 0xCF SLOAD PUSH2 0x510 SWAP1 PUSH1 0x1 PUSH1 0x1 PUSH1 0xA0 SHL SUB AND DUP2 JUMP JUMPDEST CALLVALUE DUP1 ISZERO PUSH2 0x6E3 JUMPI PUSH0 PUSH0 REVERT JUMPDEST POP PUSH2 0x35E PUSH0 DUP2 JUMP JUMPDEST CALLVALUE DUP1 ISZERO PUSH2 0x6F6 JUMPI PUSH0 PUSH0 REVERT JUMPDEST POP PUSH2 0x38B PUSH2 0x705 CALLDATASIZE PUSH1 0x4 PUSH2 0x2E9B JUMP JUMPDEST PUSH2 0x1156 JUMP JUMPDEST CALLVALUE DUP1 ISZERO PUSH2 0x715 JUMPI PUSH0 PUSH0 REVERT JUMPDEST POP PUSH1 0xCE SLOAD PUSH2 0x510 SWAP1 PUSH1 0x1 PUSH1 0x1 PUSH1 0xA0 SHL SUB AND DUP2 JUMP JUMPDEST CALLVALUE DUP1 ISZERO PUSH2 0x734 JUMPI PUSH0 PUSH0 REVERT JUMPDEST POP PUSH2 0x38B PUSH2 0x743 CALLDATASIZE PUSH1 0x4 PUSH2 0x2EB4 JUMP JUMPDEST PUSH2 0x120B JUMP JUMPDEST CALLVALUE DUP1 ISZERO PUSH2 0x753 JUMPI PUSH0 PUSH0 REVERT JUMPDEST POP PUSH2 0x38B PUSH2 0x762 CALLDATASIZE PUSH1 0x4 PUSH2 0x2EB4 JUMP JUMPDEST PUSH2 0x128C JUMP JUMPDEST CALLVALUE DUP1 ISZERO PUSH2 0x772 JUMPI PUSH0 PUSH0 REVERT JUMPDEST POP PUSH1 0xCA SLOAD PUSH2 0x510 SWAP1 PUSH1 0x1 PUSH1 0x1 PUSH1 0xA0 SHL SUB AND DUP2 JUMP JUMPDEST CALLVALUE DUP1 ISZERO PUSH2 0x791 JUMPI PUSH0 PUSH0 REVERT JUMPDEST POP PUSH2 0x510 PUSH2 0x7A0 CALLDATASIZE PUSH1 0x4 PUSH2 0x2EB4 JUMP JUMPDEST PUSH2 0x12D8 JUMP JUMPDEST CALLVALUE DUP1 ISZERO PUSH2 0x7B0 JUMPI PUSH0 PUSH0 REVERT JUMPDEST POP PUSH2 0x38B PUSH2 0x7BF CALLDATASIZE PUSH1 0x4 PUSH2 0x2FCB JUMP JUMPDEST PUSH2 0x1300 JUMP JUMPDEST CALLVALUE DUP1 ISZERO PUSH2 0x7CF JUMPI PUSH0 PUSH0 REVERT JUMPDEST POP PUSH2 0x38B PUSH2 0x7DE CALLDATASIZE PUSH1 0x4 PUSH2 0x2E9B JUMP JUMPDEST PUSH2 0x1418 JUMP JUMPDEST CALLVALUE DUP1 ISZERO PUSH2 0x7EE JUMPI PUSH0 PUSH0 REVERT JUMPDEST POP PUSH1 0xD7 SLOAD PUSH1 0x40 DUP1 MLOAD PUSH2 0xFFFF DUP1 DUP5 AND DUP3 MSTORE PUSH3 0x10000 DUP5 DIV DUP2 AND PUSH1 0x20 DUP4 ADD MSTORE PUSH5 0x100000000 DUP5 DIV AND SWAP2 DUP2 ADD SWAP2 SWAP1 SWAP2 MSTORE PUSH1 0x1 PUSH1 0x30 SHL SWAP1 SWAP2 DIV PUSH1 0x1 PUSH1 0x1 PUSH1 0xA0 SHL SUB AND PUSH1 0x60 DUP3 ADD MSTORE PUSH1 0x80 ADD PUSH2 0x306 JUMP JUMPDEST PUSH2 0x38B PUSH2 0x847 CALLDATASIZE PUSH1 0x4 PUSH2 0x300B JUMP JUMPDEST PUSH2 0x14B5 JUMP JUMPDEST CALLVALUE DUP1 ISZERO PUSH2 0x857 JUMPI PUSH0 PUSH0 REVERT JUMPDEST POP PUSH2 0x35E PUSH2 0x866 CALLDATASIZE PUSH1 0x4 PUSH2 0x30A8 JUMP JUMPDEST PUSH2 0x1702 JUMP JUMPDEST CALLVALUE DUP1 ISZERO PUSH2 0x876 JUMPI PUSH0 PUSH0 REVERT JUMPDEST POP PUSH2 0x35E PUSH2 0x885 CALLDATASIZE PUSH1 0x4 PUSH2 0x3150 JUMP JUMPDEST PUSH2 0x17A3 JUMP JUMPDEST CALLVALUE DUP1 ISZERO PUSH2 0x895 JUMPI PUSH0 PUSH0 REVERT JUMPDEST POP PUSH2 0x38B PUSH2 0x8A4 CALLDATASIZE PUSH1 0x4 PUSH2 0x2EF5 JUMP JUMPDEST PUSH2 0x1804 JUMP JUMPDEST CALLVALUE DUP1 ISZERO PUSH2 0x8B4 JUMPI PUSH0 PUSH0 REVERT JUMPDEST POP PUSH2 0x8C8 PUSH2 0x8C3 CALLDATASIZE PUSH1 0x4 PUSH2 0x3170 JUMP JUMPDEST PUSH2 0x1828 JUMP JUMPDEST PUSH1 0x40 MLOAD PUSH2 0x306 SWAP2 SWAP1 PUSH2 0x31DB JUMP JUMPDEST CALLVALUE DUP1 ISZERO PUSH2 0x8E0 JUMPI PUSH0 PUSH0 REVERT JUMPDEST POP PUSH2 0x47F PUSH2 0x18B3 JUMP JUMPDEST CALLVALUE DUP1 ISZERO PUSH2 0x8F4 JUMPI PUSH0 PUSH0 REVERT JUMPDEST POP PUSH2 0x35E PUSH1 0xD3 SLOAD DUP2 JUMP JUMPDEST CALLVALUE DUP1 ISZERO PUSH2 0x909 JUMPI PUSH0 PUSH0 REVERT JUMPDEST POP PUSH2 0x38B PUSH2 0x918 CALLDATASIZE PUSH1 0x4 PUSH2 0x31ED JUMP JUMPDEST PUSH2 0x193F JUMP JUMPDEST CALLVALUE DUP1 ISZERO PUSH2 0x928 JUMPI PUSH0 PUSH0 REVERT JUMPDEST POP PUSH1 0xCD SLOAD PUSH2 0x510 SWAP1 PUSH1 0x1 PUSH1 0x1 PUSH1 0xA0 SHL SUB AND DUP2 JUMP JUMPDEST CALLVALUE DUP1 ISZERO PUSH2 0x947 JUMPI PUSH0 PUSH0 REVERT JUMPDEST POP PUSH2 0x35E PUSH0 MLOAD PUSH1 0x20 PUSH2 0x3E6D PUSH0 CODECOPY PUSH0 MLOAD SWAP1 PUSH0 MSTORE DUP2 JUMP JUMPDEST CALLVALUE DUP1 ISZERO PUSH2 0x967 JUMPI PUSH0 PUSH0 REVERT JUMPDEST POP PUSH1 0xCB SLOAD PUSH2 0x510 SWAP1 PUSH1 0x1 PUSH1 0x1 PUSH1 0xA0 SHL SUB AND DUP2 JUMP JUMPDEST CALLVALUE DUP1 ISZERO PUSH2 0x986 JUMPI PUSH0 PUSH0 REVERT JUMPDEST POP PUSH2 0x35E PUSH2 0x2710 DUP2 JUMP JUMPDEST PUSH0 PUSH1 0x1 PUSH1 0x1 PUSH1 0xE0 SHL SUB NOT DUP3 AND PUSH4 0x7965DB0B PUSH1 0xE0 SHL EQ DUP1 PUSH2 0x9C0 JUMPI POP PUSH4 0x1FFC9A7 PUSH1 0xE0 SHL PUSH1 0x1 PUSH1 0x1 PUSH1 0xE0 SHL SUB NOT DUP4 AND EQ JUMPDEST SWAP3 SWAP2 POP POP JUMP JUMPDEST PUSH32 0x2A3DAB589BCC9747970DD85AC3F222668741AE51F2A1BBB8F8355BE28DD8A868 PUSH2 0x9F0 DUP2 PUSH2 0x1CBF JUMP JUMPDEST PUSH1 0x1 PUSH1 0x1 PUSH1 0xA0 SHL SUB DUP3 AND PUSH0 SWAP1 DUP2 MSTORE PUSH1 0xD6 PUSH1 0x20 MSTORE PUSH1 0x40 SWAP1 KECCAK256 SLOAD PUSH1 0xFF AND PUSH2 0xA54 JUMPI PUSH1 0x1 PUSH1 0x1 PUSH1 0xA0 SHL SUB DUP3 AND PUSH0 DUP2 DUP2 MSTORE PUSH1 0xD6 PUSH1 0x20 MSTORE PUSH1 0x40 SWAP1 DUP2 SWAP1 KECCAK256 SLOAD SWAP1 MLOAD PUSH4 0x502DF08D PUSH1 0xE1 SHL DUP2 MSTORE PUSH1 0x4 DUP2 ADD SWAP3 SWAP1 SWAP3 MSTORE PUSH1 0xFF AND ISZERO ISZERO PUSH1 0x24 DUP3 ADD MSTORE PUSH1 0x44 ADD JUMPDEST PUSH1 0x40 MLOAD DUP1 SWAP2 SUB SWAP1 REVERT JUMPDEST PUSH1 0x1 PUSH1 0x1 PUSH1 0xA0 SHL SUB DUP3 AND PUSH0 DUP2 DUP2 MSTORE PUSH1 0xD6 PUSH1 0x20 MSTORE PUSH1 0x40 DUP1 DUP3 KECCAK256 DUP1 SLOAD PUSH1 0xFF NOT AND SWAP1 SSTORE MLOAD PUSH32 0xFB8B462BD4E3DB069EB434596FCFB88044CFE688F7329D1C4BDFBB113257B1AC SWAP2 SWAP1 LOG2 POP POP JUMP JUMPDEST PUSH0 MLOAD PUSH1 0x20 PUSH2 0x3E6D PUSH0 CODECOPY PUSH0 MLOAD SWAP1 PUSH0 MSTORE PUSH2 0xAB4 DUP2 PUSH2 0x1CBF JUMP JUMPDEST PUSH1 0x1 PUSH1 0x1 PUSH1 0xA0 SHL SUB DUP3 AND ISZERO DUP1 PUSH2 0xAD2 JUMPI POP PUSH1 0x1 PUSH1 0x1 PUSH1 0xA0 SHL SUB DUP3 AND EXTCODESIZE ISZERO JUMPDEST ISZERO PUSH2 0xAF0 JUMPI PUSH1 0x40 MLOAD PUSH4 0xE6C4247B PUSH1 0xE0 SHL DUP2 MSTORE PUSH1 0x4 ADD PUSH1 0x40 MLOAD DUP1 SWAP2 SUB SWAP1 REVERT JUMPDEST PUSH1 0xCD DUP1 SLOAD PUSH1 0x1 PUSH1 0x1 PUSH1 0xA0 SHL SUB NOT AND PUSH1 0x1 PUSH1 0x1 PUSH1 0xA0 SHL SUB DUP5 AND SWAP1 DUP2 OR SWAP1 SWAP2 SSTORE PUSH1 0x40 MLOAD PUSH32 0xF9129D4EB3ECB7840BAF6F4369FDADA2F3E80C0EE7CF671861EBE8480648E3E7 SWAP1 PUSH0 SWAP1 LOG2 POP POP JUMP JUMPDEST PUSH0 MLOAD PUSH1 0x20 PUSH2 0x3EAD PUSH0 CODECOPY PUSH0 MLOAD SWAP1 PUSH0 MSTORE PUSH2 0xB51 DUP2 PUSH2 0x1CBF JUMP JUMPDEST PUSH1 0x64 DUP3 PUSH2 0xFFFF AND LT DUP1 PUSH2 0xB69 JUMPI POP PUSH2 0x1388 DUP3 PUSH2 0xFFFF AND GT JUMPDEST ISZERO PUSH2 0xB9C JUMPI PUSH1 0x40 MLOAD PUSH4 0x2A8C162F PUSH1 0xE0 SHL DUP2 MSTORE PUSH2 0xFFFF DUP4 AND PUSH1 0x4 DUP3 ADD MSTORE PUSH1 0x64 PUSH1 0x24 DUP3 ADD DUP2 SWAP1 MSTORE PUSH2 0x1388 PUSH1 0x44 DUP4 ADD MSTORE ADD PUSH2 0xA4B JUMP JUMPDEST PUSH1 0xD1 DUP1 SLOAD PUSH2 0xFFFF NOT AND PUSH2 0xFFFF DUP5 AND SWAP1 DUP2 OR SWAP1 SWAP2 SSTORE PUSH1 0x40 MLOAD SWAP1 DUP2 MSTORE PUSH32 0xFE5045529C08DF2D94CD6C8080789955F601AF1D43B24EA85774158BC8A6D8FA SWAP1 PUSH1 0x20 ADD JUMPDEST PUSH1 0x40 MLOAD DUP1 SWAP2 SUB SWAP1 LOG1 POP POP JUMP JUMPDEST PUSH0 MLOAD PUSH1 0x20 PUSH2 0x3E8D PUSH0 CODECOPY PUSH0 MLOAD SWAP1 PUSH0 MSTORE PUSH2 0xBFF DUP2 PUSH2 0x1CBF JUMP JUMPDEST PUSH1 0x1 PUSH1 0x1 PUSH1 0xA0 SHL SUB DUP3 AND ISZERO DUP1 PUSH2 0xC22 JUMPI POP PUSH1 0xCF SLOAD PUSH1 0x1 PUSH1 0x1 PUSH1 0xA0 SHL SUB DUP4 DUP2 AND SWAP2 AND EQ JUMPDEST ISZERO PUSH2 0xC40 JUMPI PUSH1 0x40 MLOAD PUSH4 0xE6C4247B PUSH1 0xE0 SHL DUP2 MSTORE PUSH1 0x4 ADD PUSH1 0x40 MLOAD DUP1 SWAP2 SUB SWAP1 REVERT JUMPDEST PUSH1 0xCF DUP1 SLOAD PUSH1 0x1 PUSH1 0x1 PUSH1 0xA0 SHL SUB NOT AND PUSH1 0x1 PUSH1 0x1 PUSH1 0xA0 SHL SUB DUP5 AND SWAP1 DUP2 OR SWAP1 SWAP2 SSTORE PUSH1 0x40 MLOAD PUSH32 0xC3696C23BD17454D95C44CB489C7A0DB717D6D809E238813932720CC785AD535 SWAP1 PUSH0 SWAP1 LOG2 POP POP JUMP JUMPDEST PUSH0 DUP3 DUP2 MSTORE PUSH1 0x65 PUSH1 0x20 MSTORE PUSH1 0x40 SWAP1 KECCAK256 PUSH1 0x1 ADD SLOAD PUSH2 0xCA4 DUP2 PUSH2 0x1CBF JUMP JUMPDEST PUSH2 0xCAE DUP4 DUP4 PUSH2 0x1CC9 JUMP JUMPDEST POP POP POP JUMP JUMPDEST PUSH1 0x1 PUSH1 0x1 PUSH1 0xA0 SHL SUB DUP2 AND CALLER EQ PUSH2 0xD23 JUMPI PUSH1 0x40 MLOAD PUSH3 0x461BCD PUSH1 0xE5 SHL DUP2 MSTORE PUSH1 0x20 PUSH1 0x4 DUP3 ADD MSTORE PUSH1 0x2F PUSH1 0x24 DUP3 ADD MSTORE PUSH32 0x416363657373436F6E74726F6C3A2063616E206F6E6C792072656E6F756E6365 PUSH1 0x44 DUP3 ADD MSTORE PUSH15 0x103937B632B9903337B91039B2B633 PUSH1 0x89 SHL PUSH1 0x64 DUP3 ADD MSTORE PUSH1 0x84 ADD PUSH2 0xA4B JUMP JUMPDEST PUSH2 0xD2D DUP3 DUP3 PUSH2 0x1D4E JUMP JUMPDEST POP POP JUMP JUMPDEST PUSH1 0x60 PUSH1 0xD4 DUP1 SLOAD PUSH2 0xD40 SWAP1 PUSH2 0x3224 JUMP JUMPDEST DUP1 PUSH1 0x1F ADD PUSH1 0x20 DUP1 SWAP2 DIV MUL PUSH1 0x20 ADD PUSH1 0x40 MLOAD SWAP1 DUP2 ADD PUSH1 0x40 MSTORE DUP1 SWAP3 SWAP2 SWAP1 DUP2 DUP2 MSTORE PUSH1 0x20 ADD DUP3 DUP1 SLOAD PUSH2 0xD6C SWAP1 PUSH2 0x3224 JUMP JUMPDEST DUP1 ISZERO PUSH2 0xDB7 JUMPI DUP1 PUSH1 0x1F LT PUSH2 0xD8E JUMPI PUSH2 0x100 DUP1 DUP4 SLOAD DIV MUL DUP4 MSTORE SWAP2 PUSH1 0x20 ADD SWAP2 PUSH2 0xDB7 JUMP JUMPDEST DUP3 ADD SWAP2 SWAP1 PUSH0 MSTORE PUSH1 0x20 PUSH0 KECCAK256 SWAP1 JUMPDEST DUP2 SLOAD DUP2 MSTORE SWAP1 PUSH1 0x1 ADD SWAP1 PUSH1 0x20 ADD DUP1 DUP4 GT PUSH2 0xD9A JUMPI DUP3 SWAP1 SUB PUSH1 0x1F AND DUP3 ADD SWAP2 JUMPDEST POP POP POP POP POP SWAP1 POP SWAP1 JUMP JUMPDEST PUSH32 0x2A3DAB589BCC9747970DD85AC3F222668741AE51F2A1BBB8F8355BE28DD8A868 PUSH2 0xDEB DUP2 PUSH2 0x1CBF JUMP JUMPDEST PUSH1 0x1 PUSH1 0x1 PUSH1 0xA0 SHL SUB DUP3 AND ISZERO DUP1 PUSH2 0xE18 JUMPI POP PUSH1 0x1 PUSH1 0x1 PUSH1 0xA0 SHL SUB DUP3 AND PUSH0 SWAP1 DUP2 MSTORE PUSH1 0xD6 PUSH1 0x20 MSTORE PUSH1 0x40 SWAP1 KECCAK256 SLOAD PUSH1 0xFF AND JUMPDEST DUP1 PUSH2 0xE2B JUMPI POP PUSH1 0x1 PUSH1 0x1 PUSH1 0xA0 SHL SUB DUP3 AND EXTCODESIZE ISZERO JUMPDEST ISZERO PUSH2 0xE70 JUMPI PUSH1 0x1 PUSH1 0x1 PUSH1 0xA0 SHL SUB DUP3 AND PUSH0 DUP2 DUP2 MSTORE PUSH1 0xD6 PUSH1 0x20 MSTORE PUSH1 0x40 SWAP1 DUP2 SWAP1 KECCAK256 SLOAD SWAP1 MLOAD PUSH4 0x502DF08D PUSH1 0xE1 SHL DUP2 MSTORE PUSH1 0x4 DUP2 ADD SWAP3 SWAP1 SWAP3 MSTORE PUSH1 0xFF AND ISZERO ISZERO PUSH1 0x24 DUP3 ADD MSTORE PUSH1 0x44 ADD PUSH2 0xA4B JUMP JUMPDEST PUSH1 0x1 PUSH1 0x1 PUSH1 0xA0 SHL SUB DUP3 AND PUSH0 DUP2 DUP2 MSTORE PUSH1 0xD6 PUSH1 0x20 MSTORE PUSH1 0x40 DUP1 DUP3 KECCAK256 DUP1 SLOAD PUSH1 0xFF NOT AND PUSH1 0x1 OR SWAP1 SSTORE MLOAD PUSH32 0xB7269578552456138D47DC37471D94886205143F138387446EFF0148047965F6 SWAP2 SWAP1 LOG2 POP POP JUMP JUMPDEST PUSH0 MLOAD PUSH1 0x20 PUSH2 0x3E6D PUSH0 CODECOPY PUSH0 MLOAD SWAP1 PUSH0 MSTORE PUSH2 0xED3 DUP2 PUSH2 0x1CBF JUMP JUMPDEST PUSH1 0x1 PUSH1 0x1 PUSH1 0xA0 SHL SUB DUP3 AND ISZERO DUP1 PUSH2 0xEF1 JUMPI POP PUSH1 0x1 PUSH1 0x1 PUSH1 0xA0 SHL SUB DUP3 AND EXTCODESIZE ISZERO JUMPDEST ISZERO PUSH2 0xF0F JUMPI PUSH1 0x40 MLOAD PUSH4 0xE6C4247B PUSH1 0xE0 SHL DUP2 MSTORE PUSH1 0x4 ADD PUSH1 0x40 MLOAD DUP1 SWAP2 SUB SWAP1 REVERT JUMPDEST PUSH1 0xCA DUP1 SLOAD PUSH1 0x1 PUSH1 0x1 PUSH1 0xA0 SHL SUB NOT AND PUSH1 0x1 PUSH1 0x1 PUSH1 0xA0 SHL SUB DUP5 AND SWAP1 DUP2 OR SWAP1 SWAP2 SSTORE PUSH1 0x40 MLOAD SWAP1 DUP2 MSTORE PUSH32 0xA43719DF3844099648272F3B97682E96F64EBF9A001A1B1743242976D853A497 SWAP1 PUSH1 0x20 ADD PUSH2 0xBDC JUMP JUMPDEST PUSH0 MLOAD PUSH1 0x20 PUSH2 0x3E8D PUSH0 CODECOPY PUSH0 MLOAD SWAP1 PUSH0 MSTORE PUSH2 0xF74 DUP2 PUSH2 0x1CBF JUMP JUMPDEST DUP2 ISZERO DUP1 PUSH2 0xF82 JUMPI POP PUSH2 0x12C DUP3 GT JUMPDEST ISZERO PUSH2 0xFB2 JUMPI PUSH1 0x40 MLOAD PUSH4 0xBDAFE69 PUSH1 0xE0 SHL DUP2 MSTORE PUSH1 0x4 DUP2 ADD DUP4 SWAP1 MSTORE PUSH1 0x1 PUSH1 0x24 DUP3 ADD MSTORE PUSH2 0x12C PUSH1 0x44 DUP3 ADD MSTORE PUSH1 0x64 ADD PUSH2 0xA4B JUMP JUMPDEST PUSH1 0xD0 SLOAD DUP3 SUB PUSH2 0xFD4 JUMPI PUSH1 0x40 MLOAD PUSH4 0x1C926873 PUSH1 0xE1 SHL DUP2 MSTORE PUSH1 0x4 ADD PUSH1 0x40 MLOAD DUP1 SWAP2 SUB SWAP1 REVERT JUMPDEST PUSH1 0xD0 DUP3 SWAP1 SSTORE PUSH1 0x40 MLOAD DUP3 DUP2 MSTORE PUSH32 0x244EA8D7627F5A08F4299862BD5A45752842C183AEE5B0FB0D1E4887BFA605B3 SWAP1 PUSH1 0x20 ADD PUSH2 0xBDC JUMP JUMPDEST PUSH1 0xD5 SLOAD PUSH0 SWAP1 DUP3 LT PUSH2 0x1052 JUMPI PUSH1 0x40 MLOAD PUSH3 0x461BCD PUSH1 0xE5 SHL DUP2 MSTORE PUSH1 0x20 PUSH1 0x4 DUP3 ADD MSTORE PUSH1 0x13 PUSH1 0x24 DUP3 ADD MSTORE PUSH19 0x496E646578206F7574206F6620626F756E6473 PUSH1 0x68 SHL PUSH1 0x44 DUP3 ADD MSTORE PUSH1 0x64 ADD PUSH2 0xA4B JUMP JUMPDEST PUSH1 0xD5 DUP3 DUP2 SLOAD DUP2 LT PUSH2 0x1065 JUMPI PUSH2 0x1065 PUSH2 0x325C JUMP JUMPDEST PUSH0 SWAP2 DUP3 MSTORE PUSH1 0x20 SWAP1 SWAP2 KECCAK256 ADD SLOAD PUSH1 0x1 PUSH1 0x1 PUSH1 0xA0 SHL SUB AND SWAP3 SWAP2 POP POP JUMP JUMPDEST PUSH32 0xA70A2D8710FED9F014C8C2AF50C7C2F6B25748AE4CDED822E03B7BEED44CF3A8 PUSH2 0x10A9 DUP2 PUSH2 0x1CBF JUMP JUMPDEST PUSH0 DUP3 SWAP1 SUB PUSH2 0x10E0 JUMPI PUSH1 0x40 MLOAD PUSH4 0x24321863 PUSH1 0xE2 SHL DUP2 MSTORE PUSH1 0x20 PUSH1 0x4 DUP3 ADD MSTORE PUSH1 0x3 PUSH1 0x24 DUP3 ADD MSTORE PUSH3 0x555249 PUSH1 0xE8 SHL PUSH1 0x44 DUP3 ADD MSTORE PUSH1 0x64 ADD PUSH2 0xA4B JUMP JUMPDEST PUSH1 0xD4 PUSH2 0x10ED DUP4 DUP6 DUP4 PUSH2 0x32BB JUMP JUMPDEST POP PUSH32 0x88200832D1FE27EEE076BEA36A10A1EB73B9D27D9E6E5E2626A83D62FFC9AE5C DUP4 DUP4 PUSH1 0x40 MLOAD PUSH2 0x111F SWAP3 SWAP2 SWAP1 PUSH2 0x339C JUMP JUMPDEST PUSH1 0x40 MLOAD DUP1 SWAP2 SUB SWAP1 LOG1 POP POP POP JUMP JUMPDEST PUSH0 SWAP2 DUP3 MSTORE PUSH1 0x65 PUSH1 0x20 SWAP1 DUP2 MSTORE PUSH1 0x40 DUP1 DUP5 KECCAK256 PUSH1 0x1 PUSH1 0x1 PUSH1 0xA0 SHL SUB SWAP4 SWAP1 SWAP4 AND DUP5 MSTORE SWAP2 SWAP1 MSTORE SWAP1 KECCAK256 SLOAD PUSH1 0xFF AND SWAP1 JUMP JUMPDEST PUSH0 MLOAD PUSH1 0x20 PUSH2 0x3E8D PUSH0 CODECOPY PUSH0 MLOAD SWAP1 PUSH0 MSTORE PUSH2 0x116D DUP2 PUSH2 0x1CBF JUMP JUMPDEST PUSH1 0x1 PUSH1 0x1 PUSH1 0xA0 SHL SUB DUP3 AND ISZERO DUP1 PUSH2 0x1197 JUMPI POP PUSH1 0xD7 SLOAD PUSH1 0x1 PUSH1 0x1 PUSH1 0xA0 SHL SUB DUP4 DUP2 AND PUSH1 0x1 PUSH1 0x30 SHL SWAP1 SWAP3 DIV AND EQ JUMPDEST ISZERO PUSH2 0x11B5 JUMPI PUSH1 0x40 MLOAD PUSH4 0xE6C4247B PUSH1 0xE0 SHL DUP2 MSTORE PUSH1 0x4 ADD PUSH1 0x40 MLOAD DUP1 SWAP2 SUB SWAP1 REVERT JUMPDEST PUSH1 0xD7 DUP1 SLOAD PUSH1 0x1 PUSH1 0x30 SHL PUSH1 0x1 PUSH1 0xD0 SHL SUB NOT AND PUSH1 0x1 PUSH1 0x30 SHL PUSH1 0x1 PUSH1 0x1 PUSH1 0xA0 SHL SUB DUP6 AND SWAP1 DUP2 MUL SWAP2 SWAP1 SWAP2 OR SWAP1 SWAP2 SSTORE PUSH1 0x40 MLOAD PUSH32 0xE5693914D19C789BDEE50A362998C0BC8D035A835F9871DA5D51152F0582C34F SWAP1 PUSH0 SWAP1 LOG2 POP POP JUMP JUMPDEST PUSH0 MLOAD PUSH1 0x20 PUSH2 0x3EAD PUSH0 CODECOPY PUSH0 MLOAD SWAP1 PUSH0 MSTORE PUSH2 0x1222 DUP2 PUSH2 0x1CBF JUMP JUMPDEST DUP2 ISZERO DUP1 PUSH2 0x1230 JUMPI POP PUSH1 0xD2 SLOAD DUP3 EQ JUMPDEST ISZERO PUSH2 0x124E JUMPI PUSH1 0x40 MLOAD PUSH4 0x162908E3 PUSH1 0xE1 SHL DUP2 MSTORE PUSH1 0x4 ADD PUSH1 0x40 MLOAD DUP1 SWAP2 SUB SWAP1 REVERT JUMPDEST PUSH1 0xD2 DUP3 SWAP1 SSTORE PUSH1 0x40 MLOAD DUP3 DUP2 MSTORE CALLER SWAP1 PUSH32 0x1A838344E9D84CD77B405CB66C9EA521BF49AB3CEF195F4E1AB80864E9C29E96 SWAP1 PUSH1 0x20 ADD PUSH1 0x40 MLOAD DUP1 SWAP2 SUB SWAP1 LOG2 POP POP JUMP JUMPDEST PUSH0 MLOAD PUSH1 0x20 PUSH2 0x3EAD PUSH0 CODECOPY PUSH0 MLOAD SWAP1 PUSH0 MSTORE PUSH2 0x12A3 DUP2 PUSH2 0x1CBF JUMP JUMPDEST PUSH1 0xC9 DUP3 SWAP1 SSTORE PUSH1 0x40 MLOAD DUP3 DUP2 MSTORE PUSH32 0x53607F816C6861E86E8B444097D2359F544A8C81BF7574EA094CDD349BD6EA2A SWAP1 PUSH1 0x20 ADD PUSH2 0xBDC JUMP JUMPDEST PUSH1 0xD5 DUP2 DUP2 SLOAD DUP2 LT PUSH2 0x12E7 JUMPI PUSH0 DUP1 REVERT JUMPDEST PUSH0 SWAP2 DUP3 MSTORE PUSH1 0x20 SWAP1 SWAP2 KECCAK256 ADD SLOAD PUSH1 0x1 PUSH1 0x1 PUSH1 0xA0 SHL SUB AND SWAP1 POP DUP2 JUMP JUMPDEST PUSH0 MLOAD PUSH1 0x20 PUSH2 0x3E8D PUSH0 CODECOPY PUSH0 MLOAD SWAP1 PUSH0 MSTORE PUSH2 0x1317 DUP2 PUSH2 0x1CBF JUMP JUMPDEST PUSH1 0x32 PUSH2 0xFFFF DUP6 AND GT DUP1 PUSH2 0x132E JUMPI POP PUSH1 0x32 PUSH2 0xFFFF DUP5 AND GT JUMPDEST DUP1 PUSH2 0x133D JUMPI POP PUSH1 0x32 PUSH2 0xFFFF DUP4 AND GT JUMPDEST ISZERO PUSH2 0x135B JUMPI PUSH1 0x40 MLOAD PUSH4 0x58D620B3 PUSH1 0xE0 SHL DUP2 MSTORE PUSH1 0x4 ADD PUSH1 0x40 MLOAD DUP1 SWAP2 SUB SWAP1 REVERT JUMPDEST PUSH1 0x40 DUP1 MLOAD PUSH1 0x80 DUP2 ADD DUP3 MSTORE PUSH2 0xFFFF DUP7 DUP2 AND DUP1 DUP4 MSTORE DUP7 DUP3 AND PUSH1 0x20 DUP1 DUP6 ADD DUP3 SWAP1 MSTORE SWAP3 DUP8 AND DUP5 DUP7 ADD DUP2 SWAP1 MSTORE PUSH1 0xD7 DUP1 SLOAD PUSH1 0x1 PUSH1 0x30 SHL DUP1 DUP3 DIV PUSH1 0x1 PUSH1 0x1 PUSH1 0xA0 SHL SUB AND PUSH1 0x60 SWAP9 DUP10 ADD DUP2 SWAP1 MSTORE PUSH4 0xFFFFFFFF NOT SWAP1 SWAP3 AND DUP7 OR PUSH3 0x10000 DUP7 MUL OR PUSH5 0x100000000 PUSH1 0x1 PUSH1 0xD0 SHL SUB NOT AND PUSH5 0x100000000 DUP6 MUL PUSH1 0x1 PUSH1 0x30 SHL PUSH1 0x1 PUSH1 0xD0 SHL SUB NOT AND OR SWAP2 MUL OR SWAP1 SSTORE DUP6 MLOAD SWAP3 DUP4 MSTORE SWAP3 DUP3 ADD MSTORE SWAP3 DUP4 ADD MSTORE PUSH32 0x4F8CA010FE4732DD5DB8B8331BB421DAB5E64E4884D5A9353D7D06365FFD2677 SWAP2 ADD PUSH1 0x40 MLOAD DUP1 SWAP2 SUB SWAP1 LOG1 POP POP POP POP JUMP JUMPDEST PUSH0 MLOAD PUSH1 0x20 PUSH2 0x3E6D PUSH0 CODECOPY PUSH0 MLOAD SWAP1 PUSH0 MSTORE PUSH2 0x142F DUP2 PUSH2 0x1CBF JUMP JUMPDEST PUSH1 0x1 PUSH1 0x1 PUSH1 0xA0 SHL SUB DUP3 AND ISZERO DUP1 PUSH2 0x144D JUMPI POP PUSH1 0x1 PUSH1 0x1 PUSH1 0xA0 SHL SUB DUP3 AND EXTCODESIZE ISZERO JUMPDEST ISZERO PUSH2 0x146B JUMPI PUSH1 0x40 MLOAD PUSH4 0xE6C4247B PUSH1 0xE0 SHL DUP2 MSTORE PUSH1 0x4 ADD PUSH1 0x40 MLOAD DUP1 SWAP2 SUB SWAP1 REVERT JUMPDEST PUSH1 0xCE DUP1 SLOAD PUSH1 0x1 PUSH1 0x1 PUSH1 0xA0 SHL SUB NOT AND PUSH1 0x1 PUSH1 0x1 PUSH1 0xA0 SHL SUB DUP5 AND SWAP1 DUP2 OR SWAP1 SWAP2 SSTORE PUSH1 0x40 MLOAD PUSH32 0x6E694698D0AF55D5F631FE4713E0BCDA24D5A3AD7C6488FBA117E37F9D470C07 SWAP1 PUSH0 SWAP1 LOG2 POP POP JUMP JUMPDEST PUSH2 0x14BD PUSH2 0x1DB4 JUMP JUMPDEST PUSH0 PUSH2 0x14C7 DUP3 PUSH2 0x1E0D JUMP JUMPDEST SWAP1 POP PUSH0 PUSH0 PUSH2 0x14D4 DUP5 PUSH2 0x21DD JUMP JUMPDEST SWAP2 POP SWAP2 POP PUSH0 PUSH0 PUSH2 0x14E5 DUP4 DUP8 DUP8 PUSH2 0x253A JUMP JUMPDEST PUSH1 0xD5 DUP1 SLOAD PUSH1 0x1 DUP2 ADD DUP3 SSTORE PUSH0 SWAP2 SWAP1 SWAP2 MSTORE PUSH32 0x51858DE9989BF7441865EBDADBF7382C8838EDBF830F5D86A9A51AC773676DD6 ADD DUP1 SLOAD PUSH1 0x1 PUSH1 0x1 PUSH1 0xA0 SHL SUB NOT AND PUSH1 0x1 PUSH1 0x1 PUSH1 0xA0 SHL SUB DUP9 DUP2 AND SWAP2 SWAP1 SWAP2 OR SWAP1 SWAP2 SSTORE PUSH1 0x40 MLOAD PUSH4 0xDE836EBD PUSH1 0xE0 SHL DUP2 MSTORE SWAP3 SWAP5 POP SWAP1 SWAP3 POP DUP5 AND SWAP1 PUSH4 0xDE836EBD SWAP1 PUSH2 0x1560 SWAP1 CALLER SWAP1 DUP6 SWAP1 PUSH1 0x4 ADD PUSH2 0x33E7 JUMP JUMPDEST PUSH1 0x20 PUSH1 0x40 MLOAD DUP1 DUP4 SUB DUP2 PUSH0 DUP8 GAS CALL ISZERO DUP1 ISZERO PUSH2 0x157C JUMPI RETURNDATASIZE PUSH0 PUSH0 RETURNDATACOPY RETURNDATASIZE PUSH0 REVERT JUMPDEST POP POP POP POP PUSH1 0x40 MLOAD RETURNDATASIZE PUSH1 0x1F NOT PUSH1 0x1F DUP3 ADD AND DUP3 ADD DUP1 PUSH1 0x40 MSTORE POP DUP2 ADD SWAP1 PUSH2 0x15A0 SWAP2 SWAP1 PUSH2 0x340A JUMP JUMPDEST POP PUSH1 0x40 MLOAD PUSH4 0xF2FDE38B PUSH1 0xE0 SHL DUP2 MSTORE PUSH1 0x1 PUSH1 0x1 PUSH1 0xA0 SHL SUB DUP6 DUP2 AND PUSH1 0x4 DUP4 ADD MSTORE DUP5 AND SWAP1 PUSH4 0xF2FDE38B SWAP1 PUSH1 0x24 ADD PUSH0 PUSH1 0x40 MLOAD DUP1 DUP4 SUB DUP2 PUSH0 DUP8 DUP1 EXTCODESIZE ISZERO DUP1 ISZERO PUSH2 0x15E1 JUMPI PUSH0 PUSH0 REVERT JUMPDEST POP GAS CALL ISZERO DUP1 ISZERO PUSH2 0x15F3 JUMPI RETURNDATASIZE PUSH0 PUSH0 RETURNDATACOPY RETURNDATASIZE PUSH0 REVERT JUMPDEST POP POP POP POP DUP5 DUP3 GT ISZERO PUSH2 0x1618 JUMPI PUSH1 0x40 MLOAD PUSH4 0x9DF50FF PUSH1 0xE4 SHL DUP2 MSTORE PUSH1 0x4 ADD PUSH1 0x40 MLOAD DUP1 SWAP2 SUB SWAP1 REVERT JUMPDEST DUP5 DUP3 LT ISZERO PUSH2 0x168E JUMPI PUSH0 CALLER PUSH2 0x162C DUP5 DUP9 PUSH2 0x3435 JUMP JUMPDEST PUSH1 0x40 MLOAD PUSH0 DUP2 DUP2 DUP2 DUP6 DUP8 GAS CALL SWAP3 POP POP POP RETURNDATASIZE DUP1 PUSH0 DUP2 EQ PUSH2 0x1665 JUMPI PUSH1 0x40 MLOAD SWAP2 POP PUSH1 0x1F NOT PUSH1 0x3F RETURNDATASIZE ADD AND DUP3 ADD PUSH1 0x40 MSTORE RETURNDATASIZE DUP3 MSTORE RETURNDATASIZE PUSH0 PUSH1 0x20 DUP5 ADD RETURNDATACOPY PUSH2 0x166A JUMP JUMPDEST PUSH1 0x60 SWAP2 POP JUMPDEST POP POP SWAP1 POP DUP1 PUSH2 0x168C JUMPI PUSH1 0x40 MLOAD PUSH4 0x12171D83 PUSH1 0xE3 SHL DUP2 MSTORE PUSH1 0x4 ADD PUSH1 0x40 MLOAD DUP1 SWAP2 SUB SWAP1 REVERT JUMPDEST POP JUMPDEST CALLER PUSH32 0x4CB0E92EC6885A0962DC9BAB235BA214D1CB5574D251821C50D09553B3A7419 DUP6 DUP6 DUP9 PUSH1 0xA0 DUP12 ADD CALLDATALOAD PUSH2 0x16C5 PUSH1 0xC0 DUP14 ADD DUP14 PUSH2 0x3448 JUMP JUMPDEST PUSH2 0x16D2 PUSH1 0xE0 DUP16 ADD DUP16 PUSH2 0x3448 JUMP JUMPDEST DUP15 PUSH1 0x40 MLOAD PUSH2 0x16E8 SWAP10 SWAP9 SWAP8 SWAP7 SWAP6 SWAP5 SWAP4 SWAP3 SWAP2 SWAP1 PUSH2 0x3491 JUMP JUMPDEST PUSH1 0x40 MLOAD DUP1 SWAP2 SUB SWAP1 LOG2 POP POP POP POP POP PUSH2 0x16FF PUSH1 0x1 PUSH1 0x97 SSTORE JUMP JUMPDEST POP JUMP JUMPDEST PUSH1 0xCB SLOAD PUSH1 0x40 MLOAD PUSH4 0xD06CA61F PUSH1 0xE0 SHL DUP2 MSTORE PUSH0 SWAP2 PUSH1 0x1 PUSH1 0x1 PUSH1 0xA0 SHL SUB AND SWAP1 PUSH4 0xD06CA61F SWAP1 PUSH2 0x1734 SWAP1 DUP7 SWAP1 DUP7 SWAP1 PUSH1 0x4 ADD PUSH2 0x34F5 JUMP JUMPDEST PUSH0 PUSH1 0x40 MLOAD DUP1 DUP4 SUB DUP2 DUP7 GAS STATICCALL ISZERO DUP1 ISZERO PUSH2 0x174E JUMPI RETURNDATASIZE PUSH0 PUSH0 RETURNDATACOPY RETURNDATASIZE PUSH0 REVERT JUMPDEST POP POP POP POP PUSH1 0x40 MLOAD RETURNDATASIZE PUSH0 DUP3 RETURNDATACOPY PUSH1 0x1F RETURNDATASIZE SWAP1 DUP2 ADD PUSH1 0x1F NOT AND DUP3 ADD PUSH1 0x40 MSTORE PUSH2 0x1775 SWAP2 SWAP1 DUP2 ADD SWAP1 PUSH2 0x350D JUMP JUMPDEST PUSH1 0x1 DUP4 MLOAD PUSH2 0x1783 SWAP2 SWAP1 PUSH2 0x3435 JUMP JUMPDEST DUP2 MLOAD DUP2 LT PUSH2 0x1793 JUMPI PUSH2 0x1793 PUSH2 0x325C JUMP JUMPDEST PUSH1 0x20 MUL PUSH1 0x20 ADD ADD MLOAD SWAP1 POP SWAP3 SWAP2 POP POP JUMP JUMPDEST PUSH0 PUSH0 PUSH1 0xD3 SLOAD PUSH8 0xDE0B6B3A7640000 PUSH2 0x17BB SWAP2 SWAP1 PUSH2 0x3435 JUMP JUMPDEST SWAP1 POP PUSH0 PUSH2 0x17CE PUSH2 0x17CB DUP4 DUP8 PUSH2 0x2884 JUMP JUMPDEST SWAP1 JUMP JUMPDEST SWAP1 POP PUSH0 DUP5 PUSH2 0x17E4 DUP4 PUSH8 0xDE0B6B3A7640000 PUSH2 0x3435 JUMP JUMPDEST PUSH2 0x17EE SWAP2 SWAP1 PUSH2 0x3593 JUMP JUMPDEST SWAP1 POP PUSH2 0x17FA DUP3 DUP3 PUSH2 0x35AA JUMP JUMPDEST SWAP7 SWAP6 POP POP POP POP POP POP JUMP JUMPDEST PUSH0 DUP3 DUP2 MSTORE PUSH1 0x65 PUSH1 0x20 MSTORE PUSH1 0x40 SWAP1 KECCAK256 PUSH1 0x1 ADD SLOAD PUSH2 0x181E DUP2 PUSH2 0x1CBF JUMP JUMPDEST PUSH2 0xCAE DUP4 DUP4 PUSH2 0x1D4E JUMP JUMPDEST PUSH1 0x40 DUP1 MLOAD PUSH1 0x2 DUP1 DUP3 MSTORE PUSH1 0x60 DUP1 DUP4 ADD DUP5 MSTORE SWAP3 PUSH0 SWAP3 SWAP2 SWAP1 PUSH1 0x20 DUP4 ADD SWAP1 DUP1 CALLDATASIZE DUP4 CALLDATACOPY ADD SWAP1 POP POP SWAP1 POP DUP4 DUP2 PUSH0 DUP2 MLOAD DUP2 LT PUSH2 0x185F JUMPI PUSH2 0x185F PUSH2 0x325C JUMP JUMPDEST PUSH1 0x20 MUL PUSH1 0x20 ADD ADD SWAP1 PUSH1 0x1 PUSH1 0x1 PUSH1 0xA0 SHL SUB AND SWAP1 DUP2 PUSH1 0x1 PUSH1 0x1 PUSH1 0xA0 SHL SUB AND DUP2 MSTORE POP POP DUP3 DUP2 PUSH1 0x1 DUP2 MLOAD DUP2 LT PUSH2 0x1893 JUMPI PUSH2 0x1893 PUSH2 0x325C JUMP JUMPDEST PUSH1 0x1 PUSH1 0x1 PUSH1 0xA0 SHL SUB SWAP1 SWAP3 AND PUSH1 0x20 SWAP3 DUP4 MUL SWAP2 SWAP1 SWAP2 ADD SWAP1 SWAP2 ADD MSTORE SWAP1 POP SWAP3 SWAP2 POP POP JUMP JUMPDEST PUSH1 0xD4 DUP1 SLOAD PUSH2 0x18C0 SWAP1 PUSH2 0x3224 JUMP JUMPDEST DUP1 PUSH1 0x1F ADD PUSH1 0x20 DUP1 SWAP2 DIV MUL PUSH1 0x20 ADD PUSH1 0x40 MLOAD SWAP1 DUP2 ADD PUSH1 0x40 MSTORE DUP1 SWAP3 SWAP2 SWAP1 DUP2 DUP2 MSTORE PUSH1 0x20 ADD DUP3 DUP1 SLOAD PUSH2 0x18EC SWAP1 PUSH2 0x3224 JUMP JUMPDEST DUP1 ISZERO PUSH2 0x1937 JUMPI DUP1 PUSH1 0x1F LT PUSH2 0x190E JUMPI PUSH2 0x100 DUP1 DUP4 SLOAD DIV MUL DUP4 MSTORE SWAP2 PUSH1 0x20 ADD SWAP2 PUSH2 0x1937 JUMP JUMPDEST DUP3 ADD SWAP2 SWAP1 PUSH0 MSTORE PUSH1 0x20 PUSH0 KECCAK256 SWAP1 JUMPDEST DUP2 SLOAD DUP2 MSTORE SWAP1 PUSH1 0x1 ADD SWAP1 PUSH1 0x20 ADD DUP1 DUP4 GT PUSH2 0x191A JUMPI DUP3 SWAP1 SUB PUSH1 0x1F AND DUP3 ADD SWAP2 JUMPDEST POP POP POP POP POP DUP2 JUMP JUMPDEST PUSH0 SLOAD PUSH2 0x100 SWAP1 DIV PUSH1 0xFF AND ISZERO DUP1 DUP1 ISZERO PUSH2 0x195D JUMPI POP PUSH0 SLOAD PUSH1 0x1 PUSH1 0xFF SWAP1 SWAP2 AND LT JUMPDEST DUP1 PUSH2 0x1976 JUMPI POP ADDRESS EXTCODESIZE ISZERO DUP1 ISZERO PUSH2 0x1976 JUMPI POP PUSH0 SLOAD PUSH1 0xFF AND PUSH1 0x1 EQ JUMPDEST PUSH2 0x19D9 JUMPI PUSH1 0x40 MLOAD PUSH3 0x461BCD PUSH1 0xE5 SHL DUP2 MSTORE PUSH1 0x20 PUSH1 0x4 DUP3 ADD MSTORE PUSH1 0x2E PUSH1 0x24 DUP3 ADD MSTORE PUSH32 0x496E697469616C697A61626C653A20636F6E747261637420697320616C726561 PUSH1 0x44 DUP3 ADD MSTORE PUSH14 0x191E481A5B9A5D1A585B1A5E9959 PUSH1 0x92 SHL PUSH1 0x64 DUP3 ADD MSTORE PUSH1 0x84 ADD PUSH2 0xA4B JUMP JUMPDEST PUSH0 DUP1 SLOAD PUSH1 0xFF NOT AND PUSH1 0x1 OR SWAP1 SSTORE DUP1 ISZERO PUSH2 0x19FA JUMPI PUSH0 DUP1 SLOAD PUSH2 0xFF00 NOT AND PUSH2 0x100 OR SWAP1 SSTORE JUMPDEST PUSH2 0x1A02 PUSH2 0x28E8 JUMP JUMPDEST PUSH2 0x1A0C PUSH0 CALLER PUSH2 0x1CC9 JUMP JUMPDEST PUSH2 0x1A15 DUP3 PUSH2 0x2918 JUMP JUMPDEST PUSH2 0x1A22 PUSH1 0x20 DUP4 ADD DUP4 PUSH2 0x2E9B JUMP JUMPDEST PUSH1 0xCA DUP1 SLOAD PUSH1 0x1 PUSH1 0x1 PUSH1 0xA0 SHL SUB NOT AND PUSH1 0x1 PUSH1 0x1 PUSH1 0xA0 SHL SUB SWAP3 SWAP1 SWAP3 AND SWAP2 SWAP1 SWAP2 OR SWAP1 SSTORE PUSH2 0x1A52 PUSH1 0x40 DUP4 ADD PUSH1 0x20 DUP5 ADD PUSH2 0x2E9B JUMP JUMPDEST PUSH1 0xCD DUP1 SLOAD PUSH1 0x1 PUSH1 0x1 PUSH1 0xA0 SHL SUB NOT AND PUSH1 0x1 PUSH1 0x1 PUSH1 0xA0 SHL SUB SWAP3 SWAP1 SWAP3 AND SWAP2 SWAP1 SWAP2 OR SWAP1 SSTORE PUSH2 0x1A82 PUSH1 0x60 DUP4 ADD PUSH1 0x40 DUP5 ADD PUSH2 0x2E9B JUMP JUMPDEST PUSH1 0xCE DUP1 SLOAD PUSH1 0x1 PUSH1 0x1 PUSH1 0xA0 SHL SUB NOT AND PUSH1 0x1 PUSH1 0x1 PUSH1 0xA0 SHL SUB SWAP3 SWAP1 SWAP3 AND SWAP2 SWAP1 SWAP2 OR SWAP1 SSTORE PUSH2 0x1AB2 PUSH1 0x80 DUP4 ADD PUSH1 0x60 DUP5 ADD PUSH2 0x2E9B JUMP JUMPDEST PUSH1 0xCB DUP1 SLOAD PUSH1 0x1 PUSH1 0x1 PUSH1 0xA0 SHL SUB NOT AND PUSH1 0x1 PUSH1 0x1 PUSH1 0xA0 SHL SUB SWAP3 SWAP1 SWAP3 AND SWAP2 SWAP1 SWAP2 OR SWAP1 SSTORE PUSH2 0x1AE2 PUSH1 0xA0 DUP4 ADD PUSH1 0x80 DUP5 ADD PUSH2 0x2E9B JUMP JUMPDEST PUSH1 0xCC DUP1 SLOAD PUSH1 0x1 PUSH1 0x1 PUSH1 0xA0 SHL SUB NOT AND PUSH1 0x1 PUSH1 0x1 PUSH1 0xA0 SHL SUB SWAP3 SWAP1 SWAP3 AND SWAP2 SWAP1 SWAP2 OR SWAP1 SSTORE PUSH2 0x1B12 PUSH1 0xC0 DUP4 ADD PUSH1 0xA0 DUP5 ADD PUSH2 0x2E9B JUMP JUMPDEST PUSH1 0xCF DUP1 SLOAD PUSH1 0x1 PUSH1 0x1 PUSH1 0xA0 SHL SUB NOT AND PUSH1 0x1 PUSH1 0x1 PUSH1 0xA0 SHL SUB SWAP3 SWAP1 SWAP3 AND SWAP2 SWAP1 SWAP2 OR SWAP1 SSTORE PUSH2 0x1B44 PUSH2 0x120 DUP4 ADD PUSH2 0x100 DUP5 ADD PUSH2 0x2EDC JUMP JUMPDEST PUSH1 0xD1 DUP1 SLOAD PUSH2 0xFFFF NOT AND PUSH2 0xFFFF SWAP3 SWAP1 SWAP3 AND SWAP2 SWAP1 SWAP2 OR SWAP1 SSTORE PUSH2 0x120 DUP3 ADD CALLDATALOAD PUSH1 0xD3 SSTORE PUSH2 0x1B71 PUSH2 0x140 DUP4 ADD DUP4 PUSH2 0x3448 JUMP JUMPDEST PUSH1 0xD4 SWAP2 PUSH2 0x1B7F SWAP2 SWAP1 DUP4 PUSH2 0x32BB JUMP JUMPDEST POP PUSH2 0x160 DUP3 ADD CALLDATALOAD PUSH1 0xD2 SSTORE PUSH1 0x40 DUP1 MLOAD PUSH1 0x80 DUP2 ADD DUP3 MSTORE PUSH1 0x32 DUP1 DUP3 MSTORE PUSH1 0x20 DUP3 ADD DUP2 SWAP1 MSTORE SWAP2 DUP2 ADD SWAP2 SWAP1 SWAP2 MSTORE PUSH1 0x60 DUP2 ADD PUSH2 0x1BBA PUSH1 0xE0 DUP6 ADD PUSH1 0xC0 DUP7 ADD PUSH2 0x2E9B JUMP JUMPDEST PUSH1 0x1 PUSH1 0x1 PUSH1 0xA0 SHL SUB SWAP1 DUP2 AND SWAP1 SWAP2 MSTORE DUP2 MLOAD PUSH1 0xD7 DUP1 SLOAD PUSH1 0x20 DUP6 ADD MLOAD PUSH1 0x40 DUP7 ADD MLOAD PUSH1 0x60 SWAP1 SWAP7 ADD MLOAD SWAP1 SWAP5 AND PUSH1 0x1 PUSH1 0x30 SHL MUL PUSH1 0x1 PUSH1 0x30 SHL PUSH1 0x1 PUSH1 0xD0 SHL SUB NOT PUSH2 0xFFFF SWAP7 DUP8 AND PUSH5 0x100000000 MUL AND PUSH5 0x100000000 PUSH1 0x1 PUSH1 0xD0 SHL SUB NOT SWAP6 DUP8 AND PUSH3 0x10000 MUL PUSH4 0xFFFFFFFF NOT SWAP1 SWAP4 AND SWAP7 SWAP1 SWAP5 AND SWAP6 SWAP1 SWAP6 OR OR SWAP3 SWAP1 SWAP3 AND OR SWAP2 SWAP1 SWAP2 OR SWAP1 SSTORE PUSH1 0xC8 PUSH1 0xD0 SSTORE PUSH1 0x1 PUSH1 0xD6 PUSH0 PUSH2 0x1C4E PUSH2 0x100 DUP7 ADD PUSH1 0xE0 DUP8 ADD PUSH2 0x2E9B JUMP JUMPDEST PUSH1 0x1 PUSH1 0x1 PUSH1 0xA0 SHL SUB AND DUP2 MSTORE PUSH1 0x20 DUP2 ADD SWAP2 SWAP1 SWAP2 MSTORE PUSH1 0x40 ADD PUSH0 KECCAK256 DUP1 SLOAD PUSH1 0xFF NOT AND SWAP2 ISZERO ISZERO SWAP2 SWAP1 SWAP2 OR SWAP1 SSTORE PUSH5 0x174876E800 PUSH1 0xC9 SSTORE DUP1 ISZERO PUSH2 0xD2D JUMPI PUSH0 DUP1 SLOAD PUSH2 0xFF00 NOT AND SWAP1 SSTORE PUSH1 0x40 MLOAD PUSH1 0x1 DUP2 MSTORE PUSH32 0x7F26B83FF96E1F2B6A682F133852F6798A09C465DA95921460CEFB3847402498 SWAP1 PUSH1 0x20 ADD PUSH2 0xBDC JUMP JUMPDEST PUSH2 0x16FF DUP2 CALLER PUSH2 0x2B0C JUMP JUMPDEST PUSH2 0x1CD3 DUP3 DUP3 PUSH2 0x112C JUMP JUMPDEST PUSH2 0xD2D JUMPI PUSH0 DUP3 DUP2 MSTORE PUSH1 0x65 PUSH1 0x20 SWAP1 DUP2 MSTORE PUSH1 0x40 DUP1 DUP4 KECCAK256 PUSH1 0x1 PUSH1 0x1 PUSH1 0xA0 SHL SUB DUP6 AND DUP5 MSTORE SWAP1 SWAP2 MSTORE SWAP1 KECCAK256 DUP1 SLOAD PUSH1 0xFF NOT AND PUSH1 0x1 OR SWAP1 SSTORE PUSH2 0x1D0A CALLER SWAP1 JUMP JUMPDEST PUSH1 0x1 PUSH1 0x1 PUSH1 0xA0 SHL SUB AND DUP2 PUSH1 0x1 PUSH1 0x1 PUSH1 0xA0 SHL SUB AND DUP4 PUSH32 0x2F8788117E7EFF1D82E926EC794901D17C78024A50270940304540A733656F0D PUSH1 0x40 MLOAD PUSH1 0x40 MLOAD DUP1 SWAP2 SUB SWAP1 LOG4 POP POP JUMP JUMPDEST PUSH2 0x1D58 DUP3 DUP3 PUSH2 0x112C JUMP JUMPDEST ISZERO PUSH2 0xD2D JUMPI PUSH0 DUP3 DUP2 MSTORE PUSH1 0x65 PUSH1 0x20 SWAP1 DUP2 MSTORE PUSH1 0x40 DUP1 DUP4 KECCAK256 PUSH1 0x1 PUSH1 0x1 PUSH1 0xA0 SHL SUB DUP6 AND DUP1 DUP6 MSTORE SWAP3 MSTORE DUP1 DUP4 KECCAK256 DUP1 SLOAD PUSH1 0xFF NOT AND SWAP1 SSTORE MLOAD CALLER SWAP3 DUP6 SWAP2 PUSH32 0xF6391F5C32D9C69D2A47EA670B442974B53935D1EDC7FD64EB21E047A839171B SWAP2 SWAP1 LOG4 POP POP JUMP JUMPDEST PUSH1 0x2 PUSH1 0x97 SLOAD SUB PUSH2 0x1E06 JUMPI PUSH1 0x40 MLOAD PUSH3 0x461BCD PUSH1 0xE5 SHL DUP2 MSTORE PUSH1 0x20 PUSH1 0x4 DUP3 ADD MSTORE PUSH1 0x1F PUSH1 0x24 DUP3 ADD MSTORE PUSH32 0x5265656E7472616E637947756172643A207265656E7472616E742063616C6C00 PUSH1 0x44 DUP3 ADD MSTORE PUSH1 0x64 ADD PUSH2 0xA4B JUMP JUMPDEST PUSH1 0x2 PUSH1 0x97 SSTORE JUMP JUMPDEST PUSH0 PUSH1 0xD2 SLOAD CALLVALUE LT ISZERO PUSH2 0x1E3E JUMPI PUSH1 0xD2 SLOAD PUSH1 0x40 MLOAD PUSH4 0x2910024B PUSH1 0xE1 SHL DUP2 MSTORE CALLVALUE PUSH1 0x4 DUP3 ADD MSTORE PUSH1 0x24 DUP2 ADD SWAP2 SWAP1 SWAP2 MSTORE PUSH1 0x44 ADD PUSH2 0xA4B JUMP JUMPDEST PUSH1 0xA0 DUP3 ADD CALLDATALOAD ISZERO DUP1 PUSH2 0x1E55 JUMPI POP PUSH2 0x1388 DUP3 PUSH1 0xA0 ADD CALLDATALOAD LT ISZERO JUMPDEST ISZERO PUSH2 0x1E88 JUMPI PUSH1 0x40 MLOAD PUSH4 0x1818D2A7 PUSH1 0xE3 SHL DUP2 MSTORE PUSH1 0xA0 DUP4 ADD CALLDATALOAD PUSH1 0x4 DUP3 ADD MSTORE PUSH1 0x1 PUSH1 0x24 DUP3 ADD MSTORE PUSH2 0x1387 PUSH1 0x44 DUP3 ADD MSTORE PUSH1 0x64 ADD PUSH2 0xA4B JUMP JUMPDEST TIMESTAMP DUP3 PUSH2 0x100 ADD CALLDATALOAD GT PUSH2 0x1EB4 JUMPI PUSH1 0x40 MLOAD PUSH4 0x18DB49C5 PUSH1 0xE2 SHL DUP2 MSTORE PUSH2 0x100 DUP4 ADD CALLDATALOAD PUSH1 0x4 DUP3 ADD MSTORE PUSH1 0x24 ADD PUSH2 0xA4B JUMP JUMPDEST PUSH2 0x1EBE DUP3 DUP1 PUSH2 0x3448 JUMP JUMPDEST SWAP1 POP PUSH0 SUB PUSH2 0x1EF8 JUMPI PUSH1 0x40 MLOAD PUSH4 0x24321863 PUSH1 0xE2 SHL DUP2 MSTORE PUSH1 0x4 ADD PUSH2 0xA4B SWAP1 PUSH1 0x20 DUP1 DUP3 MSTORE PUSH1 0x4 SWAP1 DUP3 ADD MSTORE PUSH4 0x6E616D65 PUSH1 0xE0 SHL PUSH1 0x40 DUP3 ADD MSTORE PUSH1 0x60 ADD SWAP1 JUMP JUMPDEST PUSH2 0x1F05 PUSH1 0x20 DUP4 ADD DUP4 PUSH2 0x3448 JUMP JUMPDEST SWAP1 POP PUSH0 SUB PUSH2 0x1F3F JUMPI PUSH1 0x40 MLOAD PUSH4 0x24321863 PUSH1 0xE2 SHL DUP2 MSTORE PUSH1 0x20 PUSH1 0x4 DUP3 ADD MSTORE PUSH1 0x6 PUSH1 0x24 DUP3 ADD MSTORE PUSH6 0x1CDE5B589BDB PUSH1 0xD2 SHL PUSH1 0x44 DUP3 ADD MSTORE PUSH1 0x64 ADD PUSH2 0xA4B JUMP JUMPDEST PUSH2 0x1F4C PUSH1 0x80 DUP4 ADD DUP4 PUSH2 0x3448 JUMP JUMPDEST SWAP1 POP PUSH0 SUB PUSH2 0x1F88 JUMPI PUSH1 0x40 MLOAD PUSH4 0x24321863 PUSH1 0xE2 SHL DUP2 MSTORE PUSH1 0x20 PUSH1 0x4 DUP3 ADD MSTORE PUSH1 0x8 PUSH1 0x24 DUP3 ADD MSTORE PUSH8 0x746F6B656E555249 PUSH1 0xC0 SHL PUSH1 0x44 DUP3 ADD MSTORE PUSH1 0x64 ADD PUSH2 0xA4B JUMP JUMPDEST PUSH2 0x1F95 PUSH1 0xC0 DUP4 ADD DUP4 PUSH2 0x3448 JUMP JUMPDEST SWAP1 POP PUSH0 SUB PUSH2 0x1FCB JUMPI PUSH1 0x40 MLOAD PUSH4 0x24321863 PUSH1 0xE2 SHL DUP2 MSTORE PUSH1 0x20 PUSH1 0x4 DUP3 ADD MSTORE PUSH1 0x2 PUSH1 0x24 DUP3 ADD MSTORE PUSH2 0x1A59 PUSH1 0xF2 SHL PUSH1 0x44 DUP3 ADD MSTORE PUSH1 0x64 ADD PUSH2 0xA4B JUMP JUMPDEST PUSH2 0x1FD8 PUSH1 0x60 DUP4 ADD DUP4 PUSH2 0x35C9 JUMP JUMPDEST SWAP1 POP PUSH2 0x1FE7 PUSH1 0x40 DUP5 ADD DUP5 PUSH2 0x35C9 JUMP JUMPDEST SWAP1 POP EQ ISZERO DUP1 PUSH2 0x2002 JUMPI POP PUSH2 0x1FFE PUSH1 0x40 DUP4 ADD DUP4 PUSH2 0x35C9 JUMP JUMPDEST ISZERO SWAP1 POP JUMPDEST DUP1 PUSH2 0x2019 JUMPI POP PUSH2 0x2015 PUSH1 0x60 DUP4 ADD DUP4 PUSH2 0x35C9 JUMP JUMPDEST ISZERO SWAP1 POP JUMPDEST ISZERO PUSH2 0x2037 JUMPI PUSH1 0x40 MLOAD PUSH4 0x1A318553 PUSH1 0xE2 SHL DUP2 MSTORE PUSH1 0x4 ADD PUSH1 0x40 MLOAD DUP1 SWAP2 SUB SWAP1 REVERT JUMPDEST PUSH1 0xD7 SLOAD PUSH0 SWAP1 PUSH2 0xFFFF AND PUSH2 0x204A JUMPI PUSH0 PUSH2 0x2069 JUMP JUMPDEST PUSH1 0xD7 SLOAD PUSH2 0x2710 SWAP1 PUSH2 0x205F SWAP1 PUSH2 0xFFFF AND CALLVALUE PUSH2 0x3593 JUMP JUMPDEST PUSH2 0x2069 SWAP2 SWAP1 PUSH2 0x35AA JUMP JUMPDEST SWAP1 POP PUSH2 0x20A0 PUSH1 0x40 MLOAD DUP1 PUSH1 0x40 ADD PUSH1 0x40 MSTORE DUP1 PUSH1 0x13 DUP2 MSTORE PUSH1 0x20 ADD PUSH19 0x31B932B0BA34B7B72332B2A0B6B7BAB73A1D1 PUSH1 0x6D SHL DUP2 MSTORE POP DUP3 PUSH2 0x2B65 JUMP JUMPDEST CALLVALUE DUP2 GT ISZERO PUSH2 0x20C1 JUMPI PUSH1 0x40 MLOAD PUSH4 0x58D620B3 PUSH1 0xE0 SHL DUP2 MSTORE PUSH1 0x4 ADD PUSH1 0x40 MLOAD DUP1 SWAP2 SUB SWAP1 REVERT JUMPDEST DUP1 ISZERO PUSH2 0x21CC JUMPI PUSH1 0xD7 SLOAD PUSH1 0x40 MLOAD PUSH0 SWAP2 PUSH1 0x1 PUSH1 0x30 SHL SWAP1 DIV PUSH1 0x1 PUSH1 0x1 PUSH1 0xA0 SHL SUB AND SWAP1 DUP4 SWAP1 DUP4 DUP2 DUP2 DUP2 DUP6 DUP8 GAS CALL SWAP3 POP POP POP RETURNDATASIZE DUP1 PUSH0 DUP2 EQ PUSH2 0x2118 JUMPI PUSH1 0x40 MLOAD SWAP2 POP PUSH1 0x1F NOT PUSH1 0x3F RETURNDATASIZE ADD AND DUP3 ADD PUSH1 0x40 MSTORE RETURNDATASIZE DUP3 MSTORE RETURNDATASIZE PUSH0 PUSH1 0x20 DUP5 ADD RETURNDATACOPY PUSH2 0x211D JUMP JUMPDEST PUSH1 0x60 SWAP2 POP JUMPDEST POP POP SWAP1 POP DUP1 PUSH2 0x2179 JUMPI PUSH1 0x40 MLOAD PUSH3 0x461BCD PUSH1 0xE5 SHL DUP2 MSTORE PUSH1 0x20 PUSH1 0x4 DUP3 ADD MSTORE PUSH1 0x22 PUSH1 0x24 DUP3 ADD MSTORE PUSH32 0x4661696C656420746F206465647563742042534B54204372656174696F6E2046 PUSH1 0x44 DUP3 ADD MSTORE PUSH2 0x6565 PUSH1 0xF0 SHL PUSH1 0x64 DUP3 ADD MSTORE PUSH1 0x84 ADD PUSH2 0xA4B JUMP JUMPDEST PUSH1 0xD7 SLOAD PUSH1 0x40 DUP1 MLOAD DUP5 DUP2 MSTORE PUSH2 0xFFFF DUP4 AND PUSH1 0x20 DUP3 ADD MSTORE PUSH1 0x1 PUSH1 0x30 SHL SWAP1 SWAP3 DIV PUSH1 0x1 PUSH1 0x1 PUSH1 0xA0 SHL SUB AND SWAP2 PUSH32 0x6C1C6AEF6F81F33F015F6B0F806CF9F51F79D83873BFEE2E930471CF78832B2D SWAP2 ADD PUSH1 0x40 MLOAD DUP1 SWAP2 SUB SWAP1 LOG2 POP JUMPDEST PUSH2 0x21D6 DUP2 CALLVALUE PUSH2 0x3435 JUMP JUMPDEST SWAP4 SWAP3 POP POP POP JUMP JUMPDEST PUSH1 0xCE SLOAD PUSH0 SWAP1 DUP2 SWAP1 DUP2 SWAP1 PUSH1 0x1 PUSH1 0x1 PUSH1 0xA0 SHL SUB AND PUSH4 0x3A105CFB PUSH1 0xE0 SHL ADDRESS PUSH2 0x2205 PUSH1 0x20 DUP9 ADD DUP9 PUSH2 0x3448 JUMP JUMPDEST PUSH2 0x2212 PUSH1 0x40 DUP11 ADD DUP11 PUSH2 0x35C9 JUMP JUMPDEST PUSH1 0x40 MLOAD PUSH1 0x24 ADD PUSH2 0x2226 SWAP6 SWAP5 SWAP4 SWAP3 SWAP2 SWAP1 PUSH2 0x360E JUMP JUMPDEST PUSH1 0x40 DUP1 MLOAD PUSH1 0x1F NOT DUP2 DUP5 SUB ADD DUP2 MSTORE SWAP2 DUP2 MSTORE PUSH1 0x20 DUP3 ADD DUP1 MLOAD PUSH1 0x1 PUSH1 0x1 PUSH1 0xE0 SHL SUB AND PUSH1 0x1 PUSH1 0x1 PUSH1 0xE0 SHL SUB NOT SWAP1 SWAP5 AND SWAP4 SWAP1 SWAP4 OR SWAP1 SWAP3 MSTORE SWAP1 MLOAD PUSH2 0x2263 SWAP1 PUSH2 0x2E4C JUMP JUMPDEST PUSH2 0x226E SWAP3 SWAP2 SWAP1 PUSH2 0x367F JUMP JUMPDEST PUSH1 0x40 MLOAD DUP1 SWAP2 SUB SWAP1 PUSH0 CREATE DUP1 ISZERO DUP1 ISZERO PUSH2 0x2287 JUMPI RETURNDATASIZE PUSH0 PUSH0 RETURNDATACOPY RETURNDATASIZE PUSH0 REVERT JUMPDEST POP PUSH1 0x40 DUP1 MLOAD PUSH2 0x140 DUP2 ADD SWAP1 SWAP2 MSTORE SWAP1 SWAP3 POP DUP3 SWAP2 POP PUSH0 SWAP1 DUP1 PUSH2 0x22A7 DUP8 DUP1 PUSH2 0x3448 JUMP JUMPDEST DUP1 DUP1 PUSH1 0x1F ADD PUSH1 0x20 DUP1 SWAP2 DIV MUL PUSH1 0x20 ADD PUSH1 0x40 MLOAD SWAP1 DUP2 ADD PUSH1 0x40 MSTORE DUP1 SWAP4 SWAP3 SWAP2 SWAP1 DUP2 DUP2 MSTORE PUSH1 0x20 ADD DUP4 DUP4 DUP1 DUP3 DUP5 CALLDATACOPY PUSH0 SWAP3 ADD SWAP2 SWAP1 SWAP2 MSTORE POP POP POP SWAP1 DUP3 MSTORE POP PUSH1 0x20 SWAP1 DUP2 ADD SWAP1 PUSH2 0x22EF SWAP1 DUP9 ADD DUP9 PUSH2 0x3448 JUMP JUMPDEST DUP1 DUP1 PUSH1 0x1F ADD PUSH1 0x20 DUP1 SWAP2 DIV MUL PUSH1 0x20 ADD PUSH1 0x40 MLOAD SWAP1 DUP2 ADD PUSH1 0x40 MSTORE DUP1 SWAP4 SWAP3 SWAP2 SWAP1 DUP2 DUP2 MSTORE PUSH1 0x20 ADD DUP4 DUP4 DUP1 DUP3 DUP5 CALLDATACOPY PUSH0 SWAP3 ADD SWAP2 SWAP1 SWAP2 MSTORE POP POP POP SWAP1 DUP3 MSTORE POP CALLER PUSH1 0x20 DUP3 ADD MSTORE ADDRESS PUSH1 0x40 DUP1 DUP4 ADD SWAP2 SWAP1 SWAP2 MSTORE PUSH1 0x60 SWAP1 SWAP2 ADD SWAP1 PUSH2 0x2347 SWAP1 DUP9 ADD DUP9 PUSH2 0x35C9 JUMP JUMPDEST DUP1 DUP1 PUSH1 0x20 MUL PUSH1 0x20 ADD PUSH1 0x40 MLOAD SWAP1 DUP2 ADD PUSH1 0x40 MSTORE DUP1 SWAP4 SWAP3 SWAP2 SWAP1 DUP2 DUP2 MSTORE PUSH1 0x20 ADD DUP4 DUP4 PUSH1 0x20 MUL DUP1 DUP3 DUP5 CALLDATACOPY PUSH0 SWAP3 ADD SWAP2 SWAP1 SWAP2 MSTORE POP POP POP SWAP1 DUP3 MSTORE POP PUSH1 0x20 ADD PUSH2 0x238A PUSH1 0x60 DUP9 ADD DUP9 PUSH2 0x35C9 JUMP JUMPDEST DUP1 DUP1 PUSH1 0x20 MUL PUSH1 0x20 ADD PUSH1 0x40 MLOAD SWAP1 DUP2 ADD PUSH1 0x40 MSTORE DUP1 SWAP4 SWAP3 SWAP2 SWAP1 DUP2 DUP2 MSTORE PUSH1 0x20 ADD DUP4 DUP4 PUSH1 0x20 MUL DUP1 DUP3 DUP5 CALLDATACOPY PUSH0 SWAP3 ADD SWAP2 SWAP1 SWAP2 MSTORE POP POP POP SWAP1 DUP3 MSTORE POP PUSH1 0x1 PUSH1 0x1 PUSH1 0xA0 SHL SUB DUP6 AND PUSH1 0x20 DUP3 ADD MSTORE PUSH1 0x40 ADD PUSH2 0x23DC PUSH1 0x80 DUP9 ADD DUP9 PUSH2 0x3448 JUMP JUMPDEST DUP1 DUP1 PUSH1 0x1F ADD PUSH1 0x20 DUP1 SWAP2 DIV MUL PUSH1 0x20 ADD PUSH1 0x40 MLOAD SWAP1 DUP2 ADD PUSH1 0x40 MSTORE DUP1 SWAP4 SWAP3 SWAP2 SWAP1 DUP2 DUP2 MSTORE PUSH1 0x20 ADD DUP4 DUP4 DUP1 DUP3 DUP5 CALLDATACOPY PUSH0 SWAP3 ADD SWAP2 SWAP1 SWAP2 MSTORE POP POP POP SWAP1 DUP3 MSTORE POP PUSH1 0x20 ADD PUSH2 0x2422 PUSH1 0xC0 DUP9 ADD DUP9 PUSH2 0x3448 JUMP JUMPDEST DUP1 DUP1 PUSH1 0x1F ADD PUSH1 0x20 DUP1 SWAP2 DIV MUL PUSH1 0x20 ADD PUSH1 0x40 MLOAD SWAP1 DUP2 ADD PUSH1 0x40 MSTORE DUP1 SWAP4 SWAP3 SWAP2 SWAP1 DUP2 DUP2 MSTORE PUSH1 0x20 ADD DUP4 DUP4 DUP1 DUP3 DUP5 CALLDATACOPY PUSH0 SWAP3 ADD SWAP2 SWAP1 SWAP2 MSTORE POP POP POP SWAP1 DUP3 MSTORE POP PUSH1 0x20 ADD PUSH2 0x2468 PUSH1 0xE0 DUP9 ADD DUP9 PUSH2 0x3448 JUMP JUMPDEST DUP1 DUP1 PUSH1 0x1F ADD PUSH1 0x20 DUP1 SWAP2 DIV MUL PUSH1 0x20 ADD PUSH1 0x40 MLOAD SWAP1 DUP2 ADD PUSH1 0x40 MSTORE DUP1 SWAP4 SWAP3 SWAP2 SWAP1 DUP2 DUP2 MSTORE PUSH1 0x20 ADD DUP4 DUP4 DUP1 DUP3 DUP5 CALLDATACOPY PUSH0 SWAP3 ADD DUP3 SWAP1 MSTORE POP SWAP4 SWAP1 SWAP5 MSTORE POP POP PUSH1 0xCD SLOAD PUSH1 0x40 MLOAD SWAP4 SWAP5 POP SWAP1 SWAP3 PUSH1 0x1 PUSH1 0x1 PUSH1 0xA0 SHL SUB SWAP1 SWAP2 AND SWAP2 POP PUSH4 0x478ECD9 PUSH1 0xE4 SHL SWAP1 PUSH2 0x24CC SWAP1 DUP6 SWAP1 PUSH1 0x24 ADD PUSH2 0x36A2 JUMP JUMPDEST PUSH1 0x40 DUP1 MLOAD PUSH1 0x1F NOT DUP2 DUP5 SUB ADD DUP2 MSTORE SWAP2 DUP2 MSTORE PUSH1 0x20 DUP3 ADD DUP1 MLOAD PUSH1 0x1 PUSH1 0x1 PUSH1 0xE0 SHL SUB AND PUSH1 0x1 PUSH1 0x1 PUSH1 0xE0 SHL SUB NOT SWAP1 SWAP5 AND SWAP4 SWAP1 SWAP4 OR SWAP1 SWAP3 MSTORE SWAP1 MLOAD PUSH2 0x2509 SWAP1 PUSH2 0x2E4C JUMP JUMPDEST PUSH2 0x2514 SWAP3 SWAP2 SWAP1 PUSH2 0x367F JUMP JUMPDEST PUSH1 0x40 MLOAD DUP1 SWAP2 SUB SWAP1 PUSH0 CREATE DUP1 ISZERO DUP1 ISZERO PUSH2 0x252D JUMPI RETURNDATASIZE PUSH0 PUSH0 RETURNDATACOPY RETURNDATASIZE PUSH0 REVERT JUMPDEST POP SWAP7 SWAP4 SWAP6 POP SWAP3 SWAP4 POP POP POP POP JUMP JUMPDEST PUSH0 PUSH1 0x60 DUP2 PUSH2 0x254B PUSH1 0x40 DUP7 ADD DUP7 PUSH2 0x35C9 JUMP JUMPDEST SWAP1 POP SWAP1 POP DUP1 PUSH1 0x1 PUSH1 0x1 PUSH1 0x40 SHL SUB DUP2 GT ISZERO PUSH2 0x2567 JUMPI PUSH2 0x2567 PUSH2 0x3042 JUMP JUMPDEST PUSH1 0x40 MLOAD SWAP1 DUP1 DUP3 MSTORE DUP1 PUSH1 0x20 MUL PUSH1 0x20 ADD DUP3 ADD PUSH1 0x40 MSTORE DUP1 ISZERO PUSH2 0x2590 JUMPI DUP2 PUSH1 0x20 ADD PUSH1 0x20 DUP3 MUL DUP1 CALLDATASIZE DUP4 CALLDATACOPY ADD SWAP1 POP JUMPDEST POP PUSH0 SWAP4 POP SWAP2 POP DUP3 JUMPDEST DUP2 DUP2 LT ISZERO PUSH2 0x2873 JUMPI PUSH0 PUSH2 0x25AC PUSH1 0x1 DUP5 PUSH2 0x3435 JUMP JUMPDEST DUP3 EQ PUSH2 0x25F3 JUMPI PUSH2 0x2710 PUSH2 0x25C2 PUSH1 0x60 DUP10 ADD DUP10 PUSH2 0x35C9 JUMP JUMPDEST DUP5 DUP2 DUP2 LT PUSH2 0x25D2 JUMPI PUSH2 0x25D2 PUSH2 0x325C JUMP JUMPDEST SWAP1 POP PUSH1 0x20 MUL ADD CALLDATALOAD DUP8 PUSH2 0x25E4 SWAP2 SWAP1 PUSH2 0x3593 JUMP JUMPDEST PUSH2 0x25EE SWAP2 SWAP1 PUSH2 0x35AA JUMP JUMPDEST PUSH2 0x25FD JUMP JUMPDEST PUSH2 0x25FD DUP6 DUP8 PUSH2 0x3435 JUMP JUMPDEST PUSH1 0xCC SLOAD SWAP1 SWAP2 POP PUSH0 SWAP1 PUSH2 0x2644 SWAP1 PUSH1 0x1 PUSH1 0x1 PUSH1 0xA0 SHL SUB AND PUSH2 0x261F PUSH1 0x40 DUP12 ADD DUP12 PUSH2 0x35C9 JUMP JUMPDEST DUP7 DUP2 DUP2 LT PUSH2 0x262F JUMPI PUSH2 0x262F PUSH2 0x325C JUMP JUMPDEST SWAP1 POP PUSH1 0x20 MUL ADD PUSH1 0x20 DUP2 ADD SWAP1 PUSH2 0x8C3 SWAP2 SWAP1 PUSH2 0x2E9B JUMP JUMPDEST SWAP1 POP PUSH0 PUSH2 0x2710 PUSH2 0x2658 PUSH1 0xA0 DUP12 ADD CALLDATALOAD DUP3 PUSH2 0x3435 JUMP JUMPDEST PUSH2 0x2662 DUP6 DUP6 PUSH2 0x1702 JUMP JUMPDEST PUSH2 0x266C SWAP2 SWAP1 PUSH2 0x3593 JUMP JUMPDEST PUSH2 0x2676 SWAP2 SWAP1 PUSH2 0x35AA JUMP JUMPDEST SWAP1 POP PUSH0 PUSH2 0x2686 PUSH1 0x40 DUP12 ADD DUP12 PUSH2 0x35C9 JUMP JUMPDEST DUP7 DUP2 DUP2 LT PUSH2 0x2696 JUMPI PUSH2 0x2696 PUSH2 0x325C JUMP JUMPDEST SWAP1 POP PUSH1 0x20 MUL ADD PUSH1 0x20 DUP2 ADD SWAP1 PUSH2 0x26AB SWAP2 SWAP1 PUSH2 0x2E9B JUMP JUMPDEST PUSH1 0x40 MLOAD PUSH4 0x70A08231 PUSH1 0xE0 SHL DUP2 MSTORE PUSH1 0x1 PUSH1 0x1 PUSH1 0xA0 SHL SUB DUP14 DUP2 AND PUSH1 0x4 DUP4 ADD MSTORE SWAP2 SWAP1 SWAP2 AND SWAP1 PUSH4 0x70A08231 SWAP1 PUSH1 0x24 ADD PUSH1 0x20 PUSH1 0x40 MLOAD DUP1 DUP4 SUB DUP2 DUP7 GAS STATICCALL ISZERO DUP1 ISZERO PUSH2 0x26F1 JUMPI RETURNDATASIZE PUSH0 PUSH0 RETURNDATACOPY RETURNDATASIZE PUSH0 REVERT JUMPDEST POP POP POP POP PUSH1 0x40 MLOAD RETURNDATASIZE PUSH1 0x1F NOT PUSH1 0x1F DUP3 ADD AND DUP3 ADD DUP1 PUSH1 0x40 MSTORE POP DUP2 ADD SWAP1 PUSH2 0x2715 SWAP2 SWAP1 PUSH2 0x340A JUMP JUMPDEST SWAP1 POP PUSH1 0xCB PUSH0 SWAP1 SLOAD SWAP1 PUSH2 0x100 EXP SWAP1 DIV PUSH1 0x1 PUSH1 0x1 PUSH1 0xA0 SHL SUB AND PUSH1 0x1 PUSH1 0x1 PUSH1 0xA0 SHL SUB AND PUSH4 0xB6F9DE95 DUP6 DUP5 DUP7 DUP16 DUP16 PUSH2 0x100 ADD CALLDATALOAD PUSH1 0x40 MLOAD DUP7 PUSH4 0xFFFFFFFF AND PUSH1 0xE0 SHL DUP2 MSTORE PUSH1 0x4 ADD PUSH2 0x2763 SWAP5 SWAP4 SWAP3 SWAP2 SWAP1 PUSH2 0x37C2 JUMP JUMPDEST PUSH0 PUSH1 0x40 MLOAD DUP1 DUP4 SUB DUP2 DUP6 DUP9 DUP1 EXTCODESIZE ISZERO DUP1 ISZERO PUSH2 0x277A JUMPI PUSH0 PUSH0 REVERT JUMPDEST POP GAS CALL ISZERO DUP1 ISZERO PUSH2 0x278C JUMPI RETURNDATASIZE PUSH0 PUSH0 RETURNDATACOPY RETURNDATASIZE PUSH0 REVERT JUMPDEST POP POP POP POP POP DUP4 DUP9 PUSH2 0x279D SWAP2 SWAP1 PUSH2 0x37F6 JUMP JUMPDEST SWAP8 POP DUP1 PUSH2 0x27AD PUSH1 0x40 DUP13 ADD DUP13 PUSH2 0x35C9 JUMP JUMPDEST DUP8 DUP2 DUP2 LT PUSH2 0x27BD JUMPI PUSH2 0x27BD PUSH2 0x325C JUMP JUMPDEST SWAP1 POP PUSH1 0x20 MUL ADD PUSH1 0x20 DUP2 ADD SWAP1 PUSH2 0x27D2 SWAP2 SWAP1 PUSH2 0x2E9B JUMP JUMPDEST PUSH1 0x40 MLOAD PUSH4 0x70A08231 PUSH1 0xE0 SHL DUP2 MSTORE PUSH1 0x1 PUSH1 0x1 PUSH1 0xA0 SHL SUB DUP15 DUP2 AND PUSH1 0x4 DUP4 ADD MSTORE SWAP2 SWAP1 SWAP2 AND SWAP1 PUSH4 0x70A08231 SWAP1 PUSH1 0x24 ADD PUSH1 0x20 PUSH1 0x40 MLOAD DUP1 DUP4 SUB DUP2 DUP7 GAS STATICCALL ISZERO DUP1 ISZERO PUSH2 0x2818 JUMPI RETURNDATASIZE PUSH0 PUSH0 RETURNDATACOPY RETURNDATASIZE PUSH0 REVERT JUMPDEST POP POP POP POP PUSH1 0x40 MLOAD RETURNDATASIZE PUSH1 0x1F NOT PUSH1 0x1F DUP3 ADD AND DUP3 ADD DUP1 PUSH1 0x40 MSTORE POP DUP2 ADD SWAP1 PUSH2 0x283C SWAP2 SWAP1 PUSH2 0x340A JUMP JUMPDEST PUSH2 0x2846 SWAP2 SWAP1 PUSH2 0x3435 JUMP JUMPDEST DUP8 DUP7 DUP2 MLOAD DUP2 LT PUSH2 0x2858 JUMPI PUSH2 0x2858 PUSH2 0x325C JUMP JUMPDEST PUSH1 0x20 MUL PUSH1 0x20 ADD ADD DUP2 DUP2 MSTORE POP POP DUP5 PUSH1 0x1 ADD SWAP5 POP POP POP POP POP PUSH2 0x2598 JUMP JUMPDEST POP POP SWAP4 POP SWAP4 SWAP2 POP POP JUMP JUMPDEST PUSH1 0x1 PUSH1 0x97 SSTORE JUMP JUMPDEST PUSH0 DUP3 DUP2 PUSH1 0x1 DUP5 AND PUSH2 0x289D JUMPI PUSH8 0xDE0B6B3A7640000 PUSH2 0x289F JUMP JUMPDEST DUP2 JUMPDEST SWAP1 POP PUSH1 0x1 DUP5 SWAP1 SHR SWAP4 POP JUMPDEST DUP4 ISZERO PUSH2 0x28DD JUMPI PUSH2 0x28B9 DUP3 DUP4 PUSH2 0x2BAA JUMP JUMPDEST SWAP2 POP PUSH1 0x1 DUP5 AND ISZERO PUSH2 0x28D1 JUMPI PUSH2 0x28CE DUP2 DUP4 PUSH2 0x2BAA JUMP JUMPDEST SWAP1 POP JUMPDEST PUSH1 0x1 DUP5 SWAP1 SHR SWAP4 POP PUSH2 0x28A9 JUMP JUMPDEST DUP1 JUMPDEST SWAP6 SWAP5 POP POP POP POP POP JUMP JUMPDEST PUSH0 SLOAD PUSH2 0x100 SWAP1 DIV PUSH1 0xFF AND PUSH2 0x290E JUMPI PUSH1 0x40 MLOAD PUSH3 0x461BCD PUSH1 0xE5 SHL DUP2 MSTORE PUSH1 0x4 ADD PUSH2 0xA4B SWAP1 PUSH2 0x3809 JUMP JUMPDEST PUSH2 0x2916 PUSH2 0x2C5C JUMP JUMPDEST JUMP JUMPDEST PUSH0 PUSH2 0x2926 PUSH1 0x20 DUP4 ADD DUP4 PUSH2 0x2E9B JUMP JUMPDEST PUSH1 0x1 PUSH1 0x1 PUSH1 0xA0 SHL SUB AND EQ DUP1 PUSH2 0x2952 JUMPI POP PUSH0 PUSH2 0x2947 PUSH1 0x40 DUP4 ADD PUSH1 0x20 DUP5 ADD PUSH2 0x2E9B JUMP JUMPDEST PUSH1 0x1 PUSH1 0x1 PUSH1 0xA0 SHL SUB AND EQ JUMPDEST DUP1 PUSH2 0x2974 JUMPI POP PUSH0 PUSH2 0x2969 PUSH1 0x60 DUP4 ADD PUSH1 0x40 DUP5 ADD PUSH2 0x2E9B JUMP JUMPDEST PUSH1 0x1 PUSH1 0x1 PUSH1 0xA0 SHL SUB AND EQ JUMPDEST DUP1 PUSH2 0x2996 JUMPI POP PUSH0 PUSH2 0x298B PUSH1 0x80 DUP4 ADD PUSH1 0x60 DUP5 ADD PUSH2 0x2E9B JUMP JUMPDEST PUSH1 0x1 PUSH1 0x1 PUSH1 0xA0 SHL SUB AND EQ JUMPDEST DUP1 PUSH2 0x29B8 JUMPI POP PUSH0 PUSH2 0x29AD PUSH1 0xA0 DUP4 ADD PUSH1 0x80 DUP5 ADD PUSH2 0x2E9B JUMP JUMPDEST PUSH1 0x1 PUSH1 0x1 PUSH1 0xA0 SHL SUB AND EQ JUMPDEST DUP1 PUSH2 0x29DA JUMPI POP PUSH0 PUSH2 0x29CF PUSH1 0xC0 DUP4 ADD PUSH1 0xA0 DUP5 ADD PUSH2 0x2E9B JUMP JUMPDEST PUSH1 0x1 PUSH1 0x1 PUSH1 0xA0 SHL SUB AND EQ JUMPDEST DUP1 PUSH2 0x29FC JUMPI POP PUSH0 PUSH2 0x29F1 PUSH1 0xE0 DUP4 ADD PUSH1 0xC0 DUP5 ADD PUSH2 0x2E9B JUMP JUMPDEST PUSH1 0x1 PUSH1 0x1 PUSH1 0xA0 SHL SUB AND EQ JUMPDEST DUP1 PUSH2 0x2A1F JUMPI POP PUSH0 PUSH2 0x2A14 PUSH2 0x100 DUP4 ADD PUSH1 0xE0 DUP5 ADD PUSH2 0x2E9B JUMP JUMPDEST PUSH1 0x1 PUSH1 0x1 PUSH1 0xA0 SHL SUB AND EQ JUMPDEST ISZERO PUSH2 0x2A3D JUMPI PUSH1 0x40 MLOAD PUSH4 0xE6C4247B PUSH1 0xE0 SHL DUP2 MSTORE PUSH1 0x4 ADD PUSH1 0x40 MLOAD DUP1 SWAP2 SUB SWAP1 REVERT JUMPDEST PUSH1 0x64 PUSH2 0x2A51 PUSH2 0x120 DUP4 ADD PUSH2 0x100 DUP5 ADD PUSH2 0x2EDC JUMP JUMPDEST PUSH2 0xFFFF AND LT DUP1 PUSH2 0x2A77 JUMPI POP PUSH2 0x1388 PUSH2 0x2A71 PUSH2 0x120 DUP4 ADD PUSH2 0x100 DUP5 ADD PUSH2 0x2EDC JUMP JUMPDEST PUSH2 0xFFFF AND GT JUMPDEST ISZERO PUSH2 0x2ABD JUMPI PUSH2 0x2A8E PUSH2 0x120 DUP3 ADD PUSH2 0x100 DUP4 ADD PUSH2 0x2EDC JUMP JUMPDEST PUSH1 0x40 MLOAD PUSH4 0x2A8C162F PUSH1 0xE0 SHL DUP2 MSTORE PUSH2 0xFFFF SWAP1 SWAP2 AND PUSH1 0x4 DUP3 ADD MSTORE PUSH1 0x64 PUSH1 0x24 DUP3 ADD DUP2 SWAP1 MSTORE PUSH2 0x1388 PUSH1 0x44 DUP4 ADD MSTORE ADD PUSH2 0xA4B JUMP JUMPDEST PUSH2 0x2ACB PUSH2 0x140 DUP3 ADD DUP3 PUSH2 0x3448 JUMP JUMPDEST SWAP1 POP PUSH0 SUB PUSH2 0x16FF JUMPI PUSH1 0x40 MLOAD PUSH4 0x24321863 PUSH1 0xE2 SHL DUP2 MSTORE PUSH1 0x20 PUSH1 0x4 DUP3 ADD MSTORE PUSH1 0xD PUSH1 0x24 DUP3 ADD MSTORE PUSH13 0x636F6C6C656374696F6E557269 PUSH1 0x98 SHL PUSH1 0x44 DUP3 ADD MSTORE PUSH1 0x64 ADD PUSH2 0xA4B JUMP JUMPDEST PUSH2 0x2B16 DUP3 DUP3 PUSH2 0x112C JUMP JUMPDEST PUSH2 0xD2D JUMPI PUSH2 0x2B23 DUP2 PUSH2 0x2C82 JUMP JUMPDEST PUSH2 0x2B2E DUP4 PUSH1 0x20 PUSH2 0x2C94 JUMP JUMPDEST PUSH1 0x40 MLOAD PUSH1 0x20 ADD PUSH2 0x2B3F SWAP3 SWAP2 SWAP1 PUSH2 0x386B JUMP JUMPDEST PUSH1 0x40 DUP1 MLOAD PUSH1 0x1F NOT DUP2 DUP5 SUB ADD DUP2 MSTORE SWAP1 DUP3 SWAP1 MSTORE PUSH3 0x461BCD PUSH1 0xE5 SHL DUP3 MSTORE PUSH2 0xA4B SWAP2 PUSH1 0x4 ADD PUSH2 0x2F4D JUMP JUMPDEST PUSH2 0xD2D DUP3 DUP3 PUSH1 0x40 MLOAD PUSH1 0x24 ADD PUSH2 0x2B7B SWAP3 SWAP2 SWAP1 PUSH2 0x38C0 JUMP JUMPDEST PUSH1 0x40 DUP1 MLOAD PUSH1 0x1F NOT DUP2 DUP5 SUB ADD DUP2 MSTORE SWAP2 SWAP1 MSTORE PUSH1 0x20 DUP2 ADD DUP1 MLOAD PUSH1 0x1 PUSH1 0x1 PUSH1 0xE0 SHL SUB AND PUSH4 0x2D839CB3 PUSH1 0xE2 SHL OR SWAP1 MSTORE PUSH2 0x2E29 JUMP JUMPDEST PUSH0 DUP1 DUP1 PUSH0 NOT DUP5 DUP7 MULMOD DUP5 DUP7 MUL SWAP3 POP DUP3 DUP2 LT DUP4 DUP3 SUB SUB SWAP2 POP POP DUP1 PUSH0 SUB PUSH2 0x2BDB JUMPI POP PUSH8 0xDE0B6B3A7640000 SWAP1 DIV SWAP1 POP PUSH2 0x9C0 JUMP JUMPDEST PUSH8 0xDE0B6B3A7640000 DUP2 LT PUSH2 0x2C0D JUMPI PUSH1 0x40 MLOAD PUSH4 0x5173648D PUSH1 0xE0 SHL DUP2 MSTORE PUSH1 0x4 DUP2 ADD DUP7 SWAP1 MSTORE PUSH1 0x24 DUP2 ADD DUP6 SWAP1 MSTORE PUSH1 0x44 ADD PUSH2 0xA4B JUMP JUMPDEST PUSH0 PUSH8 0xDE0B6B3A7640000 DUP6 DUP8 MULMOD PUSH3 0x40000 DUP2 DUP6 SUB DIV SWAP4 LT SWAP1 SWAP2 SUB PUSH1 0x1 PUSH1 0xEE SHL MUL SWAP2 SWAP1 SWAP2 OR PUSH32 0xACCB18165BD6FE31AE1CF318DC5B51EEE0E1BA569B88CD74C1773B91FAC10669 MUL SWAP2 POP POP SWAP3 SWAP2 POP POP JUMP JUMPDEST PUSH0 SLOAD PUSH2 0x100 SWAP1 DIV PUSH1 0xFF AND PUSH2 0x287D JUMPI PUSH1 0x40 MLOAD PUSH3 0x461BCD PUSH1 0xE5 SHL DUP2 MSTORE PUSH1 0x4 ADD PUSH2 0xA4B SWAP1 PUSH2 0x3809 JUMP JUMPDEST PUSH1 0x60 PUSH2 0x9C0 PUSH1 0x1 PUSH1 0x1 PUSH1 0xA0 SHL SUB DUP4 AND PUSH1 0x14 JUMPDEST PUSH1 0x60 PUSH0 PUSH2 0x2CA2 DUP4 PUSH1 0x2 PUSH2 0x3593 JUMP JUMPDEST PUSH2 0x2CAD SWAP1 PUSH1 0x2 PUSH2 0x37F6 JUMP JUMPDEST PUSH1 0x1 PUSH1 0x1 PUSH1 0x40 SHL SUB DUP2 GT ISZERO PUSH2 0x2CC4 JUMPI PUSH2 0x2CC4 PUSH2 0x3042 JUMP JUMPDEST PUSH1 0x40 MLOAD SWAP1 DUP1 DUP3 MSTORE DUP1 PUSH1 0x1F ADD PUSH1 0x1F NOT AND PUSH1 0x20 ADD DUP3 ADD PUSH1 0x40 MSTORE DUP1 ISZERO PUSH2 0x2CEE JUMPI PUSH1 0x20 DUP3 ADD DUP2 DUP1 CALLDATASIZE DUP4 CALLDATACOPY ADD SWAP1 POP JUMPDEST POP SWAP1 POP PUSH1 0x3 PUSH1 0xFC SHL DUP2 PUSH0 DUP2 MLOAD DUP2 LT PUSH2 0x2D08 JUMPI PUSH2 0x2D08 PUSH2 0x325C JUMP JUMPDEST PUSH1 0x20 ADD ADD SWAP1 PUSH1 0x1 PUSH1 0x1 PUSH1 0xF8 SHL SUB NOT AND SWAP1 DUP2 PUSH0 BYTE SWAP1 MSTORE8 POP PUSH1 0xF PUSH1 0xFB SHL DUP2 PUSH1 0x1 DUP2 MLOAD DUP2 LT PUSH2 0x2D36 JUMPI PUSH2 0x2D36 PUSH2 0x325C JUMP JUMPDEST PUSH1 0x20 ADD ADD SWAP1 PUSH1 0x1 PUSH1 0x1 PUSH1 0xF8 SHL SUB NOT AND SWAP1 DUP2 PUSH0 BYTE SWAP1 MSTORE8 POP PUSH0 PUSH2 0x2D58 DUP5 PUSH1 0x2 PUSH2 0x3593 JUMP JUMPDEST PUSH2 0x2D63 SWAP1 PUSH1 0x1 PUSH2 0x37F6 JUMP JUMPDEST SWAP1 POP JUMPDEST PUSH1 0x1 DUP2 GT ISZERO PUSH2 0x2DDA JUMPI PUSH16 0x181899199A1A9B1B9C1CB0B131B232B3 PUSH1 0x81 SHL DUP6 PUSH1 0xF AND PUSH1 0x10 DUP2 LT PUSH2 0x2D97 JUMPI PUSH2 0x2D97 PUSH2 0x325C JUMP JUMPDEST BYTE PUSH1 0xF8 SHL DUP3 DUP3 DUP2 MLOAD DUP2 LT PUSH2 0x2DAD JUMPI PUSH2 0x2DAD PUSH2 0x325C JUMP JUMPDEST PUSH1 0x20 ADD ADD SWAP1 PUSH1 0x1 PUSH1 0x1 PUSH1 0xF8 SHL SUB NOT AND SWAP1 DUP2 PUSH0 BYTE SWAP1 MSTORE8 POP PUSH1 0x4 SWAP5 SWAP1 SWAP5 SHR SWAP4 PUSH2 0x2DD3 DUP2 PUSH2 0x38E1 JUMP JUMPDEST SWAP1 POP PUSH2 0x2D66 JUMP JUMPDEST POP DUP4 ISZERO PUSH2 0x21D6 JUMPI PUSH1 0x40 MLOAD PUSH3 0x461BCD PUSH1 0xE5 SHL DUP2 MSTORE PUSH1 0x20 PUSH1 0x4 DUP3 ADD DUP2 SWAP1 MSTORE PUSH1 0x24 DUP3 ADD MSTORE PUSH32 0x537472696E67733A20686578206C656E67746820696E73756666696369656E74 PUSH1 0x44 DUP3 ADD MSTORE PUSH1 0x64 ADD PUSH2 0xA4B JUMP JUMPDEST PUSH2 0x16FF DUP2 PUSH0 PUSH11 0x636F6E736F6C652E6C6F67 SWAP1 POP PUSH0 PUSH0 DUP4 MLOAD PUSH1 0x20 DUP6 ADD DUP5 GAS STATICCALL POP POP POP JUMP JUMPDEST PUSH2 0x576 DUP1 PUSH2 0x38F7 DUP4 CODECOPY ADD SWAP1 JUMP JUMPDEST PUSH0 PUSH1 0x20 DUP3 DUP5 SUB SLT ISZERO PUSH2 0x2E69 JUMPI PUSH0 PUSH0 REVERT JUMPDEST DUP2 CALLDATALOAD PUSH1 0x1 PUSH1 0x1 PUSH1 0xE0 SHL SUB NOT DUP2 AND DUP2 EQ PUSH2 0x21D6 JUMPI PUSH0 PUSH0 REVERT JUMPDEST DUP1 CALLDATALOAD PUSH1 0x1 PUSH1 0x1 PUSH1 0xA0 SHL SUB DUP2 AND DUP2 EQ PUSH2 0x2E96 JUMPI PUSH0 PUSH0 REVERT JUMPDEST SWAP2 SWAP1 POP JUMP JUMPDEST PUSH0 PUSH1 0x20 DUP3 DUP5 SUB SLT ISZERO PUSH2 0x2EAB JUMPI PUSH0 PUSH0 REVERT JUMPDEST PUSH2 0x21D6 DUP3 PUSH2 0x2E80 JUMP JUMPDEST PUSH0 PUSH1 0x20 DUP3 DUP5 SUB SLT ISZERO PUSH2 0x2EC4 JUMPI PUSH0 PUSH0 REVERT JUMPDEST POP CALLDATALOAD SWAP2 SWAP1 POP JUMP JUMPDEST DUP1 CALLDATALOAD PUSH2 0xFFFF DUP2 AND DUP2 EQ PUSH2 0x2E96 JUMPI PUSH0 PUSH0 REVERT JUMPDEST PUSH0 PUSH1 0x20 DUP3 DUP5 SUB SLT ISZERO PUSH2 0x2EEC JUMPI PUSH0 PUSH0 REVERT JUMPDEST PUSH2 0x21D6 DUP3 PUSH2 0x2ECB JUMP JUMPDEST PUSH0 PUSH0 PUSH1 0x40 DUP4 DUP6 SUB SLT ISZERO PUSH2 0x2F06 JUMPI PUSH0 PUSH0 REVERT JUMPDEST DUP3 CALLDATALOAD SWAP2 POP PUSH2 0x2F16 PUSH1 0x20 DUP5 ADD PUSH2 0x2E80 JUMP JUMPDEST SWAP1 POP SWAP3 POP SWAP3 SWAP1 POP JUMP JUMPDEST PUSH0 DUP2 MLOAD DUP1 DUP5 MSTORE DUP1 PUSH1 0x20 DUP5 ADD PUSH1 0x20 DUP7 ADD MCOPY PUSH0 PUSH1 0x20 DUP3 DUP7 ADD ADD MSTORE PUSH1 0x20 PUSH1 0x1F NOT PUSH1 0x1F DUP4 ADD AND DUP6 ADD ADD SWAP2 POP POP SWAP3 SWAP2 POP POP JUMP JUMPDEST PUSH1 0x20 DUP2 MSTORE PUSH0 PUSH2 0x21D6 PUSH1 0x20 DUP4 ADD DUP5 PUSH2 0x2F1F JUMP JUMPDEST PUSH0 PUSH0 PUSH1 0x20 DUP4 DUP6 SUB SLT ISZERO PUSH2 0x2F70 JUMPI PUSH0 PUSH0 REVERT JUMPDEST DUP3 CALLDATALOAD PUSH1 0x1 PUSH1 0x1 PUSH1 0x40 SHL SUB DUP2 GT ISZERO PUSH2 0x2F85 JUMPI PUSH0 PUSH0 REVERT JUMPDEST DUP4 ADD PUSH1 0x1F DUP2 ADD DUP6 SGT PUSH2 0x2F95 JUMPI PUSH0 PUSH0 REVERT JUMPDEST DUP1 CALLDATALOAD PUSH1 0x1 PUSH1 0x1 PUSH1 0x40 SHL SUB DUP2 GT ISZERO PUSH2 0x2FAA JUMPI PUSH0 PUSH0 REVERT JUMPDEST DUP6 PUSH1 0x20 DUP3 DUP5 ADD ADD GT ISZERO PUSH2 0x2FBB JUMPI PUSH0 PUSH0 REVERT JUMPDEST PUSH1 0x20 SWAP2 SWAP1 SWAP2 ADD SWAP6 SWAP1 SWAP5 POP SWAP3 POP POP POP JUMP JUMPDEST PUSH0 PUSH0 PUSH0 PUSH1 0x60 DUP5 DUP7 SUB SLT ISZERO PUSH2 0x2FDD JUMPI PUSH0 PUSH0 REVERT JUMPDEST PUSH2 0x2FE6 DUP5 PUSH2 0x2ECB JUMP JUMPDEST SWAP3 POP PUSH2 0x2FF4 PUSH1 0x20 DUP6 ADD PUSH2 0x2ECB JUMP JUMPDEST SWAP2 POP PUSH2 0x3002 PUSH1 0x40 DUP6 ADD PUSH2 0x2ECB JUMP JUMPDEST SWAP1 POP SWAP3 POP SWAP3 POP SWAP3 JUMP JUMPDEST PUSH0 PUSH1 0x20 DUP3 DUP5 SUB SLT ISZERO PUSH2 0x301B JUMPI PUSH0 PUSH0 REVERT JUMPDEST DUP2 CALLDATALOAD PUSH1 0x1 PUSH1 0x1 PUSH1 0x40 SHL SUB DUP2 GT ISZERO PUSH2 0x3030 JUMPI PUSH0 PUSH0 REVERT JUMPDEST DUP3 ADD PUSH2 0x120 DUP2 DUP6 SUB SLT ISZERO PUSH2 0x21D6 JUMPI PUSH0 PUSH0 REVERT JUMPDEST PUSH4 0x4E487B71 PUSH1 0xE0 SHL PUSH0 MSTORE PUSH1 0x41 PUSH1 0x4 MSTORE PUSH1 0x24 PUSH0 REVERT JUMPDEST PUSH1 0x40 MLOAD PUSH1 0x1F DUP3 ADD PUSH1 0x1F NOT AND DUP2 ADD PUSH1 0x1 PUSH1 0x1 PUSH1 0x40 SHL SUB DUP2 GT DUP3 DUP3 LT OR ISZERO PUSH2 0x307E JUMPI PUSH2 0x307E PUSH2 0x3042 JUMP JUMPDEST PUSH1 0x40 MSTORE SWAP2 SWAP1 POP JUMP JUMPDEST PUSH0 PUSH1 0x1 PUSH1 0x1 PUSH1 0x40 SHL SUB DUP3 GT ISZERO PUSH2 0x309E JUMPI PUSH2 0x309E PUSH2 0x3042 JUMP JUMPDEST POP PUSH1 0x5 SHL PUSH1 0x20 ADD SWAP1 JUMP JUMPDEST PUSH0 PUSH0 PUSH1 0x40 DUP4 DUP6 SUB SLT ISZERO PUSH2 0x30B9 JUMPI PUSH0 PUSH0 REVERT JUMPDEST DUP3 CALLDATALOAD SWAP2 POP PUSH1 0x20 DUP4 ADD CALLDATALOAD PUSH1 0x1 PUSH1 0x1 PUSH1 0x40 SHL SUB DUP2 GT ISZERO PUSH2 0x30D5 JUMPI PUSH0 PUSH0 REVERT JUMPDEST DUP4 ADD PUSH1 0x1F DUP2 ADD DUP6 SGT PUSH2 0x30E5 JUMPI PUSH0 PUSH0 REVERT JUMPDEST DUP1 CALLDATALOAD PUSH2 0x30F8 PUSH2 0x30F3 DUP3 PUSH2 0x3086 JUMP JUMPDEST PUSH2 0x3056 JUMP JUMPDEST DUP1 DUP3 DUP3 MSTORE PUSH1 0x20 DUP3 ADD SWAP2 POP PUSH1 0x20 DUP4 PUSH1 0x5 SHL DUP6 ADD ADD SWAP3 POP DUP8 DUP4 GT ISZERO PUSH2 0x3119 JUMPI PUSH0 PUSH0 REVERT JUMPDEST PUSH1 0x20 DUP5 ADD SWAP4 POP JUMPDEST DUP3 DUP5 LT ISZERO PUSH2 0x3142 JUMPI PUSH2 0x3131 DUP5 PUSH2 0x2E80 JUMP JUMPDEST DUP3 MSTORE PUSH1 0x20 SWAP4 DUP5 ADD SWAP4 SWAP1 SWAP2 ADD SWAP1 PUSH2 0x3120 JUMP JUMPDEST DUP1 SWAP5 POP POP POP POP POP SWAP3 POP SWAP3 SWAP1 POP JUMP JUMPDEST PUSH0 PUSH0 PUSH1 0x40 DUP4 DUP6 SUB SLT ISZERO PUSH2 0x3161 JUMPI PUSH0 PUSH0 REVERT JUMPDEST POP POP DUP1 CALLDATALOAD SWAP3 PUSH1 0x20 SWAP1 SWAP2 ADD CALLDATALOAD SWAP2 POP JUMP JUMPDEST PUSH0 PUSH0 PUSH1 0x40 DUP4 DUP6 SUB SLT ISZERO PUSH2 0x3181 JUMPI PUSH0 PUSH0 REVERT JUMPDEST PUSH2 0x318A DUP4 PUSH2 0x2E80 JUMP JUMPDEST SWAP2 POP PUSH2 0x2F16 PUSH1 0x20 DUP5 ADD PUSH2 0x2E80 JUMP JUMPDEST PUSH0 DUP2 MLOAD DUP1 DUP5 MSTORE PUSH1 0x20 DUP5 ADD SWAP4 POP PUSH1 0x20 DUP4 ADD PUSH0 JUMPDEST DUP3 DUP2 LT ISZERO PUSH2 0x31D1 JUMPI DUP2 MLOAD PUSH1 0x1 PUSH1 0x1 PUSH1 0xA0 SHL SUB AND DUP7 MSTORE PUSH1 0x20 SWAP6 DUP7 ADD SWAP6 SWAP1 SWAP2 ADD SWAP1 PUSH1 0x1 ADD PUSH2 0x31AA JUMP JUMPDEST POP SWAP4 SWAP5 SWAP4 POP POP POP POP JUMP JUMPDEST PUSH1 0x20 DUP2 MSTORE PUSH0 PUSH2 0x21D6 PUSH1 0x20 DUP4 ADD DUP5 PUSH2 0x3198 JUMP JUMPDEST PUSH0 PUSH1 0x20 DUP3 DUP5 SUB SLT ISZERO PUSH2 0x31FD JUMPI PUSH0 PUSH0 REVERT JUMPDEST DUP2 CALLDATALOAD PUSH1 0x1 PUSH1 0x1 PUSH1 0x40 SHL SUB DUP2 GT ISZERO PUSH2 0x3212 JUMPI PUSH0 PUSH0 REVERT JUMPDEST DUP3 ADD PUSH2 0x180 DUP2 DUP6 SUB SLT ISZERO PUSH2 0x21D6 JUMPI PUSH0 PUSH0 REVERT JUMPDEST PUSH1 0x1 DUP2 DUP2 SHR SWAP1 DUP3 AND DUP1 PUSH2 0x3238 JUMPI PUSH1 0x7F DUP3 AND SWAP2 POP JUMPDEST PUSH1 0x20 DUP3 LT DUP2 SUB PUSH2 0x3256 JUMPI PUSH4 0x4E487B71 PUSH1 0xE0 SHL PUSH0 MSTORE PUSH1 0x22 PUSH1 0x4 MSTORE PUSH1 0x24 PUSH0 REVERT JUMPDEST POP SWAP2 SWAP1 POP JUMP JUMPDEST PUSH4 0x4E487B71 PUSH1 0xE0 SHL PUSH0 MSTORE PUSH1 0x32 PUSH1 0x4 MSTORE PUSH1 0x24 PUSH0 REVERT JUMPDEST PUSH1 0x1F DUP3 GT ISZERO PUSH2 0xCAE JUMPI DUP1 PUSH0 MSTORE PUSH1 0x20 PUSH0 KECCAK256 PUSH1 0x1F DUP5 ADD PUSH1 0x5 SHR DUP2 ADD PUSH1 0x20 DUP6 LT ISZERO PUSH2 0x3295 JUMPI POP DUP1 JUMPDEST PUSH1 0x1F DUP5 ADD PUSH1 0x5 SHR DUP3 ADD SWAP2 POP JUMPDEST DUP2 DUP2 LT ISZERO PUSH2 0x32B4 JUMPI PUSH0 DUP2 SSTORE PUSH1 0x1 ADD PUSH2 0x32A1 JUMP JUMPDEST POP POP POP POP POP JUMP JUMPDEST PUSH1 0x1 PUSH1 0x1 PUSH1 0x40 SHL SUB DUP4 GT ISZERO PUSH2 0x32D2 JUMPI PUSH2 0x32D2 PUSH2 0x3042 JUMP JUMPDEST PUSH2 0x32E6 DUP4 PUSH2 0x32E0 DUP4 SLOAD PUSH2 0x3224 JUMP JUMPDEST DUP4 PUSH2 0x3270 JUMP JUMPDEST PUSH0 PUSH1 0x1F DUP5 GT PUSH1 0x1 DUP2 EQ PUSH2 0x3317 JUMPI PUSH0 DUP6 ISZERO PUSH2 0x3300 JUMPI POP DUP4 DUP3 ADD CALLDATALOAD JUMPDEST PUSH0 NOT PUSH1 0x3 DUP8 SWAP1 SHL SHR NOT AND PUSH1 0x1 DUP7 SWAP1 SHL OR DUP4 SSTORE PUSH2 0x32B4 JUMP JUMPDEST PUSH0 DUP4 DUP2 MSTORE PUSH1 0x20 DUP2 KECCAK256 PUSH1 0x1F NOT DUP8 AND SWAP2 JUMPDEST DUP3 DUP2 LT ISZERO PUSH2 0x3346 JUMPI DUP7 DUP6 ADD CALLDATALOAD DUP3 SSTORE PUSH1 0x20 SWAP5 DUP6 ADD SWAP5 PUSH1 0x1 SWAP1 SWAP3 ADD SWAP2 ADD PUSH2 0x3326 JUMP JUMPDEST POP DUP7 DUP3 LT ISZERO PUSH2 0x3362 JUMPI PUSH0 NOT PUSH1 0xF8 DUP9 PUSH1 0x3 SHL AND SHR NOT DUP5 DUP8 ADD CALLDATALOAD AND DUP2 SSTORE JUMPDEST POP POP PUSH1 0x1 DUP6 PUSH1 0x1 SHL ADD DUP4 SSTORE POP POP POP POP POP JUMP JUMPDEST DUP2 DUP4 MSTORE DUP2 DUP2 PUSH1 0x20 DUP6 ADD CALLDATACOPY POP PUSH0 DUP3 DUP3 ADD PUSH1 0x20 SWAP1 DUP2 ADD SWAP2 SWAP1 SWAP2 MSTORE PUSH1 0x1F SWAP1 SWAP2 ADD PUSH1 0x1F NOT AND SWAP1 SWAP2 ADD ADD SWAP1 JUMP JUMPDEST PUSH1 0x20 DUP2 MSTORE PUSH0 PUSH2 0x33AF PUSH1 0x20 DUP4 ADD DUP5 DUP7 PUSH2 0x3374 JUMP JUMPDEST SWAP5 SWAP4 POP POP POP POP JUMP JUMPDEST PUSH0 DUP2 MLOAD DUP1 DUP5 MSTORE PUSH1 0x20 DUP5 ADD SWAP4 POP PUSH1 0x20 DUP4 ADD PUSH0 JUMPDEST DUP3 DUP2 LT ISZERO PUSH2 0x31D1 JUMPI DUP2 MLOAD DUP7 MSTORE PUSH1 0x20 SWAP6 DUP7 ADD SWAP6 SWAP1 SWAP2 ADD SWAP1 PUSH1 0x1 ADD PUSH2 0x33C9 JUMP JUMPDEST PUSH1 0x1 PUSH1 0x1 PUSH1 0xA0 SHL SUB DUP4 AND DUP2 MSTORE PUSH1 0x40 PUSH1 0x20 DUP3 ADD DUP2 SWAP1 MSTORE PUSH0 SWAP1 PUSH2 0x33AF SWAP1 DUP4 ADD DUP5 PUSH2 0x33B7 JUMP JUMPDEST PUSH0 PUSH1 0x20 DUP3 DUP5 SUB SLT ISZERO PUSH2 0x341A JUMPI PUSH0 PUSH0 REVERT JUMPDEST POP MLOAD SWAP2 SWAP1 POP JUMP JUMPDEST PUSH4 0x4E487B71 PUSH1 0xE0 SHL PUSH0 MSTORE PUSH1 0x11 PUSH1 0x4 MSTORE PUSH1 0x24 PUSH0 REVERT JUMPDEST DUP2 DUP2 SUB DUP2 DUP2 GT ISZERO PUSH2 0x9C0 JUMPI PUSH2 0x9C0 PUSH2 0x3421 JUMP JUMPDEST PUSH0 PUSH0 DUP4 CALLDATALOAD PUSH1 0x1E NOT DUP5 CALLDATASIZE SUB ADD DUP2 SLT PUSH2 0x345D JUMPI PUSH0 PUSH0 REVERT JUMPDEST DUP4 ADD DUP1 CALLDATALOAD SWAP2 POP PUSH1 0x1 PUSH1 0x1 PUSH1 0x40 SHL SUB DUP3 GT ISZERO PUSH2 0x3476 JUMPI PUSH0 PUSH0 REVERT JUMPDEST PUSH1 0x20 ADD SWAP2 POP CALLDATASIZE DUP2 SWAP1 SUB DUP3 SGT ISZERO PUSH2 0x348A JUMPI PUSH0 PUSH0 REVERT JUMPDEST SWAP3 POP SWAP3 SWAP1 POP JUMP JUMPDEST PUSH1 0x1 PUSH1 0x1 PUSH1 0xA0 SHL SUB DUP11 DUP2 AND DUP3 MSTORE DUP10 AND PUSH1 0x20 DUP3 ADD MSTORE PUSH1 0x40 DUP2 ADD DUP9 SWAP1 MSTORE PUSH1 0x60 DUP2 ADD DUP8 SWAP1 MSTORE PUSH1 0xE0 PUSH1 0x80 DUP3 ADD DUP2 SWAP1 MSTORE PUSH0 SWAP1 PUSH2 0x34CB SWAP1 DUP4 ADD DUP8 DUP10 PUSH2 0x3374 JUMP JUMPDEST DUP3 DUP2 SUB PUSH1 0xA0 DUP5 ADD MSTORE PUSH2 0x34DE DUP2 DUP7 DUP9 PUSH2 0x3374 JUMP JUMPDEST SWAP2 POP POP DUP3 PUSH1 0xC0 DUP4 ADD MSTORE SWAP11 SWAP10 POP POP POP POP POP POP POP POP POP POP JUMP JUMPDEST DUP3 DUP2 MSTORE PUSH1 0x40 PUSH1 0x20 DUP3 ADD MSTORE PUSH0 PUSH2 0x33AF PUSH1 0x40 DUP4 ADD DUP5 PUSH2 0x3198 JUMP JUMPDEST PUSH0 PUSH1 0x20 DUP3 DUP5 SUB SLT ISZERO PUSH2 0x351D JUMPI PUSH0 PUSH0 REVERT JUMPDEST DUP2 MLOAD PUSH1 0x1 PUSH1 0x1 PUSH1 0x40 SHL SUB DUP2 GT ISZERO PUSH2 0x3532 JUMPI PUSH0 PUSH0 REVERT JUMPDEST DUP3 ADD PUSH1 0x1F DUP2 ADD DUP5 SGT PUSH2 0x3542 JUMPI PUSH0 PUSH0 REVERT JUMPDEST DUP1 MLOAD PUSH2 0x3550 PUSH2 0x30F3 DUP3 PUSH2 0x3086 JUMP JUMPDEST DUP1 DUP3 DUP3 MSTORE PUSH1 0x20 DUP3 ADD SWAP2 POP PUSH1 0x20 DUP4 PUSH1 0x5 SHL DUP6 ADD ADD SWAP3 POP DUP7 DUP4 GT ISZERO PUSH2 0x3571 JUMPI PUSH0 PUSH0 REVERT JUMPDEST PUSH1 0x20 DUP5 ADD SWAP4 POP JUMPDEST DUP3 DUP5 LT ISZERO PUSH2 0x17FA JUMPI DUP4 MLOAD DUP3 MSTORE PUSH1 0x20 SWAP4 DUP5 ADD SWAP4 SWAP1 SWAP2 ADD SWAP1 PUSH2 0x3578 JUMP JUMPDEST DUP1 DUP3 MUL DUP2 ISZERO DUP3 DUP3 DIV DUP5 EQ OR PUSH2 0x9C0 JUMPI PUSH2 0x9C0 PUSH2 0x3421 JUMP JUMPDEST PUSH0 DUP3 PUSH2 0x35C4 JUMPI PUSH4 0x4E487B71 PUSH1 0xE0 SHL PUSH0 MSTORE PUSH1 0x12 PUSH1 0x4 MSTORE PUSH1 0x24 PUSH0 REVERT JUMPDEST POP DIV SWAP1 JUMP JUMPDEST PUSH0 PUSH0 DUP4 CALLDATALOAD PUSH1 0x1E NOT DUP5 CALLDATASIZE SUB ADD DUP2 SLT PUSH2 0x35DE JUMPI PUSH0 PUSH0 REVERT JUMPDEST DUP4 ADD DUP1 CALLDATALOAD SWAP2 POP PUSH1 0x1 PUSH1 0x1 PUSH1 0x40 SHL SUB DUP3 GT ISZERO PUSH2 0x35F7 JUMPI PUSH0 PUSH0 REVERT JUMPDEST PUSH1 0x20 ADD SWAP2 POP PUSH1 0x5 DUP2 SWAP1 SHL CALLDATASIZE SUB DUP3 SGT ISZERO PUSH2 0x348A JUMPI PUSH0 PUSH0 REVERT JUMPDEST PUSH1 0x1 PUSH1 0x1 PUSH1 0xA0 SHL SUB DUP7 AND DUP2 MSTORE PUSH1 0x60 PUSH1 0x20 DUP3 ADD DUP2 SWAP1 MSTORE PUSH0 SWAP1 PUSH2 0x3632 SWAP1 DUP4 ADD DUP7 DUP9 PUSH2 0x3374 JUMP JUMPDEST DUP3 DUP2 SUB PUSH1 0x40 DUP5 ADD MSTORE DUP4 DUP2 MSTORE DUP5 SWAP1 PUSH1 0x20 ADD PUSH0 JUMPDEST DUP6 DUP2 LT ISZERO PUSH2 0x3672 JUMPI PUSH1 0x1 PUSH1 0x1 PUSH1 0xA0 SHL SUB PUSH2 0x365D DUP5 PUSH2 0x2E80 JUMP JUMPDEST AND DUP3 MSTORE PUSH1 0x20 SWAP3 DUP4 ADD SWAP3 SWAP1 SWAP2 ADD SWAP1 PUSH1 0x1 ADD PUSH2 0x3644 JUMP JUMPDEST POP SWAP9 SWAP8 POP POP POP POP POP POP POP POP JUMP JUMPDEST PUSH1 0x1 PUSH1 0x1 PUSH1 0xA0 SHL SUB DUP4 AND DUP2 MSTORE PUSH1 0x40 PUSH1 0x20 DUP3 ADD DUP2 SWAP1 MSTORE PUSH0 SWAP1 PUSH2 0x33AF SWAP1 DUP4 ADD DUP5 PUSH2 0x2F1F JUMP JUMPDEST PUSH1 0x20 DUP2 MSTORE PUSH0 DUP3 MLOAD PUSH2 0x140 PUSH1 0x20 DUP5 ADD MSTORE PUSH2 0x36BF PUSH2 0x160 DUP5 ADD DUP3 PUSH2 0x2F1F JUMP JUMPDEST SWAP1 POP PUSH1 0x20 DUP5 ADD MLOAD PUSH1 0x1F NOT DUP5 DUP4 SUB ADD PUSH1 0x40 DUP6 ADD MSTORE PUSH2 0x36DC DUP3 DUP3 PUSH2 0x2F1F JUMP JUMPDEST SWAP2 POP POP PUSH1 0x40 DUP5 ADD MLOAD PUSH2 0x36F9 PUSH1 0x60 DUP6 ADD DUP3 PUSH1 0x1 PUSH1 0x1 PUSH1 0xA0 SHL SUB AND SWAP1 MSTORE JUMP JUMPDEST POP PUSH1 0x60 DUP5 ADD MLOAD PUSH1 0x1 PUSH1 0x1 PUSH1 0xA0 SHL SUB DUP2 AND PUSH1 0x80 DUP6 ADD MSTORE POP PUSH1 0x80 DUP5 ADD MLOAD DUP4 DUP3 SUB PUSH1 0x1F NOT ADD PUSH1 0xA0 DUP6 ADD MSTORE PUSH2 0x372A DUP3 DUP3 PUSH2 0x3198 JUMP JUMPDEST SWAP2 POP POP PUSH1 0xA0 DUP5 ADD MLOAD PUSH1 0x1F NOT DUP5 DUP4 SUB ADD PUSH1 0xC0 DUP6 ADD MSTORE PUSH2 0x3748 DUP3 DUP3 PUSH2 0x33B7 JUMP JUMPDEST SWAP2 POP POP PUSH1 0xC0 DUP5 ADD MLOAD PUSH2 0x3765 PUSH1 0xE0 DUP6 ADD DUP3 PUSH1 0x1 PUSH1 0x1 PUSH1 0xA0 SHL SUB AND SWAP1 MSTORE JUMP JUMPDEST POP PUSH1 0xE0 DUP5 ADD MLOAD DUP4 DUP3 SUB PUSH1 0x1F NOT ADD PUSH2 0x100 DUP6 ADD MSTORE PUSH2 0x3782 DUP3 DUP3 PUSH2 0x2F1F JUMP JUMPDEST SWAP2 POP POP PUSH2 0x100 DUP5 ADD MLOAD PUSH1 0x1F NOT DUP5 DUP4 SUB ADD PUSH2 0x120 DUP6 ADD MSTORE PUSH2 0x37A2 DUP3 DUP3 PUSH2 0x2F1F JUMP JUMPDEST SWAP2 POP POP PUSH2 0x120 DUP5 ADD MLOAD PUSH1 0x1F NOT DUP5 DUP4 SUB ADD PUSH2 0x140 DUP6 ADD MSTORE PUSH2 0x28DF DUP3 DUP3 PUSH2 0x2F1F JUMP JUMPDEST DUP5 DUP2 MSTORE PUSH1 0x80 PUSH1 0x20 DUP3 ADD MSTORE PUSH0 PUSH2 0x37DA PUSH1 0x80 DUP4 ADD DUP7 PUSH2 0x3198 JUMP JUMPDEST PUSH1 0x1 PUSH1 0x1 PUSH1 0xA0 SHL SUB SWAP5 SWAP1 SWAP5 AND PUSH1 0x40 DUP4 ADD MSTORE POP PUSH1 0x60 ADD MSTORE SWAP3 SWAP2 POP POP JUMP JUMPDEST DUP1 DUP3 ADD DUP1 DUP3 GT ISZERO PUSH2 0x9C0 JUMPI PUSH2 0x9C0 PUSH2 0x3421 JUMP JUMPDEST PUSH1 0x20 DUP1 DUP3 MSTORE PUSH1 0x2B SWAP1 DUP3 ADD MSTORE PUSH32 0x496E697469616C697A61626C653A20636F6E7472616374206973206E6F742069 PUSH1 0x40 DUP3 ADD MSTORE PUSH11 0x6E697469616C697A696E67 PUSH1 0xA8 SHL PUSH1 0x60 DUP3 ADD MSTORE PUSH1 0x80 ADD SWAP1 JUMP JUMPDEST PUSH0 DUP2 MLOAD DUP1 PUSH1 0x20 DUP5 ADD DUP6 MCOPY PUSH0 SWAP4 ADD SWAP3 DUP4 MSTORE POP SWAP1 SWAP2 SWAP1 POP JUMP JUMPDEST PUSH32 0x416363657373436F6E74726F6C3A206163636F756E7420000000000000000000 DUP2 MSTORE PUSH0 PUSH2 0x389C PUSH1 0x17 DUP4 ADD DUP6 PUSH2 0x3854 JUMP JUMPDEST PUSH17 0x1034B99036B4B9B9B4B733903937B6329 PUSH1 0x7D SHL DUP2 MSTORE PUSH2 0x28DF PUSH1 0x11 DUP3 ADD DUP6 PUSH2 0x3854 JUMP JUMPDEST PUSH1 0x40 DUP2 MSTORE PUSH0 PUSH2 0x38D2 PUSH1 0x40 DUP4 ADD DUP6 PUSH2 0x2F1F JUMP JUMPDEST SWAP1 POP DUP3 PUSH1 0x20 DUP4 ADD MSTORE SWAP4 SWAP3 POP POP POP JUMP JUMPDEST PUSH0 DUP2 PUSH2 0x38EF JUMPI PUSH2 0x38EF PUSH2 0x3421 JUMP JUMPDEST POP PUSH0 NOT ADD SWAP1 JUMP INVALID PUSH1 0xA0 PUSH1 0x40 MSTORE PUSH1 0x40 MLOAD PUSH2 0x576 CODESIZE SUB DUP1 PUSH2 0x576 DUP4 CODECOPY DUP2 ADD PUSH1 0x40 DUP2 SWAP1 MSTORE PUSH2 0x22 SWAP2 PUSH2 0x353 JUMP JUMPDEST PUSH2 0x2C DUP3 DUP3 PUSH2 0x3E JUMP JUMPDEST POP PUSH1 0x1 PUSH1 0x1 PUSH1 0xA0 SHL SUB AND PUSH1 0x80 MSTORE PUSH2 0x444 JUMP JUMPDEST PUSH2 0x47 DUP3 PUSH2 0xFB JUMP JUMPDEST PUSH1 0x40 MLOAD PUSH1 0x1 PUSH1 0x1 PUSH1 0xA0 SHL SUB DUP4 AND SWAP1 PUSH32 0x1CF3B03A6CF19FA2BABA4DF148E9DCABEDEA7F8A5C07840E207E5C089BE95D3E SWAP1 PUSH0 SWAP1 LOG2 DUP1 MLOAD ISZERO PUSH2 0xEF JUMPI PUSH2 0xEA DUP3 PUSH1 0x1 PUSH1 0x1 PUSH1 0xA0 SHL SUB AND PUSH4 0x5C60DA1B PUSH1 0x40 MLOAD DUP2 PUSH4 0xFFFFFFFF AND PUSH1 0xE0 SHL DUP2 MSTORE PUSH1 0x4 ADD PUSH1 0x20 PUSH1 0x40 MLOAD DUP1 DUP4 SUB DUP2 DUP7 GAS STATICCALL ISZERO DUP1 ISZERO PUSH2 0xC0 JUMPI RETURNDATASIZE PUSH0 PUSH0 RETURNDATACOPY RETURNDATASIZE PUSH0 REVERT JUMPDEST POP POP POP POP PUSH1 0x40 MLOAD RETURNDATASIZE PUSH1 0x1F NOT PUSH1 0x1F DUP3 ADD AND DUP3 ADD DUP1 PUSH1 0x40 MSTORE POP DUP2 ADD SWAP1 PUSH2 0xE4 SWAP2 SWAP1 PUSH2 0x415 JUMP JUMPDEST DUP3 PUSH2 0x209 JUMP JUMPDEST POP POP POP JUMP JUMPDEST PUSH2 0xF7 PUSH2 0x27C JUMP JUMPDEST POP POP JUMP JUMPDEST DUP1 PUSH1 0x1 PUSH1 0x1 PUSH1 0xA0 SHL SUB AND EXTCODESIZE PUSH0 SUB PUSH2 0x135 JUMPI PUSH1 0x40 MLOAD PUSH4 0x1933B43B PUSH1 0xE2 SHL DUP2 MSTORE PUSH1 0x1 PUSH1 0x1 PUSH1 0xA0 SHL SUB DUP3 AND PUSH1 0x4 DUP3 ADD MSTORE PUSH1 0x24 ADD JUMPDEST PUSH1 0x40 MLOAD DUP1 SWAP2 SUB SWAP1 REVERT JUMPDEST DUP1 PUSH32 0xA3F0AD74E5423AEBFD80D3EF4346578335A9A72AEAEE59FF6CB3582B35133D50 DUP1 SLOAD PUSH1 0x1 PUSH1 0x1 PUSH1 0xA0 SHL SUB NOT AND PUSH1 0x1 PUSH1 0x1 PUSH1 0xA0 SHL SUB SWAP3 DUP4 AND OR SWAP1 SSTORE PUSH1 0x40 DUP1 MLOAD PUSH4 0x5C60DA1B PUSH1 0xE0 SHL DUP2 MSTORE SWAP1 MLOAD PUSH0 SWAP3 DUP5 AND SWAP2 PUSH4 0x5C60DA1B SWAP2 PUSH1 0x4 DUP1 DUP4 ADD SWAP3 PUSH1 0x20 SWAP3 SWAP2 SWAP1 DUP3 SWAP1 SUB ADD DUP2 DUP7 GAS STATICCALL ISZERO DUP1 ISZERO PUSH2 0x1AE JUMPI RETURNDATASIZE PUSH0 PUSH0 RETURNDATACOPY RETURNDATASIZE PUSH0 REVERT JUMPDEST POP POP POP POP PUSH1 0x40 MLOAD RETURNDATASIZE PUSH1 0x1F NOT PUSH1 0x1F DUP3 ADD AND DUP3 ADD DUP1 PUSH1 0x40 MSTORE POP DUP2 ADD SWAP1 PUSH2 0x1D2 SWAP2 SWAP1 PUSH2 0x415 JUMP JUMPDEST SWAP1 POP DUP1 PUSH1 0x1 PUSH1 0x1 PUSH1 0xA0 SHL SUB AND EXTCODESIZE PUSH0 SUB PUSH2 0xF7 JUMPI PUSH1 0x40 MLOAD PUSH4 0x4C9C8CE3 PUSH1 0xE0 SHL DUP2 MSTORE PUSH1 0x1 PUSH1 0x1 PUSH1 0xA0 SHL SUB DUP3 AND PUSH1 0x4 DUP3 ADD MSTORE PUSH1 0x24 ADD PUSH2 0x12C JUMP JUMPDEST PUSH1 0x60 PUSH0 PUSH0 DUP5 PUSH1 0x1 PUSH1 0x1 PUSH1 0xA0 SHL SUB AND DUP5 PUSH1 0x40 MLOAD PUSH2 0x225 SWAP2 SWAP1 PUSH2 0x42E JUMP JUMPDEST PUSH0 PUSH1 0x40 MLOAD DUP1 DUP4 SUB DUP2 DUP6 GAS DELEGATECALL SWAP2 POP POP RETURNDATASIZE DUP1 PUSH0 DUP2 EQ PUSH2 0x25D JUMPI PUSH1 0x40 MLOAD SWAP2 POP PUSH1 0x1F NOT PUSH1 0x3F RETURNDATASIZE ADD AND DUP3 ADD PUSH1 0x40 MSTORE RETURNDATASIZE DUP3 MSTORE RETURNDATASIZE PUSH0 PUSH1 0x20 DUP5 ADD RETURNDATACOPY PUSH2 0x262 JUMP JUMPDEST PUSH1 0x60 SWAP2 POP JUMPDEST POP SWAP1 SWAP3 POP SWAP1 POP PUSH2 0x273 DUP6 DUP4 DUP4 PUSH2 0x29D JUMP JUMPDEST SWAP6 SWAP5 POP POP POP POP POP JUMP JUMPDEST CALLVALUE ISZERO PUSH2 0x29B JUMPI PUSH1 0x40 MLOAD PUSH4 0xB398979F PUSH1 0xE0 SHL DUP2 MSTORE PUSH1 0x4 ADD PUSH1 0x40 MLOAD DUP1 SWAP2 SUB SWAP1 REVERT JUMPDEST JUMP JUMPDEST PUSH1 0x60 DUP3 PUSH2 0x2B2 JUMPI PUSH2 0x2AD DUP3 PUSH2 0x2FC JUMP JUMPDEST PUSH2 0x2F5 JUMP JUMPDEST DUP2 MLOAD ISZERO DUP1 ISZERO PUSH2 0x2C9 JUMPI POP PUSH1 0x1 PUSH1 0x1 PUSH1 0xA0 SHL SUB DUP5 AND EXTCODESIZE ISZERO JUMPDEST ISZERO PUSH2 0x2F2 JUMPI PUSH1 0x40 MLOAD PUSH4 0x9996B315 PUSH1 0xE0 SHL DUP2 MSTORE PUSH1 0x1 PUSH1 0x1 PUSH1 0xA0 SHL SUB DUP6 AND PUSH1 0x4 DUP3 ADD MSTORE PUSH1 0x24 ADD PUSH2 0x12C JUMP JUMPDEST POP DUP1 JUMPDEST SWAP4 SWAP3 POP POP POP JUMP JUMPDEST DUP1 MLOAD ISZERO PUSH2 0x30B JUMPI DUP1 MLOAD PUSH1 0x20 DUP3 ADD REVERT JUMPDEST PUSH1 0x40 MLOAD PUSH4 0xD6BDA275 PUSH1 0xE0 SHL DUP2 MSTORE PUSH1 0x4 ADD PUSH1 0x40 MLOAD DUP1 SWAP2 SUB SWAP1 REVERT JUMPDEST DUP1 MLOAD PUSH1 0x1 PUSH1 0x1 PUSH1 0xA0 SHL SUB DUP2 AND DUP2 EQ PUSH2 0x33A JUMPI PUSH0 PUSH0 REVERT JUMPDEST SWAP2 SWAP1 POP JUMP JUMPDEST PUSH4 0x4E487B71 PUSH1 0xE0 SHL PUSH0 MSTORE PUSH1 0x41 PUSH1 0x4 MSTORE PUSH1 0x24 PUSH0 REVERT JUMPDEST PUSH0 PUSH0 PUSH1 0x40 DUP4 DUP6 SUB SLT ISZERO PUSH2 0x364 JUMPI PUSH0 PUSH0 REVERT JUMPDEST PUSH2 0x36D DUP4 PUSH2 0x324 JUMP JUMPDEST PUSH1 0x20 DUP5 ADD MLOAD SWAP1 SWAP3 POP PUSH1 0x1 PUSH1 0x1 PUSH1 0x40 SHL SUB DUP2 GT ISZERO PUSH2 0x388 JUMPI PUSH0 PUSH0 REVERT JUMPDEST DUP4 ADD PUSH1 0x1F DUP2 ADD DUP6 SGT PUSH2 0x398 JUMPI PUSH0 PUSH0 REVERT JUMPDEST DUP1 MLOAD PUSH1 0x1 PUSH1 0x1 PUSH1 0x40 SHL SUB DUP2 GT ISZERO PUSH2 0x3B1 JUMPI PUSH2 0x3B1 PUSH2 0x33F JUMP JUMPDEST PUSH1 0x40 MLOAD PUSH1 0x1F DUP3 ADD PUSH1 0x1F NOT SWAP1 DUP2 AND PUSH1 0x3F ADD AND DUP2 ADD PUSH1 0x1 PUSH1 0x1 PUSH1 0x40 SHL SUB DUP2 GT DUP3 DUP3 LT OR ISZERO PUSH2 0x3DF JUMPI PUSH2 0x3DF PUSH2 0x33F JUMP JUMPDEST PUSH1 0x40 MSTORE DUP2 DUP2 MSTORE DUP3 DUP3 ADD PUSH1 0x20 ADD DUP8 LT ISZERO PUSH2 0x3F6 JUMPI PUSH0 PUSH0 REVERT JUMPDEST DUP2 PUSH1 0x20 DUP5 ADD PUSH1 0x20 DUP4 ADD MCOPY PUSH0 PUSH1 0x20 DUP4 DUP4 ADD ADD MSTORE DUP1 SWAP4 POP POP POP POP SWAP3 POP SWAP3 SWAP1 POP JUMP JUMPDEST PUSH0 PUSH1 0x20 DUP3 DUP5 SUB SLT ISZERO PUSH2 0x425 JUMPI PUSH0 PUSH0 REVERT JUMPDEST PUSH2 0x2F5 DUP3 PUSH2 0x324 JUMP JUMPDEST PUSH0 DUP3 MLOAD DUP1 PUSH1 0x20 DUP6 ADD DUP5 MCOPY PUSH0 SWAP3 ADD SWAP2 DUP3 MSTORE POP SWAP2 SWAP1 POP JUMP JUMPDEST PUSH1 0x80 MLOAD PUSH2 0x11B PUSH2 0x45B PUSH0 CODECOPY PUSH0 PUSH1 0x1D ADD MSTORE PUSH2 0x11B PUSH0 RETURN INVALID PUSH1 0x80 PUSH1 0x40 MSTORE PUSH1 0xA PUSH1 0xC JUMP JUMPDEST STOP JUMPDEST PUSH1 0x18 PUSH1 0x14 PUSH1 0x1A JUMP JUMPDEST PUSH1 0x9D JUMP JUMPDEST JUMP JUMPDEST PUSH0 PUSH32 0x0 PUSH1 0x1 PUSH1 0x1 PUSH1 0xA0 SHL SUB AND PUSH4 0x5C60DA1B PUSH1 0x40 MLOAD DUP2 PUSH4 0xFFFFFFFF AND PUSH1 0xE0 SHL DUP2 MSTORE PUSH1 0x4 ADD PUSH1 0x20 PUSH1 0x40 MLOAD DUP1 DUP4 SUB DUP2 DUP7 GAS STATICCALL ISZERO DUP1 ISZERO PUSH1 0x76 JUMPI RETURNDATASIZE PUSH0 PUSH0 RETURNDATACOPY RETURNDATASIZE PUSH0 REVERT JUMPDEST POP POP POP POP PUSH1 0x40 MLOAD RETURNDATASIZE PUSH1 0x1F NOT PUSH1 0x1F DUP3 ADD AND DUP3 ADD DUP1 PUSH1 0x40 MSTORE POP DUP2 ADD SWAP1 PUSH1 0x98 SWAP2 SWAP1 PUSH1 0xBA JUMP JUMPDEST SWAP1 POP SWAP1 JUMP JUMPDEST CALLDATASIZE PUSH0 PUSH0 CALLDATACOPY PUSH0 PUSH0 CALLDATASIZE PUSH0 DUP5 GAS DELEGATECALL RETURNDATASIZE PUSH0 PUSH0 RETURNDATACOPY DUP1 DUP1 ISZERO PUSH1 0xB6 JUMPI RETURNDATASIZE PUSH0 RETURN JUMPDEST RETURNDATASIZE PUSH0 REVERT JUMPDEST PUSH0 PUSH1 0x20 DUP3 DUP5 SUB SLT ISZERO PUSH1 0xC9 JUMPI PUSH0 PUSH0 REVERT JUMPDEST DUP2 MLOAD PUSH1 0x1 PUSH1 0x1 PUSH1 0xA0 SHL SUB DUP2 AND DUP2 EQ PUSH1 0xDE JUMPI PUSH0 PUSH0 REVERT JUMPDEST SWAP4 SWAP3 POP POP POP JUMP INVALID LOG2 PUSH5 0x6970667358 0x22 SLT KECCAK256 BYTE CALLCODE CALLVALUE 0xC4 0x2E SWAP12 SWAP9 CALLVALUE DUP3 PUSH9 0x73738A7EDB566ED86C BLOBBASEFEE PUSH6 0x2A1DC0830F01 0xB4 SUB 0x22 DUP16 COINBASE PUSH5 0x736F6C6343 STOP ADDMOD 0x1E STOP CALLER XOR SWAP11 0xB7 0xA9 0x24 0x4D CREATE DUP5 DUP2 0x22 ISZERO NUMBER ISZERO 0xAF PUSH18 0xFE140F3DB0FE014031783B0946B8C9D2E36C SMOD JUMPI 0xDC RETURNDATACOPY PUSH12 0x28B2580C03FD9E96C274ACF4 EXTDELEGATECALL SWAP14 SWAP2 EXTSTATICCALL EOFCREATE 0x9B COINBASE DUP16 LOG1 0xD7 MOD DIV SELFDESTRUCT SHR LOG4 SWAP9 SMOD KECCAK256 TLOAD RETF 0xD3 SSTORE MULMOD 0x2E CREATE2 0xA8 LOG1 DUP16 JUMP 0xE8 SWAP2 EXTCODECOPY DELEGATECALL LOG2 ADD EXTSTATICCALL 0xE2 DUP8 DUP3 JUMPDEST MULMOD JUMP SWAP4 0xC2 OR PUSH22 0xA26469706673582212209E6F15946FC56D7308A7FE9E 0xAB 0xC2 DUP2 PUSH11 0x75457CA5FF6BD1C9FE35A SWAP9 ADDMOD ADDMOD 0x4D 0xD8 PUSH5 0x736F6C6343 STOP ADDMOD 0x1E STOP CALLER "
		},
		"gasEstimates": {
			"creation": {
				"codeDepositCost": "3226000",
				"executionCost": "3577",
				"totalCost": "3229577"
			},
			"external": {
				"ADMIN_ROLE()": "infinite",
				"DEFAULT_ADMIN_ROLE()": "327",
				"DEFAULT_FEE()": "326",
				"FEE_MANAGER_ROLE()": "infinite",
				"PERCENT_PRECISION()": "326",
				"UPGRADER_ROLE()": "infinite",
				"URI_MANAGER_ROLE()": "284",
				"WHITELIST_MANAGER_ROLE()": "283",
				"addWhitelistedContract(address)": "infinite",
				"alva()": "2403",
				"bsktImplementation()": "2402",
				"bsktList(uint256)": "4700",
				"bsktPairImplementation()": "2404",
				"calMgmtFee(uint256,uint256)": "infinite",
				"collectionUri()": "infinite",
				"createBSKT((string,string,address[],uint256[],string,uint256,string,string,uint256))": "infinite",
				"dewhitelistContract(address)": "infinite",
				"getAmountsOut(uint256,address[])": "infinite",
				"getBSKTAtIndex(uint256)": "6808",
				"getContractURI()": "infinite",
				"getPath(address,address)": "infinite",
				"getPlatformFeeConfig()": "2459",
				"getRoleAdmin(bytes32)": "2487",
				"grantRole(bytes32,address)": "infinite",
				"hasRole(bytes32,address)": "2751",
				"initialize((address,address,address,address,address,address,address,address,uint16,uint256,string,uint256))": "infinite",
				"isWhitelistedContract(address)": "2614",
				"minBSKTCreationAmount()": "2429",
				"minLpWithdrawal()": "2403",
				"minPercentALVA()": "2348",
				"monthlyFeeRate()": "2383",
				"renounceRole(bytes32,address)": "29130",
				"revokeRole(bytes32,address)": "infinite",
				"router()": "2446",
				"royaltyPercentage()": "2362",
				"royaltyReceiver()": "2448",
				"setFeeCollector(address)": "infinite",
				"setMinLpWithdrawal(uint256)": "infinite",
				"setPlatformFeeConfig(uint16,uint16,uint16)": "infinite",
				"supportsInterface(bytes4)": "503",
				"totalBSKT()": "2424",
				"updateAlva(address)": "infinite",
				"updateBSKTImplementation(address)": "infinite",
				"updateBSKTPairImplementation(address)": "infinite",
				"updateCollectionURI(string)": "infinite",
				"updateMinBSKTCreationAmount(uint256)": "infinite",
				"updateMinPercentALVA(uint16)": "infinite",
				"updateRoyaltyPercentage(uint256)": "infinite",
				"updateRoyaltyReceiver(address)": "infinite",
				"weth()": "2426",
				"whitelistedContracts(address)": "2574"
			},
			"internal": {
				"_initializeBSKTWithPair(struct IFactory.BSKTInput calldata)": "infinite",
				"_swapETHForTokens(address,struct IFactory.BSKTInput calldata,uint256)": "infinite",
				"_validateAndChargeCreationFee(struct IFactory.BSKTInput calldata)": "infinite",
				"_validateInitParams(struct IFactory.BTSFactoryInitParams calldata)": "infinite"
			}
		},
		"methodIdentifiers": {
			"ADMIN_ROLE()": "75b238fc",
			"DEFAULT_ADMIN_ROLE()": "a217fddf",
			"DEFAULT_FEE()": "4fcc1def",
			"FEE_MANAGER_ROLE()": "05db2f41",
			"PERCENT_PRECISION()": "ffe8e372",
			"UPGRADER_ROLE()": "f72c0d8b",
			"URI_MANAGER_ROLE()": "682d07d9",
			"WHITELIST_MANAGER_ROLE()": "7295ed93",
			"addWhitelistedContract(address)": "46704adb",
			"alva()": "b28775cd",
			"bsktImplementation()": "f18f9f19",
			"bsktList(uint256)": "b9e32d86",
			"bsktPairImplementation()": "a4c05e8c",
			"calMgmtFee(uint256,uint256)": "d23aaed3",
			"collectionUri()": "defcd4b3",
			"createBSKT((string,string,address[],uint256[],string,uint256,string,string,uint256))": "c9889f6c",
			"dewhitelistContract(address)": "0b9421bd",
			"getAmountsOut(uint256,address[])": "d06ca61f",
			"getBSKTAtIndex(uint256)": "71500475",
			"getContractURI()": "37929eb4",
			"getPath(address,address)": "d88e3e3b",
			"getPlatformFeeConfig()": "c4e994a0",
			"getRoleAdmin(bytes32)": "248a9ca3",
			"grantRole(bytes32,address)": "2f2ff15d",
			"hasRole(bytes32,address)": "91d14854",
			"initialize((address,address,address,address,address,address,address,address,uint16,uint256,string,uint256))": "f016498e",
			"isWhitelistedContract(address)": "3b9589a9",
			"minBSKTCreationAmount()": "0e860316",
			"minLpWithdrawal()": "6dbd5d2a",
			"minPercentALVA()": "01c4aebe",
			"monthlyFeeRate()": "ef1e095f",
			"renounceRole(bytes32,address)": "36568abe",
			"revokeRole(bytes32,address)": "d547741f",
			"router()": "f887ea40",
			"royaltyPercentage()": "8a71bb2d",
			"royaltyReceiver()": "9fbc8713",
			"setFeeCollector(address)": "a42dce80",
			"setMinLpWithdrawal(uint256)": "b0ec8be9",
			"setPlatformFeeConfig(uint16,uint16,uint16)": "bbf75517",
			"supportsInterface(bytes4)": "01ffc9a7",
			"totalBSKT()": "7618c335",
			"updateAlva(address)": "5ee70f09",
			"updateBSKTImplementation(address)": "1aa6b19a",
			"updateBSKTPairImplementation(address)": "c20cc665",
			"updateCollectionURI(string)": "7910af6f",
			"updateMinBSKTCreationAmount(uint256)": "aea8afe9",
			"updateMinPercentALVA(uint16)": "251ae3d6",
			"updateRoyaltyPercentage(uint256)": "621bb669",
			"updateRoyaltyReceiver(address)": "29dc4d9b",
			"weth()": "3fc8cef3",
			"whitelistedContracts(address)": "391feebb"
		}
	},
	"abi": [
		{
			"inputs": [],
			"stateMutability": "nonpayable",
			"type": "constructor"
		},
		{
			"inputs": [
				{
					"internalType": "uint256",
					"name": "deadline",
					"type": "uint256"
				}
			],
			"name": "DeadlineInPast",
			"type": "error"
		},
		{
			"inputs": [],
			"name": "DuplicateRoyaltyValue",
			"type": "error"
		},
		{
			"inputs": [
				{
					"internalType": "string",
					"name": "paramName",
					"type": "string"
				}
			],
			"name": "EmptyStringParameter",
			"type": "error"
		},
		{
			"inputs": [],
			"name": "ExcessiveSwapAmount",
			"type": "error"
		},
		{
			"inputs": [
				{
					"internalType": "uint256",
					"name": "provided",
					"type": "uint256"
				},
				{
					"internalType": "uint256",
					"name": "minAllowed",
					"type": "uint256"
				}
			],
			"name": "InsufficientBSKTCreationAmount",
			"type": "error"
		},
		{
			"inputs": [],
			"name": "InvalidAddress",
			"type": "error"
		},
		{
			"inputs": [
				{
					"internalType": "uint256",
					"name": "value",
					"type": "uint256"
				},
				{
					"internalType": "uint256",
					"name": "minAllowed",
					"type": "uint256"
				},
				{
					"internalType": "uint256",
					"name": "maxAllowed",
					"type": "uint256"
				}
			],
			"name": "InvalidAlvaPercentage",
			"type": "error"
		},
		{
			"inputs": [],
			"name": "InvalidAmount",
			"type": "error"
		},
		{
			"inputs": [
				{
					"internalType": "uint256",
					"name": "provided",
					"type": "uint256"
				},
				{
					"internalType": "uint256",
					"name": "minAllowed",
					"type": "uint256"
				},
				{
					"internalType": "uint256",
					"name": "maxAllowed",
					"type": "uint256"
				}
			],
			"name": "InvalidBuffer",
			"type": "error"
		},
		{
			"inputs": [],
			"name": "InvalidFee",
			"type": "error"
		},
		{
			"inputs": [
				{
					"internalType": "uint256",
					"name": "value",
					"type": "uint256"
				},
				{
					"internalType": "uint256",
					"name": "minAllowed",
					"type": "uint256"
				},
				{
					"internalType": "uint256",
					"name": "maxAllowed",
					"type": "uint256"
				}
			],
			"name": "InvalidRoyaltyPercentage",
			"type": "error"
		},
		{
			"inputs": [],
			"name": "InvalidTokensAndWeights",
			"type": "error"
		},
		{
			"inputs": [
				{
					"internalType": "address",
					"name": "provided",
					"type": "address"
				},
				{
					"internalType": "bool",
					"name": "alreadyWhitelisted",
					"type": "bool"
				}
			],
			"name": "InvalidWhitelistAddress",
			"type": "error"
		},
		{
			"inputs": [
				{
					"internalType": "uint256",
					"name": "x",
					"type": "uint256"
				},
				{
					"internalType": "uint256",
					"name": "y",
					"type": "uint256"
				}
			],
			"name": "PRBMath_MulDiv18_Overflow",
			"type": "error"
		},
		{
			"inputs": [],
			"name": "TransferFailed",
			"type": "error"
		},
		{
			"anonymous": false,
			"inputs": [
				{
					"indexed": false,
					"internalType": "address",
					"name": "alva",
					"type": "address"
				}
			],
			"name": "AlvaUpdated",
			"type": "event"
		},
		{
			"anonymous": false,
			"inputs": [
				{
					"indexed": false,
					"internalType": "address",
					"name": "bskt",
					"type": "address"
				},
				{
					"indexed": false,
					"internalType": "address",
					"name": "bsktPair",
					"type": "address"
				},
				{
					"indexed": true,
					"internalType": "address",
					"name": "creator",
					"type": "address"
				},
				{
					"indexed": false,
					"internalType": "uint256",
					"name": "amount",
					"type": "uint256"
				},
				{
					"indexed": false,
					"internalType": "uint256",
					"name": "_buffer",
					"type": "uint256"
				},
				{
					"indexed": false,
					"internalType": "string",
					"name": "_id",
					"type": "string"
				},
				{
					"indexed": false,
					"internalType": "string",
					"name": "description",
					"type": "string"
				},
				{
					"indexed": false,
					"internalType": "uint256",
					"name": "feeAmount",
					"type": "uint256"
				}
			],
			"name": "BSKTCreated",
			"type": "event"
		},
		{
			"anonymous": false,
			"inputs": [
				{
					"indexed": false,
					"internalType": "uint256",
					"name": "feeAmount",
					"type": "uint256"
				},
				{
					"indexed": false,
					"internalType": "uint256",
					"name": "feePercent",
					"type": "uint256"
				},
				{
					"indexed": true,
					"internalType": "address",
					"name": "feeCollector",
					"type": "address"
				}
			],
			"name": "BSKTCreationFeeDeducted",
			"type": "event"
		},
		{
			"anonymous": false,
			"inputs": [
				{
					"indexed": true,
					"internalType": "address",
					"name": "bsktImplementation",
					"type": "address"
				}
			],
			"name": "BSKTImplementationUpdated",
			"type": "event"
		},
		{
			"anonymous": false,
			"inputs": [
				{
					"indexed": true,
					"internalType": "address",
					"name": "bsktPairImplementation",
					"type": "address"
				}
			],
			"name": "BSKTPairImplementationUpdated",
			"type": "event"
		},
		{
			"anonymous": false,
			"inputs": [
				{
					"indexed": false,
					"internalType": "string",
					"name": "newURI",
					"type": "string"
				}
			],
			"name": "CollectionURIUpdated",
			"type": "event"
		},
		{
			"anonymous": false,
			"inputs": [
				{
					"indexed": true,
					"internalType": "address",
					"name": "contractAddress",
					"type": "address"
				}
			],
			"name": "ContractRemovedFromWhitelist",
			"type": "event"
		},
		{
			"anonymous": false,
			"inputs": [
				{
					"indexed": true,
					"internalType": "address",
					"name": "contractAddress",
					"type": "address"
				}
			],
			"name": "ContractWhitelisted",
			"type": "event"
		},
		{
			"anonymous": false,
			"inputs": [
				{
					"indexed": true,
					"internalType": "address",
					"name": "newFeeCollector",
					"type": "address"
				}
			],
			"name": "FeeCollectorUpdated",
			"type": "event"
		},
		{
			"anonymous": false,
			"inputs": [
				{
					"indexed": false,
					"internalType": "uint8",
					"name": "version",
					"type": "uint8"
				}
			],
			"name": "Initialized",
			"type": "event"
		},
		{
			"anonymous": false,
			"inputs": [
				{
					"indexed": false,
					"internalType": "uint256",
					"name": "percent",
					"type": "uint256"
				}
			],
			"name": "MinAlvaPercentageUpdated",
			"type": "event"
		},
		{
			"anonymous": false,
			"inputs": [
				{
					"indexed": true,
					"internalType": "address",
					"name": "caller",
					"type": "address"
				},
				{
					"indexed": false,
					"internalType": "uint256",
					"name": "amount",
					"type": "uint256"
				}
			],
			"name": "MinBSKTCreationAmountUpdated",
			"type": "event"
		},
		{
			"anonymous": false,
			"inputs": [
				{
					"indexed": false,
					"internalType": "uint256",
					"name": "newMinLpWithdrawal",
					"type": "uint256"
				}
			],
			"name": "MinLpWithdrawalUpdated",
			"type": "event"
		},
		{
			"anonymous": false,
			"inputs": [
				{
					"indexed": false,
					"internalType": "uint16",
					"name": "bsktCreationFee",
					"type": "uint16"
				},
				{
					"indexed": false,
					"internalType": "uint16",
					"name": "contributionFee",
					"type": "uint16"
				},
				{
					"indexed": false,
					"internalType": "uint16",
					"name": "withdrawalFee",
					"type": "uint16"
				}
			],
			"name": "PlatformFeesUpdated",
			"type": "event"
		},
		{
			"anonymous": false,
			"inputs": [
				{
					"indexed": true,
					"internalType": "bytes32",
					"name": "role",
					"type": "bytes32"
				},
				{
					"indexed": true,
					"internalType": "bytes32",
					"name": "previousAdminRole",
					"type": "bytes32"
				},
				{
					"indexed": true,
					"internalType": "bytes32",
					"name": "newAdminRole",
					"type": "bytes32"
				}
			],
			"name": "RoleAdminChanged",
			"type": "event"
		},
		{
			"anonymous": false,
			"inputs": [
				{
					"indexed": true,
					"internalType": "bytes32",
					"name": "role",
					"type": "bytes32"
				},
				{
					"indexed": true,
					"internalType": "address",
					"name": "account",
					"type": "address"
				},
				{
					"indexed": true,
					"internalType": "address",
					"name": "sender",
					"type": "address"
				}
			],
			"name": "RoleGranted",
			"type": "event"
		},
		{
			"anonymous": false,
			"inputs": [
				{
					"indexed": true,
					"internalType": "bytes32",
					"name": "role",
					"type": "bytes32"
				},
				{
					"indexed": true,
					"internalType": "address",
					"name": "account",
					"type": "address"
				},
				{
					"indexed": true,
					"internalType": "address",
					"name": "sender",
					"type": "address"
				}
			],
			"name": "RoleRevoked",
			"type": "event"
		},
		{
			"anonymous": false,
			"inputs": [
				{
					"indexed": true,
					"internalType": "address",
					"name": "newRoyaltyReceiver",
					"type": "address"
				}
			],
			"name": "RoyaltyReceiverUpdated",
			"type": "event"
		},
		{
			"anonymous": false,
			"inputs": [
				{
					"indexed": false,
					"internalType": "uint256",
					"name": "newRoyaltyPercentage",
					"type": "uint256"
				}
			],
			"name": "RoyaltyUpdated",
			"type": "event"
		},
		{
			"inputs": [],
			"name": "ADMIN_ROLE",
			"outputs": [
				{
					"internalType": "bytes32",
					"name": "",
					"type": "bytes32"
				}
			],
			"stateMutability": "view",
			"type": "function"
		},
		{
			"inputs": [],
			"name": "DEFAULT_ADMIN_ROLE",
			"outputs": [
				{
					"internalType": "bytes32",
					"name": "",
					"type": "bytes32"
				}
			],
			"stateMutability": "view",
			"type": "function"
		},
		{
			"inputs": [],
			"name": "DEFAULT_FEE",
			"outputs": [
				{
					"internalType": "uint16",
					"name": "",
					"type": "uint16"
				}
			],
			"stateMutability": "view",
			"type": "function"
		},
		{
			"inputs": [],
			"name": "FEE_MANAGER_ROLE",
			"outputs": [
				{
					"internalType": "bytes32",
					"name": "",
					"type": "bytes32"
				}
			],
			"stateMutability": "view",
			"type": "function"
		},
		{
			"inputs": [],
			"name": "PERCENT_PRECISION",
			"outputs": [
				{
					"internalType": "uint256",
					"name": "",
					"type": "uint256"
				}
			],
			"stateMutability": "view",
			"type": "function"
		},
		{
			"inputs": [],
			"name": "UPGRADER_ROLE",
			"outputs": [
				{
					"internalType": "bytes32",
					"name": "",
					"type": "bytes32"
				}
			],
			"stateMutability": "view",
			"type": "function"
		},
		{
			"inputs": [],
			"name": "URI_MANAGER_ROLE",
			"outputs": [
				{
					"internalType": "bytes32",
					"name": "",
					"type": "bytes32"
				}
			],
			"stateMutability": "view",
			"type": "function"
		},
		{
			"inputs": [],
			"name": "WHITELIST_MANAGER_ROLE",
			"outputs": [
				{
					"internalType": "bytes32",
					"name": "",
					"type": "bytes32"
				}
			],
			"stateMutability": "view",
			"type": "function"
		},
		{
			"inputs": [
				{
					"internalType": "address",
					"name": "contractAddr",
					"type": "address"
				}
			],
			"name": "addWhitelistedContract",
			"outputs": [],
			"stateMutability": "nonpayable",
			"type": "function"
		},
		{
			"inputs": [],
			"name": "alva",
			"outputs": [
				{
					"internalType": "address",
					"name": "",
					"type": "address"
				}
			],
			"stateMutability": "view",
			"type": "function"
		},
		{
			"inputs": [],
			"name": "bsktImplementation",
			"outputs": [
				{
					"internalType": "address",
					"name": "",
					"type": "address"
				}
			],
			"stateMutability": "view",
			"type": "function"
		},
		{
			"inputs": [
				{
					"internalType": "uint256",
					"name": "",
					"type": "uint256"
				}
			],
			"name": "bsktList",
			"outputs": [
				{
					"internalType": "address",
					"name": "",
					"type": "address"
				}
			],
			"stateMutability": "view",
			"type": "function"
		},
		{
			"inputs": [],
			"name": "bsktPairImplementation",
			"outputs": [
				{
					"internalType": "address",
					"name": "",
					"type": "address"
				}
			],
			"stateMutability": "view",
			"type": "function"
		},
		{
			"inputs": [
				{
					"internalType": "uint256",
					"name": "months",
					"type": "uint256"
				},
				{
					"internalType": "uint256",
					"name": "lpSupply",
					"type": "uint256"
				}
			],
			"name": "calMgmtFee",
			"outputs": [
				{
					"internalType": "uint256",
					"name": "",
					"type": "uint256"
				}
			],
			"stateMutability": "view",
			"type": "function"
		},
		{
			"inputs": [],
			"name": "collectionUri",
			"outputs": [
				{
					"internalType": "string",
					"name": "",
					"type": "string"
				}
			],
			"stateMutability": "view",
			"type": "function"
		},
		{
			"inputs": [
				{
					"components": [
						{
							"internalType": "string",
							"name": "name",
							"type": "string"
						},
						{
							"internalType": "string",
							"name": "symbol",
							"type": "string"
						},
						{
							"internalType": "address[]",
							"name": "tokens",
							"type": "address[]"
						},
						{
							"internalType": "uint256[]",
							"name": "weights",
							"type": "uint256[]"
						},
						{
							"internalType": "string",
							"name": "tokenURI",
							"type": "string"
						},
						{
							"internalType": "uint256",
							"name": "slippage",
							"type": "uint256"
						},
						{
							"internalType": "string",
							"name": "id",
							"type": "string"
						},
						{
							"internalType": "string",
							"name": "description",
							"type": "string"
						},
						{
							"internalType": "uint256",
							"name": "deadline",
							"type": "uint256"
						}
					],
					"internalType": "struct IFactory.BSKTInput",
					"name": "input",
					"type": "tuple"
				}
			],
			"name": "createBSKT",
			"outputs": [],
			"stateMutability": "payable",
			"type": "function"
		},
		{
			"inputs": [
				{
					"internalType": "address",
					"name": "contractAddr",
					"type": "address"
				}
			],
			"name": "dewhitelistContract",
			"outputs": [],
			"stateMutability": "nonpayable",
			"type": "function"
		},
		{
			"inputs": [
				{
					"internalType": "uint256",
					"name": "_amount",
					"type": "uint256"
				},
				{
					"internalType": "address[]",
					"name": "_path",
					"type": "address[]"
				}
			],
			"name": "getAmountsOut",
			"outputs": [
				{
					"internalType": "uint256",
					"name": "",
					"type": "uint256"
				}
			],
			"stateMutability": "view",
			"type": "function"
		},
		{
			"inputs": [
				{
					"internalType": "uint256",
					"name": "index",
					"type": "uint256"
				}
			],
			"name": "getBSKTAtIndex",
			"outputs": [
				{
					"internalType": "address",
					"name": "",
					"type": "address"
				}
			],
			"stateMutability": "view",
			"type": "function"
		},
		{
			"inputs": [],
			"name": "getContractURI",
			"outputs": [
				{
					"internalType": "string",
					"name": "",
					"type": "string"
				}
			],
			"stateMutability": "view",
			"type": "function"
		},
		{
			"inputs": [
				{
					"internalType": "address",
					"name": "_tokenA",
					"type": "address"
				},
				{
					"internalType": "address",
					"name": "_tokenB",
					"type": "address"
				}
			],
			"name": "getPath",
			"outputs": [
				{
					"internalType": "address[]",
					"name": "",
					"type": "address[]"
				}
			],
			"stateMutability": "pure",
			"type": "function"
		},
		{
			"inputs": [],
			"name": "getPlatformFeeConfig",
			"outputs": [
				{
					"internalType": "uint16",
					"name": "",
					"type": "uint16"
				},
				{
					"internalType": "uint16",
					"name": "",
					"type": "uint16"
				},
				{
					"internalType": "uint16",
					"name": "",
					"type": "uint16"
				},
				{
					"internalType": "address",
					"name": "",
					"type": "address"
				}
			],
			"stateMutability": "view",
			"type": "function"
		},
		{
			"inputs": [
				{
					"internalType": "bytes32",
					"name": "role",
					"type": "bytes32"
				}
			],
			"name": "getRoleAdmin",
			"outputs": [
				{
					"internalType": "bytes32",
					"name": "",
					"type": "bytes32"
				}
			],
			"stateMutability": "view",
			"type": "function"
		},
		{
			"inputs": [
				{
					"internalType": "bytes32",
					"name": "role",
					"type": "bytes32"
				},
				{
					"internalType": "address",
					"name": "account",
					"type": "address"
				}
			],
			"name": "grantRole",
			"outputs": [],
			"stateMutability": "nonpayable",
			"type": "function"
		},
		{
			"inputs": [
				{
					"internalType": "bytes32",
					"name": "role",
					"type": "bytes32"
				},
				{
					"internalType": "address",
					"name": "account",
					"type": "address"
				}
			],
			"name": "hasRole",
			"outputs": [
				{
					"internalType": "bool",
					"name": "",
					"type": "bool"
				}
			],
			"stateMutability": "view",
			"type": "function"
		},
		{
			"inputs": [
				{
					"components": [
						{
							"internalType": "address",
							"name": "_alva",
							"type": "address"
						},
						{
							"internalType": "address",
							"name": "_bsktImplementation",
							"type": "address"
						},
						{
							"internalType": "address",
							"name": "_bsktPairImplementation",
							"type": "address"
						},
						{
							"internalType": "address",
							"name": "_routerAddress",
							"type": "address"
						},
						{
							"internalType": "address",
							"name": "_wethAddress",
							"type": "address"
						},
						{
							"internalType": "address",
							"name": "_royaltyReceiver",
							"type": "address"
						},
						{
							"internalType": "address",
							"name": "_feeCollector",
							"type": "address"
						},
						{
							"internalType": "address",
							"name": "_defaultMarketplace",
							"type": "address"
						},
						{
							"internalType": "uint16",
							"name": "_minPercentALVA",
							"type": "uint16"
						},
						{
							"internalType": "uint256",
							"name": "_monthlyFeeRate",
							"type": "uint256"
						},
						{
							"internalType": "string",
							"name": "_collectionUri",
							"type": "string"
						},
						{
							"internalType": "uint256",
							"name": "_minBSKTCreationAmount",
							"type": "uint256"
						}
					],
					"internalType": "struct IFactory.BTSFactoryInitParams",
					"name": "params",
					"type": "tuple"
				}
			],
			"name": "initialize",
			"outputs": [],
			"stateMutability": "nonpayable",
			"type": "function"
		},
		{
			"inputs": [
				{
					"internalType": "address",
					"name": "contractAddr",
					"type": "address"
				}
			],
			"name": "isWhitelistedContract",
			"outputs": [
				{
					"internalType": "bool",
					"name": "",
					"type": "bool"
				}
			],
			"stateMutability": "view",
			"type": "function"
		},
		{
			"inputs": [],
			"name": "minBSKTCreationAmount",
			"outputs": [
				{
					"internalType": "uint256",
					"name": "",
					"type": "uint256"
				}
			],
			"stateMutability": "view",
			"type": "function"
		},
		{
			"inputs": [],
			"name": "minLpWithdrawal",
			"outputs": [
				{
					"internalType": "uint256",
					"name": "",
					"type": "uint256"
				}
			],
			"stateMutability": "view",
			"type": "function"
		},
		{
			"inputs": [],
			"name": "minPercentALVA",
			"outputs": [
				{
					"internalType": "uint16",
					"name": "",
					"type": "uint16"
				}
			],
			"stateMutability": "view",
			"type": "function"
		},
		{
			"inputs": [],
			"name": "monthlyFeeRate",
			"outputs": [
				{
					"internalType": "uint256",
					"name": "",
					"type": "uint256"
				}
			],
			"stateMutability": "view",
			"type": "function"
		},
		{
			"inputs": [
				{
					"internalType": "bytes32",
					"name": "role",
					"type": "bytes32"
				},
				{
					"internalType": "address",
					"name": "account",
					"type": "address"
				}
			],
			"name": "renounceRole",
			"outputs": [],
			"stateMutability": "nonpayable",
			"type": "function"
		},
		{
			"inputs": [
				{
					"internalType": "bytes32",
					"name": "role",
					"type": "bytes32"
				},
				{
					"internalType": "address",
					"name": "account",
					"type": "address"
				}
			],
			"name": "revokeRole",
			"outputs": [],
			"stateMutability": "nonpayable",
			"type": "function"
		},
		{
			"inputs": [],
			"name": "router",
			"outputs": [
				{
					"internalType": "address",
					"name": "",
					"type": "address"
				}
			],
			"stateMutability": "view",
			"type": "function"
		},
		{
			"inputs": [],
			"name": "royaltyPercentage",
			"outputs": [
				{
					"internalType": "uint256",
					"name": "",
					"type": "uint256"
				}
			],
			"stateMutability": "view",
			"type": "function"
		},
		{
			"inputs": [],
			"name": "royaltyReceiver",
			"outputs": [
				{
					"internalType": "address",
					"name": "",
					"type": "address"
				}
			],
			"stateMutability": "view",
			"type": "function"
		},
		{
			"inputs": [
				{
					"internalType": "address",
					"name": "_feeCollector",
					"type": "address"
				}
			],
			"name": "setFeeCollector",
			"outputs": [],
			"stateMutability": "nonpayable",
			"type": "function"
		},
		{
			"inputs": [
				{
					"internalType": "uint256",
					"name": "newMin",
					"type": "uint256"
				}
			],
			"name": "setMinLpWithdrawal",
			"outputs": [],
			"stateMutability": "nonpayable",
			"type": "function"
		},
		{
			"inputs": [
				{
					"internalType": "uint16",
					"name": "_bsktCreationFee",
					"type": "uint16"
				},
				{
					"internalType": "uint16",
					"name": "_contributionFee",
					"type": "uint16"
				},
				{
					"internalType": "uint16",
					"name": "_withdrawalFee",
					"type": "uint16"
				}
			],
			"name": "setPlatformFeeConfig",
			"outputs": [],
			"stateMutability": "nonpayable",
			"type": "function"
		},
		{
			"inputs": [
				{
					"internalType": "bytes4",
					"name": "interfaceId",
					"type": "bytes4"
				}
			],
			"name": "supportsInterface",
			"outputs": [
				{
					"internalType": "bool",
					"name": "",
					"type": "bool"
				}
			],
			"stateMutability": "view",
			"type": "function"
		},
		{
			"inputs": [],
			"name": "totalBSKT",
			"outputs": [
				{
					"internalType": "uint256",
					"name": "",
					"type": "uint256"
				}
			],
			"stateMutability": "view",
			"type": "function"
		},
		{
			"inputs": [
				{
					"internalType": "address",
					"name": "_alva",
					"type": "address"
				}
			],
			"name": "updateAlva",
			"outputs": [],
			"stateMutability": "nonpayable",
			"type": "function"
		},
		{
			"inputs": [
				{
					"internalType": "address",
					"name": "_bsktImplementation",
					"type": "address"
				}
			],
			"name": "updateBSKTImplementation",
			"outputs": [],
			"stateMutability": "nonpayable",
			"type": "function"
		},
		{
			"inputs": [
				{
					"internalType": "address",
					"name": "_bsktPairImplementation",
					"type": "address"
				}
			],
			"name": "updateBSKTPairImplementation",
			"outputs": [],
			"stateMutability": "nonpayable",
			"type": "function"
		},
		{
			"inputs": [
				{
					"internalType": "string",
					"name": "_collectionURI",
					"type": "string"
				}
			],
			"name": "updateCollectionURI",
			"outputs": [],
			"stateMutability": "nonpayable",
			"type": "function"
		},
		{
			"inputs": [
				{
					"internalType": "uint256",
					"name": "_minBSKTCreationAmount",
					"type": "uint256"
				}
			],
			"name": "updateMinBSKTCreationAmount",
			"outputs": [],
			"stateMutability": "nonpayable",
			"type": "function"
		},
		{
			"inputs": [
				{
					"internalType": "uint16",
					"name": "_minPercentALVA",
					"type": "uint16"
				}
			],
			"name": "updateMinPercentALVA",
			"outputs": [],
			"stateMutability": "nonpayable",
			"type": "function"
		},
		{
			"inputs": [
				{
					"internalType": "uint256",
					"name": "_royaltyPercentage",
					"type": "uint256"
				}
			],
			"name": "updateRoyaltyPercentage",
			"outputs": [],
			"stateMutability": "nonpayable",
			"type": "function"
		},
		{
			"inputs": [
				{
					"internalType": "address",
					"name": "_royaltyReceiver",
					"type": "address"
				}
			],
			"name": "updateRoyaltyReceiver",
			"outputs": [],
			"stateMutability": "nonpayable",
			"type": "function"
		},
		{
			"inputs": [],
			"name": "weth",
			"outputs": [
				{
					"internalType": "address",
					"name": "",
					"type": "address"
				}
			],
			"stateMutability": "view",
			"type": "function"
		},
		{
			"inputs": [
				{
					"internalType": "address",
					"name": "",
					"type": "address"
				}
			],
			"name": "whitelistedContracts",
			"outputs": [
				{
					"internalType": "bool",
					"name": "",
					"type": "bool"
				}
			],
			"stateMutability": "view",
			"type": "function"
		}
	]
}