{
	"data": {
		"bytecode": {
			"linkReferences": {},
			"object": "6080604052348015600e575f5ffd5b506140408061001c5f395ff3fe6080604052600436106102f3575f3560e01c80638a71bb2d11610189578063c4e994a0116100d8578063defcd4b311610092578063f18f9f191161006d578063f18f9f1914610969578063f72c0d8b14610988578063f887ea40146109a8578063ffe8e372146109c7575f5ffd5b8063defcd4b314610921578063ef1e095f14610935578063f016498e1461094a575f5ffd5b8063c4e994a01461082f578063c9889f6c14610885578063d06ca61f14610898578063d23aaed3146108b7578063d547741f146108d6578063d88e3e3b146108f5575f5ffd5b8063a4c05e8c11610143578063b28775cd1161011e578063b28775cd146107b3578063b9e32d86146107d2578063bbf75517146107f1578063c20cc66514610810575f5ffd5b8063a4c05e8c14610756578063aea8afe914610775578063b0ec8be914610794575f5ffd5b80638a71bb2d1461067957806391d148541461068e578063977b4b94146106ad5780639fbc871314610705578063a217fddf14610724578063a42dce8014610737575f5ffd5b80633b9589a911610245578063682d07d9116101ff5780637295ed93116101da5780637295ed931461060657806375b238fc146106265780637618c335146106465780637910af6f1461065a575f5ffd5b8063682d07d9146105b35780636dbd5d2a146105d357806371500475146105e7575f5ffd5b80633b9589a9146104d45780633fc8cef31461050b57806346704adb146105425780634fcc1def146105615780635ee70f0914610575578063621bb66914610594575f5ffd5b8063248a9ca3116102b05780632f2ff15d1161028b5780632f2ff15d1461044757806336568abe1461046657806337929eb414610485578063391feebb146104a6575f5ffd5b8063248a9ca3146103db578063251ae3d61461040957806329dc4d9b14610428575f5ffd5b806301c4aebe146102f757806301ffc9a71461032957806305db2f41146103585780630b9421bd146103865780630e860316146103a75780631aa6b19a146103bc575b5f5ffd5b348015610302575f5ffd5b5060d1546103119061ffff1681565b60405161ffff90911681526020015b60405180910390f35b348015610334575f5ffd5b50610348610343366004612f78565b6109dc565b6040519015158152602001610320565b348015610363575f5ffd5b506103785f516020613fab5f395f51905f5281565b604051908152602001610320565b348015610391575f5ffd5b506103a56103a0366004612fba565b610a12565b005b3480156103b2575f5ffd5b5061037860d25481565b3480156103c7575f5ffd5b506103a56103d6366004612fba565b610ad6565b3480156103e6575f5ffd5b506103786103f5366004612fd3565b5f9081526065602052604090206001015490565b348015610414575f5ffd5b506103a5610423366004612ffb565b610b73565b348015610433575f5ffd5b506103a5610442366004612fba565b610c21565b348015610452575f5ffd5b506103a5610461366004613014565b610cc3565b348015610471575f5ffd5b506103a5610480366004613014565b610cec565b348015610490575f5ffd5b50610499610d6a565b604051610320919061306c565b3480156104b1575f5ffd5b506103486104c0366004612fba565b60d66020525f908152604090205460ff1681565b3480156104df575f5ffd5b506103486104ee366004612fba565b6001600160a01b03165f90815260d6602052604090205460ff1690565b348015610516575f5ffd5b5060cc5461052a906001600160a01b031681565b6040516001600160a01b039091168152602001610320565b34801561054d575f5ffd5b506103a561055c366004612fba565b610dfa565b34801561056c575f5ffd5b50610311603281565b348015610580575f5ffd5b506103a561058f366004612fba565b610ee2565b34801561059f575f5ffd5b506103a56105ae366004612fd3565b610f83565b3480156105be575f5ffd5b506103785f516020613fcb5f395f51905f5281565b3480156105de575f5ffd5b5060c954610378565b3480156105f2575f5ffd5b5061052a610601366004612fd3565b61102f565b348015610611575f5ffd5b506103785f516020613f6b5f395f51905f5281565b348015610631575f5ffd5b506103785f516020613feb5f395f51905f5281565b348015610651575f5ffd5b5060d554610378565b348015610665575f5ffd5b506103a561067436600461307e565b6110a5565b348015610684575f5ffd5b5061037860d05481565b348015610699575f5ffd5b506103486106a8366004613014565b61113f565b3480156106b8575f5ffd5b506106cc6106c7366004612fba565b611169565b604080519615158752941515602087015292151593850193909352151560608401529015156080830152151560a082015260c001610320565b348015610710575f5ffd5b5060cf5461052a906001600160a01b031681565b34801561072f575f5ffd5b506103785f81565b348015610742575f5ffd5b506103a5610751366004612fba565b611200565b348015610761575f5ffd5b5060ce5461052a906001600160a01b031681565b348015610780575f5ffd5b506103a561078f366004612fd3565b6112b5565b34801561079f575f5ffd5b506103a56107ae366004612fd3565b611336565b3480156107be575f5ffd5b5060ca5461052a906001600160a01b031681565b3480156107dd575f5ffd5b5061052a6107ec366004612fd3565b611382565b3480156107fc575f5ffd5b506103a561080b3660046130ea565b6113aa565b34801561081b575f5ffd5b506103a561082a366004612fba565b6114c2565b34801561083a575f5ffd5b5060d7546040805161ffff80841682526201000084048116602083015264010000000084041691810191909152600160301b9091046001600160a01b03166060820152608001610320565b6103a561089336600461312a565b61155f565b3480156108a3575f5ffd5b506103786108b23660046131c7565b6117ac565b3480156108c2575f5ffd5b506103786108d136600461326f565b61184d565b3480156108e1575f5ffd5b506103a56108f0366004613014565b6118ae565b348015610900575f5ffd5b5061091461090f36600461328f565b6118d2565b60405161032091906132fa565b34801561092c575f5ffd5b5061049961195d565b348015610940575f5ffd5b5061037860d35481565b348015610955575f5ffd5b506103a561096436600461330c565b6119e9565b348015610974575f5ffd5b5060cd5461052a906001600160a01b031681565b348015610993575f5ffd5b506103785f516020613f8b5f395f51905f5281565b3480156109b3575f5ffd5b5060cb5461052a906001600160a01b031681565b3480156109d2575f5ffd5b5061037861271081565b5f6001600160e01b03198216637965db0b60e01b1480610a0c57506301ffc9a760e01b6001600160e01b03198316145b92915050565b5f516020613f6b5f395f51905f52610a2981611ddc565b6001600160a01b0382165f90815260d6602052604090205460ff16610a8d576001600160a01b0382165f81815260d660205260409081902054905163502df08d60e11b8152600481019290925260ff16151560248201526044015b60405180910390fd5b6001600160a01b0382165f81815260d66020526040808220805460ff19169055517ffb8b462bd4e3db069eb434596fcfb88044cfe688f7329d1c4bdfbb113257b1ac9190a25050565b5f516020613f8b5f395f51905f52610aed81611ddc565b6001600160a01b0382161580610b0b57506001600160a01b0382163b155b15610b295760405163e6c4247b60e01b815260040160405180910390fd5b60cd80546001600160a01b0319166001600160a01b0384169081179091556040517ff9129d4eb3ecb7840baf6f4369fdada2f3e80c0ee7cf671861ebe8480648e3e7905f90a25050565b5f516020613feb5f395f51905f52610b8a81611ddc565b60648261ffff161080610ba257506113888261ffff16115b15610bd557604051632a8c162f60e01b815261ffff83166004820152606460248201819052611388604483015201610a84565b60d1805461ffff191661ffff84169081179091556040519081527ffe5045529c08df2d94cd6c8080789955f601af1d43b24ea85774158bc8a6d8fa906020015b60405180910390a15050565b5f516020613fab5f395f51905f52610c3881611ddc565b6001600160a01b0382161580610c5b575060cf546001600160a01b038381169116145b15610c795760405163e6c4247b60e01b815260040160405180910390fd5b60cf80546001600160a01b0319166001600160a01b0384169081179091556040517fc3696c23bd17454d95c44cb489c7a0db717d6d809e238813932720cc785ad535905f90a25050565b5f82815260656020526040902060010154610cdd81611ddc565b610ce78383611de6565b505050565b6001600160a01b0381163314610d5c5760405162461bcd60e51b815260206004820152602f60248201527f416363657373436f6e74726f6c3a2063616e206f6e6c792072656e6f756e636560448201526e103937b632b9903337b91039b2b63360891b6064820152608401610a84565b610d668282611e6b565b5050565b606060d48054610d7990613343565b80601f0160208091040260200160405190810160405280929190818152602001828054610da590613343565b8015610df05780601f10610dc757610100808354040283529160200191610df0565b820191905f5260205f20905b815481529060010190602001808311610dd357829003601f168201915b5050505050905090565b5f516020613f6b5f395f51905f52610e1181611ddc565b6001600160a01b0382161580610e3e57506001600160a01b0382165f90815260d6602052604090205460ff165b80610e5157506001600160a01b0382163b155b15610e96576001600160a01b0382165f81815260d660205260409081902054905163502df08d60e11b8152600481019290925260ff1615156024820152604401610a84565b6001600160a01b0382165f81815260d66020526040808220805460ff19166001179055517fb7269578552456138d47dc37471d94886205143f138387446eff0148047965f69190a25050565b5f516020613f8b5f395f51905f52610ef981611ddc565b6001600160a01b0382161580610f1757506001600160a01b0382163b155b15610f355760405163e6c4247b60e01b815260040160405180910390fd5b60ca80546001600160a01b0319166001600160a01b0384169081179091556040519081527fa43719df3844099648272f3b97682e96f64ebf9a001a1b1743242976d853a49790602001610c15565b5f516020613fab5f395f51905f52610f9a81611ddc565b811580610fa8575061012c82115b15610fd857604051630bdafe6960e01b8152600481018390526001602482015261012c6044820152606401610a84565b60d0548203610ffa57604051631c92687360e11b815260040160405180910390fd5b60d08290556040518281527f244ea8d7627f5a08f4299862bd5a45752842c183aee5b0fb0d1e4887bfa605b390602001610c15565b60d5545f9082106110785760405162461bcd60e51b8152602060048201526013602482015272496e646578206f7574206f6620626f756e647360681b6044820152606401610a84565b60d5828154811061108b5761108b61337b565b5f918252602090912001546001600160a01b031692915050565b5f516020613fcb5f395f51905f526110bc81611ddc565b5f8290036110f357604051632432186360e21b815260206004820152600360248201526255524960e81b6044820152606401610a84565b60d46111008385836133da565b507f88200832d1fe27eee076bea36a10a1eb73b9d27d9e6e5e2626a83d62ffc9ae5c83836040516111329291906134bb565b60405180910390a1505050565b5f9182526065602090815260408084206001600160a01b0393909316845291905290205460ff1690565b5f8080808080611179818861113f565b6111905f516020613feb5f395f51905f528961113f565b6111a75f516020613fab5f395f51905f528a61113f565b6111be5f516020613fcb5f395f51905f528b61113f565b6111d55f516020613f6b5f395f51905f528c61113f565b6111ec5f516020613f8b5f395f51905f528d61113f565b949c939b5091995097509550909350915050565b5f516020613fab5f395f51905f5261121781611ddc565b6001600160a01b0382161580611241575060d7546001600160a01b03838116600160301b90920416145b1561125f5760405163e6c4247b60e01b815260040160405180910390fd5b60d78054600160301b600160d01b031916600160301b6001600160a01b038516908102919091179091556040517fe5693914d19c789bdee50a362998c0bc8d035a835f9871da5d51152f0582c34f905f90a25050565b5f516020613feb5f395f51905f526112cc81611ddc565b8115806112da575060d25482145b156112f85760405163162908e360e11b815260040160405180910390fd5b60d282905560405182815233907f1a838344e9d84cd77b405cb66c9ea521bf49ab3cef195f4e1ab80864e9c29e969060200160405180910390a25050565b5f516020613feb5f395f51905f5261134d81611ddc565b60c98290556040518281527f53607f816c6861e86e8b444097d2359f544a8c81bf7574ea094cdd349bd6ea2a90602001610c15565b60d58181548110611391575f80fd5b5f918252602090912001546001600160a01b0316905081565b5f516020613fab5f395f51905f526113c181611ddc565b603261ffff851611806113d85750603261ffff8416115b806113e75750603261ffff8316115b15611405576040516358d620b360e01b815260040160405180910390fd5b6040805160808101825261ffff868116808352868216602080850182905292871684860181905260d78054600160301b8082046001600160a01b0316606098890181905263ffffffff19909216861762010000860217640100000000600160d01b0319166401000000008502600160301b600160d01b031916179102179055855192835292820152928301527f4f8ca010fe4732dd5db8b8331bb421dab5e64e4884d5a9353d7d06365ffd2677910160405180910390a150505050565b5f516020613f8b5f395f51905f526114d981611ddc565b6001600160a01b03821615806114f757506001600160a01b0382163b155b156115155760405163e6c4247b60e01b815260040160405180910390fd5b60ce80546001600160a01b0319166001600160a01b0384169081179091556040517f6e694698d0af55d5f631fe4713e0bcda24d5a3ad7c6488fba117e37f9d470c07905f90a25050565b611567611ed1565b5f61157182611f2a565b90505f5f61157e846122c5565b915091505f5f61158f838787612622565b60d580546001810182555f919091527f51858de9989bf7441865ebdadbf7382c8838edbf830f5d86a9a51ac773676dd60180546001600160a01b0319166001600160a01b038881169190911790915560405163de836ebd60e01b815292945090925084169063de836ebd9061160a9033908590600401613506565b6020604051808303815f875af1158015611626573d5f5f3e3d5ffd5b505050506040513d601f19601f8201168201806040525081019061164a9190613529565b5060405163f2fde38b60e01b81526001600160a01b03858116600483015284169063f2fde38b906024015f604051808303815f87803b15801561168b575f5ffd5b505af115801561169d573d5f5f3e3d5ffd5b50505050848211156116c2576040516309df50ff60e41b815260040160405180910390fd5b84821015611738575f336116d68488613554565b6040515f81818185875af1925050503d805f811461170f576040519150601f19603f3d011682016040523d82523d5f602084013e611714565b606091505b5050905080611736576040516312171d8360e31b815260040160405180910390fd5b505b337f04cb0e92ec6885a0962dc9bab235ba214d1cb5574d251821c50d09553b3a741985858860a08b013561176f60c08d018d613567565b61177c60e08f018f613567565b8e604051611792999897969594939291906135b0565b60405180910390a250505050506117a96001609755565b50565b60cb5460405163d06ca61f60e01b81525f916001600160a01b03169063d06ca61f906117de9086908690600401613614565b5f60405180830381865afa1580156117f8573d5f5f3e3d5ffd5b505050506040513d5f823e601f3d908101601f1916820160405261181f919081019061362c565b6001835161182d9190613554565b8151811061183d5761183d61337b565b6020026020010151905092915050565b5f5f60d354670de0b6b3a76400006118659190613554565b90505f6118786118758387612a0b565b90565b90505f8461188e83670de0b6b3a7640000613554565b61189891906136b2565b90506118a482826136c9565b9695505050505050565b5f828152606560205260409020600101546118c881611ddc565b610ce78383611e6b565b60408051600280825260608083018452925f92919060208301908036833701905050905083815f815181106119095761190961337b565b60200260200101906001600160a01b031690816001600160a01b031681525050828160018151811061193d5761193d61337b565b6001600160a01b0390921660209283029190910190910152905092915050565b60d4805461196a90613343565b80601f016020809104026020016040519081016040528092919081815260200182805461199690613343565b80156119e15780601f106119b8576101008083540402835291602001916119e1565b820191905f5260205f20905b8154815290600101906020018083116119c457829003601f168201915b505050505081565b5f54610100900460ff1615808015611a0757505f54600160ff909116105b80611a205750303b158015611a2057505f5460ff166001145b611a835760405162461bcd60e51b815260206004820152602e60248201527f496e697469616c697a61626c653a20636f6e747261637420697320616c72656160448201526d191e481a5b9a5d1a585b1a5e995960921b6064820152608401610a84565b5f805460ff191660011790558015611aa4575f805461ff0019166101001790555b611aae5f33611de6565b611ac55f516020613feb5f395f51905f5233611de6565b611adc5f516020613fab5f395f51905f5233611de6565b611af35f516020613fcb5f395f51905f5233611de6565b611b0a5f516020613f6b5f395f51905f5233611de6565b611b215f516020613f8b5f395f51905f5233611de6565b611b29612a6f565b611b3282612a9f565b611b3f6020830183612fba565b60ca80546001600160a01b0319166001600160a01b0392909216919091179055611b6f6040830160208401612fba565b60cd80546001600160a01b0319166001600160a01b0392909216919091179055611b9f6060830160408401612fba565b60ce80546001600160a01b0319166001600160a01b0392909216919091179055611bcf6080830160608401612fba565b60cb80546001600160a01b0319166001600160a01b0392909216919091179055611bff60a0830160808401612fba565b60cc80546001600160a01b0319166001600160a01b0392909216919091179055611c2f60c0830160a08401612fba565b60cf80546001600160a01b0319166001600160a01b0392909216919091179055611c6161012083016101008401612ffb565b60d1805461ffff191661ffff9290921691909117905561012082013560d355611c8e610140830183613567565b60d491611c9c9190836133da565b5061016082013560d255604080516080810182526032808252602082018190529181019190915260608101611cd760e0850160c08601612fba565b6001600160a01b03908116909152815160d7805460208501516040860151606090960151909416600160301b02600160301b600160d01b031961ffff9687166401000000000216640100000000600160d01b0319958716620100000263ffffffff19909316969094169590951717929092161791909117905560c860d055600160d65f611d6b610100860160e08701612fba565b6001600160a01b0316815260208101919091526040015f20805460ff191691151591909117905564174876e80060c9558015610d66575f805461ff0019169055604051600181527f7f26b83ff96e1f2b6a682f133852f6798a09c465da95921460cefb384740249890602001610c15565b6117a98133612c93565b611df0828261113f565b610d66575f8281526065602090815260408083206001600160a01b03851684529091529020805460ff19166001179055611e273390565b6001600160a01b0316816001600160a01b0316837f2f8788117e7eff1d82e926ec794901d17c78024a50270940304540a733656f0d60405160405180910390a45050565b611e75828261113f565b15610d66575f8281526065602090815260408083206001600160a01b0385168085529252808320805460ff1916905551339285917ff6391f5c32d9c69d2a47ea670b442974b53935d1edc7fd64eb21e047a839171b9190a45050565b600260975403611f235760405162461bcd60e51b815260206004820152601f60248201527f5265656e7472616e637947756172643a207265656e7472616e742063616c6c006044820152606401610a84565b6002609755565b5f60d254341015611f5b5760d254604051632910024b60e11b81523460048201526024810191909152604401610a84565b60a08201351580611f7257506113888260a0013510155b15611fa557604051631818d2a760e31b815260a08301356004820152600160248201526113876044820152606401610a84565b4282610100013511611fd1576040516318db49c560e21b81526101008301356004820152602401610a84565b611fdb8280613567565b90505f0361201557604051632432186360e21b8152600401610a84906020808252600490820152636e616d6560e01b604082015260600190565b6120226020830183613567565b90505f0361205c57604051632432186360e21b81526020600482015260066024820152651cde5b589bdb60d21b6044820152606401610a84565b6120696080830183613567565b90505f036120a557604051632432186360e21b8152602060048201526008602482015267746f6b656e55524960c01b6044820152606401610a84565b6120b260c0830183613567565b90505f036120e857604051632432186360e21b81526020600482015260026024820152611a5960f21b6044820152606401610a84565b6120f560608301836136e8565b905061210460408401846136e8565b905014158061211f575061211b60408301836136e8565b1590505b80612136575061213260608301836136e8565b1590505b1561215457604051631a31855360e21b815260040160405180910390fd5b60d7545f9061ffff16612167575f612186565b60d7546127109061217c9061ffff16346136b2565b61218691906136c9565b9050348111156121a9576040516358d620b360e01b815260040160405180910390fd5b80156122b45760d7546040515f91600160301b90046001600160a01b03169083908381818185875af1925050503d805f8114612200576040519150601f19603f3d011682016040523d82523d5f602084013e612205565b606091505b50509050806122615760405162461bcd60e51b815260206004820152602260248201527f4661696c656420746f206465647563742042534b54204372656174696f6e2046604482015261656560f01b6064820152608401610a84565b60d7546040805184815261ffff83166020820152600160301b9092046001600160a01b0316917f6c1c6aef6f81f33f015f6b0f806cf9f51f79d83873bfee2e930471cf78832b2d910160405180910390a2505b6122be8134613554565b9392505050565b60ce545f90819081906001600160a01b0316633a105cfb60e01b306122ed6020880188613567565b6122fa60408a018a6136e8565b60405160240161230e95949392919061372d565b60408051601f198184030181529181526020820180516001600160e01b03166001600160e01b031990941693909317909252905161234b90612f6b565b61235692919061379e565b604051809103905ff08015801561236f573d5f5f3e3d5ffd5b506040805161014081019091529092508291505f908061238f8780613567565b8080601f0160208091040260200160405190810160405280939291908181526020018383808284375f920191909152505050908252506020908101906123d790880188613567565b8080601f0160208091040260200160405190810160405280939291908181526020018383808284375f920191909152505050908252503360208201523060408083019190915260609091019061242f908801886136e8565b808060200260200160405190810160405280939291908181526020018383602002808284375f9201919091525050509082525060200161247260608801886136e8565b808060200260200160405190810160405280939291908181526020018383602002808284375f920191909152505050908252506001600160a01b03851660208201526040016124c46080880188613567565b8080601f0160208091040260200160405190810160405280939291908181526020018383808284375f9201919091525050509082525060200161250a60c0880188613567565b8080601f0160208091040260200160405190810160405280939291908181526020018383808284375f9201919091525050509082525060200161255060e0880188613567565b8080601f0160208091040260200160405190810160405280939291908181526020018383808284375f92018290525093909452505060cd5460405193945090926001600160a01b039091169150630478ecd960e41b906125b49085906024016137c1565b60408051601f198184030181529181526020820180516001600160e01b03166001600160e01b03199094169390931790925290516125f190612f6b565b6125fc92919061379e565b604051809103905ff080158015612615573d5f5f3e3d5ffd5b5096939550929350505050565b5f60608161263360408601866136e8565b90509050806001600160401b0381111561264f5761264f613161565b604051908082528060200260200182016040528015612678578160200160208202803683370190505b505f93509150825b8181101561295b575f612694600184613554565b82146126db576127106126aa60608901896136e8565b848181106126ba576126ba61337b565b90506020020135876126cc91906136b2565b6126d691906136c9565b6126e5565b6126e58587613554565b60cc549091505f9061272c906001600160a01b031661270760408b018b6136e8565b868181106127175761271761337b565b905060200201602081019061090f9190612fba565b90505f61271061274060a08b013582613554565b61274a85856117ac565b61275491906136b2565b61275e91906136c9565b90505f61276e60408b018b6136e8565b8681811061277e5761277e61337b565b90506020020160208101906127939190612fba565b6040516370a0823160e01b81526001600160a01b038d8116600483015291909116906370a0823190602401602060405180830381865afa1580156127d9573d5f5f3e3d5ffd5b505050506040513d601f19601f820116820180604052508101906127fd9190613529565b905060cb5f9054906101000a90046001600160a01b03166001600160a01b031663b6f9de958584868f8f61010001356040518663ffffffff1660e01b815260040161284b94939291906138e1565b5f604051808303818588803b158015612862575f5ffd5b505af1158015612874573d5f5f3e3d5ffd5b505050505083886128859190613915565b97508061289560408c018c6136e8565b878181106128a5576128a561337b565b90506020020160208101906128ba9190612fba565b6040516370a0823160e01b81526001600160a01b038e8116600483015291909116906370a0823190602401602060405180830381865afa158015612900573d5f5f3e3d5ffd5b505050506040513d601f19601f820116820180604052508101906129249190613529565b61292e9190613554565b8786815181106129405761294061337b565b60200260200101818152505084600101945050505050612680565b505f83116129ab5760405162461bcd60e51b815260206004820152601860248201527f746f74616c45544873776170706564206973207a65726f2000000000000000006044820152606401610a84565b5f8251116129fb5760405162461bcd60e51b815260206004820152601860248201527f616d6f756e7473206c656e67746820697320207a65726f2000000000000000006044820152606401610a84565b50935093915050565b6001609755565b5f828160018416612a2457670de0b6b3a7640000612a26565b815b9050600184901c93505b8315612a6457612a408283612cec565b91506001841615612a5857612a558183612cec565b90505b600184901c9350612a30565b805b95945050505050565b5f54610100900460ff16612a955760405162461bcd60e51b8152600401610a8490613928565b612a9d612d9e565b565b5f612aad6020830183612fba565b6001600160a01b03161480612ad957505f612ace6040830160208401612fba565b6001600160a01b0316145b80612afb57505f612af06060830160408401612fba565b6001600160a01b0316145b80612b1d57505f612b126080830160608401612fba565b6001600160a01b0316145b80612b3f57505f612b3460a0830160808401612fba565b6001600160a01b0316145b80612b6157505f612b5660c0830160a08401612fba565b6001600160a01b0316145b80612b8357505f612b7860e0830160c08401612fba565b6001600160a01b0316145b80612ba657505f612b9b610100830160e08401612fba565b6001600160a01b0316145b15612bc45760405163e6c4247b60e01b815260040160405180910390fd5b6064612bd861012083016101008401612ffb565b61ffff161080612bfe5750611388612bf861012083016101008401612ffb565b61ffff16115b15612c4457612c1561012082016101008301612ffb565b604051632a8c162f60e01b815261ffff9091166004820152606460248201819052611388604483015201610a84565b612c52610140820182613567565b90505f036117a957604051632432186360e21b815260206004820152600d60248201526c636f6c6c656374696f6e55726960981b6044820152606401610a84565b612c9d828261113f565b610d6657612caa81612dc4565b612cb5836020612dd6565b604051602001612cc692919061398a565b60408051601f198184030181529082905262461bcd60e51b8252610a849160040161306c565b5f80805f19848609848602925082811083820303915050805f03612d1d5750670de0b6b3a764000090049050610a0c565b670de0b6b3a76400008110612d4f57604051635173648d60e01b81526004810186905260248101859052604401610a84565b5f670de0b6b3a764000085870962040000818503049310909103600160ee1b02919091177faccb18165bd6fe31ae1cf318dc5b51eee0e1ba569b88cd74c1773b91fac106690291505092915050565b5f54610100900460ff16612a045760405162461bcd60e51b8152600401610a8490613928565b6060610a0c6001600160a01b03831660145b60605f612de48360026136b2565b612def906002613915565b6001600160401b03811115612e0657612e06613161565b6040519080825280601f01601f191660200182016040528015612e30576020820181803683370190505b509050600360fc1b815f81518110612e4a57612e4a61337b565b60200101906001600160f81b03191690815f1a905350600f60fb1b81600181518110612e7857612e7861337b565b60200101906001600160f81b03191690815f1a9053505f612e9a8460026136b2565b612ea5906001613915565b90505b6001811115612f1c576f181899199a1a9b1b9c1cb0b131b232b360811b85600f1660108110612ed957612ed961337b565b1a60f81b828281518110612eef57612eef61337b565b60200101906001600160f81b03191690815f1a90535060049490941c93612f15816139df565b9050612ea8565b5083156122be5760405162461bcd60e51b815260206004820181905260248201527f537472696e67733a20686578206c656e67746820696e73756666696369656e746044820152606401610a84565b610576806139f583390190565b5f60208284031215612f88575f5ffd5b81356001600160e01b0319811681146122be575f5ffd5b80356001600160a01b0381168114612fb5575f5ffd5b919050565b5f60208284031215612fca575f5ffd5b6122be82612f9f565b5f60208284031215612fe3575f5ffd5b5035919050565b803561ffff81168114612fb5575f5ffd5b5f6020828403121561300b575f5ffd5b6122be82612fea565b5f5f60408385031215613025575f5ffd5b8235915061303560208401612f9f565b90509250929050565b5f81518084528060208401602086015e5f602082860101526020601f19601f83011685010191505092915050565b602081525f6122be602083018461303e565b5f5f6020838503121561308f575f5ffd5b82356001600160401b038111156130a4575f5ffd5b8301601f810185136130b4575f5ffd5b80356001600160401b038111156130c9575f5ffd5b8560208284010111156130da575f5ffd5b6020919091019590945092505050565b5f5f5f606084860312156130fc575f5ffd5b61310584612fea565b925061311360208501612fea565b915061312160408501612fea565b90509250925092565b5f6020828403121561313a575f5ffd5b81356001600160401b0381111561314f575f5ffd5b820161012081850312156122be575f5ffd5b634e487b7160e01b5f52604160045260245ffd5b604051601f8201601f191681016001600160401b038111828210171561319d5761319d613161565b604052919050565b5f6001600160401b038211156131bd576131bd613161565b5060051b60200190565b5f5f604083850312156131d8575f5ffd5b8235915060208301356001600160401b038111156131f4575f5ffd5b8301601f81018513613204575f5ffd5b8035613217613212826131a5565b613175565b8082825260208201915060208360051b850101925087831115613238575f5ffd5b6020840193505b828410156132615761325084612f9f565b82526020938401939091019061323f565b809450505050509250929050565b5f5f60408385031215613280575f5ffd5b50508035926020909101359150565b5f5f604083850312156132a0575f5ffd5b6132a983612f9f565b915061303560208401612f9f565b5f8151808452602084019350602083015f5b828110156132f05781516001600160a01b03168652602095860195909101906001016132c9565b5093949350505050565b602081525f6122be60208301846132b7565b5f6020828403121561331c575f5ffd5b81356001600160401b03811115613331575f5ffd5b820161018081850312156122be575f5ffd5b600181811c9082168061335757607f821691505b60208210810361337557634e487b7160e01b5f52602260045260245ffd5b50919050565b634e487b7160e01b5f52603260045260245ffd5b601f821115610ce757805f5260205f20601f840160051c810160208510156133b45750805b601f840160051c820191505b818110156133d3575f81556001016133c0565b5050505050565b6001600160401b038311156133f1576133f1613161565b613405836133ff8354613343565b8361338f565b5f601f841160018114613436575f851561341f5750838201355b5f19600387901b1c1916600186901b1783556133d3565b5f83815260208120601f198716915b828110156134655786850135825560209485019460019092019101613445565b5086821015613481575f1960f88860031b161c19848701351681555b505060018560011b0183555050505050565b81835281816020850137505f828201602090810191909152601f909101601f19169091010190565b602081525f6134ce602083018486613493565b949350505050565b5f8151808452602084019350602083015f5b828110156132f05781518652602095860195909101906001016134e8565b6001600160a01b03831681526040602082018190525f906134ce908301846134d6565b5f60208284031215613539575f5ffd5b5051919050565b634e487b7160e01b5f52601160045260245ffd5b81810381811115610a0c57610a0c613540565b5f5f8335601e1984360301811261357c575f5ffd5b8301803591506001600160401b03821115613595575f5ffd5b6020019150368190038213156135a9575f5ffd5b9250929050565b6001600160a01b038a8116825289166020820152604081018890526060810187905260e0608082018190525f906135ea9083018789613493565b82810360a08401526135fd818688613493565b9150508260c08301529a9950505050505050505050565b828152604060208201525f6134ce60408301846132b7565b5f6020828403121561363c575f5ffd5b81516001600160401b03811115613651575f5ffd5b8201601f81018413613661575f5ffd5b805161366f613212826131a5565b8082825260208201915060208360051b850101925086831115613690575f5ffd5b6020840193505b828410156118a4578351825260209384019390910190613697565b8082028115828204841417610a0c57610a0c613540565b5f826136e357634e487b7160e01b5f52601260045260245ffd5b500490565b5f5f8335601e198436030181126136fd575f5ffd5b8301803591506001600160401b03821115613716575f5ffd5b6020019150600581901b36038213156135a9575f5ffd5b6001600160a01b03861681526060602082018190525f906137519083018688613493565b828103604084015283815284906020015f5b85811015613791576001600160a01b0361377c84612f9f565b16825260209283019290910190600101613763565b5098975050505050505050565b6001600160a01b03831681526040602082018190525f906134ce9083018461303e565b602081525f825161014060208401526137de61016084018261303e565b90506020840151601f198483030160408501526137fb828261303e565b915050604084015161381860608501826001600160a01b03169052565b5060608401516001600160a01b0381166080850152506080840151838203601f190160a085015261384982826132b7565b91505060a0840151601f198483030160c085015261386782826134d6565b91505060c084015161388460e08501826001600160a01b03169052565b5060e0840151838203601f19016101008501526138a1828261303e565b915050610100840151601f19848303016101208501526138c1828261303e565b915050610120840151601f1984830301610140850152612a66828261303e565b848152608060208201525f6138f960808301866132b7565b6001600160a01b03949094166040830152506060015292915050565b80820180821115610a0c57610a0c613540565b6020808252602b908201527f496e697469616c697a61626c653a20636f6e7472616374206973206e6f74206960408201526a6e697469616c697a696e6760a81b606082015260800190565b5f81518060208401855e5f93019283525090919050565b7f416363657373436f6e74726f6c3a206163636f756e742000000000000000000081525f6139bb6017830185613973565b7001034b99036b4b9b9b4b733903937b6329607d1b8152612a666011820185613973565b5f816139ed576139ed613540565b505f19019056fe60a060405260405161057638038061057683398101604081905261002291610353565b61002c828261003e565b506001600160a01b0316608052610444565b610047826100fb565b6040516001600160a01b038316907f1cf3b03a6cf19fa2baba4df148e9dcabedea7f8a5c07840e207e5c089be95d3e905f90a28051156100ef576100ea826001600160a01b0316635c60da1b6040518163ffffffff1660e01b8152600401602060405180830381865afa1580156100c0573d5f5f3e3d5ffd5b505050506040513d601f19601f820116820180604052508101906100e49190610415565b82610209565b505050565b6100f761027c565b5050565b806001600160a01b03163b5f0361013557604051631933b43b60e21b81526001600160a01b03821660048201526024015b60405180910390fd5b807fa3f0ad74e5423aebfd80d3ef4346578335a9a72aeaee59ff6cb3582b35133d5080546001600160a01b0319166001600160a01b0392831617905560408051635c60da1b60e01b815290515f92841691635c60da1b9160048083019260209291908290030181865afa1580156101ae573d5f5f3e3d5ffd5b505050506040513d601f19601f820116820180604052508101906101d29190610415565b9050806001600160a01b03163b5f036100f757604051634c9c8ce360e01b81526001600160a01b038216600482015260240161012c565b60605f5f846001600160a01b031684604051610225919061042e565b5f60405180830381855af49150503d805f811461025d576040519150601f19603f3d011682016040523d82523d5f602084013e610262565b606091505b50909250905061027385838361029d565b95945050505050565b341561029b5760405163b398979f60e01b815260040160405180910390fd5b565b6060826102b2576102ad826102fc565b6102f5565b81511580156102c957506001600160a01b0384163b155b156102f257604051639996b31560e01b81526001600160a01b038516600482015260240161012c565b50805b9392505050565b80511561030b57805160208201fd5b60405163d6bda27560e01b815260040160405180910390fd5b80516001600160a01b038116811461033a575f5ffd5b919050565b634e487b7160e01b5f52604160045260245ffd5b5f5f60408385031215610364575f5ffd5b61036d83610324565b60208401519092506001600160401b03811115610388575f5ffd5b8301601f81018513610398575f5ffd5b80516001600160401b038111156103b1576103b161033f565b604051601f8201601f19908116603f011681016001600160401b03811182821017156103df576103df61033f565b6040528181528282016020018710156103f6575f5ffd5b8160208401602083015e5f602083830101528093505050509250929050565b5f60208284031215610425575f5ffd5b6102f582610324565b5f82518060208501845e5f920191825250919050565b60805161011b61045b5f395f601d015261011b5ff3fe6080604052600a600c565b005b60186014601a565b609d565b565b5f7f00000000000000000000000000000000000000000000000000000000000000006001600160a01b0316635c60da1b6040518163ffffffff1660e01b8152600401602060405180830381865afa1580156076573d5f5f3e3d5ffd5b505050506040513d601f19601f820116820180604052508101906098919060ba565b905090565b365f5f375f5f365f845af43d5f5f3e80801560b6573d5ff35b3d5ffd5b5f6020828403121560c9575f5ffd5b81516001600160a01b038116811460de575f5ffd5b939250505056fea2646970667358221220c6ed67f1370d7aa3997a334c56c15dcad286a92509509319f1f8f4b6891f310f64736f6c634300081c00332a3dab589bcc9747970dd85ac3f222668741ae51f2a1bbb8f8355be28dd8a868189ab7a9244df0848122154315af71fe140f3db0fe014031783b0946b8c9d2e36c0757dc3e6b28b2580c03fd9e96c274acf4f99d91fbec9b418fa1d70604ff1ca70a2d8710fed9f014c8c2af50c7c2f6b25748ae4cded822e03b7beed44cf3a8a49807205ce4d355092ef5a8a18f56e8913cf4a201fbe287825b095693c21775a26469706673582212202484e71963779130a127febb4742001c8e15ed118ba33709003c66e5bfb572ce64736f6c634300081c0033",
			"opcodes": "PUSH1 0x80 PUSH1 0x40 MSTORE CALLVALUE DUP1 ISZERO PUSH1 0xE JUMPI PUSH0 PUSH0 REVERT JUMPDEST POP PUSH2 0x4040 DUP1 PUSH2 0x1C PUSH0 CODECOPY PUSH0 RETURN INVALID PUSH1 0x80 PUSH1 0x40 MSTORE PUSH1 0x4 CALLDATASIZE LT PUSH2 0x2F3 JUMPI PUSH0 CALLDATALOAD PUSH1 0xE0 SHR DUP1 PUSH4 0x8A71BB2D GT PUSH2 0x189 JUMPI DUP1 PUSH4 0xC4E994A0 GT PUSH2 0xD8 JUMPI DUP1 PUSH4 0xDEFCD4B3 GT PUSH2 0x92 JUMPI DUP1 PUSH4 0xF18F9F19 GT PUSH2 0x6D JUMPI DUP1 PUSH4 0xF18F9F19 EQ PUSH2 0x969 JUMPI DUP1 PUSH4 0xF72C0D8B EQ PUSH2 0x988 JUMPI DUP1 PUSH4 0xF887EA40 EQ PUSH2 0x9A8 JUMPI DUP1 PUSH4 0xFFE8E372 EQ PUSH2 0x9C7 JUMPI PUSH0 PUSH0 REVERT JUMPDEST DUP1 PUSH4 0xDEFCD4B3 EQ PUSH2 0x921 JUMPI DUP1 PUSH4 0xEF1E095F EQ PUSH2 0x935 JUMPI DUP1 PUSH4 0xF016498E EQ PUSH2 0x94A JUMPI PUSH0 PUSH0 REVERT JUMPDEST DUP1 PUSH4 0xC4E994A0 EQ PUSH2 0x82F JUMPI DUP1 PUSH4 0xC9889F6C EQ PUSH2 0x885 JUMPI DUP1 PUSH4 0xD06CA61F EQ PUSH2 0x898 JUMPI DUP1 PUSH4 0xD23AAED3 EQ PUSH2 0x8B7 JUMPI DUP1 PUSH4 0xD547741F EQ PUSH2 0x8D6 JUMPI DUP1 PUSH4 0xD88E3E3B EQ PUSH2 0x8F5 JUMPI PUSH0 PUSH0 REVERT JUMPDEST DUP1 PUSH4 0xA4C05E8C GT PUSH2 0x143 JUMPI DUP1 PUSH4 0xB28775CD GT PUSH2 0x11E JUMPI DUP1 PUSH4 0xB28775CD EQ PUSH2 0x7B3 JUMPI DUP1 PUSH4 0xB9E32D86 EQ PUSH2 0x7D2 JUMPI DUP1 PUSH4 0xBBF75517 EQ PUSH2 0x7F1 JUMPI DUP1 PUSH4 0xC20CC665 EQ PUSH2 0x810 JUMPI PUSH0 PUSH0 REVERT JUMPDEST DUP1 PUSH4 0xA4C05E8C EQ PUSH2 0x756 JUMPI DUP1 PUSH4 0xAEA8AFE9 EQ PUSH2 0x775 JUMPI DUP1 PUSH4 0xB0EC8BE9 EQ PUSH2 0x794 JUMPI PUSH0 PUSH0 REVERT JUMPDEST DUP1 PUSH4 0x8A71BB2D EQ PUSH2 0x679 JUMPI DUP1 PUSH4 0x91D14854 EQ PUSH2 0x68E JUMPI DUP1 PUSH4 0x977B4B94 EQ PUSH2 0x6AD JUMPI DUP1 PUSH4 0x9FBC8713 EQ PUSH2 0x705 JUMPI DUP1 PUSH4 0xA217FDDF EQ PUSH2 0x724 JUMPI DUP1 PUSH4 0xA42DCE80 EQ PUSH2 0x737 JUMPI PUSH0 PUSH0 REVERT JUMPDEST DUP1 PUSH4 0x3B9589A9 GT PUSH2 0x245 JUMPI DUP1 PUSH4 0x682D07D9 GT PUSH2 0x1FF JUMPI DUP1 PUSH4 0x7295ED93 GT PUSH2 0x1DA JUMPI DUP1 PUSH4 0x7295ED93 EQ PUSH2 0x606 JUMPI DUP1 PUSH4 0x75B238FC EQ PUSH2 0x626 JUMPI DUP1 PUSH4 0x7618C335 EQ PUSH2 0x646 JUMPI DUP1 PUSH4 0x7910AF6F EQ PUSH2 0x65A JUMPI PUSH0 PUSH0 REVERT JUMPDEST DUP1 PUSH4 0x682D07D9 EQ PUSH2 0x5B3 JUMPI DUP1 PUSH4 0x6DBD5D2A EQ PUSH2 0x5D3 JUMPI DUP1 PUSH4 0x71500475 EQ PUSH2 0x5E7 JUMPI PUSH0 PUSH0 REVERT JUMPDEST DUP1 PUSH4 0x3B9589A9 EQ PUSH2 0x4D4 JUMPI DUP1 PUSH4 0x3FC8CEF3 EQ PUSH2 0x50B JUMPI DUP1 PUSH4 0x46704ADB EQ PUSH2 0x542 JUMPI DUP1 PUSH4 0x4FCC1DEF EQ PUSH2 0x561 JUMPI DUP1 PUSH4 0x5EE70F09 EQ PUSH2 0x575 JUMPI DUP1 PUSH4 0x621BB669 EQ PUSH2 0x594 JUMPI PUSH0 PUSH0 REVERT JUMPDEST DUP1 PUSH4 0x248A9CA3 GT PUSH2 0x2B0 JUMPI DUP1 PUSH4 0x2F2FF15D GT PUSH2 0x28B JUMPI DUP1 PUSH4 0x2F2FF15D EQ PUSH2 0x447 JUMPI DUP1 PUSH4 0x36568ABE EQ PUSH2 0x466 JUMPI DUP1 PUSH4 0x37929EB4 EQ PUSH2 0x485 JUMPI DUP1 PUSH4 0x391FEEBB EQ PUSH2 0x4A6 JUMPI PUSH0 PUSH0 REVERT JUMPDEST DUP1 PUSH4 0x248A9CA3 EQ PUSH2 0x3DB JUMPI DUP1 PUSH4 0x251AE3D6 EQ PUSH2 0x409 JUMPI DUP1 PUSH4 0x29DC4D9B EQ PUSH2 0x428 JUMPI PUSH0 PUSH0 REVERT JUMPDEST DUP1 PUSH4 0x1C4AEBE EQ PUSH2 0x2F7 JUMPI DUP1 PUSH4 0x1FFC9A7 EQ PUSH2 0x329 JUMPI DUP1 PUSH4 0x5DB2F41 EQ PUSH2 0x358 JUMPI DUP1 PUSH4 0xB9421BD EQ PUSH2 0x386 JUMPI DUP1 PUSH4 0xE860316 EQ PUSH2 0x3A7 JUMPI DUP1 PUSH4 0x1AA6B19A EQ PUSH2 0x3BC JUMPI JUMPDEST PUSH0 PUSH0 REVERT JUMPDEST CALLVALUE DUP1 ISZERO PUSH2 0x302 JUMPI PUSH0 PUSH0 REVERT JUMPDEST POP PUSH1 0xD1 SLOAD PUSH2 0x311 SWAP1 PUSH2 0xFFFF AND DUP2 JUMP JUMPDEST PUSH1 0x40 MLOAD PUSH2 0xFFFF SWAP1 SWAP2 AND DUP2 MSTORE PUSH1 0x20 ADD JUMPDEST PUSH1 0x40 MLOAD DUP1 SWAP2 SUB SWAP1 RETURN JUMPDEST CALLVALUE DUP1 ISZERO PUSH2 0x334 JUMPI PUSH0 PUSH0 REVERT JUMPDEST POP PUSH2 0x348 PUSH2 0x343 CALLDATASIZE PUSH1 0x4 PUSH2 0x2F78 JUMP JUMPDEST PUSH2 0x9DC JUMP JUMPDEST PUSH1 0x40 MLOAD SWAP1 ISZERO ISZERO DUP2 MSTORE PUSH1 0x20 ADD PUSH2 0x320 JUMP JUMPDEST CALLVALUE DUP1 ISZERO PUSH2 0x363 JUMPI PUSH0 PUSH0 REVERT JUMPDEST POP PUSH2 0x378 PUSH0 MLOAD PUSH1 0x20 PUSH2 0x3FAB PUSH0 CODECOPY PUSH0 MLOAD SWAP1 PUSH0 MSTORE DUP2 JUMP JUMPDEST PUSH1 0x40 MLOAD SWAP1 DUP2 MSTORE PUSH1 0x20 ADD PUSH2 0x320 JUMP JUMPDEST CALLVALUE DUP1 ISZERO PUSH2 0x391 JUMPI PUSH0 PUSH0 REVERT JUMPDEST POP PUSH2 0x3A5 PUSH2 0x3A0 CALLDATASIZE PUSH1 0x4 PUSH2 0x2FBA JUMP JUMPDEST PUSH2 0xA12 JUMP JUMPDEST STOP JUMPDEST CALLVALUE DUP1 ISZERO PUSH2 0x3B2 JUMPI PUSH0 PUSH0 REVERT JUMPDEST POP PUSH2 0x378 PUSH1 0xD2 SLOAD DUP2 JUMP JUMPDEST CALLVALUE DUP1 ISZERO PUSH2 0x3C7 JUMPI PUSH0 PUSH0 REVERT JUMPDEST POP PUSH2 0x3A5 PUSH2 0x3D6 CALLDATASIZE PUSH1 0x4 PUSH2 0x2FBA JUMP JUMPDEST PUSH2 0xAD6 JUMP JUMPDEST CALLVALUE DUP1 ISZERO PUSH2 0x3E6 JUMPI PUSH0 PUSH0 REVERT JUMPDEST POP PUSH2 0x378 PUSH2 0x3F5 CALLDATASIZE PUSH1 0x4 PUSH2 0x2FD3 JUMP JUMPDEST PUSH0 SWAP1 DUP2 MSTORE PUSH1 0x65 PUSH1 0x20 MSTORE PUSH1 0x40 SWAP1 KECCAK256 PUSH1 0x1 ADD SLOAD SWAP1 JUMP JUMPDEST CALLVALUE DUP1 ISZERO PUSH2 0x414 JUMPI PUSH0 PUSH0 REVERT JUMPDEST POP PUSH2 0x3A5 PUSH2 0x423 CALLDATASIZE PUSH1 0x4 PUSH2 0x2FFB JUMP JUMPDEST PUSH2 0xB73 JUMP JUMPDEST CALLVALUE DUP1 ISZERO PUSH2 0x433 JUMPI PUSH0 PUSH0 REVERT JUMPDEST POP PUSH2 0x3A5 PUSH2 0x442 CALLDATASIZE PUSH1 0x4 PUSH2 0x2FBA JUMP JUMPDEST PUSH2 0xC21 JUMP JUMPDEST CALLVALUE DUP1 ISZERO PUSH2 0x452 JUMPI PUSH0 PUSH0 REVERT JUMPDEST POP PUSH2 0x3A5 PUSH2 0x461 CALLDATASIZE PUSH1 0x4 PUSH2 0x3014 JUMP JUMPDEST PUSH2 0xCC3 JUMP JUMPDEST CALLVALUE DUP1 ISZERO PUSH2 0x471 JUMPI PUSH0 PUSH0 REVERT JUMPDEST POP PUSH2 0x3A5 PUSH2 0x480 CALLDATASIZE PUSH1 0x4 PUSH2 0x3014 JUMP JUMPDEST PUSH2 0xCEC JUMP JUMPDEST CALLVALUE DUP1 ISZERO PUSH2 0x490 JUMPI PUSH0 PUSH0 REVERT JUMPDEST POP PUSH2 0x499 PUSH2 0xD6A JUMP JUMPDEST PUSH1 0x40 MLOAD PUSH2 0x320 SWAP2 SWAP1 PUSH2 0x306C JUMP JUMPDEST CALLVALUE DUP1 ISZERO PUSH2 0x4B1 JUMPI PUSH0 PUSH0 REVERT JUMPDEST POP PUSH2 0x348 PUSH2 0x4C0 CALLDATASIZE PUSH1 0x4 PUSH2 0x2FBA JUMP JUMPDEST PUSH1 0xD6 PUSH1 0x20 MSTORE PUSH0 SWAP1 DUP2 MSTORE PUSH1 0x40 SWAP1 KECCAK256 SLOAD PUSH1 0xFF AND DUP2 JUMP JUMPDEST CALLVALUE DUP1 ISZERO PUSH2 0x4DF JUMPI PUSH0 PUSH0 REVERT JUMPDEST POP PUSH2 0x348 PUSH2 0x4EE CALLDATASIZE PUSH1 0x4 PUSH2 0x2FBA JUMP JUMPDEST PUSH1 0x1 PUSH1 0x1 PUSH1 0xA0 SHL SUB AND PUSH0 SWAP1 DUP2 MSTORE PUSH1 0xD6 PUSH1 0x20 MSTORE PUSH1 0x40 SWAP1 KECCAK256 SLOAD PUSH1 0xFF AND SWAP1 JUMP JUMPDEST CALLVALUE DUP1 ISZERO PUSH2 0x516 JUMPI PUSH0 PUSH0 REVERT JUMPDEST POP PUSH1 0xCC SLOAD PUSH2 0x52A SWAP1 PUSH1 0x1 PUSH1 0x1 PUSH1 0xA0 SHL SUB AND DUP2 JUMP JUMPDEST PUSH1 0x40 MLOAD PUSH1 0x1 PUSH1 0x1 PUSH1 0xA0 SHL SUB SWAP1 SWAP2 AND DUP2 MSTORE PUSH1 0x20 ADD PUSH2 0x320 JUMP JUMPDEST CALLVALUE DUP1 ISZERO PUSH2 0x54D JUMPI PUSH0 PUSH0 REVERT JUMPDEST POP PUSH2 0x3A5 PUSH2 0x55C CALLDATASIZE PUSH1 0x4 PUSH2 0x2FBA JUMP JUMPDEST PUSH2 0xDFA JUMP JUMPDEST CALLVALUE DUP1 ISZERO PUSH2 0x56C JUMPI PUSH0 PUSH0 REVERT JUMPDEST POP PUSH2 0x311 PUSH1 0x32 DUP2 JUMP JUMPDEST CALLVALUE DUP1 ISZERO PUSH2 0x580 JUMPI PUSH0 PUSH0 REVERT JUMPDEST POP PUSH2 0x3A5 PUSH2 0x58F CALLDATASIZE PUSH1 0x4 PUSH2 0x2FBA JUMP JUMPDEST PUSH2 0xEE2 JUMP JUMPDEST CALLVALUE DUP1 ISZERO PUSH2 0x59F JUMPI PUSH0 PUSH0 REVERT JUMPDEST POP PUSH2 0x3A5 PUSH2 0x5AE CALLDATASIZE PUSH1 0x4 PUSH2 0x2FD3 JUMP JUMPDEST PUSH2 0xF83 JUMP JUMPDEST CALLVALUE DUP1 ISZERO PUSH2 0x5BE JUMPI PUSH0 PUSH0 REVERT JUMPDEST POP PUSH2 0x378 PUSH0 MLOAD PUSH1 0x20 PUSH2 0x3FCB PUSH0 CODECOPY PUSH0 MLOAD SWAP1 PUSH0 MSTORE DUP2 JUMP JUMPDEST CALLVALUE DUP1 ISZERO PUSH2 0x5DE JUMPI PUSH0 PUSH0 REVERT JUMPDEST POP PUSH1 0xC9 SLOAD PUSH2 0x378 JUMP JUMPDEST CALLVALUE DUP1 ISZERO PUSH2 0x5F2 JUMPI PUSH0 PUSH0 REVERT JUMPDEST POP PUSH2 0x52A PUSH2 0x601 CALLDATASIZE PUSH1 0x4 PUSH2 0x2FD3 JUMP JUMPDEST PUSH2 0x102F JUMP JUMPDEST CALLVALUE DUP1 ISZERO PUSH2 0x611 JUMPI PUSH0 PUSH0 REVERT JUMPDEST POP PUSH2 0x378 PUSH0 MLOAD PUSH1 0x20 PUSH2 0x3F6B PUSH0 CODECOPY PUSH0 MLOAD SWAP1 PUSH0 MSTORE DUP2 JUMP JUMPDEST CALLVALUE DUP1 ISZERO PUSH2 0x631 JUMPI PUSH0 PUSH0 REVERT JUMPDEST POP PUSH2 0x378 PUSH0 MLOAD PUSH1 0x20 PUSH2 0x3FEB PUSH0 CODECOPY PUSH0 MLOAD SWAP1 PUSH0 MSTORE DUP2 JUMP JUMPDEST CALLVALUE DUP1 ISZERO PUSH2 0x651 JUMPI PUSH0 PUSH0 REVERT JUMPDEST POP PUSH1 0xD5 SLOAD PUSH2 0x378 JUMP JUMPDEST CALLVALUE DUP1 ISZERO PUSH2 0x665 JUMPI PUSH0 PUSH0 REVERT JUMPDEST POP PUSH2 0x3A5 PUSH2 0x674 CALLDATASIZE PUSH1 0x4 PUSH2 0x307E JUMP JUMPDEST PUSH2 0x10A5 JUMP JUMPDEST CALLVALUE DUP1 ISZERO PUSH2 0x684 JUMPI PUSH0 PUSH0 REVERT JUMPDEST POP PUSH2 0x378 PUSH1 0xD0 SLOAD DUP2 JUMP JUMPDEST CALLVALUE DUP1 ISZERO PUSH2 0x699 JUMPI PUSH0 PUSH0 REVERT JUMPDEST POP PUSH2 0x348 PUSH2 0x6A8 CALLDATASIZE PUSH1 0x4 PUSH2 0x3014 JUMP JUMPDEST PUSH2 0x113F JUMP JUMPDEST CALLVALUE DUP1 ISZERO PUSH2 0x6B8 JUMPI PUSH0 PUSH0 REVERT JUMPDEST POP PUSH2 0x6CC PUSH2 0x6C7 CALLDATASIZE PUSH1 0x4 PUSH2 0x2FBA JUMP JUMPDEST PUSH2 0x1169 JUMP JUMPDEST PUSH1 0x40 DUP1 MLOAD SWAP7 ISZERO ISZERO DUP8 MSTORE SWAP5 ISZERO ISZERO PUSH1 0x20 DUP8 ADD MSTORE SWAP3 ISZERO ISZERO SWAP4 DUP6 ADD SWAP4 SWAP1 SWAP4 MSTORE ISZERO ISZERO PUSH1 0x60 DUP5 ADD MSTORE SWAP1 ISZERO ISZERO PUSH1 0x80 DUP4 ADD MSTORE ISZERO ISZERO PUSH1 0xA0 DUP3 ADD MSTORE PUSH1 0xC0 ADD PUSH2 0x320 JUMP JUMPDEST CALLVALUE DUP1 ISZERO PUSH2 0x710 JUMPI PUSH0 PUSH0 REVERT JUMPDEST POP PUSH1 0xCF SLOAD PUSH2 0x52A SWAP1 PUSH1 0x1 PUSH1 0x1 PUSH1 0xA0 SHL SUB AND DUP2 JUMP JUMPDEST CALLVALUE DUP1 ISZERO PUSH2 0x72F JUMPI PUSH0 PUSH0 REVERT JUMPDEST POP PUSH2 0x378 PUSH0 DUP2 JUMP JUMPDEST CALLVALUE DUP1 ISZERO PUSH2 0x742 JUMPI PUSH0 PUSH0 REVERT JUMPDEST POP PUSH2 0x3A5 PUSH2 0x751 CALLDATASIZE PUSH1 0x4 PUSH2 0x2FBA JUMP JUMPDEST PUSH2 0x1200 JUMP JUMPDEST CALLVALUE DUP1 ISZERO PUSH2 0x761 JUMPI PUSH0 PUSH0 REVERT JUMPDEST POP PUSH1 0xCE SLOAD PUSH2 0x52A SWAP1 PUSH1 0x1 PUSH1 0x1 PUSH1 0xA0 SHL SUB AND DUP2 JUMP JUMPDEST CALLVALUE DUP1 ISZERO PUSH2 0x780 JUMPI PUSH0 PUSH0 REVERT JUMPDEST POP PUSH2 0x3A5 PUSH2 0x78F CALLDATASIZE PUSH1 0x4 PUSH2 0x2FD3 JUMP JUMPDEST PUSH2 0x12B5 JUMP JUMPDEST CALLVALUE DUP1 ISZERO PUSH2 0x79F JUMPI PUSH0 PUSH0 REVERT JUMPDEST POP PUSH2 0x3A5 PUSH2 0x7AE CALLDATASIZE PUSH1 0x4 PUSH2 0x2FD3 JUMP JUMPDEST PUSH2 0x1336 JUMP JUMPDEST CALLVALUE DUP1 ISZERO PUSH2 0x7BE JUMPI PUSH0 PUSH0 REVERT JUMPDEST POP PUSH1 0xCA SLOAD PUSH2 0x52A SWAP1 PUSH1 0x1 PUSH1 0x1 PUSH1 0xA0 SHL SUB AND DUP2 JUMP JUMPDEST CALLVALUE DUP1 ISZERO PUSH2 0x7DD JUMPI PUSH0 PUSH0 REVERT JUMPDEST POP PUSH2 0x52A PUSH2 0x7EC CALLDATASIZE PUSH1 0x4 PUSH2 0x2FD3 JUMP JUMPDEST PUSH2 0x1382 JUMP JUMPDEST CALLVALUE DUP1 ISZERO PUSH2 0x7FC JUMPI PUSH0 PUSH0 REVERT JUMPDEST POP PUSH2 0x3A5 PUSH2 0x80B CALLDATASIZE PUSH1 0x4 PUSH2 0x30EA JUMP JUMPDEST PUSH2 0x13AA JUMP JUMPDEST CALLVALUE DUP1 ISZERO PUSH2 0x81B JUMPI PUSH0 PUSH0 REVERT JUMPDEST POP PUSH2 0x3A5 PUSH2 0x82A CALLDATASIZE PUSH1 0x4 PUSH2 0x2FBA JUMP JUMPDEST PUSH2 0x14C2 JUMP JUMPDEST CALLVALUE DUP1 ISZERO PUSH2 0x83A JUMPI PUSH0 PUSH0 REVERT JUMPDEST POP PUSH1 0xD7 SLOAD PUSH1 0x40 DUP1 MLOAD PUSH2 0xFFFF DUP1 DUP5 AND DUP3 MSTORE PUSH3 0x10000 DUP5 DIV DUP2 AND PUSH1 0x20 DUP4 ADD MSTORE PUSH5 0x100000000 DUP5 DIV AND SWAP2 DUP2 ADD SWAP2 SWAP1 SWAP2 MSTORE PUSH1 0x1 PUSH1 0x30 SHL SWAP1 SWAP2 DIV PUSH1 0x1 PUSH1 0x1 PUSH1 0xA0 SHL SUB AND PUSH1 0x60 DUP3 ADD MSTORE PUSH1 0x80 ADD PUSH2 0x320 JUMP JUMPDEST PUSH2 0x3A5 PUSH2 0x893 CALLDATASIZE PUSH1 0x4 PUSH2 0x312A JUMP JUMPDEST PUSH2 0x155F JUMP JUMPDEST CALLVALUE DUP1 ISZERO PUSH2 0x8A3 JUMPI PUSH0 PUSH0 REVERT JUMPDEST POP PUSH2 0x378 PUSH2 0x8B2 CALLDATASIZE PUSH1 0x4 PUSH2 0x31C7 JUMP JUMPDEST PUSH2 0x17AC JUMP JUMPDEST CALLVALUE DUP1 ISZERO PUSH2 0x8C2 JUMPI PUSH0 PUSH0 REVERT JUMPDEST POP PUSH2 0x378 PUSH2 0x8D1 CALLDATASIZE PUSH1 0x4 PUSH2 0x326F JUMP JUMPDEST PUSH2 0x184D JUMP JUMPDEST CALLVALUE DUP1 ISZERO PUSH2 0x8E1 JUMPI PUSH0 PUSH0 REVERT JUMPDEST POP PUSH2 0x3A5 PUSH2 0x8F0 CALLDATASIZE PUSH1 0x4 PUSH2 0x3014 JUMP JUMPDEST PUSH2 0x18AE JUMP JUMPDEST CALLVALUE DUP1 ISZERO PUSH2 0x900 JUMPI PUSH0 PUSH0 REVERT JUMPDEST POP PUSH2 0x914 PUSH2 0x90F CALLDATASIZE PUSH1 0x4 PUSH2 0x328F JUMP JUMPDEST PUSH2 0x18D2 JUMP JUMPDEST PUSH1 0x40 MLOAD PUSH2 0x320 SWAP2 SWAP1 PUSH2 0x32FA JUMP JUMPDEST CALLVALUE DUP1 ISZERO PUSH2 0x92C JUMPI PUSH0 PUSH0 REVERT JUMPDEST POP PUSH2 0x499 PUSH2 0x195D JUMP JUMPDEST CALLVALUE DUP1 ISZERO PUSH2 0x940 JUMPI PUSH0 PUSH0 REVERT JUMPDEST POP PUSH2 0x378 PUSH1 0xD3 SLOAD DUP2 JUMP JUMPDEST CALLVALUE DUP1 ISZERO PUSH2 0x955 JUMPI PUSH0 PUSH0 REVERT JUMPDEST POP PUSH2 0x3A5 PUSH2 0x964 CALLDATASIZE PUSH1 0x4 PUSH2 0x330C JUMP JUMPDEST PUSH2 0x19E9 JUMP JUMPDEST CALLVALUE DUP1 ISZERO PUSH2 0x974 JUMPI PUSH0 PUSH0 REVERT JUMPDEST POP PUSH1 0xCD SLOAD PUSH2 0x52A SWAP1 PUSH1 0x1 PUSH1 0x1 PUSH1 0xA0 SHL SUB AND DUP2 JUMP JUMPDEST CALLVALUE DUP1 ISZERO PUSH2 0x993 JUMPI PUSH0 PUSH0 REVERT JUMPDEST POP PUSH2 0x378 PUSH0 MLOAD PUSH1 0x20 PUSH2 0x3F8B PUSH0 CODECOPY PUSH0 MLOAD SWAP1 PUSH0 MSTORE DUP2 JUMP JUMPDEST CALLVALUE DUP1 ISZERO PUSH2 0x9B3 JUMPI PUSH0 PUSH0 REVERT JUMPDEST POP PUSH1 0xCB SLOAD PUSH2 0x52A SWAP1 PUSH1 0x1 PUSH1 0x1 PUSH1 0xA0 SHL SUB AND DUP2 JUMP JUMPDEST CALLVALUE DUP1 ISZERO PUSH2 0x9D2 JUMPI PUSH0 PUSH0 REVERT JUMPDEST POP PUSH2 0x378 PUSH2 0x2710 DUP2 JUMP JUMPDEST PUSH0 PUSH1 0x1 PUSH1 0x1 PUSH1 0xE0 SHL SUB NOT DUP3 AND PUSH4 0x7965DB0B PUSH1 0xE0 SHL EQ DUP1 PUSH2 0xA0C JUMPI POP PUSH4 0x1FFC9A7 PUSH1 0xE0 SHL PUSH1 0x1 PUSH1 0x1 PUSH1 0xE0 SHL SUB NOT DUP4 AND EQ JUMPDEST SWAP3 SWAP2 POP POP JUMP JUMPDEST PUSH0 MLOAD PUSH1 0x20 PUSH2 0x3F6B PUSH0 CODECOPY PUSH0 MLOAD SWAP1 PUSH0 MSTORE PUSH2 0xA29 DUP2 PUSH2 0x1DDC JUMP JUMPDEST PUSH1 0x1 PUSH1 0x1 PUSH1 0xA0 SHL SUB DUP3 AND PUSH0 SWAP1 DUP2 MSTORE PUSH1 0xD6 PUSH1 0x20 MSTORE PUSH1 0x40 SWAP1 KECCAK256 SLOAD PUSH1 0xFF AND PUSH2 0xA8D JUMPI PUSH1 0x1 PUSH1 0x1 PUSH1 0xA0 SHL SUB DUP3 AND PUSH0 DUP2 DUP2 MSTORE PUSH1 0xD6 PUSH1 0x20 MSTORE PUSH1 0x40 SWAP1 DUP2 SWAP1 KECCAK256 SLOAD SWAP1 MLOAD PUSH4 0x502DF08D PUSH1 0xE1 SHL DUP2 MSTORE PUSH1 0x4 DUP2 ADD SWAP3 SWAP1 SWAP3 MSTORE PUSH1 0xFF AND ISZERO ISZERO PUSH1 0x24 DUP3 ADD MSTORE PUSH1 0x44 ADD JUMPDEST PUSH1 0x40 MLOAD DUP1 SWAP2 SUB SWAP1 REVERT JUMPDEST PUSH1 0x1 PUSH1 0x1 PUSH1 0xA0 SHL SUB DUP3 AND PUSH0 DUP2 DUP2 MSTORE PUSH1 0xD6 PUSH1 0x20 MSTORE PUSH1 0x40 DUP1 DUP3 KECCAK256 DUP1 SLOAD PUSH1 0xFF NOT AND SWAP1 SSTORE MLOAD PUSH32 0xFB8B462BD4E3DB069EB434596FCFB88044CFE688F7329D1C4BDFBB113257B1AC SWAP2 SWAP1 LOG2 POP POP JUMP JUMPDEST PUSH0 MLOAD PUSH1 0x20 PUSH2 0x3F8B PUSH0 CODECOPY PUSH0 MLOAD SWAP1 PUSH0 MSTORE PUSH2 0xAED DUP2 PUSH2 0x1DDC JUMP JUMPDEST PUSH1 0x1 PUSH1 0x1 PUSH1 0xA0 SHL SUB DUP3 AND ISZERO DUP1 PUSH2 0xB0B JUMPI POP PUSH1 0x1 PUSH1 0x1 PUSH1 0xA0 SHL SUB DUP3 AND EXTCODESIZE ISZERO JUMPDEST ISZERO PUSH2 0xB29 JUMPI PUSH1 0x40 MLOAD PUSH4 0xE6C4247B PUSH1 0xE0 SHL DUP2 MSTORE PUSH1 0x4 ADD PUSH1 0x40 MLOAD DUP1 SWAP2 SUB SWAP1 REVERT JUMPDEST PUSH1 0xCD DUP1 SLOAD PUSH1 0x1 PUSH1 0x1 PUSH1 0xA0 SHL SUB NOT AND PUSH1 0x1 PUSH1 0x1 PUSH1 0xA0 SHL SUB DUP5 AND SWAP1 DUP2 OR SWAP1 SWAP2 SSTORE PUSH1 0x40 MLOAD PUSH32 0xF9129D4EB3ECB7840BAF6F4369FDADA2F3E80C0EE7CF671861EBE8480648E3E7 SWAP1 PUSH0 SWAP1 LOG2 POP POP JUMP JUMPDEST PUSH0 MLOAD PUSH1 0x20 PUSH2 0x3FEB PUSH0 CODECOPY PUSH0 MLOAD SWAP1 PUSH0 MSTORE PUSH2 0xB8A DUP2 PUSH2 0x1DDC JUMP JUMPDEST PUSH1 0x64 DUP3 PUSH2 0xFFFF AND LT DUP1 PUSH2 0xBA2 JUMPI POP PUSH2 0x1388 DUP3 PUSH2 0xFFFF AND GT JUMPDEST ISZERO PUSH2 0xBD5 JUMPI PUSH1 0x40 MLOAD PUSH4 0x2A8C162F PUSH1 0xE0 SHL DUP2 MSTORE PUSH2 0xFFFF DUP4 AND PUSH1 0x4 DUP3 ADD MSTORE PUSH1 0x64 PUSH1 0x24 DUP3 ADD DUP2 SWAP1 MSTORE PUSH2 0x1388 PUSH1 0x44 DUP4 ADD MSTORE ADD PUSH2 0xA84 JUMP JUMPDEST PUSH1 0xD1 DUP1 SLOAD PUSH2 0xFFFF NOT AND PUSH2 0xFFFF DUP5 AND SWAP1 DUP2 OR SWAP1 SWAP2 SSTORE PUSH1 0x40 MLOAD SWAP1 DUP2 MSTORE PUSH32 0xFE5045529C08DF2D94CD6C8080789955F601AF1D43B24EA85774158BC8A6D8FA SWAP1 PUSH1 0x20 ADD JUMPDEST PUSH1 0x40 MLOAD DUP1 SWAP2 SUB SWAP1 LOG1 POP POP JUMP JUMPDEST PUSH0 MLOAD PUSH1 0x20 PUSH2 0x3FAB PUSH0 CODECOPY PUSH0 MLOAD SWAP1 PUSH0 MSTORE PUSH2 0xC38 DUP2 PUSH2 0x1DDC JUMP JUMPDEST PUSH1 0x1 PUSH1 0x1 PUSH1 0xA0 SHL SUB DUP3 AND ISZERO DUP1 PUSH2 0xC5B JUMPI POP PUSH1 0xCF SLOAD PUSH1 0x1 PUSH1 0x1 PUSH1 0xA0 SHL SUB DUP4 DUP2 AND SWAP2 AND EQ JUMPDEST ISZERO PUSH2 0xC79 JUMPI PUSH1 0x40 MLOAD PUSH4 0xE6C4247B PUSH1 0xE0 SHL DUP2 MSTORE PUSH1 0x4 ADD PUSH1 0x40 MLOAD DUP1 SWAP2 SUB SWAP1 REVERT JUMPDEST PUSH1 0xCF DUP1 SLOAD PUSH1 0x1 PUSH1 0x1 PUSH1 0xA0 SHL SUB NOT AND PUSH1 0x1 PUSH1 0x1 PUSH1 0xA0 SHL SUB DUP5 AND SWAP1 DUP2 OR SWAP1 SWAP2 SSTORE PUSH1 0x40 MLOAD PUSH32 0xC3696C23BD17454D95C44CB489C7A0DB717D6D809E238813932720CC785AD535 SWAP1 PUSH0 SWAP1 LOG2 POP POP JUMP JUMPDEST PUSH0 DUP3 DUP2 MSTORE PUSH1 0x65 PUSH1 0x20 MSTORE PUSH1 0x40 SWAP1 KECCAK256 PUSH1 0x1 ADD SLOAD PUSH2 0xCDD DUP2 PUSH2 0x1DDC JUMP JUMPDEST PUSH2 0xCE7 DUP4 DUP4 PUSH2 0x1DE6 JUMP JUMPDEST POP POP POP JUMP JUMPDEST PUSH1 0x1 PUSH1 0x1 PUSH1 0xA0 SHL SUB DUP2 AND CALLER EQ PUSH2 0xD5C JUMPI PUSH1 0x40 MLOAD PUSH3 0x461BCD PUSH1 0xE5 SHL DUP2 MSTORE PUSH1 0x20 PUSH1 0x4 DUP3 ADD MSTORE PUSH1 0x2F PUSH1 0x24 DUP3 ADD MSTORE PUSH32 0x416363657373436F6E74726F6C3A2063616E206F6E6C792072656E6F756E6365 PUSH1 0x44 DUP3 ADD MSTORE PUSH15 0x103937B632B9903337B91039B2B633 PUSH1 0x89 SHL PUSH1 0x64 DUP3 ADD MSTORE PUSH1 0x84 ADD PUSH2 0xA84 JUMP JUMPDEST PUSH2 0xD66 DUP3 DUP3 PUSH2 0x1E6B JUMP JUMPDEST POP POP JUMP JUMPDEST PUSH1 0x60 PUSH1 0xD4 DUP1 SLOAD PUSH2 0xD79 SWAP1 PUSH2 0x3343 JUMP JUMPDEST DUP1 PUSH1 0x1F ADD PUSH1 0x20 DUP1 SWAP2 DIV MUL PUSH1 0x20 ADD PUSH1 0x40 MLOAD SWAP1 DUP2 ADD PUSH1 0x40 MSTORE DUP1 SWAP3 SWAP2 SWAP1 DUP2 DUP2 MSTORE PUSH1 0x20 ADD DUP3 DUP1 SLOAD PUSH2 0xDA5 SWAP1 PUSH2 0x3343 JUMP JUMPDEST DUP1 ISZERO PUSH2 0xDF0 JUMPI DUP1 PUSH1 0x1F LT PUSH2 0xDC7 JUMPI PUSH2 0x100 DUP1 DUP4 SLOAD DIV MUL DUP4 MSTORE SWAP2 PUSH1 0x20 ADD SWAP2 PUSH2 0xDF0 JUMP JUMPDEST DUP3 ADD SWAP2 SWAP1 PUSH0 MSTORE PUSH1 0x20 PUSH0 KECCAK256 SWAP1 JUMPDEST DUP2 SLOAD DUP2 MSTORE SWAP1 PUSH1 0x1 ADD SWAP1 PUSH1 0x20 ADD DUP1 DUP4 GT PUSH2 0xDD3 JUMPI DUP3 SWAP1 SUB PUSH1 0x1F AND DUP3 ADD SWAP2 JUMPDEST POP POP POP POP POP SWAP1 POP SWAP1 JUMP JUMPDEST PUSH0 MLOAD PUSH1 0x20 PUSH2 0x3F6B PUSH0 CODECOPY PUSH0 MLOAD SWAP1 PUSH0 MSTORE PUSH2 0xE11 DUP2 PUSH2 0x1DDC JUMP JUMPDEST PUSH1 0x1 PUSH1 0x1 PUSH1 0xA0 SHL SUB DUP3 AND ISZERO DUP1 PUSH2 0xE3E JUMPI POP PUSH1 0x1 PUSH1 0x1 PUSH1 0xA0 SHL SUB DUP3 AND PUSH0 SWAP1 DUP2 MSTORE PUSH1 0xD6 PUSH1 0x20 MSTORE PUSH1 0x40 SWAP1 KECCAK256 SLOAD PUSH1 0xFF AND JUMPDEST DUP1 PUSH2 0xE51 JUMPI POP PUSH1 0x1 PUSH1 0x1 PUSH1 0xA0 SHL SUB DUP3 AND EXTCODESIZE ISZERO JUMPDEST ISZERO PUSH2 0xE96 JUMPI PUSH1 0x1 PUSH1 0x1 PUSH1 0xA0 SHL SUB DUP3 AND PUSH0 DUP2 DUP2 MSTORE PUSH1 0xD6 PUSH1 0x20 MSTORE PUSH1 0x40 SWAP1 DUP2 SWAP1 KECCAK256 SLOAD SWAP1 MLOAD PUSH4 0x502DF08D PUSH1 0xE1 SHL DUP2 MSTORE PUSH1 0x4 DUP2 ADD SWAP3 SWAP1 SWAP3 MSTORE PUSH1 0xFF AND ISZERO ISZERO PUSH1 0x24 DUP3 ADD MSTORE PUSH1 0x44 ADD PUSH2 0xA84 JUMP JUMPDEST PUSH1 0x1 PUSH1 0x1 PUSH1 0xA0 SHL SUB DUP3 AND PUSH0 DUP2 DUP2 MSTORE PUSH1 0xD6 PUSH1 0x20 MSTORE PUSH1 0x40 DUP1 DUP3 KECCAK256 DUP1 SLOAD PUSH1 0xFF NOT AND PUSH1 0x1 OR SWAP1 SSTORE MLOAD PUSH32 0xB7269578552456138D47DC37471D94886205143F138387446EFF0148047965F6 SWAP2 SWAP1 LOG2 POP POP JUMP JUMPDEST PUSH0 MLOAD PUSH1 0x20 PUSH2 0x3F8B PUSH0 CODECOPY PUSH0 MLOAD SWAP1 PUSH0 MSTORE PUSH2 0xEF9 DUP2 PUSH2 0x1DDC JUMP JUMPDEST PUSH1 0x1 PUSH1 0x1 PUSH1 0xA0 SHL SUB DUP3 AND ISZERO DUP1 PUSH2 0xF17 JUMPI POP PUSH1 0x1 PUSH1 0x1 PUSH1 0xA0 SHL SUB DUP3 AND EXTCODESIZE ISZERO JUMPDEST ISZERO PUSH2 0xF35 JUMPI PUSH1 0x40 MLOAD PUSH4 0xE6C4247B PUSH1 0xE0 SHL DUP2 MSTORE PUSH1 0x4 ADD PUSH1 0x40 MLOAD DUP1 SWAP2 SUB SWAP1 REVERT JUMPDEST PUSH1 0xCA DUP1 SLOAD PUSH1 0x1 PUSH1 0x1 PUSH1 0xA0 SHL SUB NOT AND PUSH1 0x1 PUSH1 0x1 PUSH1 0xA0 SHL SUB DUP5 AND SWAP1 DUP2 OR SWAP1 SWAP2 SSTORE PUSH1 0x40 MLOAD SWAP1 DUP2 MSTORE PUSH32 0xA43719DF3844099648272F3B97682E96F64EBF9A001A1B1743242976D853A497 SWAP1 PUSH1 0x20 ADD PUSH2 0xC15 JUMP JUMPDEST PUSH0 MLOAD PUSH1 0x20 PUSH2 0x3FAB PUSH0 CODECOPY PUSH0 MLOAD SWAP1 PUSH0 MSTORE PUSH2 0xF9A DUP2 PUSH2 0x1DDC JUMP JUMPDEST DUP2 ISZERO DUP1 PUSH2 0xFA8 JUMPI POP PUSH2 0x12C DUP3 GT JUMPDEST ISZERO PUSH2 0xFD8 JUMPI PUSH1 0x40 MLOAD PUSH4 0xBDAFE69 PUSH1 0xE0 SHL DUP2 MSTORE PUSH1 0x4 DUP2 ADD DUP4 SWAP1 MSTORE PUSH1 0x1 PUSH1 0x24 DUP3 ADD MSTORE PUSH2 0x12C PUSH1 0x44 DUP3 ADD MSTORE PUSH1 0x64 ADD PUSH2 0xA84 JUMP JUMPDEST PUSH1 0xD0 SLOAD DUP3 SUB PUSH2 0xFFA JUMPI PUSH1 0x40 MLOAD PUSH4 0x1C926873 PUSH1 0xE1 SHL DUP2 MSTORE PUSH1 0x4 ADD PUSH1 0x40 MLOAD DUP1 SWAP2 SUB SWAP1 REVERT JUMPDEST PUSH1 0xD0 DUP3 SWAP1 SSTORE PUSH1 0x40 MLOAD DUP3 DUP2 MSTORE PUSH32 0x244EA8D7627F5A08F4299862BD5A45752842C183AEE5B0FB0D1E4887BFA605B3 SWAP1 PUSH1 0x20 ADD PUSH2 0xC15 JUMP JUMPDEST PUSH1 0xD5 SLOAD PUSH0 SWAP1 DUP3 LT PUSH2 0x1078 JUMPI PUSH1 0x40 MLOAD PUSH3 0x461BCD PUSH1 0xE5 SHL DUP2 MSTORE PUSH1 0x20 PUSH1 0x4 DUP3 ADD MSTORE PUSH1 0x13 PUSH1 0x24 DUP3 ADD MSTORE PUSH19 0x496E646578206F7574206F6620626F756E6473 PUSH1 0x68 SHL PUSH1 0x44 DUP3 ADD MSTORE PUSH1 0x64 ADD PUSH2 0xA84 JUMP JUMPDEST PUSH1 0xD5 DUP3 DUP2 SLOAD DUP2 LT PUSH2 0x108B JUMPI PUSH2 0x108B PUSH2 0x337B JUMP JUMPDEST PUSH0 SWAP2 DUP3 MSTORE PUSH1 0x20 SWAP1 SWAP2 KECCAK256 ADD SLOAD PUSH1 0x1 PUSH1 0x1 PUSH1 0xA0 SHL SUB AND SWAP3 SWAP2 POP POP JUMP JUMPDEST PUSH0 MLOAD PUSH1 0x20 PUSH2 0x3FCB PUSH0 CODECOPY PUSH0 MLOAD SWAP1 PUSH0 MSTORE PUSH2 0x10BC DUP2 PUSH2 0x1DDC JUMP JUMPDEST PUSH0 DUP3 SWAP1 SUB PUSH2 0x10F3 JUMPI PUSH1 0x40 MLOAD PUSH4 0x24321863 PUSH1 0xE2 SHL DUP2 MSTORE PUSH1 0x20 PUSH1 0x4 DUP3 ADD MSTORE PUSH1 0x3 PUSH1 0x24 DUP3 ADD MSTORE PUSH3 0x555249 PUSH1 0xE8 SHL PUSH1 0x44 DUP3 ADD MSTORE PUSH1 0x64 ADD PUSH2 0xA84 JUMP JUMPDEST PUSH1 0xD4 PUSH2 0x1100 DUP4 DUP6 DUP4 PUSH2 0x33DA JUMP JUMPDEST POP PUSH32 0x88200832D1FE27EEE076BEA36A10A1EB73B9D27D9E6E5E2626A83D62FFC9AE5C DUP4 DUP4 PUSH1 0x40 MLOAD PUSH2 0x1132 SWAP3 SWAP2 SWAP1 PUSH2 0x34BB JUMP JUMPDEST PUSH1 0x40 MLOAD DUP1 SWAP2 SUB SWAP1 LOG1 POP POP POP JUMP JUMPDEST PUSH0 SWAP2 DUP3 MSTORE PUSH1 0x65 PUSH1 0x20 SWAP1 DUP2 MSTORE PUSH1 0x40 DUP1 DUP5 KECCAK256 PUSH1 0x1 PUSH1 0x1 PUSH1 0xA0 SHL SUB SWAP4 SWAP1 SWAP4 AND DUP5 MSTORE SWAP2 SWAP1 MSTORE SWAP1 KECCAK256 SLOAD PUSH1 0xFF AND SWAP1 JUMP JUMPDEST PUSH0 DUP1 DUP1 DUP1 DUP1 DUP1 PUSH2 0x1179 DUP2 DUP9 PUSH2 0x113F JUMP JUMPDEST PUSH2 0x1190 PUSH0 MLOAD PUSH1 0x20 PUSH2 0x3FEB PUSH0 CODECOPY PUSH0 MLOAD SWAP1 PUSH0 MSTORE DUP10 PUSH2 0x113F JUMP JUMPDEST PUSH2 0x11A7 PUSH0 MLOAD PUSH1 0x20 PUSH2 0x3FAB PUSH0 CODECOPY PUSH0 MLOAD SWAP1 PUSH0 MSTORE DUP11 PUSH2 0x113F JUMP JUMPDEST PUSH2 0x11BE PUSH0 MLOAD PUSH1 0x20 PUSH2 0x3FCB PUSH0 CODECOPY PUSH0 MLOAD SWAP1 PUSH0 MSTORE DUP12 PUSH2 0x113F JUMP JUMPDEST PUSH2 0x11D5 PUSH0 MLOAD PUSH1 0x20 PUSH2 0x3F6B PUSH0 CODECOPY PUSH0 MLOAD SWAP1 PUSH0 MSTORE DUP13 PUSH2 0x113F JUMP JUMPDEST PUSH2 0x11EC PUSH0 MLOAD PUSH1 0x20 PUSH2 0x3F8B PUSH0 CODECOPY PUSH0 MLOAD SWAP1 PUSH0 MSTORE DUP14 PUSH2 0x113F JUMP JUMPDEST SWAP5 SWAP13 SWAP4 SWAP12 POP SWAP2 SWAP10 POP SWAP8 POP SWAP6 POP SWAP1 SWAP4 POP SWAP2 POP POP JUMP JUMPDEST PUSH0 MLOAD PUSH1 0x20 PUSH2 0x3FAB PUSH0 CODECOPY PUSH0 MLOAD SWAP1 PUSH0 MSTORE PUSH2 0x1217 DUP2 PUSH2 0x1DDC JUMP JUMPDEST PUSH1 0x1 PUSH1 0x1 PUSH1 0xA0 SHL SUB DUP3 AND ISZERO DUP1 PUSH2 0x1241 JUMPI POP PUSH1 0xD7 SLOAD PUSH1 0x1 PUSH1 0x1 PUSH1 0xA0 SHL SUB DUP4 DUP2 AND PUSH1 0x1 PUSH1 0x30 SHL SWAP1 SWAP3 DIV AND EQ JUMPDEST ISZERO PUSH2 0x125F JUMPI PUSH1 0x40 MLOAD PUSH4 0xE6C4247B PUSH1 0xE0 SHL DUP2 MSTORE PUSH1 0x4 ADD PUSH1 0x40 MLOAD DUP1 SWAP2 SUB SWAP1 REVERT JUMPDEST PUSH1 0xD7 DUP1 SLOAD PUSH1 0x1 PUSH1 0x30 SHL PUSH1 0x1 PUSH1 0xD0 SHL SUB NOT AND PUSH1 0x1 PUSH1 0x30 SHL PUSH1 0x1 PUSH1 0x1 PUSH1 0xA0 SHL SUB DUP6 AND SWAP1 DUP2 MUL SWAP2 SWAP1 SWAP2 OR SWAP1 SWAP2 SSTORE PUSH1 0x40 MLOAD PUSH32 0xE5693914D19C789BDEE50A362998C0BC8D035A835F9871DA5D51152F0582C34F SWAP1 PUSH0 SWAP1 LOG2 POP POP JUMP JUMPDEST PUSH0 MLOAD PUSH1 0x20 PUSH2 0x3FEB PUSH0 CODECOPY PUSH0 MLOAD SWAP1 PUSH0 MSTORE PUSH2 0x12CC DUP2 PUSH2 0x1DDC JUMP JUMPDEST DUP2 ISZERO DUP1 PUSH2 0x12DA JUMPI POP PUSH1 0xD2 SLOAD DUP3 EQ JUMPDEST ISZERO PUSH2 0x12F8 JUMPI PUSH1 0x40 MLOAD PUSH4 0x162908E3 PUSH1 0xE1 SHL DUP2 MSTORE PUSH1 0x4 ADD PUSH1 0x40 MLOAD DUP1 SWAP2 SUB SWAP1 REVERT JUMPDEST PUSH1 0xD2 DUP3 SWAP1 SSTORE PUSH1 0x40 MLOAD DUP3 DUP2 MSTORE CALLER SWAP1 PUSH32 0x1A838344E9D84CD77B405CB66C9EA521BF49AB3CEF195F4E1AB80864E9C29E96 SWAP1 PUSH1 0x20 ADD PUSH1 0x40 MLOAD DUP1 SWAP2 SUB SWAP1 LOG2 POP POP JUMP JUMPDEST PUSH0 MLOAD PUSH1 0x20 PUSH2 0x3FEB PUSH0 CODECOPY PUSH0 MLOAD SWAP1 PUSH0 MSTORE PUSH2 0x134D DUP2 PUSH2 0x1DDC JUMP JUMPDEST PUSH1 0xC9 DUP3 SWAP1 SSTORE PUSH1 0x40 MLOAD DUP3 DUP2 MSTORE PUSH32 0x53607F816C6861E86E8B444097D2359F544A8C81BF7574EA094CDD349BD6EA2A SWAP1 PUSH1 0x20 ADD PUSH2 0xC15 JUMP JUMPDEST PUSH1 0xD5 DUP2 DUP2 SLOAD DUP2 LT PUSH2 0x1391 JUMPI PUSH0 DUP1 REVERT JUMPDEST PUSH0 SWAP2 DUP3 MSTORE PUSH1 0x20 SWAP1 SWAP2 KECCAK256 ADD SLOAD PUSH1 0x1 PUSH1 0x1 PUSH1 0xA0 SHL SUB AND SWAP1 POP DUP2 JUMP JUMPDEST PUSH0 MLOAD PUSH1 0x20 PUSH2 0x3FAB PUSH0 CODECOPY PUSH0 MLOAD SWAP1 PUSH0 MSTORE PUSH2 0x13C1 DUP2 PUSH2 0x1DDC JUMP JUMPDEST PUSH1 0x32 PUSH2 0xFFFF DUP6 AND GT DUP1 PUSH2 0x13D8 JUMPI POP PUSH1 0x32 PUSH2 0xFFFF DUP5 AND GT JUMPDEST DUP1 PUSH2 0x13E7 JUMPI POP PUSH1 0x32 PUSH2 0xFFFF DUP4 AND GT JUMPDEST ISZERO PUSH2 0x1405 JUMPI PUSH1 0x40 MLOAD PUSH4 0x58D620B3 PUSH1 0xE0 SHL DUP2 MSTORE PUSH1 0x4 ADD PUSH1 0x40 MLOAD DUP1 SWAP2 SUB SWAP1 REVERT JUMPDEST PUSH1 0x40 DUP1 MLOAD PUSH1 0x80 DUP2 ADD DUP3 MSTORE PUSH2 0xFFFF DUP7 DUP2 AND DUP1 DUP4 MSTORE DUP7 DUP3 AND PUSH1 0x20 DUP1 DUP6 ADD DUP3 SWAP1 MSTORE SWAP3 DUP8 AND DUP5 DUP7 ADD DUP2 SWAP1 MSTORE PUSH1 0xD7 DUP1 SLOAD PUSH1 0x1 PUSH1 0x30 SHL DUP1 DUP3 DIV PUSH1 0x1 PUSH1 0x1 PUSH1 0xA0 SHL SUB AND PUSH1 0x60 SWAP9 DUP10 ADD DUP2 SWAP1 MSTORE PUSH4 0xFFFFFFFF NOT SWAP1 SWAP3 AND DUP7 OR PUSH3 0x10000 DUP7 MUL OR PUSH5 0x100000000 PUSH1 0x1 PUSH1 0xD0 SHL SUB NOT AND PUSH5 0x100000000 DUP6 MUL PUSH1 0x1 PUSH1 0x30 SHL PUSH1 0x1 PUSH1 0xD0 SHL SUB NOT AND OR SWAP2 MUL OR SWAP1 SSTORE DUP6 MLOAD SWAP3 DUP4 MSTORE SWAP3 DUP3 ADD MSTORE SWAP3 DUP4 ADD MSTORE PUSH32 0x4F8CA010FE4732DD5DB8B8331BB421DAB5E64E4884D5A9353D7D06365FFD2677 SWAP2 ADD PUSH1 0x40 MLOAD DUP1 SWAP2 SUB SWAP1 LOG1 POP POP POP POP JUMP JUMPDEST PUSH0 MLOAD PUSH1 0x20 PUSH2 0x3F8B PUSH0 CODECOPY PUSH0 MLOAD SWAP1 PUSH0 MSTORE PUSH2 0x14D9 DUP2 PUSH2 0x1DDC JUMP JUMPDEST PUSH1 0x1 PUSH1 0x1 PUSH1 0xA0 SHL SUB DUP3 AND ISZERO DUP1 PUSH2 0x14F7 JUMPI POP PUSH1 0x1 PUSH1 0x1 PUSH1 0xA0 SHL SUB DUP3 AND EXTCODESIZE ISZERO JUMPDEST ISZERO PUSH2 0x1515 JUMPI PUSH1 0x40 MLOAD PUSH4 0xE6C4247B PUSH1 0xE0 SHL DUP2 MSTORE PUSH1 0x4 ADD PUSH1 0x40 MLOAD DUP1 SWAP2 SUB SWAP1 REVERT JUMPDEST PUSH1 0xCE DUP1 SLOAD PUSH1 0x1 PUSH1 0x1 PUSH1 0xA0 SHL SUB NOT AND PUSH1 0x1 PUSH1 0x1 PUSH1 0xA0 SHL SUB DUP5 AND SWAP1 DUP2 OR SWAP1 SWAP2 SSTORE PUSH1 0x40 MLOAD PUSH32 0x6E694698D0AF55D5F631FE4713E0BCDA24D5A3AD7C6488FBA117E37F9D470C07 SWAP1 PUSH0 SWAP1 LOG2 POP POP JUMP JUMPDEST PUSH2 0x1567 PUSH2 0x1ED1 JUMP JUMPDEST PUSH0 PUSH2 0x1571 DUP3 PUSH2 0x1F2A JUMP JUMPDEST SWAP1 POP PUSH0 PUSH0 PUSH2 0x157E DUP5 PUSH2 0x22C5 JUMP JUMPDEST SWAP2 POP SWAP2 POP PUSH0 PUSH0 PUSH2 0x158F DUP4 DUP8 DUP8 PUSH2 0x2622 JUMP JUMPDEST PUSH1 0xD5 DUP1 SLOAD PUSH1 0x1 DUP2 ADD DUP3 SSTORE PUSH0 SWAP2 SWAP1 SWAP2 MSTORE PUSH32 0x51858DE9989BF7441865EBDADBF7382C8838EDBF830F5D86A9A51AC773676DD6 ADD DUP1 SLOAD PUSH1 0x1 PUSH1 0x1 PUSH1 0xA0 SHL SUB NOT AND PUSH1 0x1 PUSH1 0x1 PUSH1 0xA0 SHL SUB DUP9 DUP2 AND SWAP2 SWAP1 SWAP2 OR SWAP1 SWAP2 SSTORE PUSH1 0x40 MLOAD PUSH4 0xDE836EBD PUSH1 0xE0 SHL DUP2 MSTORE SWAP3 SWAP5 POP SWAP1 SWAP3 POP DUP5 AND SWAP1 PUSH4 0xDE836EBD SWAP1 PUSH2 0x160A SWAP1 CALLER SWAP1 DUP6 SWAP1 PUSH1 0x4 ADD PUSH2 0x3506 JUMP JUMPDEST PUSH1 0x20 PUSH1 0x40 MLOAD DUP1 DUP4 SUB DUP2 PUSH0 DUP8 GAS CALL ISZERO DUP1 ISZERO PUSH2 0x1626 JUMPI RETURNDATASIZE PUSH0 PUSH0 RETURNDATACOPY RETURNDATASIZE PUSH0 REVERT JUMPDEST POP POP POP POP PUSH1 0x40 MLOAD RETURNDATASIZE PUSH1 0x1F NOT PUSH1 0x1F DUP3 ADD AND DUP3 ADD DUP1 PUSH1 0x40 MSTORE POP DUP2 ADD SWAP1 PUSH2 0x164A SWAP2 SWAP1 PUSH2 0x3529 JUMP JUMPDEST POP PUSH1 0x40 MLOAD PUSH4 0xF2FDE38B PUSH1 0xE0 SHL DUP2 MSTORE PUSH1 0x1 PUSH1 0x1 PUSH1 0xA0 SHL SUB DUP6 DUP2 AND PUSH1 0x4 DUP4 ADD MSTORE DUP5 AND SWAP1 PUSH4 0xF2FDE38B SWAP1 PUSH1 0x24 ADD PUSH0 PUSH1 0x40 MLOAD DUP1 DUP4 SUB DUP2 PUSH0 DUP8 DUP1 EXTCODESIZE ISZERO DUP1 ISZERO PUSH2 0x168B JUMPI PUSH0 PUSH0 REVERT JUMPDEST POP GAS CALL ISZERO DUP1 ISZERO PUSH2 0x169D JUMPI RETURNDATASIZE PUSH0 PUSH0 RETURNDATACOPY RETURNDATASIZE PUSH0 REVERT JUMPDEST POP POP POP POP DUP5 DUP3 GT ISZERO PUSH2 0x16C2 JUMPI PUSH1 0x40 MLOAD PUSH4 0x9DF50FF PUSH1 0xE4 SHL DUP2 MSTORE PUSH1 0x4 ADD PUSH1 0x40 MLOAD DUP1 SWAP2 SUB SWAP1 REVERT JUMPDEST DUP5 DUP3 LT ISZERO PUSH2 0x1738 JUMPI PUSH0 CALLER PUSH2 0x16D6 DUP5 DUP9 PUSH2 0x3554 JUMP JUMPDEST PUSH1 0x40 MLOAD PUSH0 DUP2 DUP2 DUP2 DUP6 DUP8 GAS CALL SWAP3 POP POP POP RETURNDATASIZE DUP1 PUSH0 DUP2 EQ PUSH2 0x170F JUMPI PUSH1 0x40 MLOAD SWAP2 POP PUSH1 0x1F NOT PUSH1 0x3F RETURNDATASIZE ADD AND DUP3 ADD PUSH1 0x40 MSTORE RETURNDATASIZE DUP3 MSTORE RETURNDATASIZE PUSH0 PUSH1 0x20 DUP5 ADD RETURNDATACOPY PUSH2 0x1714 JUMP JUMPDEST PUSH1 0x60 SWAP2 POP JUMPDEST POP POP SWAP1 POP DUP1 PUSH2 0x1736 JUMPI PUSH1 0x40 MLOAD PUSH4 0x12171D83 PUSH1 0xE3 SHL DUP2 MSTORE PUSH1 0x4 ADD PUSH1 0x40 MLOAD DUP1 SWAP2 SUB SWAP1 REVERT JUMPDEST POP JUMPDEST CALLER PUSH32 0x4CB0E92EC6885A0962DC9BAB235BA214D1CB5574D251821C50D09553B3A7419 DUP6 DUP6 DUP9 PUSH1 0xA0 DUP12 ADD CALLDATALOAD PUSH2 0x176F PUSH1 0xC0 DUP14 ADD DUP14 PUSH2 0x3567 JUMP JUMPDEST PUSH2 0x177C PUSH1 0xE0 DUP16 ADD DUP16 PUSH2 0x3567 JUMP JUMPDEST DUP15 PUSH1 0x40 MLOAD PUSH2 0x1792 SWAP10 SWAP9 SWAP8 SWAP7 SWAP6 SWAP5 SWAP4 SWAP3 SWAP2 SWAP1 PUSH2 0x35B0 JUMP JUMPDEST PUSH1 0x40 MLOAD DUP1 SWAP2 SUB SWAP1 LOG2 POP POP POP POP POP PUSH2 0x17A9 PUSH1 0x1 PUSH1 0x97 SSTORE JUMP JUMPDEST POP JUMP JUMPDEST PUSH1 0xCB SLOAD PUSH1 0x40 MLOAD PUSH4 0xD06CA61F PUSH1 0xE0 SHL DUP2 MSTORE PUSH0 SWAP2 PUSH1 0x1 PUSH1 0x1 PUSH1 0xA0 SHL SUB AND SWAP1 PUSH4 0xD06CA61F SWAP1 PUSH2 0x17DE SWAP1 DUP7 SWAP1 DUP7 SWAP1 PUSH1 0x4 ADD PUSH2 0x3614 JUMP JUMPDEST PUSH0 PUSH1 0x40 MLOAD DUP1 DUP4 SUB DUP2 DUP7 GAS STATICCALL ISZERO DUP1 ISZERO PUSH2 0x17F8 JUMPI RETURNDATASIZE PUSH0 PUSH0 RETURNDATACOPY RETURNDATASIZE PUSH0 REVERT JUMPDEST POP POP POP POP PUSH1 0x40 MLOAD RETURNDATASIZE PUSH0 DUP3 RETURNDATACOPY PUSH1 0x1F RETURNDATASIZE SWAP1 DUP2 ADD PUSH1 0x1F NOT AND DUP3 ADD PUSH1 0x40 MSTORE PUSH2 0x181F SWAP2 SWAP1 DUP2 ADD SWAP1 PUSH2 0x362C JUMP JUMPDEST PUSH1 0x1 DUP4 MLOAD PUSH2 0x182D SWAP2 SWAP1 PUSH2 0x3554 JUMP JUMPDEST DUP2 MLOAD DUP2 LT PUSH2 0x183D JUMPI PUSH2 0x183D PUSH2 0x337B JUMP JUMPDEST PUSH1 0x20 MUL PUSH1 0x20 ADD ADD MLOAD SWAP1 POP SWAP3 SWAP2 POP POP JUMP JUMPDEST PUSH0 PUSH0 PUSH1 0xD3 SLOAD PUSH8 0xDE0B6B3A7640000 PUSH2 0x1865 SWAP2 SWAP1 PUSH2 0x3554 JUMP JUMPDEST SWAP1 POP PUSH0 PUSH2 0x1878 PUSH2 0x1875 DUP4 DUP8 PUSH2 0x2A0B JUMP JUMPDEST SWAP1 JUMP JUMPDEST SWAP1 POP PUSH0 DUP5 PUSH2 0x188E DUP4 PUSH8 0xDE0B6B3A7640000 PUSH2 0x3554 JUMP JUMPDEST PUSH2 0x1898 SWAP2 SWAP1 PUSH2 0x36B2 JUMP JUMPDEST SWAP1 POP PUSH2 0x18A4 DUP3 DUP3 PUSH2 0x36C9 JUMP JUMPDEST SWAP7 SWAP6 POP POP POP POP POP POP JUMP JUMPDEST PUSH0 DUP3 DUP2 MSTORE PUSH1 0x65 PUSH1 0x20 MSTORE PUSH1 0x40 SWAP1 KECCAK256 PUSH1 0x1 ADD SLOAD PUSH2 0x18C8 DUP2 PUSH2 0x1DDC JUMP JUMPDEST PUSH2 0xCE7 DUP4 DUP4 PUSH2 0x1E6B JUMP JUMPDEST PUSH1 0x40 DUP1 MLOAD PUSH1 0x2 DUP1 DUP3 MSTORE PUSH1 0x60 DUP1 DUP4 ADD DUP5 MSTORE SWAP3 PUSH0 SWAP3 SWAP2 SWAP1 PUSH1 0x20 DUP4 ADD SWAP1 DUP1 CALLDATASIZE DUP4 CALLDATACOPY ADD SWAP1 POP POP SWAP1 POP DUP4 DUP2 PUSH0 DUP2 MLOAD DUP2 LT PUSH2 0x1909 JUMPI PUSH2 0x1909 PUSH2 0x337B JUMP JUMPDEST PUSH1 0x20 MUL PUSH1 0x20 ADD ADD SWAP1 PUSH1 0x1 PUSH1 0x1 PUSH1 0xA0 SHL SUB AND SWAP1 DUP2 PUSH1 0x1 PUSH1 0x1 PUSH1 0xA0 SHL SUB AND DUP2 MSTORE POP POP DUP3 DUP2 PUSH1 0x1 DUP2 MLOAD DUP2 LT PUSH2 0x193D JUMPI PUSH2 0x193D PUSH2 0x337B JUMP JUMPDEST PUSH1 0x1 PUSH1 0x1 PUSH1 0xA0 SHL SUB SWAP1 SWAP3 AND PUSH1 0x20 SWAP3 DUP4 MUL SWAP2 SWAP1 SWAP2 ADD SWAP1 SWAP2 ADD MSTORE SWAP1 POP SWAP3 SWAP2 POP POP JUMP JUMPDEST PUSH1 0xD4 DUP1 SLOAD PUSH2 0x196A SWAP1 PUSH2 0x3343 JUMP JUMPDEST DUP1 PUSH1 0x1F ADD PUSH1 0x20 DUP1 SWAP2 DIV MUL PUSH1 0x20 ADD PUSH1 0x40 MLOAD SWAP1 DUP2 ADD PUSH1 0x40 MSTORE DUP1 SWAP3 SWAP2 SWAP1 DUP2 DUP2 MSTORE PUSH1 0x20 ADD DUP3 DUP1 SLOAD PUSH2 0x1996 SWAP1 PUSH2 0x3343 JUMP JUMPDEST DUP1 ISZERO PUSH2 0x19E1 JUMPI DUP1 PUSH1 0x1F LT PUSH2 0x19B8 JUMPI PUSH2 0x100 DUP1 DUP4 SLOAD DIV MUL DUP4 MSTORE SWAP2 PUSH1 0x20 ADD SWAP2 PUSH2 0x19E1 JUMP JUMPDEST DUP3 ADD SWAP2 SWAP1 PUSH0 MSTORE PUSH1 0x20 PUSH0 KECCAK256 SWAP1 JUMPDEST DUP2 SLOAD DUP2 MSTORE SWAP1 PUSH1 0x1 ADD SWAP1 PUSH1 0x20 ADD DUP1 DUP4 GT PUSH2 0x19C4 JUMPI DUP3 SWAP1 SUB PUSH1 0x1F AND DUP3 ADD SWAP2 JUMPDEST POP POP POP POP POP DUP2 JUMP JUMPDEST PUSH0 SLOAD PUSH2 0x100 SWAP1 DIV PUSH1 0xFF AND ISZERO DUP1 DUP1 ISZERO PUSH2 0x1A07 JUMPI POP PUSH0 SLOAD PUSH1 0x1 PUSH1 0xFF SWAP1 SWAP2 AND LT JUMPDEST DUP1 PUSH2 0x1A20 JUMPI POP ADDRESS EXTCODESIZE ISZERO DUP1 ISZERO PUSH2 0x1A20 JUMPI POP PUSH0 SLOAD PUSH1 0xFF AND PUSH1 0x1 EQ JUMPDEST PUSH2 0x1A83 JUMPI PUSH1 0x40 MLOAD PUSH3 0x461BCD PUSH1 0xE5 SHL DUP2 MSTORE PUSH1 0x20 PUSH1 0x4 DUP3 ADD MSTORE PUSH1 0x2E PUSH1 0x24 DUP3 ADD MSTORE PUSH32 0x496E697469616C697A61626C653A20636F6E747261637420697320616C726561 PUSH1 0x44 DUP3 ADD MSTORE PUSH14 0x191E481A5B9A5D1A585B1A5E9959 PUSH1 0x92 SHL PUSH1 0x64 DUP3 ADD MSTORE PUSH1 0x84 ADD PUSH2 0xA84 JUMP JUMPDEST PUSH0 DUP1 SLOAD PUSH1 0xFF NOT AND PUSH1 0x1 OR SWAP1 SSTORE DUP1 ISZERO PUSH2 0x1AA4 JUMPI PUSH0 DUP1 SLOAD PUSH2 0xFF00 NOT AND PUSH2 0x100 OR SWAP1 SSTORE JUMPDEST PUSH2 0x1AAE PUSH0 CALLER PUSH2 0x1DE6 JUMP JUMPDEST PUSH2 0x1AC5 PUSH0 MLOAD PUSH1 0x20 PUSH2 0x3FEB PUSH0 CODECOPY PUSH0 MLOAD SWAP1 PUSH0 MSTORE CALLER PUSH2 0x1DE6 JUMP JUMPDEST PUSH2 0x1ADC PUSH0 MLOAD PUSH1 0x20 PUSH2 0x3FAB PUSH0 CODECOPY PUSH0 MLOAD SWAP1 PUSH0 MSTORE CALLER PUSH2 0x1DE6 JUMP JUMPDEST PUSH2 0x1AF3 PUSH0 MLOAD PUSH1 0x20 PUSH2 0x3FCB PUSH0 CODECOPY PUSH0 MLOAD SWAP1 PUSH0 MSTORE CALLER PUSH2 0x1DE6 JUMP JUMPDEST PUSH2 0x1B0A PUSH0 MLOAD PUSH1 0x20 PUSH2 0x3F6B PUSH0 CODECOPY PUSH0 MLOAD SWAP1 PUSH0 MSTORE CALLER PUSH2 0x1DE6 JUMP JUMPDEST PUSH2 0x1B21 PUSH0 MLOAD PUSH1 0x20 PUSH2 0x3F8B PUSH0 CODECOPY PUSH0 MLOAD SWAP1 PUSH0 MSTORE CALLER PUSH2 0x1DE6 JUMP JUMPDEST PUSH2 0x1B29 PUSH2 0x2A6F JUMP JUMPDEST PUSH2 0x1B32 DUP3 PUSH2 0x2A9F JUMP JUMPDEST PUSH2 0x1B3F PUSH1 0x20 DUP4 ADD DUP4 PUSH2 0x2FBA JUMP JUMPDEST PUSH1 0xCA DUP1 SLOAD PUSH1 0x1 PUSH1 0x1 PUSH1 0xA0 SHL SUB NOT AND PUSH1 0x1 PUSH1 0x1 PUSH1 0xA0 SHL SUB SWAP3 SWAP1 SWAP3 AND SWAP2 SWAP1 SWAP2 OR SWAP1 SSTORE PUSH2 0x1B6F PUSH1 0x40 DUP4 ADD PUSH1 0x20 DUP5 ADD PUSH2 0x2FBA JUMP JUMPDEST PUSH1 0xCD DUP1 SLOAD PUSH1 0x1 PUSH1 0x1 PUSH1 0xA0 SHL SUB NOT AND PUSH1 0x1 PUSH1 0x1 PUSH1 0xA0 SHL SUB SWAP3 SWAP1 SWAP3 AND SWAP2 SWAP1 SWAP2 OR SWAP1 SSTORE PUSH2 0x1B9F PUSH1 0x60 DUP4 ADD PUSH1 0x40 DUP5 ADD PUSH2 0x2FBA JUMP JUMPDEST PUSH1 0xCE DUP1 SLOAD PUSH1 0x1 PUSH1 0x1 PUSH1 0xA0 SHL SUB NOT AND PUSH1 0x1 PUSH1 0x1 PUSH1 0xA0 SHL SUB SWAP3 SWAP1 SWAP3 AND SWAP2 SWAP1 SWAP2 OR SWAP1 SSTORE PUSH2 0x1BCF PUSH1 0x80 DUP4 ADD PUSH1 0x60 DUP5 ADD PUSH2 0x2FBA JUMP JUMPDEST PUSH1 0xCB DUP1 SLOAD PUSH1 0x1 PUSH1 0x1 PUSH1 0xA0 SHL SUB NOT AND PUSH1 0x1 PUSH1 0x1 PUSH1 0xA0 SHL SUB SWAP3 SWAP1 SWAP3 AND SWAP2 SWAP1 SWAP2 OR SWAP1 SSTORE PUSH2 0x1BFF PUSH1 0xA0 DUP4 ADD PUSH1 0x80 DUP5 ADD PUSH2 0x2FBA JUMP JUMPDEST PUSH1 0xCC DUP1 SLOAD PUSH1 0x1 PUSH1 0x1 PUSH1 0xA0 SHL SUB NOT AND PUSH1 0x1 PUSH1 0x1 PUSH1 0xA0 SHL SUB SWAP3 SWAP1 SWAP3 AND SWAP2 SWAP1 SWAP2 OR SWAP1 SSTORE PUSH2 0x1C2F PUSH1 0xC0 DUP4 ADD PUSH1 0xA0 DUP5 ADD PUSH2 0x2FBA JUMP JUMPDEST PUSH1 0xCF DUP1 SLOAD PUSH1 0x1 PUSH1 0x1 PUSH1 0xA0 SHL SUB NOT AND PUSH1 0x1 PUSH1 0x1 PUSH1 0xA0 SHL SUB SWAP3 SWAP1 SWAP3 AND SWAP2 SWAP1 SWAP2 OR SWAP1 SSTORE PUSH2 0x1C61 PUSH2 0x120 DUP4 ADD PUSH2 0x100 DUP5 ADD PUSH2 0x2FFB JUMP JUMPDEST PUSH1 0xD1 DUP1 SLOAD PUSH2 0xFFFF NOT AND PUSH2 0xFFFF SWAP3 SWAP1 SWAP3 AND SWAP2 SWAP1 SWAP2 OR SWAP1 SSTORE PUSH2 0x120 DUP3 ADD CALLDATALOAD PUSH1 0xD3 SSTORE PUSH2 0x1C8E PUSH2 0x140 DUP4 ADD DUP4 PUSH2 0x3567 JUMP JUMPDEST PUSH1 0xD4 SWAP2 PUSH2 0x1C9C SWAP2 SWAP1 DUP4 PUSH2 0x33DA JUMP JUMPDEST POP PUSH2 0x160 DUP3 ADD CALLDATALOAD PUSH1 0xD2 SSTORE PUSH1 0x40 DUP1 MLOAD PUSH1 0x80 DUP2 ADD DUP3 MSTORE PUSH1 0x32 DUP1 DUP3 MSTORE PUSH1 0x20 DUP3 ADD DUP2 SWAP1 MSTORE SWAP2 DUP2 ADD SWAP2 SWAP1 SWAP2 MSTORE PUSH1 0x60 DUP2 ADD PUSH2 0x1CD7 PUSH1 0xE0 DUP6 ADD PUSH1 0xC0 DUP7 ADD PUSH2 0x2FBA JUMP JUMPDEST PUSH1 0x1 PUSH1 0x1 PUSH1 0xA0 SHL SUB SWAP1 DUP2 AND SWAP1 SWAP2 MSTORE DUP2 MLOAD PUSH1 0xD7 DUP1 SLOAD PUSH1 0x20 DUP6 ADD MLOAD PUSH1 0x40 DUP7 ADD MLOAD PUSH1 0x60 SWAP1 SWAP7 ADD MLOAD SWAP1 SWAP5 AND PUSH1 0x1 PUSH1 0x30 SHL MUL PUSH1 0x1 PUSH1 0x30 SHL PUSH1 0x1 PUSH1 0xD0 SHL SUB NOT PUSH2 0xFFFF SWAP7 DUP8 AND PUSH5 0x100000000 MUL AND PUSH5 0x100000000 PUSH1 0x1 PUSH1 0xD0 SHL SUB NOT SWAP6 DUP8 AND PUSH3 0x10000 MUL PUSH4 0xFFFFFFFF NOT SWAP1 SWAP4 AND SWAP7 SWAP1 SWAP5 AND SWAP6 SWAP1 SWAP6 OR OR SWAP3 SWAP1 SWAP3 AND OR SWAP2 SWAP1 SWAP2 OR SWAP1 SSTORE PUSH1 0xC8 PUSH1 0xD0 SSTORE PUSH1 0x1 PUSH1 0xD6 PUSH0 PUSH2 0x1D6B PUSH2 0x100 DUP7 ADD PUSH1 0xE0 DUP8 ADD PUSH2 0x2FBA JUMP JUMPDEST PUSH1 0x1 PUSH1 0x1 PUSH1 0xA0 SHL SUB AND DUP2 MSTORE PUSH1 0x20 DUP2 ADD SWAP2 SWAP1 SWAP2 MSTORE PUSH1 0x40 ADD PUSH0 KECCAK256 DUP1 SLOAD PUSH1 0xFF NOT AND SWAP2 ISZERO ISZERO SWAP2 SWAP1 SWAP2 OR SWAP1 SSTORE PUSH5 0x174876E800 PUSH1 0xC9 SSTORE DUP1 ISZERO PUSH2 0xD66 JUMPI PUSH0 DUP1 SLOAD PUSH2 0xFF00 NOT AND SWAP1 SSTORE PUSH1 0x40 MLOAD PUSH1 0x1 DUP2 MSTORE PUSH32 0x7F26B83FF96E1F2B6A682F133852F6798A09C465DA95921460CEFB3847402498 SWAP1 PUSH1 0x20 ADD PUSH2 0xC15 JUMP JUMPDEST PUSH2 0x17A9 DUP2 CALLER PUSH2 0x2C93 JUMP JUMPDEST PUSH2 0x1DF0 DUP3 DUP3 PUSH2 0x113F JUMP JUMPDEST PUSH2 0xD66 JUMPI PUSH0 DUP3 DUP2 MSTORE PUSH1 0x65 PUSH1 0x20 SWAP1 DUP2 MSTORE PUSH1 0x40 DUP1 DUP4 KECCAK256 PUSH1 0x1 PUSH1 0x1 PUSH1 0xA0 SHL SUB DUP6 AND DUP5 MSTORE SWAP1 SWAP2 MSTORE SWAP1 KECCAK256 DUP1 SLOAD PUSH1 0xFF NOT AND PUSH1 0x1 OR SWAP1 SSTORE PUSH2 0x1E27 CALLER SWAP1 JUMP JUMPDEST PUSH1 0x1 PUSH1 0x1 PUSH1 0xA0 SHL SUB AND DUP2 PUSH1 0x1 PUSH1 0x1 PUSH1 0xA0 SHL SUB AND DUP4 PUSH32 0x2F8788117E7EFF1D82E926EC794901D17C78024A50270940304540A733656F0D PUSH1 0x40 MLOAD PUSH1 0x40 MLOAD DUP1 SWAP2 SUB SWAP1 LOG4 POP POP JUMP JUMPDEST PUSH2 0x1E75 DUP3 DUP3 PUSH2 0x113F JUMP JUMPDEST ISZERO PUSH2 0xD66 JUMPI PUSH0 DUP3 DUP2 MSTORE PUSH1 0x65 PUSH1 0x20 SWAP1 DUP2 MSTORE PUSH1 0x40 DUP1 DUP4 KECCAK256 PUSH1 0x1 PUSH1 0x1 PUSH1 0xA0 SHL SUB DUP6 AND DUP1 DUP6 MSTORE SWAP3 MSTORE DUP1 DUP4 KECCAK256 DUP1 SLOAD PUSH1 0xFF NOT AND SWAP1 SSTORE MLOAD CALLER SWAP3 DUP6 SWAP2 PUSH32 0xF6391F5C32D9C69D2A47EA670B442974B53935D1EDC7FD64EB21E047A839171B SWAP2 SWAP1 LOG4 POP POP JUMP JUMPDEST PUSH1 0x2 PUSH1 0x97 SLOAD SUB PUSH2 0x1F23 JUMPI PUSH1 0x40 MLOAD PUSH3 0x461BCD PUSH1 0xE5 SHL DUP2 MSTORE PUSH1 0x20 PUSH1 0x4 DUP3 ADD MSTORE PUSH1 0x1F PUSH1 0x24 DUP3 ADD MSTORE PUSH32 0x5265656E7472616E637947756172643A207265656E7472616E742063616C6C00 PUSH1 0x44 DUP3 ADD MSTORE PUSH1 0x64 ADD PUSH2 0xA84 JUMP JUMPDEST PUSH1 0x2 PUSH1 0x97 SSTORE JUMP JUMPDEST PUSH0 PUSH1 0xD2 SLOAD CALLVALUE LT ISZERO PUSH2 0x1F5B JUMPI PUSH1 0xD2 SLOAD PUSH1 0x40 MLOAD PUSH4 0x2910024B PUSH1 0xE1 SHL DUP2 MSTORE CALLVALUE PUSH1 0x4 DUP3 ADD MSTORE PUSH1 0x24 DUP2 ADD SWAP2 SWAP1 SWAP2 MSTORE PUSH1 0x44 ADD PUSH2 0xA84 JUMP JUMPDEST PUSH1 0xA0 DUP3 ADD CALLDATALOAD ISZERO DUP1 PUSH2 0x1F72 JUMPI POP PUSH2 0x1388 DUP3 PUSH1 0xA0 ADD CALLDATALOAD LT ISZERO JUMPDEST ISZERO PUSH2 0x1FA5 JUMPI PUSH1 0x40 MLOAD PUSH4 0x1818D2A7 PUSH1 0xE3 SHL DUP2 MSTORE PUSH1 0xA0 DUP4 ADD CALLDATALOAD PUSH1 0x4 DUP3 ADD MSTORE PUSH1 0x1 PUSH1 0x24 DUP3 ADD MSTORE PUSH2 0x1387 PUSH1 0x44 DUP3 ADD MSTORE PUSH1 0x64 ADD PUSH2 0xA84 JUMP JUMPDEST TIMESTAMP DUP3 PUSH2 0x100 ADD CALLDATALOAD GT PUSH2 0x1FD1 JUMPI PUSH1 0x40 MLOAD PUSH4 0x18DB49C5 PUSH1 0xE2 SHL DUP2 MSTORE PUSH2 0x100 DUP4 ADD CALLDATALOAD PUSH1 0x4 DUP3 ADD MSTORE PUSH1 0x24 ADD PUSH2 0xA84 JUMP JUMPDEST PUSH2 0x1FDB DUP3 DUP1 PUSH2 0x3567 JUMP JUMPDEST SWAP1 POP PUSH0 SUB PUSH2 0x2015 JUMPI PUSH1 0x40 MLOAD PUSH4 0x24321863 PUSH1 0xE2 SHL DUP2 MSTORE PUSH1 0x4 ADD PUSH2 0xA84 SWAP1 PUSH1 0x20 DUP1 DUP3 MSTORE PUSH1 0x4 SWAP1 DUP3 ADD MSTORE PUSH4 0x6E616D65 PUSH1 0xE0 SHL PUSH1 0x40 DUP3 ADD MSTORE PUSH1 0x60 ADD SWAP1 JUMP JUMPDEST PUSH2 0x2022 PUSH1 0x20 DUP4 ADD DUP4 PUSH2 0x3567 JUMP JUMPDEST SWAP1 POP PUSH0 SUB PUSH2 0x205C JUMPI PUSH1 0x40 MLOAD PUSH4 0x24321863 PUSH1 0xE2 SHL DUP2 MSTORE PUSH1 0x20 PUSH1 0x4 DUP3 ADD MSTORE PUSH1 0x6 PUSH1 0x24 DUP3 ADD MSTORE PUSH6 0x1CDE5B589BDB PUSH1 0xD2 SHL PUSH1 0x44 DUP3 ADD MSTORE PUSH1 0x64 ADD PUSH2 0xA84 JUMP JUMPDEST PUSH2 0x2069 PUSH1 0x80 DUP4 ADD DUP4 PUSH2 0x3567 JUMP JUMPDEST SWAP1 POP PUSH0 SUB PUSH2 0x20A5 JUMPI PUSH1 0x40 MLOAD PUSH4 0x24321863 PUSH1 0xE2 SHL DUP2 MSTORE PUSH1 0x20 PUSH1 0x4 DUP3 ADD MSTORE PUSH1 0x8 PUSH1 0x24 DUP3 ADD MSTORE PUSH8 0x746F6B656E555249 PUSH1 0xC0 SHL PUSH1 0x44 DUP3 ADD MSTORE PUSH1 0x64 ADD PUSH2 0xA84 JUMP JUMPDEST PUSH2 0x20B2 PUSH1 0xC0 DUP4 ADD DUP4 PUSH2 0x3567 JUMP JUMPDEST SWAP1 POP PUSH0 SUB PUSH2 0x20E8 JUMPI PUSH1 0x40 MLOAD PUSH4 0x24321863 PUSH1 0xE2 SHL DUP2 MSTORE PUSH1 0x20 PUSH1 0x4 DUP3 ADD MSTORE PUSH1 0x2 PUSH1 0x24 DUP3 ADD MSTORE PUSH2 0x1A59 PUSH1 0xF2 SHL PUSH1 0x44 DUP3 ADD MSTORE PUSH1 0x64 ADD PUSH2 0xA84 JUMP JUMPDEST PUSH2 0x20F5 PUSH1 0x60 DUP4 ADD DUP4 PUSH2 0x36E8 JUMP JUMPDEST SWAP1 POP PUSH2 0x2104 PUSH1 0x40 DUP5 ADD DUP5 PUSH2 0x36E8 JUMP JUMPDEST SWAP1 POP EQ ISZERO DUP1 PUSH2 0x211F JUMPI POP PUSH2 0x211B PUSH1 0x40 DUP4 ADD DUP4 PUSH2 0x36E8 JUMP JUMPDEST ISZERO SWAP1 POP JUMPDEST DUP1 PUSH2 0x2136 JUMPI POP PUSH2 0x2132 PUSH1 0x60 DUP4 ADD DUP4 PUSH2 0x36E8 JUMP JUMPDEST ISZERO SWAP1 POP JUMPDEST ISZERO PUSH2 0x2154 JUMPI PUSH1 0x40 MLOAD PUSH4 0x1A318553 PUSH1 0xE2 SHL DUP2 MSTORE PUSH1 0x4 ADD PUSH1 0x40 MLOAD DUP1 SWAP2 SUB SWAP1 REVERT JUMPDEST PUSH1 0xD7 SLOAD PUSH0 SWAP1 PUSH2 0xFFFF AND PUSH2 0x2167 JUMPI PUSH0 PUSH2 0x2186 JUMP JUMPDEST PUSH1 0xD7 SLOAD PUSH2 0x2710 SWAP1 PUSH2 0x217C SWAP1 PUSH2 0xFFFF AND CALLVALUE PUSH2 0x36B2 JUMP JUMPDEST PUSH2 0x2186 SWAP2 SWAP1 PUSH2 0x36C9 JUMP JUMPDEST SWAP1 POP CALLVALUE DUP2 GT ISZERO PUSH2 0x21A9 JUMPI PUSH1 0x40 MLOAD PUSH4 0x58D620B3 PUSH1 0xE0 SHL DUP2 MSTORE PUSH1 0x4 ADD PUSH1 0x40 MLOAD DUP1 SWAP2 SUB SWAP1 REVERT JUMPDEST DUP1 ISZERO PUSH2 0x22B4 JUMPI PUSH1 0xD7 SLOAD PUSH1 0x40 MLOAD PUSH0 SWAP2 PUSH1 0x1 PUSH1 0x30 SHL SWAP1 DIV PUSH1 0x1 PUSH1 0x1 PUSH1 0xA0 SHL SUB AND SWAP1 DUP4 SWAP1 DUP4 DUP2 DUP2 DUP2 DUP6 DUP8 GAS CALL SWAP3 POP POP POP RETURNDATASIZE DUP1 PUSH0 DUP2 EQ PUSH2 0x2200 JUMPI PUSH1 0x40 MLOAD SWAP2 POP PUSH1 0x1F NOT PUSH1 0x3F RETURNDATASIZE ADD AND DUP3 ADD PUSH1 0x40 MSTORE RETURNDATASIZE DUP3 MSTORE RETURNDATASIZE PUSH0 PUSH1 0x20 DUP5 ADD RETURNDATACOPY PUSH2 0x2205 JUMP JUMPDEST PUSH1 0x60 SWAP2 POP JUMPDEST POP POP SWAP1 POP DUP1 PUSH2 0x2261 JUMPI PUSH1 0x40 MLOAD PUSH3 0x461BCD PUSH1 0xE5 SHL DUP2 MSTORE PUSH1 0x20 PUSH1 0x4 DUP3 ADD MSTORE PUSH1 0x22 PUSH1 0x24 DUP3 ADD MSTORE PUSH32 0x4661696C656420746F206465647563742042534B54204372656174696F6E2046 PUSH1 0x44 DUP3 ADD MSTORE PUSH2 0x6565 PUSH1 0xF0 SHL PUSH1 0x64 DUP3 ADD MSTORE PUSH1 0x84 ADD PUSH2 0xA84 JUMP JUMPDEST PUSH1 0xD7 SLOAD PUSH1 0x40 DUP1 MLOAD DUP5 DUP2 MSTORE PUSH2 0xFFFF DUP4 AND PUSH1 0x20 DUP3 ADD MSTORE PUSH1 0x1 PUSH1 0x30 SHL SWAP1 SWAP3 DIV PUSH1 0x1 PUSH1 0x1 PUSH1 0xA0 SHL SUB AND SWAP2 PUSH32 0x6C1C6AEF6F81F33F015F6B0F806CF9F51F79D83873BFEE2E930471CF78832B2D SWAP2 ADD PUSH1 0x40 MLOAD DUP1 SWAP2 SUB SWAP1 LOG2 POP JUMPDEST PUSH2 0x22BE DUP2 CALLVALUE PUSH2 0x3554 JUMP JUMPDEST SWAP4 SWAP3 POP POP POP JUMP JUMPDEST PUSH1 0xCE SLOAD PUSH0 SWAP1 DUP2 SWAP1 DUP2 SWAP1 PUSH1 0x1 PUSH1 0x1 PUSH1 0xA0 SHL SUB AND PUSH4 0x3A105CFB PUSH1 0xE0 SHL ADDRESS PUSH2 0x22ED PUSH1 0x20 DUP9 ADD DUP9 PUSH2 0x3567 JUMP JUMPDEST PUSH2 0x22FA PUSH1 0x40 DUP11 ADD DUP11 PUSH2 0x36E8 JUMP JUMPDEST PUSH1 0x40 MLOAD PUSH1 0x24 ADD PUSH2 0x230E SWAP6 SWAP5 SWAP4 SWAP3 SWAP2 SWAP1 PUSH2 0x372D JUMP JUMPDEST PUSH1 0x40 DUP1 MLOAD PUSH1 0x1F NOT DUP2 DUP5 SUB ADD DUP2 MSTORE SWAP2 DUP2 MSTORE PUSH1 0x20 DUP3 ADD DUP1 MLOAD PUSH1 0x1 PUSH1 0x1 PUSH1 0xE0 SHL SUB AND PUSH1 0x1 PUSH1 0x1 PUSH1 0xE0 SHL SUB NOT SWAP1 SWAP5 AND SWAP4 SWAP1 SWAP4 OR SWAP1 SWAP3 MSTORE SWAP1 MLOAD PUSH2 0x234B SWAP1 PUSH2 0x2F6B JUMP JUMPDEST PUSH2 0x2356 SWAP3 SWAP2 SWAP1 PUSH2 0x379E JUMP JUMPDEST PUSH1 0x40 MLOAD DUP1 SWAP2 SUB SWAP1 PUSH0 CREATE DUP1 ISZERO DUP1 ISZERO PUSH2 0x236F JUMPI RETURNDATASIZE PUSH0 PUSH0 RETURNDATACOPY RETURNDATASIZE PUSH0 REVERT JUMPDEST POP PUSH1 0x40 DUP1 MLOAD PUSH2 0x140 DUP2 ADD SWAP1 SWAP2 MSTORE SWAP1 SWAP3 POP DUP3 SWAP2 POP PUSH0 SWAP1 DUP1 PUSH2 0x238F DUP8 DUP1 PUSH2 0x3567 JUMP JUMPDEST DUP1 DUP1 PUSH1 0x1F ADD PUSH1 0x20 DUP1 SWAP2 DIV MUL PUSH1 0x20 ADD PUSH1 0x40 MLOAD SWAP1 DUP2 ADD PUSH1 0x40 MSTORE DUP1 SWAP4 SWAP3 SWAP2 SWAP1 DUP2 DUP2 MSTORE PUSH1 0x20 ADD DUP4 DUP4 DUP1 DUP3 DUP5 CALLDATACOPY PUSH0 SWAP3 ADD SWAP2 SWAP1 SWAP2 MSTORE POP POP POP SWAP1 DUP3 MSTORE POP PUSH1 0x20 SWAP1 DUP2 ADD SWAP1 PUSH2 0x23D7 SWAP1 DUP9 ADD DUP9 PUSH2 0x3567 JUMP JUMPDEST DUP1 DUP1 PUSH1 0x1F ADD PUSH1 0x20 DUP1 SWAP2 DIV MUL PUSH1 0x20 ADD PUSH1 0x40 MLOAD SWAP1 DUP2 ADD PUSH1 0x40 MSTORE DUP1 SWAP4 SWAP3 SWAP2 SWAP1 DUP2 DUP2 MSTORE PUSH1 0x20 ADD DUP4 DUP4 DUP1 DUP3 DUP5 CALLDATACOPY PUSH0 SWAP3 ADD SWAP2 SWAP1 SWAP2 MSTORE POP POP POP SWAP1 DUP3 MSTORE POP CALLER PUSH1 0x20 DUP3 ADD MSTORE ADDRESS PUSH1 0x40 DUP1 DUP4 ADD SWAP2 SWAP1 SWAP2 MSTORE PUSH1 0x60 SWAP1 SWAP2 ADD SWAP1 PUSH2 0x242F SWAP1 DUP9 ADD DUP9 PUSH2 0x36E8 JUMP JUMPDEST DUP1 DUP1 PUSH1 0x20 MUL PUSH1 0x20 ADD PUSH1 0x40 MLOAD SWAP1 DUP2 ADD PUSH1 0x40 MSTORE DUP1 SWAP4 SWAP3 SWAP2 SWAP1 DUP2 DUP2 MSTORE PUSH1 0x20 ADD DUP4 DUP4 PUSH1 0x20 MUL DUP1 DUP3 DUP5 CALLDATACOPY PUSH0 SWAP3 ADD SWAP2 SWAP1 SWAP2 MSTORE POP POP POP SWAP1 DUP3 MSTORE POP PUSH1 0x20 ADD PUSH2 0x2472 PUSH1 0x60 DUP9 ADD DUP9 PUSH2 0x36E8 JUMP JUMPDEST DUP1 DUP1 PUSH1 0x20 MUL PUSH1 0x20 ADD PUSH1 0x40 MLOAD SWAP1 DUP2 ADD PUSH1 0x40 MSTORE DUP1 SWAP4 SWAP3 SWAP2 SWAP1 DUP2 DUP2 MSTORE PUSH1 0x20 ADD DUP4 DUP4 PUSH1 0x20 MUL DUP1 DUP3 DUP5 CALLDATACOPY PUSH0 SWAP3 ADD SWAP2 SWAP1 SWAP2 MSTORE POP POP POP SWAP1 DUP3 MSTORE POP PUSH1 0x1 PUSH1 0x1 PUSH1 0xA0 SHL SUB DUP6 AND PUSH1 0x20 DUP3 ADD MSTORE PUSH1 0x40 ADD PUSH2 0x24C4 PUSH1 0x80 DUP9 ADD DUP9 PUSH2 0x3567 JUMP JUMPDEST DUP1 DUP1 PUSH1 0x1F ADD PUSH1 0x20 DUP1 SWAP2 DIV MUL PUSH1 0x20 ADD PUSH1 0x40 MLOAD SWAP1 DUP2 ADD PUSH1 0x40 MSTORE DUP1 SWAP4 SWAP3 SWAP2 SWAP1 DUP2 DUP2 MSTORE PUSH1 0x20 ADD DUP4 DUP4 DUP1 DUP3 DUP5 CALLDATACOPY PUSH0 SWAP3 ADD SWAP2 SWAP1 SWAP2 MSTORE POP POP POP SWAP1 DUP3 MSTORE POP PUSH1 0x20 ADD PUSH2 0x250A PUSH1 0xC0 DUP9 ADD DUP9 PUSH2 0x3567 JUMP JUMPDEST DUP1 DUP1 PUSH1 0x1F ADD PUSH1 0x20 DUP1 SWAP2 DIV MUL PUSH1 0x20 ADD PUSH1 0x40 MLOAD SWAP1 DUP2 ADD PUSH1 0x40 MSTORE DUP1 SWAP4 SWAP3 SWAP2 SWAP1 DUP2 DUP2 MSTORE PUSH1 0x20 ADD DUP4 DUP4 DUP1 DUP3 DUP5 CALLDATACOPY PUSH0 SWAP3 ADD SWAP2 SWAP1 SWAP2 MSTORE POP POP POP SWAP1 DUP3 MSTORE POP PUSH1 0x20 ADD PUSH2 0x2550 PUSH1 0xE0 DUP9 ADD DUP9 PUSH2 0x3567 JUMP JUMPDEST DUP1 DUP1 PUSH1 0x1F ADD PUSH1 0x20 DUP1 SWAP2 DIV MUL PUSH1 0x20 ADD PUSH1 0x40 MLOAD SWAP1 DUP2 ADD PUSH1 0x40 MSTORE DUP1 SWAP4 SWAP3 SWAP2 SWAP1 DUP2 DUP2 MSTORE PUSH1 0x20 ADD DUP4 DUP4 DUP1 DUP3 DUP5 CALLDATACOPY PUSH0 SWAP3 ADD DUP3 SWAP1 MSTORE POP SWAP4 SWAP1 SWAP5 MSTORE POP POP PUSH1 0xCD SLOAD PUSH1 0x40 MLOAD SWAP4 SWAP5 POP SWAP1 SWAP3 PUSH1 0x1 PUSH1 0x1 PUSH1 0xA0 SHL SUB SWAP1 SWAP2 AND SWAP2 POP PUSH4 0x478ECD9 PUSH1 0xE4 SHL SWAP1 PUSH2 0x25B4 SWAP1 DUP6 SWAP1 PUSH1 0x24 ADD PUSH2 0x37C1 JUMP JUMPDEST PUSH1 0x40 DUP1 MLOAD PUSH1 0x1F NOT DUP2 DUP5 SUB ADD DUP2 MSTORE SWAP2 DUP2 MSTORE PUSH1 0x20 DUP3 ADD DUP1 MLOAD PUSH1 0x1 PUSH1 0x1 PUSH1 0xE0 SHL SUB AND PUSH1 0x1 PUSH1 0x1 PUSH1 0xE0 SHL SUB NOT SWAP1 SWAP5 AND SWAP4 SWAP1 SWAP4 OR SWAP1 SWAP3 MSTORE SWAP1 MLOAD PUSH2 0x25F1 SWAP1 PUSH2 0x2F6B JUMP JUMPDEST PUSH2 0x25FC SWAP3 SWAP2 SWAP1 PUSH2 0x379E JUMP JUMPDEST PUSH1 0x40 MLOAD DUP1 SWAP2 SUB SWAP1 PUSH0 CREATE DUP1 ISZERO DUP1 ISZERO PUSH2 0x2615 JUMPI RETURNDATASIZE PUSH0 PUSH0 RETURNDATACOPY RETURNDATASIZE PUSH0 REVERT JUMPDEST POP SWAP7 SWAP4 SWAP6 POP SWAP3 SWAP4 POP POP POP POP JUMP JUMPDEST PUSH0 PUSH1 0x60 DUP2 PUSH2 0x2633 PUSH1 0x40 DUP7 ADD DUP7 PUSH2 0x36E8 JUMP JUMPDEST SWAP1 POP SWAP1 POP DUP1 PUSH1 0x1 PUSH1 0x1 PUSH1 0x40 SHL SUB DUP2 GT ISZERO PUSH2 0x264F JUMPI PUSH2 0x264F PUSH2 0x3161 JUMP JUMPDEST PUSH1 0x40 MLOAD SWAP1 DUP1 DUP3 MSTORE DUP1 PUSH1 0x20 MUL PUSH1 0x20 ADD DUP3 ADD PUSH1 0x40 MSTORE DUP1 ISZERO PUSH2 0x2678 JUMPI DUP2 PUSH1 0x20 ADD PUSH1 0x20 DUP3 MUL DUP1 CALLDATASIZE DUP4 CALLDATACOPY ADD SWAP1 POP JUMPDEST POP PUSH0 SWAP4 POP SWAP2 POP DUP3 JUMPDEST DUP2 DUP2 LT ISZERO PUSH2 0x295B JUMPI PUSH0 PUSH2 0x2694 PUSH1 0x1 DUP5 PUSH2 0x3554 JUMP JUMPDEST DUP3 EQ PUSH2 0x26DB JUMPI PUSH2 0x2710 PUSH2 0x26AA PUSH1 0x60 DUP10 ADD DUP10 PUSH2 0x36E8 JUMP JUMPDEST DUP5 DUP2 DUP2 LT PUSH2 0x26BA JUMPI PUSH2 0x26BA PUSH2 0x337B JUMP JUMPDEST SWAP1 POP PUSH1 0x20 MUL ADD CALLDATALOAD DUP8 PUSH2 0x26CC SWAP2 SWAP1 PUSH2 0x36B2 JUMP JUMPDEST PUSH2 0x26D6 SWAP2 SWAP1 PUSH2 0x36C9 JUMP JUMPDEST PUSH2 0x26E5 JUMP JUMPDEST PUSH2 0x26E5 DUP6 DUP8 PUSH2 0x3554 JUMP JUMPDEST PUSH1 0xCC SLOAD SWAP1 SWAP2 POP PUSH0 SWAP1 PUSH2 0x272C SWAP1 PUSH1 0x1 PUSH1 0x1 PUSH1 0xA0 SHL SUB AND PUSH2 0x2707 PUSH1 0x40 DUP12 ADD DUP12 PUSH2 0x36E8 JUMP JUMPDEST DUP7 DUP2 DUP2 LT PUSH2 0x2717 JUMPI PUSH2 0x2717 PUSH2 0x337B JUMP JUMPDEST SWAP1 POP PUSH1 0x20 MUL ADD PUSH1 0x20 DUP2 ADD SWAP1 PUSH2 0x90F SWAP2 SWAP1 PUSH2 0x2FBA JUMP JUMPDEST SWAP1 POP PUSH0 PUSH2 0x2710 PUSH2 0x2740 PUSH1 0xA0 DUP12 ADD CALLDATALOAD DUP3 PUSH2 0x3554 JUMP JUMPDEST PUSH2 0x274A DUP6 DUP6 PUSH2 0x17AC JUMP JUMPDEST PUSH2 0x2754 SWAP2 SWAP1 PUSH2 0x36B2 JUMP JUMPDEST PUSH2 0x275E SWAP2 SWAP1 PUSH2 0x36C9 JUMP JUMPDEST SWAP1 POP PUSH0 PUSH2 0x276E PUSH1 0x40 DUP12 ADD DUP12 PUSH2 0x36E8 JUMP JUMPDEST DUP7 DUP2 DUP2 LT PUSH2 0x277E JUMPI PUSH2 0x277E PUSH2 0x337B JUMP JUMPDEST SWAP1 POP PUSH1 0x20 MUL ADD PUSH1 0x20 DUP2 ADD SWAP1 PUSH2 0x2793 SWAP2 SWAP1 PUSH2 0x2FBA JUMP JUMPDEST PUSH1 0x40 MLOAD PUSH4 0x70A08231 PUSH1 0xE0 SHL DUP2 MSTORE PUSH1 0x1 PUSH1 0x1 PUSH1 0xA0 SHL SUB DUP14 DUP2 AND PUSH1 0x4 DUP4 ADD MSTORE SWAP2 SWAP1 SWAP2 AND SWAP1 PUSH4 0x70A08231 SWAP1 PUSH1 0x24 ADD PUSH1 0x20 PUSH1 0x40 MLOAD DUP1 DUP4 SUB DUP2 DUP7 GAS STATICCALL ISZERO DUP1 ISZERO PUSH2 0x27D9 JUMPI RETURNDATASIZE PUSH0 PUSH0 RETURNDATACOPY RETURNDATASIZE PUSH0 REVERT JUMPDEST POP POP POP POP PUSH1 0x40 MLOAD RETURNDATASIZE PUSH1 0x1F NOT PUSH1 0x1F DUP3 ADD AND DUP3 ADD DUP1 PUSH1 0x40 MSTORE POP DUP2 ADD SWAP1 PUSH2 0x27FD SWAP2 SWAP1 PUSH2 0x3529 JUMP JUMPDEST SWAP1 POP PUSH1 0xCB PUSH0 SWAP1 SLOAD SWAP1 PUSH2 0x100 EXP SWAP1 DIV PUSH1 0x1 PUSH1 0x1 PUSH1 0xA0 SHL SUB AND PUSH1 0x1 PUSH1 0x1 PUSH1 0xA0 SHL SUB AND PUSH4 0xB6F9DE95 DUP6 DUP5 DUP7 DUP16 DUP16 PUSH2 0x100 ADD CALLDATALOAD PUSH1 0x40 MLOAD DUP7 PUSH4 0xFFFFFFFF AND PUSH1 0xE0 SHL DUP2 MSTORE PUSH1 0x4 ADD PUSH2 0x284B SWAP5 SWAP4 SWAP3 SWAP2 SWAP1 PUSH2 0x38E1 JUMP JUMPDEST PUSH0 PUSH1 0x40 MLOAD DUP1 DUP4 SUB DUP2 DUP6 DUP9 DUP1 EXTCODESIZE ISZERO DUP1 ISZERO PUSH2 0x2862 JUMPI PUSH0 PUSH0 REVERT JUMPDEST POP GAS CALL ISZERO DUP1 ISZERO PUSH2 0x2874 JUMPI RETURNDATASIZE PUSH0 PUSH0 RETURNDATACOPY RETURNDATASIZE PUSH0 REVERT JUMPDEST POP POP POP POP POP DUP4 DUP9 PUSH2 0x2885 SWAP2 SWAP1 PUSH2 0x3915 JUMP JUMPDEST SWAP8 POP DUP1 PUSH2 0x2895 PUSH1 0x40 DUP13 ADD DUP13 PUSH2 0x36E8 JUMP JUMPDEST DUP8 DUP2 DUP2 LT PUSH2 0x28A5 JUMPI PUSH2 0x28A5 PUSH2 0x337B JUMP JUMPDEST SWAP1 POP PUSH1 0x20 MUL ADD PUSH1 0x20 DUP2 ADD SWAP1 PUSH2 0x28BA SWAP2 SWAP1 PUSH2 0x2FBA JUMP JUMPDEST PUSH1 0x40 MLOAD PUSH4 0x70A08231 PUSH1 0xE0 SHL DUP2 MSTORE PUSH1 0x1 PUSH1 0x1 PUSH1 0xA0 SHL SUB DUP15 DUP2 AND PUSH1 0x4 DUP4 ADD MSTORE SWAP2 SWAP1 SWAP2 AND SWAP1 PUSH4 0x70A08231 SWAP1 PUSH1 0x24 ADD PUSH1 0x20 PUSH1 0x40 MLOAD DUP1 DUP4 SUB DUP2 DUP7 GAS STATICCALL ISZERO DUP1 ISZERO PUSH2 0x2900 JUMPI RETURNDATASIZE PUSH0 PUSH0 RETURNDATACOPY RETURNDATASIZE PUSH0 REVERT JUMPDEST POP POP POP POP PUSH1 0x40 MLOAD RETURNDATASIZE PUSH1 0x1F NOT PUSH1 0x1F DUP3 ADD AND DUP3 ADD DUP1 PUSH1 0x40 MSTORE POP DUP2 ADD SWAP1 PUSH2 0x2924 SWAP2 SWAP1 PUSH2 0x3529 JUMP JUMPDEST PUSH2 0x292E SWAP2 SWAP1 PUSH2 0x3554 JUMP JUMPDEST DUP8 DUP7 DUP2 MLOAD DUP2 LT PUSH2 0x2940 JUMPI PUSH2 0x2940 PUSH2 0x337B JUMP JUMPDEST PUSH1 0x20 MUL PUSH1 0x20 ADD ADD DUP2 DUP2 MSTORE POP POP DUP5 PUSH1 0x1 ADD SWAP5 POP POP POP POP POP PUSH2 0x2680 JUMP JUMPDEST POP PUSH0 DUP4 GT PUSH2 0x29AB JUMPI PUSH1 0x40 MLOAD PUSH3 0x461BCD PUSH1 0xE5 SHL DUP2 MSTORE PUSH1 0x20 PUSH1 0x4 DUP3 ADD MSTORE PUSH1 0x18 PUSH1 0x24 DUP3 ADD MSTORE PUSH32 0x746F74616C45544873776170706564206973207A65726F200000000000000000 PUSH1 0x44 DUP3 ADD MSTORE PUSH1 0x64 ADD PUSH2 0xA84 JUMP JUMPDEST PUSH0 DUP3 MLOAD GT PUSH2 0x29FB JUMPI PUSH1 0x40 MLOAD PUSH3 0x461BCD PUSH1 0xE5 SHL DUP2 MSTORE PUSH1 0x20 PUSH1 0x4 DUP3 ADD MSTORE PUSH1 0x18 PUSH1 0x24 DUP3 ADD MSTORE PUSH32 0x616D6F756E7473206C656E67746820697320207A65726F200000000000000000 PUSH1 0x44 DUP3 ADD MSTORE PUSH1 0x64 ADD PUSH2 0xA84 JUMP JUMPDEST POP SWAP4 POP SWAP4 SWAP2 POP POP JUMP JUMPDEST PUSH1 0x1 PUSH1 0x97 SSTORE JUMP JUMPDEST PUSH0 DUP3 DUP2 PUSH1 0x1 DUP5 AND PUSH2 0x2A24 JUMPI PUSH8 0xDE0B6B3A7640000 PUSH2 0x2A26 JUMP JUMPDEST DUP2 JUMPDEST SWAP1 POP PUSH1 0x1 DUP5 SWAP1 SHR SWAP4 POP JUMPDEST DUP4 ISZERO PUSH2 0x2A64 JUMPI PUSH2 0x2A40 DUP3 DUP4 PUSH2 0x2CEC JUMP JUMPDEST SWAP2 POP PUSH1 0x1 DUP5 AND ISZERO PUSH2 0x2A58 JUMPI PUSH2 0x2A55 DUP2 DUP4 PUSH2 0x2CEC JUMP JUMPDEST SWAP1 POP JUMPDEST PUSH1 0x1 DUP5 SWAP1 SHR SWAP4 POP PUSH2 0x2A30 JUMP JUMPDEST DUP1 JUMPDEST SWAP6 SWAP5 POP POP POP POP POP JUMP JUMPDEST PUSH0 SLOAD PUSH2 0x100 SWAP1 DIV PUSH1 0xFF AND PUSH2 0x2A95 JUMPI PUSH1 0x40 MLOAD PUSH3 0x461BCD PUSH1 0xE5 SHL DUP2 MSTORE PUSH1 0x4 ADD PUSH2 0xA84 SWAP1 PUSH2 0x3928 JUMP JUMPDEST PUSH2 0x2A9D PUSH2 0x2D9E JUMP JUMPDEST JUMP JUMPDEST PUSH0 PUSH2 0x2AAD PUSH1 0x20 DUP4 ADD DUP4 PUSH2 0x2FBA JUMP JUMPDEST PUSH1 0x1 PUSH1 0x1 PUSH1 0xA0 SHL SUB AND EQ DUP1 PUSH2 0x2AD9 JUMPI POP PUSH0 PUSH2 0x2ACE PUSH1 0x40 DUP4 ADD PUSH1 0x20 DUP5 ADD PUSH2 0x2FBA JUMP JUMPDEST PUSH1 0x1 PUSH1 0x1 PUSH1 0xA0 SHL SUB AND EQ JUMPDEST DUP1 PUSH2 0x2AFB JUMPI POP PUSH0 PUSH2 0x2AF0 PUSH1 0x60 DUP4 ADD PUSH1 0x40 DUP5 ADD PUSH2 0x2FBA JUMP JUMPDEST PUSH1 0x1 PUSH1 0x1 PUSH1 0xA0 SHL SUB AND EQ JUMPDEST DUP1 PUSH2 0x2B1D JUMPI POP PUSH0 PUSH2 0x2B12 PUSH1 0x80 DUP4 ADD PUSH1 0x60 DUP5 ADD PUSH2 0x2FBA JUMP JUMPDEST PUSH1 0x1 PUSH1 0x1 PUSH1 0xA0 SHL SUB AND EQ JUMPDEST DUP1 PUSH2 0x2B3F JUMPI POP PUSH0 PUSH2 0x2B34 PUSH1 0xA0 DUP4 ADD PUSH1 0x80 DUP5 ADD PUSH2 0x2FBA JUMP JUMPDEST PUSH1 0x1 PUSH1 0x1 PUSH1 0xA0 SHL SUB AND EQ JUMPDEST DUP1 PUSH2 0x2B61 JUMPI POP PUSH0 PUSH2 0x2B56 PUSH1 0xC0 DUP4 ADD PUSH1 0xA0 DUP5 ADD PUSH2 0x2FBA JUMP JUMPDEST PUSH1 0x1 PUSH1 0x1 PUSH1 0xA0 SHL SUB AND EQ JUMPDEST DUP1 PUSH2 0x2B83 JUMPI POP PUSH0 PUSH2 0x2B78 PUSH1 0xE0 DUP4 ADD PUSH1 0xC0 DUP5 ADD PUSH2 0x2FBA JUMP JUMPDEST PUSH1 0x1 PUSH1 0x1 PUSH1 0xA0 SHL SUB AND EQ JUMPDEST DUP1 PUSH2 0x2BA6 JUMPI POP PUSH0 PUSH2 0x2B9B PUSH2 0x100 DUP4 ADD PUSH1 0xE0 DUP5 ADD PUSH2 0x2FBA JUMP JUMPDEST PUSH1 0x1 PUSH1 0x1 PUSH1 0xA0 SHL SUB AND EQ JUMPDEST ISZERO PUSH2 0x2BC4 JUMPI PUSH1 0x40 MLOAD PUSH4 0xE6C4247B PUSH1 0xE0 SHL DUP2 MSTORE PUSH1 0x4 ADD PUSH1 0x40 MLOAD DUP1 SWAP2 SUB SWAP1 REVERT JUMPDEST PUSH1 0x64 PUSH2 0x2BD8 PUSH2 0x120 DUP4 ADD PUSH2 0x100 DUP5 ADD PUSH2 0x2FFB JUMP JUMPDEST PUSH2 0xFFFF AND LT DUP1 PUSH2 0x2BFE JUMPI POP PUSH2 0x1388 PUSH2 0x2BF8 PUSH2 0x120 DUP4 ADD PUSH2 0x100 DUP5 ADD PUSH2 0x2FFB JUMP JUMPDEST PUSH2 0xFFFF AND GT JUMPDEST ISZERO PUSH2 0x2C44 JUMPI PUSH2 0x2C15 PUSH2 0x120 DUP3 ADD PUSH2 0x100 DUP4 ADD PUSH2 0x2FFB JUMP JUMPDEST PUSH1 0x40 MLOAD PUSH4 0x2A8C162F PUSH1 0xE0 SHL DUP2 MSTORE PUSH2 0xFFFF SWAP1 SWAP2 AND PUSH1 0x4 DUP3 ADD MSTORE PUSH1 0x64 PUSH1 0x24 DUP3 ADD DUP2 SWAP1 MSTORE PUSH2 0x1388 PUSH1 0x44 DUP4 ADD MSTORE ADD PUSH2 0xA84 JUMP JUMPDEST PUSH2 0x2C52 PUSH2 0x140 DUP3 ADD DUP3 PUSH2 0x3567 JUMP JUMPDEST SWAP1 POP PUSH0 SUB PUSH2 0x17A9 JUMPI PUSH1 0x40 MLOAD PUSH4 0x24321863 PUSH1 0xE2 SHL DUP2 MSTORE PUSH1 0x20 PUSH1 0x4 DUP3 ADD MSTORE PUSH1 0xD PUSH1 0x24 DUP3 ADD MSTORE PUSH13 0x636F6C6C656374696F6E557269 PUSH1 0x98 SHL PUSH1 0x44 DUP3 ADD MSTORE PUSH1 0x64 ADD PUSH2 0xA84 JUMP JUMPDEST PUSH2 0x2C9D DUP3 DUP3 PUSH2 0x113F JUMP JUMPDEST PUSH2 0xD66 JUMPI PUSH2 0x2CAA DUP2 PUSH2 0x2DC4 JUMP JUMPDEST PUSH2 0x2CB5 DUP4 PUSH1 0x20 PUSH2 0x2DD6 JUMP JUMPDEST PUSH1 0x40 MLOAD PUSH1 0x20 ADD PUSH2 0x2CC6 SWAP3 SWAP2 SWAP1 PUSH2 0x398A JUMP JUMPDEST PUSH1 0x40 DUP1 MLOAD PUSH1 0x1F NOT DUP2 DUP5 SUB ADD DUP2 MSTORE SWAP1 DUP3 SWAP1 MSTORE PUSH3 0x461BCD PUSH1 0xE5 SHL DUP3 MSTORE PUSH2 0xA84 SWAP2 PUSH1 0x4 ADD PUSH2 0x306C JUMP JUMPDEST PUSH0 DUP1 DUP1 PUSH0 NOT DUP5 DUP7 MULMOD DUP5 DUP7 MUL SWAP3 POP DUP3 DUP2 LT DUP4 DUP3 SUB SUB SWAP2 POP POP DUP1 PUSH0 SUB PUSH2 0x2D1D JUMPI POP PUSH8 0xDE0B6B3A7640000 SWAP1 DIV SWAP1 POP PUSH2 0xA0C JUMP JUMPDEST PUSH8 0xDE0B6B3A7640000 DUP2 LT PUSH2 0x2D4F JUMPI PUSH1 0x40 MLOAD PUSH4 0x5173648D PUSH1 0xE0 SHL DUP2 MSTORE PUSH1 0x4 DUP2 ADD DUP7 SWAP1 MSTORE PUSH1 0x24 DUP2 ADD DUP6 SWAP1 MSTORE PUSH1 0x44 ADD PUSH2 0xA84 JUMP JUMPDEST PUSH0 PUSH8 0xDE0B6B3A7640000 DUP6 DUP8 MULMOD PUSH3 0x40000 DUP2 DUP6 SUB DIV SWAP4 LT SWAP1 SWAP2 SUB PUSH1 0x1 PUSH1 0xEE SHL MUL SWAP2 SWAP1 SWAP2 OR PUSH32 0xACCB18165BD6FE31AE1CF318DC5B51EEE0E1BA569B88CD74C1773B91FAC10669 MUL SWAP2 POP POP SWAP3 SWAP2 POP POP JUMP JUMPDEST PUSH0 SLOAD PUSH2 0x100 SWAP1 DIV PUSH1 0xFF AND PUSH2 0x2A04 JUMPI PUSH1 0x40 MLOAD PUSH3 0x461BCD PUSH1 0xE5 SHL DUP2 MSTORE PUSH1 0x4 ADD PUSH2 0xA84 SWAP1 PUSH2 0x3928 JUMP JUMPDEST PUSH1 0x60 PUSH2 0xA0C PUSH1 0x1 PUSH1 0x1 PUSH1 0xA0 SHL SUB DUP4 AND PUSH1 0x14 JUMPDEST PUSH1 0x60 PUSH0 PUSH2 0x2DE4 DUP4 PUSH1 0x2 PUSH2 0x36B2 JUMP JUMPDEST PUSH2 0x2DEF SWAP1 PUSH1 0x2 PUSH2 0x3915 JUMP JUMPDEST PUSH1 0x1 PUSH1 0x1 PUSH1 0x40 SHL SUB DUP2 GT ISZERO PUSH2 0x2E06 JUMPI PUSH2 0x2E06 PUSH2 0x3161 JUMP JUMPDEST PUSH1 0x40 MLOAD SWAP1 DUP1 DUP3 MSTORE DUP1 PUSH1 0x1F ADD PUSH1 0x1F NOT AND PUSH1 0x20 ADD DUP3 ADD PUSH1 0x40 MSTORE DUP1 ISZERO PUSH2 0x2E30 JUMPI PUSH1 0x20 DUP3 ADD DUP2 DUP1 CALLDATASIZE DUP4 CALLDATACOPY ADD SWAP1 POP JUMPDEST POP SWAP1 POP PUSH1 0x3 PUSH1 0xFC SHL DUP2 PUSH0 DUP2 MLOAD DUP2 LT PUSH2 0x2E4A JUMPI PUSH2 0x2E4A PUSH2 0x337B JUMP JUMPDEST PUSH1 0x20 ADD ADD SWAP1 PUSH1 0x1 PUSH1 0x1 PUSH1 0xF8 SHL SUB NOT AND SWAP1 DUP2 PUSH0 BYTE SWAP1 MSTORE8 POP PUSH1 0xF PUSH1 0xFB SHL DUP2 PUSH1 0x1 DUP2 MLOAD DUP2 LT PUSH2 0x2E78 JUMPI PUSH2 0x2E78 PUSH2 0x337B JUMP JUMPDEST PUSH1 0x20 ADD ADD SWAP1 PUSH1 0x1 PUSH1 0x1 PUSH1 0xF8 SHL SUB NOT AND SWAP1 DUP2 PUSH0 BYTE SWAP1 MSTORE8 POP PUSH0 PUSH2 0x2E9A DUP5 PUSH1 0x2 PUSH2 0x36B2 JUMP JUMPDEST PUSH2 0x2EA5 SWAP1 PUSH1 0x1 PUSH2 0x3915 JUMP JUMPDEST SWAP1 POP JUMPDEST PUSH1 0x1 DUP2 GT ISZERO PUSH2 0x2F1C JUMPI PUSH16 0x181899199A1A9B1B9C1CB0B131B232B3 PUSH1 0x81 SHL DUP6 PUSH1 0xF AND PUSH1 0x10 DUP2 LT PUSH2 0x2ED9 JUMPI PUSH2 0x2ED9 PUSH2 0x337B JUMP JUMPDEST BYTE PUSH1 0xF8 SHL DUP3 DUP3 DUP2 MLOAD DUP2 LT PUSH2 0x2EEF JUMPI PUSH2 0x2EEF PUSH2 0x337B JUMP JUMPDEST PUSH1 0x20 ADD ADD SWAP1 PUSH1 0x1 PUSH1 0x1 PUSH1 0xF8 SHL SUB NOT AND SWAP1 DUP2 PUSH0 BYTE SWAP1 MSTORE8 POP PUSH1 0x4 SWAP5 SWAP1 SWAP5 SHR SWAP4 PUSH2 0x2F15 DUP2 PUSH2 0x39DF JUMP JUMPDEST SWAP1 POP PUSH2 0x2EA8 JUMP JUMPDEST POP DUP4 ISZERO PUSH2 0x22BE JUMPI PUSH1 0x40 MLOAD PUSH3 0x461BCD PUSH1 0xE5 SHL DUP2 MSTORE PUSH1 0x20 PUSH1 0x4 DUP3 ADD DUP2 SWAP1 MSTORE PUSH1 0x24 DUP3 ADD MSTORE PUSH32 0x537472696E67733A20686578206C656E67746820696E73756666696369656E74 PUSH1 0x44 DUP3 ADD MSTORE PUSH1 0x64 ADD PUSH2 0xA84 JUMP JUMPDEST PUSH2 0x576 DUP1 PUSH2 0x39F5 DUP4 CODECOPY ADD SWAP1 JUMP JUMPDEST PUSH0 PUSH1 0x20 DUP3 DUP5 SUB SLT ISZERO PUSH2 0x2F88 JUMPI PUSH0 PUSH0 REVERT JUMPDEST DUP2 CALLDATALOAD PUSH1 0x1 PUSH1 0x1 PUSH1 0xE0 SHL SUB NOT DUP2 AND DUP2 EQ PUSH2 0x22BE JUMPI PUSH0 PUSH0 REVERT JUMPDEST DUP1 CALLDATALOAD PUSH1 0x1 PUSH1 0x1 PUSH1 0xA0 SHL SUB DUP2 AND DUP2 EQ PUSH2 0x2FB5 JUMPI PUSH0 PUSH0 REVERT JUMPDEST SWAP2 SWAP1 POP JUMP JUMPDEST PUSH0 PUSH1 0x20 DUP3 DUP5 SUB SLT ISZERO PUSH2 0x2FCA JUMPI PUSH0 PUSH0 REVERT JUMPDEST PUSH2 0x22BE DUP3 PUSH2 0x2F9F JUMP JUMPDEST PUSH0 PUSH1 0x20 DUP3 DUP5 SUB SLT ISZERO PUSH2 0x2FE3 JUMPI PUSH0 PUSH0 REVERT JUMPDEST POP CALLDATALOAD SWAP2 SWAP1 POP JUMP JUMPDEST DUP1 CALLDATALOAD PUSH2 0xFFFF DUP2 AND DUP2 EQ PUSH2 0x2FB5 JUMPI PUSH0 PUSH0 REVERT JUMPDEST PUSH0 PUSH1 0x20 DUP3 DUP5 SUB SLT ISZERO PUSH2 0x300B JUMPI PUSH0 PUSH0 REVERT JUMPDEST PUSH2 0x22BE DUP3 PUSH2 0x2FEA JUMP JUMPDEST PUSH0 PUSH0 PUSH1 0x40 DUP4 DUP6 SUB SLT ISZERO PUSH2 0x3025 JUMPI PUSH0 PUSH0 REVERT JUMPDEST DUP3 CALLDATALOAD SWAP2 POP PUSH2 0x3035 PUSH1 0x20 DUP5 ADD PUSH2 0x2F9F JUMP JUMPDEST SWAP1 POP SWAP3 POP SWAP3 SWAP1 POP JUMP JUMPDEST PUSH0 DUP2 MLOAD DUP1 DUP5 MSTORE DUP1 PUSH1 0x20 DUP5 ADD PUSH1 0x20 DUP7 ADD MCOPY PUSH0 PUSH1 0x20 DUP3 DUP7 ADD ADD MSTORE PUSH1 0x20 PUSH1 0x1F NOT PUSH1 0x1F DUP4 ADD AND DUP6 ADD ADD SWAP2 POP POP SWAP3 SWAP2 POP POP JUMP JUMPDEST PUSH1 0x20 DUP2 MSTORE PUSH0 PUSH2 0x22BE PUSH1 0x20 DUP4 ADD DUP5 PUSH2 0x303E JUMP JUMPDEST PUSH0 PUSH0 PUSH1 0x20 DUP4 DUP6 SUB SLT ISZERO PUSH2 0x308F JUMPI PUSH0 PUSH0 REVERT JUMPDEST DUP3 CALLDATALOAD PUSH1 0x1 PUSH1 0x1 PUSH1 0x40 SHL SUB DUP2 GT ISZERO PUSH2 0x30A4 JUMPI PUSH0 PUSH0 REVERT JUMPDEST DUP4 ADD PUSH1 0x1F DUP2 ADD DUP6 SGT PUSH2 0x30B4 JUMPI PUSH0 PUSH0 REVERT JUMPDEST DUP1 CALLDATALOAD PUSH1 0x1 PUSH1 0x1 PUSH1 0x40 SHL SUB DUP2 GT ISZERO PUSH2 0x30C9 JUMPI PUSH0 PUSH0 REVERT JUMPDEST DUP6 PUSH1 0x20 DUP3 DUP5 ADD ADD GT ISZERO PUSH2 0x30DA JUMPI PUSH0 PUSH0 REVERT JUMPDEST PUSH1 0x20 SWAP2 SWAP1 SWAP2 ADD SWAP6 SWAP1 SWAP5 POP SWAP3 POP POP POP JUMP JUMPDEST PUSH0 PUSH0 PUSH0 PUSH1 0x60 DUP5 DUP7 SUB SLT ISZERO PUSH2 0x30FC JUMPI PUSH0 PUSH0 REVERT JUMPDEST PUSH2 0x3105 DUP5 PUSH2 0x2FEA JUMP JUMPDEST SWAP3 POP PUSH2 0x3113 PUSH1 0x20 DUP6 ADD PUSH2 0x2FEA JUMP JUMPDEST SWAP2 POP PUSH2 0x3121 PUSH1 0x40 DUP6 ADD PUSH2 0x2FEA JUMP JUMPDEST SWAP1 POP SWAP3 POP SWAP3 POP SWAP3 JUMP JUMPDEST PUSH0 PUSH1 0x20 DUP3 DUP5 SUB SLT ISZERO PUSH2 0x313A JUMPI PUSH0 PUSH0 REVERT JUMPDEST DUP2 CALLDATALOAD PUSH1 0x1 PUSH1 0x1 PUSH1 0x40 SHL SUB DUP2 GT ISZERO PUSH2 0x314F JUMPI PUSH0 PUSH0 REVERT JUMPDEST DUP3 ADD PUSH2 0x120 DUP2 DUP6 SUB SLT ISZERO PUSH2 0x22BE JUMPI PUSH0 PUSH0 REVERT JUMPDEST PUSH4 0x4E487B71 PUSH1 0xE0 SHL PUSH0 MSTORE PUSH1 0x41 PUSH1 0x4 MSTORE PUSH1 0x24 PUSH0 REVERT JUMPDEST PUSH1 0x40 MLOAD PUSH1 0x1F DUP3 ADD PUSH1 0x1F NOT AND DUP2 ADD PUSH1 0x1 PUSH1 0x1 PUSH1 0x40 SHL SUB DUP2 GT DUP3 DUP3 LT OR ISZERO PUSH2 0x319D JUMPI PUSH2 0x319D PUSH2 0x3161 JUMP JUMPDEST PUSH1 0x40 MSTORE SWAP2 SWAP1 POP JUMP JUMPDEST PUSH0 PUSH1 0x1 PUSH1 0x1 PUSH1 0x40 SHL SUB DUP3 GT ISZERO PUSH2 0x31BD JUMPI PUSH2 0x31BD PUSH2 0x3161 JUMP JUMPDEST POP PUSH1 0x5 SHL PUSH1 0x20 ADD SWAP1 JUMP JUMPDEST PUSH0 PUSH0 PUSH1 0x40 DUP4 DUP6 SUB SLT ISZERO PUSH2 0x31D8 JUMPI PUSH0 PUSH0 REVERT JUMPDEST DUP3 CALLDATALOAD SWAP2 POP PUSH1 0x20 DUP4 ADD CALLDATALOAD PUSH1 0x1 PUSH1 0x1 PUSH1 0x40 SHL SUB DUP2 GT ISZERO PUSH2 0x31F4 JUMPI PUSH0 PUSH0 REVERT JUMPDEST DUP4 ADD PUSH1 0x1F DUP2 ADD DUP6 SGT PUSH2 0x3204 JUMPI PUSH0 PUSH0 REVERT JUMPDEST DUP1 CALLDATALOAD PUSH2 0x3217 PUSH2 0x3212 DUP3 PUSH2 0x31A5 JUMP JUMPDEST PUSH2 0x3175 JUMP JUMPDEST DUP1 DUP3 DUP3 MSTORE PUSH1 0x20 DUP3 ADD SWAP2 POP PUSH1 0x20 DUP4 PUSH1 0x5 SHL DUP6 ADD ADD SWAP3 POP DUP8 DUP4 GT ISZERO PUSH2 0x3238 JUMPI PUSH0 PUSH0 REVERT JUMPDEST PUSH1 0x20 DUP5 ADD SWAP4 POP JUMPDEST DUP3 DUP5 LT ISZERO PUSH2 0x3261 JUMPI PUSH2 0x3250 DUP5 PUSH2 0x2F9F JUMP JUMPDEST DUP3 MSTORE PUSH1 0x20 SWAP4 DUP5 ADD SWAP4 SWAP1 SWAP2 ADD SWAP1 PUSH2 0x323F JUMP JUMPDEST DUP1 SWAP5 POP POP POP POP POP SWAP3 POP SWAP3 SWAP1 POP JUMP JUMPDEST PUSH0 PUSH0 PUSH1 0x40 DUP4 DUP6 SUB SLT ISZERO PUSH2 0x3280 JUMPI PUSH0 PUSH0 REVERT JUMPDEST POP POP DUP1 CALLDATALOAD SWAP3 PUSH1 0x20 SWAP1 SWAP2 ADD CALLDATALOAD SWAP2 POP JUMP JUMPDEST PUSH0 PUSH0 PUSH1 0x40 DUP4 DUP6 SUB SLT ISZERO PUSH2 0x32A0 JUMPI PUSH0 PUSH0 REVERT JUMPDEST PUSH2 0x32A9 DUP4 PUSH2 0x2F9F JUMP JUMPDEST SWAP2 POP PUSH2 0x3035 PUSH1 0x20 DUP5 ADD PUSH2 0x2F9F JUMP JUMPDEST PUSH0 DUP2 MLOAD DUP1 DUP5 MSTORE PUSH1 0x20 DUP5 ADD SWAP4 POP PUSH1 0x20 DUP4 ADD PUSH0 JUMPDEST DUP3 DUP2 LT ISZERO PUSH2 0x32F0 JUMPI DUP2 MLOAD PUSH1 0x1 PUSH1 0x1 PUSH1 0xA0 SHL SUB AND DUP7 MSTORE PUSH1 0x20 SWAP6 DUP7 ADD SWAP6 SWAP1 SWAP2 ADD SWAP1 PUSH1 0x1 ADD PUSH2 0x32C9 JUMP JUMPDEST POP SWAP4 SWAP5 SWAP4 POP POP POP POP JUMP JUMPDEST PUSH1 0x20 DUP2 MSTORE PUSH0 PUSH2 0x22BE PUSH1 0x20 DUP4 ADD DUP5 PUSH2 0x32B7 JUMP JUMPDEST PUSH0 PUSH1 0x20 DUP3 DUP5 SUB SLT ISZERO PUSH2 0x331C JUMPI PUSH0 PUSH0 REVERT JUMPDEST DUP2 CALLDATALOAD PUSH1 0x1 PUSH1 0x1 PUSH1 0x40 SHL SUB DUP2 GT ISZERO PUSH2 0x3331 JUMPI PUSH0 PUSH0 REVERT JUMPDEST DUP3 ADD PUSH2 0x180 DUP2 DUP6 SUB SLT ISZERO PUSH2 0x22BE JUMPI PUSH0 PUSH0 REVERT JUMPDEST PUSH1 0x1 DUP2 DUP2 SHR SWAP1 DUP3 AND DUP1 PUSH2 0x3357 JUMPI PUSH1 0x7F DUP3 AND SWAP2 POP JUMPDEST PUSH1 0x20 DUP3 LT DUP2 SUB PUSH2 0x3375 JUMPI PUSH4 0x4E487B71 PUSH1 0xE0 SHL PUSH0 MSTORE PUSH1 0x22 PUSH1 0x4 MSTORE PUSH1 0x24 PUSH0 REVERT JUMPDEST POP SWAP2 SWAP1 POP JUMP JUMPDEST PUSH4 0x4E487B71 PUSH1 0xE0 SHL PUSH0 MSTORE PUSH1 0x32 PUSH1 0x4 MSTORE PUSH1 0x24 PUSH0 REVERT JUMPDEST PUSH1 0x1F DUP3 GT ISZERO PUSH2 0xCE7 JUMPI DUP1 PUSH0 MSTORE PUSH1 0x20 PUSH0 KECCAK256 PUSH1 0x1F DUP5 ADD PUSH1 0x5 SHR DUP2 ADD PUSH1 0x20 DUP6 LT ISZERO PUSH2 0x33B4 JUMPI POP DUP1 JUMPDEST PUSH1 0x1F DUP5 ADD PUSH1 0x5 SHR DUP3 ADD SWAP2 POP JUMPDEST DUP2 DUP2 LT ISZERO PUSH2 0x33D3 JUMPI PUSH0 DUP2 SSTORE PUSH1 0x1 ADD PUSH2 0x33C0 JUMP JUMPDEST POP POP POP POP POP JUMP JUMPDEST PUSH1 0x1 PUSH1 0x1 PUSH1 0x40 SHL SUB DUP4 GT ISZERO PUSH2 0x33F1 JUMPI PUSH2 0x33F1 PUSH2 0x3161 JUMP JUMPDEST PUSH2 0x3405 DUP4 PUSH2 0x33FF DUP4 SLOAD PUSH2 0x3343 JUMP JUMPDEST DUP4 PUSH2 0x338F JUMP JUMPDEST PUSH0 PUSH1 0x1F DUP5 GT PUSH1 0x1 DUP2 EQ PUSH2 0x3436 JUMPI PUSH0 DUP6 ISZERO PUSH2 0x341F JUMPI POP DUP4 DUP3 ADD CALLDATALOAD JUMPDEST PUSH0 NOT PUSH1 0x3 DUP8 SWAP1 SHL SHR NOT AND PUSH1 0x1 DUP7 SWAP1 SHL OR DUP4 SSTORE PUSH2 0x33D3 JUMP JUMPDEST PUSH0 DUP4 DUP2 MSTORE PUSH1 0x20 DUP2 KECCAK256 PUSH1 0x1F NOT DUP8 AND SWAP2 JUMPDEST DUP3 DUP2 LT ISZERO PUSH2 0x3465 JUMPI DUP7 DUP6 ADD CALLDATALOAD DUP3 SSTORE PUSH1 0x20 SWAP5 DUP6 ADD SWAP5 PUSH1 0x1 SWAP1 SWAP3 ADD SWAP2 ADD PUSH2 0x3445 JUMP JUMPDEST POP DUP7 DUP3 LT ISZERO PUSH2 0x3481 JUMPI PUSH0 NOT PUSH1 0xF8 DUP9 PUSH1 0x3 SHL AND SHR NOT DUP5 DUP8 ADD CALLDATALOAD AND DUP2 SSTORE JUMPDEST POP POP PUSH1 0x1 DUP6 PUSH1 0x1 SHL ADD DUP4 SSTORE POP POP POP POP POP JUMP JUMPDEST DUP2 DUP4 MSTORE DUP2 DUP2 PUSH1 0x20 DUP6 ADD CALLDATACOPY POP PUSH0 DUP3 DUP3 ADD PUSH1 0x20 SWAP1 DUP2 ADD SWAP2 SWAP1 SWAP2 MSTORE PUSH1 0x1F SWAP1 SWAP2 ADD PUSH1 0x1F NOT AND SWAP1 SWAP2 ADD ADD SWAP1 JUMP JUMPDEST PUSH1 0x20 DUP2 MSTORE PUSH0 PUSH2 0x34CE PUSH1 0x20 DUP4 ADD DUP5 DUP7 PUSH2 0x3493 JUMP JUMPDEST SWAP5 SWAP4 POP POP POP POP JUMP JUMPDEST PUSH0 DUP2 MLOAD DUP1 DUP5 MSTORE PUSH1 0x20 DUP5 ADD SWAP4 POP PUSH1 0x20 DUP4 ADD PUSH0 JUMPDEST DUP3 DUP2 LT ISZERO PUSH2 0x32F0 JUMPI DUP2 MLOAD DUP7 MSTORE PUSH1 0x20 SWAP6 DUP7 ADD SWAP6 SWAP1 SWAP2 ADD SWAP1 PUSH1 0x1 ADD PUSH2 0x34E8 JUMP JUMPDEST PUSH1 0x1 PUSH1 0x1 PUSH1 0xA0 SHL SUB DUP4 AND DUP2 MSTORE PUSH1 0x40 PUSH1 0x20 DUP3 ADD DUP2 SWAP1 MSTORE PUSH0 SWAP1 PUSH2 0x34CE SWAP1 DUP4 ADD DUP5 PUSH2 0x34D6 JUMP JUMPDEST PUSH0 PUSH1 0x20 DUP3 DUP5 SUB SLT ISZERO PUSH2 0x3539 JUMPI PUSH0 PUSH0 REVERT JUMPDEST POP MLOAD SWAP2 SWAP1 POP JUMP JUMPDEST PUSH4 0x4E487B71 PUSH1 0xE0 SHL PUSH0 MSTORE PUSH1 0x11 PUSH1 0x4 MSTORE PUSH1 0x24 PUSH0 REVERT JUMPDEST DUP2 DUP2 SUB DUP2 DUP2 GT ISZERO PUSH2 0xA0C JUMPI PUSH2 0xA0C PUSH2 0x3540 JUMP JUMPDEST PUSH0 PUSH0 DUP4 CALLDATALOAD PUSH1 0x1E NOT DUP5 CALLDATASIZE SUB ADD DUP2 SLT PUSH2 0x357C JUMPI PUSH0 PUSH0 REVERT JUMPDEST DUP4 ADD DUP1 CALLDATALOAD SWAP2 POP PUSH1 0x1 PUSH1 0x1 PUSH1 0x40 SHL SUB DUP3 GT ISZERO PUSH2 0x3595 JUMPI PUSH0 PUSH0 REVERT JUMPDEST PUSH1 0x20 ADD SWAP2 POP CALLDATASIZE DUP2 SWAP1 SUB DUP3 SGT ISZERO PUSH2 0x35A9 JUMPI PUSH0 PUSH0 REVERT JUMPDEST SWAP3 POP SWAP3 SWAP1 POP JUMP JUMPDEST PUSH1 0x1 PUSH1 0x1 PUSH1 0xA0 SHL SUB DUP11 DUP2 AND DUP3 MSTORE DUP10 AND PUSH1 0x20 DUP3 ADD MSTORE PUSH1 0x40 DUP2 ADD DUP9 SWAP1 MSTORE PUSH1 0x60 DUP2 ADD DUP8 SWAP1 MSTORE PUSH1 0xE0 PUSH1 0x80 DUP3 ADD DUP2 SWAP1 MSTORE PUSH0 SWAP1 PUSH2 0x35EA SWAP1 DUP4 ADD DUP8 DUP10 PUSH2 0x3493 JUMP JUMPDEST DUP3 DUP2 SUB PUSH1 0xA0 DUP5 ADD MSTORE PUSH2 0x35FD DUP2 DUP7 DUP9 PUSH2 0x3493 JUMP JUMPDEST SWAP2 POP POP DUP3 PUSH1 0xC0 DUP4 ADD MSTORE SWAP11 SWAP10 POP POP POP POP POP POP POP POP POP POP JUMP JUMPDEST DUP3 DUP2 MSTORE PUSH1 0x40 PUSH1 0x20 DUP3 ADD MSTORE PUSH0 PUSH2 0x34CE PUSH1 0x40 DUP4 ADD DUP5 PUSH2 0x32B7 JUMP JUMPDEST PUSH0 PUSH1 0x20 DUP3 DUP5 SUB SLT ISZERO PUSH2 0x363C JUMPI PUSH0 PUSH0 REVERT JUMPDEST DUP2 MLOAD PUSH1 0x1 PUSH1 0x1 PUSH1 0x40 SHL SUB DUP2 GT ISZERO PUSH2 0x3651 JUMPI PUSH0 PUSH0 REVERT JUMPDEST DUP3 ADD PUSH1 0x1F DUP2 ADD DUP5 SGT PUSH2 0x3661 JUMPI PUSH0 PUSH0 REVERT JUMPDEST DUP1 MLOAD PUSH2 0x366F PUSH2 0x3212 DUP3 PUSH2 0x31A5 JUMP JUMPDEST DUP1 DUP3 DUP3 MSTORE PUSH1 0x20 DUP3 ADD SWAP2 POP PUSH1 0x20 DUP4 PUSH1 0x5 SHL DUP6 ADD ADD SWAP3 POP DUP7 DUP4 GT ISZERO PUSH2 0x3690 JUMPI PUSH0 PUSH0 REVERT JUMPDEST PUSH1 0x20 DUP5 ADD SWAP4 POP JUMPDEST DUP3 DUP5 LT ISZERO PUSH2 0x18A4 JUMPI DUP4 MLOAD DUP3 MSTORE PUSH1 0x20 SWAP4 DUP5 ADD SWAP4 SWAP1 SWAP2 ADD SWAP1 PUSH2 0x3697 JUMP JUMPDEST DUP1 DUP3 MUL DUP2 ISZERO DUP3 DUP3 DIV DUP5 EQ OR PUSH2 0xA0C JUMPI PUSH2 0xA0C PUSH2 0x3540 JUMP JUMPDEST PUSH0 DUP3 PUSH2 0x36E3 JUMPI PUSH4 0x4E487B71 PUSH1 0xE0 SHL PUSH0 MSTORE PUSH1 0x12 PUSH1 0x4 MSTORE PUSH1 0x24 PUSH0 REVERT JUMPDEST POP DIV SWAP1 JUMP JUMPDEST PUSH0 PUSH0 DUP4 CALLDATALOAD PUSH1 0x1E NOT DUP5 CALLDATASIZE SUB ADD DUP2 SLT PUSH2 0x36FD JUMPI PUSH0 PUSH0 REVERT JUMPDEST DUP4 ADD DUP1 CALLDATALOAD SWAP2 POP PUSH1 0x1 PUSH1 0x1 PUSH1 0x40 SHL SUB DUP3 GT ISZERO PUSH2 0x3716 JUMPI PUSH0 PUSH0 REVERT JUMPDEST PUSH1 0x20 ADD SWAP2 POP PUSH1 0x5 DUP2 SWAP1 SHL CALLDATASIZE SUB DUP3 SGT ISZERO PUSH2 0x35A9 JUMPI PUSH0 PUSH0 REVERT JUMPDEST PUSH1 0x1 PUSH1 0x1 PUSH1 0xA0 SHL SUB DUP7 AND DUP2 MSTORE PUSH1 0x60 PUSH1 0x20 DUP3 ADD DUP2 SWAP1 MSTORE PUSH0 SWAP1 PUSH2 0x3751 SWAP1 DUP4 ADD DUP7 DUP9 PUSH2 0x3493 JUMP JUMPDEST DUP3 DUP2 SUB PUSH1 0x40 DUP5 ADD MSTORE DUP4 DUP2 MSTORE DUP5 SWAP1 PUSH1 0x20 ADD PUSH0 JUMPDEST DUP6 DUP2 LT ISZERO PUSH2 0x3791 JUMPI PUSH1 0x1 PUSH1 0x1 PUSH1 0xA0 SHL SUB PUSH2 0x377C DUP5 PUSH2 0x2F9F JUMP JUMPDEST AND DUP3 MSTORE PUSH1 0x20 SWAP3 DUP4 ADD SWAP3 SWAP1 SWAP2 ADD SWAP1 PUSH1 0x1 ADD PUSH2 0x3763 JUMP JUMPDEST POP SWAP9 SWAP8 POP POP POP POP POP POP POP POP JUMP JUMPDEST PUSH1 0x1 PUSH1 0x1 PUSH1 0xA0 SHL SUB DUP4 AND DUP2 MSTORE PUSH1 0x40 PUSH1 0x20 DUP3 ADD DUP2 SWAP1 MSTORE PUSH0 SWAP1 PUSH2 0x34CE SWAP1 DUP4 ADD DUP5 PUSH2 0x303E JUMP JUMPDEST PUSH1 0x20 DUP2 MSTORE PUSH0 DUP3 MLOAD PUSH2 0x140 PUSH1 0x20 DUP5 ADD MSTORE PUSH2 0x37DE PUSH2 0x160 DUP5 ADD DUP3 PUSH2 0x303E JUMP JUMPDEST SWAP1 POP PUSH1 0x20 DUP5 ADD MLOAD PUSH1 0x1F NOT DUP5 DUP4 SUB ADD PUSH1 0x40 DUP6 ADD MSTORE PUSH2 0x37FB DUP3 DUP3 PUSH2 0x303E JUMP JUMPDEST SWAP2 POP POP PUSH1 0x40 DUP5 ADD MLOAD PUSH2 0x3818 PUSH1 0x60 DUP6 ADD DUP3 PUSH1 0x1 PUSH1 0x1 PUSH1 0xA0 SHL SUB AND SWAP1 MSTORE JUMP JUMPDEST POP PUSH1 0x60 DUP5 ADD MLOAD PUSH1 0x1 PUSH1 0x1 PUSH1 0xA0 SHL SUB DUP2 AND PUSH1 0x80 DUP6 ADD MSTORE POP PUSH1 0x80 DUP5 ADD MLOAD DUP4 DUP3 SUB PUSH1 0x1F NOT ADD PUSH1 0xA0 DUP6 ADD MSTORE PUSH2 0x3849 DUP3 DUP3 PUSH2 0x32B7 JUMP JUMPDEST SWAP2 POP POP PUSH1 0xA0 DUP5 ADD MLOAD PUSH1 0x1F NOT DUP5 DUP4 SUB ADD PUSH1 0xC0 DUP6 ADD MSTORE PUSH2 0x3867 DUP3 DUP3 PUSH2 0x34D6 JUMP JUMPDEST SWAP2 POP POP PUSH1 0xC0 DUP5 ADD MLOAD PUSH2 0x3884 PUSH1 0xE0 DUP6 ADD DUP3 PUSH1 0x1 PUSH1 0x1 PUSH1 0xA0 SHL SUB AND SWAP1 MSTORE JUMP JUMPDEST POP PUSH1 0xE0 DUP5 ADD MLOAD DUP4 DUP3 SUB PUSH1 0x1F NOT ADD PUSH2 0x100 DUP6 ADD MSTORE PUSH2 0x38A1 DUP3 DUP3 PUSH2 0x303E JUMP JUMPDEST SWAP2 POP POP PUSH2 0x100 DUP5 ADD MLOAD PUSH1 0x1F NOT DUP5 DUP4 SUB ADD PUSH2 0x120 DUP6 ADD MSTORE PUSH2 0x38C1 DUP3 DUP3 PUSH2 0x303E JUMP JUMPDEST SWAP2 POP POP PUSH2 0x120 DUP5 ADD MLOAD PUSH1 0x1F NOT DUP5 DUP4 SUB ADD PUSH2 0x140 DUP6 ADD MSTORE PUSH2 0x2A66 DUP3 DUP3 PUSH2 0x303E JUMP JUMPDEST DUP5 DUP2 MSTORE PUSH1 0x80 PUSH1 0x20 DUP3 ADD MSTORE PUSH0 PUSH2 0x38F9 PUSH1 0x80 DUP4 ADD DUP7 PUSH2 0x32B7 JUMP JUMPDEST PUSH1 0x1 PUSH1 0x1 PUSH1 0xA0 SHL SUB SWAP5 SWAP1 SWAP5 AND PUSH1 0x40 DUP4 ADD MSTORE POP PUSH1 0x60 ADD MSTORE SWAP3 SWAP2 POP POP JUMP JUMPDEST DUP1 DUP3 ADD DUP1 DUP3 GT ISZERO PUSH2 0xA0C JUMPI PUSH2 0xA0C PUSH2 0x3540 JUMP JUMPDEST PUSH1 0x20 DUP1 DUP3 MSTORE PUSH1 0x2B SWAP1 DUP3 ADD MSTORE PUSH32 0x496E697469616C697A61626C653A20636F6E7472616374206973206E6F742069 PUSH1 0x40 DUP3 ADD MSTORE PUSH11 0x6E697469616C697A696E67 PUSH1 0xA8 SHL PUSH1 0x60 DUP3 ADD MSTORE PUSH1 0x80 ADD SWAP1 JUMP JUMPDEST PUSH0 DUP2 MLOAD DUP1 PUSH1 0x20 DUP5 ADD DUP6 MCOPY PUSH0 SWAP4 ADD SWAP3 DUP4 MSTORE POP SWAP1 SWAP2 SWAP1 POP JUMP JUMPDEST PUSH32 0x416363657373436F6E74726F6C3A206163636F756E7420000000000000000000 DUP2 MSTORE PUSH0 PUSH2 0x39BB PUSH1 0x17 DUP4 ADD DUP6 PUSH2 0x3973 JUMP JUMPDEST PUSH17 0x1034B99036B4B9B9B4B733903937B6329 PUSH1 0x7D SHL DUP2 MSTORE PUSH2 0x2A66 PUSH1 0x11 DUP3 ADD DUP6 PUSH2 0x3973 JUMP JUMPDEST PUSH0 DUP2 PUSH2 0x39ED JUMPI PUSH2 0x39ED PUSH2 0x3540 JUMP JUMPDEST POP PUSH0 NOT ADD SWAP1 JUMP INVALID PUSH1 0xA0 PUSH1 0x40 MSTORE PUSH1 0x40 MLOAD PUSH2 0x576 CODESIZE SUB DUP1 PUSH2 0x576 DUP4 CODECOPY DUP2 ADD PUSH1 0x40 DUP2 SWAP1 MSTORE PUSH2 0x22 SWAP2 PUSH2 0x353 JUMP JUMPDEST PUSH2 0x2C DUP3 DUP3 PUSH2 0x3E JUMP JUMPDEST POP PUSH1 0x1 PUSH1 0x1 PUSH1 0xA0 SHL SUB AND PUSH1 0x80 MSTORE PUSH2 0x444 JUMP JUMPDEST PUSH2 0x47 DUP3 PUSH2 0xFB JUMP JUMPDEST PUSH1 0x40 MLOAD PUSH1 0x1 PUSH1 0x1 PUSH1 0xA0 SHL SUB DUP4 AND SWAP1 PUSH32 0x1CF3B03A6CF19FA2BABA4DF148E9DCABEDEA7F8A5C07840E207E5C089BE95D3E SWAP1 PUSH0 SWAP1 LOG2 DUP1 MLOAD ISZERO PUSH2 0xEF JUMPI PUSH2 0xEA DUP3 PUSH1 0x1 PUSH1 0x1 PUSH1 0xA0 SHL SUB AND PUSH4 0x5C60DA1B PUSH1 0x40 MLOAD DUP2 PUSH4 0xFFFFFFFF AND PUSH1 0xE0 SHL DUP2 MSTORE PUSH1 0x4 ADD PUSH1 0x20 PUSH1 0x40 MLOAD DUP1 DUP4 SUB DUP2 DUP7 GAS STATICCALL ISZERO DUP1 ISZERO PUSH2 0xC0 JUMPI RETURNDATASIZE PUSH0 PUSH0 RETURNDATACOPY RETURNDATASIZE PUSH0 REVERT JUMPDEST POP POP POP POP PUSH1 0x40 MLOAD RETURNDATASIZE PUSH1 0x1F NOT PUSH1 0x1F DUP3 ADD AND DUP3 ADD DUP1 PUSH1 0x40 MSTORE POP DUP2 ADD SWAP1 PUSH2 0xE4 SWAP2 SWAP1 PUSH2 0x415 JUMP JUMPDEST DUP3 PUSH2 0x209 JUMP JUMPDEST POP POP POP JUMP JUMPDEST PUSH2 0xF7 PUSH2 0x27C JUMP JUMPDEST POP POP JUMP JUMPDEST DUP1 PUSH1 0x1 PUSH1 0x1 PUSH1 0xA0 SHL SUB AND EXTCODESIZE PUSH0 SUB PUSH2 0x135 JUMPI PUSH1 0x40 MLOAD PUSH4 0x1933B43B PUSH1 0xE2 SHL DUP2 MSTORE PUSH1 0x1 PUSH1 0x1 PUSH1 0xA0 SHL SUB DUP3 AND PUSH1 0x4 DUP3 ADD MSTORE PUSH1 0x24 ADD JUMPDEST PUSH1 0x40 MLOAD DUP1 SWAP2 SUB SWAP1 REVERT JUMPDEST DUP1 PUSH32 0xA3F0AD74E5423AEBFD80D3EF4346578335A9A72AEAEE59FF6CB3582B35133D50 DUP1 SLOAD PUSH1 0x1 PUSH1 0x1 PUSH1 0xA0 SHL SUB NOT AND PUSH1 0x1 PUSH1 0x1 PUSH1 0xA0 SHL SUB SWAP3 DUP4 AND OR SWAP1 SSTORE PUSH1 0x40 DUP1 MLOAD PUSH4 0x5C60DA1B PUSH1 0xE0 SHL DUP2 MSTORE SWAP1 MLOAD PUSH0 SWAP3 DUP5 AND SWAP2 PUSH4 0x5C60DA1B SWAP2 PUSH1 0x4 DUP1 DUP4 ADD SWAP3 PUSH1 0x20 SWAP3 SWAP2 SWAP1 DUP3 SWAP1 SUB ADD DUP2 DUP7 GAS STATICCALL ISZERO DUP1 ISZERO PUSH2 0x1AE JUMPI RETURNDATASIZE PUSH0 PUSH0 RETURNDATACOPY RETURNDATASIZE PUSH0 REVERT JUMPDEST POP POP POP POP PUSH1 0x40 MLOAD RETURNDATASIZE PUSH1 0x1F NOT PUSH1 0x1F DUP3 ADD AND DUP3 ADD DUP1 PUSH1 0x40 MSTORE POP DUP2 ADD SWAP1 PUSH2 0x1D2 SWAP2 SWAP1 PUSH2 0x415 JUMP JUMPDEST SWAP1 POP DUP1 PUSH1 0x1 PUSH1 0x1 PUSH1 0xA0 SHL SUB AND EXTCODESIZE PUSH0 SUB PUSH2 0xF7 JUMPI PUSH1 0x40 MLOAD PUSH4 0x4C9C8CE3 PUSH1 0xE0 SHL DUP2 MSTORE PUSH1 0x1 PUSH1 0x1 PUSH1 0xA0 SHL SUB DUP3 AND PUSH1 0x4 DUP3 ADD MSTORE PUSH1 0x24 ADD PUSH2 0x12C JUMP JUMPDEST PUSH1 0x60 PUSH0 PUSH0 DUP5 PUSH1 0x1 PUSH1 0x1 PUSH1 0xA0 SHL SUB AND DUP5 PUSH1 0x40 MLOAD PUSH2 0x225 SWAP2 SWAP1 PUSH2 0x42E JUMP JUMPDEST PUSH0 PUSH1 0x40 MLOAD DUP1 DUP4 SUB DUP2 DUP6 GAS DELEGATECALL SWAP2 POP POP RETURNDATASIZE DUP1 PUSH0 DUP2 EQ PUSH2 0x25D JUMPI PUSH1 0x40 MLOAD SWAP2 POP PUSH1 0x1F NOT PUSH1 0x3F RETURNDATASIZE ADD AND DUP3 ADD PUSH1 0x40 MSTORE RETURNDATASIZE DUP3 MSTORE RETURNDATASIZE PUSH0 PUSH1 0x20 DUP5 ADD RETURNDATACOPY PUSH2 0x262 JUMP JUMPDEST PUSH1 0x60 SWAP2 POP JUMPDEST POP SWAP1 SWAP3 POP SWAP1 POP PUSH2 0x273 DUP6 DUP4 DUP4 PUSH2 0x29D JUMP JUMPDEST SWAP6 SWAP5 POP POP POP POP POP JUMP JUMPDEST CALLVALUE ISZERO PUSH2 0x29B JUMPI PUSH1 0x40 MLOAD PUSH4 0xB398979F PUSH1 0xE0 SHL DUP2 MSTORE PUSH1 0x4 ADD PUSH1 0x40 MLOAD DUP1 SWAP2 SUB SWAP1 REVERT JUMPDEST JUMP JUMPDEST PUSH1 0x60 DUP3 PUSH2 0x2B2 JUMPI PUSH2 0x2AD DUP3 PUSH2 0x2FC JUMP JUMPDEST PUSH2 0x2F5 JUMP JUMPDEST DUP2 MLOAD ISZERO DUP1 ISZERO PUSH2 0x2C9 JUMPI POP PUSH1 0x1 PUSH1 0x1 PUSH1 0xA0 SHL SUB DUP5 AND EXTCODESIZE ISZERO JUMPDEST ISZERO PUSH2 0x2F2 JUMPI PUSH1 0x40 MLOAD PUSH4 0x9996B315 PUSH1 0xE0 SHL DUP2 MSTORE PUSH1 0x1 PUSH1 0x1 PUSH1 0xA0 SHL SUB DUP6 AND PUSH1 0x4 DUP3 ADD MSTORE PUSH1 0x24 ADD PUSH2 0x12C JUMP JUMPDEST POP DUP1 JUMPDEST SWAP4 SWAP3 POP POP POP JUMP JUMPDEST DUP1 MLOAD ISZERO PUSH2 0x30B JUMPI DUP1 MLOAD PUSH1 0x20 DUP3 ADD REVERT JUMPDEST PUSH1 0x40 MLOAD PUSH4 0xD6BDA275 PUSH1 0xE0 SHL DUP2 MSTORE PUSH1 0x4 ADD PUSH1 0x40 MLOAD DUP1 SWAP2 SUB SWAP1 REVERT JUMPDEST DUP1 MLOAD PUSH1 0x1 PUSH1 0x1 PUSH1 0xA0 SHL SUB DUP2 AND DUP2 EQ PUSH2 0x33A JUMPI PUSH0 PUSH0 REVERT JUMPDEST SWAP2 SWAP1 POP JUMP JUMPDEST PUSH4 0x4E487B71 PUSH1 0xE0 SHL PUSH0 MSTORE PUSH1 0x41 PUSH1 0x4 MSTORE PUSH1 0x24 PUSH0 REVERT JUMPDEST PUSH0 PUSH0 PUSH1 0x40 DUP4 DUP6 SUB SLT ISZERO PUSH2 0x364 JUMPI PUSH0 PUSH0 REVERT JUMPDEST PUSH2 0x36D DUP4 PUSH2 0x324 JUMP JUMPDEST PUSH1 0x20 DUP5 ADD MLOAD SWAP1 SWAP3 POP PUSH1 0x1 PUSH1 0x1 PUSH1 0x40 SHL SUB DUP2 GT ISZERO PUSH2 0x388 JUMPI PUSH0 PUSH0 REVERT JUMPDEST DUP4 ADD PUSH1 0x1F DUP2 ADD DUP6 SGT PUSH2 0x398 JUMPI PUSH0 PUSH0 REVERT JUMPDEST DUP1 MLOAD PUSH1 0x1 PUSH1 0x1 PUSH1 0x40 SHL SUB DUP2 GT ISZERO PUSH2 0x3B1 JUMPI PUSH2 0x3B1 PUSH2 0x33F JUMP JUMPDEST PUSH1 0x40 MLOAD PUSH1 0x1F DUP3 ADD PUSH1 0x1F NOT SWAP1 DUP2 AND PUSH1 0x3F ADD AND DUP2 ADD PUSH1 0x1 PUSH1 0x1 PUSH1 0x40 SHL SUB DUP2 GT DUP3 DUP3 LT OR ISZERO PUSH2 0x3DF JUMPI PUSH2 0x3DF PUSH2 0x33F JUMP JUMPDEST PUSH1 0x40 MSTORE DUP2 DUP2 MSTORE DUP3 DUP3 ADD PUSH1 0x20 ADD DUP8 LT ISZERO PUSH2 0x3F6 JUMPI PUSH0 PUSH0 REVERT JUMPDEST DUP2 PUSH1 0x20 DUP5 ADD PUSH1 0x20 DUP4 ADD MCOPY PUSH0 PUSH1 0x20 DUP4 DUP4 ADD ADD MSTORE DUP1 SWAP4 POP POP POP POP SWAP3 POP SWAP3 SWAP1 POP JUMP JUMPDEST PUSH0 PUSH1 0x20 DUP3 DUP5 SUB SLT ISZERO PUSH2 0x425 JUMPI PUSH0 PUSH0 REVERT JUMPDEST PUSH2 0x2F5 DUP3 PUSH2 0x324 JUMP JUMPDEST PUSH0 DUP3 MLOAD DUP1 PUSH1 0x20 DUP6 ADD DUP5 MCOPY PUSH0 SWAP3 ADD SWAP2 DUP3 MSTORE POP SWAP2 SWAP1 POP JUMP JUMPDEST PUSH1 0x80 MLOAD PUSH2 0x11B PUSH2 0x45B PUSH0 CODECOPY PUSH0 PUSH1 0x1D ADD MSTORE PUSH2 0x11B PUSH0 RETURN INVALID PUSH1 0x80 PUSH1 0x40 MSTORE PUSH1 0xA PUSH1 0xC JUMP JUMPDEST STOP JUMPDEST PUSH1 0x18 PUSH1 0x14 PUSH1 0x1A JUMP JUMPDEST PUSH1 0x9D JUMP JUMPDEST JUMP JUMPDEST PUSH0 PUSH32 0x0 PUSH1 0x1 PUSH1 0x1 PUSH1 0xA0 SHL SUB AND PUSH4 0x5C60DA1B PUSH1 0x40 MLOAD DUP2 PUSH4 0xFFFFFFFF AND PUSH1 0xE0 SHL DUP2 MSTORE PUSH1 0x4 ADD PUSH1 0x20 PUSH1 0x40 MLOAD DUP1 DUP4 SUB DUP2 DUP7 GAS STATICCALL ISZERO DUP1 ISZERO PUSH1 0x76 JUMPI RETURNDATASIZE PUSH0 PUSH0 RETURNDATACOPY RETURNDATASIZE PUSH0 REVERT JUMPDEST POP POP POP POP PUSH1 0x40 MLOAD RETURNDATASIZE PUSH1 0x1F NOT PUSH1 0x1F DUP3 ADD AND DUP3 ADD DUP1 PUSH1 0x40 MSTORE POP DUP2 ADD SWAP1 PUSH1 0x98 SWAP2 SWAP1 PUSH1 0xBA JUMP JUMPDEST SWAP1 POP SWAP1 JUMP JUMPDEST CALLDATASIZE PUSH0 PUSH0 CALLDATACOPY PUSH0 PUSH0 CALLDATASIZE PUSH0 DUP5 GAS DELEGATECALL RETURNDATASIZE PUSH0 PUSH0 RETURNDATACOPY DUP1 DUP1 ISZERO PUSH1 0xB6 JUMPI RETURNDATASIZE PUSH0 RETURN JUMPDEST RETURNDATASIZE PUSH0 REVERT JUMPDEST PUSH0 PUSH1 0x20 DUP3 DUP5 SUB SLT ISZERO PUSH1 0xC9 JUMPI PUSH0 PUSH0 REVERT JUMPDEST DUP2 MLOAD PUSH1 0x1 PUSH1 0x1 PUSH1 0xA0 SHL SUB DUP2 AND DUP2 EQ PUSH1 0xDE JUMPI PUSH0 PUSH0 REVERT JUMPDEST SWAP4 SWAP3 POP POP POP JUMP INVALID LOG2 PUSH5 0x6970667358 0x22 SLT KECCAK256 0xC6 0xED PUSH8 0xF1370D7AA3997A33 0x4C JUMP 0xC1 TSTORE 0xCA 0xD2 DUP7 0xA9 0x25 MULMOD POP SWAP4 NOT CALL 0xF8 DELEGATECALL 0xB6 DUP10 0x1F BALANCE 0xF PUSH5 0x736F6C6343 STOP ADDMOD SHR STOP CALLER 0x2A RETURNDATASIZE 0xAB PC SWAP12 0xCC SWAP8 SELFBALANCE SWAP8 0xD 0xD8 GAS 0xC3 CALLCODE 0x22 PUSH7 0x8741AE51F2A1BB 0xB8 0xF8 CALLDATALOAD JUMPDEST 0xE2 DUP14 0xD8 0xA8 PUSH9 0x189AB7A9244DF08481 0x22 ISZERO NUMBER ISZERO 0xAF PUSH18 0xFE140F3DB0FE014031783B0946B8C9D2E36C SMOD JUMPI 0xDC RETURNDATACOPY PUSH12 0x28B2580C03FD9E96C274ACF4 0xF9 SWAP14 SWAP2 0xFB 0xEC SWAP12 COINBASE DUP16 LOG1 0xD7 MOD DIV SELFDESTRUCT SHR 0xA7 EXP 0x2D DUP8 LT INVALID 0xD9 CREATE EQ 0xC8 0xC2 0xAF POP 0xC7 0xC2 0xF6 0xB2 JUMPI BASEFEE 0xAE 0x4C 0xDE 0xD8 0x22 0xE0 EXTCODESIZE PUSH28 0xEED44CF3A8A49807205CE4D355092EF5A8A18F56E8913CF4A201FBE2 DUP8 DUP3 JUMPDEST MULMOD JUMP SWAP4 0xC2 OR PUSH22 0xA26469706673582212202484E71963779130A127FEBB SELFBALANCE TIMESTAMP STOP SHR DUP15 ISZERO 0xED GT DUP12 LOG3 CALLDATACOPY MULMOD STOP EXTCODECOPY PUSH7 0xE5BFB572CE6473 PUSH16 0x6C634300081C00330000000000000000 "
		},
		"gasEstimates": {
			"creation": {
				"codeDepositCost": "3289600",
				"executionCost": "3649",
				"totalCost": "3293249"
			},
			"external": {
				"ADMIN_ROLE()": "infinite",
				"DEFAULT_ADMIN_ROLE()": "327",
				"DEFAULT_FEE()": "304",
				"FEE_MANAGER_ROLE()": "infinite",
				"PERCENT_PRECISION()": "326",
				"UPGRADER_ROLE()": "infinite",
				"URI_MANAGER_ROLE()": "infinite",
				"WHITELIST_MANAGER_ROLE()": "infinite",
				"addWhitelistedContract(address)": "infinite",
				"alva()": "2403",
				"bsktImplementation()": "2402",
				"bsktList(uint256)": "4700",
				"bsktPairImplementation()": "2404",
				"calMgmtFee(uint256,uint256)": "infinite",
				"checkAllRoles(address)": "infinite",
				"collectionUri()": "infinite",
				"createBSKT((string,string,address[],uint256[],string,uint256,string,string,uint256))": "infinite",
				"dewhitelistContract(address)": "infinite",
				"getAmountsOut(uint256,address[])": "infinite",
				"getBSKTAtIndex(uint256)": "6853",
				"getContractURI()": "infinite",
				"getPath(address,address)": "infinite",
				"getPlatformFeeConfig()": "2459",
				"getRoleAdmin(bytes32)": "2510",
				"grantRole(bytes32,address)": "infinite",
				"hasRole(bytes32,address)": "2729",
				"initialize((address,address,address,address,address,address,address,address,uint16,uint256,string,uint256))": "infinite",
				"isWhitelistedContract(address)": "2592",
				"minBSKTCreationAmount()": "2429",
				"minLpWithdrawal()": "2381",
				"minPercentALVA()": "2348",
				"monthlyFeeRate()": "2383",
				"renounceRole(bytes32,address)": "29086",
				"revokeRole(bytes32,address)": "infinite",
				"router()": "2446",
				"royaltyPercentage()": "2340",
				"royaltyReceiver()": "2448",
				"setFeeCollector(address)": "infinite",
				"setMinLpWithdrawal(uint256)": "infinite",
				"setPlatformFeeConfig(uint16,uint16,uint16)": "infinite",
				"supportsInterface(bytes4)": "503",
				"totalBSKT()": "2402",
				"updateAlva(address)": "infinite",
				"updateBSKTImplementation(address)": "infinite",
				"updateBSKTPairImplementation(address)": "infinite",
				"updateCollectionURI(string)": "infinite",
				"updateMinBSKTCreationAmount(uint256)": "infinite",
				"updateMinPercentALVA(uint16)": "infinite",
				"updateRoyaltyPercentage(uint256)": "infinite",
				"updateRoyaltyReceiver(address)": "infinite",
				"weth()": "2404",
				"whitelistedContracts(address)": "2662"
			},
			"internal": {
				"_initializeBSKTWithPair(struct IFactory.BSKTInput calldata)": "infinite",
				"_swapETHForTokens(address,struct IFactory.BSKTInput calldata,uint256)": "infinite",
				"_validateAndChargeCreationFee(struct IFactory.BSKTInput calldata)": "infinite",
				"_validateInitParams(struct IFactory.BTSFactoryInitParams calldata)": "infinite"
			}
		},
		"methodIdentifiers": {
			"ADMIN_ROLE()": "75b238fc",
			"DEFAULT_ADMIN_ROLE()": "a217fddf",
			"DEFAULT_FEE()": "4fcc1def",
			"FEE_MANAGER_ROLE()": "05db2f41",
			"PERCENT_PRECISION()": "ffe8e372",
			"UPGRADER_ROLE()": "f72c0d8b",
			"URI_MANAGER_ROLE()": "682d07d9",
			"WHITELIST_MANAGER_ROLE()": "7295ed93",
			"addWhitelistedContract(address)": "46704adb",
			"alva()": "b28775cd",
			"bsktImplementation()": "f18f9f19",
			"bsktList(uint256)": "b9e32d86",
			"bsktPairImplementation()": "a4c05e8c",
			"calMgmtFee(uint256,uint256)": "d23aaed3",
			"checkAllRoles(address)": "977b4b94",
			"collectionUri()": "defcd4b3",
			"createBSKT((string,string,address[],uint256[],string,uint256,string,string,uint256))": "c9889f6c",
			"dewhitelistContract(address)": "0b9421bd",
			"getAmountsOut(uint256,address[])": "d06ca61f",
			"getBSKTAtIndex(uint256)": "71500475",
			"getContractURI()": "37929eb4",
			"getPath(address,address)": "d88e3e3b",
			"getPlatformFeeConfig()": "c4e994a0",
			"getRoleAdmin(bytes32)": "248a9ca3",
			"grantRole(bytes32,address)": "2f2ff15d",
			"hasRole(bytes32,address)": "91d14854",
			"initialize((address,address,address,address,address,address,address,address,uint16,uint256,string,uint256))": "f016498e",
			"isWhitelistedContract(address)": "3b9589a9",
			"minBSKTCreationAmount()": "0e860316",
			"minLpWithdrawal()": "6dbd5d2a",
			"minPercentALVA()": "01c4aebe",
			"monthlyFeeRate()": "ef1e095f",
			"renounceRole(bytes32,address)": "36568abe",
			"revokeRole(bytes32,address)": "d547741f",
			"router()": "f887ea40",
			"royaltyPercentage()": "8a71bb2d",
			"royaltyReceiver()": "9fbc8713",
			"setFeeCollector(address)": "a42dce80",
			"setMinLpWithdrawal(uint256)": "b0ec8be9",
			"setPlatformFeeConfig(uint16,uint16,uint16)": "bbf75517",
			"supportsInterface(bytes4)": "01ffc9a7",
			"totalBSKT()": "7618c335",
			"updateAlva(address)": "5ee70f09",
			"updateBSKTImplementation(address)": "1aa6b19a",
			"updateBSKTPairImplementation(address)": "c20cc665",
			"updateCollectionURI(string)": "7910af6f",
			"updateMinBSKTCreationAmount(uint256)": "aea8afe9",
			"updateMinPercentALVA(uint16)": "251ae3d6",
			"updateRoyaltyPercentage(uint256)": "621bb669",
			"updateRoyaltyReceiver(address)": "29dc4d9b",
			"weth()": "3fc8cef3",
			"whitelistedContracts(address)": "391feebb"
		}
	},
	"abi": [
		{
			"inputs": [],
			"stateMutability": "nonpayable",
			"type": "constructor"
		},
		{
			"inputs": [
				{
					"internalType": "uint256",
					"name": "deadline",
					"type": "uint256"
				}
			],
			"name": "DeadlineInPast",
			"type": "error"
		},
		{
			"inputs": [],
			"name": "DuplicateRoyaltyValue",
			"type": "error"
		},
		{
			"inputs": [
				{
					"internalType": "string",
					"name": "paramName",
					"type": "string"
				}
			],
			"name": "EmptyStringParameter",
			"type": "error"
		},
		{
			"inputs": [],
			"name": "ExcessiveSwapAmount",
			"type": "error"
		},
		{
			"inputs": [
				{
					"internalType": "uint256",
					"name": "provided",
					"type": "uint256"
				},
				{
					"internalType": "uint256",
					"name": "minAllowed",
					"type": "uint256"
				}
			],
			"name": "InsufficientBSKTCreationAmount",
			"type": "error"
		},
		{
			"inputs": [],
			"name": "InvalidAddress",
			"type": "error"
		},
		{
			"inputs": [
				{
					"internalType": "uint256",
					"name": "value",
					"type": "uint256"
				},
				{
					"internalType": "uint256",
					"name": "minAllowed",
					"type": "uint256"
				},
				{
					"internalType": "uint256",
					"name": "maxAllowed",
					"type": "uint256"
				}
			],
			"name": "InvalidAlvaPercentage",
			"type": "error"
		},
		{
			"inputs": [],
			"name": "InvalidAmount",
			"type": "error"
		},
		{
			"inputs": [
				{
					"internalType": "uint256",
					"name": "provided",
					"type": "uint256"
				},
				{
					"internalType": "uint256",
					"name": "minAllowed",
					"type": "uint256"
				},
				{
					"internalType": "uint256",
					"name": "maxAllowed",
					"type": "uint256"
				}
			],
			"name": "InvalidBuffer",
			"type": "error"
		},
		{
			"inputs": [],
			"name": "InvalidFee",
			"type": "error"
		},
		{
			"inputs": [
				{
					"internalType": "uint256",
					"name": "value",
					"type": "uint256"
				},
				{
					"internalType": "uint256",
					"name": "minAllowed",
					"type": "uint256"
				},
				{
					"internalType": "uint256",
					"name": "maxAllowed",
					"type": "uint256"
				}
			],
			"name": "InvalidRoyaltyPercentage",
			"type": "error"
		},
		{
			"inputs": [],
			"name": "InvalidTokensAndWeights",
			"type": "error"
		},
		{
			"inputs": [
				{
					"internalType": "address",
					"name": "provided",
					"type": "address"
				},
				{
					"internalType": "bool",
					"name": "alreadyWhitelisted",
					"type": "bool"
				}
			],
			"name": "InvalidWhitelistAddress",
			"type": "error"
		},
		{
			"inputs": [
				{
					"internalType": "uint256",
					"name": "x",
					"type": "uint256"
				},
				{
					"internalType": "uint256",
					"name": "y",
					"type": "uint256"
				}
			],
			"name": "PRBMath_MulDiv18_Overflow",
			"type": "error"
		},
		{
			"inputs": [],
			"name": "TransferFailed",
			"type": "error"
		},
		{
			"anonymous": false,
			"inputs": [
				{
					"indexed": false,
					"internalType": "address",
					"name": "alva",
					"type": "address"
				}
			],
			"name": "AlvaUpdated",
			"type": "event"
		},
		{
			"anonymous": false,
			"inputs": [
				{
					"indexed": false,
					"internalType": "address",
					"name": "bskt",
					"type": "address"
				},
				{
					"indexed": false,
					"internalType": "address",
					"name": "bsktPair",
					"type": "address"
				},
				{
					"indexed": true,
					"internalType": "address",
					"name": "creator",
					"type": "address"
				},
				{
					"indexed": false,
					"internalType": "uint256",
					"name": "amount",
					"type": "uint256"
				},
				{
					"indexed": false,
					"internalType": "uint256",
					"name": "_buffer",
					"type": "uint256"
				},
				{
					"indexed": false,
					"internalType": "string",
					"name": "_id",
					"type": "string"
				},
				{
					"indexed": false,
					"internalType": "string",
					"name": "description",
					"type": "string"
				},
				{
					"indexed": false,
					"internalType": "uint256",
					"name": "feeAmount",
					"type": "uint256"
				}
			],
			"name": "BSKTCreated",
			"type": "event"
		},
		{
			"anonymous": false,
			"inputs": [
				{
					"indexed": false,
					"internalType": "uint256",
					"name": "feeAmount",
					"type": "uint256"
				},
				{
					"indexed": false,
					"internalType": "uint256",
					"name": "feePercent",
					"type": "uint256"
				},
				{
					"indexed": true,
					"internalType": "address",
					"name": "feeCollector",
					"type": "address"
				}
			],
			"name": "BSKTCreationFeeDeducted",
			"type": "event"
		},
		{
			"anonymous": false,
			"inputs": [
				{
					"indexed": true,
					"internalType": "address",
					"name": "bsktImplementation",
					"type": "address"
				}
			],
			"name": "BSKTImplementationUpdated",
			"type": "event"
		},
		{
			"anonymous": false,
			"inputs": [
				{
					"indexed": true,
					"internalType": "address",
					"name": "bsktPairImplementation",
					"type": "address"
				}
			],
			"name": "BSKTPairImplementationUpdated",
			"type": "event"
		},
		{
			"anonymous": false,
			"inputs": [
				{
					"indexed": false,
					"internalType": "string",
					"name": "newURI",
					"type": "string"
				}
			],
			"name": "CollectionURIUpdated",
			"type": "event"
		},
		{
			"anonymous": false,
			"inputs": [
				{
					"indexed": true,
					"internalType": "address",
					"name": "contractAddress",
					"type": "address"
				}
			],
			"name": "ContractRemovedFromWhitelist",
			"type": "event"
		},
		{
			"anonymous": false,
			"inputs": [
				{
					"indexed": true,
					"internalType": "address",
					"name": "contractAddress",
					"type": "address"
				}
			],
			"name": "ContractWhitelisted",
			"type": "event"
		},
		{
			"anonymous": false,
			"inputs": [
				{
					"indexed": true,
					"internalType": "address",
					"name": "newFeeCollector",
					"type": "address"
				}
			],
			"name": "FeeCollectorUpdated",
			"type": "event"
		},
		{
			"anonymous": false,
			"inputs": [
				{
					"indexed": false,
					"internalType": "uint8",
					"name": "version",
					"type": "uint8"
				}
			],
			"name": "Initialized",
			"type": "event"
		},
		{
			"anonymous": false,
			"inputs": [
				{
					"indexed": false,
					"internalType": "uint256",
					"name": "percent",
					"type": "uint256"
				}
			],
			"name": "MinAlvaPercentageUpdated",
			"type": "event"
		},
		{
			"anonymous": false,
			"inputs": [
				{
					"indexed": true,
					"internalType": "address",
					"name": "caller",
					"type": "address"
				},
				{
					"indexed": false,
					"internalType": "uint256",
					"name": "amount",
					"type": "uint256"
				}
			],
			"name": "MinBSKTCreationAmountUpdated",
			"type": "event"
		},
		{
			"anonymous": false,
			"inputs": [
				{
					"indexed": false,
					"internalType": "uint256",
					"name": "newMinLpWithdrawal",
					"type": "uint256"
				}
			],
			"name": "MinLpWithdrawalUpdated",
			"type": "event"
		},
		{
			"anonymous": false,
			"inputs": [
				{
					"indexed": false,
					"internalType": "uint16",
					"name": "bsktCreationFee",
					"type": "uint16"
				},
				{
					"indexed": false,
					"internalType": "uint16",
					"name": "contributionFee",
					"type": "uint16"
				},
				{
					"indexed": false,
					"internalType": "uint16",
					"name": "withdrawalFee",
					"type": "uint16"
				}
			],
			"name": "PlatformFeesUpdated",
			"type": "event"
		},
		{
			"anonymous": false,
			"inputs": [
				{
					"indexed": true,
					"internalType": "bytes32",
					"name": "role",
					"type": "bytes32"
				},
				{
					"indexed": true,
					"internalType": "bytes32",
					"name": "previousAdminRole",
					"type": "bytes32"
				},
				{
					"indexed": true,
					"internalType": "bytes32",
					"name": "newAdminRole",
					"type": "bytes32"
				}
			],
			"name": "RoleAdminChanged",
			"type": "event"
		},
		{
			"anonymous": false,
			"inputs": [
				{
					"indexed": true,
					"internalType": "bytes32",
					"name": "role",
					"type": "bytes32"
				},
				{
					"indexed": true,
					"internalType": "address",
					"name": "account",
					"type": "address"
				},
				{
					"indexed": true,
					"internalType": "address",
					"name": "sender",
					"type": "address"
				}
			],
			"name": "RoleGranted",
			"type": "event"
		},
		{
			"anonymous": false,
			"inputs": [
				{
					"indexed": true,
					"internalType": "bytes32",
					"name": "role",
					"type": "bytes32"
				},
				{
					"indexed": true,
					"internalType": "address",
					"name": "account",
					"type": "address"
				},
				{
					"indexed": true,
					"internalType": "address",
					"name": "sender",
					"type": "address"
				}
			],
			"name": "RoleRevoked",
			"type": "event"
		},
		{
			"anonymous": false,
			"inputs": [
				{
					"indexed": true,
					"internalType": "address",
					"name": "newRoyaltyReceiver",
					"type": "address"
				}
			],
			"name": "RoyaltyReceiverUpdated",
			"type": "event"
		},
		{
			"anonymous": false,
			"inputs": [
				{
					"indexed": false,
					"internalType": "uint256",
					"name": "newRoyaltyPercentage",
					"type": "uint256"
				}
			],
			"name": "RoyaltyUpdated",
			"type": "event"
		},
		{
			"inputs": [],
			"name": "ADMIN_ROLE",
			"outputs": [
				{
					"internalType": "bytes32",
					"name": "",
					"type": "bytes32"
				}
			],
			"stateMutability": "view",
			"type": "function"
		},
		{
			"inputs": [],
			"name": "DEFAULT_ADMIN_ROLE",
			"outputs": [
				{
					"internalType": "bytes32",
					"name": "",
					"type": "bytes32"
				}
			],
			"stateMutability": "view",
			"type": "function"
		},
		{
			"inputs": [],
			"name": "DEFAULT_FEE",
			"outputs": [
				{
					"internalType": "uint16",
					"name": "",
					"type": "uint16"
				}
			],
			"stateMutability": "view",
			"type": "function"
		},
		{
			"inputs": [],
			"name": "FEE_MANAGER_ROLE",
			"outputs": [
				{
					"internalType": "bytes32",
					"name": "",
					"type": "bytes32"
				}
			],
			"stateMutability": "view",
			"type": "function"
		},
		{
			"inputs": [],
			"name": "PERCENT_PRECISION",
			"outputs": [
				{
					"internalType": "uint256",
					"name": "",
					"type": "uint256"
				}
			],
			"stateMutability": "view",
			"type": "function"
		},
		{
			"inputs": [],
			"name": "UPGRADER_ROLE",
			"outputs": [
				{
					"internalType": "bytes32",
					"name": "",
					"type": "bytes32"
				}
			],
			"stateMutability": "view",
			"type": "function"
		},
		{
			"inputs": [],
			"name": "URI_MANAGER_ROLE",
			"outputs": [
				{
					"internalType": "bytes32",
					"name": "",
					"type": "bytes32"
				}
			],
			"stateMutability": "view",
			"type": "function"
		},
		{
			"inputs": [],
			"name": "WHITELIST_MANAGER_ROLE",
			"outputs": [
				{
					"internalType": "bytes32",
					"name": "",
					"type": "bytes32"
				}
			],
			"stateMutability": "view",
			"type": "function"
		},
		{
			"inputs": [
				{
					"internalType": "address",
					"name": "contractAddr",
					"type": "address"
				}
			],
			"name": "addWhitelistedContract",
			"outputs": [],
			"stateMutability": "nonpayable",
			"type": "function"
		},
		{
			"inputs": [],
			"name": "alva",
			"outputs": [
				{
					"internalType": "address",
					"name": "",
					"type": "address"
				}
			],
			"stateMutability": "view",
			"type": "function"
		},
		{
			"inputs": [],
			"name": "bsktImplementation",
			"outputs": [
				{
					"internalType": "address",
					"name": "",
					"type": "address"
				}
			],
			"stateMutability": "view",
			"type": "function"
		},
		{
			"inputs": [
				{
					"internalType": "uint256",
					"name": "",
					"type": "uint256"
				}
			],
			"name": "bsktList",
			"outputs": [
				{
					"internalType": "address",
					"name": "",
					"type": "address"
				}
			],
			"stateMutability": "view",
			"type": "function"
		},
		{
			"inputs": [],
			"name": "bsktPairImplementation",
			"outputs": [
				{
					"internalType": "address",
					"name": "",
					"type": "address"
				}
			],
			"stateMutability": "view",
			"type": "function"
		},
		{
			"inputs": [
				{
					"internalType": "uint256",
					"name": "months",
					"type": "uint256"
				},
				{
					"internalType": "uint256",
					"name": "lpSupply",
					"type": "uint256"
				}
			],
			"name": "calMgmtFee",
			"outputs": [
				{
					"internalType": "uint256",
					"name": "",
					"type": "uint256"
				}
			],
			"stateMutability": "view",
			"type": "function"
		},
		{
			"inputs": [
				{
					"internalType": "address",
					"name": "account",
					"type": "address"
				}
			],
			"name": "checkAllRoles",
			"outputs": [
				{
					"internalType": "bool",
					"name": "",
					"type": "bool"
				},
				{
					"internalType": "bool",
					"name": "",
					"type": "bool"
				},
				{
					"internalType": "bool",
					"name": "",
					"type": "bool"
				},
				{
					"internalType": "bool",
					"name": "",
					"type": "bool"
				},
				{
					"internalType": "bool",
					"name": "",
					"type": "bool"
				},
				{
					"internalType": "bool",
					"name": "",
					"type": "bool"
				}
			],
			"stateMutability": "view",
			"type": "function"
		},
		{
			"inputs": [],
			"name": "collectionUri",
			"outputs": [
				{
					"internalType": "string",
					"name": "",
					"type": "string"
				}
			],
			"stateMutability": "view",
			"type": "function"
		},
		{
			"inputs": [
				{
					"components": [
						{
							"internalType": "string",
							"name": "name",
							"type": "string"
						},
						{
							"internalType": "string",
							"name": "symbol",
							"type": "string"
						},
						{
							"internalType": "address[]",
							"name": "tokens",
							"type": "address[]"
						},
						{
							"internalType": "uint256[]",
							"name": "weights",
							"type": "uint256[]"
						},
						{
							"internalType": "string",
							"name": "tokenURI",
							"type": "string"
						},
						{
							"internalType": "uint256",
							"name": "slippage",
							"type": "uint256"
						},
						{
							"internalType": "string",
							"name": "id",
							"type": "string"
						},
						{
							"internalType": "string",
							"name": "description",
							"type": "string"
						},
						{
							"internalType": "uint256",
							"name": "deadline",
							"type": "uint256"
						}
					],
					"internalType": "struct IFactory.BSKTInput",
					"name": "input",
					"type": "tuple"
				}
			],
			"name": "createBSKT",
			"outputs": [],
			"stateMutability": "payable",
			"type": "function"
		},
		{
			"inputs": [
				{
					"internalType": "address",
					"name": "contractAddr",
					"type": "address"
				}
			],
			"name": "dewhitelistContract",
			"outputs": [],
			"stateMutability": "nonpayable",
			"type": "function"
		},
		{
			"inputs": [
				{
					"internalType": "uint256",
					"name": "_amount",
					"type": "uint256"
				},
				{
					"internalType": "address[]",
					"name": "_path",
					"type": "address[]"
				}
			],
			"name": "getAmountsOut",
			"outputs": [
				{
					"internalType": "uint256",
					"name": "",
					"type": "uint256"
				}
			],
			"stateMutability": "view",
			"type": "function"
		},
		{
			"inputs": [
				{
					"internalType": "uint256",
					"name": "index",
					"type": "uint256"
				}
			],
			"name": "getBSKTAtIndex",
			"outputs": [
				{
					"internalType": "address",
					"name": "",
					"type": "address"
				}
			],
			"stateMutability": "view",
			"type": "function"
		},
		{
			"inputs": [],
			"name": "getContractURI",
			"outputs": [
				{
					"internalType": "string",
					"name": "",
					"type": "string"
				}
			],
			"stateMutability": "view",
			"type": "function"
		},
		{
			"inputs": [
				{
					"internalType": "address",
					"name": "_tokenA",
					"type": "address"
				},
				{
					"internalType": "address",
					"name": "_tokenB",
					"type": "address"
				}
			],
			"name": "getPath",
			"outputs": [
				{
					"internalType": "address[]",
					"name": "",
					"type": "address[]"
				}
			],
			"stateMutability": "pure",
			"type": "function"
		},
		{
			"inputs": [],
			"name": "getPlatformFeeConfig",
			"outputs": [
				{
					"internalType": "uint16",
					"name": "",
					"type": "uint16"
				},
				{
					"internalType": "uint16",
					"name": "",
					"type": "uint16"
				},
				{
					"internalType": "uint16",
					"name": "",
					"type": "uint16"
				},
				{
					"internalType": "address",
					"name": "",
					"type": "address"
				}
			],
			"stateMutability": "view",
			"type": "function"
		},
		{
			"inputs": [
				{
					"internalType": "bytes32",
					"name": "role",
					"type": "bytes32"
				}
			],
			"name": "getRoleAdmin",
			"outputs": [
				{
					"internalType": "bytes32",
					"name": "",
					"type": "bytes32"
				}
			],
			"stateMutability": "view",
			"type": "function"
		},
		{
			"inputs": [
				{
					"internalType": "bytes32",
					"name": "role",
					"type": "bytes32"
				},
				{
					"internalType": "address",
					"name": "account",
					"type": "address"
				}
			],
			"name": "grantRole",
			"outputs": [],
			"stateMutability": "nonpayable",
			"type": "function"
		},
		{
			"inputs": [
				{
					"internalType": "bytes32",
					"name": "role",
					"type": "bytes32"
				},
				{
					"internalType": "address",
					"name": "account",
					"type": "address"
				}
			],
			"name": "hasRole",
			"outputs": [
				{
					"internalType": "bool",
					"name": "",
					"type": "bool"
				}
			],
			"stateMutability": "view",
			"type": "function"
		},
		{
			"inputs": [
				{
					"components": [
						{
							"internalType": "address",
							"name": "_alva",
							"type": "address"
						},
						{
							"internalType": "address",
							"name": "_bsktImplementation",
							"type": "address"
						},
						{
							"internalType": "address",
							"name": "_bsktPairImplementation",
							"type": "address"
						},
						{
							"internalType": "address",
							"name": "_routerAddress",
							"type": "address"
						},
						{
							"internalType": "address",
							"name": "_wethAddress",
							"type": "address"
						},
						{
							"internalType": "address",
							"name": "_royaltyReceiver",
							"type": "address"
						},
						{
							"internalType": "address",
							"name": "_feeCollector",
							"type": "address"
						},
						{
							"internalType": "address",
							"name": "_defaultMarketplace",
							"type": "address"
						},
						{
							"internalType": "uint16",
							"name": "_minPercentALVA",
							"type": "uint16"
						},
						{
							"internalType": "uint256",
							"name": "_monthlyFeeRate",
							"type": "uint256"
						},
						{
							"internalType": "string",
							"name": "_collectionUri",
							"type": "string"
						},
						{
							"internalType": "uint256",
							"name": "_minBSKTCreationAmount",
							"type": "uint256"
						}
					],
					"internalType": "struct IFactory.BTSFactoryInitParams",
					"name": "params",
					"type": "tuple"
				}
			],
			"name": "initialize",
			"outputs": [],
			"stateMutability": "nonpayable",
			"type": "function"
		},
		{
			"inputs": [
				{
					"internalType": "address",
					"name": "contractAddr",
					"type": "address"
				}
			],
			"name": "isWhitelistedContract",
			"outputs": [
				{
					"internalType": "bool",
					"name": "",
					"type": "bool"
				}
			],
			"stateMutability": "view",
			"type": "function"
		},
		{
			"inputs": [],
			"name": "minBSKTCreationAmount",
			"outputs": [
				{
					"internalType": "uint256",
					"name": "",
					"type": "uint256"
				}
			],
			"stateMutability": "view",
			"type": "function"
		},
		{
			"inputs": [],
			"name": "minLpWithdrawal",
			"outputs": [
				{
					"internalType": "uint256",
					"name": "",
					"type": "uint256"
				}
			],
			"stateMutability": "view",
			"type": "function"
		},
		{
			"inputs": [],
			"name": "minPercentALVA",
			"outputs": [
				{
					"internalType": "uint16",
					"name": "",
					"type": "uint16"
				}
			],
			"stateMutability": "view",
			"type": "function"
		},
		{
			"inputs": [],
			"name": "monthlyFeeRate",
			"outputs": [
				{
					"internalType": "uint256",
					"name": "",
					"type": "uint256"
				}
			],
			"stateMutability": "view",
			"type": "function"
		},
		{
			"inputs": [
				{
					"internalType": "bytes32",
					"name": "role",
					"type": "bytes32"
				},
				{
					"internalType": "address",
					"name": "account",
					"type": "address"
				}
			],
			"name": "renounceRole",
			"outputs": [],
			"stateMutability": "nonpayable",
			"type": "function"
		},
		{
			"inputs": [
				{
					"internalType": "bytes32",
					"name": "role",
					"type": "bytes32"
				},
				{
					"internalType": "address",
					"name": "account",
					"type": "address"
				}
			],
			"name": "revokeRole",
			"outputs": [],
			"stateMutability": "nonpayable",
			"type": "function"
		},
		{
			"inputs": [],
			"name": "router",
			"outputs": [
				{
					"internalType": "address",
					"name": "",
					"type": "address"
				}
			],
			"stateMutability": "view",
			"type": "function"
		},
		{
			"inputs": [],
			"name": "royaltyPercentage",
			"outputs": [
				{
					"internalType": "uint256",
					"name": "",
					"type": "uint256"
				}
			],
			"stateMutability": "view",
			"type": "function"
		},
		{
			"inputs": [],
			"name": "royaltyReceiver",
			"outputs": [
				{
					"internalType": "address",
					"name": "",
					"type": "address"
				}
			],
			"stateMutability": "view",
			"type": "function"
		},
		{
			"inputs": [
				{
					"internalType": "address",
					"name": "_feeCollector",
					"type": "address"
				}
			],
			"name": "setFeeCollector",
			"outputs": [],
			"stateMutability": "nonpayable",
			"type": "function"
		},
		{
			"inputs": [
				{
					"internalType": "uint256",
					"name": "newMin",
					"type": "uint256"
				}
			],
			"name": "setMinLpWithdrawal",
			"outputs": [],
			"stateMutability": "nonpayable",
			"type": "function"
		},
		{
			"inputs": [
				{
					"internalType": "uint16",
					"name": "_bsktCreationFee",
					"type": "uint16"
				},
				{
					"internalType": "uint16",
					"name": "_contributionFee",
					"type": "uint16"
				},
				{
					"internalType": "uint16",
					"name": "_withdrawalFee",
					"type": "uint16"
				}
			],
			"name": "setPlatformFeeConfig",
			"outputs": [],
			"stateMutability": "nonpayable",
			"type": "function"
		},
		{
			"inputs": [
				{
					"internalType": "bytes4",
					"name": "interfaceId",
					"type": "bytes4"
				}
			],
			"name": "supportsInterface",
			"outputs": [
				{
					"internalType": "bool",
					"name": "",
					"type": "bool"
				}
			],
			"stateMutability": "view",
			"type": "function"
		},
		{
			"inputs": [],
			"name": "totalBSKT",
			"outputs": [
				{
					"internalType": "uint256",
					"name": "",
					"type": "uint256"
				}
			],
			"stateMutability": "view",
			"type": "function"
		},
		{
			"inputs": [
				{
					"internalType": "address",
					"name": "_alva",
					"type": "address"
				}
			],
			"name": "updateAlva",
			"outputs": [],
			"stateMutability": "nonpayable",
			"type": "function"
		},
		{
			"inputs": [
				{
					"internalType": "address",
					"name": "_bsktImplementation",
					"type": "address"
				}
			],
			"name": "updateBSKTImplementation",
			"outputs": [],
			"stateMutability": "nonpayable",
			"type": "function"
		},
		{
			"inputs": [
				{
					"internalType": "address",
					"name": "_bsktPairImplementation",
					"type": "address"
				}
			],
			"name": "updateBSKTPairImplementation",
			"outputs": [],
			"stateMutability": "nonpayable",
			"type": "function"
		},
		{
			"inputs": [
				{
					"internalType": "string",
					"name": "_collectionURI",
					"type": "string"
				}
			],
			"name": "updateCollectionURI",
			"outputs": [],
			"stateMutability": "nonpayable",
			"type": "function"
		},
		{
			"inputs": [
				{
					"internalType": "uint256",
					"name": "_minBSKTCreationAmount",
					"type": "uint256"
				}
			],
			"name": "updateMinBSKTCreationAmount",
			"outputs": [],
			"stateMutability": "nonpayable",
			"type": "function"
		},
		{
			"inputs": [
				{
					"internalType": "uint16",
					"name": "_minPercentALVA",
					"type": "uint16"
				}
			],
			"name": "updateMinPercentALVA",
			"outputs": [],
			"stateMutability": "nonpayable",
			"type": "function"
		},
		{
			"inputs": [
				{
					"internalType": "uint256",
					"name": "_royaltyPercentage",
					"type": "uint256"
				}
			],
			"name": "updateRoyaltyPercentage",
			"outputs": [],
			"stateMutability": "nonpayable",
			"type": "function"
		},
		{
			"inputs": [
				{
					"internalType": "address",
					"name": "_royaltyReceiver",
					"type": "address"
				}
			],
			"name": "updateRoyaltyReceiver",
			"outputs": [],
			"stateMutability": "nonpayable",
			"type": "function"
		},
		{
			"inputs": [],
			"name": "weth",
			"outputs": [
				{
					"internalType": "address",
					"name": "",
					"type": "address"
				}
			],
			"stateMutability": "view",
			"type": "function"
		},
		{
			"inputs": [
				{
					"internalType": "address",
					"name": "",
					"type": "address"
				}
			],
			"name": "whitelistedContracts",
			"outputs": [
				{
					"internalType": "bool",
					"name": "",
					"type": "bool"
				}
			],
			"stateMutability": "view",
			"type": "function"
		}
	]
}